{"src/core/Registry.sol":{"Registry":{"abi":[{"inputs":[],"name":"ContractAlreadyRegistered","type":"error"},{"inputs":[],"name":"ContractDoesNotImplementITradeInterface","type":"error"},{"anonymous":false,"inputs":[{"indexed":false,"internalType":"address","name":"creator","type":"address"},{"indexed":false,"internalType":"address","name":"contractAddress","type":"address"}],"name":"ContractRegistered","type":"event"},{"inputs":[{"internalType":"address","name":"","type":"address"}],"name":"contractCreator","outputs":[{"internalType":"address","name":"","type":"address"}],"stateMutability":"view","type":"function"},{"inputs":[{"internalType":"address","name":"","type":"address"},{"internalType":"uint256","name":"","type":"uint256"}],"name":"creatorContracts","outputs":[{"internalType":"address","name":"","type":"address"}],"stateMutability":"view","type":"function"},{"inputs":[{"internalType":"address","name":"contractAddress","type":"address"}],"name":"getContractCreator","outputs":[{"internalType":"address","name":"","type":"address"}],"stateMutability":"view","type":"function"},{"inputs":[{"internalType":"address","name":"creator","type":"address"}],"name":"getCreatorContracts","outputs":[{"internalType":"address[]","name":"","type":"address[]"}],"stateMutability":"view","type":"function"},{"inputs":[{"internalType":"address","name":"creator","type":"address"},{"internalType":"address","name":"contractAddress","type":"address"}],"name":"register","outputs":[],"stateMutability":"nonpayable","type":"function"}],"evm":{"bytecode":{"linkReferences":{},"object":"60806040523460195760405161068861001f823961068890f35b600080fdfe6080604052600436101561001257600080fd5b60003560e01c80635e1970f114610062578063aa6773541461005d578063cc74499314610058578063d264e453146100535763d571770c03610088576102e3565b6102a7565b61021b565b61010c565b6100b0565b6001600160a01b031690565b90565b6001600160a01b0381165b0361008857565b600080fd5b9050359061009a82610076565b565b90602082820312610088576100739161008d565b34610088576100e56100cb6100c636600461009c565b610311565b604051918291826001600160a01b03909116815260200190565b0390f35b919060408382031261008857610073906020610105828661008d565b940161008d565b346100885761012561011f3660046100e9565b9061045f565b604051005b80610081565b9050359061009a8261012a565b919060408382031261008857610073906020610159828661008d565b9401610130565b61007390610067906001600160a01b031682565b61007390610160565b61007390610174565b906101909061017d565b600052602052604060002090565b634e487b7160e01b600052603260045260246000fd5b80548210156101d7576101ce600191600052602060002090565b91020190600090565b61019e565b610073916008021c610067565b9061007391546101dc565b6101ff906000610186565b80548210156100885761007391610215916101b4565b906101e9565b34610088576100e56100cb61023136600461013d565b906101f4565b90610257610250610246845190565b8084529260200190565b9260200190565b9060005b8181106102685750505090565b90919261028e61028760019286516001600160a01b0316815260200190565b9460200190565b92910161025b565b602080825261007392910190610237565b34610088576100e56102c26102bd36600461009c565b610636565b60405191829182610296565b60006102de610073926001610186565b6101e9565b34610088576100e56100cb6102f936600461009c565b6102ce565b61007390610067565b61007390546102fe565b61032861007391610320600090565b506001610186565b610307565b6100676100736100739290565b6100739061032d565b634e487b7160e01b600052604160045260246000fd5b90601f01601f1916810190811067ffffffffffffffff82111761037b57604052565b610343565b801515610081565b9050519061009a82610380565b906020828203126100885761007391610388565b6040513d6000823e3d90fd5b916001600160a01b0360089290920291821b911b5b9181191691161790565b91906103e56100736103ed9361017d565b9083546103b5565b9055565b908154916801000000000000000083101561037b578261041991600161009a950181556101b4565b906103d4565b906001600160a01b03906103ca565b9061043e6100736103ed9261017d565b825461041f565b6001600160a01b0391821681529116602082015260400190565b919061046f610328826001610186565b9260009361048f6104826100678761033a565b916001600160a01b031690565b03610592576104a56104a08361017d565b61017d565b60206104b060405190565b6301ffc9a760e01b8152632fa757f360e01b600482015291829060249082905afa801561058d576104e79160009161056057501590565b610551576105238261051e610073847f768fb430a0d4b201cb764ab221c316dd14d8babf2e4b2348e05964c6565318b69798610186565b6103f1565b61053781610532846001610186565b61042e565b61054c61054360405190565b92839283610445565b0390a1565b63f8025b1b60e01b8452600484fd5b610582915060203d602011610586575b61057a8183610359565b810190610395565b1590565b503d610570565b6103a9565b6370bc3e8560e01b8452600484fd5b906105bc6105b0610246845490565b92600052602060002090565b9060005b8181106105cd5750505090565b9091926105fa6105f36001926105e287610307565b6001600160a01b0316815260200190565b9460010190565b9291016105c0565b90610073916105a1565b9061009a6106269261061d60405190565b93848092610602565b0383610359565b6100739061060c565b61064d61007391610645606090565b506000610186565b61062d56fea264697066735822122041d8f72f73c24a5b3373ae97ebf413b462ebad32a4e2e3f41040e1193253302664736f6c634300081c0033","opcodes":"PUSH1 0x80 PUSH1 0x40 MSTORE CALLVALUE PUSH1 0x19 JUMPI PUSH1 0x40 MLOAD PUSH2 0x688 PUSH2 0x1F DUP3 CODECOPY PUSH2 0x688 SWAP1 RETURN JUMPDEST PUSH1 0x0 DUP1 REVERT INVALID PUSH1 0x80 PUSH1 0x40 MSTORE PUSH1 0x4 CALLDATASIZE LT ISZERO PUSH2 0x12 JUMPI PUSH1 0x0 DUP1 REVERT JUMPDEST PUSH1 0x0 CALLDATALOAD PUSH1 0xE0 SHR DUP1 PUSH4 0x5E1970F1 EQ PUSH2 0x62 JUMPI DUP1 PUSH4 0xAA677354 EQ PUSH2 0x5D JUMPI DUP1 PUSH4 0xCC744993 EQ PUSH2 0x58 JUMPI DUP1 PUSH4 0xD264E453 EQ PUSH2 0x53 JUMPI PUSH4 0xD571770C SUB PUSH2 0x88 JUMPI PUSH2 0x2E3 JUMP JUMPDEST PUSH2 0x2A7 JUMP JUMPDEST PUSH2 0x21B JUMP JUMPDEST PUSH2 0x10C JUMP JUMPDEST PUSH2 0xB0 JUMP JUMPDEST PUSH1 0x1 PUSH1 0x1 PUSH1 0xA0 SHL SUB AND SWAP1 JUMP JUMPDEST SWAP1 JUMP JUMPDEST PUSH1 0x1 PUSH1 0x1 PUSH1 0xA0 SHL SUB DUP2 AND JUMPDEST SUB PUSH2 0x88 JUMPI JUMP JUMPDEST PUSH1 0x0 DUP1 REVERT JUMPDEST SWAP1 POP CALLDATALOAD SWAP1 PUSH2 0x9A DUP3 PUSH2 0x76 JUMP JUMPDEST JUMP JUMPDEST SWAP1 PUSH1 0x20 DUP3 DUP3 SUB SLT PUSH2 0x88 JUMPI PUSH2 0x73 SWAP2 PUSH2 0x8D JUMP JUMPDEST CALLVALUE PUSH2 0x88 JUMPI PUSH2 0xE5 PUSH2 0xCB PUSH2 0xC6 CALLDATASIZE PUSH1 0x4 PUSH2 0x9C JUMP JUMPDEST PUSH2 0x311 JUMP JUMPDEST PUSH1 0x40 MLOAD SWAP2 DUP3 SWAP2 DUP3 PUSH1 0x1 PUSH1 0x1 PUSH1 0xA0 SHL SUB SWAP1 SWAP2 AND DUP2 MSTORE PUSH1 0x20 ADD SWAP1 JUMP JUMPDEST SUB SWAP1 RETURN JUMPDEST SWAP2 SWAP1 PUSH1 0x40 DUP4 DUP3 SUB SLT PUSH2 0x88 JUMPI PUSH2 0x73 SWAP1 PUSH1 0x20 PUSH2 0x105 DUP3 DUP7 PUSH2 0x8D JUMP JUMPDEST SWAP5 ADD PUSH2 0x8D JUMP JUMPDEST CALLVALUE PUSH2 0x88 JUMPI PUSH2 0x125 PUSH2 0x11F CALLDATASIZE PUSH1 0x4 PUSH2 0xE9 JUMP JUMPDEST SWAP1 PUSH2 0x45F JUMP JUMPDEST PUSH1 0x40 MLOAD STOP JUMPDEST DUP1 PUSH2 0x81 JUMP JUMPDEST SWAP1 POP CALLDATALOAD SWAP1 PUSH2 0x9A DUP3 PUSH2 0x12A JUMP JUMPDEST SWAP2 SWAP1 PUSH1 0x40 DUP4 DUP3 SUB SLT PUSH2 0x88 JUMPI PUSH2 0x73 SWAP1 PUSH1 0x20 PUSH2 0x159 DUP3 DUP7 PUSH2 0x8D JUMP JUMPDEST SWAP5 ADD PUSH2 0x130 JUMP JUMPDEST PUSH2 0x73 SWAP1 PUSH2 0x67 SWAP1 PUSH1 0x1 PUSH1 0x1 PUSH1 0xA0 SHL SUB AND DUP3 JUMP JUMPDEST PUSH2 0x73 SWAP1 PUSH2 0x160 JUMP JUMPDEST PUSH2 0x73 SWAP1 PUSH2 0x174 JUMP JUMPDEST SWAP1 PUSH2 0x190 SWAP1 PUSH2 0x17D JUMP JUMPDEST PUSH1 0x0 MSTORE PUSH1 0x20 MSTORE PUSH1 0x40 PUSH1 0x0 KECCAK256 SWAP1 JUMP JUMPDEST PUSH4 0x4E487B71 PUSH1 0xE0 SHL PUSH1 0x0 MSTORE PUSH1 0x32 PUSH1 0x4 MSTORE PUSH1 0x24 PUSH1 0x0 REVERT JUMPDEST DUP1 SLOAD DUP3 LT ISZERO PUSH2 0x1D7 JUMPI PUSH2 0x1CE PUSH1 0x1 SWAP2 PUSH1 0x0 MSTORE PUSH1 0x20 PUSH1 0x0 KECCAK256 SWAP1 JUMP JUMPDEST SWAP2 MUL ADD SWAP1 PUSH1 0x0 SWAP1 JUMP JUMPDEST PUSH2 0x19E JUMP JUMPDEST PUSH2 0x73 SWAP2 PUSH1 0x8 MUL SHR PUSH2 0x67 JUMP JUMPDEST SWAP1 PUSH2 0x73 SWAP2 SLOAD PUSH2 0x1DC JUMP JUMPDEST PUSH2 0x1FF SWAP1 PUSH1 0x0 PUSH2 0x186 JUMP JUMPDEST DUP1 SLOAD DUP3 LT ISZERO PUSH2 0x88 JUMPI PUSH2 0x73 SWAP2 PUSH2 0x215 SWAP2 PUSH2 0x1B4 JUMP JUMPDEST SWAP1 PUSH2 0x1E9 JUMP JUMPDEST CALLVALUE PUSH2 0x88 JUMPI PUSH2 0xE5 PUSH2 0xCB PUSH2 0x231 CALLDATASIZE PUSH1 0x4 PUSH2 0x13D JUMP JUMPDEST SWAP1 PUSH2 0x1F4 JUMP JUMPDEST SWAP1 PUSH2 0x257 PUSH2 0x250 PUSH2 0x246 DUP5 MLOAD SWAP1 JUMP JUMPDEST DUP1 DUP5 MSTORE SWAP3 PUSH1 0x20 ADD SWAP1 JUMP JUMPDEST SWAP3 PUSH1 0x20 ADD SWAP1 JUMP JUMPDEST SWAP1 PUSH1 0x0 JUMPDEST DUP2 DUP2 LT PUSH2 0x268 JUMPI POP POP POP SWAP1 JUMP JUMPDEST SWAP1 SWAP2 SWAP3 PUSH2 0x28E PUSH2 0x287 PUSH1 0x1 SWAP3 DUP7 MLOAD PUSH1 0x1 PUSH1 0x1 PUSH1 0xA0 SHL SUB AND DUP2 MSTORE PUSH1 0x20 ADD SWAP1 JUMP JUMPDEST SWAP5 PUSH1 0x20 ADD SWAP1 JUMP JUMPDEST SWAP3 SWAP2 ADD PUSH2 0x25B JUMP JUMPDEST PUSH1 0x20 DUP1 DUP3 MSTORE PUSH2 0x73 SWAP3 SWAP2 ADD SWAP1 PUSH2 0x237 JUMP JUMPDEST CALLVALUE PUSH2 0x88 JUMPI PUSH2 0xE5 PUSH2 0x2C2 PUSH2 0x2BD CALLDATASIZE PUSH1 0x4 PUSH2 0x9C JUMP JUMPDEST PUSH2 0x636 JUMP JUMPDEST PUSH1 0x40 MLOAD SWAP2 DUP3 SWAP2 DUP3 PUSH2 0x296 JUMP JUMPDEST PUSH1 0x0 PUSH2 0x2DE PUSH2 0x73 SWAP3 PUSH1 0x1 PUSH2 0x186 JUMP JUMPDEST PUSH2 0x1E9 JUMP JUMPDEST CALLVALUE PUSH2 0x88 JUMPI PUSH2 0xE5 PUSH2 0xCB PUSH2 0x2F9 CALLDATASIZE PUSH1 0x4 PUSH2 0x9C JUMP JUMPDEST PUSH2 0x2CE JUMP JUMPDEST PUSH2 0x73 SWAP1 PUSH2 0x67 JUMP JUMPDEST PUSH2 0x73 SWAP1 SLOAD PUSH2 0x2FE JUMP JUMPDEST PUSH2 0x328 PUSH2 0x73 SWAP2 PUSH2 0x320 PUSH1 0x0 SWAP1 JUMP JUMPDEST POP PUSH1 0x1 PUSH2 0x186 JUMP JUMPDEST PUSH2 0x307 JUMP JUMPDEST PUSH2 0x67 PUSH2 0x73 PUSH2 0x73 SWAP3 SWAP1 JUMP JUMPDEST PUSH2 0x73 SWAP1 PUSH2 0x32D JUMP JUMPDEST PUSH4 0x4E487B71 PUSH1 0xE0 SHL PUSH1 0x0 MSTORE PUSH1 0x41 PUSH1 0x4 MSTORE PUSH1 0x24 PUSH1 0x0 REVERT JUMPDEST SWAP1 PUSH1 0x1F ADD PUSH1 0x1F NOT AND DUP2 ADD SWAP1 DUP2 LT PUSH8 0xFFFFFFFFFFFFFFFF DUP3 GT OR PUSH2 0x37B JUMPI PUSH1 0x40 MSTORE JUMP JUMPDEST PUSH2 0x343 JUMP JUMPDEST DUP1 ISZERO ISZERO PUSH2 0x81 JUMP JUMPDEST SWAP1 POP MLOAD SWAP1 PUSH2 0x9A DUP3 PUSH2 0x380 JUMP JUMPDEST SWAP1 PUSH1 0x20 DUP3 DUP3 SUB SLT PUSH2 0x88 JUMPI PUSH2 0x73 SWAP2 PUSH2 0x388 JUMP JUMPDEST PUSH1 0x40 MLOAD RETURNDATASIZE PUSH1 0x0 DUP3 RETURNDATACOPY RETURNDATASIZE SWAP1 REVERT JUMPDEST SWAP2 PUSH1 0x1 PUSH1 0x1 PUSH1 0xA0 SHL SUB PUSH1 0x8 SWAP3 SWAP1 SWAP3 MUL SWAP2 DUP3 SHL SWAP2 SHL JUMPDEST SWAP2 DUP2 NOT AND SWAP2 AND OR SWAP1 JUMP JUMPDEST SWAP2 SWAP1 PUSH2 0x3E5 PUSH2 0x73 PUSH2 0x3ED SWAP4 PUSH2 0x17D JUMP JUMPDEST SWAP1 DUP4 SLOAD PUSH2 0x3B5 JUMP JUMPDEST SWAP1 SSTORE JUMP JUMPDEST SWAP1 DUP2 SLOAD SWAP2 PUSH9 0x10000000000000000 DUP4 LT ISZERO PUSH2 0x37B JUMPI DUP3 PUSH2 0x419 SWAP2 PUSH1 0x1 PUSH2 0x9A SWAP6 ADD DUP2 SSTORE PUSH2 0x1B4 JUMP JUMPDEST SWAP1 PUSH2 0x3D4 JUMP JUMPDEST SWAP1 PUSH1 0x1 PUSH1 0x1 PUSH1 0xA0 SHL SUB SWAP1 PUSH2 0x3CA JUMP JUMPDEST SWAP1 PUSH2 0x43E PUSH2 0x73 PUSH2 0x3ED SWAP3 PUSH2 0x17D JUMP JUMPDEST DUP3 SLOAD PUSH2 0x41F JUMP JUMPDEST PUSH1 0x1 PUSH1 0x1 PUSH1 0xA0 SHL SUB SWAP2 DUP3 AND DUP2 MSTORE SWAP2 AND PUSH1 0x20 DUP3 ADD MSTORE PUSH1 0x40 ADD SWAP1 JUMP JUMPDEST SWAP2 SWAP1 PUSH2 0x46F PUSH2 0x328 DUP3 PUSH1 0x1 PUSH2 0x186 JUMP JUMPDEST SWAP3 PUSH1 0x0 SWAP4 PUSH2 0x48F PUSH2 0x482 PUSH2 0x67 DUP8 PUSH2 0x33A JUMP JUMPDEST SWAP2 PUSH1 0x1 PUSH1 0x1 PUSH1 0xA0 SHL SUB AND SWAP1 JUMP JUMPDEST SUB PUSH2 0x592 JUMPI PUSH2 0x4A5 PUSH2 0x4A0 DUP4 PUSH2 0x17D JUMP JUMPDEST PUSH2 0x17D JUMP JUMPDEST PUSH1 0x20 PUSH2 0x4B0 PUSH1 0x40 MLOAD SWAP1 JUMP JUMPDEST PUSH4 0x1FFC9A7 PUSH1 0xE0 SHL DUP2 MSTORE PUSH4 0x2FA757F3 PUSH1 0xE0 SHL PUSH1 0x4 DUP3 ADD MSTORE SWAP2 DUP3 SWAP1 PUSH1 0x24 SWAP1 DUP3 SWAP1 GAS STATICCALL DUP1 ISZERO PUSH2 0x58D JUMPI PUSH2 0x4E7 SWAP2 PUSH1 0x0 SWAP2 PUSH2 0x560 JUMPI POP ISZERO SWAP1 JUMP JUMPDEST PUSH2 0x551 JUMPI PUSH2 0x523 DUP3 PUSH2 0x51E PUSH2 0x73 DUP5 PUSH32 0x768FB430A0D4B201CB764AB221C316DD14D8BABF2E4B2348E05964C6565318B6 SWAP8 SWAP9 PUSH2 0x186 JUMP JUMPDEST PUSH2 0x3F1 JUMP JUMPDEST PUSH2 0x537 DUP2 PUSH2 0x532 DUP5 PUSH1 0x1 PUSH2 0x186 JUMP JUMPDEST PUSH2 0x42E JUMP JUMPDEST PUSH2 0x54C PUSH2 0x543 PUSH1 0x40 MLOAD SWAP1 JUMP JUMPDEST SWAP3 DUP4 SWAP3 DUP4 PUSH2 0x445 JUMP JUMPDEST SUB SWAP1 LOG1 JUMP JUMPDEST PUSH4 0xF8025B1B PUSH1 0xE0 SHL DUP5 MSTORE PUSH1 0x4 DUP5 REVERT JUMPDEST PUSH2 0x582 SWAP2 POP PUSH1 0x20 RETURNDATASIZE PUSH1 0x20 GT PUSH2 0x586 JUMPI JUMPDEST PUSH2 0x57A DUP2 DUP4 PUSH2 0x359 JUMP JUMPDEST DUP2 ADD SWAP1 PUSH2 0x395 JUMP JUMPDEST ISZERO SWAP1 JUMP JUMPDEST POP RETURNDATASIZE PUSH2 0x570 JUMP JUMPDEST PUSH2 0x3A9 JUMP JUMPDEST PUSH4 0x70BC3E85 PUSH1 0xE0 SHL DUP5 MSTORE PUSH1 0x4 DUP5 REVERT JUMPDEST SWAP1 PUSH2 0x5BC PUSH2 0x5B0 PUSH2 0x246 DUP5 SLOAD SWAP1 JUMP JUMPDEST SWAP3 PUSH1 0x0 MSTORE PUSH1 0x20 PUSH1 0x0 KECCAK256 SWAP1 JUMP JUMPDEST SWAP1 PUSH1 0x0 JUMPDEST DUP2 DUP2 LT PUSH2 0x5CD JUMPI POP POP POP SWAP1 JUMP JUMPDEST SWAP1 SWAP2 SWAP3 PUSH2 0x5FA PUSH2 0x5F3 PUSH1 0x1 SWAP3 PUSH2 0x5E2 DUP8 PUSH2 0x307 JUMP JUMPDEST PUSH1 0x1 PUSH1 0x1 PUSH1 0xA0 SHL SUB AND DUP2 MSTORE PUSH1 0x20 ADD SWAP1 JUMP JUMPDEST SWAP5 PUSH1 0x1 ADD SWAP1 JUMP JUMPDEST SWAP3 SWAP2 ADD PUSH2 0x5C0 JUMP JUMPDEST SWAP1 PUSH2 0x73 SWAP2 PUSH2 0x5A1 JUMP JUMPDEST SWAP1 PUSH2 0x9A PUSH2 0x626 SWAP3 PUSH2 0x61D PUSH1 0x40 MLOAD SWAP1 JUMP JUMPDEST SWAP4 DUP5 DUP1 SWAP3 PUSH2 0x602 JUMP JUMPDEST SUB DUP4 PUSH2 0x359 JUMP JUMPDEST PUSH2 0x73 SWAP1 PUSH2 0x60C JUMP JUMPDEST PUSH2 0x64D PUSH2 0x73 SWAP2 PUSH2 0x645 PUSH1 0x60 SWAP1 JUMP JUMPDEST POP PUSH1 0x0 PUSH2 0x186 JUMP JUMPDEST PUSH2 0x62D JUMP INVALID LOG2 PUSH5 0x6970667358 0x22 SLT KECCAK256 COINBASE 0xD8 0xF7 0x2F PUSH20 0xC24A5B3373AE97EBF413B462EBAD32A4E2E3F410 BLOCKHASH 0xE1 NOT ORIGIN MSTORE8 ADDRESS 0x26 PUSH5 0x736F6C6343 STOP ADDMOD SHR STOP CALLER "},"methodIdentifiers":{"contractCreator(address)":"d571770c","creatorContracts(address,uint256)":"cc744993","getContractCreator(address)":"5e1970f1","getCreatorContracts(address)":"d264e453","register(address,address)":"aa677354"}}}}}