{"src/core/FeeVault.sol":{"FeeVault":{"abi":[{"inputs":[],"stateMutability":"nonpayable","type":"constructor"},{"anonymous":false,"inputs":[{"indexed":true,"internalType":"address","name":"previousAdmin","type":"address"},{"indexed":true,"internalType":"address","name":"newAdmin","type":"address"}],"name":"AdminChanged","type":"event"},{"anonymous":false,"inputs":[{"indexed":true,"internalType":"address","name":"recipient","type":"address"},{"indexed":false,"internalType":"uint256","name":"amount","type":"uint256"}],"name":"FeeWithdrawn","type":"event"},{"inputs":[],"name":"PROTOCOL_FEE_PERCENT","outputs":[{"internalType":"uint256","name":"","type":"uint256"}],"stateMutability":"view","type":"function"},{"inputs":[],"name":"admin","outputs":[{"internalType":"address","name":"","type":"address"}],"stateMutability":"view","type":"function"},{"inputs":[],"name":"getBalance","outputs":[{"internalType":"uint256","name":"","type":"uint256"}],"stateMutability":"view","type":"function"},{"inputs":[{"internalType":"address","name":"newAdmin","type":"address"}],"name":"setAdmin","outputs":[],"stateMutability":"nonpayable","type":"function"},{"inputs":[{"internalType":"address","name":"recipient","type":"address"},{"internalType":"uint256","name":"amount","type":"uint256"}],"name":"withdrawFees","outputs":[],"stateMutability":"nonpayable","type":"function"},{"stateMutability":"payable","type":"receive"}],"evm":{"bytecode":{"linkReferences":{},"object":"608060405234601f57600e607f565b60405161072961008b823961072990f35b600080fd5b6036906039906001600160a01b031682565b90565b6001600160a01b031690565b6036906024565b6036906045565b90605f6036607b92604c565b82546001600160a01b0319166001600160a01b03919091161790565b9055565b60883360006053565b56fe6080604052600436101561001b575b361561001957600080fd5b005b60003560e01c806312065fe01461006b5780632982de0d14610066578063704b6c0214610061578063ad3b1b471461005c5763f851a4400361000e576101e6565b61018a565b610137565b6100df565b610086565b600091031261007b57565b600080fd5b9052565b565b3461007b57610096366004610070565b6100b26100a1610233565b6040515b9182918290815260200190565b0390f35b6100c36100c36100c39290565b90565b6100c36702c68af0bb1400006100b6565b6100c36100c6565b3461007b576100ef366004610070565b6100b26100a16100d7565b6001600160a01b031690565b61010f816100fa565b0361007b57565b9050359061008482610106565b9060208282031261007b576100c391610116565b3461007b5761014f61014a366004610123565b6103fb565b604051005b8061010f565b9050359061008482610154565b919060408382031261007b576100c39060206101838286610116565b940161015a565b3461007b5761014f61019d366004610167565b906106e9565b6100c3916008021c6001600160a01b031690565b906100c391546101a3565b6100c36000806101b7565b610080906100fa565b60208101929161008491906101cd565b3461007b576101f6366004610070565b6100b26102016101c2565b604051918291826101d6565b6100c3906100fa906001600160a01b031682565b6100c39061020d565b6100c390610221565b61023c3061022a565b3190565b6100c3906100fa565b6100c39054610240565b6020808252601d908201527f4665655661756c743a2063616c6c6572206973206e6f742061646d696e000000604082015260600190565b1561029157565b60405162461bcd60e51b8152806102aa60048201610253565b0390fd5b610084906102d66102c76102c26000610249565b6100fa565b6102d0336100fa565b1461028a565b610384565b6100fa6100c36100c39290565b6100c3906102db565b60208082526023908201527f4665655661756c743a206e65772061646d696e206973207a65726f206164647260408201526265737360e81b606082015260800190565b1561033b57565b60405162461bcd60e51b8152806102aa600482016102f1565b906103646100c36103809261022a565b82546001600160a01b0319166001600160a01b03919091161790565b9055565b6103a46103946102c260006102e8565b61039d836100fa565b1415610334565b6103ca6103c46103b46000610249565b6103bf846000610354565b61022a565b9161022a565b907f7e644d79422f17c01e4894b5f4f588d331ebfa28653d42ae832dc59e38c9798f6103f560405190565b600090a3565b610084906102ae565b90610084916104196102c76102c26000610249565b61063a565b60208082526023908201527f4665655661756c743a20726563697069656e74206973207a65726f206164647260408201526265737360e81b606082015260800190565b1561046857565b60405162461bcd60e51b8152806102aa6004820161041e565b60208082526027908201527f4665655661756c743a20616d6f756e74206d75737420626520677265617465726040820152660207468616e20360cc1b606082015260800190565b156104cf57565b60405162461bcd60e51b8152806102aa60048201610481565b6020808252601e908201527f4665655661756c743a20696e73756666696369656e742062616c616e63650000604082015260600190565b1561052657565b60405162461bcd60e51b8152806102aa600482016104e8565b634e487b7160e01b600052604160045260246000fd5b90601f01601f1916810190811067ffffffffffffffff82111761057757604052565b61053f565b9061008461058960405190565b9283610555565b67ffffffffffffffff811161057757602090601f01601f19160190565b906105bf6105ba83610590565b61057c565b918252565b3d156105de576105d33d6105ad565b903d6000602084013e565b606090565b60208082526019908201527f4665655661756c743a207472616e73666572206661696c656400000000000000604082015260600190565b1561062157565b60405162461bcd60e51b8152806102aa600482016105e3565b6106e46106da7f78473f3f373f7673597f4f0fa5873cb4d375fea6d4339ad6b56dbd411513cb3f926106826106726102c260006102e8565b61067b836100fa565b1415610461565b61069661068f60006100b6565b86116104c8565b6106ad6106a561023c3061022a565b86111561051f565b6103bf6000806106bc60405190565b806106c6816100c3565b039089865af16106d46105c4565b5061061a565b926100a560405190565b0390a2565b906100849161040456fea2646970667358221220b02824561e4b3ecf28ba3d41e749ba0be3f62e1147b9c983e9d41f847c88ffbe64736f6c634300081c0033","opcodes":"PUSH1 0x80 PUSH1 0x40 MSTORE CALLVALUE PUSH1 0x1F JUMPI PUSH1 0xE PUSH1 0x7F JUMP JUMPDEST PUSH1 0x40 MLOAD PUSH2 0x729 PUSH2 0x8B DUP3 CODECOPY PUSH2 0x729 SWAP1 RETURN JUMPDEST PUSH1 0x0 DUP1 REVERT JUMPDEST PUSH1 0x36 SWAP1 PUSH1 0x39 SWAP1 PUSH1 0x1 PUSH1 0x1 PUSH1 0xA0 SHL SUB AND DUP3 JUMP JUMPDEST SWAP1 JUMP JUMPDEST PUSH1 0x1 PUSH1 0x1 PUSH1 0xA0 SHL SUB AND SWAP1 JUMP JUMPDEST PUSH1 0x36 SWAP1 PUSH1 0x24 JUMP JUMPDEST PUSH1 0x36 SWAP1 PUSH1 0x45 JUMP JUMPDEST SWAP1 PUSH1 0x5F PUSH1 0x36 PUSH1 0x7B SWAP3 PUSH1 0x4C JUMP JUMPDEST DUP3 SLOAD PUSH1 0x1 PUSH1 0x1 PUSH1 0xA0 SHL SUB NOT AND PUSH1 0x1 PUSH1 0x1 PUSH1 0xA0 SHL SUB SWAP2 SWAP1 SWAP2 AND OR SWAP1 JUMP JUMPDEST SWAP1 SSTORE JUMP JUMPDEST PUSH1 0x88 CALLER PUSH1 0x0 PUSH1 0x53 JUMP JUMPDEST JUMP INVALID PUSH1 0x80 PUSH1 0x40 MSTORE PUSH1 0x4 CALLDATASIZE LT ISZERO PUSH2 0x1B JUMPI JUMPDEST CALLDATASIZE ISZERO PUSH2 0x19 JUMPI PUSH1 0x0 DUP1 REVERT JUMPDEST STOP JUMPDEST PUSH1 0x0 CALLDATALOAD PUSH1 0xE0 SHR DUP1 PUSH4 0x12065FE0 EQ PUSH2 0x6B JUMPI DUP1 PUSH4 0x2982DE0D EQ PUSH2 0x66 JUMPI DUP1 PUSH4 0x704B6C02 EQ PUSH2 0x61 JUMPI DUP1 PUSH4 0xAD3B1B47 EQ PUSH2 0x5C JUMPI PUSH4 0xF851A440 SUB PUSH2 0xE JUMPI PUSH2 0x1E6 JUMP JUMPDEST PUSH2 0x18A JUMP JUMPDEST PUSH2 0x137 JUMP JUMPDEST PUSH2 0xDF JUMP JUMPDEST PUSH2 0x86 JUMP JUMPDEST PUSH1 0x0 SWAP2 SUB SLT PUSH2 0x7B JUMPI JUMP JUMPDEST PUSH1 0x0 DUP1 REVERT JUMPDEST SWAP1 MSTORE JUMP JUMPDEST JUMP JUMPDEST CALLVALUE PUSH2 0x7B JUMPI PUSH2 0x96 CALLDATASIZE PUSH1 0x4 PUSH2 0x70 JUMP JUMPDEST PUSH2 0xB2 PUSH2 0xA1 PUSH2 0x233 JUMP JUMPDEST PUSH1 0x40 MLOAD JUMPDEST SWAP2 DUP3 SWAP2 DUP3 SWAP1 DUP2 MSTORE PUSH1 0x20 ADD SWAP1 JUMP JUMPDEST SUB SWAP1 RETURN JUMPDEST PUSH2 0xC3 PUSH2 0xC3 PUSH2 0xC3 SWAP3 SWAP1 JUMP JUMPDEST SWAP1 JUMP JUMPDEST PUSH2 0xC3 PUSH8 0x2C68AF0BB140000 PUSH2 0xB6 JUMP JUMPDEST PUSH2 0xC3 PUSH2 0xC6 JUMP JUMPDEST CALLVALUE PUSH2 0x7B JUMPI PUSH2 0xEF CALLDATASIZE PUSH1 0x4 PUSH2 0x70 JUMP JUMPDEST PUSH2 0xB2 PUSH2 0xA1 PUSH2 0xD7 JUMP JUMPDEST PUSH1 0x1 PUSH1 0x1 PUSH1 0xA0 SHL SUB AND SWAP1 JUMP JUMPDEST PUSH2 0x10F DUP2 PUSH2 0xFA JUMP JUMPDEST SUB PUSH2 0x7B JUMPI JUMP JUMPDEST SWAP1 POP CALLDATALOAD SWAP1 PUSH2 0x84 DUP3 PUSH2 0x106 JUMP JUMPDEST SWAP1 PUSH1 0x20 DUP3 DUP3 SUB SLT PUSH2 0x7B JUMPI PUSH2 0xC3 SWAP2 PUSH2 0x116 JUMP JUMPDEST CALLVALUE PUSH2 0x7B JUMPI PUSH2 0x14F PUSH2 0x14A CALLDATASIZE PUSH1 0x4 PUSH2 0x123 JUMP JUMPDEST PUSH2 0x3FB JUMP JUMPDEST PUSH1 0x40 MLOAD STOP JUMPDEST DUP1 PUSH2 0x10F JUMP JUMPDEST SWAP1 POP CALLDATALOAD SWAP1 PUSH2 0x84 DUP3 PUSH2 0x154 JUMP JUMPDEST SWAP2 SWAP1 PUSH1 0x40 DUP4 DUP3 SUB SLT PUSH2 0x7B JUMPI PUSH2 0xC3 SWAP1 PUSH1 0x20 PUSH2 0x183 DUP3 DUP7 PUSH2 0x116 JUMP JUMPDEST SWAP5 ADD PUSH2 0x15A JUMP JUMPDEST CALLVALUE PUSH2 0x7B JUMPI PUSH2 0x14F PUSH2 0x19D CALLDATASIZE PUSH1 0x4 PUSH2 0x167 JUMP JUMPDEST SWAP1 PUSH2 0x6E9 JUMP JUMPDEST PUSH2 0xC3 SWAP2 PUSH1 0x8 MUL SHR PUSH1 0x1 PUSH1 0x1 PUSH1 0xA0 SHL SUB AND SWAP1 JUMP JUMPDEST SWAP1 PUSH2 0xC3 SWAP2 SLOAD PUSH2 0x1A3 JUMP JUMPDEST PUSH2 0xC3 PUSH1 0x0 DUP1 PUSH2 0x1B7 JUMP JUMPDEST PUSH2 0x80 SWAP1 PUSH2 0xFA JUMP JUMPDEST PUSH1 0x20 DUP2 ADD SWAP3 SWAP2 PUSH2 0x84 SWAP2 SWAP1 PUSH2 0x1CD JUMP JUMPDEST CALLVALUE PUSH2 0x7B JUMPI PUSH2 0x1F6 CALLDATASIZE PUSH1 0x4 PUSH2 0x70 JUMP JUMPDEST PUSH2 0xB2 PUSH2 0x201 PUSH2 0x1C2 JUMP JUMPDEST PUSH1 0x40 MLOAD SWAP2 DUP3 SWAP2 DUP3 PUSH2 0x1D6 JUMP JUMPDEST PUSH2 0xC3 SWAP1 PUSH2 0xFA SWAP1 PUSH1 0x1 PUSH1 0x1 PUSH1 0xA0 SHL SUB AND DUP3 JUMP JUMPDEST PUSH2 0xC3 SWAP1 PUSH2 0x20D JUMP JUMPDEST PUSH2 0xC3 SWAP1 PUSH2 0x221 JUMP JUMPDEST PUSH2 0x23C ADDRESS PUSH2 0x22A JUMP JUMPDEST BALANCE SWAP1 JUMP JUMPDEST PUSH2 0xC3 SWAP1 PUSH2 0xFA JUMP JUMPDEST PUSH2 0xC3 SWAP1 SLOAD PUSH2 0x240 JUMP JUMPDEST PUSH1 0x20 DUP1 DUP3 MSTORE PUSH1 0x1D SWAP1 DUP3 ADD MSTORE PUSH32 0x4665655661756C743A2063616C6C6572206973206E6F742061646D696E000000 PUSH1 0x40 DUP3 ADD MSTORE PUSH1 0x60 ADD SWAP1 JUMP JUMPDEST ISZERO PUSH2 0x291 JUMPI JUMP JUMPDEST PUSH1 0x40 MLOAD PUSH3 0x461BCD PUSH1 0xE5 SHL DUP2 MSTORE DUP1 PUSH2 0x2AA PUSH1 0x4 DUP3 ADD PUSH2 0x253 JUMP JUMPDEST SUB SWAP1 REVERT JUMPDEST PUSH2 0x84 SWAP1 PUSH2 0x2D6 PUSH2 0x2C7 PUSH2 0x2C2 PUSH1 0x0 PUSH2 0x249 JUMP JUMPDEST PUSH2 0xFA JUMP JUMPDEST PUSH2 0x2D0 CALLER PUSH2 0xFA JUMP JUMPDEST EQ PUSH2 0x28A JUMP JUMPDEST PUSH2 0x384 JUMP JUMPDEST PUSH2 0xFA PUSH2 0xC3 PUSH2 0xC3 SWAP3 SWAP1 JUMP JUMPDEST PUSH2 0xC3 SWAP1 PUSH2 0x2DB JUMP JUMPDEST PUSH1 0x20 DUP1 DUP3 MSTORE PUSH1 0x23 SWAP1 DUP3 ADD MSTORE PUSH32 0x4665655661756C743A206E65772061646D696E206973207A65726F2061646472 PUSH1 0x40 DUP3 ADD MSTORE PUSH3 0x657373 PUSH1 0xE8 SHL PUSH1 0x60 DUP3 ADD MSTORE PUSH1 0x80 ADD SWAP1 JUMP JUMPDEST ISZERO PUSH2 0x33B JUMPI JUMP JUMPDEST PUSH1 0x40 MLOAD PUSH3 0x461BCD PUSH1 0xE5 SHL DUP2 MSTORE DUP1 PUSH2 0x2AA PUSH1 0x4 DUP3 ADD PUSH2 0x2F1 JUMP JUMPDEST SWAP1 PUSH2 0x364 PUSH2 0xC3 PUSH2 0x380 SWAP3 PUSH2 0x22A JUMP JUMPDEST DUP3 SLOAD PUSH1 0x1 PUSH1 0x1 PUSH1 0xA0 SHL SUB NOT AND PUSH1 0x1 PUSH1 0x1 PUSH1 0xA0 SHL SUB SWAP2 SWAP1 SWAP2 AND OR SWAP1 JUMP JUMPDEST SWAP1 SSTORE JUMP JUMPDEST PUSH2 0x3A4 PUSH2 0x394 PUSH2 0x2C2 PUSH1 0x0 PUSH2 0x2E8 JUMP JUMPDEST PUSH2 0x39D DUP4 PUSH2 0xFA JUMP JUMPDEST EQ ISZERO PUSH2 0x334 JUMP JUMPDEST PUSH2 0x3CA PUSH2 0x3C4 PUSH2 0x3B4 PUSH1 0x0 PUSH2 0x249 JUMP JUMPDEST PUSH2 0x3BF DUP5 PUSH1 0x0 PUSH2 0x354 JUMP JUMPDEST PUSH2 0x22A JUMP JUMPDEST SWAP2 PUSH2 0x22A JUMP JUMPDEST SWAP1 PUSH32 0x7E644D79422F17C01E4894B5F4F588D331EBFA28653D42AE832DC59E38C9798F PUSH2 0x3F5 PUSH1 0x40 MLOAD SWAP1 JUMP JUMPDEST PUSH1 0x0 SWAP1 LOG3 JUMP JUMPDEST PUSH2 0x84 SWAP1 PUSH2 0x2AE JUMP JUMPDEST SWAP1 PUSH2 0x84 SWAP2 PUSH2 0x419 PUSH2 0x2C7 PUSH2 0x2C2 PUSH1 0x0 PUSH2 0x249 JUMP JUMPDEST PUSH2 0x63A JUMP JUMPDEST PUSH1 0x20 DUP1 DUP3 MSTORE PUSH1 0x23 SWAP1 DUP3 ADD MSTORE PUSH32 0x4665655661756C743A20726563697069656E74206973207A65726F2061646472 PUSH1 0x40 DUP3 ADD MSTORE PUSH3 0x657373 PUSH1 0xE8 SHL PUSH1 0x60 DUP3 ADD MSTORE PUSH1 0x80 ADD SWAP1 JUMP JUMPDEST ISZERO PUSH2 0x468 JUMPI JUMP JUMPDEST PUSH1 0x40 MLOAD PUSH3 0x461BCD PUSH1 0xE5 SHL DUP2 MSTORE DUP1 PUSH2 0x2AA PUSH1 0x4 DUP3 ADD PUSH2 0x41E JUMP JUMPDEST PUSH1 0x20 DUP1 DUP3 MSTORE PUSH1 0x27 SWAP1 DUP3 ADD MSTORE PUSH32 0x4665655661756C743A20616D6F756E74206D7573742062652067726561746572 PUSH1 0x40 DUP3 ADD MSTORE PUSH7 0x207468616E203 PUSH1 0xCC SHL PUSH1 0x60 DUP3 ADD MSTORE PUSH1 0x80 ADD SWAP1 JUMP JUMPDEST ISZERO PUSH2 0x4CF JUMPI JUMP JUMPDEST PUSH1 0x40 MLOAD PUSH3 0x461BCD PUSH1 0xE5 SHL DUP2 MSTORE DUP1 PUSH2 0x2AA PUSH1 0x4 DUP3 ADD PUSH2 0x481 JUMP JUMPDEST PUSH1 0x20 DUP1 DUP3 MSTORE PUSH1 0x1E SWAP1 DUP3 ADD MSTORE PUSH32 0x4665655661756C743A20696E73756666696369656E742062616C616E63650000 PUSH1 0x40 DUP3 ADD MSTORE PUSH1 0x60 ADD SWAP1 JUMP JUMPDEST ISZERO PUSH2 0x526 JUMPI JUMP JUMPDEST PUSH1 0x40 MLOAD PUSH3 0x461BCD PUSH1 0xE5 SHL DUP2 MSTORE DUP1 PUSH2 0x2AA PUSH1 0x4 DUP3 ADD PUSH2 0x4E8 JUMP JUMPDEST PUSH4 0x4E487B71 PUSH1 0xE0 SHL PUSH1 0x0 MSTORE PUSH1 0x41 PUSH1 0x4 MSTORE PUSH1 0x24 PUSH1 0x0 REVERT JUMPDEST SWAP1 PUSH1 0x1F ADD PUSH1 0x1F NOT AND DUP2 ADD SWAP1 DUP2 LT PUSH8 0xFFFFFFFFFFFFFFFF DUP3 GT OR PUSH2 0x577 JUMPI PUSH1 0x40 MSTORE JUMP JUMPDEST PUSH2 0x53F JUMP JUMPDEST SWAP1 PUSH2 0x84 PUSH2 0x589 PUSH1 0x40 MLOAD SWAP1 JUMP JUMPDEST SWAP3 DUP4 PUSH2 0x555 JUMP JUMPDEST PUSH8 0xFFFFFFFFFFFFFFFF DUP2 GT PUSH2 0x577 JUMPI PUSH1 0x20 SWAP1 PUSH1 0x1F ADD PUSH1 0x1F NOT AND ADD SWAP1 JUMP JUMPDEST SWAP1 PUSH2 0x5BF PUSH2 0x5BA DUP4 PUSH2 0x590 JUMP JUMPDEST PUSH2 0x57C JUMP JUMPDEST SWAP2 DUP3 MSTORE JUMP JUMPDEST RETURNDATASIZE ISZERO PUSH2 0x5DE JUMPI PUSH2 0x5D3 RETURNDATASIZE PUSH2 0x5AD JUMP JUMPDEST SWAP1 RETURNDATASIZE PUSH1 0x0 PUSH1 0x20 DUP5 ADD RETURNDATACOPY JUMP JUMPDEST PUSH1 0x60 SWAP1 JUMP JUMPDEST PUSH1 0x20 DUP1 DUP3 MSTORE PUSH1 0x19 SWAP1 DUP3 ADD MSTORE PUSH32 0x4665655661756C743A207472616E73666572206661696C656400000000000000 PUSH1 0x40 DUP3 ADD MSTORE PUSH1 0x60 ADD SWAP1 JUMP JUMPDEST ISZERO PUSH2 0x621 JUMPI JUMP JUMPDEST PUSH1 0x40 MLOAD PUSH3 0x461BCD PUSH1 0xE5 SHL DUP2 MSTORE DUP1 PUSH2 0x2AA PUSH1 0x4 DUP3 ADD PUSH2 0x5E3 JUMP JUMPDEST PUSH2 0x6E4 PUSH2 0x6DA PUSH32 0x78473F3F373F7673597F4F0FA5873CB4D375FEA6D4339AD6B56DBD411513CB3F SWAP3 PUSH2 0x682 PUSH2 0x672 PUSH2 0x2C2 PUSH1 0x0 PUSH2 0x2E8 JUMP JUMPDEST PUSH2 0x67B DUP4 PUSH2 0xFA JUMP JUMPDEST EQ ISZERO PUSH2 0x461 JUMP JUMPDEST PUSH2 0x696 PUSH2 0x68F PUSH1 0x0 PUSH2 0xB6 JUMP JUMPDEST DUP7 GT PUSH2 0x4C8 JUMP JUMPDEST PUSH2 0x6AD PUSH2 0x6A5 PUSH2 0x23C ADDRESS PUSH2 0x22A JUMP JUMPDEST DUP7 GT ISZERO PUSH2 0x51F JUMP JUMPDEST PUSH2 0x3BF PUSH1 0x0 DUP1 PUSH2 0x6BC PUSH1 0x40 MLOAD SWAP1 JUMP JUMPDEST DUP1 PUSH2 0x6C6 DUP2 PUSH2 0xC3 JUMP JUMPDEST SUB SWAP1 DUP10 DUP7 GAS CALL PUSH2 0x6D4 PUSH2 0x5C4 JUMP JUMPDEST POP PUSH2 0x61A JUMP JUMPDEST SWAP3 PUSH2 0xA5 PUSH1 0x40 MLOAD SWAP1 JUMP JUMPDEST SUB SWAP1 LOG2 JUMP JUMPDEST SWAP1 PUSH2 0x84 SWAP2 PUSH2 0x404 JUMP INVALID LOG2 PUSH5 0x6970667358 0x22 SLT KECCAK256 0xB0 0x28 0x24 JUMP 0x1E 0x4B RETURNDATACOPY 0xCF 0x28 0xBA RETURNDATASIZE COINBASE 0xE7 BLOBHASH 0xBA SIGNEXTEND 0xE3 0xF6 0x2E GT SELFBALANCE 0xB9 0xC9 DUP4 0xE9 0xD4 0x1F DUP5 PUSH29 0x88FFBE64736F6C634300081C0033000000000000000000000000000000 "},"methodIdentifiers":{"PROTOCOL_FEE_PERCENT()":"2982de0d","admin()":"f851a440","getBalance()":"12065fe0","setAdmin(address)":"704b6c02","withdrawFees(address,uint256)":"ad3b1b47"}}}}}