{"src/core/Trade.sol":{"Trade":{"abi":[{"inputs":[{"internalType":"address","name":"_feeVault","type":"address"},{"internalType":"string","name":"_name","type":"string"},{"internalType":"string","name":"_symbol","type":"string"},{"internalType":"uint256","name":"_initialPrice","type":"uint256"},{"internalType":"uint256","name":"_maxSupply","type":"uint256"},{"internalType":"uint256","name":"_creatorFeePercent","type":"uint256"}],"stateMutability":"nonpayable","type":"constructor"},{"inputs":[],"name":"ERC721EnumerableForbiddenBatchMint","type":"error"},{"inputs":[{"internalType":"address","name":"sender","type":"address"},{"internalType":"uint256","name":"tokenId","type":"uint256"},{"internalType":"address","name":"owner","type":"address"}],"name":"ERC721IncorrectOwner","type":"error"},{"inputs":[{"internalType":"address","name":"operator","type":"address"},{"internalType":"uint256","name":"tokenId","type":"uint256"}],"name":"ERC721InsufficientApproval","type":"error"},{"inputs":[{"internalType":"address","name":"approver","type":"address"}],"name":"ERC721InvalidApprover","type":"error"},{"inputs":[{"internalType":"address","name":"operator","type":"address"}],"name":"ERC721InvalidOperator","type":"error"},{"inputs":[{"internalType":"address","name":"owner","type":"address"}],"name":"ERC721InvalidOwner","type":"error"},{"inputs":[{"internalType":"address","name":"receiver","type":"address"}],"name":"ERC721InvalidReceiver","type":"error"},{"inputs":[{"internalType":"address","name":"sender","type":"address"}],"name":"ERC721InvalidSender","type":"error"},{"inputs":[{"internalType":"uint256","name":"tokenId","type":"uint256"}],"name":"ERC721NonexistentToken","type":"error"},{"inputs":[{"internalType":"address","name":"owner","type":"address"},{"internalType":"uint256","name":"index","type":"uint256"}],"name":"ERC721OutOfBoundsIndex","type":"error"},{"inputs":[{"internalType":"address","name":"owner","type":"address"}],"name":"OwnableInvalidOwner","type":"error"},{"inputs":[{"internalType":"address","name":"account","type":"address"}],"name":"OwnableUnauthorizedAccount","type":"error"},{"anonymous":false,"inputs":[{"indexed":true,"internalType":"address","name":"owner","type":"address"},{"indexed":true,"internalType":"address","name":"approved","type":"address"},{"indexed":true,"internalType":"uint256","name":"tokenId","type":"uint256"}],"name":"Approval","type":"event"},{"anonymous":false,"inputs":[{"indexed":true,"internalType":"address","name":"owner","type":"address"},{"indexed":true,"internalType":"address","name":"operator","type":"address"},{"indexed":false,"internalType":"bool","name":"approved","type":"bool"}],"name":"ApprovalForAll","type":"event"},{"anonymous":false,"inputs":[{"indexed":true,"internalType":"address","name":"previousOwner","type":"address"},{"indexed":true,"internalType":"address","name":"newOwner","type":"address"}],"name":"OwnershipTransferred","type":"event"},{"anonymous":false,"inputs":[{"indexed":true,"internalType":"address","name":"buyer","type":"address"},{"indexed":true,"internalType":"uint256","name":"tokenId","type":"uint256"},{"indexed":false,"internalType":"uint256","name":"price","type":"uint256"},{"indexed":false,"internalType":"uint256","name":"creatorFee","type":"uint256"}],"name":"TokenBought","type":"event"},{"anonymous":false,"inputs":[{"indexed":true,"internalType":"address","name":"to","type":"address"},{"indexed":true,"internalType":"uint256","name":"tokenId","type":"uint256"},{"indexed":false,"internalType":"uint256","name":"price","type":"uint256"},{"indexed":false,"internalType":"uint256","name":"creatorFee","type":"uint256"}],"name":"TokenMinted","type":"event"},{"anonymous":false,"inputs":[{"indexed":true,"internalType":"address","name":"seller","type":"address"},{"indexed":true,"internalType":"uint256","name":"tokenId","type":"uint256"},{"indexed":false,"internalType":"uint256","name":"price","type":"uint256"},{"indexed":false,"internalType":"uint256","name":"creatorFee","type":"uint256"}],"name":"TokenSold","type":"event"},{"anonymous":false,"inputs":[{"indexed":true,"internalType":"address","name":"from","type":"address"},{"indexed":true,"internalType":"address","name":"to","type":"address"},{"indexed":true,"internalType":"uint256","name":"tokenId","type":"uint256"}],"name":"Transfer","type":"event"},{"inputs":[{"internalType":"address","name":"to","type":"address"},{"internalType":"uint256","name":"tokenId","type":"uint256"}],"name":"approve","outputs":[],"stateMutability":"nonpayable","type":"function"},{"inputs":[{"internalType":"uint256","name":"","type":"uint256"}],"name":"availableTokens","outputs":[{"internalType":"uint256","name":"","type":"uint256"}],"stateMutability":"view","type":"function"},{"inputs":[{"internalType":"address","name":"owner","type":"address"}],"name":"balanceOf","outputs":[{"internalType":"uint256","name":"","type":"uint256"}],"stateMutability":"view","type":"function"},{"inputs":[],"name":"baseURI","outputs":[{"internalType":"string","name":"","type":"string"}],"stateMutability":"view","type":"function"},{"inputs":[{"internalType":"uint256","name":"tokenId","type":"uint256"}],"name":"buy","outputs":[],"stateMutability":"payable","type":"function"},{"inputs":[{"internalType":"uint256","name":"supply","type":"uint256"}],"name":"calculatePrice","outputs":[{"internalType":"uint256","name":"","type":"uint256"}],"stateMutability":"view","type":"function"},{"inputs":[],"name":"contractURI","outputs":[{"internalType":"string","name":"","type":"string"}],"stateMutability":"view","type":"function"},{"inputs":[],"name":"creator","outputs":[{"internalType":"address","name":"","type":"address"}],"stateMutability":"view","type":"function"},{"inputs":[],"name":"creatorFeePercent","outputs":[{"internalType":"uint256","name":"","type":"uint256"}],"stateMutability":"view","type":"function"},{"inputs":[],"name":"currentSupply","outputs":[{"internalType":"uint256","name":"","type":"uint256"}],"stateMutability":"view","type":"function"},{"inputs":[],"name":"feeVault","outputs":[{"internalType":"contract FeeVault","name":"","type":"address"}],"stateMutability":"view","type":"function"},{"inputs":[],"name":"getAllAvailableTokens","outputs":[{"internalType":"uint256[]","name":"","type":"uint256[]"}],"stateMutability":"view","type":"function"},{"inputs":[{"internalType":"uint256","name":"tokenId","type":"uint256"}],"name":"getApproved","outputs":[{"internalType":"address","name":"","type":"address"}],"stateMutability":"view","type":"function"},{"inputs":[{"internalType":"uint256","name":"index","type":"uint256"}],"name":"getAvailableTokenByIndex","outputs":[{"internalType":"uint256","name":"","type":"uint256"}],"stateMutability":"view","type":"function"},{"inputs":[],"name":"getAvailableTokensCount","outputs":[{"internalType":"uint256","name":"","type":"uint256"}],"stateMutability":"view","type":"function"},{"inputs":[{"internalType":"uint256","name":"start","type":"uint256"},{"internalType":"uint256","name":"limit","type":"uint256"}],"name":"getAvailableTokensPaginated","outputs":[{"internalType":"uint256[]","name":"","type":"uint256[]"}],"stateMutability":"view","type":"function"},{"inputs":[],"name":"getBuyPrice","outputs":[{"internalType":"uint256","name":"","type":"uint256"}],"stateMutability":"view","type":"function"},{"inputs":[],"name":"getBuyPriceAfterFee","outputs":[{"internalType":"uint256","name":"","type":"uint256"}],"stateMutability":"view","type":"function"},{"inputs":[],"name":"getSellPrice","outputs":[{"internalType":"uint256","name":"","type":"uint256"}],"stateMutability":"view","type":"function"},{"inputs":[],"name":"getSellPriceAfterFee","outputs":[{"internalType":"uint256","name":"","type":"uint256"}],"stateMutability":"view","type":"function"},{"inputs":[],"name":"initialPrice","outputs":[{"internalType":"uint256","name":"","type":"uint256"}],"stateMutability":"view","type":"function"},{"inputs":[{"internalType":"address","name":"owner","type":"address"},{"internalType":"address","name":"operator","type":"address"}],"name":"isApprovedForAll","outputs":[{"internalType":"bool","name":"","type":"bool"}],"stateMutability":"view","type":"function"},{"inputs":[{"internalType":"uint256","name":"tokenId","type":"uint256"}],"name":"isOnSale","outputs":[{"internalType":"bool","name":"","type":"bool"}],"stateMutability":"view","type":"function"},{"inputs":[],"name":"maxSupply","outputs":[{"internalType":"uint256","name":"","type":"uint256"}],"stateMutability":"view","type":"function"},{"inputs":[],"name":"mint","outputs":[{"internalType":"uint256","name":"","type":"uint256"}],"stateMutability":"payable","type":"function"},{"inputs":[],"name":"name","outputs":[{"internalType":"string","name":"","type":"string"}],"stateMutability":"view","type":"function"},{"inputs":[{"internalType":"address","name":"","type":"address"},{"internalType":"address","name":"","type":"address"},{"internalType":"uint256","name":"","type":"uint256"},{"internalType":"bytes","name":"","type":"bytes"}],"name":"onERC721Received","outputs":[{"internalType":"bytes4","name":"","type":"bytes4"}],"stateMutability":"nonpayable","type":"function"},{"inputs":[],"name":"owner","outputs":[{"internalType":"address","name":"","type":"address"}],"stateMutability":"view","type":"function"},{"inputs":[{"internalType":"uint256","name":"tokenId","type":"uint256"}],"name":"ownerOf","outputs":[{"internalType":"address","name":"","type":"address"}],"stateMutability":"view","type":"function"},{"inputs":[],"name":"renounceOwnership","outputs":[],"stateMutability":"nonpayable","type":"function"},{"inputs":[{"internalType":"address","name":"from","type":"address"},{"internalType":"address","name":"to","type":"address"},{"internalType":"uint256","name":"tokenId","type":"uint256"}],"name":"safeTransferFrom","outputs":[],"stateMutability":"nonpayable","type":"function"},{"inputs":[{"internalType":"address","name":"from","type":"address"},{"internalType":"address","name":"to","type":"address"},{"internalType":"uint256","name":"tokenId","type":"uint256"},{"internalType":"bytes","name":"data","type":"bytes"}],"name":"safeTransferFrom","outputs":[],"stateMutability":"nonpayable","type":"function"},{"inputs":[{"internalType":"uint256","name":"tokenId","type":"uint256"}],"name":"sell","outputs":[],"stateMutability":"nonpayable","type":"function"},{"inputs":[{"internalType":"address","name":"operator","type":"address"},{"internalType":"bool","name":"approved","type":"bool"}],"name":"setApprovalForAll","outputs":[],"stateMutability":"nonpayable","type":"function"},{"inputs":[{"internalType":"string","name":"_baseURI","type":"string"}],"name":"setBaseURI","outputs":[],"stateMutability":"nonpayable","type":"function"},{"inputs":[{"internalType":"address","name":"_creator","type":"address"}],"name":"setCreator","outputs":[],"stateMutability":"nonpayable","type":"function"},{"inputs":[{"internalType":"bytes4","name":"interfaceId","type":"bytes4"}],"name":"supportsInterface","outputs":[{"internalType":"bool","name":"","type":"bool"}],"stateMutability":"view","type":"function"},{"inputs":[],"name":"symbol","outputs":[{"internalType":"string","name":"","type":"string"}],"stateMutability":"view","type":"function"},{"inputs":[{"internalType":"uint256","name":"index","type":"uint256"}],"name":"tokenByIndex","outputs":[{"internalType":"uint256","name":"","type":"uint256"}],"stateMutability":"view","type":"function"},{"inputs":[{"internalType":"uint256","name":"","type":"uint256"}],"name":"tokenIndex","outputs":[{"internalType":"uint256","name":"","type":"uint256"}],"stateMutability":"view","type":"function"},{"inputs":[{"internalType":"address","name":"owner","type":"address"},{"internalType":"uint256","name":"index","type":"uint256"}],"name":"tokenOfOwnerByIndex","outputs":[{"internalType":"uint256","name":"","type":"uint256"}],"stateMutability":"view","type":"function"},{"inputs":[{"internalType":"uint256","name":"tokenId","type":"uint256"}],"name":"tokenURI","outputs":[{"internalType":"string","name":"","type":"string"}],"stateMutability":"view","type":"function"},{"inputs":[],"name":"totalSupply","outputs":[{"internalType":"uint256","name":"","type":"uint256"}],"stateMutability":"view","type":"function"},{"inputs":[{"internalType":"address","name":"from","type":"address"},{"internalType":"address","name":"to","type":"address"},{"internalType":"uint256","name":"tokenId","type":"uint256"}],"name":"transferFrom","outputs":[],"stateMutability":"nonpayable","type":"function"},{"inputs":[{"internalType":"address","name":"newOwner","type":"address"}],"name":"transferOwnership","outputs":[],"stateMutability":"nonpayable","type":"function"}],"evm":{"bytecode":{"linkReferences":{},"object":"608060405234610031576100206100146101d3565b9493909392919261024f565b6040516130c56105aa82396130c590f35b600080fd5b634e487b7160e01b600052604160045260246000fd5b90601f01601f191681019081106001600160401b0382111761006d57604052565b610036565b9061008661007f60405190565b928361004c565b565b6001600160a01b031690565b90565b6001600160a01b0381165b0361003157565b9050519061008682610097565b6001600160401b03811161006d57602090601f01601f19160190565b60005b8381106100e55750506000910152565b81810151838201526020016100d5565b9092919261010a610105826100b6565b610072565b9381855281830111610031576100869160208501906100d2565b9080601f83011215610031578151610094926020016100f5565b806100a2565b905051906100868261013e565b909160c0828403126100315761016783836100a9565b60208301519093906001600160401b0381116100315781610189918501610124565b60408401519093906001600160401b03811161003157826101ab918301610124565b926100946101bc8460608501610144565b9360a06101cc8260808701610144565b9401610144565b6101f161366f803803806101e681610072565b928339810190610151565b909192939495565b61009490610088906001600160a01b031682565b610094906101f9565b6100949061020d565b906001600160a01b03905b9181191691161790565b9061024461009461024b92610216565b825461021f565b9055565b919461026b94610266946100869761026694610272565b610216565b6013610234565b6100869485949293919233926102b1565b906000199061022a565b6100946100946100949290565b906102aa61009461024b9261028d565b8254610283565b6102c76102dc966102ce9394966102d5966102e7565b600b61029a565b600c61029a565b600d61029a565b61008633600e610234565b906100869291610308565b6100886100946100949290565b610094906102f2565b916103129161035e565b600061031d816102ff565b6001600160a01b0381166001600160a01b0384161461034157505061008690610557565b631e4fbdf760e01b82526001600160a01b03166004820152602490fd5b6100869182918291829161052e565b634e487b7160e01b600052602260045260246000fd5b90600160028304921680156103a3575b602083101461039e57565b61036d565b91607f1691610393565b9160001960089290920291821b911b61022a565b91906103d261009461024b9361028d565b9083546103ad565b610086916000916103c1565b8181106103f1575050565b806103ff60006001936103da565b016103e6565b9190601f811161041457505050565b61042661008693600052602060002090565b906020601f840181900483019310610448575b6020601f9091010401906103e6565b9091508190610439565b9061045b815190565b906001600160401b03821161006d5761047e826104788554610383565b85610405565b602090601f83116001146104b95761024b9291600091836104ae575b5050600019600883021c1916906002021790565b01519050388061049a565b601f198316916104ce85600052602060002090565b9260005b81811061050c575091600293918560019694106104f3575b50505002019055565b01516000196008601f8516021c191690553880806104ea565b919360206001819287870151815501950192016104d2565b9061008691610452565b9061053d610086926000610524565b6001610524565b61009490610088565b6100949054610544565b610578610572610567600a61054d565b61026684600a610234565b91610216565b907f8be0079c531659141344cd1fd0a4f28419497f9722a3daafe3b4186f6b6457e06105a360405190565b600090a356fe6080604052600436101561001257600080fd5b60003560e01c8063018a25e8146102e257806301ffc9a7146102dd57806302d05d3f146102d85780630583e9f8146102d357806306fdde03146102ce578063081812fc146102c9578063095ea7b3146102c45780631249c58b146102bf57806312ea5c7e146102ba578063150b7a02146102b557806318160ddd146102b05780631d0806ae146102ab57806321a1c184146102a657806323b872dd146102a15780632dcd52f21461029c5780632f745c59146102975780633f5160181461029257806342842e0e1461028d57806343d32e9c14610288578063478222c2146102835780634a8fe6501461027e5780634f6ccce71461027957806353613dd31461027457806355f804b31461026f5780635eba096b1461026a5780636352211e146102655780636c0360eb1461026057806370a082311461025b578063715018a614610256578063771282f6146102515780638da5cb5b1461024c57806395d89b4114610247578063a22cb46514610242578063ad64d0681461023d578063ae10426514610238578063b88d4fde14610233578063c87b56dd1461022e578063cf6a68bf14610229578063d5abeb0114610224578063d96a094a1461021f578063e4849b321461021a578063e8a3d48514610215578063e985e9c514610210578063f0f2805f1461020b5763f2fde38b036102f257610dec565b610dd1565b610db5565b610d77565b610d5f565b610d4c565b610d31565b610d0a565b610cef565b610cd3565b610cb8565b610c9d565b610c28565b610bd5565b610bba565b610b9f565b610b7b565b610b60565b610b45565b610a03565b6109e7565b6109b3565b610972565b61094b565b610930565b610909565b6108a3565b61088a565b610872565b610842565b610826565b61080d565b6107c9565b6107ae565b610786565b61074c565b610611565b610594565b610576565b610522565b6104fb565b610474565b6103d6565b610363565b6102fd565b60009103126102f257565b600080fd5b9052565b565b346102f25761030d3660046102e7565b610328610318610e15565b6040519182918290815260200190565b0390f35b6001600160e01b031981165b036102f257565b905035906102fb8261032c565b906020828203126102f2576103609161033f565b90565b346102f25761032861037e61037936600461034c565b610e22565b6040515b91829182901515815260200190565b610360916008021c5b6001600160a01b031690565b906103609154610391565b6103606000600e6103a6565b6102f79061039a565b6020810192916102fb91906103bd565b346102f2576103e63660046102e7565b6103286103f16103b1565b604051918291826103c6565b80610338565b905035906102fb826103fd565b906020828203126102f25761036091610403565b6103606103606103609290565b9061043b90610424565b600052602052604060002090565b610360916008021c81565b906103609154610449565b600061046f610360926011610431565b610454565b346102f25761032861031861048a366004610410565b61045f565b60005b8381106104a25750506000910152565b8181015183820152602001610492565b6104d36104dc6020936104e6936104c7815190565b80835293849260200190565b9586910161048f565b601f01601f191690565b0190565b6020808252610360929101906104b2565b346102f25761050b3660046102e7565b610328610516610e5f565b604051918291826104ea565b346102f2576103286103f1610538366004610410565b610e69565b6103388161039a565b905035906102fb8261053d565b91906040838203126102f25761036090602061056f8286610546565b9401610403565b346102f25761058f610589366004610553565b90610e7c565b604051005b61059f3660046102e7565b610328610318610fcc565b906105ca6105c36105b9845190565b8084529260200190565b9260200190565b9060005b8181106105db5750505090565b9091926105f86105f16001928651815260200190565b9460200190565b9291016105ce565b6020808252610360929101906105aa565b346102f2576106213660046102e7565b61032861062c611168565b60405191829182610600565b634e487b7160e01b600052604160045260246000fd5b90601f01601f1916810190811067ffffffffffffffff82111761067057604052565b610638565b906102fb61068260405190565b928361064e565b67ffffffffffffffff811161067057602090601f01601f19160190565b90826000939282370152565b909291926106c76106c282610689565b610675565b93818552818301116102f2576102fb9160208501906106a6565b9080601f830112156102f257816020610360933591016106b2565b906080828203126102f2576107118183610546565b9261071f8260208501610546565b9261072d8360408301610403565b92606082013567ffffffffffffffff81116102f25761036092016106e1565b346102f25761032861076b6107623660046106fc565b92919091611198565b604051918291826001600160e01b0319909116815260200190565b346102f2576107963660046102e7565b61032861031860085490565b6103606000600b610454565b346102f2576107be3660046102e7565b6103286103186107a2565b346102f2576107d93660046102e7565b6103286103186111bf565b90916060828403126102f2576103606107fd8484610546565b93604061056f8260208701610546565b346102f25761058f6108203660046107e4565b9161122a565b346102f2576108363660046102e7565b61032861031860105490565b346102f257610328610318610858366004610553565b906112d3565b906020828203126102f25761036091610546565b346102f25761058f61088536600461085e565b6113e9565b346102f25761058f61089d3660046107e4565b91611416565b346102f2576108b33660046102e7565b61032861031861142a565b610360600060136103a6565b6103609061039a906001600160a01b031682565b610360906108ca565b610360906108de565b6102f7906108e7565b6020810192916102fb91906108f0565b346102f2576109193660046102e7565b6103286109246108be565b604051918291826108f9565b346102f2576109403660046102e7565b61032861031861146e565b346102f257610328610318610961366004610410565b611489565b6103606000600d610454565b346102f2576109823660046102e7565b610328610318610966565b906020828203126102f257813567ffffffffffffffff81116102f25761036092016106e1565b346102f25761058f6109c636600461098d565b611675565b91906040838203126102f25761036090602061056f8286610403565b346102f25761032861062c6109fd3660046109cb565b90611731565b346102f2576103286103f1610a19366004610410565b6117c0565b634e487b7160e01b600052600060045260246000fd5b634e487b7160e01b600052602260045260246000fd5b9060016002830492168015610a6a575b6020831014610a6557565b610a34565b91607f1691610a5a565b80546000939291610a91610a8783610a4a565b8085529360200190565b9160018116908115610ae35750600114610aaa57505050565b610abd9192939450600052602060002090565b916000925b818410610acf5750500190565b805484840152602090930192600101610ac2565b92949550505060ff1916825215156020020190565b9061036091610a74565b906102fb610b1c92610b1360405190565b93848092610af8565b038361064e565b90600010610b345761036090610b02565b610a1e565b61036060006012610b23565b346102f257610b553660046102e7565b610328610516610b39565b346102f257610328610318610b7636600461085e565b6117c9565b346102f257610b8b3660046102e7565b61058f611831565b6103606000600f610454565b346102f257610baf3660046102e7565b610328610318610b93565b346102f257610bca3660046102e7565b6103286103f1611839565b346102f257610be53660046102e7565b610328610516611843565b801515610338565b905035906102fb82610bf0565b91906040838203126102f257610360906020610c218286610546565b9401610bf8565b346102f25761058f610c3b366004610c05565b9061184d565b634e487b7160e01b600052603260045260246000fd5b8054821015610c7a57610c71600191600052602060002090565b91020190600090565b610c41565b6010548110156102f257610c97610360916010610c57565b90610454565b346102f257610328610318610cb3366004610410565b610c7f565b346102f257610328610318610cce366004610410565b611858565b346102f25761058f610ce63660046106fc565b929190916118e9565b346102f257610328610516610d05366004610410565b611a01565b346102f257610328610318610d20366004610410565b611a44565b6103606000600c610454565b346102f257610d413660046102e7565b610328610318610d25565b61058f610d5a366004610410565b611b6c565b346102f25761058f610d72366004610410565b611d25565b346102f257610d873660046102e7565b610328610516611d71565b91906040838203126102f257610360906020610dae8286610546565b9401610546565b346102f25761032861037e610dcb366004610d92565b90611db5565b346102f25761032861037e610de7366004610410565b611dda565b346102f25761058f610dff36600461085e565b611e44565b6103609081565b6103609054610e04565b610360610cce600f610e0b565b610e2b81611e4d565b908115610e36575090565b9050610e52632fa757f360e01b5b916001600160e01b03191690565b1490565b61036090610b02565b6103606000610e56565b61036090610e7681611e56565b50611e96565b6102fb913391611eb2565b15610e8e57565b60405162461bcd60e51b815260206004820152601260248201527113585e081cdd5c1c1b1e481c995858da195960721b604482015280606481015b0390fd5b634e487b7160e01b600052601160045260246000fd5b81810292918115918404141715610ef657565b610ecd565b634e487b7160e01b600052601260045260246000fd5b90610f1b565b9190565b908115610f26570490565b610efb565b91908201809211610ef657565b15610f3f57565b60405162461bcd60e51b8152602060048201526014602482015273125b9cdd59999a58da595b9d081c185e5b595b9d60621b6044820152606490fd5b6000198114610ef65760010190565b90600019905b9181191691161790565b90610faa610360610fb192610424565b8254610f8a565b9055565b9081526040810192916102fb9160200152565b0152565b610fee610fd860085490565b610fe8610f17610360600c610e0b565b10610e87565b610ff6610e15565b6103606110de61102961101261100c600d610e0b565b85610ee3565b611023670de0b6b3a7640000610424565b90610f11565b6110416110396103608387610f2b565b341015610f38565b61105d61104d60085490565b6110576001610424565b90610f2b565b936110688533611ebf565b61108461107d611078600f610e0b565b610f7b565b600f610f9a565b61108d336108e7565b61109686610424565b907f10546b1a6f5245ff0ffa18c256b9e46859c585cbb473b453fcd4c2dc39ae08db6110c160405190565b806110cd878783610fb5565b0390a36110d982611f96565b610f2b565b6120bf565b906110fe6110f26105b9845490565b92600052602060002090565b9060005b81811061110f5750505090565b90919261113361112c60019261112487610e0b565b815260200190565b9460010190565b929101611102565b90610360916110e3565b906102fb610b1c9261115660405190565b9384809261113b565b61036090611145565b610360601061115f565b61118b6111856103609263ffffffff1690565b60e01b90565b6001600160e01b03191690565b505050506111a4600090565b5061036063150b7a02611172565b91908203918211610ef657565b6103606111ca61142a565b6111e06110126111da600d610e0b565b83610ee3565b906111b2565b61039a6103606103609290565b610360906111e6565b6040906112236102fb949695939661121c606084019860008501906103bd565b6020830152565b01906103bd565b9091600092611238846111f3565b6112418161039a565b61124a8361039a565b14611295575061125c90823391612109565b916112668161039a565b61126f8461039a565b0361127a5750505050565b6364283d7b60e01b84528392610ec9929091600485016111fc565b84610ec98192633250574960e11b8352600483016103c6565b9160206102fb929493610fc8604082019660008301906103bd565b9061043b906108e7565b6112df610360826117c9565b82101561130257610360916112f86112fd9260066112c9565b610431565b610e0b565b63295f44f760e21b60009081529161131b9160046112ae565b036000fd5b6103609061039a565b6103609054611320565b1561133a57565b60405162461bcd60e51b815260206004820152602360248201527f4f6e6c792063726561746f722063616e2063616c6c20746869732066756e637460448201526234b7b760e91b6064820152608490fd5b6102fb906113b36113a461139f600e611329565b61039a565b6113ad3361039a565b14611333565b6113de565b906001600160a01b0390610f90565b906113d7610360610fb1926108e7565b82546113b8565b6102fb90600e6113c7565b6102fb9061138b565b906113ff6106c283610689565b918252565b61036060006113f2565b610360611404565b90916102fb9261142461140e565b926118e9565b611434600f610e0b565b611441610f176000610424565b111561146157610360610cce611457600f610e0b565b6111e06001610424565b610360610cce6000610424565b610360611479610e15565b6110576110126111da600d610e0b565b61149561036060085490565b8110156114aa57610c97610360916008610c57565b610ec99060009182916114bc836111f3565b63295f44f760e21b8452600484016112ae565b6102fb906114e36113a461139f600e611329565b61166a565b9160001960089290920291821b911b610f90565b919061150d610360610fb193610424565b9083546114e8565b6102fb916000916114fc565b81811061152c575050565b8061153a6000600193611515565b01611521565b9190601f811161154f57505050565b6115616102fb93600052602060002090565b906020601f840181900483019310611583575b6020601f909101040190611521565b9091508190611574565b90611596815190565b9067ffffffffffffffff8211610670576115ba826115b48554610a4a565b85611540565b602090601f83116001146115f557610fb19291600091836115ea575b5050600019600883021c1916906002021790565b0151905038806115d6565b601f1983169161160a85600052602060002090565b9260005b8181106116485750916002939185600196941061162f575b50505002019055565b01516000196008601f8516021c19169055388080611626565b9193602060018192878701518155019501920161160e565b906102fb9161158d565b6102fb906012611660565b6102fb906114cf565b1561168557565b60405162461bcd60e51b815260206004820152601960248201527f537461727420696e646578206f7574206f6620626f756e6473000000000000006044820152606490fd5b67ffffffffffffffff81116106705760208091020190565b906113ff6106c2836116ca565b369037565b906102fb61170a611704846116e2565b936116ca565b601f1901602084016116ef565b90611720825190565b811015610c7a576020809102010190565b9161175e611756601093611750611749610360875490565b871061167e565b85610f2b565b835490612114565b9161177161176c85856111b2565b6116f4565b91845b845b8110156117b7576117b0816117aa611794610c976117769588610c57565b6117a76117a18b856111b2565b89611717565b52565b60010190565b9050611774565b50935050905090565b61036090611e56565b60006117d4816111f3565b6117dd8161039a565b6117e68461039a565b146117fb5750506112fd6103609160036112c9565b6322718ad960e21b82528190610ec990600483016103c6565b61181c612126565b6102fb6102fb61182c60006111f3565b61215d565b6102fb611814565b610360600a611329565b6103606001610e56565b6102fb9190336121d1565b6118626000610424565b81146118de5761036090611057611879600b610e0b565b916118a06118c96118bf6118bf6118ce6118a6611896600b610e0b565b6118a06002610424565b90610ee3565b6118a06118c96118bf896118ba6064610424565b610ee3565b611023600c610e0b565b612295565b946118ba816118ba612710610424565b50610360600b610e0b565b906102fb9392916118fb83838361122a565b6123ef565b6103609054610a4a565b8054600093929161192161191d83610a4a565b9390565b9160018116908115611972575060011461193a57505050565b61194d9192939450600052602060002090565b6000905b83821061195e5750500190565b600181602092548486015201910190611951565b60ff191683525050811515909102019150565b6104e661199d92602092611997815190565b94859290565b9384910161048f565b9160016119b86005946119c69461190a565b602f60f81b81520190611985565b64173539b7b760d91b81520190565b6119f592916102fb916119e760405190565b9485926020840192836119a6565b9081038252038361064e565b611a0a81611e56565b50611a156012611900565b611a22610f176000610424565b1115611a3b57611a3461036091612522565b60126119d5565b5061036061140e565b610c9761036091611a53600090565b506010610c57565b15611a6257565b60405162461bcd60e51b815260206004820152601f60248201527f546f6b656e206973206e6f7420617661696c61626c6520666f722073616c65006044820152606490fd5b6102fb90611ad2611ab7826117c0565b611acc611ac661139f306108e7565b9161039a565b14611a5b565b6110de6102fb91611ae1610e15565b611af16110126111da600d610e0b565b91611b026110396103608585610f2b565b611b1681611b0f306108e7565b33906125af565b611b1f81612672565b611b2f61107d611078600f610e0b565b611b41611b3b336108e7565b91610424565b907f884543c08d36fb5c9b3b688dd0453c9f287199124bdbddb3b7f9ca885a4d34a06110c160405190565b6102fb90611aa7565b15611b7c57565b60405162461bcd60e51b815260206004820152601360248201527221b0b63632b91034b9903737ba1037bbb732b960691b6044820152606490fd5b6102fb90611bd9611bc7826117c0565b611bd3611ac63361039a565b14611b75565b611c56565b8015610ef6576000190190565b3d15611c0557611bfa3d6113f2565b903d6000602084013e565b606090565b15611c1157565b60405162461bcd60e51b815260206004820152601960248201527f5472616e7366657220746f2073656c6c6572206661696c6564000000000000006044820152606490fd5b6102fb90611d20600080611c6861142a565b93611d08611c82611012611c7c600d610e0b565b88610ee3565b8096611c8b3390565b93611c9f81611c99306108e7565b876125af565b611ca881612701565b611cbd61107d611cb8600f610e0b565b611bde565b611cc9611b3b866108e7565b907f8323bebb324b6e1a1d4886a1f210640461bb275263dae69967f001d053ab0b2b611cf460405190565b80611d00878783610fb5565b0390a36111b2565b60405190818003925af1611d1a611beb565b50611c0a565b611f96565b6102fb90611bb7565b611d3a9060109261190a565b6f17b1b7b63632b1ba34b7b7173539b7b760811b81520190565b906102fb611d6160405190565b80936119f5602083019182611d2e565b611d7b6012611900565b611d88610f176000610424565b1115611d98576103606012611d54565b61036061140e565b610360905b60ff1690565b6103609054611da0565b61036091611dd0611dd592611dc8600090565b5060056112c9565b6112c9565b611dab565b611de3906117c0565b610e52611ac661139f306108e7565b6102fb90611dfe612126565b6000611e09816111f3565b611e128161039a565b611e1b8461039a565b14611e2b5750506102fb9061215d565b631e4fbdf760e01b82528190610ec990600483016103c6565b6102fb90611df2565b61036090612727565b611e5f81612750565b90600090611e6f61139f836111f3565b611e788461039a565b14611e8257505090565b637e27328960e01b82526004820152602490fd5b611ead61036091611ea5600090565b506004610431565b611329565b916001916102fb93612767565b6102fb91611ecb61140e565b91612893565b905051906102fb826103fd565b906020828203126102f25761036091611ed1565b6040513d6000823e3d90fd5b15611f0557565b60405162461bcd60e51b815260206004820152601e60248201527f5472616e736665722066656520746f2063726561746f72206661696c656400006044820152606490fd5b15611f5157565b60405162461bcd60e51b815260206004820152601f60248201527f5472616e736665722066656520746f2070726f746f636f6c206661696c6564006044820152606490fd5b611fa8611fa36013611329565b6108e7565b6020611fb360405190565b632982de0d60e01b815291829060049082905afa90811561207e576102fb92612023600080611ffa611ff361101283988498859161204f575b5087610ee3565b80956111b2565b612004600e611329565b9061200e60405190565b90818003925af161201d611beb565b50611efe565b612030611fa36013611329565b9061203a60405190565b90818003925af1612049611beb565b50611f4a565b612071915060203d602011612077575b612069818361064e565b810190611ede565b38611fec565b503d61205f565b611ef2565b1561208a57565b60405162461bcd60e51b815260206004820152600d60248201526c1499599d5b990819985a5b1959609a1b6044820152606490fd5b6120c990346111b2565b6120d36000610424565b81116120dc5750565b6000806102fb926120ea3390565b906120f460405190565b90818003925af1612103611beb565b50612083565b6103609291906128ad565b9080821015612121575090565b905090565b61212e611839565b339061213c611ac68361039a565b036121445750565b63118cdaa760e01b60009081529061131b9060046103c6565b61217e61217861216d600a611329565b611fa384600a6113c7565b916108e7565b907f8be0079c531659141344cd1fd0a4f28419497f9722a3daafe3b4186f6b6457e06121a960405190565b80805b0390a3565b9060ff90610f90565b906121ca610360610fb192151590565b82546121b1565b60006121df61139f826111f3565b6121e88461039a565b1461224157506121ac61223761223183611fa38761222c88611dd07f17307eab39ab6107e8899845ad3d59bd9653f200f220920489ca2b5937696c319960056112c9565b6121ba565b936108e7565b9361038260405190565b630b61174360e31b815280610ec984600483016103c6565b611da56103606103609290565b6103609061227a610f176103609460ff1690565b901c90565b61036090612290610f176103609490565b901b90565b61229f6000610424565b81146123855760016122b082612946565b6122b982612259565b8080808080966122ca828098612266565b906122d490610424565b906122de9161227f565b6122e8818a610f11565b01906122f391612266565b6122fd8189610f11565b019061230891612266565b6123128188610f11565b019061231d91612266565b6123278187610f11565b019061233291612266565b61233c8186610f11565b019061234791612266565b6123518185610f11565b019061235c91612266565b6123668184610f11565b019061237191612266565b908161237c91610f11565b61036091612114565b506103606000610424565b905051906102fb8261032c565b906020828203126102f25761036091612390565b90926123e2906123db61036096946123d1608086019760008701906103bd565b60208501906103bd565b6040830152565b60608184039101526104b2565b6000939192833b612402610f1787610424565b1161240f575b5050505050565b60209161241e611fa3866108e7565b90863361244761242d60405190565b97889687958694630a85bd0160e11b8652600486016123b1565b03925af1600091816124db575b506124a65750612469565b3880808080612408565b612471611beb565b805161247f610f1785610424565b0361249e5750633250574960e11b82528190610ec990600483016103c6565b805190602001fd5b6124b6630a85bd0160e11b610e44565b036124c257505061245f565b633250574960e11b82528190610ec990600483016103c6565b6124fe91925060203d602011612505575b6124f6818361064e565b81019061239d565b9038612454565b503d6124ec565b906102fb61170a61251c846113f2565b93610689565b61252b81612af8565b9061253c6001926104e66001610424565b91806125478461250c565b936020018401905b61255a575b50505090565b81156125aa5761258e9060001901926f181899199a1a9b1b9c1cb0b131b232b360811b600a82061a8453611023600a610424565b908161259d610f176000610424565b146125aa5790918161254f565b612554565b9192906000926125be846111f3565b916125c88361039a565b6125d18261039a565b1461261b576125e483876125ea93612109565b9261039a565b6125f38361039a565b0361260e57637e27328960e01b845260048401859052602484fd5b611266819592939561039a565b633250574960e11b85528480610ec985600483016103c6565b634e487b7160e01b600052603160045260246000fd5b8054801561266d57600019019061266a6126648383610c57565b90611515565b55565b612634565b60006126d46102fb9260116112f86126cf6126906112fd8585610431565b6103606010916126ca6126b0610c976126aa611457875490565b86610c57565b6126c4816126be8588610c57565b906114fc565b87610431565b610f9a565b61264a565b611515565b908154916801000000000000000083101561067057826126be9160016102fb95018155610c57565b6102fb906127108160106126d9565b6126ca61271f61145760105490565b916011610431565b63780e9d6360e01b6001600160e01b0319821614908115612746575090565b6103609150612c8c565b611ead6103609161275f600090565b506002610431565b92919091808115612875575b61278e575b5050906127896102fb926004610431565b6113c7565b61279783611e56565b916000906127a761139f836111f3565b6127b08261039a565b14158061285b575b80612844575b61282b57505091612789916102fb94936127db575b509192612778565b6127e4906108e7565b6127ed846108e7565b6127f683610424565b917f8c5be1e5ebec7d5bd14f71427d1e84f3dd0314c0f7b2291e5b200ac8c7c3b92561282160405190565b600090a4386127d3565b63a9fbf51f60e01b82528190610ec990600483016103c6565b506128566128528286611db5565b1590565b6127be565b506128658161039a565b61286e8561039a565b14156127b8565b5061288361139f60006111f3565b61288c8361039a565b1415612773565b906102fb92916128a38282612cd7565b6118fb60006111f3565b90916128ba908383612d4d565b916128e86128c860006111f3565b6128d18161039a565b6128da8661039a565b036129255761139f83612efc565b6128f18361039a565b03612900576103609150612f4d565b6129098261039a565b6129128461039a565b0361291c57505090565b61036091612f1e565b61292e8461039a565b6129378661039a565b1461039a5761139f8386612e7b565b6000612a41610f17612a3b61295a84610424565b9461296e6129686080612259565b82612266565b868111612ae1575b506129846129686040612259565b61298d86610424565b8111612aca575b506129a26129686020612259565b6129ab86610424565b8111612ab3575b506129c06129686010612259565b6129c986610424565b8111612a9c575b506129de6129686008612259565b6129e786610424565b8111612a85575b506129fc6129686004612259565b612a0586610424565b8111612a6e575b50612a1a6129686002612259565b612a2386610424565b8111612a57575b50612a356001612259565b90612266565b92610424565b11612a495790565b610360906104e66001610424565b612a679150956104e66002610424565b9438612a2a565b612a7e9150956104e66004610424565b9438612a0c565b612a959150956104e66008610424565b94386129ee565b612aac9150956104e66010610424565b94386129d0565b612ac39150956104e66020610424565b94386129b2565b612ada9150956104e66040610424565b9438612994565b612af19150956104e66080610424565b9438612976565b612b026000610424565b907a184f03e93ff9f4daa797ed6e38ed64bf6a1f010000000000000000612b2881610424565b821015612c6a575b506d04ee2d6d415b85acef8100000000612b4981610424565b821015612c48575b50662386f26fc10000612b6381610424565b821015612c26575b506305f5e100612b7a81610424565b821015612c04575b50612710612b8f81610424565b821015612be2575b50612ba26064610424565b811015612bc0575b612bb7610f17600a610424565b1015612a495790565b612bd1612bdc916110236064610424565b916104e66002610424565b90612baa565b612bfd91611023612bf292610424565b916104e66004610424565b9038612b97565b612c1f91611023612c1492610424565b916104e66008610424565b9038612b82565b612c4191611023612c3692610424565b916104e66010610424565b9038612b6b565b612c6391611023612c5892610424565b916104e66020610424565b9038612b51565b612c8591611023612c7a92610424565b916104e66040610424565b9038612b30565b6380ac58cd60e01b6001600160e01b0319821614908115612cbc575b8115612cb2575090565b6103609150612f9b565b6001600160e01b03198116635b5e139f60e01b149150612ca8565b600091612ce3836111f3565b91612ced8361039a565b612cf68261039a565b14612d3457612d06918391612109565b612d12611ac68361039a565b03612d1b575050565b6339e3563760e11b82528190610ec990600483016103c6565b633250574960e11b84528380610ec985600483016103c6565b90612da0612d5a82612750565b936000612d66816111f3565b9184612d718461039a565b612d7a8361039a565b03612e6a575b5050612d8b8261039a565b612d948761039a565b03612e2f575b5061039a565b612da98361039a565b03612dff575b612dbe82612789836002610431565b612dcd611b3b612231856108e7565b917fddf252ad1be2c89b69c2b068fc378daa952ba7f163c4a11628f55a4df523b3ef612df860405190565b600090a490565b612e2a612e0c6001610424565b612e24612e1a8560036112c9565b916104e683610e0b565b90610f9a565b612daf565b612e3b90828581612767565b612e64612e486001610424565b612e24612e568860036112c9565b91612e6083610e0b565b0390565b38612d9a565b612e749188612fab565b3884612d80565b6126d46102fb926112f8600093612eba856126d4612e98846117c9565b95600785612ea96112fd8484610431565b89808203612ec1575b505050610431565b60066112c9565b6112f8612eee846126ca85612ee46112fd6126ca976112f8612ef49b60066112c9565b94859360066112c9565b84610431565b853889612eb2565b6102fb90612f17612f0c60085490565b6126ca836009610431565b60086126d9565b6126ca82612f466102fb946126ca6112f895612f3c611457826117c9565b96879160066112c9565b6007610431565b6126cf6102fb9161036060006126d4600893612f6a611457865490565b6112f86009916126ca612f8d610c97612f866112fd8888610431565b938b610c57565b612eee816126be858d610c57565b610e526301ffc9a760e01b610e44565b90612fba61285284838561300b565b612fc357505050565b6000928392612fd7611ac661139f866111f3565b03612ff457637e27328960e01b8352600483015250602481010390fd5b63177e802f60e01b8352610ec991600484016112ae565b9061301961139f60006111f3565b6130228261039a565b141592836130305750505090565b9091925061303d8261039a565b6130468461039a565b1492831561307b575b508215613061575b5050388080612554565b6130739192506125e4611ac691611e96565b143880613057565b6130889193508290611db5565b913861304f56fea26469706673582212203ecc5b1ff3ca29f66590ec2ec2666ff4a7b0539b547cd9cba482361d0ea2485b64736f6c634300081c0033","opcodes":"PUSH1 0x80 PUSH1 0x40 MSTORE CALLVALUE PUSH2 0x31 JUMPI PUSH2 0x20 PUSH2 0x14 PUSH2 0x1D3 JUMP JUMPDEST SWAP5 SWAP4 SWAP1 SWAP4 SWAP3 SWAP2 SWAP3 PUSH2 0x24F JUMP JUMPDEST PUSH1 0x40 MLOAD PUSH2 0x30C5 PUSH2 0x5AA DUP3 CODECOPY PUSH2 0x30C5 SWAP1 RETURN JUMPDEST PUSH1 0x0 DUP1 REVERT JUMPDEST PUSH4 0x4E487B71 PUSH1 0xE0 SHL PUSH1 0x0 MSTORE PUSH1 0x41 PUSH1 0x4 MSTORE PUSH1 0x24 PUSH1 0x0 REVERT JUMPDEST SWAP1 PUSH1 0x1F ADD PUSH1 0x1F NOT AND DUP2 ADD SWAP1 DUP2 LT PUSH1 0x1 PUSH1 0x1 PUSH1 0x40 SHL SUB DUP3 GT OR PUSH2 0x6D JUMPI PUSH1 0x40 MSTORE JUMP JUMPDEST PUSH2 0x36 JUMP JUMPDEST SWAP1 PUSH2 0x86 PUSH2 0x7F PUSH1 0x40 MLOAD SWAP1 JUMP JUMPDEST SWAP3 DUP4 PUSH2 0x4C JUMP JUMPDEST JUMP JUMPDEST PUSH1 0x1 PUSH1 0x1 PUSH1 0xA0 SHL SUB AND SWAP1 JUMP JUMPDEST SWAP1 JUMP JUMPDEST PUSH1 0x1 PUSH1 0x1 PUSH1 0xA0 SHL SUB DUP2 AND JUMPDEST SUB PUSH2 0x31 JUMPI JUMP JUMPDEST SWAP1 POP MLOAD SWAP1 PUSH2 0x86 DUP3 PUSH2 0x97 JUMP JUMPDEST PUSH1 0x1 PUSH1 0x1 PUSH1 0x40 SHL SUB DUP2 GT PUSH2 0x6D JUMPI PUSH1 0x20 SWAP1 PUSH1 0x1F ADD PUSH1 0x1F NOT AND ADD SWAP1 JUMP JUMPDEST PUSH1 0x0 JUMPDEST DUP4 DUP2 LT PUSH2 0xE5 JUMPI POP POP PUSH1 0x0 SWAP2 ADD MSTORE JUMP JUMPDEST DUP2 DUP2 ADD MLOAD DUP4 DUP3 ADD MSTORE PUSH1 0x20 ADD PUSH2 0xD5 JUMP JUMPDEST SWAP1 SWAP3 SWAP2 SWAP3 PUSH2 0x10A PUSH2 0x105 DUP3 PUSH2 0xB6 JUMP JUMPDEST PUSH2 0x72 JUMP JUMPDEST SWAP4 DUP2 DUP6 MSTORE DUP2 DUP4 ADD GT PUSH2 0x31 JUMPI PUSH2 0x86 SWAP2 PUSH1 0x20 DUP6 ADD SWAP1 PUSH2 0xD2 JUMP JUMPDEST SWAP1 DUP1 PUSH1 0x1F DUP4 ADD SLT ISZERO PUSH2 0x31 JUMPI DUP2 MLOAD PUSH2 0x94 SWAP3 PUSH1 0x20 ADD PUSH2 0xF5 JUMP JUMPDEST DUP1 PUSH2 0xA2 JUMP JUMPDEST SWAP1 POP MLOAD SWAP1 PUSH2 0x86 DUP3 PUSH2 0x13E JUMP JUMPDEST SWAP1 SWAP2 PUSH1 0xC0 DUP3 DUP5 SUB SLT PUSH2 0x31 JUMPI PUSH2 0x167 DUP4 DUP4 PUSH2 0xA9 JUMP JUMPDEST PUSH1 0x20 DUP4 ADD MLOAD SWAP1 SWAP4 SWAP1 PUSH1 0x1 PUSH1 0x1 PUSH1 0x40 SHL SUB DUP2 GT PUSH2 0x31 JUMPI DUP2 PUSH2 0x189 SWAP2 DUP6 ADD PUSH2 0x124 JUMP JUMPDEST PUSH1 0x40 DUP5 ADD MLOAD SWAP1 SWAP4 SWAP1 PUSH1 0x1 PUSH1 0x1 PUSH1 0x40 SHL SUB DUP2 GT PUSH2 0x31 JUMPI DUP3 PUSH2 0x1AB SWAP2 DUP4 ADD PUSH2 0x124 JUMP JUMPDEST SWAP3 PUSH2 0x94 PUSH2 0x1BC DUP5 PUSH1 0x60 DUP6 ADD PUSH2 0x144 JUMP JUMPDEST SWAP4 PUSH1 0xA0 PUSH2 0x1CC DUP3 PUSH1 0x80 DUP8 ADD PUSH2 0x144 JUMP JUMPDEST SWAP5 ADD PUSH2 0x144 JUMP JUMPDEST PUSH2 0x1F1 PUSH2 0x366F DUP1 CODESIZE SUB DUP1 PUSH2 0x1E6 DUP2 PUSH2 0x72 JUMP JUMPDEST SWAP3 DUP4 CODECOPY DUP2 ADD SWAP1 PUSH2 0x151 JUMP JUMPDEST SWAP1 SWAP2 SWAP3 SWAP4 SWAP5 SWAP6 JUMP JUMPDEST PUSH2 0x94 SWAP1 PUSH2 0x88 SWAP1 PUSH1 0x1 PUSH1 0x1 PUSH1 0xA0 SHL SUB AND DUP3 JUMP JUMPDEST PUSH2 0x94 SWAP1 PUSH2 0x1F9 JUMP JUMPDEST PUSH2 0x94 SWAP1 PUSH2 0x20D JUMP JUMPDEST SWAP1 PUSH1 0x1 PUSH1 0x1 PUSH1 0xA0 SHL SUB SWAP1 JUMPDEST SWAP2 DUP2 NOT AND SWAP2 AND OR SWAP1 JUMP JUMPDEST SWAP1 PUSH2 0x244 PUSH2 0x94 PUSH2 0x24B SWAP3 PUSH2 0x216 JUMP JUMPDEST DUP3 SLOAD PUSH2 0x21F JUMP JUMPDEST SWAP1 SSTORE JUMP JUMPDEST SWAP2 SWAP5 PUSH2 0x26B SWAP5 PUSH2 0x266 SWAP5 PUSH2 0x86 SWAP8 PUSH2 0x266 SWAP5 PUSH2 0x272 JUMP JUMPDEST PUSH2 0x216 JUMP JUMPDEST PUSH1 0x13 PUSH2 0x234 JUMP JUMPDEST PUSH2 0x86 SWAP5 DUP6 SWAP5 SWAP3 SWAP4 SWAP2 SWAP3 CALLER SWAP3 PUSH2 0x2B1 JUMP JUMPDEST SWAP1 PUSH1 0x0 NOT SWAP1 PUSH2 0x22A JUMP JUMPDEST PUSH2 0x94 PUSH2 0x94 PUSH2 0x94 SWAP3 SWAP1 JUMP JUMPDEST SWAP1 PUSH2 0x2AA PUSH2 0x94 PUSH2 0x24B SWAP3 PUSH2 0x28D JUMP JUMPDEST DUP3 SLOAD PUSH2 0x283 JUMP JUMPDEST PUSH2 0x2C7 PUSH2 0x2DC SWAP7 PUSH2 0x2CE SWAP4 SWAP5 SWAP7 PUSH2 0x2D5 SWAP7 PUSH2 0x2E7 JUMP JUMPDEST PUSH1 0xB PUSH2 0x29A JUMP JUMPDEST PUSH1 0xC PUSH2 0x29A JUMP JUMPDEST PUSH1 0xD PUSH2 0x29A JUMP JUMPDEST PUSH2 0x86 CALLER PUSH1 0xE PUSH2 0x234 JUMP JUMPDEST SWAP1 PUSH2 0x86 SWAP3 SWAP2 PUSH2 0x308 JUMP JUMPDEST PUSH2 0x88 PUSH2 0x94 PUSH2 0x94 SWAP3 SWAP1 JUMP JUMPDEST PUSH2 0x94 SWAP1 PUSH2 0x2F2 JUMP JUMPDEST SWAP2 PUSH2 0x312 SWAP2 PUSH2 0x35E JUMP JUMPDEST PUSH1 0x0 PUSH2 0x31D DUP2 PUSH2 0x2FF JUMP JUMPDEST PUSH1 0x1 PUSH1 0x1 PUSH1 0xA0 SHL SUB DUP2 AND PUSH1 0x1 PUSH1 0x1 PUSH1 0xA0 SHL SUB DUP5 AND EQ PUSH2 0x341 JUMPI POP POP PUSH2 0x86 SWAP1 PUSH2 0x557 JUMP JUMPDEST PUSH4 0x1E4FBDF7 PUSH1 0xE0 SHL DUP3 MSTORE PUSH1 0x1 PUSH1 0x1 PUSH1 0xA0 SHL SUB AND PUSH1 0x4 DUP3 ADD MSTORE PUSH1 0x24 SWAP1 REVERT JUMPDEST PUSH2 0x86 SWAP2 DUP3 SWAP2 DUP3 SWAP2 DUP3 SWAP2 PUSH2 0x52E JUMP JUMPDEST PUSH4 0x4E487B71 PUSH1 0xE0 SHL PUSH1 0x0 MSTORE PUSH1 0x22 PUSH1 0x4 MSTORE PUSH1 0x24 PUSH1 0x0 REVERT JUMPDEST SWAP1 PUSH1 0x1 PUSH1 0x2 DUP4 DIV SWAP3 AND DUP1 ISZERO PUSH2 0x3A3 JUMPI JUMPDEST PUSH1 0x20 DUP4 LT EQ PUSH2 0x39E JUMPI JUMP JUMPDEST PUSH2 0x36D JUMP JUMPDEST SWAP2 PUSH1 0x7F AND SWAP2 PUSH2 0x393 JUMP JUMPDEST SWAP2 PUSH1 0x0 NOT PUSH1 0x8 SWAP3 SWAP1 SWAP3 MUL SWAP2 DUP3 SHL SWAP2 SHL PUSH2 0x22A JUMP JUMPDEST SWAP2 SWAP1 PUSH2 0x3D2 PUSH2 0x94 PUSH2 0x24B SWAP4 PUSH2 0x28D JUMP JUMPDEST SWAP1 DUP4 SLOAD PUSH2 0x3AD JUMP JUMPDEST PUSH2 0x86 SWAP2 PUSH1 0x0 SWAP2 PUSH2 0x3C1 JUMP JUMPDEST DUP2 DUP2 LT PUSH2 0x3F1 JUMPI POP POP JUMP JUMPDEST DUP1 PUSH2 0x3FF PUSH1 0x0 PUSH1 0x1 SWAP4 PUSH2 0x3DA JUMP JUMPDEST ADD PUSH2 0x3E6 JUMP JUMPDEST SWAP2 SWAP1 PUSH1 0x1F DUP2 GT PUSH2 0x414 JUMPI POP POP POP JUMP JUMPDEST PUSH2 0x426 PUSH2 0x86 SWAP4 PUSH1 0x0 MSTORE PUSH1 0x20 PUSH1 0x0 KECCAK256 SWAP1 JUMP JUMPDEST SWAP1 PUSH1 0x20 PUSH1 0x1F DUP5 ADD DUP2 SWAP1 DIV DUP4 ADD SWAP4 LT PUSH2 0x448 JUMPI JUMPDEST PUSH1 0x20 PUSH1 0x1F SWAP1 SWAP2 ADD DIV ADD SWAP1 PUSH2 0x3E6 JUMP JUMPDEST SWAP1 SWAP2 POP DUP2 SWAP1 PUSH2 0x439 JUMP JUMPDEST SWAP1 PUSH2 0x45B DUP2 MLOAD SWAP1 JUMP JUMPDEST SWAP1 PUSH1 0x1 PUSH1 0x1 PUSH1 0x40 SHL SUB DUP3 GT PUSH2 0x6D JUMPI PUSH2 0x47E DUP3 PUSH2 0x478 DUP6 SLOAD PUSH2 0x383 JUMP JUMPDEST DUP6 PUSH2 0x405 JUMP JUMPDEST PUSH1 0x20 SWAP1 PUSH1 0x1F DUP4 GT PUSH1 0x1 EQ PUSH2 0x4B9 JUMPI PUSH2 0x24B SWAP3 SWAP2 PUSH1 0x0 SWAP2 DUP4 PUSH2 0x4AE JUMPI JUMPDEST POP POP PUSH1 0x0 NOT PUSH1 0x8 DUP4 MUL SHR NOT AND SWAP1 PUSH1 0x2 MUL OR SWAP1 JUMP JUMPDEST ADD MLOAD SWAP1 POP CODESIZE DUP1 PUSH2 0x49A JUMP JUMPDEST PUSH1 0x1F NOT DUP4 AND SWAP2 PUSH2 0x4CE DUP6 PUSH1 0x0 MSTORE PUSH1 0x20 PUSH1 0x0 KECCAK256 SWAP1 JUMP JUMPDEST SWAP3 PUSH1 0x0 JUMPDEST DUP2 DUP2 LT PUSH2 0x50C JUMPI POP SWAP2 PUSH1 0x2 SWAP4 SWAP2 DUP6 PUSH1 0x1 SWAP7 SWAP5 LT PUSH2 0x4F3 JUMPI JUMPDEST POP POP POP MUL ADD SWAP1 SSTORE JUMP JUMPDEST ADD MLOAD PUSH1 0x0 NOT PUSH1 0x8 PUSH1 0x1F DUP6 AND MUL SHR NOT AND SWAP1 SSTORE CODESIZE DUP1 DUP1 PUSH2 0x4EA JUMP JUMPDEST SWAP2 SWAP4 PUSH1 0x20 PUSH1 0x1 DUP2 SWAP3 DUP8 DUP8 ADD MLOAD DUP2 SSTORE ADD SWAP6 ADD SWAP3 ADD PUSH2 0x4D2 JUMP JUMPDEST SWAP1 PUSH2 0x86 SWAP2 PUSH2 0x452 JUMP JUMPDEST SWAP1 PUSH2 0x53D PUSH2 0x86 SWAP3 PUSH1 0x0 PUSH2 0x524 JUMP JUMPDEST PUSH1 0x1 PUSH2 0x524 JUMP JUMPDEST PUSH2 0x94 SWAP1 PUSH2 0x88 JUMP JUMPDEST PUSH2 0x94 SWAP1 SLOAD PUSH2 0x544 JUMP JUMPDEST PUSH2 0x578 PUSH2 0x572 PUSH2 0x567 PUSH1 0xA PUSH2 0x54D JUMP JUMPDEST PUSH2 0x266 DUP5 PUSH1 0xA PUSH2 0x234 JUMP JUMPDEST SWAP2 PUSH2 0x216 JUMP JUMPDEST SWAP1 PUSH32 0x8BE0079C531659141344CD1FD0A4F28419497F9722A3DAAFE3B4186F6B6457E0 PUSH2 0x5A3 PUSH1 0x40 MLOAD SWAP1 JUMP JUMPDEST PUSH1 0x0 SWAP1 LOG3 JUMP INVALID PUSH1 0x80 PUSH1 0x40 MSTORE PUSH1 0x4 CALLDATASIZE LT ISZERO PUSH2 0x12 JUMPI PUSH1 0x0 DUP1 REVERT JUMPDEST PUSH1 0x0 CALLDATALOAD PUSH1 0xE0 SHR DUP1 PUSH4 0x18A25E8 EQ PUSH2 0x2E2 JUMPI DUP1 PUSH4 0x1FFC9A7 EQ PUSH2 0x2DD JUMPI DUP1 PUSH4 0x2D05D3F EQ PUSH2 0x2D8 JUMPI DUP1 PUSH4 0x583E9F8 EQ PUSH2 0x2D3 JUMPI DUP1 PUSH4 0x6FDDE03 EQ PUSH2 0x2CE JUMPI DUP1 PUSH4 0x81812FC EQ PUSH2 0x2C9 JUMPI DUP1 PUSH4 0x95EA7B3 EQ PUSH2 0x2C4 JUMPI DUP1 PUSH4 0x1249C58B EQ PUSH2 0x2BF JUMPI DUP1 PUSH4 0x12EA5C7E EQ PUSH2 0x2BA JUMPI DUP1 PUSH4 0x150B7A02 EQ PUSH2 0x2B5 JUMPI DUP1 PUSH4 0x18160DDD EQ PUSH2 0x2B0 JUMPI DUP1 PUSH4 0x1D0806AE EQ PUSH2 0x2AB JUMPI DUP1 PUSH4 0x21A1C184 EQ PUSH2 0x2A6 JUMPI DUP1 PUSH4 0x23B872DD EQ PUSH2 0x2A1 JUMPI DUP1 PUSH4 0x2DCD52F2 EQ PUSH2 0x29C JUMPI DUP1 PUSH4 0x2F745C59 EQ PUSH2 0x297 JUMPI DUP1 PUSH4 0x3F516018 EQ PUSH2 0x292 JUMPI DUP1 PUSH4 0x42842E0E EQ PUSH2 0x28D JUMPI DUP1 PUSH4 0x43D32E9C EQ PUSH2 0x288 JUMPI DUP1 PUSH4 0x478222C2 EQ PUSH2 0x283 JUMPI DUP1 PUSH4 0x4A8FE650 EQ PUSH2 0x27E JUMPI DUP1 PUSH4 0x4F6CCCE7 EQ PUSH2 0x279 JUMPI DUP1 PUSH4 0x53613DD3 EQ PUSH2 0x274 JUMPI DUP1 PUSH4 0x55F804B3 EQ PUSH2 0x26F JUMPI DUP1 PUSH4 0x5EBA096B EQ PUSH2 0x26A JUMPI DUP1 PUSH4 0x6352211E EQ PUSH2 0x265 JUMPI DUP1 PUSH4 0x6C0360EB EQ PUSH2 0x260 JUMPI DUP1 PUSH4 0x70A08231 EQ PUSH2 0x25B JUMPI DUP1 PUSH4 0x715018A6 EQ PUSH2 0x256 JUMPI DUP1 PUSH4 0x771282F6 EQ PUSH2 0x251 JUMPI DUP1 PUSH4 0x8DA5CB5B EQ PUSH2 0x24C JUMPI DUP1 PUSH4 0x95D89B41 EQ PUSH2 0x247 JUMPI DUP1 PUSH4 0xA22CB465 EQ PUSH2 0x242 JUMPI DUP1 PUSH4 0xAD64D068 EQ PUSH2 0x23D JUMPI DUP1 PUSH4 0xAE104265 EQ PUSH2 0x238 JUMPI DUP1 PUSH4 0xB88D4FDE EQ PUSH2 0x233 JUMPI DUP1 PUSH4 0xC87B56DD EQ PUSH2 0x22E JUMPI DUP1 PUSH4 0xCF6A68BF EQ PUSH2 0x229 JUMPI DUP1 PUSH4 0xD5ABEB01 EQ PUSH2 0x224 JUMPI DUP1 PUSH4 0xD96A094A EQ PUSH2 0x21F JUMPI DUP1 PUSH4 0xE4849B32 EQ PUSH2 0x21A JUMPI DUP1 PUSH4 0xE8A3D485 EQ PUSH2 0x215 JUMPI DUP1 PUSH4 0xE985E9C5 EQ PUSH2 0x210 JUMPI DUP1 PUSH4 0xF0F2805F EQ PUSH2 0x20B JUMPI PUSH4 0xF2FDE38B SUB PUSH2 0x2F2 JUMPI PUSH2 0xDEC JUMP JUMPDEST PUSH2 0xDD1 JUMP JUMPDEST PUSH2 0xDB5 JUMP JUMPDEST PUSH2 0xD77 JUMP JUMPDEST PUSH2 0xD5F JUMP JUMPDEST PUSH2 0xD4C JUMP JUMPDEST PUSH2 0xD31 JUMP JUMPDEST PUSH2 0xD0A JUMP JUMPDEST PUSH2 0xCEF JUMP JUMPDEST PUSH2 0xCD3 JUMP JUMPDEST PUSH2 0xCB8 JUMP JUMPDEST PUSH2 0xC9D JUMP JUMPDEST PUSH2 0xC28 JUMP JUMPDEST PUSH2 0xBD5 JUMP JUMPDEST PUSH2 0xBBA JUMP JUMPDEST PUSH2 0xB9F JUMP JUMPDEST PUSH2 0xB7B JUMP JUMPDEST PUSH2 0xB60 JUMP JUMPDEST PUSH2 0xB45 JUMP JUMPDEST PUSH2 0xA03 JUMP JUMPDEST PUSH2 0x9E7 JUMP JUMPDEST PUSH2 0x9B3 JUMP JUMPDEST PUSH2 0x972 JUMP JUMPDEST PUSH2 0x94B JUMP JUMPDEST PUSH2 0x930 JUMP JUMPDEST PUSH2 0x909 JUMP JUMPDEST PUSH2 0x8A3 JUMP JUMPDEST PUSH2 0x88A JUMP JUMPDEST PUSH2 0x872 JUMP JUMPDEST PUSH2 0x842 JUMP JUMPDEST PUSH2 0x826 JUMP JUMPDEST PUSH2 0x80D JUMP JUMPDEST PUSH2 0x7C9 JUMP JUMPDEST PUSH2 0x7AE JUMP JUMPDEST PUSH2 0x786 JUMP JUMPDEST PUSH2 0x74C JUMP JUMPDEST PUSH2 0x611 JUMP JUMPDEST PUSH2 0x594 JUMP JUMPDEST PUSH2 0x576 JUMP JUMPDEST PUSH2 0x522 JUMP JUMPDEST PUSH2 0x4FB JUMP JUMPDEST PUSH2 0x474 JUMP JUMPDEST PUSH2 0x3D6 JUMP JUMPDEST PUSH2 0x363 JUMP JUMPDEST PUSH2 0x2FD JUMP JUMPDEST PUSH1 0x0 SWAP2 SUB SLT PUSH2 0x2F2 JUMPI JUMP JUMPDEST PUSH1 0x0 DUP1 REVERT JUMPDEST SWAP1 MSTORE JUMP JUMPDEST JUMP JUMPDEST CALLVALUE PUSH2 0x2F2 JUMPI PUSH2 0x30D CALLDATASIZE PUSH1 0x4 PUSH2 0x2E7 JUMP JUMPDEST PUSH2 0x328 PUSH2 0x318 PUSH2 0xE15 JUMP JUMPDEST PUSH1 0x40 MLOAD SWAP2 DUP3 SWAP2 DUP3 SWAP1 DUP2 MSTORE PUSH1 0x20 ADD SWAP1 JUMP JUMPDEST SUB SWAP1 RETURN JUMPDEST PUSH1 0x1 PUSH1 0x1 PUSH1 0xE0 SHL SUB NOT DUP2 AND JUMPDEST SUB PUSH2 0x2F2 JUMPI JUMP JUMPDEST SWAP1 POP CALLDATALOAD SWAP1 PUSH2 0x2FB DUP3 PUSH2 0x32C JUMP JUMPDEST SWAP1 PUSH1 0x20 DUP3 DUP3 SUB SLT PUSH2 0x2F2 JUMPI PUSH2 0x360 SWAP2 PUSH2 0x33F JUMP JUMPDEST SWAP1 JUMP JUMPDEST CALLVALUE PUSH2 0x2F2 JUMPI PUSH2 0x328 PUSH2 0x37E PUSH2 0x379 CALLDATASIZE PUSH1 0x4 PUSH2 0x34C JUMP JUMPDEST PUSH2 0xE22 JUMP JUMPDEST PUSH1 0x40 MLOAD JUMPDEST SWAP2 DUP3 SWAP2 DUP3 SWAP1 ISZERO ISZERO DUP2 MSTORE PUSH1 0x20 ADD SWAP1 JUMP JUMPDEST PUSH2 0x360 SWAP2 PUSH1 0x8 MUL SHR JUMPDEST PUSH1 0x1 PUSH1 0x1 PUSH1 0xA0 SHL SUB AND SWAP1 JUMP JUMPDEST SWAP1 PUSH2 0x360 SWAP2 SLOAD PUSH2 0x391 JUMP JUMPDEST PUSH2 0x360 PUSH1 0x0 PUSH1 0xE PUSH2 0x3A6 JUMP JUMPDEST PUSH2 0x2F7 SWAP1 PUSH2 0x39A JUMP JUMPDEST PUSH1 0x20 DUP2 ADD SWAP3 SWAP2 PUSH2 0x2FB SWAP2 SWAP1 PUSH2 0x3BD JUMP JUMPDEST CALLVALUE PUSH2 0x2F2 JUMPI PUSH2 0x3E6 CALLDATASIZE PUSH1 0x4 PUSH2 0x2E7 JUMP JUMPDEST PUSH2 0x328 PUSH2 0x3F1 PUSH2 0x3B1 JUMP JUMPDEST PUSH1 0x40 MLOAD SWAP2 DUP3 SWAP2 DUP3 PUSH2 0x3C6 JUMP JUMPDEST DUP1 PUSH2 0x338 JUMP JUMPDEST SWAP1 POP CALLDATALOAD SWAP1 PUSH2 0x2FB DUP3 PUSH2 0x3FD JUMP JUMPDEST SWAP1 PUSH1 0x20 DUP3 DUP3 SUB SLT PUSH2 0x2F2 JUMPI PUSH2 0x360 SWAP2 PUSH2 0x403 JUMP JUMPDEST PUSH2 0x360 PUSH2 0x360 PUSH2 0x360 SWAP3 SWAP1 JUMP JUMPDEST SWAP1 PUSH2 0x43B SWAP1 PUSH2 0x424 JUMP JUMPDEST PUSH1 0x0 MSTORE PUSH1 0x20 MSTORE PUSH1 0x40 PUSH1 0x0 KECCAK256 SWAP1 JUMP JUMPDEST PUSH2 0x360 SWAP2 PUSH1 0x8 MUL SHR DUP2 JUMP JUMPDEST SWAP1 PUSH2 0x360 SWAP2 SLOAD PUSH2 0x449 JUMP JUMPDEST PUSH1 0x0 PUSH2 0x46F PUSH2 0x360 SWAP3 PUSH1 0x11 PUSH2 0x431 JUMP JUMPDEST PUSH2 0x454 JUMP JUMPDEST CALLVALUE PUSH2 0x2F2 JUMPI PUSH2 0x328 PUSH2 0x318 PUSH2 0x48A CALLDATASIZE PUSH1 0x4 PUSH2 0x410 JUMP JUMPDEST PUSH2 0x45F JUMP JUMPDEST PUSH1 0x0 JUMPDEST DUP4 DUP2 LT PUSH2 0x4A2 JUMPI POP POP PUSH1 0x0 SWAP2 ADD MSTORE JUMP JUMPDEST DUP2 DUP2 ADD MLOAD DUP4 DUP3 ADD MSTORE PUSH1 0x20 ADD PUSH2 0x492 JUMP JUMPDEST PUSH2 0x4D3 PUSH2 0x4DC PUSH1 0x20 SWAP4 PUSH2 0x4E6 SWAP4 PUSH2 0x4C7 DUP2 MLOAD SWAP1 JUMP JUMPDEST DUP1 DUP4 MSTORE SWAP4 DUP5 SWAP3 PUSH1 0x20 ADD SWAP1 JUMP JUMPDEST SWAP6 DUP7 SWAP2 ADD PUSH2 0x48F JUMP JUMPDEST PUSH1 0x1F ADD PUSH1 0x1F NOT AND SWAP1 JUMP JUMPDEST ADD SWAP1 JUMP JUMPDEST PUSH1 0x20 DUP1 DUP3 MSTORE PUSH2 0x360 SWAP3 SWAP2 ADD SWAP1 PUSH2 0x4B2 JUMP JUMPDEST CALLVALUE PUSH2 0x2F2 JUMPI PUSH2 0x50B CALLDATASIZE PUSH1 0x4 PUSH2 0x2E7 JUMP JUMPDEST PUSH2 0x328 PUSH2 0x516 PUSH2 0xE5F JUMP JUMPDEST PUSH1 0x40 MLOAD SWAP2 DUP3 SWAP2 DUP3 PUSH2 0x4EA JUMP JUMPDEST CALLVALUE PUSH2 0x2F2 JUMPI PUSH2 0x328 PUSH2 0x3F1 PUSH2 0x538 CALLDATASIZE PUSH1 0x4 PUSH2 0x410 JUMP JUMPDEST PUSH2 0xE69 JUMP JUMPDEST PUSH2 0x338 DUP2 PUSH2 0x39A JUMP JUMPDEST SWAP1 POP CALLDATALOAD SWAP1 PUSH2 0x2FB DUP3 PUSH2 0x53D JUMP JUMPDEST SWAP2 SWAP1 PUSH1 0x40 DUP4 DUP3 SUB SLT PUSH2 0x2F2 JUMPI PUSH2 0x360 SWAP1 PUSH1 0x20 PUSH2 0x56F DUP3 DUP7 PUSH2 0x546 JUMP JUMPDEST SWAP5 ADD PUSH2 0x403 JUMP JUMPDEST CALLVALUE PUSH2 0x2F2 JUMPI PUSH2 0x58F PUSH2 0x589 CALLDATASIZE PUSH1 0x4 PUSH2 0x553 JUMP JUMPDEST SWAP1 PUSH2 0xE7C JUMP JUMPDEST PUSH1 0x40 MLOAD STOP JUMPDEST PUSH2 0x59F CALLDATASIZE PUSH1 0x4 PUSH2 0x2E7 JUMP JUMPDEST PUSH2 0x328 PUSH2 0x318 PUSH2 0xFCC JUMP JUMPDEST SWAP1 PUSH2 0x5CA PUSH2 0x5C3 PUSH2 0x5B9 DUP5 MLOAD SWAP1 JUMP JUMPDEST DUP1 DUP5 MSTORE SWAP3 PUSH1 0x20 ADD SWAP1 JUMP JUMPDEST SWAP3 PUSH1 0x20 ADD SWAP1 JUMP JUMPDEST SWAP1 PUSH1 0x0 JUMPDEST DUP2 DUP2 LT PUSH2 0x5DB JUMPI POP POP POP SWAP1 JUMP JUMPDEST SWAP1 SWAP2 SWAP3 PUSH2 0x5F8 PUSH2 0x5F1 PUSH1 0x1 SWAP3 DUP7 MLOAD DUP2 MSTORE PUSH1 0x20 ADD SWAP1 JUMP JUMPDEST SWAP5 PUSH1 0x20 ADD SWAP1 JUMP JUMPDEST SWAP3 SWAP2 ADD PUSH2 0x5CE JUMP JUMPDEST PUSH1 0x20 DUP1 DUP3 MSTORE PUSH2 0x360 SWAP3 SWAP2 ADD SWAP1 PUSH2 0x5AA JUMP JUMPDEST CALLVALUE PUSH2 0x2F2 JUMPI PUSH2 0x621 CALLDATASIZE PUSH1 0x4 PUSH2 0x2E7 JUMP JUMPDEST PUSH2 0x328 PUSH2 0x62C PUSH2 0x1168 JUMP JUMPDEST PUSH1 0x40 MLOAD SWAP2 DUP3 SWAP2 DUP3 PUSH2 0x600 JUMP JUMPDEST PUSH4 0x4E487B71 PUSH1 0xE0 SHL PUSH1 0x0 MSTORE PUSH1 0x41 PUSH1 0x4 MSTORE PUSH1 0x24 PUSH1 0x0 REVERT JUMPDEST SWAP1 PUSH1 0x1F ADD PUSH1 0x1F NOT AND DUP2 ADD SWAP1 DUP2 LT PUSH8 0xFFFFFFFFFFFFFFFF DUP3 GT OR PUSH2 0x670 JUMPI PUSH1 0x40 MSTORE JUMP JUMPDEST PUSH2 0x638 JUMP JUMPDEST SWAP1 PUSH2 0x2FB PUSH2 0x682 PUSH1 0x40 MLOAD SWAP1 JUMP JUMPDEST SWAP3 DUP4 PUSH2 0x64E JUMP JUMPDEST PUSH8 0xFFFFFFFFFFFFFFFF DUP2 GT PUSH2 0x670 JUMPI PUSH1 0x20 SWAP1 PUSH1 0x1F ADD PUSH1 0x1F NOT AND ADD SWAP1 JUMP JUMPDEST SWAP1 DUP3 PUSH1 0x0 SWAP4 SWAP3 DUP3 CALLDATACOPY ADD MSTORE JUMP JUMPDEST SWAP1 SWAP3 SWAP2 SWAP3 PUSH2 0x6C7 PUSH2 0x6C2 DUP3 PUSH2 0x689 JUMP JUMPDEST PUSH2 0x675 JUMP JUMPDEST SWAP4 DUP2 DUP6 MSTORE DUP2 DUP4 ADD GT PUSH2 0x2F2 JUMPI PUSH2 0x2FB SWAP2 PUSH1 0x20 DUP6 ADD SWAP1 PUSH2 0x6A6 JUMP JUMPDEST SWAP1 DUP1 PUSH1 0x1F DUP4 ADD SLT ISZERO PUSH2 0x2F2 JUMPI DUP2 PUSH1 0x20 PUSH2 0x360 SWAP4 CALLDATALOAD SWAP2 ADD PUSH2 0x6B2 JUMP JUMPDEST SWAP1 PUSH1 0x80 DUP3 DUP3 SUB SLT PUSH2 0x2F2 JUMPI PUSH2 0x711 DUP2 DUP4 PUSH2 0x546 JUMP JUMPDEST SWAP3 PUSH2 0x71F DUP3 PUSH1 0x20 DUP6 ADD PUSH2 0x546 JUMP JUMPDEST SWAP3 PUSH2 0x72D DUP4 PUSH1 0x40 DUP4 ADD PUSH2 0x403 JUMP JUMPDEST SWAP3 PUSH1 0x60 DUP3 ADD CALLDATALOAD PUSH8 0xFFFFFFFFFFFFFFFF DUP2 GT PUSH2 0x2F2 JUMPI PUSH2 0x360 SWAP3 ADD PUSH2 0x6E1 JUMP JUMPDEST CALLVALUE PUSH2 0x2F2 JUMPI PUSH2 0x328 PUSH2 0x76B PUSH2 0x762 CALLDATASIZE PUSH1 0x4 PUSH2 0x6FC JUMP JUMPDEST SWAP3 SWAP2 SWAP1 SWAP2 PUSH2 0x1198 JUMP JUMPDEST PUSH1 0x40 MLOAD SWAP2 DUP3 SWAP2 DUP3 PUSH1 0x1 PUSH1 0x1 PUSH1 0xE0 SHL SUB NOT SWAP1 SWAP2 AND DUP2 MSTORE PUSH1 0x20 ADD SWAP1 JUMP JUMPDEST CALLVALUE PUSH2 0x2F2 JUMPI PUSH2 0x796 CALLDATASIZE PUSH1 0x4 PUSH2 0x2E7 JUMP JUMPDEST PUSH2 0x328 PUSH2 0x318 PUSH1 0x8 SLOAD SWAP1 JUMP JUMPDEST PUSH2 0x360 PUSH1 0x0 PUSH1 0xB PUSH2 0x454 JUMP JUMPDEST CALLVALUE PUSH2 0x2F2 JUMPI PUSH2 0x7BE CALLDATASIZE PUSH1 0x4 PUSH2 0x2E7 JUMP JUMPDEST PUSH2 0x328 PUSH2 0x318 PUSH2 0x7A2 JUMP JUMPDEST CALLVALUE PUSH2 0x2F2 JUMPI PUSH2 0x7D9 CALLDATASIZE PUSH1 0x4 PUSH2 0x2E7 JUMP JUMPDEST PUSH2 0x328 PUSH2 0x318 PUSH2 0x11BF JUMP JUMPDEST SWAP1 SWAP2 PUSH1 0x60 DUP3 DUP5 SUB SLT PUSH2 0x2F2 JUMPI PUSH2 0x360 PUSH2 0x7FD DUP5 DUP5 PUSH2 0x546 JUMP JUMPDEST SWAP4 PUSH1 0x40 PUSH2 0x56F DUP3 PUSH1 0x20 DUP8 ADD PUSH2 0x546 JUMP JUMPDEST CALLVALUE PUSH2 0x2F2 JUMPI PUSH2 0x58F PUSH2 0x820 CALLDATASIZE PUSH1 0x4 PUSH2 0x7E4 JUMP JUMPDEST SWAP2 PUSH2 0x122A JUMP JUMPDEST CALLVALUE PUSH2 0x2F2 JUMPI PUSH2 0x836 CALLDATASIZE PUSH1 0x4 PUSH2 0x2E7 JUMP JUMPDEST PUSH2 0x328 PUSH2 0x318 PUSH1 0x10 SLOAD SWAP1 JUMP JUMPDEST CALLVALUE PUSH2 0x2F2 JUMPI PUSH2 0x328 PUSH2 0x318 PUSH2 0x858 CALLDATASIZE PUSH1 0x4 PUSH2 0x553 JUMP JUMPDEST SWAP1 PUSH2 0x12D3 JUMP JUMPDEST SWAP1 PUSH1 0x20 DUP3 DUP3 SUB SLT PUSH2 0x2F2 JUMPI PUSH2 0x360 SWAP2 PUSH2 0x546 JUMP JUMPDEST CALLVALUE PUSH2 0x2F2 JUMPI PUSH2 0x58F PUSH2 0x885 CALLDATASIZE PUSH1 0x4 PUSH2 0x85E JUMP JUMPDEST PUSH2 0x13E9 JUMP JUMPDEST CALLVALUE PUSH2 0x2F2 JUMPI PUSH2 0x58F PUSH2 0x89D CALLDATASIZE PUSH1 0x4 PUSH2 0x7E4 JUMP JUMPDEST SWAP2 PUSH2 0x1416 JUMP JUMPDEST CALLVALUE PUSH2 0x2F2 JUMPI PUSH2 0x8B3 CALLDATASIZE PUSH1 0x4 PUSH2 0x2E7 JUMP JUMPDEST PUSH2 0x328 PUSH2 0x318 PUSH2 0x142A JUMP JUMPDEST PUSH2 0x360 PUSH1 0x0 PUSH1 0x13 PUSH2 0x3A6 JUMP JUMPDEST PUSH2 0x360 SWAP1 PUSH2 0x39A SWAP1 PUSH1 0x1 PUSH1 0x1 PUSH1 0xA0 SHL SUB AND DUP3 JUMP JUMPDEST PUSH2 0x360 SWAP1 PUSH2 0x8CA JUMP JUMPDEST PUSH2 0x360 SWAP1 PUSH2 0x8DE JUMP JUMPDEST PUSH2 0x2F7 SWAP1 PUSH2 0x8E7 JUMP JUMPDEST PUSH1 0x20 DUP2 ADD SWAP3 SWAP2 PUSH2 0x2FB SWAP2 SWAP1 PUSH2 0x8F0 JUMP JUMPDEST CALLVALUE PUSH2 0x2F2 JUMPI PUSH2 0x919 CALLDATASIZE PUSH1 0x4 PUSH2 0x2E7 JUMP JUMPDEST PUSH2 0x328 PUSH2 0x924 PUSH2 0x8BE JUMP JUMPDEST PUSH1 0x40 MLOAD SWAP2 DUP3 SWAP2 DUP3 PUSH2 0x8F9 JUMP JUMPDEST CALLVALUE PUSH2 0x2F2 JUMPI PUSH2 0x940 CALLDATASIZE PUSH1 0x4 PUSH2 0x2E7 JUMP JUMPDEST PUSH2 0x328 PUSH2 0x318 PUSH2 0x146E JUMP JUMPDEST CALLVALUE PUSH2 0x2F2 JUMPI PUSH2 0x328 PUSH2 0x318 PUSH2 0x961 CALLDATASIZE PUSH1 0x4 PUSH2 0x410 JUMP JUMPDEST PUSH2 0x1489 JUMP JUMPDEST PUSH2 0x360 PUSH1 0x0 PUSH1 0xD PUSH2 0x454 JUMP JUMPDEST CALLVALUE PUSH2 0x2F2 JUMPI PUSH2 0x982 CALLDATASIZE PUSH1 0x4 PUSH2 0x2E7 JUMP JUMPDEST PUSH2 0x328 PUSH2 0x318 PUSH2 0x966 JUMP JUMPDEST SWAP1 PUSH1 0x20 DUP3 DUP3 SUB SLT PUSH2 0x2F2 JUMPI DUP2 CALLDATALOAD PUSH8 0xFFFFFFFFFFFFFFFF DUP2 GT PUSH2 0x2F2 JUMPI PUSH2 0x360 SWAP3 ADD PUSH2 0x6E1 JUMP JUMPDEST CALLVALUE PUSH2 0x2F2 JUMPI PUSH2 0x58F PUSH2 0x9C6 CALLDATASIZE PUSH1 0x4 PUSH2 0x98D JUMP JUMPDEST PUSH2 0x1675 JUMP JUMPDEST SWAP2 SWAP1 PUSH1 0x40 DUP4 DUP3 SUB SLT PUSH2 0x2F2 JUMPI PUSH2 0x360 SWAP1 PUSH1 0x20 PUSH2 0x56F DUP3 DUP7 PUSH2 0x403 JUMP JUMPDEST CALLVALUE PUSH2 0x2F2 JUMPI PUSH2 0x328 PUSH2 0x62C PUSH2 0x9FD CALLDATASIZE PUSH1 0x4 PUSH2 0x9CB JUMP JUMPDEST SWAP1 PUSH2 0x1731 JUMP JUMPDEST CALLVALUE PUSH2 0x2F2 JUMPI PUSH2 0x328 PUSH2 0x3F1 PUSH2 0xA19 CALLDATASIZE PUSH1 0x4 PUSH2 0x410 JUMP JUMPDEST PUSH2 0x17C0 JUMP JUMPDEST PUSH4 0x4E487B71 PUSH1 0xE0 SHL PUSH1 0x0 MSTORE PUSH1 0x0 PUSH1 0x4 MSTORE PUSH1 0x24 PUSH1 0x0 REVERT JUMPDEST PUSH4 0x4E487B71 PUSH1 0xE0 SHL PUSH1 0x0 MSTORE PUSH1 0x22 PUSH1 0x4 MSTORE PUSH1 0x24 PUSH1 0x0 REVERT JUMPDEST SWAP1 PUSH1 0x1 PUSH1 0x2 DUP4 DIV SWAP3 AND DUP1 ISZERO PUSH2 0xA6A JUMPI JUMPDEST PUSH1 0x20 DUP4 LT EQ PUSH2 0xA65 JUMPI JUMP JUMPDEST PUSH2 0xA34 JUMP JUMPDEST SWAP2 PUSH1 0x7F AND SWAP2 PUSH2 0xA5A JUMP JUMPDEST DUP1 SLOAD PUSH1 0x0 SWAP4 SWAP3 SWAP2 PUSH2 0xA91 PUSH2 0xA87 DUP4 PUSH2 0xA4A JUMP JUMPDEST DUP1 DUP6 MSTORE SWAP4 PUSH1 0x20 ADD SWAP1 JUMP JUMPDEST SWAP2 PUSH1 0x1 DUP2 AND SWAP1 DUP2 ISZERO PUSH2 0xAE3 JUMPI POP PUSH1 0x1 EQ PUSH2 0xAAA JUMPI POP POP POP JUMP JUMPDEST PUSH2 0xABD SWAP2 SWAP3 SWAP4 SWAP5 POP PUSH1 0x0 MSTORE PUSH1 0x20 PUSH1 0x0 KECCAK256 SWAP1 JUMP JUMPDEST SWAP2 PUSH1 0x0 SWAP3 JUMPDEST DUP2 DUP5 LT PUSH2 0xACF JUMPI POP POP ADD SWAP1 JUMP JUMPDEST DUP1 SLOAD DUP5 DUP5 ADD MSTORE PUSH1 0x20 SWAP1 SWAP4 ADD SWAP3 PUSH1 0x1 ADD PUSH2 0xAC2 JUMP JUMPDEST SWAP3 SWAP5 SWAP6 POP POP POP PUSH1 0xFF NOT AND DUP3 MSTORE ISZERO ISZERO PUSH1 0x20 MUL ADD SWAP1 JUMP JUMPDEST SWAP1 PUSH2 0x360 SWAP2 PUSH2 0xA74 JUMP JUMPDEST SWAP1 PUSH2 0x2FB PUSH2 0xB1C SWAP3 PUSH2 0xB13 PUSH1 0x40 MLOAD SWAP1 JUMP JUMPDEST SWAP4 DUP5 DUP1 SWAP3 PUSH2 0xAF8 JUMP JUMPDEST SUB DUP4 PUSH2 0x64E JUMP JUMPDEST SWAP1 PUSH1 0x0 LT PUSH2 0xB34 JUMPI PUSH2 0x360 SWAP1 PUSH2 0xB02 JUMP JUMPDEST PUSH2 0xA1E JUMP JUMPDEST PUSH2 0x360 PUSH1 0x0 PUSH1 0x12 PUSH2 0xB23 JUMP JUMPDEST CALLVALUE PUSH2 0x2F2 JUMPI PUSH2 0xB55 CALLDATASIZE PUSH1 0x4 PUSH2 0x2E7 JUMP JUMPDEST PUSH2 0x328 PUSH2 0x516 PUSH2 0xB39 JUMP JUMPDEST CALLVALUE PUSH2 0x2F2 JUMPI PUSH2 0x328 PUSH2 0x318 PUSH2 0xB76 CALLDATASIZE PUSH1 0x4 PUSH2 0x85E JUMP JUMPDEST PUSH2 0x17C9 JUMP JUMPDEST CALLVALUE PUSH2 0x2F2 JUMPI PUSH2 0xB8B CALLDATASIZE PUSH1 0x4 PUSH2 0x2E7 JUMP JUMPDEST PUSH2 0x58F PUSH2 0x1831 JUMP JUMPDEST PUSH2 0x360 PUSH1 0x0 PUSH1 0xF PUSH2 0x454 JUMP JUMPDEST CALLVALUE PUSH2 0x2F2 JUMPI PUSH2 0xBAF CALLDATASIZE PUSH1 0x4 PUSH2 0x2E7 JUMP JUMPDEST PUSH2 0x328 PUSH2 0x318 PUSH2 0xB93 JUMP JUMPDEST CALLVALUE PUSH2 0x2F2 JUMPI PUSH2 0xBCA CALLDATASIZE PUSH1 0x4 PUSH2 0x2E7 JUMP JUMPDEST PUSH2 0x328 PUSH2 0x3F1 PUSH2 0x1839 JUMP JUMPDEST CALLVALUE PUSH2 0x2F2 JUMPI PUSH2 0xBE5 CALLDATASIZE PUSH1 0x4 PUSH2 0x2E7 JUMP JUMPDEST PUSH2 0x328 PUSH2 0x516 PUSH2 0x1843 JUMP JUMPDEST DUP1 ISZERO ISZERO PUSH2 0x338 JUMP JUMPDEST SWAP1 POP CALLDATALOAD SWAP1 PUSH2 0x2FB DUP3 PUSH2 0xBF0 JUMP JUMPDEST SWAP2 SWAP1 PUSH1 0x40 DUP4 DUP3 SUB SLT PUSH2 0x2F2 JUMPI PUSH2 0x360 SWAP1 PUSH1 0x20 PUSH2 0xC21 DUP3 DUP7 PUSH2 0x546 JUMP JUMPDEST SWAP5 ADD PUSH2 0xBF8 JUMP JUMPDEST CALLVALUE PUSH2 0x2F2 JUMPI PUSH2 0x58F PUSH2 0xC3B CALLDATASIZE PUSH1 0x4 PUSH2 0xC05 JUMP JUMPDEST SWAP1 PUSH2 0x184D JUMP JUMPDEST PUSH4 0x4E487B71 PUSH1 0xE0 SHL PUSH1 0x0 MSTORE PUSH1 0x32 PUSH1 0x4 MSTORE PUSH1 0x24 PUSH1 0x0 REVERT JUMPDEST DUP1 SLOAD DUP3 LT ISZERO PUSH2 0xC7A JUMPI PUSH2 0xC71 PUSH1 0x1 SWAP2 PUSH1 0x0 MSTORE PUSH1 0x20 PUSH1 0x0 KECCAK256 SWAP1 JUMP JUMPDEST SWAP2 MUL ADD SWAP1 PUSH1 0x0 SWAP1 JUMP JUMPDEST PUSH2 0xC41 JUMP JUMPDEST PUSH1 0x10 SLOAD DUP2 LT ISZERO PUSH2 0x2F2 JUMPI PUSH2 0xC97 PUSH2 0x360 SWAP2 PUSH1 0x10 PUSH2 0xC57 JUMP JUMPDEST SWAP1 PUSH2 0x454 JUMP JUMPDEST CALLVALUE PUSH2 0x2F2 JUMPI PUSH2 0x328 PUSH2 0x318 PUSH2 0xCB3 CALLDATASIZE PUSH1 0x4 PUSH2 0x410 JUMP JUMPDEST PUSH2 0xC7F JUMP JUMPDEST CALLVALUE PUSH2 0x2F2 JUMPI PUSH2 0x328 PUSH2 0x318 PUSH2 0xCCE CALLDATASIZE PUSH1 0x4 PUSH2 0x410 JUMP JUMPDEST PUSH2 0x1858 JUMP JUMPDEST CALLVALUE PUSH2 0x2F2 JUMPI PUSH2 0x58F PUSH2 0xCE6 CALLDATASIZE PUSH1 0x4 PUSH2 0x6FC JUMP JUMPDEST SWAP3 SWAP2 SWAP1 SWAP2 PUSH2 0x18E9 JUMP JUMPDEST CALLVALUE PUSH2 0x2F2 JUMPI PUSH2 0x328 PUSH2 0x516 PUSH2 0xD05 CALLDATASIZE PUSH1 0x4 PUSH2 0x410 JUMP JUMPDEST PUSH2 0x1A01 JUMP JUMPDEST CALLVALUE PUSH2 0x2F2 JUMPI PUSH2 0x328 PUSH2 0x318 PUSH2 0xD20 CALLDATASIZE PUSH1 0x4 PUSH2 0x410 JUMP JUMPDEST PUSH2 0x1A44 JUMP JUMPDEST PUSH2 0x360 PUSH1 0x0 PUSH1 0xC PUSH2 0x454 JUMP JUMPDEST CALLVALUE PUSH2 0x2F2 JUMPI PUSH2 0xD41 CALLDATASIZE PUSH1 0x4 PUSH2 0x2E7 JUMP JUMPDEST PUSH2 0x328 PUSH2 0x318 PUSH2 0xD25 JUMP JUMPDEST PUSH2 0x58F PUSH2 0xD5A CALLDATASIZE PUSH1 0x4 PUSH2 0x410 JUMP JUMPDEST PUSH2 0x1B6C JUMP JUMPDEST CALLVALUE PUSH2 0x2F2 JUMPI PUSH2 0x58F PUSH2 0xD72 CALLDATASIZE PUSH1 0x4 PUSH2 0x410 JUMP JUMPDEST PUSH2 0x1D25 JUMP JUMPDEST CALLVALUE PUSH2 0x2F2 JUMPI PUSH2 0xD87 CALLDATASIZE PUSH1 0x4 PUSH2 0x2E7 JUMP JUMPDEST PUSH2 0x328 PUSH2 0x516 PUSH2 0x1D71 JUMP JUMPDEST SWAP2 SWAP1 PUSH1 0x40 DUP4 DUP3 SUB SLT PUSH2 0x2F2 JUMPI PUSH2 0x360 SWAP1 PUSH1 0x20 PUSH2 0xDAE DUP3 DUP7 PUSH2 0x546 JUMP JUMPDEST SWAP5 ADD PUSH2 0x546 JUMP JUMPDEST CALLVALUE PUSH2 0x2F2 JUMPI PUSH2 0x328 PUSH2 0x37E PUSH2 0xDCB CALLDATASIZE PUSH1 0x4 PUSH2 0xD92 JUMP JUMPDEST SWAP1 PUSH2 0x1DB5 JUMP JUMPDEST CALLVALUE PUSH2 0x2F2 JUMPI PUSH2 0x328 PUSH2 0x37E PUSH2 0xDE7 CALLDATASIZE PUSH1 0x4 PUSH2 0x410 JUMP JUMPDEST PUSH2 0x1DDA JUMP JUMPDEST CALLVALUE PUSH2 0x2F2 JUMPI PUSH2 0x58F PUSH2 0xDFF CALLDATASIZE PUSH1 0x4 PUSH2 0x85E JUMP JUMPDEST PUSH2 0x1E44 JUMP JUMPDEST PUSH2 0x360 SWAP1 DUP2 JUMP JUMPDEST PUSH2 0x360 SWAP1 SLOAD PUSH2 0xE04 JUMP JUMPDEST PUSH2 0x360 PUSH2 0xCCE PUSH1 0xF PUSH2 0xE0B JUMP JUMPDEST PUSH2 0xE2B DUP2 PUSH2 0x1E4D JUMP JUMPDEST SWAP1 DUP2 ISZERO PUSH2 0xE36 JUMPI POP SWAP1 JUMP JUMPDEST SWAP1 POP PUSH2 0xE52 PUSH4 0x2FA757F3 PUSH1 0xE0 SHL JUMPDEST SWAP2 PUSH1 0x1 PUSH1 0x1 PUSH1 0xE0 SHL SUB NOT AND SWAP1 JUMP JUMPDEST EQ SWAP1 JUMP JUMPDEST PUSH2 0x360 SWAP1 PUSH2 0xB02 JUMP JUMPDEST PUSH2 0x360 PUSH1 0x0 PUSH2 0xE56 JUMP JUMPDEST PUSH2 0x360 SWAP1 PUSH2 0xE76 DUP2 PUSH2 0x1E56 JUMP JUMPDEST POP PUSH2 0x1E96 JUMP JUMPDEST PUSH2 0x2FB SWAP2 CALLER SWAP2 PUSH2 0x1EB2 JUMP JUMPDEST ISZERO PUSH2 0xE8E JUMPI JUMP JUMPDEST PUSH1 0x40 MLOAD PUSH3 0x461BCD PUSH1 0xE5 SHL DUP2 MSTORE PUSH1 0x20 PUSH1 0x4 DUP3 ADD MSTORE PUSH1 0x12 PUSH1 0x24 DUP3 ADD MSTORE PUSH18 0x13585E081CDD5C1C1B1E481C995858DA1959 PUSH1 0x72 SHL PUSH1 0x44 DUP3 ADD MSTORE DUP1 PUSH1 0x64 DUP2 ADD JUMPDEST SUB SWAP1 REVERT JUMPDEST PUSH4 0x4E487B71 PUSH1 0xE0 SHL PUSH1 0x0 MSTORE PUSH1 0x11 PUSH1 0x4 MSTORE PUSH1 0x24 PUSH1 0x0 REVERT JUMPDEST DUP2 DUP2 MUL SWAP3 SWAP2 DUP2 ISZERO SWAP2 DUP5 DIV EQ OR ISZERO PUSH2 0xEF6 JUMPI JUMP JUMPDEST PUSH2 0xECD JUMP JUMPDEST PUSH4 0x4E487B71 PUSH1 0xE0 SHL PUSH1 0x0 MSTORE PUSH1 0x12 PUSH1 0x4 MSTORE PUSH1 0x24 PUSH1 0x0 REVERT JUMPDEST SWAP1 PUSH2 0xF1B JUMP JUMPDEST SWAP2 SWAP1 JUMP JUMPDEST SWAP1 DUP2 ISZERO PUSH2 0xF26 JUMPI DIV SWAP1 JUMP JUMPDEST PUSH2 0xEFB JUMP JUMPDEST SWAP2 SWAP1 DUP3 ADD DUP1 SWAP3 GT PUSH2 0xEF6 JUMPI JUMP JUMPDEST ISZERO PUSH2 0xF3F JUMPI JUMP JUMPDEST PUSH1 0x40 MLOAD PUSH3 0x461BCD PUSH1 0xE5 SHL DUP2 MSTORE PUSH1 0x20 PUSH1 0x4 DUP3 ADD MSTORE PUSH1 0x14 PUSH1 0x24 DUP3 ADD MSTORE PUSH20 0x125B9CDD59999A58DA595B9D081C185E5B595B9D PUSH1 0x62 SHL PUSH1 0x44 DUP3 ADD MSTORE PUSH1 0x64 SWAP1 REVERT JUMPDEST PUSH1 0x0 NOT DUP2 EQ PUSH2 0xEF6 JUMPI PUSH1 0x1 ADD SWAP1 JUMP JUMPDEST SWAP1 PUSH1 0x0 NOT SWAP1 JUMPDEST SWAP2 DUP2 NOT AND SWAP2 AND OR SWAP1 JUMP JUMPDEST SWAP1 PUSH2 0xFAA PUSH2 0x360 PUSH2 0xFB1 SWAP3 PUSH2 0x424 JUMP JUMPDEST DUP3 SLOAD PUSH2 0xF8A JUMP JUMPDEST SWAP1 SSTORE JUMP JUMPDEST SWAP1 DUP2 MSTORE PUSH1 0x40 DUP2 ADD SWAP3 SWAP2 PUSH2 0x2FB SWAP2 PUSH1 0x20 ADD MSTORE JUMP JUMPDEST ADD MSTORE JUMP JUMPDEST PUSH2 0xFEE PUSH2 0xFD8 PUSH1 0x8 SLOAD SWAP1 JUMP JUMPDEST PUSH2 0xFE8 PUSH2 0xF17 PUSH2 0x360 PUSH1 0xC PUSH2 0xE0B JUMP JUMPDEST LT PUSH2 0xE87 JUMP JUMPDEST PUSH2 0xFF6 PUSH2 0xE15 JUMP JUMPDEST PUSH2 0x360 PUSH2 0x10DE PUSH2 0x1029 PUSH2 0x1012 PUSH2 0x100C PUSH1 0xD PUSH2 0xE0B JUMP JUMPDEST DUP6 PUSH2 0xEE3 JUMP JUMPDEST PUSH2 0x1023 PUSH8 0xDE0B6B3A7640000 PUSH2 0x424 JUMP JUMPDEST SWAP1 PUSH2 0xF11 JUMP JUMPDEST PUSH2 0x1041 PUSH2 0x1039 PUSH2 0x360 DUP4 DUP8 PUSH2 0xF2B JUMP JUMPDEST CALLVALUE LT ISZERO PUSH2 0xF38 JUMP JUMPDEST PUSH2 0x105D PUSH2 0x104D PUSH1 0x8 SLOAD SWAP1 JUMP JUMPDEST PUSH2 0x1057 PUSH1 0x1 PUSH2 0x424 JUMP JUMPDEST SWAP1 PUSH2 0xF2B JUMP JUMPDEST SWAP4 PUSH2 0x1068 DUP6 CALLER PUSH2 0x1EBF JUMP JUMPDEST PUSH2 0x1084 PUSH2 0x107D PUSH2 0x1078 PUSH1 0xF PUSH2 0xE0B JUMP JUMPDEST PUSH2 0xF7B JUMP JUMPDEST PUSH1 0xF PUSH2 0xF9A JUMP JUMPDEST PUSH2 0x108D CALLER PUSH2 0x8E7 JUMP JUMPDEST PUSH2 0x1096 DUP7 PUSH2 0x424 JUMP JUMPDEST SWAP1 PUSH32 0x10546B1A6F5245FF0FFA18C256B9E46859C585CBB473B453FCD4C2DC39AE08DB PUSH2 0x10C1 PUSH1 0x40 MLOAD SWAP1 JUMP JUMPDEST DUP1 PUSH2 0x10CD DUP8 DUP8 DUP4 PUSH2 0xFB5 JUMP JUMPDEST SUB SWAP1 LOG3 PUSH2 0x10D9 DUP3 PUSH2 0x1F96 JUMP JUMPDEST PUSH2 0xF2B JUMP JUMPDEST PUSH2 0x20BF JUMP JUMPDEST SWAP1 PUSH2 0x10FE PUSH2 0x10F2 PUSH2 0x5B9 DUP5 SLOAD SWAP1 JUMP JUMPDEST SWAP3 PUSH1 0x0 MSTORE PUSH1 0x20 PUSH1 0x0 KECCAK256 SWAP1 JUMP JUMPDEST SWAP1 PUSH1 0x0 JUMPDEST DUP2 DUP2 LT PUSH2 0x110F JUMPI POP POP POP SWAP1 JUMP JUMPDEST SWAP1 SWAP2 SWAP3 PUSH2 0x1133 PUSH2 0x112C PUSH1 0x1 SWAP3 PUSH2 0x1124 DUP8 PUSH2 0xE0B JUMP JUMPDEST DUP2 MSTORE PUSH1 0x20 ADD SWAP1 JUMP JUMPDEST SWAP5 PUSH1 0x1 ADD SWAP1 JUMP JUMPDEST SWAP3 SWAP2 ADD PUSH2 0x1102 JUMP JUMPDEST SWAP1 PUSH2 0x360 SWAP2 PUSH2 0x10E3 JUMP JUMPDEST SWAP1 PUSH2 0x2FB PUSH2 0xB1C SWAP3 PUSH2 0x1156 PUSH1 0x40 MLOAD SWAP1 JUMP JUMPDEST SWAP4 DUP5 DUP1 SWAP3 PUSH2 0x113B JUMP JUMPDEST PUSH2 0x360 SWAP1 PUSH2 0x1145 JUMP JUMPDEST PUSH2 0x360 PUSH1 0x10 PUSH2 0x115F JUMP JUMPDEST PUSH2 0x118B PUSH2 0x1185 PUSH2 0x360 SWAP3 PUSH4 0xFFFFFFFF AND SWAP1 JUMP JUMPDEST PUSH1 0xE0 SHL SWAP1 JUMP JUMPDEST PUSH1 0x1 PUSH1 0x1 PUSH1 0xE0 SHL SUB NOT AND SWAP1 JUMP JUMPDEST POP POP POP POP PUSH2 0x11A4 PUSH1 0x0 SWAP1 JUMP JUMPDEST POP PUSH2 0x360 PUSH4 0x150B7A02 PUSH2 0x1172 JUMP JUMPDEST SWAP2 SWAP1 DUP3 SUB SWAP2 DUP3 GT PUSH2 0xEF6 JUMPI JUMP JUMPDEST PUSH2 0x360 PUSH2 0x11CA PUSH2 0x142A JUMP JUMPDEST PUSH2 0x11E0 PUSH2 0x1012 PUSH2 0x11DA PUSH1 0xD PUSH2 0xE0B JUMP JUMPDEST DUP4 PUSH2 0xEE3 JUMP JUMPDEST SWAP1 PUSH2 0x11B2 JUMP JUMPDEST PUSH2 0x39A PUSH2 0x360 PUSH2 0x360 SWAP3 SWAP1 JUMP JUMPDEST PUSH2 0x360 SWAP1 PUSH2 0x11E6 JUMP JUMPDEST PUSH1 0x40 SWAP1 PUSH2 0x1223 PUSH2 0x2FB SWAP5 SWAP7 SWAP6 SWAP4 SWAP7 PUSH2 0x121C PUSH1 0x60 DUP5 ADD SWAP9 PUSH1 0x0 DUP6 ADD SWAP1 PUSH2 0x3BD JUMP JUMPDEST PUSH1 0x20 DUP4 ADD MSTORE JUMP JUMPDEST ADD SWAP1 PUSH2 0x3BD JUMP JUMPDEST SWAP1 SWAP2 PUSH1 0x0 SWAP3 PUSH2 0x1238 DUP5 PUSH2 0x11F3 JUMP JUMPDEST PUSH2 0x1241 DUP2 PUSH2 0x39A JUMP JUMPDEST PUSH2 0x124A DUP4 PUSH2 0x39A JUMP JUMPDEST EQ PUSH2 0x1295 JUMPI POP PUSH2 0x125C SWAP1 DUP3 CALLER SWAP2 PUSH2 0x2109 JUMP JUMPDEST SWAP2 PUSH2 0x1266 DUP2 PUSH2 0x39A JUMP JUMPDEST PUSH2 0x126F DUP5 PUSH2 0x39A JUMP JUMPDEST SUB PUSH2 0x127A JUMPI POP POP POP POP JUMP JUMPDEST PUSH4 0x64283D7B PUSH1 0xE0 SHL DUP5 MSTORE DUP4 SWAP3 PUSH2 0xEC9 SWAP3 SWAP1 SWAP2 PUSH1 0x4 DUP6 ADD PUSH2 0x11FC JUMP JUMPDEST DUP5 PUSH2 0xEC9 DUP2 SWAP3 PUSH4 0x32505749 PUSH1 0xE1 SHL DUP4 MSTORE PUSH1 0x4 DUP4 ADD PUSH2 0x3C6 JUMP JUMPDEST SWAP2 PUSH1 0x20 PUSH2 0x2FB SWAP3 SWAP5 SWAP4 PUSH2 0xFC8 PUSH1 0x40 DUP3 ADD SWAP7 PUSH1 0x0 DUP4 ADD SWAP1 PUSH2 0x3BD JUMP JUMPDEST SWAP1 PUSH2 0x43B SWAP1 PUSH2 0x8E7 JUMP JUMPDEST PUSH2 0x12DF PUSH2 0x360 DUP3 PUSH2 0x17C9 JUMP JUMPDEST DUP3 LT ISZERO PUSH2 0x1302 JUMPI PUSH2 0x360 SWAP2 PUSH2 0x12F8 PUSH2 0x12FD SWAP3 PUSH1 0x6 PUSH2 0x12C9 JUMP JUMPDEST PUSH2 0x431 JUMP JUMPDEST PUSH2 0xE0B JUMP JUMPDEST PUSH4 0x295F44F7 PUSH1 0xE2 SHL PUSH1 0x0 SWAP1 DUP2 MSTORE SWAP2 PUSH2 0x131B SWAP2 PUSH1 0x4 PUSH2 0x12AE JUMP JUMPDEST SUB PUSH1 0x0 REVERT JUMPDEST PUSH2 0x360 SWAP1 PUSH2 0x39A JUMP JUMPDEST PUSH2 0x360 SWAP1 SLOAD PUSH2 0x1320 JUMP JUMPDEST ISZERO PUSH2 0x133A JUMPI JUMP JUMPDEST PUSH1 0x40 MLOAD PUSH3 0x461BCD PUSH1 0xE5 SHL DUP2 MSTORE PUSH1 0x20 PUSH1 0x4 DUP3 ADD MSTORE PUSH1 0x23 PUSH1 0x24 DUP3 ADD MSTORE PUSH32 0x4F6E6C792063726561746F722063616E2063616C6C20746869732066756E6374 PUSH1 0x44 DUP3 ADD MSTORE PUSH3 0x34B7B7 PUSH1 0xE9 SHL PUSH1 0x64 DUP3 ADD MSTORE PUSH1 0x84 SWAP1 REVERT JUMPDEST PUSH2 0x2FB SWAP1 PUSH2 0x13B3 PUSH2 0x13A4 PUSH2 0x139F PUSH1 0xE PUSH2 0x1329 JUMP JUMPDEST PUSH2 0x39A JUMP JUMPDEST PUSH2 0x13AD CALLER PUSH2 0x39A JUMP JUMPDEST EQ PUSH2 0x1333 JUMP JUMPDEST PUSH2 0x13DE JUMP JUMPDEST SWAP1 PUSH1 0x1 PUSH1 0x1 PUSH1 0xA0 SHL SUB SWAP1 PUSH2 0xF90 JUMP JUMPDEST SWAP1 PUSH2 0x13D7 PUSH2 0x360 PUSH2 0xFB1 SWAP3 PUSH2 0x8E7 JUMP JUMPDEST DUP3 SLOAD PUSH2 0x13B8 JUMP JUMPDEST PUSH2 0x2FB SWAP1 PUSH1 0xE PUSH2 0x13C7 JUMP JUMPDEST PUSH2 0x2FB SWAP1 PUSH2 0x138B JUMP JUMPDEST SWAP1 PUSH2 0x13FF PUSH2 0x6C2 DUP4 PUSH2 0x689 JUMP JUMPDEST SWAP2 DUP3 MSTORE JUMP JUMPDEST PUSH2 0x360 PUSH1 0x0 PUSH2 0x13F2 JUMP JUMPDEST PUSH2 0x360 PUSH2 0x1404 JUMP JUMPDEST SWAP1 SWAP2 PUSH2 0x2FB SWAP3 PUSH2 0x1424 PUSH2 0x140E JUMP JUMPDEST SWAP3 PUSH2 0x18E9 JUMP JUMPDEST PUSH2 0x1434 PUSH1 0xF PUSH2 0xE0B JUMP JUMPDEST PUSH2 0x1441 PUSH2 0xF17 PUSH1 0x0 PUSH2 0x424 JUMP JUMPDEST GT ISZERO PUSH2 0x1461 JUMPI PUSH2 0x360 PUSH2 0xCCE PUSH2 0x1457 PUSH1 0xF PUSH2 0xE0B JUMP JUMPDEST PUSH2 0x11E0 PUSH1 0x1 PUSH2 0x424 JUMP JUMPDEST PUSH2 0x360 PUSH2 0xCCE PUSH1 0x0 PUSH2 0x424 JUMP JUMPDEST PUSH2 0x360 PUSH2 0x1479 PUSH2 0xE15 JUMP JUMPDEST PUSH2 0x1057 PUSH2 0x1012 PUSH2 0x11DA PUSH1 0xD PUSH2 0xE0B JUMP JUMPDEST PUSH2 0x1495 PUSH2 0x360 PUSH1 0x8 SLOAD SWAP1 JUMP JUMPDEST DUP2 LT ISZERO PUSH2 0x14AA JUMPI PUSH2 0xC97 PUSH2 0x360 SWAP2 PUSH1 0x8 PUSH2 0xC57 JUMP JUMPDEST PUSH2 0xEC9 SWAP1 PUSH1 0x0 SWAP2 DUP3 SWAP2 PUSH2 0x14BC DUP4 PUSH2 0x11F3 JUMP JUMPDEST PUSH4 0x295F44F7 PUSH1 0xE2 SHL DUP5 MSTORE PUSH1 0x4 DUP5 ADD PUSH2 0x12AE JUMP JUMPDEST PUSH2 0x2FB SWAP1 PUSH2 0x14E3 PUSH2 0x13A4 PUSH2 0x139F PUSH1 0xE PUSH2 0x1329 JUMP JUMPDEST PUSH2 0x166A JUMP JUMPDEST SWAP2 PUSH1 0x0 NOT PUSH1 0x8 SWAP3 SWAP1 SWAP3 MUL SWAP2 DUP3 SHL SWAP2 SHL PUSH2 0xF90 JUMP JUMPDEST SWAP2 SWAP1 PUSH2 0x150D PUSH2 0x360 PUSH2 0xFB1 SWAP4 PUSH2 0x424 JUMP JUMPDEST SWAP1 DUP4 SLOAD PUSH2 0x14E8 JUMP JUMPDEST PUSH2 0x2FB SWAP2 PUSH1 0x0 SWAP2 PUSH2 0x14FC JUMP JUMPDEST DUP2 DUP2 LT PUSH2 0x152C JUMPI POP POP JUMP JUMPDEST DUP1 PUSH2 0x153A PUSH1 0x0 PUSH1 0x1 SWAP4 PUSH2 0x1515 JUMP JUMPDEST ADD PUSH2 0x1521 JUMP JUMPDEST SWAP2 SWAP1 PUSH1 0x1F DUP2 GT PUSH2 0x154F JUMPI POP POP POP JUMP JUMPDEST PUSH2 0x1561 PUSH2 0x2FB SWAP4 PUSH1 0x0 MSTORE PUSH1 0x20 PUSH1 0x0 KECCAK256 SWAP1 JUMP JUMPDEST SWAP1 PUSH1 0x20 PUSH1 0x1F DUP5 ADD DUP2 SWAP1 DIV DUP4 ADD SWAP4 LT PUSH2 0x1583 JUMPI JUMPDEST PUSH1 0x20 PUSH1 0x1F SWAP1 SWAP2 ADD DIV ADD SWAP1 PUSH2 0x1521 JUMP JUMPDEST SWAP1 SWAP2 POP DUP2 SWAP1 PUSH2 0x1574 JUMP JUMPDEST SWAP1 PUSH2 0x1596 DUP2 MLOAD SWAP1 JUMP JUMPDEST SWAP1 PUSH8 0xFFFFFFFFFFFFFFFF DUP3 GT PUSH2 0x670 JUMPI PUSH2 0x15BA DUP3 PUSH2 0x15B4 DUP6 SLOAD PUSH2 0xA4A JUMP JUMPDEST DUP6 PUSH2 0x1540 JUMP JUMPDEST PUSH1 0x20 SWAP1 PUSH1 0x1F DUP4 GT PUSH1 0x1 EQ PUSH2 0x15F5 JUMPI PUSH2 0xFB1 SWAP3 SWAP2 PUSH1 0x0 SWAP2 DUP4 PUSH2 0x15EA JUMPI JUMPDEST POP POP PUSH1 0x0 NOT PUSH1 0x8 DUP4 MUL SHR NOT AND SWAP1 PUSH1 0x2 MUL OR SWAP1 JUMP JUMPDEST ADD MLOAD SWAP1 POP CODESIZE DUP1 PUSH2 0x15D6 JUMP JUMPDEST PUSH1 0x1F NOT DUP4 AND SWAP2 PUSH2 0x160A DUP6 PUSH1 0x0 MSTORE PUSH1 0x20 PUSH1 0x0 KECCAK256 SWAP1 JUMP JUMPDEST SWAP3 PUSH1 0x0 JUMPDEST DUP2 DUP2 LT PUSH2 0x1648 JUMPI POP SWAP2 PUSH1 0x2 SWAP4 SWAP2 DUP6 PUSH1 0x1 SWAP7 SWAP5 LT PUSH2 0x162F JUMPI JUMPDEST POP POP POP MUL ADD SWAP1 SSTORE JUMP JUMPDEST ADD MLOAD PUSH1 0x0 NOT PUSH1 0x8 PUSH1 0x1F DUP6 AND MUL SHR NOT AND SWAP1 SSTORE CODESIZE DUP1 DUP1 PUSH2 0x1626 JUMP JUMPDEST SWAP2 SWAP4 PUSH1 0x20 PUSH1 0x1 DUP2 SWAP3 DUP8 DUP8 ADD MLOAD DUP2 SSTORE ADD SWAP6 ADD SWAP3 ADD PUSH2 0x160E JUMP JUMPDEST SWAP1 PUSH2 0x2FB SWAP2 PUSH2 0x158D JUMP JUMPDEST PUSH2 0x2FB SWAP1 PUSH1 0x12 PUSH2 0x1660 JUMP JUMPDEST PUSH2 0x2FB SWAP1 PUSH2 0x14CF JUMP JUMPDEST ISZERO PUSH2 0x1685 JUMPI JUMP JUMPDEST PUSH1 0x40 MLOAD PUSH3 0x461BCD PUSH1 0xE5 SHL DUP2 MSTORE PUSH1 0x20 PUSH1 0x4 DUP3 ADD MSTORE PUSH1 0x19 PUSH1 0x24 DUP3 ADD MSTORE PUSH32 0x537461727420696E646578206F7574206F6620626F756E647300000000000000 PUSH1 0x44 DUP3 ADD MSTORE PUSH1 0x64 SWAP1 REVERT JUMPDEST PUSH8 0xFFFFFFFFFFFFFFFF DUP2 GT PUSH2 0x670 JUMPI PUSH1 0x20 DUP1 SWAP2 MUL ADD SWAP1 JUMP JUMPDEST SWAP1 PUSH2 0x13FF PUSH2 0x6C2 DUP4 PUSH2 0x16CA JUMP JUMPDEST CALLDATASIZE SWAP1 CALLDATACOPY JUMP JUMPDEST SWAP1 PUSH2 0x2FB PUSH2 0x170A PUSH2 0x1704 DUP5 PUSH2 0x16E2 JUMP JUMPDEST SWAP4 PUSH2 0x16CA JUMP JUMPDEST PUSH1 0x1F NOT ADD PUSH1 0x20 DUP5 ADD PUSH2 0x16EF JUMP JUMPDEST SWAP1 PUSH2 0x1720 DUP3 MLOAD SWAP1 JUMP JUMPDEST DUP2 LT ISZERO PUSH2 0xC7A JUMPI PUSH1 0x20 DUP1 SWAP2 MUL ADD ADD SWAP1 JUMP JUMPDEST SWAP2 PUSH2 0x175E PUSH2 0x1756 PUSH1 0x10 SWAP4 PUSH2 0x1750 PUSH2 0x1749 PUSH2 0x360 DUP8 SLOAD SWAP1 JUMP JUMPDEST DUP8 LT PUSH2 0x167E JUMP JUMPDEST DUP6 PUSH2 0xF2B JUMP JUMPDEST DUP4 SLOAD SWAP1 PUSH2 0x2114 JUMP JUMPDEST SWAP2 PUSH2 0x1771 PUSH2 0x176C DUP6 DUP6 PUSH2 0x11B2 JUMP JUMPDEST PUSH2 0x16F4 JUMP JUMPDEST SWAP2 DUP5 JUMPDEST DUP5 JUMPDEST DUP2 LT ISZERO PUSH2 0x17B7 JUMPI PUSH2 0x17B0 DUP2 PUSH2 0x17AA PUSH2 0x1794 PUSH2 0xC97 PUSH2 0x1776 SWAP6 DUP9 PUSH2 0xC57 JUMP JUMPDEST PUSH2 0x17A7 PUSH2 0x17A1 DUP12 DUP6 PUSH2 0x11B2 JUMP JUMPDEST DUP10 PUSH2 0x1717 JUMP JUMPDEST MSTORE JUMP JUMPDEST PUSH1 0x1 ADD SWAP1 JUMP JUMPDEST SWAP1 POP PUSH2 0x1774 JUMP JUMPDEST POP SWAP4 POP POP SWAP1 POP SWAP1 JUMP JUMPDEST PUSH2 0x360 SWAP1 PUSH2 0x1E56 JUMP JUMPDEST PUSH1 0x0 PUSH2 0x17D4 DUP2 PUSH2 0x11F3 JUMP JUMPDEST PUSH2 0x17DD DUP2 PUSH2 0x39A JUMP JUMPDEST PUSH2 0x17E6 DUP5 PUSH2 0x39A JUMP JUMPDEST EQ PUSH2 0x17FB JUMPI POP POP PUSH2 0x12FD PUSH2 0x360 SWAP2 PUSH1 0x3 PUSH2 0x12C9 JUMP JUMPDEST PUSH4 0x22718AD9 PUSH1 0xE2 SHL DUP3 MSTORE DUP2 SWAP1 PUSH2 0xEC9 SWAP1 PUSH1 0x4 DUP4 ADD PUSH2 0x3C6 JUMP JUMPDEST PUSH2 0x181C PUSH2 0x2126 JUMP JUMPDEST PUSH2 0x2FB PUSH2 0x2FB PUSH2 0x182C PUSH1 0x0 PUSH2 0x11F3 JUMP JUMPDEST PUSH2 0x215D JUMP JUMPDEST PUSH2 0x2FB PUSH2 0x1814 JUMP JUMPDEST PUSH2 0x360 PUSH1 0xA PUSH2 0x1329 JUMP JUMPDEST PUSH2 0x360 PUSH1 0x1 PUSH2 0xE56 JUMP JUMPDEST PUSH2 0x2FB SWAP2 SWAP1 CALLER PUSH2 0x21D1 JUMP JUMPDEST PUSH2 0x1862 PUSH1 0x0 PUSH2 0x424 JUMP JUMPDEST DUP2 EQ PUSH2 0x18DE JUMPI PUSH2 0x360 SWAP1 PUSH2 0x1057 PUSH2 0x1879 PUSH1 0xB PUSH2 0xE0B JUMP JUMPDEST SWAP2 PUSH2 0x18A0 PUSH2 0x18C9 PUSH2 0x18BF PUSH2 0x18BF PUSH2 0x18CE PUSH2 0x18A6 PUSH2 0x1896 PUSH1 0xB PUSH2 0xE0B JUMP JUMPDEST PUSH2 0x18A0 PUSH1 0x2 PUSH2 0x424 JUMP JUMPDEST SWAP1 PUSH2 0xEE3 JUMP JUMPDEST PUSH2 0x18A0 PUSH2 0x18C9 PUSH2 0x18BF DUP10 PUSH2 0x18BA PUSH1 0x64 PUSH2 0x424 JUMP JUMPDEST PUSH2 0xEE3 JUMP JUMPDEST PUSH2 0x1023 PUSH1 0xC PUSH2 0xE0B JUMP JUMPDEST PUSH2 0x2295 JUMP JUMPDEST SWAP5 PUSH2 0x18BA DUP2 PUSH2 0x18BA PUSH2 0x2710 PUSH2 0x424 JUMP JUMPDEST POP PUSH2 0x360 PUSH1 0xB PUSH2 0xE0B JUMP JUMPDEST SWAP1 PUSH2 0x2FB SWAP4 SWAP3 SWAP2 PUSH2 0x18FB DUP4 DUP4 DUP4 PUSH2 0x122A JUMP JUMPDEST PUSH2 0x23EF JUMP JUMPDEST PUSH2 0x360 SWAP1 SLOAD PUSH2 0xA4A JUMP JUMPDEST DUP1 SLOAD PUSH1 0x0 SWAP4 SWAP3 SWAP2 PUSH2 0x1921 PUSH2 0x191D DUP4 PUSH2 0xA4A JUMP JUMPDEST SWAP4 SWAP1 JUMP JUMPDEST SWAP2 PUSH1 0x1 DUP2 AND SWAP1 DUP2 ISZERO PUSH2 0x1972 JUMPI POP PUSH1 0x1 EQ PUSH2 0x193A JUMPI POP POP POP JUMP JUMPDEST PUSH2 0x194D SWAP2 SWAP3 SWAP4 SWAP5 POP PUSH1 0x0 MSTORE PUSH1 0x20 PUSH1 0x0 KECCAK256 SWAP1 JUMP JUMPDEST PUSH1 0x0 SWAP1 JUMPDEST DUP4 DUP3 LT PUSH2 0x195E JUMPI POP POP ADD SWAP1 JUMP JUMPDEST PUSH1 0x1 DUP2 PUSH1 0x20 SWAP3 SLOAD DUP5 DUP7 ADD MSTORE ADD SWAP2 ADD SWAP1 PUSH2 0x1951 JUMP JUMPDEST PUSH1 0xFF NOT AND DUP4 MSTORE POP POP DUP2 ISZERO ISZERO SWAP1 SWAP2 MUL ADD SWAP2 POP JUMP JUMPDEST PUSH2 0x4E6 PUSH2 0x199D SWAP3 PUSH1 0x20 SWAP3 PUSH2 0x1997 DUP2 MLOAD SWAP1 JUMP JUMPDEST SWAP5 DUP6 SWAP3 SWAP1 JUMP JUMPDEST SWAP4 DUP5 SWAP2 ADD PUSH2 0x48F JUMP JUMPDEST SWAP2 PUSH1 0x1 PUSH2 0x19B8 PUSH1 0x5 SWAP5 PUSH2 0x19C6 SWAP5 PUSH2 0x190A JUMP JUMPDEST PUSH1 0x2F PUSH1 0xF8 SHL DUP2 MSTORE ADD SWAP1 PUSH2 0x1985 JUMP JUMPDEST PUSH5 0x173539B7B7 PUSH1 0xD9 SHL DUP2 MSTORE ADD SWAP1 JUMP JUMPDEST PUSH2 0x19F5 SWAP3 SWAP2 PUSH2 0x2FB SWAP2 PUSH2 0x19E7 PUSH1 0x40 MLOAD SWAP1 JUMP JUMPDEST SWAP5 DUP6 SWAP3 PUSH1 0x20 DUP5 ADD SWAP3 DUP4 PUSH2 0x19A6 JUMP JUMPDEST SWAP1 DUP2 SUB DUP3 MSTORE SUB DUP4 PUSH2 0x64E JUMP JUMPDEST PUSH2 0x1A0A DUP2 PUSH2 0x1E56 JUMP JUMPDEST POP PUSH2 0x1A15 PUSH1 0x12 PUSH2 0x1900 JUMP JUMPDEST PUSH2 0x1A22 PUSH2 0xF17 PUSH1 0x0 PUSH2 0x424 JUMP JUMPDEST GT ISZERO PUSH2 0x1A3B JUMPI PUSH2 0x1A34 PUSH2 0x360 SWAP2 PUSH2 0x2522 JUMP JUMPDEST PUSH1 0x12 PUSH2 0x19D5 JUMP JUMPDEST POP PUSH2 0x360 PUSH2 0x140E JUMP JUMPDEST PUSH2 0xC97 PUSH2 0x360 SWAP2 PUSH2 0x1A53 PUSH1 0x0 SWAP1 JUMP JUMPDEST POP PUSH1 0x10 PUSH2 0xC57 JUMP JUMPDEST ISZERO PUSH2 0x1A62 JUMPI JUMP JUMPDEST PUSH1 0x40 MLOAD PUSH3 0x461BCD PUSH1 0xE5 SHL DUP2 MSTORE PUSH1 0x20 PUSH1 0x4 DUP3 ADD MSTORE PUSH1 0x1F PUSH1 0x24 DUP3 ADD MSTORE PUSH32 0x546F6B656E206973206E6F7420617661696C61626C6520666F722073616C6500 PUSH1 0x44 DUP3 ADD MSTORE PUSH1 0x64 SWAP1 REVERT JUMPDEST PUSH2 0x2FB SWAP1 PUSH2 0x1AD2 PUSH2 0x1AB7 DUP3 PUSH2 0x17C0 JUMP JUMPDEST PUSH2 0x1ACC PUSH2 0x1AC6 PUSH2 0x139F ADDRESS PUSH2 0x8E7 JUMP JUMPDEST SWAP2 PUSH2 0x39A JUMP JUMPDEST EQ PUSH2 0x1A5B JUMP JUMPDEST PUSH2 0x10DE PUSH2 0x2FB SWAP2 PUSH2 0x1AE1 PUSH2 0xE15 JUMP JUMPDEST PUSH2 0x1AF1 PUSH2 0x1012 PUSH2 0x11DA PUSH1 0xD PUSH2 0xE0B JUMP JUMPDEST SWAP2 PUSH2 0x1B02 PUSH2 0x1039 PUSH2 0x360 DUP6 DUP6 PUSH2 0xF2B JUMP JUMPDEST PUSH2 0x1B16 DUP2 PUSH2 0x1B0F ADDRESS PUSH2 0x8E7 JUMP JUMPDEST CALLER SWAP1 PUSH2 0x25AF JUMP JUMPDEST PUSH2 0x1B1F DUP2 PUSH2 0x2672 JUMP JUMPDEST PUSH2 0x1B2F PUSH2 0x107D PUSH2 0x1078 PUSH1 0xF PUSH2 0xE0B JUMP JUMPDEST PUSH2 0x1B41 PUSH2 0x1B3B CALLER PUSH2 0x8E7 JUMP JUMPDEST SWAP2 PUSH2 0x424 JUMP JUMPDEST SWAP1 PUSH32 0x884543C08D36FB5C9B3B688DD0453C9F287199124BDBDDB3B7F9CA885A4D34A0 PUSH2 0x10C1 PUSH1 0x40 MLOAD SWAP1 JUMP JUMPDEST PUSH2 0x2FB SWAP1 PUSH2 0x1AA7 JUMP JUMPDEST ISZERO PUSH2 0x1B7C JUMPI JUMP JUMPDEST PUSH1 0x40 MLOAD PUSH3 0x461BCD PUSH1 0xE5 SHL DUP2 MSTORE PUSH1 0x20 PUSH1 0x4 DUP3 ADD MSTORE PUSH1 0x13 PUSH1 0x24 DUP3 ADD MSTORE PUSH19 0x21B0B63632B91034B9903737BA1037BBB732B9 PUSH1 0x69 SHL PUSH1 0x44 DUP3 ADD MSTORE PUSH1 0x64 SWAP1 REVERT JUMPDEST PUSH2 0x2FB SWAP1 PUSH2 0x1BD9 PUSH2 0x1BC7 DUP3 PUSH2 0x17C0 JUMP JUMPDEST PUSH2 0x1BD3 PUSH2 0x1AC6 CALLER PUSH2 0x39A JUMP JUMPDEST EQ PUSH2 0x1B75 JUMP JUMPDEST PUSH2 0x1C56 JUMP JUMPDEST DUP1 ISZERO PUSH2 0xEF6 JUMPI PUSH1 0x0 NOT ADD SWAP1 JUMP JUMPDEST RETURNDATASIZE ISZERO PUSH2 0x1C05 JUMPI PUSH2 0x1BFA RETURNDATASIZE PUSH2 0x13F2 JUMP JUMPDEST SWAP1 RETURNDATASIZE PUSH1 0x0 PUSH1 0x20 DUP5 ADD RETURNDATACOPY JUMP JUMPDEST PUSH1 0x60 SWAP1 JUMP JUMPDEST ISZERO PUSH2 0x1C11 JUMPI JUMP JUMPDEST PUSH1 0x40 MLOAD PUSH3 0x461BCD PUSH1 0xE5 SHL DUP2 MSTORE PUSH1 0x20 PUSH1 0x4 DUP3 ADD MSTORE PUSH1 0x19 PUSH1 0x24 DUP3 ADD MSTORE PUSH32 0x5472616E7366657220746F2073656C6C6572206661696C656400000000000000 PUSH1 0x44 DUP3 ADD MSTORE PUSH1 0x64 SWAP1 REVERT JUMPDEST PUSH2 0x2FB SWAP1 PUSH2 0x1D20 PUSH1 0x0 DUP1 PUSH2 0x1C68 PUSH2 0x142A JUMP JUMPDEST SWAP4 PUSH2 0x1D08 PUSH2 0x1C82 PUSH2 0x1012 PUSH2 0x1C7C PUSH1 0xD PUSH2 0xE0B JUMP JUMPDEST DUP9 PUSH2 0xEE3 JUMP JUMPDEST DUP1 SWAP7 PUSH2 0x1C8B CALLER SWAP1 JUMP JUMPDEST SWAP4 PUSH2 0x1C9F DUP2 PUSH2 0x1C99 ADDRESS PUSH2 0x8E7 JUMP JUMPDEST DUP8 PUSH2 0x25AF JUMP JUMPDEST PUSH2 0x1CA8 DUP2 PUSH2 0x2701 JUMP JUMPDEST PUSH2 0x1CBD PUSH2 0x107D PUSH2 0x1CB8 PUSH1 0xF PUSH2 0xE0B JUMP JUMPDEST PUSH2 0x1BDE JUMP JUMPDEST PUSH2 0x1CC9 PUSH2 0x1B3B DUP7 PUSH2 0x8E7 JUMP JUMPDEST SWAP1 PUSH32 0x8323BEBB324B6E1A1D4886A1F210640461BB275263DAE69967F001D053AB0B2B PUSH2 0x1CF4 PUSH1 0x40 MLOAD SWAP1 JUMP JUMPDEST DUP1 PUSH2 0x1D00 DUP8 DUP8 DUP4 PUSH2 0xFB5 JUMP JUMPDEST SUB SWAP1 LOG3 PUSH2 0x11B2 JUMP JUMPDEST PUSH1 0x40 MLOAD SWAP1 DUP2 DUP1 SUB SWAP3 GAS CALL PUSH2 0x1D1A PUSH2 0x1BEB JUMP JUMPDEST POP PUSH2 0x1C0A JUMP JUMPDEST PUSH2 0x1F96 JUMP JUMPDEST PUSH2 0x2FB SWAP1 PUSH2 0x1BB7 JUMP JUMPDEST PUSH2 0x1D3A SWAP1 PUSH1 0x10 SWAP3 PUSH2 0x190A JUMP JUMPDEST PUSH16 0x17B1B7B63632B1BA34B7B7173539B7B7 PUSH1 0x81 SHL DUP2 MSTORE ADD SWAP1 JUMP JUMPDEST SWAP1 PUSH2 0x2FB PUSH2 0x1D61 PUSH1 0x40 MLOAD SWAP1 JUMP JUMPDEST DUP1 SWAP4 PUSH2 0x19F5 PUSH1 0x20 DUP4 ADD SWAP2 DUP3 PUSH2 0x1D2E JUMP JUMPDEST PUSH2 0x1D7B PUSH1 0x12 PUSH2 0x1900 JUMP JUMPDEST PUSH2 0x1D88 PUSH2 0xF17 PUSH1 0x0 PUSH2 0x424 JUMP JUMPDEST GT ISZERO PUSH2 0x1D98 JUMPI PUSH2 0x360 PUSH1 0x12 PUSH2 0x1D54 JUMP JUMPDEST PUSH2 0x360 PUSH2 0x140E JUMP JUMPDEST PUSH2 0x360 SWAP1 JUMPDEST PUSH1 0xFF AND SWAP1 JUMP JUMPDEST PUSH2 0x360 SWAP1 SLOAD PUSH2 0x1DA0 JUMP JUMPDEST PUSH2 0x360 SWAP2 PUSH2 0x1DD0 PUSH2 0x1DD5 SWAP3 PUSH2 0x1DC8 PUSH1 0x0 SWAP1 JUMP JUMPDEST POP PUSH1 0x5 PUSH2 0x12C9 JUMP JUMPDEST PUSH2 0x12C9 JUMP JUMPDEST PUSH2 0x1DAB JUMP JUMPDEST PUSH2 0x1DE3 SWAP1 PUSH2 0x17C0 JUMP JUMPDEST PUSH2 0xE52 PUSH2 0x1AC6 PUSH2 0x139F ADDRESS PUSH2 0x8E7 JUMP JUMPDEST PUSH2 0x2FB SWAP1 PUSH2 0x1DFE PUSH2 0x2126 JUMP JUMPDEST PUSH1 0x0 PUSH2 0x1E09 DUP2 PUSH2 0x11F3 JUMP JUMPDEST PUSH2 0x1E12 DUP2 PUSH2 0x39A JUMP JUMPDEST PUSH2 0x1E1B DUP5 PUSH2 0x39A JUMP JUMPDEST EQ PUSH2 0x1E2B JUMPI POP POP PUSH2 0x2FB SWAP1 PUSH2 0x215D JUMP JUMPDEST PUSH4 0x1E4FBDF7 PUSH1 0xE0 SHL DUP3 MSTORE DUP2 SWAP1 PUSH2 0xEC9 SWAP1 PUSH1 0x4 DUP4 ADD PUSH2 0x3C6 JUMP JUMPDEST PUSH2 0x2FB SWAP1 PUSH2 0x1DF2 JUMP JUMPDEST PUSH2 0x360 SWAP1 PUSH2 0x2727 JUMP JUMPDEST PUSH2 0x1E5F DUP2 PUSH2 0x2750 JUMP JUMPDEST SWAP1 PUSH1 0x0 SWAP1 PUSH2 0x1E6F PUSH2 0x139F DUP4 PUSH2 0x11F3 JUMP JUMPDEST PUSH2 0x1E78 DUP5 PUSH2 0x39A JUMP JUMPDEST EQ PUSH2 0x1E82 JUMPI POP POP SWAP1 JUMP JUMPDEST PUSH4 0x7E273289 PUSH1 0xE0 SHL DUP3 MSTORE PUSH1 0x4 DUP3 ADD MSTORE PUSH1 0x24 SWAP1 REVERT JUMPDEST PUSH2 0x1EAD PUSH2 0x360 SWAP2 PUSH2 0x1EA5 PUSH1 0x0 SWAP1 JUMP JUMPDEST POP PUSH1 0x4 PUSH2 0x431 JUMP JUMPDEST PUSH2 0x1329 JUMP JUMPDEST SWAP2 PUSH1 0x1 SWAP2 PUSH2 0x2FB SWAP4 PUSH2 0x2767 JUMP JUMPDEST PUSH2 0x2FB SWAP2 PUSH2 0x1ECB PUSH2 0x140E JUMP JUMPDEST SWAP2 PUSH2 0x2893 JUMP JUMPDEST SWAP1 POP MLOAD SWAP1 PUSH2 0x2FB DUP3 PUSH2 0x3FD JUMP JUMPDEST SWAP1 PUSH1 0x20 DUP3 DUP3 SUB SLT PUSH2 0x2F2 JUMPI PUSH2 0x360 SWAP2 PUSH2 0x1ED1 JUMP JUMPDEST PUSH1 0x40 MLOAD RETURNDATASIZE PUSH1 0x0 DUP3 RETURNDATACOPY RETURNDATASIZE SWAP1 REVERT JUMPDEST ISZERO PUSH2 0x1F05 JUMPI JUMP JUMPDEST PUSH1 0x40 MLOAD PUSH3 0x461BCD PUSH1 0xE5 SHL DUP2 MSTORE PUSH1 0x20 PUSH1 0x4 DUP3 ADD MSTORE PUSH1 0x1E PUSH1 0x24 DUP3 ADD MSTORE PUSH32 0x5472616E736665722066656520746F2063726561746F72206661696C65640000 PUSH1 0x44 DUP3 ADD MSTORE PUSH1 0x64 SWAP1 REVERT JUMPDEST ISZERO PUSH2 0x1F51 JUMPI JUMP JUMPDEST PUSH1 0x40 MLOAD PUSH3 0x461BCD PUSH1 0xE5 SHL DUP2 MSTORE PUSH1 0x20 PUSH1 0x4 DUP3 ADD MSTORE PUSH1 0x1F PUSH1 0x24 DUP3 ADD MSTORE PUSH32 0x5472616E736665722066656520746F2070726F746F636F6C206661696C656400 PUSH1 0x44 DUP3 ADD MSTORE PUSH1 0x64 SWAP1 REVERT JUMPDEST PUSH2 0x1FA8 PUSH2 0x1FA3 PUSH1 0x13 PUSH2 0x1329 JUMP JUMPDEST PUSH2 0x8E7 JUMP JUMPDEST PUSH1 0x20 PUSH2 0x1FB3 PUSH1 0x40 MLOAD SWAP1 JUMP JUMPDEST PUSH4 0x2982DE0D PUSH1 0xE0 SHL DUP2 MSTORE SWAP2 DUP3 SWAP1 PUSH1 0x4 SWAP1 DUP3 SWAP1 GAS STATICCALL SWAP1 DUP2 ISZERO PUSH2 0x207E JUMPI PUSH2 0x2FB SWAP3 PUSH2 0x2023 PUSH1 0x0 DUP1 PUSH2 0x1FFA PUSH2 0x1FF3 PUSH2 0x1012 DUP4 SWAP9 DUP5 SWAP9 DUP6 SWAP2 PUSH2 0x204F JUMPI JUMPDEST POP DUP8 PUSH2 0xEE3 JUMP JUMPDEST DUP1 SWAP6 PUSH2 0x11B2 JUMP JUMPDEST PUSH2 0x2004 PUSH1 0xE PUSH2 0x1329 JUMP JUMPDEST SWAP1 PUSH2 0x200E PUSH1 0x40 MLOAD SWAP1 JUMP JUMPDEST SWAP1 DUP2 DUP1 SUB SWAP3 GAS CALL PUSH2 0x201D PUSH2 0x1BEB JUMP JUMPDEST POP PUSH2 0x1EFE JUMP JUMPDEST PUSH2 0x2030 PUSH2 0x1FA3 PUSH1 0x13 PUSH2 0x1329 JUMP JUMPDEST SWAP1 PUSH2 0x203A PUSH1 0x40 MLOAD SWAP1 JUMP JUMPDEST SWAP1 DUP2 DUP1 SUB SWAP3 GAS CALL PUSH2 0x2049 PUSH2 0x1BEB JUMP JUMPDEST POP PUSH2 0x1F4A JUMP JUMPDEST PUSH2 0x2071 SWAP2 POP PUSH1 0x20 RETURNDATASIZE PUSH1 0x20 GT PUSH2 0x2077 JUMPI JUMPDEST PUSH2 0x2069 DUP2 DUP4 PUSH2 0x64E JUMP JUMPDEST DUP2 ADD SWAP1 PUSH2 0x1EDE JUMP JUMPDEST CODESIZE PUSH2 0x1FEC JUMP JUMPDEST POP RETURNDATASIZE PUSH2 0x205F JUMP JUMPDEST PUSH2 0x1EF2 JUMP JUMPDEST ISZERO PUSH2 0x208A JUMPI JUMP JUMPDEST PUSH1 0x40 MLOAD PUSH3 0x461BCD PUSH1 0xE5 SHL DUP2 MSTORE PUSH1 0x20 PUSH1 0x4 DUP3 ADD MSTORE PUSH1 0xD PUSH1 0x24 DUP3 ADD MSTORE PUSH13 0x1499599D5B990819985A5B1959 PUSH1 0x9A SHL PUSH1 0x44 DUP3 ADD MSTORE PUSH1 0x64 SWAP1 REVERT JUMPDEST PUSH2 0x20C9 SWAP1 CALLVALUE PUSH2 0x11B2 JUMP JUMPDEST PUSH2 0x20D3 PUSH1 0x0 PUSH2 0x424 JUMP JUMPDEST DUP2 GT PUSH2 0x20DC JUMPI POP JUMP JUMPDEST PUSH1 0x0 DUP1 PUSH2 0x2FB SWAP3 PUSH2 0x20EA CALLER SWAP1 JUMP JUMPDEST SWAP1 PUSH2 0x20F4 PUSH1 0x40 MLOAD SWAP1 JUMP JUMPDEST SWAP1 DUP2 DUP1 SUB SWAP3 GAS CALL PUSH2 0x2103 PUSH2 0x1BEB JUMP JUMPDEST POP PUSH2 0x2083 JUMP JUMPDEST PUSH2 0x360 SWAP3 SWAP2 SWAP1 PUSH2 0x28AD JUMP JUMPDEST SWAP1 DUP1 DUP3 LT ISZERO PUSH2 0x2121 JUMPI POP SWAP1 JUMP JUMPDEST SWAP1 POP SWAP1 JUMP JUMPDEST PUSH2 0x212E PUSH2 0x1839 JUMP JUMPDEST CALLER SWAP1 PUSH2 0x213C PUSH2 0x1AC6 DUP4 PUSH2 0x39A JUMP JUMPDEST SUB PUSH2 0x2144 JUMPI POP JUMP JUMPDEST PUSH4 0x118CDAA7 PUSH1 0xE0 SHL PUSH1 0x0 SWAP1 DUP2 MSTORE SWAP1 PUSH2 0x131B SWAP1 PUSH1 0x4 PUSH2 0x3C6 JUMP JUMPDEST PUSH2 0x217E PUSH2 0x2178 PUSH2 0x216D PUSH1 0xA PUSH2 0x1329 JUMP JUMPDEST PUSH2 0x1FA3 DUP5 PUSH1 0xA PUSH2 0x13C7 JUMP JUMPDEST SWAP2 PUSH2 0x8E7 JUMP JUMPDEST SWAP1 PUSH32 0x8BE0079C531659141344CD1FD0A4F28419497F9722A3DAAFE3B4186F6B6457E0 PUSH2 0x21A9 PUSH1 0x40 MLOAD SWAP1 JUMP JUMPDEST DUP1 DUP1 JUMPDEST SUB SWAP1 LOG3 JUMP JUMPDEST SWAP1 PUSH1 0xFF SWAP1 PUSH2 0xF90 JUMP JUMPDEST SWAP1 PUSH2 0x21CA PUSH2 0x360 PUSH2 0xFB1 SWAP3 ISZERO ISZERO SWAP1 JUMP JUMPDEST DUP3 SLOAD PUSH2 0x21B1 JUMP JUMPDEST PUSH1 0x0 PUSH2 0x21DF PUSH2 0x139F DUP3 PUSH2 0x11F3 JUMP JUMPDEST PUSH2 0x21E8 DUP5 PUSH2 0x39A JUMP JUMPDEST EQ PUSH2 0x2241 JUMPI POP PUSH2 0x21AC PUSH2 0x2237 PUSH2 0x2231 DUP4 PUSH2 0x1FA3 DUP8 PUSH2 0x222C DUP9 PUSH2 0x1DD0 PUSH32 0x17307EAB39AB6107E8899845AD3D59BD9653F200F220920489CA2B5937696C31 SWAP10 PUSH1 0x5 PUSH2 0x12C9 JUMP JUMPDEST PUSH2 0x21BA JUMP JUMPDEST SWAP4 PUSH2 0x8E7 JUMP JUMPDEST SWAP4 PUSH2 0x382 PUSH1 0x40 MLOAD SWAP1 JUMP JUMPDEST PUSH4 0xB611743 PUSH1 0xE3 SHL DUP2 MSTORE DUP1 PUSH2 0xEC9 DUP5 PUSH1 0x4 DUP4 ADD PUSH2 0x3C6 JUMP JUMPDEST PUSH2 0x1DA5 PUSH2 0x360 PUSH2 0x360 SWAP3 SWAP1 JUMP JUMPDEST PUSH2 0x360 SWAP1 PUSH2 0x227A PUSH2 0xF17 PUSH2 0x360 SWAP5 PUSH1 0xFF AND SWAP1 JUMP JUMPDEST SWAP1 SHR SWAP1 JUMP JUMPDEST PUSH2 0x360 SWAP1 PUSH2 0x2290 PUSH2 0xF17 PUSH2 0x360 SWAP5 SWAP1 JUMP JUMPDEST SWAP1 SHL SWAP1 JUMP JUMPDEST PUSH2 0x229F PUSH1 0x0 PUSH2 0x424 JUMP JUMPDEST DUP2 EQ PUSH2 0x2385 JUMPI PUSH1 0x1 PUSH2 0x22B0 DUP3 PUSH2 0x2946 JUMP JUMPDEST PUSH2 0x22B9 DUP3 PUSH2 0x2259 JUMP JUMPDEST DUP1 DUP1 DUP1 DUP1 DUP1 SWAP7 PUSH2 0x22CA DUP3 DUP1 SWAP9 PUSH2 0x2266 JUMP JUMPDEST SWAP1 PUSH2 0x22D4 SWAP1 PUSH2 0x424 JUMP JUMPDEST SWAP1 PUSH2 0x22DE SWAP2 PUSH2 0x227F JUMP JUMPDEST PUSH2 0x22E8 DUP2 DUP11 PUSH2 0xF11 JUMP JUMPDEST ADD SWAP1 PUSH2 0x22F3 SWAP2 PUSH2 0x2266 JUMP JUMPDEST PUSH2 0x22FD DUP2 DUP10 PUSH2 0xF11 JUMP JUMPDEST ADD SWAP1 PUSH2 0x2308 SWAP2 PUSH2 0x2266 JUMP JUMPDEST PUSH2 0x2312 DUP2 DUP9 PUSH2 0xF11 JUMP JUMPDEST ADD SWAP1 PUSH2 0x231D SWAP2 PUSH2 0x2266 JUMP JUMPDEST PUSH2 0x2327 DUP2 DUP8 PUSH2 0xF11 JUMP JUMPDEST ADD SWAP1 PUSH2 0x2332 SWAP2 PUSH2 0x2266 JUMP JUMPDEST PUSH2 0x233C DUP2 DUP7 PUSH2 0xF11 JUMP JUMPDEST ADD SWAP1 PUSH2 0x2347 SWAP2 PUSH2 0x2266 JUMP JUMPDEST PUSH2 0x2351 DUP2 DUP6 PUSH2 0xF11 JUMP JUMPDEST ADD SWAP1 PUSH2 0x235C SWAP2 PUSH2 0x2266 JUMP JUMPDEST PUSH2 0x2366 DUP2 DUP5 PUSH2 0xF11 JUMP JUMPDEST ADD SWAP1 PUSH2 0x2371 SWAP2 PUSH2 0x2266 JUMP JUMPDEST SWAP1 DUP2 PUSH2 0x237C SWAP2 PUSH2 0xF11 JUMP JUMPDEST PUSH2 0x360 SWAP2 PUSH2 0x2114 JUMP JUMPDEST POP PUSH2 0x360 PUSH1 0x0 PUSH2 0x424 JUMP JUMPDEST SWAP1 POP MLOAD SWAP1 PUSH2 0x2FB DUP3 PUSH2 0x32C JUMP JUMPDEST SWAP1 PUSH1 0x20 DUP3 DUP3 SUB SLT PUSH2 0x2F2 JUMPI PUSH2 0x360 SWAP2 PUSH2 0x2390 JUMP JUMPDEST SWAP1 SWAP3 PUSH2 0x23E2 SWAP1 PUSH2 0x23DB PUSH2 0x360 SWAP7 SWAP5 PUSH2 0x23D1 PUSH1 0x80 DUP7 ADD SWAP8 PUSH1 0x0 DUP8 ADD SWAP1 PUSH2 0x3BD JUMP JUMPDEST PUSH1 0x20 DUP6 ADD SWAP1 PUSH2 0x3BD JUMP JUMPDEST PUSH1 0x40 DUP4 ADD MSTORE JUMP JUMPDEST PUSH1 0x60 DUP2 DUP5 SUB SWAP2 ADD MSTORE PUSH2 0x4B2 JUMP JUMPDEST PUSH1 0x0 SWAP4 SWAP2 SWAP3 DUP4 EXTCODESIZE PUSH2 0x2402 PUSH2 0xF17 DUP8 PUSH2 0x424 JUMP JUMPDEST GT PUSH2 0x240F JUMPI JUMPDEST POP POP POP POP POP JUMP JUMPDEST PUSH1 0x20 SWAP2 PUSH2 0x241E PUSH2 0x1FA3 DUP7 PUSH2 0x8E7 JUMP JUMPDEST SWAP1 DUP7 CALLER PUSH2 0x2447 PUSH2 0x242D PUSH1 0x40 MLOAD SWAP1 JUMP JUMPDEST SWAP8 DUP9 SWAP7 DUP8 SWAP6 DUP7 SWAP5 PUSH4 0xA85BD01 PUSH1 0xE1 SHL DUP7 MSTORE PUSH1 0x4 DUP7 ADD PUSH2 0x23B1 JUMP JUMPDEST SUB SWAP3 GAS CALL PUSH1 0x0 SWAP2 DUP2 PUSH2 0x24DB JUMPI JUMPDEST POP PUSH2 0x24A6 JUMPI POP PUSH2 0x2469 JUMP JUMPDEST CODESIZE DUP1 DUP1 DUP1 DUP1 PUSH2 0x2408 JUMP JUMPDEST PUSH2 0x2471 PUSH2 0x1BEB JUMP JUMPDEST DUP1 MLOAD PUSH2 0x247F PUSH2 0xF17 DUP6 PUSH2 0x424 JUMP JUMPDEST SUB PUSH2 0x249E JUMPI POP PUSH4 0x32505749 PUSH1 0xE1 SHL DUP3 MSTORE DUP2 SWAP1 PUSH2 0xEC9 SWAP1 PUSH1 0x4 DUP4 ADD PUSH2 0x3C6 JUMP JUMPDEST DUP1 MLOAD SWAP1 PUSH1 0x20 ADD REVERT JUMPDEST PUSH2 0x24B6 PUSH4 0xA85BD01 PUSH1 0xE1 SHL PUSH2 0xE44 JUMP JUMPDEST SUB PUSH2 0x24C2 JUMPI POP POP PUSH2 0x245F JUMP JUMPDEST PUSH4 0x32505749 PUSH1 0xE1 SHL DUP3 MSTORE DUP2 SWAP1 PUSH2 0xEC9 SWAP1 PUSH1 0x4 DUP4 ADD PUSH2 0x3C6 JUMP JUMPDEST PUSH2 0x24FE SWAP2 SWAP3 POP PUSH1 0x20 RETURNDATASIZE PUSH1 0x20 GT PUSH2 0x2505 JUMPI JUMPDEST PUSH2 0x24F6 DUP2 DUP4 PUSH2 0x64E JUMP JUMPDEST DUP2 ADD SWAP1 PUSH2 0x239D JUMP JUMPDEST SWAP1 CODESIZE PUSH2 0x2454 JUMP JUMPDEST POP RETURNDATASIZE PUSH2 0x24EC JUMP JUMPDEST SWAP1 PUSH2 0x2FB PUSH2 0x170A PUSH2 0x251C DUP5 PUSH2 0x13F2 JUMP JUMPDEST SWAP4 PUSH2 0x689 JUMP JUMPDEST PUSH2 0x252B DUP2 PUSH2 0x2AF8 JUMP JUMPDEST SWAP1 PUSH2 0x253C PUSH1 0x1 SWAP3 PUSH2 0x4E6 PUSH1 0x1 PUSH2 0x424 JUMP JUMPDEST SWAP2 DUP1 PUSH2 0x2547 DUP5 PUSH2 0x250C JUMP JUMPDEST SWAP4 PUSH1 0x20 ADD DUP5 ADD SWAP1 JUMPDEST PUSH2 0x255A JUMPI JUMPDEST POP POP POP SWAP1 JUMP JUMPDEST DUP2 ISZERO PUSH2 0x25AA JUMPI PUSH2 0x258E SWAP1 PUSH1 0x0 NOT ADD SWAP3 PUSH16 0x181899199A1A9B1B9C1CB0B131B232B3 PUSH1 0x81 SHL PUSH1 0xA DUP3 MOD BYTE DUP5 MSTORE8 PUSH2 0x1023 PUSH1 0xA PUSH2 0x424 JUMP JUMPDEST SWAP1 DUP2 PUSH2 0x259D PUSH2 0xF17 PUSH1 0x0 PUSH2 0x424 JUMP JUMPDEST EQ PUSH2 0x25AA JUMPI SWAP1 SWAP2 DUP2 PUSH2 0x254F JUMP JUMPDEST PUSH2 0x2554 JUMP JUMPDEST SWAP2 SWAP3 SWAP1 PUSH1 0x0 SWAP3 PUSH2 0x25BE DUP5 PUSH2 0x11F3 JUMP JUMPDEST SWAP2 PUSH2 0x25C8 DUP4 PUSH2 0x39A JUMP JUMPDEST PUSH2 0x25D1 DUP3 PUSH2 0x39A JUMP JUMPDEST EQ PUSH2 0x261B JUMPI PUSH2 0x25E4 DUP4 DUP8 PUSH2 0x25EA SWAP4 PUSH2 0x2109 JUMP JUMPDEST SWAP3 PUSH2 0x39A JUMP JUMPDEST PUSH2 0x25F3 DUP4 PUSH2 0x39A JUMP JUMPDEST SUB PUSH2 0x260E JUMPI PUSH4 0x7E273289 PUSH1 0xE0 SHL DUP5 MSTORE PUSH1 0x4 DUP5 ADD DUP6 SWAP1 MSTORE PUSH1 0x24 DUP5 REVERT JUMPDEST PUSH2 0x1266 DUP2 SWAP6 SWAP3 SWAP4 SWAP6 PUSH2 0x39A JUMP JUMPDEST PUSH4 0x32505749 PUSH1 0xE1 SHL DUP6 MSTORE DUP5 DUP1 PUSH2 0xEC9 DUP6 PUSH1 0x4 DUP4 ADD PUSH2 0x3C6 JUMP JUMPDEST PUSH4 0x4E487B71 PUSH1 0xE0 SHL PUSH1 0x0 MSTORE PUSH1 0x31 PUSH1 0x4 MSTORE PUSH1 0x24 PUSH1 0x0 REVERT JUMPDEST DUP1 SLOAD DUP1 ISZERO PUSH2 0x266D JUMPI PUSH1 0x0 NOT ADD SWAP1 PUSH2 0x266A PUSH2 0x2664 DUP4 DUP4 PUSH2 0xC57 JUMP JUMPDEST SWAP1 PUSH2 0x1515 JUMP JUMPDEST SSTORE JUMP JUMPDEST PUSH2 0x2634 JUMP JUMPDEST PUSH1 0x0 PUSH2 0x26D4 PUSH2 0x2FB SWAP3 PUSH1 0x11 PUSH2 0x12F8 PUSH2 0x26CF PUSH2 0x2690 PUSH2 0x12FD DUP6 DUP6 PUSH2 0x431 JUMP JUMPDEST PUSH2 0x360 PUSH1 0x10 SWAP2 PUSH2 0x26CA PUSH2 0x26B0 PUSH2 0xC97 PUSH2 0x26AA PUSH2 0x1457 DUP8 SLOAD SWAP1 JUMP JUMPDEST DUP7 PUSH2 0xC57 JUMP JUMPDEST PUSH2 0x26C4 DUP2 PUSH2 0x26BE DUP6 DUP9 PUSH2 0xC57 JUMP JUMPDEST SWAP1 PUSH2 0x14FC JUMP JUMPDEST DUP8 PUSH2 0x431 JUMP JUMPDEST PUSH2 0xF9A JUMP JUMPDEST PUSH2 0x264A JUMP JUMPDEST PUSH2 0x1515 JUMP JUMPDEST SWAP1 DUP2 SLOAD SWAP2 PUSH9 0x10000000000000000 DUP4 LT ISZERO PUSH2 0x670 JUMPI DUP3 PUSH2 0x26BE SWAP2 PUSH1 0x1 PUSH2 0x2FB SWAP6 ADD DUP2 SSTORE PUSH2 0xC57 JUMP JUMPDEST PUSH2 0x2FB SWAP1 PUSH2 0x2710 DUP2 PUSH1 0x10 PUSH2 0x26D9 JUMP JUMPDEST PUSH2 0x26CA PUSH2 0x271F PUSH2 0x1457 PUSH1 0x10 SLOAD SWAP1 JUMP JUMPDEST SWAP2 PUSH1 0x11 PUSH2 0x431 JUMP JUMPDEST PUSH4 0x780E9D63 PUSH1 0xE0 SHL PUSH1 0x1 PUSH1 0x1 PUSH1 0xE0 SHL SUB NOT DUP3 AND EQ SWAP1 DUP2 ISZERO PUSH2 0x2746 JUMPI POP SWAP1 JUMP JUMPDEST PUSH2 0x360 SWAP2 POP PUSH2 0x2C8C JUMP JUMPDEST PUSH2 0x1EAD PUSH2 0x360 SWAP2 PUSH2 0x275F PUSH1 0x0 SWAP1 JUMP JUMPDEST POP PUSH1 0x2 PUSH2 0x431 JUMP JUMPDEST SWAP3 SWAP2 SWAP1 SWAP2 DUP1 DUP2 ISZERO PUSH2 0x2875 JUMPI JUMPDEST PUSH2 0x278E JUMPI JUMPDEST POP POP SWAP1 PUSH2 0x2789 PUSH2 0x2FB SWAP3 PUSH1 0x4 PUSH2 0x431 JUMP JUMPDEST PUSH2 0x13C7 JUMP JUMPDEST PUSH2 0x2797 DUP4 PUSH2 0x1E56 JUMP JUMPDEST SWAP2 PUSH1 0x0 SWAP1 PUSH2 0x27A7 PUSH2 0x139F DUP4 PUSH2 0x11F3 JUMP JUMPDEST PUSH2 0x27B0 DUP3 PUSH2 0x39A JUMP JUMPDEST EQ ISZERO DUP1 PUSH2 0x285B JUMPI JUMPDEST DUP1 PUSH2 0x2844 JUMPI JUMPDEST PUSH2 0x282B JUMPI POP POP SWAP2 PUSH2 0x2789 SWAP2 PUSH2 0x2FB SWAP5 SWAP4 PUSH2 0x27DB JUMPI JUMPDEST POP SWAP2 SWAP3 PUSH2 0x2778 JUMP JUMPDEST PUSH2 0x27E4 SWAP1 PUSH2 0x8E7 JUMP JUMPDEST PUSH2 0x27ED DUP5 PUSH2 0x8E7 JUMP JUMPDEST PUSH2 0x27F6 DUP4 PUSH2 0x424 JUMP JUMPDEST SWAP2 PUSH32 0x8C5BE1E5EBEC7D5BD14F71427D1E84F3DD0314C0F7B2291E5B200AC8C7C3B925 PUSH2 0x2821 PUSH1 0x40 MLOAD SWAP1 JUMP JUMPDEST PUSH1 0x0 SWAP1 LOG4 CODESIZE PUSH2 0x27D3 JUMP JUMPDEST PUSH4 0xA9FBF51F PUSH1 0xE0 SHL DUP3 MSTORE DUP2 SWAP1 PUSH2 0xEC9 SWAP1 PUSH1 0x4 DUP4 ADD PUSH2 0x3C6 JUMP JUMPDEST POP PUSH2 0x2856 PUSH2 0x2852 DUP3 DUP7 PUSH2 0x1DB5 JUMP JUMPDEST ISZERO SWAP1 JUMP JUMPDEST PUSH2 0x27BE JUMP JUMPDEST POP PUSH2 0x2865 DUP2 PUSH2 0x39A JUMP JUMPDEST PUSH2 0x286E DUP6 PUSH2 0x39A JUMP JUMPDEST EQ ISZERO PUSH2 0x27B8 JUMP JUMPDEST POP PUSH2 0x2883 PUSH2 0x139F PUSH1 0x0 PUSH2 0x11F3 JUMP JUMPDEST PUSH2 0x288C DUP4 PUSH2 0x39A JUMP JUMPDEST EQ ISZERO PUSH2 0x2773 JUMP JUMPDEST SWAP1 PUSH2 0x2FB SWAP3 SWAP2 PUSH2 0x28A3 DUP3 DUP3 PUSH2 0x2CD7 JUMP JUMPDEST PUSH2 0x18FB PUSH1 0x0 PUSH2 0x11F3 JUMP JUMPDEST SWAP1 SWAP2 PUSH2 0x28BA SWAP1 DUP4 DUP4 PUSH2 0x2D4D JUMP JUMPDEST SWAP2 PUSH2 0x28E8 PUSH2 0x28C8 PUSH1 0x0 PUSH2 0x11F3 JUMP JUMPDEST PUSH2 0x28D1 DUP2 PUSH2 0x39A JUMP JUMPDEST PUSH2 0x28DA DUP7 PUSH2 0x39A JUMP JUMPDEST SUB PUSH2 0x2925 JUMPI PUSH2 0x139F DUP4 PUSH2 0x2EFC JUMP JUMPDEST PUSH2 0x28F1 DUP4 PUSH2 0x39A JUMP JUMPDEST SUB PUSH2 0x2900 JUMPI PUSH2 0x360 SWAP2 POP PUSH2 0x2F4D JUMP JUMPDEST PUSH2 0x2909 DUP3 PUSH2 0x39A JUMP JUMPDEST PUSH2 0x2912 DUP5 PUSH2 0x39A JUMP JUMPDEST SUB PUSH2 0x291C JUMPI POP POP SWAP1 JUMP JUMPDEST PUSH2 0x360 SWAP2 PUSH2 0x2F1E JUMP JUMPDEST PUSH2 0x292E DUP5 PUSH2 0x39A JUMP JUMPDEST PUSH2 0x2937 DUP7 PUSH2 0x39A JUMP JUMPDEST EQ PUSH2 0x39A JUMPI PUSH2 0x139F DUP4 DUP7 PUSH2 0x2E7B JUMP JUMPDEST PUSH1 0x0 PUSH2 0x2A41 PUSH2 0xF17 PUSH2 0x2A3B PUSH2 0x295A DUP5 PUSH2 0x424 JUMP JUMPDEST SWAP5 PUSH2 0x296E PUSH2 0x2968 PUSH1 0x80 PUSH2 0x2259 JUMP JUMPDEST DUP3 PUSH2 0x2266 JUMP JUMPDEST DUP7 DUP2 GT PUSH2 0x2AE1 JUMPI JUMPDEST POP PUSH2 0x2984 PUSH2 0x2968 PUSH1 0x40 PUSH2 0x2259 JUMP JUMPDEST PUSH2 0x298D DUP7 PUSH2 0x424 JUMP JUMPDEST DUP2 GT PUSH2 0x2ACA JUMPI JUMPDEST POP PUSH2 0x29A2 PUSH2 0x2968 PUSH1 0x20 PUSH2 0x2259 JUMP JUMPDEST PUSH2 0x29AB DUP7 PUSH2 0x424 JUMP JUMPDEST DUP2 GT PUSH2 0x2AB3 JUMPI JUMPDEST POP PUSH2 0x29C0 PUSH2 0x2968 PUSH1 0x10 PUSH2 0x2259 JUMP JUMPDEST PUSH2 0x29C9 DUP7 PUSH2 0x424 JUMP JUMPDEST DUP2 GT PUSH2 0x2A9C JUMPI JUMPDEST POP PUSH2 0x29DE PUSH2 0x2968 PUSH1 0x8 PUSH2 0x2259 JUMP JUMPDEST PUSH2 0x29E7 DUP7 PUSH2 0x424 JUMP JUMPDEST DUP2 GT PUSH2 0x2A85 JUMPI JUMPDEST POP PUSH2 0x29FC PUSH2 0x2968 PUSH1 0x4 PUSH2 0x2259 JUMP JUMPDEST PUSH2 0x2A05 DUP7 PUSH2 0x424 JUMP JUMPDEST DUP2 GT PUSH2 0x2A6E JUMPI JUMPDEST POP PUSH2 0x2A1A PUSH2 0x2968 PUSH1 0x2 PUSH2 0x2259 JUMP JUMPDEST PUSH2 0x2A23 DUP7 PUSH2 0x424 JUMP JUMPDEST DUP2 GT PUSH2 0x2A57 JUMPI JUMPDEST POP PUSH2 0x2A35 PUSH1 0x1 PUSH2 0x2259 JUMP JUMPDEST SWAP1 PUSH2 0x2266 JUMP JUMPDEST SWAP3 PUSH2 0x424 JUMP JUMPDEST GT PUSH2 0x2A49 JUMPI SWAP1 JUMP JUMPDEST PUSH2 0x360 SWAP1 PUSH2 0x4E6 PUSH1 0x1 PUSH2 0x424 JUMP JUMPDEST PUSH2 0x2A67 SWAP2 POP SWAP6 PUSH2 0x4E6 PUSH1 0x2 PUSH2 0x424 JUMP JUMPDEST SWAP5 CODESIZE PUSH2 0x2A2A JUMP JUMPDEST PUSH2 0x2A7E SWAP2 POP SWAP6 PUSH2 0x4E6 PUSH1 0x4 PUSH2 0x424 JUMP JUMPDEST SWAP5 CODESIZE PUSH2 0x2A0C JUMP JUMPDEST PUSH2 0x2A95 SWAP2 POP SWAP6 PUSH2 0x4E6 PUSH1 0x8 PUSH2 0x424 JUMP JUMPDEST SWAP5 CODESIZE PUSH2 0x29EE JUMP JUMPDEST PUSH2 0x2AAC SWAP2 POP SWAP6 PUSH2 0x4E6 PUSH1 0x10 PUSH2 0x424 JUMP JUMPDEST SWAP5 CODESIZE PUSH2 0x29D0 JUMP JUMPDEST PUSH2 0x2AC3 SWAP2 POP SWAP6 PUSH2 0x4E6 PUSH1 0x20 PUSH2 0x424 JUMP JUMPDEST SWAP5 CODESIZE PUSH2 0x29B2 JUMP JUMPDEST PUSH2 0x2ADA SWAP2 POP SWAP6 PUSH2 0x4E6 PUSH1 0x40 PUSH2 0x424 JUMP JUMPDEST SWAP5 CODESIZE PUSH2 0x2994 JUMP JUMPDEST PUSH2 0x2AF1 SWAP2 POP SWAP6 PUSH2 0x4E6 PUSH1 0x80 PUSH2 0x424 JUMP JUMPDEST SWAP5 CODESIZE PUSH2 0x2976 JUMP JUMPDEST PUSH2 0x2B02 PUSH1 0x0 PUSH2 0x424 JUMP JUMPDEST SWAP1 PUSH27 0x184F03E93FF9F4DAA797ED6E38ED64BF6A1F010000000000000000 PUSH2 0x2B28 DUP2 PUSH2 0x424 JUMP JUMPDEST DUP3 LT ISZERO PUSH2 0x2C6A JUMPI JUMPDEST POP PUSH14 0x4EE2D6D415B85ACEF8100000000 PUSH2 0x2B49 DUP2 PUSH2 0x424 JUMP JUMPDEST DUP3 LT ISZERO PUSH2 0x2C48 JUMPI JUMPDEST POP PUSH7 0x2386F26FC10000 PUSH2 0x2B63 DUP2 PUSH2 0x424 JUMP JUMPDEST DUP3 LT ISZERO PUSH2 0x2C26 JUMPI JUMPDEST POP PUSH4 0x5F5E100 PUSH2 0x2B7A DUP2 PUSH2 0x424 JUMP JUMPDEST DUP3 LT ISZERO PUSH2 0x2C04 JUMPI JUMPDEST POP PUSH2 0x2710 PUSH2 0x2B8F DUP2 PUSH2 0x424 JUMP JUMPDEST DUP3 LT ISZERO PUSH2 0x2BE2 JUMPI JUMPDEST POP PUSH2 0x2BA2 PUSH1 0x64 PUSH2 0x424 JUMP JUMPDEST DUP2 LT ISZERO PUSH2 0x2BC0 JUMPI JUMPDEST PUSH2 0x2BB7 PUSH2 0xF17 PUSH1 0xA PUSH2 0x424 JUMP JUMPDEST LT ISZERO PUSH2 0x2A49 JUMPI SWAP1 JUMP JUMPDEST PUSH2 0x2BD1 PUSH2 0x2BDC SWAP2 PUSH2 0x1023 PUSH1 0x64 PUSH2 0x424 JUMP JUMPDEST SWAP2 PUSH2 0x4E6 PUSH1 0x2 PUSH2 0x424 JUMP JUMPDEST SWAP1 PUSH2 0x2BAA JUMP JUMPDEST PUSH2 0x2BFD SWAP2 PUSH2 0x1023 PUSH2 0x2BF2 SWAP3 PUSH2 0x424 JUMP JUMPDEST SWAP2 PUSH2 0x4E6 PUSH1 0x4 PUSH2 0x424 JUMP JUMPDEST SWAP1 CODESIZE PUSH2 0x2B97 JUMP JUMPDEST PUSH2 0x2C1F SWAP2 PUSH2 0x1023 PUSH2 0x2C14 SWAP3 PUSH2 0x424 JUMP JUMPDEST SWAP2 PUSH2 0x4E6 PUSH1 0x8 PUSH2 0x424 JUMP JUMPDEST SWAP1 CODESIZE PUSH2 0x2B82 JUMP JUMPDEST PUSH2 0x2C41 SWAP2 PUSH2 0x1023 PUSH2 0x2C36 SWAP3 PUSH2 0x424 JUMP JUMPDEST SWAP2 PUSH2 0x4E6 PUSH1 0x10 PUSH2 0x424 JUMP JUMPDEST SWAP1 CODESIZE PUSH2 0x2B6B JUMP JUMPDEST PUSH2 0x2C63 SWAP2 PUSH2 0x1023 PUSH2 0x2C58 SWAP3 PUSH2 0x424 JUMP JUMPDEST SWAP2 PUSH2 0x4E6 PUSH1 0x20 PUSH2 0x424 JUMP JUMPDEST SWAP1 CODESIZE PUSH2 0x2B51 JUMP JUMPDEST PUSH2 0x2C85 SWAP2 PUSH2 0x1023 PUSH2 0x2C7A SWAP3 PUSH2 0x424 JUMP JUMPDEST SWAP2 PUSH2 0x4E6 PUSH1 0x40 PUSH2 0x424 JUMP JUMPDEST SWAP1 CODESIZE PUSH2 0x2B30 JUMP JUMPDEST PUSH4 0x80AC58CD PUSH1 0xE0 SHL PUSH1 0x1 PUSH1 0x1 PUSH1 0xE0 SHL SUB NOT DUP3 AND EQ SWAP1 DUP2 ISZERO PUSH2 0x2CBC JUMPI JUMPDEST DUP2 ISZERO PUSH2 0x2CB2 JUMPI POP SWAP1 JUMP JUMPDEST PUSH2 0x360 SWAP2 POP PUSH2 0x2F9B JUMP JUMPDEST PUSH1 0x1 PUSH1 0x1 PUSH1 0xE0 SHL SUB NOT DUP2 AND PUSH4 0x5B5E139F PUSH1 0xE0 SHL EQ SWAP2 POP PUSH2 0x2CA8 JUMP JUMPDEST PUSH1 0x0 SWAP2 PUSH2 0x2CE3 DUP4 PUSH2 0x11F3 JUMP JUMPDEST SWAP2 PUSH2 0x2CED DUP4 PUSH2 0x39A JUMP JUMPDEST PUSH2 0x2CF6 DUP3 PUSH2 0x39A JUMP JUMPDEST EQ PUSH2 0x2D34 JUMPI PUSH2 0x2D06 SWAP2 DUP4 SWAP2 PUSH2 0x2109 JUMP JUMPDEST PUSH2 0x2D12 PUSH2 0x1AC6 DUP4 PUSH2 0x39A JUMP JUMPDEST SUB PUSH2 0x2D1B JUMPI POP POP JUMP JUMPDEST PUSH4 0x39E35637 PUSH1 0xE1 SHL DUP3 MSTORE DUP2 SWAP1 PUSH2 0xEC9 SWAP1 PUSH1 0x4 DUP4 ADD PUSH2 0x3C6 JUMP JUMPDEST PUSH4 0x32505749 PUSH1 0xE1 SHL DUP5 MSTORE DUP4 DUP1 PUSH2 0xEC9 DUP6 PUSH1 0x4 DUP4 ADD PUSH2 0x3C6 JUMP JUMPDEST SWAP1 PUSH2 0x2DA0 PUSH2 0x2D5A DUP3 PUSH2 0x2750 JUMP JUMPDEST SWAP4 PUSH1 0x0 PUSH2 0x2D66 DUP2 PUSH2 0x11F3 JUMP JUMPDEST SWAP2 DUP5 PUSH2 0x2D71 DUP5 PUSH2 0x39A JUMP JUMPDEST PUSH2 0x2D7A DUP4 PUSH2 0x39A JUMP JUMPDEST SUB PUSH2 0x2E6A JUMPI JUMPDEST POP POP PUSH2 0x2D8B DUP3 PUSH2 0x39A JUMP JUMPDEST PUSH2 0x2D94 DUP8 PUSH2 0x39A JUMP JUMPDEST SUB PUSH2 0x2E2F JUMPI JUMPDEST POP PUSH2 0x39A JUMP JUMPDEST PUSH2 0x2DA9 DUP4 PUSH2 0x39A JUMP JUMPDEST SUB PUSH2 0x2DFF JUMPI JUMPDEST PUSH2 0x2DBE DUP3 PUSH2 0x2789 DUP4 PUSH1 0x2 PUSH2 0x431 JUMP JUMPDEST PUSH2 0x2DCD PUSH2 0x1B3B PUSH2 0x2231 DUP6 PUSH2 0x8E7 JUMP JUMPDEST SWAP2 PUSH32 0xDDF252AD1BE2C89B69C2B068FC378DAA952BA7F163C4A11628F55A4DF523B3EF PUSH2 0x2DF8 PUSH1 0x40 MLOAD SWAP1 JUMP JUMPDEST PUSH1 0x0 SWAP1 LOG4 SWAP1 JUMP JUMPDEST PUSH2 0x2E2A PUSH2 0x2E0C PUSH1 0x1 PUSH2 0x424 JUMP JUMPDEST PUSH2 0x2E24 PUSH2 0x2E1A DUP6 PUSH1 0x3 PUSH2 0x12C9 JUMP JUMPDEST SWAP2 PUSH2 0x4E6 DUP4 PUSH2 0xE0B JUMP JUMPDEST SWAP1 PUSH2 0xF9A JUMP JUMPDEST PUSH2 0x2DAF JUMP JUMPDEST PUSH2 0x2E3B SWAP1 DUP3 DUP6 DUP2 PUSH2 0x2767 JUMP JUMPDEST PUSH2 0x2E64 PUSH2 0x2E48 PUSH1 0x1 PUSH2 0x424 JUMP JUMPDEST PUSH2 0x2E24 PUSH2 0x2E56 DUP9 PUSH1 0x3 PUSH2 0x12C9 JUMP JUMPDEST SWAP2 PUSH2 0x2E60 DUP4 PUSH2 0xE0B JUMP JUMPDEST SUB SWAP1 JUMP JUMPDEST CODESIZE PUSH2 0x2D9A JUMP JUMPDEST PUSH2 0x2E74 SWAP2 DUP9 PUSH2 0x2FAB JUMP JUMPDEST CODESIZE DUP5 PUSH2 0x2D80 JUMP JUMPDEST PUSH2 0x26D4 PUSH2 0x2FB SWAP3 PUSH2 0x12F8 PUSH1 0x0 SWAP4 PUSH2 0x2EBA DUP6 PUSH2 0x26D4 PUSH2 0x2E98 DUP5 PUSH2 0x17C9 JUMP JUMPDEST SWAP6 PUSH1 0x7 DUP6 PUSH2 0x2EA9 PUSH2 0x12FD DUP5 DUP5 PUSH2 0x431 JUMP JUMPDEST DUP10 DUP1 DUP3 SUB PUSH2 0x2EC1 JUMPI JUMPDEST POP POP POP PUSH2 0x431 JUMP JUMPDEST PUSH1 0x6 PUSH2 0x12C9 JUMP JUMPDEST PUSH2 0x12F8 PUSH2 0x2EEE DUP5 PUSH2 0x26CA DUP6 PUSH2 0x2EE4 PUSH2 0x12FD PUSH2 0x26CA SWAP8 PUSH2 0x12F8 PUSH2 0x2EF4 SWAP12 PUSH1 0x6 PUSH2 0x12C9 JUMP JUMPDEST SWAP5 DUP6 SWAP4 PUSH1 0x6 PUSH2 0x12C9 JUMP JUMPDEST DUP5 PUSH2 0x431 JUMP JUMPDEST DUP6 CODESIZE DUP10 PUSH2 0x2EB2 JUMP JUMPDEST PUSH2 0x2FB SWAP1 PUSH2 0x2F17 PUSH2 0x2F0C PUSH1 0x8 SLOAD SWAP1 JUMP JUMPDEST PUSH2 0x26CA DUP4 PUSH1 0x9 PUSH2 0x431 JUMP JUMPDEST PUSH1 0x8 PUSH2 0x26D9 JUMP JUMPDEST PUSH2 0x26CA DUP3 PUSH2 0x2F46 PUSH2 0x2FB SWAP5 PUSH2 0x26CA PUSH2 0x12F8 SWAP6 PUSH2 0x2F3C PUSH2 0x1457 DUP3 PUSH2 0x17C9 JUMP JUMPDEST SWAP7 DUP8 SWAP2 PUSH1 0x6 PUSH2 0x12C9 JUMP JUMPDEST PUSH1 0x7 PUSH2 0x431 JUMP JUMPDEST PUSH2 0x26CF PUSH2 0x2FB SWAP2 PUSH2 0x360 PUSH1 0x0 PUSH2 0x26D4 PUSH1 0x8 SWAP4 PUSH2 0x2F6A PUSH2 0x1457 DUP7 SLOAD SWAP1 JUMP JUMPDEST PUSH2 0x12F8 PUSH1 0x9 SWAP2 PUSH2 0x26CA PUSH2 0x2F8D PUSH2 0xC97 PUSH2 0x2F86 PUSH2 0x12FD DUP9 DUP9 PUSH2 0x431 JUMP JUMPDEST SWAP4 DUP12 PUSH2 0xC57 JUMP JUMPDEST PUSH2 0x2EEE DUP2 PUSH2 0x26BE DUP6 DUP14 PUSH2 0xC57 JUMP JUMPDEST PUSH2 0xE52 PUSH4 0x1FFC9A7 PUSH1 0xE0 SHL PUSH2 0xE44 JUMP JUMPDEST SWAP1 PUSH2 0x2FBA PUSH2 0x2852 DUP5 DUP4 DUP6 PUSH2 0x300B JUMP JUMPDEST PUSH2 0x2FC3 JUMPI POP POP POP JUMP JUMPDEST PUSH1 0x0 SWAP3 DUP4 SWAP3 PUSH2 0x2FD7 PUSH2 0x1AC6 PUSH2 0x139F DUP7 PUSH2 0x11F3 JUMP JUMPDEST SUB PUSH2 0x2FF4 JUMPI PUSH4 0x7E273289 PUSH1 0xE0 SHL DUP4 MSTORE PUSH1 0x4 DUP4 ADD MSTORE POP PUSH1 0x24 DUP2 ADD SUB SWAP1 REVERT JUMPDEST PUSH4 0x177E802F PUSH1 0xE0 SHL DUP4 MSTORE PUSH2 0xEC9 SWAP2 PUSH1 0x4 DUP5 ADD PUSH2 0x12AE JUMP JUMPDEST SWAP1 PUSH2 0x3019 PUSH2 0x139F PUSH1 0x0 PUSH2 0x11F3 JUMP JUMPDEST PUSH2 0x3022 DUP3 PUSH2 0x39A JUMP JUMPDEST EQ ISZERO SWAP3 DUP4 PUSH2 0x3030 JUMPI POP POP POP SWAP1 JUMP JUMPDEST SWAP1 SWAP2 SWAP3 POP PUSH2 0x303D DUP3 PUSH2 0x39A JUMP JUMPDEST PUSH2 0x3046 DUP5 PUSH2 0x39A JUMP JUMPDEST EQ SWAP3 DUP4 ISZERO PUSH2 0x307B JUMPI JUMPDEST POP DUP3 ISZERO PUSH2 0x3061 JUMPI JUMPDEST POP POP CODESIZE DUP1 DUP1 PUSH2 0x2554 JUMP JUMPDEST PUSH2 0x3073 SWAP2 SWAP3 POP PUSH2 0x25E4 PUSH2 0x1AC6 SWAP2 PUSH2 0x1E96 JUMP JUMPDEST EQ CODESIZE DUP1 PUSH2 0x3057 JUMP JUMPDEST PUSH2 0x3088 SWAP2 SWAP4 POP DUP3 SWAP1 PUSH2 0x1DB5 JUMP JUMPDEST SWAP2 CODESIZE PUSH2 0x304F JUMP INVALID LOG2 PUSH5 0x6970667358 0x22 SLT KECCAK256 RETURNDATACOPY 0xCC JUMPDEST 0x1F RETURN 0xCA 0x29 0xF6 PUSH6 0x90EC2EC2666F DELEGATECALL 0xA7 0xB0 MSTORE8 SWAP12 SLOAD PUSH29 0xD9CBA482361D0EA2485B64736F6C634300081C00330000000000000000 "},"methodIdentifiers":{"approve(address,uint256)":"095ea7b3","availableTokens(uint256)":"ad64d068","balanceOf(address)":"70a08231","baseURI()":"6c0360eb","buy(uint256)":"d96a094a","calculatePrice(uint256)":"ae104265","contractURI()":"e8a3d485","creator()":"02d05d3f","creatorFeePercent()":"53613dd3","currentSupply()":"771282f6","feeVault()":"478222c2","getAllAvailableTokens()":"12ea5c7e","getApproved(uint256)":"081812fc","getAvailableTokenByIndex(uint256)":"cf6a68bf","getAvailableTokensCount()":"2dcd52f2","getAvailableTokensPaginated(uint256,uint256)":"5eba096b","getBuyPrice()":"018a25e8","getBuyPriceAfterFee()":"4a8fe650","getSellPrice()":"43d32e9c","getSellPriceAfterFee()":"21a1c184","initialPrice()":"1d0806ae","isApprovedForAll(address,address)":"e985e9c5","isOnSale(uint256)":"f0f2805f","maxSupply()":"d5abeb01","mint()":"1249c58b","name()":"06fdde03","onERC721Received(address,address,uint256,bytes)":"150b7a02","owner()":"8da5cb5b","ownerOf(uint256)":"6352211e","renounceOwnership()":"715018a6","safeTransferFrom(address,address,uint256)":"42842e0e","safeTransferFrom(address,address,uint256,bytes)":"b88d4fde","sell(uint256)":"e4849b32","setApprovalForAll(address,bool)":"a22cb465","setBaseURI(string)":"55f804b3","setCreator(address)":"3f516018","supportsInterface(bytes4)":"01ffc9a7","symbol()":"95d89b41","tokenByIndex(uint256)":"4f6ccce7","tokenIndex(uint256)":"0583e9f8","tokenOfOwnerByIndex(address,uint256)":"2f745c59","tokenURI(uint256)":"c87b56dd","totalSupply()":"18160ddd","transferFrom(address,address,uint256)":"23b872dd","transferOwnership(address)":"f2fde38b"}}}}}