{"src/core/Storage.sol":{"Storage":{"abi":[{"inputs":[{"internalType":"uint256","name":"_initialPrice","type":"uint256"},{"internalType":"uint256","name":"_maxSupply","type":"uint256"},{"internalType":"uint256","name":"_creatorFeePercent","type":"uint256"}],"stateMutability":"nonpayable","type":"constructor"},{"inputs":[{"internalType":"uint256","name":"","type":"uint256"}],"name":"availableTokens","outputs":[{"internalType":"uint256","name":"","type":"uint256"}],"stateMutability":"view","type":"function"},{"inputs":[],"name":"baseURI","outputs":[{"internalType":"string","name":"","type":"string"}],"stateMutability":"view","type":"function"},{"inputs":[],"name":"creator","outputs":[{"internalType":"address","name":"","type":"address"}],"stateMutability":"view","type":"function"},{"inputs":[],"name":"creatorFeePercent","outputs":[{"internalType":"uint256","name":"","type":"uint256"}],"stateMutability":"view","type":"function"},{"inputs":[],"name":"currentSupply","outputs":[{"internalType":"uint256","name":"","type":"uint256"}],"stateMutability":"view","type":"function"},{"inputs":[],"name":"description","outputs":[{"internalType":"string","name":"","type":"string"}],"stateMutability":"view","type":"function"},{"inputs":[],"name":"getAllAvailableTokens","outputs":[{"internalType":"uint256[]","name":"","type":"uint256[]"}],"stateMutability":"view","type":"function"},{"inputs":[{"internalType":"uint256","name":"index","type":"uint256"}],"name":"getAvailableTokenByIndex","outputs":[{"internalType":"uint256","name":"","type":"uint256"}],"stateMutability":"view","type":"function"},{"inputs":[],"name":"getAvailableTokensCount","outputs":[{"internalType":"uint256","name":"","type":"uint256"}],"stateMutability":"view","type":"function"},{"inputs":[{"internalType":"uint256","name":"start","type":"uint256"},{"internalType":"uint256","name":"limit","type":"uint256"}],"name":"getAvailableTokensPaginated","outputs":[{"internalType":"uint256[]","name":"","type":"uint256[]"}],"stateMutability":"view","type":"function"},{"inputs":[],"name":"initialPrice","outputs":[{"internalType":"uint256","name":"","type":"uint256"}],"stateMutability":"view","type":"function"},{"inputs":[],"name":"maxSupply","outputs":[{"internalType":"uint256","name":"","type":"uint256"}],"stateMutability":"view","type":"function"},{"inputs":[{"internalType":"string","name":"_baseURI","type":"string"}],"name":"setBaseURI","outputs":[],"stateMutability":"nonpayable","type":"function"},{"inputs":[{"internalType":"address","name":"_creator","type":"address"}],"name":"setCreator","outputs":[],"stateMutability":"nonpayable","type":"function"},{"inputs":[{"internalType":"string","name":"_description","type":"string"}],"name":"setDescription","outputs":[],"stateMutability":"nonpayable","type":"function"},{"inputs":[{"internalType":"uint256","name":"","type":"uint256"}],"name":"tokenIndex","outputs":[{"internalType":"uint256","name":"","type":"uint256"}],"stateMutability":"view","type":"function"}],"evm":{"bytecode":{"linkReferences":{},"object":"60806040523461002b5761001a6100146100bb565b9161016e565b604051610cf161019b8239610cf190f35b600080fd5b634e487b7160e01b600052604160045260246000fd5b90601f01601f191681019081106001600160401b0382111761006757604052565b610030565b9061008061007960405190565b9283610046565b565b90505190565b909160608284031261002b576100b86100a18484610082565b9360406100b18260208701610082565b9401610082565b90565b6100d9610e8c803803806100ce8161006c565b928339810190610088565b909192565b90600019905b9181191691161790565b6100b86100b86100b89290565b9061010b6100b8610112926100ee565b82546100de565b9055565b906001600160a01b03906100e4565b6100b890610139906001600160a01b031682565b6001600160a01b031690565b6100b890610125565b6100b890610145565b906101676100b86101129261014e565b8254610116565b61018f92916101816101889260006100fb565b60016100fb565b60026100fb565b61008033600361015756fe6080604052600436101561001257600080fd5b60003560e01c806302d05d3f146101125780630583e9f81461010d57806312ea5c7e146101085780631d0806ae146101035780632dcd52f2146100fe5780633f516018146100f957806353613dd3146100f457806355f804b3146100ef5780635eba096b146100ea5780636c0360eb146100e55780637284e416146100e0578063771282f6146100db57806390c3f38f146100d6578063ad64d068146100d1578063cf6a68bf146100cc5763d5abeb010361012257610782565b61075b565b610740565b6106cc565b6106b1565b61068a565b610657565b6104ac565b610471565b61036c565b610343565b6102fd565b6102e2565b6102b0565b61021a565b610175565b600091031261012257565b600080fd5b61013c916008021c5b6001600160a01b031690565b90565b9061013c9154610127565b61013c6000600361013f565b61015f90610130565b9052565b6020810192916101739190610156565b565b3461012257610185366004610117565b61019c61019061014a565b60405191829182610163565b0390f35b805b0361012257565b90503590610173826101a0565b906020828203126101225761013c916101a9565b61013c61013c61013c9290565b906101e1906101ca565b600052602052604060002090565b61013c916008021c81565b9061013c91546101ef565b600061021561013c9260066101d7565b6101fa565b346101225761019c6102356102303660046101b6565b610205565b6040519182918290815260200190565b0190565b90610269610262610258845190565b8084529260200190565b9260200190565b9060005b81811061027a5750505090565b9091926102976102906001928651815260200190565b9460200190565b92910161026d565b602080825261013c92910190610249565b34610122576102c0366004610117565b61019c6102cb610833565b6040519182918261029f565b61013c6000806101fa565b34610122576102f2366004610117565b61019c6102356102d7565b346101225761030d366004610117565b61019c61023560055490565b6101a281610130565b9050359061017382610319565b906020828203126101225761013c91610322565b346101225761035b61035636600461032f565b610936565b604051005b61013c600060026101fa565b346101225761037c366004610117565b61019c610235610360565b634e487b7160e01b600052604160045260246000fd5b90601f01601f1916810190811067ffffffffffffffff8211176103bf57604052565b610387565b906101736103d160405190565b928361039d565b67ffffffffffffffff81116103bf57602090601f01601f19160190565b90826000939282370152565b90929192610416610411826103d8565b6103c4565b9381855281830111610122576101739160208501906103f5565b9080601f830112156101225781602061013c93359101610401565b9060208282031261012257813567ffffffffffffffff81116101225761013c9201610430565b346101225761035b61048436600461044b565b610ae5565b91906040838203126101225761013c9060206104a582866101a9565b94016101a9565b346101225761019c6102cb6104c2366004610489565b90610bdb565b634e487b7160e01b600052600060045260246000fd5b634e487b7160e01b600052602260045260246000fd5b9060016002830492168015610514575b602083101461050f57565b6104de565b91607f1691610504565b8054600093929161053b610531836104f4565b8085529360200190565b916001811690811561058d575060011461055457505050565b6105679192939450600052602060002090565b916000925b8184106105795750500190565b80548484015260209093019260010161056c565b92949550505060ff1916825215156020020190565b9061013c9161051e565b906101736105c6926105bd60405190565b938480926105a2565b038361039d565b906000106105de5761013c906105ac565b6104c8565b61013c600060076105cd565b60005b8381106106025750506000910152565b81810151838201526020016105f2565b61063361063c60209361024593610627815190565b80835293849260200190565b958691016105ef565b601f01601f191690565b602080825261013c92910190610612565b3461012257610667366004610117565b61019c6106726105e3565b60405191829182610646565b61013c600060086105cd565b346101225761069a366004610117565b61019c61067261067e565b61013c600060046101fa565b34610122576106c1366004610117565b61019c6102356106a5565b346101225761035b6106df36600461044b565b610c89565b634e487b7160e01b600052603260045260246000fd5b805482101561071d57610714600191600052602060002090565b91020190600090565b6106e4565b6005548110156101225761073a61013c9160056106fa565b906101fa565b346101225761019c6102356107563660046101b6565b610722565b346101225761019c6102356107713660046101b6565b610c92565b61013c600060016101fa565b3461012257610792366004610117565b61019c610235610776565b61013c9081565b61013c905461079d565b906107c96107bd610258845490565b92600052602060002090565b9060005b8181106107da5750505090565b9091926107fe6107f76001926107ef876107a4565b815260200190565b9460010190565b9291016107cd565b9061013c916107ae565b906101736105c69261082160405190565b93848092610806565b61013c90610810565b61013c600561082a565b61013c90610130565b61013c905461083d565b1561085757565b60405162461bcd60e51b815260206004820152602360248201527f4f6e6c792063726561746f722063616e2063616c6c20746869732066756e637460448201526234b7b760e91b6064820152608490fd5b610173906108d06108c16108bc6003610846565b610130565b6108ca33610130565b14610850565b61092b565b906001600160a01b03905b9181191691161790565b61013c90610130906001600160a01b031682565b61013c906108ea565b61013c906108fe565b9061092061013c61092792610907565b82546108d5565b9055565b610173906003610910565b610173906108a8565b610173906109536108c16108bc6003610846565b610ada565b9160001960089290920291821b911b6108e0565b919061097d61013c610927936101ca565b908354610958565b6101739160009161096c565b81811061099c575050565b806109aa6000600193610985565b01610991565b9190601f81116109bf57505050565b6109d161017393600052602060002090565b906020601f8401819004830193106109f3575b6020601f909101040190610991565b90915081906109e4565b90610a06815190565b9067ffffffffffffffff82116103bf57610a2a82610a2485546104f4565b856109b0565b602090601f8311600114610a6557610927929160009183610a5a575b5050600019600883021c1916906002021790565b015190503880610a46565b601f19831691610a7a85600052602060002090565b9260005b818110610ab857509160029391856001969410610a9f575b50505002019055565b01516000196008601f8516021c19169055388080610a96565b91936020600181928787015181550195019201610a7e565b90610173916109fd565b610173906007610ad0565b6101739061093f565b15610af557565b60405162461bcd60e51b815260206004820152601960248201527f537461727420696e646578206f7574206f6620626f756e6473000000000000006044820152606490fd5b634e487b7160e01b600052601160045260246000fd5b91908201809211610b5d57565b610b3a565b91908203918211610b5d57565b67ffffffffffffffff81116103bf5760208091020190565b90610b9461041183610b6f565b918252565b369037565b90610173610bb4610bae84610b87565b93610b6f565b601f190160208401610b99565b90610bca825190565b81101561071d576020809102010190565b91610c08610c00600593610bfa610bf361013c875490565b8710610aee565b85610b50565b835490610ca9565b91610c1b610c168585610b62565b610b9e565b91845b845b811015610c6157610c5a81610c54610c3e61073a610c2095886106fa565b610c51610c4b8b85610b62565b89610bc1565b52565b60010190565b9050610c1e565b50935050905090565b61017390610c7e6108c16108bc6003610846565b610173906008610ad0565b61017390610c6a565b61073a61013c91610ca1600090565b5060056106fa565b9080821015610cb6575090565b90509056fea2646970667358221220cff58d22cd4dbf14291bbf83fa59d47727648141890692a2e3bfce4f9a18959964736f6c634300081c0033","opcodes":"PUSH1 0x80 PUSH1 0x40 MSTORE CALLVALUE PUSH2 0x2B JUMPI PUSH2 0x1A PUSH2 0x14 PUSH2 0xBB JUMP JUMPDEST SWAP2 PUSH2 0x16E JUMP JUMPDEST PUSH1 0x40 MLOAD PUSH2 0xCF1 PUSH2 0x19B DUP3 CODECOPY PUSH2 0xCF1 SWAP1 RETURN JUMPDEST PUSH1 0x0 DUP1 REVERT JUMPDEST PUSH4 0x4E487B71 PUSH1 0xE0 SHL PUSH1 0x0 MSTORE PUSH1 0x41 PUSH1 0x4 MSTORE PUSH1 0x24 PUSH1 0x0 REVERT JUMPDEST SWAP1 PUSH1 0x1F ADD PUSH1 0x1F NOT AND DUP2 ADD SWAP1 DUP2 LT PUSH1 0x1 PUSH1 0x1 PUSH1 0x40 SHL SUB DUP3 GT OR PUSH2 0x67 JUMPI PUSH1 0x40 MSTORE JUMP JUMPDEST PUSH2 0x30 JUMP JUMPDEST SWAP1 PUSH2 0x80 PUSH2 0x79 PUSH1 0x40 MLOAD SWAP1 JUMP JUMPDEST SWAP3 DUP4 PUSH2 0x46 JUMP JUMPDEST JUMP JUMPDEST SWAP1 POP MLOAD SWAP1 JUMP JUMPDEST SWAP1 SWAP2 PUSH1 0x60 DUP3 DUP5 SUB SLT PUSH2 0x2B JUMPI PUSH2 0xB8 PUSH2 0xA1 DUP5 DUP5 PUSH2 0x82 JUMP JUMPDEST SWAP4 PUSH1 0x40 PUSH2 0xB1 DUP3 PUSH1 0x20 DUP8 ADD PUSH2 0x82 JUMP JUMPDEST SWAP5 ADD PUSH2 0x82 JUMP JUMPDEST SWAP1 JUMP JUMPDEST PUSH2 0xD9 PUSH2 0xE8C DUP1 CODESIZE SUB DUP1 PUSH2 0xCE DUP2 PUSH2 0x6C JUMP JUMPDEST SWAP3 DUP4 CODECOPY DUP2 ADD SWAP1 PUSH2 0x88 JUMP JUMPDEST SWAP1 SWAP2 SWAP3 JUMP JUMPDEST SWAP1 PUSH1 0x0 NOT SWAP1 JUMPDEST SWAP2 DUP2 NOT AND SWAP2 AND OR SWAP1 JUMP JUMPDEST PUSH2 0xB8 PUSH2 0xB8 PUSH2 0xB8 SWAP3 SWAP1 JUMP JUMPDEST SWAP1 PUSH2 0x10B PUSH2 0xB8 PUSH2 0x112 SWAP3 PUSH2 0xEE JUMP JUMPDEST DUP3 SLOAD PUSH2 0xDE JUMP JUMPDEST SWAP1 SSTORE JUMP JUMPDEST SWAP1 PUSH1 0x1 PUSH1 0x1 PUSH1 0xA0 SHL SUB SWAP1 PUSH2 0xE4 JUMP JUMPDEST PUSH2 0xB8 SWAP1 PUSH2 0x139 SWAP1 PUSH1 0x1 PUSH1 0x1 PUSH1 0xA0 SHL SUB AND DUP3 JUMP JUMPDEST PUSH1 0x1 PUSH1 0x1 PUSH1 0xA0 SHL SUB AND SWAP1 JUMP JUMPDEST PUSH2 0xB8 SWAP1 PUSH2 0x125 JUMP JUMPDEST PUSH2 0xB8 SWAP1 PUSH2 0x145 JUMP JUMPDEST SWAP1 PUSH2 0x167 PUSH2 0xB8 PUSH2 0x112 SWAP3 PUSH2 0x14E JUMP JUMPDEST DUP3 SLOAD PUSH2 0x116 JUMP JUMPDEST PUSH2 0x18F SWAP3 SWAP2 PUSH2 0x181 PUSH2 0x188 SWAP3 PUSH1 0x0 PUSH2 0xFB JUMP JUMPDEST PUSH1 0x1 PUSH2 0xFB JUMP JUMPDEST PUSH1 0x2 PUSH2 0xFB JUMP JUMPDEST PUSH2 0x80 CALLER PUSH1 0x3 PUSH2 0x157 JUMP INVALID PUSH1 0x80 PUSH1 0x40 MSTORE PUSH1 0x4 CALLDATASIZE LT ISZERO PUSH2 0x12 JUMPI PUSH1 0x0 DUP1 REVERT JUMPDEST PUSH1 0x0 CALLDATALOAD PUSH1 0xE0 SHR DUP1 PUSH4 0x2D05D3F EQ PUSH2 0x112 JUMPI DUP1 PUSH4 0x583E9F8 EQ PUSH2 0x10D JUMPI DUP1 PUSH4 0x12EA5C7E EQ PUSH2 0x108 JUMPI DUP1 PUSH4 0x1D0806AE EQ PUSH2 0x103 JUMPI DUP1 PUSH4 0x2DCD52F2 EQ PUSH2 0xFE JUMPI DUP1 PUSH4 0x3F516018 EQ PUSH2 0xF9 JUMPI DUP1 PUSH4 0x53613DD3 EQ PUSH2 0xF4 JUMPI DUP1 PUSH4 0x55F804B3 EQ PUSH2 0xEF JUMPI DUP1 PUSH4 0x5EBA096B EQ PUSH2 0xEA JUMPI DUP1 PUSH4 0x6C0360EB EQ PUSH2 0xE5 JUMPI DUP1 PUSH4 0x7284E416 EQ PUSH2 0xE0 JUMPI DUP1 PUSH4 0x771282F6 EQ PUSH2 0xDB JUMPI DUP1 PUSH4 0x90C3F38F EQ PUSH2 0xD6 JUMPI DUP1 PUSH4 0xAD64D068 EQ PUSH2 0xD1 JUMPI DUP1 PUSH4 0xCF6A68BF EQ PUSH2 0xCC JUMPI PUSH4 0xD5ABEB01 SUB PUSH2 0x122 JUMPI PUSH2 0x782 JUMP JUMPDEST PUSH2 0x75B JUMP JUMPDEST PUSH2 0x740 JUMP JUMPDEST PUSH2 0x6CC JUMP JUMPDEST PUSH2 0x6B1 JUMP JUMPDEST PUSH2 0x68A JUMP JUMPDEST PUSH2 0x657 JUMP JUMPDEST PUSH2 0x4AC JUMP JUMPDEST PUSH2 0x471 JUMP JUMPDEST PUSH2 0x36C JUMP JUMPDEST PUSH2 0x343 JUMP JUMPDEST PUSH2 0x2FD JUMP JUMPDEST PUSH2 0x2E2 JUMP JUMPDEST PUSH2 0x2B0 JUMP JUMPDEST PUSH2 0x21A JUMP JUMPDEST PUSH2 0x175 JUMP JUMPDEST PUSH1 0x0 SWAP2 SUB SLT PUSH2 0x122 JUMPI JUMP JUMPDEST PUSH1 0x0 DUP1 REVERT JUMPDEST PUSH2 0x13C SWAP2 PUSH1 0x8 MUL SHR JUMPDEST PUSH1 0x1 PUSH1 0x1 PUSH1 0xA0 SHL SUB AND SWAP1 JUMP JUMPDEST SWAP1 JUMP JUMPDEST SWAP1 PUSH2 0x13C SWAP2 SLOAD PUSH2 0x127 JUMP JUMPDEST PUSH2 0x13C PUSH1 0x0 PUSH1 0x3 PUSH2 0x13F JUMP JUMPDEST PUSH2 0x15F SWAP1 PUSH2 0x130 JUMP JUMPDEST SWAP1 MSTORE JUMP JUMPDEST PUSH1 0x20 DUP2 ADD SWAP3 SWAP2 PUSH2 0x173 SWAP2 SWAP1 PUSH2 0x156 JUMP JUMPDEST JUMP JUMPDEST CALLVALUE PUSH2 0x122 JUMPI PUSH2 0x185 CALLDATASIZE PUSH1 0x4 PUSH2 0x117 JUMP JUMPDEST PUSH2 0x19C PUSH2 0x190 PUSH2 0x14A JUMP JUMPDEST PUSH1 0x40 MLOAD SWAP2 DUP3 SWAP2 DUP3 PUSH2 0x163 JUMP JUMPDEST SUB SWAP1 RETURN JUMPDEST DUP1 JUMPDEST SUB PUSH2 0x122 JUMPI JUMP JUMPDEST SWAP1 POP CALLDATALOAD SWAP1 PUSH2 0x173 DUP3 PUSH2 0x1A0 JUMP JUMPDEST SWAP1 PUSH1 0x20 DUP3 DUP3 SUB SLT PUSH2 0x122 JUMPI PUSH2 0x13C SWAP2 PUSH2 0x1A9 JUMP JUMPDEST PUSH2 0x13C PUSH2 0x13C PUSH2 0x13C SWAP3 SWAP1 JUMP JUMPDEST SWAP1 PUSH2 0x1E1 SWAP1 PUSH2 0x1CA JUMP JUMPDEST PUSH1 0x0 MSTORE PUSH1 0x20 MSTORE PUSH1 0x40 PUSH1 0x0 KECCAK256 SWAP1 JUMP JUMPDEST PUSH2 0x13C SWAP2 PUSH1 0x8 MUL SHR DUP2 JUMP JUMPDEST SWAP1 PUSH2 0x13C SWAP2 SLOAD PUSH2 0x1EF JUMP JUMPDEST PUSH1 0x0 PUSH2 0x215 PUSH2 0x13C SWAP3 PUSH1 0x6 PUSH2 0x1D7 JUMP JUMPDEST PUSH2 0x1FA JUMP JUMPDEST CALLVALUE PUSH2 0x122 JUMPI PUSH2 0x19C PUSH2 0x235 PUSH2 0x230 CALLDATASIZE PUSH1 0x4 PUSH2 0x1B6 JUMP JUMPDEST PUSH2 0x205 JUMP JUMPDEST PUSH1 0x40 MLOAD SWAP2 DUP3 SWAP2 DUP3 SWAP1 DUP2 MSTORE PUSH1 0x20 ADD SWAP1 JUMP JUMPDEST ADD SWAP1 JUMP JUMPDEST SWAP1 PUSH2 0x269 PUSH2 0x262 PUSH2 0x258 DUP5 MLOAD SWAP1 JUMP JUMPDEST DUP1 DUP5 MSTORE SWAP3 PUSH1 0x20 ADD SWAP1 JUMP JUMPDEST SWAP3 PUSH1 0x20 ADD SWAP1 JUMP JUMPDEST SWAP1 PUSH1 0x0 JUMPDEST DUP2 DUP2 LT PUSH2 0x27A JUMPI POP POP POP SWAP1 JUMP JUMPDEST SWAP1 SWAP2 SWAP3 PUSH2 0x297 PUSH2 0x290 PUSH1 0x1 SWAP3 DUP7 MLOAD DUP2 MSTORE PUSH1 0x20 ADD SWAP1 JUMP JUMPDEST SWAP5 PUSH1 0x20 ADD SWAP1 JUMP JUMPDEST SWAP3 SWAP2 ADD PUSH2 0x26D JUMP JUMPDEST PUSH1 0x20 DUP1 DUP3 MSTORE PUSH2 0x13C SWAP3 SWAP2 ADD SWAP1 PUSH2 0x249 JUMP JUMPDEST CALLVALUE PUSH2 0x122 JUMPI PUSH2 0x2C0 CALLDATASIZE PUSH1 0x4 PUSH2 0x117 JUMP JUMPDEST PUSH2 0x19C PUSH2 0x2CB PUSH2 0x833 JUMP JUMPDEST PUSH1 0x40 MLOAD SWAP2 DUP3 SWAP2 DUP3 PUSH2 0x29F JUMP JUMPDEST PUSH2 0x13C PUSH1 0x0 DUP1 PUSH2 0x1FA JUMP JUMPDEST CALLVALUE PUSH2 0x122 JUMPI PUSH2 0x2F2 CALLDATASIZE PUSH1 0x4 PUSH2 0x117 JUMP JUMPDEST PUSH2 0x19C PUSH2 0x235 PUSH2 0x2D7 JUMP JUMPDEST CALLVALUE PUSH2 0x122 JUMPI PUSH2 0x30D CALLDATASIZE PUSH1 0x4 PUSH2 0x117 JUMP JUMPDEST PUSH2 0x19C PUSH2 0x235 PUSH1 0x5 SLOAD SWAP1 JUMP JUMPDEST PUSH2 0x1A2 DUP2 PUSH2 0x130 JUMP JUMPDEST SWAP1 POP CALLDATALOAD SWAP1 PUSH2 0x173 DUP3 PUSH2 0x319 JUMP JUMPDEST SWAP1 PUSH1 0x20 DUP3 DUP3 SUB SLT PUSH2 0x122 JUMPI PUSH2 0x13C SWAP2 PUSH2 0x322 JUMP JUMPDEST CALLVALUE PUSH2 0x122 JUMPI PUSH2 0x35B PUSH2 0x356 CALLDATASIZE PUSH1 0x4 PUSH2 0x32F JUMP JUMPDEST PUSH2 0x936 JUMP JUMPDEST PUSH1 0x40 MLOAD STOP JUMPDEST PUSH2 0x13C PUSH1 0x0 PUSH1 0x2 PUSH2 0x1FA JUMP JUMPDEST CALLVALUE PUSH2 0x122 JUMPI PUSH2 0x37C CALLDATASIZE PUSH1 0x4 PUSH2 0x117 JUMP JUMPDEST PUSH2 0x19C PUSH2 0x235 PUSH2 0x360 JUMP JUMPDEST PUSH4 0x4E487B71 PUSH1 0xE0 SHL PUSH1 0x0 MSTORE PUSH1 0x41 PUSH1 0x4 MSTORE PUSH1 0x24 PUSH1 0x0 REVERT JUMPDEST SWAP1 PUSH1 0x1F ADD PUSH1 0x1F NOT AND DUP2 ADD SWAP1 DUP2 LT PUSH8 0xFFFFFFFFFFFFFFFF DUP3 GT OR PUSH2 0x3BF JUMPI PUSH1 0x40 MSTORE JUMP JUMPDEST PUSH2 0x387 JUMP JUMPDEST SWAP1 PUSH2 0x173 PUSH2 0x3D1 PUSH1 0x40 MLOAD SWAP1 JUMP JUMPDEST SWAP3 DUP4 PUSH2 0x39D JUMP JUMPDEST PUSH8 0xFFFFFFFFFFFFFFFF DUP2 GT PUSH2 0x3BF JUMPI PUSH1 0x20 SWAP1 PUSH1 0x1F ADD PUSH1 0x1F NOT AND ADD SWAP1 JUMP JUMPDEST SWAP1 DUP3 PUSH1 0x0 SWAP4 SWAP3 DUP3 CALLDATACOPY ADD MSTORE JUMP JUMPDEST SWAP1 SWAP3 SWAP2 SWAP3 PUSH2 0x416 PUSH2 0x411 DUP3 PUSH2 0x3D8 JUMP JUMPDEST PUSH2 0x3C4 JUMP JUMPDEST SWAP4 DUP2 DUP6 MSTORE DUP2 DUP4 ADD GT PUSH2 0x122 JUMPI PUSH2 0x173 SWAP2 PUSH1 0x20 DUP6 ADD SWAP1 PUSH2 0x3F5 JUMP JUMPDEST SWAP1 DUP1 PUSH1 0x1F DUP4 ADD SLT ISZERO PUSH2 0x122 JUMPI DUP2 PUSH1 0x20 PUSH2 0x13C SWAP4 CALLDATALOAD SWAP2 ADD PUSH2 0x401 JUMP JUMPDEST SWAP1 PUSH1 0x20 DUP3 DUP3 SUB SLT PUSH2 0x122 JUMPI DUP2 CALLDATALOAD PUSH8 0xFFFFFFFFFFFFFFFF DUP2 GT PUSH2 0x122 JUMPI PUSH2 0x13C SWAP3 ADD PUSH2 0x430 JUMP JUMPDEST CALLVALUE PUSH2 0x122 JUMPI PUSH2 0x35B PUSH2 0x484 CALLDATASIZE PUSH1 0x4 PUSH2 0x44B JUMP JUMPDEST PUSH2 0xAE5 JUMP JUMPDEST SWAP2 SWAP1 PUSH1 0x40 DUP4 DUP3 SUB SLT PUSH2 0x122 JUMPI PUSH2 0x13C SWAP1 PUSH1 0x20 PUSH2 0x4A5 DUP3 DUP7 PUSH2 0x1A9 JUMP JUMPDEST SWAP5 ADD PUSH2 0x1A9 JUMP JUMPDEST CALLVALUE PUSH2 0x122 JUMPI PUSH2 0x19C PUSH2 0x2CB PUSH2 0x4C2 CALLDATASIZE PUSH1 0x4 PUSH2 0x489 JUMP JUMPDEST SWAP1 PUSH2 0xBDB JUMP JUMPDEST PUSH4 0x4E487B71 PUSH1 0xE0 SHL PUSH1 0x0 MSTORE PUSH1 0x0 PUSH1 0x4 MSTORE PUSH1 0x24 PUSH1 0x0 REVERT JUMPDEST PUSH4 0x4E487B71 PUSH1 0xE0 SHL PUSH1 0x0 MSTORE PUSH1 0x22 PUSH1 0x4 MSTORE PUSH1 0x24 PUSH1 0x0 REVERT JUMPDEST SWAP1 PUSH1 0x1 PUSH1 0x2 DUP4 DIV SWAP3 AND DUP1 ISZERO PUSH2 0x514 JUMPI JUMPDEST PUSH1 0x20 DUP4 LT EQ PUSH2 0x50F JUMPI JUMP JUMPDEST PUSH2 0x4DE JUMP JUMPDEST SWAP2 PUSH1 0x7F AND SWAP2 PUSH2 0x504 JUMP JUMPDEST DUP1 SLOAD PUSH1 0x0 SWAP4 SWAP3 SWAP2 PUSH2 0x53B PUSH2 0x531 DUP4 PUSH2 0x4F4 JUMP JUMPDEST DUP1 DUP6 MSTORE SWAP4 PUSH1 0x20 ADD SWAP1 JUMP JUMPDEST SWAP2 PUSH1 0x1 DUP2 AND SWAP1 DUP2 ISZERO PUSH2 0x58D JUMPI POP PUSH1 0x1 EQ PUSH2 0x554 JUMPI POP POP POP JUMP JUMPDEST PUSH2 0x567 SWAP2 SWAP3 SWAP4 SWAP5 POP PUSH1 0x0 MSTORE PUSH1 0x20 PUSH1 0x0 KECCAK256 SWAP1 JUMP JUMPDEST SWAP2 PUSH1 0x0 SWAP3 JUMPDEST DUP2 DUP5 LT PUSH2 0x579 JUMPI POP POP ADD SWAP1 JUMP JUMPDEST DUP1 SLOAD DUP5 DUP5 ADD MSTORE PUSH1 0x20 SWAP1 SWAP4 ADD SWAP3 PUSH1 0x1 ADD PUSH2 0x56C JUMP JUMPDEST SWAP3 SWAP5 SWAP6 POP POP POP PUSH1 0xFF NOT AND DUP3 MSTORE ISZERO ISZERO PUSH1 0x20 MUL ADD SWAP1 JUMP JUMPDEST SWAP1 PUSH2 0x13C SWAP2 PUSH2 0x51E JUMP JUMPDEST SWAP1 PUSH2 0x173 PUSH2 0x5C6 SWAP3 PUSH2 0x5BD PUSH1 0x40 MLOAD SWAP1 JUMP JUMPDEST SWAP4 DUP5 DUP1 SWAP3 PUSH2 0x5A2 JUMP JUMPDEST SUB DUP4 PUSH2 0x39D JUMP JUMPDEST SWAP1 PUSH1 0x0 LT PUSH2 0x5DE JUMPI PUSH2 0x13C SWAP1 PUSH2 0x5AC JUMP JUMPDEST PUSH2 0x4C8 JUMP JUMPDEST PUSH2 0x13C PUSH1 0x0 PUSH1 0x7 PUSH2 0x5CD JUMP JUMPDEST PUSH1 0x0 JUMPDEST DUP4 DUP2 LT PUSH2 0x602 JUMPI POP POP PUSH1 0x0 SWAP2 ADD MSTORE JUMP JUMPDEST DUP2 DUP2 ADD MLOAD DUP4 DUP3 ADD MSTORE PUSH1 0x20 ADD PUSH2 0x5F2 JUMP JUMPDEST PUSH2 0x633 PUSH2 0x63C PUSH1 0x20 SWAP4 PUSH2 0x245 SWAP4 PUSH2 0x627 DUP2 MLOAD SWAP1 JUMP JUMPDEST DUP1 DUP4 MSTORE SWAP4 DUP5 SWAP3 PUSH1 0x20 ADD SWAP1 JUMP JUMPDEST SWAP6 DUP7 SWAP2 ADD PUSH2 0x5EF JUMP JUMPDEST PUSH1 0x1F ADD PUSH1 0x1F NOT AND SWAP1 JUMP JUMPDEST PUSH1 0x20 DUP1 DUP3 MSTORE PUSH2 0x13C SWAP3 SWAP2 ADD SWAP1 PUSH2 0x612 JUMP JUMPDEST CALLVALUE PUSH2 0x122 JUMPI PUSH2 0x667 CALLDATASIZE PUSH1 0x4 PUSH2 0x117 JUMP JUMPDEST PUSH2 0x19C PUSH2 0x672 PUSH2 0x5E3 JUMP JUMPDEST PUSH1 0x40 MLOAD SWAP2 DUP3 SWAP2 DUP3 PUSH2 0x646 JUMP JUMPDEST PUSH2 0x13C PUSH1 0x0 PUSH1 0x8 PUSH2 0x5CD JUMP JUMPDEST CALLVALUE PUSH2 0x122 JUMPI PUSH2 0x69A CALLDATASIZE PUSH1 0x4 PUSH2 0x117 JUMP JUMPDEST PUSH2 0x19C PUSH2 0x672 PUSH2 0x67E JUMP JUMPDEST PUSH2 0x13C PUSH1 0x0 PUSH1 0x4 PUSH2 0x1FA JUMP JUMPDEST CALLVALUE PUSH2 0x122 JUMPI PUSH2 0x6C1 CALLDATASIZE PUSH1 0x4 PUSH2 0x117 JUMP JUMPDEST PUSH2 0x19C PUSH2 0x235 PUSH2 0x6A5 JUMP JUMPDEST CALLVALUE PUSH2 0x122 JUMPI PUSH2 0x35B PUSH2 0x6DF CALLDATASIZE PUSH1 0x4 PUSH2 0x44B JUMP JUMPDEST PUSH2 0xC89 JUMP JUMPDEST PUSH4 0x4E487B71 PUSH1 0xE0 SHL PUSH1 0x0 MSTORE PUSH1 0x32 PUSH1 0x4 MSTORE PUSH1 0x24 PUSH1 0x0 REVERT JUMPDEST DUP1 SLOAD DUP3 LT ISZERO PUSH2 0x71D JUMPI PUSH2 0x714 PUSH1 0x1 SWAP2 PUSH1 0x0 MSTORE PUSH1 0x20 PUSH1 0x0 KECCAK256 SWAP1 JUMP JUMPDEST SWAP2 MUL ADD SWAP1 PUSH1 0x0 SWAP1 JUMP JUMPDEST PUSH2 0x6E4 JUMP JUMPDEST PUSH1 0x5 SLOAD DUP2 LT ISZERO PUSH2 0x122 JUMPI PUSH2 0x73A PUSH2 0x13C SWAP2 PUSH1 0x5 PUSH2 0x6FA JUMP JUMPDEST SWAP1 PUSH2 0x1FA JUMP JUMPDEST CALLVALUE PUSH2 0x122 JUMPI PUSH2 0x19C PUSH2 0x235 PUSH2 0x756 CALLDATASIZE PUSH1 0x4 PUSH2 0x1B6 JUMP JUMPDEST PUSH2 0x722 JUMP JUMPDEST CALLVALUE PUSH2 0x122 JUMPI PUSH2 0x19C PUSH2 0x235 PUSH2 0x771 CALLDATASIZE PUSH1 0x4 PUSH2 0x1B6 JUMP JUMPDEST PUSH2 0xC92 JUMP JUMPDEST PUSH2 0x13C PUSH1 0x0 PUSH1 0x1 PUSH2 0x1FA JUMP JUMPDEST CALLVALUE PUSH2 0x122 JUMPI PUSH2 0x792 CALLDATASIZE PUSH1 0x4 PUSH2 0x117 JUMP JUMPDEST PUSH2 0x19C PUSH2 0x235 PUSH2 0x776 JUMP JUMPDEST PUSH2 0x13C SWAP1 DUP2 JUMP JUMPDEST PUSH2 0x13C SWAP1 SLOAD PUSH2 0x79D JUMP JUMPDEST SWAP1 PUSH2 0x7C9 PUSH2 0x7BD PUSH2 0x258 DUP5 SLOAD SWAP1 JUMP JUMPDEST SWAP3 PUSH1 0x0 MSTORE PUSH1 0x20 PUSH1 0x0 KECCAK256 SWAP1 JUMP JUMPDEST SWAP1 PUSH1 0x0 JUMPDEST DUP2 DUP2 LT PUSH2 0x7DA JUMPI POP POP POP SWAP1 JUMP JUMPDEST SWAP1 SWAP2 SWAP3 PUSH2 0x7FE PUSH2 0x7F7 PUSH1 0x1 SWAP3 PUSH2 0x7EF DUP8 PUSH2 0x7A4 JUMP JUMPDEST DUP2 MSTORE PUSH1 0x20 ADD SWAP1 JUMP JUMPDEST SWAP5 PUSH1 0x1 ADD SWAP1 JUMP JUMPDEST SWAP3 SWAP2 ADD PUSH2 0x7CD JUMP JUMPDEST SWAP1 PUSH2 0x13C SWAP2 PUSH2 0x7AE JUMP JUMPDEST SWAP1 PUSH2 0x173 PUSH2 0x5C6 SWAP3 PUSH2 0x821 PUSH1 0x40 MLOAD SWAP1 JUMP JUMPDEST SWAP4 DUP5 DUP1 SWAP3 PUSH2 0x806 JUMP JUMPDEST PUSH2 0x13C SWAP1 PUSH2 0x810 JUMP JUMPDEST PUSH2 0x13C PUSH1 0x5 PUSH2 0x82A JUMP JUMPDEST PUSH2 0x13C SWAP1 PUSH2 0x130 JUMP JUMPDEST PUSH2 0x13C SWAP1 SLOAD PUSH2 0x83D JUMP JUMPDEST ISZERO PUSH2 0x857 JUMPI JUMP JUMPDEST PUSH1 0x40 MLOAD PUSH3 0x461BCD PUSH1 0xE5 SHL DUP2 MSTORE PUSH1 0x20 PUSH1 0x4 DUP3 ADD MSTORE PUSH1 0x23 PUSH1 0x24 DUP3 ADD MSTORE PUSH32 0x4F6E6C792063726561746F722063616E2063616C6C20746869732066756E6374 PUSH1 0x44 DUP3 ADD MSTORE PUSH3 0x34B7B7 PUSH1 0xE9 SHL PUSH1 0x64 DUP3 ADD MSTORE PUSH1 0x84 SWAP1 REVERT JUMPDEST PUSH2 0x173 SWAP1 PUSH2 0x8D0 PUSH2 0x8C1 PUSH2 0x8BC PUSH1 0x3 PUSH2 0x846 JUMP JUMPDEST PUSH2 0x130 JUMP JUMPDEST PUSH2 0x8CA CALLER PUSH2 0x130 JUMP JUMPDEST EQ PUSH2 0x850 JUMP JUMPDEST PUSH2 0x92B JUMP JUMPDEST SWAP1 PUSH1 0x1 PUSH1 0x1 PUSH1 0xA0 SHL SUB SWAP1 JUMPDEST SWAP2 DUP2 NOT AND SWAP2 AND OR SWAP1 JUMP JUMPDEST PUSH2 0x13C SWAP1 PUSH2 0x130 SWAP1 PUSH1 0x1 PUSH1 0x1 PUSH1 0xA0 SHL SUB AND DUP3 JUMP JUMPDEST PUSH2 0x13C SWAP1 PUSH2 0x8EA JUMP JUMPDEST PUSH2 0x13C SWAP1 PUSH2 0x8FE JUMP JUMPDEST SWAP1 PUSH2 0x920 PUSH2 0x13C PUSH2 0x927 SWAP3 PUSH2 0x907 JUMP JUMPDEST DUP3 SLOAD PUSH2 0x8D5 JUMP JUMPDEST SWAP1 SSTORE JUMP JUMPDEST PUSH2 0x173 SWAP1 PUSH1 0x3 PUSH2 0x910 JUMP JUMPDEST PUSH2 0x173 SWAP1 PUSH2 0x8A8 JUMP JUMPDEST PUSH2 0x173 SWAP1 PUSH2 0x953 PUSH2 0x8C1 PUSH2 0x8BC PUSH1 0x3 PUSH2 0x846 JUMP JUMPDEST PUSH2 0xADA JUMP JUMPDEST SWAP2 PUSH1 0x0 NOT PUSH1 0x8 SWAP3 SWAP1 SWAP3 MUL SWAP2 DUP3 SHL SWAP2 SHL PUSH2 0x8E0 JUMP JUMPDEST SWAP2 SWAP1 PUSH2 0x97D PUSH2 0x13C PUSH2 0x927 SWAP4 PUSH2 0x1CA JUMP JUMPDEST SWAP1 DUP4 SLOAD PUSH2 0x958 JUMP JUMPDEST PUSH2 0x173 SWAP2 PUSH1 0x0 SWAP2 PUSH2 0x96C JUMP JUMPDEST DUP2 DUP2 LT PUSH2 0x99C JUMPI POP POP JUMP JUMPDEST DUP1 PUSH2 0x9AA PUSH1 0x0 PUSH1 0x1 SWAP4 PUSH2 0x985 JUMP JUMPDEST ADD PUSH2 0x991 JUMP JUMPDEST SWAP2 SWAP1 PUSH1 0x1F DUP2 GT PUSH2 0x9BF JUMPI POP POP POP JUMP JUMPDEST PUSH2 0x9D1 PUSH2 0x173 SWAP4 PUSH1 0x0 MSTORE PUSH1 0x20 PUSH1 0x0 KECCAK256 SWAP1 JUMP JUMPDEST SWAP1 PUSH1 0x20 PUSH1 0x1F DUP5 ADD DUP2 SWAP1 DIV DUP4 ADD SWAP4 LT PUSH2 0x9F3 JUMPI JUMPDEST PUSH1 0x20 PUSH1 0x1F SWAP1 SWAP2 ADD DIV ADD SWAP1 PUSH2 0x991 JUMP JUMPDEST SWAP1 SWAP2 POP DUP2 SWAP1 PUSH2 0x9E4 JUMP JUMPDEST SWAP1 PUSH2 0xA06 DUP2 MLOAD SWAP1 JUMP JUMPDEST SWAP1 PUSH8 0xFFFFFFFFFFFFFFFF DUP3 GT PUSH2 0x3BF JUMPI PUSH2 0xA2A DUP3 PUSH2 0xA24 DUP6 SLOAD PUSH2 0x4F4 JUMP JUMPDEST DUP6 PUSH2 0x9B0 JUMP JUMPDEST PUSH1 0x20 SWAP1 PUSH1 0x1F DUP4 GT PUSH1 0x1 EQ PUSH2 0xA65 JUMPI PUSH2 0x927 SWAP3 SWAP2 PUSH1 0x0 SWAP2 DUP4 PUSH2 0xA5A JUMPI JUMPDEST POP POP PUSH1 0x0 NOT PUSH1 0x8 DUP4 MUL SHR NOT AND SWAP1 PUSH1 0x2 MUL OR SWAP1 JUMP JUMPDEST ADD MLOAD SWAP1 POP CODESIZE DUP1 PUSH2 0xA46 JUMP JUMPDEST PUSH1 0x1F NOT DUP4 AND SWAP2 PUSH2 0xA7A DUP6 PUSH1 0x0 MSTORE PUSH1 0x20 PUSH1 0x0 KECCAK256 SWAP1 JUMP JUMPDEST SWAP3 PUSH1 0x0 JUMPDEST DUP2 DUP2 LT PUSH2 0xAB8 JUMPI POP SWAP2 PUSH1 0x2 SWAP4 SWAP2 DUP6 PUSH1 0x1 SWAP7 SWAP5 LT PUSH2 0xA9F JUMPI JUMPDEST POP POP POP MUL ADD SWAP1 SSTORE JUMP JUMPDEST ADD MLOAD PUSH1 0x0 NOT PUSH1 0x8 PUSH1 0x1F DUP6 AND MUL SHR NOT AND SWAP1 SSTORE CODESIZE DUP1 DUP1 PUSH2 0xA96 JUMP JUMPDEST SWAP2 SWAP4 PUSH1 0x20 PUSH1 0x1 DUP2 SWAP3 DUP8 DUP8 ADD MLOAD DUP2 SSTORE ADD SWAP6 ADD SWAP3 ADD PUSH2 0xA7E JUMP JUMPDEST SWAP1 PUSH2 0x173 SWAP2 PUSH2 0x9FD JUMP JUMPDEST PUSH2 0x173 SWAP1 PUSH1 0x7 PUSH2 0xAD0 JUMP JUMPDEST PUSH2 0x173 SWAP1 PUSH2 0x93F JUMP JUMPDEST ISZERO PUSH2 0xAF5 JUMPI JUMP JUMPDEST PUSH1 0x40 MLOAD PUSH3 0x461BCD PUSH1 0xE5 SHL DUP2 MSTORE PUSH1 0x20 PUSH1 0x4 DUP3 ADD MSTORE PUSH1 0x19 PUSH1 0x24 DUP3 ADD MSTORE PUSH32 0x537461727420696E646578206F7574206F6620626F756E647300000000000000 PUSH1 0x44 DUP3 ADD MSTORE PUSH1 0x64 SWAP1 REVERT JUMPDEST PUSH4 0x4E487B71 PUSH1 0xE0 SHL PUSH1 0x0 MSTORE PUSH1 0x11 PUSH1 0x4 MSTORE PUSH1 0x24 PUSH1 0x0 REVERT JUMPDEST SWAP2 SWAP1 DUP3 ADD DUP1 SWAP3 GT PUSH2 0xB5D JUMPI JUMP JUMPDEST PUSH2 0xB3A JUMP JUMPDEST SWAP2 SWAP1 DUP3 SUB SWAP2 DUP3 GT PUSH2 0xB5D JUMPI JUMP JUMPDEST PUSH8 0xFFFFFFFFFFFFFFFF DUP2 GT PUSH2 0x3BF JUMPI PUSH1 0x20 DUP1 SWAP2 MUL ADD SWAP1 JUMP JUMPDEST SWAP1 PUSH2 0xB94 PUSH2 0x411 DUP4 PUSH2 0xB6F JUMP JUMPDEST SWAP2 DUP3 MSTORE JUMP JUMPDEST CALLDATASIZE SWAP1 CALLDATACOPY JUMP JUMPDEST SWAP1 PUSH2 0x173 PUSH2 0xBB4 PUSH2 0xBAE DUP5 PUSH2 0xB87 JUMP JUMPDEST SWAP4 PUSH2 0xB6F JUMP JUMPDEST PUSH1 0x1F NOT ADD PUSH1 0x20 DUP5 ADD PUSH2 0xB99 JUMP JUMPDEST SWAP1 PUSH2 0xBCA DUP3 MLOAD SWAP1 JUMP JUMPDEST DUP2 LT ISZERO PUSH2 0x71D JUMPI PUSH1 0x20 DUP1 SWAP2 MUL ADD ADD SWAP1 JUMP JUMPDEST SWAP2 PUSH2 0xC08 PUSH2 0xC00 PUSH1 0x5 SWAP4 PUSH2 0xBFA PUSH2 0xBF3 PUSH2 0x13C DUP8 SLOAD SWAP1 JUMP JUMPDEST DUP8 LT PUSH2 0xAEE JUMP JUMPDEST DUP6 PUSH2 0xB50 JUMP JUMPDEST DUP4 SLOAD SWAP1 PUSH2 0xCA9 JUMP JUMPDEST SWAP2 PUSH2 0xC1B PUSH2 0xC16 DUP6 DUP6 PUSH2 0xB62 JUMP JUMPDEST PUSH2 0xB9E JUMP JUMPDEST SWAP2 DUP5 JUMPDEST DUP5 JUMPDEST DUP2 LT ISZERO PUSH2 0xC61 JUMPI PUSH2 0xC5A DUP2 PUSH2 0xC54 PUSH2 0xC3E PUSH2 0x73A PUSH2 0xC20 SWAP6 DUP9 PUSH2 0x6FA JUMP JUMPDEST PUSH2 0xC51 PUSH2 0xC4B DUP12 DUP6 PUSH2 0xB62 JUMP JUMPDEST DUP10 PUSH2 0xBC1 JUMP JUMPDEST MSTORE JUMP JUMPDEST PUSH1 0x1 ADD SWAP1 JUMP JUMPDEST SWAP1 POP PUSH2 0xC1E JUMP JUMPDEST POP SWAP4 POP POP SWAP1 POP SWAP1 JUMP JUMPDEST PUSH2 0x173 SWAP1 PUSH2 0xC7E PUSH2 0x8C1 PUSH2 0x8BC PUSH1 0x3 PUSH2 0x846 JUMP JUMPDEST PUSH2 0x173 SWAP1 PUSH1 0x8 PUSH2 0xAD0 JUMP JUMPDEST PUSH2 0x173 SWAP1 PUSH2 0xC6A JUMP JUMPDEST PUSH2 0x73A PUSH2 0x13C SWAP2 PUSH2 0xCA1 PUSH1 0x0 SWAP1 JUMP JUMPDEST POP PUSH1 0x5 PUSH2 0x6FA JUMP JUMPDEST SWAP1 DUP1 DUP3 LT ISZERO PUSH2 0xCB6 JUMPI POP SWAP1 JUMP JUMPDEST SWAP1 POP SWAP1 JUMP INVALID LOG2 PUSH5 0x6970667358 0x22 SLT KECCAK256 0xCF CREATE2 DUP14 0x22 0xCD 0x4D 0xBF EQ 0x29 SHL 0xBF DUP4 STATICCALL MSIZE 0xD4 PUSH24 0x27648141890692A2E3BFCE4F9A18959964736F6C63430008 SHR STOP CALLER "},"methodIdentifiers":{"availableTokens(uint256)":"ad64d068","baseURI()":"6c0360eb","creator()":"02d05d3f","creatorFeePercent()":"53613dd3","currentSupply()":"771282f6","description()":"7284e416","getAllAvailableTokens()":"12ea5c7e","getAvailableTokenByIndex(uint256)":"cf6a68bf","getAvailableTokensCount()":"2dcd52f2","getAvailableTokensPaginated(uint256,uint256)":"5eba096b","initialPrice()":"1d0806ae","maxSupply()":"d5abeb01","setBaseURI(string)":"55f804b3","setCreator(address)":"3f516018","setDescription(string)":"90c3f38f","tokenIndex(uint256)":"0583e9f8"}}}}}