{"src/examples/FlipNFT.sol":{"FlipNFT":{"abi":[{"inputs":[{"internalType":"string","name":"_name","type":"string"},{"internalType":"string","name":"_symbol","type":"string"},{"internalType":"uint256","name":"_initialPrice","type":"uint256"},{"internalType":"uint256","name":"_maxSupply","type":"uint256"},{"internalType":"uint256","name":"_creatorFeePercent","type":"uint256"}],"stateMutability":"nonpayable","type":"constructor"},{"inputs":[],"name":"ERC721EnumerableForbiddenBatchMint","type":"error"},{"inputs":[{"internalType":"address","name":"sender","type":"address"},{"internalType":"uint256","name":"tokenId","type":"uint256"},{"internalType":"address","name":"owner","type":"address"}],"name":"ERC721IncorrectOwner","type":"error"},{"inputs":[{"internalType":"address","name":"operator","type":"address"},{"internalType":"uint256","name":"tokenId","type":"uint256"}],"name":"ERC721InsufficientApproval","type":"error"},{"inputs":[{"internalType":"address","name":"approver","type":"address"}],"name":"ERC721InvalidApprover","type":"error"},{"inputs":[{"internalType":"address","name":"operator","type":"address"}],"name":"ERC721InvalidOperator","type":"error"},{"inputs":[{"internalType":"address","name":"owner","type":"address"}],"name":"ERC721InvalidOwner","type":"error"},{"inputs":[{"internalType":"address","name":"receiver","type":"address"}],"name":"ERC721InvalidReceiver","type":"error"},{"inputs":[{"internalType":"address","name":"sender","type":"address"}],"name":"ERC721InvalidSender","type":"error"},{"inputs":[{"internalType":"uint256","name":"tokenId","type":"uint256"}],"name":"ERC721NonexistentToken","type":"error"},{"inputs":[{"internalType":"address","name":"owner","type":"address"},{"internalType":"uint256","name":"index","type":"uint256"}],"name":"ERC721OutOfBoundsIndex","type":"error"},{"inputs":[{"internalType":"address","name":"owner","type":"address"}],"name":"OwnableInvalidOwner","type":"error"},{"inputs":[{"internalType":"address","name":"account","type":"address"}],"name":"OwnableUnauthorizedAccount","type":"error"},{"anonymous":false,"inputs":[{"indexed":true,"internalType":"address","name":"owner","type":"address"},{"indexed":true,"internalType":"address","name":"approved","type":"address"},{"indexed":true,"internalType":"uint256","name":"tokenId","type":"uint256"}],"name":"Approval","type":"event"},{"anonymous":false,"inputs":[{"indexed":true,"internalType":"address","name":"owner","type":"address"},{"indexed":true,"internalType":"address","name":"operator","type":"address"},{"indexed":false,"internalType":"bool","name":"approved","type":"bool"}],"name":"ApprovalForAll","type":"event"},{"anonymous":false,"inputs":[{"indexed":true,"internalType":"address","name":"previousOwner","type":"address"},{"indexed":true,"internalType":"address","name":"newOwner","type":"address"}],"name":"OwnershipTransferred","type":"event"},{"anonymous":false,"inputs":[{"indexed":true,"internalType":"address","name":"buyer","type":"address"},{"indexed":true,"internalType":"uint256","name":"tokenId","type":"uint256"},{"indexed":false,"internalType":"uint256","name":"price","type":"uint256"},{"indexed":false,"internalType":"uint256","name":"creatorFee","type":"uint256"}],"name":"TokenBought","type":"event"},{"anonymous":false,"inputs":[{"indexed":true,"internalType":"address","name":"to","type":"address"},{"indexed":true,"internalType":"uint256","name":"tokenId","type":"uint256"},{"indexed":false,"internalType":"uint256","name":"price","type":"uint256"},{"indexed":false,"internalType":"uint256","name":"creatorFee","type":"uint256"}],"name":"TokenMinted","type":"event"},{"anonymous":false,"inputs":[{"indexed":true,"internalType":"address","name":"seller","type":"address"},{"indexed":true,"internalType":"uint256","name":"tokenId","type":"uint256"},{"indexed":false,"internalType":"uint256","name":"price","type":"uint256"},{"indexed":false,"internalType":"uint256","name":"creatorFee","type":"uint256"}],"name":"TokenSold","type":"event"},{"anonymous":false,"inputs":[{"indexed":true,"internalType":"address","name":"from","type":"address"},{"indexed":true,"internalType":"address","name":"to","type":"address"},{"indexed":true,"internalType":"uint256","name":"tokenId","type":"uint256"}],"name":"Transfer","type":"event"},{"inputs":[{"internalType":"address","name":"to","type":"address"},{"internalType":"uint256","name":"tokenId","type":"uint256"}],"name":"approve","outputs":[],"stateMutability":"nonpayable","type":"function"},{"inputs":[{"internalType":"uint256","name":"","type":"uint256"}],"name":"availableTokens","outputs":[{"internalType":"uint256","name":"","type":"uint256"}],"stateMutability":"view","type":"function"},{"inputs":[{"internalType":"address","name":"owner","type":"address"}],"name":"balanceOf","outputs":[{"internalType":"uint256","name":"","type":"uint256"}],"stateMutability":"view","type":"function"},{"inputs":[],"name":"baseURI","outputs":[{"internalType":"string","name":"","type":"string"}],"stateMutability":"view","type":"function"},{"inputs":[{"internalType":"uint256","name":"tokenId","type":"uint256"}],"name":"buy","outputs":[],"stateMutability":"payable","type":"function"},{"inputs":[{"internalType":"uint256","name":"supply","type":"uint256"}],"name":"calculatePrice","outputs":[{"internalType":"uint256","name":"","type":"uint256"}],"stateMutability":"view","type":"function"},{"inputs":[],"name":"creator","outputs":[{"internalType":"address","name":"","type":"address"}],"stateMutability":"view","type":"function"},{"inputs":[],"name":"creatorFeePercent","outputs":[{"internalType":"uint256","name":"","type":"uint256"}],"stateMutability":"view","type":"function"},{"inputs":[],"name":"currentSupply","outputs":[{"internalType":"uint256","name":"","type":"uint256"}],"stateMutability":"view","type":"function"},{"inputs":[],"name":"description","outputs":[{"internalType":"string","name":"","type":"string"}],"stateMutability":"view","type":"function"},{"inputs":[],"name":"getAllAvailableTokens","outputs":[{"internalType":"uint256[]","name":"","type":"uint256[]"}],"stateMutability":"view","type":"function"},{"inputs":[{"internalType":"uint256","name":"tokenId","type":"uint256"}],"name":"getApproved","outputs":[{"internalType":"address","name":"","type":"address"}],"stateMutability":"view","type":"function"},{"inputs":[{"internalType":"uint256","name":"index","type":"uint256"}],"name":"getAvailableTokenByIndex","outputs":[{"internalType":"uint256","name":"","type":"uint256"}],"stateMutability":"view","type":"function"},{"inputs":[],"name":"getAvailableTokensCount","outputs":[{"internalType":"uint256","name":"","type":"uint256"}],"stateMutability":"view","type":"function"},{"inputs":[{"internalType":"uint256","name":"start","type":"uint256"},{"internalType":"uint256","name":"limit","type":"uint256"}],"name":"getAvailableTokensPaginated","outputs":[{"internalType":"uint256[]","name":"","type":"uint256[]"}],"stateMutability":"view","type":"function"},{"inputs":[],"name":"getBuyPrice","outputs":[{"internalType":"uint256","name":"","type":"uint256"}],"stateMutability":"view","type":"function"},{"inputs":[],"name":"getBuyPriceAfterFee","outputs":[{"internalType":"uint256","name":"","type":"uint256"}],"stateMutability":"view","type":"function"},{"inputs":[],"name":"getSellPrice","outputs":[{"internalType":"uint256","name":"","type":"uint256"}],"stateMutability":"view","type":"function"},{"inputs":[],"name":"getSellPriceAfterFee","outputs":[{"internalType":"uint256","name":"","type":"uint256"}],"stateMutability":"view","type":"function"},{"inputs":[],"name":"initialPrice","outputs":[{"internalType":"uint256","name":"","type":"uint256"}],"stateMutability":"view","type":"function"},{"inputs":[{"internalType":"address","name":"owner","type":"address"},{"internalType":"address","name":"operator","type":"address"}],"name":"isApprovedForAll","outputs":[{"internalType":"bool","name":"","type":"bool"}],"stateMutability":"view","type":"function"},{"inputs":[{"internalType":"uint256","name":"tokenId","type":"uint256"}],"name":"isOnSale","outputs":[{"internalType":"bool","name":"","type":"bool"}],"stateMutability":"view","type":"function"},{"inputs":[],"name":"maxSupply","outputs":[{"internalType":"uint256","name":"","type":"uint256"}],"stateMutability":"view","type":"function"},{"inputs":[],"name":"mint","outputs":[{"internalType":"uint256","name":"","type":"uint256"}],"stateMutability":"payable","type":"function"},{"inputs":[],"name":"name","outputs":[{"internalType":"string","name":"","type":"string"}],"stateMutability":"view","type":"function"},{"inputs":[{"internalType":"address","name":"","type":"address"},{"internalType":"address","name":"","type":"address"},{"internalType":"uint256","name":"","type":"uint256"},{"internalType":"bytes","name":"","type":"bytes"}],"name":"onERC721Received","outputs":[{"internalType":"bytes4","name":"","type":"bytes4"}],"stateMutability":"nonpayable","type":"function"},{"inputs":[],"name":"owner","outputs":[{"internalType":"address","name":"","type":"address"}],"stateMutability":"view","type":"function"},{"inputs":[{"internalType":"uint256","name":"tokenId","type":"uint256"}],"name":"ownerOf","outputs":[{"internalType":"address","name":"","type":"address"}],"stateMutability":"view","type":"function"},{"inputs":[],"name":"renounceOwnership","outputs":[],"stateMutability":"nonpayable","type":"function"},{"inputs":[{"internalType":"address","name":"from","type":"address"},{"internalType":"address","name":"to","type":"address"},{"internalType":"uint256","name":"tokenId","type":"uint256"}],"name":"safeTransferFrom","outputs":[],"stateMutability":"nonpayable","type":"function"},{"inputs":[{"internalType":"address","name":"from","type":"address"},{"internalType":"address","name":"to","type":"address"},{"internalType":"uint256","name":"tokenId","type":"uint256"},{"internalType":"bytes","name":"data","type":"bytes"}],"name":"safeTransferFrom","outputs":[],"stateMutability":"nonpayable","type":"function"},{"inputs":[{"internalType":"uint256","name":"tokenId","type":"uint256"}],"name":"sell","outputs":[],"stateMutability":"nonpayable","type":"function"},{"inputs":[{"internalType":"address","name":"operator","type":"address"},{"internalType":"bool","name":"approved","type":"bool"}],"name":"setApprovalForAll","outputs":[],"stateMutability":"nonpayable","type":"function"},{"inputs":[{"internalType":"string","name":"_baseURI","type":"string"}],"name":"setBaseURI","outputs":[],"stateMutability":"nonpayable","type":"function"},{"inputs":[{"internalType":"address","name":"_creator","type":"address"}],"name":"setCreator","outputs":[],"stateMutability":"nonpayable","type":"function"},{"inputs":[{"internalType":"string","name":"_description","type":"string"}],"name":"setDescription","outputs":[],"stateMutability":"nonpayable","type":"function"},{"inputs":[{"internalType":"bytes4","name":"interfaceId","type":"bytes4"}],"name":"supportsInterface","outputs":[{"internalType":"bool","name":"","type":"bool"}],"stateMutability":"view","type":"function"},{"inputs":[],"name":"symbol","outputs":[{"internalType":"string","name":"","type":"string"}],"stateMutability":"view","type":"function"},{"inputs":[{"internalType":"uint256","name":"index","type":"uint256"}],"name":"tokenByIndex","outputs":[{"internalType":"uint256","name":"","type":"uint256"}],"stateMutability":"view","type":"function"},{"inputs":[{"internalType":"uint256","name":"","type":"uint256"}],"name":"tokenIndex","outputs":[{"internalType":"uint256","name":"","type":"uint256"}],"stateMutability":"view","type":"function"},{"inputs":[{"internalType":"address","name":"owner","type":"address"},{"internalType":"uint256","name":"index","type":"uint256"}],"name":"tokenOfOwnerByIndex","outputs":[{"internalType":"uint256","name":"","type":"uint256"}],"stateMutability":"view","type":"function"},{"inputs":[{"internalType":"uint256","name":"","type":"uint256"}],"name":"tokenSeed","outputs":[{"internalType":"uint256","name":"","type":"uint256"}],"stateMutability":"view","type":"function"},{"inputs":[{"internalType":"uint256","name":"tokenId","type":"uint256"}],"name":"tokenURI","outputs":[{"internalType":"string","name":"","type":"string"}],"stateMutability":"view","type":"function"},{"inputs":[],"name":"totalSupply","outputs":[{"internalType":"uint256","name":"","type":"uint256"}],"stateMutability":"view","type":"function"},{"inputs":[{"internalType":"address","name":"from","type":"address"},{"internalType":"address","name":"to","type":"address"},{"internalType":"uint256","name":"tokenId","type":"uint256"}],"name":"transferFrom","outputs":[],"stateMutability":"nonpayable","type":"function"},{"inputs":[{"internalType":"address","name":"newOwner","type":"address"}],"name":"transferOwnership","outputs":[],"stateMutability":"nonpayable","type":"function"},{"stateMutability":"payable","type":"receive"}],"evm":{"bytecode":{"linkReferences":{},"object":"60806040523461002e5761001d610014610171565b93929092610196565b604051613e46610bbd8239613e4690f35b600080fd5b634e487b7160e01b600052604160045260246000fd5b90601f01601f191681019081106001600160401b0382111761006a57604052565b610033565b9061008361007c60405190565b9283610049565b565b6001600160401b03811161006a57602090601f01601f19160190565b60005b8381106100b45750506000910152565b81810151838201526020016100a4565b909291926100d96100d482610085565b61006f565b938185528183011161002e576100839160208501906100a1565b9080601f8301121561002e57815161010d926020016100c4565b90565b919060a08382031261002e5782516001600160401b03811161002e57816101389185016100f3565b60208401519093906001600160401b03811161002e578261015a9183016100f3565b604082015160608301516080909301519194909350565b61018f614a03803803806101848161006f565b928339810190610110565b9091929394565b906100839493929161089b565b6001600160401b03811161006a5760200290565b6100d461010d916101a3565b906101d06100d483610085565b918252565b6101df60076101c3565b660233030303030360cc1b602082015290565b61010d6101d5565b61020460076101c3565b6611a3232323232360c91b602082015290565b61010d6101fa565b61022960076101c3565b660234646303030360cc1b602082015290565b61010d61021f565b61024e60076101c3565b660233030464630360cc1b602082015290565b61010d610244565b61027360076101c3565b661198181818232360c91b602082015290565b61010d610269565b61029860076101c3565b660234646464630360cc1b602082015290565b61010d61028e565b6102bd60076101c3565b6611a3231818232360c91b602082015290565b61010d6102b3565b6102e260076101c3565b661198182323232360c91b602082015290565b61010d6102d8565b61030760076101c3565b660234646413530360cc1b602082015290565b61010d6102fd565b61032c60076101c3565b660233830303038360cc1b602082015290565b61010d610322565b61035160076101c3565b660233030383030360cc1b602082015290565b61010d610347565b61037660076101c3565b660233830303030360cc1b602082015290565b61010d61036c565b61039b60076101c3565b660233830383030360cc1b602082015290565b61010d610391565b6103c060076101c3565b660233030383038360cc1b602082015290565b61010d6103b6565b6103e560076101c3565b660234330433043360cc1b602082015290565b61010d6103db565b61040a60076101c3565b660233830383038360cc1b602082015290565b61010d610400565b634e487b7160e01b600052600060045260246000fd5b634e487b7160e01b600052602260045260246000fd5b9060016002830492168015610471575b602083101461046c57565b61043b565b91607f1691610461565b9061048e90600019906020036008021c90565b8154169055565b9160001960089290920291821b911b5b9181191691161790565b61010d61010d61010d9290565b91906104cd61010d6104d5936104af565b908354610495565b9055565b610083916000916104bc565b8181106104f0575050565b806104fe60006001936104d9565b016104e5565b9060009161052f61051a82600052602060002090565b928354600019600883021c1916906002021790565b905555565b919290602082101561059957601f8411600114610563576104d5929350600019600883021c1916906002021790565b509061059461008393600161058b61058085600052602060002090565b92601f602091010490565b820191016104e5565b610504565b506105d982936105b0600194600052602060002090565b6105d26020601f860104820192601f8616806105e1575b50601f602091010490565b01906104e5565b600202179055565b6105ed9088860361047b565b386105c7565b92909168010000000000000000821161006a576020111561064c57602081101561062d576104d591600019600883021c1916906002021790565b60019160ff191661064384600052602060002090565b55600202019055565b60019150600202019055565b90815461066481610451565b9081831161068d575b81831061067b575b50505050565b61068493610534565b38808080610675565b610699838383876105f3565b61066d565b600061008391610658565b906000036106ba576100839061069e565b610425565b8181106106ca575050565b806106d860006001936106a9565b016106bf565b9190918282106106ed57505050565b6100839291906106fc565b9190565b91820191016106bf565b9068010000000000000000811161006a57610083916010906106de565b9190601f811161073257505050565b61074461008393600052602060002090565b906020601f840181900483019310610764575b6020601f909101046105d2565b9091508190610757565b90610777815190565b906001600160401b03821161006a5761079a826107948554610451565b85610723565b602090601f83116001146107d5576104d59291600091836107ca575b5050600019600883021c1916906002021790565b0151905038806107b6565b601f198316916107ea85600052602060002090565b9260005b8181106108285750916002939185600196941061080f575b50505002019055565b01516000196008601f8516021c19169055388080610806565b919360206001819287870151815501950192016107ee565b906100839161076e565b61085d6106f860109361010d8585610706565b6000915b83831061086e5750505050565b600160208261088561087f84955190565b86610840565b01920192019190610861565b906100839161084a565b906108a8949392916109e1565b6100836108b560106101b7565b6108c46108c06101f2565b8252565b6108d66108cf610217565b6020830152565b6108e86108e161023c565b6040830152565b6108fa6108f3610261565b6060830152565b61090c610905610286565b6080830152565b61091e6109176102ab565b60a0830152565b6109306109296102d0565b60c0830152565b61094261093b6102f5565b60e0830152565b61095561094d61031a565b610100830152565b61096861096061033f565b610120830152565b61097b610973610364565b610140830152565b61098e610986610389565b610160830152565b6109a16109996103ae565b610180830152565b6109b46109ac6103d3565b6101a0830152565b6109c76109bf6103f8565b6101c0830152565b6109da6109d261041d565b6101e0830152565b6015610891565b610083948594859433929190610a6b565b90600019906104a5565b90610a0c61010d6104d5926104af565b82546109f2565b906001600160a01b03906104a5565b61010d90610a36906001600160a01b031682565b6001600160a01b031690565b61010d90610a22565b61010d90610a42565b90610a6461010d6104d592610a4b565b8254610a13565b610a81610a9696610a88939496610a8f96610aa1565b600b6109fc565b600c6109fc565b600d6109fc565b61008333600e610a54565b906100839291610adf565b610a3661010d61010d9290565b61010d90610aac565b610acb90610a36565b9052565b6020810192916100839190610ac2565b91610ae991610b33565b6000610af481610ab9565b610afd81610a36565b610b0684610a36565b14610b1657505061008390610b65565b631e4fbdf760e01b82528190610b2f9060048301610acf565b0390fd5b61008391829182918291829190610b4b906000610840565b6001610840565b61010d90610a36565b61010d9054610b52565b610b8b610b85610b75600a610b5b565b610b8084600a610a54565b610a4b565b91610a4b565b907f8be0079c531659141344cd1fd0a4f28419497f9722a3daafe3b4186f6b6457e0610bb660405190565b600090a356fe6080604052600436101561001b575b361561001957600080fd5b005b60003560e01c8063018a25e8146102fb57806301ffc9a7146102f657806302d05d3f146102f15780630583e9f8146102ec57806306fdde03146102e7578063081812fc146102e2578063095ea7b3146102dd5780631249c58b146102d857806312ea5c7e146102d3578063150b7a02146102ce57806318160ddd146102c95780631d0806ae146102c457806321a1c184146102bf57806323b872dd146102ba5780632dcd52f2146102b55780632f745c59146102b05780633f516018146102ab57806342842e0e146102a657806343d32e9c146102a15780634a8fe6501461029c5780634f6ccce71461029757806353613dd31461029257806355f804b31461028d5780635eba096b146102885780635f516836146102835780636352211e1461027e5780636c0360eb1461027957806370a0823114610274578063715018a61461026f5780637284e4161461026a578063771282f6146102655780638da5cb5b1461026057806390c3f38f1461025b57806395d89b4114610256578063a22cb46514610251578063ad64d0681461024c578063ae10426514610247578063b88d4fde14610242578063c87b56dd1461023d578063cf6a68bf14610238578063d5abeb0114610233578063d96a094a1461022e578063e4849b3214610229578063e985e9c514610224578063f0f2805f1461021f5763f2fde38b0361000e57610de2565b610dc7565b610dab565b610d70565b610d5d565b610d42565b610d1b565b610d00565b610ce4565b610cc9565b610cae565b610c39565b610be6565b610bce565b610bb3565b610b98565b610b71565b610b4d565b610b32565b610b17565b6109d5565b6109ba565b61098e565b61095a565b610919565b6108f2565b6108d7565b6108bc565b6108a3565b61088b565b61085b565b61083f565b610826565b6107e2565b6107c7565b61079f565b610765565b61062a565b6105ad565b61058f565b61053b565b610514565b61048d565b6103ef565b61037c565b610316565b600091031261030b57565b600080fd5b9052565b565b3461030b57610326366004610300565b610341610331610e0b565b6040519182918290815260200190565b0390f35b6001600160e01b031981165b0361030b57565b9050359061031482610345565b9060208282031261030b5761037991610358565b90565b3461030b57610341610397610392366004610365565b610e18565b6040515b91829182901515815260200190565b610379916008021c5b6001600160a01b031690565b9061037991546103aa565b6103796000600e6103bf565b610310906103b3565b60208101929161031491906103d6565b3461030b576103ff366004610300565b61034161040a6103ca565b604051918291826103df565b80610351565b9050359061031482610416565b9060208282031261030b576103799161041c565b6103796103796103799290565b906104549061043d565b600052602052604060002090565b610379916008021c81565b906103799154610462565b600061048861037992601161044a565b61046d565b3461030b576103416103316104a3366004610429565b610478565b60005b8381106104bb5750506000910152565b81810151838201526020016104ab565b6104ec6104f56020936104ff936104e0815190565b80835293849260200190565b958691016104a8565b601f01601f191690565b0190565b6020808252610379929101906104cb565b3461030b57610524366004610300565b61034161052f610e55565b60405191829182610503565b3461030b5761034161040a610551366004610429565b610e5f565b610351816103b3565b9050359061031482610556565b919060408382031261030b57610379906020610588828661055f565b940161041c565b3461030b576105a86105a236600461056c565b90610e72565b604051005b6105b8366004610300565b610341610331610ed0565b906105e36105dc6105d2845190565b8084529260200190565b9260200190565b9060005b8181106105f45750505090565b90919261061161060a6001928651815260200190565b9460200190565b9291016105e7565b6020808252610379929101906105c3565b3461030b5761063a366004610300565b610341610645610f8f565b60405191829182610619565b634e487b7160e01b600052604160045260246000fd5b90601f01601f1916810190811067ffffffffffffffff82111761068957604052565b610651565b9061031461069b60405190565b9283610667565b67ffffffffffffffff811161068957602090601f01601f19160190565b90826000939282370152565b909291926106e06106db826106a2565b61068e565b938185528183011161030b576103149160208501906106bf565b9080601f8301121561030b57816020610379933591016106cb565b9060808282031261030b5761072a818361055f565b92610738826020850161055f565b92610746836040830161041c565b92606082013567ffffffffffffffff811161030b5761037992016106fa565b3461030b5761034161078461077b366004610715565b92919091610fdc565b604051918291826001600160e01b0319909116815260200190565b3461030b576107af366004610300565b61034161033160085490565b6103796000600b61046d565b3461030b576107d7366004610300565b6103416103316107bb565b3461030b576107f2366004610300565b610341610331611046565b909160608284031261030b57610379610816848461055f565b936040610588826020870161055f565b3461030b576105a86108393660046107fd565b916110c8565b3461030b5761084f366004610300565b61034161033160105490565b3461030b5761034161033161087136600461056c565b90611182565b9060208282031261030b576103799161055f565b3461030b576105a861089e366004610877565b611298565b3461030b576105a86108b63660046107fd565b916112c5565b3461030b576108cc366004610300565b6103416103316112d9565b3461030b576108e7366004610300565b61034161033161131d565b3461030b57610341610331610908366004610429565b611338565b6103796000600d61046d565b3461030b57610929366004610300565b61034161033161090d565b9060208282031261030b57813567ffffffffffffffff811161030b5761037992016106fa565b3461030b576105a861096d366004610934565b611524565b919060408382031261030b57610379906020610588828661041c565b3461030b576103416106456109a4366004610972565b906115e0565b600061048861037992601461044a565b3461030b576103416103316109d0366004610429565b6109aa565b3461030b5761034161040a6109eb366004610429565b61166f565b634e487b7160e01b600052600060045260246000fd5b634e487b7160e01b600052602260045260246000fd5b9060016002830492168015610a3c575b6020831014610a3757565b610a06565b91607f1691610a2c565b80546000939291610a63610a5983610a1c565b8085529360200190565b9160018116908115610ab55750600114610a7c57505050565b610a8f9192939450600052602060002090565b916000925b818410610aa15750500190565b805484840152602090930192600101610a94565b92949550505060ff1916825215156020020190565b9061037991610a46565b90610314610aee92610ae560405190565b93848092610aca565b0383610667565b90600010610b065761037990610ad4565b6109f0565b61037960006012610af5565b3461030b57610b27366004610300565b61034161052f610b0b565b3461030b57610341610331610b48366004610877565b611678565b3461030b57610b5d366004610300565b6105a86116e0565b61037960006013610af5565b3461030b57610b81366004610300565b61034161052f610b65565b6103796000600f61046d565b3461030b57610ba8366004610300565b610341610331610b8c565b3461030b57610bc3366004610300565b61034161040a6116e8565b3461030b576105a8610be1366004610934565b611711565b3461030b57610bf6366004610300565b61034161052f61171a565b801515610351565b9050359061031482610c01565b919060408382031261030b57610379906020610c32828661055f565b9401610c09565b3461030b576105a8610c4c366004610c16565b90611724565b634e487b7160e01b600052603260045260246000fd5b8054821015610c8b57610c82600191600052602060002090565b91020190600090565b610c52565b60105481101561030b57610ca8610379916010610c68565b9061046d565b3461030b57610341610331610cc4366004610429565b610c90565b3461030b57610341610331610cdf366004610429565b61172f565b3461030b576105a8610cf7366004610715565b929190916117c0565b3461030b5761034161052f610d16366004610429565b6118c6565b3461030b57610341610331610d31366004610429565b61197f565b6103796000600c61046d565b3461030b57610d52366004610300565b610341610331610d36565b6105a8610d6b366004610429565b611bc3565b3461030b576105a8610d83366004610429565b611dcf565b919060408382031261030b57610379906020610da4828661055f565b940161055f565b3461030b57610341610397610dc1366004610d88565b90611ded565b3461030b57610341610397610ddd366004610429565b611e12565b3461030b576105a8610df5366004610877565b611e7c565b6103799081565b6103799054610dfa565b610379610cdf600f610e01565b610e2181611e85565b908115610e2c575090565b9050610e48632fa757f360e01b5b916001600160e01b03191690565b1490565b61037990610ad4565b6103796000610e4c565b61037990610e6c81611e8e565b50611ece565b610314913391611eea565b634e487b7160e01b600052601160045260246000fd5b91908201809211610ea057565b610e7d565b90600019905b9181191691161790565b90610ec5610379610ecc9261043d565b8254610ea5565b9055565b610eec610edc60085490565b610ee6600161043d565b90610e93565b610ef4611f38565b50610379610f0382601461044a565b4290610eb5565b90610f25610f196105d2845490565b92600052602060002090565b9060005b818110610f365750505090565b909192610f5a610f53600192610f4b87610e01565b815260200190565b9460010190565b929101610f29565b9061037991610f0a565b90610314610aee92610f7d60405190565b93848092610f62565b61037990610f6c565b6103796010610f86565b610379906103b3906001600160a01b031682565b61037990610f99565b610fcf610fc96103799263ffffffff1690565b60e01b90565b6001600160e01b03191690565b50505050610fe8600090565b5061037963150b7a02610fb6565b81810292918115918404141715610ea057565b634e487b7160e01b600052601260045260246000fd5b90611029565b9190565b908115611034570490565b611009565b91908203918211610ea057565b6103796110516112d9565b61107e611067611061600d610e01565b83610ff6565b611078670de0b6b3a764000061043d565b9061101f565b90611039565b6103b36103796103799290565b61037990611084565b6040906110c161031494969593966110ba606084019860008501906103d6565b6020830152565b01906103d6565b90916000926110d684611091565b6110df816103b3565b6110e8836103b3565b1461113757506110fa90823391611ff2565b91611104816103b3565b61110d846103b3565b036111185750505050565b6364283d7b60e01b845283926111339290916004850161109a565b0390fd5b846111338192633250574960e11b8352600483016103df565b91602061031492949361116b604082019660008301906103d6565b0152565b61037990610fad565b906104549061116f565b61118e61037982611678565b8210156111b157610379916111a76111ac926006611178565b61044a565b610e01565b63295f44f760e21b6000908152916111ca916004611150565b036000fd5b610379906103b3565b61037990546111cf565b156111e957565b60405162461bcd60e51b815260206004820152602360248201527f4f6e6c792063726561746f722063616e2063616c6c20746869732066756e637460448201526234b7b760e91b6064820152608490fd5b6103149061126261125361124e600e6111d8565b6103b3565b61125c336103b3565b146111e2565b61128d565b906001600160a01b0390610eab565b90611286610379610ecc9261116f565b8254611267565b61031490600e611276565b6103149061123a565b906112ae6106db836106a2565b918252565b61037960006112a1565b6103796112b3565b9091610314926112d36112bd565b926117c0565b6112e3600f610e01565b6112f0611025600061043d565b111561131057610379610cdf611306600f610e01565b61107e600161043d565b610379610cdf600061043d565b610379611328610e0b565b610ee6611067611061600d610e01565b61134461037960085490565b81101561135957610ca8610379916008610c68565b61113390600091829161136b83611091565b63295f44f760e21b845260048401611150565b6103149061139261125361124e600e6111d8565b611519565b9160001960089290920291821b911b610eab565b91906113bc610379610ecc9361043d565b908354611397565b610314916000916113ab565b8181106113db575050565b806113e960006001936113c4565b016113d0565b9190601f81116113fe57505050565b61141061031493600052602060002090565b906020601f840181900483019310611432575b6020601f9091010401906113d0565b9091508190611423565b90611445815190565b9067ffffffffffffffff821161068957611469826114638554610a1c565b856113ef565b602090601f83116001146114a457610ecc929160009183611499575b5050600019600883021c1916906002021790565b015190503880611485565b601f198316916114b985600052602060002090565b9260005b8181106114f7575091600293918560019694106114de575b50505002019055565b01516000196008601f8516021c191690553880806114d5565b919360206001819287870151815501950192016114bd565b906103149161143c565b61031490601261150f565b6103149061137e565b1561153457565b60405162461bcd60e51b815260206004820152601960248201527f537461727420696e646578206f7574206f6620626f756e6473000000000000006044820152606490fd5b67ffffffffffffffff81116106895760208091020190565b906112ae6106db83611579565b369037565b906103146115b96115b384611591565b93611579565b601f19016020840161159e565b906115cf825190565b811015610c8b576020809102010190565b9161160d6116056010936115ff6115f8610379875490565b871061152d565b85610e93565b835490611ffd565b9161162061161b8585611039565b6115a3565b91845b845b8110156116665761165f81611659611643610ca86116259588610c68565b6116566116508b85611039565b896115c6565b52565b60010190565b9050611623565b50935050905090565b61037990611e8e565b600061168381611091565b61168c816103b3565b611695846103b3565b146116aa5750506111ac610379916003611178565b6322718ad960e21b8252819061113390600483016103df565b6116cb61200f565b6103146103146116db6000611091565b612046565b6103146116c3565b610379600a6111d8565b6103149061170661125361124e600e6111d8565b61031490601361150f565b610314906116f2565b6103796001610e4c565b6103149190336120bf565b611739600061043d565b81146117b55761037990610ee6611750600b610e01565b916117776117a06117966117966117a561177d61176d600b610e01565b611777600261043d565b90610ff6565b6117776117a061179689611791606461043d565b610ff6565b611078600c610e01565b612183565b946117918161179161271061043d565b50610379600b610e01565b906103149392916117d28383836110c8565b6122dd565b01918252565b6103799061043d565b6104ff6117fe926020926117f8815190565b94859290565b938491016104a8565b7f7b226465736372697074696f6e223a2022466c69704e4654206973207468652081527f666972737420426f6e64696e67204375727665204e46542e222c2022696d616760208201527f65223a2022646174613a696d6167652f7376672b786d6c3b6261736536342c0060408201526103799161188891605f015b906117e6565b61227d60f01b815260020190565b7f646174613a6170706c69636174696f6e2f6a736f6e3b6261736536342c00000081526103799190601d01611882565b61196361194261037961194761194261037961193d611919611925610379996118ed606090565b506118fc6111ac82601461044a565b6040519384926020840192836020816117d76104ff938396959052565b90810382520382610667565b611937611930825190565b9160200190565b206117dd565b61257e565b612821565b61037961195360405190565b8092611919602083019182611807565b61037961196f60405190565b8092611919602083019182611896565b610ca86103799161198e600090565b506010610c68565b1561199d57565b60405162461bcd60e51b815260206004820152601f60248201527f546f6b656e206973206e6f7420617661696c61626c6520666f722073616c65006044820152606490fd5b61031490611a0d6119f28261166f565b611a07611a0161124e3061116f565b916103b3565b14611996565b611ad4565b15611a1957565b60405162461bcd60e51b8152602060048201526014602482015273125b9cdd59999a58da595b9d081c185e5b595b9d60621b6044820152606490fd5b6000198114610ea05760010190565b9081526040810192916103149160200152565b3d15611a9157611a863d6112a1565b903d6000602084013e565b606090565b15611a9d57565b60405162461bcd60e51b815260206004820152600f60248201526e151c985b9cd9995c8819985a5b1959608a1b6044820152606490fd5b611bbe61031491611ae3610e0b565b611af3611067611061600d610e01565b91611b0c611b046103798585610e93565b341015611a12565b611b2081611b193061116f565b339061291e565b611b29816129e1565b611b45611b3e611b39600f610e01565b611a55565b600f610eb5565b611b57611b513361116f565b9161043d565b907f884543c08d36fb5c9b3b688dd0453c9f287199124bdbddb3b7f9ca885a4d34a0611b8260405190565b80611b8e878783611a64565b0390a3611bb9600080611ba1600e6111d8565b60405160009187905af1611bb3611a77565b50611a96565b610e93565b612a84565b610314906119e2565b15611bd357565b60405162461bcd60e51b815260206004820152601360248201527221b0b63632b91034b9903737ba1037bbb732b960691b6044820152606490fd5b61031490611c30611c1e8261166f565b611c2a611a01336103b3565b14611bcc565b611cda565b8015610ea0576000190190565b15611c4957565b60405162461bcd60e51b815260206004820152601960248201527f5472616e7366657220746f2073656c6c6572206661696c6564000000000000006044820152606490fd5b15611c9557565b60405162461bcd60e51b815260206004820152601a60248201527f5472616e7366657220746f2063726561746f72206661696c65640000000000006044820152606490fd5b60008061031492611da68280611cee6112d9565b93611d8e611d08611067611d02600d610e01565b88610ff6565b8096611d113390565b93611d2581611d1f3061116f565b8761291e565b611d2e81612af6565b611d43611b3e611d3e600f610e01565b611c35565b611d4f611b518661116f565b907f8323bebb324b6e1a1d4886a1f210640461bb275263dae69967f001d053ab0b2b611d7a60405190565b80611d86878783611a64565b0390a3611039565b60405190818003925af1611da0611a77565b50611c42565b611db0600e6111d8565b90611dba60405190565b90818003925af1611dc9611a77565b50611c8e565b61031490611c0e565b610379905b60ff1690565b6103799054611dd8565b61037991611e08611e0d92611e00600090565b506005611178565b611178565b611de3565b611e1b9061166f565b610e48611a0161124e3061116f565b61031490611e3661200f565b6000611e4181611091565b611e4a816103b3565b611e53846103b3565b14611e6357505061031490612046565b631e4fbdf760e01b8252819061113390600483016103df565b61031490611e2a565b61037990612b1c565b611e9781612b45565b90600090611ea761124e83611091565b611eb0846103b3565b14611eba57505090565b637e27328960e01b82526004820152602490fd5b611ee561037991611edd600090565b50600461044a565b6111d8565b9160019161031493612b5c565b15611efe57565b60405162461bcd60e51b815260206004820152601260248201527113585e081cdd5c1c1b1e481c995858da195960721b6044820152606490fd5b611f5a611f4460085490565b611f54611025610379600c610e01565b10611ef7565b611f62610e0b565b610379611bbe611f7e611067611f78600d610e01565b85610ff6565b611f8e611b046103798387610e93565b611f9a610edc60085490565b93611fa58533612c84565b611fb5611b3e611b39600f610e01565b611fbe3361116f565b611fc78661043d565b907f10546b1a6f5245ff0ffa18c256b9e46859c585cbb473b453fcd4c2dc39ae08db611b8260405190565b610379929190612c96565b908082101561200a575090565b905090565b6120176116e8565b3390612025611a01836103b3565b0361202d5750565b63118cdaa760e01b6000908152906111ca9060046103df565b61206c612066612056600a6111d8565b61206184600a611276565b61116f565b9161116f565b907f8be0079c531659141344cd1fd0a4f28419497f9722a3daafe3b4186f6b6457e061209760405190565b80805b0390a3565b9060ff90610eab565b906120b8610379610ecc92151590565b825461209f565b60006120cd61124e82611091565b6120d6846103b3565b1461212f575061209a61212561211f836120618761211a88611e087f17307eab39ab6107e8899845ad3d59bd9653f200f220920489ca2b5937696c31996005611178565b6120a8565b9361116f565b9361039b60405190565b630b61174360e31b81528061113384600483016103df565b611ddd6103796103799290565b610379906121686110256103799460ff1690565b901c90565b6103799061217e6110256103799490565b901b90565b61218d600061043d565b811461227357600161219e82612d2f565b6121a782612147565b8080808080966121b8828098612154565b906121c29061043d565b906121cc9161216d565b6121d6818a61101f565b01906121e191612154565b6121eb818961101f565b01906121f691612154565b612200818861101f565b019061220b91612154565b612215818761101f565b019061222091612154565b61222a818661101f565b019061223591612154565b61223f818561101f565b019061224a91612154565b612254818461101f565b019061225f91612154565b908161226a9161101f565b61037991611ffd565b50610379600061043d565b9050519061031482610345565b9060208282031261030b576103799161227e565b90926122d0906122c961037996946122bf608086019760008701906103d6565b60208501906103d6565b6040830152565b60608184039101526104cb565b6000939192833b6122f06110258761043d565b116122fd575b5050505050565b60209161230c6120618661116f565b90863361233561231b60405190565b97889687958694630a85bd0160e11b86526004860161229f565b03925af1600091816123c9575b506123945750612357565b38808080806122f6565b61235f611a77565b805161236d6110258561043d565b0361238c5750633250574960e11b8252819061113390600483016103df565b805190602001fd5b6123a4630a85bd0160e11b610e3a565b036123b057505061234d565b633250574960e11b8252819061113390600483016103df565b6123ec91925060203d6020116123f3575b6123e48183610667565b81019061228b565b9038612342565b503d6123da565b8115611034570690565b610379608061068e565b612416612404565b60008082526020820181905260408201819052606082015290565b61037961240e565b60005b82811061244857505050565b602090612453612431565b818401520161243c565b9061031461246d6115b384611591565b601f190160208401612439565b6118829061037993926117e6565b9161188261255d61256c9361188261251e610379977f3c73766720786d6c6e733d22687474703a2f2f7777772e77332e6f72672f323081527f30302f737667222077696474683d2234303022206865696768743d223430302260208201527f2076696577426f783d223020302031323420313234222066696c6c3d226e6f6e60408201526232911f60e91b606082015260630190565b7f3c726563742077696474683d2231323422206865696768743d2231323422207281526c3c1e91191a11103334b6361e9160991b6020820152602d0190565b6211179f60e91b815260030190565b651e17b9bb339f60d11b815260060190565b6125ab60609161192561259060405190565b60208082019384529092839161191990426104ff82856117d7565b9081926125d86125ce6125bd85612ef2565b946125c8600361043d565b906123fa565b610ee6600261043d565b916125e28361245d565b90936000946125f08661043d565b945b805b86101561277857612603612431565b92600093896126118a61043d565b9560015b15612761575b50505087809861263361262e8a8d610e93565b612f78565b93849861263f8461043d565b8b81101561274f5761265b612654828c6115c6565b5188613097565b6126675760010161263f565b5098929a509350999461267b600191611a55565b906126a8829761192561268d60405190565b60208082019384529092839161191990886104ff82856117d7565b9b8c926126b8611025600a61043d565b111561261557506126d2919293959a9896509893985b1590565b6126f3575b50506126e66125f49160010190565b95905095909193956125f2565b611919610379849a61272e856127298861274697612723828f6126e69c61271d6125f49f836115c6565b526115c6565b50610e93565b613182565b9061273860405190565b93849260208401928361247a565b979150886126d7565b5098929a919b9661267b919550611a55565b8061261b576126d2919293959a9896509893981590565b5091506103799295506103799450611919935061279460405190565b938492602084019283612488565b6127ac60406112a1565b7f4142434445464748494a4b4c4d4e4f505152535455565758595a61626364656660208201527f6768696a6b6c6d6e6f707172737475767778797a303132333435363738392b2f604082015290565b6103796127a2565b6103796127fb565b906103146115b961281b846112a1565b936106a2565b8051612830611025600061043d565b146129155761283d612803565b906128496125ce825190565b90600161287161286c612862600395611078600361043d565b611791600461043d565b61280b565b93016020840192829183518401906020820192835194600085525b8381106128cd57505050509060039291525106806001146128bc576002146128b2575090565b6001603d91035390565b50600281603d600181940353035390565b8160019198929394980191603f828080865194848660121c168a01518153018385600c1c16890151815301828460061c1688015181530191168501518153019692919061288c565b506103796112bd565b91929060009261292d84611091565b91612937836103b3565b612940826103b3565b1461298a57612953838761295993611ff2565b926103b3565b612962836103b3565b0361297d57637e27328960e01b845260048401859052602484fd5b61110481959293956103b3565b633250574960e11b8552848061113385600483016103df565b634e487b7160e01b600052603160045260246000fd5b805480156129dc5760001901906129d96129d38383610c68565b906113c4565b55565b6129a3565b6000612a436103149260116111a7612a3e6129ff6111ac858561044a565b610379601091612a39612a1f610ca8612a19611306875490565b86610c68565b612a3381612a2d8588610c68565b906113ab565b8761044a565b610eb5565b6129b9565b6113c4565b15612a4f57565b60405162461bcd60e51b815260206004820152600d60248201526c1499599d5b990819985a5b1959609a1b6044820152606490fd5b612a8e9034611039565b612a98600061043d565b8111612aa15750565b60008061031492612aaf3390565b90612ab960405190565b90818003925af1612ac8611a77565b50612a48565b90815491680100000000000000008310156106895782612a2d91600161031495018155610c68565b61031490612b05816010612ace565b612a39612b1461130660105490565b91601161044a565b63780e9d6360e01b6001600160e01b0319821614908115612b3b575090565b610379915061321e565b611ee561037991612b54600090565b50600261044a565b92919091808115612c66575b612b83575b505090612b7e61031492600461044a565b611276565b612b8c83611e8e565b91600090612b9c61124e83611091565b612ba5826103b3565b141580612c4c575b80612c39575b612c2057505091612b7e916103149493612bd0575b509192612b6d565b612bd99061116f565b612be28461116f565b612beb8361043d565b917f8c5be1e5ebec7d5bd14f71427d1e84f3dd0314c0f7b2291e5b200ac8c7c3b925612c1660405190565b600090a438612bc8565b63a9fbf51f60e01b8252819061113390600483016103df565b50612c476126ce8286611ded565b612bb3565b50612c56816103b3565b612c5f856103b3565b1415612bad565b50612c7461124e6000611091565b612c7d836103b3565b1415612b68565b61031491612c906112bd565b91613269565b9091612ca3908383613283565b91612cd1612cb16000611091565b612cba816103b3565b612cc3866103b3565b03612d0e5761124e83613432565b612cda836103b3565b03612ce9576103799150613483565b612cf2826103b3565b612cfb846103b3565b03612d0557505090565b61037991613454565b612d17846103b3565b612d20866103b3565b146103b35761124e83866133b1565b6000612e2a611025612e24612d438461043d565b94612d57612d516080612147565b82612154565b868111612eca575b50612d6d612d516040612147565b612d768661043d565b8111612eb3575b50612d8b612d516020612147565b612d948661043d565b8111612e9c575b50612da9612d516010612147565b612db28661043d565b8111612e85575b50612dc7612d516008612147565b612dd08661043d565b8111612e6e575b50612de5612d516004612147565b612dee8661043d565b8111612e57575b50612e03612d516002612147565b612e0c8661043d565b8111612e40575b50612e1e6001612147565b90612154565b9261043d565b11612e325790565b610379906104ff600161043d565b612e509150956104ff600261043d565b9438612e13565b612e679150956104ff600461043d565b9438612df5565b612e7e9150956104ff600861043d565b9438612dd7565b612e959150956104ff601061043d565b9438612db9565b612eac9150956104ff602061043d565b9438612d9b565b612ec39150956104ff604061043d565b9438612d7d565b612eda9150956104ff608061043d565b9438612d5f565b6010821015610c8b57600190610c82565b612f13612f0c61037992612f04606090565b5060106125c8565b6015612ee1565b50610e4c565b612f289060ff165b9160ff1690565b90039060ff8211610ea057565b612f419060ff16612f21565b019060ff8211610ea057565b6103796103796103799260ff1690565b612f699060ff16612f21565b029060ff8216918203610ea057565b612f80612431565b50610379612f8e6018612147565b613086613068612fe7612fec612fe7612fa76019612147565b610ee6612fe1612fdb612fd6612fc685612fc1603e612147565b612f19565b612fd06001612147565b90612f35565b612f4d565b8b6123fa565b91612f4d565b612147565b93610ee6612fe161304661303b612fe761303261302c612fd66130138d612fc1607c612147565b6130268a6130216002612147565b612f5d565b90612f19565b8d6123fa565b610ee687612f4d565b99612e1e6008612147565b6125c8612fd661305a8a612fc1607c612147565b613026876130216002612147565b61307c613073612404565b60ff9096168652565b60ff166020850152565b60ff16604083018190526060830152565b90816130a4815160ff1690565b82906130c7612f21611ddd6130ba855160ff1690565b604088015160ff16612fd0565b109384613156575b50508261311b575b826130e157505090565b613117919250611ddd602061310e83612fd0606061310585612f2198015160ff1690565b92015160ff1690565b94015160ff1690565b1190565b915061312b602083015160ff1690565b61314f612f21611ddd613142602086015160ff1690565b606086015160ff16612fd0565b10916130d7565b61317991929450611ddd6131716130ba612f21935160ff1690565b935160ff1690565b119138806130cf565b6131ab6131a661319b613195600561043d565b846123fa565b92610ee6600161043d565b612ef2565b906131b6600061043d565b81036131c65750610379916139fd565b6131d0600161043d565b81036131e057506103799161392b565b6131ea600261043d565b81036131fa57506103799161392b565b613207611025600361043d565b0361321557610379916136f9565b6103799161355d565b6380ac58cd60e01b6001600160e01b031982161490811561324e575b8115613244575090565b6103799150613a85565b6001600160e01b03198116635b5e139f60e01b14915061323a565b9061031492916132798282613a95565b6117d26000611091565b906132d661329082612b45565b93600061329c81611091565b91846132a7846103b3565b6132b0836103b3565b036133a0575b50506132c1826103b3565b6132ca876103b3565b03613365575b506103b3565b6132df836103b3565b03613335575b6132f482612b7e83600261044a565b613303611b5161211f8561116f565b917fddf252ad1be2c89b69c2b068fc378daa952ba7f163c4a11628f55a4df523b3ef61332e60405190565b600090a490565b613360613342600161043d565b61335a613350856003611178565b916104ff83610e01565b90610eb5565b6132e5565b61337190828581612b5c565b61339a61337e600161043d565b61335a61338c886003611178565b9161339683610e01565b0390565b386132d0565b6133aa9188613b0b565b38846132b6565b612a43610314926111a76000936133f085612a436133ce84611678565b956007856133df6111ac848461044a565b898082036133f7575b50505061044a565b6006611178565b6111a761342484612a398561341a6111ac612a39976111a761342a9b6006611178565b9485936006611178565b8461044a565b8538896133e8565b6103149061344d61344260085490565b612a3983600961044a565b6008612ace565b612a398261347c61031494612a396111a79561347261130682611678565b9687916006611178565b600761044a565b612a3e610314916103796000612a436008936134a0611306865490565b6111a7600991612a396134c3610ca86134bc6111ac888861044a565b938b610c68565b61342481612a2d858d610c68565b6110299060ff16612f21565b610379979561188261353c6118829761188261352f6135499961188261353c61255d9f9b61188261352f6118829d61188261352f9e701e3837b63cb3b7b7103837b4b73a399e9160791b815260110190565b600b60fa1b815260010190565b600160fd1b815260010190565b6711103334b6361e9160c11b815260080190565b90819061356b825160ff1690565b61357490612f4d565b61357d90613b6b565b602083019161358d835160ff1690565b92606085019361359e855160ff1690565b6135a791612f35565b6135b090612f4d565b6135b990613b6b565b936135c5875160ff1690565b95604001956135d5875160ff1690565b6135df6002612147565b6135e8916134d1565b6135f191612f35565b6135fa90612f4d565b61360390613b6b565b9561360f835160ff1690565b61361890612f4d565b61362190613b6b565b975160ff16905160ff1661363491612f35565b61363d90612f4d565b61364690613b6b565b915160ff16905160ff1661365991612f35565b61366290612f4d565b61366b90613b6b565b9061367560405190565b968796602088019661368796886134dd565b9081038252036103799082610667565b61353c6118829761188261352f613549996118826103799f9d9761255d9f9b61188261352f6118829d61188261353c61352f9f6118826118829f61353c9961188261352f92701e3837b63cb3b7b7103837b4b73a399e9160791b815260110190565b80613705815160ff1690565b926040830190613716825160ff1690565b9460029561372387612147565b61372c916134d1565b61373591612f35565b61373e90612f4d565b61374790613b6b565b9160208501613757815160ff1690565b61376090612f4d565b61376990613b6b565b94613775815160ff1690565b61377e90612f4d565b61378790613b6b565b96613793835160ff1690565b90606001906137a3825160ff1690565b6137ac8b612147565b6137b5916134d1565b6137be91612f35565b6137c790612f4d565b6137d090613b6b565b986137dc835160ff1690565b855160ff166137ea83612147565b6137f3916134d1565b6137fc91612f35565b61380590612f4d565b61380e90613b6b565b9461381a855160ff1690565b835160ff1661382891612f35565b61383190612f4d565b61383a90613b6b565b935160ff16905160ff1661384d91612f35565b61385690612f4d565b61385f90613b6b565b935160ff16915160ff169061387390612147565b61387c916134d1565b61388591612f35565b61388e90612f4d565b61389790613b6b565b926138a160405190565b98899860208a0198613687988a613697565b936118826139156103799795611882613900611882976118826138ef6135499961188261255d9e681e3932b1ba103c1e9160b91b815260090190565b6411103c9e9160d91b815260050190565b6811103bb4b23a341e9160b91b815260090190565b6911103432b4b3b43a1e9160b11b8152600a0190565b6103796103799261393a606090565b5061395161394c612fd6855160ff1690565b613b6b565b61191961396861394c612fd6602088015160ff1690565b9261399161394c612fd6606061398861394c612fd660408d015160ff1690565b99015160ff1690565b6040519687956020870195866138b3565b61255d936118826139ec61037997956118826139da61188297611882613549986b1e31b4b931b6329031bc1e9160a11b8152600c0190565b65111031bc9e9160d11b815260060190565b641110391e9160d91b815260050190565b90610379613a6261037993613a10606090565b50611919613a6d61394c613a6761394c612fd66000613a62602061398861394c612fd68c613a55613a45604083015160ff1690565b613a4f6002612147565b906134d1565b9e8f978892015160ff1690565b612f35565b94612f4d565b94613a7760405190565b9586946020860194856139a2565b610e486301ffc9a760e01b610e3a565b600091613aa183611091565b91613aab836103b3565b613ab4826103b3565b14613af257613ac4918391611ff2565b613ad0611a01836103b3565b03613ad9575050565b6339e3563760e11b8252819061113390600483016103df565b633250574960e11b8452838061113385600483016103df565b90613b1a6126ce848385613bf8565b613b2357505050565b6000928392613b37611a0161124e86611091565b03613b5457637e27328960e01b8352600483015250602481010390fd5b63177e802f60e01b83526111339160048401611150565b613b7481613c7c565b90613b856001926104ff600161043d565b9180613b908461280b565b936020018401905b613ba3575b50505090565b8115613bf357613bd79060001901926f181899199a1a9b1b9c1cb0b131b232b360811b600a82061a8453611078600a61043d565b9081613be6611025600061043d565b14613bf357909181613b98565b613b9d565b90613c0661124e6000611091565b613c0f826103b3565b14159283613c1d5750505090565b90919250613c2a826103b3565b613c33846103b3565b14928315613c68575b508215613c4e575b5050388080613b9d565b613c60919250612953611a0191611ece565b143880613c44565b613c759193508290611ded565b9138613c3c565b613c86600061043d565b907a184f03e93ff9f4daa797ed6e38ed64bf6a1f010000000000000000613cac8161043d565b821015613dee575b506d04ee2d6d415b85acef8100000000613ccd8161043d565b821015613dcc575b50662386f26fc10000613ce78161043d565b821015613daa575b506305f5e100613cfe8161043d565b821015613d88575b50612710613d138161043d565b821015613d66575b50613d26606461043d565b811015613d44575b613d3b611025600a61043d565b1015612e325790565b613d55613d6091611078606461043d565b916104ff600261043d565b90613d2e565b613d8191611078613d769261043d565b916104ff600461043d565b9038613d1b565b613da391611078613d989261043d565b916104ff600861043d565b9038613d06565b613dc591611078613dba9261043d565b916104ff601061043d565b9038613cef565b613de791611078613ddc9261043d565b916104ff602061043d565b9038613cd5565b613e0991611078613dfe9261043d565b916104ff604061043d565b9038613cb456fea26469706673582212205d0ff55ad215ef01182751f8ca6a2e25734f60cbf3a9f9e23993ce9b825e8f8164736f6c634300081c0033","opcodes":"PUSH1 0x80 PUSH1 0x40 MSTORE CALLVALUE PUSH2 0x2E JUMPI PUSH2 0x1D PUSH2 0x14 PUSH2 0x171 JUMP JUMPDEST SWAP4 SWAP3 SWAP1 SWAP3 PUSH2 0x196 JUMP JUMPDEST PUSH1 0x40 MLOAD PUSH2 0x3E46 PUSH2 0xBBD DUP3 CODECOPY PUSH2 0x3E46 SWAP1 RETURN JUMPDEST PUSH1 0x0 DUP1 REVERT JUMPDEST PUSH4 0x4E487B71 PUSH1 0xE0 SHL PUSH1 0x0 MSTORE PUSH1 0x41 PUSH1 0x4 MSTORE PUSH1 0x24 PUSH1 0x0 REVERT JUMPDEST SWAP1 PUSH1 0x1F ADD PUSH1 0x1F NOT AND DUP2 ADD SWAP1 DUP2 LT PUSH1 0x1 PUSH1 0x1 PUSH1 0x40 SHL SUB DUP3 GT OR PUSH2 0x6A JUMPI PUSH1 0x40 MSTORE JUMP JUMPDEST PUSH2 0x33 JUMP JUMPDEST SWAP1 PUSH2 0x83 PUSH2 0x7C PUSH1 0x40 MLOAD SWAP1 JUMP JUMPDEST SWAP3 DUP4 PUSH2 0x49 JUMP JUMPDEST JUMP JUMPDEST PUSH1 0x1 PUSH1 0x1 PUSH1 0x40 SHL SUB DUP2 GT PUSH2 0x6A JUMPI PUSH1 0x20 SWAP1 PUSH1 0x1F ADD PUSH1 0x1F NOT AND ADD SWAP1 JUMP JUMPDEST PUSH1 0x0 JUMPDEST DUP4 DUP2 LT PUSH2 0xB4 JUMPI POP POP PUSH1 0x0 SWAP2 ADD MSTORE JUMP JUMPDEST DUP2 DUP2 ADD MLOAD DUP4 DUP3 ADD MSTORE PUSH1 0x20 ADD PUSH2 0xA4 JUMP JUMPDEST SWAP1 SWAP3 SWAP2 SWAP3 PUSH2 0xD9 PUSH2 0xD4 DUP3 PUSH2 0x85 JUMP JUMPDEST PUSH2 0x6F JUMP JUMPDEST SWAP4 DUP2 DUP6 MSTORE DUP2 DUP4 ADD GT PUSH2 0x2E JUMPI PUSH2 0x83 SWAP2 PUSH1 0x20 DUP6 ADD SWAP1 PUSH2 0xA1 JUMP JUMPDEST SWAP1 DUP1 PUSH1 0x1F DUP4 ADD SLT ISZERO PUSH2 0x2E JUMPI DUP2 MLOAD PUSH2 0x10D SWAP3 PUSH1 0x20 ADD PUSH2 0xC4 JUMP JUMPDEST SWAP1 JUMP JUMPDEST SWAP2 SWAP1 PUSH1 0xA0 DUP4 DUP3 SUB SLT PUSH2 0x2E JUMPI DUP3 MLOAD PUSH1 0x1 PUSH1 0x1 PUSH1 0x40 SHL SUB DUP2 GT PUSH2 0x2E JUMPI DUP2 PUSH2 0x138 SWAP2 DUP6 ADD PUSH2 0xF3 JUMP JUMPDEST PUSH1 0x20 DUP5 ADD MLOAD SWAP1 SWAP4 SWAP1 PUSH1 0x1 PUSH1 0x1 PUSH1 0x40 SHL SUB DUP2 GT PUSH2 0x2E JUMPI DUP3 PUSH2 0x15A SWAP2 DUP4 ADD PUSH2 0xF3 JUMP JUMPDEST PUSH1 0x40 DUP3 ADD MLOAD PUSH1 0x60 DUP4 ADD MLOAD PUSH1 0x80 SWAP1 SWAP4 ADD MLOAD SWAP2 SWAP5 SWAP1 SWAP4 POP JUMP JUMPDEST PUSH2 0x18F PUSH2 0x4A03 DUP1 CODESIZE SUB DUP1 PUSH2 0x184 DUP2 PUSH2 0x6F JUMP JUMPDEST SWAP3 DUP4 CODECOPY DUP2 ADD SWAP1 PUSH2 0x110 JUMP JUMPDEST SWAP1 SWAP2 SWAP3 SWAP4 SWAP5 JUMP JUMPDEST SWAP1 PUSH2 0x83 SWAP5 SWAP4 SWAP3 SWAP2 PUSH2 0x89B JUMP JUMPDEST PUSH1 0x1 PUSH1 0x1 PUSH1 0x40 SHL SUB DUP2 GT PUSH2 0x6A JUMPI PUSH1 0x20 MUL SWAP1 JUMP JUMPDEST PUSH2 0xD4 PUSH2 0x10D SWAP2 PUSH2 0x1A3 JUMP JUMPDEST SWAP1 PUSH2 0x1D0 PUSH2 0xD4 DUP4 PUSH2 0x85 JUMP JUMPDEST SWAP2 DUP3 MSTORE JUMP JUMPDEST PUSH2 0x1DF PUSH1 0x7 PUSH2 0x1C3 JUMP JUMPDEST PUSH7 0x2330303030303 PUSH1 0xCC SHL PUSH1 0x20 DUP3 ADD MSTORE SWAP1 JUMP JUMPDEST PUSH2 0x10D PUSH2 0x1D5 JUMP JUMPDEST PUSH2 0x204 PUSH1 0x7 PUSH2 0x1C3 JUMP JUMPDEST PUSH7 0x11A32323232323 PUSH1 0xC9 SHL PUSH1 0x20 DUP3 ADD MSTORE SWAP1 JUMP JUMPDEST PUSH2 0x10D PUSH2 0x1FA JUMP JUMPDEST PUSH2 0x229 PUSH1 0x7 PUSH2 0x1C3 JUMP JUMPDEST PUSH7 0x2346463030303 PUSH1 0xCC SHL PUSH1 0x20 DUP3 ADD MSTORE SWAP1 JUMP JUMPDEST PUSH2 0x10D PUSH2 0x21F JUMP JUMPDEST PUSH2 0x24E PUSH1 0x7 PUSH2 0x1C3 JUMP JUMPDEST PUSH7 0x2330304646303 PUSH1 0xCC SHL PUSH1 0x20 DUP3 ADD MSTORE SWAP1 JUMP JUMPDEST PUSH2 0x10D PUSH2 0x244 JUMP JUMPDEST PUSH2 0x273 PUSH1 0x7 PUSH2 0x1C3 JUMP JUMPDEST PUSH7 0x11981818182323 PUSH1 0xC9 SHL PUSH1 0x20 DUP3 ADD MSTORE SWAP1 JUMP JUMPDEST PUSH2 0x10D PUSH2 0x269 JUMP JUMPDEST PUSH2 0x298 PUSH1 0x7 PUSH2 0x1C3 JUMP JUMPDEST PUSH7 0x2346464646303 PUSH1 0xCC SHL PUSH1 0x20 DUP3 ADD MSTORE SWAP1 JUMP JUMPDEST PUSH2 0x10D PUSH2 0x28E JUMP JUMPDEST PUSH2 0x2BD PUSH1 0x7 PUSH2 0x1C3 JUMP JUMPDEST PUSH7 0x11A32318182323 PUSH1 0xC9 SHL PUSH1 0x20 DUP3 ADD MSTORE SWAP1 JUMP JUMPDEST PUSH2 0x10D PUSH2 0x2B3 JUMP JUMPDEST PUSH2 0x2E2 PUSH1 0x7 PUSH2 0x1C3 JUMP JUMPDEST PUSH7 0x11981823232323 PUSH1 0xC9 SHL PUSH1 0x20 DUP3 ADD MSTORE SWAP1 JUMP JUMPDEST PUSH2 0x10D PUSH2 0x2D8 JUMP JUMPDEST PUSH2 0x307 PUSH1 0x7 PUSH2 0x1C3 JUMP JUMPDEST PUSH7 0x2346464135303 PUSH1 0xCC SHL PUSH1 0x20 DUP3 ADD MSTORE SWAP1 JUMP JUMPDEST PUSH2 0x10D PUSH2 0x2FD JUMP JUMPDEST PUSH2 0x32C PUSH1 0x7 PUSH2 0x1C3 JUMP JUMPDEST PUSH7 0x2338303030383 PUSH1 0xCC SHL PUSH1 0x20 DUP3 ADD MSTORE SWAP1 JUMP JUMPDEST PUSH2 0x10D PUSH2 0x322 JUMP JUMPDEST PUSH2 0x351 PUSH1 0x7 PUSH2 0x1C3 JUMP JUMPDEST PUSH7 0x2330303830303 PUSH1 0xCC SHL PUSH1 0x20 DUP3 ADD MSTORE SWAP1 JUMP JUMPDEST PUSH2 0x10D PUSH2 0x347 JUMP JUMPDEST PUSH2 0x376 PUSH1 0x7 PUSH2 0x1C3 JUMP JUMPDEST PUSH7 0x2338303030303 PUSH1 0xCC SHL PUSH1 0x20 DUP3 ADD MSTORE SWAP1 JUMP JUMPDEST PUSH2 0x10D PUSH2 0x36C JUMP JUMPDEST PUSH2 0x39B PUSH1 0x7 PUSH2 0x1C3 JUMP JUMPDEST PUSH7 0x2338303830303 PUSH1 0xCC SHL PUSH1 0x20 DUP3 ADD MSTORE SWAP1 JUMP JUMPDEST PUSH2 0x10D PUSH2 0x391 JUMP JUMPDEST PUSH2 0x3C0 PUSH1 0x7 PUSH2 0x1C3 JUMP JUMPDEST PUSH7 0x2330303830383 PUSH1 0xCC SHL PUSH1 0x20 DUP3 ADD MSTORE SWAP1 JUMP JUMPDEST PUSH2 0x10D PUSH2 0x3B6 JUMP JUMPDEST PUSH2 0x3E5 PUSH1 0x7 PUSH2 0x1C3 JUMP JUMPDEST PUSH7 0x2343304330433 PUSH1 0xCC SHL PUSH1 0x20 DUP3 ADD MSTORE SWAP1 JUMP JUMPDEST PUSH2 0x10D PUSH2 0x3DB JUMP JUMPDEST PUSH2 0x40A PUSH1 0x7 PUSH2 0x1C3 JUMP JUMPDEST PUSH7 0x2338303830383 PUSH1 0xCC SHL PUSH1 0x20 DUP3 ADD MSTORE SWAP1 JUMP JUMPDEST PUSH2 0x10D PUSH2 0x400 JUMP JUMPDEST PUSH4 0x4E487B71 PUSH1 0xE0 SHL PUSH1 0x0 MSTORE PUSH1 0x0 PUSH1 0x4 MSTORE PUSH1 0x24 PUSH1 0x0 REVERT JUMPDEST PUSH4 0x4E487B71 PUSH1 0xE0 SHL PUSH1 0x0 MSTORE PUSH1 0x22 PUSH1 0x4 MSTORE PUSH1 0x24 PUSH1 0x0 REVERT JUMPDEST SWAP1 PUSH1 0x1 PUSH1 0x2 DUP4 DIV SWAP3 AND DUP1 ISZERO PUSH2 0x471 JUMPI JUMPDEST PUSH1 0x20 DUP4 LT EQ PUSH2 0x46C JUMPI JUMP JUMPDEST PUSH2 0x43B JUMP JUMPDEST SWAP2 PUSH1 0x7F AND SWAP2 PUSH2 0x461 JUMP JUMPDEST SWAP1 PUSH2 0x48E SWAP1 PUSH1 0x0 NOT SWAP1 PUSH1 0x20 SUB PUSH1 0x8 MUL SHR SWAP1 JUMP JUMPDEST DUP2 SLOAD AND SWAP1 SSTORE JUMP JUMPDEST SWAP2 PUSH1 0x0 NOT PUSH1 0x8 SWAP3 SWAP1 SWAP3 MUL SWAP2 DUP3 SHL SWAP2 SHL JUMPDEST SWAP2 DUP2 NOT AND SWAP2 AND OR SWAP1 JUMP JUMPDEST PUSH2 0x10D PUSH2 0x10D PUSH2 0x10D SWAP3 SWAP1 JUMP JUMPDEST SWAP2 SWAP1 PUSH2 0x4CD PUSH2 0x10D PUSH2 0x4D5 SWAP4 PUSH2 0x4AF JUMP JUMPDEST SWAP1 DUP4 SLOAD PUSH2 0x495 JUMP JUMPDEST SWAP1 SSTORE JUMP JUMPDEST PUSH2 0x83 SWAP2 PUSH1 0x0 SWAP2 PUSH2 0x4BC JUMP JUMPDEST DUP2 DUP2 LT PUSH2 0x4F0 JUMPI POP POP JUMP JUMPDEST DUP1 PUSH2 0x4FE PUSH1 0x0 PUSH1 0x1 SWAP4 PUSH2 0x4D9 JUMP JUMPDEST ADD PUSH2 0x4E5 JUMP JUMPDEST SWAP1 PUSH1 0x0 SWAP2 PUSH2 0x52F PUSH2 0x51A DUP3 PUSH1 0x0 MSTORE PUSH1 0x20 PUSH1 0x0 KECCAK256 SWAP1 JUMP JUMPDEST SWAP3 DUP4 SLOAD PUSH1 0x0 NOT PUSH1 0x8 DUP4 MUL SHR NOT AND SWAP1 PUSH1 0x2 MUL OR SWAP1 JUMP JUMPDEST SWAP1 SSTORE SSTORE JUMP JUMPDEST SWAP2 SWAP3 SWAP1 PUSH1 0x20 DUP3 LT ISZERO PUSH2 0x599 JUMPI PUSH1 0x1F DUP5 GT PUSH1 0x1 EQ PUSH2 0x563 JUMPI PUSH2 0x4D5 SWAP3 SWAP4 POP PUSH1 0x0 NOT PUSH1 0x8 DUP4 MUL SHR NOT AND SWAP1 PUSH1 0x2 MUL OR SWAP1 JUMP JUMPDEST POP SWAP1 PUSH2 0x594 PUSH2 0x83 SWAP4 PUSH1 0x1 PUSH2 0x58B PUSH2 0x580 DUP6 PUSH1 0x0 MSTORE PUSH1 0x20 PUSH1 0x0 KECCAK256 SWAP1 JUMP JUMPDEST SWAP3 PUSH1 0x1F PUSH1 0x20 SWAP2 ADD DIV SWAP1 JUMP JUMPDEST DUP3 ADD SWAP2 ADD PUSH2 0x4E5 JUMP JUMPDEST PUSH2 0x504 JUMP JUMPDEST POP PUSH2 0x5D9 DUP3 SWAP4 PUSH2 0x5B0 PUSH1 0x1 SWAP5 PUSH1 0x0 MSTORE PUSH1 0x20 PUSH1 0x0 KECCAK256 SWAP1 JUMP JUMPDEST PUSH2 0x5D2 PUSH1 0x20 PUSH1 0x1F DUP7 ADD DIV DUP3 ADD SWAP3 PUSH1 0x1F DUP7 AND DUP1 PUSH2 0x5E1 JUMPI JUMPDEST POP PUSH1 0x1F PUSH1 0x20 SWAP2 ADD DIV SWAP1 JUMP JUMPDEST ADD SWAP1 PUSH2 0x4E5 JUMP JUMPDEST PUSH1 0x2 MUL OR SWAP1 SSTORE JUMP JUMPDEST PUSH2 0x5ED SWAP1 DUP9 DUP7 SUB PUSH2 0x47B JUMP JUMPDEST CODESIZE PUSH2 0x5C7 JUMP JUMPDEST SWAP3 SWAP1 SWAP2 PUSH9 0x10000000000000000 DUP3 GT PUSH2 0x6A JUMPI PUSH1 0x20 GT ISZERO PUSH2 0x64C JUMPI PUSH1 0x20 DUP2 LT ISZERO PUSH2 0x62D JUMPI PUSH2 0x4D5 SWAP2 PUSH1 0x0 NOT PUSH1 0x8 DUP4 MUL SHR NOT AND SWAP1 PUSH1 0x2 MUL OR SWAP1 JUMP JUMPDEST PUSH1 0x1 SWAP2 PUSH1 0xFF NOT AND PUSH2 0x643 DUP5 PUSH1 0x0 MSTORE PUSH1 0x20 PUSH1 0x0 KECCAK256 SWAP1 JUMP JUMPDEST SSTORE PUSH1 0x2 MUL ADD SWAP1 SSTORE JUMP JUMPDEST PUSH1 0x1 SWAP2 POP PUSH1 0x2 MUL ADD SWAP1 SSTORE JUMP JUMPDEST SWAP1 DUP2 SLOAD PUSH2 0x664 DUP2 PUSH2 0x451 JUMP JUMPDEST SWAP1 DUP2 DUP4 GT PUSH2 0x68D JUMPI JUMPDEST DUP2 DUP4 LT PUSH2 0x67B JUMPI JUMPDEST POP POP POP POP JUMP JUMPDEST PUSH2 0x684 SWAP4 PUSH2 0x534 JUMP JUMPDEST CODESIZE DUP1 DUP1 DUP1 PUSH2 0x675 JUMP JUMPDEST PUSH2 0x699 DUP4 DUP4 DUP4 DUP8 PUSH2 0x5F3 JUMP JUMPDEST PUSH2 0x66D JUMP JUMPDEST PUSH1 0x0 PUSH2 0x83 SWAP2 PUSH2 0x658 JUMP JUMPDEST SWAP1 PUSH1 0x0 SUB PUSH2 0x6BA JUMPI PUSH2 0x83 SWAP1 PUSH2 0x69E JUMP JUMPDEST PUSH2 0x425 JUMP JUMPDEST DUP2 DUP2 LT PUSH2 0x6CA JUMPI POP POP JUMP JUMPDEST DUP1 PUSH2 0x6D8 PUSH1 0x0 PUSH1 0x1 SWAP4 PUSH2 0x6A9 JUMP JUMPDEST ADD PUSH2 0x6BF JUMP JUMPDEST SWAP2 SWAP1 SWAP2 DUP3 DUP3 LT PUSH2 0x6ED JUMPI POP POP POP JUMP JUMPDEST PUSH2 0x83 SWAP3 SWAP2 SWAP1 PUSH2 0x6FC JUMP JUMPDEST SWAP2 SWAP1 JUMP JUMPDEST SWAP2 DUP3 ADD SWAP2 ADD PUSH2 0x6BF JUMP JUMPDEST SWAP1 PUSH9 0x10000000000000000 DUP2 GT PUSH2 0x6A JUMPI PUSH2 0x83 SWAP2 PUSH1 0x10 SWAP1 PUSH2 0x6DE JUMP JUMPDEST SWAP2 SWAP1 PUSH1 0x1F DUP2 GT PUSH2 0x732 JUMPI POP POP POP JUMP JUMPDEST PUSH2 0x744 PUSH2 0x83 SWAP4 PUSH1 0x0 MSTORE PUSH1 0x20 PUSH1 0x0 KECCAK256 SWAP1 JUMP JUMPDEST SWAP1 PUSH1 0x20 PUSH1 0x1F DUP5 ADD DUP2 SWAP1 DIV DUP4 ADD SWAP4 LT PUSH2 0x764 JUMPI JUMPDEST PUSH1 0x20 PUSH1 0x1F SWAP1 SWAP2 ADD DIV PUSH2 0x5D2 JUMP JUMPDEST SWAP1 SWAP2 POP DUP2 SWAP1 PUSH2 0x757 JUMP JUMPDEST SWAP1 PUSH2 0x777 DUP2 MLOAD SWAP1 JUMP JUMPDEST SWAP1 PUSH1 0x1 PUSH1 0x1 PUSH1 0x40 SHL SUB DUP3 GT PUSH2 0x6A JUMPI PUSH2 0x79A DUP3 PUSH2 0x794 DUP6 SLOAD PUSH2 0x451 JUMP JUMPDEST DUP6 PUSH2 0x723 JUMP JUMPDEST PUSH1 0x20 SWAP1 PUSH1 0x1F DUP4 GT PUSH1 0x1 EQ PUSH2 0x7D5 JUMPI PUSH2 0x4D5 SWAP3 SWAP2 PUSH1 0x0 SWAP2 DUP4 PUSH2 0x7CA JUMPI JUMPDEST POP POP PUSH1 0x0 NOT PUSH1 0x8 DUP4 MUL SHR NOT AND SWAP1 PUSH1 0x2 MUL OR SWAP1 JUMP JUMPDEST ADD MLOAD SWAP1 POP CODESIZE DUP1 PUSH2 0x7B6 JUMP JUMPDEST PUSH1 0x1F NOT DUP4 AND SWAP2 PUSH2 0x7EA DUP6 PUSH1 0x0 MSTORE PUSH1 0x20 PUSH1 0x0 KECCAK256 SWAP1 JUMP JUMPDEST SWAP3 PUSH1 0x0 JUMPDEST DUP2 DUP2 LT PUSH2 0x828 JUMPI POP SWAP2 PUSH1 0x2 SWAP4 SWAP2 DUP6 PUSH1 0x1 SWAP7 SWAP5 LT PUSH2 0x80F JUMPI JUMPDEST POP POP POP MUL ADD SWAP1 SSTORE JUMP JUMPDEST ADD MLOAD PUSH1 0x0 NOT PUSH1 0x8 PUSH1 0x1F DUP6 AND MUL SHR NOT AND SWAP1 SSTORE CODESIZE DUP1 DUP1 PUSH2 0x806 JUMP JUMPDEST SWAP2 SWAP4 PUSH1 0x20 PUSH1 0x1 DUP2 SWAP3 DUP8 DUP8 ADD MLOAD DUP2 SSTORE ADD SWAP6 ADD SWAP3 ADD PUSH2 0x7EE JUMP JUMPDEST SWAP1 PUSH2 0x83 SWAP2 PUSH2 0x76E JUMP JUMPDEST PUSH2 0x85D PUSH2 0x6F8 PUSH1 0x10 SWAP4 PUSH2 0x10D DUP6 DUP6 PUSH2 0x706 JUMP JUMPDEST PUSH1 0x0 SWAP2 JUMPDEST DUP4 DUP4 LT PUSH2 0x86E JUMPI POP POP POP POP JUMP JUMPDEST PUSH1 0x1 PUSH1 0x20 DUP3 PUSH2 0x885 PUSH2 0x87F DUP5 SWAP6 MLOAD SWAP1 JUMP JUMPDEST DUP7 PUSH2 0x840 JUMP JUMPDEST ADD SWAP3 ADD SWAP3 ADD SWAP2 SWAP1 PUSH2 0x861 JUMP JUMPDEST SWAP1 PUSH2 0x83 SWAP2 PUSH2 0x84A JUMP JUMPDEST SWAP1 PUSH2 0x8A8 SWAP5 SWAP4 SWAP3 SWAP2 PUSH2 0x9E1 JUMP JUMPDEST PUSH2 0x83 PUSH2 0x8B5 PUSH1 0x10 PUSH2 0x1B7 JUMP JUMPDEST PUSH2 0x8C4 PUSH2 0x8C0 PUSH2 0x1F2 JUMP JUMPDEST DUP3 MSTORE JUMP JUMPDEST PUSH2 0x8D6 PUSH2 0x8CF PUSH2 0x217 JUMP JUMPDEST PUSH1 0x20 DUP4 ADD MSTORE JUMP JUMPDEST PUSH2 0x8E8 PUSH2 0x8E1 PUSH2 0x23C JUMP JUMPDEST PUSH1 0x40 DUP4 ADD MSTORE JUMP JUMPDEST PUSH2 0x8FA PUSH2 0x8F3 PUSH2 0x261 JUMP JUMPDEST PUSH1 0x60 DUP4 ADD MSTORE JUMP JUMPDEST PUSH2 0x90C PUSH2 0x905 PUSH2 0x286 JUMP JUMPDEST PUSH1 0x80 DUP4 ADD MSTORE JUMP JUMPDEST PUSH2 0x91E PUSH2 0x917 PUSH2 0x2AB JUMP JUMPDEST PUSH1 0xA0 DUP4 ADD MSTORE JUMP JUMPDEST PUSH2 0x930 PUSH2 0x929 PUSH2 0x2D0 JUMP JUMPDEST PUSH1 0xC0 DUP4 ADD MSTORE JUMP JUMPDEST PUSH2 0x942 PUSH2 0x93B PUSH2 0x2F5 JUMP JUMPDEST PUSH1 0xE0 DUP4 ADD MSTORE JUMP JUMPDEST PUSH2 0x955 PUSH2 0x94D PUSH2 0x31A JUMP JUMPDEST PUSH2 0x100 DUP4 ADD MSTORE JUMP JUMPDEST PUSH2 0x968 PUSH2 0x960 PUSH2 0x33F JUMP JUMPDEST PUSH2 0x120 DUP4 ADD MSTORE JUMP JUMPDEST PUSH2 0x97B PUSH2 0x973 PUSH2 0x364 JUMP JUMPDEST PUSH2 0x140 DUP4 ADD MSTORE JUMP JUMPDEST PUSH2 0x98E PUSH2 0x986 PUSH2 0x389 JUMP JUMPDEST PUSH2 0x160 DUP4 ADD MSTORE JUMP JUMPDEST PUSH2 0x9A1 PUSH2 0x999 PUSH2 0x3AE JUMP JUMPDEST PUSH2 0x180 DUP4 ADD MSTORE JUMP JUMPDEST PUSH2 0x9B4 PUSH2 0x9AC PUSH2 0x3D3 JUMP JUMPDEST PUSH2 0x1A0 DUP4 ADD MSTORE JUMP JUMPDEST PUSH2 0x9C7 PUSH2 0x9BF PUSH2 0x3F8 JUMP JUMPDEST PUSH2 0x1C0 DUP4 ADD MSTORE JUMP JUMPDEST PUSH2 0x9DA PUSH2 0x9D2 PUSH2 0x41D JUMP JUMPDEST PUSH2 0x1E0 DUP4 ADD MSTORE JUMP JUMPDEST PUSH1 0x15 PUSH2 0x891 JUMP JUMPDEST PUSH2 0x83 SWAP5 DUP6 SWAP5 DUP6 SWAP5 CALLER SWAP3 SWAP2 SWAP1 PUSH2 0xA6B JUMP JUMPDEST SWAP1 PUSH1 0x0 NOT SWAP1 PUSH2 0x4A5 JUMP JUMPDEST SWAP1 PUSH2 0xA0C PUSH2 0x10D PUSH2 0x4D5 SWAP3 PUSH2 0x4AF JUMP JUMPDEST DUP3 SLOAD PUSH2 0x9F2 JUMP JUMPDEST SWAP1 PUSH1 0x1 PUSH1 0x1 PUSH1 0xA0 SHL SUB SWAP1 PUSH2 0x4A5 JUMP JUMPDEST PUSH2 0x10D SWAP1 PUSH2 0xA36 SWAP1 PUSH1 0x1 PUSH1 0x1 PUSH1 0xA0 SHL SUB AND DUP3 JUMP JUMPDEST PUSH1 0x1 PUSH1 0x1 PUSH1 0xA0 SHL SUB AND SWAP1 JUMP JUMPDEST PUSH2 0x10D SWAP1 PUSH2 0xA22 JUMP JUMPDEST PUSH2 0x10D SWAP1 PUSH2 0xA42 JUMP JUMPDEST SWAP1 PUSH2 0xA64 PUSH2 0x10D PUSH2 0x4D5 SWAP3 PUSH2 0xA4B JUMP JUMPDEST DUP3 SLOAD PUSH2 0xA13 JUMP JUMPDEST PUSH2 0xA81 PUSH2 0xA96 SWAP7 PUSH2 0xA88 SWAP4 SWAP5 SWAP7 PUSH2 0xA8F SWAP7 PUSH2 0xAA1 JUMP JUMPDEST PUSH1 0xB PUSH2 0x9FC JUMP JUMPDEST PUSH1 0xC PUSH2 0x9FC JUMP JUMPDEST PUSH1 0xD PUSH2 0x9FC JUMP JUMPDEST PUSH2 0x83 CALLER PUSH1 0xE PUSH2 0xA54 JUMP JUMPDEST SWAP1 PUSH2 0x83 SWAP3 SWAP2 PUSH2 0xADF JUMP JUMPDEST PUSH2 0xA36 PUSH2 0x10D PUSH2 0x10D SWAP3 SWAP1 JUMP JUMPDEST PUSH2 0x10D SWAP1 PUSH2 0xAAC JUMP JUMPDEST PUSH2 0xACB SWAP1 PUSH2 0xA36 JUMP JUMPDEST SWAP1 MSTORE JUMP JUMPDEST PUSH1 0x20 DUP2 ADD SWAP3 SWAP2 PUSH2 0x83 SWAP2 SWAP1 PUSH2 0xAC2 JUMP JUMPDEST SWAP2 PUSH2 0xAE9 SWAP2 PUSH2 0xB33 JUMP JUMPDEST PUSH1 0x0 PUSH2 0xAF4 DUP2 PUSH2 0xAB9 JUMP JUMPDEST PUSH2 0xAFD DUP2 PUSH2 0xA36 JUMP JUMPDEST PUSH2 0xB06 DUP5 PUSH2 0xA36 JUMP JUMPDEST EQ PUSH2 0xB16 JUMPI POP POP PUSH2 0x83 SWAP1 PUSH2 0xB65 JUMP JUMPDEST PUSH4 0x1E4FBDF7 PUSH1 0xE0 SHL DUP3 MSTORE DUP2 SWAP1 PUSH2 0xB2F SWAP1 PUSH1 0x4 DUP4 ADD PUSH2 0xACF JUMP JUMPDEST SUB SWAP1 REVERT JUMPDEST PUSH2 0x83 SWAP2 DUP3 SWAP2 DUP3 SWAP2 DUP3 SWAP2 DUP3 SWAP2 SWAP1 PUSH2 0xB4B SWAP1 PUSH1 0x0 PUSH2 0x840 JUMP JUMPDEST PUSH1 0x1 PUSH2 0x840 JUMP JUMPDEST PUSH2 0x10D SWAP1 PUSH2 0xA36 JUMP JUMPDEST PUSH2 0x10D SWAP1 SLOAD PUSH2 0xB52 JUMP JUMPDEST PUSH2 0xB8B PUSH2 0xB85 PUSH2 0xB75 PUSH1 0xA PUSH2 0xB5B JUMP JUMPDEST PUSH2 0xB80 DUP5 PUSH1 0xA PUSH2 0xA54 JUMP JUMPDEST PUSH2 0xA4B JUMP JUMPDEST SWAP2 PUSH2 0xA4B JUMP JUMPDEST SWAP1 PUSH32 0x8BE0079C531659141344CD1FD0A4F28419497F9722A3DAAFE3B4186F6B6457E0 PUSH2 0xBB6 PUSH1 0x40 MLOAD SWAP1 JUMP JUMPDEST PUSH1 0x0 SWAP1 LOG3 JUMP INVALID PUSH1 0x80 PUSH1 0x40 MSTORE PUSH1 0x4 CALLDATASIZE LT ISZERO PUSH2 0x1B JUMPI JUMPDEST CALLDATASIZE ISZERO PUSH2 0x19 JUMPI PUSH1 0x0 DUP1 REVERT JUMPDEST STOP JUMPDEST PUSH1 0x0 CALLDATALOAD PUSH1 0xE0 SHR DUP1 PUSH4 0x18A25E8 EQ PUSH2 0x2FB JUMPI DUP1 PUSH4 0x1FFC9A7 EQ PUSH2 0x2F6 JUMPI DUP1 PUSH4 0x2D05D3F EQ PUSH2 0x2F1 JUMPI DUP1 PUSH4 0x583E9F8 EQ PUSH2 0x2EC JUMPI DUP1 PUSH4 0x6FDDE03 EQ PUSH2 0x2E7 JUMPI DUP1 PUSH4 0x81812FC EQ PUSH2 0x2E2 JUMPI DUP1 PUSH4 0x95EA7B3 EQ PUSH2 0x2DD JUMPI DUP1 PUSH4 0x1249C58B EQ PUSH2 0x2D8 JUMPI DUP1 PUSH4 0x12EA5C7E EQ PUSH2 0x2D3 JUMPI DUP1 PUSH4 0x150B7A02 EQ PUSH2 0x2CE JUMPI DUP1 PUSH4 0x18160DDD EQ PUSH2 0x2C9 JUMPI DUP1 PUSH4 0x1D0806AE EQ PUSH2 0x2C4 JUMPI DUP1 PUSH4 0x21A1C184 EQ PUSH2 0x2BF JUMPI DUP1 PUSH4 0x23B872DD EQ PUSH2 0x2BA JUMPI DUP1 PUSH4 0x2DCD52F2 EQ PUSH2 0x2B5 JUMPI DUP1 PUSH4 0x2F745C59 EQ PUSH2 0x2B0 JUMPI DUP1 PUSH4 0x3F516018 EQ PUSH2 0x2AB JUMPI DUP1 PUSH4 0x42842E0E EQ PUSH2 0x2A6 JUMPI DUP1 PUSH4 0x43D32E9C EQ PUSH2 0x2A1 JUMPI DUP1 PUSH4 0x4A8FE650 EQ PUSH2 0x29C JUMPI DUP1 PUSH4 0x4F6CCCE7 EQ PUSH2 0x297 JUMPI DUP1 PUSH4 0x53613DD3 EQ PUSH2 0x292 JUMPI DUP1 PUSH4 0x55F804B3 EQ PUSH2 0x28D JUMPI DUP1 PUSH4 0x5EBA096B EQ PUSH2 0x288 JUMPI DUP1 PUSH4 0x5F516836 EQ PUSH2 0x283 JUMPI DUP1 PUSH4 0x6352211E EQ PUSH2 0x27E JUMPI DUP1 PUSH4 0x6C0360EB EQ PUSH2 0x279 JUMPI DUP1 PUSH4 0x70A08231 EQ PUSH2 0x274 JUMPI DUP1 PUSH4 0x715018A6 EQ PUSH2 0x26F JUMPI DUP1 PUSH4 0x7284E416 EQ PUSH2 0x26A JUMPI DUP1 PUSH4 0x771282F6 EQ PUSH2 0x265 JUMPI DUP1 PUSH4 0x8DA5CB5B EQ PUSH2 0x260 JUMPI DUP1 PUSH4 0x90C3F38F EQ PUSH2 0x25B JUMPI DUP1 PUSH4 0x95D89B41 EQ PUSH2 0x256 JUMPI DUP1 PUSH4 0xA22CB465 EQ PUSH2 0x251 JUMPI DUP1 PUSH4 0xAD64D068 EQ PUSH2 0x24C JUMPI DUP1 PUSH4 0xAE104265 EQ PUSH2 0x247 JUMPI DUP1 PUSH4 0xB88D4FDE EQ PUSH2 0x242 JUMPI DUP1 PUSH4 0xC87B56DD EQ PUSH2 0x23D JUMPI DUP1 PUSH4 0xCF6A68BF EQ PUSH2 0x238 JUMPI DUP1 PUSH4 0xD5ABEB01 EQ PUSH2 0x233 JUMPI DUP1 PUSH4 0xD96A094A EQ PUSH2 0x22E JUMPI DUP1 PUSH4 0xE4849B32 EQ PUSH2 0x229 JUMPI DUP1 PUSH4 0xE985E9C5 EQ PUSH2 0x224 JUMPI DUP1 PUSH4 0xF0F2805F EQ PUSH2 0x21F JUMPI PUSH4 0xF2FDE38B SUB PUSH2 0xE JUMPI PUSH2 0xDE2 JUMP JUMPDEST PUSH2 0xDC7 JUMP JUMPDEST PUSH2 0xDAB JUMP JUMPDEST PUSH2 0xD70 JUMP JUMPDEST PUSH2 0xD5D JUMP JUMPDEST PUSH2 0xD42 JUMP JUMPDEST PUSH2 0xD1B JUMP JUMPDEST PUSH2 0xD00 JUMP JUMPDEST PUSH2 0xCE4 JUMP JUMPDEST PUSH2 0xCC9 JUMP JUMPDEST PUSH2 0xCAE JUMP JUMPDEST PUSH2 0xC39 JUMP JUMPDEST PUSH2 0xBE6 JUMP JUMPDEST PUSH2 0xBCE JUMP JUMPDEST PUSH2 0xBB3 JUMP JUMPDEST PUSH2 0xB98 JUMP JUMPDEST PUSH2 0xB71 JUMP JUMPDEST PUSH2 0xB4D JUMP JUMPDEST PUSH2 0xB32 JUMP JUMPDEST PUSH2 0xB17 JUMP JUMPDEST PUSH2 0x9D5 JUMP JUMPDEST PUSH2 0x9BA JUMP JUMPDEST PUSH2 0x98E JUMP JUMPDEST PUSH2 0x95A JUMP JUMPDEST PUSH2 0x919 JUMP JUMPDEST PUSH2 0x8F2 JUMP JUMPDEST PUSH2 0x8D7 JUMP JUMPDEST PUSH2 0x8BC JUMP JUMPDEST PUSH2 0x8A3 JUMP JUMPDEST PUSH2 0x88B JUMP JUMPDEST PUSH2 0x85B JUMP JUMPDEST PUSH2 0x83F JUMP JUMPDEST PUSH2 0x826 JUMP JUMPDEST PUSH2 0x7E2 JUMP JUMPDEST PUSH2 0x7C7 JUMP JUMPDEST PUSH2 0x79F JUMP JUMPDEST PUSH2 0x765 JUMP JUMPDEST PUSH2 0x62A JUMP JUMPDEST PUSH2 0x5AD JUMP JUMPDEST PUSH2 0x58F JUMP JUMPDEST PUSH2 0x53B JUMP JUMPDEST PUSH2 0x514 JUMP JUMPDEST PUSH2 0x48D JUMP JUMPDEST PUSH2 0x3EF JUMP JUMPDEST PUSH2 0x37C JUMP JUMPDEST PUSH2 0x316 JUMP JUMPDEST PUSH1 0x0 SWAP2 SUB SLT PUSH2 0x30B JUMPI JUMP JUMPDEST PUSH1 0x0 DUP1 REVERT JUMPDEST SWAP1 MSTORE JUMP JUMPDEST JUMP JUMPDEST CALLVALUE PUSH2 0x30B JUMPI PUSH2 0x326 CALLDATASIZE PUSH1 0x4 PUSH2 0x300 JUMP JUMPDEST PUSH2 0x341 PUSH2 0x331 PUSH2 0xE0B JUMP JUMPDEST PUSH1 0x40 MLOAD SWAP2 DUP3 SWAP2 DUP3 SWAP1 DUP2 MSTORE PUSH1 0x20 ADD SWAP1 JUMP JUMPDEST SUB SWAP1 RETURN JUMPDEST PUSH1 0x1 PUSH1 0x1 PUSH1 0xE0 SHL SUB NOT DUP2 AND JUMPDEST SUB PUSH2 0x30B JUMPI JUMP JUMPDEST SWAP1 POP CALLDATALOAD SWAP1 PUSH2 0x314 DUP3 PUSH2 0x345 JUMP JUMPDEST SWAP1 PUSH1 0x20 DUP3 DUP3 SUB SLT PUSH2 0x30B JUMPI PUSH2 0x379 SWAP2 PUSH2 0x358 JUMP JUMPDEST SWAP1 JUMP JUMPDEST CALLVALUE PUSH2 0x30B JUMPI PUSH2 0x341 PUSH2 0x397 PUSH2 0x392 CALLDATASIZE PUSH1 0x4 PUSH2 0x365 JUMP JUMPDEST PUSH2 0xE18 JUMP JUMPDEST PUSH1 0x40 MLOAD JUMPDEST SWAP2 DUP3 SWAP2 DUP3 SWAP1 ISZERO ISZERO DUP2 MSTORE PUSH1 0x20 ADD SWAP1 JUMP JUMPDEST PUSH2 0x379 SWAP2 PUSH1 0x8 MUL SHR JUMPDEST PUSH1 0x1 PUSH1 0x1 PUSH1 0xA0 SHL SUB AND SWAP1 JUMP JUMPDEST SWAP1 PUSH2 0x379 SWAP2 SLOAD PUSH2 0x3AA JUMP JUMPDEST PUSH2 0x379 PUSH1 0x0 PUSH1 0xE PUSH2 0x3BF JUMP JUMPDEST PUSH2 0x310 SWAP1 PUSH2 0x3B3 JUMP JUMPDEST PUSH1 0x20 DUP2 ADD SWAP3 SWAP2 PUSH2 0x314 SWAP2 SWAP1 PUSH2 0x3D6 JUMP JUMPDEST CALLVALUE PUSH2 0x30B JUMPI PUSH2 0x3FF CALLDATASIZE PUSH1 0x4 PUSH2 0x300 JUMP JUMPDEST PUSH2 0x341 PUSH2 0x40A PUSH2 0x3CA JUMP JUMPDEST PUSH1 0x40 MLOAD SWAP2 DUP3 SWAP2 DUP3 PUSH2 0x3DF JUMP JUMPDEST DUP1 PUSH2 0x351 JUMP JUMPDEST SWAP1 POP CALLDATALOAD SWAP1 PUSH2 0x314 DUP3 PUSH2 0x416 JUMP JUMPDEST SWAP1 PUSH1 0x20 DUP3 DUP3 SUB SLT PUSH2 0x30B JUMPI PUSH2 0x379 SWAP2 PUSH2 0x41C JUMP JUMPDEST PUSH2 0x379 PUSH2 0x379 PUSH2 0x379 SWAP3 SWAP1 JUMP JUMPDEST SWAP1 PUSH2 0x454 SWAP1 PUSH2 0x43D JUMP JUMPDEST PUSH1 0x0 MSTORE PUSH1 0x20 MSTORE PUSH1 0x40 PUSH1 0x0 KECCAK256 SWAP1 JUMP JUMPDEST PUSH2 0x379 SWAP2 PUSH1 0x8 MUL SHR DUP2 JUMP JUMPDEST SWAP1 PUSH2 0x379 SWAP2 SLOAD PUSH2 0x462 JUMP JUMPDEST PUSH1 0x0 PUSH2 0x488 PUSH2 0x379 SWAP3 PUSH1 0x11 PUSH2 0x44A JUMP JUMPDEST PUSH2 0x46D JUMP JUMPDEST CALLVALUE PUSH2 0x30B JUMPI PUSH2 0x341 PUSH2 0x331 PUSH2 0x4A3 CALLDATASIZE PUSH1 0x4 PUSH2 0x429 JUMP JUMPDEST PUSH2 0x478 JUMP JUMPDEST PUSH1 0x0 JUMPDEST DUP4 DUP2 LT PUSH2 0x4BB JUMPI POP POP PUSH1 0x0 SWAP2 ADD MSTORE JUMP JUMPDEST DUP2 DUP2 ADD MLOAD DUP4 DUP3 ADD MSTORE PUSH1 0x20 ADD PUSH2 0x4AB JUMP JUMPDEST PUSH2 0x4EC PUSH2 0x4F5 PUSH1 0x20 SWAP4 PUSH2 0x4FF SWAP4 PUSH2 0x4E0 DUP2 MLOAD SWAP1 JUMP JUMPDEST DUP1 DUP4 MSTORE SWAP4 DUP5 SWAP3 PUSH1 0x20 ADD SWAP1 JUMP JUMPDEST SWAP6 DUP7 SWAP2 ADD PUSH2 0x4A8 JUMP JUMPDEST PUSH1 0x1F ADD PUSH1 0x1F NOT AND SWAP1 JUMP JUMPDEST ADD SWAP1 JUMP JUMPDEST PUSH1 0x20 DUP1 DUP3 MSTORE PUSH2 0x379 SWAP3 SWAP2 ADD SWAP1 PUSH2 0x4CB JUMP JUMPDEST CALLVALUE PUSH2 0x30B JUMPI PUSH2 0x524 CALLDATASIZE PUSH1 0x4 PUSH2 0x300 JUMP JUMPDEST PUSH2 0x341 PUSH2 0x52F PUSH2 0xE55 JUMP JUMPDEST PUSH1 0x40 MLOAD SWAP2 DUP3 SWAP2 DUP3 PUSH2 0x503 JUMP JUMPDEST CALLVALUE PUSH2 0x30B JUMPI PUSH2 0x341 PUSH2 0x40A PUSH2 0x551 CALLDATASIZE PUSH1 0x4 PUSH2 0x429 JUMP JUMPDEST PUSH2 0xE5F JUMP JUMPDEST PUSH2 0x351 DUP2 PUSH2 0x3B3 JUMP JUMPDEST SWAP1 POP CALLDATALOAD SWAP1 PUSH2 0x314 DUP3 PUSH2 0x556 JUMP JUMPDEST SWAP2 SWAP1 PUSH1 0x40 DUP4 DUP3 SUB SLT PUSH2 0x30B JUMPI PUSH2 0x379 SWAP1 PUSH1 0x20 PUSH2 0x588 DUP3 DUP7 PUSH2 0x55F JUMP JUMPDEST SWAP5 ADD PUSH2 0x41C JUMP JUMPDEST CALLVALUE PUSH2 0x30B JUMPI PUSH2 0x5A8 PUSH2 0x5A2 CALLDATASIZE PUSH1 0x4 PUSH2 0x56C JUMP JUMPDEST SWAP1 PUSH2 0xE72 JUMP JUMPDEST PUSH1 0x40 MLOAD STOP JUMPDEST PUSH2 0x5B8 CALLDATASIZE PUSH1 0x4 PUSH2 0x300 JUMP JUMPDEST PUSH2 0x341 PUSH2 0x331 PUSH2 0xED0 JUMP JUMPDEST SWAP1 PUSH2 0x5E3 PUSH2 0x5DC PUSH2 0x5D2 DUP5 MLOAD SWAP1 JUMP JUMPDEST DUP1 DUP5 MSTORE SWAP3 PUSH1 0x20 ADD SWAP1 JUMP JUMPDEST SWAP3 PUSH1 0x20 ADD SWAP1 JUMP JUMPDEST SWAP1 PUSH1 0x0 JUMPDEST DUP2 DUP2 LT PUSH2 0x5F4 JUMPI POP POP POP SWAP1 JUMP JUMPDEST SWAP1 SWAP2 SWAP3 PUSH2 0x611 PUSH2 0x60A PUSH1 0x1 SWAP3 DUP7 MLOAD DUP2 MSTORE PUSH1 0x20 ADD SWAP1 JUMP JUMPDEST SWAP5 PUSH1 0x20 ADD SWAP1 JUMP JUMPDEST SWAP3 SWAP2 ADD PUSH2 0x5E7 JUMP JUMPDEST PUSH1 0x20 DUP1 DUP3 MSTORE PUSH2 0x379 SWAP3 SWAP2 ADD SWAP1 PUSH2 0x5C3 JUMP JUMPDEST CALLVALUE PUSH2 0x30B JUMPI PUSH2 0x63A CALLDATASIZE PUSH1 0x4 PUSH2 0x300 JUMP JUMPDEST PUSH2 0x341 PUSH2 0x645 PUSH2 0xF8F JUMP JUMPDEST PUSH1 0x40 MLOAD SWAP2 DUP3 SWAP2 DUP3 PUSH2 0x619 JUMP JUMPDEST PUSH4 0x4E487B71 PUSH1 0xE0 SHL PUSH1 0x0 MSTORE PUSH1 0x41 PUSH1 0x4 MSTORE PUSH1 0x24 PUSH1 0x0 REVERT JUMPDEST SWAP1 PUSH1 0x1F ADD PUSH1 0x1F NOT AND DUP2 ADD SWAP1 DUP2 LT PUSH8 0xFFFFFFFFFFFFFFFF DUP3 GT OR PUSH2 0x689 JUMPI PUSH1 0x40 MSTORE JUMP JUMPDEST PUSH2 0x651 JUMP JUMPDEST SWAP1 PUSH2 0x314 PUSH2 0x69B PUSH1 0x40 MLOAD SWAP1 JUMP JUMPDEST SWAP3 DUP4 PUSH2 0x667 JUMP JUMPDEST PUSH8 0xFFFFFFFFFFFFFFFF DUP2 GT PUSH2 0x689 JUMPI PUSH1 0x20 SWAP1 PUSH1 0x1F ADD PUSH1 0x1F NOT AND ADD SWAP1 JUMP JUMPDEST SWAP1 DUP3 PUSH1 0x0 SWAP4 SWAP3 DUP3 CALLDATACOPY ADD MSTORE JUMP JUMPDEST SWAP1 SWAP3 SWAP2 SWAP3 PUSH2 0x6E0 PUSH2 0x6DB DUP3 PUSH2 0x6A2 JUMP JUMPDEST PUSH2 0x68E JUMP JUMPDEST SWAP4 DUP2 DUP6 MSTORE DUP2 DUP4 ADD GT PUSH2 0x30B JUMPI PUSH2 0x314 SWAP2 PUSH1 0x20 DUP6 ADD SWAP1 PUSH2 0x6BF JUMP JUMPDEST SWAP1 DUP1 PUSH1 0x1F DUP4 ADD SLT ISZERO PUSH2 0x30B JUMPI DUP2 PUSH1 0x20 PUSH2 0x379 SWAP4 CALLDATALOAD SWAP2 ADD PUSH2 0x6CB JUMP JUMPDEST SWAP1 PUSH1 0x80 DUP3 DUP3 SUB SLT PUSH2 0x30B JUMPI PUSH2 0x72A DUP2 DUP4 PUSH2 0x55F JUMP JUMPDEST SWAP3 PUSH2 0x738 DUP3 PUSH1 0x20 DUP6 ADD PUSH2 0x55F JUMP JUMPDEST SWAP3 PUSH2 0x746 DUP4 PUSH1 0x40 DUP4 ADD PUSH2 0x41C JUMP JUMPDEST SWAP3 PUSH1 0x60 DUP3 ADD CALLDATALOAD PUSH8 0xFFFFFFFFFFFFFFFF DUP2 GT PUSH2 0x30B JUMPI PUSH2 0x379 SWAP3 ADD PUSH2 0x6FA JUMP JUMPDEST CALLVALUE PUSH2 0x30B JUMPI PUSH2 0x341 PUSH2 0x784 PUSH2 0x77B CALLDATASIZE PUSH1 0x4 PUSH2 0x715 JUMP JUMPDEST SWAP3 SWAP2 SWAP1 SWAP2 PUSH2 0xFDC JUMP JUMPDEST PUSH1 0x40 MLOAD SWAP2 DUP3 SWAP2 DUP3 PUSH1 0x1 PUSH1 0x1 PUSH1 0xE0 SHL SUB NOT SWAP1 SWAP2 AND DUP2 MSTORE PUSH1 0x20 ADD SWAP1 JUMP JUMPDEST CALLVALUE PUSH2 0x30B JUMPI PUSH2 0x7AF CALLDATASIZE PUSH1 0x4 PUSH2 0x300 JUMP JUMPDEST PUSH2 0x341 PUSH2 0x331 PUSH1 0x8 SLOAD SWAP1 JUMP JUMPDEST PUSH2 0x379 PUSH1 0x0 PUSH1 0xB PUSH2 0x46D JUMP JUMPDEST CALLVALUE PUSH2 0x30B JUMPI PUSH2 0x7D7 CALLDATASIZE PUSH1 0x4 PUSH2 0x300 JUMP JUMPDEST PUSH2 0x341 PUSH2 0x331 PUSH2 0x7BB JUMP JUMPDEST CALLVALUE PUSH2 0x30B JUMPI PUSH2 0x7F2 CALLDATASIZE PUSH1 0x4 PUSH2 0x300 JUMP JUMPDEST PUSH2 0x341 PUSH2 0x331 PUSH2 0x1046 JUMP JUMPDEST SWAP1 SWAP2 PUSH1 0x60 DUP3 DUP5 SUB SLT PUSH2 0x30B JUMPI PUSH2 0x379 PUSH2 0x816 DUP5 DUP5 PUSH2 0x55F JUMP JUMPDEST SWAP4 PUSH1 0x40 PUSH2 0x588 DUP3 PUSH1 0x20 DUP8 ADD PUSH2 0x55F JUMP JUMPDEST CALLVALUE PUSH2 0x30B JUMPI PUSH2 0x5A8 PUSH2 0x839 CALLDATASIZE PUSH1 0x4 PUSH2 0x7FD JUMP JUMPDEST SWAP2 PUSH2 0x10C8 JUMP JUMPDEST CALLVALUE PUSH2 0x30B JUMPI PUSH2 0x84F CALLDATASIZE PUSH1 0x4 PUSH2 0x300 JUMP JUMPDEST PUSH2 0x341 PUSH2 0x331 PUSH1 0x10 SLOAD SWAP1 JUMP JUMPDEST CALLVALUE PUSH2 0x30B JUMPI PUSH2 0x341 PUSH2 0x331 PUSH2 0x871 CALLDATASIZE PUSH1 0x4 PUSH2 0x56C JUMP JUMPDEST SWAP1 PUSH2 0x1182 JUMP JUMPDEST SWAP1 PUSH1 0x20 DUP3 DUP3 SUB SLT PUSH2 0x30B JUMPI PUSH2 0x379 SWAP2 PUSH2 0x55F JUMP JUMPDEST CALLVALUE PUSH2 0x30B JUMPI PUSH2 0x5A8 PUSH2 0x89E CALLDATASIZE PUSH1 0x4 PUSH2 0x877 JUMP JUMPDEST PUSH2 0x1298 JUMP JUMPDEST CALLVALUE PUSH2 0x30B JUMPI PUSH2 0x5A8 PUSH2 0x8B6 CALLDATASIZE PUSH1 0x4 PUSH2 0x7FD JUMP JUMPDEST SWAP2 PUSH2 0x12C5 JUMP JUMPDEST CALLVALUE PUSH2 0x30B JUMPI PUSH2 0x8CC CALLDATASIZE PUSH1 0x4 PUSH2 0x300 JUMP JUMPDEST PUSH2 0x341 PUSH2 0x331 PUSH2 0x12D9 JUMP JUMPDEST CALLVALUE PUSH2 0x30B JUMPI PUSH2 0x8E7 CALLDATASIZE PUSH1 0x4 PUSH2 0x300 JUMP JUMPDEST PUSH2 0x341 PUSH2 0x331 PUSH2 0x131D JUMP JUMPDEST CALLVALUE PUSH2 0x30B JUMPI PUSH2 0x341 PUSH2 0x331 PUSH2 0x908 CALLDATASIZE PUSH1 0x4 PUSH2 0x429 JUMP JUMPDEST PUSH2 0x1338 JUMP JUMPDEST PUSH2 0x379 PUSH1 0x0 PUSH1 0xD PUSH2 0x46D JUMP JUMPDEST CALLVALUE PUSH2 0x30B JUMPI PUSH2 0x929 CALLDATASIZE PUSH1 0x4 PUSH2 0x300 JUMP JUMPDEST PUSH2 0x341 PUSH2 0x331 PUSH2 0x90D JUMP JUMPDEST SWAP1 PUSH1 0x20 DUP3 DUP3 SUB SLT PUSH2 0x30B JUMPI DUP2 CALLDATALOAD PUSH8 0xFFFFFFFFFFFFFFFF DUP2 GT PUSH2 0x30B JUMPI PUSH2 0x379 SWAP3 ADD PUSH2 0x6FA JUMP JUMPDEST CALLVALUE PUSH2 0x30B JUMPI PUSH2 0x5A8 PUSH2 0x96D CALLDATASIZE PUSH1 0x4 PUSH2 0x934 JUMP JUMPDEST PUSH2 0x1524 JUMP JUMPDEST SWAP2 SWAP1 PUSH1 0x40 DUP4 DUP3 SUB SLT PUSH2 0x30B JUMPI PUSH2 0x379 SWAP1 PUSH1 0x20 PUSH2 0x588 DUP3 DUP7 PUSH2 0x41C JUMP JUMPDEST CALLVALUE PUSH2 0x30B JUMPI PUSH2 0x341 PUSH2 0x645 PUSH2 0x9A4 CALLDATASIZE PUSH1 0x4 PUSH2 0x972 JUMP JUMPDEST SWAP1 PUSH2 0x15E0 JUMP JUMPDEST PUSH1 0x0 PUSH2 0x488 PUSH2 0x379 SWAP3 PUSH1 0x14 PUSH2 0x44A JUMP JUMPDEST CALLVALUE PUSH2 0x30B JUMPI PUSH2 0x341 PUSH2 0x331 PUSH2 0x9D0 CALLDATASIZE PUSH1 0x4 PUSH2 0x429 JUMP JUMPDEST PUSH2 0x9AA JUMP JUMPDEST CALLVALUE PUSH2 0x30B JUMPI PUSH2 0x341 PUSH2 0x40A PUSH2 0x9EB CALLDATASIZE PUSH1 0x4 PUSH2 0x429 JUMP JUMPDEST PUSH2 0x166F JUMP JUMPDEST PUSH4 0x4E487B71 PUSH1 0xE0 SHL PUSH1 0x0 MSTORE PUSH1 0x0 PUSH1 0x4 MSTORE PUSH1 0x24 PUSH1 0x0 REVERT JUMPDEST PUSH4 0x4E487B71 PUSH1 0xE0 SHL PUSH1 0x0 MSTORE PUSH1 0x22 PUSH1 0x4 MSTORE PUSH1 0x24 PUSH1 0x0 REVERT JUMPDEST SWAP1 PUSH1 0x1 PUSH1 0x2 DUP4 DIV SWAP3 AND DUP1 ISZERO PUSH2 0xA3C JUMPI JUMPDEST PUSH1 0x20 DUP4 LT EQ PUSH2 0xA37 JUMPI JUMP JUMPDEST PUSH2 0xA06 JUMP JUMPDEST SWAP2 PUSH1 0x7F AND SWAP2 PUSH2 0xA2C JUMP JUMPDEST DUP1 SLOAD PUSH1 0x0 SWAP4 SWAP3 SWAP2 PUSH2 0xA63 PUSH2 0xA59 DUP4 PUSH2 0xA1C JUMP JUMPDEST DUP1 DUP6 MSTORE SWAP4 PUSH1 0x20 ADD SWAP1 JUMP JUMPDEST SWAP2 PUSH1 0x1 DUP2 AND SWAP1 DUP2 ISZERO PUSH2 0xAB5 JUMPI POP PUSH1 0x1 EQ PUSH2 0xA7C JUMPI POP POP POP JUMP JUMPDEST PUSH2 0xA8F SWAP2 SWAP3 SWAP4 SWAP5 POP PUSH1 0x0 MSTORE PUSH1 0x20 PUSH1 0x0 KECCAK256 SWAP1 JUMP JUMPDEST SWAP2 PUSH1 0x0 SWAP3 JUMPDEST DUP2 DUP5 LT PUSH2 0xAA1 JUMPI POP POP ADD SWAP1 JUMP JUMPDEST DUP1 SLOAD DUP5 DUP5 ADD MSTORE PUSH1 0x20 SWAP1 SWAP4 ADD SWAP3 PUSH1 0x1 ADD PUSH2 0xA94 JUMP JUMPDEST SWAP3 SWAP5 SWAP6 POP POP POP PUSH1 0xFF NOT AND DUP3 MSTORE ISZERO ISZERO PUSH1 0x20 MUL ADD SWAP1 JUMP JUMPDEST SWAP1 PUSH2 0x379 SWAP2 PUSH2 0xA46 JUMP JUMPDEST SWAP1 PUSH2 0x314 PUSH2 0xAEE SWAP3 PUSH2 0xAE5 PUSH1 0x40 MLOAD SWAP1 JUMP JUMPDEST SWAP4 DUP5 DUP1 SWAP3 PUSH2 0xACA JUMP JUMPDEST SUB DUP4 PUSH2 0x667 JUMP JUMPDEST SWAP1 PUSH1 0x0 LT PUSH2 0xB06 JUMPI PUSH2 0x379 SWAP1 PUSH2 0xAD4 JUMP JUMPDEST PUSH2 0x9F0 JUMP JUMPDEST PUSH2 0x379 PUSH1 0x0 PUSH1 0x12 PUSH2 0xAF5 JUMP JUMPDEST CALLVALUE PUSH2 0x30B JUMPI PUSH2 0xB27 CALLDATASIZE PUSH1 0x4 PUSH2 0x300 JUMP JUMPDEST PUSH2 0x341 PUSH2 0x52F PUSH2 0xB0B JUMP JUMPDEST CALLVALUE PUSH2 0x30B JUMPI PUSH2 0x341 PUSH2 0x331 PUSH2 0xB48 CALLDATASIZE PUSH1 0x4 PUSH2 0x877 JUMP JUMPDEST PUSH2 0x1678 JUMP JUMPDEST CALLVALUE PUSH2 0x30B JUMPI PUSH2 0xB5D CALLDATASIZE PUSH1 0x4 PUSH2 0x300 JUMP JUMPDEST PUSH2 0x5A8 PUSH2 0x16E0 JUMP JUMPDEST PUSH2 0x379 PUSH1 0x0 PUSH1 0x13 PUSH2 0xAF5 JUMP JUMPDEST CALLVALUE PUSH2 0x30B JUMPI PUSH2 0xB81 CALLDATASIZE PUSH1 0x4 PUSH2 0x300 JUMP JUMPDEST PUSH2 0x341 PUSH2 0x52F PUSH2 0xB65 JUMP JUMPDEST PUSH2 0x379 PUSH1 0x0 PUSH1 0xF PUSH2 0x46D JUMP JUMPDEST CALLVALUE PUSH2 0x30B JUMPI PUSH2 0xBA8 CALLDATASIZE PUSH1 0x4 PUSH2 0x300 JUMP JUMPDEST PUSH2 0x341 PUSH2 0x331 PUSH2 0xB8C JUMP JUMPDEST CALLVALUE PUSH2 0x30B JUMPI PUSH2 0xBC3 CALLDATASIZE PUSH1 0x4 PUSH2 0x300 JUMP JUMPDEST PUSH2 0x341 PUSH2 0x40A PUSH2 0x16E8 JUMP JUMPDEST CALLVALUE PUSH2 0x30B JUMPI PUSH2 0x5A8 PUSH2 0xBE1 CALLDATASIZE PUSH1 0x4 PUSH2 0x934 JUMP JUMPDEST PUSH2 0x1711 JUMP JUMPDEST CALLVALUE PUSH2 0x30B JUMPI PUSH2 0xBF6 CALLDATASIZE PUSH1 0x4 PUSH2 0x300 JUMP JUMPDEST PUSH2 0x341 PUSH2 0x52F PUSH2 0x171A JUMP JUMPDEST DUP1 ISZERO ISZERO PUSH2 0x351 JUMP JUMPDEST SWAP1 POP CALLDATALOAD SWAP1 PUSH2 0x314 DUP3 PUSH2 0xC01 JUMP JUMPDEST SWAP2 SWAP1 PUSH1 0x40 DUP4 DUP3 SUB SLT PUSH2 0x30B JUMPI PUSH2 0x379 SWAP1 PUSH1 0x20 PUSH2 0xC32 DUP3 DUP7 PUSH2 0x55F JUMP JUMPDEST SWAP5 ADD PUSH2 0xC09 JUMP JUMPDEST CALLVALUE PUSH2 0x30B JUMPI PUSH2 0x5A8 PUSH2 0xC4C CALLDATASIZE PUSH1 0x4 PUSH2 0xC16 JUMP JUMPDEST SWAP1 PUSH2 0x1724 JUMP JUMPDEST PUSH4 0x4E487B71 PUSH1 0xE0 SHL PUSH1 0x0 MSTORE PUSH1 0x32 PUSH1 0x4 MSTORE PUSH1 0x24 PUSH1 0x0 REVERT JUMPDEST DUP1 SLOAD DUP3 LT ISZERO PUSH2 0xC8B JUMPI PUSH2 0xC82 PUSH1 0x1 SWAP2 PUSH1 0x0 MSTORE PUSH1 0x20 PUSH1 0x0 KECCAK256 SWAP1 JUMP JUMPDEST SWAP2 MUL ADD SWAP1 PUSH1 0x0 SWAP1 JUMP JUMPDEST PUSH2 0xC52 JUMP JUMPDEST PUSH1 0x10 SLOAD DUP2 LT ISZERO PUSH2 0x30B JUMPI PUSH2 0xCA8 PUSH2 0x379 SWAP2 PUSH1 0x10 PUSH2 0xC68 JUMP JUMPDEST SWAP1 PUSH2 0x46D JUMP JUMPDEST CALLVALUE PUSH2 0x30B JUMPI PUSH2 0x341 PUSH2 0x331 PUSH2 0xCC4 CALLDATASIZE PUSH1 0x4 PUSH2 0x429 JUMP JUMPDEST PUSH2 0xC90 JUMP JUMPDEST CALLVALUE PUSH2 0x30B JUMPI PUSH2 0x341 PUSH2 0x331 PUSH2 0xCDF CALLDATASIZE PUSH1 0x4 PUSH2 0x429 JUMP JUMPDEST PUSH2 0x172F JUMP JUMPDEST CALLVALUE PUSH2 0x30B JUMPI PUSH2 0x5A8 PUSH2 0xCF7 CALLDATASIZE PUSH1 0x4 PUSH2 0x715 JUMP JUMPDEST SWAP3 SWAP2 SWAP1 SWAP2 PUSH2 0x17C0 JUMP JUMPDEST CALLVALUE PUSH2 0x30B JUMPI PUSH2 0x341 PUSH2 0x52F PUSH2 0xD16 CALLDATASIZE PUSH1 0x4 PUSH2 0x429 JUMP JUMPDEST PUSH2 0x18C6 JUMP JUMPDEST CALLVALUE PUSH2 0x30B JUMPI PUSH2 0x341 PUSH2 0x331 PUSH2 0xD31 CALLDATASIZE PUSH1 0x4 PUSH2 0x429 JUMP JUMPDEST PUSH2 0x197F JUMP JUMPDEST PUSH2 0x379 PUSH1 0x0 PUSH1 0xC PUSH2 0x46D JUMP JUMPDEST CALLVALUE PUSH2 0x30B JUMPI PUSH2 0xD52 CALLDATASIZE PUSH1 0x4 PUSH2 0x300 JUMP JUMPDEST PUSH2 0x341 PUSH2 0x331 PUSH2 0xD36 JUMP JUMPDEST PUSH2 0x5A8 PUSH2 0xD6B CALLDATASIZE PUSH1 0x4 PUSH2 0x429 JUMP JUMPDEST PUSH2 0x1BC3 JUMP JUMPDEST CALLVALUE PUSH2 0x30B JUMPI PUSH2 0x5A8 PUSH2 0xD83 CALLDATASIZE PUSH1 0x4 PUSH2 0x429 JUMP JUMPDEST PUSH2 0x1DCF JUMP JUMPDEST SWAP2 SWAP1 PUSH1 0x40 DUP4 DUP3 SUB SLT PUSH2 0x30B JUMPI PUSH2 0x379 SWAP1 PUSH1 0x20 PUSH2 0xDA4 DUP3 DUP7 PUSH2 0x55F JUMP JUMPDEST SWAP5 ADD PUSH2 0x55F JUMP JUMPDEST CALLVALUE PUSH2 0x30B JUMPI PUSH2 0x341 PUSH2 0x397 PUSH2 0xDC1 CALLDATASIZE PUSH1 0x4 PUSH2 0xD88 JUMP JUMPDEST SWAP1 PUSH2 0x1DED JUMP JUMPDEST CALLVALUE PUSH2 0x30B JUMPI PUSH2 0x341 PUSH2 0x397 PUSH2 0xDDD CALLDATASIZE PUSH1 0x4 PUSH2 0x429 JUMP JUMPDEST PUSH2 0x1E12 JUMP JUMPDEST CALLVALUE PUSH2 0x30B JUMPI PUSH2 0x5A8 PUSH2 0xDF5 CALLDATASIZE PUSH1 0x4 PUSH2 0x877 JUMP JUMPDEST PUSH2 0x1E7C JUMP JUMPDEST PUSH2 0x379 SWAP1 DUP2 JUMP JUMPDEST PUSH2 0x379 SWAP1 SLOAD PUSH2 0xDFA JUMP JUMPDEST PUSH2 0x379 PUSH2 0xCDF PUSH1 0xF PUSH2 0xE01 JUMP JUMPDEST PUSH2 0xE21 DUP2 PUSH2 0x1E85 JUMP JUMPDEST SWAP1 DUP2 ISZERO PUSH2 0xE2C JUMPI POP SWAP1 JUMP JUMPDEST SWAP1 POP PUSH2 0xE48 PUSH4 0x2FA757F3 PUSH1 0xE0 SHL JUMPDEST SWAP2 PUSH1 0x1 PUSH1 0x1 PUSH1 0xE0 SHL SUB NOT AND SWAP1 JUMP JUMPDEST EQ SWAP1 JUMP JUMPDEST PUSH2 0x379 SWAP1 PUSH2 0xAD4 JUMP JUMPDEST PUSH2 0x379 PUSH1 0x0 PUSH2 0xE4C JUMP JUMPDEST PUSH2 0x379 SWAP1 PUSH2 0xE6C DUP2 PUSH2 0x1E8E JUMP JUMPDEST POP PUSH2 0x1ECE JUMP JUMPDEST PUSH2 0x314 SWAP2 CALLER SWAP2 PUSH2 0x1EEA JUMP JUMPDEST PUSH4 0x4E487B71 PUSH1 0xE0 SHL PUSH1 0x0 MSTORE PUSH1 0x11 PUSH1 0x4 MSTORE PUSH1 0x24 PUSH1 0x0 REVERT JUMPDEST SWAP2 SWAP1 DUP3 ADD DUP1 SWAP3 GT PUSH2 0xEA0 JUMPI JUMP JUMPDEST PUSH2 0xE7D JUMP JUMPDEST SWAP1 PUSH1 0x0 NOT SWAP1 JUMPDEST SWAP2 DUP2 NOT AND SWAP2 AND OR SWAP1 JUMP JUMPDEST SWAP1 PUSH2 0xEC5 PUSH2 0x379 PUSH2 0xECC SWAP3 PUSH2 0x43D JUMP JUMPDEST DUP3 SLOAD PUSH2 0xEA5 JUMP JUMPDEST SWAP1 SSTORE JUMP JUMPDEST PUSH2 0xEEC PUSH2 0xEDC PUSH1 0x8 SLOAD SWAP1 JUMP JUMPDEST PUSH2 0xEE6 PUSH1 0x1 PUSH2 0x43D JUMP JUMPDEST SWAP1 PUSH2 0xE93 JUMP JUMPDEST PUSH2 0xEF4 PUSH2 0x1F38 JUMP JUMPDEST POP PUSH2 0x379 PUSH2 0xF03 DUP3 PUSH1 0x14 PUSH2 0x44A JUMP JUMPDEST TIMESTAMP SWAP1 PUSH2 0xEB5 JUMP JUMPDEST SWAP1 PUSH2 0xF25 PUSH2 0xF19 PUSH2 0x5D2 DUP5 SLOAD SWAP1 JUMP JUMPDEST SWAP3 PUSH1 0x0 MSTORE PUSH1 0x20 PUSH1 0x0 KECCAK256 SWAP1 JUMP JUMPDEST SWAP1 PUSH1 0x0 JUMPDEST DUP2 DUP2 LT PUSH2 0xF36 JUMPI POP POP POP SWAP1 JUMP JUMPDEST SWAP1 SWAP2 SWAP3 PUSH2 0xF5A PUSH2 0xF53 PUSH1 0x1 SWAP3 PUSH2 0xF4B DUP8 PUSH2 0xE01 JUMP JUMPDEST DUP2 MSTORE PUSH1 0x20 ADD SWAP1 JUMP JUMPDEST SWAP5 PUSH1 0x1 ADD SWAP1 JUMP JUMPDEST SWAP3 SWAP2 ADD PUSH2 0xF29 JUMP JUMPDEST SWAP1 PUSH2 0x379 SWAP2 PUSH2 0xF0A JUMP JUMPDEST SWAP1 PUSH2 0x314 PUSH2 0xAEE SWAP3 PUSH2 0xF7D PUSH1 0x40 MLOAD SWAP1 JUMP JUMPDEST SWAP4 DUP5 DUP1 SWAP3 PUSH2 0xF62 JUMP JUMPDEST PUSH2 0x379 SWAP1 PUSH2 0xF6C JUMP JUMPDEST PUSH2 0x379 PUSH1 0x10 PUSH2 0xF86 JUMP JUMPDEST PUSH2 0x379 SWAP1 PUSH2 0x3B3 SWAP1 PUSH1 0x1 PUSH1 0x1 PUSH1 0xA0 SHL SUB AND DUP3 JUMP JUMPDEST PUSH2 0x379 SWAP1 PUSH2 0xF99 JUMP JUMPDEST PUSH2 0xFCF PUSH2 0xFC9 PUSH2 0x379 SWAP3 PUSH4 0xFFFFFFFF AND SWAP1 JUMP JUMPDEST PUSH1 0xE0 SHL SWAP1 JUMP JUMPDEST PUSH1 0x1 PUSH1 0x1 PUSH1 0xE0 SHL SUB NOT AND SWAP1 JUMP JUMPDEST POP POP POP POP PUSH2 0xFE8 PUSH1 0x0 SWAP1 JUMP JUMPDEST POP PUSH2 0x379 PUSH4 0x150B7A02 PUSH2 0xFB6 JUMP JUMPDEST DUP2 DUP2 MUL SWAP3 SWAP2 DUP2 ISZERO SWAP2 DUP5 DIV EQ OR ISZERO PUSH2 0xEA0 JUMPI JUMP JUMPDEST PUSH4 0x4E487B71 PUSH1 0xE0 SHL PUSH1 0x0 MSTORE PUSH1 0x12 PUSH1 0x4 MSTORE PUSH1 0x24 PUSH1 0x0 REVERT JUMPDEST SWAP1 PUSH2 0x1029 JUMP JUMPDEST SWAP2 SWAP1 JUMP JUMPDEST SWAP1 DUP2 ISZERO PUSH2 0x1034 JUMPI DIV SWAP1 JUMP JUMPDEST PUSH2 0x1009 JUMP JUMPDEST SWAP2 SWAP1 DUP3 SUB SWAP2 DUP3 GT PUSH2 0xEA0 JUMPI JUMP JUMPDEST PUSH2 0x379 PUSH2 0x1051 PUSH2 0x12D9 JUMP JUMPDEST PUSH2 0x107E PUSH2 0x1067 PUSH2 0x1061 PUSH1 0xD PUSH2 0xE01 JUMP JUMPDEST DUP4 PUSH2 0xFF6 JUMP JUMPDEST PUSH2 0x1078 PUSH8 0xDE0B6B3A7640000 PUSH2 0x43D JUMP JUMPDEST SWAP1 PUSH2 0x101F JUMP JUMPDEST SWAP1 PUSH2 0x1039 JUMP JUMPDEST PUSH2 0x3B3 PUSH2 0x379 PUSH2 0x379 SWAP3 SWAP1 JUMP JUMPDEST PUSH2 0x379 SWAP1 PUSH2 0x1084 JUMP JUMPDEST PUSH1 0x40 SWAP1 PUSH2 0x10C1 PUSH2 0x314 SWAP5 SWAP7 SWAP6 SWAP4 SWAP7 PUSH2 0x10BA PUSH1 0x60 DUP5 ADD SWAP9 PUSH1 0x0 DUP6 ADD SWAP1 PUSH2 0x3D6 JUMP JUMPDEST PUSH1 0x20 DUP4 ADD MSTORE JUMP JUMPDEST ADD SWAP1 PUSH2 0x3D6 JUMP JUMPDEST SWAP1 SWAP2 PUSH1 0x0 SWAP3 PUSH2 0x10D6 DUP5 PUSH2 0x1091 JUMP JUMPDEST PUSH2 0x10DF DUP2 PUSH2 0x3B3 JUMP JUMPDEST PUSH2 0x10E8 DUP4 PUSH2 0x3B3 JUMP JUMPDEST EQ PUSH2 0x1137 JUMPI POP PUSH2 0x10FA SWAP1 DUP3 CALLER SWAP2 PUSH2 0x1FF2 JUMP JUMPDEST SWAP2 PUSH2 0x1104 DUP2 PUSH2 0x3B3 JUMP JUMPDEST PUSH2 0x110D DUP5 PUSH2 0x3B3 JUMP JUMPDEST SUB PUSH2 0x1118 JUMPI POP POP POP POP JUMP JUMPDEST PUSH4 0x64283D7B PUSH1 0xE0 SHL DUP5 MSTORE DUP4 SWAP3 PUSH2 0x1133 SWAP3 SWAP1 SWAP2 PUSH1 0x4 DUP6 ADD PUSH2 0x109A JUMP JUMPDEST SUB SWAP1 REVERT JUMPDEST DUP5 PUSH2 0x1133 DUP2 SWAP3 PUSH4 0x32505749 PUSH1 0xE1 SHL DUP4 MSTORE PUSH1 0x4 DUP4 ADD PUSH2 0x3DF JUMP JUMPDEST SWAP2 PUSH1 0x20 PUSH2 0x314 SWAP3 SWAP5 SWAP4 PUSH2 0x116B PUSH1 0x40 DUP3 ADD SWAP7 PUSH1 0x0 DUP4 ADD SWAP1 PUSH2 0x3D6 JUMP JUMPDEST ADD MSTORE JUMP JUMPDEST PUSH2 0x379 SWAP1 PUSH2 0xFAD JUMP JUMPDEST SWAP1 PUSH2 0x454 SWAP1 PUSH2 0x116F JUMP JUMPDEST PUSH2 0x118E PUSH2 0x379 DUP3 PUSH2 0x1678 JUMP JUMPDEST DUP3 LT ISZERO PUSH2 0x11B1 JUMPI PUSH2 0x379 SWAP2 PUSH2 0x11A7 PUSH2 0x11AC SWAP3 PUSH1 0x6 PUSH2 0x1178 JUMP JUMPDEST PUSH2 0x44A JUMP JUMPDEST PUSH2 0xE01 JUMP JUMPDEST PUSH4 0x295F44F7 PUSH1 0xE2 SHL PUSH1 0x0 SWAP1 DUP2 MSTORE SWAP2 PUSH2 0x11CA SWAP2 PUSH1 0x4 PUSH2 0x1150 JUMP JUMPDEST SUB PUSH1 0x0 REVERT JUMPDEST PUSH2 0x379 SWAP1 PUSH2 0x3B3 JUMP JUMPDEST PUSH2 0x379 SWAP1 SLOAD PUSH2 0x11CF JUMP JUMPDEST ISZERO PUSH2 0x11E9 JUMPI JUMP JUMPDEST PUSH1 0x40 MLOAD PUSH3 0x461BCD PUSH1 0xE5 SHL DUP2 MSTORE PUSH1 0x20 PUSH1 0x4 DUP3 ADD MSTORE PUSH1 0x23 PUSH1 0x24 DUP3 ADD MSTORE PUSH32 0x4F6E6C792063726561746F722063616E2063616C6C20746869732066756E6374 PUSH1 0x44 DUP3 ADD MSTORE PUSH3 0x34B7B7 PUSH1 0xE9 SHL PUSH1 0x64 DUP3 ADD MSTORE PUSH1 0x84 SWAP1 REVERT JUMPDEST PUSH2 0x314 SWAP1 PUSH2 0x1262 PUSH2 0x1253 PUSH2 0x124E PUSH1 0xE PUSH2 0x11D8 JUMP JUMPDEST PUSH2 0x3B3 JUMP JUMPDEST PUSH2 0x125C CALLER PUSH2 0x3B3 JUMP JUMPDEST EQ PUSH2 0x11E2 JUMP JUMPDEST PUSH2 0x128D JUMP JUMPDEST SWAP1 PUSH1 0x1 PUSH1 0x1 PUSH1 0xA0 SHL SUB SWAP1 PUSH2 0xEAB JUMP JUMPDEST SWAP1 PUSH2 0x1286 PUSH2 0x379 PUSH2 0xECC SWAP3 PUSH2 0x116F JUMP JUMPDEST DUP3 SLOAD PUSH2 0x1267 JUMP JUMPDEST PUSH2 0x314 SWAP1 PUSH1 0xE PUSH2 0x1276 JUMP JUMPDEST PUSH2 0x314 SWAP1 PUSH2 0x123A JUMP JUMPDEST SWAP1 PUSH2 0x12AE PUSH2 0x6DB DUP4 PUSH2 0x6A2 JUMP JUMPDEST SWAP2 DUP3 MSTORE JUMP JUMPDEST PUSH2 0x379 PUSH1 0x0 PUSH2 0x12A1 JUMP JUMPDEST PUSH2 0x379 PUSH2 0x12B3 JUMP JUMPDEST SWAP1 SWAP2 PUSH2 0x314 SWAP3 PUSH2 0x12D3 PUSH2 0x12BD JUMP JUMPDEST SWAP3 PUSH2 0x17C0 JUMP JUMPDEST PUSH2 0x12E3 PUSH1 0xF PUSH2 0xE01 JUMP JUMPDEST PUSH2 0x12F0 PUSH2 0x1025 PUSH1 0x0 PUSH2 0x43D JUMP JUMPDEST GT ISZERO PUSH2 0x1310 JUMPI PUSH2 0x379 PUSH2 0xCDF PUSH2 0x1306 PUSH1 0xF PUSH2 0xE01 JUMP JUMPDEST PUSH2 0x107E PUSH1 0x1 PUSH2 0x43D JUMP JUMPDEST PUSH2 0x379 PUSH2 0xCDF PUSH1 0x0 PUSH2 0x43D JUMP JUMPDEST PUSH2 0x379 PUSH2 0x1328 PUSH2 0xE0B JUMP JUMPDEST PUSH2 0xEE6 PUSH2 0x1067 PUSH2 0x1061 PUSH1 0xD PUSH2 0xE01 JUMP JUMPDEST PUSH2 0x1344 PUSH2 0x379 PUSH1 0x8 SLOAD SWAP1 JUMP JUMPDEST DUP2 LT ISZERO PUSH2 0x1359 JUMPI PUSH2 0xCA8 PUSH2 0x379 SWAP2 PUSH1 0x8 PUSH2 0xC68 JUMP JUMPDEST PUSH2 0x1133 SWAP1 PUSH1 0x0 SWAP2 DUP3 SWAP2 PUSH2 0x136B DUP4 PUSH2 0x1091 JUMP JUMPDEST PUSH4 0x295F44F7 PUSH1 0xE2 SHL DUP5 MSTORE PUSH1 0x4 DUP5 ADD PUSH2 0x1150 JUMP JUMPDEST PUSH2 0x314 SWAP1 PUSH2 0x1392 PUSH2 0x1253 PUSH2 0x124E PUSH1 0xE PUSH2 0x11D8 JUMP JUMPDEST PUSH2 0x1519 JUMP JUMPDEST SWAP2 PUSH1 0x0 NOT PUSH1 0x8 SWAP3 SWAP1 SWAP3 MUL SWAP2 DUP3 SHL SWAP2 SHL PUSH2 0xEAB JUMP JUMPDEST SWAP2 SWAP1 PUSH2 0x13BC PUSH2 0x379 PUSH2 0xECC SWAP4 PUSH2 0x43D JUMP JUMPDEST SWAP1 DUP4 SLOAD PUSH2 0x1397 JUMP JUMPDEST PUSH2 0x314 SWAP2 PUSH1 0x0 SWAP2 PUSH2 0x13AB JUMP JUMPDEST DUP2 DUP2 LT PUSH2 0x13DB JUMPI POP POP JUMP JUMPDEST DUP1 PUSH2 0x13E9 PUSH1 0x0 PUSH1 0x1 SWAP4 PUSH2 0x13C4 JUMP JUMPDEST ADD PUSH2 0x13D0 JUMP JUMPDEST SWAP2 SWAP1 PUSH1 0x1F DUP2 GT PUSH2 0x13FE JUMPI POP POP POP JUMP JUMPDEST PUSH2 0x1410 PUSH2 0x314 SWAP4 PUSH1 0x0 MSTORE PUSH1 0x20 PUSH1 0x0 KECCAK256 SWAP1 JUMP JUMPDEST SWAP1 PUSH1 0x20 PUSH1 0x1F DUP5 ADD DUP2 SWAP1 DIV DUP4 ADD SWAP4 LT PUSH2 0x1432 JUMPI JUMPDEST PUSH1 0x20 PUSH1 0x1F SWAP1 SWAP2 ADD DIV ADD SWAP1 PUSH2 0x13D0 JUMP JUMPDEST SWAP1 SWAP2 POP DUP2 SWAP1 PUSH2 0x1423 JUMP JUMPDEST SWAP1 PUSH2 0x1445 DUP2 MLOAD SWAP1 JUMP JUMPDEST SWAP1 PUSH8 0xFFFFFFFFFFFFFFFF DUP3 GT PUSH2 0x689 JUMPI PUSH2 0x1469 DUP3 PUSH2 0x1463 DUP6 SLOAD PUSH2 0xA1C JUMP JUMPDEST DUP6 PUSH2 0x13EF JUMP JUMPDEST PUSH1 0x20 SWAP1 PUSH1 0x1F DUP4 GT PUSH1 0x1 EQ PUSH2 0x14A4 JUMPI PUSH2 0xECC SWAP3 SWAP2 PUSH1 0x0 SWAP2 DUP4 PUSH2 0x1499 JUMPI JUMPDEST POP POP PUSH1 0x0 NOT PUSH1 0x8 DUP4 MUL SHR NOT AND SWAP1 PUSH1 0x2 MUL OR SWAP1 JUMP JUMPDEST ADD MLOAD SWAP1 POP CODESIZE DUP1 PUSH2 0x1485 JUMP JUMPDEST PUSH1 0x1F NOT DUP4 AND SWAP2 PUSH2 0x14B9 DUP6 PUSH1 0x0 MSTORE PUSH1 0x20 PUSH1 0x0 KECCAK256 SWAP1 JUMP JUMPDEST SWAP3 PUSH1 0x0 JUMPDEST DUP2 DUP2 LT PUSH2 0x14F7 JUMPI POP SWAP2 PUSH1 0x2 SWAP4 SWAP2 DUP6 PUSH1 0x1 SWAP7 SWAP5 LT PUSH2 0x14DE JUMPI JUMPDEST POP POP POP MUL ADD SWAP1 SSTORE JUMP JUMPDEST ADD MLOAD PUSH1 0x0 NOT PUSH1 0x8 PUSH1 0x1F DUP6 AND MUL SHR NOT AND SWAP1 SSTORE CODESIZE DUP1 DUP1 PUSH2 0x14D5 JUMP JUMPDEST SWAP2 SWAP4 PUSH1 0x20 PUSH1 0x1 DUP2 SWAP3 DUP8 DUP8 ADD MLOAD DUP2 SSTORE ADD SWAP6 ADD SWAP3 ADD PUSH2 0x14BD JUMP JUMPDEST SWAP1 PUSH2 0x314 SWAP2 PUSH2 0x143C JUMP JUMPDEST PUSH2 0x314 SWAP1 PUSH1 0x12 PUSH2 0x150F JUMP JUMPDEST PUSH2 0x314 SWAP1 PUSH2 0x137E JUMP JUMPDEST ISZERO PUSH2 0x1534 JUMPI JUMP JUMPDEST PUSH1 0x40 MLOAD PUSH3 0x461BCD PUSH1 0xE5 SHL DUP2 MSTORE PUSH1 0x20 PUSH1 0x4 DUP3 ADD MSTORE PUSH1 0x19 PUSH1 0x24 DUP3 ADD MSTORE PUSH32 0x537461727420696E646578206F7574206F6620626F756E647300000000000000 PUSH1 0x44 DUP3 ADD MSTORE PUSH1 0x64 SWAP1 REVERT JUMPDEST PUSH8 0xFFFFFFFFFFFFFFFF DUP2 GT PUSH2 0x689 JUMPI PUSH1 0x20 DUP1 SWAP2 MUL ADD SWAP1 JUMP JUMPDEST SWAP1 PUSH2 0x12AE PUSH2 0x6DB DUP4 PUSH2 0x1579 JUMP JUMPDEST CALLDATASIZE SWAP1 CALLDATACOPY JUMP JUMPDEST SWAP1 PUSH2 0x314 PUSH2 0x15B9 PUSH2 0x15B3 DUP5 PUSH2 0x1591 JUMP JUMPDEST SWAP4 PUSH2 0x1579 JUMP JUMPDEST PUSH1 0x1F NOT ADD PUSH1 0x20 DUP5 ADD PUSH2 0x159E JUMP JUMPDEST SWAP1 PUSH2 0x15CF DUP3 MLOAD SWAP1 JUMP JUMPDEST DUP2 LT ISZERO PUSH2 0xC8B JUMPI PUSH1 0x20 DUP1 SWAP2 MUL ADD ADD SWAP1 JUMP JUMPDEST SWAP2 PUSH2 0x160D PUSH2 0x1605 PUSH1 0x10 SWAP4 PUSH2 0x15FF PUSH2 0x15F8 PUSH2 0x379 DUP8 SLOAD SWAP1 JUMP JUMPDEST DUP8 LT PUSH2 0x152D JUMP JUMPDEST DUP6 PUSH2 0xE93 JUMP JUMPDEST DUP4 SLOAD SWAP1 PUSH2 0x1FFD JUMP JUMPDEST SWAP2 PUSH2 0x1620 PUSH2 0x161B DUP6 DUP6 PUSH2 0x1039 JUMP JUMPDEST PUSH2 0x15A3 JUMP JUMPDEST SWAP2 DUP5 JUMPDEST DUP5 JUMPDEST DUP2 LT ISZERO PUSH2 0x1666 JUMPI PUSH2 0x165F DUP2 PUSH2 0x1659 PUSH2 0x1643 PUSH2 0xCA8 PUSH2 0x1625 SWAP6 DUP9 PUSH2 0xC68 JUMP JUMPDEST PUSH2 0x1656 PUSH2 0x1650 DUP12 DUP6 PUSH2 0x1039 JUMP JUMPDEST DUP10 PUSH2 0x15C6 JUMP JUMPDEST MSTORE JUMP JUMPDEST PUSH1 0x1 ADD SWAP1 JUMP JUMPDEST SWAP1 POP PUSH2 0x1623 JUMP JUMPDEST POP SWAP4 POP POP SWAP1 POP SWAP1 JUMP JUMPDEST PUSH2 0x379 SWAP1 PUSH2 0x1E8E JUMP JUMPDEST PUSH1 0x0 PUSH2 0x1683 DUP2 PUSH2 0x1091 JUMP JUMPDEST PUSH2 0x168C DUP2 PUSH2 0x3B3 JUMP JUMPDEST PUSH2 0x1695 DUP5 PUSH2 0x3B3 JUMP JUMPDEST EQ PUSH2 0x16AA JUMPI POP POP PUSH2 0x11AC PUSH2 0x379 SWAP2 PUSH1 0x3 PUSH2 0x1178 JUMP JUMPDEST PUSH4 0x22718AD9 PUSH1 0xE2 SHL DUP3 MSTORE DUP2 SWAP1 PUSH2 0x1133 SWAP1 PUSH1 0x4 DUP4 ADD PUSH2 0x3DF JUMP JUMPDEST PUSH2 0x16CB PUSH2 0x200F JUMP JUMPDEST PUSH2 0x314 PUSH2 0x314 PUSH2 0x16DB PUSH1 0x0 PUSH2 0x1091 JUMP JUMPDEST PUSH2 0x2046 JUMP JUMPDEST PUSH2 0x314 PUSH2 0x16C3 JUMP JUMPDEST PUSH2 0x379 PUSH1 0xA PUSH2 0x11D8 JUMP JUMPDEST PUSH2 0x314 SWAP1 PUSH2 0x1706 PUSH2 0x1253 PUSH2 0x124E PUSH1 0xE PUSH2 0x11D8 JUMP JUMPDEST PUSH2 0x314 SWAP1 PUSH1 0x13 PUSH2 0x150F JUMP JUMPDEST PUSH2 0x314 SWAP1 PUSH2 0x16F2 JUMP JUMPDEST PUSH2 0x379 PUSH1 0x1 PUSH2 0xE4C JUMP JUMPDEST PUSH2 0x314 SWAP2 SWAP1 CALLER PUSH2 0x20BF JUMP JUMPDEST PUSH2 0x1739 PUSH1 0x0 PUSH2 0x43D JUMP JUMPDEST DUP2 EQ PUSH2 0x17B5 JUMPI PUSH2 0x379 SWAP1 PUSH2 0xEE6 PUSH2 0x1750 PUSH1 0xB PUSH2 0xE01 JUMP JUMPDEST SWAP2 PUSH2 0x1777 PUSH2 0x17A0 PUSH2 0x1796 PUSH2 0x1796 PUSH2 0x17A5 PUSH2 0x177D PUSH2 0x176D PUSH1 0xB PUSH2 0xE01 JUMP JUMPDEST PUSH2 0x1777 PUSH1 0x2 PUSH2 0x43D JUMP JUMPDEST SWAP1 PUSH2 0xFF6 JUMP JUMPDEST PUSH2 0x1777 PUSH2 0x17A0 PUSH2 0x1796 DUP10 PUSH2 0x1791 PUSH1 0x64 PUSH2 0x43D JUMP JUMPDEST PUSH2 0xFF6 JUMP JUMPDEST PUSH2 0x1078 PUSH1 0xC PUSH2 0xE01 JUMP JUMPDEST PUSH2 0x2183 JUMP JUMPDEST SWAP5 PUSH2 0x1791 DUP2 PUSH2 0x1791 PUSH2 0x2710 PUSH2 0x43D JUMP JUMPDEST POP PUSH2 0x379 PUSH1 0xB PUSH2 0xE01 JUMP JUMPDEST SWAP1 PUSH2 0x314 SWAP4 SWAP3 SWAP2 PUSH2 0x17D2 DUP4 DUP4 DUP4 PUSH2 0x10C8 JUMP JUMPDEST PUSH2 0x22DD JUMP JUMPDEST ADD SWAP2 DUP3 MSTORE JUMP JUMPDEST PUSH2 0x379 SWAP1 PUSH2 0x43D JUMP JUMPDEST PUSH2 0x4FF PUSH2 0x17FE SWAP3 PUSH1 0x20 SWAP3 PUSH2 0x17F8 DUP2 MLOAD SWAP1 JUMP JUMPDEST SWAP5 DUP6 SWAP3 SWAP1 JUMP JUMPDEST SWAP4 DUP5 SWAP2 ADD PUSH2 0x4A8 JUMP JUMPDEST PUSH32 0x7B226465736372697074696F6E223A2022466C69704E46542069732074686520 DUP2 MSTORE PUSH32 0x666972737420426F6E64696E67204375727665204E46542E222C2022696D6167 PUSH1 0x20 DUP3 ADD MSTORE PUSH32 0x65223A2022646174613A696D6167652F7376672B786D6C3B6261736536342C00 PUSH1 0x40 DUP3 ADD MSTORE PUSH2 0x379 SWAP2 PUSH2 0x1888 SWAP2 PUSH1 0x5F ADD JUMPDEST SWAP1 PUSH2 0x17E6 JUMP JUMPDEST PUSH2 0x227D PUSH1 0xF0 SHL DUP2 MSTORE PUSH1 0x2 ADD SWAP1 JUMP JUMPDEST PUSH32 0x646174613A6170706C69636174696F6E2F6A736F6E3B6261736536342C000000 DUP2 MSTORE PUSH2 0x379 SWAP2 SWAP1 PUSH1 0x1D ADD PUSH2 0x1882 JUMP JUMPDEST PUSH2 0x1963 PUSH2 0x1942 PUSH2 0x379 PUSH2 0x1947 PUSH2 0x1942 PUSH2 0x379 PUSH2 0x193D PUSH2 0x1919 PUSH2 0x1925 PUSH2 0x379 SWAP10 PUSH2 0x18ED PUSH1 0x60 SWAP1 JUMP JUMPDEST POP PUSH2 0x18FC PUSH2 0x11AC DUP3 PUSH1 0x14 PUSH2 0x44A JUMP JUMPDEST PUSH1 0x40 MLOAD SWAP4 DUP5 SWAP3 PUSH1 0x20 DUP5 ADD SWAP3 DUP4 PUSH1 0x20 DUP2 PUSH2 0x17D7 PUSH2 0x4FF SWAP4 DUP4 SWAP7 SWAP6 SWAP1 MSTORE JUMP JUMPDEST SWAP1 DUP2 SUB DUP3 MSTORE SUB DUP3 PUSH2 0x667 JUMP JUMPDEST PUSH2 0x1937 PUSH2 0x1930 DUP3 MLOAD SWAP1 JUMP JUMPDEST SWAP2 PUSH1 0x20 ADD SWAP1 JUMP JUMPDEST KECCAK256 PUSH2 0x17DD JUMP JUMPDEST PUSH2 0x257E JUMP JUMPDEST PUSH2 0x2821 JUMP JUMPDEST PUSH2 0x379 PUSH2 0x1953 PUSH1 0x40 MLOAD SWAP1 JUMP JUMPDEST DUP1 SWAP3 PUSH2 0x1919 PUSH1 0x20 DUP4 ADD SWAP2 DUP3 PUSH2 0x1807 JUMP JUMPDEST PUSH2 0x379 PUSH2 0x196F PUSH1 0x40 MLOAD SWAP1 JUMP JUMPDEST DUP1 SWAP3 PUSH2 0x1919 PUSH1 0x20 DUP4 ADD SWAP2 DUP3 PUSH2 0x1896 JUMP JUMPDEST PUSH2 0xCA8 PUSH2 0x379 SWAP2 PUSH2 0x198E PUSH1 0x0 SWAP1 JUMP JUMPDEST POP PUSH1 0x10 PUSH2 0xC68 JUMP JUMPDEST ISZERO PUSH2 0x199D JUMPI JUMP JUMPDEST PUSH1 0x40 MLOAD PUSH3 0x461BCD PUSH1 0xE5 SHL DUP2 MSTORE PUSH1 0x20 PUSH1 0x4 DUP3 ADD MSTORE PUSH1 0x1F PUSH1 0x24 DUP3 ADD MSTORE PUSH32 0x546F6B656E206973206E6F7420617661696C61626C6520666F722073616C6500 PUSH1 0x44 DUP3 ADD MSTORE PUSH1 0x64 SWAP1 REVERT JUMPDEST PUSH2 0x314 SWAP1 PUSH2 0x1A0D PUSH2 0x19F2 DUP3 PUSH2 0x166F JUMP JUMPDEST PUSH2 0x1A07 PUSH2 0x1A01 PUSH2 0x124E ADDRESS PUSH2 0x116F JUMP JUMPDEST SWAP2 PUSH2 0x3B3 JUMP JUMPDEST EQ PUSH2 0x1996 JUMP JUMPDEST PUSH2 0x1AD4 JUMP JUMPDEST ISZERO PUSH2 0x1A19 JUMPI JUMP JUMPDEST PUSH1 0x40 MLOAD PUSH3 0x461BCD PUSH1 0xE5 SHL DUP2 MSTORE PUSH1 0x20 PUSH1 0x4 DUP3 ADD MSTORE PUSH1 0x14 PUSH1 0x24 DUP3 ADD MSTORE PUSH20 0x125B9CDD59999A58DA595B9D081C185E5B595B9D PUSH1 0x62 SHL PUSH1 0x44 DUP3 ADD MSTORE PUSH1 0x64 SWAP1 REVERT JUMPDEST PUSH1 0x0 NOT DUP2 EQ PUSH2 0xEA0 JUMPI PUSH1 0x1 ADD SWAP1 JUMP JUMPDEST SWAP1 DUP2 MSTORE PUSH1 0x40 DUP2 ADD SWAP3 SWAP2 PUSH2 0x314 SWAP2 PUSH1 0x20 ADD MSTORE JUMP JUMPDEST RETURNDATASIZE ISZERO PUSH2 0x1A91 JUMPI PUSH2 0x1A86 RETURNDATASIZE PUSH2 0x12A1 JUMP JUMPDEST SWAP1 RETURNDATASIZE PUSH1 0x0 PUSH1 0x20 DUP5 ADD RETURNDATACOPY JUMP JUMPDEST PUSH1 0x60 SWAP1 JUMP JUMPDEST ISZERO PUSH2 0x1A9D JUMPI JUMP JUMPDEST PUSH1 0x40 MLOAD PUSH3 0x461BCD PUSH1 0xE5 SHL DUP2 MSTORE PUSH1 0x20 PUSH1 0x4 DUP3 ADD MSTORE PUSH1 0xF PUSH1 0x24 DUP3 ADD MSTORE PUSH15 0x151C985B9CD9995C8819985A5B1959 PUSH1 0x8A SHL PUSH1 0x44 DUP3 ADD MSTORE PUSH1 0x64 SWAP1 REVERT JUMPDEST PUSH2 0x1BBE PUSH2 0x314 SWAP2 PUSH2 0x1AE3 PUSH2 0xE0B JUMP JUMPDEST PUSH2 0x1AF3 PUSH2 0x1067 PUSH2 0x1061 PUSH1 0xD PUSH2 0xE01 JUMP JUMPDEST SWAP2 PUSH2 0x1B0C PUSH2 0x1B04 PUSH2 0x379 DUP6 DUP6 PUSH2 0xE93 JUMP JUMPDEST CALLVALUE LT ISZERO PUSH2 0x1A12 JUMP JUMPDEST PUSH2 0x1B20 DUP2 PUSH2 0x1B19 ADDRESS PUSH2 0x116F JUMP JUMPDEST CALLER SWAP1 PUSH2 0x291E JUMP JUMPDEST PUSH2 0x1B29 DUP2 PUSH2 0x29E1 JUMP JUMPDEST PUSH2 0x1B45 PUSH2 0x1B3E PUSH2 0x1B39 PUSH1 0xF PUSH2 0xE01 JUMP JUMPDEST PUSH2 0x1A55 JUMP JUMPDEST PUSH1 0xF PUSH2 0xEB5 JUMP JUMPDEST PUSH2 0x1B57 PUSH2 0x1B51 CALLER PUSH2 0x116F JUMP JUMPDEST SWAP2 PUSH2 0x43D JUMP JUMPDEST SWAP1 PUSH32 0x884543C08D36FB5C9B3B688DD0453C9F287199124BDBDDB3B7F9CA885A4D34A0 PUSH2 0x1B82 PUSH1 0x40 MLOAD SWAP1 JUMP JUMPDEST DUP1 PUSH2 0x1B8E DUP8 DUP8 DUP4 PUSH2 0x1A64 JUMP JUMPDEST SUB SWAP1 LOG3 PUSH2 0x1BB9 PUSH1 0x0 DUP1 PUSH2 0x1BA1 PUSH1 0xE PUSH2 0x11D8 JUMP JUMPDEST PUSH1 0x40 MLOAD PUSH1 0x0 SWAP2 DUP8 SWAP1 GAS CALL PUSH2 0x1BB3 PUSH2 0x1A77 JUMP JUMPDEST POP PUSH2 0x1A96 JUMP JUMPDEST PUSH2 0xE93 JUMP JUMPDEST PUSH2 0x2A84 JUMP JUMPDEST PUSH2 0x314 SWAP1 PUSH2 0x19E2 JUMP JUMPDEST ISZERO PUSH2 0x1BD3 JUMPI JUMP JUMPDEST PUSH1 0x40 MLOAD PUSH3 0x461BCD PUSH1 0xE5 SHL DUP2 MSTORE PUSH1 0x20 PUSH1 0x4 DUP3 ADD MSTORE PUSH1 0x13 PUSH1 0x24 DUP3 ADD MSTORE PUSH19 0x21B0B63632B91034B9903737BA1037BBB732B9 PUSH1 0x69 SHL PUSH1 0x44 DUP3 ADD MSTORE PUSH1 0x64 SWAP1 REVERT JUMPDEST PUSH2 0x314 SWAP1 PUSH2 0x1C30 PUSH2 0x1C1E DUP3 PUSH2 0x166F JUMP JUMPDEST PUSH2 0x1C2A PUSH2 0x1A01 CALLER PUSH2 0x3B3 JUMP JUMPDEST EQ PUSH2 0x1BCC JUMP JUMPDEST PUSH2 0x1CDA JUMP JUMPDEST DUP1 ISZERO PUSH2 0xEA0 JUMPI PUSH1 0x0 NOT ADD SWAP1 JUMP JUMPDEST ISZERO PUSH2 0x1C49 JUMPI JUMP JUMPDEST PUSH1 0x40 MLOAD PUSH3 0x461BCD PUSH1 0xE5 SHL DUP2 MSTORE PUSH1 0x20 PUSH1 0x4 DUP3 ADD MSTORE PUSH1 0x19 PUSH1 0x24 DUP3 ADD MSTORE PUSH32 0x5472616E7366657220746F2073656C6C6572206661696C656400000000000000 PUSH1 0x44 DUP3 ADD MSTORE PUSH1 0x64 SWAP1 REVERT JUMPDEST ISZERO PUSH2 0x1C95 JUMPI JUMP JUMPDEST PUSH1 0x40 MLOAD PUSH3 0x461BCD PUSH1 0xE5 SHL DUP2 MSTORE PUSH1 0x20 PUSH1 0x4 DUP3 ADD MSTORE PUSH1 0x1A PUSH1 0x24 DUP3 ADD MSTORE PUSH32 0x5472616E7366657220746F2063726561746F72206661696C6564000000000000 PUSH1 0x44 DUP3 ADD MSTORE PUSH1 0x64 SWAP1 REVERT JUMPDEST PUSH1 0x0 DUP1 PUSH2 0x314 SWAP3 PUSH2 0x1DA6 DUP3 DUP1 PUSH2 0x1CEE PUSH2 0x12D9 JUMP JUMPDEST SWAP4 PUSH2 0x1D8E PUSH2 0x1D08 PUSH2 0x1067 PUSH2 0x1D02 PUSH1 0xD PUSH2 0xE01 JUMP JUMPDEST DUP9 PUSH2 0xFF6 JUMP JUMPDEST DUP1 SWAP7 PUSH2 0x1D11 CALLER SWAP1 JUMP JUMPDEST SWAP4 PUSH2 0x1D25 DUP2 PUSH2 0x1D1F ADDRESS PUSH2 0x116F JUMP JUMPDEST DUP8 PUSH2 0x291E JUMP JUMPDEST PUSH2 0x1D2E DUP2 PUSH2 0x2AF6 JUMP JUMPDEST PUSH2 0x1D43 PUSH2 0x1B3E PUSH2 0x1D3E PUSH1 0xF PUSH2 0xE01 JUMP JUMPDEST PUSH2 0x1C35 JUMP JUMPDEST PUSH2 0x1D4F PUSH2 0x1B51 DUP7 PUSH2 0x116F JUMP JUMPDEST SWAP1 PUSH32 0x8323BEBB324B6E1A1D4886A1F210640461BB275263DAE69967F001D053AB0B2B PUSH2 0x1D7A PUSH1 0x40 MLOAD SWAP1 JUMP JUMPDEST DUP1 PUSH2 0x1D86 DUP8 DUP8 DUP4 PUSH2 0x1A64 JUMP JUMPDEST SUB SWAP1 LOG3 PUSH2 0x1039 JUMP JUMPDEST PUSH1 0x40 MLOAD SWAP1 DUP2 DUP1 SUB SWAP3 GAS CALL PUSH2 0x1DA0 PUSH2 0x1A77 JUMP JUMPDEST POP PUSH2 0x1C42 JUMP JUMPDEST PUSH2 0x1DB0 PUSH1 0xE PUSH2 0x11D8 JUMP JUMPDEST SWAP1 PUSH2 0x1DBA PUSH1 0x40 MLOAD SWAP1 JUMP JUMPDEST SWAP1 DUP2 DUP1 SUB SWAP3 GAS CALL PUSH2 0x1DC9 PUSH2 0x1A77 JUMP JUMPDEST POP PUSH2 0x1C8E JUMP JUMPDEST PUSH2 0x314 SWAP1 PUSH2 0x1C0E JUMP JUMPDEST PUSH2 0x379 SWAP1 JUMPDEST PUSH1 0xFF AND SWAP1 JUMP JUMPDEST PUSH2 0x379 SWAP1 SLOAD PUSH2 0x1DD8 JUMP JUMPDEST PUSH2 0x379 SWAP2 PUSH2 0x1E08 PUSH2 0x1E0D SWAP3 PUSH2 0x1E00 PUSH1 0x0 SWAP1 JUMP JUMPDEST POP PUSH1 0x5 PUSH2 0x1178 JUMP JUMPDEST PUSH2 0x1178 JUMP JUMPDEST PUSH2 0x1DE3 JUMP JUMPDEST PUSH2 0x1E1B SWAP1 PUSH2 0x166F JUMP JUMPDEST PUSH2 0xE48 PUSH2 0x1A01 PUSH2 0x124E ADDRESS PUSH2 0x116F JUMP JUMPDEST PUSH2 0x314 SWAP1 PUSH2 0x1E36 PUSH2 0x200F JUMP JUMPDEST PUSH1 0x0 PUSH2 0x1E41 DUP2 PUSH2 0x1091 JUMP JUMPDEST PUSH2 0x1E4A DUP2 PUSH2 0x3B3 JUMP JUMPDEST PUSH2 0x1E53 DUP5 PUSH2 0x3B3 JUMP JUMPDEST EQ PUSH2 0x1E63 JUMPI POP POP PUSH2 0x314 SWAP1 PUSH2 0x2046 JUMP JUMPDEST PUSH4 0x1E4FBDF7 PUSH1 0xE0 SHL DUP3 MSTORE DUP2 SWAP1 PUSH2 0x1133 SWAP1 PUSH1 0x4 DUP4 ADD PUSH2 0x3DF JUMP JUMPDEST PUSH2 0x314 SWAP1 PUSH2 0x1E2A JUMP JUMPDEST PUSH2 0x379 SWAP1 PUSH2 0x2B1C JUMP JUMPDEST PUSH2 0x1E97 DUP2 PUSH2 0x2B45 JUMP JUMPDEST SWAP1 PUSH1 0x0 SWAP1 PUSH2 0x1EA7 PUSH2 0x124E DUP4 PUSH2 0x1091 JUMP JUMPDEST PUSH2 0x1EB0 DUP5 PUSH2 0x3B3 JUMP JUMPDEST EQ PUSH2 0x1EBA JUMPI POP POP SWAP1 JUMP JUMPDEST PUSH4 0x7E273289 PUSH1 0xE0 SHL DUP3 MSTORE PUSH1 0x4 DUP3 ADD MSTORE PUSH1 0x24 SWAP1 REVERT JUMPDEST PUSH2 0x1EE5 PUSH2 0x379 SWAP2 PUSH2 0x1EDD PUSH1 0x0 SWAP1 JUMP JUMPDEST POP PUSH1 0x4 PUSH2 0x44A JUMP JUMPDEST PUSH2 0x11D8 JUMP JUMPDEST SWAP2 PUSH1 0x1 SWAP2 PUSH2 0x314 SWAP4 PUSH2 0x2B5C JUMP JUMPDEST ISZERO PUSH2 0x1EFE JUMPI JUMP JUMPDEST PUSH1 0x40 MLOAD PUSH3 0x461BCD PUSH1 0xE5 SHL DUP2 MSTORE PUSH1 0x20 PUSH1 0x4 DUP3 ADD MSTORE PUSH1 0x12 PUSH1 0x24 DUP3 ADD MSTORE PUSH18 0x13585E081CDD5C1C1B1E481C995858DA1959 PUSH1 0x72 SHL PUSH1 0x44 DUP3 ADD MSTORE PUSH1 0x64 SWAP1 REVERT JUMPDEST PUSH2 0x1F5A PUSH2 0x1F44 PUSH1 0x8 SLOAD SWAP1 JUMP JUMPDEST PUSH2 0x1F54 PUSH2 0x1025 PUSH2 0x379 PUSH1 0xC PUSH2 0xE01 JUMP JUMPDEST LT PUSH2 0x1EF7 JUMP JUMPDEST PUSH2 0x1F62 PUSH2 0xE0B JUMP JUMPDEST PUSH2 0x379 PUSH2 0x1BBE PUSH2 0x1F7E PUSH2 0x1067 PUSH2 0x1F78 PUSH1 0xD PUSH2 0xE01 JUMP JUMPDEST DUP6 PUSH2 0xFF6 JUMP JUMPDEST PUSH2 0x1F8E PUSH2 0x1B04 PUSH2 0x379 DUP4 DUP8 PUSH2 0xE93 JUMP JUMPDEST PUSH2 0x1F9A PUSH2 0xEDC PUSH1 0x8 SLOAD SWAP1 JUMP JUMPDEST SWAP4 PUSH2 0x1FA5 DUP6 CALLER PUSH2 0x2C84 JUMP JUMPDEST PUSH2 0x1FB5 PUSH2 0x1B3E PUSH2 0x1B39 PUSH1 0xF PUSH2 0xE01 JUMP JUMPDEST PUSH2 0x1FBE CALLER PUSH2 0x116F JUMP JUMPDEST PUSH2 0x1FC7 DUP7 PUSH2 0x43D JUMP JUMPDEST SWAP1 PUSH32 0x10546B1A6F5245FF0FFA18C256B9E46859C585CBB473B453FCD4C2DC39AE08DB PUSH2 0x1B82 PUSH1 0x40 MLOAD SWAP1 JUMP JUMPDEST PUSH2 0x379 SWAP3 SWAP2 SWAP1 PUSH2 0x2C96 JUMP JUMPDEST SWAP1 DUP1 DUP3 LT ISZERO PUSH2 0x200A JUMPI POP SWAP1 JUMP JUMPDEST SWAP1 POP SWAP1 JUMP JUMPDEST PUSH2 0x2017 PUSH2 0x16E8 JUMP JUMPDEST CALLER SWAP1 PUSH2 0x2025 PUSH2 0x1A01 DUP4 PUSH2 0x3B3 JUMP JUMPDEST SUB PUSH2 0x202D JUMPI POP JUMP JUMPDEST PUSH4 0x118CDAA7 PUSH1 0xE0 SHL PUSH1 0x0 SWAP1 DUP2 MSTORE SWAP1 PUSH2 0x11CA SWAP1 PUSH1 0x4 PUSH2 0x3DF JUMP JUMPDEST PUSH2 0x206C PUSH2 0x2066 PUSH2 0x2056 PUSH1 0xA PUSH2 0x11D8 JUMP JUMPDEST PUSH2 0x2061 DUP5 PUSH1 0xA PUSH2 0x1276 JUMP JUMPDEST PUSH2 0x116F JUMP JUMPDEST SWAP2 PUSH2 0x116F JUMP JUMPDEST SWAP1 PUSH32 0x8BE0079C531659141344CD1FD0A4F28419497F9722A3DAAFE3B4186F6B6457E0 PUSH2 0x2097 PUSH1 0x40 MLOAD SWAP1 JUMP JUMPDEST DUP1 DUP1 JUMPDEST SUB SWAP1 LOG3 JUMP JUMPDEST SWAP1 PUSH1 0xFF SWAP1 PUSH2 0xEAB JUMP JUMPDEST SWAP1 PUSH2 0x20B8 PUSH2 0x379 PUSH2 0xECC SWAP3 ISZERO ISZERO SWAP1 JUMP JUMPDEST DUP3 SLOAD PUSH2 0x209F JUMP JUMPDEST PUSH1 0x0 PUSH2 0x20CD PUSH2 0x124E DUP3 PUSH2 0x1091 JUMP JUMPDEST PUSH2 0x20D6 DUP5 PUSH2 0x3B3 JUMP JUMPDEST EQ PUSH2 0x212F JUMPI POP PUSH2 0x209A PUSH2 0x2125 PUSH2 0x211F DUP4 PUSH2 0x2061 DUP8 PUSH2 0x211A DUP9 PUSH2 0x1E08 PUSH32 0x17307EAB39AB6107E8899845AD3D59BD9653F200F220920489CA2B5937696C31 SWAP10 PUSH1 0x5 PUSH2 0x1178 JUMP JUMPDEST PUSH2 0x20A8 JUMP JUMPDEST SWAP4 PUSH2 0x116F JUMP JUMPDEST SWAP4 PUSH2 0x39B PUSH1 0x40 MLOAD SWAP1 JUMP JUMPDEST PUSH4 0xB611743 PUSH1 0xE3 SHL DUP2 MSTORE DUP1 PUSH2 0x1133 DUP5 PUSH1 0x4 DUP4 ADD PUSH2 0x3DF JUMP JUMPDEST PUSH2 0x1DDD PUSH2 0x379 PUSH2 0x379 SWAP3 SWAP1 JUMP JUMPDEST PUSH2 0x379 SWAP1 PUSH2 0x2168 PUSH2 0x1025 PUSH2 0x379 SWAP5 PUSH1 0xFF AND SWAP1 JUMP JUMPDEST SWAP1 SHR SWAP1 JUMP JUMPDEST PUSH2 0x379 SWAP1 PUSH2 0x217E PUSH2 0x1025 PUSH2 0x379 SWAP5 SWAP1 JUMP JUMPDEST SWAP1 SHL SWAP1 JUMP JUMPDEST PUSH2 0x218D PUSH1 0x0 PUSH2 0x43D JUMP JUMPDEST DUP2 EQ PUSH2 0x2273 JUMPI PUSH1 0x1 PUSH2 0x219E DUP3 PUSH2 0x2D2F JUMP JUMPDEST PUSH2 0x21A7 DUP3 PUSH2 0x2147 JUMP JUMPDEST DUP1 DUP1 DUP1 DUP1 DUP1 SWAP7 PUSH2 0x21B8 DUP3 DUP1 SWAP9 PUSH2 0x2154 JUMP JUMPDEST SWAP1 PUSH2 0x21C2 SWAP1 PUSH2 0x43D JUMP JUMPDEST SWAP1 PUSH2 0x21CC SWAP2 PUSH2 0x216D JUMP JUMPDEST PUSH2 0x21D6 DUP2 DUP11 PUSH2 0x101F JUMP JUMPDEST ADD SWAP1 PUSH2 0x21E1 SWAP2 PUSH2 0x2154 JUMP JUMPDEST PUSH2 0x21EB DUP2 DUP10 PUSH2 0x101F JUMP JUMPDEST ADD SWAP1 PUSH2 0x21F6 SWAP2 PUSH2 0x2154 JUMP JUMPDEST PUSH2 0x2200 DUP2 DUP9 PUSH2 0x101F JUMP JUMPDEST ADD SWAP1 PUSH2 0x220B SWAP2 PUSH2 0x2154 JUMP JUMPDEST PUSH2 0x2215 DUP2 DUP8 PUSH2 0x101F JUMP JUMPDEST ADD SWAP1 PUSH2 0x2220 SWAP2 PUSH2 0x2154 JUMP JUMPDEST PUSH2 0x222A DUP2 DUP7 PUSH2 0x101F JUMP JUMPDEST ADD SWAP1 PUSH2 0x2235 SWAP2 PUSH2 0x2154 JUMP JUMPDEST PUSH2 0x223F DUP2 DUP6 PUSH2 0x101F JUMP JUMPDEST ADD SWAP1 PUSH2 0x224A SWAP2 PUSH2 0x2154 JUMP JUMPDEST PUSH2 0x2254 DUP2 DUP5 PUSH2 0x101F JUMP JUMPDEST ADD SWAP1 PUSH2 0x225F SWAP2 PUSH2 0x2154 JUMP JUMPDEST SWAP1 DUP2 PUSH2 0x226A SWAP2 PUSH2 0x101F JUMP JUMPDEST PUSH2 0x379 SWAP2 PUSH2 0x1FFD JUMP JUMPDEST POP PUSH2 0x379 PUSH1 0x0 PUSH2 0x43D JUMP JUMPDEST SWAP1 POP MLOAD SWAP1 PUSH2 0x314 DUP3 PUSH2 0x345 JUMP JUMPDEST SWAP1 PUSH1 0x20 DUP3 DUP3 SUB SLT PUSH2 0x30B JUMPI PUSH2 0x379 SWAP2 PUSH2 0x227E JUMP JUMPDEST SWAP1 SWAP3 PUSH2 0x22D0 SWAP1 PUSH2 0x22C9 PUSH2 0x379 SWAP7 SWAP5 PUSH2 0x22BF PUSH1 0x80 DUP7 ADD SWAP8 PUSH1 0x0 DUP8 ADD SWAP1 PUSH2 0x3D6 JUMP JUMPDEST PUSH1 0x20 DUP6 ADD SWAP1 PUSH2 0x3D6 JUMP JUMPDEST PUSH1 0x40 DUP4 ADD MSTORE JUMP JUMPDEST PUSH1 0x60 DUP2 DUP5 SUB SWAP2 ADD MSTORE PUSH2 0x4CB JUMP JUMPDEST PUSH1 0x0 SWAP4 SWAP2 SWAP3 DUP4 EXTCODESIZE PUSH2 0x22F0 PUSH2 0x1025 DUP8 PUSH2 0x43D JUMP JUMPDEST GT PUSH2 0x22FD JUMPI JUMPDEST POP POP POP POP POP JUMP JUMPDEST PUSH1 0x20 SWAP2 PUSH2 0x230C PUSH2 0x2061 DUP7 PUSH2 0x116F JUMP JUMPDEST SWAP1 DUP7 CALLER PUSH2 0x2335 PUSH2 0x231B PUSH1 0x40 MLOAD SWAP1 JUMP JUMPDEST SWAP8 DUP9 SWAP7 DUP8 SWAP6 DUP7 SWAP5 PUSH4 0xA85BD01 PUSH1 0xE1 SHL DUP7 MSTORE PUSH1 0x4 DUP7 ADD PUSH2 0x229F JUMP JUMPDEST SUB SWAP3 GAS CALL PUSH1 0x0 SWAP2 DUP2 PUSH2 0x23C9 JUMPI JUMPDEST POP PUSH2 0x2394 JUMPI POP PUSH2 0x2357 JUMP JUMPDEST CODESIZE DUP1 DUP1 DUP1 DUP1 PUSH2 0x22F6 JUMP JUMPDEST PUSH2 0x235F PUSH2 0x1A77 JUMP JUMPDEST DUP1 MLOAD PUSH2 0x236D PUSH2 0x1025 DUP6 PUSH2 0x43D JUMP JUMPDEST SUB PUSH2 0x238C JUMPI POP PUSH4 0x32505749 PUSH1 0xE1 SHL DUP3 MSTORE DUP2 SWAP1 PUSH2 0x1133 SWAP1 PUSH1 0x4 DUP4 ADD PUSH2 0x3DF JUMP JUMPDEST DUP1 MLOAD SWAP1 PUSH1 0x20 ADD REVERT JUMPDEST PUSH2 0x23A4 PUSH4 0xA85BD01 PUSH1 0xE1 SHL PUSH2 0xE3A JUMP JUMPDEST SUB PUSH2 0x23B0 JUMPI POP POP PUSH2 0x234D JUMP JUMPDEST PUSH4 0x32505749 PUSH1 0xE1 SHL DUP3 MSTORE DUP2 SWAP1 PUSH2 0x1133 SWAP1 PUSH1 0x4 DUP4 ADD PUSH2 0x3DF JUMP JUMPDEST PUSH2 0x23EC SWAP2 SWAP3 POP PUSH1 0x20 RETURNDATASIZE PUSH1 0x20 GT PUSH2 0x23F3 JUMPI JUMPDEST PUSH2 0x23E4 DUP2 DUP4 PUSH2 0x667 JUMP JUMPDEST DUP2 ADD SWAP1 PUSH2 0x228B JUMP JUMPDEST SWAP1 CODESIZE PUSH2 0x2342 JUMP JUMPDEST POP RETURNDATASIZE PUSH2 0x23DA JUMP JUMPDEST DUP2 ISZERO PUSH2 0x1034 JUMPI MOD SWAP1 JUMP JUMPDEST PUSH2 0x379 PUSH1 0x80 PUSH2 0x68E JUMP JUMPDEST PUSH2 0x2416 PUSH2 0x2404 JUMP JUMPDEST PUSH1 0x0 DUP1 DUP3 MSTORE PUSH1 0x20 DUP3 ADD DUP2 SWAP1 MSTORE PUSH1 0x40 DUP3 ADD DUP2 SWAP1 MSTORE PUSH1 0x60 DUP3 ADD MSTORE SWAP1 JUMP JUMPDEST PUSH2 0x379 PUSH2 0x240E JUMP JUMPDEST PUSH1 0x0 JUMPDEST DUP3 DUP2 LT PUSH2 0x2448 JUMPI POP POP POP JUMP JUMPDEST PUSH1 0x20 SWAP1 PUSH2 0x2453 PUSH2 0x2431 JUMP JUMPDEST DUP2 DUP5 ADD MSTORE ADD PUSH2 0x243C JUMP JUMPDEST SWAP1 PUSH2 0x314 PUSH2 0x246D PUSH2 0x15B3 DUP5 PUSH2 0x1591 JUMP JUMPDEST PUSH1 0x1F NOT ADD PUSH1 0x20 DUP5 ADD PUSH2 0x2439 JUMP JUMPDEST PUSH2 0x1882 SWAP1 PUSH2 0x379 SWAP4 SWAP3 PUSH2 0x17E6 JUMP JUMPDEST SWAP2 PUSH2 0x1882 PUSH2 0x255D PUSH2 0x256C SWAP4 PUSH2 0x1882 PUSH2 0x251E PUSH2 0x379 SWAP8 PUSH32 0x3C73766720786D6C6E733D22687474703A2F2F7777772E77332E6F72672F3230 DUP2 MSTORE PUSH32 0x30302F737667222077696474683D2234303022206865696768743D2234303022 PUSH1 0x20 DUP3 ADD MSTORE PUSH32 0x2076696577426F783D223020302031323420313234222066696C6C3D226E6F6E PUSH1 0x40 DUP3 ADD MSTORE PUSH3 0x32911F PUSH1 0xE9 SHL PUSH1 0x60 DUP3 ADD MSTORE PUSH1 0x63 ADD SWAP1 JUMP JUMPDEST PUSH32 0x3C726563742077696474683D2231323422206865696768743D22313234222072 DUP2 MSTORE PUSH13 0x3C1E91191A11103334B6361E91 PUSH1 0x99 SHL PUSH1 0x20 DUP3 ADD MSTORE PUSH1 0x2D ADD SWAP1 JUMP JUMPDEST PUSH3 0x11179F PUSH1 0xE9 SHL DUP2 MSTORE PUSH1 0x3 ADD SWAP1 JUMP JUMPDEST PUSH6 0x1E17B9BB339F PUSH1 0xD1 SHL DUP2 MSTORE PUSH1 0x6 ADD SWAP1 JUMP JUMPDEST PUSH2 0x25AB PUSH1 0x60 SWAP2 PUSH2 0x1925 PUSH2 0x2590 PUSH1 0x40 MLOAD SWAP1 JUMP JUMPDEST PUSH1 0x20 DUP1 DUP3 ADD SWAP4 DUP5 MSTORE SWAP1 SWAP3 DUP4 SWAP2 PUSH2 0x1919 SWAP1 TIMESTAMP PUSH2 0x4FF DUP3 DUP6 PUSH2 0x17D7 JUMP JUMPDEST SWAP1 DUP2 SWAP3 PUSH2 0x25D8 PUSH2 0x25CE PUSH2 0x25BD DUP6 PUSH2 0x2EF2 JUMP JUMPDEST SWAP5 PUSH2 0x25C8 PUSH1 0x3 PUSH2 0x43D JUMP JUMPDEST SWAP1 PUSH2 0x23FA JUMP JUMPDEST PUSH2 0xEE6 PUSH1 0x2 PUSH2 0x43D JUMP JUMPDEST SWAP2 PUSH2 0x25E2 DUP4 PUSH2 0x245D JUMP JUMPDEST SWAP1 SWAP4 PUSH1 0x0 SWAP5 PUSH2 0x25F0 DUP7 PUSH2 0x43D JUMP JUMPDEST SWAP5 JUMPDEST DUP1 JUMPDEST DUP7 LT ISZERO PUSH2 0x2778 JUMPI PUSH2 0x2603 PUSH2 0x2431 JUMP JUMPDEST SWAP3 PUSH1 0x0 SWAP4 DUP10 PUSH2 0x2611 DUP11 PUSH2 0x43D JUMP JUMPDEST SWAP6 PUSH1 0x1 JUMPDEST ISZERO PUSH2 0x2761 JUMPI JUMPDEST POP POP POP DUP8 DUP1 SWAP9 PUSH2 0x2633 PUSH2 0x262E DUP11 DUP14 PUSH2 0xE93 JUMP JUMPDEST PUSH2 0x2F78 JUMP JUMPDEST SWAP4 DUP5 SWAP9 PUSH2 0x263F DUP5 PUSH2 0x43D JUMP JUMPDEST DUP12 DUP2 LT ISZERO PUSH2 0x274F JUMPI PUSH2 0x265B PUSH2 0x2654 DUP3 DUP13 PUSH2 0x15C6 JUMP JUMPDEST MLOAD DUP9 PUSH2 0x3097 JUMP JUMPDEST PUSH2 0x2667 JUMPI PUSH1 0x1 ADD PUSH2 0x263F JUMP JUMPDEST POP SWAP9 SWAP3 SWAP11 POP SWAP4 POP SWAP10 SWAP5 PUSH2 0x267B PUSH1 0x1 SWAP2 PUSH2 0x1A55 JUMP JUMPDEST SWAP1 PUSH2 0x26A8 DUP3 SWAP8 PUSH2 0x1925 PUSH2 0x268D PUSH1 0x40 MLOAD SWAP1 JUMP JUMPDEST PUSH1 0x20 DUP1 DUP3 ADD SWAP4 DUP5 MSTORE SWAP1 SWAP3 DUP4 SWAP2 PUSH2 0x1919 SWAP1 DUP9 PUSH2 0x4FF DUP3 DUP6 PUSH2 0x17D7 JUMP JUMPDEST SWAP12 DUP13 SWAP3 PUSH2 0x26B8 PUSH2 0x1025 PUSH1 0xA PUSH2 0x43D JUMP JUMPDEST GT ISZERO PUSH2 0x2615 JUMPI POP PUSH2 0x26D2 SWAP2 SWAP3 SWAP4 SWAP6 SWAP11 SWAP9 SWAP7 POP SWAP9 SWAP4 SWAP9 JUMPDEST ISZERO SWAP1 JUMP JUMPDEST PUSH2 0x26F3 JUMPI JUMPDEST POP POP PUSH2 0x26E6 PUSH2 0x25F4 SWAP2 PUSH1 0x1 ADD SWAP1 JUMP JUMPDEST SWAP6 SWAP1 POP SWAP6 SWAP1 SWAP2 SWAP4 SWAP6 PUSH2 0x25F2 JUMP JUMPDEST PUSH2 0x1919 PUSH2 0x379 DUP5 SWAP11 PUSH2 0x272E DUP6 PUSH2 0x2729 DUP9 PUSH2 0x2746 SWAP8 PUSH2 0x2723 DUP3 DUP16 PUSH2 0x26E6 SWAP13 PUSH2 0x271D PUSH2 0x25F4 SWAP16 DUP4 PUSH2 0x15C6 JUMP JUMPDEST MSTORE PUSH2 0x15C6 JUMP JUMPDEST POP PUSH2 0xE93 JUMP JUMPDEST PUSH2 0x3182 JUMP JUMPDEST SWAP1 PUSH2 0x2738 PUSH1 0x40 MLOAD SWAP1 JUMP JUMPDEST SWAP4 DUP5 SWAP3 PUSH1 0x20 DUP5 ADD SWAP3 DUP4 PUSH2 0x247A JUMP JUMPDEST SWAP8 SWAP2 POP DUP9 PUSH2 0x26D7 JUMP JUMPDEST POP SWAP9 SWAP3 SWAP11 SWAP2 SWAP12 SWAP7 PUSH2 0x267B SWAP2 SWAP6 POP PUSH2 0x1A55 JUMP JUMPDEST DUP1 PUSH2 0x261B JUMPI PUSH2 0x26D2 SWAP2 SWAP3 SWAP4 SWAP6 SWAP11 SWAP9 SWAP7 POP SWAP9 SWAP4 SWAP9 ISZERO SWAP1 JUMP JUMPDEST POP SWAP2 POP PUSH2 0x379 SWAP3 SWAP6 POP PUSH2 0x379 SWAP5 POP PUSH2 0x1919 SWAP4 POP PUSH2 0x2794 PUSH1 0x40 MLOAD SWAP1 JUMP JUMPDEST SWAP4 DUP5 SWAP3 PUSH1 0x20 DUP5 ADD SWAP3 DUP4 PUSH2 0x2488 JUMP JUMPDEST PUSH2 0x27AC PUSH1 0x40 PUSH2 0x12A1 JUMP JUMPDEST PUSH32 0x4142434445464748494A4B4C4D4E4F505152535455565758595A616263646566 PUSH1 0x20 DUP3 ADD MSTORE PUSH32 0x6768696A6B6C6D6E6F707172737475767778797A303132333435363738392B2F PUSH1 0x40 DUP3 ADD MSTORE SWAP1 JUMP JUMPDEST PUSH2 0x379 PUSH2 0x27A2 JUMP JUMPDEST PUSH2 0x379 PUSH2 0x27FB JUMP JUMPDEST SWAP1 PUSH2 0x314 PUSH2 0x15B9 PUSH2 0x281B DUP5 PUSH2 0x12A1 JUMP JUMPDEST SWAP4 PUSH2 0x6A2 JUMP JUMPDEST DUP1 MLOAD PUSH2 0x2830 PUSH2 0x1025 PUSH1 0x0 PUSH2 0x43D JUMP JUMPDEST EQ PUSH2 0x2915 JUMPI PUSH2 0x283D PUSH2 0x2803 JUMP JUMPDEST SWAP1 PUSH2 0x2849 PUSH2 0x25CE DUP3 MLOAD SWAP1 JUMP JUMPDEST SWAP1 PUSH1 0x1 PUSH2 0x2871 PUSH2 0x286C PUSH2 0x2862 PUSH1 0x3 SWAP6 PUSH2 0x1078 PUSH1 0x3 PUSH2 0x43D JUMP JUMPDEST PUSH2 0x1791 PUSH1 0x4 PUSH2 0x43D JUMP JUMPDEST PUSH2 0x280B JUMP JUMPDEST SWAP4 ADD PUSH1 0x20 DUP5 ADD SWAP3 DUP3 SWAP2 DUP4 MLOAD DUP5 ADD SWAP1 PUSH1 0x20 DUP3 ADD SWAP3 DUP4 MLOAD SWAP5 PUSH1 0x0 DUP6 MSTORE JUMPDEST DUP4 DUP2 LT PUSH2 0x28CD JUMPI POP POP POP POP SWAP1 PUSH1 0x3 SWAP3 SWAP2 MSTORE MLOAD MOD DUP1 PUSH1 0x1 EQ PUSH2 0x28BC JUMPI PUSH1 0x2 EQ PUSH2 0x28B2 JUMPI POP SWAP1 JUMP JUMPDEST PUSH1 0x1 PUSH1 0x3D SWAP2 SUB MSTORE8 SWAP1 JUMP JUMPDEST POP PUSH1 0x2 DUP2 PUSH1 0x3D PUSH1 0x1 DUP2 SWAP5 SUB MSTORE8 SUB MSTORE8 SWAP1 JUMP JUMPDEST DUP2 PUSH1 0x1 SWAP2 SWAP9 SWAP3 SWAP4 SWAP5 SWAP9 ADD SWAP2 PUSH1 0x3F DUP3 DUP1 DUP1 DUP7 MLOAD SWAP5 DUP5 DUP7 PUSH1 0x12 SHR AND DUP11 ADD MLOAD DUP2 MSTORE8 ADD DUP4 DUP6 PUSH1 0xC SHR AND DUP10 ADD MLOAD DUP2 MSTORE8 ADD DUP3 DUP5 PUSH1 0x6 SHR AND DUP9 ADD MLOAD DUP2 MSTORE8 ADD SWAP2 AND DUP6 ADD MLOAD DUP2 MSTORE8 ADD SWAP7 SWAP3 SWAP2 SWAP1 PUSH2 0x288C JUMP JUMPDEST POP PUSH2 0x379 PUSH2 0x12BD JUMP JUMPDEST SWAP2 SWAP3 SWAP1 PUSH1 0x0 SWAP3 PUSH2 0x292D DUP5 PUSH2 0x1091 JUMP JUMPDEST SWAP2 PUSH2 0x2937 DUP4 PUSH2 0x3B3 JUMP JUMPDEST PUSH2 0x2940 DUP3 PUSH2 0x3B3 JUMP JUMPDEST EQ PUSH2 0x298A JUMPI PUSH2 0x2953 DUP4 DUP8 PUSH2 0x2959 SWAP4 PUSH2 0x1FF2 JUMP JUMPDEST SWAP3 PUSH2 0x3B3 JUMP JUMPDEST PUSH2 0x2962 DUP4 PUSH2 0x3B3 JUMP JUMPDEST SUB PUSH2 0x297D JUMPI PUSH4 0x7E273289 PUSH1 0xE0 SHL DUP5 MSTORE PUSH1 0x4 DUP5 ADD DUP6 SWAP1 MSTORE PUSH1 0x24 DUP5 REVERT JUMPDEST PUSH2 0x1104 DUP2 SWAP6 SWAP3 SWAP4 SWAP6 PUSH2 0x3B3 JUMP JUMPDEST PUSH4 0x32505749 PUSH1 0xE1 SHL DUP6 MSTORE DUP5 DUP1 PUSH2 0x1133 DUP6 PUSH1 0x4 DUP4 ADD PUSH2 0x3DF JUMP JUMPDEST PUSH4 0x4E487B71 PUSH1 0xE0 SHL PUSH1 0x0 MSTORE PUSH1 0x31 PUSH1 0x4 MSTORE PUSH1 0x24 PUSH1 0x0 REVERT JUMPDEST DUP1 SLOAD DUP1 ISZERO PUSH2 0x29DC JUMPI PUSH1 0x0 NOT ADD SWAP1 PUSH2 0x29D9 PUSH2 0x29D3 DUP4 DUP4 PUSH2 0xC68 JUMP JUMPDEST SWAP1 PUSH2 0x13C4 JUMP JUMPDEST SSTORE JUMP JUMPDEST PUSH2 0x29A3 JUMP JUMPDEST PUSH1 0x0 PUSH2 0x2A43 PUSH2 0x314 SWAP3 PUSH1 0x11 PUSH2 0x11A7 PUSH2 0x2A3E PUSH2 0x29FF PUSH2 0x11AC DUP6 DUP6 PUSH2 0x44A JUMP JUMPDEST PUSH2 0x379 PUSH1 0x10 SWAP2 PUSH2 0x2A39 PUSH2 0x2A1F PUSH2 0xCA8 PUSH2 0x2A19 PUSH2 0x1306 DUP8 SLOAD SWAP1 JUMP JUMPDEST DUP7 PUSH2 0xC68 JUMP JUMPDEST PUSH2 0x2A33 DUP2 PUSH2 0x2A2D DUP6 DUP9 PUSH2 0xC68 JUMP JUMPDEST SWAP1 PUSH2 0x13AB JUMP JUMPDEST DUP8 PUSH2 0x44A JUMP JUMPDEST PUSH2 0xEB5 JUMP JUMPDEST PUSH2 0x29B9 JUMP JUMPDEST PUSH2 0x13C4 JUMP JUMPDEST ISZERO PUSH2 0x2A4F JUMPI JUMP JUMPDEST PUSH1 0x40 MLOAD PUSH3 0x461BCD PUSH1 0xE5 SHL DUP2 MSTORE PUSH1 0x20 PUSH1 0x4 DUP3 ADD MSTORE PUSH1 0xD PUSH1 0x24 DUP3 ADD MSTORE PUSH13 0x1499599D5B990819985A5B1959 PUSH1 0x9A SHL PUSH1 0x44 DUP3 ADD MSTORE PUSH1 0x64 SWAP1 REVERT JUMPDEST PUSH2 0x2A8E SWAP1 CALLVALUE PUSH2 0x1039 JUMP JUMPDEST PUSH2 0x2A98 PUSH1 0x0 PUSH2 0x43D JUMP JUMPDEST DUP2 GT PUSH2 0x2AA1 JUMPI POP JUMP JUMPDEST PUSH1 0x0 DUP1 PUSH2 0x314 SWAP3 PUSH2 0x2AAF CALLER SWAP1 JUMP JUMPDEST SWAP1 PUSH2 0x2AB9 PUSH1 0x40 MLOAD SWAP1 JUMP JUMPDEST SWAP1 DUP2 DUP1 SUB SWAP3 GAS CALL PUSH2 0x2AC8 PUSH2 0x1A77 JUMP JUMPDEST POP PUSH2 0x2A48 JUMP JUMPDEST SWAP1 DUP2 SLOAD SWAP2 PUSH9 0x10000000000000000 DUP4 LT ISZERO PUSH2 0x689 JUMPI DUP3 PUSH2 0x2A2D SWAP2 PUSH1 0x1 PUSH2 0x314 SWAP6 ADD DUP2 SSTORE PUSH2 0xC68 JUMP JUMPDEST PUSH2 0x314 SWAP1 PUSH2 0x2B05 DUP2 PUSH1 0x10 PUSH2 0x2ACE JUMP JUMPDEST PUSH2 0x2A39 PUSH2 0x2B14 PUSH2 0x1306 PUSH1 0x10 SLOAD SWAP1 JUMP JUMPDEST SWAP2 PUSH1 0x11 PUSH2 0x44A JUMP JUMPDEST PUSH4 0x780E9D63 PUSH1 0xE0 SHL PUSH1 0x1 PUSH1 0x1 PUSH1 0xE0 SHL SUB NOT DUP3 AND EQ SWAP1 DUP2 ISZERO PUSH2 0x2B3B JUMPI POP SWAP1 JUMP JUMPDEST PUSH2 0x379 SWAP2 POP PUSH2 0x321E JUMP JUMPDEST PUSH2 0x1EE5 PUSH2 0x379 SWAP2 PUSH2 0x2B54 PUSH1 0x0 SWAP1 JUMP JUMPDEST POP PUSH1 0x2 PUSH2 0x44A JUMP JUMPDEST SWAP3 SWAP2 SWAP1 SWAP2 DUP1 DUP2 ISZERO PUSH2 0x2C66 JUMPI JUMPDEST PUSH2 0x2B83 JUMPI JUMPDEST POP POP SWAP1 PUSH2 0x2B7E PUSH2 0x314 SWAP3 PUSH1 0x4 PUSH2 0x44A JUMP JUMPDEST PUSH2 0x1276 JUMP JUMPDEST PUSH2 0x2B8C DUP4 PUSH2 0x1E8E JUMP JUMPDEST SWAP2 PUSH1 0x0 SWAP1 PUSH2 0x2B9C PUSH2 0x124E DUP4 PUSH2 0x1091 JUMP JUMPDEST PUSH2 0x2BA5 DUP3 PUSH2 0x3B3 JUMP JUMPDEST EQ ISZERO DUP1 PUSH2 0x2C4C JUMPI JUMPDEST DUP1 PUSH2 0x2C39 JUMPI JUMPDEST PUSH2 0x2C20 JUMPI POP POP SWAP2 PUSH2 0x2B7E SWAP2 PUSH2 0x314 SWAP5 SWAP4 PUSH2 0x2BD0 JUMPI JUMPDEST POP SWAP2 SWAP3 PUSH2 0x2B6D JUMP JUMPDEST PUSH2 0x2BD9 SWAP1 PUSH2 0x116F JUMP JUMPDEST PUSH2 0x2BE2 DUP5 PUSH2 0x116F JUMP JUMPDEST PUSH2 0x2BEB DUP4 PUSH2 0x43D JUMP JUMPDEST SWAP2 PUSH32 0x8C5BE1E5EBEC7D5BD14F71427D1E84F3DD0314C0F7B2291E5B200AC8C7C3B925 PUSH2 0x2C16 PUSH1 0x40 MLOAD SWAP1 JUMP JUMPDEST PUSH1 0x0 SWAP1 LOG4 CODESIZE PUSH2 0x2BC8 JUMP JUMPDEST PUSH4 0xA9FBF51F PUSH1 0xE0 SHL DUP3 MSTORE DUP2 SWAP1 PUSH2 0x1133 SWAP1 PUSH1 0x4 DUP4 ADD PUSH2 0x3DF JUMP JUMPDEST POP PUSH2 0x2C47 PUSH2 0x26CE DUP3 DUP7 PUSH2 0x1DED JUMP JUMPDEST PUSH2 0x2BB3 JUMP JUMPDEST POP PUSH2 0x2C56 DUP2 PUSH2 0x3B3 JUMP JUMPDEST PUSH2 0x2C5F DUP6 PUSH2 0x3B3 JUMP JUMPDEST EQ ISZERO PUSH2 0x2BAD JUMP JUMPDEST POP PUSH2 0x2C74 PUSH2 0x124E PUSH1 0x0 PUSH2 0x1091 JUMP JUMPDEST PUSH2 0x2C7D DUP4 PUSH2 0x3B3 JUMP JUMPDEST EQ ISZERO PUSH2 0x2B68 JUMP JUMPDEST PUSH2 0x314 SWAP2 PUSH2 0x2C90 PUSH2 0x12BD JUMP JUMPDEST SWAP2 PUSH2 0x3269 JUMP JUMPDEST SWAP1 SWAP2 PUSH2 0x2CA3 SWAP1 DUP4 DUP4 PUSH2 0x3283 JUMP JUMPDEST SWAP2 PUSH2 0x2CD1 PUSH2 0x2CB1 PUSH1 0x0 PUSH2 0x1091 JUMP JUMPDEST PUSH2 0x2CBA DUP2 PUSH2 0x3B3 JUMP JUMPDEST PUSH2 0x2CC3 DUP7 PUSH2 0x3B3 JUMP JUMPDEST SUB PUSH2 0x2D0E JUMPI PUSH2 0x124E DUP4 PUSH2 0x3432 JUMP JUMPDEST PUSH2 0x2CDA DUP4 PUSH2 0x3B3 JUMP JUMPDEST SUB PUSH2 0x2CE9 JUMPI PUSH2 0x379 SWAP2 POP PUSH2 0x3483 JUMP JUMPDEST PUSH2 0x2CF2 DUP3 PUSH2 0x3B3 JUMP JUMPDEST PUSH2 0x2CFB DUP5 PUSH2 0x3B3 JUMP JUMPDEST SUB PUSH2 0x2D05 JUMPI POP POP SWAP1 JUMP JUMPDEST PUSH2 0x379 SWAP2 PUSH2 0x3454 JUMP JUMPDEST PUSH2 0x2D17 DUP5 PUSH2 0x3B3 JUMP JUMPDEST PUSH2 0x2D20 DUP7 PUSH2 0x3B3 JUMP JUMPDEST EQ PUSH2 0x3B3 JUMPI PUSH2 0x124E DUP4 DUP7 PUSH2 0x33B1 JUMP JUMPDEST PUSH1 0x0 PUSH2 0x2E2A PUSH2 0x1025 PUSH2 0x2E24 PUSH2 0x2D43 DUP5 PUSH2 0x43D JUMP JUMPDEST SWAP5 PUSH2 0x2D57 PUSH2 0x2D51 PUSH1 0x80 PUSH2 0x2147 JUMP JUMPDEST DUP3 PUSH2 0x2154 JUMP JUMPDEST DUP7 DUP2 GT PUSH2 0x2ECA JUMPI JUMPDEST POP PUSH2 0x2D6D PUSH2 0x2D51 PUSH1 0x40 PUSH2 0x2147 JUMP JUMPDEST PUSH2 0x2D76 DUP7 PUSH2 0x43D JUMP JUMPDEST DUP2 GT PUSH2 0x2EB3 JUMPI JUMPDEST POP PUSH2 0x2D8B PUSH2 0x2D51 PUSH1 0x20 PUSH2 0x2147 JUMP JUMPDEST PUSH2 0x2D94 DUP7 PUSH2 0x43D JUMP JUMPDEST DUP2 GT PUSH2 0x2E9C JUMPI JUMPDEST POP PUSH2 0x2DA9 PUSH2 0x2D51 PUSH1 0x10 PUSH2 0x2147 JUMP JUMPDEST PUSH2 0x2DB2 DUP7 PUSH2 0x43D JUMP JUMPDEST DUP2 GT PUSH2 0x2E85 JUMPI JUMPDEST POP PUSH2 0x2DC7 PUSH2 0x2D51 PUSH1 0x8 PUSH2 0x2147 JUMP JUMPDEST PUSH2 0x2DD0 DUP7 PUSH2 0x43D JUMP JUMPDEST DUP2 GT PUSH2 0x2E6E JUMPI JUMPDEST POP PUSH2 0x2DE5 PUSH2 0x2D51 PUSH1 0x4 PUSH2 0x2147 JUMP JUMPDEST PUSH2 0x2DEE DUP7 PUSH2 0x43D JUMP JUMPDEST DUP2 GT PUSH2 0x2E57 JUMPI JUMPDEST POP PUSH2 0x2E03 PUSH2 0x2D51 PUSH1 0x2 PUSH2 0x2147 JUMP JUMPDEST PUSH2 0x2E0C DUP7 PUSH2 0x43D JUMP JUMPDEST DUP2 GT PUSH2 0x2E40 JUMPI JUMPDEST POP PUSH2 0x2E1E PUSH1 0x1 PUSH2 0x2147 JUMP JUMPDEST SWAP1 PUSH2 0x2154 JUMP JUMPDEST SWAP3 PUSH2 0x43D JUMP JUMPDEST GT PUSH2 0x2E32 JUMPI SWAP1 JUMP JUMPDEST PUSH2 0x379 SWAP1 PUSH2 0x4FF PUSH1 0x1 PUSH2 0x43D JUMP JUMPDEST PUSH2 0x2E50 SWAP2 POP SWAP6 PUSH2 0x4FF PUSH1 0x2 PUSH2 0x43D JUMP JUMPDEST SWAP5 CODESIZE PUSH2 0x2E13 JUMP JUMPDEST PUSH2 0x2E67 SWAP2 POP SWAP6 PUSH2 0x4FF PUSH1 0x4 PUSH2 0x43D JUMP JUMPDEST SWAP5 CODESIZE PUSH2 0x2DF5 JUMP JUMPDEST PUSH2 0x2E7E SWAP2 POP SWAP6 PUSH2 0x4FF PUSH1 0x8 PUSH2 0x43D JUMP JUMPDEST SWAP5 CODESIZE PUSH2 0x2DD7 JUMP JUMPDEST PUSH2 0x2E95 SWAP2 POP SWAP6 PUSH2 0x4FF PUSH1 0x10 PUSH2 0x43D JUMP JUMPDEST SWAP5 CODESIZE PUSH2 0x2DB9 JUMP JUMPDEST PUSH2 0x2EAC SWAP2 POP SWAP6 PUSH2 0x4FF PUSH1 0x20 PUSH2 0x43D JUMP JUMPDEST SWAP5 CODESIZE PUSH2 0x2D9B JUMP JUMPDEST PUSH2 0x2EC3 SWAP2 POP SWAP6 PUSH2 0x4FF PUSH1 0x40 PUSH2 0x43D JUMP JUMPDEST SWAP5 CODESIZE PUSH2 0x2D7D JUMP JUMPDEST PUSH2 0x2EDA SWAP2 POP SWAP6 PUSH2 0x4FF PUSH1 0x80 PUSH2 0x43D JUMP JUMPDEST SWAP5 CODESIZE PUSH2 0x2D5F JUMP JUMPDEST PUSH1 0x10 DUP3 LT ISZERO PUSH2 0xC8B JUMPI PUSH1 0x1 SWAP1 PUSH2 0xC82 JUMP JUMPDEST PUSH2 0x2F13 PUSH2 0x2F0C PUSH2 0x379 SWAP3 PUSH2 0x2F04 PUSH1 0x60 SWAP1 JUMP JUMPDEST POP PUSH1 0x10 PUSH2 0x25C8 JUMP JUMPDEST PUSH1 0x15 PUSH2 0x2EE1 JUMP JUMPDEST POP PUSH2 0xE4C JUMP JUMPDEST PUSH2 0x2F28 SWAP1 PUSH1 0xFF AND JUMPDEST SWAP2 PUSH1 0xFF AND SWAP1 JUMP JUMPDEST SWAP1 SUB SWAP1 PUSH1 0xFF DUP3 GT PUSH2 0xEA0 JUMPI JUMP JUMPDEST PUSH2 0x2F41 SWAP1 PUSH1 0xFF AND PUSH2 0x2F21 JUMP JUMPDEST ADD SWAP1 PUSH1 0xFF DUP3 GT PUSH2 0xEA0 JUMPI JUMP JUMPDEST PUSH2 0x379 PUSH2 0x379 PUSH2 0x379 SWAP3 PUSH1 0xFF AND SWAP1 JUMP JUMPDEST PUSH2 0x2F69 SWAP1 PUSH1 0xFF AND PUSH2 0x2F21 JUMP JUMPDEST MUL SWAP1 PUSH1 0xFF DUP3 AND SWAP2 DUP3 SUB PUSH2 0xEA0 JUMPI JUMP JUMPDEST PUSH2 0x2F80 PUSH2 0x2431 JUMP JUMPDEST POP PUSH2 0x379 PUSH2 0x2F8E PUSH1 0x18 PUSH2 0x2147 JUMP JUMPDEST PUSH2 0x3086 PUSH2 0x3068 PUSH2 0x2FE7 PUSH2 0x2FEC PUSH2 0x2FE7 PUSH2 0x2FA7 PUSH1 0x19 PUSH2 0x2147 JUMP JUMPDEST PUSH2 0xEE6 PUSH2 0x2FE1 PUSH2 0x2FDB PUSH2 0x2FD6 PUSH2 0x2FC6 DUP6 PUSH2 0x2FC1 PUSH1 0x3E PUSH2 0x2147 JUMP JUMPDEST PUSH2 0x2F19 JUMP JUMPDEST PUSH2 0x2FD0 PUSH1 0x1 PUSH2 0x2147 JUMP JUMPDEST SWAP1 PUSH2 0x2F35 JUMP JUMPDEST PUSH2 0x2F4D JUMP JUMPDEST DUP12 PUSH2 0x23FA JUMP JUMPDEST SWAP2 PUSH2 0x2F4D JUMP JUMPDEST PUSH2 0x2147 JUMP JUMPDEST SWAP4 PUSH2 0xEE6 PUSH2 0x2FE1 PUSH2 0x3046 PUSH2 0x303B PUSH2 0x2FE7 PUSH2 0x3032 PUSH2 0x302C PUSH2 0x2FD6 PUSH2 0x3013 DUP14 PUSH2 0x2FC1 PUSH1 0x7C PUSH2 0x2147 JUMP JUMPDEST PUSH2 0x3026 DUP11 PUSH2 0x3021 PUSH1 0x2 PUSH2 0x2147 JUMP JUMPDEST PUSH2 0x2F5D JUMP JUMPDEST SWAP1 PUSH2 0x2F19 JUMP JUMPDEST DUP14 PUSH2 0x23FA JUMP JUMPDEST PUSH2 0xEE6 DUP8 PUSH2 0x2F4D JUMP JUMPDEST SWAP10 PUSH2 0x2E1E PUSH1 0x8 PUSH2 0x2147 JUMP JUMPDEST PUSH2 0x25C8 PUSH2 0x2FD6 PUSH2 0x305A DUP11 PUSH2 0x2FC1 PUSH1 0x7C PUSH2 0x2147 JUMP JUMPDEST PUSH2 0x3026 DUP8 PUSH2 0x3021 PUSH1 0x2 PUSH2 0x2147 JUMP JUMPDEST PUSH2 0x307C PUSH2 0x3073 PUSH2 0x2404 JUMP JUMPDEST PUSH1 0xFF SWAP1 SWAP7 AND DUP7 MSTORE JUMP JUMPDEST PUSH1 0xFF AND PUSH1 0x20 DUP6 ADD MSTORE JUMP JUMPDEST PUSH1 0xFF AND PUSH1 0x40 DUP4 ADD DUP2 SWAP1 MSTORE PUSH1 0x60 DUP4 ADD MSTORE JUMP JUMPDEST SWAP1 DUP2 PUSH2 0x30A4 DUP2 MLOAD PUSH1 0xFF AND SWAP1 JUMP JUMPDEST DUP3 SWAP1 PUSH2 0x30C7 PUSH2 0x2F21 PUSH2 0x1DDD PUSH2 0x30BA DUP6 MLOAD PUSH1 0xFF AND SWAP1 JUMP JUMPDEST PUSH1 0x40 DUP9 ADD MLOAD PUSH1 0xFF AND PUSH2 0x2FD0 JUMP JUMPDEST LT SWAP4 DUP5 PUSH2 0x3156 JUMPI JUMPDEST POP POP DUP3 PUSH2 0x311B JUMPI JUMPDEST DUP3 PUSH2 0x30E1 JUMPI POP POP SWAP1 JUMP JUMPDEST PUSH2 0x3117 SWAP2 SWAP3 POP PUSH2 0x1DDD PUSH1 0x20 PUSH2 0x310E DUP4 PUSH2 0x2FD0 PUSH1 0x60 PUSH2 0x3105 DUP6 PUSH2 0x2F21 SWAP9 ADD MLOAD PUSH1 0xFF AND SWAP1 JUMP JUMPDEST SWAP3 ADD MLOAD PUSH1 0xFF AND SWAP1 JUMP JUMPDEST SWAP5 ADD MLOAD PUSH1 0xFF AND SWAP1 JUMP JUMPDEST GT SWAP1 JUMP JUMPDEST SWAP2 POP PUSH2 0x312B PUSH1 0x20 DUP4 ADD MLOAD PUSH1 0xFF AND SWAP1 JUMP JUMPDEST PUSH2 0x314F PUSH2 0x2F21 PUSH2 0x1DDD PUSH2 0x3142 PUSH1 0x20 DUP7 ADD MLOAD PUSH1 0xFF AND SWAP1 JUMP JUMPDEST PUSH1 0x60 DUP7 ADD MLOAD PUSH1 0xFF AND PUSH2 0x2FD0 JUMP JUMPDEST LT SWAP2 PUSH2 0x30D7 JUMP JUMPDEST PUSH2 0x3179 SWAP2 SWAP3 SWAP5 POP PUSH2 0x1DDD PUSH2 0x3171 PUSH2 0x30BA PUSH2 0x2F21 SWAP4 MLOAD PUSH1 0xFF AND SWAP1 JUMP JUMPDEST SWAP4 MLOAD PUSH1 0xFF AND SWAP1 JUMP JUMPDEST GT SWAP2 CODESIZE DUP1 PUSH2 0x30CF JUMP JUMPDEST PUSH2 0x31AB PUSH2 0x31A6 PUSH2 0x319B PUSH2 0x3195 PUSH1 0x5 PUSH2 0x43D JUMP JUMPDEST DUP5 PUSH2 0x23FA JUMP JUMPDEST SWAP3 PUSH2 0xEE6 PUSH1 0x1 PUSH2 0x43D JUMP JUMPDEST PUSH2 0x2EF2 JUMP JUMPDEST SWAP1 PUSH2 0x31B6 PUSH1 0x0 PUSH2 0x43D JUMP JUMPDEST DUP2 SUB PUSH2 0x31C6 JUMPI POP PUSH2 0x379 SWAP2 PUSH2 0x39FD JUMP JUMPDEST PUSH2 0x31D0 PUSH1 0x1 PUSH2 0x43D JUMP JUMPDEST DUP2 SUB PUSH2 0x31E0 JUMPI POP PUSH2 0x379 SWAP2 PUSH2 0x392B JUMP JUMPDEST PUSH2 0x31EA PUSH1 0x2 PUSH2 0x43D JUMP JUMPDEST DUP2 SUB PUSH2 0x31FA JUMPI POP PUSH2 0x379 SWAP2 PUSH2 0x392B JUMP JUMPDEST PUSH2 0x3207 PUSH2 0x1025 PUSH1 0x3 PUSH2 0x43D JUMP JUMPDEST SUB PUSH2 0x3215 JUMPI PUSH2 0x379 SWAP2 PUSH2 0x36F9 JUMP JUMPDEST PUSH2 0x379 SWAP2 PUSH2 0x355D JUMP JUMPDEST PUSH4 0x80AC58CD PUSH1 0xE0 SHL PUSH1 0x1 PUSH1 0x1 PUSH1 0xE0 SHL SUB NOT DUP3 AND EQ SWAP1 DUP2 ISZERO PUSH2 0x324E JUMPI JUMPDEST DUP2 ISZERO PUSH2 0x3244 JUMPI POP SWAP1 JUMP JUMPDEST PUSH2 0x379 SWAP2 POP PUSH2 0x3A85 JUMP JUMPDEST PUSH1 0x1 PUSH1 0x1 PUSH1 0xE0 SHL SUB NOT DUP2 AND PUSH4 0x5B5E139F PUSH1 0xE0 SHL EQ SWAP2 POP PUSH2 0x323A JUMP JUMPDEST SWAP1 PUSH2 0x314 SWAP3 SWAP2 PUSH2 0x3279 DUP3 DUP3 PUSH2 0x3A95 JUMP JUMPDEST PUSH2 0x17D2 PUSH1 0x0 PUSH2 0x1091 JUMP JUMPDEST SWAP1 PUSH2 0x32D6 PUSH2 0x3290 DUP3 PUSH2 0x2B45 JUMP JUMPDEST SWAP4 PUSH1 0x0 PUSH2 0x329C DUP2 PUSH2 0x1091 JUMP JUMPDEST SWAP2 DUP5 PUSH2 0x32A7 DUP5 PUSH2 0x3B3 JUMP JUMPDEST PUSH2 0x32B0 DUP4 PUSH2 0x3B3 JUMP JUMPDEST SUB PUSH2 0x33A0 JUMPI JUMPDEST POP POP PUSH2 0x32C1 DUP3 PUSH2 0x3B3 JUMP JUMPDEST PUSH2 0x32CA DUP8 PUSH2 0x3B3 JUMP JUMPDEST SUB PUSH2 0x3365 JUMPI JUMPDEST POP PUSH2 0x3B3 JUMP JUMPDEST PUSH2 0x32DF DUP4 PUSH2 0x3B3 JUMP JUMPDEST SUB PUSH2 0x3335 JUMPI JUMPDEST PUSH2 0x32F4 DUP3 PUSH2 0x2B7E DUP4 PUSH1 0x2 PUSH2 0x44A JUMP JUMPDEST PUSH2 0x3303 PUSH2 0x1B51 PUSH2 0x211F DUP6 PUSH2 0x116F JUMP JUMPDEST SWAP2 PUSH32 0xDDF252AD1BE2C89B69C2B068FC378DAA952BA7F163C4A11628F55A4DF523B3EF PUSH2 0x332E PUSH1 0x40 MLOAD SWAP1 JUMP JUMPDEST PUSH1 0x0 SWAP1 LOG4 SWAP1 JUMP JUMPDEST PUSH2 0x3360 PUSH2 0x3342 PUSH1 0x1 PUSH2 0x43D JUMP JUMPDEST PUSH2 0x335A PUSH2 0x3350 DUP6 PUSH1 0x3 PUSH2 0x1178 JUMP JUMPDEST SWAP2 PUSH2 0x4FF DUP4 PUSH2 0xE01 JUMP JUMPDEST SWAP1 PUSH2 0xEB5 JUMP JUMPDEST PUSH2 0x32E5 JUMP JUMPDEST PUSH2 0x3371 SWAP1 DUP3 DUP6 DUP2 PUSH2 0x2B5C JUMP JUMPDEST PUSH2 0x339A PUSH2 0x337E PUSH1 0x1 PUSH2 0x43D JUMP JUMPDEST PUSH2 0x335A PUSH2 0x338C DUP9 PUSH1 0x3 PUSH2 0x1178 JUMP JUMPDEST SWAP2 PUSH2 0x3396 DUP4 PUSH2 0xE01 JUMP JUMPDEST SUB SWAP1 JUMP JUMPDEST CODESIZE PUSH2 0x32D0 JUMP JUMPDEST PUSH2 0x33AA SWAP2 DUP9 PUSH2 0x3B0B JUMP JUMPDEST CODESIZE DUP5 PUSH2 0x32B6 JUMP JUMPDEST PUSH2 0x2A43 PUSH2 0x314 SWAP3 PUSH2 0x11A7 PUSH1 0x0 SWAP4 PUSH2 0x33F0 DUP6 PUSH2 0x2A43 PUSH2 0x33CE DUP5 PUSH2 0x1678 JUMP JUMPDEST SWAP6 PUSH1 0x7 DUP6 PUSH2 0x33DF PUSH2 0x11AC DUP5 DUP5 PUSH2 0x44A JUMP JUMPDEST DUP10 DUP1 DUP3 SUB PUSH2 0x33F7 JUMPI JUMPDEST POP POP POP PUSH2 0x44A JUMP JUMPDEST PUSH1 0x6 PUSH2 0x1178 JUMP JUMPDEST PUSH2 0x11A7 PUSH2 0x3424 DUP5 PUSH2 0x2A39 DUP6 PUSH2 0x341A PUSH2 0x11AC PUSH2 0x2A39 SWAP8 PUSH2 0x11A7 PUSH2 0x342A SWAP12 PUSH1 0x6 PUSH2 0x1178 JUMP JUMPDEST SWAP5 DUP6 SWAP4 PUSH1 0x6 PUSH2 0x1178 JUMP JUMPDEST DUP5 PUSH2 0x44A JUMP JUMPDEST DUP6 CODESIZE DUP10 PUSH2 0x33E8 JUMP JUMPDEST PUSH2 0x314 SWAP1 PUSH2 0x344D PUSH2 0x3442 PUSH1 0x8 SLOAD SWAP1 JUMP JUMPDEST PUSH2 0x2A39 DUP4 PUSH1 0x9 PUSH2 0x44A JUMP JUMPDEST PUSH1 0x8 PUSH2 0x2ACE JUMP JUMPDEST PUSH2 0x2A39 DUP3 PUSH2 0x347C PUSH2 0x314 SWAP5 PUSH2 0x2A39 PUSH2 0x11A7 SWAP6 PUSH2 0x3472 PUSH2 0x1306 DUP3 PUSH2 0x1678 JUMP JUMPDEST SWAP7 DUP8 SWAP2 PUSH1 0x6 PUSH2 0x1178 JUMP JUMPDEST PUSH1 0x7 PUSH2 0x44A JUMP JUMPDEST PUSH2 0x2A3E PUSH2 0x314 SWAP2 PUSH2 0x379 PUSH1 0x0 PUSH2 0x2A43 PUSH1 0x8 SWAP4 PUSH2 0x34A0 PUSH2 0x1306 DUP7 SLOAD SWAP1 JUMP JUMPDEST PUSH2 0x11A7 PUSH1 0x9 SWAP2 PUSH2 0x2A39 PUSH2 0x34C3 PUSH2 0xCA8 PUSH2 0x34BC PUSH2 0x11AC DUP9 DUP9 PUSH2 0x44A JUMP JUMPDEST SWAP4 DUP12 PUSH2 0xC68 JUMP JUMPDEST PUSH2 0x3424 DUP2 PUSH2 0x2A2D DUP6 DUP14 PUSH2 0xC68 JUMP JUMPDEST PUSH2 0x1029 SWAP1 PUSH1 0xFF AND PUSH2 0x2F21 JUMP JUMPDEST PUSH2 0x379 SWAP8 SWAP6 PUSH2 0x1882 PUSH2 0x353C PUSH2 0x1882 SWAP8 PUSH2 0x1882 PUSH2 0x352F PUSH2 0x3549 SWAP10 PUSH2 0x1882 PUSH2 0x353C PUSH2 0x255D SWAP16 SWAP12 PUSH2 0x1882 PUSH2 0x352F PUSH2 0x1882 SWAP14 PUSH2 0x1882 PUSH2 0x352F SWAP15 PUSH17 0x1E3837B63CB3B7B7103837B4B73A399E91 PUSH1 0x79 SHL DUP2 MSTORE PUSH1 0x11 ADD SWAP1 JUMP JUMPDEST PUSH1 0xB PUSH1 0xFA SHL DUP2 MSTORE PUSH1 0x1 ADD SWAP1 JUMP JUMPDEST PUSH1 0x1 PUSH1 0xFD SHL DUP2 MSTORE PUSH1 0x1 ADD SWAP1 JUMP JUMPDEST PUSH8 0x11103334B6361E91 PUSH1 0xC1 SHL DUP2 MSTORE PUSH1 0x8 ADD SWAP1 JUMP JUMPDEST SWAP1 DUP2 SWAP1 PUSH2 0x356B DUP3 MLOAD PUSH1 0xFF AND SWAP1 JUMP JUMPDEST PUSH2 0x3574 SWAP1 PUSH2 0x2F4D JUMP JUMPDEST PUSH2 0x357D SWAP1 PUSH2 0x3B6B JUMP JUMPDEST PUSH1 0x20 DUP4 ADD SWAP2 PUSH2 0x358D DUP4 MLOAD PUSH1 0xFF AND SWAP1 JUMP JUMPDEST SWAP3 PUSH1 0x60 DUP6 ADD SWAP4 PUSH2 0x359E DUP6 MLOAD PUSH1 0xFF AND SWAP1 JUMP JUMPDEST PUSH2 0x35A7 SWAP2 PUSH2 0x2F35 JUMP JUMPDEST PUSH2 0x35B0 SWAP1 PUSH2 0x2F4D JUMP JUMPDEST PUSH2 0x35B9 SWAP1 PUSH2 0x3B6B JUMP JUMPDEST SWAP4 PUSH2 0x35C5 DUP8 MLOAD PUSH1 0xFF AND SWAP1 JUMP JUMPDEST SWAP6 PUSH1 0x40 ADD SWAP6 PUSH2 0x35D5 DUP8 MLOAD PUSH1 0xFF AND SWAP1 JUMP JUMPDEST PUSH2 0x35DF PUSH1 0x2 PUSH2 0x2147 JUMP JUMPDEST PUSH2 0x35E8 SWAP2 PUSH2 0x34D1 JUMP JUMPDEST PUSH2 0x35F1 SWAP2 PUSH2 0x2F35 JUMP JUMPDEST PUSH2 0x35FA SWAP1 PUSH2 0x2F4D JUMP JUMPDEST PUSH2 0x3603 SWAP1 PUSH2 0x3B6B JUMP JUMPDEST SWAP6 PUSH2 0x360F DUP4 MLOAD PUSH1 0xFF AND SWAP1 JUMP JUMPDEST PUSH2 0x3618 SWAP1 PUSH2 0x2F4D JUMP JUMPDEST PUSH2 0x3621 SWAP1 PUSH2 0x3B6B JUMP JUMPDEST SWAP8 MLOAD PUSH1 0xFF AND SWAP1 MLOAD PUSH1 0xFF AND PUSH2 0x3634 SWAP2 PUSH2 0x2F35 JUMP JUMPDEST PUSH2 0x363D SWAP1 PUSH2 0x2F4D JUMP JUMPDEST PUSH2 0x3646 SWAP1 PUSH2 0x3B6B JUMP JUMPDEST SWAP2 MLOAD PUSH1 0xFF AND SWAP1 MLOAD PUSH1 0xFF AND PUSH2 0x3659 SWAP2 PUSH2 0x2F35 JUMP JUMPDEST PUSH2 0x3662 SWAP1 PUSH2 0x2F4D JUMP JUMPDEST PUSH2 0x366B SWAP1 PUSH2 0x3B6B JUMP JUMPDEST SWAP1 PUSH2 0x3675 PUSH1 0x40 MLOAD SWAP1 JUMP JUMPDEST SWAP7 DUP8 SWAP7 PUSH1 0x20 DUP9 ADD SWAP7 PUSH2 0x3687 SWAP7 DUP9 PUSH2 0x34DD JUMP JUMPDEST SWAP1 DUP2 SUB DUP3 MSTORE SUB PUSH2 0x379 SWAP1 DUP3 PUSH2 0x667 JUMP JUMPDEST PUSH2 0x353C PUSH2 0x1882 SWAP8 PUSH2 0x1882 PUSH2 0x352F PUSH2 0x3549 SWAP10 PUSH2 0x1882 PUSH2 0x379 SWAP16 SWAP14 SWAP8 PUSH2 0x255D SWAP16 SWAP12 PUSH2 0x1882 PUSH2 0x352F PUSH2 0x1882 SWAP14 PUSH2 0x1882 PUSH2 0x353C PUSH2 0x352F SWAP16 PUSH2 0x1882 PUSH2 0x1882 SWAP16 PUSH2 0x353C SWAP10 PUSH2 0x1882 PUSH2 0x352F SWAP3 PUSH17 0x1E3837B63CB3B7B7103837B4B73A399E91 PUSH1 0x79 SHL DUP2 MSTORE PUSH1 0x11 ADD SWAP1 JUMP JUMPDEST DUP1 PUSH2 0x3705 DUP2 MLOAD PUSH1 0xFF AND SWAP1 JUMP JUMPDEST SWAP3 PUSH1 0x40 DUP4 ADD SWAP1 PUSH2 0x3716 DUP3 MLOAD PUSH1 0xFF AND SWAP1 JUMP JUMPDEST SWAP5 PUSH1 0x2 SWAP6 PUSH2 0x3723 DUP8 PUSH2 0x2147 JUMP JUMPDEST PUSH2 0x372C SWAP2 PUSH2 0x34D1 JUMP JUMPDEST PUSH2 0x3735 SWAP2 PUSH2 0x2F35 JUMP JUMPDEST PUSH2 0x373E SWAP1 PUSH2 0x2F4D JUMP JUMPDEST PUSH2 0x3747 SWAP1 PUSH2 0x3B6B JUMP JUMPDEST SWAP2 PUSH1 0x20 DUP6 ADD PUSH2 0x3757 DUP2 MLOAD PUSH1 0xFF AND SWAP1 JUMP JUMPDEST PUSH2 0x3760 SWAP1 PUSH2 0x2F4D JUMP JUMPDEST PUSH2 0x3769 SWAP1 PUSH2 0x3B6B JUMP JUMPDEST SWAP5 PUSH2 0x3775 DUP2 MLOAD PUSH1 0xFF AND SWAP1 JUMP JUMPDEST PUSH2 0x377E SWAP1 PUSH2 0x2F4D JUMP JUMPDEST PUSH2 0x3787 SWAP1 PUSH2 0x3B6B JUMP JUMPDEST SWAP7 PUSH2 0x3793 DUP4 MLOAD PUSH1 0xFF AND SWAP1 JUMP JUMPDEST SWAP1 PUSH1 0x60 ADD SWAP1 PUSH2 0x37A3 DUP3 MLOAD PUSH1 0xFF AND SWAP1 JUMP JUMPDEST PUSH2 0x37AC DUP12 PUSH2 0x2147 JUMP JUMPDEST PUSH2 0x37B5 SWAP2 PUSH2 0x34D1 JUMP JUMPDEST PUSH2 0x37BE SWAP2 PUSH2 0x2F35 JUMP JUMPDEST PUSH2 0x37C7 SWAP1 PUSH2 0x2F4D JUMP JUMPDEST PUSH2 0x37D0 SWAP1 PUSH2 0x3B6B JUMP JUMPDEST SWAP9 PUSH2 0x37DC DUP4 MLOAD PUSH1 0xFF AND SWAP1 JUMP JUMPDEST DUP6 MLOAD PUSH1 0xFF AND PUSH2 0x37EA DUP4 PUSH2 0x2147 JUMP JUMPDEST PUSH2 0x37F3 SWAP2 PUSH2 0x34D1 JUMP JUMPDEST PUSH2 0x37FC SWAP2 PUSH2 0x2F35 JUMP JUMPDEST PUSH2 0x3805 SWAP1 PUSH2 0x2F4D JUMP JUMPDEST PUSH2 0x380E SWAP1 PUSH2 0x3B6B JUMP JUMPDEST SWAP5 PUSH2 0x381A DUP6 MLOAD PUSH1 0xFF AND SWAP1 JUMP JUMPDEST DUP4 MLOAD PUSH1 0xFF AND PUSH2 0x3828 SWAP2 PUSH2 0x2F35 JUMP JUMPDEST PUSH2 0x3831 SWAP1 PUSH2 0x2F4D JUMP JUMPDEST PUSH2 0x383A SWAP1 PUSH2 0x3B6B JUMP JUMPDEST SWAP4 MLOAD PUSH1 0xFF AND SWAP1 MLOAD PUSH1 0xFF AND PUSH2 0x384D SWAP2 PUSH2 0x2F35 JUMP JUMPDEST PUSH2 0x3856 SWAP1 PUSH2 0x2F4D JUMP JUMPDEST PUSH2 0x385F SWAP1 PUSH2 0x3B6B JUMP JUMPDEST SWAP4 MLOAD PUSH1 0xFF AND SWAP2 MLOAD PUSH1 0xFF AND SWAP1 PUSH2 0x3873 SWAP1 PUSH2 0x2147 JUMP JUMPDEST PUSH2 0x387C SWAP2 PUSH2 0x34D1 JUMP JUMPDEST PUSH2 0x3885 SWAP2 PUSH2 0x2F35 JUMP JUMPDEST PUSH2 0x388E SWAP1 PUSH2 0x2F4D JUMP JUMPDEST PUSH2 0x3897 SWAP1 PUSH2 0x3B6B JUMP JUMPDEST SWAP3 PUSH2 0x38A1 PUSH1 0x40 MLOAD SWAP1 JUMP JUMPDEST SWAP9 DUP10 SWAP9 PUSH1 0x20 DUP11 ADD SWAP9 PUSH2 0x3687 SWAP9 DUP11 PUSH2 0x3697 JUMP JUMPDEST SWAP4 PUSH2 0x1882 PUSH2 0x3915 PUSH2 0x379 SWAP8 SWAP6 PUSH2 0x1882 PUSH2 0x3900 PUSH2 0x1882 SWAP8 PUSH2 0x1882 PUSH2 0x38EF PUSH2 0x3549 SWAP10 PUSH2 0x1882 PUSH2 0x255D SWAP15 PUSH9 0x1E3932B1BA103C1E91 PUSH1 0xB9 SHL DUP2 MSTORE PUSH1 0x9 ADD SWAP1 JUMP JUMPDEST PUSH5 0x11103C9E91 PUSH1 0xD9 SHL DUP2 MSTORE PUSH1 0x5 ADD SWAP1 JUMP JUMPDEST PUSH9 0x11103BB4B23A341E91 PUSH1 0xB9 SHL DUP2 MSTORE PUSH1 0x9 ADD SWAP1 JUMP JUMPDEST PUSH10 0x11103432B4B3B43A1E91 PUSH1 0xB1 SHL DUP2 MSTORE PUSH1 0xA ADD SWAP1 JUMP JUMPDEST PUSH2 0x379 PUSH2 0x379 SWAP3 PUSH2 0x393A PUSH1 0x60 SWAP1 JUMP JUMPDEST POP PUSH2 0x3951 PUSH2 0x394C PUSH2 0x2FD6 DUP6 MLOAD PUSH1 0xFF AND SWAP1 JUMP JUMPDEST PUSH2 0x3B6B JUMP JUMPDEST PUSH2 0x1919 PUSH2 0x3968 PUSH2 0x394C PUSH2 0x2FD6 PUSH1 0x20 DUP9 ADD MLOAD PUSH1 0xFF AND SWAP1 JUMP JUMPDEST SWAP3 PUSH2 0x3991 PUSH2 0x394C PUSH2 0x2FD6 PUSH1 0x60 PUSH2 0x3988 PUSH2 0x394C PUSH2 0x2FD6 PUSH1 0x40 DUP14 ADD MLOAD PUSH1 0xFF AND SWAP1 JUMP JUMPDEST SWAP10 ADD MLOAD PUSH1 0xFF AND SWAP1 JUMP JUMPDEST PUSH1 0x40 MLOAD SWAP7 DUP8 SWAP6 PUSH1 0x20 DUP8 ADD SWAP6 DUP7 PUSH2 0x38B3 JUMP JUMPDEST PUSH2 0x255D SWAP4 PUSH2 0x1882 PUSH2 0x39EC PUSH2 0x379 SWAP8 SWAP6 PUSH2 0x1882 PUSH2 0x39DA PUSH2 0x1882 SWAP8 PUSH2 0x1882 PUSH2 0x3549 SWAP9 PUSH12 0x1E31B4B931B6329031BC1E91 PUSH1 0xA1 SHL DUP2 MSTORE PUSH1 0xC ADD SWAP1 JUMP JUMPDEST PUSH6 0x111031BC9E91 PUSH1 0xD1 SHL DUP2 MSTORE PUSH1 0x6 ADD SWAP1 JUMP JUMPDEST PUSH5 0x1110391E91 PUSH1 0xD9 SHL DUP2 MSTORE PUSH1 0x5 ADD SWAP1 JUMP JUMPDEST SWAP1 PUSH2 0x379 PUSH2 0x3A62 PUSH2 0x379 SWAP4 PUSH2 0x3A10 PUSH1 0x60 SWAP1 JUMP JUMPDEST POP PUSH2 0x1919 PUSH2 0x3A6D PUSH2 0x394C PUSH2 0x3A67 PUSH2 0x394C PUSH2 0x2FD6 PUSH1 0x0 PUSH2 0x3A62 PUSH1 0x20 PUSH2 0x3988 PUSH2 0x394C PUSH2 0x2FD6 DUP13 PUSH2 0x3A55 PUSH2 0x3A45 PUSH1 0x40 DUP4 ADD MLOAD PUSH1 0xFF AND SWAP1 JUMP JUMPDEST PUSH2 0x3A4F PUSH1 0x2 PUSH2 0x2147 JUMP JUMPDEST SWAP1 PUSH2 0x34D1 JUMP JUMPDEST SWAP15 DUP16 SWAP8 DUP9 SWAP3 ADD MLOAD PUSH1 0xFF AND SWAP1 JUMP JUMPDEST PUSH2 0x2F35 JUMP JUMPDEST SWAP5 PUSH2 0x2F4D JUMP JUMPDEST SWAP5 PUSH2 0x3A77 PUSH1 0x40 MLOAD SWAP1 JUMP JUMPDEST SWAP6 DUP7 SWAP5 PUSH1 0x20 DUP7 ADD SWAP5 DUP6 PUSH2 0x39A2 JUMP JUMPDEST PUSH2 0xE48 PUSH4 0x1FFC9A7 PUSH1 0xE0 SHL PUSH2 0xE3A JUMP JUMPDEST PUSH1 0x0 SWAP2 PUSH2 0x3AA1 DUP4 PUSH2 0x1091 JUMP JUMPDEST SWAP2 PUSH2 0x3AAB DUP4 PUSH2 0x3B3 JUMP JUMPDEST PUSH2 0x3AB4 DUP3 PUSH2 0x3B3 JUMP JUMPDEST EQ PUSH2 0x3AF2 JUMPI PUSH2 0x3AC4 SWAP2 DUP4 SWAP2 PUSH2 0x1FF2 JUMP JUMPDEST PUSH2 0x3AD0 PUSH2 0x1A01 DUP4 PUSH2 0x3B3 JUMP JUMPDEST SUB PUSH2 0x3AD9 JUMPI POP POP JUMP JUMPDEST PUSH4 0x39E35637 PUSH1 0xE1 SHL DUP3 MSTORE DUP2 SWAP1 PUSH2 0x1133 SWAP1 PUSH1 0x4 DUP4 ADD PUSH2 0x3DF JUMP JUMPDEST PUSH4 0x32505749 PUSH1 0xE1 SHL DUP5 MSTORE DUP4 DUP1 PUSH2 0x1133 DUP6 PUSH1 0x4 DUP4 ADD PUSH2 0x3DF JUMP JUMPDEST SWAP1 PUSH2 0x3B1A PUSH2 0x26CE DUP5 DUP4 DUP6 PUSH2 0x3BF8 JUMP JUMPDEST PUSH2 0x3B23 JUMPI POP POP POP JUMP JUMPDEST PUSH1 0x0 SWAP3 DUP4 SWAP3 PUSH2 0x3B37 PUSH2 0x1A01 PUSH2 0x124E DUP7 PUSH2 0x1091 JUMP JUMPDEST SUB PUSH2 0x3B54 JUMPI PUSH4 0x7E273289 PUSH1 0xE0 SHL DUP4 MSTORE PUSH1 0x4 DUP4 ADD MSTORE POP PUSH1 0x24 DUP2 ADD SUB SWAP1 REVERT JUMPDEST PUSH4 0x177E802F PUSH1 0xE0 SHL DUP4 MSTORE PUSH2 0x1133 SWAP2 PUSH1 0x4 DUP5 ADD PUSH2 0x1150 JUMP JUMPDEST PUSH2 0x3B74 DUP2 PUSH2 0x3C7C JUMP JUMPDEST SWAP1 PUSH2 0x3B85 PUSH1 0x1 SWAP3 PUSH2 0x4FF PUSH1 0x1 PUSH2 0x43D JUMP JUMPDEST SWAP2 DUP1 PUSH2 0x3B90 DUP5 PUSH2 0x280B JUMP JUMPDEST SWAP4 PUSH1 0x20 ADD DUP5 ADD SWAP1 JUMPDEST PUSH2 0x3BA3 JUMPI JUMPDEST POP POP POP SWAP1 JUMP JUMPDEST DUP2 ISZERO PUSH2 0x3BF3 JUMPI PUSH2 0x3BD7 SWAP1 PUSH1 0x0 NOT ADD SWAP3 PUSH16 0x181899199A1A9B1B9C1CB0B131B232B3 PUSH1 0x81 SHL PUSH1 0xA DUP3 MOD BYTE DUP5 MSTORE8 PUSH2 0x1078 PUSH1 0xA PUSH2 0x43D JUMP JUMPDEST SWAP1 DUP2 PUSH2 0x3BE6 PUSH2 0x1025 PUSH1 0x0 PUSH2 0x43D JUMP JUMPDEST EQ PUSH2 0x3BF3 JUMPI SWAP1 SWAP2 DUP2 PUSH2 0x3B98 JUMP JUMPDEST PUSH2 0x3B9D JUMP JUMPDEST SWAP1 PUSH2 0x3C06 PUSH2 0x124E PUSH1 0x0 PUSH2 0x1091 JUMP JUMPDEST PUSH2 0x3C0F DUP3 PUSH2 0x3B3 JUMP JUMPDEST EQ ISZERO SWAP3 DUP4 PUSH2 0x3C1D JUMPI POP POP POP SWAP1 JUMP JUMPDEST SWAP1 SWAP2 SWAP3 POP PUSH2 0x3C2A DUP3 PUSH2 0x3B3 JUMP JUMPDEST PUSH2 0x3C33 DUP5 PUSH2 0x3B3 JUMP JUMPDEST EQ SWAP3 DUP4 ISZERO PUSH2 0x3C68 JUMPI JUMPDEST POP DUP3 ISZERO PUSH2 0x3C4E JUMPI JUMPDEST POP POP CODESIZE DUP1 DUP1 PUSH2 0x3B9D JUMP JUMPDEST PUSH2 0x3C60 SWAP2 SWAP3 POP PUSH2 0x2953 PUSH2 0x1A01 SWAP2 PUSH2 0x1ECE JUMP JUMPDEST EQ CODESIZE DUP1 PUSH2 0x3C44 JUMP JUMPDEST PUSH2 0x3C75 SWAP2 SWAP4 POP DUP3 SWAP1 PUSH2 0x1DED JUMP JUMPDEST SWAP2 CODESIZE PUSH2 0x3C3C JUMP JUMPDEST PUSH2 0x3C86 PUSH1 0x0 PUSH2 0x43D JUMP JUMPDEST SWAP1 PUSH27 0x184F03E93FF9F4DAA797ED6E38ED64BF6A1F010000000000000000 PUSH2 0x3CAC DUP2 PUSH2 0x43D JUMP JUMPDEST DUP3 LT ISZERO PUSH2 0x3DEE JUMPI JUMPDEST POP PUSH14 0x4EE2D6D415B85ACEF8100000000 PUSH2 0x3CCD DUP2 PUSH2 0x43D JUMP JUMPDEST DUP3 LT ISZERO PUSH2 0x3DCC JUMPI JUMPDEST POP PUSH7 0x2386F26FC10000 PUSH2 0x3CE7 DUP2 PUSH2 0x43D JUMP JUMPDEST DUP3 LT ISZERO PUSH2 0x3DAA JUMPI JUMPDEST POP PUSH4 0x5F5E100 PUSH2 0x3CFE DUP2 PUSH2 0x43D JUMP JUMPDEST DUP3 LT ISZERO PUSH2 0x3D88 JUMPI JUMPDEST POP PUSH2 0x2710 PUSH2 0x3D13 DUP2 PUSH2 0x43D JUMP JUMPDEST DUP3 LT ISZERO PUSH2 0x3D66 JUMPI JUMPDEST POP PUSH2 0x3D26 PUSH1 0x64 PUSH2 0x43D JUMP JUMPDEST DUP2 LT ISZERO PUSH2 0x3D44 JUMPI JUMPDEST PUSH2 0x3D3B PUSH2 0x1025 PUSH1 0xA PUSH2 0x43D JUMP JUMPDEST LT ISZERO PUSH2 0x2E32 JUMPI SWAP1 JUMP JUMPDEST PUSH2 0x3D55 PUSH2 0x3D60 SWAP2 PUSH2 0x1078 PUSH1 0x64 PUSH2 0x43D JUMP JUMPDEST SWAP2 PUSH2 0x4FF PUSH1 0x2 PUSH2 0x43D JUMP JUMPDEST SWAP1 PUSH2 0x3D2E JUMP JUMPDEST PUSH2 0x3D81 SWAP2 PUSH2 0x1078 PUSH2 0x3D76 SWAP3 PUSH2 0x43D JUMP JUMPDEST SWAP2 PUSH2 0x4FF PUSH1 0x4 PUSH2 0x43D JUMP JUMPDEST SWAP1 CODESIZE PUSH2 0x3D1B JUMP JUMPDEST PUSH2 0x3DA3 SWAP2 PUSH2 0x1078 PUSH2 0x3D98 SWAP3 PUSH2 0x43D JUMP JUMPDEST SWAP2 PUSH2 0x4FF PUSH1 0x8 PUSH2 0x43D JUMP JUMPDEST SWAP1 CODESIZE PUSH2 0x3D06 JUMP JUMPDEST PUSH2 0x3DC5 SWAP2 PUSH2 0x1078 PUSH2 0x3DBA SWAP3 PUSH2 0x43D JUMP JUMPDEST SWAP2 PUSH2 0x4FF PUSH1 0x10 PUSH2 0x43D JUMP JUMPDEST SWAP1 CODESIZE PUSH2 0x3CEF JUMP JUMPDEST PUSH2 0x3DE7 SWAP2 PUSH2 0x1078 PUSH2 0x3DDC SWAP3 PUSH2 0x43D JUMP JUMPDEST SWAP2 PUSH2 0x4FF PUSH1 0x20 PUSH2 0x43D JUMP JUMPDEST SWAP1 CODESIZE PUSH2 0x3CD5 JUMP JUMPDEST PUSH2 0x3E09 SWAP2 PUSH2 0x1078 PUSH2 0x3DFE SWAP3 PUSH2 0x43D JUMP JUMPDEST SWAP2 PUSH2 0x4FF PUSH1 0x40 PUSH2 0x43D JUMP JUMPDEST SWAP1 CODESIZE PUSH2 0x3CB4 JUMP INVALID LOG2 PUSH5 0x6970667358 0x22 SLT KECCAK256 TSTORE 0xF CREATE2 GAS 0xD2 ISZERO 0xEF ADD XOR 0x27 MLOAD 0xF8 0xCA PUSH11 0x2E25734F60CBF3A9F9E239 SWAP4 0xCE SWAP12 DUP3 MCOPY DUP16 DUP2 PUSH5 0x736F6C6343 STOP ADDMOD SHR STOP CALLER "},"methodIdentifiers":{"approve(address,uint256)":"095ea7b3","availableTokens(uint256)":"ad64d068","balanceOf(address)":"70a08231","baseURI()":"6c0360eb","buy(uint256)":"d96a094a","calculatePrice(uint256)":"ae104265","creator()":"02d05d3f","creatorFeePercent()":"53613dd3","currentSupply()":"771282f6","description()":"7284e416","getAllAvailableTokens()":"12ea5c7e","getApproved(uint256)":"081812fc","getAvailableTokenByIndex(uint256)":"cf6a68bf","getAvailableTokensCount()":"2dcd52f2","getAvailableTokensPaginated(uint256,uint256)":"5eba096b","getBuyPrice()":"018a25e8","getBuyPriceAfterFee()":"4a8fe650","getSellPrice()":"43d32e9c","getSellPriceAfterFee()":"21a1c184","initialPrice()":"1d0806ae","isApprovedForAll(address,address)":"e985e9c5","isOnSale(uint256)":"f0f2805f","maxSupply()":"d5abeb01","mint()":"1249c58b","name()":"06fdde03","onERC721Received(address,address,uint256,bytes)":"150b7a02","owner()":"8da5cb5b","ownerOf(uint256)":"6352211e","renounceOwnership()":"715018a6","safeTransferFrom(address,address,uint256)":"42842e0e","safeTransferFrom(address,address,uint256,bytes)":"b88d4fde","sell(uint256)":"e4849b32","setApprovalForAll(address,bool)":"a22cb465","setBaseURI(string)":"55f804b3","setCreator(address)":"3f516018","setDescription(string)":"90c3f38f","supportsInterface(bytes4)":"01ffc9a7","symbol()":"95d89b41","tokenByIndex(uint256)":"4f6ccce7","tokenIndex(uint256)":"0583e9f8","tokenOfOwnerByIndex(address,uint256)":"2f745c59","tokenSeed(uint256)":"5f516836","tokenURI(uint256)":"c87b56dd","totalSupply()":"18160ddd","transferFrom(address,address,uint256)":"23b872dd","transferOwnership(address)":"f2fde38b"}}}}}