{"src/core/Trade.sol":{"Trade":{"abi":[{"inputs":[{"internalType":"string","name":"_name","type":"string"},{"internalType":"string","name":"_symbol","type":"string"},{"internalType":"uint256","name":"_initialPrice","type":"uint256"},{"internalType":"uint256","name":"_maxSupply","type":"uint256"},{"internalType":"uint256","name":"_creatorFeePercent","type":"uint256"}],"stateMutability":"nonpayable","type":"constructor"},{"inputs":[],"name":"ERC721EnumerableForbiddenBatchMint","type":"error"},{"inputs":[{"internalType":"address","name":"sender","type":"address"},{"internalType":"uint256","name":"tokenId","type":"uint256"},{"internalType":"address","name":"owner","type":"address"}],"name":"ERC721IncorrectOwner","type":"error"},{"inputs":[{"internalType":"address","name":"operator","type":"address"},{"internalType":"uint256","name":"tokenId","type":"uint256"}],"name":"ERC721InsufficientApproval","type":"error"},{"inputs":[{"internalType":"address","name":"approver","type":"address"}],"name":"ERC721InvalidApprover","type":"error"},{"inputs":[{"internalType":"address","name":"operator","type":"address"}],"name":"ERC721InvalidOperator","type":"error"},{"inputs":[{"internalType":"address","name":"owner","type":"address"}],"name":"ERC721InvalidOwner","type":"error"},{"inputs":[{"internalType":"address","name":"receiver","type":"address"}],"name":"ERC721InvalidReceiver","type":"error"},{"inputs":[{"internalType":"address","name":"sender","type":"address"}],"name":"ERC721InvalidSender","type":"error"},{"inputs":[{"internalType":"uint256","name":"tokenId","type":"uint256"}],"name":"ERC721NonexistentToken","type":"error"},{"inputs":[{"internalType":"address","name":"owner","type":"address"},{"internalType":"uint256","name":"index","type":"uint256"}],"name":"ERC721OutOfBoundsIndex","type":"error"},{"inputs":[{"internalType":"address","name":"owner","type":"address"}],"name":"OwnableInvalidOwner","type":"error"},{"inputs":[{"internalType":"address","name":"account","type":"address"}],"name":"OwnableUnauthorizedAccount","type":"error"},{"anonymous":false,"inputs":[{"indexed":true,"internalType":"address","name":"owner","type":"address"},{"indexed":true,"internalType":"address","name":"approved","type":"address"},{"indexed":true,"internalType":"uint256","name":"tokenId","type":"uint256"}],"name":"Approval","type":"event"},{"anonymous":false,"inputs":[{"indexed":true,"internalType":"address","name":"owner","type":"address"},{"indexed":true,"internalType":"address","name":"operator","type":"address"},{"indexed":false,"internalType":"bool","name":"approved","type":"bool"}],"name":"ApprovalForAll","type":"event"},{"anonymous":false,"inputs":[{"indexed":true,"internalType":"address","name":"previousOwner","type":"address"},{"indexed":true,"internalType":"address","name":"newOwner","type":"address"}],"name":"OwnershipTransferred","type":"event"},{"anonymous":false,"inputs":[{"indexed":true,"internalType":"address","name":"buyer","type":"address"},{"indexed":true,"internalType":"uint256","name":"tokenId","type":"uint256"},{"indexed":false,"internalType":"uint256","name":"price","type":"uint256"},{"indexed":false,"internalType":"uint256","name":"creatorFee","type":"uint256"}],"name":"TokenBought","type":"event"},{"anonymous":false,"inputs":[{"indexed":true,"internalType":"address","name":"to","type":"address"},{"indexed":true,"internalType":"uint256","name":"tokenId","type":"uint256"},{"indexed":false,"internalType":"uint256","name":"price","type":"uint256"},{"indexed":false,"internalType":"uint256","name":"creatorFee","type":"uint256"}],"name":"TokenMinted","type":"event"},{"anonymous":false,"inputs":[{"indexed":true,"internalType":"address","name":"seller","type":"address"},{"indexed":true,"internalType":"uint256","name":"tokenId","type":"uint256"},{"indexed":false,"internalType":"uint256","name":"price","type":"uint256"},{"indexed":false,"internalType":"uint256","name":"creatorFee","type":"uint256"}],"name":"TokenSold","type":"event"},{"anonymous":false,"inputs":[{"indexed":true,"internalType":"address","name":"from","type":"address"},{"indexed":true,"internalType":"address","name":"to","type":"address"},{"indexed":true,"internalType":"uint256","name":"tokenId","type":"uint256"}],"name":"Transfer","type":"event"},{"inputs":[{"internalType":"address","name":"to","type":"address"},{"internalType":"uint256","name":"tokenId","type":"uint256"}],"name":"approve","outputs":[],"stateMutability":"nonpayable","type":"function"},{"inputs":[{"internalType":"uint256","name":"","type":"uint256"}],"name":"availableTokens","outputs":[{"internalType":"uint256","name":"","type":"uint256"}],"stateMutability":"view","type":"function"},{"inputs":[{"internalType":"address","name":"owner","type":"address"}],"name":"balanceOf","outputs":[{"internalType":"uint256","name":"","type":"uint256"}],"stateMutability":"view","type":"function"},{"inputs":[],"name":"baseURI","outputs":[{"internalType":"string","name":"","type":"string"}],"stateMutability":"view","type":"function"},{"inputs":[{"internalType":"uint256","name":"tokenId","type":"uint256"}],"name":"buy","outputs":[],"stateMutability":"payable","type":"function"},{"inputs":[{"internalType":"uint256","name":"supply","type":"uint256"}],"name":"calculatePrice","outputs":[{"internalType":"uint256","name":"","type":"uint256"}],"stateMutability":"view","type":"function"},{"inputs":[],"name":"creator","outputs":[{"internalType":"address","name":"","type":"address"}],"stateMutability":"view","type":"function"},{"inputs":[],"name":"creatorFeePercent","outputs":[{"internalType":"uint256","name":"","type":"uint256"}],"stateMutability":"view","type":"function"},{"inputs":[],"name":"currentSupply","outputs":[{"internalType":"uint256","name":"","type":"uint256"}],"stateMutability":"view","type":"function"},{"inputs":[],"name":"description","outputs":[{"internalType":"string","name":"","type":"string"}],"stateMutability":"view","type":"function"},{"inputs":[],"name":"getAllAvailableTokens","outputs":[{"internalType":"uint256[]","name":"","type":"uint256[]"}],"stateMutability":"view","type":"function"},{"inputs":[{"internalType":"uint256","name":"tokenId","type":"uint256"}],"name":"getApproved","outputs":[{"internalType":"address","name":"","type":"address"}],"stateMutability":"view","type":"function"},{"inputs":[{"internalType":"uint256","name":"index","type":"uint256"}],"name":"getAvailableTokenByIndex","outputs":[{"internalType":"uint256","name":"","type":"uint256"}],"stateMutability":"view","type":"function"},{"inputs":[],"name":"getAvailableTokensCount","outputs":[{"internalType":"uint256","name":"","type":"uint256"}],"stateMutability":"view","type":"function"},{"inputs":[{"internalType":"uint256","name":"start","type":"uint256"},{"internalType":"uint256","name":"limit","type":"uint256"}],"name":"getAvailableTokensPaginated","outputs":[{"internalType":"uint256[]","name":"","type":"uint256[]"}],"stateMutability":"view","type":"function"},{"inputs":[],"name":"getBuyPrice","outputs":[{"internalType":"uint256","name":"","type":"uint256"}],"stateMutability":"view","type":"function"},{"inputs":[],"name":"getBuyPriceAfterFee","outputs":[{"internalType":"uint256","name":"","type":"uint256"}],"stateMutability":"view","type":"function"},{"inputs":[],"name":"getSellPrice","outputs":[{"internalType":"uint256","name":"","type":"uint256"}],"stateMutability":"view","type":"function"},{"inputs":[],"name":"getSellPriceAfterFee","outputs":[{"internalType":"uint256","name":"","type":"uint256"}],"stateMutability":"view","type":"function"},{"inputs":[],"name":"initialPrice","outputs":[{"internalType":"uint256","name":"","type":"uint256"}],"stateMutability":"view","type":"function"},{"inputs":[{"internalType":"address","name":"owner","type":"address"},{"internalType":"address","name":"operator","type":"address"}],"name":"isApprovedForAll","outputs":[{"internalType":"bool","name":"","type":"bool"}],"stateMutability":"view","type":"function"},{"inputs":[{"internalType":"uint256","name":"tokenId","type":"uint256"}],"name":"isOnSale","outputs":[{"internalType":"bool","name":"","type":"bool"}],"stateMutability":"view","type":"function"},{"inputs":[],"name":"maxSupply","outputs":[{"internalType":"uint256","name":"","type":"uint256"}],"stateMutability":"view","type":"function"},{"inputs":[],"name":"mint","outputs":[{"internalType":"uint256","name":"","type":"uint256"}],"stateMutability":"payable","type":"function"},{"inputs":[],"name":"name","outputs":[{"internalType":"string","name":"","type":"string"}],"stateMutability":"view","type":"function"},{"inputs":[{"internalType":"address","name":"","type":"address"},{"internalType":"address","name":"","type":"address"},{"internalType":"uint256","name":"","type":"uint256"},{"internalType":"bytes","name":"","type":"bytes"}],"name":"onERC721Received","outputs":[{"internalType":"bytes4","name":"","type":"bytes4"}],"stateMutability":"nonpayable","type":"function"},{"inputs":[],"name":"owner","outputs":[{"internalType":"address","name":"","type":"address"}],"stateMutability":"view","type":"function"},{"inputs":[{"internalType":"uint256","name":"tokenId","type":"uint256"}],"name":"ownerOf","outputs":[{"internalType":"address","name":"","type":"address"}],"stateMutability":"view","type":"function"},{"inputs":[],"name":"renounceOwnership","outputs":[],"stateMutability":"nonpayable","type":"function"},{"inputs":[{"internalType":"address","name":"from","type":"address"},{"internalType":"address","name":"to","type":"address"},{"internalType":"uint256","name":"tokenId","type":"uint256"}],"name":"safeTransferFrom","outputs":[],"stateMutability":"nonpayable","type":"function"},{"inputs":[{"internalType":"address","name":"from","type":"address"},{"internalType":"address","name":"to","type":"address"},{"internalType":"uint256","name":"tokenId","type":"uint256"},{"internalType":"bytes","name":"data","type":"bytes"}],"name":"safeTransferFrom","outputs":[],"stateMutability":"nonpayable","type":"function"},{"inputs":[{"internalType":"uint256","name":"tokenId","type":"uint256"}],"name":"sell","outputs":[],"stateMutability":"nonpayable","type":"function"},{"inputs":[{"internalType":"address","name":"operator","type":"address"},{"internalType":"bool","name":"approved","type":"bool"}],"name":"setApprovalForAll","outputs":[],"stateMutability":"nonpayable","type":"function"},{"inputs":[{"internalType":"string","name":"_baseURI","type":"string"}],"name":"setBaseURI","outputs":[],"stateMutability":"nonpayable","type":"function"},{"inputs":[{"internalType":"address","name":"_creator","type":"address"}],"name":"setCreator","outputs":[],"stateMutability":"nonpayable","type":"function"},{"inputs":[{"internalType":"string","name":"_description","type":"string"}],"name":"setDescription","outputs":[],"stateMutability":"nonpayable","type":"function"},{"inputs":[{"internalType":"bytes4","name":"interfaceId","type":"bytes4"}],"name":"supportsInterface","outputs":[{"internalType":"bool","name":"","type":"bool"}],"stateMutability":"view","type":"function"},{"inputs":[],"name":"symbol","outputs":[{"internalType":"string","name":"","type":"string"}],"stateMutability":"view","type":"function"},{"inputs":[{"internalType":"uint256","name":"index","type":"uint256"}],"name":"tokenByIndex","outputs":[{"internalType":"uint256","name":"","type":"uint256"}],"stateMutability":"view","type":"function"},{"inputs":[{"internalType":"uint256","name":"","type":"uint256"}],"name":"tokenIndex","outputs":[{"internalType":"uint256","name":"","type":"uint256"}],"stateMutability":"view","type":"function"},{"inputs":[{"internalType":"address","name":"owner","type":"address"},{"internalType":"uint256","name":"index","type":"uint256"}],"name":"tokenOfOwnerByIndex","outputs":[{"internalType":"uint256","name":"","type":"uint256"}],"stateMutability":"view","type":"function"},{"inputs":[{"internalType":"uint256","name":"tokenId","type":"uint256"}],"name":"tokenURI","outputs":[{"internalType":"string","name":"","type":"string"}],"stateMutability":"view","type":"function"},{"inputs":[],"name":"totalSupply","outputs":[{"internalType":"uint256","name":"","type":"uint256"}],"stateMutability":"view","type":"function"},{"inputs":[{"internalType":"address","name":"from","type":"address"},{"internalType":"address","name":"to","type":"address"},{"internalType":"uint256","name":"tokenId","type":"uint256"}],"name":"transferFrom","outputs":[],"stateMutability":"nonpayable","type":"function"},{"inputs":[{"internalType":"address","name":"newOwner","type":"address"}],"name":"transferOwnership","outputs":[],"stateMutability":"nonpayable","type":"function"}],"evm":{"bytecode":{"linkReferences":{},"object":"60806040523461002e5761001d610014610171565b93929092610196565b604051612edf6105508239612edf90f35b600080fd5b634e487b7160e01b600052604160045260246000fd5b90601f01601f191681019081106001600160401b0382111761006a57604052565b610033565b9061008361007c60405190565b9283610049565b565b6001600160401b03811161006a57602090601f01601f19160190565b60005b8381106100b45750506000910152565b81810151838201526020016100a4565b909291926100d96100d482610085565b61006f565b938185528183011161002e576100839160208501906100a1565b9080601f8301121561002e57815161010d926020016100c4565b90565b919060a08382031261002e5782516001600160401b03811161002e57816101389185016100f3565b60208401519093906001600160401b03811161002e578261015a9183016100f3565b604082015160608301516080909301519194909350565b61018f61342f803803806101848161006f565b928339810190610110565b9091929394565b610083948594859433929190610237565b90600019905b9181191691161790565b61010d61010d61010d9290565b906101d461010d6101db926101b7565b82546101a7565b9055565b906001600160a01b03906101ad565b61010d90610202906001600160a01b031682565b6001600160a01b031690565b61010d906101ee565b61010d9061020e565b9061023061010d6101db92610217565b82546101df565b61024d6102629661025493949661025b9661026d565b600b6101c4565b600c6101c4565b600d6101c4565b61008333600e610220565b9061008392916102ab565b61020261010d61010d9290565b61010d90610278565b61029790610202565b9052565b602081019291610083919061028e565b916102b5916102ff565b60006102c081610285565b6102c981610202565b6102d284610202565b146102e2575050610083906104f8565b631e4fbdf760e01b825281906102fb906004830161029b565b0390fd5b610083918291829182916104cf565b634e487b7160e01b600052602260045260246000fd5b9060016002830492168015610344575b602083101461033f57565b61030e565b91607f1691610334565b9160001960089290920291821b911b6101ad565b919061037361010d6101db936101b7565b90835461034e565b61008391600091610362565b818110610392575050565b806103a0600060019361037b565b01610387565b9190601f81116103b557505050565b6103c761008393600052602060002090565b906020601f8401819004830193106103e9575b6020601f909101040190610387565b90915081906103da565b906103fc815190565b906001600160401b03821161006a5761041f826104198554610324565b856103a6565b602090601f831160011461045a576101db92916000918361044f575b5050600019600883021c1916906002021790565b01519050388061043b565b601f1983169161046f85600052602060002090565b9260005b8181106104ad57509160029391856001969410610494575b50505002019055565b01516000196008601f8516021c1916905538808061048b565b91936020600181928787015181550195019201610473565b90610083916103f3565b906104de6100839260006104c5565b60016104c5565b61010d90610202565b61010d90546104e5565b61051e610518610508600a6104ee565b61051384600a610220565b610217565b91610217565b907f8be0079c531659141344cd1fd0a4f28419497f9722a3daafe3b4186f6b6457e061054960405190565b600090a356fe6080604052600436101561001257600080fd5b60003560e01c8063018a25e8146102e257806301ffc9a7146102dd57806302d05d3f146102d85780630583e9f8146102d357806306fdde03146102ce578063081812fc146102c9578063095ea7b3146102c45780631249c58b146102bf57806312ea5c7e146102ba578063150b7a02146102b557806318160ddd146102b05780631d0806ae146102ab57806321a1c184146102a657806323b872dd146102a15780632dcd52f21461029c5780632f745c59146102975780633f5160181461029257806342842e0e1461028d57806343d32e9c146102885780634a8fe650146102835780634f6ccce71461027e57806353613dd31461027957806355f804b3146102745780635eba096b1461026f5780636352211e1461026a5780636c0360eb1461026557806370a0823114610260578063715018a61461025b5780637284e41614610256578063771282f6146102515780638da5cb5b1461024c57806390c3f38f1461024757806395d89b4114610242578063a22cb4651461023d578063ad64d06814610238578063ae10426514610233578063b88d4fde1461022e578063c87b56dd14610229578063cf6a68bf14610224578063d5abeb011461021f578063d96a094a1461021a578063e4849b3214610215578063e985e9c514610210578063f0f2805f1461020b5763f2fde38b036102f257610d9e565b610d83565b610d67565b610d2c565b610d19565b610cfe565b610cd7565b610cbc565b610ca0565b610c85565b610c6a565b610bf5565b610ba2565b610b8a565b610b6f565b610b54565b610b2d565b610b09565b610aee565b610ad3565b610991565b610975565b610941565b610900565b6108d9565b6108be565b6108a3565b61088a565b610872565b610842565b610826565b61080d565b6107c9565b6107ae565b610786565b61074c565b610611565b610594565b610576565b610522565b6104fb565b610474565b6103d6565b610363565b6102fd565b60009103126102f257565b600080fd5b9052565b565b346102f25761030d3660046102e7565b610328610318610dc7565b6040519182918290815260200190565b0390f35b6001600160e01b031981165b036102f257565b905035906102fb8261032c565b906020828203126102f2576103609161033f565b90565b346102f25761032861037e61037936600461034c565b610dd4565b6040515b91829182901515815260200190565b610360916008021c5b6001600160a01b031690565b906103609154610391565b6103606000600e6103a6565b6102f79061039a565b6020810192916102fb91906103bd565b346102f2576103e63660046102e7565b6103286103f16103b1565b604051918291826103c6565b80610338565b905035906102fb826103fd565b906020828203126102f25761036091610403565b6103606103606103609290565b9061043b90610424565b600052602052604060002090565b610360916008021c81565b906103609154610449565b600061046f610360926011610431565b610454565b346102f25761032861031861048a366004610410565b61045f565b60005b8381106104a25750506000910152565b8181015183820152602001610492565b6104d36104dc6020936104e6936104c7815190565b80835293849260200190565b9586910161048f565b601f01601f191690565b0190565b6020808252610360929101906104b2565b346102f25761050b3660046102e7565b610328610516610e11565b604051918291826104ea565b346102f2576103286103f1610538366004610410565b610e1b565b6103388161039a565b905035906102fb8261053d565b91906040838203126102f25761036090602061056f8286610546565b9401610403565b346102f25761058f610589366004610553565b90610e2e565b604051005b61059f3660046102e7565b610328610318611026565b906105ca6105c36105b9845190565b8084529260200190565b9260200190565b9060005b8181106105db5750505090565b9091926105f86105f16001928651815260200190565b9460200190565b9291016105ce565b6020808252610360929101906105aa565b346102f2576106213660046102e7565b61032861062c6111e1565b60405191829182610600565b634e487b7160e01b600052604160045260246000fd5b90601f01601f1916810190811067ffffffffffffffff82111761067057604052565b610638565b906102fb61068260405190565b928361064e565b67ffffffffffffffff811161067057602090601f01601f19160190565b90826000939282370152565b909291926106c76106c282610689565b610675565b93818552818301116102f2576102fb9160208501906106a6565b9080601f830112156102f257816020610360933591016106b2565b906080828203126102f2576107118183610546565b9261071f8260208501610546565b9261072d8360408301610403565b92606082013567ffffffffffffffff81116102f25761036092016106e1565b346102f25761032861076b6107623660046106fc565b92919091611211565b604051918291826001600160e01b0319909116815260200190565b346102f2576107963660046102e7565b61032861031860085490565b6103606000600b610454565b346102f2576107be3660046102e7565b6103286103186107a2565b346102f2576107d93660046102e7565b610328610318611238565b90916060828403126102f2576103606107fd8484610546565b93604061056f8260208701610546565b346102f25761058f6108203660046107e4565b916112a3565b346102f2576108363660046102e7565b61032861031860105490565b346102f257610328610318610858366004610553565b9061134c565b906020828203126102f25761036091610546565b346102f25761058f61088536600461085e565b61144f565b346102f25761058f61089d3660046107e4565b9161146a565b346102f2576108b33660046102e7565b61032861031861147e565b346102f2576108ce3660046102e7565b6103286103186114c2565b346102f2576103286103186108ef366004610410565b6114dd565b6103606000600d610454565b346102f2576109103660046102e7565b6103286103186108f4565b906020828203126102f257813567ffffffffffffffff81116102f25761036092016106e1565b346102f25761058f61095436600461091b565b6116c9565b91906040838203126102f25761036090602061056f8286610403565b346102f25761032861062c61098b366004610959565b90611785565b346102f2576103286103f16109a7366004610410565b611814565b634e487b7160e01b600052600060045260246000fd5b634e487b7160e01b600052602260045260246000fd5b90600160028304921680156109f8575b60208310146109f357565b6109c2565b91607f16916109e8565b80546000939291610a1f610a15836109d8565b8085529360200190565b9160018116908115610a715750600114610a3857505050565b610a4b9192939450600052602060002090565b916000925b818410610a5d5750500190565b805484840152602090930192600101610a50565b92949550505060ff1916825215156020020190565b9061036091610a02565b906102fb610aaa92610aa160405190565b93848092610a86565b038361064e565b90600010610ac25761036090610a90565b6109ac565b61036060006012610ab1565b346102f257610ae33660046102e7565b610328610516610ac7565b346102f257610328610318610b0436600461085e565b61181d565b346102f257610b193660046102e7565b61058f611885565b61036060006013610ab1565b346102f257610b3d3660046102e7565b610328610516610b21565b6103606000600f610454565b346102f257610b643660046102e7565b610328610318610b48565b346102f257610b7f3660046102e7565b6103286103f161188d565b346102f25761058f610b9d36600461091b565b6118b6565b346102f257610bb23660046102e7565b6103286105166118bf565b801515610338565b905035906102fb82610bbd565b91906040838203126102f257610360906020610bee8286610546565b9401610bc5565b346102f25761058f610c08366004610bd2565b906118c9565b634e487b7160e01b600052603260045260246000fd5b8054821015610c4757610c3e600191600052602060002090565b91020190600090565b610c0e565b6010548110156102f257610c64610360916010610c24565b90610454565b346102f257610328610318610c80366004610410565b610c4c565b346102f257610328610318610c9b366004610410565b6118d4565b346102f25761058f610cb33660046106fc565b92919091611965565b346102f257610328610516610cd2366004610410565b6119dd565b346102f257610328610318610ced366004610410565b611a20565b6103606000600c610454565b346102f257610d0e3660046102e7565b610328610318610cf2565b61058f610d27366004610410565b611b48565b346102f25761058f610d3f366004610410565b611d54565b91906040838203126102f257610360906020610d608286610546565b9401610546565b346102f25761032861037e610d7d366004610d44565b90611d72565b346102f25761032861037e610d99366004610410565b611d97565b346102f25761058f610db136600461085e565b611e01565b6103609081565b6103609054610db6565b610360610c9b600f610dbd565b610ddd81611e0a565b908115610de8575090565b9050610e04632fa757f360e01b5b916001600160e01b03191690565b1490565b61036090610a90565b6103606000610e08565b61036090610e2881611e13565b50611e53565b6102fb913391611e6f565b15610e4057565b60405162461bcd60e51b815260206004820152601260248201527113585e081cdd5c1c1b1e481c995858da195960721b604482015280606481015b0390fd5b634e487b7160e01b600052601160045260246000fd5b81810292918115918404141715610ea857565b610e7f565b634e487b7160e01b600052601260045260246000fd5b90610ecd565b9190565b908115610ed8570490565b610ead565b91908201809211610ea857565b15610ef157565b60405162461bcd60e51b8152602060048201526014602482015273125b9cdd59999a58da595b9d081c185e5b595b9d60621b6044820152606490fd5b6000198114610ea85760010190565b90600019905b9181191691161790565b90610f5c610360610f6392610424565b8254610f3c565b9055565b6103609061039a906001600160a01b031682565b61036090610f67565b61036090610f7b565b9081526040810192916102fb9160200152565b0152565b6103609061039a565b6103609054610fa4565b90610fc46106c283610689565b918252565b3d15610fe357610fd83d610fb7565b903d6000602084013e565b606090565b15610fef57565b60405162461bcd60e51b815260206004820152600f60248201526e151c985b9cd9995c8819985a5b1959608a1b6044820152606490fd5b61104861103260085490565b611042610ec9610360600c610dbd565b10610e39565b611050610dc7565b61036061115761108361106c611066600d610dbd565b85610e95565b61107d670de0b6b3a7640000610424565b90610ec3565b61109b6110936103608387610edd565b341015610eea565b6110b76110a760085490565b6110b16001610424565b90610edd565b936110c28533611e7c565b6110de6110d76110d2600f610dbd565b610f2d565b600f610f4c565b6110e733610f84565b6110f086610424565b907f10546b1a6f5245ff0ffa18c256b9e46859c585cbb473b453fcd4c2dc39ae08db61111b60405190565b80611127878783610f8d565b0390a361115260008061113a600e610fad565b60405160009187905af161114c610fc9565b50610fe8565b610edd565b611eca565b9061117761116b6105b9845490565b92600052602060002090565b9060005b8181106111885750505090565b9091926111ac6111a560019261119d87610dbd565b815260200190565b9460010190565b92910161117b565b906103609161115c565b906102fb610aaa926111cf60405190565b938480926111b4565b610360906111be565b61036060106111d8565b6112046111fe6103609263ffffffff1690565b60e01b90565b6001600160e01b03191690565b5050505061121d600090565b5061036063150b7a026111eb565b91908203918211610ea857565b61036061124361147e565b61125961106c611253600d610dbd565b83610e95565b9061122b565b61039a6103606103609290565b6103609061125f565b60409061129c6102fb9496959396611295606084019860008501906103bd565b6020830152565b01906103bd565b90916000926112b18461126c565b6112ba8161039a565b6112c38361039a565b1461130e57506112d590823391611f14565b916112df8161039a565b6112e88461039a565b036112f35750505050565b6364283d7b60e01b84528392610e7b92909160048501611275565b84610e7b8192633250574960e11b8352600483016103c6565b9160206102fb929493610fa0604082019660008301906103bd565b9061043b90610f84565b6113586103608261181d565b82101561137b5761036091611371611376926006611342565b610431565b610dbd565b63295f44f760e21b600090815291611394916004611327565b036000fd5b156113a057565b60405162461bcd60e51b815260206004820152602360248201527f4f6e6c792063726561746f722063616e2063616c6c20746869732066756e637460448201526234b7b760e91b6064820152608490fd5b6102fb9061141961140a611405600e610fad565b61039a565b6114133361039a565b14611399565b611444565b906001600160a01b0390610f42565b9061143d610360610f6392610f84565b825461141e565b6102fb90600e61142d565b6102fb906113f1565b6103606000610fb7565b610360611458565b90916102fb92611478611462565b92611965565b611488600f610dbd565b611495610ec96000610424565b11156114b557610360610c9b6114ab600f610dbd565b6112596001610424565b610360610c9b6000610424565b6103606114cd610dc7565b6110b161106c611253600d610dbd565b6114e961036060085490565b8110156114fe57610c64610360916008610c24565b610e7b9060009182916115108361126c565b63295f44f760e21b845260048401611327565b6102fb9061153761140a611405600e610fad565b6116be565b9160001960089290920291821b911b610f42565b9190611561610360610f6393610424565b90835461153c565b6102fb91600091611550565b818110611580575050565b8061158e6000600193611569565b01611575565b9190601f81116115a357505050565b6115b56102fb93600052602060002090565b906020601f8401819004830193106115d7575b6020601f909101040190611575565b90915081906115c8565b906115ea815190565b9067ffffffffffffffff82116106705761160e8261160885546109d8565b85611594565b602090601f831160011461164957610f6392916000918361163e575b5050600019600883021c1916906002021790565b01519050388061162a565b601f1983169161165e85600052602060002090565b9260005b81811061169c57509160029391856001969410611683575b50505002019055565b01516000196008601f8516021c1916905538808061167a565b91936020600181928787015181550195019201611662565b906102fb916115e1565b6102fb9060126116b4565b6102fb90611523565b156116d957565b60405162461bcd60e51b815260206004820152601960248201527f537461727420696e646578206f7574206f6620626f756e6473000000000000006044820152606490fd5b67ffffffffffffffff81116106705760208091020190565b90610fc46106c28361171e565b369037565b906102fb61175e61175884611736565b9361171e565b601f190160208401611743565b90611774825190565b811015610c47576020809102010190565b916117b26117aa6010936117a461179d610360875490565b87106116d2565b85610edd565b835490611f1f565b916117c56117c0858561122b565b611748565b91845b845b81101561180b57611804816117fe6117e8610c646117ca9588610c24565b6117fb6117f58b8561122b565b8961176b565b52565b60010190565b90506117c8565b50935050905090565b61036090611e13565b60006118288161126c565b6118318161039a565b61183a8461039a565b1461184f575050611376610360916003611342565b6322718ad960e21b82528190610e7b90600483016103c6565b611870611f31565b6102fb6102fb611880600061126c565b611f68565b6102fb611868565b610360600a610fad565b6102fb906118ab61140a611405600e610fad565b6102fb9060136116b4565b6102fb90611897565b6103606001610e08565b6102fb919033611fe1565b6118de6000610424565b811461195a57610360906110b16118f5600b610dbd565b9161191c61194561193b61193b61194a611922611912600b610dbd565b61191c6002610424565b90610e95565b61191c61194561193b896119366064610424565b610e95565b61107d600c610dbd565b6120a5565b9461193681611936612710610424565b50610360600b610dbd565b906102fb9392916119778383836112a3565b6121ff565b6104e66119949260209261198e815190565b94859290565b9384910161048f565b6119ab90610360939261197c565b9061197c565b6119d192916102fb916119c360405190565b94859260208401928361199d565b9081038252038361064e565b6119e681611e13565b506119ef61231c565b80516119fe610ec96000610424565b1115611a1657611a106103609261233c565b906119b1565b5050610360611462565b610c6461036091611a2f600090565b506010610c24565b15611a3e57565b60405162461bcd60e51b815260206004820152601f60248201527f546f6b656e206973206e6f7420617661696c61626c6520666f722073616c65006044820152606490fd5b6102fb90611aae611a9382611814565b611aa8611aa261140530610f84565b9161039a565b14611a37565b6111576102fb91611abd610dc7565b611acd61106c611253600d610dbd565b91611ade6110936103608585610edd565b611af281611aeb30610f84565b33906123c9565b611afb8161248c565b611b0b6110d76110d2600f610dbd565b611b1d611b1733610f84565b91610424565b907f884543c08d36fb5c9b3b688dd0453c9f287199124bdbddb3b7f9ca885a4d34a061111b60405190565b6102fb90611a83565b15611b5857565b60405162461bcd60e51b815260206004820152601360248201527221b0b63632b91034b9903737ba1037bbb732b960691b6044820152606490fd5b6102fb90611bb5611ba382611814565b611baf611aa23361039a565b14611b51565b611c5f565b8015610ea8576000190190565b15611bce57565b60405162461bcd60e51b815260206004820152601960248201527f5472616e7366657220746f2073656c6c6572206661696c6564000000000000006044820152606490fd5b15611c1a57565b60405162461bcd60e51b815260206004820152601a60248201527f5472616e7366657220746f2063726561746f72206661696c65640000000000006044820152606490fd5b6000806102fb92611d2b8280611c7361147e565b93611d13611c8d61106c611c87600d610dbd565b88610e95565b8096611c963390565b93611caa81611ca430610f84565b876123c9565b611cb38161251b565b611cc86110d7611cc3600f610dbd565b611bba565b611cd4611b1786610f84565b907f8323bebb324b6e1a1d4886a1f210640461bb275263dae69967f001d053ab0b2b611cff60405190565b80611d0b878783610f8d565b0390a361122b565b60405190818003925af1611d25610fc9565b50611bc7565b611d35600e610fad565b90611d3f60405190565b90818003925af1611d4e610fc9565b50611c13565b6102fb90611b93565b610360905b60ff1690565b6103609054611d5d565b61036091611d8d611d9292611d85600090565b506005611342565b611342565b611d68565b611da090611814565b610e04611aa261140530610f84565b6102fb90611dbb611f31565b6000611dc68161126c565b611dcf8161039a565b611dd88461039a565b14611de85750506102fb90611f68565b631e4fbdf760e01b82528190610e7b90600483016103c6565b6102fb90611daf565b61036090612541565b611e1c8161256a565b90600090611e2c6114058361126c565b611e358461039a565b14611e3f57505090565b637e27328960e01b82526004820152602490fd5b611e6a61036091611e62600090565b506004610431565b610fad565b916001916102fb93612581565b6102fb91611e88611462565b916126ad565b15611e9557565b60405162461bcd60e51b815260206004820152600d60248201526c1499599d5b990819985a5b1959609a1b6044820152606490fd5b611ed4903461122b565b611ede6000610424565b8111611ee75750565b6000806102fb92611ef53390565b90611eff60405190565b90818003925af1611f0e610fc9565b50611e8e565b6103609291906126c7565b9080821015611f2c575090565b905090565b611f3961188d565b3390611f47611aa28361039a565b03611f4f5750565b63118cdaa760e01b6000908152906113949060046103c6565b611f8e611f88611f78600a610fad565b611f8384600a61142d565b610f84565b91610f84565b907f8be0079c531659141344cd1fd0a4f28419497f9722a3daafe3b4186f6b6457e0611fb960405190565b80805b0390a3565b9060ff90610f42565b90611fda610360610f6392151590565b8254611fc1565b6000611fef6114058261126c565b611ff88461039a565b146120515750611fbc61204761204183611f838761203c88611d8d7f17307eab39ab6107e8899845ad3d59bd9653f200f220920489ca2b5937696c31996005611342565b611fca565b93610f84565b9361038260405190565b630b61174360e31b815280610e7b84600483016103c6565b611d626103606103609290565b6103609061208a610ec96103609460ff1690565b901c90565b610360906120a0610ec96103609490565b901b90565b6120af6000610424565b81146121955760016120c082612760565b6120c982612069565b8080808080966120da828098612076565b906120e490610424565b906120ee9161208f565b6120f8818a610ec3565b019061210391612076565b61210d8189610ec3565b019061211891612076565b6121228188610ec3565b019061212d91612076565b6121378187610ec3565b019061214291612076565b61214c8186610ec3565b019061215791612076565b6121618185610ec3565b019061216c91612076565b6121768184610ec3565b019061218191612076565b908161218c91610ec3565b61036091611f1f565b506103606000610424565b905051906102fb8261032c565b906020828203126102f257610360916121a0565b90926121f2906121eb61036096946121e1608086019760008701906103bd565b60208501906103bd565b6040830152565b60608184039101526104b2565b6000939192833b612212610ec987610424565b1161221f575b5050505050565b60209161222e611f8386610f84565b90863361225761223d60405190565b97889687958694630a85bd0160e11b8652600486016121c1565b03925af1600091816122eb575b506122b65750612279565b3880808080612218565b612281610fc9565b805161228f610ec985610424565b036122ae5750633250574960e11b82528190610e7b90600483016103c6565b805190602001fd5b6122c6630a85bd0160e11b610df6565b036122d257505061226f565b633250574960e11b82528190610e7b90600483016103c6565b61230e91925060203d602011612315575b612306818361064e565b8101906121ad565b9038612264565b503d6122fc565b6103606012610e08565b906102fb61175e61233684610fb7565b93610689565b61234581612912565b906123566001926104e66001610424565b918061236184612326565b936020018401905b612374575b50505090565b81156123c4576123a89060001901926f181899199a1a9b1b9c1cb0b131b232b360811b600a82061a845361107d600a610424565b90816123b7610ec96000610424565b146123c457909181612369565b61236e565b9192906000926123d88461126c565b916123e28361039a565b6123eb8261039a565b14612435576123fe838761240493611f14565b9261039a565b61240d8361039a565b0361242857637e27328960e01b845260048401859052602484fd5b6112df819592939561039a565b633250574960e11b85528480610e7b85600483016103c6565b634e487b7160e01b600052603160045260246000fd5b8054801561248757600019019061248461247e8383610c24565b90611569565b55565b61244e565b60006124ee6102fb9260116113716124e96124aa6113768585610431565b6103606010916124e46124ca610c646124c46114ab875490565b86610c24565b6124de816124d88588610c24565b90611550565b87610431565b610f4c565b612464565b611569565b908154916801000000000000000083101561067057826124d89160016102fb95018155610c24565b6102fb9061252a8160106124f3565b6124e46125396114ab60105490565b916011610431565b63780e9d6360e01b6001600160e01b0319821614908115612560575090565b6103609150612aa6565b611e6a61036091612579600090565b506002610431565b9291909180811561268f575b6125a8575b5050906125a36102fb926004610431565b61142d565b6125b183611e13565b916000906125c16114058361126c565b6125ca8261039a565b141580612675575b8061265e575b612645575050916125a3916102fb94936125f5575b509192612592565b6125fe90610f84565b61260784610f84565b61261083610424565b917f8c5be1e5ebec7d5bd14f71427d1e84f3dd0314c0f7b2291e5b200ac8c7c3b92561263b60405190565b600090a4386125ed565b63a9fbf51f60e01b82528190610e7b90600483016103c6565b5061267061266c8286611d72565b1590565b6125d8565b5061267f8161039a565b6126888561039a565b14156125d2565b5061269d611405600061126c565b6126a68361039a565b141561258d565b906102fb92916126bd8282612af1565b611977600061126c565b90916126d4908383612b67565b916127026126e2600061126c565b6126eb8161039a565b6126f48661039a565b0361273f5761140583612d16565b61270b8361039a565b0361271a576103609150612d67565b6127238261039a565b61272c8461039a565b0361273657505090565b61036091612d38565b6127488461039a565b6127518661039a565b1461039a576114058386612c95565b600061285b610ec961285561277484610424565b946127886127826080612069565b82612076565b8681116128fb575b5061279e6127826040612069565b6127a786610424565b81116128e4575b506127bc6127826020612069565b6127c586610424565b81116128cd575b506127da6127826010612069565b6127e386610424565b81116128b6575b506127f86127826008612069565b61280186610424565b811161289f575b506128166127826004612069565b61281f86610424565b8111612888575b506128346127826002612069565b61283d86610424565b8111612871575b5061284f6001612069565b90612076565b92610424565b116128635790565b610360906104e66001610424565b6128819150956104e66002610424565b9438612844565b6128989150956104e66004610424565b9438612826565b6128af9150956104e66008610424565b9438612808565b6128c69150956104e66010610424565b94386127ea565b6128dd9150956104e66020610424565b94386127cc565b6128f49150956104e66040610424565b94386127ae565b61290b9150956104e66080610424565b9438612790565b61291c6000610424565b907a184f03e93ff9f4daa797ed6e38ed64bf6a1f01000000000000000061294281610424565b821015612a84575b506d04ee2d6d415b85acef810000000061296381610424565b821015612a62575b50662386f26fc1000061297d81610424565b821015612a40575b506305f5e10061299481610424565b821015612a1e575b506127106129a981610424565b8210156129fc575b506129bc6064610424565b8110156129da575b6129d1610ec9600a610424565b10156128635790565b6129eb6129f69161107d6064610424565b916104e66002610424565b906129c4565b612a179161107d612a0c92610424565b916104e66004610424565b90386129b1565b612a399161107d612a2e92610424565b916104e66008610424565b903861299c565b612a5b9161107d612a5092610424565b916104e66010610424565b9038612985565b612a7d9161107d612a7292610424565b916104e66020610424565b903861296b565b612a9f9161107d612a9492610424565b916104e66040610424565b903861294a565b6380ac58cd60e01b6001600160e01b0319821614908115612ad6575b8115612acc575090565b6103609150612db5565b6001600160e01b03198116635b5e139f60e01b149150612ac2565b600091612afd8361126c565b91612b078361039a565b612b108261039a565b14612b4e57612b20918391611f14565b612b2c611aa28361039a565b03612b35575050565b6339e3563760e11b82528190610e7b90600483016103c6565b633250574960e11b84528380610e7b85600483016103c6565b90612bba612b748261256a565b936000612b808161126c565b9184612b8b8461039a565b612b948361039a565b03612c84575b5050612ba58261039a565b612bae8761039a565b03612c49575b5061039a565b612bc38361039a565b03612c19575b612bd8826125a3836002610431565b612be7611b1761204185610f84565b917fddf252ad1be2c89b69c2b068fc378daa952ba7f163c4a11628f55a4df523b3ef612c1260405190565b600090a490565b612c44612c266001610424565b612c3e612c34856003611342565b916104e683610dbd565b90610f4c565b612bc9565b612c5590828581612581565b612c7e612c626001610424565b612c3e612c70886003611342565b91612c7a83610dbd565b0390565b38612bb4565b612c8e9188612dc5565b3884612b9a565b6124ee6102fb92611371600093612cd4856124ee612cb28461181d565b95600785612cc36113768484610431565b89808203612cdb575b505050610431565b6006611342565b611371612d08846124e485612cfe6113766124e497611371612d0e9b6006611342565b9485936006611342565b84610431565b853889612ccc565b6102fb90612d31612d2660085490565b6124e4836009610431565b60086124f3565b6124e482612d606102fb946124e461137195612d566114ab8261181d565b9687916006611342565b6007610431565b6124e96102fb9161036060006124ee600893612d846114ab865490565b6113716009916124e4612da7610c64612da06113768888610431565b938b610c24565b612d08816124d8858d610c24565b610e046301ffc9a760e01b610df6565b90612dd461266c848385612e25565b612ddd57505050565b6000928392612df1611aa26114058661126c565b03612e0e57637e27328960e01b8352600483015250602481010390fd5b63177e802f60e01b8352610e7b9160048401611327565b90612e33611405600061126c565b612e3c8261039a565b14159283612e4a5750505090565b90919250612e578261039a565b612e608461039a565b14928315612e95575b508215612e7b575b505038808061236e565b612e8d9192506123fe611aa291611e53565b143880612e71565b612ea29193508290611d72565b9138612e6956fea26469706673582212207d7eeb41d58f0494d529e0a7abb1635ccb797e0bf42e71c070de08fd68c55c8764736f6c634300081c0033","opcodes":"PUSH1 0x80 PUSH1 0x40 MSTORE CALLVALUE PUSH2 0x2E JUMPI PUSH2 0x1D PUSH2 0x14 PUSH2 0x171 JUMP JUMPDEST SWAP4 SWAP3 SWAP1 SWAP3 PUSH2 0x196 JUMP JUMPDEST PUSH1 0x40 MLOAD PUSH2 0x2EDF PUSH2 0x550 DUP3 CODECOPY PUSH2 0x2EDF SWAP1 RETURN JUMPDEST PUSH1 0x0 DUP1 REVERT JUMPDEST PUSH4 0x4E487B71 PUSH1 0xE0 SHL PUSH1 0x0 MSTORE PUSH1 0x41 PUSH1 0x4 MSTORE PUSH1 0x24 PUSH1 0x0 REVERT JUMPDEST SWAP1 PUSH1 0x1F ADD PUSH1 0x1F NOT AND DUP2 ADD SWAP1 DUP2 LT PUSH1 0x1 PUSH1 0x1 PUSH1 0x40 SHL SUB DUP3 GT OR PUSH2 0x6A JUMPI PUSH1 0x40 MSTORE JUMP JUMPDEST PUSH2 0x33 JUMP JUMPDEST SWAP1 PUSH2 0x83 PUSH2 0x7C PUSH1 0x40 MLOAD SWAP1 JUMP JUMPDEST SWAP3 DUP4 PUSH2 0x49 JUMP JUMPDEST JUMP JUMPDEST PUSH1 0x1 PUSH1 0x1 PUSH1 0x40 SHL SUB DUP2 GT PUSH2 0x6A JUMPI PUSH1 0x20 SWAP1 PUSH1 0x1F ADD PUSH1 0x1F NOT AND ADD SWAP1 JUMP JUMPDEST PUSH1 0x0 JUMPDEST DUP4 DUP2 LT PUSH2 0xB4 JUMPI POP POP PUSH1 0x0 SWAP2 ADD MSTORE JUMP JUMPDEST DUP2 DUP2 ADD MLOAD DUP4 DUP3 ADD MSTORE PUSH1 0x20 ADD PUSH2 0xA4 JUMP JUMPDEST SWAP1 SWAP3 SWAP2 SWAP3 PUSH2 0xD9 PUSH2 0xD4 DUP3 PUSH2 0x85 JUMP JUMPDEST PUSH2 0x6F JUMP JUMPDEST SWAP4 DUP2 DUP6 MSTORE DUP2 DUP4 ADD GT PUSH2 0x2E JUMPI PUSH2 0x83 SWAP2 PUSH1 0x20 DUP6 ADD SWAP1 PUSH2 0xA1 JUMP JUMPDEST SWAP1 DUP1 PUSH1 0x1F DUP4 ADD SLT ISZERO PUSH2 0x2E JUMPI DUP2 MLOAD PUSH2 0x10D SWAP3 PUSH1 0x20 ADD PUSH2 0xC4 JUMP JUMPDEST SWAP1 JUMP JUMPDEST SWAP2 SWAP1 PUSH1 0xA0 DUP4 DUP3 SUB SLT PUSH2 0x2E JUMPI DUP3 MLOAD PUSH1 0x1 PUSH1 0x1 PUSH1 0x40 SHL SUB DUP2 GT PUSH2 0x2E JUMPI DUP2 PUSH2 0x138 SWAP2 DUP6 ADD PUSH2 0xF3 JUMP JUMPDEST PUSH1 0x20 DUP5 ADD MLOAD SWAP1 SWAP4 SWAP1 PUSH1 0x1 PUSH1 0x1 PUSH1 0x40 SHL SUB DUP2 GT PUSH2 0x2E JUMPI DUP3 PUSH2 0x15A SWAP2 DUP4 ADD PUSH2 0xF3 JUMP JUMPDEST PUSH1 0x40 DUP3 ADD MLOAD PUSH1 0x60 DUP4 ADD MLOAD PUSH1 0x80 SWAP1 SWAP4 ADD MLOAD SWAP2 SWAP5 SWAP1 SWAP4 POP JUMP JUMPDEST PUSH2 0x18F PUSH2 0x342F DUP1 CODESIZE SUB DUP1 PUSH2 0x184 DUP2 PUSH2 0x6F JUMP JUMPDEST SWAP3 DUP4 CODECOPY DUP2 ADD SWAP1 PUSH2 0x110 JUMP JUMPDEST SWAP1 SWAP2 SWAP3 SWAP4 SWAP5 JUMP JUMPDEST PUSH2 0x83 SWAP5 DUP6 SWAP5 DUP6 SWAP5 CALLER SWAP3 SWAP2 SWAP1 PUSH2 0x237 JUMP JUMPDEST SWAP1 PUSH1 0x0 NOT SWAP1 JUMPDEST SWAP2 DUP2 NOT AND SWAP2 AND OR SWAP1 JUMP JUMPDEST PUSH2 0x10D PUSH2 0x10D PUSH2 0x10D SWAP3 SWAP1 JUMP JUMPDEST SWAP1 PUSH2 0x1D4 PUSH2 0x10D PUSH2 0x1DB SWAP3 PUSH2 0x1B7 JUMP JUMPDEST DUP3 SLOAD PUSH2 0x1A7 JUMP JUMPDEST SWAP1 SSTORE JUMP JUMPDEST SWAP1 PUSH1 0x1 PUSH1 0x1 PUSH1 0xA0 SHL SUB SWAP1 PUSH2 0x1AD JUMP JUMPDEST PUSH2 0x10D SWAP1 PUSH2 0x202 SWAP1 PUSH1 0x1 PUSH1 0x1 PUSH1 0xA0 SHL SUB AND DUP3 JUMP JUMPDEST PUSH1 0x1 PUSH1 0x1 PUSH1 0xA0 SHL SUB AND SWAP1 JUMP JUMPDEST PUSH2 0x10D SWAP1 PUSH2 0x1EE JUMP JUMPDEST PUSH2 0x10D SWAP1 PUSH2 0x20E JUMP JUMPDEST SWAP1 PUSH2 0x230 PUSH2 0x10D PUSH2 0x1DB SWAP3 PUSH2 0x217 JUMP JUMPDEST DUP3 SLOAD PUSH2 0x1DF JUMP JUMPDEST PUSH2 0x24D PUSH2 0x262 SWAP7 PUSH2 0x254 SWAP4 SWAP5 SWAP7 PUSH2 0x25B SWAP7 PUSH2 0x26D JUMP JUMPDEST PUSH1 0xB PUSH2 0x1C4 JUMP JUMPDEST PUSH1 0xC PUSH2 0x1C4 JUMP JUMPDEST PUSH1 0xD PUSH2 0x1C4 JUMP JUMPDEST PUSH2 0x83 CALLER PUSH1 0xE PUSH2 0x220 JUMP JUMPDEST SWAP1 PUSH2 0x83 SWAP3 SWAP2 PUSH2 0x2AB JUMP JUMPDEST PUSH2 0x202 PUSH2 0x10D PUSH2 0x10D SWAP3 SWAP1 JUMP JUMPDEST PUSH2 0x10D SWAP1 PUSH2 0x278 JUMP JUMPDEST PUSH2 0x297 SWAP1 PUSH2 0x202 JUMP JUMPDEST SWAP1 MSTORE JUMP JUMPDEST PUSH1 0x20 DUP2 ADD SWAP3 SWAP2 PUSH2 0x83 SWAP2 SWAP1 PUSH2 0x28E JUMP JUMPDEST SWAP2 PUSH2 0x2B5 SWAP2 PUSH2 0x2FF JUMP JUMPDEST PUSH1 0x0 PUSH2 0x2C0 DUP2 PUSH2 0x285 JUMP JUMPDEST PUSH2 0x2C9 DUP2 PUSH2 0x202 JUMP JUMPDEST PUSH2 0x2D2 DUP5 PUSH2 0x202 JUMP JUMPDEST EQ PUSH2 0x2E2 JUMPI POP POP PUSH2 0x83 SWAP1 PUSH2 0x4F8 JUMP JUMPDEST PUSH4 0x1E4FBDF7 PUSH1 0xE0 SHL DUP3 MSTORE DUP2 SWAP1 PUSH2 0x2FB SWAP1 PUSH1 0x4 DUP4 ADD PUSH2 0x29B JUMP JUMPDEST SUB SWAP1 REVERT JUMPDEST PUSH2 0x83 SWAP2 DUP3 SWAP2 DUP3 SWAP2 DUP3 SWAP2 PUSH2 0x4CF JUMP JUMPDEST PUSH4 0x4E487B71 PUSH1 0xE0 SHL PUSH1 0x0 MSTORE PUSH1 0x22 PUSH1 0x4 MSTORE PUSH1 0x24 PUSH1 0x0 REVERT JUMPDEST SWAP1 PUSH1 0x1 PUSH1 0x2 DUP4 DIV SWAP3 AND DUP1 ISZERO PUSH2 0x344 JUMPI JUMPDEST PUSH1 0x20 DUP4 LT EQ PUSH2 0x33F JUMPI JUMP JUMPDEST PUSH2 0x30E JUMP JUMPDEST SWAP2 PUSH1 0x7F AND SWAP2 PUSH2 0x334 JUMP JUMPDEST SWAP2 PUSH1 0x0 NOT PUSH1 0x8 SWAP3 SWAP1 SWAP3 MUL SWAP2 DUP3 SHL SWAP2 SHL PUSH2 0x1AD JUMP JUMPDEST SWAP2 SWAP1 PUSH2 0x373 PUSH2 0x10D PUSH2 0x1DB SWAP4 PUSH2 0x1B7 JUMP JUMPDEST SWAP1 DUP4 SLOAD PUSH2 0x34E JUMP JUMPDEST PUSH2 0x83 SWAP2 PUSH1 0x0 SWAP2 PUSH2 0x362 JUMP JUMPDEST DUP2 DUP2 LT PUSH2 0x392 JUMPI POP POP JUMP JUMPDEST DUP1 PUSH2 0x3A0 PUSH1 0x0 PUSH1 0x1 SWAP4 PUSH2 0x37B JUMP JUMPDEST ADD PUSH2 0x387 JUMP JUMPDEST SWAP2 SWAP1 PUSH1 0x1F DUP2 GT PUSH2 0x3B5 JUMPI POP POP POP JUMP JUMPDEST PUSH2 0x3C7 PUSH2 0x83 SWAP4 PUSH1 0x0 MSTORE PUSH1 0x20 PUSH1 0x0 KECCAK256 SWAP1 JUMP JUMPDEST SWAP1 PUSH1 0x20 PUSH1 0x1F DUP5 ADD DUP2 SWAP1 DIV DUP4 ADD SWAP4 LT PUSH2 0x3E9 JUMPI JUMPDEST PUSH1 0x20 PUSH1 0x1F SWAP1 SWAP2 ADD DIV ADD SWAP1 PUSH2 0x387 JUMP JUMPDEST SWAP1 SWAP2 POP DUP2 SWAP1 PUSH2 0x3DA JUMP JUMPDEST SWAP1 PUSH2 0x3FC DUP2 MLOAD SWAP1 JUMP JUMPDEST SWAP1 PUSH1 0x1 PUSH1 0x1 PUSH1 0x40 SHL SUB DUP3 GT PUSH2 0x6A JUMPI PUSH2 0x41F DUP3 PUSH2 0x419 DUP6 SLOAD PUSH2 0x324 JUMP JUMPDEST DUP6 PUSH2 0x3A6 JUMP JUMPDEST PUSH1 0x20 SWAP1 PUSH1 0x1F DUP4 GT PUSH1 0x1 EQ PUSH2 0x45A JUMPI PUSH2 0x1DB SWAP3 SWAP2 PUSH1 0x0 SWAP2 DUP4 PUSH2 0x44F JUMPI JUMPDEST POP POP PUSH1 0x0 NOT PUSH1 0x8 DUP4 MUL SHR NOT AND SWAP1 PUSH1 0x2 MUL OR SWAP1 JUMP JUMPDEST ADD MLOAD SWAP1 POP CODESIZE DUP1 PUSH2 0x43B JUMP JUMPDEST PUSH1 0x1F NOT DUP4 AND SWAP2 PUSH2 0x46F DUP6 PUSH1 0x0 MSTORE PUSH1 0x20 PUSH1 0x0 KECCAK256 SWAP1 JUMP JUMPDEST SWAP3 PUSH1 0x0 JUMPDEST DUP2 DUP2 LT PUSH2 0x4AD JUMPI POP SWAP2 PUSH1 0x2 SWAP4 SWAP2 DUP6 PUSH1 0x1 SWAP7 SWAP5 LT PUSH2 0x494 JUMPI JUMPDEST POP POP POP MUL ADD SWAP1 SSTORE JUMP JUMPDEST ADD MLOAD PUSH1 0x0 NOT PUSH1 0x8 PUSH1 0x1F DUP6 AND MUL SHR NOT AND SWAP1 SSTORE CODESIZE DUP1 DUP1 PUSH2 0x48B JUMP JUMPDEST SWAP2 SWAP4 PUSH1 0x20 PUSH1 0x1 DUP2 SWAP3 DUP8 DUP8 ADD MLOAD DUP2 SSTORE ADD SWAP6 ADD SWAP3 ADD PUSH2 0x473 JUMP JUMPDEST SWAP1 PUSH2 0x83 SWAP2 PUSH2 0x3F3 JUMP JUMPDEST SWAP1 PUSH2 0x4DE PUSH2 0x83 SWAP3 PUSH1 0x0 PUSH2 0x4C5 JUMP JUMPDEST PUSH1 0x1 PUSH2 0x4C5 JUMP JUMPDEST PUSH2 0x10D SWAP1 PUSH2 0x202 JUMP JUMPDEST PUSH2 0x10D SWAP1 SLOAD PUSH2 0x4E5 JUMP JUMPDEST PUSH2 0x51E PUSH2 0x518 PUSH2 0x508 PUSH1 0xA PUSH2 0x4EE JUMP JUMPDEST PUSH2 0x513 DUP5 PUSH1 0xA PUSH2 0x220 JUMP JUMPDEST PUSH2 0x217 JUMP JUMPDEST SWAP2 PUSH2 0x217 JUMP JUMPDEST SWAP1 PUSH32 0x8BE0079C531659141344CD1FD0A4F28419497F9722A3DAAFE3B4186F6B6457E0 PUSH2 0x549 PUSH1 0x40 MLOAD SWAP1 JUMP JUMPDEST PUSH1 0x0 SWAP1 LOG3 JUMP INVALID PUSH1 0x80 PUSH1 0x40 MSTORE PUSH1 0x4 CALLDATASIZE LT ISZERO PUSH2 0x12 JUMPI PUSH1 0x0 DUP1 REVERT JUMPDEST PUSH1 0x0 CALLDATALOAD PUSH1 0xE0 SHR DUP1 PUSH4 0x18A25E8 EQ PUSH2 0x2E2 JUMPI DUP1 PUSH4 0x1FFC9A7 EQ PUSH2 0x2DD JUMPI DUP1 PUSH4 0x2D05D3F EQ PUSH2 0x2D8 JUMPI DUP1 PUSH4 0x583E9F8 EQ PUSH2 0x2D3 JUMPI DUP1 PUSH4 0x6FDDE03 EQ PUSH2 0x2CE JUMPI DUP1 PUSH4 0x81812FC EQ PUSH2 0x2C9 JUMPI DUP1 PUSH4 0x95EA7B3 EQ PUSH2 0x2C4 JUMPI DUP1 PUSH4 0x1249C58B EQ PUSH2 0x2BF JUMPI DUP1 PUSH4 0x12EA5C7E EQ PUSH2 0x2BA JUMPI DUP1 PUSH4 0x150B7A02 EQ PUSH2 0x2B5 JUMPI DUP1 PUSH4 0x18160DDD EQ PUSH2 0x2B0 JUMPI DUP1 PUSH4 0x1D0806AE EQ PUSH2 0x2AB JUMPI DUP1 PUSH4 0x21A1C184 EQ PUSH2 0x2A6 JUMPI DUP1 PUSH4 0x23B872DD EQ PUSH2 0x2A1 JUMPI DUP1 PUSH4 0x2DCD52F2 EQ PUSH2 0x29C JUMPI DUP1 PUSH4 0x2F745C59 EQ PUSH2 0x297 JUMPI DUP1 PUSH4 0x3F516018 EQ PUSH2 0x292 JUMPI DUP1 PUSH4 0x42842E0E EQ PUSH2 0x28D JUMPI DUP1 PUSH4 0x43D32E9C EQ PUSH2 0x288 JUMPI DUP1 PUSH4 0x4A8FE650 EQ PUSH2 0x283 JUMPI DUP1 PUSH4 0x4F6CCCE7 EQ PUSH2 0x27E JUMPI DUP1 PUSH4 0x53613DD3 EQ PUSH2 0x279 JUMPI DUP1 PUSH4 0x55F804B3 EQ PUSH2 0x274 JUMPI DUP1 PUSH4 0x5EBA096B EQ PUSH2 0x26F JUMPI DUP1 PUSH4 0x6352211E EQ PUSH2 0x26A JUMPI DUP1 PUSH4 0x6C0360EB EQ PUSH2 0x265 JUMPI DUP1 PUSH4 0x70A08231 EQ PUSH2 0x260 JUMPI DUP1 PUSH4 0x715018A6 EQ PUSH2 0x25B JUMPI DUP1 PUSH4 0x7284E416 EQ PUSH2 0x256 JUMPI DUP1 PUSH4 0x771282F6 EQ PUSH2 0x251 JUMPI DUP1 PUSH4 0x8DA5CB5B EQ PUSH2 0x24C JUMPI DUP1 PUSH4 0x90C3F38F EQ PUSH2 0x247 JUMPI DUP1 PUSH4 0x95D89B41 EQ PUSH2 0x242 JUMPI DUP1 PUSH4 0xA22CB465 EQ PUSH2 0x23D JUMPI DUP1 PUSH4 0xAD64D068 EQ PUSH2 0x238 JUMPI DUP1 PUSH4 0xAE104265 EQ PUSH2 0x233 JUMPI DUP1 PUSH4 0xB88D4FDE EQ PUSH2 0x22E JUMPI DUP1 PUSH4 0xC87B56DD EQ PUSH2 0x229 JUMPI DUP1 PUSH4 0xCF6A68BF EQ PUSH2 0x224 JUMPI DUP1 PUSH4 0xD5ABEB01 EQ PUSH2 0x21F JUMPI DUP1 PUSH4 0xD96A094A EQ PUSH2 0x21A JUMPI DUP1 PUSH4 0xE4849B32 EQ PUSH2 0x215 JUMPI DUP1 PUSH4 0xE985E9C5 EQ PUSH2 0x210 JUMPI DUP1 PUSH4 0xF0F2805F EQ PUSH2 0x20B JUMPI PUSH4 0xF2FDE38B SUB PUSH2 0x2F2 JUMPI PUSH2 0xD9E JUMP JUMPDEST PUSH2 0xD83 JUMP JUMPDEST PUSH2 0xD67 JUMP JUMPDEST PUSH2 0xD2C JUMP JUMPDEST PUSH2 0xD19 JUMP JUMPDEST PUSH2 0xCFE JUMP JUMPDEST PUSH2 0xCD7 JUMP JUMPDEST PUSH2 0xCBC JUMP JUMPDEST PUSH2 0xCA0 JUMP JUMPDEST PUSH2 0xC85 JUMP JUMPDEST PUSH2 0xC6A JUMP JUMPDEST PUSH2 0xBF5 JUMP JUMPDEST PUSH2 0xBA2 JUMP JUMPDEST PUSH2 0xB8A JUMP JUMPDEST PUSH2 0xB6F JUMP JUMPDEST PUSH2 0xB54 JUMP JUMPDEST PUSH2 0xB2D JUMP JUMPDEST PUSH2 0xB09 JUMP JUMPDEST PUSH2 0xAEE JUMP JUMPDEST PUSH2 0xAD3 JUMP JUMPDEST PUSH2 0x991 JUMP JUMPDEST PUSH2 0x975 JUMP JUMPDEST PUSH2 0x941 JUMP JUMPDEST PUSH2 0x900 JUMP JUMPDEST PUSH2 0x8D9 JUMP JUMPDEST PUSH2 0x8BE JUMP JUMPDEST PUSH2 0x8A3 JUMP JUMPDEST PUSH2 0x88A JUMP JUMPDEST PUSH2 0x872 JUMP JUMPDEST PUSH2 0x842 JUMP JUMPDEST PUSH2 0x826 JUMP JUMPDEST PUSH2 0x80D JUMP JUMPDEST PUSH2 0x7C9 JUMP JUMPDEST PUSH2 0x7AE JUMP JUMPDEST PUSH2 0x786 JUMP JUMPDEST PUSH2 0x74C JUMP JUMPDEST PUSH2 0x611 JUMP JUMPDEST PUSH2 0x594 JUMP JUMPDEST PUSH2 0x576 JUMP JUMPDEST PUSH2 0x522 JUMP JUMPDEST PUSH2 0x4FB JUMP JUMPDEST PUSH2 0x474 JUMP JUMPDEST PUSH2 0x3D6 JUMP JUMPDEST PUSH2 0x363 JUMP JUMPDEST PUSH2 0x2FD JUMP JUMPDEST PUSH1 0x0 SWAP2 SUB SLT PUSH2 0x2F2 JUMPI JUMP JUMPDEST PUSH1 0x0 DUP1 REVERT JUMPDEST SWAP1 MSTORE JUMP JUMPDEST JUMP JUMPDEST CALLVALUE PUSH2 0x2F2 JUMPI PUSH2 0x30D CALLDATASIZE PUSH1 0x4 PUSH2 0x2E7 JUMP JUMPDEST PUSH2 0x328 PUSH2 0x318 PUSH2 0xDC7 JUMP JUMPDEST PUSH1 0x40 MLOAD SWAP2 DUP3 SWAP2 DUP3 SWAP1 DUP2 MSTORE PUSH1 0x20 ADD SWAP1 JUMP JUMPDEST SUB SWAP1 RETURN JUMPDEST PUSH1 0x1 PUSH1 0x1 PUSH1 0xE0 SHL SUB NOT DUP2 AND JUMPDEST SUB PUSH2 0x2F2 JUMPI JUMP JUMPDEST SWAP1 POP CALLDATALOAD SWAP1 PUSH2 0x2FB DUP3 PUSH2 0x32C JUMP JUMPDEST SWAP1 PUSH1 0x20 DUP3 DUP3 SUB SLT PUSH2 0x2F2 JUMPI PUSH2 0x360 SWAP2 PUSH2 0x33F JUMP JUMPDEST SWAP1 JUMP JUMPDEST CALLVALUE PUSH2 0x2F2 JUMPI PUSH2 0x328 PUSH2 0x37E PUSH2 0x379 CALLDATASIZE PUSH1 0x4 PUSH2 0x34C JUMP JUMPDEST PUSH2 0xDD4 JUMP JUMPDEST PUSH1 0x40 MLOAD JUMPDEST SWAP2 DUP3 SWAP2 DUP3 SWAP1 ISZERO ISZERO DUP2 MSTORE PUSH1 0x20 ADD SWAP1 JUMP JUMPDEST PUSH2 0x360 SWAP2 PUSH1 0x8 MUL SHR JUMPDEST PUSH1 0x1 PUSH1 0x1 PUSH1 0xA0 SHL SUB AND SWAP1 JUMP JUMPDEST SWAP1 PUSH2 0x360 SWAP2 SLOAD PUSH2 0x391 JUMP JUMPDEST PUSH2 0x360 PUSH1 0x0 PUSH1 0xE PUSH2 0x3A6 JUMP JUMPDEST PUSH2 0x2F7 SWAP1 PUSH2 0x39A JUMP JUMPDEST PUSH1 0x20 DUP2 ADD SWAP3 SWAP2 PUSH2 0x2FB SWAP2 SWAP1 PUSH2 0x3BD JUMP JUMPDEST CALLVALUE PUSH2 0x2F2 JUMPI PUSH2 0x3E6 CALLDATASIZE PUSH1 0x4 PUSH2 0x2E7 JUMP JUMPDEST PUSH2 0x328 PUSH2 0x3F1 PUSH2 0x3B1 JUMP JUMPDEST PUSH1 0x40 MLOAD SWAP2 DUP3 SWAP2 DUP3 PUSH2 0x3C6 JUMP JUMPDEST DUP1 PUSH2 0x338 JUMP JUMPDEST SWAP1 POP CALLDATALOAD SWAP1 PUSH2 0x2FB DUP3 PUSH2 0x3FD JUMP JUMPDEST SWAP1 PUSH1 0x20 DUP3 DUP3 SUB SLT PUSH2 0x2F2 JUMPI PUSH2 0x360 SWAP2 PUSH2 0x403 JUMP JUMPDEST PUSH2 0x360 PUSH2 0x360 PUSH2 0x360 SWAP3 SWAP1 JUMP JUMPDEST SWAP1 PUSH2 0x43B SWAP1 PUSH2 0x424 JUMP JUMPDEST PUSH1 0x0 MSTORE PUSH1 0x20 MSTORE PUSH1 0x40 PUSH1 0x0 KECCAK256 SWAP1 JUMP JUMPDEST PUSH2 0x360 SWAP2 PUSH1 0x8 MUL SHR DUP2 JUMP JUMPDEST SWAP1 PUSH2 0x360 SWAP2 SLOAD PUSH2 0x449 JUMP JUMPDEST PUSH1 0x0 PUSH2 0x46F PUSH2 0x360 SWAP3 PUSH1 0x11 PUSH2 0x431 JUMP JUMPDEST PUSH2 0x454 JUMP JUMPDEST CALLVALUE PUSH2 0x2F2 JUMPI PUSH2 0x328 PUSH2 0x318 PUSH2 0x48A CALLDATASIZE PUSH1 0x4 PUSH2 0x410 JUMP JUMPDEST PUSH2 0x45F JUMP JUMPDEST PUSH1 0x0 JUMPDEST DUP4 DUP2 LT PUSH2 0x4A2 JUMPI POP POP PUSH1 0x0 SWAP2 ADD MSTORE JUMP JUMPDEST DUP2 DUP2 ADD MLOAD DUP4 DUP3 ADD MSTORE PUSH1 0x20 ADD PUSH2 0x492 JUMP JUMPDEST PUSH2 0x4D3 PUSH2 0x4DC PUSH1 0x20 SWAP4 PUSH2 0x4E6 SWAP4 PUSH2 0x4C7 DUP2 MLOAD SWAP1 JUMP JUMPDEST DUP1 DUP4 MSTORE SWAP4 DUP5 SWAP3 PUSH1 0x20 ADD SWAP1 JUMP JUMPDEST SWAP6 DUP7 SWAP2 ADD PUSH2 0x48F JUMP JUMPDEST PUSH1 0x1F ADD PUSH1 0x1F NOT AND SWAP1 JUMP JUMPDEST ADD SWAP1 JUMP JUMPDEST PUSH1 0x20 DUP1 DUP3 MSTORE PUSH2 0x360 SWAP3 SWAP2 ADD SWAP1 PUSH2 0x4B2 JUMP JUMPDEST CALLVALUE PUSH2 0x2F2 JUMPI PUSH2 0x50B CALLDATASIZE PUSH1 0x4 PUSH2 0x2E7 JUMP JUMPDEST PUSH2 0x328 PUSH2 0x516 PUSH2 0xE11 JUMP JUMPDEST PUSH1 0x40 MLOAD SWAP2 DUP3 SWAP2 DUP3 PUSH2 0x4EA JUMP JUMPDEST CALLVALUE PUSH2 0x2F2 JUMPI PUSH2 0x328 PUSH2 0x3F1 PUSH2 0x538 CALLDATASIZE PUSH1 0x4 PUSH2 0x410 JUMP JUMPDEST PUSH2 0xE1B JUMP JUMPDEST PUSH2 0x338 DUP2 PUSH2 0x39A JUMP JUMPDEST SWAP1 POP CALLDATALOAD SWAP1 PUSH2 0x2FB DUP3 PUSH2 0x53D JUMP JUMPDEST SWAP2 SWAP1 PUSH1 0x40 DUP4 DUP3 SUB SLT PUSH2 0x2F2 JUMPI PUSH2 0x360 SWAP1 PUSH1 0x20 PUSH2 0x56F DUP3 DUP7 PUSH2 0x546 JUMP JUMPDEST SWAP5 ADD PUSH2 0x403 JUMP JUMPDEST CALLVALUE PUSH2 0x2F2 JUMPI PUSH2 0x58F PUSH2 0x589 CALLDATASIZE PUSH1 0x4 PUSH2 0x553 JUMP JUMPDEST SWAP1 PUSH2 0xE2E JUMP JUMPDEST PUSH1 0x40 MLOAD STOP JUMPDEST PUSH2 0x59F CALLDATASIZE PUSH1 0x4 PUSH2 0x2E7 JUMP JUMPDEST PUSH2 0x328 PUSH2 0x318 PUSH2 0x1026 JUMP JUMPDEST SWAP1 PUSH2 0x5CA PUSH2 0x5C3 PUSH2 0x5B9 DUP5 MLOAD SWAP1 JUMP JUMPDEST DUP1 DUP5 MSTORE SWAP3 PUSH1 0x20 ADD SWAP1 JUMP JUMPDEST SWAP3 PUSH1 0x20 ADD SWAP1 JUMP JUMPDEST SWAP1 PUSH1 0x0 JUMPDEST DUP2 DUP2 LT PUSH2 0x5DB JUMPI POP POP POP SWAP1 JUMP JUMPDEST SWAP1 SWAP2 SWAP3 PUSH2 0x5F8 PUSH2 0x5F1 PUSH1 0x1 SWAP3 DUP7 MLOAD DUP2 MSTORE PUSH1 0x20 ADD SWAP1 JUMP JUMPDEST SWAP5 PUSH1 0x20 ADD SWAP1 JUMP JUMPDEST SWAP3 SWAP2 ADD PUSH2 0x5CE JUMP JUMPDEST PUSH1 0x20 DUP1 DUP3 MSTORE PUSH2 0x360 SWAP3 SWAP2 ADD SWAP1 PUSH2 0x5AA JUMP JUMPDEST CALLVALUE PUSH2 0x2F2 JUMPI PUSH2 0x621 CALLDATASIZE PUSH1 0x4 PUSH2 0x2E7 JUMP JUMPDEST PUSH2 0x328 PUSH2 0x62C PUSH2 0x11E1 JUMP JUMPDEST PUSH1 0x40 MLOAD SWAP2 DUP3 SWAP2 DUP3 PUSH2 0x600 JUMP JUMPDEST PUSH4 0x4E487B71 PUSH1 0xE0 SHL PUSH1 0x0 MSTORE PUSH1 0x41 PUSH1 0x4 MSTORE PUSH1 0x24 PUSH1 0x0 REVERT JUMPDEST SWAP1 PUSH1 0x1F ADD PUSH1 0x1F NOT AND DUP2 ADD SWAP1 DUP2 LT PUSH8 0xFFFFFFFFFFFFFFFF DUP3 GT OR PUSH2 0x670 JUMPI PUSH1 0x40 MSTORE JUMP JUMPDEST PUSH2 0x638 JUMP JUMPDEST SWAP1 PUSH2 0x2FB PUSH2 0x682 PUSH1 0x40 MLOAD SWAP1 JUMP JUMPDEST SWAP3 DUP4 PUSH2 0x64E JUMP JUMPDEST PUSH8 0xFFFFFFFFFFFFFFFF DUP2 GT PUSH2 0x670 JUMPI PUSH1 0x20 SWAP1 PUSH1 0x1F ADD PUSH1 0x1F NOT AND ADD SWAP1 JUMP JUMPDEST SWAP1 DUP3 PUSH1 0x0 SWAP4 SWAP3 DUP3 CALLDATACOPY ADD MSTORE JUMP JUMPDEST SWAP1 SWAP3 SWAP2 SWAP3 PUSH2 0x6C7 PUSH2 0x6C2 DUP3 PUSH2 0x689 JUMP JUMPDEST PUSH2 0x675 JUMP JUMPDEST SWAP4 DUP2 DUP6 MSTORE DUP2 DUP4 ADD GT PUSH2 0x2F2 JUMPI PUSH2 0x2FB SWAP2 PUSH1 0x20 DUP6 ADD SWAP1 PUSH2 0x6A6 JUMP JUMPDEST SWAP1 DUP1 PUSH1 0x1F DUP4 ADD SLT ISZERO PUSH2 0x2F2 JUMPI DUP2 PUSH1 0x20 PUSH2 0x360 SWAP4 CALLDATALOAD SWAP2 ADD PUSH2 0x6B2 JUMP JUMPDEST SWAP1 PUSH1 0x80 DUP3 DUP3 SUB SLT PUSH2 0x2F2 JUMPI PUSH2 0x711 DUP2 DUP4 PUSH2 0x546 JUMP JUMPDEST SWAP3 PUSH2 0x71F DUP3 PUSH1 0x20 DUP6 ADD PUSH2 0x546 JUMP JUMPDEST SWAP3 PUSH2 0x72D DUP4 PUSH1 0x40 DUP4 ADD PUSH2 0x403 JUMP JUMPDEST SWAP3 PUSH1 0x60 DUP3 ADD CALLDATALOAD PUSH8 0xFFFFFFFFFFFFFFFF DUP2 GT PUSH2 0x2F2 JUMPI PUSH2 0x360 SWAP3 ADD PUSH2 0x6E1 JUMP JUMPDEST CALLVALUE PUSH2 0x2F2 JUMPI PUSH2 0x328 PUSH2 0x76B PUSH2 0x762 CALLDATASIZE PUSH1 0x4 PUSH2 0x6FC JUMP JUMPDEST SWAP3 SWAP2 SWAP1 SWAP2 PUSH2 0x1211 JUMP JUMPDEST PUSH1 0x40 MLOAD SWAP2 DUP3 SWAP2 DUP3 PUSH1 0x1 PUSH1 0x1 PUSH1 0xE0 SHL SUB NOT SWAP1 SWAP2 AND DUP2 MSTORE PUSH1 0x20 ADD SWAP1 JUMP JUMPDEST CALLVALUE PUSH2 0x2F2 JUMPI PUSH2 0x796 CALLDATASIZE PUSH1 0x4 PUSH2 0x2E7 JUMP JUMPDEST PUSH2 0x328 PUSH2 0x318 PUSH1 0x8 SLOAD SWAP1 JUMP JUMPDEST PUSH2 0x360 PUSH1 0x0 PUSH1 0xB PUSH2 0x454 JUMP JUMPDEST CALLVALUE PUSH2 0x2F2 JUMPI PUSH2 0x7BE CALLDATASIZE PUSH1 0x4 PUSH2 0x2E7 JUMP JUMPDEST PUSH2 0x328 PUSH2 0x318 PUSH2 0x7A2 JUMP JUMPDEST CALLVALUE PUSH2 0x2F2 JUMPI PUSH2 0x7D9 CALLDATASIZE PUSH1 0x4 PUSH2 0x2E7 JUMP JUMPDEST PUSH2 0x328 PUSH2 0x318 PUSH2 0x1238 JUMP JUMPDEST SWAP1 SWAP2 PUSH1 0x60 DUP3 DUP5 SUB SLT PUSH2 0x2F2 JUMPI PUSH2 0x360 PUSH2 0x7FD DUP5 DUP5 PUSH2 0x546 JUMP JUMPDEST SWAP4 PUSH1 0x40 PUSH2 0x56F DUP3 PUSH1 0x20 DUP8 ADD PUSH2 0x546 JUMP JUMPDEST CALLVALUE PUSH2 0x2F2 JUMPI PUSH2 0x58F PUSH2 0x820 CALLDATASIZE PUSH1 0x4 PUSH2 0x7E4 JUMP JUMPDEST SWAP2 PUSH2 0x12A3 JUMP JUMPDEST CALLVALUE PUSH2 0x2F2 JUMPI PUSH2 0x836 CALLDATASIZE PUSH1 0x4 PUSH2 0x2E7 JUMP JUMPDEST PUSH2 0x328 PUSH2 0x318 PUSH1 0x10 SLOAD SWAP1 JUMP JUMPDEST CALLVALUE PUSH2 0x2F2 JUMPI PUSH2 0x328 PUSH2 0x318 PUSH2 0x858 CALLDATASIZE PUSH1 0x4 PUSH2 0x553 JUMP JUMPDEST SWAP1 PUSH2 0x134C JUMP JUMPDEST SWAP1 PUSH1 0x20 DUP3 DUP3 SUB SLT PUSH2 0x2F2 JUMPI PUSH2 0x360 SWAP2 PUSH2 0x546 JUMP JUMPDEST CALLVALUE PUSH2 0x2F2 JUMPI PUSH2 0x58F PUSH2 0x885 CALLDATASIZE PUSH1 0x4 PUSH2 0x85E JUMP JUMPDEST PUSH2 0x144F JUMP JUMPDEST CALLVALUE PUSH2 0x2F2 JUMPI PUSH2 0x58F PUSH2 0x89D CALLDATASIZE PUSH1 0x4 PUSH2 0x7E4 JUMP JUMPDEST SWAP2 PUSH2 0x146A JUMP JUMPDEST CALLVALUE PUSH2 0x2F2 JUMPI PUSH2 0x8B3 CALLDATASIZE PUSH1 0x4 PUSH2 0x2E7 JUMP JUMPDEST PUSH2 0x328 PUSH2 0x318 PUSH2 0x147E JUMP JUMPDEST CALLVALUE PUSH2 0x2F2 JUMPI PUSH2 0x8CE CALLDATASIZE PUSH1 0x4 PUSH2 0x2E7 JUMP JUMPDEST PUSH2 0x328 PUSH2 0x318 PUSH2 0x14C2 JUMP JUMPDEST CALLVALUE PUSH2 0x2F2 JUMPI PUSH2 0x328 PUSH2 0x318 PUSH2 0x8EF CALLDATASIZE PUSH1 0x4 PUSH2 0x410 JUMP JUMPDEST PUSH2 0x14DD JUMP JUMPDEST PUSH2 0x360 PUSH1 0x0 PUSH1 0xD PUSH2 0x454 JUMP JUMPDEST CALLVALUE PUSH2 0x2F2 JUMPI PUSH2 0x910 CALLDATASIZE PUSH1 0x4 PUSH2 0x2E7 JUMP JUMPDEST PUSH2 0x328 PUSH2 0x318 PUSH2 0x8F4 JUMP JUMPDEST SWAP1 PUSH1 0x20 DUP3 DUP3 SUB SLT PUSH2 0x2F2 JUMPI DUP2 CALLDATALOAD PUSH8 0xFFFFFFFFFFFFFFFF DUP2 GT PUSH2 0x2F2 JUMPI PUSH2 0x360 SWAP3 ADD PUSH2 0x6E1 JUMP JUMPDEST CALLVALUE PUSH2 0x2F2 JUMPI PUSH2 0x58F PUSH2 0x954 CALLDATASIZE PUSH1 0x4 PUSH2 0x91B JUMP JUMPDEST PUSH2 0x16C9 JUMP JUMPDEST SWAP2 SWAP1 PUSH1 0x40 DUP4 DUP3 SUB SLT PUSH2 0x2F2 JUMPI PUSH2 0x360 SWAP1 PUSH1 0x20 PUSH2 0x56F DUP3 DUP7 PUSH2 0x403 JUMP JUMPDEST CALLVALUE PUSH2 0x2F2 JUMPI PUSH2 0x328 PUSH2 0x62C PUSH2 0x98B CALLDATASIZE PUSH1 0x4 PUSH2 0x959 JUMP JUMPDEST SWAP1 PUSH2 0x1785 JUMP JUMPDEST CALLVALUE PUSH2 0x2F2 JUMPI PUSH2 0x328 PUSH2 0x3F1 PUSH2 0x9A7 CALLDATASIZE PUSH1 0x4 PUSH2 0x410 JUMP JUMPDEST PUSH2 0x1814 JUMP JUMPDEST PUSH4 0x4E487B71 PUSH1 0xE0 SHL PUSH1 0x0 MSTORE PUSH1 0x0 PUSH1 0x4 MSTORE PUSH1 0x24 PUSH1 0x0 REVERT JUMPDEST PUSH4 0x4E487B71 PUSH1 0xE0 SHL PUSH1 0x0 MSTORE PUSH1 0x22 PUSH1 0x4 MSTORE PUSH1 0x24 PUSH1 0x0 REVERT JUMPDEST SWAP1 PUSH1 0x1 PUSH1 0x2 DUP4 DIV SWAP3 AND DUP1 ISZERO PUSH2 0x9F8 JUMPI JUMPDEST PUSH1 0x20 DUP4 LT EQ PUSH2 0x9F3 JUMPI JUMP JUMPDEST PUSH2 0x9C2 JUMP JUMPDEST SWAP2 PUSH1 0x7F AND SWAP2 PUSH2 0x9E8 JUMP JUMPDEST DUP1 SLOAD PUSH1 0x0 SWAP4 SWAP3 SWAP2 PUSH2 0xA1F PUSH2 0xA15 DUP4 PUSH2 0x9D8 JUMP JUMPDEST DUP1 DUP6 MSTORE SWAP4 PUSH1 0x20 ADD SWAP1 JUMP JUMPDEST SWAP2 PUSH1 0x1 DUP2 AND SWAP1 DUP2 ISZERO PUSH2 0xA71 JUMPI POP PUSH1 0x1 EQ PUSH2 0xA38 JUMPI POP POP POP JUMP JUMPDEST PUSH2 0xA4B SWAP2 SWAP3 SWAP4 SWAP5 POP PUSH1 0x0 MSTORE PUSH1 0x20 PUSH1 0x0 KECCAK256 SWAP1 JUMP JUMPDEST SWAP2 PUSH1 0x0 SWAP3 JUMPDEST DUP2 DUP5 LT PUSH2 0xA5D JUMPI POP POP ADD SWAP1 JUMP JUMPDEST DUP1 SLOAD DUP5 DUP5 ADD MSTORE PUSH1 0x20 SWAP1 SWAP4 ADD SWAP3 PUSH1 0x1 ADD PUSH2 0xA50 JUMP JUMPDEST SWAP3 SWAP5 SWAP6 POP POP POP PUSH1 0xFF NOT AND DUP3 MSTORE ISZERO ISZERO PUSH1 0x20 MUL ADD SWAP1 JUMP JUMPDEST SWAP1 PUSH2 0x360 SWAP2 PUSH2 0xA02 JUMP JUMPDEST SWAP1 PUSH2 0x2FB PUSH2 0xAAA SWAP3 PUSH2 0xAA1 PUSH1 0x40 MLOAD SWAP1 JUMP JUMPDEST SWAP4 DUP5 DUP1 SWAP3 PUSH2 0xA86 JUMP JUMPDEST SUB DUP4 PUSH2 0x64E JUMP JUMPDEST SWAP1 PUSH1 0x0 LT PUSH2 0xAC2 JUMPI PUSH2 0x360 SWAP1 PUSH2 0xA90 JUMP JUMPDEST PUSH2 0x9AC JUMP JUMPDEST PUSH2 0x360 PUSH1 0x0 PUSH1 0x12 PUSH2 0xAB1 JUMP JUMPDEST CALLVALUE PUSH2 0x2F2 JUMPI PUSH2 0xAE3 CALLDATASIZE PUSH1 0x4 PUSH2 0x2E7 JUMP JUMPDEST PUSH2 0x328 PUSH2 0x516 PUSH2 0xAC7 JUMP JUMPDEST CALLVALUE PUSH2 0x2F2 JUMPI PUSH2 0x328 PUSH2 0x318 PUSH2 0xB04 CALLDATASIZE PUSH1 0x4 PUSH2 0x85E JUMP JUMPDEST PUSH2 0x181D JUMP JUMPDEST CALLVALUE PUSH2 0x2F2 JUMPI PUSH2 0xB19 CALLDATASIZE PUSH1 0x4 PUSH2 0x2E7 JUMP JUMPDEST PUSH2 0x58F PUSH2 0x1885 JUMP JUMPDEST PUSH2 0x360 PUSH1 0x0 PUSH1 0x13 PUSH2 0xAB1 JUMP JUMPDEST CALLVALUE PUSH2 0x2F2 JUMPI PUSH2 0xB3D CALLDATASIZE PUSH1 0x4 PUSH2 0x2E7 JUMP JUMPDEST PUSH2 0x328 PUSH2 0x516 PUSH2 0xB21 JUMP JUMPDEST PUSH2 0x360 PUSH1 0x0 PUSH1 0xF PUSH2 0x454 JUMP JUMPDEST CALLVALUE PUSH2 0x2F2 JUMPI PUSH2 0xB64 CALLDATASIZE PUSH1 0x4 PUSH2 0x2E7 JUMP JUMPDEST PUSH2 0x328 PUSH2 0x318 PUSH2 0xB48 JUMP JUMPDEST CALLVALUE PUSH2 0x2F2 JUMPI PUSH2 0xB7F CALLDATASIZE PUSH1 0x4 PUSH2 0x2E7 JUMP JUMPDEST PUSH2 0x328 PUSH2 0x3F1 PUSH2 0x188D JUMP JUMPDEST CALLVALUE PUSH2 0x2F2 JUMPI PUSH2 0x58F PUSH2 0xB9D CALLDATASIZE PUSH1 0x4 PUSH2 0x91B JUMP JUMPDEST PUSH2 0x18B6 JUMP JUMPDEST CALLVALUE PUSH2 0x2F2 JUMPI PUSH2 0xBB2 CALLDATASIZE PUSH1 0x4 PUSH2 0x2E7 JUMP JUMPDEST PUSH2 0x328 PUSH2 0x516 PUSH2 0x18BF JUMP JUMPDEST DUP1 ISZERO ISZERO PUSH2 0x338 JUMP JUMPDEST SWAP1 POP CALLDATALOAD SWAP1 PUSH2 0x2FB DUP3 PUSH2 0xBBD JUMP JUMPDEST SWAP2 SWAP1 PUSH1 0x40 DUP4 DUP3 SUB SLT PUSH2 0x2F2 JUMPI PUSH2 0x360 SWAP1 PUSH1 0x20 PUSH2 0xBEE DUP3 DUP7 PUSH2 0x546 JUMP JUMPDEST SWAP5 ADD PUSH2 0xBC5 JUMP JUMPDEST CALLVALUE PUSH2 0x2F2 JUMPI PUSH2 0x58F PUSH2 0xC08 CALLDATASIZE PUSH1 0x4 PUSH2 0xBD2 JUMP JUMPDEST SWAP1 PUSH2 0x18C9 JUMP JUMPDEST PUSH4 0x4E487B71 PUSH1 0xE0 SHL PUSH1 0x0 MSTORE PUSH1 0x32 PUSH1 0x4 MSTORE PUSH1 0x24 PUSH1 0x0 REVERT JUMPDEST DUP1 SLOAD DUP3 LT ISZERO PUSH2 0xC47 JUMPI PUSH2 0xC3E PUSH1 0x1 SWAP2 PUSH1 0x0 MSTORE PUSH1 0x20 PUSH1 0x0 KECCAK256 SWAP1 JUMP JUMPDEST SWAP2 MUL ADD SWAP1 PUSH1 0x0 SWAP1 JUMP JUMPDEST PUSH2 0xC0E JUMP JUMPDEST PUSH1 0x10 SLOAD DUP2 LT ISZERO PUSH2 0x2F2 JUMPI PUSH2 0xC64 PUSH2 0x360 SWAP2 PUSH1 0x10 PUSH2 0xC24 JUMP JUMPDEST SWAP1 PUSH2 0x454 JUMP JUMPDEST CALLVALUE PUSH2 0x2F2 JUMPI PUSH2 0x328 PUSH2 0x318 PUSH2 0xC80 CALLDATASIZE PUSH1 0x4 PUSH2 0x410 JUMP JUMPDEST PUSH2 0xC4C JUMP JUMPDEST CALLVALUE PUSH2 0x2F2 JUMPI PUSH2 0x328 PUSH2 0x318 PUSH2 0xC9B CALLDATASIZE PUSH1 0x4 PUSH2 0x410 JUMP JUMPDEST PUSH2 0x18D4 JUMP JUMPDEST CALLVALUE PUSH2 0x2F2 JUMPI PUSH2 0x58F PUSH2 0xCB3 CALLDATASIZE PUSH1 0x4 PUSH2 0x6FC JUMP JUMPDEST SWAP3 SWAP2 SWAP1 SWAP2 PUSH2 0x1965 JUMP JUMPDEST CALLVALUE PUSH2 0x2F2 JUMPI PUSH2 0x328 PUSH2 0x516 PUSH2 0xCD2 CALLDATASIZE PUSH1 0x4 PUSH2 0x410 JUMP JUMPDEST PUSH2 0x19DD JUMP JUMPDEST CALLVALUE PUSH2 0x2F2 JUMPI PUSH2 0x328 PUSH2 0x318 PUSH2 0xCED CALLDATASIZE PUSH1 0x4 PUSH2 0x410 JUMP JUMPDEST PUSH2 0x1A20 JUMP JUMPDEST PUSH2 0x360 PUSH1 0x0 PUSH1 0xC PUSH2 0x454 JUMP JUMPDEST CALLVALUE PUSH2 0x2F2 JUMPI PUSH2 0xD0E CALLDATASIZE PUSH1 0x4 PUSH2 0x2E7 JUMP JUMPDEST PUSH2 0x328 PUSH2 0x318 PUSH2 0xCF2 JUMP JUMPDEST PUSH2 0x58F PUSH2 0xD27 CALLDATASIZE PUSH1 0x4 PUSH2 0x410 JUMP JUMPDEST PUSH2 0x1B48 JUMP JUMPDEST CALLVALUE PUSH2 0x2F2 JUMPI PUSH2 0x58F PUSH2 0xD3F CALLDATASIZE PUSH1 0x4 PUSH2 0x410 JUMP JUMPDEST PUSH2 0x1D54 JUMP JUMPDEST SWAP2 SWAP1 PUSH1 0x40 DUP4 DUP3 SUB SLT PUSH2 0x2F2 JUMPI PUSH2 0x360 SWAP1 PUSH1 0x20 PUSH2 0xD60 DUP3 DUP7 PUSH2 0x546 JUMP JUMPDEST SWAP5 ADD PUSH2 0x546 JUMP JUMPDEST CALLVALUE PUSH2 0x2F2 JUMPI PUSH2 0x328 PUSH2 0x37E PUSH2 0xD7D CALLDATASIZE PUSH1 0x4 PUSH2 0xD44 JUMP JUMPDEST SWAP1 PUSH2 0x1D72 JUMP JUMPDEST CALLVALUE PUSH2 0x2F2 JUMPI PUSH2 0x328 PUSH2 0x37E PUSH2 0xD99 CALLDATASIZE PUSH1 0x4 PUSH2 0x410 JUMP JUMPDEST PUSH2 0x1D97 JUMP JUMPDEST CALLVALUE PUSH2 0x2F2 JUMPI PUSH2 0x58F PUSH2 0xDB1 CALLDATASIZE PUSH1 0x4 PUSH2 0x85E JUMP JUMPDEST PUSH2 0x1E01 JUMP JUMPDEST PUSH2 0x360 SWAP1 DUP2 JUMP JUMPDEST PUSH2 0x360 SWAP1 SLOAD PUSH2 0xDB6 JUMP JUMPDEST PUSH2 0x360 PUSH2 0xC9B PUSH1 0xF PUSH2 0xDBD JUMP JUMPDEST PUSH2 0xDDD DUP2 PUSH2 0x1E0A JUMP JUMPDEST SWAP1 DUP2 ISZERO PUSH2 0xDE8 JUMPI POP SWAP1 JUMP JUMPDEST SWAP1 POP PUSH2 0xE04 PUSH4 0x2FA757F3 PUSH1 0xE0 SHL JUMPDEST SWAP2 PUSH1 0x1 PUSH1 0x1 PUSH1 0xE0 SHL SUB NOT AND SWAP1 JUMP JUMPDEST EQ SWAP1 JUMP JUMPDEST PUSH2 0x360 SWAP1 PUSH2 0xA90 JUMP JUMPDEST PUSH2 0x360 PUSH1 0x0 PUSH2 0xE08 JUMP JUMPDEST PUSH2 0x360 SWAP1 PUSH2 0xE28 DUP2 PUSH2 0x1E13 JUMP JUMPDEST POP PUSH2 0x1E53 JUMP JUMPDEST PUSH2 0x2FB SWAP2 CALLER SWAP2 PUSH2 0x1E6F JUMP JUMPDEST ISZERO PUSH2 0xE40 JUMPI JUMP JUMPDEST PUSH1 0x40 MLOAD PUSH3 0x461BCD PUSH1 0xE5 SHL DUP2 MSTORE PUSH1 0x20 PUSH1 0x4 DUP3 ADD MSTORE PUSH1 0x12 PUSH1 0x24 DUP3 ADD MSTORE PUSH18 0x13585E081CDD5C1C1B1E481C995858DA1959 PUSH1 0x72 SHL PUSH1 0x44 DUP3 ADD MSTORE DUP1 PUSH1 0x64 DUP2 ADD JUMPDEST SUB SWAP1 REVERT JUMPDEST PUSH4 0x4E487B71 PUSH1 0xE0 SHL PUSH1 0x0 MSTORE PUSH1 0x11 PUSH1 0x4 MSTORE PUSH1 0x24 PUSH1 0x0 REVERT JUMPDEST DUP2 DUP2 MUL SWAP3 SWAP2 DUP2 ISZERO SWAP2 DUP5 DIV EQ OR ISZERO PUSH2 0xEA8 JUMPI JUMP JUMPDEST PUSH2 0xE7F JUMP JUMPDEST PUSH4 0x4E487B71 PUSH1 0xE0 SHL PUSH1 0x0 MSTORE PUSH1 0x12 PUSH1 0x4 MSTORE PUSH1 0x24 PUSH1 0x0 REVERT JUMPDEST SWAP1 PUSH2 0xECD JUMP JUMPDEST SWAP2 SWAP1 JUMP JUMPDEST SWAP1 DUP2 ISZERO PUSH2 0xED8 JUMPI DIV SWAP1 JUMP JUMPDEST PUSH2 0xEAD JUMP JUMPDEST SWAP2 SWAP1 DUP3 ADD DUP1 SWAP3 GT PUSH2 0xEA8 JUMPI JUMP JUMPDEST ISZERO PUSH2 0xEF1 JUMPI JUMP JUMPDEST PUSH1 0x40 MLOAD PUSH3 0x461BCD PUSH1 0xE5 SHL DUP2 MSTORE PUSH1 0x20 PUSH1 0x4 DUP3 ADD MSTORE PUSH1 0x14 PUSH1 0x24 DUP3 ADD MSTORE PUSH20 0x125B9CDD59999A58DA595B9D081C185E5B595B9D PUSH1 0x62 SHL PUSH1 0x44 DUP3 ADD MSTORE PUSH1 0x64 SWAP1 REVERT JUMPDEST PUSH1 0x0 NOT DUP2 EQ PUSH2 0xEA8 JUMPI PUSH1 0x1 ADD SWAP1 JUMP JUMPDEST SWAP1 PUSH1 0x0 NOT SWAP1 JUMPDEST SWAP2 DUP2 NOT AND SWAP2 AND OR SWAP1 JUMP JUMPDEST SWAP1 PUSH2 0xF5C PUSH2 0x360 PUSH2 0xF63 SWAP3 PUSH2 0x424 JUMP JUMPDEST DUP3 SLOAD PUSH2 0xF3C JUMP JUMPDEST SWAP1 SSTORE JUMP JUMPDEST PUSH2 0x360 SWAP1 PUSH2 0x39A SWAP1 PUSH1 0x1 PUSH1 0x1 PUSH1 0xA0 SHL SUB AND DUP3 JUMP JUMPDEST PUSH2 0x360 SWAP1 PUSH2 0xF67 JUMP JUMPDEST PUSH2 0x360 SWAP1 PUSH2 0xF7B JUMP JUMPDEST SWAP1 DUP2 MSTORE PUSH1 0x40 DUP2 ADD SWAP3 SWAP2 PUSH2 0x2FB SWAP2 PUSH1 0x20 ADD MSTORE JUMP JUMPDEST ADD MSTORE JUMP JUMPDEST PUSH2 0x360 SWAP1 PUSH2 0x39A JUMP JUMPDEST PUSH2 0x360 SWAP1 SLOAD PUSH2 0xFA4 JUMP JUMPDEST SWAP1 PUSH2 0xFC4 PUSH2 0x6C2 DUP4 PUSH2 0x689 JUMP JUMPDEST SWAP2 DUP3 MSTORE JUMP JUMPDEST RETURNDATASIZE ISZERO PUSH2 0xFE3 JUMPI PUSH2 0xFD8 RETURNDATASIZE PUSH2 0xFB7 JUMP JUMPDEST SWAP1 RETURNDATASIZE PUSH1 0x0 PUSH1 0x20 DUP5 ADD RETURNDATACOPY JUMP JUMPDEST PUSH1 0x60 SWAP1 JUMP JUMPDEST ISZERO PUSH2 0xFEF JUMPI JUMP JUMPDEST PUSH1 0x40 MLOAD PUSH3 0x461BCD PUSH1 0xE5 SHL DUP2 MSTORE PUSH1 0x20 PUSH1 0x4 DUP3 ADD MSTORE PUSH1 0xF PUSH1 0x24 DUP3 ADD MSTORE PUSH15 0x151C985B9CD9995C8819985A5B1959 PUSH1 0x8A SHL PUSH1 0x44 DUP3 ADD MSTORE PUSH1 0x64 SWAP1 REVERT JUMPDEST PUSH2 0x1048 PUSH2 0x1032 PUSH1 0x8 SLOAD SWAP1 JUMP JUMPDEST PUSH2 0x1042 PUSH2 0xEC9 PUSH2 0x360 PUSH1 0xC PUSH2 0xDBD JUMP JUMPDEST LT PUSH2 0xE39 JUMP JUMPDEST PUSH2 0x1050 PUSH2 0xDC7 JUMP JUMPDEST PUSH2 0x360 PUSH2 0x1157 PUSH2 0x1083 PUSH2 0x106C PUSH2 0x1066 PUSH1 0xD PUSH2 0xDBD JUMP JUMPDEST DUP6 PUSH2 0xE95 JUMP JUMPDEST PUSH2 0x107D PUSH8 0xDE0B6B3A7640000 PUSH2 0x424 JUMP JUMPDEST SWAP1 PUSH2 0xEC3 JUMP JUMPDEST PUSH2 0x109B PUSH2 0x1093 PUSH2 0x360 DUP4 DUP8 PUSH2 0xEDD JUMP JUMPDEST CALLVALUE LT ISZERO PUSH2 0xEEA JUMP JUMPDEST PUSH2 0x10B7 PUSH2 0x10A7 PUSH1 0x8 SLOAD SWAP1 JUMP JUMPDEST PUSH2 0x10B1 PUSH1 0x1 PUSH2 0x424 JUMP JUMPDEST SWAP1 PUSH2 0xEDD JUMP JUMPDEST SWAP4 PUSH2 0x10C2 DUP6 CALLER PUSH2 0x1E7C JUMP JUMPDEST PUSH2 0x10DE PUSH2 0x10D7 PUSH2 0x10D2 PUSH1 0xF PUSH2 0xDBD JUMP JUMPDEST PUSH2 0xF2D JUMP JUMPDEST PUSH1 0xF PUSH2 0xF4C JUMP JUMPDEST PUSH2 0x10E7 CALLER PUSH2 0xF84 JUMP JUMPDEST PUSH2 0x10F0 DUP7 PUSH2 0x424 JUMP JUMPDEST SWAP1 PUSH32 0x10546B1A6F5245FF0FFA18C256B9E46859C585CBB473B453FCD4C2DC39AE08DB PUSH2 0x111B PUSH1 0x40 MLOAD SWAP1 JUMP JUMPDEST DUP1 PUSH2 0x1127 DUP8 DUP8 DUP4 PUSH2 0xF8D JUMP JUMPDEST SUB SWAP1 LOG3 PUSH2 0x1152 PUSH1 0x0 DUP1 PUSH2 0x113A PUSH1 0xE PUSH2 0xFAD JUMP JUMPDEST PUSH1 0x40 MLOAD PUSH1 0x0 SWAP2 DUP8 SWAP1 GAS CALL PUSH2 0x114C PUSH2 0xFC9 JUMP JUMPDEST POP PUSH2 0xFE8 JUMP JUMPDEST PUSH2 0xEDD JUMP JUMPDEST PUSH2 0x1ECA JUMP JUMPDEST SWAP1 PUSH2 0x1177 PUSH2 0x116B PUSH2 0x5B9 DUP5 SLOAD SWAP1 JUMP JUMPDEST SWAP3 PUSH1 0x0 MSTORE PUSH1 0x20 PUSH1 0x0 KECCAK256 SWAP1 JUMP JUMPDEST SWAP1 PUSH1 0x0 JUMPDEST DUP2 DUP2 LT PUSH2 0x1188 JUMPI POP POP POP SWAP1 JUMP JUMPDEST SWAP1 SWAP2 SWAP3 PUSH2 0x11AC PUSH2 0x11A5 PUSH1 0x1 SWAP3 PUSH2 0x119D DUP8 PUSH2 0xDBD JUMP JUMPDEST DUP2 MSTORE PUSH1 0x20 ADD SWAP1 JUMP JUMPDEST SWAP5 PUSH1 0x1 ADD SWAP1 JUMP JUMPDEST SWAP3 SWAP2 ADD PUSH2 0x117B JUMP JUMPDEST SWAP1 PUSH2 0x360 SWAP2 PUSH2 0x115C JUMP JUMPDEST SWAP1 PUSH2 0x2FB PUSH2 0xAAA SWAP3 PUSH2 0x11CF PUSH1 0x40 MLOAD SWAP1 JUMP JUMPDEST SWAP4 DUP5 DUP1 SWAP3 PUSH2 0x11B4 JUMP JUMPDEST PUSH2 0x360 SWAP1 PUSH2 0x11BE JUMP JUMPDEST PUSH2 0x360 PUSH1 0x10 PUSH2 0x11D8 JUMP JUMPDEST PUSH2 0x1204 PUSH2 0x11FE PUSH2 0x360 SWAP3 PUSH4 0xFFFFFFFF AND SWAP1 JUMP JUMPDEST PUSH1 0xE0 SHL SWAP1 JUMP JUMPDEST PUSH1 0x1 PUSH1 0x1 PUSH1 0xE0 SHL SUB NOT AND SWAP1 JUMP JUMPDEST POP POP POP POP PUSH2 0x121D PUSH1 0x0 SWAP1 JUMP JUMPDEST POP PUSH2 0x360 PUSH4 0x150B7A02 PUSH2 0x11EB JUMP JUMPDEST SWAP2 SWAP1 DUP3 SUB SWAP2 DUP3 GT PUSH2 0xEA8 JUMPI JUMP JUMPDEST PUSH2 0x360 PUSH2 0x1243 PUSH2 0x147E JUMP JUMPDEST PUSH2 0x1259 PUSH2 0x106C PUSH2 0x1253 PUSH1 0xD PUSH2 0xDBD JUMP JUMPDEST DUP4 PUSH2 0xE95 JUMP JUMPDEST SWAP1 PUSH2 0x122B JUMP JUMPDEST PUSH2 0x39A PUSH2 0x360 PUSH2 0x360 SWAP3 SWAP1 JUMP JUMPDEST PUSH2 0x360 SWAP1 PUSH2 0x125F JUMP JUMPDEST PUSH1 0x40 SWAP1 PUSH2 0x129C PUSH2 0x2FB SWAP5 SWAP7 SWAP6 SWAP4 SWAP7 PUSH2 0x1295 PUSH1 0x60 DUP5 ADD SWAP9 PUSH1 0x0 DUP6 ADD SWAP1 PUSH2 0x3BD JUMP JUMPDEST PUSH1 0x20 DUP4 ADD MSTORE JUMP JUMPDEST ADD SWAP1 PUSH2 0x3BD JUMP JUMPDEST SWAP1 SWAP2 PUSH1 0x0 SWAP3 PUSH2 0x12B1 DUP5 PUSH2 0x126C JUMP JUMPDEST PUSH2 0x12BA DUP2 PUSH2 0x39A JUMP JUMPDEST PUSH2 0x12C3 DUP4 PUSH2 0x39A JUMP JUMPDEST EQ PUSH2 0x130E JUMPI POP PUSH2 0x12D5 SWAP1 DUP3 CALLER SWAP2 PUSH2 0x1F14 JUMP JUMPDEST SWAP2 PUSH2 0x12DF DUP2 PUSH2 0x39A JUMP JUMPDEST PUSH2 0x12E8 DUP5 PUSH2 0x39A JUMP JUMPDEST SUB PUSH2 0x12F3 JUMPI POP POP POP POP JUMP JUMPDEST PUSH4 0x64283D7B PUSH1 0xE0 SHL DUP5 MSTORE DUP4 SWAP3 PUSH2 0xE7B SWAP3 SWAP1 SWAP2 PUSH1 0x4 DUP6 ADD PUSH2 0x1275 JUMP JUMPDEST DUP5 PUSH2 0xE7B DUP2 SWAP3 PUSH4 0x32505749 PUSH1 0xE1 SHL DUP4 MSTORE PUSH1 0x4 DUP4 ADD PUSH2 0x3C6 JUMP JUMPDEST SWAP2 PUSH1 0x20 PUSH2 0x2FB SWAP3 SWAP5 SWAP4 PUSH2 0xFA0 PUSH1 0x40 DUP3 ADD SWAP7 PUSH1 0x0 DUP4 ADD SWAP1 PUSH2 0x3BD JUMP JUMPDEST SWAP1 PUSH2 0x43B SWAP1 PUSH2 0xF84 JUMP JUMPDEST PUSH2 0x1358 PUSH2 0x360 DUP3 PUSH2 0x181D JUMP JUMPDEST DUP3 LT ISZERO PUSH2 0x137B JUMPI PUSH2 0x360 SWAP2 PUSH2 0x1371 PUSH2 0x1376 SWAP3 PUSH1 0x6 PUSH2 0x1342 JUMP JUMPDEST PUSH2 0x431 JUMP JUMPDEST PUSH2 0xDBD JUMP JUMPDEST PUSH4 0x295F44F7 PUSH1 0xE2 SHL PUSH1 0x0 SWAP1 DUP2 MSTORE SWAP2 PUSH2 0x1394 SWAP2 PUSH1 0x4 PUSH2 0x1327 JUMP JUMPDEST SUB PUSH1 0x0 REVERT JUMPDEST ISZERO PUSH2 0x13A0 JUMPI JUMP JUMPDEST PUSH1 0x40 MLOAD PUSH3 0x461BCD PUSH1 0xE5 SHL DUP2 MSTORE PUSH1 0x20 PUSH1 0x4 DUP3 ADD MSTORE PUSH1 0x23 PUSH1 0x24 DUP3 ADD MSTORE PUSH32 0x4F6E6C792063726561746F722063616E2063616C6C20746869732066756E6374 PUSH1 0x44 DUP3 ADD MSTORE PUSH3 0x34B7B7 PUSH1 0xE9 SHL PUSH1 0x64 DUP3 ADD MSTORE PUSH1 0x84 SWAP1 REVERT JUMPDEST PUSH2 0x2FB SWAP1 PUSH2 0x1419 PUSH2 0x140A PUSH2 0x1405 PUSH1 0xE PUSH2 0xFAD JUMP JUMPDEST PUSH2 0x39A JUMP JUMPDEST PUSH2 0x1413 CALLER PUSH2 0x39A JUMP JUMPDEST EQ PUSH2 0x1399 JUMP JUMPDEST PUSH2 0x1444 JUMP JUMPDEST SWAP1 PUSH1 0x1 PUSH1 0x1 PUSH1 0xA0 SHL SUB SWAP1 PUSH2 0xF42 JUMP JUMPDEST SWAP1 PUSH2 0x143D PUSH2 0x360 PUSH2 0xF63 SWAP3 PUSH2 0xF84 JUMP JUMPDEST DUP3 SLOAD PUSH2 0x141E JUMP JUMPDEST PUSH2 0x2FB SWAP1 PUSH1 0xE PUSH2 0x142D JUMP JUMPDEST PUSH2 0x2FB SWAP1 PUSH2 0x13F1 JUMP JUMPDEST PUSH2 0x360 PUSH1 0x0 PUSH2 0xFB7 JUMP JUMPDEST PUSH2 0x360 PUSH2 0x1458 JUMP JUMPDEST SWAP1 SWAP2 PUSH2 0x2FB SWAP3 PUSH2 0x1478 PUSH2 0x1462 JUMP JUMPDEST SWAP3 PUSH2 0x1965 JUMP JUMPDEST PUSH2 0x1488 PUSH1 0xF PUSH2 0xDBD JUMP JUMPDEST PUSH2 0x1495 PUSH2 0xEC9 PUSH1 0x0 PUSH2 0x424 JUMP JUMPDEST GT ISZERO PUSH2 0x14B5 JUMPI PUSH2 0x360 PUSH2 0xC9B PUSH2 0x14AB PUSH1 0xF PUSH2 0xDBD JUMP JUMPDEST PUSH2 0x1259 PUSH1 0x1 PUSH2 0x424 JUMP JUMPDEST PUSH2 0x360 PUSH2 0xC9B PUSH1 0x0 PUSH2 0x424 JUMP JUMPDEST PUSH2 0x360 PUSH2 0x14CD PUSH2 0xDC7 JUMP JUMPDEST PUSH2 0x10B1 PUSH2 0x106C PUSH2 0x1253 PUSH1 0xD PUSH2 0xDBD JUMP JUMPDEST PUSH2 0x14E9 PUSH2 0x360 PUSH1 0x8 SLOAD SWAP1 JUMP JUMPDEST DUP2 LT ISZERO PUSH2 0x14FE JUMPI PUSH2 0xC64 PUSH2 0x360 SWAP2 PUSH1 0x8 PUSH2 0xC24 JUMP JUMPDEST PUSH2 0xE7B SWAP1 PUSH1 0x0 SWAP2 DUP3 SWAP2 PUSH2 0x1510 DUP4 PUSH2 0x126C JUMP JUMPDEST PUSH4 0x295F44F7 PUSH1 0xE2 SHL DUP5 MSTORE PUSH1 0x4 DUP5 ADD PUSH2 0x1327 JUMP JUMPDEST PUSH2 0x2FB SWAP1 PUSH2 0x1537 PUSH2 0x140A PUSH2 0x1405 PUSH1 0xE PUSH2 0xFAD JUMP JUMPDEST PUSH2 0x16BE JUMP JUMPDEST SWAP2 PUSH1 0x0 NOT PUSH1 0x8 SWAP3 SWAP1 SWAP3 MUL SWAP2 DUP3 SHL SWAP2 SHL PUSH2 0xF42 JUMP JUMPDEST SWAP2 SWAP1 PUSH2 0x1561 PUSH2 0x360 PUSH2 0xF63 SWAP4 PUSH2 0x424 JUMP JUMPDEST SWAP1 DUP4 SLOAD PUSH2 0x153C JUMP JUMPDEST PUSH2 0x2FB SWAP2 PUSH1 0x0 SWAP2 PUSH2 0x1550 JUMP JUMPDEST DUP2 DUP2 LT PUSH2 0x1580 JUMPI POP POP JUMP JUMPDEST DUP1 PUSH2 0x158E PUSH1 0x0 PUSH1 0x1 SWAP4 PUSH2 0x1569 JUMP JUMPDEST ADD PUSH2 0x1575 JUMP JUMPDEST SWAP2 SWAP1 PUSH1 0x1F DUP2 GT PUSH2 0x15A3 JUMPI POP POP POP JUMP JUMPDEST PUSH2 0x15B5 PUSH2 0x2FB SWAP4 PUSH1 0x0 MSTORE PUSH1 0x20 PUSH1 0x0 KECCAK256 SWAP1 JUMP JUMPDEST SWAP1 PUSH1 0x20 PUSH1 0x1F DUP5 ADD DUP2 SWAP1 DIV DUP4 ADD SWAP4 LT PUSH2 0x15D7 JUMPI JUMPDEST PUSH1 0x20 PUSH1 0x1F SWAP1 SWAP2 ADD DIV ADD SWAP1 PUSH2 0x1575 JUMP JUMPDEST SWAP1 SWAP2 POP DUP2 SWAP1 PUSH2 0x15C8 JUMP JUMPDEST SWAP1 PUSH2 0x15EA DUP2 MLOAD SWAP1 JUMP JUMPDEST SWAP1 PUSH8 0xFFFFFFFFFFFFFFFF DUP3 GT PUSH2 0x670 JUMPI PUSH2 0x160E DUP3 PUSH2 0x1608 DUP6 SLOAD PUSH2 0x9D8 JUMP JUMPDEST DUP6 PUSH2 0x1594 JUMP JUMPDEST PUSH1 0x20 SWAP1 PUSH1 0x1F DUP4 GT PUSH1 0x1 EQ PUSH2 0x1649 JUMPI PUSH2 0xF63 SWAP3 SWAP2 PUSH1 0x0 SWAP2 DUP4 PUSH2 0x163E JUMPI JUMPDEST POP POP PUSH1 0x0 NOT PUSH1 0x8 DUP4 MUL SHR NOT AND SWAP1 PUSH1 0x2 MUL OR SWAP1 JUMP JUMPDEST ADD MLOAD SWAP1 POP CODESIZE DUP1 PUSH2 0x162A JUMP JUMPDEST PUSH1 0x1F NOT DUP4 AND SWAP2 PUSH2 0x165E DUP6 PUSH1 0x0 MSTORE PUSH1 0x20 PUSH1 0x0 KECCAK256 SWAP1 JUMP JUMPDEST SWAP3 PUSH1 0x0 JUMPDEST DUP2 DUP2 LT PUSH2 0x169C JUMPI POP SWAP2 PUSH1 0x2 SWAP4 SWAP2 DUP6 PUSH1 0x1 SWAP7 SWAP5 LT PUSH2 0x1683 JUMPI JUMPDEST POP POP POP MUL ADD SWAP1 SSTORE JUMP JUMPDEST ADD MLOAD PUSH1 0x0 NOT PUSH1 0x8 PUSH1 0x1F DUP6 AND MUL SHR NOT AND SWAP1 SSTORE CODESIZE DUP1 DUP1 PUSH2 0x167A JUMP JUMPDEST SWAP2 SWAP4 PUSH1 0x20 PUSH1 0x1 DUP2 SWAP3 DUP8 DUP8 ADD MLOAD DUP2 SSTORE ADD SWAP6 ADD SWAP3 ADD PUSH2 0x1662 JUMP JUMPDEST SWAP1 PUSH2 0x2FB SWAP2 PUSH2 0x15E1 JUMP JUMPDEST PUSH2 0x2FB SWAP1 PUSH1 0x12 PUSH2 0x16B4 JUMP JUMPDEST PUSH2 0x2FB SWAP1 PUSH2 0x1523 JUMP JUMPDEST ISZERO PUSH2 0x16D9 JUMPI JUMP JUMPDEST PUSH1 0x40 MLOAD PUSH3 0x461BCD PUSH1 0xE5 SHL DUP2 MSTORE PUSH1 0x20 PUSH1 0x4 DUP3 ADD MSTORE PUSH1 0x19 PUSH1 0x24 DUP3 ADD MSTORE PUSH32 0x537461727420696E646578206F7574206F6620626F756E647300000000000000 PUSH1 0x44 DUP3 ADD MSTORE PUSH1 0x64 SWAP1 REVERT JUMPDEST PUSH8 0xFFFFFFFFFFFFFFFF DUP2 GT PUSH2 0x670 JUMPI PUSH1 0x20 DUP1 SWAP2 MUL ADD SWAP1 JUMP JUMPDEST SWAP1 PUSH2 0xFC4 PUSH2 0x6C2 DUP4 PUSH2 0x171E JUMP JUMPDEST CALLDATASIZE SWAP1 CALLDATACOPY JUMP JUMPDEST SWAP1 PUSH2 0x2FB PUSH2 0x175E PUSH2 0x1758 DUP5 PUSH2 0x1736 JUMP JUMPDEST SWAP4 PUSH2 0x171E JUMP JUMPDEST PUSH1 0x1F NOT ADD PUSH1 0x20 DUP5 ADD PUSH2 0x1743 JUMP JUMPDEST SWAP1 PUSH2 0x1774 DUP3 MLOAD SWAP1 JUMP JUMPDEST DUP2 LT ISZERO PUSH2 0xC47 JUMPI PUSH1 0x20 DUP1 SWAP2 MUL ADD ADD SWAP1 JUMP JUMPDEST SWAP2 PUSH2 0x17B2 PUSH2 0x17AA PUSH1 0x10 SWAP4 PUSH2 0x17A4 PUSH2 0x179D PUSH2 0x360 DUP8 SLOAD SWAP1 JUMP JUMPDEST DUP8 LT PUSH2 0x16D2 JUMP JUMPDEST DUP6 PUSH2 0xEDD JUMP JUMPDEST DUP4 SLOAD SWAP1 PUSH2 0x1F1F JUMP JUMPDEST SWAP2 PUSH2 0x17C5 PUSH2 0x17C0 DUP6 DUP6 PUSH2 0x122B JUMP JUMPDEST PUSH2 0x1748 JUMP JUMPDEST SWAP2 DUP5 JUMPDEST DUP5 JUMPDEST DUP2 LT ISZERO PUSH2 0x180B JUMPI PUSH2 0x1804 DUP2 PUSH2 0x17FE PUSH2 0x17E8 PUSH2 0xC64 PUSH2 0x17CA SWAP6 DUP9 PUSH2 0xC24 JUMP JUMPDEST PUSH2 0x17FB PUSH2 0x17F5 DUP12 DUP6 PUSH2 0x122B JUMP JUMPDEST DUP10 PUSH2 0x176B JUMP JUMPDEST MSTORE JUMP JUMPDEST PUSH1 0x1 ADD SWAP1 JUMP JUMPDEST SWAP1 POP PUSH2 0x17C8 JUMP JUMPDEST POP SWAP4 POP POP SWAP1 POP SWAP1 JUMP JUMPDEST PUSH2 0x360 SWAP1 PUSH2 0x1E13 JUMP JUMPDEST PUSH1 0x0 PUSH2 0x1828 DUP2 PUSH2 0x126C JUMP JUMPDEST PUSH2 0x1831 DUP2 PUSH2 0x39A JUMP JUMPDEST PUSH2 0x183A DUP5 PUSH2 0x39A JUMP JUMPDEST EQ PUSH2 0x184F JUMPI POP POP PUSH2 0x1376 PUSH2 0x360 SWAP2 PUSH1 0x3 PUSH2 0x1342 JUMP JUMPDEST PUSH4 0x22718AD9 PUSH1 0xE2 SHL DUP3 MSTORE DUP2 SWAP1 PUSH2 0xE7B SWAP1 PUSH1 0x4 DUP4 ADD PUSH2 0x3C6 JUMP JUMPDEST PUSH2 0x1870 PUSH2 0x1F31 JUMP JUMPDEST PUSH2 0x2FB PUSH2 0x2FB PUSH2 0x1880 PUSH1 0x0 PUSH2 0x126C JUMP JUMPDEST PUSH2 0x1F68 JUMP JUMPDEST PUSH2 0x2FB PUSH2 0x1868 JUMP JUMPDEST PUSH2 0x360 PUSH1 0xA PUSH2 0xFAD JUMP JUMPDEST PUSH2 0x2FB SWAP1 PUSH2 0x18AB PUSH2 0x140A PUSH2 0x1405 PUSH1 0xE PUSH2 0xFAD JUMP JUMPDEST PUSH2 0x2FB SWAP1 PUSH1 0x13 PUSH2 0x16B4 JUMP JUMPDEST PUSH2 0x2FB SWAP1 PUSH2 0x1897 JUMP JUMPDEST PUSH2 0x360 PUSH1 0x1 PUSH2 0xE08 JUMP JUMPDEST PUSH2 0x2FB SWAP2 SWAP1 CALLER PUSH2 0x1FE1 JUMP JUMPDEST PUSH2 0x18DE PUSH1 0x0 PUSH2 0x424 JUMP JUMPDEST DUP2 EQ PUSH2 0x195A JUMPI PUSH2 0x360 SWAP1 PUSH2 0x10B1 PUSH2 0x18F5 PUSH1 0xB PUSH2 0xDBD JUMP JUMPDEST SWAP2 PUSH2 0x191C PUSH2 0x1945 PUSH2 0x193B PUSH2 0x193B PUSH2 0x194A PUSH2 0x1922 PUSH2 0x1912 PUSH1 0xB PUSH2 0xDBD JUMP JUMPDEST PUSH2 0x191C PUSH1 0x2 PUSH2 0x424 JUMP JUMPDEST SWAP1 PUSH2 0xE95 JUMP JUMPDEST PUSH2 0x191C PUSH2 0x1945 PUSH2 0x193B DUP10 PUSH2 0x1936 PUSH1 0x64 PUSH2 0x424 JUMP JUMPDEST PUSH2 0xE95 JUMP JUMPDEST PUSH2 0x107D PUSH1 0xC PUSH2 0xDBD JUMP JUMPDEST PUSH2 0x20A5 JUMP JUMPDEST SWAP5 PUSH2 0x1936 DUP2 PUSH2 0x1936 PUSH2 0x2710 PUSH2 0x424 JUMP JUMPDEST POP PUSH2 0x360 PUSH1 0xB PUSH2 0xDBD JUMP JUMPDEST SWAP1 PUSH2 0x2FB SWAP4 SWAP3 SWAP2 PUSH2 0x1977 DUP4 DUP4 DUP4 PUSH2 0x12A3 JUMP JUMPDEST PUSH2 0x21FF JUMP JUMPDEST PUSH2 0x4E6 PUSH2 0x1994 SWAP3 PUSH1 0x20 SWAP3 PUSH2 0x198E DUP2 MLOAD SWAP1 JUMP JUMPDEST SWAP5 DUP6 SWAP3 SWAP1 JUMP JUMPDEST SWAP4 DUP5 SWAP2 ADD PUSH2 0x48F JUMP JUMPDEST PUSH2 0x19AB SWAP1 PUSH2 0x360 SWAP4 SWAP3 PUSH2 0x197C JUMP JUMPDEST SWAP1 PUSH2 0x197C JUMP JUMPDEST PUSH2 0x19D1 SWAP3 SWAP2 PUSH2 0x2FB SWAP2 PUSH2 0x19C3 PUSH1 0x40 MLOAD SWAP1 JUMP JUMPDEST SWAP5 DUP6 SWAP3 PUSH1 0x20 DUP5 ADD SWAP3 DUP4 PUSH2 0x199D JUMP JUMPDEST SWAP1 DUP2 SUB DUP3 MSTORE SUB DUP4 PUSH2 0x64E JUMP JUMPDEST PUSH2 0x19E6 DUP2 PUSH2 0x1E13 JUMP JUMPDEST POP PUSH2 0x19EF PUSH2 0x231C JUMP JUMPDEST DUP1 MLOAD PUSH2 0x19FE PUSH2 0xEC9 PUSH1 0x0 PUSH2 0x424 JUMP JUMPDEST GT ISZERO PUSH2 0x1A16 JUMPI PUSH2 0x1A10 PUSH2 0x360 SWAP3 PUSH2 0x233C JUMP JUMPDEST SWAP1 PUSH2 0x19B1 JUMP JUMPDEST POP POP PUSH2 0x360 PUSH2 0x1462 JUMP JUMPDEST PUSH2 0xC64 PUSH2 0x360 SWAP2 PUSH2 0x1A2F PUSH1 0x0 SWAP1 JUMP JUMPDEST POP PUSH1 0x10 PUSH2 0xC24 JUMP JUMPDEST ISZERO PUSH2 0x1A3E JUMPI JUMP JUMPDEST PUSH1 0x40 MLOAD PUSH3 0x461BCD PUSH1 0xE5 SHL DUP2 MSTORE PUSH1 0x20 PUSH1 0x4 DUP3 ADD MSTORE PUSH1 0x1F PUSH1 0x24 DUP3 ADD MSTORE PUSH32 0x546F6B656E206973206E6F7420617661696C61626C6520666F722073616C6500 PUSH1 0x44 DUP3 ADD MSTORE PUSH1 0x64 SWAP1 REVERT JUMPDEST PUSH2 0x2FB SWAP1 PUSH2 0x1AAE PUSH2 0x1A93 DUP3 PUSH2 0x1814 JUMP JUMPDEST PUSH2 0x1AA8 PUSH2 0x1AA2 PUSH2 0x1405 ADDRESS PUSH2 0xF84 JUMP JUMPDEST SWAP2 PUSH2 0x39A JUMP JUMPDEST EQ PUSH2 0x1A37 JUMP JUMPDEST PUSH2 0x1157 PUSH2 0x2FB SWAP2 PUSH2 0x1ABD PUSH2 0xDC7 JUMP JUMPDEST PUSH2 0x1ACD PUSH2 0x106C PUSH2 0x1253 PUSH1 0xD PUSH2 0xDBD JUMP JUMPDEST SWAP2 PUSH2 0x1ADE PUSH2 0x1093 PUSH2 0x360 DUP6 DUP6 PUSH2 0xEDD JUMP JUMPDEST PUSH2 0x1AF2 DUP2 PUSH2 0x1AEB ADDRESS PUSH2 0xF84 JUMP JUMPDEST CALLER SWAP1 PUSH2 0x23C9 JUMP JUMPDEST PUSH2 0x1AFB DUP2 PUSH2 0x248C JUMP JUMPDEST PUSH2 0x1B0B PUSH2 0x10D7 PUSH2 0x10D2 PUSH1 0xF PUSH2 0xDBD JUMP JUMPDEST PUSH2 0x1B1D PUSH2 0x1B17 CALLER PUSH2 0xF84 JUMP JUMPDEST SWAP2 PUSH2 0x424 JUMP JUMPDEST SWAP1 PUSH32 0x884543C08D36FB5C9B3B688DD0453C9F287199124BDBDDB3B7F9CA885A4D34A0 PUSH2 0x111B PUSH1 0x40 MLOAD SWAP1 JUMP JUMPDEST PUSH2 0x2FB SWAP1 PUSH2 0x1A83 JUMP JUMPDEST ISZERO PUSH2 0x1B58 JUMPI JUMP JUMPDEST PUSH1 0x40 MLOAD PUSH3 0x461BCD PUSH1 0xE5 SHL DUP2 MSTORE PUSH1 0x20 PUSH1 0x4 DUP3 ADD MSTORE PUSH1 0x13 PUSH1 0x24 DUP3 ADD MSTORE PUSH19 0x21B0B63632B91034B9903737BA1037BBB732B9 PUSH1 0x69 SHL PUSH1 0x44 DUP3 ADD MSTORE PUSH1 0x64 SWAP1 REVERT JUMPDEST PUSH2 0x2FB SWAP1 PUSH2 0x1BB5 PUSH2 0x1BA3 DUP3 PUSH2 0x1814 JUMP JUMPDEST PUSH2 0x1BAF PUSH2 0x1AA2 CALLER PUSH2 0x39A JUMP JUMPDEST EQ PUSH2 0x1B51 JUMP JUMPDEST PUSH2 0x1C5F JUMP JUMPDEST DUP1 ISZERO PUSH2 0xEA8 JUMPI PUSH1 0x0 NOT ADD SWAP1 JUMP JUMPDEST ISZERO PUSH2 0x1BCE JUMPI JUMP JUMPDEST PUSH1 0x40 MLOAD PUSH3 0x461BCD PUSH1 0xE5 SHL DUP2 MSTORE PUSH1 0x20 PUSH1 0x4 DUP3 ADD MSTORE PUSH1 0x19 PUSH1 0x24 DUP3 ADD MSTORE PUSH32 0x5472616E7366657220746F2073656C6C6572206661696C656400000000000000 PUSH1 0x44 DUP3 ADD MSTORE PUSH1 0x64 SWAP1 REVERT JUMPDEST ISZERO PUSH2 0x1C1A JUMPI JUMP JUMPDEST PUSH1 0x40 MLOAD PUSH3 0x461BCD PUSH1 0xE5 SHL DUP2 MSTORE PUSH1 0x20 PUSH1 0x4 DUP3 ADD MSTORE PUSH1 0x1A PUSH1 0x24 DUP3 ADD MSTORE PUSH32 0x5472616E7366657220746F2063726561746F72206661696C6564000000000000 PUSH1 0x44 DUP3 ADD MSTORE PUSH1 0x64 SWAP1 REVERT JUMPDEST PUSH1 0x0 DUP1 PUSH2 0x2FB SWAP3 PUSH2 0x1D2B DUP3 DUP1 PUSH2 0x1C73 PUSH2 0x147E JUMP JUMPDEST SWAP4 PUSH2 0x1D13 PUSH2 0x1C8D PUSH2 0x106C PUSH2 0x1C87 PUSH1 0xD PUSH2 0xDBD JUMP JUMPDEST DUP9 PUSH2 0xE95 JUMP JUMPDEST DUP1 SWAP7 PUSH2 0x1C96 CALLER SWAP1 JUMP JUMPDEST SWAP4 PUSH2 0x1CAA DUP2 PUSH2 0x1CA4 ADDRESS PUSH2 0xF84 JUMP JUMPDEST DUP8 PUSH2 0x23C9 JUMP JUMPDEST PUSH2 0x1CB3 DUP2 PUSH2 0x251B JUMP JUMPDEST PUSH2 0x1CC8 PUSH2 0x10D7 PUSH2 0x1CC3 PUSH1 0xF PUSH2 0xDBD JUMP JUMPDEST PUSH2 0x1BBA JUMP JUMPDEST PUSH2 0x1CD4 PUSH2 0x1B17 DUP7 PUSH2 0xF84 JUMP JUMPDEST SWAP1 PUSH32 0x8323BEBB324B6E1A1D4886A1F210640461BB275263DAE69967F001D053AB0B2B PUSH2 0x1CFF PUSH1 0x40 MLOAD SWAP1 JUMP JUMPDEST DUP1 PUSH2 0x1D0B DUP8 DUP8 DUP4 PUSH2 0xF8D JUMP JUMPDEST SUB SWAP1 LOG3 PUSH2 0x122B JUMP JUMPDEST PUSH1 0x40 MLOAD SWAP1 DUP2 DUP1 SUB SWAP3 GAS CALL PUSH2 0x1D25 PUSH2 0xFC9 JUMP JUMPDEST POP PUSH2 0x1BC7 JUMP JUMPDEST PUSH2 0x1D35 PUSH1 0xE PUSH2 0xFAD JUMP JUMPDEST SWAP1 PUSH2 0x1D3F PUSH1 0x40 MLOAD SWAP1 JUMP JUMPDEST SWAP1 DUP2 DUP1 SUB SWAP3 GAS CALL PUSH2 0x1D4E PUSH2 0xFC9 JUMP JUMPDEST POP PUSH2 0x1C13 JUMP JUMPDEST PUSH2 0x2FB SWAP1 PUSH2 0x1B93 JUMP JUMPDEST PUSH2 0x360 SWAP1 JUMPDEST PUSH1 0xFF AND SWAP1 JUMP JUMPDEST PUSH2 0x360 SWAP1 SLOAD PUSH2 0x1D5D JUMP JUMPDEST PUSH2 0x360 SWAP2 PUSH2 0x1D8D PUSH2 0x1D92 SWAP3 PUSH2 0x1D85 PUSH1 0x0 SWAP1 JUMP JUMPDEST POP PUSH1 0x5 PUSH2 0x1342 JUMP JUMPDEST PUSH2 0x1342 JUMP JUMPDEST PUSH2 0x1D68 JUMP JUMPDEST PUSH2 0x1DA0 SWAP1 PUSH2 0x1814 JUMP JUMPDEST PUSH2 0xE04 PUSH2 0x1AA2 PUSH2 0x1405 ADDRESS PUSH2 0xF84 JUMP JUMPDEST PUSH2 0x2FB SWAP1 PUSH2 0x1DBB PUSH2 0x1F31 JUMP JUMPDEST PUSH1 0x0 PUSH2 0x1DC6 DUP2 PUSH2 0x126C JUMP JUMPDEST PUSH2 0x1DCF DUP2 PUSH2 0x39A JUMP JUMPDEST PUSH2 0x1DD8 DUP5 PUSH2 0x39A JUMP JUMPDEST EQ PUSH2 0x1DE8 JUMPI POP POP PUSH2 0x2FB SWAP1 PUSH2 0x1F68 JUMP JUMPDEST PUSH4 0x1E4FBDF7 PUSH1 0xE0 SHL DUP3 MSTORE DUP2 SWAP1 PUSH2 0xE7B SWAP1 PUSH1 0x4 DUP4 ADD PUSH2 0x3C6 JUMP JUMPDEST PUSH2 0x2FB SWAP1 PUSH2 0x1DAF JUMP JUMPDEST PUSH2 0x360 SWAP1 PUSH2 0x2541 JUMP JUMPDEST PUSH2 0x1E1C DUP2 PUSH2 0x256A JUMP JUMPDEST SWAP1 PUSH1 0x0 SWAP1 PUSH2 0x1E2C PUSH2 0x1405 DUP4 PUSH2 0x126C JUMP JUMPDEST PUSH2 0x1E35 DUP5 PUSH2 0x39A JUMP JUMPDEST EQ PUSH2 0x1E3F JUMPI POP POP SWAP1 JUMP JUMPDEST PUSH4 0x7E273289 PUSH1 0xE0 SHL DUP3 MSTORE PUSH1 0x4 DUP3 ADD MSTORE PUSH1 0x24 SWAP1 REVERT JUMPDEST PUSH2 0x1E6A PUSH2 0x360 SWAP2 PUSH2 0x1E62 PUSH1 0x0 SWAP1 JUMP JUMPDEST POP PUSH1 0x4 PUSH2 0x431 JUMP JUMPDEST PUSH2 0xFAD JUMP JUMPDEST SWAP2 PUSH1 0x1 SWAP2 PUSH2 0x2FB SWAP4 PUSH2 0x2581 JUMP JUMPDEST PUSH2 0x2FB SWAP2 PUSH2 0x1E88 PUSH2 0x1462 JUMP JUMPDEST SWAP2 PUSH2 0x26AD JUMP JUMPDEST ISZERO PUSH2 0x1E95 JUMPI JUMP JUMPDEST PUSH1 0x40 MLOAD PUSH3 0x461BCD PUSH1 0xE5 SHL DUP2 MSTORE PUSH1 0x20 PUSH1 0x4 DUP3 ADD MSTORE PUSH1 0xD PUSH1 0x24 DUP3 ADD MSTORE PUSH13 0x1499599D5B990819985A5B1959 PUSH1 0x9A SHL PUSH1 0x44 DUP3 ADD MSTORE PUSH1 0x64 SWAP1 REVERT JUMPDEST PUSH2 0x1ED4 SWAP1 CALLVALUE PUSH2 0x122B JUMP JUMPDEST PUSH2 0x1EDE PUSH1 0x0 PUSH2 0x424 JUMP JUMPDEST DUP2 GT PUSH2 0x1EE7 JUMPI POP JUMP JUMPDEST PUSH1 0x0 DUP1 PUSH2 0x2FB SWAP3 PUSH2 0x1EF5 CALLER SWAP1 JUMP JUMPDEST SWAP1 PUSH2 0x1EFF PUSH1 0x40 MLOAD SWAP1 JUMP JUMPDEST SWAP1 DUP2 DUP1 SUB SWAP3 GAS CALL PUSH2 0x1F0E PUSH2 0xFC9 JUMP JUMPDEST POP PUSH2 0x1E8E JUMP JUMPDEST PUSH2 0x360 SWAP3 SWAP2 SWAP1 PUSH2 0x26C7 JUMP JUMPDEST SWAP1 DUP1 DUP3 LT ISZERO PUSH2 0x1F2C JUMPI POP SWAP1 JUMP JUMPDEST SWAP1 POP SWAP1 JUMP JUMPDEST PUSH2 0x1F39 PUSH2 0x188D JUMP JUMPDEST CALLER SWAP1 PUSH2 0x1F47 PUSH2 0x1AA2 DUP4 PUSH2 0x39A JUMP JUMPDEST SUB PUSH2 0x1F4F JUMPI POP JUMP JUMPDEST PUSH4 0x118CDAA7 PUSH1 0xE0 SHL PUSH1 0x0 SWAP1 DUP2 MSTORE SWAP1 PUSH2 0x1394 SWAP1 PUSH1 0x4 PUSH2 0x3C6 JUMP JUMPDEST PUSH2 0x1F8E PUSH2 0x1F88 PUSH2 0x1F78 PUSH1 0xA PUSH2 0xFAD JUMP JUMPDEST PUSH2 0x1F83 DUP5 PUSH1 0xA PUSH2 0x142D JUMP JUMPDEST PUSH2 0xF84 JUMP JUMPDEST SWAP2 PUSH2 0xF84 JUMP JUMPDEST SWAP1 PUSH32 0x8BE0079C531659141344CD1FD0A4F28419497F9722A3DAAFE3B4186F6B6457E0 PUSH2 0x1FB9 PUSH1 0x40 MLOAD SWAP1 JUMP JUMPDEST DUP1 DUP1 JUMPDEST SUB SWAP1 LOG3 JUMP JUMPDEST SWAP1 PUSH1 0xFF SWAP1 PUSH2 0xF42 JUMP JUMPDEST SWAP1 PUSH2 0x1FDA PUSH2 0x360 PUSH2 0xF63 SWAP3 ISZERO ISZERO SWAP1 JUMP JUMPDEST DUP3 SLOAD PUSH2 0x1FC1 JUMP JUMPDEST PUSH1 0x0 PUSH2 0x1FEF PUSH2 0x1405 DUP3 PUSH2 0x126C JUMP JUMPDEST PUSH2 0x1FF8 DUP5 PUSH2 0x39A JUMP JUMPDEST EQ PUSH2 0x2051 JUMPI POP PUSH2 0x1FBC PUSH2 0x2047 PUSH2 0x2041 DUP4 PUSH2 0x1F83 DUP8 PUSH2 0x203C DUP9 PUSH2 0x1D8D PUSH32 0x17307EAB39AB6107E8899845AD3D59BD9653F200F220920489CA2B5937696C31 SWAP10 PUSH1 0x5 PUSH2 0x1342 JUMP JUMPDEST PUSH2 0x1FCA JUMP JUMPDEST SWAP4 PUSH2 0xF84 JUMP JUMPDEST SWAP4 PUSH2 0x382 PUSH1 0x40 MLOAD SWAP1 JUMP JUMPDEST PUSH4 0xB611743 PUSH1 0xE3 SHL DUP2 MSTORE DUP1 PUSH2 0xE7B DUP5 PUSH1 0x4 DUP4 ADD PUSH2 0x3C6 JUMP JUMPDEST PUSH2 0x1D62 PUSH2 0x360 PUSH2 0x360 SWAP3 SWAP1 JUMP JUMPDEST PUSH2 0x360 SWAP1 PUSH2 0x208A PUSH2 0xEC9 PUSH2 0x360 SWAP5 PUSH1 0xFF AND SWAP1 JUMP JUMPDEST SWAP1 SHR SWAP1 JUMP JUMPDEST PUSH2 0x360 SWAP1 PUSH2 0x20A0 PUSH2 0xEC9 PUSH2 0x360 SWAP5 SWAP1 JUMP JUMPDEST SWAP1 SHL SWAP1 JUMP JUMPDEST PUSH2 0x20AF PUSH1 0x0 PUSH2 0x424 JUMP JUMPDEST DUP2 EQ PUSH2 0x2195 JUMPI PUSH1 0x1 PUSH2 0x20C0 DUP3 PUSH2 0x2760 JUMP JUMPDEST PUSH2 0x20C9 DUP3 PUSH2 0x2069 JUMP JUMPDEST DUP1 DUP1 DUP1 DUP1 DUP1 SWAP7 PUSH2 0x20DA DUP3 DUP1 SWAP9 PUSH2 0x2076 JUMP JUMPDEST SWAP1 PUSH2 0x20E4 SWAP1 PUSH2 0x424 JUMP JUMPDEST SWAP1 PUSH2 0x20EE SWAP2 PUSH2 0x208F JUMP JUMPDEST PUSH2 0x20F8 DUP2 DUP11 PUSH2 0xEC3 JUMP JUMPDEST ADD SWAP1 PUSH2 0x2103 SWAP2 PUSH2 0x2076 JUMP JUMPDEST PUSH2 0x210D DUP2 DUP10 PUSH2 0xEC3 JUMP JUMPDEST ADD SWAP1 PUSH2 0x2118 SWAP2 PUSH2 0x2076 JUMP JUMPDEST PUSH2 0x2122 DUP2 DUP9 PUSH2 0xEC3 JUMP JUMPDEST ADD SWAP1 PUSH2 0x212D SWAP2 PUSH2 0x2076 JUMP JUMPDEST PUSH2 0x2137 DUP2 DUP8 PUSH2 0xEC3 JUMP JUMPDEST ADD SWAP1 PUSH2 0x2142 SWAP2 PUSH2 0x2076 JUMP JUMPDEST PUSH2 0x214C DUP2 DUP7 PUSH2 0xEC3 JUMP JUMPDEST ADD SWAP1 PUSH2 0x2157 SWAP2 PUSH2 0x2076 JUMP JUMPDEST PUSH2 0x2161 DUP2 DUP6 PUSH2 0xEC3 JUMP JUMPDEST ADD SWAP1 PUSH2 0x216C SWAP2 PUSH2 0x2076 JUMP JUMPDEST PUSH2 0x2176 DUP2 DUP5 PUSH2 0xEC3 JUMP JUMPDEST ADD SWAP1 PUSH2 0x2181 SWAP2 PUSH2 0x2076 JUMP JUMPDEST SWAP1 DUP2 PUSH2 0x218C SWAP2 PUSH2 0xEC3 JUMP JUMPDEST PUSH2 0x360 SWAP2 PUSH2 0x1F1F JUMP JUMPDEST POP PUSH2 0x360 PUSH1 0x0 PUSH2 0x424 JUMP JUMPDEST SWAP1 POP MLOAD SWAP1 PUSH2 0x2FB DUP3 PUSH2 0x32C JUMP JUMPDEST SWAP1 PUSH1 0x20 DUP3 DUP3 SUB SLT PUSH2 0x2F2 JUMPI PUSH2 0x360 SWAP2 PUSH2 0x21A0 JUMP JUMPDEST SWAP1 SWAP3 PUSH2 0x21F2 SWAP1 PUSH2 0x21EB PUSH2 0x360 SWAP7 SWAP5 PUSH2 0x21E1 PUSH1 0x80 DUP7 ADD SWAP8 PUSH1 0x0 DUP8 ADD SWAP1 PUSH2 0x3BD JUMP JUMPDEST PUSH1 0x20 DUP6 ADD SWAP1 PUSH2 0x3BD JUMP JUMPDEST PUSH1 0x40 DUP4 ADD MSTORE JUMP JUMPDEST PUSH1 0x60 DUP2 DUP5 SUB SWAP2 ADD MSTORE PUSH2 0x4B2 JUMP JUMPDEST PUSH1 0x0 SWAP4 SWAP2 SWAP3 DUP4 EXTCODESIZE PUSH2 0x2212 PUSH2 0xEC9 DUP8 PUSH2 0x424 JUMP JUMPDEST GT PUSH2 0x221F JUMPI JUMPDEST POP POP POP POP POP JUMP JUMPDEST PUSH1 0x20 SWAP2 PUSH2 0x222E PUSH2 0x1F83 DUP7 PUSH2 0xF84 JUMP JUMPDEST SWAP1 DUP7 CALLER PUSH2 0x2257 PUSH2 0x223D PUSH1 0x40 MLOAD SWAP1 JUMP JUMPDEST SWAP8 DUP9 SWAP7 DUP8 SWAP6 DUP7 SWAP5 PUSH4 0xA85BD01 PUSH1 0xE1 SHL DUP7 MSTORE PUSH1 0x4 DUP7 ADD PUSH2 0x21C1 JUMP JUMPDEST SUB SWAP3 GAS CALL PUSH1 0x0 SWAP2 DUP2 PUSH2 0x22EB JUMPI JUMPDEST POP PUSH2 0x22B6 JUMPI POP PUSH2 0x2279 JUMP JUMPDEST CODESIZE DUP1 DUP1 DUP1 DUP1 PUSH2 0x2218 JUMP JUMPDEST PUSH2 0x2281 PUSH2 0xFC9 JUMP JUMPDEST DUP1 MLOAD PUSH2 0x228F PUSH2 0xEC9 DUP6 PUSH2 0x424 JUMP JUMPDEST SUB PUSH2 0x22AE JUMPI POP PUSH4 0x32505749 PUSH1 0xE1 SHL DUP3 MSTORE DUP2 SWAP1 PUSH2 0xE7B SWAP1 PUSH1 0x4 DUP4 ADD PUSH2 0x3C6 JUMP JUMPDEST DUP1 MLOAD SWAP1 PUSH1 0x20 ADD REVERT JUMPDEST PUSH2 0x22C6 PUSH4 0xA85BD01 PUSH1 0xE1 SHL PUSH2 0xDF6 JUMP JUMPDEST SUB PUSH2 0x22D2 JUMPI POP POP PUSH2 0x226F JUMP JUMPDEST PUSH4 0x32505749 PUSH1 0xE1 SHL DUP3 MSTORE DUP2 SWAP1 PUSH2 0xE7B SWAP1 PUSH1 0x4 DUP4 ADD PUSH2 0x3C6 JUMP JUMPDEST PUSH2 0x230E SWAP2 SWAP3 POP PUSH1 0x20 RETURNDATASIZE PUSH1 0x20 GT PUSH2 0x2315 JUMPI JUMPDEST PUSH2 0x2306 DUP2 DUP4 PUSH2 0x64E JUMP JUMPDEST DUP2 ADD SWAP1 PUSH2 0x21AD JUMP JUMPDEST SWAP1 CODESIZE PUSH2 0x2264 JUMP JUMPDEST POP RETURNDATASIZE PUSH2 0x22FC JUMP JUMPDEST PUSH2 0x360 PUSH1 0x12 PUSH2 0xE08 JUMP JUMPDEST SWAP1 PUSH2 0x2FB PUSH2 0x175E PUSH2 0x2336 DUP5 PUSH2 0xFB7 JUMP JUMPDEST SWAP4 PUSH2 0x689 JUMP JUMPDEST PUSH2 0x2345 DUP2 PUSH2 0x2912 JUMP JUMPDEST SWAP1 PUSH2 0x2356 PUSH1 0x1 SWAP3 PUSH2 0x4E6 PUSH1 0x1 PUSH2 0x424 JUMP JUMPDEST SWAP2 DUP1 PUSH2 0x2361 DUP5 PUSH2 0x2326 JUMP JUMPDEST SWAP4 PUSH1 0x20 ADD DUP5 ADD SWAP1 JUMPDEST PUSH2 0x2374 JUMPI JUMPDEST POP POP POP SWAP1 JUMP JUMPDEST DUP2 ISZERO PUSH2 0x23C4 JUMPI PUSH2 0x23A8 SWAP1 PUSH1 0x0 NOT ADD SWAP3 PUSH16 0x181899199A1A9B1B9C1CB0B131B232B3 PUSH1 0x81 SHL PUSH1 0xA DUP3 MOD BYTE DUP5 MSTORE8 PUSH2 0x107D PUSH1 0xA PUSH2 0x424 JUMP JUMPDEST SWAP1 DUP2 PUSH2 0x23B7 PUSH2 0xEC9 PUSH1 0x0 PUSH2 0x424 JUMP JUMPDEST EQ PUSH2 0x23C4 JUMPI SWAP1 SWAP2 DUP2 PUSH2 0x2369 JUMP JUMPDEST PUSH2 0x236E JUMP JUMPDEST SWAP2 SWAP3 SWAP1 PUSH1 0x0 SWAP3 PUSH2 0x23D8 DUP5 PUSH2 0x126C JUMP JUMPDEST SWAP2 PUSH2 0x23E2 DUP4 PUSH2 0x39A JUMP JUMPDEST PUSH2 0x23EB DUP3 PUSH2 0x39A JUMP JUMPDEST EQ PUSH2 0x2435 JUMPI PUSH2 0x23FE DUP4 DUP8 PUSH2 0x2404 SWAP4 PUSH2 0x1F14 JUMP JUMPDEST SWAP3 PUSH2 0x39A JUMP JUMPDEST PUSH2 0x240D DUP4 PUSH2 0x39A JUMP JUMPDEST SUB PUSH2 0x2428 JUMPI PUSH4 0x7E273289 PUSH1 0xE0 SHL DUP5 MSTORE PUSH1 0x4 DUP5 ADD DUP6 SWAP1 MSTORE PUSH1 0x24 DUP5 REVERT JUMPDEST PUSH2 0x12DF DUP2 SWAP6 SWAP3 SWAP4 SWAP6 PUSH2 0x39A JUMP JUMPDEST PUSH4 0x32505749 PUSH1 0xE1 SHL DUP6 MSTORE DUP5 DUP1 PUSH2 0xE7B DUP6 PUSH1 0x4 DUP4 ADD PUSH2 0x3C6 JUMP JUMPDEST PUSH4 0x4E487B71 PUSH1 0xE0 SHL PUSH1 0x0 MSTORE PUSH1 0x31 PUSH1 0x4 MSTORE PUSH1 0x24 PUSH1 0x0 REVERT JUMPDEST DUP1 SLOAD DUP1 ISZERO PUSH2 0x2487 JUMPI PUSH1 0x0 NOT ADD SWAP1 PUSH2 0x2484 PUSH2 0x247E DUP4 DUP4 PUSH2 0xC24 JUMP JUMPDEST SWAP1 PUSH2 0x1569 JUMP JUMPDEST SSTORE JUMP JUMPDEST PUSH2 0x244E JUMP JUMPDEST PUSH1 0x0 PUSH2 0x24EE PUSH2 0x2FB SWAP3 PUSH1 0x11 PUSH2 0x1371 PUSH2 0x24E9 PUSH2 0x24AA PUSH2 0x1376 DUP6 DUP6 PUSH2 0x431 JUMP JUMPDEST PUSH2 0x360 PUSH1 0x10 SWAP2 PUSH2 0x24E4 PUSH2 0x24CA PUSH2 0xC64 PUSH2 0x24C4 PUSH2 0x14AB DUP8 SLOAD SWAP1 JUMP JUMPDEST DUP7 PUSH2 0xC24 JUMP JUMPDEST PUSH2 0x24DE DUP2 PUSH2 0x24D8 DUP6 DUP9 PUSH2 0xC24 JUMP JUMPDEST SWAP1 PUSH2 0x1550 JUMP JUMPDEST DUP8 PUSH2 0x431 JUMP JUMPDEST PUSH2 0xF4C JUMP JUMPDEST PUSH2 0x2464 JUMP JUMPDEST PUSH2 0x1569 JUMP JUMPDEST SWAP1 DUP2 SLOAD SWAP2 PUSH9 0x10000000000000000 DUP4 LT ISZERO PUSH2 0x670 JUMPI DUP3 PUSH2 0x24D8 SWAP2 PUSH1 0x1 PUSH2 0x2FB SWAP6 ADD DUP2 SSTORE PUSH2 0xC24 JUMP JUMPDEST PUSH2 0x2FB SWAP1 PUSH2 0x252A DUP2 PUSH1 0x10 PUSH2 0x24F3 JUMP JUMPDEST PUSH2 0x24E4 PUSH2 0x2539 PUSH2 0x14AB PUSH1 0x10 SLOAD SWAP1 JUMP JUMPDEST SWAP2 PUSH1 0x11 PUSH2 0x431 JUMP JUMPDEST PUSH4 0x780E9D63 PUSH1 0xE0 SHL PUSH1 0x1 PUSH1 0x1 PUSH1 0xE0 SHL SUB NOT DUP3 AND EQ SWAP1 DUP2 ISZERO PUSH2 0x2560 JUMPI POP SWAP1 JUMP JUMPDEST PUSH2 0x360 SWAP2 POP PUSH2 0x2AA6 JUMP JUMPDEST PUSH2 0x1E6A PUSH2 0x360 SWAP2 PUSH2 0x2579 PUSH1 0x0 SWAP1 JUMP JUMPDEST POP PUSH1 0x2 PUSH2 0x431 JUMP JUMPDEST SWAP3 SWAP2 SWAP1 SWAP2 DUP1 DUP2 ISZERO PUSH2 0x268F JUMPI JUMPDEST PUSH2 0x25A8 JUMPI JUMPDEST POP POP SWAP1 PUSH2 0x25A3 PUSH2 0x2FB SWAP3 PUSH1 0x4 PUSH2 0x431 JUMP JUMPDEST PUSH2 0x142D JUMP JUMPDEST PUSH2 0x25B1 DUP4 PUSH2 0x1E13 JUMP JUMPDEST SWAP2 PUSH1 0x0 SWAP1 PUSH2 0x25C1 PUSH2 0x1405 DUP4 PUSH2 0x126C JUMP JUMPDEST PUSH2 0x25CA DUP3 PUSH2 0x39A JUMP JUMPDEST EQ ISZERO DUP1 PUSH2 0x2675 JUMPI JUMPDEST DUP1 PUSH2 0x265E JUMPI JUMPDEST PUSH2 0x2645 JUMPI POP POP SWAP2 PUSH2 0x25A3 SWAP2 PUSH2 0x2FB SWAP5 SWAP4 PUSH2 0x25F5 JUMPI JUMPDEST POP SWAP2 SWAP3 PUSH2 0x2592 JUMP JUMPDEST PUSH2 0x25FE SWAP1 PUSH2 0xF84 JUMP JUMPDEST PUSH2 0x2607 DUP5 PUSH2 0xF84 JUMP JUMPDEST PUSH2 0x2610 DUP4 PUSH2 0x424 JUMP JUMPDEST SWAP2 PUSH32 0x8C5BE1E5EBEC7D5BD14F71427D1E84F3DD0314C0F7B2291E5B200AC8C7C3B925 PUSH2 0x263B PUSH1 0x40 MLOAD SWAP1 JUMP JUMPDEST PUSH1 0x0 SWAP1 LOG4 CODESIZE PUSH2 0x25ED JUMP JUMPDEST PUSH4 0xA9FBF51F PUSH1 0xE0 SHL DUP3 MSTORE DUP2 SWAP1 PUSH2 0xE7B SWAP1 PUSH1 0x4 DUP4 ADD PUSH2 0x3C6 JUMP JUMPDEST POP PUSH2 0x2670 PUSH2 0x266C DUP3 DUP7 PUSH2 0x1D72 JUMP JUMPDEST ISZERO SWAP1 JUMP JUMPDEST PUSH2 0x25D8 JUMP JUMPDEST POP PUSH2 0x267F DUP2 PUSH2 0x39A JUMP JUMPDEST PUSH2 0x2688 DUP6 PUSH2 0x39A JUMP JUMPDEST EQ ISZERO PUSH2 0x25D2 JUMP JUMPDEST POP PUSH2 0x269D PUSH2 0x1405 PUSH1 0x0 PUSH2 0x126C JUMP JUMPDEST PUSH2 0x26A6 DUP4 PUSH2 0x39A JUMP JUMPDEST EQ ISZERO PUSH2 0x258D JUMP JUMPDEST SWAP1 PUSH2 0x2FB SWAP3 SWAP2 PUSH2 0x26BD DUP3 DUP3 PUSH2 0x2AF1 JUMP JUMPDEST PUSH2 0x1977 PUSH1 0x0 PUSH2 0x126C JUMP JUMPDEST SWAP1 SWAP2 PUSH2 0x26D4 SWAP1 DUP4 DUP4 PUSH2 0x2B67 JUMP JUMPDEST SWAP2 PUSH2 0x2702 PUSH2 0x26E2 PUSH1 0x0 PUSH2 0x126C JUMP JUMPDEST PUSH2 0x26EB DUP2 PUSH2 0x39A JUMP JUMPDEST PUSH2 0x26F4 DUP7 PUSH2 0x39A JUMP JUMPDEST SUB PUSH2 0x273F JUMPI PUSH2 0x1405 DUP4 PUSH2 0x2D16 JUMP JUMPDEST PUSH2 0x270B DUP4 PUSH2 0x39A JUMP JUMPDEST SUB PUSH2 0x271A JUMPI PUSH2 0x360 SWAP2 POP PUSH2 0x2D67 JUMP JUMPDEST PUSH2 0x2723 DUP3 PUSH2 0x39A JUMP JUMPDEST PUSH2 0x272C DUP5 PUSH2 0x39A JUMP JUMPDEST SUB PUSH2 0x2736 JUMPI POP POP SWAP1 JUMP JUMPDEST PUSH2 0x360 SWAP2 PUSH2 0x2D38 JUMP JUMPDEST PUSH2 0x2748 DUP5 PUSH2 0x39A JUMP JUMPDEST PUSH2 0x2751 DUP7 PUSH2 0x39A JUMP JUMPDEST EQ PUSH2 0x39A JUMPI PUSH2 0x1405 DUP4 DUP7 PUSH2 0x2C95 JUMP JUMPDEST PUSH1 0x0 PUSH2 0x285B PUSH2 0xEC9 PUSH2 0x2855 PUSH2 0x2774 DUP5 PUSH2 0x424 JUMP JUMPDEST SWAP5 PUSH2 0x2788 PUSH2 0x2782 PUSH1 0x80 PUSH2 0x2069 JUMP JUMPDEST DUP3 PUSH2 0x2076 JUMP JUMPDEST DUP7 DUP2 GT PUSH2 0x28FB JUMPI JUMPDEST POP PUSH2 0x279E PUSH2 0x2782 PUSH1 0x40 PUSH2 0x2069 JUMP JUMPDEST PUSH2 0x27A7 DUP7 PUSH2 0x424 JUMP JUMPDEST DUP2 GT PUSH2 0x28E4 JUMPI JUMPDEST POP PUSH2 0x27BC PUSH2 0x2782 PUSH1 0x20 PUSH2 0x2069 JUMP JUMPDEST PUSH2 0x27C5 DUP7 PUSH2 0x424 JUMP JUMPDEST DUP2 GT PUSH2 0x28CD JUMPI JUMPDEST POP PUSH2 0x27DA PUSH2 0x2782 PUSH1 0x10 PUSH2 0x2069 JUMP JUMPDEST PUSH2 0x27E3 DUP7 PUSH2 0x424 JUMP JUMPDEST DUP2 GT PUSH2 0x28B6 JUMPI JUMPDEST POP PUSH2 0x27F8 PUSH2 0x2782 PUSH1 0x8 PUSH2 0x2069 JUMP JUMPDEST PUSH2 0x2801 DUP7 PUSH2 0x424 JUMP JUMPDEST DUP2 GT PUSH2 0x289F JUMPI JUMPDEST POP PUSH2 0x2816 PUSH2 0x2782 PUSH1 0x4 PUSH2 0x2069 JUMP JUMPDEST PUSH2 0x281F DUP7 PUSH2 0x424 JUMP JUMPDEST DUP2 GT PUSH2 0x2888 JUMPI JUMPDEST POP PUSH2 0x2834 PUSH2 0x2782 PUSH1 0x2 PUSH2 0x2069 JUMP JUMPDEST PUSH2 0x283D DUP7 PUSH2 0x424 JUMP JUMPDEST DUP2 GT PUSH2 0x2871 JUMPI JUMPDEST POP PUSH2 0x284F PUSH1 0x1 PUSH2 0x2069 JUMP JUMPDEST SWAP1 PUSH2 0x2076 JUMP JUMPDEST SWAP3 PUSH2 0x424 JUMP JUMPDEST GT PUSH2 0x2863 JUMPI SWAP1 JUMP JUMPDEST PUSH2 0x360 SWAP1 PUSH2 0x4E6 PUSH1 0x1 PUSH2 0x424 JUMP JUMPDEST PUSH2 0x2881 SWAP2 POP SWAP6 PUSH2 0x4E6 PUSH1 0x2 PUSH2 0x424 JUMP JUMPDEST SWAP5 CODESIZE PUSH2 0x2844 JUMP JUMPDEST PUSH2 0x2898 SWAP2 POP SWAP6 PUSH2 0x4E6 PUSH1 0x4 PUSH2 0x424 JUMP JUMPDEST SWAP5 CODESIZE PUSH2 0x2826 JUMP JUMPDEST PUSH2 0x28AF SWAP2 POP SWAP6 PUSH2 0x4E6 PUSH1 0x8 PUSH2 0x424 JUMP JUMPDEST SWAP5 CODESIZE PUSH2 0x2808 JUMP JUMPDEST PUSH2 0x28C6 SWAP2 POP SWAP6 PUSH2 0x4E6 PUSH1 0x10 PUSH2 0x424 JUMP JUMPDEST SWAP5 CODESIZE PUSH2 0x27EA JUMP JUMPDEST PUSH2 0x28DD SWAP2 POP SWAP6 PUSH2 0x4E6 PUSH1 0x20 PUSH2 0x424 JUMP JUMPDEST SWAP5 CODESIZE PUSH2 0x27CC JUMP JUMPDEST PUSH2 0x28F4 SWAP2 POP SWAP6 PUSH2 0x4E6 PUSH1 0x40 PUSH2 0x424 JUMP JUMPDEST SWAP5 CODESIZE PUSH2 0x27AE JUMP JUMPDEST PUSH2 0x290B SWAP2 POP SWAP6 PUSH2 0x4E6 PUSH1 0x80 PUSH2 0x424 JUMP JUMPDEST SWAP5 CODESIZE PUSH2 0x2790 JUMP JUMPDEST PUSH2 0x291C PUSH1 0x0 PUSH2 0x424 JUMP JUMPDEST SWAP1 PUSH27 0x184F03E93FF9F4DAA797ED6E38ED64BF6A1F010000000000000000 PUSH2 0x2942 DUP2 PUSH2 0x424 JUMP JUMPDEST DUP3 LT ISZERO PUSH2 0x2A84 JUMPI JUMPDEST POP PUSH14 0x4EE2D6D415B85ACEF8100000000 PUSH2 0x2963 DUP2 PUSH2 0x424 JUMP JUMPDEST DUP3 LT ISZERO PUSH2 0x2A62 JUMPI JUMPDEST POP PUSH7 0x2386F26FC10000 PUSH2 0x297D DUP2 PUSH2 0x424 JUMP JUMPDEST DUP3 LT ISZERO PUSH2 0x2A40 JUMPI JUMPDEST POP PUSH4 0x5F5E100 PUSH2 0x2994 DUP2 PUSH2 0x424 JUMP JUMPDEST DUP3 LT ISZERO PUSH2 0x2A1E JUMPI JUMPDEST POP PUSH2 0x2710 PUSH2 0x29A9 DUP2 PUSH2 0x424 JUMP JUMPDEST DUP3 LT ISZERO PUSH2 0x29FC JUMPI JUMPDEST POP PUSH2 0x29BC PUSH1 0x64 PUSH2 0x424 JUMP JUMPDEST DUP2 LT ISZERO PUSH2 0x29DA JUMPI JUMPDEST PUSH2 0x29D1 PUSH2 0xEC9 PUSH1 0xA PUSH2 0x424 JUMP JUMPDEST LT ISZERO PUSH2 0x2863 JUMPI SWAP1 JUMP JUMPDEST PUSH2 0x29EB PUSH2 0x29F6 SWAP2 PUSH2 0x107D PUSH1 0x64 PUSH2 0x424 JUMP JUMPDEST SWAP2 PUSH2 0x4E6 PUSH1 0x2 PUSH2 0x424 JUMP JUMPDEST SWAP1 PUSH2 0x29C4 JUMP JUMPDEST PUSH2 0x2A17 SWAP2 PUSH2 0x107D PUSH2 0x2A0C SWAP3 PUSH2 0x424 JUMP JUMPDEST SWAP2 PUSH2 0x4E6 PUSH1 0x4 PUSH2 0x424 JUMP JUMPDEST SWAP1 CODESIZE PUSH2 0x29B1 JUMP JUMPDEST PUSH2 0x2A39 SWAP2 PUSH2 0x107D PUSH2 0x2A2E SWAP3 PUSH2 0x424 JUMP JUMPDEST SWAP2 PUSH2 0x4E6 PUSH1 0x8 PUSH2 0x424 JUMP JUMPDEST SWAP1 CODESIZE PUSH2 0x299C JUMP JUMPDEST PUSH2 0x2A5B SWAP2 PUSH2 0x107D PUSH2 0x2A50 SWAP3 PUSH2 0x424 JUMP JUMPDEST SWAP2 PUSH2 0x4E6 PUSH1 0x10 PUSH2 0x424 JUMP JUMPDEST SWAP1 CODESIZE PUSH2 0x2985 JUMP JUMPDEST PUSH2 0x2A7D SWAP2 PUSH2 0x107D PUSH2 0x2A72 SWAP3 PUSH2 0x424 JUMP JUMPDEST SWAP2 PUSH2 0x4E6 PUSH1 0x20 PUSH2 0x424 JUMP JUMPDEST SWAP1 CODESIZE PUSH2 0x296B JUMP JUMPDEST PUSH2 0x2A9F SWAP2 PUSH2 0x107D PUSH2 0x2A94 SWAP3 PUSH2 0x424 JUMP JUMPDEST SWAP2 PUSH2 0x4E6 PUSH1 0x40 PUSH2 0x424 JUMP JUMPDEST SWAP1 CODESIZE PUSH2 0x294A JUMP JUMPDEST PUSH4 0x80AC58CD PUSH1 0xE0 SHL PUSH1 0x1 PUSH1 0x1 PUSH1 0xE0 SHL SUB NOT DUP3 AND EQ SWAP1 DUP2 ISZERO PUSH2 0x2AD6 JUMPI JUMPDEST DUP2 ISZERO PUSH2 0x2ACC JUMPI POP SWAP1 JUMP JUMPDEST PUSH2 0x360 SWAP2 POP PUSH2 0x2DB5 JUMP JUMPDEST PUSH1 0x1 PUSH1 0x1 PUSH1 0xE0 SHL SUB NOT DUP2 AND PUSH4 0x5B5E139F PUSH1 0xE0 SHL EQ SWAP2 POP PUSH2 0x2AC2 JUMP JUMPDEST PUSH1 0x0 SWAP2 PUSH2 0x2AFD DUP4 PUSH2 0x126C JUMP JUMPDEST SWAP2 PUSH2 0x2B07 DUP4 PUSH2 0x39A JUMP JUMPDEST PUSH2 0x2B10 DUP3 PUSH2 0x39A JUMP JUMPDEST EQ PUSH2 0x2B4E JUMPI PUSH2 0x2B20 SWAP2 DUP4 SWAP2 PUSH2 0x1F14 JUMP JUMPDEST PUSH2 0x2B2C PUSH2 0x1AA2 DUP4 PUSH2 0x39A JUMP JUMPDEST SUB PUSH2 0x2B35 JUMPI POP POP JUMP JUMPDEST PUSH4 0x39E35637 PUSH1 0xE1 SHL DUP3 MSTORE DUP2 SWAP1 PUSH2 0xE7B SWAP1 PUSH1 0x4 DUP4 ADD PUSH2 0x3C6 JUMP JUMPDEST PUSH4 0x32505749 PUSH1 0xE1 SHL DUP5 MSTORE DUP4 DUP1 PUSH2 0xE7B DUP6 PUSH1 0x4 DUP4 ADD PUSH2 0x3C6 JUMP JUMPDEST SWAP1 PUSH2 0x2BBA PUSH2 0x2B74 DUP3 PUSH2 0x256A JUMP JUMPDEST SWAP4 PUSH1 0x0 PUSH2 0x2B80 DUP2 PUSH2 0x126C JUMP JUMPDEST SWAP2 DUP5 PUSH2 0x2B8B DUP5 PUSH2 0x39A JUMP JUMPDEST PUSH2 0x2B94 DUP4 PUSH2 0x39A JUMP JUMPDEST SUB PUSH2 0x2C84 JUMPI JUMPDEST POP POP PUSH2 0x2BA5 DUP3 PUSH2 0x39A JUMP JUMPDEST PUSH2 0x2BAE DUP8 PUSH2 0x39A JUMP JUMPDEST SUB PUSH2 0x2C49 JUMPI JUMPDEST POP PUSH2 0x39A JUMP JUMPDEST PUSH2 0x2BC3 DUP4 PUSH2 0x39A JUMP JUMPDEST SUB PUSH2 0x2C19 JUMPI JUMPDEST PUSH2 0x2BD8 DUP3 PUSH2 0x25A3 DUP4 PUSH1 0x2 PUSH2 0x431 JUMP JUMPDEST PUSH2 0x2BE7 PUSH2 0x1B17 PUSH2 0x2041 DUP6 PUSH2 0xF84 JUMP JUMPDEST SWAP2 PUSH32 0xDDF252AD1BE2C89B69C2B068FC378DAA952BA7F163C4A11628F55A4DF523B3EF PUSH2 0x2C12 PUSH1 0x40 MLOAD SWAP1 JUMP JUMPDEST PUSH1 0x0 SWAP1 LOG4 SWAP1 JUMP JUMPDEST PUSH2 0x2C44 PUSH2 0x2C26 PUSH1 0x1 PUSH2 0x424 JUMP JUMPDEST PUSH2 0x2C3E PUSH2 0x2C34 DUP6 PUSH1 0x3 PUSH2 0x1342 JUMP JUMPDEST SWAP2 PUSH2 0x4E6 DUP4 PUSH2 0xDBD JUMP JUMPDEST SWAP1 PUSH2 0xF4C JUMP JUMPDEST PUSH2 0x2BC9 JUMP JUMPDEST PUSH2 0x2C55 SWAP1 DUP3 DUP6 DUP2 PUSH2 0x2581 JUMP JUMPDEST PUSH2 0x2C7E PUSH2 0x2C62 PUSH1 0x1 PUSH2 0x424 JUMP JUMPDEST PUSH2 0x2C3E PUSH2 0x2C70 DUP9 PUSH1 0x3 PUSH2 0x1342 JUMP JUMPDEST SWAP2 PUSH2 0x2C7A DUP4 PUSH2 0xDBD JUMP JUMPDEST SUB SWAP1 JUMP JUMPDEST CODESIZE PUSH2 0x2BB4 JUMP JUMPDEST PUSH2 0x2C8E SWAP2 DUP9 PUSH2 0x2DC5 JUMP JUMPDEST CODESIZE DUP5 PUSH2 0x2B9A JUMP JUMPDEST PUSH2 0x24EE PUSH2 0x2FB SWAP3 PUSH2 0x1371 PUSH1 0x0 SWAP4 PUSH2 0x2CD4 DUP6 PUSH2 0x24EE PUSH2 0x2CB2 DUP5 PUSH2 0x181D JUMP JUMPDEST SWAP6 PUSH1 0x7 DUP6 PUSH2 0x2CC3 PUSH2 0x1376 DUP5 DUP5 PUSH2 0x431 JUMP JUMPDEST DUP10 DUP1 DUP3 SUB PUSH2 0x2CDB JUMPI JUMPDEST POP POP POP PUSH2 0x431 JUMP JUMPDEST PUSH1 0x6 PUSH2 0x1342 JUMP JUMPDEST PUSH2 0x1371 PUSH2 0x2D08 DUP5 PUSH2 0x24E4 DUP6 PUSH2 0x2CFE PUSH2 0x1376 PUSH2 0x24E4 SWAP8 PUSH2 0x1371 PUSH2 0x2D0E SWAP12 PUSH1 0x6 PUSH2 0x1342 JUMP JUMPDEST SWAP5 DUP6 SWAP4 PUSH1 0x6 PUSH2 0x1342 JUMP JUMPDEST DUP5 PUSH2 0x431 JUMP JUMPDEST DUP6 CODESIZE DUP10 PUSH2 0x2CCC JUMP JUMPDEST PUSH2 0x2FB SWAP1 PUSH2 0x2D31 PUSH2 0x2D26 PUSH1 0x8 SLOAD SWAP1 JUMP JUMPDEST PUSH2 0x24E4 DUP4 PUSH1 0x9 PUSH2 0x431 JUMP JUMPDEST PUSH1 0x8 PUSH2 0x24F3 JUMP JUMPDEST PUSH2 0x24E4 DUP3 PUSH2 0x2D60 PUSH2 0x2FB SWAP5 PUSH2 0x24E4 PUSH2 0x1371 SWAP6 PUSH2 0x2D56 PUSH2 0x14AB DUP3 PUSH2 0x181D JUMP JUMPDEST SWAP7 DUP8 SWAP2 PUSH1 0x6 PUSH2 0x1342 JUMP JUMPDEST PUSH1 0x7 PUSH2 0x431 JUMP JUMPDEST PUSH2 0x24E9 PUSH2 0x2FB SWAP2 PUSH2 0x360 PUSH1 0x0 PUSH2 0x24EE PUSH1 0x8 SWAP4 PUSH2 0x2D84 PUSH2 0x14AB DUP7 SLOAD SWAP1 JUMP JUMPDEST PUSH2 0x1371 PUSH1 0x9 SWAP2 PUSH2 0x24E4 PUSH2 0x2DA7 PUSH2 0xC64 PUSH2 0x2DA0 PUSH2 0x1376 DUP9 DUP9 PUSH2 0x431 JUMP JUMPDEST SWAP4 DUP12 PUSH2 0xC24 JUMP JUMPDEST PUSH2 0x2D08 DUP2 PUSH2 0x24D8 DUP6 DUP14 PUSH2 0xC24 JUMP JUMPDEST PUSH2 0xE04 PUSH4 0x1FFC9A7 PUSH1 0xE0 SHL PUSH2 0xDF6 JUMP JUMPDEST SWAP1 PUSH2 0x2DD4 PUSH2 0x266C DUP5 DUP4 DUP6 PUSH2 0x2E25 JUMP JUMPDEST PUSH2 0x2DDD JUMPI POP POP POP JUMP JUMPDEST PUSH1 0x0 SWAP3 DUP4 SWAP3 PUSH2 0x2DF1 PUSH2 0x1AA2 PUSH2 0x1405 DUP7 PUSH2 0x126C JUMP JUMPDEST SUB PUSH2 0x2E0E JUMPI PUSH4 0x7E273289 PUSH1 0xE0 SHL DUP4 MSTORE PUSH1 0x4 DUP4 ADD MSTORE POP PUSH1 0x24 DUP2 ADD SUB SWAP1 REVERT JUMPDEST PUSH4 0x177E802F PUSH1 0xE0 SHL DUP4 MSTORE PUSH2 0xE7B SWAP2 PUSH1 0x4 DUP5 ADD PUSH2 0x1327 JUMP JUMPDEST SWAP1 PUSH2 0x2E33 PUSH2 0x1405 PUSH1 0x0 PUSH2 0x126C JUMP JUMPDEST PUSH2 0x2E3C DUP3 PUSH2 0x39A JUMP JUMPDEST EQ ISZERO SWAP3 DUP4 PUSH2 0x2E4A JUMPI POP POP POP SWAP1 JUMP JUMPDEST SWAP1 SWAP2 SWAP3 POP PUSH2 0x2E57 DUP3 PUSH2 0x39A JUMP JUMPDEST PUSH2 0x2E60 DUP5 PUSH2 0x39A JUMP JUMPDEST EQ SWAP3 DUP4 ISZERO PUSH2 0x2E95 JUMPI JUMPDEST POP DUP3 ISZERO PUSH2 0x2E7B JUMPI JUMPDEST POP POP CODESIZE DUP1 DUP1 PUSH2 0x236E JUMP JUMPDEST PUSH2 0x2E8D SWAP2 SWAP3 POP PUSH2 0x23FE PUSH2 0x1AA2 SWAP2 PUSH2 0x1E53 JUMP JUMPDEST EQ CODESIZE DUP1 PUSH2 0x2E71 JUMP JUMPDEST PUSH2 0x2EA2 SWAP2 SWAP4 POP DUP3 SWAP1 PUSH2 0x1D72 JUMP JUMPDEST SWAP2 CODESIZE PUSH2 0x2E69 JUMP INVALID LOG2 PUSH5 0x6970667358 0x22 SLT KECCAK256 PUSH30 0x7EEB41D58F0494D529E0A7ABB1635CCB797E0BF42E71C070DE08FD68C55C DUP8 PUSH5 0x736F6C6343 STOP ADDMOD SHR STOP CALLER "},"methodIdentifiers":{"approve(address,uint256)":"095ea7b3","availableTokens(uint256)":"ad64d068","balanceOf(address)":"70a08231","baseURI()":"6c0360eb","buy(uint256)":"d96a094a","calculatePrice(uint256)":"ae104265","creator()":"02d05d3f","creatorFeePercent()":"53613dd3","currentSupply()":"771282f6","description()":"7284e416","getAllAvailableTokens()":"12ea5c7e","getApproved(uint256)":"081812fc","getAvailableTokenByIndex(uint256)":"cf6a68bf","getAvailableTokensCount()":"2dcd52f2","getAvailableTokensPaginated(uint256,uint256)":"5eba096b","getBuyPrice()":"018a25e8","getBuyPriceAfterFee()":"4a8fe650","getSellPrice()":"43d32e9c","getSellPriceAfterFee()":"21a1c184","initialPrice()":"1d0806ae","isApprovedForAll(address,address)":"e985e9c5","isOnSale(uint256)":"f0f2805f","maxSupply()":"d5abeb01","mint()":"1249c58b","name()":"06fdde03","onERC721Received(address,address,uint256,bytes)":"150b7a02","owner()":"8da5cb5b","ownerOf(uint256)":"6352211e","renounceOwnership()":"715018a6","safeTransferFrom(address,address,uint256)":"42842e0e","safeTransferFrom(address,address,uint256,bytes)":"b88d4fde","sell(uint256)":"e4849b32","setApprovalForAll(address,bool)":"a22cb465","setBaseURI(string)":"55f804b3","setCreator(address)":"3f516018","setDescription(string)":"90c3f38f","supportsInterface(bytes4)":"01ffc9a7","symbol()":"95d89b41","tokenByIndex(uint256)":"4f6ccce7","tokenIndex(uint256)":"0583e9f8","tokenOfOwnerByIndex(address,uint256)":"2f745c59","tokenURI(uint256)":"c87b56dd","totalSupply()":"18160ddd","transferFrom(address,address,uint256)":"23b872dd","transferOwnership(address)":"f2fde38b"}}}}}