{"src/periphery/FlipPeriphery.sol":{"FlipPeriphery":{"abi":[{"anonymous":false,"inputs":[{"indexed":true,"internalType":"address","name":"buyer","type":"address"},{"indexed":false,"internalType":"uint256[]","name":"tokenIds","type":"uint256[]"},{"indexed":false,"internalType":"uint256","name":"totalPrice","type":"uint256"}],"name":"BulkBuyExecuted","type":"event"},{"anonymous":false,"inputs":[{"indexed":true,"internalType":"address","name":"buyer","type":"address"},{"indexed":false,"internalType":"uint256","name":"quantity","type":"uint256"},{"indexed":false,"internalType":"uint256","name":"totalPrice","type":"uint256"}],"name":"BulkMintExecuted","type":"event"},{"anonymous":false,"inputs":[{"indexed":true,"internalType":"address","name":"buyer","type":"address"},{"indexed":false,"internalType":"uint256","name":"quantity","type":"uint256"},{"indexed":false,"internalType":"uint256","name":"totalPrice","type":"uint256"}],"name":"BulkQuickBuyExecuted","type":"event"},{"anonymous":false,"inputs":[{"indexed":true,"internalType":"address","name":"seller","type":"address"},{"indexed":false,"internalType":"uint256[]","name":"tokenIds","type":"uint256[]"},{"indexed":false,"internalType":"uint256","name":"totalPrice","type":"uint256"}],"name":"BulkSellExecuted","type":"event"},{"anonymous":false,"inputs":[{"indexed":true,"internalType":"address","name":"buyer","type":"address"},{"indexed":true,"internalType":"uint256","name":"tokenId","type":"uint256"},{"indexed":false,"internalType":"uint256","name":"price","type":"uint256"}],"name":"QuickBuyExecuted","type":"event"},{"inputs":[{"internalType":"address","name":"_flipContractAddress","type":"address"},{"internalType":"uint256[]","name":"tokenIds","type":"uint256[]"}],"name":"bulkBuy","outputs":[],"stateMutability":"payable","type":"function"},{"inputs":[{"internalType":"address","name":"_flipContractAddress","type":"address"},{"internalType":"uint256","name":"quantity","type":"uint256"}],"name":"bulkMint","outputs":[],"stateMutability":"payable","type":"function"},{"inputs":[{"internalType":"address","name":"_flipContractAddress","type":"address"},{"internalType":"uint256","name":"quantity","type":"uint256"}],"name":"bulkQuickBuy","outputs":[],"stateMutability":"payable","type":"function"},{"inputs":[{"internalType":"address","name":"_flipContractAddress","type":"address"},{"internalType":"uint256[]","name":"tokenIds","type":"uint256[]"}],"name":"bulkSell","outputs":[],"stateMutability":"nonpayable","type":"function"},{"inputs":[{"internalType":"address","name":"","type":"address"},{"internalType":"address","name":"","type":"address"},{"internalType":"uint256","name":"","type":"uint256"},{"internalType":"bytes","name":"","type":"bytes"}],"name":"onERC721Received","outputs":[{"internalType":"bytes4","name":"","type":"bytes4"}],"stateMutability":"nonpayable","type":"function"},{"inputs":[{"internalType":"address","name":"_flipContractAddress","type":"address"}],"name":"quickBuy","outputs":[],"stateMutability":"payable","type":"function"},{"stateMutability":"payable","type":"receive"}],"evm":{"bytecode":{"linkReferences":{},"object":"60806040523460195760405161127761001f823961127790f35b600080fdfe6080604052600436101561001b575b361561001957600080fd5b005b60003560e01c8063150b7a021461007b57806340f3620a1461007657806399bd4737146100715780639cb3ecd01461006c578063a8c90cb2146100675763d17dbbc00361000e57610319565b6102f1565b6102dd565b6102a6565b610288565b6101e0565b6001600160a01b031690565b90565b6001600160a01b0381165b036100a157565b600080fd5b905035906100b38261008f565b565b8061009a565b905035906100b3826100b5565b634e487b7160e01b600052604160045260246000fd5b90601f01601f1916810190811067ffffffffffffffff82111761010057604052565b6100c8565b906100b361011260405190565b92836100de565b67ffffffffffffffff811161010057602090601f01601f19160190565b0190565b90826000939282370152565b9092919261015b61015682610119565b610105565b93818552818301116100a1576100b391602085019061013a565b9080601f830112156100a15781602061008c93359101610146565b906080828203126100a1576101a581836100a6565b926101b382602085016100a6565b926101c183604083016100bb565b92606082013567ffffffffffffffff81116100a15761008c9201610175565b346100a15761021a6101ff6101f6366004610190565b9291909161036f565b604051918291826001600160e01b0319909116815260200190565b0390f35b909182601f830112156100a15781359167ffffffffffffffff83116100a15760200192602083028401116100a157565b9190916040818403126100a15761026583826100a6565b92602082013567ffffffffffffffff81116100a157610284920161021e565b9091565b346100a1576102a161029b36600461024e565b91610576565b604051005b6102a16102b436600461024e565b9161088b565b91906040838203126100a15761008c9060206102d682866100a6565b94016100bb565b6102a16102eb3660046102ba565b90610b24565b6102a16102ff3660046102ba565b90610db4565b906020828203126100a15761008c916100a6565b6102a1610327366004610305565b610f88565b61008c90610080906001600160a01b031682565b61008c9061032c565b61036261035c61008c9263ffffffff1690565b60e01b90565b6001600160e01b03191690565b5050505061037b600090565b5061008c63150b7a02610349565b61008c90610340565b61008c61008c61008c9290565b634e487b7160e01b600052603260045260246000fd5b91908110156103c5576020020190565b61039f565b3561008c816100b5565b905051906100b38261008f565b906020828203126100a15761008c916103d4565b6040513d6000823e3d90fd5b1561040857565b60405162461bcd60e51b815260206004820152600f60248201526e2737ba103a37b5b2b71037bbb732b960891b6044820152606490fd5b905051906100b3826100b5565b906020828203126100a15761008c9161043f565b634e487b7160e01b600052601160045260246000fd5b9190820180921161048357565b610460565b60009103126100a157565b6001600160a01b039182168152911660208201526060810192916100b39160400152565b9037565b8183529091602001916001600160fb1b0381116100a1578291602061013692029384916104b7565b9392906105026020916100b394604088019188830360008a01526104bb565b940152565b9061051461015683610119565b918252565b3d15610533576105283d610507565b903d6000602084013e565b606090565b1561053f57565b60405162461bcd60e51b815260206004820152600f60248201526e151c985b9cd9995c8819985a5b1959608a1b6044820152606490fd5b9092919261058c61058683610389565b92610389565b9060009461059986610392565b91825b82811015610797576105b76105b28285856103b5565b6103ca565b906105c187610389565b946105cb60405190565b6331a9108f60e11b8152600481018490526020816024818a5afa80156107185761060891600091610769575b506001600160a01b03163314610401565b61061187610389565b90602061061d60405190565b630868706160e21b815292839060049082905afa9081156107185761064a92600092610739575b50610476565b9461065430610389565b813b156100a1578a846106839261066a60405190565b93849283926323b872dd60e01b84523360048501610493565b038183865af180156107185761071d575b50803b156100a1576106cc8a939184926106ad60405190565b95869384928391906372424d9960e11b5b835260048301526024820190565b03925af1918215610718576106e7926106ec575b5060010190565b61059c565b61070b908a3d8c11610711575b61070381836100de565b810190610488565b386106e0565b503d6106f9565b6103f5565b610733908b3d8d116107115761070381836100de565b38610694565b61075b91925060203d8111610762575b61075381836100de565b81019061044c565b9038610644565b503d610749565b61078a915060203d8111610790575b61078281836100de565b8101906103e1565b386105f7565b503d610778565b50908694506100b3959693507f9731f66294091699a1b52cf1e5067f6ac93ddebae6460879bbe049801062780e906107ce33610389565b926107e5856107dc60405190565b938493846104e3565b0390a2604051600091335af16107f9610519565b50610538565b1561080657565b60405162461bcd60e51b8152602060048201526014602482015273125b9cdd59999a58da595b9d081c185e5b595b9d60621b6044820152606490fd5b9190820391821161048357565b1561085657565b60405162461bcd60e51b815260206004820152600d60248201526c1499599d5b990819985a5b1959609a1b6044820152606490fd5b9092919261089b61058683610389565b936000926108a884610392565b95865b83881015610a10576108bc82610389565b9060206108c860405190565b6304a8fe6560e41b815292839060049082905afa918215610718576000926109ec575b50816108f691610476565b9761090084610389565b9163d96a094a6109146105b284898b6103b5565b843b156100a15761093a926106be8b9361092d60405190565b9586948593849360e01b90565b0391875af18015610718576109d0575b5061095430610389565b6109626105b283888a6103b5565b833b156100a15761099a9389928361097960405190565b80978195829461098d6323b872dd60e01b90565b8452339060048501610493565b03925af1918215610718576109b4926109ba575060010190565b966108ab565b61070b90883d8a116107115761070381836100de565b6109e690883d8a116107115761070381836100de565b3861094a565b6108f6919250610a099060203d81116107625761075381836100de565b91906108eb565b93929050610a70949596507fe4deca2a902ebbb74eb2363301ab98e258168e2dc6d9e504bae3cc9e73eeb2909150610a50610a488590565b3410156107ff565b610a5933610389565b92610a67856107dc60405190565b0390a234610842565b90610a7a81610392565b8211610a84575050565b806100b392610a9260405190565b600091335af1610aa0610519565b5061084f565b15610aad57565b60405162461bcd60e51b815260206004820152602960248201527f4e6f7420656e6f75676820746f6b656e7320617661696c61626c6520666f7220604482015268717569636b2062757960b81b6064820152608490fd5b8015610483576000190190565b9081526040810192916100b39160200152565b91610b2e83610389565b90610b41610b3b85610389565b94610389565b91600092610b57610b5185610392565b96610389565b6040516316e6a97960e11b815293602085600481855afa94851561071857600095610d93575b50939693610b958789610b8f565b9190565b11610aa6565b845b87861015610d3c57610bce986020610bb8610bb26001610392565b83610842565b6040519b8c9182919063cf6a68bf60e01b6106be565b0381875afa998a156107185760009a610d1c575b50610bec85610389565b916020610bf860405190565b6304a8fe6560e41b815293849060049082905afa92831561071857600093610cf8575b5082610c2691610476565b99610c3087610389565b9263d96a094a90843b156100a157610c56918b91610c4d60405190565b93849260e01b90565b8252600482018590526024908290885af1801561071857610cdc575b50610c7c30610389565b90833b156100a157610c94938a928361097960405190565b03925af190811561071857610cb992610cb292610cc0575b50610b04565b9560010190565b9497610b97565b610cd6908a3d8c116107115761070381836100de565b38610cac565b610cf2908a3d8c116107115761070381836100de565b38610c72565b610c26919350610d159060203d81116107625761075381836100de565b9290610c1b565b610d35919a5060203d81116107625761075381836100de565b9838610be2565b94509650505050610a709192610d52610a488390565b7f46fe258f9b69378b2af56b6f4717a455f67e88245e3eedd559efec2ccc047de482610d7d33610389565b92610a67610d8a60405190565b92839283610b11565b610dad91955060203d6020116107625761075381836100de565b9338610b7d565b610dc6610dc082610389565b91610389565b90600091610dd383610392565b94855b85871015610ef357610de783610389565b906020610df360405190565b6304a8fe6560e41b815292839060049082905afa91821561071857600092610ecf575b5081610e2191610476565b96610e406020610e3087610389565b93631249c58b90610c4d60405190565b82526004908290875af190811561071857600091610eb1575b50610e6330610389565b90833b156100a157610e7b9388928361097960405190565b03925af191821561071857610e9592610e9b575060010190565b95610dd6565b61070b90873d89116107115761070381836100de565b610ec9915060203d81116107625761075381836100de565b38610e59565b610e21919250610eec9060203d81116107625761075381836100de565b9190610e16565b9250945050610a709192610f07610a488390565b7f7612ff07618d9438cb4c66fb2e647e6be030a56a7bb621084de8e916ed50a0a882610d7d33610389565b15610f3957565b60405162461bcd60e51b815260206004820152602160248201527f4e6f20746f6b656e7320617661696c61626c6520666f7220717569636b2062756044820152607960f81b6064820152608490fd5b610f9181610389565b90610fa1610dc061058683610389565b632dcd52f291610fb060405190565b91610fbb8460e01b90565b8352602083600481845afa92831561071857600093611220575b50610fee600093610fe8610b8b86610392565b11610f32565b611001610ffa60405190565b9460e01b90565b8452602084600481845afa9081156107185761103660209261105496600091611203575b506110306001610392565b90610842565b9061104060405190565b9586928391829163cf6a68bf60e01b6106be565b03915afa928315610718576000936111de575b5061107190610389565b92602061107d60405190565b6304a8fe6560e41b815294859060049082905afa938415610718576000946111b9575b506110aa90610389565b63d96a094a813b156100a1576110c96110c260405190565b9160e01b90565b815260048101849052828160248188865af180156107185761119d575b506110f030610389565b90803b156100a15783839161111d938361110960405190565b80968195829461098d6323b872dd60e01b90565b03925af1801561071857611180575b50507fe6c0f990eeec49fb22637d492d2e1ea38a893b0e786aa61b8871dd338dfa7ed861117b61116461115e33610389565b93610392565b9361116e60405190565b9182918290815260200190565b0390a3565b8161119692903d106107115761070381836100de565b388061112c565b6111b390833d85116107115761070381836100de565b386110e6565b6110aa9194506111d79060203d6020116107625761075381836100de565b93906110a0565b6110719193506111fc9060203d6020116107625761075381836100de565b9290611067565b61121a9150843d86116107625761075381836100de565b38611025565b61123a91935060203d6020116107625761075381836100de565b9138610fd556fea264697066735822122080b4d2cb4968e839b998383a40695b74b38fd72806e843739fd6f051251918b164736f6c634300081c0033","opcodes":"PUSH1 0x80 PUSH1 0x40 MSTORE CALLVALUE PUSH1 0x19 JUMPI PUSH1 0x40 MLOAD PUSH2 0x1277 PUSH2 0x1F DUP3 CODECOPY PUSH2 0x1277 SWAP1 RETURN JUMPDEST PUSH1 0x0 DUP1 REVERT INVALID PUSH1 0x80 PUSH1 0x40 MSTORE PUSH1 0x4 CALLDATASIZE LT ISZERO PUSH2 0x1B JUMPI JUMPDEST CALLDATASIZE ISZERO PUSH2 0x19 JUMPI PUSH1 0x0 DUP1 REVERT JUMPDEST STOP JUMPDEST PUSH1 0x0 CALLDATALOAD PUSH1 0xE0 SHR DUP1 PUSH4 0x150B7A02 EQ PUSH2 0x7B JUMPI DUP1 PUSH4 0x40F3620A EQ PUSH2 0x76 JUMPI DUP1 PUSH4 0x99BD4737 EQ PUSH2 0x71 JUMPI DUP1 PUSH4 0x9CB3ECD0 EQ PUSH2 0x6C JUMPI DUP1 PUSH4 0xA8C90CB2 EQ PUSH2 0x67 JUMPI PUSH4 0xD17DBBC0 SUB PUSH2 0xE JUMPI PUSH2 0x319 JUMP JUMPDEST PUSH2 0x2F1 JUMP JUMPDEST PUSH2 0x2DD JUMP JUMPDEST PUSH2 0x2A6 JUMP JUMPDEST PUSH2 0x288 JUMP JUMPDEST PUSH2 0x1E0 JUMP JUMPDEST PUSH1 0x1 PUSH1 0x1 PUSH1 0xA0 SHL SUB AND SWAP1 JUMP JUMPDEST SWAP1 JUMP JUMPDEST PUSH1 0x1 PUSH1 0x1 PUSH1 0xA0 SHL SUB DUP2 AND JUMPDEST SUB PUSH2 0xA1 JUMPI JUMP JUMPDEST PUSH1 0x0 DUP1 REVERT JUMPDEST SWAP1 POP CALLDATALOAD SWAP1 PUSH2 0xB3 DUP3 PUSH2 0x8F JUMP JUMPDEST JUMP JUMPDEST DUP1 PUSH2 0x9A JUMP JUMPDEST SWAP1 POP CALLDATALOAD SWAP1 PUSH2 0xB3 DUP3 PUSH2 0xB5 JUMP JUMPDEST PUSH4 0x4E487B71 PUSH1 0xE0 SHL PUSH1 0x0 MSTORE PUSH1 0x41 PUSH1 0x4 MSTORE PUSH1 0x24 PUSH1 0x0 REVERT JUMPDEST SWAP1 PUSH1 0x1F ADD PUSH1 0x1F NOT AND DUP2 ADD SWAP1 DUP2 LT PUSH8 0xFFFFFFFFFFFFFFFF DUP3 GT OR PUSH2 0x100 JUMPI PUSH1 0x40 MSTORE JUMP JUMPDEST PUSH2 0xC8 JUMP JUMPDEST SWAP1 PUSH2 0xB3 PUSH2 0x112 PUSH1 0x40 MLOAD SWAP1 JUMP JUMPDEST SWAP3 DUP4 PUSH2 0xDE JUMP JUMPDEST PUSH8 0xFFFFFFFFFFFFFFFF DUP2 GT PUSH2 0x100 JUMPI PUSH1 0x20 SWAP1 PUSH1 0x1F ADD PUSH1 0x1F NOT AND ADD SWAP1 JUMP JUMPDEST ADD SWAP1 JUMP JUMPDEST SWAP1 DUP3 PUSH1 0x0 SWAP4 SWAP3 DUP3 CALLDATACOPY ADD MSTORE JUMP JUMPDEST SWAP1 SWAP3 SWAP2 SWAP3 PUSH2 0x15B PUSH2 0x156 DUP3 PUSH2 0x119 JUMP JUMPDEST PUSH2 0x105 JUMP JUMPDEST SWAP4 DUP2 DUP6 MSTORE DUP2 DUP4 ADD GT PUSH2 0xA1 JUMPI PUSH2 0xB3 SWAP2 PUSH1 0x20 DUP6 ADD SWAP1 PUSH2 0x13A JUMP JUMPDEST SWAP1 DUP1 PUSH1 0x1F DUP4 ADD SLT ISZERO PUSH2 0xA1 JUMPI DUP2 PUSH1 0x20 PUSH2 0x8C SWAP4 CALLDATALOAD SWAP2 ADD PUSH2 0x146 JUMP JUMPDEST SWAP1 PUSH1 0x80 DUP3 DUP3 SUB SLT PUSH2 0xA1 JUMPI PUSH2 0x1A5 DUP2 DUP4 PUSH2 0xA6 JUMP JUMPDEST SWAP3 PUSH2 0x1B3 DUP3 PUSH1 0x20 DUP6 ADD PUSH2 0xA6 JUMP JUMPDEST SWAP3 PUSH2 0x1C1 DUP4 PUSH1 0x40 DUP4 ADD PUSH2 0xBB JUMP JUMPDEST SWAP3 PUSH1 0x60 DUP3 ADD CALLDATALOAD PUSH8 0xFFFFFFFFFFFFFFFF DUP2 GT PUSH2 0xA1 JUMPI PUSH2 0x8C SWAP3 ADD PUSH2 0x175 JUMP JUMPDEST CALLVALUE PUSH2 0xA1 JUMPI PUSH2 0x21A PUSH2 0x1FF PUSH2 0x1F6 CALLDATASIZE PUSH1 0x4 PUSH2 0x190 JUMP JUMPDEST SWAP3 SWAP2 SWAP1 SWAP2 PUSH2 0x36F JUMP JUMPDEST PUSH1 0x40 MLOAD SWAP2 DUP3 SWAP2 DUP3 PUSH1 0x1 PUSH1 0x1 PUSH1 0xE0 SHL SUB NOT SWAP1 SWAP2 AND DUP2 MSTORE PUSH1 0x20 ADD SWAP1 JUMP JUMPDEST SUB SWAP1 RETURN JUMPDEST SWAP1 SWAP2 DUP3 PUSH1 0x1F DUP4 ADD SLT ISZERO PUSH2 0xA1 JUMPI DUP2 CALLDATALOAD SWAP2 PUSH8 0xFFFFFFFFFFFFFFFF DUP4 GT PUSH2 0xA1 JUMPI PUSH1 0x20 ADD SWAP3 PUSH1 0x20 DUP4 MUL DUP5 ADD GT PUSH2 0xA1 JUMPI JUMP JUMPDEST SWAP2 SWAP1 SWAP2 PUSH1 0x40 DUP2 DUP5 SUB SLT PUSH2 0xA1 JUMPI PUSH2 0x265 DUP4 DUP3 PUSH2 0xA6 JUMP JUMPDEST SWAP3 PUSH1 0x20 DUP3 ADD CALLDATALOAD PUSH8 0xFFFFFFFFFFFFFFFF DUP2 GT PUSH2 0xA1 JUMPI PUSH2 0x284 SWAP3 ADD PUSH2 0x21E JUMP JUMPDEST SWAP1 SWAP2 JUMP JUMPDEST CALLVALUE PUSH2 0xA1 JUMPI PUSH2 0x2A1 PUSH2 0x29B CALLDATASIZE PUSH1 0x4 PUSH2 0x24E JUMP JUMPDEST SWAP2 PUSH2 0x576 JUMP JUMPDEST PUSH1 0x40 MLOAD STOP JUMPDEST PUSH2 0x2A1 PUSH2 0x2B4 CALLDATASIZE PUSH1 0x4 PUSH2 0x24E JUMP JUMPDEST SWAP2 PUSH2 0x88B JUMP JUMPDEST SWAP2 SWAP1 PUSH1 0x40 DUP4 DUP3 SUB SLT PUSH2 0xA1 JUMPI PUSH2 0x8C SWAP1 PUSH1 0x20 PUSH2 0x2D6 DUP3 DUP7 PUSH2 0xA6 JUMP JUMPDEST SWAP5 ADD PUSH2 0xBB JUMP JUMPDEST PUSH2 0x2A1 PUSH2 0x2EB CALLDATASIZE PUSH1 0x4 PUSH2 0x2BA JUMP JUMPDEST SWAP1 PUSH2 0xB24 JUMP JUMPDEST PUSH2 0x2A1 PUSH2 0x2FF CALLDATASIZE PUSH1 0x4 PUSH2 0x2BA JUMP JUMPDEST SWAP1 PUSH2 0xDB4 JUMP JUMPDEST SWAP1 PUSH1 0x20 DUP3 DUP3 SUB SLT PUSH2 0xA1 JUMPI PUSH2 0x8C SWAP2 PUSH2 0xA6 JUMP JUMPDEST PUSH2 0x2A1 PUSH2 0x327 CALLDATASIZE PUSH1 0x4 PUSH2 0x305 JUMP JUMPDEST PUSH2 0xF88 JUMP JUMPDEST PUSH2 0x8C SWAP1 PUSH2 0x80 SWAP1 PUSH1 0x1 PUSH1 0x1 PUSH1 0xA0 SHL SUB AND DUP3 JUMP JUMPDEST PUSH2 0x8C SWAP1 PUSH2 0x32C JUMP JUMPDEST PUSH2 0x362 PUSH2 0x35C PUSH2 0x8C SWAP3 PUSH4 0xFFFFFFFF AND SWAP1 JUMP JUMPDEST PUSH1 0xE0 SHL SWAP1 JUMP JUMPDEST PUSH1 0x1 PUSH1 0x1 PUSH1 0xE0 SHL SUB NOT AND SWAP1 JUMP JUMPDEST POP POP POP POP PUSH2 0x37B PUSH1 0x0 SWAP1 JUMP JUMPDEST POP PUSH2 0x8C PUSH4 0x150B7A02 PUSH2 0x349 JUMP JUMPDEST PUSH2 0x8C SWAP1 PUSH2 0x340 JUMP JUMPDEST PUSH2 0x8C PUSH2 0x8C PUSH2 0x8C SWAP3 SWAP1 JUMP JUMPDEST PUSH4 0x4E487B71 PUSH1 0xE0 SHL PUSH1 0x0 MSTORE PUSH1 0x32 PUSH1 0x4 MSTORE PUSH1 0x24 PUSH1 0x0 REVERT JUMPDEST SWAP2 SWAP1 DUP2 LT ISZERO PUSH2 0x3C5 JUMPI PUSH1 0x20 MUL ADD SWAP1 JUMP JUMPDEST PUSH2 0x39F JUMP JUMPDEST CALLDATALOAD PUSH2 0x8C DUP2 PUSH2 0xB5 JUMP JUMPDEST SWAP1 POP MLOAD SWAP1 PUSH2 0xB3 DUP3 PUSH2 0x8F JUMP JUMPDEST SWAP1 PUSH1 0x20 DUP3 DUP3 SUB SLT PUSH2 0xA1 JUMPI PUSH2 0x8C SWAP2 PUSH2 0x3D4 JUMP JUMPDEST PUSH1 0x40 MLOAD RETURNDATASIZE PUSH1 0x0 DUP3 RETURNDATACOPY RETURNDATASIZE SWAP1 REVERT JUMPDEST ISZERO PUSH2 0x408 JUMPI JUMP JUMPDEST PUSH1 0x40 MLOAD PUSH3 0x461BCD PUSH1 0xE5 SHL DUP2 MSTORE PUSH1 0x20 PUSH1 0x4 DUP3 ADD MSTORE PUSH1 0xF PUSH1 0x24 DUP3 ADD MSTORE PUSH15 0x2737BA103A37B5B2B71037BBB732B9 PUSH1 0x89 SHL PUSH1 0x44 DUP3 ADD MSTORE PUSH1 0x64 SWAP1 REVERT JUMPDEST SWAP1 POP MLOAD SWAP1 PUSH2 0xB3 DUP3 PUSH2 0xB5 JUMP JUMPDEST SWAP1 PUSH1 0x20 DUP3 DUP3 SUB SLT PUSH2 0xA1 JUMPI PUSH2 0x8C SWAP2 PUSH2 0x43F JUMP JUMPDEST PUSH4 0x4E487B71 PUSH1 0xE0 SHL PUSH1 0x0 MSTORE PUSH1 0x11 PUSH1 0x4 MSTORE PUSH1 0x24 PUSH1 0x0 REVERT JUMPDEST SWAP2 SWAP1 DUP3 ADD DUP1 SWAP3 GT PUSH2 0x483 JUMPI JUMP JUMPDEST PUSH2 0x460 JUMP JUMPDEST PUSH1 0x0 SWAP2 SUB SLT PUSH2 0xA1 JUMPI JUMP JUMPDEST PUSH1 0x1 PUSH1 0x1 PUSH1 0xA0 SHL SUB SWAP2 DUP3 AND DUP2 MSTORE SWAP2 AND PUSH1 0x20 DUP3 ADD MSTORE PUSH1 0x60 DUP2 ADD SWAP3 SWAP2 PUSH2 0xB3 SWAP2 PUSH1 0x40 ADD MSTORE JUMP JUMPDEST SWAP1 CALLDATACOPY JUMP JUMPDEST DUP2 DUP4 MSTORE SWAP1 SWAP2 PUSH1 0x20 ADD SWAP2 PUSH1 0x1 PUSH1 0x1 PUSH1 0xFB SHL SUB DUP2 GT PUSH2 0xA1 JUMPI DUP3 SWAP2 PUSH1 0x20 PUSH2 0x136 SWAP3 MUL SWAP4 DUP5 SWAP2 PUSH2 0x4B7 JUMP JUMPDEST SWAP4 SWAP3 SWAP1 PUSH2 0x502 PUSH1 0x20 SWAP2 PUSH2 0xB3 SWAP5 PUSH1 0x40 DUP9 ADD SWAP2 DUP9 DUP4 SUB PUSH1 0x0 DUP11 ADD MSTORE PUSH2 0x4BB JUMP JUMPDEST SWAP5 ADD MSTORE JUMP JUMPDEST SWAP1 PUSH2 0x514 PUSH2 0x156 DUP4 PUSH2 0x119 JUMP JUMPDEST SWAP2 DUP3 MSTORE JUMP JUMPDEST RETURNDATASIZE ISZERO PUSH2 0x533 JUMPI PUSH2 0x528 RETURNDATASIZE PUSH2 0x507 JUMP JUMPDEST SWAP1 RETURNDATASIZE PUSH1 0x0 PUSH1 0x20 DUP5 ADD RETURNDATACOPY JUMP JUMPDEST PUSH1 0x60 SWAP1 JUMP JUMPDEST ISZERO PUSH2 0x53F JUMPI JUMP JUMPDEST PUSH1 0x40 MLOAD PUSH3 0x461BCD PUSH1 0xE5 SHL DUP2 MSTORE PUSH1 0x20 PUSH1 0x4 DUP3 ADD MSTORE PUSH1 0xF PUSH1 0x24 DUP3 ADD MSTORE PUSH15 0x151C985B9CD9995C8819985A5B1959 PUSH1 0x8A SHL PUSH1 0x44 DUP3 ADD MSTORE PUSH1 0x64 SWAP1 REVERT JUMPDEST SWAP1 SWAP3 SWAP2 SWAP3 PUSH2 0x58C PUSH2 0x586 DUP4 PUSH2 0x389 JUMP JUMPDEST SWAP3 PUSH2 0x389 JUMP JUMPDEST SWAP1 PUSH1 0x0 SWAP5 PUSH2 0x599 DUP7 PUSH2 0x392 JUMP JUMPDEST SWAP2 DUP3 JUMPDEST DUP3 DUP2 LT ISZERO PUSH2 0x797 JUMPI PUSH2 0x5B7 PUSH2 0x5B2 DUP3 DUP6 DUP6 PUSH2 0x3B5 JUMP JUMPDEST PUSH2 0x3CA JUMP JUMPDEST SWAP1 PUSH2 0x5C1 DUP8 PUSH2 0x389 JUMP JUMPDEST SWAP5 PUSH2 0x5CB PUSH1 0x40 MLOAD SWAP1 JUMP JUMPDEST PUSH4 0x31A9108F PUSH1 0xE1 SHL DUP2 MSTORE PUSH1 0x4 DUP2 ADD DUP5 SWAP1 MSTORE PUSH1 0x20 DUP2 PUSH1 0x24 DUP2 DUP11 GAS STATICCALL DUP1 ISZERO PUSH2 0x718 JUMPI PUSH2 0x608 SWAP2 PUSH1 0x0 SWAP2 PUSH2 0x769 JUMPI JUMPDEST POP PUSH1 0x1 PUSH1 0x1 PUSH1 0xA0 SHL SUB AND CALLER EQ PUSH2 0x401 JUMP JUMPDEST PUSH2 0x611 DUP8 PUSH2 0x389 JUMP JUMPDEST SWAP1 PUSH1 0x20 PUSH2 0x61D PUSH1 0x40 MLOAD SWAP1 JUMP JUMPDEST PUSH4 0x8687061 PUSH1 0xE2 SHL DUP2 MSTORE SWAP3 DUP4 SWAP1 PUSH1 0x4 SWAP1 DUP3 SWAP1 GAS STATICCALL SWAP1 DUP2 ISZERO PUSH2 0x718 JUMPI PUSH2 0x64A SWAP3 PUSH1 0x0 SWAP3 PUSH2 0x739 JUMPI JUMPDEST POP PUSH2 0x476 JUMP JUMPDEST SWAP5 PUSH2 0x654 ADDRESS PUSH2 0x389 JUMP JUMPDEST DUP2 EXTCODESIZE ISZERO PUSH2 0xA1 JUMPI DUP11 DUP5 PUSH2 0x683 SWAP3 PUSH2 0x66A PUSH1 0x40 MLOAD SWAP1 JUMP JUMPDEST SWAP4 DUP5 SWAP3 DUP4 SWAP3 PUSH4 0x23B872DD PUSH1 0xE0 SHL DUP5 MSTORE CALLER PUSH1 0x4 DUP6 ADD PUSH2 0x493 JUMP JUMPDEST SUB DUP2 DUP4 DUP7 GAS CALL DUP1 ISZERO PUSH2 0x718 JUMPI PUSH2 0x71D JUMPI JUMPDEST POP DUP1 EXTCODESIZE ISZERO PUSH2 0xA1 JUMPI PUSH2 0x6CC DUP11 SWAP4 SWAP2 DUP5 SWAP3 PUSH2 0x6AD PUSH1 0x40 MLOAD SWAP1 JUMP JUMPDEST SWAP6 DUP7 SWAP4 DUP5 SWAP3 DUP4 SWAP2 SWAP1 PUSH4 0x72424D99 PUSH1 0xE1 SHL JUMPDEST DUP4 MSTORE PUSH1 0x4 DUP4 ADD MSTORE PUSH1 0x24 DUP3 ADD SWAP1 JUMP JUMPDEST SUB SWAP3 GAS CALL SWAP2 DUP3 ISZERO PUSH2 0x718 JUMPI PUSH2 0x6E7 SWAP3 PUSH2 0x6EC JUMPI JUMPDEST POP PUSH1 0x1 ADD SWAP1 JUMP JUMPDEST PUSH2 0x59C JUMP JUMPDEST PUSH2 0x70B SWAP1 DUP11 RETURNDATASIZE DUP13 GT PUSH2 0x711 JUMPI JUMPDEST PUSH2 0x703 DUP2 DUP4 PUSH2 0xDE JUMP JUMPDEST DUP2 ADD SWAP1 PUSH2 0x488 JUMP JUMPDEST CODESIZE PUSH2 0x6E0 JUMP JUMPDEST POP RETURNDATASIZE PUSH2 0x6F9 JUMP JUMPDEST PUSH2 0x3F5 JUMP JUMPDEST PUSH2 0x733 SWAP1 DUP12 RETURNDATASIZE DUP14 GT PUSH2 0x711 JUMPI PUSH2 0x703 DUP2 DUP4 PUSH2 0xDE JUMP JUMPDEST CODESIZE PUSH2 0x694 JUMP JUMPDEST PUSH2 0x75B SWAP2 SWAP3 POP PUSH1 0x20 RETURNDATASIZE DUP2 GT PUSH2 0x762 JUMPI JUMPDEST PUSH2 0x753 DUP2 DUP4 PUSH2 0xDE JUMP JUMPDEST DUP2 ADD SWAP1 PUSH2 0x44C JUMP JUMPDEST SWAP1 CODESIZE PUSH2 0x644 JUMP JUMPDEST POP RETURNDATASIZE PUSH2 0x749 JUMP JUMPDEST PUSH2 0x78A SWAP2 POP PUSH1 0x20 RETURNDATASIZE DUP2 GT PUSH2 0x790 JUMPI JUMPDEST PUSH2 0x782 DUP2 DUP4 PUSH2 0xDE JUMP JUMPDEST DUP2 ADD SWAP1 PUSH2 0x3E1 JUMP JUMPDEST CODESIZE PUSH2 0x5F7 JUMP JUMPDEST POP RETURNDATASIZE PUSH2 0x778 JUMP JUMPDEST POP SWAP1 DUP7 SWAP5 POP PUSH2 0xB3 SWAP6 SWAP7 SWAP4 POP PUSH32 0x9731F66294091699A1B52CF1E5067F6AC93DDEBAE6460879BBE049801062780E SWAP1 PUSH2 0x7CE CALLER PUSH2 0x389 JUMP JUMPDEST SWAP3 PUSH2 0x7E5 DUP6 PUSH2 0x7DC PUSH1 0x40 MLOAD SWAP1 JUMP JUMPDEST SWAP4 DUP5 SWAP4 DUP5 PUSH2 0x4E3 JUMP JUMPDEST SUB SWAP1 LOG2 PUSH1 0x40 MLOAD PUSH1 0x0 SWAP2 CALLER GAS CALL PUSH2 0x7F9 PUSH2 0x519 JUMP JUMPDEST POP PUSH2 0x538 JUMP JUMPDEST ISZERO PUSH2 0x806 JUMPI JUMP JUMPDEST PUSH1 0x40 MLOAD PUSH3 0x461BCD PUSH1 0xE5 SHL DUP2 MSTORE PUSH1 0x20 PUSH1 0x4 DUP3 ADD MSTORE PUSH1 0x14 PUSH1 0x24 DUP3 ADD MSTORE PUSH20 0x125B9CDD59999A58DA595B9D081C185E5B595B9D PUSH1 0x62 SHL PUSH1 0x44 DUP3 ADD MSTORE PUSH1 0x64 SWAP1 REVERT JUMPDEST SWAP2 SWAP1 DUP3 SUB SWAP2 DUP3 GT PUSH2 0x483 JUMPI JUMP JUMPDEST ISZERO PUSH2 0x856 JUMPI JUMP JUMPDEST PUSH1 0x40 MLOAD PUSH3 0x461BCD PUSH1 0xE5 SHL DUP2 MSTORE PUSH1 0x20 PUSH1 0x4 DUP3 ADD MSTORE PUSH1 0xD PUSH1 0x24 DUP3 ADD MSTORE PUSH13 0x1499599D5B990819985A5B1959 PUSH1 0x9A SHL PUSH1 0x44 DUP3 ADD MSTORE PUSH1 0x64 SWAP1 REVERT JUMPDEST SWAP1 SWAP3 SWAP2 SWAP3 PUSH2 0x89B PUSH2 0x586 DUP4 PUSH2 0x389 JUMP JUMPDEST SWAP4 PUSH1 0x0 SWAP3 PUSH2 0x8A8 DUP5 PUSH2 0x392 JUMP JUMPDEST SWAP6 DUP7 JUMPDEST DUP4 DUP9 LT ISZERO PUSH2 0xA10 JUMPI PUSH2 0x8BC DUP3 PUSH2 0x389 JUMP JUMPDEST SWAP1 PUSH1 0x20 PUSH2 0x8C8 PUSH1 0x40 MLOAD SWAP1 JUMP JUMPDEST PUSH4 0x4A8FE65 PUSH1 0xE4 SHL DUP2 MSTORE SWAP3 DUP4 SWAP1 PUSH1 0x4 SWAP1 DUP3 SWAP1 GAS STATICCALL SWAP2 DUP3 ISZERO PUSH2 0x718 JUMPI PUSH1 0x0 SWAP3 PUSH2 0x9EC JUMPI JUMPDEST POP DUP2 PUSH2 0x8F6 SWAP2 PUSH2 0x476 JUMP JUMPDEST SWAP8 PUSH2 0x900 DUP5 PUSH2 0x389 JUMP JUMPDEST SWAP2 PUSH4 0xD96A094A PUSH2 0x914 PUSH2 0x5B2 DUP5 DUP10 DUP12 PUSH2 0x3B5 JUMP JUMPDEST DUP5 EXTCODESIZE ISZERO PUSH2 0xA1 JUMPI PUSH2 0x93A SWAP3 PUSH2 0x6BE DUP12 SWAP4 PUSH2 0x92D PUSH1 0x40 MLOAD SWAP1 JUMP JUMPDEST SWAP6 DUP7 SWAP5 DUP6 SWAP4 DUP5 SWAP4 PUSH1 0xE0 SHL SWAP1 JUMP JUMPDEST SUB SWAP2 DUP8 GAS CALL DUP1 ISZERO PUSH2 0x718 JUMPI PUSH2 0x9D0 JUMPI JUMPDEST POP PUSH2 0x954 ADDRESS PUSH2 0x389 JUMP JUMPDEST PUSH2 0x962 PUSH2 0x5B2 DUP4 DUP9 DUP11 PUSH2 0x3B5 JUMP JUMPDEST DUP4 EXTCODESIZE ISZERO PUSH2 0xA1 JUMPI PUSH2 0x99A SWAP4 DUP10 SWAP3 DUP4 PUSH2 0x979 PUSH1 0x40 MLOAD SWAP1 JUMP JUMPDEST DUP1 SWAP8 DUP2 SWAP6 DUP3 SWAP5 PUSH2 0x98D PUSH4 0x23B872DD PUSH1 0xE0 SHL SWAP1 JUMP JUMPDEST DUP5 MSTORE CALLER SWAP1 PUSH1 0x4 DUP6 ADD PUSH2 0x493 JUMP JUMPDEST SUB SWAP3 GAS CALL SWAP2 DUP3 ISZERO PUSH2 0x718 JUMPI PUSH2 0x9B4 SWAP3 PUSH2 0x9BA JUMPI POP PUSH1 0x1 ADD SWAP1 JUMP JUMPDEST SWAP7 PUSH2 0x8AB JUMP JUMPDEST PUSH2 0x70B SWAP1 DUP9 RETURNDATASIZE DUP11 GT PUSH2 0x711 JUMPI PUSH2 0x703 DUP2 DUP4 PUSH2 0xDE JUMP JUMPDEST PUSH2 0x9E6 SWAP1 DUP9 RETURNDATASIZE DUP11 GT PUSH2 0x711 JUMPI PUSH2 0x703 DUP2 DUP4 PUSH2 0xDE JUMP JUMPDEST CODESIZE PUSH2 0x94A JUMP JUMPDEST PUSH2 0x8F6 SWAP2 SWAP3 POP PUSH2 0xA09 SWAP1 PUSH1 0x20 RETURNDATASIZE DUP2 GT PUSH2 0x762 JUMPI PUSH2 0x753 DUP2 DUP4 PUSH2 0xDE JUMP JUMPDEST SWAP2 SWAP1 PUSH2 0x8EB JUMP JUMPDEST SWAP4 SWAP3 SWAP1 POP PUSH2 0xA70 SWAP5 SWAP6 SWAP7 POP PUSH32 0xE4DECA2A902EBBB74EB2363301AB98E258168E2DC6D9E504BAE3CC9E73EEB290 SWAP2 POP PUSH2 0xA50 PUSH2 0xA48 DUP6 SWAP1 JUMP JUMPDEST CALLVALUE LT ISZERO PUSH2 0x7FF JUMP JUMPDEST PUSH2 0xA59 CALLER PUSH2 0x389 JUMP JUMPDEST SWAP3 PUSH2 0xA67 DUP6 PUSH2 0x7DC PUSH1 0x40 MLOAD SWAP1 JUMP JUMPDEST SUB SWAP1 LOG2 CALLVALUE PUSH2 0x842 JUMP JUMPDEST SWAP1 PUSH2 0xA7A DUP2 PUSH2 0x392 JUMP JUMPDEST DUP3 GT PUSH2 0xA84 JUMPI POP POP JUMP JUMPDEST DUP1 PUSH2 0xB3 SWAP3 PUSH2 0xA92 PUSH1 0x40 MLOAD SWAP1 JUMP JUMPDEST PUSH1 0x0 SWAP2 CALLER GAS CALL PUSH2 0xAA0 PUSH2 0x519 JUMP JUMPDEST POP PUSH2 0x84F JUMP JUMPDEST ISZERO PUSH2 0xAAD JUMPI JUMP JUMPDEST PUSH1 0x40 MLOAD PUSH3 0x461BCD PUSH1 0xE5 SHL DUP2 MSTORE PUSH1 0x20 PUSH1 0x4 DUP3 ADD MSTORE PUSH1 0x29 PUSH1 0x24 DUP3 ADD MSTORE PUSH32 0x4E6F7420656E6F75676820746F6B656E7320617661696C61626C6520666F7220 PUSH1 0x44 DUP3 ADD MSTORE PUSH9 0x717569636B20627579 PUSH1 0xB8 SHL PUSH1 0x64 DUP3 ADD MSTORE PUSH1 0x84 SWAP1 REVERT JUMPDEST DUP1 ISZERO PUSH2 0x483 JUMPI PUSH1 0x0 NOT ADD SWAP1 JUMP JUMPDEST SWAP1 DUP2 MSTORE PUSH1 0x40 DUP2 ADD SWAP3 SWAP2 PUSH2 0xB3 SWAP2 PUSH1 0x20 ADD MSTORE JUMP JUMPDEST SWAP2 PUSH2 0xB2E DUP4 PUSH2 0x389 JUMP JUMPDEST SWAP1 PUSH2 0xB41 PUSH2 0xB3B DUP6 PUSH2 0x389 JUMP JUMPDEST SWAP5 PUSH2 0x389 JUMP JUMPDEST SWAP2 PUSH1 0x0 SWAP3 PUSH2 0xB57 PUSH2 0xB51 DUP6 PUSH2 0x392 JUMP JUMPDEST SWAP7 PUSH2 0x389 JUMP JUMPDEST PUSH1 0x40 MLOAD PUSH4 0x16E6A979 PUSH1 0xE1 SHL DUP2 MSTORE SWAP4 PUSH1 0x20 DUP6 PUSH1 0x4 DUP2 DUP6 GAS STATICCALL SWAP5 DUP6 ISZERO PUSH2 0x718 JUMPI PUSH1 0x0 SWAP6 PUSH2 0xD93 JUMPI JUMPDEST POP SWAP4 SWAP7 SWAP4 PUSH2 0xB95 DUP8 DUP10 PUSH2 0xB8F JUMP JUMPDEST SWAP2 SWAP1 JUMP JUMPDEST GT PUSH2 0xAA6 JUMP JUMPDEST DUP5 JUMPDEST DUP8 DUP7 LT ISZERO PUSH2 0xD3C JUMPI PUSH2 0xBCE SWAP9 PUSH1 0x20 PUSH2 0xBB8 PUSH2 0xBB2 PUSH1 0x1 PUSH2 0x392 JUMP JUMPDEST DUP4 PUSH2 0x842 JUMP JUMPDEST PUSH1 0x40 MLOAD SWAP12 DUP13 SWAP2 DUP3 SWAP2 SWAP1 PUSH4 0xCF6A68BF PUSH1 0xE0 SHL PUSH2 0x6BE JUMP JUMPDEST SUB DUP2 DUP8 GAS STATICCALL SWAP10 DUP11 ISZERO PUSH2 0x718 JUMPI PUSH1 0x0 SWAP11 PUSH2 0xD1C JUMPI JUMPDEST POP PUSH2 0xBEC DUP6 PUSH2 0x389 JUMP JUMPDEST SWAP2 PUSH1 0x20 PUSH2 0xBF8 PUSH1 0x40 MLOAD SWAP1 JUMP JUMPDEST PUSH4 0x4A8FE65 PUSH1 0xE4 SHL DUP2 MSTORE SWAP4 DUP5 SWAP1 PUSH1 0x4 SWAP1 DUP3 SWAP1 GAS STATICCALL SWAP3 DUP4 ISZERO PUSH2 0x718 JUMPI PUSH1 0x0 SWAP4 PUSH2 0xCF8 JUMPI JUMPDEST POP DUP3 PUSH2 0xC26 SWAP2 PUSH2 0x476 JUMP JUMPDEST SWAP10 PUSH2 0xC30 DUP8 PUSH2 0x389 JUMP JUMPDEST SWAP3 PUSH4 0xD96A094A SWAP1 DUP5 EXTCODESIZE ISZERO PUSH2 0xA1 JUMPI PUSH2 0xC56 SWAP2 DUP12 SWAP2 PUSH2 0xC4D PUSH1 0x40 MLOAD SWAP1 JUMP JUMPDEST SWAP4 DUP5 SWAP3 PUSH1 0xE0 SHL SWAP1 JUMP JUMPDEST DUP3 MSTORE PUSH1 0x4 DUP3 ADD DUP6 SWAP1 MSTORE PUSH1 0x24 SWAP1 DUP3 SWAP1 DUP9 GAS CALL DUP1 ISZERO PUSH2 0x718 JUMPI PUSH2 0xCDC JUMPI JUMPDEST POP PUSH2 0xC7C ADDRESS PUSH2 0x389 JUMP JUMPDEST SWAP1 DUP4 EXTCODESIZE ISZERO PUSH2 0xA1 JUMPI PUSH2 0xC94 SWAP4 DUP11 SWAP3 DUP4 PUSH2 0x979 PUSH1 0x40 MLOAD SWAP1 JUMP JUMPDEST SUB SWAP3 GAS CALL SWAP1 DUP2 ISZERO PUSH2 0x718 JUMPI PUSH2 0xCB9 SWAP3 PUSH2 0xCB2 SWAP3 PUSH2 0xCC0 JUMPI JUMPDEST POP PUSH2 0xB04 JUMP JUMPDEST SWAP6 PUSH1 0x1 ADD SWAP1 JUMP JUMPDEST SWAP5 SWAP8 PUSH2 0xB97 JUMP JUMPDEST PUSH2 0xCD6 SWAP1 DUP11 RETURNDATASIZE DUP13 GT PUSH2 0x711 JUMPI PUSH2 0x703 DUP2 DUP4 PUSH2 0xDE JUMP JUMPDEST CODESIZE PUSH2 0xCAC JUMP JUMPDEST PUSH2 0xCF2 SWAP1 DUP11 RETURNDATASIZE DUP13 GT PUSH2 0x711 JUMPI PUSH2 0x703 DUP2 DUP4 PUSH2 0xDE JUMP JUMPDEST CODESIZE PUSH2 0xC72 JUMP JUMPDEST PUSH2 0xC26 SWAP2 SWAP4 POP PUSH2 0xD15 SWAP1 PUSH1 0x20 RETURNDATASIZE DUP2 GT PUSH2 0x762 JUMPI PUSH2 0x753 DUP2 DUP4 PUSH2 0xDE JUMP JUMPDEST SWAP3 SWAP1 PUSH2 0xC1B JUMP JUMPDEST PUSH2 0xD35 SWAP2 SWAP11 POP PUSH1 0x20 RETURNDATASIZE DUP2 GT PUSH2 0x762 JUMPI PUSH2 0x753 DUP2 DUP4 PUSH2 0xDE JUMP JUMPDEST SWAP9 CODESIZE PUSH2 0xBE2 JUMP JUMPDEST SWAP5 POP SWAP7 POP POP POP POP PUSH2 0xA70 SWAP2 SWAP3 PUSH2 0xD52 PUSH2 0xA48 DUP4 SWAP1 JUMP JUMPDEST PUSH32 0x46FE258F9B69378B2AF56B6F4717A455F67E88245E3EEDD559EFEC2CCC047DE4 DUP3 PUSH2 0xD7D CALLER PUSH2 0x389 JUMP JUMPDEST SWAP3 PUSH2 0xA67 PUSH2 0xD8A PUSH1 0x40 MLOAD SWAP1 JUMP JUMPDEST SWAP3 DUP4 SWAP3 DUP4 PUSH2 0xB11 JUMP JUMPDEST PUSH2 0xDAD SWAP2 SWAP6 POP PUSH1 0x20 RETURNDATASIZE PUSH1 0x20 GT PUSH2 0x762 JUMPI PUSH2 0x753 DUP2 DUP4 PUSH2 0xDE JUMP JUMPDEST SWAP4 CODESIZE PUSH2 0xB7D JUMP JUMPDEST PUSH2 0xDC6 PUSH2 0xDC0 DUP3 PUSH2 0x389 JUMP JUMPDEST SWAP2 PUSH2 0x389 JUMP JUMPDEST SWAP1 PUSH1 0x0 SWAP2 PUSH2 0xDD3 DUP4 PUSH2 0x392 JUMP JUMPDEST SWAP5 DUP6 JUMPDEST DUP6 DUP8 LT ISZERO PUSH2 0xEF3 JUMPI PUSH2 0xDE7 DUP4 PUSH2 0x389 JUMP JUMPDEST SWAP1 PUSH1 0x20 PUSH2 0xDF3 PUSH1 0x40 MLOAD SWAP1 JUMP JUMPDEST PUSH4 0x4A8FE65 PUSH1 0xE4 SHL DUP2 MSTORE SWAP3 DUP4 SWAP1 PUSH1 0x4 SWAP1 DUP3 SWAP1 GAS STATICCALL SWAP2 DUP3 ISZERO PUSH2 0x718 JUMPI PUSH1 0x0 SWAP3 PUSH2 0xECF JUMPI JUMPDEST POP DUP2 PUSH2 0xE21 SWAP2 PUSH2 0x476 JUMP JUMPDEST SWAP7 PUSH2 0xE40 PUSH1 0x20 PUSH2 0xE30 DUP8 PUSH2 0x389 JUMP JUMPDEST SWAP4 PUSH4 0x1249C58B SWAP1 PUSH2 0xC4D PUSH1 0x40 MLOAD SWAP1 JUMP JUMPDEST DUP3 MSTORE PUSH1 0x4 SWAP1 DUP3 SWAP1 DUP8 GAS CALL SWAP1 DUP2 ISZERO PUSH2 0x718 JUMPI PUSH1 0x0 SWAP2 PUSH2 0xEB1 JUMPI JUMPDEST POP PUSH2 0xE63 ADDRESS PUSH2 0x389 JUMP JUMPDEST SWAP1 DUP4 EXTCODESIZE ISZERO PUSH2 0xA1 JUMPI PUSH2 0xE7B SWAP4 DUP9 SWAP3 DUP4 PUSH2 0x979 PUSH1 0x40 MLOAD SWAP1 JUMP JUMPDEST SUB SWAP3 GAS CALL SWAP2 DUP3 ISZERO PUSH2 0x718 JUMPI PUSH2 0xE95 SWAP3 PUSH2 0xE9B JUMPI POP PUSH1 0x1 ADD SWAP1 JUMP JUMPDEST SWAP6 PUSH2 0xDD6 JUMP JUMPDEST PUSH2 0x70B SWAP1 DUP8 RETURNDATASIZE DUP10 GT PUSH2 0x711 JUMPI PUSH2 0x703 DUP2 DUP4 PUSH2 0xDE JUMP JUMPDEST PUSH2 0xEC9 SWAP2 POP PUSH1 0x20 RETURNDATASIZE DUP2 GT PUSH2 0x762 JUMPI PUSH2 0x753 DUP2 DUP4 PUSH2 0xDE JUMP JUMPDEST CODESIZE PUSH2 0xE59 JUMP JUMPDEST PUSH2 0xE21 SWAP2 SWAP3 POP PUSH2 0xEEC SWAP1 PUSH1 0x20 RETURNDATASIZE DUP2 GT PUSH2 0x762 JUMPI PUSH2 0x753 DUP2 DUP4 PUSH2 0xDE JUMP JUMPDEST SWAP2 SWAP1 PUSH2 0xE16 JUMP JUMPDEST SWAP3 POP SWAP5 POP POP PUSH2 0xA70 SWAP2 SWAP3 PUSH2 0xF07 PUSH2 0xA48 DUP4 SWAP1 JUMP JUMPDEST PUSH32 0x7612FF07618D9438CB4C66FB2E647E6BE030A56A7BB621084DE8E916ED50A0A8 DUP3 PUSH2 0xD7D CALLER PUSH2 0x389 JUMP JUMPDEST ISZERO PUSH2 0xF39 JUMPI JUMP JUMPDEST PUSH1 0x40 MLOAD PUSH3 0x461BCD PUSH1 0xE5 SHL DUP2 MSTORE PUSH1 0x20 PUSH1 0x4 DUP3 ADD MSTORE PUSH1 0x21 PUSH1 0x24 DUP3 ADD MSTORE PUSH32 0x4E6F20746F6B656E7320617661696C61626C6520666F7220717569636B206275 PUSH1 0x44 DUP3 ADD MSTORE PUSH1 0x79 PUSH1 0xF8 SHL PUSH1 0x64 DUP3 ADD MSTORE PUSH1 0x84 SWAP1 REVERT JUMPDEST PUSH2 0xF91 DUP2 PUSH2 0x389 JUMP JUMPDEST SWAP1 PUSH2 0xFA1 PUSH2 0xDC0 PUSH2 0x586 DUP4 PUSH2 0x389 JUMP JUMPDEST PUSH4 0x2DCD52F2 SWAP2 PUSH2 0xFB0 PUSH1 0x40 MLOAD SWAP1 JUMP JUMPDEST SWAP2 PUSH2 0xFBB DUP5 PUSH1 0xE0 SHL SWAP1 JUMP JUMPDEST DUP4 MSTORE PUSH1 0x20 DUP4 PUSH1 0x4 DUP2 DUP5 GAS STATICCALL SWAP3 DUP4 ISZERO PUSH2 0x718 JUMPI PUSH1 0x0 SWAP4 PUSH2 0x1220 JUMPI JUMPDEST POP PUSH2 0xFEE PUSH1 0x0 SWAP4 PUSH2 0xFE8 PUSH2 0xB8B DUP7 PUSH2 0x392 JUMP JUMPDEST GT PUSH2 0xF32 JUMP JUMPDEST PUSH2 0x1001 PUSH2 0xFFA PUSH1 0x40 MLOAD SWAP1 JUMP JUMPDEST SWAP5 PUSH1 0xE0 SHL SWAP1 JUMP JUMPDEST DUP5 MSTORE PUSH1 0x20 DUP5 PUSH1 0x4 DUP2 DUP5 GAS STATICCALL SWAP1 DUP2 ISZERO PUSH2 0x718 JUMPI PUSH2 0x1036 PUSH1 0x20 SWAP3 PUSH2 0x1054 SWAP7 PUSH1 0x0 SWAP2 PUSH2 0x1203 JUMPI JUMPDEST POP PUSH2 0x1030 PUSH1 0x1 PUSH2 0x392 JUMP JUMPDEST SWAP1 PUSH2 0x842 JUMP JUMPDEST SWAP1 PUSH2 0x1040 PUSH1 0x40 MLOAD SWAP1 JUMP JUMPDEST SWAP6 DUP7 SWAP3 DUP4 SWAP2 DUP3 SWAP2 PUSH4 0xCF6A68BF PUSH1 0xE0 SHL PUSH2 0x6BE JUMP JUMPDEST SUB SWAP2 GAS STATICCALL SWAP3 DUP4 ISZERO PUSH2 0x718 JUMPI PUSH1 0x0 SWAP4 PUSH2 0x11DE JUMPI JUMPDEST POP PUSH2 0x1071 SWAP1 PUSH2 0x389 JUMP JUMPDEST SWAP3 PUSH1 0x20 PUSH2 0x107D PUSH1 0x40 MLOAD SWAP1 JUMP JUMPDEST PUSH4 0x4A8FE65 PUSH1 0xE4 SHL DUP2 MSTORE SWAP5 DUP6 SWAP1 PUSH1 0x4 SWAP1 DUP3 SWAP1 GAS STATICCALL SWAP4 DUP5 ISZERO PUSH2 0x718 JUMPI PUSH1 0x0 SWAP5 PUSH2 0x11B9 JUMPI JUMPDEST POP PUSH2 0x10AA SWAP1 PUSH2 0x389 JUMP JUMPDEST PUSH4 0xD96A094A DUP2 EXTCODESIZE ISZERO PUSH2 0xA1 JUMPI PUSH2 0x10C9 PUSH2 0x10C2 PUSH1 0x40 MLOAD SWAP1 JUMP JUMPDEST SWAP2 PUSH1 0xE0 SHL SWAP1 JUMP JUMPDEST DUP2 MSTORE PUSH1 0x4 DUP2 ADD DUP5 SWAP1 MSTORE DUP3 DUP2 PUSH1 0x24 DUP2 DUP9 DUP7 GAS CALL DUP1 ISZERO PUSH2 0x718 JUMPI PUSH2 0x119D JUMPI JUMPDEST POP PUSH2 0x10F0 ADDRESS PUSH2 0x389 JUMP JUMPDEST SWAP1 DUP1 EXTCODESIZE ISZERO PUSH2 0xA1 JUMPI DUP4 DUP4 SWAP2 PUSH2 0x111D SWAP4 DUP4 PUSH2 0x1109 PUSH1 0x40 MLOAD SWAP1 JUMP JUMPDEST DUP1 SWAP7 DUP2 SWAP6 DUP3 SWAP5 PUSH2 0x98D PUSH4 0x23B872DD PUSH1 0xE0 SHL SWAP1 JUMP JUMPDEST SUB SWAP3 GAS CALL DUP1 ISZERO PUSH2 0x718 JUMPI PUSH2 0x1180 JUMPI JUMPDEST POP POP PUSH32 0xE6C0F990EEEC49FB22637D492D2E1EA38A893B0E786AA61B8871DD338DFA7ED8 PUSH2 0x117B PUSH2 0x1164 PUSH2 0x115E CALLER PUSH2 0x389 JUMP JUMPDEST SWAP4 PUSH2 0x392 JUMP JUMPDEST SWAP4 PUSH2 0x116E PUSH1 0x40 MLOAD SWAP1 JUMP JUMPDEST SWAP2 DUP3 SWAP2 DUP3 SWAP1 DUP2 MSTORE PUSH1 0x20 ADD SWAP1 JUMP JUMPDEST SUB SWAP1 LOG3 JUMP JUMPDEST DUP2 PUSH2 0x1196 SWAP3 SWAP1 RETURNDATASIZE LT PUSH2 0x711 JUMPI PUSH2 0x703 DUP2 DUP4 PUSH2 0xDE JUMP JUMPDEST CODESIZE DUP1 PUSH2 0x112C JUMP JUMPDEST PUSH2 0x11B3 SWAP1 DUP4 RETURNDATASIZE DUP6 GT PUSH2 0x711 JUMPI PUSH2 0x703 DUP2 DUP4 PUSH2 0xDE JUMP JUMPDEST CODESIZE PUSH2 0x10E6 JUMP JUMPDEST PUSH2 0x10AA SWAP2 SWAP5 POP PUSH2 0x11D7 SWAP1 PUSH1 0x20 RETURNDATASIZE PUSH1 0x20 GT PUSH2 0x762 JUMPI PUSH2 0x753 DUP2 DUP4 PUSH2 0xDE JUMP JUMPDEST SWAP4 SWAP1 PUSH2 0x10A0 JUMP JUMPDEST PUSH2 0x1071 SWAP2 SWAP4 POP PUSH2 0x11FC SWAP1 PUSH1 0x20 RETURNDATASIZE PUSH1 0x20 GT PUSH2 0x762 JUMPI PUSH2 0x753 DUP2 DUP4 PUSH2 0xDE JUMP JUMPDEST SWAP3 SWAP1 PUSH2 0x1067 JUMP JUMPDEST PUSH2 0x121A SWAP2 POP DUP5 RETURNDATASIZE DUP7 GT PUSH2 0x762 JUMPI PUSH2 0x753 DUP2 DUP4 PUSH2 0xDE JUMP JUMPDEST CODESIZE PUSH2 0x1025 JUMP JUMPDEST PUSH2 0x123A SWAP2 SWAP4 POP PUSH1 0x20 RETURNDATASIZE PUSH1 0x20 GT PUSH2 0x762 JUMPI PUSH2 0x753 DUP2 DUP4 PUSH2 0xDE JUMP JUMPDEST SWAP2 CODESIZE PUSH2 0xFD5 JUMP INVALID LOG2 PUSH5 0x6970667358 0x22 SLT KECCAK256 DUP1 0xB4 0xD2 0xCB BLOBHASH PUSH9 0xE839B998383A40695B PUSH21 0xB38FD72806E843739FD6F051251918B164736F6C63 NUMBER STOP ADDMOD SHR STOP CALLER "},"methodIdentifiers":{"bulkBuy(address,uint256[])":"99bd4737","bulkMint(address,uint256)":"a8c90cb2","bulkQuickBuy(address,uint256)":"9cb3ecd0","bulkSell(address,uint256[])":"40f3620a","onERC721Received(address,address,uint256,bytes)":"150b7a02","quickBuy(address)":"d17dbbc0"}}}}}