{"src/core/Price.sol":{"Price":{"abi":[{"inputs":[{"internalType":"string","name":"_name","type":"string"},{"internalType":"string","name":"_symbol","type":"string"},{"internalType":"uint256","name":"_initialPrice","type":"uint256"},{"internalType":"uint256","name":"_maxSupply","type":"uint256"},{"internalType":"uint256","name":"_creatorFeePercent","type":"uint256"}],"stateMutability":"nonpayable","type":"constructor"},{"inputs":[],"name":"ERC721EnumerableForbiddenBatchMint","type":"error"},{"inputs":[{"internalType":"address","name":"sender","type":"address"},{"internalType":"uint256","name":"tokenId","type":"uint256"},{"internalType":"address","name":"owner","type":"address"}],"name":"ERC721IncorrectOwner","type":"error"},{"inputs":[{"internalType":"address","name":"operator","type":"address"},{"internalType":"uint256","name":"tokenId","type":"uint256"}],"name":"ERC721InsufficientApproval","type":"error"},{"inputs":[{"internalType":"address","name":"approver","type":"address"}],"name":"ERC721InvalidApprover","type":"error"},{"inputs":[{"internalType":"address","name":"operator","type":"address"}],"name":"ERC721InvalidOperator","type":"error"},{"inputs":[{"internalType":"address","name":"owner","type":"address"}],"name":"ERC721InvalidOwner","type":"error"},{"inputs":[{"internalType":"address","name":"receiver","type":"address"}],"name":"ERC721InvalidReceiver","type":"error"},{"inputs":[{"internalType":"address","name":"sender","type":"address"}],"name":"ERC721InvalidSender","type":"error"},{"inputs":[{"internalType":"uint256","name":"tokenId","type":"uint256"}],"name":"ERC721NonexistentToken","type":"error"},{"inputs":[{"internalType":"address","name":"owner","type":"address"},{"internalType":"uint256","name":"index","type":"uint256"}],"name":"ERC721OutOfBoundsIndex","type":"error"},{"inputs":[{"internalType":"address","name":"owner","type":"address"}],"name":"OwnableInvalidOwner","type":"error"},{"inputs":[{"internalType":"address","name":"account","type":"address"}],"name":"OwnableUnauthorizedAccount","type":"error"},{"anonymous":false,"inputs":[{"indexed":true,"internalType":"address","name":"owner","type":"address"},{"indexed":true,"internalType":"address","name":"approved","type":"address"},{"indexed":true,"internalType":"uint256","name":"tokenId","type":"uint256"}],"name":"Approval","type":"event"},{"anonymous":false,"inputs":[{"indexed":true,"internalType":"address","name":"owner","type":"address"},{"indexed":true,"internalType":"address","name":"operator","type":"address"},{"indexed":false,"internalType":"bool","name":"approved","type":"bool"}],"name":"ApprovalForAll","type":"event"},{"anonymous":false,"inputs":[{"indexed":true,"internalType":"address","name":"previousOwner","type":"address"},{"indexed":true,"internalType":"address","name":"newOwner","type":"address"}],"name":"OwnershipTransferred","type":"event"},{"anonymous":false,"inputs":[{"indexed":true,"internalType":"address","name":"from","type":"address"},{"indexed":true,"internalType":"address","name":"to","type":"address"},{"indexed":true,"internalType":"uint256","name":"tokenId","type":"uint256"}],"name":"Transfer","type":"event"},{"inputs":[{"internalType":"address","name":"to","type":"address"},{"internalType":"uint256","name":"tokenId","type":"uint256"}],"name":"approve","outputs":[],"stateMutability":"nonpayable","type":"function"},{"inputs":[{"internalType":"uint256","name":"","type":"uint256"}],"name":"availableTokens","outputs":[{"internalType":"uint256","name":"","type":"uint256"}],"stateMutability":"view","type":"function"},{"inputs":[{"internalType":"address","name":"owner","type":"address"}],"name":"balanceOf","outputs":[{"internalType":"uint256","name":"","type":"uint256"}],"stateMutability":"view","type":"function"},{"inputs":[],"name":"baseURI","outputs":[{"internalType":"string","name":"","type":"string"}],"stateMutability":"view","type":"function"},{"inputs":[{"internalType":"uint256","name":"supply","type":"uint256"}],"name":"calculatePrice","outputs":[{"internalType":"uint256","name":"","type":"uint256"}],"stateMutability":"view","type":"function"},{"inputs":[],"name":"creator","outputs":[{"internalType":"address","name":"","type":"address"}],"stateMutability":"view","type":"function"},{"inputs":[],"name":"creatorFeePercent","outputs":[{"internalType":"uint256","name":"","type":"uint256"}],"stateMutability":"view","type":"function"},{"inputs":[],"name":"currentSupply","outputs":[{"internalType":"uint256","name":"","type":"uint256"}],"stateMutability":"view","type":"function"},{"inputs":[],"name":"description","outputs":[{"internalType":"string","name":"","type":"string"}],"stateMutability":"view","type":"function"},{"inputs":[],"name":"getAllAvailableTokens","outputs":[{"internalType":"uint256[]","name":"","type":"uint256[]"}],"stateMutability":"view","type":"function"},{"inputs":[{"internalType":"uint256","name":"tokenId","type":"uint256"}],"name":"getApproved","outputs":[{"internalType":"address","name":"","type":"address"}],"stateMutability":"view","type":"function"},{"inputs":[{"internalType":"uint256","name":"index","type":"uint256"}],"name":"getAvailableTokenByIndex","outputs":[{"internalType":"uint256","name":"","type":"uint256"}],"stateMutability":"view","type":"function"},{"inputs":[],"name":"getAvailableTokensCount","outputs":[{"internalType":"uint256","name":"","type":"uint256"}],"stateMutability":"view","type":"function"},{"inputs":[{"internalType":"uint256","name":"start","type":"uint256"},{"internalType":"uint256","name":"limit","type":"uint256"}],"name":"getAvailableTokensPaginated","outputs":[{"internalType":"uint256[]","name":"","type":"uint256[]"}],"stateMutability":"view","type":"function"},{"inputs":[],"name":"getBuyPrice","outputs":[{"internalType":"uint256","name":"","type":"uint256"}],"stateMutability":"view","type":"function"},{"inputs":[],"name":"getBuyPriceAfterFee","outputs":[{"internalType":"uint256","name":"","type":"uint256"}],"stateMutability":"view","type":"function"},{"inputs":[],"name":"getSellPrice","outputs":[{"internalType":"uint256","name":"","type":"uint256"}],"stateMutability":"view","type":"function"},{"inputs":[],"name":"getSellPriceAfterFee","outputs":[{"internalType":"uint256","name":"","type":"uint256"}],"stateMutability":"view","type":"function"},{"inputs":[],"name":"initialPrice","outputs":[{"internalType":"uint256","name":"","type":"uint256"}],"stateMutability":"view","type":"function"},{"inputs":[{"internalType":"address","name":"owner","type":"address"},{"internalType":"address","name":"operator","type":"address"}],"name":"isApprovedForAll","outputs":[{"internalType":"bool","name":"","type":"bool"}],"stateMutability":"view","type":"function"},{"inputs":[],"name":"maxSupply","outputs":[{"internalType":"uint256","name":"","type":"uint256"}],"stateMutability":"view","type":"function"},{"inputs":[],"name":"name","outputs":[{"internalType":"string","name":"","type":"string"}],"stateMutability":"view","type":"function"},{"inputs":[{"internalType":"address","name":"","type":"address"},{"internalType":"address","name":"","type":"address"},{"internalType":"uint256","name":"","type":"uint256"},{"internalType":"bytes","name":"","type":"bytes"}],"name":"onERC721Received","outputs":[{"internalType":"bytes4","name":"","type":"bytes4"}],"stateMutability":"nonpayable","type":"function"},{"inputs":[],"name":"owner","outputs":[{"internalType":"address","name":"","type":"address"}],"stateMutability":"view","type":"function"},{"inputs":[{"internalType":"uint256","name":"tokenId","type":"uint256"}],"name":"ownerOf","outputs":[{"internalType":"address","name":"","type":"address"}],"stateMutability":"view","type":"function"},{"inputs":[],"name":"renounceOwnership","outputs":[],"stateMutability":"nonpayable","type":"function"},{"inputs":[{"internalType":"address","name":"from","type":"address"},{"internalType":"address","name":"to","type":"address"},{"internalType":"uint256","name":"tokenId","type":"uint256"}],"name":"safeTransferFrom","outputs":[],"stateMutability":"nonpayable","type":"function"},{"inputs":[{"internalType":"address","name":"from","type":"address"},{"internalType":"address","name":"to","type":"address"},{"internalType":"uint256","name":"tokenId","type":"uint256"},{"internalType":"bytes","name":"data","type":"bytes"}],"name":"safeTransferFrom","outputs":[],"stateMutability":"nonpayable","type":"function"},{"inputs":[{"internalType":"address","name":"operator","type":"address"},{"internalType":"bool","name":"approved","type":"bool"}],"name":"setApprovalForAll","outputs":[],"stateMutability":"nonpayable","type":"function"},{"inputs":[{"internalType":"string","name":"_baseURI","type":"string"}],"name":"setBaseURI","outputs":[],"stateMutability":"nonpayable","type":"function"},{"inputs":[{"internalType":"address","name":"_creator","type":"address"}],"name":"setCreator","outputs":[],"stateMutability":"nonpayable","type":"function"},{"inputs":[{"internalType":"string","name":"_description","type":"string"}],"name":"setDescription","outputs":[],"stateMutability":"nonpayable","type":"function"},{"inputs":[{"internalType":"bytes4","name":"interfaceId","type":"bytes4"}],"name":"supportsInterface","outputs":[{"internalType":"bool","name":"","type":"bool"}],"stateMutability":"view","type":"function"},{"inputs":[],"name":"symbol","outputs":[{"internalType":"string","name":"","type":"string"}],"stateMutability":"view","type":"function"},{"inputs":[{"internalType":"uint256","name":"index","type":"uint256"}],"name":"tokenByIndex","outputs":[{"internalType":"uint256","name":"","type":"uint256"}],"stateMutability":"view","type":"function"},{"inputs":[{"internalType":"uint256","name":"","type":"uint256"}],"name":"tokenIndex","outputs":[{"internalType":"uint256","name":"","type":"uint256"}],"stateMutability":"view","type":"function"},{"inputs":[{"internalType":"address","name":"owner","type":"address"},{"internalType":"uint256","name":"index","type":"uint256"}],"name":"tokenOfOwnerByIndex","outputs":[{"internalType":"uint256","name":"","type":"uint256"}],"stateMutability":"view","type":"function"},{"inputs":[{"internalType":"uint256","name":"tokenId","type":"uint256"}],"name":"tokenURI","outputs":[{"internalType":"string","name":"","type":"string"}],"stateMutability":"view","type":"function"},{"inputs":[],"name":"totalSupply","outputs":[{"internalType":"uint256","name":"","type":"uint256"}],"stateMutability":"view","type":"function"},{"inputs":[{"internalType":"address","name":"from","type":"address"},{"internalType":"address","name":"to","type":"address"},{"internalType":"uint256","name":"tokenId","type":"uint256"}],"name":"transferFrom","outputs":[],"stateMutability":"nonpayable","type":"function"},{"inputs":[{"internalType":"address","name":"newOwner","type":"address"}],"name":"transferOwnership","outputs":[],"stateMutability":"nonpayable","type":"function"}],"evm":{"bytecode":{"linkReferences":{},"object":"60806040523461002e5761001d610014610171565b93929092610196565b6040516126ce61055082396126ce90f35b600080fd5b634e487b7160e01b600052604160045260246000fd5b90601f01601f191681019081106001600160401b0382111761006a57604052565b610033565b9061008361007c60405190565b9283610049565b565b6001600160401b03811161006a57602090601f01601f19160190565b60005b8381106100b45750506000910152565b81810151838201526020016100a4565b909291926100d96100d482610085565b61006f565b938185528183011161002e576100839160208501906100a1565b9080601f8301121561002e57815161010d926020016100c4565b90565b919060a08382031261002e5782516001600160401b03811161002e57816101389185016100f3565b60208401519093906001600160401b03811161002e578261015a9183016100f3565b604082015160608301516080909301519194909350565b61018f612c1e803803806101848161006f565b928339810190610110565b9091929394565b610083948594929391923392610237565b90600019905b9181191691161790565b61010d61010d61010d9290565b906101d461010d6101db926101b7565b82546101a7565b9055565b906001600160a01b03906101ad565b61010d90610202906001600160a01b031682565b6001600160a01b031690565b61010d906101ee565b61010d9061020e565b9061023061010d6101db92610217565b82546101df565b61024d6102629661025493949661025b9661026d565b600b6101c4565b600c6101c4565b600d6101c4565b61008333600e610220565b9061008392916102ab565b61020261010d61010d9290565b61010d90610278565b61029790610202565b9052565b602081019291610083919061028e565b916102b5916102ff565b60006102c081610285565b6102c981610202565b6102d284610202565b146102e2575050610083906104f8565b631e4fbdf760e01b825281906102fb906004830161029b565b0390fd5b610083918291829182916104cf565b634e487b7160e01b600052602260045260246000fd5b9060016002830492168015610344575b602083101461033f57565b61030e565b91607f1691610334565b9160001960089290920291821b911b6101ad565b919061037361010d6101db936101b7565b90835461034e565b61008391600091610362565b818110610392575050565b806103a0600060019361037b565b01610387565b9190601f81116103b557505050565b6103c761008393600052602060002090565b906020601f8401819004830193106103e9575b6020601f909101040190610387565b90915081906103da565b906103fc815190565b906001600160401b03821161006a5761041f826104198554610324565b856103a6565b602090601f831160011461045a576101db92916000918361044f575b5050600019600883021c1916906002021790565b01519050388061043b565b601f1983169161046f85600052602060002090565b9260005b8181106104ad57509160029391856001969410610494575b50505002019055565b01516000196008601f8516021c1916905538808061048b565b91936020600181928787015181550195019201610473565b90610083916103f3565b906104de6100839260006104c5565b60016104c5565b61010d90610202565b61010d90546104e5565b61051e610518610508600a6104ee565b61051384600a610220565b610217565b91610217565b907f8be0079c531659141344cd1fd0a4f28419497f9722a3daafe3b4186f6b6457e061054960405190565b600090a356fe6080604052600436101561001257600080fd5b60003560e01c8063018a25e8146102a257806301ffc9a71461029d57806302d05d3f146102985780630583e9f81461029357806306fdde031461028e578063081812fc14610289578063095ea7b31461028457806312ea5c7e1461027f578063150b7a021461027a57806318160ddd146102755780631d0806ae1461027057806321a1c1841461026b57806323b872dd146102665780632dcd52f2146102615780632f745c591461025c5780633f5160181461025757806342842e0e1461025257806343d32e9c1461024d5780634a8fe650146102485780634f6ccce71461024357806353613dd31461023e57806355f804b3146102395780635eba096b146102345780636352211e1461022f5780636c0360eb1461022a57806370a0823114610225578063715018a6146102205780637284e4161461021b578063771282f6146102165780638da5cb5b1461021157806390c3f38f1461020c57806395d89b4114610207578063a22cb46514610202578063ad64d068146101fd578063ae104265146101f8578063b88d4fde146101f3578063c87b56dd146101ee578063cf6a68bf146101e9578063d5abeb01146101e4578063e985e9c5146101df5763f2fde38b036102b257610d02565b610ce6565b610ca8565b610c81565b610c66565b610c4a565b610c2f565b610c14565b610b9f565b610b4c565b610b34565b610b19565b610afe565b610ad7565b610ab3565b610a98565b610a7d565b61093b565b61091f565b6108eb565b6108aa565b610883565b610868565b61084d565b610834565b61081c565b6107ec565b6107d0565b6107b7565b610773565b610758565b610730565b6106f6565b6105bb565b610536565b6104e2565b6104bb565b610434565b610396565b610323565b6102bd565b60009103126102b257565b600080fd5b9052565b565b346102b2576102cd3660046102a7565b6102e86102d8610d2b565b6040519182918290815260200190565b0390f35b6001600160e01b031981165b036102b257565b905035906102bb826102ec565b906020828203126102b257610320916102ff565b90565b346102b2576102e861033e61033936600461030c565b610d38565b6040515b91829182901515815260200190565b610320916008021c5b6001600160a01b031690565b906103209154610351565b6103206000600e610366565b6102b79061035a565b6020810192916102bb919061037d565b346102b2576103a63660046102a7565b6102e86103b1610371565b60405191829182610386565b806102f8565b905035906102bb826103bd565b906020828203126102b257610320916103c3565b6103206103206103209290565b906103fb906103e4565b600052602052604060002090565b610320916008021c81565b906103209154610409565b600061042f6103209260116103f1565b610414565b346102b2576102e86102d861044a3660046103d0565b61041f565b60005b8381106104625750506000910152565b8181015183820152602001610452565b61049361049c6020936104a693610487815190565b80835293849260200190565b9586910161044f565b601f01601f191690565b0190565b602080825261032092910190610472565b346102b2576104cb3660046102a7565b6102e86104d6610d4a565b604051918291826104aa565b346102b2576102e86103b16104f83660046103d0565b610d54565b6102f88161035a565b905035906102bb826104fd565b91906040838203126102b25761032090602061052f8286610506565b94016103c3565b346102b25761054f610549366004610513565b90610d67565b604051005b9061057461056d610563845190565b8084529260200190565b9260200190565b9060005b8181106105855750505090565b9091926105a261059b6001928651815260200190565b9460200190565b929101610578565b602080825261032092910190610554565b346102b2576105cb3660046102a7565b6102e86105d6610df7565b604051918291826105aa565b634e487b7160e01b600052604160045260246000fd5b90601f01601f1916810190811067ffffffffffffffff82111761061a57604052565b6105e2565b906102bb61062c60405190565b92836105f8565b67ffffffffffffffff811161061a57602090601f01601f19160190565b90826000939282370152565b9092919261067161066c82610633565b61061f565b93818552818301116102b2576102bb916020850190610650565b9080601f830112156102b2578160206103209335910161065c565b906080828203126102b2576106bb8183610506565b926106c98260208501610506565b926106d783604083016103c3565b92606082013567ffffffffffffffff81116102b257610320920161068b565b346102b2576102e861071561070c3660046106a6565b92919091610e44565b604051918291826001600160e01b0319909116815260200190565b346102b2576107403660046102a7565b6102e86102d860085490565b6103206000600b610414565b346102b2576107683660046102a7565b6102e86102d861074c565b346102b2576107833660046102a7565b6102e86102d8610ec9565b90916060828403126102b2576103206107a78484610506565b93604061052f8260208701610506565b346102b25761054f6107ca36600461078e565b91610f4b565b346102b2576107e03660046102a7565b6102e86102d860105490565b346102b2576102e86102d8610802366004610513565b90611005565b906020828203126102b25761032091610506565b346102b25761054f61082f366004610808565b611125565b346102b25761054f61084736600461078e565b91611152565b346102b25761085d3660046102a7565b6102e86102d8611166565b346102b2576108783660046102a7565b6102e86102d86111b7565b346102b2576102e86102d86108993660046103d0565b6111d8565b6103206000600d610414565b346102b2576108ba3660046102a7565b6102e86102d861089e565b906020828203126102b257813567ffffffffffffffff81116102b257610320920161068b565b346102b25761054f6108fe3660046108c5565b6113c4565b91906040838203126102b25761032090602061052f82866103c3565b346102b2576102e86105d6610935366004610903565b90611480565b346102b2576102e86103b16109513660046103d0565b61150f565b634e487b7160e01b600052600060045260246000fd5b634e487b7160e01b600052602260045260246000fd5b90600160028304921680156109a2575b602083101461099d57565b61096c565b91607f1691610992565b805460009392916109c96109bf83610982565b8085529360200190565b9160018116908115610a1b57506001146109e257505050565b6109f59192939450600052602060002090565b916000925b818410610a075750500190565b8054848401526020909301926001016109fa565b92949550505060ff1916825215156020020190565b90610320916109ac565b906102bb610a5492610a4b60405190565b93848092610a30565b03836105f8565b90600010610a6c5761032090610a3a565b610956565b61032060006012610a5b565b346102b257610a8d3660046102a7565b6102e86104d6610a71565b346102b2576102e86102d8610aae366004610808565b611518565b346102b257610ac33660046102a7565b61054f611580565b61032060006013610a5b565b346102b257610ae73660046102a7565b6102e86104d6610acb565b6103206000600f610414565b346102b257610b0e3660046102a7565b6102e86102d8610af2565b346102b257610b293660046102a7565b6102e86103b1611588565b346102b25761054f610b473660046108c5565b6115b1565b346102b257610b5c3660046102a7565b6102e86104d66115ba565b8015156102f8565b905035906102bb82610b67565b91906040838203126102b257610320906020610b988286610506565b9401610b6f565b346102b25761054f610bb2366004610b7c565b906115c4565b634e487b7160e01b600052603260045260246000fd5b8054821015610bf157610be8600191600052602060002090565b91020190600090565b610bb8565b6010548110156102b257610c0e610320916010610bce565b90610414565b346102b2576102e86102d8610c2a3660046103d0565b610bf6565b346102b2576102e86102d8610c453660046103d0565b6115cf565b346102b25761054f610c5d3660046106a6565b92919091611660565b346102b2576102e86104d6610c7c3660046103d0565b6116d8565b346102b2576102e86102d8610c973660046103d0565b61171b565b6103206000600c610414565b346102b257610cb83660046102a7565b6102e86102d8610c9c565b91906040838203126102b257610320906020610cdf8286610506565b9401610506565b346102b2576102e861033e610cfc366004610cc3565b90611747565b346102b25761054f610d15366004610808565b6117be565b6103209081565b6103209054610d1a565b610320610c45600f610d21565b610320906117c7565b61032090610a3a565b6103206000610d41565b61032090610d61816117f0565b50611830565b6102bb91339161184c565b90610d8d610d81610563845490565b92600052602060002090565b9060005b818110610d9e5750505090565b909192610dc2610dbb600192610db387610d21565b815260200190565b9460010190565b929101610d91565b9061032091610d72565b906102bb610a5492610de560405190565b93848092610dca565b61032090610dd4565b6103206010610dee565b6103209061035a906001600160a01b031682565b61032090610e01565b610e37610e316103209263ffffffff1690565b60e01b90565b6001600160e01b03191690565b50505050610e50600090565b5061032063150b7a02610e1e565b634e487b7160e01b600052601160045260246000fd5b81810292918115918404141715610e8757565b610e5e565b634e487b7160e01b600052601260045260246000fd5b90610eac565b9190565b908115610eb7570490565b610e8c565b91908203918211610e8757565b610320610ed4611166565b610f01610eea610ee4600d610d21565b83610e74565b610efb670de0b6b3a76400006103e4565b90610ea2565b90610ebc565b61035a6103206103209290565b61032090610f07565b604090610f446102bb9496959396610f3d6060840198600085019061037d565b6020830152565b019061037d565b9091600092610f5984610f14565b610f628161035a565b610f6b8361035a565b14610fba5750610f7d90823391611859565b91610f878161035a565b610f908461035a565b03610f9b5750505050565b6364283d7b60e01b84528392610fb692909160048501610f1d565b0390fd5b84610fb68192633250574960e11b835260048301610386565b9160206102bb929493610fee6040820196600083019061037d565b0152565b61032090610e15565b906103fb90610ff2565b61101161032082611518565b821015611034576103209161102a61102f926006610ffb565b6103f1565b610d21565b63295f44f760e21b60009081529161104d916004610fd3565b036000fd5b6103209061035a565b6103209054611052565b1561106c57565b60405162461bcd60e51b815260206004820152602360248201527f4f6e6c792063726561746f722063616e2063616c6c20746869732066756e637460448201526234b7b760e91b6064820152608490fd5b6102bb906110e56110d66110d1600e61105b565b61035a565b6110df3361035a565b14611065565b61111a565b906001600160a01b03905b9181191691161790565b9061110f61032061111692610ff2565b82546110ea565b9055565b6102bb90600e6110ff565b6102bb906110bd565b9061113b61066c83610633565b918252565b610320600061112e565b610320611140565b90916102bb9261116061114a565b92611660565b611170600f610d21565b61117d610ea860006103e4565b111561119d57610320610c45611193600f610d21565b610f0160016103e4565b610320610c4560006103e4565b91908201809211610e8757565b6103206111c2610d2b565b6111d2610eea610ee4600d610d21565b906111aa565b6111e461032060085490565b8110156111f957610c0e610320916008610bce565b610fb690600091829161120b83610f14565b63295f44f760e21b845260048401610fd3565b6102bb906112326110d66110d1600e61105b565b6113b9565b9160001960089290920291821b911b6110f5565b919061125c610320611116936103e4565b908354611237565b6102bb9160009161124b565b81811061127b575050565b806112896000600193611264565b01611270565b9190601f811161129e57505050565b6112b06102bb93600052602060002090565b906020601f8401819004830193106112d2575b6020601f909101040190611270565b90915081906112c3565b906112e5815190565b9067ffffffffffffffff821161061a57611309826113038554610982565b8561128f565b602090601f831160011461134457611116929160009183611339575b5050600019600883021c1916906002021790565b015190503880611325565b601f1983169161135985600052602060002090565b9260005b8181106113975750916002939185600196941061137e575b50505002019055565b01516000196008601f8516021c19169055388080611375565b9193602060018192878701518155019501920161135d565b906102bb916112dc565b6102bb9060126113af565b6102bb9061121e565b156113d457565b60405162461bcd60e51b815260206004820152601960248201527f537461727420696e646578206f7574206f6620626f756e6473000000000000006044820152606490fd5b67ffffffffffffffff811161061a5760208091020190565b9061113b61066c83611419565b369037565b906102bb61145961145384611431565b93611419565b601f19016020840161143e565b9061146f825190565b811015610bf1576020809102010190565b916114ad6114a560109361149f611498610320875490565b87106113cd565b856111aa565b835490611864565b916114c06114bb8585610ebc565b611443565b91845b845b811015611506576114ff816114f96114e3610c0e6114c59588610bce565b6114f66114f08b85610ebc565b89611466565b52565b60010190565b90506114c3565b50935050905090565b610320906117f0565b600061152381610f14565b61152c8161035a565b6115358461035a565b1461154a57505061102f610320916003610ffb565b6322718ad960e21b82528190610fb69060048301610386565b61156b611876565b6102bb6102bb61157b6000610f14565b6118b3565b6102bb611563565b610320600a61105b565b6102bb906115a66110d66110d1600e61105b565b6102bb9060136113af565b6102bb90611592565b6103206001610d41565b6102bb91903361192c565b6115d960006103e4565b811461165557610320906111d26115f0600b610d21565b9161161761164061163661163661164561161d61160d600b610d21565b61161760026103e4565b90610e74565b6116176116406116368961163160646103e4565b610e74565b610efb600c610d21565b6119f0565b94611631816116316127106103e4565b50610320600b610d21565b906102bb939291611672838383610f4b565b611b69565b6104a661168f92602092611689815190565b94859290565b9384910161044f565b6116a6906103209392611677565b90611677565b6116cc92916102bb916116be60405190565b948592602084019283611698565b908103825203836105f8565b6116e1816117f0565b506116ea611c90565b80516116f9610ea860006103e4565b11156117115761170b61032092611cb0565b906116ac565b505061032061114a565b610c0e6103209161172a600090565b506010610bce565b610320905b60ff1690565b6103209054611732565b610320916117626117679261175a600090565b506005610ffb565b610ffb565b61173d565b6102bb90611778611876565b600061178381610f14565b61178c8161035a565b6117958461035a565b146117a55750506102bb906118b3565b631e4fbdf760e01b82528190610fb69060048301610386565b6102bb9061176c565b63780e9d6360e01b6001600160e01b03198216149081156117e6575090565b6103209150611d3d565b6117f981611d88565b906000906118096110d183610f14565b6118128461035a565b1461181c57505090565b637e27328960e01b82526004820152602490fd5b6118476103209161183f600090565b5060046103f1565b61105b565b916001916102bb93611d9f565b610320929190611ecb565b9080821015611871575090565b905090565b61187e611588565b339061189261188c8361035a565b9161035a565b0361189a5750565b63118cdaa760e01b60009081529061104d906004610386565b6118d96118d36118c3600a61105b565b6118ce84600a6110ff565b610ff2565b91610ff2565b907f8be0079c531659141344cd1fd0a4f28419497f9722a3daafe3b4186f6b6457e061190460405190565b80805b0390a3565b9060ff906110f5565b9061192561032061111692151590565b825461190c565b600061193a6110d182610f14565b6119438461035a565b1461199c575061190761199261198c836118ce87611987886117627f17307eab39ab6107e8899845ad3d59bd9653f200f220920489ca2b5937696c31996005610ffb565b611915565b93610ff2565b9361034260405190565b630b61174360e31b815280610fb68460048301610386565b6117376103206103209290565b610320906119d5610ea86103209460ff1690565b901c90565b610320906119eb610ea86103209490565b901b90565b6119fa60006103e4565b8114611ae0576001611a0b82611f64565b611a14826119b4565b808080808096611a258280986119c1565b90611a2f906103e4565b90611a39916119da565b611a43818a610ea2565b0190611a4e916119c1565b611a588189610ea2565b0190611a63916119c1565b611a6d8188610ea2565b0190611a78916119c1565b611a828187610ea2565b0190611a8d916119c1565b611a978186610ea2565b0190611aa2916119c1565b611aac8185610ea2565b0190611ab7916119c1565b611ac18184610ea2565b0190611acc916119c1565b9081611ad791610ea2565b61032091611864565b5061032060006103e4565b905051906102bb826102ec565b906020828203126102b25761032091611aeb565b9092611b3d90611b366103209694611b2c6080860197600087019061037d565b602085019061037d565b6040830152565b6060818403910152610472565b3d15611b6457611b593d61112e565b903d6000602084013e565b606090565b6000939192833b611b7c610ea8876103e4565b11611b89575b5050505050565b602091611b986118ce86610ff2565b908633611bc1611ba760405190565b97889687958694630a85bd0160e11b865260048601611b0c565b03925af160009181611c5f575b50611c205750611be3565b3880808080611b82565b611beb611b4a565b8051611bf9610ea8856103e4565b03611c185750633250574960e11b82528190610fb69060048301610386565b805190602001fd5b611c3a630a85bd0160e11b5b916001600160e01b03191690565b03611c46575050611bd9565b633250574960e11b82528190610fb69060048301610386565b611c8291925060203d602011611c89575b611c7a81836105f8565b810190611af8565b9038611bce565b503d611c70565b6103206012610d41565b906102bb611459611caa8461112e565b93610633565b611cb981612116565b90611cca6001926104a660016103e4565b9180611cd584611c9a565b936020018401905b611ce8575b50505090565b8115611d3857611d1c9060001901926f181899199a1a9b1b9c1cb0b131b232b360811b600a82061a8453610efb600a6103e4565b9081611d2b610ea860006103e4565b14611d3857909181611cdd565b611ce2565b6380ac58cd60e01b6001600160e01b0319821614908115611d6d575b8115611d63575090565b61032091506122aa565b6001600160e01b03198116635b5e139f60e01b149150611d59565b61184761032091611d97600090565b5060026103f1565b92919091808115611ead575b611dc6575b505090611dc16102bb9260046103f1565b6110ff565b611dcf836117f0565b91600090611ddf6110d183610f14565b611de88261035a565b141580611e93575b80611e7c575b611e6357505091611dc1916102bb9493611e13575b509192611db0565b611e1c90610ff2565b611e2584610ff2565b611e2e836103e4565b917f8c5be1e5ebec7d5bd14f71427d1e84f3dd0314c0f7b2291e5b200ac8c7c3b925611e5960405190565b600090a438611e0b565b63a9fbf51f60e01b82528190610fb69060048301610386565b50611e8e611e8a8286611747565b1590565b611df6565b50611e9d8161035a565b611ea68561035a565b1415611df0565b50611ebb6110d16000610f14565b611ec48361035a565b1415611dab565b9091611ed89083836122df565b91611f06611ee66000610f14565b611eef8161035a565b611ef88661035a565b03611f43576110d1836124cc565b611f0f8361035a565b03611f1e57610320915061255b565b611f278261035a565b611f308461035a565b03611f3a57505090565b610320916124ee565b611f4c8461035a565b611f558661035a565b1461035a576110d18386612413565b600061205f610ea8612059611f78846103e4565b94611f8c611f8660806119b4565b826119c1565b8681116120ff575b50611fa2611f8660406119b4565b611fab866103e4565b81116120e8575b50611fc0611f8660206119b4565b611fc9866103e4565b81116120d1575b50611fde611f8660106119b4565b611fe7866103e4565b81116120ba575b50611ffc611f8660086119b4565b612005866103e4565b81116120a3575b5061201a611f8660046119b4565b612023866103e4565b811161208c575b50612038611f8660026119b4565b612041866103e4565b8111612075575b5061205360016119b4565b906119c1565b926103e4565b116120675790565b610320906104a660016103e4565b6120859150956104a660026103e4565b9438612048565b61209c9150956104a660046103e4565b943861202a565b6120b39150956104a660086103e4565b943861200c565b6120ca9150956104a660106103e4565b9438611fee565b6120e19150956104a660206103e4565b9438611fd0565b6120f89150956104a660406103e4565b9438611fb2565b61210f9150956104a660806103e4565b9438611f94565b61212060006103e4565b907a184f03e93ff9f4daa797ed6e38ed64bf6a1f010000000000000000612146816103e4565b821015612288575b506d04ee2d6d415b85acef8100000000612167816103e4565b821015612266575b50662386f26fc10000612181816103e4565b821015612244575b506305f5e100612198816103e4565b821015612222575b506127106121ad816103e4565b821015612200575b506121c060646103e4565b8110156121de575b6121d5610ea8600a6103e4565b10156120675790565b6121ef6121fa91610efb60646103e4565b916104a660026103e4565b906121c8565b61221b91610efb612210926103e4565b916104a660046103e4565b90386121b5565b61223d91610efb612232926103e4565b916104a660086103e4565b90386121a0565b61225f91610efb612254926103e4565b916104a660106103e4565b9038612189565b61228191610efb612276926103e4565b916104a660206103e4565b903861216f565b6122a391610efb612298926103e4565b916104a660406103e4565b903861214e565b6122ba6301ffc9a760e01b611c2c565b1490565b90600019906110f5565b906122d8610320611116926103e4565b82546122be565b906123326122ec82611d88565b9360006122f881610f14565b91846123038461035a565b61230c8361035a565b03612402575b505061231d8261035a565b6123268761035a565b036123c7575b5061035a565b61233b8361035a565b03612397575b61235082611dc18360026103f1565b61236561235f61198c85610ff2565b916103e4565b917fddf252ad1be2c89b69c2b068fc378daa952ba7f163c4a11628f55a4df523b3ef61239060405190565b600090a490565b6123c26123a460016103e4565b6123bc6123b2856003610ffb565b916104a683610d21565b906122c8565b612341565b6123d390828581611d9f565b6123fc6123e060016103e4565b6123bc6123ee886003610ffb565b916123f883610d21565b0390565b3861232c565b61240c91886125ae565b3884612312565b6124526102bb9261102a6000936124578561245261243084611518565b9560078561244161102f84846103f1565b8980820361245e575b5050506103f1565b611264565b6006610ffb565b61102a6124908461248b8561248161102f61248b9761102a6124969b6006610ffb565b9485936006610ffb565b6122c8565b846103f1565b85388961244a565b908154916801000000000000000083101561061a57826124c69160016102bb95018155610bce565b9061124b565b6102bb906124e76124dc60085490565b61248b8360096103f1565b600861249e565b61248b826125166102bb9461248b61102a9561250c61119382611518565b9687916006610ffb565b60076103f1565b634e487b7160e01b600052603160045260246000fd5b8054801561255657600019019061255361254d8383610bce565b90611264565b55565b61251d565b6125a96102bb916103206000612452600893612578611193865490565b61102a60099161248b61259b610c0e61259461102f88886103f1565b938b610bce565b612490816124c6858d610bce565b612533565b906125bd611e8a84838561260e565b6125c657505050565b60009283926125da61188c6110d186610f14565b036125f757637e27328960e01b8352600483015250602481010390fd5b63177e802f60e01b8352610fb69160048401610fd3565b9061261c6110d16000610f14565b6126258261035a565b141592836126335750505090565b909192506126408261035a565b6126498461035a565b14928315612684575b508215612664575b5050388080611ce2565b61267c91925061267661188c91611830565b9261035a565b14388061265a565b6126919193508290611747565b913861265256fea2646970667358221220aa79344d0e48ea849e90500e5be18cfb9a78c18c04b3a119aa0422a298fc6db964736f6c634300081c0033","opcodes":"PUSH1 0x80 PUSH1 0x40 MSTORE CALLVALUE PUSH2 0x2E JUMPI PUSH2 0x1D PUSH2 0x14 PUSH2 0x171 JUMP JUMPDEST SWAP4 SWAP3 SWAP1 SWAP3 PUSH2 0x196 JUMP JUMPDEST PUSH1 0x40 MLOAD PUSH2 0x26CE PUSH2 0x550 DUP3 CODECOPY PUSH2 0x26CE SWAP1 RETURN JUMPDEST PUSH1 0x0 DUP1 REVERT JUMPDEST PUSH4 0x4E487B71 PUSH1 0xE0 SHL PUSH1 0x0 MSTORE PUSH1 0x41 PUSH1 0x4 MSTORE PUSH1 0x24 PUSH1 0x0 REVERT JUMPDEST SWAP1 PUSH1 0x1F ADD PUSH1 0x1F NOT AND DUP2 ADD SWAP1 DUP2 LT PUSH1 0x1 PUSH1 0x1 PUSH1 0x40 SHL SUB DUP3 GT OR PUSH2 0x6A JUMPI PUSH1 0x40 MSTORE JUMP JUMPDEST PUSH2 0x33 JUMP JUMPDEST SWAP1 PUSH2 0x83 PUSH2 0x7C PUSH1 0x40 MLOAD SWAP1 JUMP JUMPDEST SWAP3 DUP4 PUSH2 0x49 JUMP JUMPDEST JUMP JUMPDEST PUSH1 0x1 PUSH1 0x1 PUSH1 0x40 SHL SUB DUP2 GT PUSH2 0x6A JUMPI PUSH1 0x20 SWAP1 PUSH1 0x1F ADD PUSH1 0x1F NOT AND ADD SWAP1 JUMP JUMPDEST PUSH1 0x0 JUMPDEST DUP4 DUP2 LT PUSH2 0xB4 JUMPI POP POP PUSH1 0x0 SWAP2 ADD MSTORE JUMP JUMPDEST DUP2 DUP2 ADD MLOAD DUP4 DUP3 ADD MSTORE PUSH1 0x20 ADD PUSH2 0xA4 JUMP JUMPDEST SWAP1 SWAP3 SWAP2 SWAP3 PUSH2 0xD9 PUSH2 0xD4 DUP3 PUSH2 0x85 JUMP JUMPDEST PUSH2 0x6F JUMP JUMPDEST SWAP4 DUP2 DUP6 MSTORE DUP2 DUP4 ADD GT PUSH2 0x2E JUMPI PUSH2 0x83 SWAP2 PUSH1 0x20 DUP6 ADD SWAP1 PUSH2 0xA1 JUMP JUMPDEST SWAP1 DUP1 PUSH1 0x1F DUP4 ADD SLT ISZERO PUSH2 0x2E JUMPI DUP2 MLOAD PUSH2 0x10D SWAP3 PUSH1 0x20 ADD PUSH2 0xC4 JUMP JUMPDEST SWAP1 JUMP JUMPDEST SWAP2 SWAP1 PUSH1 0xA0 DUP4 DUP3 SUB SLT PUSH2 0x2E JUMPI DUP3 MLOAD PUSH1 0x1 PUSH1 0x1 PUSH1 0x40 SHL SUB DUP2 GT PUSH2 0x2E JUMPI DUP2 PUSH2 0x138 SWAP2 DUP6 ADD PUSH2 0xF3 JUMP JUMPDEST PUSH1 0x20 DUP5 ADD MLOAD SWAP1 SWAP4 SWAP1 PUSH1 0x1 PUSH1 0x1 PUSH1 0x40 SHL SUB DUP2 GT PUSH2 0x2E JUMPI DUP3 PUSH2 0x15A SWAP2 DUP4 ADD PUSH2 0xF3 JUMP JUMPDEST PUSH1 0x40 DUP3 ADD MLOAD PUSH1 0x60 DUP4 ADD MLOAD PUSH1 0x80 SWAP1 SWAP4 ADD MLOAD SWAP2 SWAP5 SWAP1 SWAP4 POP JUMP JUMPDEST PUSH2 0x18F PUSH2 0x2C1E DUP1 CODESIZE SUB DUP1 PUSH2 0x184 DUP2 PUSH2 0x6F JUMP JUMPDEST SWAP3 DUP4 CODECOPY DUP2 ADD SWAP1 PUSH2 0x110 JUMP JUMPDEST SWAP1 SWAP2 SWAP3 SWAP4 SWAP5 JUMP JUMPDEST PUSH2 0x83 SWAP5 DUP6 SWAP5 SWAP3 SWAP4 SWAP2 SWAP3 CALLER SWAP3 PUSH2 0x237 JUMP JUMPDEST SWAP1 PUSH1 0x0 NOT SWAP1 JUMPDEST SWAP2 DUP2 NOT AND SWAP2 AND OR SWAP1 JUMP JUMPDEST PUSH2 0x10D PUSH2 0x10D PUSH2 0x10D SWAP3 SWAP1 JUMP JUMPDEST SWAP1 PUSH2 0x1D4 PUSH2 0x10D PUSH2 0x1DB SWAP3 PUSH2 0x1B7 JUMP JUMPDEST DUP3 SLOAD PUSH2 0x1A7 JUMP JUMPDEST SWAP1 SSTORE JUMP JUMPDEST SWAP1 PUSH1 0x1 PUSH1 0x1 PUSH1 0xA0 SHL SUB SWAP1 PUSH2 0x1AD JUMP JUMPDEST PUSH2 0x10D SWAP1 PUSH2 0x202 SWAP1 PUSH1 0x1 PUSH1 0x1 PUSH1 0xA0 SHL SUB AND DUP3 JUMP JUMPDEST PUSH1 0x1 PUSH1 0x1 PUSH1 0xA0 SHL SUB AND SWAP1 JUMP JUMPDEST PUSH2 0x10D SWAP1 PUSH2 0x1EE JUMP JUMPDEST PUSH2 0x10D SWAP1 PUSH2 0x20E JUMP JUMPDEST SWAP1 PUSH2 0x230 PUSH2 0x10D PUSH2 0x1DB SWAP3 PUSH2 0x217 JUMP JUMPDEST DUP3 SLOAD PUSH2 0x1DF JUMP JUMPDEST PUSH2 0x24D PUSH2 0x262 SWAP7 PUSH2 0x254 SWAP4 SWAP5 SWAP7 PUSH2 0x25B SWAP7 PUSH2 0x26D JUMP JUMPDEST PUSH1 0xB PUSH2 0x1C4 JUMP JUMPDEST PUSH1 0xC PUSH2 0x1C4 JUMP JUMPDEST PUSH1 0xD PUSH2 0x1C4 JUMP JUMPDEST PUSH2 0x83 CALLER PUSH1 0xE PUSH2 0x220 JUMP JUMPDEST SWAP1 PUSH2 0x83 SWAP3 SWAP2 PUSH2 0x2AB JUMP JUMPDEST PUSH2 0x202 PUSH2 0x10D PUSH2 0x10D SWAP3 SWAP1 JUMP JUMPDEST PUSH2 0x10D SWAP1 PUSH2 0x278 JUMP JUMPDEST PUSH2 0x297 SWAP1 PUSH2 0x202 JUMP JUMPDEST SWAP1 MSTORE JUMP JUMPDEST PUSH1 0x20 DUP2 ADD SWAP3 SWAP2 PUSH2 0x83 SWAP2 SWAP1 PUSH2 0x28E JUMP JUMPDEST SWAP2 PUSH2 0x2B5 SWAP2 PUSH2 0x2FF JUMP JUMPDEST PUSH1 0x0 PUSH2 0x2C0 DUP2 PUSH2 0x285 JUMP JUMPDEST PUSH2 0x2C9 DUP2 PUSH2 0x202 JUMP JUMPDEST PUSH2 0x2D2 DUP5 PUSH2 0x202 JUMP JUMPDEST EQ PUSH2 0x2E2 JUMPI POP POP PUSH2 0x83 SWAP1 PUSH2 0x4F8 JUMP JUMPDEST PUSH4 0x1E4FBDF7 PUSH1 0xE0 SHL DUP3 MSTORE DUP2 SWAP1 PUSH2 0x2FB SWAP1 PUSH1 0x4 DUP4 ADD PUSH2 0x29B JUMP JUMPDEST SUB SWAP1 REVERT JUMPDEST PUSH2 0x83 SWAP2 DUP3 SWAP2 DUP3 SWAP2 DUP3 SWAP2 PUSH2 0x4CF JUMP JUMPDEST PUSH4 0x4E487B71 PUSH1 0xE0 SHL PUSH1 0x0 MSTORE PUSH1 0x22 PUSH1 0x4 MSTORE PUSH1 0x24 PUSH1 0x0 REVERT JUMPDEST SWAP1 PUSH1 0x1 PUSH1 0x2 DUP4 DIV SWAP3 AND DUP1 ISZERO PUSH2 0x344 JUMPI JUMPDEST PUSH1 0x20 DUP4 LT EQ PUSH2 0x33F JUMPI JUMP JUMPDEST PUSH2 0x30E JUMP JUMPDEST SWAP2 PUSH1 0x7F AND SWAP2 PUSH2 0x334 JUMP JUMPDEST SWAP2 PUSH1 0x0 NOT PUSH1 0x8 SWAP3 SWAP1 SWAP3 MUL SWAP2 DUP3 SHL SWAP2 SHL PUSH2 0x1AD JUMP JUMPDEST SWAP2 SWAP1 PUSH2 0x373 PUSH2 0x10D PUSH2 0x1DB SWAP4 PUSH2 0x1B7 JUMP JUMPDEST SWAP1 DUP4 SLOAD PUSH2 0x34E JUMP JUMPDEST PUSH2 0x83 SWAP2 PUSH1 0x0 SWAP2 PUSH2 0x362 JUMP JUMPDEST DUP2 DUP2 LT PUSH2 0x392 JUMPI POP POP JUMP JUMPDEST DUP1 PUSH2 0x3A0 PUSH1 0x0 PUSH1 0x1 SWAP4 PUSH2 0x37B JUMP JUMPDEST ADD PUSH2 0x387 JUMP JUMPDEST SWAP2 SWAP1 PUSH1 0x1F DUP2 GT PUSH2 0x3B5 JUMPI POP POP POP JUMP JUMPDEST PUSH2 0x3C7 PUSH2 0x83 SWAP4 PUSH1 0x0 MSTORE PUSH1 0x20 PUSH1 0x0 KECCAK256 SWAP1 JUMP JUMPDEST SWAP1 PUSH1 0x20 PUSH1 0x1F DUP5 ADD DUP2 SWAP1 DIV DUP4 ADD SWAP4 LT PUSH2 0x3E9 JUMPI JUMPDEST PUSH1 0x20 PUSH1 0x1F SWAP1 SWAP2 ADD DIV ADD SWAP1 PUSH2 0x387 JUMP JUMPDEST SWAP1 SWAP2 POP DUP2 SWAP1 PUSH2 0x3DA JUMP JUMPDEST SWAP1 PUSH2 0x3FC DUP2 MLOAD SWAP1 JUMP JUMPDEST SWAP1 PUSH1 0x1 PUSH1 0x1 PUSH1 0x40 SHL SUB DUP3 GT PUSH2 0x6A JUMPI PUSH2 0x41F DUP3 PUSH2 0x419 DUP6 SLOAD PUSH2 0x324 JUMP JUMPDEST DUP6 PUSH2 0x3A6 JUMP JUMPDEST PUSH1 0x20 SWAP1 PUSH1 0x1F DUP4 GT PUSH1 0x1 EQ PUSH2 0x45A JUMPI PUSH2 0x1DB SWAP3 SWAP2 PUSH1 0x0 SWAP2 DUP4 PUSH2 0x44F JUMPI JUMPDEST POP POP PUSH1 0x0 NOT PUSH1 0x8 DUP4 MUL SHR NOT AND SWAP1 PUSH1 0x2 MUL OR SWAP1 JUMP JUMPDEST ADD MLOAD SWAP1 POP CODESIZE DUP1 PUSH2 0x43B JUMP JUMPDEST PUSH1 0x1F NOT DUP4 AND SWAP2 PUSH2 0x46F DUP6 PUSH1 0x0 MSTORE PUSH1 0x20 PUSH1 0x0 KECCAK256 SWAP1 JUMP JUMPDEST SWAP3 PUSH1 0x0 JUMPDEST DUP2 DUP2 LT PUSH2 0x4AD JUMPI POP SWAP2 PUSH1 0x2 SWAP4 SWAP2 DUP6 PUSH1 0x1 SWAP7 SWAP5 LT PUSH2 0x494 JUMPI JUMPDEST POP POP POP MUL ADD SWAP1 SSTORE JUMP JUMPDEST ADD MLOAD PUSH1 0x0 NOT PUSH1 0x8 PUSH1 0x1F DUP6 AND MUL SHR NOT AND SWAP1 SSTORE CODESIZE DUP1 DUP1 PUSH2 0x48B JUMP JUMPDEST SWAP2 SWAP4 PUSH1 0x20 PUSH1 0x1 DUP2 SWAP3 DUP8 DUP8 ADD MLOAD DUP2 SSTORE ADD SWAP6 ADD SWAP3 ADD PUSH2 0x473 JUMP JUMPDEST SWAP1 PUSH2 0x83 SWAP2 PUSH2 0x3F3 JUMP JUMPDEST SWAP1 PUSH2 0x4DE PUSH2 0x83 SWAP3 PUSH1 0x0 PUSH2 0x4C5 JUMP JUMPDEST PUSH1 0x1 PUSH2 0x4C5 JUMP JUMPDEST PUSH2 0x10D SWAP1 PUSH2 0x202 JUMP JUMPDEST PUSH2 0x10D SWAP1 SLOAD PUSH2 0x4E5 JUMP JUMPDEST PUSH2 0x51E PUSH2 0x518 PUSH2 0x508 PUSH1 0xA PUSH2 0x4EE JUMP JUMPDEST PUSH2 0x513 DUP5 PUSH1 0xA PUSH2 0x220 JUMP JUMPDEST PUSH2 0x217 JUMP JUMPDEST SWAP2 PUSH2 0x217 JUMP JUMPDEST SWAP1 PUSH32 0x8BE0079C531659141344CD1FD0A4F28419497F9722A3DAAFE3B4186F6B6457E0 PUSH2 0x549 PUSH1 0x40 MLOAD SWAP1 JUMP JUMPDEST PUSH1 0x0 SWAP1 LOG3 JUMP INVALID PUSH1 0x80 PUSH1 0x40 MSTORE PUSH1 0x4 CALLDATASIZE LT ISZERO PUSH2 0x12 JUMPI PUSH1 0x0 DUP1 REVERT JUMPDEST PUSH1 0x0 CALLDATALOAD PUSH1 0xE0 SHR DUP1 PUSH4 0x18A25E8 EQ PUSH2 0x2A2 JUMPI DUP1 PUSH4 0x1FFC9A7 EQ PUSH2 0x29D JUMPI DUP1 PUSH4 0x2D05D3F EQ PUSH2 0x298 JUMPI DUP1 PUSH4 0x583E9F8 EQ PUSH2 0x293 JUMPI DUP1 PUSH4 0x6FDDE03 EQ PUSH2 0x28E JUMPI DUP1 PUSH4 0x81812FC EQ PUSH2 0x289 JUMPI DUP1 PUSH4 0x95EA7B3 EQ PUSH2 0x284 JUMPI DUP1 PUSH4 0x12EA5C7E EQ PUSH2 0x27F JUMPI DUP1 PUSH4 0x150B7A02 EQ PUSH2 0x27A JUMPI DUP1 PUSH4 0x18160DDD EQ PUSH2 0x275 JUMPI DUP1 PUSH4 0x1D0806AE EQ PUSH2 0x270 JUMPI DUP1 PUSH4 0x21A1C184 EQ PUSH2 0x26B JUMPI DUP1 PUSH4 0x23B872DD EQ PUSH2 0x266 JUMPI DUP1 PUSH4 0x2DCD52F2 EQ PUSH2 0x261 JUMPI DUP1 PUSH4 0x2F745C59 EQ PUSH2 0x25C JUMPI DUP1 PUSH4 0x3F516018 EQ PUSH2 0x257 JUMPI DUP1 PUSH4 0x42842E0E EQ PUSH2 0x252 JUMPI DUP1 PUSH4 0x43D32E9C EQ PUSH2 0x24D JUMPI DUP1 PUSH4 0x4A8FE650 EQ PUSH2 0x248 JUMPI DUP1 PUSH4 0x4F6CCCE7 EQ PUSH2 0x243 JUMPI DUP1 PUSH4 0x53613DD3 EQ PUSH2 0x23E JUMPI DUP1 PUSH4 0x55F804B3 EQ PUSH2 0x239 JUMPI DUP1 PUSH4 0x5EBA096B EQ PUSH2 0x234 JUMPI DUP1 PUSH4 0x6352211E EQ PUSH2 0x22F JUMPI DUP1 PUSH4 0x6C0360EB EQ PUSH2 0x22A JUMPI DUP1 PUSH4 0x70A08231 EQ PUSH2 0x225 JUMPI DUP1 PUSH4 0x715018A6 EQ PUSH2 0x220 JUMPI DUP1 PUSH4 0x7284E416 EQ PUSH2 0x21B JUMPI DUP1 PUSH4 0x771282F6 EQ PUSH2 0x216 JUMPI DUP1 PUSH4 0x8DA5CB5B EQ PUSH2 0x211 JUMPI DUP1 PUSH4 0x90C3F38F EQ PUSH2 0x20C JUMPI DUP1 PUSH4 0x95D89B41 EQ PUSH2 0x207 JUMPI DUP1 PUSH4 0xA22CB465 EQ PUSH2 0x202 JUMPI DUP1 PUSH4 0xAD64D068 EQ PUSH2 0x1FD JUMPI DUP1 PUSH4 0xAE104265 EQ PUSH2 0x1F8 JUMPI DUP1 PUSH4 0xB88D4FDE EQ PUSH2 0x1F3 JUMPI DUP1 PUSH4 0xC87B56DD EQ PUSH2 0x1EE JUMPI DUP1 PUSH4 0xCF6A68BF EQ PUSH2 0x1E9 JUMPI DUP1 PUSH4 0xD5ABEB01 EQ PUSH2 0x1E4 JUMPI DUP1 PUSH4 0xE985E9C5 EQ PUSH2 0x1DF JUMPI PUSH4 0xF2FDE38B SUB PUSH2 0x2B2 JUMPI PUSH2 0xD02 JUMP JUMPDEST PUSH2 0xCE6 JUMP JUMPDEST PUSH2 0xCA8 JUMP JUMPDEST PUSH2 0xC81 JUMP JUMPDEST PUSH2 0xC66 JUMP JUMPDEST PUSH2 0xC4A JUMP JUMPDEST PUSH2 0xC2F JUMP JUMPDEST PUSH2 0xC14 JUMP JUMPDEST PUSH2 0xB9F JUMP JUMPDEST PUSH2 0xB4C JUMP JUMPDEST PUSH2 0xB34 JUMP JUMPDEST PUSH2 0xB19 JUMP JUMPDEST PUSH2 0xAFE JUMP JUMPDEST PUSH2 0xAD7 JUMP JUMPDEST PUSH2 0xAB3 JUMP JUMPDEST PUSH2 0xA98 JUMP JUMPDEST PUSH2 0xA7D JUMP JUMPDEST PUSH2 0x93B JUMP JUMPDEST PUSH2 0x91F JUMP JUMPDEST PUSH2 0x8EB JUMP JUMPDEST PUSH2 0x8AA JUMP JUMPDEST PUSH2 0x883 JUMP JUMPDEST PUSH2 0x868 JUMP JUMPDEST PUSH2 0x84D JUMP JUMPDEST PUSH2 0x834 JUMP JUMPDEST PUSH2 0x81C JUMP JUMPDEST PUSH2 0x7EC JUMP JUMPDEST PUSH2 0x7D0 JUMP JUMPDEST PUSH2 0x7B7 JUMP JUMPDEST PUSH2 0x773 JUMP JUMPDEST PUSH2 0x758 JUMP JUMPDEST PUSH2 0x730 JUMP JUMPDEST PUSH2 0x6F6 JUMP JUMPDEST PUSH2 0x5BB JUMP JUMPDEST PUSH2 0x536 JUMP JUMPDEST PUSH2 0x4E2 JUMP JUMPDEST PUSH2 0x4BB JUMP JUMPDEST PUSH2 0x434 JUMP JUMPDEST PUSH2 0x396 JUMP JUMPDEST PUSH2 0x323 JUMP JUMPDEST PUSH2 0x2BD JUMP JUMPDEST PUSH1 0x0 SWAP2 SUB SLT PUSH2 0x2B2 JUMPI JUMP JUMPDEST PUSH1 0x0 DUP1 REVERT JUMPDEST SWAP1 MSTORE JUMP JUMPDEST JUMP JUMPDEST CALLVALUE PUSH2 0x2B2 JUMPI PUSH2 0x2CD CALLDATASIZE PUSH1 0x4 PUSH2 0x2A7 JUMP JUMPDEST PUSH2 0x2E8 PUSH2 0x2D8 PUSH2 0xD2B JUMP JUMPDEST PUSH1 0x40 MLOAD SWAP2 DUP3 SWAP2 DUP3 SWAP1 DUP2 MSTORE PUSH1 0x20 ADD SWAP1 JUMP JUMPDEST SUB SWAP1 RETURN JUMPDEST PUSH1 0x1 PUSH1 0x1 PUSH1 0xE0 SHL SUB NOT DUP2 AND JUMPDEST SUB PUSH2 0x2B2 JUMPI JUMP JUMPDEST SWAP1 POP CALLDATALOAD SWAP1 PUSH2 0x2BB DUP3 PUSH2 0x2EC JUMP JUMPDEST SWAP1 PUSH1 0x20 DUP3 DUP3 SUB SLT PUSH2 0x2B2 JUMPI PUSH2 0x320 SWAP2 PUSH2 0x2FF JUMP JUMPDEST SWAP1 JUMP JUMPDEST CALLVALUE PUSH2 0x2B2 JUMPI PUSH2 0x2E8 PUSH2 0x33E PUSH2 0x339 CALLDATASIZE PUSH1 0x4 PUSH2 0x30C JUMP JUMPDEST PUSH2 0xD38 JUMP JUMPDEST PUSH1 0x40 MLOAD JUMPDEST SWAP2 DUP3 SWAP2 DUP3 SWAP1 ISZERO ISZERO DUP2 MSTORE PUSH1 0x20 ADD SWAP1 JUMP JUMPDEST PUSH2 0x320 SWAP2 PUSH1 0x8 MUL SHR JUMPDEST PUSH1 0x1 PUSH1 0x1 PUSH1 0xA0 SHL SUB AND SWAP1 JUMP JUMPDEST SWAP1 PUSH2 0x320 SWAP2 SLOAD PUSH2 0x351 JUMP JUMPDEST PUSH2 0x320 PUSH1 0x0 PUSH1 0xE PUSH2 0x366 JUMP JUMPDEST PUSH2 0x2B7 SWAP1 PUSH2 0x35A JUMP JUMPDEST PUSH1 0x20 DUP2 ADD SWAP3 SWAP2 PUSH2 0x2BB SWAP2 SWAP1 PUSH2 0x37D JUMP JUMPDEST CALLVALUE PUSH2 0x2B2 JUMPI PUSH2 0x3A6 CALLDATASIZE PUSH1 0x4 PUSH2 0x2A7 JUMP JUMPDEST PUSH2 0x2E8 PUSH2 0x3B1 PUSH2 0x371 JUMP JUMPDEST PUSH1 0x40 MLOAD SWAP2 DUP3 SWAP2 DUP3 PUSH2 0x386 JUMP JUMPDEST DUP1 PUSH2 0x2F8 JUMP JUMPDEST SWAP1 POP CALLDATALOAD SWAP1 PUSH2 0x2BB DUP3 PUSH2 0x3BD JUMP JUMPDEST SWAP1 PUSH1 0x20 DUP3 DUP3 SUB SLT PUSH2 0x2B2 JUMPI PUSH2 0x320 SWAP2 PUSH2 0x3C3 JUMP JUMPDEST PUSH2 0x320 PUSH2 0x320 PUSH2 0x320 SWAP3 SWAP1 JUMP JUMPDEST SWAP1 PUSH2 0x3FB SWAP1 PUSH2 0x3E4 JUMP JUMPDEST PUSH1 0x0 MSTORE PUSH1 0x20 MSTORE PUSH1 0x40 PUSH1 0x0 KECCAK256 SWAP1 JUMP JUMPDEST PUSH2 0x320 SWAP2 PUSH1 0x8 MUL SHR DUP2 JUMP JUMPDEST SWAP1 PUSH2 0x320 SWAP2 SLOAD PUSH2 0x409 JUMP JUMPDEST PUSH1 0x0 PUSH2 0x42F PUSH2 0x320 SWAP3 PUSH1 0x11 PUSH2 0x3F1 JUMP JUMPDEST PUSH2 0x414 JUMP JUMPDEST CALLVALUE PUSH2 0x2B2 JUMPI PUSH2 0x2E8 PUSH2 0x2D8 PUSH2 0x44A CALLDATASIZE PUSH1 0x4 PUSH2 0x3D0 JUMP JUMPDEST PUSH2 0x41F JUMP JUMPDEST PUSH1 0x0 JUMPDEST DUP4 DUP2 LT PUSH2 0x462 JUMPI POP POP PUSH1 0x0 SWAP2 ADD MSTORE JUMP JUMPDEST DUP2 DUP2 ADD MLOAD DUP4 DUP3 ADD MSTORE PUSH1 0x20 ADD PUSH2 0x452 JUMP JUMPDEST PUSH2 0x493 PUSH2 0x49C PUSH1 0x20 SWAP4 PUSH2 0x4A6 SWAP4 PUSH2 0x487 DUP2 MLOAD SWAP1 JUMP JUMPDEST DUP1 DUP4 MSTORE SWAP4 DUP5 SWAP3 PUSH1 0x20 ADD SWAP1 JUMP JUMPDEST SWAP6 DUP7 SWAP2 ADD PUSH2 0x44F JUMP JUMPDEST PUSH1 0x1F ADD PUSH1 0x1F NOT AND SWAP1 JUMP JUMPDEST ADD SWAP1 JUMP JUMPDEST PUSH1 0x20 DUP1 DUP3 MSTORE PUSH2 0x320 SWAP3 SWAP2 ADD SWAP1 PUSH2 0x472 JUMP JUMPDEST CALLVALUE PUSH2 0x2B2 JUMPI PUSH2 0x4CB CALLDATASIZE PUSH1 0x4 PUSH2 0x2A7 JUMP JUMPDEST PUSH2 0x2E8 PUSH2 0x4D6 PUSH2 0xD4A JUMP JUMPDEST PUSH1 0x40 MLOAD SWAP2 DUP3 SWAP2 DUP3 PUSH2 0x4AA JUMP JUMPDEST CALLVALUE PUSH2 0x2B2 JUMPI PUSH2 0x2E8 PUSH2 0x3B1 PUSH2 0x4F8 CALLDATASIZE PUSH1 0x4 PUSH2 0x3D0 JUMP JUMPDEST PUSH2 0xD54 JUMP JUMPDEST PUSH2 0x2F8 DUP2 PUSH2 0x35A JUMP JUMPDEST SWAP1 POP CALLDATALOAD SWAP1 PUSH2 0x2BB DUP3 PUSH2 0x4FD JUMP JUMPDEST SWAP2 SWAP1 PUSH1 0x40 DUP4 DUP3 SUB SLT PUSH2 0x2B2 JUMPI PUSH2 0x320 SWAP1 PUSH1 0x20 PUSH2 0x52F DUP3 DUP7 PUSH2 0x506 JUMP JUMPDEST SWAP5 ADD PUSH2 0x3C3 JUMP JUMPDEST CALLVALUE PUSH2 0x2B2 JUMPI PUSH2 0x54F PUSH2 0x549 CALLDATASIZE PUSH1 0x4 PUSH2 0x513 JUMP JUMPDEST SWAP1 PUSH2 0xD67 JUMP JUMPDEST PUSH1 0x40 MLOAD STOP JUMPDEST SWAP1 PUSH2 0x574 PUSH2 0x56D PUSH2 0x563 DUP5 MLOAD SWAP1 JUMP JUMPDEST DUP1 DUP5 MSTORE SWAP3 PUSH1 0x20 ADD SWAP1 JUMP JUMPDEST SWAP3 PUSH1 0x20 ADD SWAP1 JUMP JUMPDEST SWAP1 PUSH1 0x0 JUMPDEST DUP2 DUP2 LT PUSH2 0x585 JUMPI POP POP POP SWAP1 JUMP JUMPDEST SWAP1 SWAP2 SWAP3 PUSH2 0x5A2 PUSH2 0x59B PUSH1 0x1 SWAP3 DUP7 MLOAD DUP2 MSTORE PUSH1 0x20 ADD SWAP1 JUMP JUMPDEST SWAP5 PUSH1 0x20 ADD SWAP1 JUMP JUMPDEST SWAP3 SWAP2 ADD PUSH2 0x578 JUMP JUMPDEST PUSH1 0x20 DUP1 DUP3 MSTORE PUSH2 0x320 SWAP3 SWAP2 ADD SWAP1 PUSH2 0x554 JUMP JUMPDEST CALLVALUE PUSH2 0x2B2 JUMPI PUSH2 0x5CB CALLDATASIZE PUSH1 0x4 PUSH2 0x2A7 JUMP JUMPDEST PUSH2 0x2E8 PUSH2 0x5D6 PUSH2 0xDF7 JUMP JUMPDEST PUSH1 0x40 MLOAD SWAP2 DUP3 SWAP2 DUP3 PUSH2 0x5AA JUMP JUMPDEST PUSH4 0x4E487B71 PUSH1 0xE0 SHL PUSH1 0x0 MSTORE PUSH1 0x41 PUSH1 0x4 MSTORE PUSH1 0x24 PUSH1 0x0 REVERT JUMPDEST SWAP1 PUSH1 0x1F ADD PUSH1 0x1F NOT AND DUP2 ADD SWAP1 DUP2 LT PUSH8 0xFFFFFFFFFFFFFFFF DUP3 GT OR PUSH2 0x61A JUMPI PUSH1 0x40 MSTORE JUMP JUMPDEST PUSH2 0x5E2 JUMP JUMPDEST SWAP1 PUSH2 0x2BB PUSH2 0x62C PUSH1 0x40 MLOAD SWAP1 JUMP JUMPDEST SWAP3 DUP4 PUSH2 0x5F8 JUMP JUMPDEST PUSH8 0xFFFFFFFFFFFFFFFF DUP2 GT PUSH2 0x61A JUMPI PUSH1 0x20 SWAP1 PUSH1 0x1F ADD PUSH1 0x1F NOT AND ADD SWAP1 JUMP JUMPDEST SWAP1 DUP3 PUSH1 0x0 SWAP4 SWAP3 DUP3 CALLDATACOPY ADD MSTORE JUMP JUMPDEST SWAP1 SWAP3 SWAP2 SWAP3 PUSH2 0x671 PUSH2 0x66C DUP3 PUSH2 0x633 JUMP JUMPDEST PUSH2 0x61F JUMP JUMPDEST SWAP4 DUP2 DUP6 MSTORE DUP2 DUP4 ADD GT PUSH2 0x2B2 JUMPI PUSH2 0x2BB SWAP2 PUSH1 0x20 DUP6 ADD SWAP1 PUSH2 0x650 JUMP JUMPDEST SWAP1 DUP1 PUSH1 0x1F DUP4 ADD SLT ISZERO PUSH2 0x2B2 JUMPI DUP2 PUSH1 0x20 PUSH2 0x320 SWAP4 CALLDATALOAD SWAP2 ADD PUSH2 0x65C JUMP JUMPDEST SWAP1 PUSH1 0x80 DUP3 DUP3 SUB SLT PUSH2 0x2B2 JUMPI PUSH2 0x6BB DUP2 DUP4 PUSH2 0x506 JUMP JUMPDEST SWAP3 PUSH2 0x6C9 DUP3 PUSH1 0x20 DUP6 ADD PUSH2 0x506 JUMP JUMPDEST SWAP3 PUSH2 0x6D7 DUP4 PUSH1 0x40 DUP4 ADD PUSH2 0x3C3 JUMP JUMPDEST SWAP3 PUSH1 0x60 DUP3 ADD CALLDATALOAD PUSH8 0xFFFFFFFFFFFFFFFF DUP2 GT PUSH2 0x2B2 JUMPI PUSH2 0x320 SWAP3 ADD PUSH2 0x68B JUMP JUMPDEST CALLVALUE PUSH2 0x2B2 JUMPI PUSH2 0x2E8 PUSH2 0x715 PUSH2 0x70C CALLDATASIZE PUSH1 0x4 PUSH2 0x6A6 JUMP JUMPDEST SWAP3 SWAP2 SWAP1 SWAP2 PUSH2 0xE44 JUMP JUMPDEST PUSH1 0x40 MLOAD SWAP2 DUP3 SWAP2 DUP3 PUSH1 0x1 PUSH1 0x1 PUSH1 0xE0 SHL SUB NOT SWAP1 SWAP2 AND DUP2 MSTORE PUSH1 0x20 ADD SWAP1 JUMP JUMPDEST CALLVALUE PUSH2 0x2B2 JUMPI PUSH2 0x740 CALLDATASIZE PUSH1 0x4 PUSH2 0x2A7 JUMP JUMPDEST PUSH2 0x2E8 PUSH2 0x2D8 PUSH1 0x8 SLOAD SWAP1 JUMP JUMPDEST PUSH2 0x320 PUSH1 0x0 PUSH1 0xB PUSH2 0x414 JUMP JUMPDEST CALLVALUE PUSH2 0x2B2 JUMPI PUSH2 0x768 CALLDATASIZE PUSH1 0x4 PUSH2 0x2A7 JUMP JUMPDEST PUSH2 0x2E8 PUSH2 0x2D8 PUSH2 0x74C JUMP JUMPDEST CALLVALUE PUSH2 0x2B2 JUMPI PUSH2 0x783 CALLDATASIZE PUSH1 0x4 PUSH2 0x2A7 JUMP JUMPDEST PUSH2 0x2E8 PUSH2 0x2D8 PUSH2 0xEC9 JUMP JUMPDEST SWAP1 SWAP2 PUSH1 0x60 DUP3 DUP5 SUB SLT PUSH2 0x2B2 JUMPI PUSH2 0x320 PUSH2 0x7A7 DUP5 DUP5 PUSH2 0x506 JUMP JUMPDEST SWAP4 PUSH1 0x40 PUSH2 0x52F DUP3 PUSH1 0x20 DUP8 ADD PUSH2 0x506 JUMP JUMPDEST CALLVALUE PUSH2 0x2B2 JUMPI PUSH2 0x54F PUSH2 0x7CA CALLDATASIZE PUSH1 0x4 PUSH2 0x78E JUMP JUMPDEST SWAP2 PUSH2 0xF4B JUMP JUMPDEST CALLVALUE PUSH2 0x2B2 JUMPI PUSH2 0x7E0 CALLDATASIZE PUSH1 0x4 PUSH2 0x2A7 JUMP JUMPDEST PUSH2 0x2E8 PUSH2 0x2D8 PUSH1 0x10 SLOAD SWAP1 JUMP JUMPDEST CALLVALUE PUSH2 0x2B2 JUMPI PUSH2 0x2E8 PUSH2 0x2D8 PUSH2 0x802 CALLDATASIZE PUSH1 0x4 PUSH2 0x513 JUMP JUMPDEST SWAP1 PUSH2 0x1005 JUMP JUMPDEST SWAP1 PUSH1 0x20 DUP3 DUP3 SUB SLT PUSH2 0x2B2 JUMPI PUSH2 0x320 SWAP2 PUSH2 0x506 JUMP JUMPDEST CALLVALUE PUSH2 0x2B2 JUMPI PUSH2 0x54F PUSH2 0x82F CALLDATASIZE PUSH1 0x4 PUSH2 0x808 JUMP JUMPDEST PUSH2 0x1125 JUMP JUMPDEST CALLVALUE PUSH2 0x2B2 JUMPI PUSH2 0x54F PUSH2 0x847 CALLDATASIZE PUSH1 0x4 PUSH2 0x78E JUMP JUMPDEST SWAP2 PUSH2 0x1152 JUMP JUMPDEST CALLVALUE PUSH2 0x2B2 JUMPI PUSH2 0x85D CALLDATASIZE PUSH1 0x4 PUSH2 0x2A7 JUMP JUMPDEST PUSH2 0x2E8 PUSH2 0x2D8 PUSH2 0x1166 JUMP JUMPDEST CALLVALUE PUSH2 0x2B2 JUMPI PUSH2 0x878 CALLDATASIZE PUSH1 0x4 PUSH2 0x2A7 JUMP JUMPDEST PUSH2 0x2E8 PUSH2 0x2D8 PUSH2 0x11B7 JUMP JUMPDEST CALLVALUE PUSH2 0x2B2 JUMPI PUSH2 0x2E8 PUSH2 0x2D8 PUSH2 0x899 CALLDATASIZE PUSH1 0x4 PUSH2 0x3D0 JUMP JUMPDEST PUSH2 0x11D8 JUMP JUMPDEST PUSH2 0x320 PUSH1 0x0 PUSH1 0xD PUSH2 0x414 JUMP JUMPDEST CALLVALUE PUSH2 0x2B2 JUMPI PUSH2 0x8BA CALLDATASIZE PUSH1 0x4 PUSH2 0x2A7 JUMP JUMPDEST PUSH2 0x2E8 PUSH2 0x2D8 PUSH2 0x89E JUMP JUMPDEST SWAP1 PUSH1 0x20 DUP3 DUP3 SUB SLT PUSH2 0x2B2 JUMPI DUP2 CALLDATALOAD PUSH8 0xFFFFFFFFFFFFFFFF DUP2 GT PUSH2 0x2B2 JUMPI PUSH2 0x320 SWAP3 ADD PUSH2 0x68B JUMP JUMPDEST CALLVALUE PUSH2 0x2B2 JUMPI PUSH2 0x54F PUSH2 0x8FE CALLDATASIZE PUSH1 0x4 PUSH2 0x8C5 JUMP JUMPDEST PUSH2 0x13C4 JUMP JUMPDEST SWAP2 SWAP1 PUSH1 0x40 DUP4 DUP3 SUB SLT PUSH2 0x2B2 JUMPI PUSH2 0x320 SWAP1 PUSH1 0x20 PUSH2 0x52F DUP3 DUP7 PUSH2 0x3C3 JUMP JUMPDEST CALLVALUE PUSH2 0x2B2 JUMPI PUSH2 0x2E8 PUSH2 0x5D6 PUSH2 0x935 CALLDATASIZE PUSH1 0x4 PUSH2 0x903 JUMP JUMPDEST SWAP1 PUSH2 0x1480 JUMP JUMPDEST CALLVALUE PUSH2 0x2B2 JUMPI PUSH2 0x2E8 PUSH2 0x3B1 PUSH2 0x951 CALLDATASIZE PUSH1 0x4 PUSH2 0x3D0 JUMP JUMPDEST PUSH2 0x150F JUMP JUMPDEST PUSH4 0x4E487B71 PUSH1 0xE0 SHL PUSH1 0x0 MSTORE PUSH1 0x0 PUSH1 0x4 MSTORE PUSH1 0x24 PUSH1 0x0 REVERT JUMPDEST PUSH4 0x4E487B71 PUSH1 0xE0 SHL PUSH1 0x0 MSTORE PUSH1 0x22 PUSH1 0x4 MSTORE PUSH1 0x24 PUSH1 0x0 REVERT JUMPDEST SWAP1 PUSH1 0x1 PUSH1 0x2 DUP4 DIV SWAP3 AND DUP1 ISZERO PUSH2 0x9A2 JUMPI JUMPDEST PUSH1 0x20 DUP4 LT EQ PUSH2 0x99D JUMPI JUMP JUMPDEST PUSH2 0x96C JUMP JUMPDEST SWAP2 PUSH1 0x7F AND SWAP2 PUSH2 0x992 JUMP JUMPDEST DUP1 SLOAD PUSH1 0x0 SWAP4 SWAP3 SWAP2 PUSH2 0x9C9 PUSH2 0x9BF DUP4 PUSH2 0x982 JUMP JUMPDEST DUP1 DUP6 MSTORE SWAP4 PUSH1 0x20 ADD SWAP1 JUMP JUMPDEST SWAP2 PUSH1 0x1 DUP2 AND SWAP1 DUP2 ISZERO PUSH2 0xA1B JUMPI POP PUSH1 0x1 EQ PUSH2 0x9E2 JUMPI POP POP POP JUMP JUMPDEST PUSH2 0x9F5 SWAP2 SWAP3 SWAP4 SWAP5 POP PUSH1 0x0 MSTORE PUSH1 0x20 PUSH1 0x0 KECCAK256 SWAP1 JUMP JUMPDEST SWAP2 PUSH1 0x0 SWAP3 JUMPDEST DUP2 DUP5 LT PUSH2 0xA07 JUMPI POP POP ADD SWAP1 JUMP JUMPDEST DUP1 SLOAD DUP5 DUP5 ADD MSTORE PUSH1 0x20 SWAP1 SWAP4 ADD SWAP3 PUSH1 0x1 ADD PUSH2 0x9FA JUMP JUMPDEST SWAP3 SWAP5 SWAP6 POP POP POP PUSH1 0xFF NOT AND DUP3 MSTORE ISZERO ISZERO PUSH1 0x20 MUL ADD SWAP1 JUMP JUMPDEST SWAP1 PUSH2 0x320 SWAP2 PUSH2 0x9AC JUMP JUMPDEST SWAP1 PUSH2 0x2BB PUSH2 0xA54 SWAP3 PUSH2 0xA4B PUSH1 0x40 MLOAD SWAP1 JUMP JUMPDEST SWAP4 DUP5 DUP1 SWAP3 PUSH2 0xA30 JUMP JUMPDEST SUB DUP4 PUSH2 0x5F8 JUMP JUMPDEST SWAP1 PUSH1 0x0 LT PUSH2 0xA6C JUMPI PUSH2 0x320 SWAP1 PUSH2 0xA3A JUMP JUMPDEST PUSH2 0x956 JUMP JUMPDEST PUSH2 0x320 PUSH1 0x0 PUSH1 0x12 PUSH2 0xA5B JUMP JUMPDEST CALLVALUE PUSH2 0x2B2 JUMPI PUSH2 0xA8D CALLDATASIZE PUSH1 0x4 PUSH2 0x2A7 JUMP JUMPDEST PUSH2 0x2E8 PUSH2 0x4D6 PUSH2 0xA71 JUMP JUMPDEST CALLVALUE PUSH2 0x2B2 JUMPI PUSH2 0x2E8 PUSH2 0x2D8 PUSH2 0xAAE CALLDATASIZE PUSH1 0x4 PUSH2 0x808 JUMP JUMPDEST PUSH2 0x1518 JUMP JUMPDEST CALLVALUE PUSH2 0x2B2 JUMPI PUSH2 0xAC3 CALLDATASIZE PUSH1 0x4 PUSH2 0x2A7 JUMP JUMPDEST PUSH2 0x54F PUSH2 0x1580 JUMP JUMPDEST PUSH2 0x320 PUSH1 0x0 PUSH1 0x13 PUSH2 0xA5B JUMP JUMPDEST CALLVALUE PUSH2 0x2B2 JUMPI PUSH2 0xAE7 CALLDATASIZE PUSH1 0x4 PUSH2 0x2A7 JUMP JUMPDEST PUSH2 0x2E8 PUSH2 0x4D6 PUSH2 0xACB JUMP JUMPDEST PUSH2 0x320 PUSH1 0x0 PUSH1 0xF PUSH2 0x414 JUMP JUMPDEST CALLVALUE PUSH2 0x2B2 JUMPI PUSH2 0xB0E CALLDATASIZE PUSH1 0x4 PUSH2 0x2A7 JUMP JUMPDEST PUSH2 0x2E8 PUSH2 0x2D8 PUSH2 0xAF2 JUMP JUMPDEST CALLVALUE PUSH2 0x2B2 JUMPI PUSH2 0xB29 CALLDATASIZE PUSH1 0x4 PUSH2 0x2A7 JUMP JUMPDEST PUSH2 0x2E8 PUSH2 0x3B1 PUSH2 0x1588 JUMP JUMPDEST CALLVALUE PUSH2 0x2B2 JUMPI PUSH2 0x54F PUSH2 0xB47 CALLDATASIZE PUSH1 0x4 PUSH2 0x8C5 JUMP JUMPDEST PUSH2 0x15B1 JUMP JUMPDEST CALLVALUE PUSH2 0x2B2 JUMPI PUSH2 0xB5C CALLDATASIZE PUSH1 0x4 PUSH2 0x2A7 JUMP JUMPDEST PUSH2 0x2E8 PUSH2 0x4D6 PUSH2 0x15BA JUMP JUMPDEST DUP1 ISZERO ISZERO PUSH2 0x2F8 JUMP JUMPDEST SWAP1 POP CALLDATALOAD SWAP1 PUSH2 0x2BB DUP3 PUSH2 0xB67 JUMP JUMPDEST SWAP2 SWAP1 PUSH1 0x40 DUP4 DUP3 SUB SLT PUSH2 0x2B2 JUMPI PUSH2 0x320 SWAP1 PUSH1 0x20 PUSH2 0xB98 DUP3 DUP7 PUSH2 0x506 JUMP JUMPDEST SWAP5 ADD PUSH2 0xB6F JUMP JUMPDEST CALLVALUE PUSH2 0x2B2 JUMPI PUSH2 0x54F PUSH2 0xBB2 CALLDATASIZE PUSH1 0x4 PUSH2 0xB7C JUMP JUMPDEST SWAP1 PUSH2 0x15C4 JUMP JUMPDEST PUSH4 0x4E487B71 PUSH1 0xE0 SHL PUSH1 0x0 MSTORE PUSH1 0x32 PUSH1 0x4 MSTORE PUSH1 0x24 PUSH1 0x0 REVERT JUMPDEST DUP1 SLOAD DUP3 LT ISZERO PUSH2 0xBF1 JUMPI PUSH2 0xBE8 PUSH1 0x1 SWAP2 PUSH1 0x0 MSTORE PUSH1 0x20 PUSH1 0x0 KECCAK256 SWAP1 JUMP JUMPDEST SWAP2 MUL ADD SWAP1 PUSH1 0x0 SWAP1 JUMP JUMPDEST PUSH2 0xBB8 JUMP JUMPDEST PUSH1 0x10 SLOAD DUP2 LT ISZERO PUSH2 0x2B2 JUMPI PUSH2 0xC0E PUSH2 0x320 SWAP2 PUSH1 0x10 PUSH2 0xBCE JUMP JUMPDEST SWAP1 PUSH2 0x414 JUMP JUMPDEST CALLVALUE PUSH2 0x2B2 JUMPI PUSH2 0x2E8 PUSH2 0x2D8 PUSH2 0xC2A CALLDATASIZE PUSH1 0x4 PUSH2 0x3D0 JUMP JUMPDEST PUSH2 0xBF6 JUMP JUMPDEST CALLVALUE PUSH2 0x2B2 JUMPI PUSH2 0x2E8 PUSH2 0x2D8 PUSH2 0xC45 CALLDATASIZE PUSH1 0x4 PUSH2 0x3D0 JUMP JUMPDEST PUSH2 0x15CF JUMP JUMPDEST CALLVALUE PUSH2 0x2B2 JUMPI PUSH2 0x54F PUSH2 0xC5D CALLDATASIZE PUSH1 0x4 PUSH2 0x6A6 JUMP JUMPDEST SWAP3 SWAP2 SWAP1 SWAP2 PUSH2 0x1660 JUMP JUMPDEST CALLVALUE PUSH2 0x2B2 JUMPI PUSH2 0x2E8 PUSH2 0x4D6 PUSH2 0xC7C CALLDATASIZE PUSH1 0x4 PUSH2 0x3D0 JUMP JUMPDEST PUSH2 0x16D8 JUMP JUMPDEST CALLVALUE PUSH2 0x2B2 JUMPI PUSH2 0x2E8 PUSH2 0x2D8 PUSH2 0xC97 CALLDATASIZE PUSH1 0x4 PUSH2 0x3D0 JUMP JUMPDEST PUSH2 0x171B JUMP JUMPDEST PUSH2 0x320 PUSH1 0x0 PUSH1 0xC PUSH2 0x414 JUMP JUMPDEST CALLVALUE PUSH2 0x2B2 JUMPI PUSH2 0xCB8 CALLDATASIZE PUSH1 0x4 PUSH2 0x2A7 JUMP JUMPDEST PUSH2 0x2E8 PUSH2 0x2D8 PUSH2 0xC9C JUMP JUMPDEST SWAP2 SWAP1 PUSH1 0x40 DUP4 DUP3 SUB SLT PUSH2 0x2B2 JUMPI PUSH2 0x320 SWAP1 PUSH1 0x20 PUSH2 0xCDF DUP3 DUP7 PUSH2 0x506 JUMP JUMPDEST SWAP5 ADD PUSH2 0x506 JUMP JUMPDEST CALLVALUE PUSH2 0x2B2 JUMPI PUSH2 0x2E8 PUSH2 0x33E PUSH2 0xCFC CALLDATASIZE PUSH1 0x4 PUSH2 0xCC3 JUMP JUMPDEST SWAP1 PUSH2 0x1747 JUMP JUMPDEST CALLVALUE PUSH2 0x2B2 JUMPI PUSH2 0x54F PUSH2 0xD15 CALLDATASIZE PUSH1 0x4 PUSH2 0x808 JUMP JUMPDEST PUSH2 0x17BE JUMP JUMPDEST PUSH2 0x320 SWAP1 DUP2 JUMP JUMPDEST PUSH2 0x320 SWAP1 SLOAD PUSH2 0xD1A JUMP JUMPDEST PUSH2 0x320 PUSH2 0xC45 PUSH1 0xF PUSH2 0xD21 JUMP JUMPDEST PUSH2 0x320 SWAP1 PUSH2 0x17C7 JUMP JUMPDEST PUSH2 0x320 SWAP1 PUSH2 0xA3A JUMP JUMPDEST PUSH2 0x320 PUSH1 0x0 PUSH2 0xD41 JUMP JUMPDEST PUSH2 0x320 SWAP1 PUSH2 0xD61 DUP2 PUSH2 0x17F0 JUMP JUMPDEST POP PUSH2 0x1830 JUMP JUMPDEST PUSH2 0x2BB SWAP2 CALLER SWAP2 PUSH2 0x184C JUMP JUMPDEST SWAP1 PUSH2 0xD8D PUSH2 0xD81 PUSH2 0x563 DUP5 SLOAD SWAP1 JUMP JUMPDEST SWAP3 PUSH1 0x0 MSTORE PUSH1 0x20 PUSH1 0x0 KECCAK256 SWAP1 JUMP JUMPDEST SWAP1 PUSH1 0x0 JUMPDEST DUP2 DUP2 LT PUSH2 0xD9E JUMPI POP POP POP SWAP1 JUMP JUMPDEST SWAP1 SWAP2 SWAP3 PUSH2 0xDC2 PUSH2 0xDBB PUSH1 0x1 SWAP3 PUSH2 0xDB3 DUP8 PUSH2 0xD21 JUMP JUMPDEST DUP2 MSTORE PUSH1 0x20 ADD SWAP1 JUMP JUMPDEST SWAP5 PUSH1 0x1 ADD SWAP1 JUMP JUMPDEST SWAP3 SWAP2 ADD PUSH2 0xD91 JUMP JUMPDEST SWAP1 PUSH2 0x320 SWAP2 PUSH2 0xD72 JUMP JUMPDEST SWAP1 PUSH2 0x2BB PUSH2 0xA54 SWAP3 PUSH2 0xDE5 PUSH1 0x40 MLOAD SWAP1 JUMP JUMPDEST SWAP4 DUP5 DUP1 SWAP3 PUSH2 0xDCA JUMP JUMPDEST PUSH2 0x320 SWAP1 PUSH2 0xDD4 JUMP JUMPDEST PUSH2 0x320 PUSH1 0x10 PUSH2 0xDEE JUMP JUMPDEST PUSH2 0x320 SWAP1 PUSH2 0x35A SWAP1 PUSH1 0x1 PUSH1 0x1 PUSH1 0xA0 SHL SUB AND DUP3 JUMP JUMPDEST PUSH2 0x320 SWAP1 PUSH2 0xE01 JUMP JUMPDEST PUSH2 0xE37 PUSH2 0xE31 PUSH2 0x320 SWAP3 PUSH4 0xFFFFFFFF AND SWAP1 JUMP JUMPDEST PUSH1 0xE0 SHL SWAP1 JUMP JUMPDEST PUSH1 0x1 PUSH1 0x1 PUSH1 0xE0 SHL SUB NOT AND SWAP1 JUMP JUMPDEST POP POP POP POP PUSH2 0xE50 PUSH1 0x0 SWAP1 JUMP JUMPDEST POP PUSH2 0x320 PUSH4 0x150B7A02 PUSH2 0xE1E JUMP JUMPDEST PUSH4 0x4E487B71 PUSH1 0xE0 SHL PUSH1 0x0 MSTORE PUSH1 0x11 PUSH1 0x4 MSTORE PUSH1 0x24 PUSH1 0x0 REVERT JUMPDEST DUP2 DUP2 MUL SWAP3 SWAP2 DUP2 ISZERO SWAP2 DUP5 DIV EQ OR ISZERO PUSH2 0xE87 JUMPI JUMP JUMPDEST PUSH2 0xE5E JUMP JUMPDEST PUSH4 0x4E487B71 PUSH1 0xE0 SHL PUSH1 0x0 MSTORE PUSH1 0x12 PUSH1 0x4 MSTORE PUSH1 0x24 PUSH1 0x0 REVERT JUMPDEST SWAP1 PUSH2 0xEAC JUMP JUMPDEST SWAP2 SWAP1 JUMP JUMPDEST SWAP1 DUP2 ISZERO PUSH2 0xEB7 JUMPI DIV SWAP1 JUMP JUMPDEST PUSH2 0xE8C JUMP JUMPDEST SWAP2 SWAP1 DUP3 SUB SWAP2 DUP3 GT PUSH2 0xE87 JUMPI JUMP JUMPDEST PUSH2 0x320 PUSH2 0xED4 PUSH2 0x1166 JUMP JUMPDEST PUSH2 0xF01 PUSH2 0xEEA PUSH2 0xEE4 PUSH1 0xD PUSH2 0xD21 JUMP JUMPDEST DUP4 PUSH2 0xE74 JUMP JUMPDEST PUSH2 0xEFB PUSH8 0xDE0B6B3A7640000 PUSH2 0x3E4 JUMP JUMPDEST SWAP1 PUSH2 0xEA2 JUMP JUMPDEST SWAP1 PUSH2 0xEBC JUMP JUMPDEST PUSH2 0x35A PUSH2 0x320 PUSH2 0x320 SWAP3 SWAP1 JUMP JUMPDEST PUSH2 0x320 SWAP1 PUSH2 0xF07 JUMP JUMPDEST PUSH1 0x40 SWAP1 PUSH2 0xF44 PUSH2 0x2BB SWAP5 SWAP7 SWAP6 SWAP4 SWAP7 PUSH2 0xF3D PUSH1 0x60 DUP5 ADD SWAP9 PUSH1 0x0 DUP6 ADD SWAP1 PUSH2 0x37D JUMP JUMPDEST PUSH1 0x20 DUP4 ADD MSTORE JUMP JUMPDEST ADD SWAP1 PUSH2 0x37D JUMP JUMPDEST SWAP1 SWAP2 PUSH1 0x0 SWAP3 PUSH2 0xF59 DUP5 PUSH2 0xF14 JUMP JUMPDEST PUSH2 0xF62 DUP2 PUSH2 0x35A JUMP JUMPDEST PUSH2 0xF6B DUP4 PUSH2 0x35A JUMP JUMPDEST EQ PUSH2 0xFBA JUMPI POP PUSH2 0xF7D SWAP1 DUP3 CALLER SWAP2 PUSH2 0x1859 JUMP JUMPDEST SWAP2 PUSH2 0xF87 DUP2 PUSH2 0x35A JUMP JUMPDEST PUSH2 0xF90 DUP5 PUSH2 0x35A JUMP JUMPDEST SUB PUSH2 0xF9B JUMPI POP POP POP POP JUMP JUMPDEST PUSH4 0x64283D7B PUSH1 0xE0 SHL DUP5 MSTORE DUP4 SWAP3 PUSH2 0xFB6 SWAP3 SWAP1 SWAP2 PUSH1 0x4 DUP6 ADD PUSH2 0xF1D JUMP JUMPDEST SUB SWAP1 REVERT JUMPDEST DUP5 PUSH2 0xFB6 DUP2 SWAP3 PUSH4 0x32505749 PUSH1 0xE1 SHL DUP4 MSTORE PUSH1 0x4 DUP4 ADD PUSH2 0x386 JUMP JUMPDEST SWAP2 PUSH1 0x20 PUSH2 0x2BB SWAP3 SWAP5 SWAP4 PUSH2 0xFEE PUSH1 0x40 DUP3 ADD SWAP7 PUSH1 0x0 DUP4 ADD SWAP1 PUSH2 0x37D JUMP JUMPDEST ADD MSTORE JUMP JUMPDEST PUSH2 0x320 SWAP1 PUSH2 0xE15 JUMP JUMPDEST SWAP1 PUSH2 0x3FB SWAP1 PUSH2 0xFF2 JUMP JUMPDEST PUSH2 0x1011 PUSH2 0x320 DUP3 PUSH2 0x1518 JUMP JUMPDEST DUP3 LT ISZERO PUSH2 0x1034 JUMPI PUSH2 0x320 SWAP2 PUSH2 0x102A PUSH2 0x102F SWAP3 PUSH1 0x6 PUSH2 0xFFB JUMP JUMPDEST PUSH2 0x3F1 JUMP JUMPDEST PUSH2 0xD21 JUMP JUMPDEST PUSH4 0x295F44F7 PUSH1 0xE2 SHL PUSH1 0x0 SWAP1 DUP2 MSTORE SWAP2 PUSH2 0x104D SWAP2 PUSH1 0x4 PUSH2 0xFD3 JUMP JUMPDEST SUB PUSH1 0x0 REVERT JUMPDEST PUSH2 0x320 SWAP1 PUSH2 0x35A JUMP JUMPDEST PUSH2 0x320 SWAP1 SLOAD PUSH2 0x1052 JUMP JUMPDEST ISZERO PUSH2 0x106C JUMPI JUMP JUMPDEST PUSH1 0x40 MLOAD PUSH3 0x461BCD PUSH1 0xE5 SHL DUP2 MSTORE PUSH1 0x20 PUSH1 0x4 DUP3 ADD MSTORE PUSH1 0x23 PUSH1 0x24 DUP3 ADD MSTORE PUSH32 0x4F6E6C792063726561746F722063616E2063616C6C20746869732066756E6374 PUSH1 0x44 DUP3 ADD MSTORE PUSH3 0x34B7B7 PUSH1 0xE9 SHL PUSH1 0x64 DUP3 ADD MSTORE PUSH1 0x84 SWAP1 REVERT JUMPDEST PUSH2 0x2BB SWAP1 PUSH2 0x10E5 PUSH2 0x10D6 PUSH2 0x10D1 PUSH1 0xE PUSH2 0x105B JUMP JUMPDEST PUSH2 0x35A JUMP JUMPDEST PUSH2 0x10DF CALLER PUSH2 0x35A JUMP JUMPDEST EQ PUSH2 0x1065 JUMP JUMPDEST PUSH2 0x111A JUMP JUMPDEST SWAP1 PUSH1 0x1 PUSH1 0x1 PUSH1 0xA0 SHL SUB SWAP1 JUMPDEST SWAP2 DUP2 NOT AND SWAP2 AND OR SWAP1 JUMP JUMPDEST SWAP1 PUSH2 0x110F PUSH2 0x320 PUSH2 0x1116 SWAP3 PUSH2 0xFF2 JUMP JUMPDEST DUP3 SLOAD PUSH2 0x10EA JUMP JUMPDEST SWAP1 SSTORE JUMP JUMPDEST PUSH2 0x2BB SWAP1 PUSH1 0xE PUSH2 0x10FF JUMP JUMPDEST PUSH2 0x2BB SWAP1 PUSH2 0x10BD JUMP JUMPDEST SWAP1 PUSH2 0x113B PUSH2 0x66C DUP4 PUSH2 0x633 JUMP JUMPDEST SWAP2 DUP3 MSTORE JUMP JUMPDEST PUSH2 0x320 PUSH1 0x0 PUSH2 0x112E JUMP JUMPDEST PUSH2 0x320 PUSH2 0x1140 JUMP JUMPDEST SWAP1 SWAP2 PUSH2 0x2BB SWAP3 PUSH2 0x1160 PUSH2 0x114A JUMP JUMPDEST SWAP3 PUSH2 0x1660 JUMP JUMPDEST PUSH2 0x1170 PUSH1 0xF PUSH2 0xD21 JUMP JUMPDEST PUSH2 0x117D PUSH2 0xEA8 PUSH1 0x0 PUSH2 0x3E4 JUMP JUMPDEST GT ISZERO PUSH2 0x119D JUMPI PUSH2 0x320 PUSH2 0xC45 PUSH2 0x1193 PUSH1 0xF PUSH2 0xD21 JUMP JUMPDEST PUSH2 0xF01 PUSH1 0x1 PUSH2 0x3E4 JUMP JUMPDEST PUSH2 0x320 PUSH2 0xC45 PUSH1 0x0 PUSH2 0x3E4 JUMP JUMPDEST SWAP2 SWAP1 DUP3 ADD DUP1 SWAP3 GT PUSH2 0xE87 JUMPI JUMP JUMPDEST PUSH2 0x320 PUSH2 0x11C2 PUSH2 0xD2B JUMP JUMPDEST PUSH2 0x11D2 PUSH2 0xEEA PUSH2 0xEE4 PUSH1 0xD PUSH2 0xD21 JUMP JUMPDEST SWAP1 PUSH2 0x11AA JUMP JUMPDEST PUSH2 0x11E4 PUSH2 0x320 PUSH1 0x8 SLOAD SWAP1 JUMP JUMPDEST DUP2 LT ISZERO PUSH2 0x11F9 JUMPI PUSH2 0xC0E PUSH2 0x320 SWAP2 PUSH1 0x8 PUSH2 0xBCE JUMP JUMPDEST PUSH2 0xFB6 SWAP1 PUSH1 0x0 SWAP2 DUP3 SWAP2 PUSH2 0x120B DUP4 PUSH2 0xF14 JUMP JUMPDEST PUSH4 0x295F44F7 PUSH1 0xE2 SHL DUP5 MSTORE PUSH1 0x4 DUP5 ADD PUSH2 0xFD3 JUMP JUMPDEST PUSH2 0x2BB SWAP1 PUSH2 0x1232 PUSH2 0x10D6 PUSH2 0x10D1 PUSH1 0xE PUSH2 0x105B JUMP JUMPDEST PUSH2 0x13B9 JUMP JUMPDEST SWAP2 PUSH1 0x0 NOT PUSH1 0x8 SWAP3 SWAP1 SWAP3 MUL SWAP2 DUP3 SHL SWAP2 SHL PUSH2 0x10F5 JUMP JUMPDEST SWAP2 SWAP1 PUSH2 0x125C PUSH2 0x320 PUSH2 0x1116 SWAP4 PUSH2 0x3E4 JUMP JUMPDEST SWAP1 DUP4 SLOAD PUSH2 0x1237 JUMP JUMPDEST PUSH2 0x2BB SWAP2 PUSH1 0x0 SWAP2 PUSH2 0x124B JUMP JUMPDEST DUP2 DUP2 LT PUSH2 0x127B JUMPI POP POP JUMP JUMPDEST DUP1 PUSH2 0x1289 PUSH1 0x0 PUSH1 0x1 SWAP4 PUSH2 0x1264 JUMP JUMPDEST ADD PUSH2 0x1270 JUMP JUMPDEST SWAP2 SWAP1 PUSH1 0x1F DUP2 GT PUSH2 0x129E JUMPI POP POP POP JUMP JUMPDEST PUSH2 0x12B0 PUSH2 0x2BB SWAP4 PUSH1 0x0 MSTORE PUSH1 0x20 PUSH1 0x0 KECCAK256 SWAP1 JUMP JUMPDEST SWAP1 PUSH1 0x20 PUSH1 0x1F DUP5 ADD DUP2 SWAP1 DIV DUP4 ADD SWAP4 LT PUSH2 0x12D2 JUMPI JUMPDEST PUSH1 0x20 PUSH1 0x1F SWAP1 SWAP2 ADD DIV ADD SWAP1 PUSH2 0x1270 JUMP JUMPDEST SWAP1 SWAP2 POP DUP2 SWAP1 PUSH2 0x12C3 JUMP JUMPDEST SWAP1 PUSH2 0x12E5 DUP2 MLOAD SWAP1 JUMP JUMPDEST SWAP1 PUSH8 0xFFFFFFFFFFFFFFFF DUP3 GT PUSH2 0x61A JUMPI PUSH2 0x1309 DUP3 PUSH2 0x1303 DUP6 SLOAD PUSH2 0x982 JUMP JUMPDEST DUP6 PUSH2 0x128F JUMP JUMPDEST PUSH1 0x20 SWAP1 PUSH1 0x1F DUP4 GT PUSH1 0x1 EQ PUSH2 0x1344 JUMPI PUSH2 0x1116 SWAP3 SWAP2 PUSH1 0x0 SWAP2 DUP4 PUSH2 0x1339 JUMPI JUMPDEST POP POP PUSH1 0x0 NOT PUSH1 0x8 DUP4 MUL SHR NOT AND SWAP1 PUSH1 0x2 MUL OR SWAP1 JUMP JUMPDEST ADD MLOAD SWAP1 POP CODESIZE DUP1 PUSH2 0x1325 JUMP JUMPDEST PUSH1 0x1F NOT DUP4 AND SWAP2 PUSH2 0x1359 DUP6 PUSH1 0x0 MSTORE PUSH1 0x20 PUSH1 0x0 KECCAK256 SWAP1 JUMP JUMPDEST SWAP3 PUSH1 0x0 JUMPDEST DUP2 DUP2 LT PUSH2 0x1397 JUMPI POP SWAP2 PUSH1 0x2 SWAP4 SWAP2 DUP6 PUSH1 0x1 SWAP7 SWAP5 LT PUSH2 0x137E JUMPI JUMPDEST POP POP POP MUL ADD SWAP1 SSTORE JUMP JUMPDEST ADD MLOAD PUSH1 0x0 NOT PUSH1 0x8 PUSH1 0x1F DUP6 AND MUL SHR NOT AND SWAP1 SSTORE CODESIZE DUP1 DUP1 PUSH2 0x1375 JUMP JUMPDEST SWAP2 SWAP4 PUSH1 0x20 PUSH1 0x1 DUP2 SWAP3 DUP8 DUP8 ADD MLOAD DUP2 SSTORE ADD SWAP6 ADD SWAP3 ADD PUSH2 0x135D JUMP JUMPDEST SWAP1 PUSH2 0x2BB SWAP2 PUSH2 0x12DC JUMP JUMPDEST PUSH2 0x2BB SWAP1 PUSH1 0x12 PUSH2 0x13AF JUMP JUMPDEST PUSH2 0x2BB SWAP1 PUSH2 0x121E JUMP JUMPDEST ISZERO PUSH2 0x13D4 JUMPI JUMP JUMPDEST PUSH1 0x40 MLOAD PUSH3 0x461BCD PUSH1 0xE5 SHL DUP2 MSTORE PUSH1 0x20 PUSH1 0x4 DUP3 ADD MSTORE PUSH1 0x19 PUSH1 0x24 DUP3 ADD MSTORE PUSH32 0x537461727420696E646578206F7574206F6620626F756E647300000000000000 PUSH1 0x44 DUP3 ADD MSTORE PUSH1 0x64 SWAP1 REVERT JUMPDEST PUSH8 0xFFFFFFFFFFFFFFFF DUP2 GT PUSH2 0x61A JUMPI PUSH1 0x20 DUP1 SWAP2 MUL ADD SWAP1 JUMP JUMPDEST SWAP1 PUSH2 0x113B PUSH2 0x66C DUP4 PUSH2 0x1419 JUMP JUMPDEST CALLDATASIZE SWAP1 CALLDATACOPY JUMP JUMPDEST SWAP1 PUSH2 0x2BB PUSH2 0x1459 PUSH2 0x1453 DUP5 PUSH2 0x1431 JUMP JUMPDEST SWAP4 PUSH2 0x1419 JUMP JUMPDEST PUSH1 0x1F NOT ADD PUSH1 0x20 DUP5 ADD PUSH2 0x143E JUMP JUMPDEST SWAP1 PUSH2 0x146F DUP3 MLOAD SWAP1 JUMP JUMPDEST DUP2 LT ISZERO PUSH2 0xBF1 JUMPI PUSH1 0x20 DUP1 SWAP2 MUL ADD ADD SWAP1 JUMP JUMPDEST SWAP2 PUSH2 0x14AD PUSH2 0x14A5 PUSH1 0x10 SWAP4 PUSH2 0x149F PUSH2 0x1498 PUSH2 0x320 DUP8 SLOAD SWAP1 JUMP JUMPDEST DUP8 LT PUSH2 0x13CD JUMP JUMPDEST DUP6 PUSH2 0x11AA JUMP JUMPDEST DUP4 SLOAD SWAP1 PUSH2 0x1864 JUMP JUMPDEST SWAP2 PUSH2 0x14C0 PUSH2 0x14BB DUP6 DUP6 PUSH2 0xEBC JUMP JUMPDEST PUSH2 0x1443 JUMP JUMPDEST SWAP2 DUP5 JUMPDEST DUP5 JUMPDEST DUP2 LT ISZERO PUSH2 0x1506 JUMPI PUSH2 0x14FF DUP2 PUSH2 0x14F9 PUSH2 0x14E3 PUSH2 0xC0E PUSH2 0x14C5 SWAP6 DUP9 PUSH2 0xBCE JUMP JUMPDEST PUSH2 0x14F6 PUSH2 0x14F0 DUP12 DUP6 PUSH2 0xEBC JUMP JUMPDEST DUP10 PUSH2 0x1466 JUMP JUMPDEST MSTORE JUMP JUMPDEST PUSH1 0x1 ADD SWAP1 JUMP JUMPDEST SWAP1 POP PUSH2 0x14C3 JUMP JUMPDEST POP SWAP4 POP POP SWAP1 POP SWAP1 JUMP JUMPDEST PUSH2 0x320 SWAP1 PUSH2 0x17F0 JUMP JUMPDEST PUSH1 0x0 PUSH2 0x1523 DUP2 PUSH2 0xF14 JUMP JUMPDEST PUSH2 0x152C DUP2 PUSH2 0x35A JUMP JUMPDEST PUSH2 0x1535 DUP5 PUSH2 0x35A JUMP JUMPDEST EQ PUSH2 0x154A JUMPI POP POP PUSH2 0x102F PUSH2 0x320 SWAP2 PUSH1 0x3 PUSH2 0xFFB JUMP JUMPDEST PUSH4 0x22718AD9 PUSH1 0xE2 SHL DUP3 MSTORE DUP2 SWAP1 PUSH2 0xFB6 SWAP1 PUSH1 0x4 DUP4 ADD PUSH2 0x386 JUMP JUMPDEST PUSH2 0x156B PUSH2 0x1876 JUMP JUMPDEST PUSH2 0x2BB PUSH2 0x2BB PUSH2 0x157B PUSH1 0x0 PUSH2 0xF14 JUMP JUMPDEST PUSH2 0x18B3 JUMP JUMPDEST PUSH2 0x2BB PUSH2 0x1563 JUMP JUMPDEST PUSH2 0x320 PUSH1 0xA PUSH2 0x105B JUMP JUMPDEST PUSH2 0x2BB SWAP1 PUSH2 0x15A6 PUSH2 0x10D6 PUSH2 0x10D1 PUSH1 0xE PUSH2 0x105B JUMP JUMPDEST PUSH2 0x2BB SWAP1 PUSH1 0x13 PUSH2 0x13AF JUMP JUMPDEST PUSH2 0x2BB SWAP1 PUSH2 0x1592 JUMP JUMPDEST PUSH2 0x320 PUSH1 0x1 PUSH2 0xD41 JUMP JUMPDEST PUSH2 0x2BB SWAP2 SWAP1 CALLER PUSH2 0x192C JUMP JUMPDEST PUSH2 0x15D9 PUSH1 0x0 PUSH2 0x3E4 JUMP JUMPDEST DUP2 EQ PUSH2 0x1655 JUMPI PUSH2 0x320 SWAP1 PUSH2 0x11D2 PUSH2 0x15F0 PUSH1 0xB PUSH2 0xD21 JUMP JUMPDEST SWAP2 PUSH2 0x1617 PUSH2 0x1640 PUSH2 0x1636 PUSH2 0x1636 PUSH2 0x1645 PUSH2 0x161D PUSH2 0x160D PUSH1 0xB PUSH2 0xD21 JUMP JUMPDEST PUSH2 0x1617 PUSH1 0x2 PUSH2 0x3E4 JUMP JUMPDEST SWAP1 PUSH2 0xE74 JUMP JUMPDEST PUSH2 0x1617 PUSH2 0x1640 PUSH2 0x1636 DUP10 PUSH2 0x1631 PUSH1 0x64 PUSH2 0x3E4 JUMP JUMPDEST PUSH2 0xE74 JUMP JUMPDEST PUSH2 0xEFB PUSH1 0xC PUSH2 0xD21 JUMP JUMPDEST PUSH2 0x19F0 JUMP JUMPDEST SWAP5 PUSH2 0x1631 DUP2 PUSH2 0x1631 PUSH2 0x2710 PUSH2 0x3E4 JUMP JUMPDEST POP PUSH2 0x320 PUSH1 0xB PUSH2 0xD21 JUMP JUMPDEST SWAP1 PUSH2 0x2BB SWAP4 SWAP3 SWAP2 PUSH2 0x1672 DUP4 DUP4 DUP4 PUSH2 0xF4B JUMP JUMPDEST PUSH2 0x1B69 JUMP JUMPDEST PUSH2 0x4A6 PUSH2 0x168F SWAP3 PUSH1 0x20 SWAP3 PUSH2 0x1689 DUP2 MLOAD SWAP1 JUMP JUMPDEST SWAP5 DUP6 SWAP3 SWAP1 JUMP JUMPDEST SWAP4 DUP5 SWAP2 ADD PUSH2 0x44F JUMP JUMPDEST PUSH2 0x16A6 SWAP1 PUSH2 0x320 SWAP4 SWAP3 PUSH2 0x1677 JUMP JUMPDEST SWAP1 PUSH2 0x1677 JUMP JUMPDEST PUSH2 0x16CC SWAP3 SWAP2 PUSH2 0x2BB SWAP2 PUSH2 0x16BE PUSH1 0x40 MLOAD SWAP1 JUMP JUMPDEST SWAP5 DUP6 SWAP3 PUSH1 0x20 DUP5 ADD SWAP3 DUP4 PUSH2 0x1698 JUMP JUMPDEST SWAP1 DUP2 SUB DUP3 MSTORE SUB DUP4 PUSH2 0x5F8 JUMP JUMPDEST PUSH2 0x16E1 DUP2 PUSH2 0x17F0 JUMP JUMPDEST POP PUSH2 0x16EA PUSH2 0x1C90 JUMP JUMPDEST DUP1 MLOAD PUSH2 0x16F9 PUSH2 0xEA8 PUSH1 0x0 PUSH2 0x3E4 JUMP JUMPDEST GT ISZERO PUSH2 0x1711 JUMPI PUSH2 0x170B PUSH2 0x320 SWAP3 PUSH2 0x1CB0 JUMP JUMPDEST SWAP1 PUSH2 0x16AC JUMP JUMPDEST POP POP PUSH2 0x320 PUSH2 0x114A JUMP JUMPDEST PUSH2 0xC0E PUSH2 0x320 SWAP2 PUSH2 0x172A PUSH1 0x0 SWAP1 JUMP JUMPDEST POP PUSH1 0x10 PUSH2 0xBCE JUMP JUMPDEST PUSH2 0x320 SWAP1 JUMPDEST PUSH1 0xFF AND SWAP1 JUMP JUMPDEST PUSH2 0x320 SWAP1 SLOAD PUSH2 0x1732 JUMP JUMPDEST PUSH2 0x320 SWAP2 PUSH2 0x1762 PUSH2 0x1767 SWAP3 PUSH2 0x175A PUSH1 0x0 SWAP1 JUMP JUMPDEST POP PUSH1 0x5 PUSH2 0xFFB JUMP JUMPDEST PUSH2 0xFFB JUMP JUMPDEST PUSH2 0x173D JUMP JUMPDEST PUSH2 0x2BB SWAP1 PUSH2 0x1778 PUSH2 0x1876 JUMP JUMPDEST PUSH1 0x0 PUSH2 0x1783 DUP2 PUSH2 0xF14 JUMP JUMPDEST PUSH2 0x178C DUP2 PUSH2 0x35A JUMP JUMPDEST PUSH2 0x1795 DUP5 PUSH2 0x35A JUMP JUMPDEST EQ PUSH2 0x17A5 JUMPI POP POP PUSH2 0x2BB SWAP1 PUSH2 0x18B3 JUMP JUMPDEST PUSH4 0x1E4FBDF7 PUSH1 0xE0 SHL DUP3 MSTORE DUP2 SWAP1 PUSH2 0xFB6 SWAP1 PUSH1 0x4 DUP4 ADD PUSH2 0x386 JUMP JUMPDEST PUSH2 0x2BB SWAP1 PUSH2 0x176C JUMP JUMPDEST PUSH4 0x780E9D63 PUSH1 0xE0 SHL PUSH1 0x1 PUSH1 0x1 PUSH1 0xE0 SHL SUB NOT DUP3 AND EQ SWAP1 DUP2 ISZERO PUSH2 0x17E6 JUMPI POP SWAP1 JUMP JUMPDEST PUSH2 0x320 SWAP2 POP PUSH2 0x1D3D JUMP JUMPDEST PUSH2 0x17F9 DUP2 PUSH2 0x1D88 JUMP JUMPDEST SWAP1 PUSH1 0x0 SWAP1 PUSH2 0x1809 PUSH2 0x10D1 DUP4 PUSH2 0xF14 JUMP JUMPDEST PUSH2 0x1812 DUP5 PUSH2 0x35A JUMP JUMPDEST EQ PUSH2 0x181C JUMPI POP POP SWAP1 JUMP JUMPDEST PUSH4 0x7E273289 PUSH1 0xE0 SHL DUP3 MSTORE PUSH1 0x4 DUP3 ADD MSTORE PUSH1 0x24 SWAP1 REVERT JUMPDEST PUSH2 0x1847 PUSH2 0x320 SWAP2 PUSH2 0x183F PUSH1 0x0 SWAP1 JUMP JUMPDEST POP PUSH1 0x4 PUSH2 0x3F1 JUMP JUMPDEST PUSH2 0x105B JUMP JUMPDEST SWAP2 PUSH1 0x1 SWAP2 PUSH2 0x2BB SWAP4 PUSH2 0x1D9F JUMP JUMPDEST PUSH2 0x320 SWAP3 SWAP2 SWAP1 PUSH2 0x1ECB JUMP JUMPDEST SWAP1 DUP1 DUP3 LT ISZERO PUSH2 0x1871 JUMPI POP SWAP1 JUMP JUMPDEST SWAP1 POP SWAP1 JUMP JUMPDEST PUSH2 0x187E PUSH2 0x1588 JUMP JUMPDEST CALLER SWAP1 PUSH2 0x1892 PUSH2 0x188C DUP4 PUSH2 0x35A JUMP JUMPDEST SWAP2 PUSH2 0x35A JUMP JUMPDEST SUB PUSH2 0x189A JUMPI POP JUMP JUMPDEST PUSH4 0x118CDAA7 PUSH1 0xE0 SHL PUSH1 0x0 SWAP1 DUP2 MSTORE SWAP1 PUSH2 0x104D SWAP1 PUSH1 0x4 PUSH2 0x386 JUMP JUMPDEST PUSH2 0x18D9 PUSH2 0x18D3 PUSH2 0x18C3 PUSH1 0xA PUSH2 0x105B JUMP JUMPDEST PUSH2 0x18CE DUP5 PUSH1 0xA PUSH2 0x10FF JUMP JUMPDEST PUSH2 0xFF2 JUMP JUMPDEST SWAP2 PUSH2 0xFF2 JUMP JUMPDEST SWAP1 PUSH32 0x8BE0079C531659141344CD1FD0A4F28419497F9722A3DAAFE3B4186F6B6457E0 PUSH2 0x1904 PUSH1 0x40 MLOAD SWAP1 JUMP JUMPDEST DUP1 DUP1 JUMPDEST SUB SWAP1 LOG3 JUMP JUMPDEST SWAP1 PUSH1 0xFF SWAP1 PUSH2 0x10F5 JUMP JUMPDEST SWAP1 PUSH2 0x1925 PUSH2 0x320 PUSH2 0x1116 SWAP3 ISZERO ISZERO SWAP1 JUMP JUMPDEST DUP3 SLOAD PUSH2 0x190C JUMP JUMPDEST PUSH1 0x0 PUSH2 0x193A PUSH2 0x10D1 DUP3 PUSH2 0xF14 JUMP JUMPDEST PUSH2 0x1943 DUP5 PUSH2 0x35A JUMP JUMPDEST EQ PUSH2 0x199C JUMPI POP PUSH2 0x1907 PUSH2 0x1992 PUSH2 0x198C DUP4 PUSH2 0x18CE DUP8 PUSH2 0x1987 DUP9 PUSH2 0x1762 PUSH32 0x17307EAB39AB6107E8899845AD3D59BD9653F200F220920489CA2B5937696C31 SWAP10 PUSH1 0x5 PUSH2 0xFFB JUMP JUMPDEST PUSH2 0x1915 JUMP JUMPDEST SWAP4 PUSH2 0xFF2 JUMP JUMPDEST SWAP4 PUSH2 0x342 PUSH1 0x40 MLOAD SWAP1 JUMP JUMPDEST PUSH4 0xB611743 PUSH1 0xE3 SHL DUP2 MSTORE DUP1 PUSH2 0xFB6 DUP5 PUSH1 0x4 DUP4 ADD PUSH2 0x386 JUMP JUMPDEST PUSH2 0x1737 PUSH2 0x320 PUSH2 0x320 SWAP3 SWAP1 JUMP JUMPDEST PUSH2 0x320 SWAP1 PUSH2 0x19D5 PUSH2 0xEA8 PUSH2 0x320 SWAP5 PUSH1 0xFF AND SWAP1 JUMP JUMPDEST SWAP1 SHR SWAP1 JUMP JUMPDEST PUSH2 0x320 SWAP1 PUSH2 0x19EB PUSH2 0xEA8 PUSH2 0x320 SWAP5 SWAP1 JUMP JUMPDEST SWAP1 SHL SWAP1 JUMP JUMPDEST PUSH2 0x19FA PUSH1 0x0 PUSH2 0x3E4 JUMP JUMPDEST DUP2 EQ PUSH2 0x1AE0 JUMPI PUSH1 0x1 PUSH2 0x1A0B DUP3 PUSH2 0x1F64 JUMP JUMPDEST PUSH2 0x1A14 DUP3 PUSH2 0x19B4 JUMP JUMPDEST DUP1 DUP1 DUP1 DUP1 DUP1 SWAP7 PUSH2 0x1A25 DUP3 DUP1 SWAP9 PUSH2 0x19C1 JUMP JUMPDEST SWAP1 PUSH2 0x1A2F SWAP1 PUSH2 0x3E4 JUMP JUMPDEST SWAP1 PUSH2 0x1A39 SWAP2 PUSH2 0x19DA JUMP JUMPDEST PUSH2 0x1A43 DUP2 DUP11 PUSH2 0xEA2 JUMP JUMPDEST ADD SWAP1 PUSH2 0x1A4E SWAP2 PUSH2 0x19C1 JUMP JUMPDEST PUSH2 0x1A58 DUP2 DUP10 PUSH2 0xEA2 JUMP JUMPDEST ADD SWAP1 PUSH2 0x1A63 SWAP2 PUSH2 0x19C1 JUMP JUMPDEST PUSH2 0x1A6D DUP2 DUP9 PUSH2 0xEA2 JUMP JUMPDEST ADD SWAP1 PUSH2 0x1A78 SWAP2 PUSH2 0x19C1 JUMP JUMPDEST PUSH2 0x1A82 DUP2 DUP8 PUSH2 0xEA2 JUMP JUMPDEST ADD SWAP1 PUSH2 0x1A8D SWAP2 PUSH2 0x19C1 JUMP JUMPDEST PUSH2 0x1A97 DUP2 DUP7 PUSH2 0xEA2 JUMP JUMPDEST ADD SWAP1 PUSH2 0x1AA2 SWAP2 PUSH2 0x19C1 JUMP JUMPDEST PUSH2 0x1AAC DUP2 DUP6 PUSH2 0xEA2 JUMP JUMPDEST ADD SWAP1 PUSH2 0x1AB7 SWAP2 PUSH2 0x19C1 JUMP JUMPDEST PUSH2 0x1AC1 DUP2 DUP5 PUSH2 0xEA2 JUMP JUMPDEST ADD SWAP1 PUSH2 0x1ACC SWAP2 PUSH2 0x19C1 JUMP JUMPDEST SWAP1 DUP2 PUSH2 0x1AD7 SWAP2 PUSH2 0xEA2 JUMP JUMPDEST PUSH2 0x320 SWAP2 PUSH2 0x1864 JUMP JUMPDEST POP PUSH2 0x320 PUSH1 0x0 PUSH2 0x3E4 JUMP JUMPDEST SWAP1 POP MLOAD SWAP1 PUSH2 0x2BB DUP3 PUSH2 0x2EC JUMP JUMPDEST SWAP1 PUSH1 0x20 DUP3 DUP3 SUB SLT PUSH2 0x2B2 JUMPI PUSH2 0x320 SWAP2 PUSH2 0x1AEB JUMP JUMPDEST SWAP1 SWAP3 PUSH2 0x1B3D SWAP1 PUSH2 0x1B36 PUSH2 0x320 SWAP7 SWAP5 PUSH2 0x1B2C PUSH1 0x80 DUP7 ADD SWAP8 PUSH1 0x0 DUP8 ADD SWAP1 PUSH2 0x37D JUMP JUMPDEST PUSH1 0x20 DUP6 ADD SWAP1 PUSH2 0x37D JUMP JUMPDEST PUSH1 0x40 DUP4 ADD MSTORE JUMP JUMPDEST PUSH1 0x60 DUP2 DUP5 SUB SWAP2 ADD MSTORE PUSH2 0x472 JUMP JUMPDEST RETURNDATASIZE ISZERO PUSH2 0x1B64 JUMPI PUSH2 0x1B59 RETURNDATASIZE PUSH2 0x112E JUMP JUMPDEST SWAP1 RETURNDATASIZE PUSH1 0x0 PUSH1 0x20 DUP5 ADD RETURNDATACOPY JUMP JUMPDEST PUSH1 0x60 SWAP1 JUMP JUMPDEST PUSH1 0x0 SWAP4 SWAP2 SWAP3 DUP4 EXTCODESIZE PUSH2 0x1B7C PUSH2 0xEA8 DUP8 PUSH2 0x3E4 JUMP JUMPDEST GT PUSH2 0x1B89 JUMPI JUMPDEST POP POP POP POP POP JUMP JUMPDEST PUSH1 0x20 SWAP2 PUSH2 0x1B98 PUSH2 0x18CE DUP7 PUSH2 0xFF2 JUMP JUMPDEST SWAP1 DUP7 CALLER PUSH2 0x1BC1 PUSH2 0x1BA7 PUSH1 0x40 MLOAD SWAP1 JUMP JUMPDEST SWAP8 DUP9 SWAP7 DUP8 SWAP6 DUP7 SWAP5 PUSH4 0xA85BD01 PUSH1 0xE1 SHL DUP7 MSTORE PUSH1 0x4 DUP7 ADD PUSH2 0x1B0C JUMP JUMPDEST SUB SWAP3 GAS CALL PUSH1 0x0 SWAP2 DUP2 PUSH2 0x1C5F JUMPI JUMPDEST POP PUSH2 0x1C20 JUMPI POP PUSH2 0x1BE3 JUMP JUMPDEST CODESIZE DUP1 DUP1 DUP1 DUP1 PUSH2 0x1B82 JUMP JUMPDEST PUSH2 0x1BEB PUSH2 0x1B4A JUMP JUMPDEST DUP1 MLOAD PUSH2 0x1BF9 PUSH2 0xEA8 DUP6 PUSH2 0x3E4 JUMP JUMPDEST SUB PUSH2 0x1C18 JUMPI POP PUSH4 0x32505749 PUSH1 0xE1 SHL DUP3 MSTORE DUP2 SWAP1 PUSH2 0xFB6 SWAP1 PUSH1 0x4 DUP4 ADD PUSH2 0x386 JUMP JUMPDEST DUP1 MLOAD SWAP1 PUSH1 0x20 ADD REVERT JUMPDEST PUSH2 0x1C3A PUSH4 0xA85BD01 PUSH1 0xE1 SHL JUMPDEST SWAP2 PUSH1 0x1 PUSH1 0x1 PUSH1 0xE0 SHL SUB NOT AND SWAP1 JUMP JUMPDEST SUB PUSH2 0x1C46 JUMPI POP POP PUSH2 0x1BD9 JUMP JUMPDEST PUSH4 0x32505749 PUSH1 0xE1 SHL DUP3 MSTORE DUP2 SWAP1 PUSH2 0xFB6 SWAP1 PUSH1 0x4 DUP4 ADD PUSH2 0x386 JUMP JUMPDEST PUSH2 0x1C82 SWAP2 SWAP3 POP PUSH1 0x20 RETURNDATASIZE PUSH1 0x20 GT PUSH2 0x1C89 JUMPI JUMPDEST PUSH2 0x1C7A DUP2 DUP4 PUSH2 0x5F8 JUMP JUMPDEST DUP2 ADD SWAP1 PUSH2 0x1AF8 JUMP JUMPDEST SWAP1 CODESIZE PUSH2 0x1BCE JUMP JUMPDEST POP RETURNDATASIZE PUSH2 0x1C70 JUMP JUMPDEST PUSH2 0x320 PUSH1 0x12 PUSH2 0xD41 JUMP JUMPDEST SWAP1 PUSH2 0x2BB PUSH2 0x1459 PUSH2 0x1CAA DUP5 PUSH2 0x112E JUMP JUMPDEST SWAP4 PUSH2 0x633 JUMP JUMPDEST PUSH2 0x1CB9 DUP2 PUSH2 0x2116 JUMP JUMPDEST SWAP1 PUSH2 0x1CCA PUSH1 0x1 SWAP3 PUSH2 0x4A6 PUSH1 0x1 PUSH2 0x3E4 JUMP JUMPDEST SWAP2 DUP1 PUSH2 0x1CD5 DUP5 PUSH2 0x1C9A JUMP JUMPDEST SWAP4 PUSH1 0x20 ADD DUP5 ADD SWAP1 JUMPDEST PUSH2 0x1CE8 JUMPI JUMPDEST POP POP POP SWAP1 JUMP JUMPDEST DUP2 ISZERO PUSH2 0x1D38 JUMPI PUSH2 0x1D1C SWAP1 PUSH1 0x0 NOT ADD SWAP3 PUSH16 0x181899199A1A9B1B9C1CB0B131B232B3 PUSH1 0x81 SHL PUSH1 0xA DUP3 MOD BYTE DUP5 MSTORE8 PUSH2 0xEFB PUSH1 0xA PUSH2 0x3E4 JUMP JUMPDEST SWAP1 DUP2 PUSH2 0x1D2B PUSH2 0xEA8 PUSH1 0x0 PUSH2 0x3E4 JUMP JUMPDEST EQ PUSH2 0x1D38 JUMPI SWAP1 SWAP2 DUP2 PUSH2 0x1CDD JUMP JUMPDEST PUSH2 0x1CE2 JUMP JUMPDEST PUSH4 0x80AC58CD PUSH1 0xE0 SHL PUSH1 0x1 PUSH1 0x1 PUSH1 0xE0 SHL SUB NOT DUP3 AND EQ SWAP1 DUP2 ISZERO PUSH2 0x1D6D JUMPI JUMPDEST DUP2 ISZERO PUSH2 0x1D63 JUMPI POP SWAP1 JUMP JUMPDEST PUSH2 0x320 SWAP2 POP PUSH2 0x22AA JUMP JUMPDEST PUSH1 0x1 PUSH1 0x1 PUSH1 0xE0 SHL SUB NOT DUP2 AND PUSH4 0x5B5E139F PUSH1 0xE0 SHL EQ SWAP2 POP PUSH2 0x1D59 JUMP JUMPDEST PUSH2 0x1847 PUSH2 0x320 SWAP2 PUSH2 0x1D97 PUSH1 0x0 SWAP1 JUMP JUMPDEST POP PUSH1 0x2 PUSH2 0x3F1 JUMP JUMPDEST SWAP3 SWAP2 SWAP1 SWAP2 DUP1 DUP2 ISZERO PUSH2 0x1EAD JUMPI JUMPDEST PUSH2 0x1DC6 JUMPI JUMPDEST POP POP SWAP1 PUSH2 0x1DC1 PUSH2 0x2BB SWAP3 PUSH1 0x4 PUSH2 0x3F1 JUMP JUMPDEST PUSH2 0x10FF JUMP JUMPDEST PUSH2 0x1DCF DUP4 PUSH2 0x17F0 JUMP JUMPDEST SWAP2 PUSH1 0x0 SWAP1 PUSH2 0x1DDF PUSH2 0x10D1 DUP4 PUSH2 0xF14 JUMP JUMPDEST PUSH2 0x1DE8 DUP3 PUSH2 0x35A JUMP JUMPDEST EQ ISZERO DUP1 PUSH2 0x1E93 JUMPI JUMPDEST DUP1 PUSH2 0x1E7C JUMPI JUMPDEST PUSH2 0x1E63 JUMPI POP POP SWAP2 PUSH2 0x1DC1 SWAP2 PUSH2 0x2BB SWAP5 SWAP4 PUSH2 0x1E13 JUMPI JUMPDEST POP SWAP2 SWAP3 PUSH2 0x1DB0 JUMP JUMPDEST PUSH2 0x1E1C SWAP1 PUSH2 0xFF2 JUMP JUMPDEST PUSH2 0x1E25 DUP5 PUSH2 0xFF2 JUMP JUMPDEST PUSH2 0x1E2E DUP4 PUSH2 0x3E4 JUMP JUMPDEST SWAP2 PUSH32 0x8C5BE1E5EBEC7D5BD14F71427D1E84F3DD0314C0F7B2291E5B200AC8C7C3B925 PUSH2 0x1E59 PUSH1 0x40 MLOAD SWAP1 JUMP JUMPDEST PUSH1 0x0 SWAP1 LOG4 CODESIZE PUSH2 0x1E0B JUMP JUMPDEST PUSH4 0xA9FBF51F PUSH1 0xE0 SHL DUP3 MSTORE DUP2 SWAP1 PUSH2 0xFB6 SWAP1 PUSH1 0x4 DUP4 ADD PUSH2 0x386 JUMP JUMPDEST POP PUSH2 0x1E8E PUSH2 0x1E8A DUP3 DUP7 PUSH2 0x1747 JUMP JUMPDEST ISZERO SWAP1 JUMP JUMPDEST PUSH2 0x1DF6 JUMP JUMPDEST POP PUSH2 0x1E9D DUP2 PUSH2 0x35A JUMP JUMPDEST PUSH2 0x1EA6 DUP6 PUSH2 0x35A JUMP JUMPDEST EQ ISZERO PUSH2 0x1DF0 JUMP JUMPDEST POP PUSH2 0x1EBB PUSH2 0x10D1 PUSH1 0x0 PUSH2 0xF14 JUMP JUMPDEST PUSH2 0x1EC4 DUP4 PUSH2 0x35A JUMP JUMPDEST EQ ISZERO PUSH2 0x1DAB JUMP JUMPDEST SWAP1 SWAP2 PUSH2 0x1ED8 SWAP1 DUP4 DUP4 PUSH2 0x22DF JUMP JUMPDEST SWAP2 PUSH2 0x1F06 PUSH2 0x1EE6 PUSH1 0x0 PUSH2 0xF14 JUMP JUMPDEST PUSH2 0x1EEF DUP2 PUSH2 0x35A JUMP JUMPDEST PUSH2 0x1EF8 DUP7 PUSH2 0x35A JUMP JUMPDEST SUB PUSH2 0x1F43 JUMPI PUSH2 0x10D1 DUP4 PUSH2 0x24CC JUMP JUMPDEST PUSH2 0x1F0F DUP4 PUSH2 0x35A JUMP JUMPDEST SUB PUSH2 0x1F1E JUMPI PUSH2 0x320 SWAP2 POP PUSH2 0x255B JUMP JUMPDEST PUSH2 0x1F27 DUP3 PUSH2 0x35A JUMP JUMPDEST PUSH2 0x1F30 DUP5 PUSH2 0x35A JUMP JUMPDEST SUB PUSH2 0x1F3A JUMPI POP POP SWAP1 JUMP JUMPDEST PUSH2 0x320 SWAP2 PUSH2 0x24EE JUMP JUMPDEST PUSH2 0x1F4C DUP5 PUSH2 0x35A JUMP JUMPDEST PUSH2 0x1F55 DUP7 PUSH2 0x35A JUMP JUMPDEST EQ PUSH2 0x35A JUMPI PUSH2 0x10D1 DUP4 DUP7 PUSH2 0x2413 JUMP JUMPDEST PUSH1 0x0 PUSH2 0x205F PUSH2 0xEA8 PUSH2 0x2059 PUSH2 0x1F78 DUP5 PUSH2 0x3E4 JUMP JUMPDEST SWAP5 PUSH2 0x1F8C PUSH2 0x1F86 PUSH1 0x80 PUSH2 0x19B4 JUMP JUMPDEST DUP3 PUSH2 0x19C1 JUMP JUMPDEST DUP7 DUP2 GT PUSH2 0x20FF JUMPI JUMPDEST POP PUSH2 0x1FA2 PUSH2 0x1F86 PUSH1 0x40 PUSH2 0x19B4 JUMP JUMPDEST PUSH2 0x1FAB DUP7 PUSH2 0x3E4 JUMP JUMPDEST DUP2 GT PUSH2 0x20E8 JUMPI JUMPDEST POP PUSH2 0x1FC0 PUSH2 0x1F86 PUSH1 0x20 PUSH2 0x19B4 JUMP JUMPDEST PUSH2 0x1FC9 DUP7 PUSH2 0x3E4 JUMP JUMPDEST DUP2 GT PUSH2 0x20D1 JUMPI JUMPDEST POP PUSH2 0x1FDE PUSH2 0x1F86 PUSH1 0x10 PUSH2 0x19B4 JUMP JUMPDEST PUSH2 0x1FE7 DUP7 PUSH2 0x3E4 JUMP JUMPDEST DUP2 GT PUSH2 0x20BA JUMPI JUMPDEST POP PUSH2 0x1FFC PUSH2 0x1F86 PUSH1 0x8 PUSH2 0x19B4 JUMP JUMPDEST PUSH2 0x2005 DUP7 PUSH2 0x3E4 JUMP JUMPDEST DUP2 GT PUSH2 0x20A3 JUMPI JUMPDEST POP PUSH2 0x201A PUSH2 0x1F86 PUSH1 0x4 PUSH2 0x19B4 JUMP JUMPDEST PUSH2 0x2023 DUP7 PUSH2 0x3E4 JUMP JUMPDEST DUP2 GT PUSH2 0x208C JUMPI JUMPDEST POP PUSH2 0x2038 PUSH2 0x1F86 PUSH1 0x2 PUSH2 0x19B4 JUMP JUMPDEST PUSH2 0x2041 DUP7 PUSH2 0x3E4 JUMP JUMPDEST DUP2 GT PUSH2 0x2075 JUMPI JUMPDEST POP PUSH2 0x2053 PUSH1 0x1 PUSH2 0x19B4 JUMP JUMPDEST SWAP1 PUSH2 0x19C1 JUMP JUMPDEST SWAP3 PUSH2 0x3E4 JUMP JUMPDEST GT PUSH2 0x2067 JUMPI SWAP1 JUMP JUMPDEST PUSH2 0x320 SWAP1 PUSH2 0x4A6 PUSH1 0x1 PUSH2 0x3E4 JUMP JUMPDEST PUSH2 0x2085 SWAP2 POP SWAP6 PUSH2 0x4A6 PUSH1 0x2 PUSH2 0x3E4 JUMP JUMPDEST SWAP5 CODESIZE PUSH2 0x2048 JUMP JUMPDEST PUSH2 0x209C SWAP2 POP SWAP6 PUSH2 0x4A6 PUSH1 0x4 PUSH2 0x3E4 JUMP JUMPDEST SWAP5 CODESIZE PUSH2 0x202A JUMP JUMPDEST PUSH2 0x20B3 SWAP2 POP SWAP6 PUSH2 0x4A6 PUSH1 0x8 PUSH2 0x3E4 JUMP JUMPDEST SWAP5 CODESIZE PUSH2 0x200C JUMP JUMPDEST PUSH2 0x20CA SWAP2 POP SWAP6 PUSH2 0x4A6 PUSH1 0x10 PUSH2 0x3E4 JUMP JUMPDEST SWAP5 CODESIZE PUSH2 0x1FEE JUMP JUMPDEST PUSH2 0x20E1 SWAP2 POP SWAP6 PUSH2 0x4A6 PUSH1 0x20 PUSH2 0x3E4 JUMP JUMPDEST SWAP5 CODESIZE PUSH2 0x1FD0 JUMP JUMPDEST PUSH2 0x20F8 SWAP2 POP SWAP6 PUSH2 0x4A6 PUSH1 0x40 PUSH2 0x3E4 JUMP JUMPDEST SWAP5 CODESIZE PUSH2 0x1FB2 JUMP JUMPDEST PUSH2 0x210F SWAP2 POP SWAP6 PUSH2 0x4A6 PUSH1 0x80 PUSH2 0x3E4 JUMP JUMPDEST SWAP5 CODESIZE PUSH2 0x1F94 JUMP JUMPDEST PUSH2 0x2120 PUSH1 0x0 PUSH2 0x3E4 JUMP JUMPDEST SWAP1 PUSH27 0x184F03E93FF9F4DAA797ED6E38ED64BF6A1F010000000000000000 PUSH2 0x2146 DUP2 PUSH2 0x3E4 JUMP JUMPDEST DUP3 LT ISZERO PUSH2 0x2288 JUMPI JUMPDEST POP PUSH14 0x4EE2D6D415B85ACEF8100000000 PUSH2 0x2167 DUP2 PUSH2 0x3E4 JUMP JUMPDEST DUP3 LT ISZERO PUSH2 0x2266 JUMPI JUMPDEST POP PUSH7 0x2386F26FC10000 PUSH2 0x2181 DUP2 PUSH2 0x3E4 JUMP JUMPDEST DUP3 LT ISZERO PUSH2 0x2244 JUMPI JUMPDEST POP PUSH4 0x5F5E100 PUSH2 0x2198 DUP2 PUSH2 0x3E4 JUMP JUMPDEST DUP3 LT ISZERO PUSH2 0x2222 JUMPI JUMPDEST POP PUSH2 0x2710 PUSH2 0x21AD DUP2 PUSH2 0x3E4 JUMP JUMPDEST DUP3 LT ISZERO PUSH2 0x2200 JUMPI JUMPDEST POP PUSH2 0x21C0 PUSH1 0x64 PUSH2 0x3E4 JUMP JUMPDEST DUP2 LT ISZERO PUSH2 0x21DE JUMPI JUMPDEST PUSH2 0x21D5 PUSH2 0xEA8 PUSH1 0xA PUSH2 0x3E4 JUMP JUMPDEST LT ISZERO PUSH2 0x2067 JUMPI SWAP1 JUMP JUMPDEST PUSH2 0x21EF PUSH2 0x21FA SWAP2 PUSH2 0xEFB PUSH1 0x64 PUSH2 0x3E4 JUMP JUMPDEST SWAP2 PUSH2 0x4A6 PUSH1 0x2 PUSH2 0x3E4 JUMP JUMPDEST SWAP1 PUSH2 0x21C8 JUMP JUMPDEST PUSH2 0x221B SWAP2 PUSH2 0xEFB PUSH2 0x2210 SWAP3 PUSH2 0x3E4 JUMP JUMPDEST SWAP2 PUSH2 0x4A6 PUSH1 0x4 PUSH2 0x3E4 JUMP JUMPDEST SWAP1 CODESIZE PUSH2 0x21B5 JUMP JUMPDEST PUSH2 0x223D SWAP2 PUSH2 0xEFB PUSH2 0x2232 SWAP3 PUSH2 0x3E4 JUMP JUMPDEST SWAP2 PUSH2 0x4A6 PUSH1 0x8 PUSH2 0x3E4 JUMP JUMPDEST SWAP1 CODESIZE PUSH2 0x21A0 JUMP JUMPDEST PUSH2 0x225F SWAP2 PUSH2 0xEFB PUSH2 0x2254 SWAP3 PUSH2 0x3E4 JUMP JUMPDEST SWAP2 PUSH2 0x4A6 PUSH1 0x10 PUSH2 0x3E4 JUMP JUMPDEST SWAP1 CODESIZE PUSH2 0x2189 JUMP JUMPDEST PUSH2 0x2281 SWAP2 PUSH2 0xEFB PUSH2 0x2276 SWAP3 PUSH2 0x3E4 JUMP JUMPDEST SWAP2 PUSH2 0x4A6 PUSH1 0x20 PUSH2 0x3E4 JUMP JUMPDEST SWAP1 CODESIZE PUSH2 0x216F JUMP JUMPDEST PUSH2 0x22A3 SWAP2 PUSH2 0xEFB PUSH2 0x2298 SWAP3 PUSH2 0x3E4 JUMP JUMPDEST SWAP2 PUSH2 0x4A6 PUSH1 0x40 PUSH2 0x3E4 JUMP JUMPDEST SWAP1 CODESIZE PUSH2 0x214E JUMP JUMPDEST PUSH2 0x22BA PUSH4 0x1FFC9A7 PUSH1 0xE0 SHL PUSH2 0x1C2C JUMP JUMPDEST EQ SWAP1 JUMP JUMPDEST SWAP1 PUSH1 0x0 NOT SWAP1 PUSH2 0x10F5 JUMP JUMPDEST SWAP1 PUSH2 0x22D8 PUSH2 0x320 PUSH2 0x1116 SWAP3 PUSH2 0x3E4 JUMP JUMPDEST DUP3 SLOAD PUSH2 0x22BE JUMP JUMPDEST SWAP1 PUSH2 0x2332 PUSH2 0x22EC DUP3 PUSH2 0x1D88 JUMP JUMPDEST SWAP4 PUSH1 0x0 PUSH2 0x22F8 DUP2 PUSH2 0xF14 JUMP JUMPDEST SWAP2 DUP5 PUSH2 0x2303 DUP5 PUSH2 0x35A JUMP JUMPDEST PUSH2 0x230C DUP4 PUSH2 0x35A JUMP JUMPDEST SUB PUSH2 0x2402 JUMPI JUMPDEST POP POP PUSH2 0x231D DUP3 PUSH2 0x35A JUMP JUMPDEST PUSH2 0x2326 DUP8 PUSH2 0x35A JUMP JUMPDEST SUB PUSH2 0x23C7 JUMPI JUMPDEST POP PUSH2 0x35A JUMP JUMPDEST PUSH2 0x233B DUP4 PUSH2 0x35A JUMP JUMPDEST SUB PUSH2 0x2397 JUMPI JUMPDEST PUSH2 0x2350 DUP3 PUSH2 0x1DC1 DUP4 PUSH1 0x2 PUSH2 0x3F1 JUMP JUMPDEST PUSH2 0x2365 PUSH2 0x235F PUSH2 0x198C DUP6 PUSH2 0xFF2 JUMP JUMPDEST SWAP2 PUSH2 0x3E4 JUMP JUMPDEST SWAP2 PUSH32 0xDDF252AD1BE2C89B69C2B068FC378DAA952BA7F163C4A11628F55A4DF523B3EF PUSH2 0x2390 PUSH1 0x40 MLOAD SWAP1 JUMP JUMPDEST PUSH1 0x0 SWAP1 LOG4 SWAP1 JUMP JUMPDEST PUSH2 0x23C2 PUSH2 0x23A4 PUSH1 0x1 PUSH2 0x3E4 JUMP JUMPDEST PUSH2 0x23BC PUSH2 0x23B2 DUP6 PUSH1 0x3 PUSH2 0xFFB JUMP JUMPDEST SWAP2 PUSH2 0x4A6 DUP4 PUSH2 0xD21 JUMP JUMPDEST SWAP1 PUSH2 0x22C8 JUMP JUMPDEST PUSH2 0x2341 JUMP JUMPDEST PUSH2 0x23D3 SWAP1 DUP3 DUP6 DUP2 PUSH2 0x1D9F JUMP JUMPDEST PUSH2 0x23FC PUSH2 0x23E0 PUSH1 0x1 PUSH2 0x3E4 JUMP JUMPDEST PUSH2 0x23BC PUSH2 0x23EE DUP9 PUSH1 0x3 PUSH2 0xFFB JUMP JUMPDEST SWAP2 PUSH2 0x23F8 DUP4 PUSH2 0xD21 JUMP JUMPDEST SUB SWAP1 JUMP JUMPDEST CODESIZE PUSH2 0x232C JUMP JUMPDEST PUSH2 0x240C SWAP2 DUP9 PUSH2 0x25AE JUMP JUMPDEST CODESIZE DUP5 PUSH2 0x2312 JUMP JUMPDEST PUSH2 0x2452 PUSH2 0x2BB SWAP3 PUSH2 0x102A PUSH1 0x0 SWAP4 PUSH2 0x2457 DUP6 PUSH2 0x2452 PUSH2 0x2430 DUP5 PUSH2 0x1518 JUMP JUMPDEST SWAP6 PUSH1 0x7 DUP6 PUSH2 0x2441 PUSH2 0x102F DUP5 DUP5 PUSH2 0x3F1 JUMP JUMPDEST DUP10 DUP1 DUP3 SUB PUSH2 0x245E JUMPI JUMPDEST POP POP POP PUSH2 0x3F1 JUMP JUMPDEST PUSH2 0x1264 JUMP JUMPDEST PUSH1 0x6 PUSH2 0xFFB JUMP JUMPDEST PUSH2 0x102A PUSH2 0x2490 DUP5 PUSH2 0x248B DUP6 PUSH2 0x2481 PUSH2 0x102F PUSH2 0x248B SWAP8 PUSH2 0x102A PUSH2 0x2496 SWAP12 PUSH1 0x6 PUSH2 0xFFB JUMP JUMPDEST SWAP5 DUP6 SWAP4 PUSH1 0x6 PUSH2 0xFFB JUMP JUMPDEST PUSH2 0x22C8 JUMP JUMPDEST DUP5 PUSH2 0x3F1 JUMP JUMPDEST DUP6 CODESIZE DUP10 PUSH2 0x244A JUMP JUMPDEST SWAP1 DUP2 SLOAD SWAP2 PUSH9 0x10000000000000000 DUP4 LT ISZERO PUSH2 0x61A JUMPI DUP3 PUSH2 0x24C6 SWAP2 PUSH1 0x1 PUSH2 0x2BB SWAP6 ADD DUP2 SSTORE PUSH2 0xBCE JUMP JUMPDEST SWAP1 PUSH2 0x124B JUMP JUMPDEST PUSH2 0x2BB SWAP1 PUSH2 0x24E7 PUSH2 0x24DC PUSH1 0x8 SLOAD SWAP1 JUMP JUMPDEST PUSH2 0x248B DUP4 PUSH1 0x9 PUSH2 0x3F1 JUMP JUMPDEST PUSH1 0x8 PUSH2 0x249E JUMP JUMPDEST PUSH2 0x248B DUP3 PUSH2 0x2516 PUSH2 0x2BB SWAP5 PUSH2 0x248B PUSH2 0x102A SWAP6 PUSH2 0x250C PUSH2 0x1193 DUP3 PUSH2 0x1518 JUMP JUMPDEST SWAP7 DUP8 SWAP2 PUSH1 0x6 PUSH2 0xFFB JUMP JUMPDEST PUSH1 0x7 PUSH2 0x3F1 JUMP JUMPDEST PUSH4 0x4E487B71 PUSH1 0xE0 SHL PUSH1 0x0 MSTORE PUSH1 0x31 PUSH1 0x4 MSTORE PUSH1 0x24 PUSH1 0x0 REVERT JUMPDEST DUP1 SLOAD DUP1 ISZERO PUSH2 0x2556 JUMPI PUSH1 0x0 NOT ADD SWAP1 PUSH2 0x2553 PUSH2 0x254D DUP4 DUP4 PUSH2 0xBCE JUMP JUMPDEST SWAP1 PUSH2 0x1264 JUMP JUMPDEST SSTORE JUMP JUMPDEST PUSH2 0x251D JUMP JUMPDEST PUSH2 0x25A9 PUSH2 0x2BB SWAP2 PUSH2 0x320 PUSH1 0x0 PUSH2 0x2452 PUSH1 0x8 SWAP4 PUSH2 0x2578 PUSH2 0x1193 DUP7 SLOAD SWAP1 JUMP JUMPDEST PUSH2 0x102A PUSH1 0x9 SWAP2 PUSH2 0x248B PUSH2 0x259B PUSH2 0xC0E PUSH2 0x2594 PUSH2 0x102F DUP9 DUP9 PUSH2 0x3F1 JUMP JUMPDEST SWAP4 DUP12 PUSH2 0xBCE JUMP JUMPDEST PUSH2 0x2490 DUP2 PUSH2 0x24C6 DUP6 DUP14 PUSH2 0xBCE JUMP JUMPDEST PUSH2 0x2533 JUMP JUMPDEST SWAP1 PUSH2 0x25BD PUSH2 0x1E8A DUP5 DUP4 DUP6 PUSH2 0x260E JUMP JUMPDEST PUSH2 0x25C6 JUMPI POP POP POP JUMP JUMPDEST PUSH1 0x0 SWAP3 DUP4 SWAP3 PUSH2 0x25DA PUSH2 0x188C PUSH2 0x10D1 DUP7 PUSH2 0xF14 JUMP JUMPDEST SUB PUSH2 0x25F7 JUMPI PUSH4 0x7E273289 PUSH1 0xE0 SHL DUP4 MSTORE PUSH1 0x4 DUP4 ADD MSTORE POP PUSH1 0x24 DUP2 ADD SUB SWAP1 REVERT JUMPDEST PUSH4 0x177E802F PUSH1 0xE0 SHL DUP4 MSTORE PUSH2 0xFB6 SWAP2 PUSH1 0x4 DUP5 ADD PUSH2 0xFD3 JUMP JUMPDEST SWAP1 PUSH2 0x261C PUSH2 0x10D1 PUSH1 0x0 PUSH2 0xF14 JUMP JUMPDEST PUSH2 0x2625 DUP3 PUSH2 0x35A JUMP JUMPDEST EQ ISZERO SWAP3 DUP4 PUSH2 0x2633 JUMPI POP POP POP SWAP1 JUMP JUMPDEST SWAP1 SWAP2 SWAP3 POP PUSH2 0x2640 DUP3 PUSH2 0x35A JUMP JUMPDEST PUSH2 0x2649 DUP5 PUSH2 0x35A JUMP JUMPDEST EQ SWAP3 DUP4 ISZERO PUSH2 0x2684 JUMPI JUMPDEST POP DUP3 ISZERO PUSH2 0x2664 JUMPI JUMPDEST POP POP CODESIZE DUP1 DUP1 PUSH2 0x1CE2 JUMP JUMPDEST PUSH2 0x267C SWAP2 SWAP3 POP PUSH2 0x2676 PUSH2 0x188C SWAP2 PUSH2 0x1830 JUMP JUMPDEST SWAP3 PUSH2 0x35A JUMP JUMPDEST EQ CODESIZE DUP1 PUSH2 0x265A JUMP JUMPDEST PUSH2 0x2691 SWAP2 SWAP4 POP DUP3 SWAP1 PUSH2 0x1747 JUMP JUMPDEST SWAP2 CODESIZE PUSH2 0x2652 JUMP INVALID LOG2 PUSH5 0x6970667358 0x22 SLT KECCAK256 0xAA PUSH26 0x344D0E48EA849E90500E5BE18CFB9A78C18C04B3A119AA0422A2 SWAP9 0xFC PUSH14 0xB964736F6C634300081C00330000 "},"methodIdentifiers":{"approve(address,uint256)":"095ea7b3","availableTokens(uint256)":"ad64d068","balanceOf(address)":"70a08231","baseURI()":"6c0360eb","calculatePrice(uint256)":"ae104265","creator()":"02d05d3f","creatorFeePercent()":"53613dd3","currentSupply()":"771282f6","description()":"7284e416","getAllAvailableTokens()":"12ea5c7e","getApproved(uint256)":"081812fc","getAvailableTokenByIndex(uint256)":"cf6a68bf","getAvailableTokensCount()":"2dcd52f2","getAvailableTokensPaginated(uint256,uint256)":"5eba096b","getBuyPrice()":"018a25e8","getBuyPriceAfterFee()":"4a8fe650","getSellPrice()":"43d32e9c","getSellPriceAfterFee()":"21a1c184","initialPrice()":"1d0806ae","isApprovedForAll(address,address)":"e985e9c5","maxSupply()":"d5abeb01","name()":"06fdde03","onERC721Received(address,address,uint256,bytes)":"150b7a02","owner()":"8da5cb5b","ownerOf(uint256)":"6352211e","renounceOwnership()":"715018a6","safeTransferFrom(address,address,uint256)":"42842e0e","safeTransferFrom(address,address,uint256,bytes)":"b88d4fde","setApprovalForAll(address,bool)":"a22cb465","setBaseURI(string)":"55f804b3","setCreator(address)":"3f516018","setDescription(string)":"90c3f38f","supportsInterface(bytes4)":"01ffc9a7","symbol()":"95d89b41","tokenByIndex(uint256)":"4f6ccce7","tokenIndex(uint256)":"0583e9f8","tokenOfOwnerByIndex(address,uint256)":"2f745c59","tokenURI(uint256)":"c87b56dd","totalSupply()":"18160ddd","transferFrom(address,address,uint256)":"23b872dd","transferOwnership(address)":"f2fde38b"}}}}}