{"src/examples/Trait.sol":{"Trait":{"abi":[{"inputs":[{"internalType":"uint256","name":"","type":"uint256"}],"name":"tokenSeed","outputs":[{"internalType":"uint256","name":"","type":"uint256"}],"stateMutability":"view","type":"function"}],"evm":{"bytecode":{"linkReferences":{},"object":"60806040523461002057610011610789565b60405160da6108c3823960da90f35b600080fd5b634e487b7160e01b600052604160045260246000fd5b90601f01601f191681019081106001600160401b0382111761005c57604052565b610025565b9061007561006e60405190565b928361003b565b565b6001600160401b03811161005c5760200290565b61009761009c91610077565b610061565b90565b6001600160401b03811161005c57602090601f01601f19160190565b906100c86100978361009f565b918252565b6100d760076100bb565b660233030303030360cc1b602082015290565b61009c6100cd565b6100fc60076100bb565b6611a3232323232360c91b602082015290565b61009c6100f2565b61012160076100bb565b660234646303030360cc1b602082015290565b61009c610117565b61014660076100bb565b660233030464630360cc1b602082015290565b61009c61013c565b61016b60076100bb565b661198181818232360c91b602082015290565b61009c610161565b61019060076100bb565b660234646464630360cc1b602082015290565b61009c610186565b6101b560076100bb565b6611a3231818232360c91b602082015290565b61009c6101ab565b6101da60076100bb565b661198182323232360c91b602082015290565b61009c6101d0565b6101ff60076100bb565b660234646413530360cc1b602082015290565b61009c6101f5565b61022460076100bb565b660233830303038360cc1b602082015290565b61009c61021a565b61024960076100bb565b660233030383030360cc1b602082015290565b61009c61023f565b61026e60076100bb565b660233830303030360cc1b602082015290565b61009c610264565b61029360076100bb565b660233830383030360cc1b602082015290565b61009c610289565b6102b860076100bb565b660233030383038360cc1b602082015290565b61009c6102ae565b6102dd60076100bb565b660234330433043360cc1b602082015290565b61009c6102d3565b61030260076100bb565b660233830383038360cc1b602082015290565b61009c6102f8565b634e487b7160e01b600052600060045260246000fd5b634e487b7160e01b600052602260045260246000fd5b9060016002830492168015610369575b602083101461036457565b610333565b91607f1691610359565b9061038690600019906020036008021c90565b8154169055565b61009c61009c61009c9290565b91906103ab61009c6103c39361038d565b90835460001960089290920291821b191691901b1790565b9055565b6100759160009161039a565b8181106103de575050565b806103ec60006001936103c7565b016103d3565b9060009161041d61040882600052602060002090565b928354600019600883021c1916906002021790565b905555565b919290602082101561048757601f8411600114610451576103c3929350600019600883021c1916906002021790565b509061048261007593600161047961046e85600052602060002090565b92601f602091010490565b820191016103d3565b6103f2565b506104c7829361049e600194600052602060002090565b6104c06020601f860104820192601f8616806104cf575b50601f602091010490565b01906103d3565b600202179055565b6104db90888603610373565b386104b5565b92909168010000000000000000821161005c576020111561053a57602081101561051b576103c391600019600883021c1916906002021790565b60019160ff191661053184600052602060002090565b55600202019055565b60019150600202019055565b90815461055281610349565b9081831161057b575b818310610569575b50505050565b61057293610422565b38808080610563565b610587838383876104e1565b61055b565b600061007591610546565b906000036105a8576100759061058c565b61031d565b8181106105b8575050565b806105c66000600193610597565b016105ad565b9190918282106105db57505050565b6100759291906105ea565b9190565b91820191016105ad565b9068010000000000000000811161005c57610075916010906105cc565b9190601f811161062057505050565b61063261007593600052602060002090565b906020601f840181900483019310610652575b6020601f909101046104c0565b9091508190610645565b90610665815190565b906001600160401b03821161005c57610688826106828554610349565b85610611565b602090601f83116001146106c3576103c39291600091836106b8575b5050600019600883021c1916906002021790565b0151905038806106a4565b601f198316916106d885600052602060002090565b9260005b818110610716575091600293918560019694106106fd575b50505002019055565b01516000196008601f8516021c191690553880806106f4565b919360206001819287870151815501950192016106dc565b906100759161065c565b61074b6105e660109361009c85856105f4565b6000915b83831061075c5750505050565b600160208261077361076d84955190565b8661072e565b0192019201919061074f565b9061007591610738565b610075610796601061008b565b6107a56107a16100ea565b8252565b6107b76107b061010f565b6020830152565b6107c96107c2610134565b6040830152565b6107db6107d4610159565b6060830152565b6107ed6107e661017e565b6080830152565b6107ff6107f86101a3565b60a0830152565b61081161080a6101c8565b60c0830152565b61082361081c6101ed565b60e0830152565b61083661082e610212565b610100830152565b610849610841610237565b610120830152565b61085c61085461025c565b610140830152565b61086f610867610281565b610160830152565b61088261087a6102a6565b610180830152565b61089561088d6102cb565b6101a0830152565b6108a86108a06102f0565b6101c0830152565b6108bb6108b3610315565b6101e0830152565b600161077f56fe60806040526004361015601157600080fd5b635f51683660003560e01c14607b575b600080fd5b90602082820312602157503590565b90565b6035603560359290565b90604a906038565b600052602052604060002090565b6035916008021c81565b90603591546058565b60006077603592826042565b6062565b3460215760a06090608c3660046026565b606b565b6040519182918290815260200190565b0390f3fea264697066735822122065cff6008b9c37e52a9a21635939cded4bc195cb64007cb17fb66fe63cf2a1b564736f6c634300081c0033","opcodes":"PUSH1 0x80 PUSH1 0x40 MSTORE CALLVALUE PUSH2 0x20 JUMPI PUSH2 0x11 PUSH2 0x789 JUMP JUMPDEST PUSH1 0x40 MLOAD PUSH1 0xDA PUSH2 0x8C3 DUP3 CODECOPY PUSH1 0xDA SWAP1 RETURN JUMPDEST PUSH1 0x0 DUP1 REVERT JUMPDEST PUSH4 0x4E487B71 PUSH1 0xE0 SHL PUSH1 0x0 MSTORE PUSH1 0x41 PUSH1 0x4 MSTORE PUSH1 0x24 PUSH1 0x0 REVERT JUMPDEST SWAP1 PUSH1 0x1F ADD PUSH1 0x1F NOT AND DUP2 ADD SWAP1 DUP2 LT PUSH1 0x1 PUSH1 0x1 PUSH1 0x40 SHL SUB DUP3 GT OR PUSH2 0x5C JUMPI PUSH1 0x40 MSTORE JUMP JUMPDEST PUSH2 0x25 JUMP JUMPDEST SWAP1 PUSH2 0x75 PUSH2 0x6E PUSH1 0x40 MLOAD SWAP1 JUMP JUMPDEST SWAP3 DUP4 PUSH2 0x3B JUMP JUMPDEST JUMP JUMPDEST PUSH1 0x1 PUSH1 0x1 PUSH1 0x40 SHL SUB DUP2 GT PUSH2 0x5C JUMPI PUSH1 0x20 MUL SWAP1 JUMP JUMPDEST PUSH2 0x97 PUSH2 0x9C SWAP2 PUSH2 0x77 JUMP JUMPDEST PUSH2 0x61 JUMP JUMPDEST SWAP1 JUMP JUMPDEST PUSH1 0x1 PUSH1 0x1 PUSH1 0x40 SHL SUB DUP2 GT PUSH2 0x5C JUMPI PUSH1 0x20 SWAP1 PUSH1 0x1F ADD PUSH1 0x1F NOT AND ADD SWAP1 JUMP JUMPDEST SWAP1 PUSH2 0xC8 PUSH2 0x97 DUP4 PUSH2 0x9F JUMP JUMPDEST SWAP2 DUP3 MSTORE JUMP JUMPDEST PUSH2 0xD7 PUSH1 0x7 PUSH2 0xBB JUMP JUMPDEST PUSH7 0x2330303030303 PUSH1 0xCC SHL PUSH1 0x20 DUP3 ADD MSTORE SWAP1 JUMP JUMPDEST PUSH2 0x9C PUSH2 0xCD JUMP JUMPDEST PUSH2 0xFC PUSH1 0x7 PUSH2 0xBB JUMP JUMPDEST PUSH7 0x11A32323232323 PUSH1 0xC9 SHL PUSH1 0x20 DUP3 ADD MSTORE SWAP1 JUMP JUMPDEST PUSH2 0x9C PUSH2 0xF2 JUMP JUMPDEST PUSH2 0x121 PUSH1 0x7 PUSH2 0xBB JUMP JUMPDEST PUSH7 0x2346463030303 PUSH1 0xCC SHL PUSH1 0x20 DUP3 ADD MSTORE SWAP1 JUMP JUMPDEST PUSH2 0x9C PUSH2 0x117 JUMP JUMPDEST PUSH2 0x146 PUSH1 0x7 PUSH2 0xBB JUMP JUMPDEST PUSH7 0x2330304646303 PUSH1 0xCC SHL PUSH1 0x20 DUP3 ADD MSTORE SWAP1 JUMP JUMPDEST PUSH2 0x9C PUSH2 0x13C JUMP JUMPDEST PUSH2 0x16B PUSH1 0x7 PUSH2 0xBB JUMP JUMPDEST PUSH7 0x11981818182323 PUSH1 0xC9 SHL PUSH1 0x20 DUP3 ADD MSTORE SWAP1 JUMP JUMPDEST PUSH2 0x9C PUSH2 0x161 JUMP JUMPDEST PUSH2 0x190 PUSH1 0x7 PUSH2 0xBB JUMP JUMPDEST PUSH7 0x2346464646303 PUSH1 0xCC SHL PUSH1 0x20 DUP3 ADD MSTORE SWAP1 JUMP JUMPDEST PUSH2 0x9C PUSH2 0x186 JUMP JUMPDEST PUSH2 0x1B5 PUSH1 0x7 PUSH2 0xBB JUMP JUMPDEST PUSH7 0x11A32318182323 PUSH1 0xC9 SHL PUSH1 0x20 DUP3 ADD MSTORE SWAP1 JUMP JUMPDEST PUSH2 0x9C PUSH2 0x1AB JUMP JUMPDEST PUSH2 0x1DA PUSH1 0x7 PUSH2 0xBB JUMP JUMPDEST PUSH7 0x11981823232323 PUSH1 0xC9 SHL PUSH1 0x20 DUP3 ADD MSTORE SWAP1 JUMP JUMPDEST PUSH2 0x9C PUSH2 0x1D0 JUMP JUMPDEST PUSH2 0x1FF PUSH1 0x7 PUSH2 0xBB JUMP JUMPDEST PUSH7 0x2346464135303 PUSH1 0xCC SHL PUSH1 0x20 DUP3 ADD MSTORE SWAP1 JUMP JUMPDEST PUSH2 0x9C PUSH2 0x1F5 JUMP JUMPDEST PUSH2 0x224 PUSH1 0x7 PUSH2 0xBB JUMP JUMPDEST PUSH7 0x2338303030383 PUSH1 0xCC SHL PUSH1 0x20 DUP3 ADD MSTORE SWAP1 JUMP JUMPDEST PUSH2 0x9C PUSH2 0x21A JUMP JUMPDEST PUSH2 0x249 PUSH1 0x7 PUSH2 0xBB JUMP JUMPDEST PUSH7 0x2330303830303 PUSH1 0xCC SHL PUSH1 0x20 DUP3 ADD MSTORE SWAP1 JUMP JUMPDEST PUSH2 0x9C PUSH2 0x23F JUMP JUMPDEST PUSH2 0x26E PUSH1 0x7 PUSH2 0xBB JUMP JUMPDEST PUSH7 0x2338303030303 PUSH1 0xCC SHL PUSH1 0x20 DUP3 ADD MSTORE SWAP1 JUMP JUMPDEST PUSH2 0x9C PUSH2 0x264 JUMP JUMPDEST PUSH2 0x293 PUSH1 0x7 PUSH2 0xBB JUMP JUMPDEST PUSH7 0x2338303830303 PUSH1 0xCC SHL PUSH1 0x20 DUP3 ADD MSTORE SWAP1 JUMP JUMPDEST PUSH2 0x9C PUSH2 0x289 JUMP JUMPDEST PUSH2 0x2B8 PUSH1 0x7 PUSH2 0xBB JUMP JUMPDEST PUSH7 0x2330303830383 PUSH1 0xCC SHL PUSH1 0x20 DUP3 ADD MSTORE SWAP1 JUMP JUMPDEST PUSH2 0x9C PUSH2 0x2AE JUMP JUMPDEST PUSH2 0x2DD PUSH1 0x7 PUSH2 0xBB JUMP JUMPDEST PUSH7 0x2343304330433 PUSH1 0xCC SHL PUSH1 0x20 DUP3 ADD MSTORE SWAP1 JUMP JUMPDEST PUSH2 0x9C PUSH2 0x2D3 JUMP JUMPDEST PUSH2 0x302 PUSH1 0x7 PUSH2 0xBB JUMP JUMPDEST PUSH7 0x2338303830383 PUSH1 0xCC SHL PUSH1 0x20 DUP3 ADD MSTORE SWAP1 JUMP JUMPDEST PUSH2 0x9C PUSH2 0x2F8 JUMP JUMPDEST PUSH4 0x4E487B71 PUSH1 0xE0 SHL PUSH1 0x0 MSTORE PUSH1 0x0 PUSH1 0x4 MSTORE PUSH1 0x24 PUSH1 0x0 REVERT JUMPDEST PUSH4 0x4E487B71 PUSH1 0xE0 SHL PUSH1 0x0 MSTORE PUSH1 0x22 PUSH1 0x4 MSTORE PUSH1 0x24 PUSH1 0x0 REVERT JUMPDEST SWAP1 PUSH1 0x1 PUSH1 0x2 DUP4 DIV SWAP3 AND DUP1 ISZERO PUSH2 0x369 JUMPI JUMPDEST PUSH1 0x20 DUP4 LT EQ PUSH2 0x364 JUMPI JUMP JUMPDEST PUSH2 0x333 JUMP JUMPDEST SWAP2 PUSH1 0x7F AND SWAP2 PUSH2 0x359 JUMP JUMPDEST SWAP1 PUSH2 0x386 SWAP1 PUSH1 0x0 NOT SWAP1 PUSH1 0x20 SUB PUSH1 0x8 MUL SHR SWAP1 JUMP JUMPDEST DUP2 SLOAD AND SWAP1 SSTORE JUMP JUMPDEST PUSH2 0x9C PUSH2 0x9C PUSH2 0x9C SWAP3 SWAP1 JUMP JUMPDEST SWAP2 SWAP1 PUSH2 0x3AB PUSH2 0x9C PUSH2 0x3C3 SWAP4 PUSH2 0x38D JUMP JUMPDEST SWAP1 DUP4 SLOAD PUSH1 0x0 NOT PUSH1 0x8 SWAP3 SWAP1 SWAP3 MUL SWAP2 DUP3 SHL NOT AND SWAP2 SWAP1 SHL OR SWAP1 JUMP JUMPDEST SWAP1 SSTORE JUMP JUMPDEST PUSH2 0x75 SWAP2 PUSH1 0x0 SWAP2 PUSH2 0x39A JUMP JUMPDEST DUP2 DUP2 LT PUSH2 0x3DE JUMPI POP POP JUMP JUMPDEST DUP1 PUSH2 0x3EC PUSH1 0x0 PUSH1 0x1 SWAP4 PUSH2 0x3C7 JUMP JUMPDEST ADD PUSH2 0x3D3 JUMP JUMPDEST SWAP1 PUSH1 0x0 SWAP2 PUSH2 0x41D PUSH2 0x408 DUP3 PUSH1 0x0 MSTORE PUSH1 0x20 PUSH1 0x0 KECCAK256 SWAP1 JUMP JUMPDEST SWAP3 DUP4 SLOAD PUSH1 0x0 NOT PUSH1 0x8 DUP4 MUL SHR NOT AND SWAP1 PUSH1 0x2 MUL OR SWAP1 JUMP JUMPDEST SWAP1 SSTORE SSTORE JUMP JUMPDEST SWAP2 SWAP3 SWAP1 PUSH1 0x20 DUP3 LT ISZERO PUSH2 0x487 JUMPI PUSH1 0x1F DUP5 GT PUSH1 0x1 EQ PUSH2 0x451 JUMPI PUSH2 0x3C3 SWAP3 SWAP4 POP PUSH1 0x0 NOT PUSH1 0x8 DUP4 MUL SHR NOT AND SWAP1 PUSH1 0x2 MUL OR SWAP1 JUMP JUMPDEST POP SWAP1 PUSH2 0x482 PUSH2 0x75 SWAP4 PUSH1 0x1 PUSH2 0x479 PUSH2 0x46E DUP6 PUSH1 0x0 MSTORE PUSH1 0x20 PUSH1 0x0 KECCAK256 SWAP1 JUMP JUMPDEST SWAP3 PUSH1 0x1F PUSH1 0x20 SWAP2 ADD DIV SWAP1 JUMP JUMPDEST DUP3 ADD SWAP2 ADD PUSH2 0x3D3 JUMP JUMPDEST PUSH2 0x3F2 JUMP JUMPDEST POP PUSH2 0x4C7 DUP3 SWAP4 PUSH2 0x49E PUSH1 0x1 SWAP5 PUSH1 0x0 MSTORE PUSH1 0x20 PUSH1 0x0 KECCAK256 SWAP1 JUMP JUMPDEST PUSH2 0x4C0 PUSH1 0x20 PUSH1 0x1F DUP7 ADD DIV DUP3 ADD SWAP3 PUSH1 0x1F DUP7 AND DUP1 PUSH2 0x4CF JUMPI JUMPDEST POP PUSH1 0x1F PUSH1 0x20 SWAP2 ADD DIV SWAP1 JUMP JUMPDEST ADD SWAP1 PUSH2 0x3D3 JUMP JUMPDEST PUSH1 0x2 MUL OR SWAP1 SSTORE JUMP JUMPDEST PUSH2 0x4DB SWAP1 DUP9 DUP7 SUB PUSH2 0x373 JUMP JUMPDEST CODESIZE PUSH2 0x4B5 JUMP JUMPDEST SWAP3 SWAP1 SWAP2 PUSH9 0x10000000000000000 DUP3 GT PUSH2 0x5C JUMPI PUSH1 0x20 GT ISZERO PUSH2 0x53A JUMPI PUSH1 0x20 DUP2 LT ISZERO PUSH2 0x51B JUMPI PUSH2 0x3C3 SWAP2 PUSH1 0x0 NOT PUSH1 0x8 DUP4 MUL SHR NOT AND SWAP1 PUSH1 0x2 MUL OR SWAP1 JUMP JUMPDEST PUSH1 0x1 SWAP2 PUSH1 0xFF NOT AND PUSH2 0x531 DUP5 PUSH1 0x0 MSTORE PUSH1 0x20 PUSH1 0x0 KECCAK256 SWAP1 JUMP JUMPDEST SSTORE PUSH1 0x2 MUL ADD SWAP1 SSTORE JUMP JUMPDEST PUSH1 0x1 SWAP2 POP PUSH1 0x2 MUL ADD SWAP1 SSTORE JUMP JUMPDEST SWAP1 DUP2 SLOAD PUSH2 0x552 DUP2 PUSH2 0x349 JUMP JUMPDEST SWAP1 DUP2 DUP4 GT PUSH2 0x57B JUMPI JUMPDEST DUP2 DUP4 LT PUSH2 0x569 JUMPI JUMPDEST POP POP POP POP JUMP JUMPDEST PUSH2 0x572 SWAP4 PUSH2 0x422 JUMP JUMPDEST CODESIZE DUP1 DUP1 DUP1 PUSH2 0x563 JUMP JUMPDEST PUSH2 0x587 DUP4 DUP4 DUP4 DUP8 PUSH2 0x4E1 JUMP JUMPDEST PUSH2 0x55B JUMP JUMPDEST PUSH1 0x0 PUSH2 0x75 SWAP2 PUSH2 0x546 JUMP JUMPDEST SWAP1 PUSH1 0x0 SUB PUSH2 0x5A8 JUMPI PUSH2 0x75 SWAP1 PUSH2 0x58C JUMP JUMPDEST PUSH2 0x31D JUMP JUMPDEST DUP2 DUP2 LT PUSH2 0x5B8 JUMPI POP POP JUMP JUMPDEST DUP1 PUSH2 0x5C6 PUSH1 0x0 PUSH1 0x1 SWAP4 PUSH2 0x597 JUMP JUMPDEST ADD PUSH2 0x5AD JUMP JUMPDEST SWAP2 SWAP1 SWAP2 DUP3 DUP3 LT PUSH2 0x5DB JUMPI POP POP POP JUMP JUMPDEST PUSH2 0x75 SWAP3 SWAP2 SWAP1 PUSH2 0x5EA JUMP JUMPDEST SWAP2 SWAP1 JUMP JUMPDEST SWAP2 DUP3 ADD SWAP2 ADD PUSH2 0x5AD JUMP JUMPDEST SWAP1 PUSH9 0x10000000000000000 DUP2 GT PUSH2 0x5C JUMPI PUSH2 0x75 SWAP2 PUSH1 0x10 SWAP1 PUSH2 0x5CC JUMP JUMPDEST SWAP2 SWAP1 PUSH1 0x1F DUP2 GT PUSH2 0x620 JUMPI POP POP POP JUMP JUMPDEST PUSH2 0x632 PUSH2 0x75 SWAP4 PUSH1 0x0 MSTORE PUSH1 0x20 PUSH1 0x0 KECCAK256 SWAP1 JUMP JUMPDEST SWAP1 PUSH1 0x20 PUSH1 0x1F DUP5 ADD DUP2 SWAP1 DIV DUP4 ADD SWAP4 LT PUSH2 0x652 JUMPI JUMPDEST PUSH1 0x20 PUSH1 0x1F SWAP1 SWAP2 ADD DIV PUSH2 0x4C0 JUMP JUMPDEST SWAP1 SWAP2 POP DUP2 SWAP1 PUSH2 0x645 JUMP JUMPDEST SWAP1 PUSH2 0x665 DUP2 MLOAD SWAP1 JUMP JUMPDEST SWAP1 PUSH1 0x1 PUSH1 0x1 PUSH1 0x40 SHL SUB DUP3 GT PUSH2 0x5C JUMPI PUSH2 0x688 DUP3 PUSH2 0x682 DUP6 SLOAD PUSH2 0x349 JUMP JUMPDEST DUP6 PUSH2 0x611 JUMP JUMPDEST PUSH1 0x20 SWAP1 PUSH1 0x1F DUP4 GT PUSH1 0x1 EQ PUSH2 0x6C3 JUMPI PUSH2 0x3C3 SWAP3 SWAP2 PUSH1 0x0 SWAP2 DUP4 PUSH2 0x6B8 JUMPI JUMPDEST POP POP PUSH1 0x0 NOT PUSH1 0x8 DUP4 MUL SHR NOT AND SWAP1 PUSH1 0x2 MUL OR SWAP1 JUMP JUMPDEST ADD MLOAD SWAP1 POP CODESIZE DUP1 PUSH2 0x6A4 JUMP JUMPDEST PUSH1 0x1F NOT DUP4 AND SWAP2 PUSH2 0x6D8 DUP6 PUSH1 0x0 MSTORE PUSH1 0x20 PUSH1 0x0 KECCAK256 SWAP1 JUMP JUMPDEST SWAP3 PUSH1 0x0 JUMPDEST DUP2 DUP2 LT PUSH2 0x716 JUMPI POP SWAP2 PUSH1 0x2 SWAP4 SWAP2 DUP6 PUSH1 0x1 SWAP7 SWAP5 LT PUSH2 0x6FD JUMPI JUMPDEST POP POP POP MUL ADD SWAP1 SSTORE JUMP JUMPDEST ADD MLOAD PUSH1 0x0 NOT PUSH1 0x8 PUSH1 0x1F DUP6 AND MUL SHR NOT AND SWAP1 SSTORE CODESIZE DUP1 DUP1 PUSH2 0x6F4 JUMP JUMPDEST SWAP2 SWAP4 PUSH1 0x20 PUSH1 0x1 DUP2 SWAP3 DUP8 DUP8 ADD MLOAD DUP2 SSTORE ADD SWAP6 ADD SWAP3 ADD PUSH2 0x6DC JUMP JUMPDEST SWAP1 PUSH2 0x75 SWAP2 PUSH2 0x65C JUMP JUMPDEST PUSH2 0x74B PUSH2 0x5E6 PUSH1 0x10 SWAP4 PUSH2 0x9C DUP6 DUP6 PUSH2 0x5F4 JUMP JUMPDEST PUSH1 0x0 SWAP2 JUMPDEST DUP4 DUP4 LT PUSH2 0x75C JUMPI POP POP POP POP JUMP JUMPDEST PUSH1 0x1 PUSH1 0x20 DUP3 PUSH2 0x773 PUSH2 0x76D DUP5 SWAP6 MLOAD SWAP1 JUMP JUMPDEST DUP7 PUSH2 0x72E JUMP JUMPDEST ADD SWAP3 ADD SWAP3 ADD SWAP2 SWAP1 PUSH2 0x74F JUMP JUMPDEST SWAP1 PUSH2 0x75 SWAP2 PUSH2 0x738 JUMP JUMPDEST PUSH2 0x75 PUSH2 0x796 PUSH1 0x10 PUSH2 0x8B JUMP JUMPDEST PUSH2 0x7A5 PUSH2 0x7A1 PUSH2 0xEA JUMP JUMPDEST DUP3 MSTORE JUMP JUMPDEST PUSH2 0x7B7 PUSH2 0x7B0 PUSH2 0x10F JUMP JUMPDEST PUSH1 0x20 DUP4 ADD MSTORE JUMP JUMPDEST PUSH2 0x7C9 PUSH2 0x7C2 PUSH2 0x134 JUMP JUMPDEST PUSH1 0x40 DUP4 ADD MSTORE JUMP JUMPDEST PUSH2 0x7DB PUSH2 0x7D4 PUSH2 0x159 JUMP JUMPDEST PUSH1 0x60 DUP4 ADD MSTORE JUMP JUMPDEST PUSH2 0x7ED PUSH2 0x7E6 PUSH2 0x17E JUMP JUMPDEST PUSH1 0x80 DUP4 ADD MSTORE JUMP JUMPDEST PUSH2 0x7FF PUSH2 0x7F8 PUSH2 0x1A3 JUMP JUMPDEST PUSH1 0xA0 DUP4 ADD MSTORE JUMP JUMPDEST PUSH2 0x811 PUSH2 0x80A PUSH2 0x1C8 JUMP JUMPDEST PUSH1 0xC0 DUP4 ADD MSTORE JUMP JUMPDEST PUSH2 0x823 PUSH2 0x81C PUSH2 0x1ED JUMP JUMPDEST PUSH1 0xE0 DUP4 ADD MSTORE JUMP JUMPDEST PUSH2 0x836 PUSH2 0x82E PUSH2 0x212 JUMP JUMPDEST PUSH2 0x100 DUP4 ADD MSTORE JUMP JUMPDEST PUSH2 0x849 PUSH2 0x841 PUSH2 0x237 JUMP JUMPDEST PUSH2 0x120 DUP4 ADD MSTORE JUMP JUMPDEST PUSH2 0x85C PUSH2 0x854 PUSH2 0x25C JUMP JUMPDEST PUSH2 0x140 DUP4 ADD MSTORE JUMP JUMPDEST PUSH2 0x86F PUSH2 0x867 PUSH2 0x281 JUMP JUMPDEST PUSH2 0x160 DUP4 ADD MSTORE JUMP JUMPDEST PUSH2 0x882 PUSH2 0x87A PUSH2 0x2A6 JUMP JUMPDEST PUSH2 0x180 DUP4 ADD MSTORE JUMP JUMPDEST PUSH2 0x895 PUSH2 0x88D PUSH2 0x2CB JUMP JUMPDEST PUSH2 0x1A0 DUP4 ADD MSTORE JUMP JUMPDEST PUSH2 0x8A8 PUSH2 0x8A0 PUSH2 0x2F0 JUMP JUMPDEST PUSH2 0x1C0 DUP4 ADD MSTORE JUMP JUMPDEST PUSH2 0x8BB PUSH2 0x8B3 PUSH2 0x315 JUMP JUMPDEST PUSH2 0x1E0 DUP4 ADD MSTORE JUMP JUMPDEST PUSH1 0x1 PUSH2 0x77F JUMP INVALID PUSH1 0x80 PUSH1 0x40 MSTORE PUSH1 0x4 CALLDATASIZE LT ISZERO PUSH1 0x11 JUMPI PUSH1 0x0 DUP1 REVERT JUMPDEST PUSH4 0x5F516836 PUSH1 0x0 CALLDATALOAD PUSH1 0xE0 SHR EQ PUSH1 0x7B JUMPI JUMPDEST PUSH1 0x0 DUP1 REVERT JUMPDEST SWAP1 PUSH1 0x20 DUP3 DUP3 SUB SLT PUSH1 0x21 JUMPI POP CALLDATALOAD SWAP1 JUMP JUMPDEST SWAP1 JUMP JUMPDEST PUSH1 0x35 PUSH1 0x35 PUSH1 0x35 SWAP3 SWAP1 JUMP JUMPDEST SWAP1 PUSH1 0x4A SWAP1 PUSH1 0x38 JUMP JUMPDEST PUSH1 0x0 MSTORE PUSH1 0x20 MSTORE PUSH1 0x40 PUSH1 0x0 KECCAK256 SWAP1 JUMP JUMPDEST PUSH1 0x35 SWAP2 PUSH1 0x8 MUL SHR DUP2 JUMP JUMPDEST SWAP1 PUSH1 0x35 SWAP2 SLOAD PUSH1 0x58 JUMP JUMPDEST PUSH1 0x0 PUSH1 0x77 PUSH1 0x35 SWAP3 DUP3 PUSH1 0x42 JUMP JUMPDEST PUSH1 0x62 JUMP JUMPDEST CALLVALUE PUSH1 0x21 JUMPI PUSH1 0xA0 PUSH1 0x90 PUSH1 0x8C CALLDATASIZE PUSH1 0x4 PUSH1 0x26 JUMP JUMPDEST PUSH1 0x6B JUMP JUMPDEST PUSH1 0x40 MLOAD SWAP2 DUP3 SWAP2 DUP3 SWAP1 DUP2 MSTORE PUSH1 0x20 ADD SWAP1 JUMP JUMPDEST SUB SWAP1 RETURN INVALID LOG2 PUSH5 0x6970667358 0x22 SLT KECCAK256 PUSH6 0xCFF6008B9C37 0xE5 0x2A SWAP11 0x21 PUSH4 0x5939CDED 0x4B 0xC1 SWAP6 0xCB PUSH5 0x7CB17FB6 PUSH16 0xE63CF2A1B564736F6C634300081C0033 "},"methodIdentifiers":{"tokenSeed(uint256)":"5f516836"}}}}}