{"src/core/BaseNFT.sol":{"BaseNFT":{"abi":[{"inputs":[{"internalType":"string","name":"_name","type":"string"},{"internalType":"string","name":"_symbol","type":"string"},{"internalType":"uint256","name":"_initialPrice","type":"uint256"},{"internalType":"uint256","name":"_maxSupply","type":"uint256"},{"internalType":"uint256","name":"_creatorFeePercent","type":"uint256"}],"stateMutability":"nonpayable","type":"constructor"},{"inputs":[],"name":"ERC721EnumerableForbiddenBatchMint","type":"error"},{"inputs":[{"internalType":"address","name":"sender","type":"address"},{"internalType":"uint256","name":"tokenId","type":"uint256"},{"internalType":"address","name":"owner","type":"address"}],"name":"ERC721IncorrectOwner","type":"error"},{"inputs":[{"internalType":"address","name":"operator","type":"address"},{"internalType":"uint256","name":"tokenId","type":"uint256"}],"name":"ERC721InsufficientApproval","type":"error"},{"inputs":[{"internalType":"address","name":"approver","type":"address"}],"name":"ERC721InvalidApprover","type":"error"},{"inputs":[{"internalType":"address","name":"operator","type":"address"}],"name":"ERC721InvalidOperator","type":"error"},{"inputs":[{"internalType":"address","name":"owner","type":"address"}],"name":"ERC721InvalidOwner","type":"error"},{"inputs":[{"internalType":"address","name":"receiver","type":"address"}],"name":"ERC721InvalidReceiver","type":"error"},{"inputs":[{"internalType":"address","name":"sender","type":"address"}],"name":"ERC721InvalidSender","type":"error"},{"inputs":[{"internalType":"uint256","name":"tokenId","type":"uint256"}],"name":"ERC721NonexistentToken","type":"error"},{"inputs":[{"internalType":"address","name":"owner","type":"address"},{"internalType":"uint256","name":"index","type":"uint256"}],"name":"ERC721OutOfBoundsIndex","type":"error"},{"inputs":[{"internalType":"address","name":"owner","type":"address"}],"name":"OwnableInvalidOwner","type":"error"},{"inputs":[{"internalType":"address","name":"account","type":"address"}],"name":"OwnableUnauthorizedAccount","type":"error"},{"anonymous":false,"inputs":[{"indexed":true,"internalType":"address","name":"owner","type":"address"},{"indexed":true,"internalType":"address","name":"approved","type":"address"},{"indexed":true,"internalType":"uint256","name":"tokenId","type":"uint256"}],"name":"Approval","type":"event"},{"anonymous":false,"inputs":[{"indexed":true,"internalType":"address","name":"owner","type":"address"},{"indexed":true,"internalType":"address","name":"operator","type":"address"},{"indexed":false,"internalType":"bool","name":"approved","type":"bool"}],"name":"ApprovalForAll","type":"event"},{"anonymous":false,"inputs":[{"indexed":true,"internalType":"address","name":"previousOwner","type":"address"},{"indexed":true,"internalType":"address","name":"newOwner","type":"address"}],"name":"OwnershipTransferred","type":"event"},{"anonymous":false,"inputs":[{"indexed":true,"internalType":"address","name":"from","type":"address"},{"indexed":true,"internalType":"address","name":"to","type":"address"},{"indexed":true,"internalType":"uint256","name":"tokenId","type":"uint256"}],"name":"Transfer","type":"event"},{"inputs":[{"internalType":"address","name":"to","type":"address"},{"internalType":"uint256","name":"tokenId","type":"uint256"}],"name":"approve","outputs":[],"stateMutability":"nonpayable","type":"function"},{"inputs":[{"internalType":"uint256","name":"","type":"uint256"}],"name":"availableTokens","outputs":[{"internalType":"uint256","name":"","type":"uint256"}],"stateMutability":"view","type":"function"},{"inputs":[{"internalType":"address","name":"owner","type":"address"}],"name":"balanceOf","outputs":[{"internalType":"uint256","name":"","type":"uint256"}],"stateMutability":"view","type":"function"},{"inputs":[],"name":"baseURI","outputs":[{"internalType":"string","name":"","type":"string"}],"stateMutability":"view","type":"function"},{"inputs":[],"name":"creator","outputs":[{"internalType":"address","name":"","type":"address"}],"stateMutability":"view","type":"function"},{"inputs":[],"name":"creatorFeePercent","outputs":[{"internalType":"uint256","name":"","type":"uint256"}],"stateMutability":"view","type":"function"},{"inputs":[],"name":"currentSupply","outputs":[{"internalType":"uint256","name":"","type":"uint256"}],"stateMutability":"view","type":"function"},{"inputs":[],"name":"description","outputs":[{"internalType":"string","name":"","type":"string"}],"stateMutability":"view","type":"function"},{"inputs":[],"name":"getAllAvailableTokens","outputs":[{"internalType":"uint256[]","name":"","type":"uint256[]"}],"stateMutability":"view","type":"function"},{"inputs":[{"internalType":"uint256","name":"tokenId","type":"uint256"}],"name":"getApproved","outputs":[{"internalType":"address","name":"","type":"address"}],"stateMutability":"view","type":"function"},{"inputs":[{"internalType":"uint256","name":"index","type":"uint256"}],"name":"getAvailableTokenByIndex","outputs":[{"internalType":"uint256","name":"","type":"uint256"}],"stateMutability":"view","type":"function"},{"inputs":[],"name":"getAvailableTokensCount","outputs":[{"internalType":"uint256","name":"","type":"uint256"}],"stateMutability":"view","type":"function"},{"inputs":[{"internalType":"uint256","name":"start","type":"uint256"},{"internalType":"uint256","name":"limit","type":"uint256"}],"name":"getAvailableTokensPaginated","outputs":[{"internalType":"uint256[]","name":"","type":"uint256[]"}],"stateMutability":"view","type":"function"},{"inputs":[],"name":"initialPrice","outputs":[{"internalType":"uint256","name":"","type":"uint256"}],"stateMutability":"view","type":"function"},{"inputs":[{"internalType":"address","name":"owner","type":"address"},{"internalType":"address","name":"operator","type":"address"}],"name":"isApprovedForAll","outputs":[{"internalType":"bool","name":"","type":"bool"}],"stateMutability":"view","type":"function"},{"inputs":[],"name":"maxSupply","outputs":[{"internalType":"uint256","name":"","type":"uint256"}],"stateMutability":"view","type":"function"},{"inputs":[],"name":"name","outputs":[{"internalType":"string","name":"","type":"string"}],"stateMutability":"view","type":"function"},{"inputs":[{"internalType":"address","name":"","type":"address"},{"internalType":"address","name":"","type":"address"},{"internalType":"uint256","name":"","type":"uint256"},{"internalType":"bytes","name":"","type":"bytes"}],"name":"onERC721Received","outputs":[{"internalType":"bytes4","name":"","type":"bytes4"}],"stateMutability":"nonpayable","type":"function"},{"inputs":[],"name":"owner","outputs":[{"internalType":"address","name":"","type":"address"}],"stateMutability":"view","type":"function"},{"inputs":[{"internalType":"uint256","name":"tokenId","type":"uint256"}],"name":"ownerOf","outputs":[{"internalType":"address","name":"","type":"address"}],"stateMutability":"view","type":"function"},{"inputs":[],"name":"renounceOwnership","outputs":[],"stateMutability":"nonpayable","type":"function"},{"inputs":[{"internalType":"address","name":"from","type":"address"},{"internalType":"address","name":"to","type":"address"},{"internalType":"uint256","name":"tokenId","type":"uint256"}],"name":"safeTransferFrom","outputs":[],"stateMutability":"nonpayable","type":"function"},{"inputs":[{"internalType":"address","name":"from","type":"address"},{"internalType":"address","name":"to","type":"address"},{"internalType":"uint256","name":"tokenId","type":"uint256"},{"internalType":"bytes","name":"data","type":"bytes"}],"name":"safeTransferFrom","outputs":[],"stateMutability":"nonpayable","type":"function"},{"inputs":[{"internalType":"address","name":"operator","type":"address"},{"internalType":"bool","name":"approved","type":"bool"}],"name":"setApprovalForAll","outputs":[],"stateMutability":"nonpayable","type":"function"},{"inputs":[{"internalType":"string","name":"_baseURI","type":"string"}],"name":"setBaseURI","outputs":[],"stateMutability":"nonpayable","type":"function"},{"inputs":[{"internalType":"address","name":"_creator","type":"address"}],"name":"setCreator","outputs":[],"stateMutability":"nonpayable","type":"function"},{"inputs":[{"internalType":"string","name":"_description","type":"string"}],"name":"setDescription","outputs":[],"stateMutability":"nonpayable","type":"function"},{"inputs":[{"internalType":"bytes4","name":"interfaceId","type":"bytes4"}],"name":"supportsInterface","outputs":[{"internalType":"bool","name":"","type":"bool"}],"stateMutability":"view","type":"function"},{"inputs":[],"name":"symbol","outputs":[{"internalType":"string","name":"","type":"string"}],"stateMutability":"view","type":"function"},{"inputs":[{"internalType":"uint256","name":"index","type":"uint256"}],"name":"tokenByIndex","outputs":[{"internalType":"uint256","name":"","type":"uint256"}],"stateMutability":"view","type":"function"},{"inputs":[{"internalType":"uint256","name":"","type":"uint256"}],"name":"tokenIndex","outputs":[{"internalType":"uint256","name":"","type":"uint256"}],"stateMutability":"view","type":"function"},{"inputs":[{"internalType":"address","name":"owner","type":"address"},{"internalType":"uint256","name":"index","type":"uint256"}],"name":"tokenOfOwnerByIndex","outputs":[{"internalType":"uint256","name":"","type":"uint256"}],"stateMutability":"view","type":"function"},{"inputs":[{"internalType":"uint256","name":"tokenId","type":"uint256"}],"name":"tokenURI","outputs":[{"internalType":"string","name":"","type":"string"}],"stateMutability":"view","type":"function"},{"inputs":[],"name":"totalSupply","outputs":[{"internalType":"uint256","name":"","type":"uint256"}],"stateMutability":"view","type":"function"},{"inputs":[{"internalType":"address","name":"from","type":"address"},{"internalType":"address","name":"to","type":"address"},{"internalType":"uint256","name":"tokenId","type":"uint256"}],"name":"transferFrom","outputs":[],"stateMutability":"nonpayable","type":"function"},{"inputs":[{"internalType":"address","name":"newOwner","type":"address"}],"name":"transferOwnership","outputs":[],"stateMutability":"nonpayable","type":"function"}],"evm":{"bytecode":{"linkReferences":{},"object":"60806040523461002e5761001d610014610171565b93929092610196565b6040516121c461054e82396121c490f35b600080fd5b634e487b7160e01b600052604160045260246000fd5b90601f01601f191681019081106001600160401b0382111761006a57604052565b610033565b9061008361007c60405190565b9283610049565b565b6001600160401b03811161006a57602090601f01601f19160190565b60005b8381106100b45750506000910152565b81810151838201526020016100a4565b909291926100d96100d482610085565b61006f565b938185528183011161002e576100839160208501906100a1565b9080601f8301121561002e57815161010d926020016100c4565b90565b919060a08382031261002e5782516001600160401b03811161002e57816101389185016100f3565b60208401519093906001600160401b03811161002e578261015a9183016100f3565b604082015160608301516080909301519194909350565b61018f612712803803806101848161006f565b928339810190610110565b9091929394565b91909293610083943392610235565b90600019905b9181191691161790565b61010d61010d61010d9290565b906101d261010d6101d9926101b5565b82546101a5565b9055565b906001600160a01b03906101ab565b61010d90610200906001600160a01b031682565b6001600160a01b031690565b61010d906101ec565b61010d9061020c565b9061022e61010d6101d992610215565b82546101dd565b61024b610260966102529394966102599661026b565b600b6101c2565b600c6101c2565b600d6101c2565b61008333600e61021e565b9061008392916102a9565b61020061010d61010d9290565b61010d90610276565b61029590610200565b9052565b602081019291610083919061028c565b916102b3916102fd565b60006102be81610283565b6102c781610200565b6102d084610200565b146102e0575050610083906104f6565b631e4fbdf760e01b825281906102f99060048301610299565b0390fd5b610083918291829182916104cd565b634e487b7160e01b600052602260045260246000fd5b9060016002830492168015610342575b602083101461033d57565b61030c565b91607f1691610332565b9160001960089290920291821b911b6101ab565b919061037161010d6101d9936101b5565b90835461034c565b61008391600091610360565b818110610390575050565b8061039e6000600193610379565b01610385565b9190601f81116103b357505050565b6103c561008393600052602060002090565b906020601f8401819004830193106103e7575b6020601f909101040190610385565b90915081906103d8565b906103fa815190565b906001600160401b03821161006a5761041d826104178554610322565b856103a4565b602090601f8311600114610458576101d992916000918361044d575b5050600019600883021c1916906002021790565b015190503880610439565b601f1983169161046d85600052602060002090565b9260005b8181106104ab57509160029391856001969410610492575b50505002019055565b01516000196008601f8516021c19169055388080610489565b91936020600181928787015181550195019201610471565b90610083916103f1565b906104dc6100839260006104c3565b60016104c3565b61010d90610200565b61010d90546104e3565b61051c610516610506600a6104ec565b61051184600a61021e565b610215565b91610215565b907f8be0079c531659141344cd1fd0a4f28419497f9722a3daafe3b4186f6b6457e061054760405190565b600090a356fe6080604052600436101561001257600080fd5b60003560e01c806301ffc9a71461025257806302d05d3f1461024d5780630583e9f81461024857806306fdde0314610243578063081812fc1461023e578063095ea7b31461023957806312ea5c7e14610234578063150b7a021461022f57806318160ddd1461022a5780631d0806ae1461022557806323b872dd146102205780632dcd52f21461021b5780632f745c59146102165780633f5160181461021157806342842e0e1461020c5780634f6ccce71461020757806353613dd31461020257806355f804b3146101fd5780635eba096b146101f85780636352211e146101f35780636c0360eb146101ee57806370a08231146101e9578063715018a6146101e45780637284e416146101df578063771282f6146101da5780638da5cb5b146101d557806390c3f38f146101d057806395d89b41146101cb578063a22cb465146101c6578063ad64d068146101c1578063b88d4fde146101bc578063c87b56dd146101b7578063cf6a68bf146101b2578063d5abeb01146101ad578063e985e9c5146101a85763f2fde38b0361026a57610c2b565b610c0f565b610bd1565b610baa565b610b8f565b610b73565b610b58565b610ae3565b610a90565b610a78565b610a5d565b610a42565b610a1b565b6109f7565b6109dc565b6109c1565b61087f565b610863565b61082f565b6107ee565b6107c7565b6107ae565b610796565b610766565b61074a565b610731565b6106ed565b6106c5565b61068b565b610550565b6104cb565b610477565b610450565b6103b9565b61031b565b610299565b6001600160e01b031981165b0361026a57565b600080fd5b9050359061027c82610257565b565b9060208282031261026a576102929161026f565b90565b9052565b3461026a576102c76102b46102af36600461027e565b610c43565b6040515b91829182901515815260200190565b0390f35b600091031261026a57565b610292916008021c5b6001600160a01b031690565b9061029291546102d6565b6102926000600e6102eb565b610295906102df565b60208101929161027c9190610302565b3461026a5761032b3660046102cb565b6102c76103366102f6565b6040519182918261030b565b80610263565b9050359061027c82610342565b9060208282031261026a5761029291610348565b6102926102926102929290565b9061038090610369565b600052602052604060002090565b610292916008021c81565b90610292915461038e565b60006103b4610292926011610376565b610399565b3461026a576102c76103d46103cf366004610355565b6103a4565b6040519182918290815260200190565b60005b8381106103f75750506000910152565b81810151838201526020016103e7565b61042861043160209361043b9361041c815190565b80835293849260200190565b958691016103e4565b601f01601f191690565b0190565b602080825261029292910190610407565b3461026a576104603660046102cb565b6102c761046b610c55565b6040519182918261043f565b3461026a576102c761033661048d366004610355565b610c5f565b610263816102df565b9050359061027c82610492565b919060408382031261026a576102929060206104c4828661049b565b9401610348565b3461026a576104e46104de3660046104a8565b90610c72565b604051005b906105096105026104f8845190565b8084529260200190565b9260200190565b9060005b81811061051a5750505090565b9091926105376105306001928651815260200190565b9460200190565b92910161050d565b6020808252610292929101906104e9565b3461026a576105603660046102cb565b6102c761056b610d13565b6040519182918261053f565b634e487b7160e01b600052604160045260246000fd5b90601f01601f1916810190811067ffffffffffffffff8211176105af57604052565b610577565b9061027c6105c160405190565b928361058d565b67ffffffffffffffff81116105af57602090601f01601f19160190565b90826000939282370152565b90929192610606610601826105c8565b6105b4565b938185528183011161026a5761027c9160208501906105e5565b9080601f8301121561026a57816020610292933591016105f1565b9060808282031261026a57610650818361049b565b9261065e826020850161049b565b9261066c8360408301610348565b92606082013567ffffffffffffffff811161026a576102929201610620565b3461026a576102c76106aa6106a136600461063b565b92919091610d60565b604051918291826001600160e01b0319909116815260200190565b3461026a576106d53660046102cb565b6102c76103d460085490565b6102926000600b610399565b3461026a576106fd3660046102cb565b6102c76103d46106e1565b909160608284031261026a57610292610721848461049b565b9360406104c4826020870161049b565b3461026a576104e4610744366004610708565b91610dbe565b3461026a5761075a3660046102cb565b6102c76103d460105490565b3461026a576102c76103d461077c3660046104a8565b90610e78565b9060208282031261026a576102929161049b565b3461026a576104e46107a9366004610782565b610f98565b3461026a576104e46107c1366004610708565b91610fc5565b3461026a576102c76103d46107dd366004610355565b610fd9565b6102926000600d610399565b3461026a576107fe3660046102cb565b6102c76103d46107e2565b9060208282031261026a57813567ffffffffffffffff811161026a576102929201610620565b3461026a576104e4610842366004610809565b6111c5565b919060408382031261026a576102929060206104c48286610348565b3461026a576102c761056b610879366004610847565b906112b6565b3461026a576102c7610336610895366004610355565b611345565b634e487b7160e01b600052600060045260246000fd5b634e487b7160e01b600052602260045260246000fd5b90600160028304921680156108e6575b60208310146108e157565b6108b0565b91607f16916108d6565b8054600093929161090d610903836108c6565b8085529360200190565b916001811690811561095f575060011461092657505050565b6109399192939450600052602060002090565b916000925b81841061094b5750500190565b80548484015260209093019260010161093e565b92949550505060ff1916825215156020020190565b90610292916108f0565b9061027c6109989261098f60405190565b93848092610974565b038361058d565b906000106109b0576102929061097e565b61089a565b6102926000601261099f565b3461026a576109d13660046102cb565b6102c761046b6109b5565b3461026a576102c76103d46109f2366004610782565b61134e565b3461026a57610a073660046102cb565b6104e46113b6565b6102926000601361099f565b3461026a57610a2b3660046102cb565b6102c761046b610a0f565b6102926000600f610399565b3461026a57610a523660046102cb565b6102c76103d4610a36565b3461026a57610a6d3660046102cb565b6102c76103366113be565b3461026a576104e4610a8b366004610809565b6113e7565b3461026a57610aa03660046102cb565b6102c761046b6113f0565b801515610263565b9050359061027c82610aab565b919060408382031261026a57610292906020610adc828661049b565b9401610ab3565b3461026a576104e4610af6366004610ac0565b906113fa565b634e487b7160e01b600052603260045260246000fd5b8054821015610b3557610b2c600191600052602060002090565b91020190600090565b610afc565b60105481101561026a57610b52610292916010610b12565b90610399565b3461026a576102c76103d4610b6e366004610355565b610b3a565b3461026a576104e4610b8636600461063b565b92919091611405565b3461026a576102c761046b610ba5366004610355565b61147d565b3461026a576102c76103d4610bc0366004610355565b6114c4565b6102926000600c610399565b3461026a57610be13660046102cb565b6102c76103d4610bc5565b919060408382031261026a57610292906020610c08828661049b565b940161049b565b3461026a576102c76102b4610c25366004610bec565b906114db565b3461026a576104e4610c3e366004610782565b611554565b6102929061155d565b6102929061097e565b6102926000610c4c565b61029290610c6c81611586565b506115c6565b61027c9133916115e2565b6102929081565b6102929054610c7d565b90610ca9610c9d6104f8845490565b92600052602060002090565b9060005b818110610cba5750505090565b909192610cde610cd7600192610ccf87610c84565b815260200190565b9460010190565b929101610cad565b9061029291610c8e565b9061027c61099892610d0160405190565b93848092610ce6565b61029290610cf0565b6102926010610d0a565b610292906102df906001600160a01b031682565b61029290610d1d565b610d53610d4d6102929263ffffffff1690565b60e01b90565b6001600160e01b03191690565b50505050610d6c600090565b5061029263150b7a02610d3a565b6102df6102926102929290565b61029290610d7a565b604090610db761027c9496959396610db060608401986000850190610302565b6020830152565b0190610302565b9091600092610dcc84610d87565b610dd5816102df565b610dde836102df565b14610e2d5750610df0908233916115ef565b91610dfa816102df565b610e03846102df565b03610e0e5750505050565b6364283d7b60e01b84528392610e2992909160048501610d90565b0390fd5b84610e298192633250574960e11b83526004830161030b565b91602061027c929493610e6160408201966000830190610302565b0152565b61029290610d31565b9061038090610e65565b610e846102928261134e565b821015610ea75761029291610e9d610ea2926006610e6e565b610376565b610c84565b63295f44f760e21b600090815291610ec0916004610e46565b036000fd5b610292906102df565b6102929054610ec5565b15610edf57565b60405162461bcd60e51b815260206004820152602360248201527f4f6e6c792063726561746f722063616e2063616c6c20746869732066756e637460448201526234b7b760e91b6064820152608490fd5b61027c90610f58610f49610f44600e610ece565b6102df565b610f52336102df565b14610ed8565b610f8d565b906001600160a01b03905b9181191691161790565b90610f82610292610f8992610e65565b8254610f5d565b9055565b61027c90600e610f72565b61027c90610f30565b90610fae610601836105c8565b918252565b6102926000610fa1565b610292610fb3565b909161027c92610fd3610fbd565b92611405565b610fe561029260085490565b811015610ffa57610b52610292916008610b12565b610e2990600091829161100c83610d87565b63295f44f760e21b845260048401610e46565b61027c90611033610f49610f44600e610ece565b6111ba565b9160001960089290920291821b911b610f68565b919061105d610292610f8993610369565b908354611038565b61027c9160009161104c565b81811061107c575050565b8061108a6000600193611065565b01611071565b9190601f811161109f57505050565b6110b161027c93600052602060002090565b906020601f8401819004830193106110d3575b6020601f909101040190611071565b90915081906110c4565b906110e6815190565b9067ffffffffffffffff82116105af5761110a8261110485546108c6565b85611090565b602090601f831160011461114557610f8992916000918361113a575b5050600019600883021c1916906002021790565b015190503880611126565b601f1983169161115a85600052602060002090565b9260005b8181106111985750916002939185600196941061117f575b50505002019055565b01516000196008601f8516021c19169055388080611176565b9193602060018192878701518155019501920161115e565b9061027c916110dd565b61027c9060126111b0565b61027c9061101f565b156111d557565b60405162461bcd60e51b815260206004820152601960248201527f537461727420696e646578206f7574206f6620626f756e6473000000000000006044820152606490fd5b634e487b7160e01b600052601160045260246000fd5b9190820180921161123d57565b61121a565b9190820391821161123d57565b67ffffffffffffffff81116105af5760208091020190565b90610fae6106018361124f565b369037565b9061027c61128f61128984611267565b9361124f565b601f190160208401611274565b906112a5825190565b811015610b35576020809102010190565b916112e36112db6010936112d56112ce610292875490565b87106111ce565b85611230565b8354906115fa565b916112f66112f18585611242565b611279565b91845b845b81101561133c576113358161132f611319610b526112fb9588610b12565b61132c6113268b85611242565b8961129c565b52565b60010190565b90506112f9565b50935050905090565b61029290611586565b600061135981610d87565b611362816102df565b61136b846102df565b14611380575050610ea2610292916003610e6e565b6322718ad960e21b82528190610e29906004830161030b565b6113a161160c565b61027c61027c6113b16000610d87565b611649565b61027c611399565b610292600a610ece565b61027c906113dc610f49610f44600e610ece565b61027c9060136111b0565b61027c906113c8565b6102926001610c4c565b61027c9190336116c2565b9061027c939291611417838383610dbe565b6117c8565b61043b6114349260209261142e815190565b94859290565b938491016103e4565b61144b90610292939261141c565b9061141c565b611471929161027c9161146360405190565b94859260208401928361143d565b9081038252038361058d565b61148681611586565b5061148f6118ef565b80516114a261149e6000610369565b9190565b11156114ba576114b461029292611934565b90611451565b5050610292610fbd565b610b52610292916114d3600090565b506010610b12565b610292916114f66114fb926114ee600090565b506005610e6e565b610e6e565b5460ff1690565b61027c9061150e61160c565b600061151981610d87565b611522816102df565b61152b846102df565b1461153b57505061027c90611649565b631e4fbdf760e01b82528190610e29906004830161030b565b61027c90611502565b63780e9d6360e01b6001600160e01b031982161490811561157c575090565b61029291506119c7565b61158f81611a12565b9060009061159f610f4483610d87565b6115a8846102df565b146115b257505090565b637e27328960e01b82526004820152602490fd5b6115dd610292916115d5600090565b506004610376565b610ece565b9160019161027c93611a29565b610292929190611b55565b9080821015611607575090565b905090565b6116146113be565b3390611628611622836102df565b916102df565b036116305750565b63118cdaa760e01b600090815290610ec090600461030b565b61166f611669611659600a610ece565b61166484600a610f72565b610e65565b91610e65565b907f8be0079c531659141344cd1fd0a4f28419497f9722a3daafe3b4186f6b6457e061169a60405190565b80805b0390a3565b9060ff90610f68565b906116bb610292610f8992151590565b82546116a2565b60006116d0610f4482610d87565b6116d9846102df565b14611732575061169d611728611722836116648761171d886114f67f17307eab39ab6107e8899845ad3d59bd9653f200f220920489ca2b5937696c31996005610e6e565b6116ab565b93610e65565b936102b860405190565b630b61174360e31b815280610e29846004830161030b565b9050519061027c82610257565b9060208282031261026a576102929161174a565b909261179c90611795610292969461178b60808601976000870190610302565b6020850190610302565b6040830152565b6060818403910152610407565b3d156117c3576117b83d610fa1565b903d6000602084013e565b606090565b6000939192833b6117db61149e87610369565b116117e8575b5050505050565b6020916117f761166486610e65565b90863361182061180660405190565b97889687958694630a85bd0160e11b86526004860161176b565b03925af1600091816118be575b5061187f5750611842565b38808080806117e1565b61184a6117a9565b805161185861149e85610369565b036118775750633250574960e11b82528190610e29906004830161030b565b805190602001fd5b611899630a85bd0160e11b5b916001600160e01b03191690565b036118a5575050611838565b633250574960e11b82528190610e29906004830161030b565b6118e191925060203d6020116118e8575b6118d9818361058d565b810190611757565b903861182d565b503d6118cf565b6102926012610c4c565b9061027c61128f61190984610fa1565b936105c8565b634e487b7160e01b600052601260045260246000fd5b811561192f570490565b61190f565b61193d81611bee565b9061194e60019261043b6001610369565b9180611959846118f9565b936020018401905b61196c575b50505090565b81156119c2576119a69060001901926f181899199a1a9b1b9c1cb0b131b232b360811b600a82061a84536119a0600a610369565b90611925565b90816119b561149e6000610369565b146119c257909181611961565b611966565b6380ac58cd60e01b6001600160e01b03198216149081156119f7575b81156119ed575090565b6102929150611d90565b6001600160e01b03198116635b5e139f60e01b1491506119e3565b6115dd61029291611a21600090565b506002610376565b92919091808115611b37575b611a50575b505090611a4b61027c926004610376565b610f72565b611a5983611586565b91600090611a69610f4483610d87565b611a72826102df565b141580611b1d575b80611b06575b611aed57505091611a4b9161027c9493611a9d575b509192611a3a565b611aa690610e65565b611aaf84610e65565b611ab883610369565b917f8c5be1e5ebec7d5bd14f71427d1e84f3dd0314c0f7b2291e5b200ac8c7c3b925611ae360405190565b600090a438611a95565b63a9fbf51f60e01b82528190610e29906004830161030b565b50611b18611b1482866114db565b1590565b611a80565b50611b27816102df565b611b30856102df565b1415611a7a565b50611b45610f446000610d87565b611b4e836102df565b1415611a35565b9091611b62908383611dc5565b91611b90611b706000610d87565b611b79816102df565b611b82866102df565b03611bcd57610f4483611fb2565b611b99836102df565b03611ba8576102929150612051565b611bb1826102df565b611bba846102df565b03611bc457505090565b61029291611fd4565b611bd6846102df565b611bdf866102df565b146102df57610f448386611ef9565b611bf86000610369565b907a184f03e93ff9f4daa797ed6e38ed64bf6a1f010000000000000000611c1e81610369565b821015611d6e575b506d04ee2d6d415b85acef8100000000611c3f81610369565b821015611d4c575b50662386f26fc10000611c5981610369565b821015611d2a575b506305f5e100611c7081610369565b821015611d08575b50612710611c8581610369565b821015611ce6575b50611c986064610369565b811015611cc4575b611cad61149e600a610369565b1015611cb65790565b6102929061043b6001610369565b611cd5611ce0916119a06064610369565b9161043b6002610369565b90611ca0565b611d01916119a0611cf692610369565b9161043b6004610369565b9038611c8d565b611d23916119a0611d1892610369565b9161043b6008610369565b9038611c78565b611d45916119a0611d3a92610369565b9161043b6010610369565b9038611c61565b611d67916119a0611d5c92610369565b9161043b6020610369565b9038611c47565b611d89916119a0611d7e92610369565b9161043b6040610369565b9038611c26565b611da06301ffc9a760e01b61188b565b1490565b9060001990610f68565b90611dbe610292610f8992610369565b8254611da4565b90611e18611dd282611a12565b936000611dde81610d87565b9184611de9846102df565b611df2836102df565b03611ee8575b5050611e03826102df565b611e0c876102df565b03611ead575b506102df565b611e21836102df565b03611e7d575b611e3682611a4b836002610376565b611e4b611e4561172285610e65565b91610369565b917fddf252ad1be2c89b69c2b068fc378daa952ba7f163c4a11628f55a4df523b3ef611e7660405190565b600090a490565b611ea8611e8a6001610369565b611ea2611e98856003610e6e565b9161043b83610c84565b90611dae565b611e27565b611eb990828581611a29565b611ee2611ec66001610369565b611ea2611ed4886003610e6e565b91611ede83610c84565b0390565b38611e12565b611ef291886120a4565b3884611df8565b611f3861027c92610e9d600093611f3d85611f38611f168461134e565b95600785611f27610ea28484610376565b89808203611f44575b505050610376565b611065565b6006610e6e565b610e9d611f7684611f7185611f67610ea2611f7197610e9d611f7c9b6006610e6e565b9485936006610e6e565b611dae565b84610376565b853889611f30565b90815491680100000000000000008310156105af5782611fac91600161027c95018155610b12565b9061104c565b61027c90611fcd611fc260085490565b611f71836009610376565b6008611f84565b611f718261200c61027c94611f71610e9d95612002611ff28261134e565b611ffc6001610369565b90611242565b9687916006610e6e565b6007610376565b634e487b7160e01b600052603160045260246000fd5b8054801561204c5760001901906120496120438383610b12565b90611065565b55565b612013565b61209f61027c916102926000611f3860089361206e611ff2865490565b610e9d600991611f71612091610b5261208a610ea28888610376565b938b610b12565b611f7681611fac858d610b12565b612029565b906120b3611b14848385612104565b6120bc57505050565b60009283926120d0611622610f4486610d87565b036120ed57637e27328960e01b8352600483015250602481010390fd5b63177e802f60e01b8352610e299160048401610e46565b90612112610f446000610d87565b61211b826102df565b141592836121295750505090565b90919250612136826102df565b61213f846102df565b1492831561217a575b50821561215a575b5050388080611966565b61217291925061216c611622916115c6565b926102df565b143880612150565b61218791935082906114db565b913861214856fea2646970667358221220c41088f2dc360e5ff7d38f0031bdb117acf0abeff2ae4fc47a3e18f48317177764736f6c634300081c0033","opcodes":"PUSH1 0x80 PUSH1 0x40 MSTORE CALLVALUE PUSH2 0x2E JUMPI PUSH2 0x1D PUSH2 0x14 PUSH2 0x171 JUMP JUMPDEST SWAP4 SWAP3 SWAP1 SWAP3 PUSH2 0x196 JUMP JUMPDEST PUSH1 0x40 MLOAD PUSH2 0x21C4 PUSH2 0x54E DUP3 CODECOPY PUSH2 0x21C4 SWAP1 RETURN JUMPDEST PUSH1 0x0 DUP1 REVERT JUMPDEST PUSH4 0x4E487B71 PUSH1 0xE0 SHL PUSH1 0x0 MSTORE PUSH1 0x41 PUSH1 0x4 MSTORE PUSH1 0x24 PUSH1 0x0 REVERT JUMPDEST SWAP1 PUSH1 0x1F ADD PUSH1 0x1F NOT AND DUP2 ADD SWAP1 DUP2 LT PUSH1 0x1 PUSH1 0x1 PUSH1 0x40 SHL SUB DUP3 GT OR PUSH2 0x6A JUMPI PUSH1 0x40 MSTORE JUMP JUMPDEST PUSH2 0x33 JUMP JUMPDEST SWAP1 PUSH2 0x83 PUSH2 0x7C PUSH1 0x40 MLOAD SWAP1 JUMP JUMPDEST SWAP3 DUP4 PUSH2 0x49 JUMP JUMPDEST JUMP JUMPDEST PUSH1 0x1 PUSH1 0x1 PUSH1 0x40 SHL SUB DUP2 GT PUSH2 0x6A JUMPI PUSH1 0x20 SWAP1 PUSH1 0x1F ADD PUSH1 0x1F NOT AND ADD SWAP1 JUMP JUMPDEST PUSH1 0x0 JUMPDEST DUP4 DUP2 LT PUSH2 0xB4 JUMPI POP POP PUSH1 0x0 SWAP2 ADD MSTORE JUMP JUMPDEST DUP2 DUP2 ADD MLOAD DUP4 DUP3 ADD MSTORE PUSH1 0x20 ADD PUSH2 0xA4 JUMP JUMPDEST SWAP1 SWAP3 SWAP2 SWAP3 PUSH2 0xD9 PUSH2 0xD4 DUP3 PUSH2 0x85 JUMP JUMPDEST PUSH2 0x6F JUMP JUMPDEST SWAP4 DUP2 DUP6 MSTORE DUP2 DUP4 ADD GT PUSH2 0x2E JUMPI PUSH2 0x83 SWAP2 PUSH1 0x20 DUP6 ADD SWAP1 PUSH2 0xA1 JUMP JUMPDEST SWAP1 DUP1 PUSH1 0x1F DUP4 ADD SLT ISZERO PUSH2 0x2E JUMPI DUP2 MLOAD PUSH2 0x10D SWAP3 PUSH1 0x20 ADD PUSH2 0xC4 JUMP JUMPDEST SWAP1 JUMP JUMPDEST SWAP2 SWAP1 PUSH1 0xA0 DUP4 DUP3 SUB SLT PUSH2 0x2E JUMPI DUP3 MLOAD PUSH1 0x1 PUSH1 0x1 PUSH1 0x40 SHL SUB DUP2 GT PUSH2 0x2E JUMPI DUP2 PUSH2 0x138 SWAP2 DUP6 ADD PUSH2 0xF3 JUMP JUMPDEST PUSH1 0x20 DUP5 ADD MLOAD SWAP1 SWAP4 SWAP1 PUSH1 0x1 PUSH1 0x1 PUSH1 0x40 SHL SUB DUP2 GT PUSH2 0x2E JUMPI DUP3 PUSH2 0x15A SWAP2 DUP4 ADD PUSH2 0xF3 JUMP JUMPDEST PUSH1 0x40 DUP3 ADD MLOAD PUSH1 0x60 DUP4 ADD MLOAD PUSH1 0x80 SWAP1 SWAP4 ADD MLOAD SWAP2 SWAP5 SWAP1 SWAP4 POP JUMP JUMPDEST PUSH2 0x18F PUSH2 0x2712 DUP1 CODESIZE SUB DUP1 PUSH2 0x184 DUP2 PUSH2 0x6F JUMP JUMPDEST SWAP3 DUP4 CODECOPY DUP2 ADD SWAP1 PUSH2 0x110 JUMP JUMPDEST SWAP1 SWAP2 SWAP3 SWAP4 SWAP5 JUMP JUMPDEST SWAP2 SWAP1 SWAP3 SWAP4 PUSH2 0x83 SWAP5 CALLER SWAP3 PUSH2 0x235 JUMP JUMPDEST SWAP1 PUSH1 0x0 NOT SWAP1 JUMPDEST SWAP2 DUP2 NOT AND SWAP2 AND OR SWAP1 JUMP JUMPDEST PUSH2 0x10D PUSH2 0x10D PUSH2 0x10D SWAP3 SWAP1 JUMP JUMPDEST SWAP1 PUSH2 0x1D2 PUSH2 0x10D PUSH2 0x1D9 SWAP3 PUSH2 0x1B5 JUMP JUMPDEST DUP3 SLOAD PUSH2 0x1A5 JUMP JUMPDEST SWAP1 SSTORE JUMP JUMPDEST SWAP1 PUSH1 0x1 PUSH1 0x1 PUSH1 0xA0 SHL SUB SWAP1 PUSH2 0x1AB JUMP JUMPDEST PUSH2 0x10D SWAP1 PUSH2 0x200 SWAP1 PUSH1 0x1 PUSH1 0x1 PUSH1 0xA0 SHL SUB AND DUP3 JUMP JUMPDEST PUSH1 0x1 PUSH1 0x1 PUSH1 0xA0 SHL SUB AND SWAP1 JUMP JUMPDEST PUSH2 0x10D SWAP1 PUSH2 0x1EC JUMP JUMPDEST PUSH2 0x10D SWAP1 PUSH2 0x20C JUMP JUMPDEST SWAP1 PUSH2 0x22E PUSH2 0x10D PUSH2 0x1D9 SWAP3 PUSH2 0x215 JUMP JUMPDEST DUP3 SLOAD PUSH2 0x1DD JUMP JUMPDEST PUSH2 0x24B PUSH2 0x260 SWAP7 PUSH2 0x252 SWAP4 SWAP5 SWAP7 PUSH2 0x259 SWAP7 PUSH2 0x26B JUMP JUMPDEST PUSH1 0xB PUSH2 0x1C2 JUMP JUMPDEST PUSH1 0xC PUSH2 0x1C2 JUMP JUMPDEST PUSH1 0xD PUSH2 0x1C2 JUMP JUMPDEST PUSH2 0x83 CALLER PUSH1 0xE PUSH2 0x21E JUMP JUMPDEST SWAP1 PUSH2 0x83 SWAP3 SWAP2 PUSH2 0x2A9 JUMP JUMPDEST PUSH2 0x200 PUSH2 0x10D PUSH2 0x10D SWAP3 SWAP1 JUMP JUMPDEST PUSH2 0x10D SWAP1 PUSH2 0x276 JUMP JUMPDEST PUSH2 0x295 SWAP1 PUSH2 0x200 JUMP JUMPDEST SWAP1 MSTORE JUMP JUMPDEST PUSH1 0x20 DUP2 ADD SWAP3 SWAP2 PUSH2 0x83 SWAP2 SWAP1 PUSH2 0x28C JUMP JUMPDEST SWAP2 PUSH2 0x2B3 SWAP2 PUSH2 0x2FD JUMP JUMPDEST PUSH1 0x0 PUSH2 0x2BE DUP2 PUSH2 0x283 JUMP JUMPDEST PUSH2 0x2C7 DUP2 PUSH2 0x200 JUMP JUMPDEST PUSH2 0x2D0 DUP5 PUSH2 0x200 JUMP JUMPDEST EQ PUSH2 0x2E0 JUMPI POP POP PUSH2 0x83 SWAP1 PUSH2 0x4F6 JUMP JUMPDEST PUSH4 0x1E4FBDF7 PUSH1 0xE0 SHL DUP3 MSTORE DUP2 SWAP1 PUSH2 0x2F9 SWAP1 PUSH1 0x4 DUP4 ADD PUSH2 0x299 JUMP JUMPDEST SUB SWAP1 REVERT JUMPDEST PUSH2 0x83 SWAP2 DUP3 SWAP2 DUP3 SWAP2 DUP3 SWAP2 PUSH2 0x4CD JUMP JUMPDEST PUSH4 0x4E487B71 PUSH1 0xE0 SHL PUSH1 0x0 MSTORE PUSH1 0x22 PUSH1 0x4 MSTORE PUSH1 0x24 PUSH1 0x0 REVERT JUMPDEST SWAP1 PUSH1 0x1 PUSH1 0x2 DUP4 DIV SWAP3 AND DUP1 ISZERO PUSH2 0x342 JUMPI JUMPDEST PUSH1 0x20 DUP4 LT EQ PUSH2 0x33D JUMPI JUMP JUMPDEST PUSH2 0x30C JUMP JUMPDEST SWAP2 PUSH1 0x7F AND SWAP2 PUSH2 0x332 JUMP JUMPDEST SWAP2 PUSH1 0x0 NOT PUSH1 0x8 SWAP3 SWAP1 SWAP3 MUL SWAP2 DUP3 SHL SWAP2 SHL PUSH2 0x1AB JUMP JUMPDEST SWAP2 SWAP1 PUSH2 0x371 PUSH2 0x10D PUSH2 0x1D9 SWAP4 PUSH2 0x1B5 JUMP JUMPDEST SWAP1 DUP4 SLOAD PUSH2 0x34C JUMP JUMPDEST PUSH2 0x83 SWAP2 PUSH1 0x0 SWAP2 PUSH2 0x360 JUMP JUMPDEST DUP2 DUP2 LT PUSH2 0x390 JUMPI POP POP JUMP JUMPDEST DUP1 PUSH2 0x39E PUSH1 0x0 PUSH1 0x1 SWAP4 PUSH2 0x379 JUMP JUMPDEST ADD PUSH2 0x385 JUMP JUMPDEST SWAP2 SWAP1 PUSH1 0x1F DUP2 GT PUSH2 0x3B3 JUMPI POP POP POP JUMP JUMPDEST PUSH2 0x3C5 PUSH2 0x83 SWAP4 PUSH1 0x0 MSTORE PUSH1 0x20 PUSH1 0x0 KECCAK256 SWAP1 JUMP JUMPDEST SWAP1 PUSH1 0x20 PUSH1 0x1F DUP5 ADD DUP2 SWAP1 DIV DUP4 ADD SWAP4 LT PUSH2 0x3E7 JUMPI JUMPDEST PUSH1 0x20 PUSH1 0x1F SWAP1 SWAP2 ADD DIV ADD SWAP1 PUSH2 0x385 JUMP JUMPDEST SWAP1 SWAP2 POP DUP2 SWAP1 PUSH2 0x3D8 JUMP JUMPDEST SWAP1 PUSH2 0x3FA DUP2 MLOAD SWAP1 JUMP JUMPDEST SWAP1 PUSH1 0x1 PUSH1 0x1 PUSH1 0x40 SHL SUB DUP3 GT PUSH2 0x6A JUMPI PUSH2 0x41D DUP3 PUSH2 0x417 DUP6 SLOAD PUSH2 0x322 JUMP JUMPDEST DUP6 PUSH2 0x3A4 JUMP JUMPDEST PUSH1 0x20 SWAP1 PUSH1 0x1F DUP4 GT PUSH1 0x1 EQ PUSH2 0x458 JUMPI PUSH2 0x1D9 SWAP3 SWAP2 PUSH1 0x0 SWAP2 DUP4 PUSH2 0x44D JUMPI JUMPDEST POP POP PUSH1 0x0 NOT PUSH1 0x8 DUP4 MUL SHR NOT AND SWAP1 PUSH1 0x2 MUL OR SWAP1 JUMP JUMPDEST ADD MLOAD SWAP1 POP CODESIZE DUP1 PUSH2 0x439 JUMP JUMPDEST PUSH1 0x1F NOT DUP4 AND SWAP2 PUSH2 0x46D DUP6 PUSH1 0x0 MSTORE PUSH1 0x20 PUSH1 0x0 KECCAK256 SWAP1 JUMP JUMPDEST SWAP3 PUSH1 0x0 JUMPDEST DUP2 DUP2 LT PUSH2 0x4AB JUMPI POP SWAP2 PUSH1 0x2 SWAP4 SWAP2 DUP6 PUSH1 0x1 SWAP7 SWAP5 LT PUSH2 0x492 JUMPI JUMPDEST POP POP POP MUL ADD SWAP1 SSTORE JUMP JUMPDEST ADD MLOAD PUSH1 0x0 NOT PUSH1 0x8 PUSH1 0x1F DUP6 AND MUL SHR NOT AND SWAP1 SSTORE CODESIZE DUP1 DUP1 PUSH2 0x489 JUMP JUMPDEST SWAP2 SWAP4 PUSH1 0x20 PUSH1 0x1 DUP2 SWAP3 DUP8 DUP8 ADD MLOAD DUP2 SSTORE ADD SWAP6 ADD SWAP3 ADD PUSH2 0x471 JUMP JUMPDEST SWAP1 PUSH2 0x83 SWAP2 PUSH2 0x3F1 JUMP JUMPDEST SWAP1 PUSH2 0x4DC PUSH2 0x83 SWAP3 PUSH1 0x0 PUSH2 0x4C3 JUMP JUMPDEST PUSH1 0x1 PUSH2 0x4C3 JUMP JUMPDEST PUSH2 0x10D SWAP1 PUSH2 0x200 JUMP JUMPDEST PUSH2 0x10D SWAP1 SLOAD PUSH2 0x4E3 JUMP JUMPDEST PUSH2 0x51C PUSH2 0x516 PUSH2 0x506 PUSH1 0xA PUSH2 0x4EC JUMP JUMPDEST PUSH2 0x511 DUP5 PUSH1 0xA PUSH2 0x21E JUMP JUMPDEST PUSH2 0x215 JUMP JUMPDEST SWAP2 PUSH2 0x215 JUMP JUMPDEST SWAP1 PUSH32 0x8BE0079C531659141344CD1FD0A4F28419497F9722A3DAAFE3B4186F6B6457E0 PUSH2 0x547 PUSH1 0x40 MLOAD SWAP1 JUMP JUMPDEST PUSH1 0x0 SWAP1 LOG3 JUMP INVALID PUSH1 0x80 PUSH1 0x40 MSTORE PUSH1 0x4 CALLDATASIZE LT ISZERO PUSH2 0x12 JUMPI PUSH1 0x0 DUP1 REVERT JUMPDEST PUSH1 0x0 CALLDATALOAD PUSH1 0xE0 SHR DUP1 PUSH4 0x1FFC9A7 EQ PUSH2 0x252 JUMPI DUP1 PUSH4 0x2D05D3F EQ PUSH2 0x24D JUMPI DUP1 PUSH4 0x583E9F8 EQ PUSH2 0x248 JUMPI DUP1 PUSH4 0x6FDDE03 EQ PUSH2 0x243 JUMPI DUP1 PUSH4 0x81812FC EQ PUSH2 0x23E JUMPI DUP1 PUSH4 0x95EA7B3 EQ PUSH2 0x239 JUMPI DUP1 PUSH4 0x12EA5C7E EQ PUSH2 0x234 JUMPI DUP1 PUSH4 0x150B7A02 EQ PUSH2 0x22F JUMPI DUP1 PUSH4 0x18160DDD EQ PUSH2 0x22A JUMPI DUP1 PUSH4 0x1D0806AE EQ PUSH2 0x225 JUMPI DUP1 PUSH4 0x23B872DD EQ PUSH2 0x220 JUMPI DUP1 PUSH4 0x2DCD52F2 EQ PUSH2 0x21B JUMPI DUP1 PUSH4 0x2F745C59 EQ PUSH2 0x216 JUMPI DUP1 PUSH4 0x3F516018 EQ PUSH2 0x211 JUMPI DUP1 PUSH4 0x42842E0E EQ PUSH2 0x20C JUMPI DUP1 PUSH4 0x4F6CCCE7 EQ PUSH2 0x207 JUMPI DUP1 PUSH4 0x53613DD3 EQ PUSH2 0x202 JUMPI DUP1 PUSH4 0x55F804B3 EQ PUSH2 0x1FD JUMPI DUP1 PUSH4 0x5EBA096B EQ PUSH2 0x1F8 JUMPI DUP1 PUSH4 0x6352211E EQ PUSH2 0x1F3 JUMPI DUP1 PUSH4 0x6C0360EB EQ PUSH2 0x1EE JUMPI DUP1 PUSH4 0x70A08231 EQ PUSH2 0x1E9 JUMPI DUP1 PUSH4 0x715018A6 EQ PUSH2 0x1E4 JUMPI DUP1 PUSH4 0x7284E416 EQ PUSH2 0x1DF JUMPI DUP1 PUSH4 0x771282F6 EQ PUSH2 0x1DA JUMPI DUP1 PUSH4 0x8DA5CB5B EQ PUSH2 0x1D5 JUMPI DUP1 PUSH4 0x90C3F38F EQ PUSH2 0x1D0 JUMPI DUP1 PUSH4 0x95D89B41 EQ PUSH2 0x1CB JUMPI DUP1 PUSH4 0xA22CB465 EQ PUSH2 0x1C6 JUMPI DUP1 PUSH4 0xAD64D068 EQ PUSH2 0x1C1 JUMPI DUP1 PUSH4 0xB88D4FDE EQ PUSH2 0x1BC JUMPI DUP1 PUSH4 0xC87B56DD EQ PUSH2 0x1B7 JUMPI DUP1 PUSH4 0xCF6A68BF EQ PUSH2 0x1B2 JUMPI DUP1 PUSH4 0xD5ABEB01 EQ PUSH2 0x1AD JUMPI DUP1 PUSH4 0xE985E9C5 EQ PUSH2 0x1A8 JUMPI PUSH4 0xF2FDE38B SUB PUSH2 0x26A JUMPI PUSH2 0xC2B JUMP JUMPDEST PUSH2 0xC0F JUMP JUMPDEST PUSH2 0xBD1 JUMP JUMPDEST PUSH2 0xBAA JUMP JUMPDEST PUSH2 0xB8F JUMP JUMPDEST PUSH2 0xB73 JUMP JUMPDEST PUSH2 0xB58 JUMP JUMPDEST PUSH2 0xAE3 JUMP JUMPDEST PUSH2 0xA90 JUMP JUMPDEST PUSH2 0xA78 JUMP JUMPDEST PUSH2 0xA5D JUMP JUMPDEST PUSH2 0xA42 JUMP JUMPDEST PUSH2 0xA1B JUMP JUMPDEST PUSH2 0x9F7 JUMP JUMPDEST PUSH2 0x9DC JUMP JUMPDEST PUSH2 0x9C1 JUMP JUMPDEST PUSH2 0x87F JUMP JUMPDEST PUSH2 0x863 JUMP JUMPDEST PUSH2 0x82F JUMP JUMPDEST PUSH2 0x7EE JUMP JUMPDEST PUSH2 0x7C7 JUMP JUMPDEST PUSH2 0x7AE JUMP JUMPDEST PUSH2 0x796 JUMP JUMPDEST PUSH2 0x766 JUMP JUMPDEST PUSH2 0x74A JUMP JUMPDEST PUSH2 0x731 JUMP JUMPDEST PUSH2 0x6ED JUMP JUMPDEST PUSH2 0x6C5 JUMP JUMPDEST PUSH2 0x68B JUMP JUMPDEST PUSH2 0x550 JUMP JUMPDEST PUSH2 0x4CB JUMP JUMPDEST PUSH2 0x477 JUMP JUMPDEST PUSH2 0x450 JUMP JUMPDEST PUSH2 0x3B9 JUMP JUMPDEST PUSH2 0x31B JUMP JUMPDEST PUSH2 0x299 JUMP JUMPDEST PUSH1 0x1 PUSH1 0x1 PUSH1 0xE0 SHL SUB NOT DUP2 AND JUMPDEST SUB PUSH2 0x26A JUMPI JUMP JUMPDEST PUSH1 0x0 DUP1 REVERT JUMPDEST SWAP1 POP CALLDATALOAD SWAP1 PUSH2 0x27C DUP3 PUSH2 0x257 JUMP JUMPDEST JUMP JUMPDEST SWAP1 PUSH1 0x20 DUP3 DUP3 SUB SLT PUSH2 0x26A JUMPI PUSH2 0x292 SWAP2 PUSH2 0x26F JUMP JUMPDEST SWAP1 JUMP JUMPDEST SWAP1 MSTORE JUMP JUMPDEST CALLVALUE PUSH2 0x26A JUMPI PUSH2 0x2C7 PUSH2 0x2B4 PUSH2 0x2AF CALLDATASIZE PUSH1 0x4 PUSH2 0x27E JUMP JUMPDEST PUSH2 0xC43 JUMP JUMPDEST PUSH1 0x40 MLOAD JUMPDEST SWAP2 DUP3 SWAP2 DUP3 SWAP1 ISZERO ISZERO DUP2 MSTORE PUSH1 0x20 ADD SWAP1 JUMP JUMPDEST SUB SWAP1 RETURN JUMPDEST PUSH1 0x0 SWAP2 SUB SLT PUSH2 0x26A JUMPI JUMP JUMPDEST PUSH2 0x292 SWAP2 PUSH1 0x8 MUL SHR JUMPDEST PUSH1 0x1 PUSH1 0x1 PUSH1 0xA0 SHL SUB AND SWAP1 JUMP JUMPDEST SWAP1 PUSH2 0x292 SWAP2 SLOAD PUSH2 0x2D6 JUMP JUMPDEST PUSH2 0x292 PUSH1 0x0 PUSH1 0xE PUSH2 0x2EB JUMP JUMPDEST PUSH2 0x295 SWAP1 PUSH2 0x2DF JUMP JUMPDEST PUSH1 0x20 DUP2 ADD SWAP3 SWAP2 PUSH2 0x27C SWAP2 SWAP1 PUSH2 0x302 JUMP JUMPDEST CALLVALUE PUSH2 0x26A JUMPI PUSH2 0x32B CALLDATASIZE PUSH1 0x4 PUSH2 0x2CB JUMP JUMPDEST PUSH2 0x2C7 PUSH2 0x336 PUSH2 0x2F6 JUMP JUMPDEST PUSH1 0x40 MLOAD SWAP2 DUP3 SWAP2 DUP3 PUSH2 0x30B JUMP JUMPDEST DUP1 PUSH2 0x263 JUMP JUMPDEST SWAP1 POP CALLDATALOAD SWAP1 PUSH2 0x27C DUP3 PUSH2 0x342 JUMP JUMPDEST SWAP1 PUSH1 0x20 DUP3 DUP3 SUB SLT PUSH2 0x26A JUMPI PUSH2 0x292 SWAP2 PUSH2 0x348 JUMP JUMPDEST PUSH2 0x292 PUSH2 0x292 PUSH2 0x292 SWAP3 SWAP1 JUMP JUMPDEST SWAP1 PUSH2 0x380 SWAP1 PUSH2 0x369 JUMP JUMPDEST PUSH1 0x0 MSTORE PUSH1 0x20 MSTORE PUSH1 0x40 PUSH1 0x0 KECCAK256 SWAP1 JUMP JUMPDEST PUSH2 0x292 SWAP2 PUSH1 0x8 MUL SHR DUP2 JUMP JUMPDEST SWAP1 PUSH2 0x292 SWAP2 SLOAD PUSH2 0x38E JUMP JUMPDEST PUSH1 0x0 PUSH2 0x3B4 PUSH2 0x292 SWAP3 PUSH1 0x11 PUSH2 0x376 JUMP JUMPDEST PUSH2 0x399 JUMP JUMPDEST CALLVALUE PUSH2 0x26A JUMPI PUSH2 0x2C7 PUSH2 0x3D4 PUSH2 0x3CF CALLDATASIZE PUSH1 0x4 PUSH2 0x355 JUMP JUMPDEST PUSH2 0x3A4 JUMP JUMPDEST PUSH1 0x40 MLOAD SWAP2 DUP3 SWAP2 DUP3 SWAP1 DUP2 MSTORE PUSH1 0x20 ADD SWAP1 JUMP JUMPDEST PUSH1 0x0 JUMPDEST DUP4 DUP2 LT PUSH2 0x3F7 JUMPI POP POP PUSH1 0x0 SWAP2 ADD MSTORE JUMP JUMPDEST DUP2 DUP2 ADD MLOAD DUP4 DUP3 ADD MSTORE PUSH1 0x20 ADD PUSH2 0x3E7 JUMP JUMPDEST PUSH2 0x428 PUSH2 0x431 PUSH1 0x20 SWAP4 PUSH2 0x43B SWAP4 PUSH2 0x41C DUP2 MLOAD SWAP1 JUMP JUMPDEST DUP1 DUP4 MSTORE SWAP4 DUP5 SWAP3 PUSH1 0x20 ADD SWAP1 JUMP JUMPDEST SWAP6 DUP7 SWAP2 ADD PUSH2 0x3E4 JUMP JUMPDEST PUSH1 0x1F ADD PUSH1 0x1F NOT AND SWAP1 JUMP JUMPDEST ADD SWAP1 JUMP JUMPDEST PUSH1 0x20 DUP1 DUP3 MSTORE PUSH2 0x292 SWAP3 SWAP2 ADD SWAP1 PUSH2 0x407 JUMP JUMPDEST CALLVALUE PUSH2 0x26A JUMPI PUSH2 0x460 CALLDATASIZE PUSH1 0x4 PUSH2 0x2CB JUMP JUMPDEST PUSH2 0x2C7 PUSH2 0x46B PUSH2 0xC55 JUMP JUMPDEST PUSH1 0x40 MLOAD SWAP2 DUP3 SWAP2 DUP3 PUSH2 0x43F JUMP JUMPDEST CALLVALUE PUSH2 0x26A JUMPI PUSH2 0x2C7 PUSH2 0x336 PUSH2 0x48D CALLDATASIZE PUSH1 0x4 PUSH2 0x355 JUMP JUMPDEST PUSH2 0xC5F JUMP JUMPDEST PUSH2 0x263 DUP2 PUSH2 0x2DF JUMP JUMPDEST SWAP1 POP CALLDATALOAD SWAP1 PUSH2 0x27C DUP3 PUSH2 0x492 JUMP JUMPDEST SWAP2 SWAP1 PUSH1 0x40 DUP4 DUP3 SUB SLT PUSH2 0x26A JUMPI PUSH2 0x292 SWAP1 PUSH1 0x20 PUSH2 0x4C4 DUP3 DUP7 PUSH2 0x49B JUMP JUMPDEST SWAP5 ADD PUSH2 0x348 JUMP JUMPDEST CALLVALUE PUSH2 0x26A JUMPI PUSH2 0x4E4 PUSH2 0x4DE CALLDATASIZE PUSH1 0x4 PUSH2 0x4A8 JUMP JUMPDEST SWAP1 PUSH2 0xC72 JUMP JUMPDEST PUSH1 0x40 MLOAD STOP JUMPDEST SWAP1 PUSH2 0x509 PUSH2 0x502 PUSH2 0x4F8 DUP5 MLOAD SWAP1 JUMP JUMPDEST DUP1 DUP5 MSTORE SWAP3 PUSH1 0x20 ADD SWAP1 JUMP JUMPDEST SWAP3 PUSH1 0x20 ADD SWAP1 JUMP JUMPDEST SWAP1 PUSH1 0x0 JUMPDEST DUP2 DUP2 LT PUSH2 0x51A JUMPI POP POP POP SWAP1 JUMP JUMPDEST SWAP1 SWAP2 SWAP3 PUSH2 0x537 PUSH2 0x530 PUSH1 0x1 SWAP3 DUP7 MLOAD DUP2 MSTORE PUSH1 0x20 ADD SWAP1 JUMP JUMPDEST SWAP5 PUSH1 0x20 ADD SWAP1 JUMP JUMPDEST SWAP3 SWAP2 ADD PUSH2 0x50D JUMP JUMPDEST PUSH1 0x20 DUP1 DUP3 MSTORE PUSH2 0x292 SWAP3 SWAP2 ADD SWAP1 PUSH2 0x4E9 JUMP JUMPDEST CALLVALUE PUSH2 0x26A JUMPI PUSH2 0x560 CALLDATASIZE PUSH1 0x4 PUSH2 0x2CB JUMP JUMPDEST PUSH2 0x2C7 PUSH2 0x56B PUSH2 0xD13 JUMP JUMPDEST PUSH1 0x40 MLOAD SWAP2 DUP3 SWAP2 DUP3 PUSH2 0x53F JUMP JUMPDEST PUSH4 0x4E487B71 PUSH1 0xE0 SHL PUSH1 0x0 MSTORE PUSH1 0x41 PUSH1 0x4 MSTORE PUSH1 0x24 PUSH1 0x0 REVERT JUMPDEST SWAP1 PUSH1 0x1F ADD PUSH1 0x1F NOT AND DUP2 ADD SWAP1 DUP2 LT PUSH8 0xFFFFFFFFFFFFFFFF DUP3 GT OR PUSH2 0x5AF JUMPI PUSH1 0x40 MSTORE JUMP JUMPDEST PUSH2 0x577 JUMP JUMPDEST SWAP1 PUSH2 0x27C PUSH2 0x5C1 PUSH1 0x40 MLOAD SWAP1 JUMP JUMPDEST SWAP3 DUP4 PUSH2 0x58D JUMP JUMPDEST PUSH8 0xFFFFFFFFFFFFFFFF DUP2 GT PUSH2 0x5AF JUMPI PUSH1 0x20 SWAP1 PUSH1 0x1F ADD PUSH1 0x1F NOT AND ADD SWAP1 JUMP JUMPDEST SWAP1 DUP3 PUSH1 0x0 SWAP4 SWAP3 DUP3 CALLDATACOPY ADD MSTORE JUMP JUMPDEST SWAP1 SWAP3 SWAP2 SWAP3 PUSH2 0x606 PUSH2 0x601 DUP3 PUSH2 0x5C8 JUMP JUMPDEST PUSH2 0x5B4 JUMP JUMPDEST SWAP4 DUP2 DUP6 MSTORE DUP2 DUP4 ADD GT PUSH2 0x26A JUMPI PUSH2 0x27C SWAP2 PUSH1 0x20 DUP6 ADD SWAP1 PUSH2 0x5E5 JUMP JUMPDEST SWAP1 DUP1 PUSH1 0x1F DUP4 ADD SLT ISZERO PUSH2 0x26A JUMPI DUP2 PUSH1 0x20 PUSH2 0x292 SWAP4 CALLDATALOAD SWAP2 ADD PUSH2 0x5F1 JUMP JUMPDEST SWAP1 PUSH1 0x80 DUP3 DUP3 SUB SLT PUSH2 0x26A JUMPI PUSH2 0x650 DUP2 DUP4 PUSH2 0x49B JUMP JUMPDEST SWAP3 PUSH2 0x65E DUP3 PUSH1 0x20 DUP6 ADD PUSH2 0x49B JUMP JUMPDEST SWAP3 PUSH2 0x66C DUP4 PUSH1 0x40 DUP4 ADD PUSH2 0x348 JUMP JUMPDEST SWAP3 PUSH1 0x60 DUP3 ADD CALLDATALOAD PUSH8 0xFFFFFFFFFFFFFFFF DUP2 GT PUSH2 0x26A JUMPI PUSH2 0x292 SWAP3 ADD PUSH2 0x620 JUMP JUMPDEST CALLVALUE PUSH2 0x26A JUMPI PUSH2 0x2C7 PUSH2 0x6AA PUSH2 0x6A1 CALLDATASIZE PUSH1 0x4 PUSH2 0x63B JUMP JUMPDEST SWAP3 SWAP2 SWAP1 SWAP2 PUSH2 0xD60 JUMP JUMPDEST PUSH1 0x40 MLOAD SWAP2 DUP3 SWAP2 DUP3 PUSH1 0x1 PUSH1 0x1 PUSH1 0xE0 SHL SUB NOT SWAP1 SWAP2 AND DUP2 MSTORE PUSH1 0x20 ADD SWAP1 JUMP JUMPDEST CALLVALUE PUSH2 0x26A JUMPI PUSH2 0x6D5 CALLDATASIZE PUSH1 0x4 PUSH2 0x2CB JUMP JUMPDEST PUSH2 0x2C7 PUSH2 0x3D4 PUSH1 0x8 SLOAD SWAP1 JUMP JUMPDEST PUSH2 0x292 PUSH1 0x0 PUSH1 0xB PUSH2 0x399 JUMP JUMPDEST CALLVALUE PUSH2 0x26A JUMPI PUSH2 0x6FD CALLDATASIZE PUSH1 0x4 PUSH2 0x2CB JUMP JUMPDEST PUSH2 0x2C7 PUSH2 0x3D4 PUSH2 0x6E1 JUMP JUMPDEST SWAP1 SWAP2 PUSH1 0x60 DUP3 DUP5 SUB SLT PUSH2 0x26A JUMPI PUSH2 0x292 PUSH2 0x721 DUP5 DUP5 PUSH2 0x49B JUMP JUMPDEST SWAP4 PUSH1 0x40 PUSH2 0x4C4 DUP3 PUSH1 0x20 DUP8 ADD PUSH2 0x49B JUMP JUMPDEST CALLVALUE PUSH2 0x26A JUMPI PUSH2 0x4E4 PUSH2 0x744 CALLDATASIZE PUSH1 0x4 PUSH2 0x708 JUMP JUMPDEST SWAP2 PUSH2 0xDBE JUMP JUMPDEST CALLVALUE PUSH2 0x26A JUMPI PUSH2 0x75A CALLDATASIZE PUSH1 0x4 PUSH2 0x2CB JUMP JUMPDEST PUSH2 0x2C7 PUSH2 0x3D4 PUSH1 0x10 SLOAD SWAP1 JUMP JUMPDEST CALLVALUE PUSH2 0x26A JUMPI PUSH2 0x2C7 PUSH2 0x3D4 PUSH2 0x77C CALLDATASIZE PUSH1 0x4 PUSH2 0x4A8 JUMP JUMPDEST SWAP1 PUSH2 0xE78 JUMP JUMPDEST SWAP1 PUSH1 0x20 DUP3 DUP3 SUB SLT PUSH2 0x26A JUMPI PUSH2 0x292 SWAP2 PUSH2 0x49B JUMP JUMPDEST CALLVALUE PUSH2 0x26A JUMPI PUSH2 0x4E4 PUSH2 0x7A9 CALLDATASIZE PUSH1 0x4 PUSH2 0x782 JUMP JUMPDEST PUSH2 0xF98 JUMP JUMPDEST CALLVALUE PUSH2 0x26A JUMPI PUSH2 0x4E4 PUSH2 0x7C1 CALLDATASIZE PUSH1 0x4 PUSH2 0x708 JUMP JUMPDEST SWAP2 PUSH2 0xFC5 JUMP JUMPDEST CALLVALUE PUSH2 0x26A JUMPI PUSH2 0x2C7 PUSH2 0x3D4 PUSH2 0x7DD CALLDATASIZE PUSH1 0x4 PUSH2 0x355 JUMP JUMPDEST PUSH2 0xFD9 JUMP JUMPDEST PUSH2 0x292 PUSH1 0x0 PUSH1 0xD PUSH2 0x399 JUMP JUMPDEST CALLVALUE PUSH2 0x26A JUMPI PUSH2 0x7FE CALLDATASIZE PUSH1 0x4 PUSH2 0x2CB JUMP JUMPDEST PUSH2 0x2C7 PUSH2 0x3D4 PUSH2 0x7E2 JUMP JUMPDEST SWAP1 PUSH1 0x20 DUP3 DUP3 SUB SLT PUSH2 0x26A JUMPI DUP2 CALLDATALOAD PUSH8 0xFFFFFFFFFFFFFFFF DUP2 GT PUSH2 0x26A JUMPI PUSH2 0x292 SWAP3 ADD PUSH2 0x620 JUMP JUMPDEST CALLVALUE PUSH2 0x26A JUMPI PUSH2 0x4E4 PUSH2 0x842 CALLDATASIZE PUSH1 0x4 PUSH2 0x809 JUMP JUMPDEST PUSH2 0x11C5 JUMP JUMPDEST SWAP2 SWAP1 PUSH1 0x40 DUP4 DUP3 SUB SLT PUSH2 0x26A JUMPI PUSH2 0x292 SWAP1 PUSH1 0x20 PUSH2 0x4C4 DUP3 DUP7 PUSH2 0x348 JUMP JUMPDEST CALLVALUE PUSH2 0x26A JUMPI PUSH2 0x2C7 PUSH2 0x56B PUSH2 0x879 CALLDATASIZE PUSH1 0x4 PUSH2 0x847 JUMP JUMPDEST SWAP1 PUSH2 0x12B6 JUMP JUMPDEST CALLVALUE PUSH2 0x26A JUMPI PUSH2 0x2C7 PUSH2 0x336 PUSH2 0x895 CALLDATASIZE PUSH1 0x4 PUSH2 0x355 JUMP JUMPDEST PUSH2 0x1345 JUMP JUMPDEST PUSH4 0x4E487B71 PUSH1 0xE0 SHL PUSH1 0x0 MSTORE PUSH1 0x0 PUSH1 0x4 MSTORE PUSH1 0x24 PUSH1 0x0 REVERT JUMPDEST PUSH4 0x4E487B71 PUSH1 0xE0 SHL PUSH1 0x0 MSTORE PUSH1 0x22 PUSH1 0x4 MSTORE PUSH1 0x24 PUSH1 0x0 REVERT JUMPDEST SWAP1 PUSH1 0x1 PUSH1 0x2 DUP4 DIV SWAP3 AND DUP1 ISZERO PUSH2 0x8E6 JUMPI JUMPDEST PUSH1 0x20 DUP4 LT EQ PUSH2 0x8E1 JUMPI JUMP JUMPDEST PUSH2 0x8B0 JUMP JUMPDEST SWAP2 PUSH1 0x7F AND SWAP2 PUSH2 0x8D6 JUMP JUMPDEST DUP1 SLOAD PUSH1 0x0 SWAP4 SWAP3 SWAP2 PUSH2 0x90D PUSH2 0x903 DUP4 PUSH2 0x8C6 JUMP JUMPDEST DUP1 DUP6 MSTORE SWAP4 PUSH1 0x20 ADD SWAP1 JUMP JUMPDEST SWAP2 PUSH1 0x1 DUP2 AND SWAP1 DUP2 ISZERO PUSH2 0x95F JUMPI POP PUSH1 0x1 EQ PUSH2 0x926 JUMPI POP POP POP JUMP JUMPDEST PUSH2 0x939 SWAP2 SWAP3 SWAP4 SWAP5 POP PUSH1 0x0 MSTORE PUSH1 0x20 PUSH1 0x0 KECCAK256 SWAP1 JUMP JUMPDEST SWAP2 PUSH1 0x0 SWAP3 JUMPDEST DUP2 DUP5 LT PUSH2 0x94B JUMPI POP POP ADD SWAP1 JUMP JUMPDEST DUP1 SLOAD DUP5 DUP5 ADD MSTORE PUSH1 0x20 SWAP1 SWAP4 ADD SWAP3 PUSH1 0x1 ADD PUSH2 0x93E JUMP JUMPDEST SWAP3 SWAP5 SWAP6 POP POP POP PUSH1 0xFF NOT AND DUP3 MSTORE ISZERO ISZERO PUSH1 0x20 MUL ADD SWAP1 JUMP JUMPDEST SWAP1 PUSH2 0x292 SWAP2 PUSH2 0x8F0 JUMP JUMPDEST SWAP1 PUSH2 0x27C PUSH2 0x998 SWAP3 PUSH2 0x98F PUSH1 0x40 MLOAD SWAP1 JUMP JUMPDEST SWAP4 DUP5 DUP1 SWAP3 PUSH2 0x974 JUMP JUMPDEST SUB DUP4 PUSH2 0x58D JUMP JUMPDEST SWAP1 PUSH1 0x0 LT PUSH2 0x9B0 JUMPI PUSH2 0x292 SWAP1 PUSH2 0x97E JUMP JUMPDEST PUSH2 0x89A JUMP JUMPDEST PUSH2 0x292 PUSH1 0x0 PUSH1 0x12 PUSH2 0x99F JUMP JUMPDEST CALLVALUE PUSH2 0x26A JUMPI PUSH2 0x9D1 CALLDATASIZE PUSH1 0x4 PUSH2 0x2CB JUMP JUMPDEST PUSH2 0x2C7 PUSH2 0x46B PUSH2 0x9B5 JUMP JUMPDEST CALLVALUE PUSH2 0x26A JUMPI PUSH2 0x2C7 PUSH2 0x3D4 PUSH2 0x9F2 CALLDATASIZE PUSH1 0x4 PUSH2 0x782 JUMP JUMPDEST PUSH2 0x134E JUMP JUMPDEST CALLVALUE PUSH2 0x26A JUMPI PUSH2 0xA07 CALLDATASIZE PUSH1 0x4 PUSH2 0x2CB JUMP JUMPDEST PUSH2 0x4E4 PUSH2 0x13B6 JUMP JUMPDEST PUSH2 0x292 PUSH1 0x0 PUSH1 0x13 PUSH2 0x99F JUMP JUMPDEST CALLVALUE PUSH2 0x26A JUMPI PUSH2 0xA2B CALLDATASIZE PUSH1 0x4 PUSH2 0x2CB JUMP JUMPDEST PUSH2 0x2C7 PUSH2 0x46B PUSH2 0xA0F JUMP JUMPDEST PUSH2 0x292 PUSH1 0x0 PUSH1 0xF PUSH2 0x399 JUMP JUMPDEST CALLVALUE PUSH2 0x26A JUMPI PUSH2 0xA52 CALLDATASIZE PUSH1 0x4 PUSH2 0x2CB JUMP JUMPDEST PUSH2 0x2C7 PUSH2 0x3D4 PUSH2 0xA36 JUMP JUMPDEST CALLVALUE PUSH2 0x26A JUMPI PUSH2 0xA6D CALLDATASIZE PUSH1 0x4 PUSH2 0x2CB JUMP JUMPDEST PUSH2 0x2C7 PUSH2 0x336 PUSH2 0x13BE JUMP JUMPDEST CALLVALUE PUSH2 0x26A JUMPI PUSH2 0x4E4 PUSH2 0xA8B CALLDATASIZE PUSH1 0x4 PUSH2 0x809 JUMP JUMPDEST PUSH2 0x13E7 JUMP JUMPDEST CALLVALUE PUSH2 0x26A JUMPI PUSH2 0xAA0 CALLDATASIZE PUSH1 0x4 PUSH2 0x2CB JUMP JUMPDEST PUSH2 0x2C7 PUSH2 0x46B PUSH2 0x13F0 JUMP JUMPDEST DUP1 ISZERO ISZERO PUSH2 0x263 JUMP JUMPDEST SWAP1 POP CALLDATALOAD SWAP1 PUSH2 0x27C DUP3 PUSH2 0xAAB JUMP JUMPDEST SWAP2 SWAP1 PUSH1 0x40 DUP4 DUP3 SUB SLT PUSH2 0x26A JUMPI PUSH2 0x292 SWAP1 PUSH1 0x20 PUSH2 0xADC DUP3 DUP7 PUSH2 0x49B JUMP JUMPDEST SWAP5 ADD PUSH2 0xAB3 JUMP JUMPDEST CALLVALUE PUSH2 0x26A JUMPI PUSH2 0x4E4 PUSH2 0xAF6 CALLDATASIZE PUSH1 0x4 PUSH2 0xAC0 JUMP JUMPDEST SWAP1 PUSH2 0x13FA JUMP JUMPDEST PUSH4 0x4E487B71 PUSH1 0xE0 SHL PUSH1 0x0 MSTORE PUSH1 0x32 PUSH1 0x4 MSTORE PUSH1 0x24 PUSH1 0x0 REVERT JUMPDEST DUP1 SLOAD DUP3 LT ISZERO PUSH2 0xB35 JUMPI PUSH2 0xB2C PUSH1 0x1 SWAP2 PUSH1 0x0 MSTORE PUSH1 0x20 PUSH1 0x0 KECCAK256 SWAP1 JUMP JUMPDEST SWAP2 MUL ADD SWAP1 PUSH1 0x0 SWAP1 JUMP JUMPDEST PUSH2 0xAFC JUMP JUMPDEST PUSH1 0x10 SLOAD DUP2 LT ISZERO PUSH2 0x26A JUMPI PUSH2 0xB52 PUSH2 0x292 SWAP2 PUSH1 0x10 PUSH2 0xB12 JUMP JUMPDEST SWAP1 PUSH2 0x399 JUMP JUMPDEST CALLVALUE PUSH2 0x26A JUMPI PUSH2 0x2C7 PUSH2 0x3D4 PUSH2 0xB6E CALLDATASIZE PUSH1 0x4 PUSH2 0x355 JUMP JUMPDEST PUSH2 0xB3A JUMP JUMPDEST CALLVALUE PUSH2 0x26A JUMPI PUSH2 0x4E4 PUSH2 0xB86 CALLDATASIZE PUSH1 0x4 PUSH2 0x63B JUMP JUMPDEST SWAP3 SWAP2 SWAP1 SWAP2 PUSH2 0x1405 JUMP JUMPDEST CALLVALUE PUSH2 0x26A JUMPI PUSH2 0x2C7 PUSH2 0x46B PUSH2 0xBA5 CALLDATASIZE PUSH1 0x4 PUSH2 0x355 JUMP JUMPDEST PUSH2 0x147D JUMP JUMPDEST CALLVALUE PUSH2 0x26A JUMPI PUSH2 0x2C7 PUSH2 0x3D4 PUSH2 0xBC0 CALLDATASIZE PUSH1 0x4 PUSH2 0x355 JUMP JUMPDEST PUSH2 0x14C4 JUMP JUMPDEST PUSH2 0x292 PUSH1 0x0 PUSH1 0xC PUSH2 0x399 JUMP JUMPDEST CALLVALUE PUSH2 0x26A JUMPI PUSH2 0xBE1 CALLDATASIZE PUSH1 0x4 PUSH2 0x2CB JUMP JUMPDEST PUSH2 0x2C7 PUSH2 0x3D4 PUSH2 0xBC5 JUMP JUMPDEST SWAP2 SWAP1 PUSH1 0x40 DUP4 DUP3 SUB SLT PUSH2 0x26A JUMPI PUSH2 0x292 SWAP1 PUSH1 0x20 PUSH2 0xC08 DUP3 DUP7 PUSH2 0x49B JUMP JUMPDEST SWAP5 ADD PUSH2 0x49B JUMP JUMPDEST CALLVALUE PUSH2 0x26A JUMPI PUSH2 0x2C7 PUSH2 0x2B4 PUSH2 0xC25 CALLDATASIZE PUSH1 0x4 PUSH2 0xBEC JUMP JUMPDEST SWAP1 PUSH2 0x14DB JUMP JUMPDEST CALLVALUE PUSH2 0x26A JUMPI PUSH2 0x4E4 PUSH2 0xC3E CALLDATASIZE PUSH1 0x4 PUSH2 0x782 JUMP JUMPDEST PUSH2 0x1554 JUMP JUMPDEST PUSH2 0x292 SWAP1 PUSH2 0x155D JUMP JUMPDEST PUSH2 0x292 SWAP1 PUSH2 0x97E JUMP JUMPDEST PUSH2 0x292 PUSH1 0x0 PUSH2 0xC4C JUMP JUMPDEST PUSH2 0x292 SWAP1 PUSH2 0xC6C DUP2 PUSH2 0x1586 JUMP JUMPDEST POP PUSH2 0x15C6 JUMP JUMPDEST PUSH2 0x27C SWAP2 CALLER SWAP2 PUSH2 0x15E2 JUMP JUMPDEST PUSH2 0x292 SWAP1 DUP2 JUMP JUMPDEST PUSH2 0x292 SWAP1 SLOAD PUSH2 0xC7D JUMP JUMPDEST SWAP1 PUSH2 0xCA9 PUSH2 0xC9D PUSH2 0x4F8 DUP5 SLOAD SWAP1 JUMP JUMPDEST SWAP3 PUSH1 0x0 MSTORE PUSH1 0x20 PUSH1 0x0 KECCAK256 SWAP1 JUMP JUMPDEST SWAP1 PUSH1 0x0 JUMPDEST DUP2 DUP2 LT PUSH2 0xCBA JUMPI POP POP POP SWAP1 JUMP JUMPDEST SWAP1 SWAP2 SWAP3 PUSH2 0xCDE PUSH2 0xCD7 PUSH1 0x1 SWAP3 PUSH2 0xCCF DUP8 PUSH2 0xC84 JUMP JUMPDEST DUP2 MSTORE PUSH1 0x20 ADD SWAP1 JUMP JUMPDEST SWAP5 PUSH1 0x1 ADD SWAP1 JUMP JUMPDEST SWAP3 SWAP2 ADD PUSH2 0xCAD JUMP JUMPDEST SWAP1 PUSH2 0x292 SWAP2 PUSH2 0xC8E JUMP JUMPDEST SWAP1 PUSH2 0x27C PUSH2 0x998 SWAP3 PUSH2 0xD01 PUSH1 0x40 MLOAD SWAP1 JUMP JUMPDEST SWAP4 DUP5 DUP1 SWAP3 PUSH2 0xCE6 JUMP JUMPDEST PUSH2 0x292 SWAP1 PUSH2 0xCF0 JUMP JUMPDEST PUSH2 0x292 PUSH1 0x10 PUSH2 0xD0A JUMP JUMPDEST PUSH2 0x292 SWAP1 PUSH2 0x2DF SWAP1 PUSH1 0x1 PUSH1 0x1 PUSH1 0xA0 SHL SUB AND DUP3 JUMP JUMPDEST PUSH2 0x292 SWAP1 PUSH2 0xD1D JUMP JUMPDEST PUSH2 0xD53 PUSH2 0xD4D PUSH2 0x292 SWAP3 PUSH4 0xFFFFFFFF AND SWAP1 JUMP JUMPDEST PUSH1 0xE0 SHL SWAP1 JUMP JUMPDEST PUSH1 0x1 PUSH1 0x1 PUSH1 0xE0 SHL SUB NOT AND SWAP1 JUMP JUMPDEST POP POP POP POP PUSH2 0xD6C PUSH1 0x0 SWAP1 JUMP JUMPDEST POP PUSH2 0x292 PUSH4 0x150B7A02 PUSH2 0xD3A JUMP JUMPDEST PUSH2 0x2DF PUSH2 0x292 PUSH2 0x292 SWAP3 SWAP1 JUMP JUMPDEST PUSH2 0x292 SWAP1 PUSH2 0xD7A JUMP JUMPDEST PUSH1 0x40 SWAP1 PUSH2 0xDB7 PUSH2 0x27C SWAP5 SWAP7 SWAP6 SWAP4 SWAP7 PUSH2 0xDB0 PUSH1 0x60 DUP5 ADD SWAP9 PUSH1 0x0 DUP6 ADD SWAP1 PUSH2 0x302 JUMP JUMPDEST PUSH1 0x20 DUP4 ADD MSTORE JUMP JUMPDEST ADD SWAP1 PUSH2 0x302 JUMP JUMPDEST SWAP1 SWAP2 PUSH1 0x0 SWAP3 PUSH2 0xDCC DUP5 PUSH2 0xD87 JUMP JUMPDEST PUSH2 0xDD5 DUP2 PUSH2 0x2DF JUMP JUMPDEST PUSH2 0xDDE DUP4 PUSH2 0x2DF JUMP JUMPDEST EQ PUSH2 0xE2D JUMPI POP PUSH2 0xDF0 SWAP1 DUP3 CALLER SWAP2 PUSH2 0x15EF JUMP JUMPDEST SWAP2 PUSH2 0xDFA DUP2 PUSH2 0x2DF JUMP JUMPDEST PUSH2 0xE03 DUP5 PUSH2 0x2DF JUMP JUMPDEST SUB PUSH2 0xE0E JUMPI POP POP POP POP JUMP JUMPDEST PUSH4 0x64283D7B PUSH1 0xE0 SHL DUP5 MSTORE DUP4 SWAP3 PUSH2 0xE29 SWAP3 SWAP1 SWAP2 PUSH1 0x4 DUP6 ADD PUSH2 0xD90 JUMP JUMPDEST SUB SWAP1 REVERT JUMPDEST DUP5 PUSH2 0xE29 DUP2 SWAP3 PUSH4 0x32505749 PUSH1 0xE1 SHL DUP4 MSTORE PUSH1 0x4 DUP4 ADD PUSH2 0x30B JUMP JUMPDEST SWAP2 PUSH1 0x20 PUSH2 0x27C SWAP3 SWAP5 SWAP4 PUSH2 0xE61 PUSH1 0x40 DUP3 ADD SWAP7 PUSH1 0x0 DUP4 ADD SWAP1 PUSH2 0x302 JUMP JUMPDEST ADD MSTORE JUMP JUMPDEST PUSH2 0x292 SWAP1 PUSH2 0xD31 JUMP JUMPDEST SWAP1 PUSH2 0x380 SWAP1 PUSH2 0xE65 JUMP JUMPDEST PUSH2 0xE84 PUSH2 0x292 DUP3 PUSH2 0x134E JUMP JUMPDEST DUP3 LT ISZERO PUSH2 0xEA7 JUMPI PUSH2 0x292 SWAP2 PUSH2 0xE9D PUSH2 0xEA2 SWAP3 PUSH1 0x6 PUSH2 0xE6E JUMP JUMPDEST PUSH2 0x376 JUMP JUMPDEST PUSH2 0xC84 JUMP JUMPDEST PUSH4 0x295F44F7 PUSH1 0xE2 SHL PUSH1 0x0 SWAP1 DUP2 MSTORE SWAP2 PUSH2 0xEC0 SWAP2 PUSH1 0x4 PUSH2 0xE46 JUMP JUMPDEST SUB PUSH1 0x0 REVERT JUMPDEST PUSH2 0x292 SWAP1 PUSH2 0x2DF JUMP JUMPDEST PUSH2 0x292 SWAP1 SLOAD PUSH2 0xEC5 JUMP JUMPDEST ISZERO PUSH2 0xEDF JUMPI JUMP JUMPDEST PUSH1 0x40 MLOAD PUSH3 0x461BCD PUSH1 0xE5 SHL DUP2 MSTORE PUSH1 0x20 PUSH1 0x4 DUP3 ADD MSTORE PUSH1 0x23 PUSH1 0x24 DUP3 ADD MSTORE PUSH32 0x4F6E6C792063726561746F722063616E2063616C6C20746869732066756E6374 PUSH1 0x44 DUP3 ADD MSTORE PUSH3 0x34B7B7 PUSH1 0xE9 SHL PUSH1 0x64 DUP3 ADD MSTORE PUSH1 0x84 SWAP1 REVERT JUMPDEST PUSH2 0x27C SWAP1 PUSH2 0xF58 PUSH2 0xF49 PUSH2 0xF44 PUSH1 0xE PUSH2 0xECE JUMP JUMPDEST PUSH2 0x2DF JUMP JUMPDEST PUSH2 0xF52 CALLER PUSH2 0x2DF JUMP JUMPDEST EQ PUSH2 0xED8 JUMP JUMPDEST PUSH2 0xF8D JUMP JUMPDEST SWAP1 PUSH1 0x1 PUSH1 0x1 PUSH1 0xA0 SHL SUB SWAP1 JUMPDEST SWAP2 DUP2 NOT AND SWAP2 AND OR SWAP1 JUMP JUMPDEST SWAP1 PUSH2 0xF82 PUSH2 0x292 PUSH2 0xF89 SWAP3 PUSH2 0xE65 JUMP JUMPDEST DUP3 SLOAD PUSH2 0xF5D JUMP JUMPDEST SWAP1 SSTORE JUMP JUMPDEST PUSH2 0x27C SWAP1 PUSH1 0xE PUSH2 0xF72 JUMP JUMPDEST PUSH2 0x27C SWAP1 PUSH2 0xF30 JUMP JUMPDEST SWAP1 PUSH2 0xFAE PUSH2 0x601 DUP4 PUSH2 0x5C8 JUMP JUMPDEST SWAP2 DUP3 MSTORE JUMP JUMPDEST PUSH2 0x292 PUSH1 0x0 PUSH2 0xFA1 JUMP JUMPDEST PUSH2 0x292 PUSH2 0xFB3 JUMP JUMPDEST SWAP1 SWAP2 PUSH2 0x27C SWAP3 PUSH2 0xFD3 PUSH2 0xFBD JUMP JUMPDEST SWAP3 PUSH2 0x1405 JUMP JUMPDEST PUSH2 0xFE5 PUSH2 0x292 PUSH1 0x8 SLOAD SWAP1 JUMP JUMPDEST DUP2 LT ISZERO PUSH2 0xFFA JUMPI PUSH2 0xB52 PUSH2 0x292 SWAP2 PUSH1 0x8 PUSH2 0xB12 JUMP JUMPDEST PUSH2 0xE29 SWAP1 PUSH1 0x0 SWAP2 DUP3 SWAP2 PUSH2 0x100C DUP4 PUSH2 0xD87 JUMP JUMPDEST PUSH4 0x295F44F7 PUSH1 0xE2 SHL DUP5 MSTORE PUSH1 0x4 DUP5 ADD PUSH2 0xE46 JUMP JUMPDEST PUSH2 0x27C SWAP1 PUSH2 0x1033 PUSH2 0xF49 PUSH2 0xF44 PUSH1 0xE PUSH2 0xECE JUMP JUMPDEST PUSH2 0x11BA JUMP JUMPDEST SWAP2 PUSH1 0x0 NOT PUSH1 0x8 SWAP3 SWAP1 SWAP3 MUL SWAP2 DUP3 SHL SWAP2 SHL PUSH2 0xF68 JUMP JUMPDEST SWAP2 SWAP1 PUSH2 0x105D PUSH2 0x292 PUSH2 0xF89 SWAP4 PUSH2 0x369 JUMP JUMPDEST SWAP1 DUP4 SLOAD PUSH2 0x1038 JUMP JUMPDEST PUSH2 0x27C SWAP2 PUSH1 0x0 SWAP2 PUSH2 0x104C JUMP JUMPDEST DUP2 DUP2 LT PUSH2 0x107C JUMPI POP POP JUMP JUMPDEST DUP1 PUSH2 0x108A PUSH1 0x0 PUSH1 0x1 SWAP4 PUSH2 0x1065 JUMP JUMPDEST ADD PUSH2 0x1071 JUMP JUMPDEST SWAP2 SWAP1 PUSH1 0x1F DUP2 GT PUSH2 0x109F JUMPI POP POP POP JUMP JUMPDEST PUSH2 0x10B1 PUSH2 0x27C SWAP4 PUSH1 0x0 MSTORE PUSH1 0x20 PUSH1 0x0 KECCAK256 SWAP1 JUMP JUMPDEST SWAP1 PUSH1 0x20 PUSH1 0x1F DUP5 ADD DUP2 SWAP1 DIV DUP4 ADD SWAP4 LT PUSH2 0x10D3 JUMPI JUMPDEST PUSH1 0x20 PUSH1 0x1F SWAP1 SWAP2 ADD DIV ADD SWAP1 PUSH2 0x1071 JUMP JUMPDEST SWAP1 SWAP2 POP DUP2 SWAP1 PUSH2 0x10C4 JUMP JUMPDEST SWAP1 PUSH2 0x10E6 DUP2 MLOAD SWAP1 JUMP JUMPDEST SWAP1 PUSH8 0xFFFFFFFFFFFFFFFF DUP3 GT PUSH2 0x5AF JUMPI PUSH2 0x110A DUP3 PUSH2 0x1104 DUP6 SLOAD PUSH2 0x8C6 JUMP JUMPDEST DUP6 PUSH2 0x1090 JUMP JUMPDEST PUSH1 0x20 SWAP1 PUSH1 0x1F DUP4 GT PUSH1 0x1 EQ PUSH2 0x1145 JUMPI PUSH2 0xF89 SWAP3 SWAP2 PUSH1 0x0 SWAP2 DUP4 PUSH2 0x113A JUMPI JUMPDEST POP POP PUSH1 0x0 NOT PUSH1 0x8 DUP4 MUL SHR NOT AND SWAP1 PUSH1 0x2 MUL OR SWAP1 JUMP JUMPDEST ADD MLOAD SWAP1 POP CODESIZE DUP1 PUSH2 0x1126 JUMP JUMPDEST PUSH1 0x1F NOT DUP4 AND SWAP2 PUSH2 0x115A DUP6 PUSH1 0x0 MSTORE PUSH1 0x20 PUSH1 0x0 KECCAK256 SWAP1 JUMP JUMPDEST SWAP3 PUSH1 0x0 JUMPDEST DUP2 DUP2 LT PUSH2 0x1198 JUMPI POP SWAP2 PUSH1 0x2 SWAP4 SWAP2 DUP6 PUSH1 0x1 SWAP7 SWAP5 LT PUSH2 0x117F JUMPI JUMPDEST POP POP POP MUL ADD SWAP1 SSTORE JUMP JUMPDEST ADD MLOAD PUSH1 0x0 NOT PUSH1 0x8 PUSH1 0x1F DUP6 AND MUL SHR NOT AND SWAP1 SSTORE CODESIZE DUP1 DUP1 PUSH2 0x1176 JUMP JUMPDEST SWAP2 SWAP4 PUSH1 0x20 PUSH1 0x1 DUP2 SWAP3 DUP8 DUP8 ADD MLOAD DUP2 SSTORE ADD SWAP6 ADD SWAP3 ADD PUSH2 0x115E JUMP JUMPDEST SWAP1 PUSH2 0x27C SWAP2 PUSH2 0x10DD JUMP JUMPDEST PUSH2 0x27C SWAP1 PUSH1 0x12 PUSH2 0x11B0 JUMP JUMPDEST PUSH2 0x27C SWAP1 PUSH2 0x101F JUMP JUMPDEST ISZERO PUSH2 0x11D5 JUMPI JUMP JUMPDEST PUSH1 0x40 MLOAD PUSH3 0x461BCD PUSH1 0xE5 SHL DUP2 MSTORE PUSH1 0x20 PUSH1 0x4 DUP3 ADD MSTORE PUSH1 0x19 PUSH1 0x24 DUP3 ADD MSTORE PUSH32 0x537461727420696E646578206F7574206F6620626F756E647300000000000000 PUSH1 0x44 DUP3 ADD MSTORE PUSH1 0x64 SWAP1 REVERT JUMPDEST PUSH4 0x4E487B71 PUSH1 0xE0 SHL PUSH1 0x0 MSTORE PUSH1 0x11 PUSH1 0x4 MSTORE PUSH1 0x24 PUSH1 0x0 REVERT JUMPDEST SWAP2 SWAP1 DUP3 ADD DUP1 SWAP3 GT PUSH2 0x123D JUMPI JUMP JUMPDEST PUSH2 0x121A JUMP JUMPDEST SWAP2 SWAP1 DUP3 SUB SWAP2 DUP3 GT PUSH2 0x123D JUMPI JUMP JUMPDEST PUSH8 0xFFFFFFFFFFFFFFFF DUP2 GT PUSH2 0x5AF JUMPI PUSH1 0x20 DUP1 SWAP2 MUL ADD SWAP1 JUMP JUMPDEST SWAP1 PUSH2 0xFAE PUSH2 0x601 DUP4 PUSH2 0x124F JUMP JUMPDEST CALLDATASIZE SWAP1 CALLDATACOPY JUMP JUMPDEST SWAP1 PUSH2 0x27C PUSH2 0x128F PUSH2 0x1289 DUP5 PUSH2 0x1267 JUMP JUMPDEST SWAP4 PUSH2 0x124F JUMP JUMPDEST PUSH1 0x1F NOT ADD PUSH1 0x20 DUP5 ADD PUSH2 0x1274 JUMP JUMPDEST SWAP1 PUSH2 0x12A5 DUP3 MLOAD SWAP1 JUMP JUMPDEST DUP2 LT ISZERO PUSH2 0xB35 JUMPI PUSH1 0x20 DUP1 SWAP2 MUL ADD ADD SWAP1 JUMP JUMPDEST SWAP2 PUSH2 0x12E3 PUSH2 0x12DB PUSH1 0x10 SWAP4 PUSH2 0x12D5 PUSH2 0x12CE PUSH2 0x292 DUP8 SLOAD SWAP1 JUMP JUMPDEST DUP8 LT PUSH2 0x11CE JUMP JUMPDEST DUP6 PUSH2 0x1230 JUMP JUMPDEST DUP4 SLOAD SWAP1 PUSH2 0x15FA JUMP JUMPDEST SWAP2 PUSH2 0x12F6 PUSH2 0x12F1 DUP6 DUP6 PUSH2 0x1242 JUMP JUMPDEST PUSH2 0x1279 JUMP JUMPDEST SWAP2 DUP5 JUMPDEST DUP5 JUMPDEST DUP2 LT ISZERO PUSH2 0x133C JUMPI PUSH2 0x1335 DUP2 PUSH2 0x132F PUSH2 0x1319 PUSH2 0xB52 PUSH2 0x12FB SWAP6 DUP9 PUSH2 0xB12 JUMP JUMPDEST PUSH2 0x132C PUSH2 0x1326 DUP12 DUP6 PUSH2 0x1242 JUMP JUMPDEST DUP10 PUSH2 0x129C JUMP JUMPDEST MSTORE JUMP JUMPDEST PUSH1 0x1 ADD SWAP1 JUMP JUMPDEST SWAP1 POP PUSH2 0x12F9 JUMP JUMPDEST POP SWAP4 POP POP SWAP1 POP SWAP1 JUMP JUMPDEST PUSH2 0x292 SWAP1 PUSH2 0x1586 JUMP JUMPDEST PUSH1 0x0 PUSH2 0x1359 DUP2 PUSH2 0xD87 JUMP JUMPDEST PUSH2 0x1362 DUP2 PUSH2 0x2DF JUMP JUMPDEST PUSH2 0x136B DUP5 PUSH2 0x2DF JUMP JUMPDEST EQ PUSH2 0x1380 JUMPI POP POP PUSH2 0xEA2 PUSH2 0x292 SWAP2 PUSH1 0x3 PUSH2 0xE6E JUMP JUMPDEST PUSH4 0x22718AD9 PUSH1 0xE2 SHL DUP3 MSTORE DUP2 SWAP1 PUSH2 0xE29 SWAP1 PUSH1 0x4 DUP4 ADD PUSH2 0x30B JUMP JUMPDEST PUSH2 0x13A1 PUSH2 0x160C JUMP JUMPDEST PUSH2 0x27C PUSH2 0x27C PUSH2 0x13B1 PUSH1 0x0 PUSH2 0xD87 JUMP JUMPDEST PUSH2 0x1649 JUMP JUMPDEST PUSH2 0x27C PUSH2 0x1399 JUMP JUMPDEST PUSH2 0x292 PUSH1 0xA PUSH2 0xECE JUMP JUMPDEST PUSH2 0x27C SWAP1 PUSH2 0x13DC PUSH2 0xF49 PUSH2 0xF44 PUSH1 0xE PUSH2 0xECE JUMP JUMPDEST PUSH2 0x27C SWAP1 PUSH1 0x13 PUSH2 0x11B0 JUMP JUMPDEST PUSH2 0x27C SWAP1 PUSH2 0x13C8 JUMP JUMPDEST PUSH2 0x292 PUSH1 0x1 PUSH2 0xC4C JUMP JUMPDEST PUSH2 0x27C SWAP2 SWAP1 CALLER PUSH2 0x16C2 JUMP JUMPDEST SWAP1 PUSH2 0x27C SWAP4 SWAP3 SWAP2 PUSH2 0x1417 DUP4 DUP4 DUP4 PUSH2 0xDBE JUMP JUMPDEST PUSH2 0x17C8 JUMP JUMPDEST PUSH2 0x43B PUSH2 0x1434 SWAP3 PUSH1 0x20 SWAP3 PUSH2 0x142E DUP2 MLOAD SWAP1 JUMP JUMPDEST SWAP5 DUP6 SWAP3 SWAP1 JUMP JUMPDEST SWAP4 DUP5 SWAP2 ADD PUSH2 0x3E4 JUMP JUMPDEST PUSH2 0x144B SWAP1 PUSH2 0x292 SWAP4 SWAP3 PUSH2 0x141C JUMP JUMPDEST SWAP1 PUSH2 0x141C JUMP JUMPDEST PUSH2 0x1471 SWAP3 SWAP2 PUSH2 0x27C SWAP2 PUSH2 0x1463 PUSH1 0x40 MLOAD SWAP1 JUMP JUMPDEST SWAP5 DUP6 SWAP3 PUSH1 0x20 DUP5 ADD SWAP3 DUP4 PUSH2 0x143D JUMP JUMPDEST SWAP1 DUP2 SUB DUP3 MSTORE SUB DUP4 PUSH2 0x58D JUMP JUMPDEST PUSH2 0x1486 DUP2 PUSH2 0x1586 JUMP JUMPDEST POP PUSH2 0x148F PUSH2 0x18EF JUMP JUMPDEST DUP1 MLOAD PUSH2 0x14A2 PUSH2 0x149E PUSH1 0x0 PUSH2 0x369 JUMP JUMPDEST SWAP2 SWAP1 JUMP JUMPDEST GT ISZERO PUSH2 0x14BA JUMPI PUSH2 0x14B4 PUSH2 0x292 SWAP3 PUSH2 0x1934 JUMP JUMPDEST SWAP1 PUSH2 0x1451 JUMP JUMPDEST POP POP PUSH2 0x292 PUSH2 0xFBD JUMP JUMPDEST PUSH2 0xB52 PUSH2 0x292 SWAP2 PUSH2 0x14D3 PUSH1 0x0 SWAP1 JUMP JUMPDEST POP PUSH1 0x10 PUSH2 0xB12 JUMP JUMPDEST PUSH2 0x292 SWAP2 PUSH2 0x14F6 PUSH2 0x14FB SWAP3 PUSH2 0x14EE PUSH1 0x0 SWAP1 JUMP JUMPDEST POP PUSH1 0x5 PUSH2 0xE6E JUMP JUMPDEST PUSH2 0xE6E JUMP JUMPDEST SLOAD PUSH1 0xFF AND SWAP1 JUMP JUMPDEST PUSH2 0x27C SWAP1 PUSH2 0x150E PUSH2 0x160C JUMP JUMPDEST PUSH1 0x0 PUSH2 0x1519 DUP2 PUSH2 0xD87 JUMP JUMPDEST PUSH2 0x1522 DUP2 PUSH2 0x2DF JUMP JUMPDEST PUSH2 0x152B DUP5 PUSH2 0x2DF JUMP JUMPDEST EQ PUSH2 0x153B JUMPI POP POP PUSH2 0x27C SWAP1 PUSH2 0x1649 JUMP JUMPDEST PUSH4 0x1E4FBDF7 PUSH1 0xE0 SHL DUP3 MSTORE DUP2 SWAP1 PUSH2 0xE29 SWAP1 PUSH1 0x4 DUP4 ADD PUSH2 0x30B JUMP JUMPDEST PUSH2 0x27C SWAP1 PUSH2 0x1502 JUMP JUMPDEST PUSH4 0x780E9D63 PUSH1 0xE0 SHL PUSH1 0x1 PUSH1 0x1 PUSH1 0xE0 SHL SUB NOT DUP3 AND EQ SWAP1 DUP2 ISZERO PUSH2 0x157C JUMPI POP SWAP1 JUMP JUMPDEST PUSH2 0x292 SWAP2 POP PUSH2 0x19C7 JUMP JUMPDEST PUSH2 0x158F DUP2 PUSH2 0x1A12 JUMP JUMPDEST SWAP1 PUSH1 0x0 SWAP1 PUSH2 0x159F PUSH2 0xF44 DUP4 PUSH2 0xD87 JUMP JUMPDEST PUSH2 0x15A8 DUP5 PUSH2 0x2DF JUMP JUMPDEST EQ PUSH2 0x15B2 JUMPI POP POP SWAP1 JUMP JUMPDEST PUSH4 0x7E273289 PUSH1 0xE0 SHL DUP3 MSTORE PUSH1 0x4 DUP3 ADD MSTORE PUSH1 0x24 SWAP1 REVERT JUMPDEST PUSH2 0x15DD PUSH2 0x292 SWAP2 PUSH2 0x15D5 PUSH1 0x0 SWAP1 JUMP JUMPDEST POP PUSH1 0x4 PUSH2 0x376 JUMP JUMPDEST PUSH2 0xECE JUMP JUMPDEST SWAP2 PUSH1 0x1 SWAP2 PUSH2 0x27C SWAP4 PUSH2 0x1A29 JUMP JUMPDEST PUSH2 0x292 SWAP3 SWAP2 SWAP1 PUSH2 0x1B55 JUMP JUMPDEST SWAP1 DUP1 DUP3 LT ISZERO PUSH2 0x1607 JUMPI POP SWAP1 JUMP JUMPDEST SWAP1 POP SWAP1 JUMP JUMPDEST PUSH2 0x1614 PUSH2 0x13BE JUMP JUMPDEST CALLER SWAP1 PUSH2 0x1628 PUSH2 0x1622 DUP4 PUSH2 0x2DF JUMP JUMPDEST SWAP2 PUSH2 0x2DF JUMP JUMPDEST SUB PUSH2 0x1630 JUMPI POP JUMP JUMPDEST PUSH4 0x118CDAA7 PUSH1 0xE0 SHL PUSH1 0x0 SWAP1 DUP2 MSTORE SWAP1 PUSH2 0xEC0 SWAP1 PUSH1 0x4 PUSH2 0x30B JUMP JUMPDEST PUSH2 0x166F PUSH2 0x1669 PUSH2 0x1659 PUSH1 0xA PUSH2 0xECE JUMP JUMPDEST PUSH2 0x1664 DUP5 PUSH1 0xA PUSH2 0xF72 JUMP JUMPDEST PUSH2 0xE65 JUMP JUMPDEST SWAP2 PUSH2 0xE65 JUMP JUMPDEST SWAP1 PUSH32 0x8BE0079C531659141344CD1FD0A4F28419497F9722A3DAAFE3B4186F6B6457E0 PUSH2 0x169A PUSH1 0x40 MLOAD SWAP1 JUMP JUMPDEST DUP1 DUP1 JUMPDEST SUB SWAP1 LOG3 JUMP JUMPDEST SWAP1 PUSH1 0xFF SWAP1 PUSH2 0xF68 JUMP JUMPDEST SWAP1 PUSH2 0x16BB PUSH2 0x292 PUSH2 0xF89 SWAP3 ISZERO ISZERO SWAP1 JUMP JUMPDEST DUP3 SLOAD PUSH2 0x16A2 JUMP JUMPDEST PUSH1 0x0 PUSH2 0x16D0 PUSH2 0xF44 DUP3 PUSH2 0xD87 JUMP JUMPDEST PUSH2 0x16D9 DUP5 PUSH2 0x2DF JUMP JUMPDEST EQ PUSH2 0x1732 JUMPI POP PUSH2 0x169D PUSH2 0x1728 PUSH2 0x1722 DUP4 PUSH2 0x1664 DUP8 PUSH2 0x171D DUP9 PUSH2 0x14F6 PUSH32 0x17307EAB39AB6107E8899845AD3D59BD9653F200F220920489CA2B5937696C31 SWAP10 PUSH1 0x5 PUSH2 0xE6E JUMP JUMPDEST PUSH2 0x16AB JUMP JUMPDEST SWAP4 PUSH2 0xE65 JUMP JUMPDEST SWAP4 PUSH2 0x2B8 PUSH1 0x40 MLOAD SWAP1 JUMP JUMPDEST PUSH4 0xB611743 PUSH1 0xE3 SHL DUP2 MSTORE DUP1 PUSH2 0xE29 DUP5 PUSH1 0x4 DUP4 ADD PUSH2 0x30B JUMP JUMPDEST SWAP1 POP MLOAD SWAP1 PUSH2 0x27C DUP3 PUSH2 0x257 JUMP JUMPDEST SWAP1 PUSH1 0x20 DUP3 DUP3 SUB SLT PUSH2 0x26A JUMPI PUSH2 0x292 SWAP2 PUSH2 0x174A JUMP JUMPDEST SWAP1 SWAP3 PUSH2 0x179C SWAP1 PUSH2 0x1795 PUSH2 0x292 SWAP7 SWAP5 PUSH2 0x178B PUSH1 0x80 DUP7 ADD SWAP8 PUSH1 0x0 DUP8 ADD SWAP1 PUSH2 0x302 JUMP JUMPDEST PUSH1 0x20 DUP6 ADD SWAP1 PUSH2 0x302 JUMP JUMPDEST PUSH1 0x40 DUP4 ADD MSTORE JUMP JUMPDEST PUSH1 0x60 DUP2 DUP5 SUB SWAP2 ADD MSTORE PUSH2 0x407 JUMP JUMPDEST RETURNDATASIZE ISZERO PUSH2 0x17C3 JUMPI PUSH2 0x17B8 RETURNDATASIZE PUSH2 0xFA1 JUMP JUMPDEST SWAP1 RETURNDATASIZE PUSH1 0x0 PUSH1 0x20 DUP5 ADD RETURNDATACOPY JUMP JUMPDEST PUSH1 0x60 SWAP1 JUMP JUMPDEST PUSH1 0x0 SWAP4 SWAP2 SWAP3 DUP4 EXTCODESIZE PUSH2 0x17DB PUSH2 0x149E DUP8 PUSH2 0x369 JUMP JUMPDEST GT PUSH2 0x17E8 JUMPI JUMPDEST POP POP POP POP POP JUMP JUMPDEST PUSH1 0x20 SWAP2 PUSH2 0x17F7 PUSH2 0x1664 DUP7 PUSH2 0xE65 JUMP JUMPDEST SWAP1 DUP7 CALLER PUSH2 0x1820 PUSH2 0x1806 PUSH1 0x40 MLOAD SWAP1 JUMP JUMPDEST SWAP8 DUP9 SWAP7 DUP8 SWAP6 DUP7 SWAP5 PUSH4 0xA85BD01 PUSH1 0xE1 SHL DUP7 MSTORE PUSH1 0x4 DUP7 ADD PUSH2 0x176B JUMP JUMPDEST SUB SWAP3 GAS CALL PUSH1 0x0 SWAP2 DUP2 PUSH2 0x18BE JUMPI JUMPDEST POP PUSH2 0x187F JUMPI POP PUSH2 0x1842 JUMP JUMPDEST CODESIZE DUP1 DUP1 DUP1 DUP1 PUSH2 0x17E1 JUMP JUMPDEST PUSH2 0x184A PUSH2 0x17A9 JUMP JUMPDEST DUP1 MLOAD PUSH2 0x1858 PUSH2 0x149E DUP6 PUSH2 0x369 JUMP JUMPDEST SUB PUSH2 0x1877 JUMPI POP PUSH4 0x32505749 PUSH1 0xE1 SHL DUP3 MSTORE DUP2 SWAP1 PUSH2 0xE29 SWAP1 PUSH1 0x4 DUP4 ADD PUSH2 0x30B JUMP JUMPDEST DUP1 MLOAD SWAP1 PUSH1 0x20 ADD REVERT JUMPDEST PUSH2 0x1899 PUSH4 0xA85BD01 PUSH1 0xE1 SHL JUMPDEST SWAP2 PUSH1 0x1 PUSH1 0x1 PUSH1 0xE0 SHL SUB NOT AND SWAP1 JUMP JUMPDEST SUB PUSH2 0x18A5 JUMPI POP POP PUSH2 0x1838 JUMP JUMPDEST PUSH4 0x32505749 PUSH1 0xE1 SHL DUP3 MSTORE DUP2 SWAP1 PUSH2 0xE29 SWAP1 PUSH1 0x4 DUP4 ADD PUSH2 0x30B JUMP JUMPDEST PUSH2 0x18E1 SWAP2 SWAP3 POP PUSH1 0x20 RETURNDATASIZE PUSH1 0x20 GT PUSH2 0x18E8 JUMPI JUMPDEST PUSH2 0x18D9 DUP2 DUP4 PUSH2 0x58D JUMP JUMPDEST DUP2 ADD SWAP1 PUSH2 0x1757 JUMP JUMPDEST SWAP1 CODESIZE PUSH2 0x182D JUMP JUMPDEST POP RETURNDATASIZE PUSH2 0x18CF JUMP JUMPDEST PUSH2 0x292 PUSH1 0x12 PUSH2 0xC4C JUMP JUMPDEST SWAP1 PUSH2 0x27C PUSH2 0x128F PUSH2 0x1909 DUP5 PUSH2 0xFA1 JUMP JUMPDEST SWAP4 PUSH2 0x5C8 JUMP JUMPDEST PUSH4 0x4E487B71 PUSH1 0xE0 SHL PUSH1 0x0 MSTORE PUSH1 0x12 PUSH1 0x4 MSTORE PUSH1 0x24 PUSH1 0x0 REVERT JUMPDEST DUP2 ISZERO PUSH2 0x192F JUMPI DIV SWAP1 JUMP JUMPDEST PUSH2 0x190F JUMP JUMPDEST PUSH2 0x193D DUP2 PUSH2 0x1BEE JUMP JUMPDEST SWAP1 PUSH2 0x194E PUSH1 0x1 SWAP3 PUSH2 0x43B PUSH1 0x1 PUSH2 0x369 JUMP JUMPDEST SWAP2 DUP1 PUSH2 0x1959 DUP5 PUSH2 0x18F9 JUMP JUMPDEST SWAP4 PUSH1 0x20 ADD DUP5 ADD SWAP1 JUMPDEST PUSH2 0x196C JUMPI JUMPDEST POP POP POP SWAP1 JUMP JUMPDEST DUP2 ISZERO PUSH2 0x19C2 JUMPI PUSH2 0x19A6 SWAP1 PUSH1 0x0 NOT ADD SWAP3 PUSH16 0x181899199A1A9B1B9C1CB0B131B232B3 PUSH1 0x81 SHL PUSH1 0xA DUP3 MOD BYTE DUP5 MSTORE8 PUSH2 0x19A0 PUSH1 0xA PUSH2 0x369 JUMP JUMPDEST SWAP1 PUSH2 0x1925 JUMP JUMPDEST SWAP1 DUP2 PUSH2 0x19B5 PUSH2 0x149E PUSH1 0x0 PUSH2 0x369 JUMP JUMPDEST EQ PUSH2 0x19C2 JUMPI SWAP1 SWAP2 DUP2 PUSH2 0x1961 JUMP JUMPDEST PUSH2 0x1966 JUMP JUMPDEST PUSH4 0x80AC58CD PUSH1 0xE0 SHL PUSH1 0x1 PUSH1 0x1 PUSH1 0xE0 SHL SUB NOT DUP3 AND EQ SWAP1 DUP2 ISZERO PUSH2 0x19F7 JUMPI JUMPDEST DUP2 ISZERO PUSH2 0x19ED JUMPI POP SWAP1 JUMP JUMPDEST PUSH2 0x292 SWAP2 POP PUSH2 0x1D90 JUMP JUMPDEST PUSH1 0x1 PUSH1 0x1 PUSH1 0xE0 SHL SUB NOT DUP2 AND PUSH4 0x5B5E139F PUSH1 0xE0 SHL EQ SWAP2 POP PUSH2 0x19E3 JUMP JUMPDEST PUSH2 0x15DD PUSH2 0x292 SWAP2 PUSH2 0x1A21 PUSH1 0x0 SWAP1 JUMP JUMPDEST POP PUSH1 0x2 PUSH2 0x376 JUMP JUMPDEST SWAP3 SWAP2 SWAP1 SWAP2 DUP1 DUP2 ISZERO PUSH2 0x1B37 JUMPI JUMPDEST PUSH2 0x1A50 JUMPI JUMPDEST POP POP SWAP1 PUSH2 0x1A4B PUSH2 0x27C SWAP3 PUSH1 0x4 PUSH2 0x376 JUMP JUMPDEST PUSH2 0xF72 JUMP JUMPDEST PUSH2 0x1A59 DUP4 PUSH2 0x1586 JUMP JUMPDEST SWAP2 PUSH1 0x0 SWAP1 PUSH2 0x1A69 PUSH2 0xF44 DUP4 PUSH2 0xD87 JUMP JUMPDEST PUSH2 0x1A72 DUP3 PUSH2 0x2DF JUMP JUMPDEST EQ ISZERO DUP1 PUSH2 0x1B1D JUMPI JUMPDEST DUP1 PUSH2 0x1B06 JUMPI JUMPDEST PUSH2 0x1AED JUMPI POP POP SWAP2 PUSH2 0x1A4B SWAP2 PUSH2 0x27C SWAP5 SWAP4 PUSH2 0x1A9D JUMPI JUMPDEST POP SWAP2 SWAP3 PUSH2 0x1A3A JUMP JUMPDEST PUSH2 0x1AA6 SWAP1 PUSH2 0xE65 JUMP JUMPDEST PUSH2 0x1AAF DUP5 PUSH2 0xE65 JUMP JUMPDEST PUSH2 0x1AB8 DUP4 PUSH2 0x369 JUMP JUMPDEST SWAP2 PUSH32 0x8C5BE1E5EBEC7D5BD14F71427D1E84F3DD0314C0F7B2291E5B200AC8C7C3B925 PUSH2 0x1AE3 PUSH1 0x40 MLOAD SWAP1 JUMP JUMPDEST PUSH1 0x0 SWAP1 LOG4 CODESIZE PUSH2 0x1A95 JUMP JUMPDEST PUSH4 0xA9FBF51F PUSH1 0xE0 SHL DUP3 MSTORE DUP2 SWAP1 PUSH2 0xE29 SWAP1 PUSH1 0x4 DUP4 ADD PUSH2 0x30B JUMP JUMPDEST POP PUSH2 0x1B18 PUSH2 0x1B14 DUP3 DUP7 PUSH2 0x14DB JUMP JUMPDEST ISZERO SWAP1 JUMP JUMPDEST PUSH2 0x1A80 JUMP JUMPDEST POP PUSH2 0x1B27 DUP2 PUSH2 0x2DF JUMP JUMPDEST PUSH2 0x1B30 DUP6 PUSH2 0x2DF JUMP JUMPDEST EQ ISZERO PUSH2 0x1A7A JUMP JUMPDEST POP PUSH2 0x1B45 PUSH2 0xF44 PUSH1 0x0 PUSH2 0xD87 JUMP JUMPDEST PUSH2 0x1B4E DUP4 PUSH2 0x2DF JUMP JUMPDEST EQ ISZERO PUSH2 0x1A35 JUMP JUMPDEST SWAP1 SWAP2 PUSH2 0x1B62 SWAP1 DUP4 DUP4 PUSH2 0x1DC5 JUMP JUMPDEST SWAP2 PUSH2 0x1B90 PUSH2 0x1B70 PUSH1 0x0 PUSH2 0xD87 JUMP JUMPDEST PUSH2 0x1B79 DUP2 PUSH2 0x2DF JUMP JUMPDEST PUSH2 0x1B82 DUP7 PUSH2 0x2DF JUMP JUMPDEST SUB PUSH2 0x1BCD JUMPI PUSH2 0xF44 DUP4 PUSH2 0x1FB2 JUMP JUMPDEST PUSH2 0x1B99 DUP4 PUSH2 0x2DF JUMP JUMPDEST SUB PUSH2 0x1BA8 JUMPI PUSH2 0x292 SWAP2 POP PUSH2 0x2051 JUMP JUMPDEST PUSH2 0x1BB1 DUP3 PUSH2 0x2DF JUMP JUMPDEST PUSH2 0x1BBA DUP5 PUSH2 0x2DF JUMP JUMPDEST SUB PUSH2 0x1BC4 JUMPI POP POP SWAP1 JUMP JUMPDEST PUSH2 0x292 SWAP2 PUSH2 0x1FD4 JUMP JUMPDEST PUSH2 0x1BD6 DUP5 PUSH2 0x2DF JUMP JUMPDEST PUSH2 0x1BDF DUP7 PUSH2 0x2DF JUMP JUMPDEST EQ PUSH2 0x2DF JUMPI PUSH2 0xF44 DUP4 DUP7 PUSH2 0x1EF9 JUMP JUMPDEST PUSH2 0x1BF8 PUSH1 0x0 PUSH2 0x369 JUMP JUMPDEST SWAP1 PUSH27 0x184F03E93FF9F4DAA797ED6E38ED64BF6A1F010000000000000000 PUSH2 0x1C1E DUP2 PUSH2 0x369 JUMP JUMPDEST DUP3 LT ISZERO PUSH2 0x1D6E JUMPI JUMPDEST POP PUSH14 0x4EE2D6D415B85ACEF8100000000 PUSH2 0x1C3F DUP2 PUSH2 0x369 JUMP JUMPDEST DUP3 LT ISZERO PUSH2 0x1D4C JUMPI JUMPDEST POP PUSH7 0x2386F26FC10000 PUSH2 0x1C59 DUP2 PUSH2 0x369 JUMP JUMPDEST DUP3 LT ISZERO PUSH2 0x1D2A JUMPI JUMPDEST POP PUSH4 0x5F5E100 PUSH2 0x1C70 DUP2 PUSH2 0x369 JUMP JUMPDEST DUP3 LT ISZERO PUSH2 0x1D08 JUMPI JUMPDEST POP PUSH2 0x2710 PUSH2 0x1C85 DUP2 PUSH2 0x369 JUMP JUMPDEST DUP3 LT ISZERO PUSH2 0x1CE6 JUMPI JUMPDEST POP PUSH2 0x1C98 PUSH1 0x64 PUSH2 0x369 JUMP JUMPDEST DUP2 LT ISZERO PUSH2 0x1CC4 JUMPI JUMPDEST PUSH2 0x1CAD PUSH2 0x149E PUSH1 0xA PUSH2 0x369 JUMP JUMPDEST LT ISZERO PUSH2 0x1CB6 JUMPI SWAP1 JUMP JUMPDEST PUSH2 0x292 SWAP1 PUSH2 0x43B PUSH1 0x1 PUSH2 0x369 JUMP JUMPDEST PUSH2 0x1CD5 PUSH2 0x1CE0 SWAP2 PUSH2 0x19A0 PUSH1 0x64 PUSH2 0x369 JUMP JUMPDEST SWAP2 PUSH2 0x43B PUSH1 0x2 PUSH2 0x369 JUMP JUMPDEST SWAP1 PUSH2 0x1CA0 JUMP JUMPDEST PUSH2 0x1D01 SWAP2 PUSH2 0x19A0 PUSH2 0x1CF6 SWAP3 PUSH2 0x369 JUMP JUMPDEST SWAP2 PUSH2 0x43B PUSH1 0x4 PUSH2 0x369 JUMP JUMPDEST SWAP1 CODESIZE PUSH2 0x1C8D JUMP JUMPDEST PUSH2 0x1D23 SWAP2 PUSH2 0x19A0 PUSH2 0x1D18 SWAP3 PUSH2 0x369 JUMP JUMPDEST SWAP2 PUSH2 0x43B PUSH1 0x8 PUSH2 0x369 JUMP JUMPDEST SWAP1 CODESIZE PUSH2 0x1C78 JUMP JUMPDEST PUSH2 0x1D45 SWAP2 PUSH2 0x19A0 PUSH2 0x1D3A SWAP3 PUSH2 0x369 JUMP JUMPDEST SWAP2 PUSH2 0x43B PUSH1 0x10 PUSH2 0x369 JUMP JUMPDEST SWAP1 CODESIZE PUSH2 0x1C61 JUMP JUMPDEST PUSH2 0x1D67 SWAP2 PUSH2 0x19A0 PUSH2 0x1D5C SWAP3 PUSH2 0x369 JUMP JUMPDEST SWAP2 PUSH2 0x43B PUSH1 0x20 PUSH2 0x369 JUMP JUMPDEST SWAP1 CODESIZE PUSH2 0x1C47 JUMP JUMPDEST PUSH2 0x1D89 SWAP2 PUSH2 0x19A0 PUSH2 0x1D7E SWAP3 PUSH2 0x369 JUMP JUMPDEST SWAP2 PUSH2 0x43B PUSH1 0x40 PUSH2 0x369 JUMP JUMPDEST SWAP1 CODESIZE PUSH2 0x1C26 JUMP JUMPDEST PUSH2 0x1DA0 PUSH4 0x1FFC9A7 PUSH1 0xE0 SHL PUSH2 0x188B JUMP JUMPDEST EQ SWAP1 JUMP JUMPDEST SWAP1 PUSH1 0x0 NOT SWAP1 PUSH2 0xF68 JUMP JUMPDEST SWAP1 PUSH2 0x1DBE PUSH2 0x292 PUSH2 0xF89 SWAP3 PUSH2 0x369 JUMP JUMPDEST DUP3 SLOAD PUSH2 0x1DA4 JUMP JUMPDEST SWAP1 PUSH2 0x1E18 PUSH2 0x1DD2 DUP3 PUSH2 0x1A12 JUMP JUMPDEST SWAP4 PUSH1 0x0 PUSH2 0x1DDE DUP2 PUSH2 0xD87 JUMP JUMPDEST SWAP2 DUP5 PUSH2 0x1DE9 DUP5 PUSH2 0x2DF JUMP JUMPDEST PUSH2 0x1DF2 DUP4 PUSH2 0x2DF JUMP JUMPDEST SUB PUSH2 0x1EE8 JUMPI JUMPDEST POP POP PUSH2 0x1E03 DUP3 PUSH2 0x2DF JUMP JUMPDEST PUSH2 0x1E0C DUP8 PUSH2 0x2DF JUMP JUMPDEST SUB PUSH2 0x1EAD JUMPI JUMPDEST POP PUSH2 0x2DF JUMP JUMPDEST PUSH2 0x1E21 DUP4 PUSH2 0x2DF JUMP JUMPDEST SUB PUSH2 0x1E7D JUMPI JUMPDEST PUSH2 0x1E36 DUP3 PUSH2 0x1A4B DUP4 PUSH1 0x2 PUSH2 0x376 JUMP JUMPDEST PUSH2 0x1E4B PUSH2 0x1E45 PUSH2 0x1722 DUP6 PUSH2 0xE65 JUMP JUMPDEST SWAP2 PUSH2 0x369 JUMP JUMPDEST SWAP2 PUSH32 0xDDF252AD1BE2C89B69C2B068FC378DAA952BA7F163C4A11628F55A4DF523B3EF PUSH2 0x1E76 PUSH1 0x40 MLOAD SWAP1 JUMP JUMPDEST PUSH1 0x0 SWAP1 LOG4 SWAP1 JUMP JUMPDEST PUSH2 0x1EA8 PUSH2 0x1E8A PUSH1 0x1 PUSH2 0x369 JUMP JUMPDEST PUSH2 0x1EA2 PUSH2 0x1E98 DUP6 PUSH1 0x3 PUSH2 0xE6E JUMP JUMPDEST SWAP2 PUSH2 0x43B DUP4 PUSH2 0xC84 JUMP JUMPDEST SWAP1 PUSH2 0x1DAE JUMP JUMPDEST PUSH2 0x1E27 JUMP JUMPDEST PUSH2 0x1EB9 SWAP1 DUP3 DUP6 DUP2 PUSH2 0x1A29 JUMP JUMPDEST PUSH2 0x1EE2 PUSH2 0x1EC6 PUSH1 0x1 PUSH2 0x369 JUMP JUMPDEST PUSH2 0x1EA2 PUSH2 0x1ED4 DUP9 PUSH1 0x3 PUSH2 0xE6E JUMP JUMPDEST SWAP2 PUSH2 0x1EDE DUP4 PUSH2 0xC84 JUMP JUMPDEST SUB SWAP1 JUMP JUMPDEST CODESIZE PUSH2 0x1E12 JUMP JUMPDEST PUSH2 0x1EF2 SWAP2 DUP9 PUSH2 0x20A4 JUMP JUMPDEST CODESIZE DUP5 PUSH2 0x1DF8 JUMP JUMPDEST PUSH2 0x1F38 PUSH2 0x27C SWAP3 PUSH2 0xE9D PUSH1 0x0 SWAP4 PUSH2 0x1F3D DUP6 PUSH2 0x1F38 PUSH2 0x1F16 DUP5 PUSH2 0x134E JUMP JUMPDEST SWAP6 PUSH1 0x7 DUP6 PUSH2 0x1F27 PUSH2 0xEA2 DUP5 DUP5 PUSH2 0x376 JUMP JUMPDEST DUP10 DUP1 DUP3 SUB PUSH2 0x1F44 JUMPI JUMPDEST POP POP POP PUSH2 0x376 JUMP JUMPDEST PUSH2 0x1065 JUMP JUMPDEST PUSH1 0x6 PUSH2 0xE6E JUMP JUMPDEST PUSH2 0xE9D PUSH2 0x1F76 DUP5 PUSH2 0x1F71 DUP6 PUSH2 0x1F67 PUSH2 0xEA2 PUSH2 0x1F71 SWAP8 PUSH2 0xE9D PUSH2 0x1F7C SWAP12 PUSH1 0x6 PUSH2 0xE6E JUMP JUMPDEST SWAP5 DUP6 SWAP4 PUSH1 0x6 PUSH2 0xE6E JUMP JUMPDEST PUSH2 0x1DAE JUMP JUMPDEST DUP5 PUSH2 0x376 JUMP JUMPDEST DUP6 CODESIZE DUP10 PUSH2 0x1F30 JUMP JUMPDEST SWAP1 DUP2 SLOAD SWAP2 PUSH9 0x10000000000000000 DUP4 LT ISZERO PUSH2 0x5AF JUMPI DUP3 PUSH2 0x1FAC SWAP2 PUSH1 0x1 PUSH2 0x27C SWAP6 ADD DUP2 SSTORE PUSH2 0xB12 JUMP JUMPDEST SWAP1 PUSH2 0x104C JUMP JUMPDEST PUSH2 0x27C SWAP1 PUSH2 0x1FCD PUSH2 0x1FC2 PUSH1 0x8 SLOAD SWAP1 JUMP JUMPDEST PUSH2 0x1F71 DUP4 PUSH1 0x9 PUSH2 0x376 JUMP JUMPDEST PUSH1 0x8 PUSH2 0x1F84 JUMP JUMPDEST PUSH2 0x1F71 DUP3 PUSH2 0x200C PUSH2 0x27C SWAP5 PUSH2 0x1F71 PUSH2 0xE9D SWAP6 PUSH2 0x2002 PUSH2 0x1FF2 DUP3 PUSH2 0x134E JUMP JUMPDEST PUSH2 0x1FFC PUSH1 0x1 PUSH2 0x369 JUMP JUMPDEST SWAP1 PUSH2 0x1242 JUMP JUMPDEST SWAP7 DUP8 SWAP2 PUSH1 0x6 PUSH2 0xE6E JUMP JUMPDEST PUSH1 0x7 PUSH2 0x376 JUMP JUMPDEST PUSH4 0x4E487B71 PUSH1 0xE0 SHL PUSH1 0x0 MSTORE PUSH1 0x31 PUSH1 0x4 MSTORE PUSH1 0x24 PUSH1 0x0 REVERT JUMPDEST DUP1 SLOAD DUP1 ISZERO PUSH2 0x204C JUMPI PUSH1 0x0 NOT ADD SWAP1 PUSH2 0x2049 PUSH2 0x2043 DUP4 DUP4 PUSH2 0xB12 JUMP JUMPDEST SWAP1 PUSH2 0x1065 JUMP JUMPDEST SSTORE JUMP JUMPDEST PUSH2 0x2013 JUMP JUMPDEST PUSH2 0x209F PUSH2 0x27C SWAP2 PUSH2 0x292 PUSH1 0x0 PUSH2 0x1F38 PUSH1 0x8 SWAP4 PUSH2 0x206E PUSH2 0x1FF2 DUP7 SLOAD SWAP1 JUMP JUMPDEST PUSH2 0xE9D PUSH1 0x9 SWAP2 PUSH2 0x1F71 PUSH2 0x2091 PUSH2 0xB52 PUSH2 0x208A PUSH2 0xEA2 DUP9 DUP9 PUSH2 0x376 JUMP JUMPDEST SWAP4 DUP12 PUSH2 0xB12 JUMP JUMPDEST PUSH2 0x1F76 DUP2 PUSH2 0x1FAC DUP6 DUP14 PUSH2 0xB12 JUMP JUMPDEST PUSH2 0x2029 JUMP JUMPDEST SWAP1 PUSH2 0x20B3 PUSH2 0x1B14 DUP5 DUP4 DUP6 PUSH2 0x2104 JUMP JUMPDEST PUSH2 0x20BC JUMPI POP POP POP JUMP JUMPDEST PUSH1 0x0 SWAP3 DUP4 SWAP3 PUSH2 0x20D0 PUSH2 0x1622 PUSH2 0xF44 DUP7 PUSH2 0xD87 JUMP JUMPDEST SUB PUSH2 0x20ED JUMPI PUSH4 0x7E273289 PUSH1 0xE0 SHL DUP4 MSTORE PUSH1 0x4 DUP4 ADD MSTORE POP PUSH1 0x24 DUP2 ADD SUB SWAP1 REVERT JUMPDEST PUSH4 0x177E802F PUSH1 0xE0 SHL DUP4 MSTORE PUSH2 0xE29 SWAP2 PUSH1 0x4 DUP5 ADD PUSH2 0xE46 JUMP JUMPDEST SWAP1 PUSH2 0x2112 PUSH2 0xF44 PUSH1 0x0 PUSH2 0xD87 JUMP JUMPDEST PUSH2 0x211B DUP3 PUSH2 0x2DF JUMP JUMPDEST EQ ISZERO SWAP3 DUP4 PUSH2 0x2129 JUMPI POP POP POP SWAP1 JUMP JUMPDEST SWAP1 SWAP2 SWAP3 POP PUSH2 0x2136 DUP3 PUSH2 0x2DF JUMP JUMPDEST PUSH2 0x213F DUP5 PUSH2 0x2DF JUMP JUMPDEST EQ SWAP3 DUP4 ISZERO PUSH2 0x217A JUMPI JUMPDEST POP DUP3 ISZERO PUSH2 0x215A JUMPI JUMPDEST POP POP CODESIZE DUP1 DUP1 PUSH2 0x1966 JUMP JUMPDEST PUSH2 0x2172 SWAP2 SWAP3 POP PUSH2 0x216C PUSH2 0x1622 SWAP2 PUSH2 0x15C6 JUMP JUMPDEST SWAP3 PUSH2 0x2DF JUMP JUMPDEST EQ CODESIZE DUP1 PUSH2 0x2150 JUMP JUMPDEST PUSH2 0x2187 SWAP2 SWAP4 POP DUP3 SWAP1 PUSH2 0x14DB JUMP JUMPDEST SWAP2 CODESIZE PUSH2 0x2148 JUMP INVALID LOG2 PUSH5 0x6970667358 0x22 SLT KECCAK256 0xC4 LT DUP9 CALLCODE 0xDC CALLDATASIZE 0xE PUSH0 0xF7 0xD3 DUP16 STOP BALANCE 0xBD 0xB1 OR 0xAC CREATE 0xAB 0xEF CALLCODE 0xAE 0x4F 0xC4 PUSH27 0x3E18F48317177764736F6C634300081C0033000000000000000000 "},"methodIdentifiers":{"approve(address,uint256)":"095ea7b3","availableTokens(uint256)":"ad64d068","balanceOf(address)":"70a08231","baseURI()":"6c0360eb","creator()":"02d05d3f","creatorFeePercent()":"53613dd3","currentSupply()":"771282f6","description()":"7284e416","getAllAvailableTokens()":"12ea5c7e","getApproved(uint256)":"081812fc","getAvailableTokenByIndex(uint256)":"cf6a68bf","getAvailableTokensCount()":"2dcd52f2","getAvailableTokensPaginated(uint256,uint256)":"5eba096b","initialPrice()":"1d0806ae","isApprovedForAll(address,address)":"e985e9c5","maxSupply()":"d5abeb01","name()":"06fdde03","onERC721Received(address,address,uint256,bytes)":"150b7a02","owner()":"8da5cb5b","ownerOf(uint256)":"6352211e","renounceOwnership()":"715018a6","safeTransferFrom(address,address,uint256)":"42842e0e","safeTransferFrom(address,address,uint256,bytes)":"b88d4fde","setApprovalForAll(address,bool)":"a22cb465","setBaseURI(string)":"55f804b3","setCreator(address)":"3f516018","setDescription(string)":"90c3f38f","supportsInterface(bytes4)":"01ffc9a7","symbol()":"95d89b41","tokenByIndex(uint256)":"4f6ccce7","tokenIndex(uint256)":"0583e9f8","tokenOfOwnerByIndex(address,uint256)":"2f745c59","tokenURI(uint256)":"c87b56dd","totalSupply()":"18160ddd","transferFrom(address,address,uint256)":"23b872dd","transferOwnership(address)":"f2fde38b"}}}}}