{"src/examples/FlipNFT.sol":{"FlipNFT":{"abi":[{"inputs":[{"internalType":"address","name":"_feeVault","type":"address"},{"internalType":"string","name":"_name","type":"string"},{"internalType":"string","name":"_symbol","type":"string"},{"internalType":"uint256","name":"_initialPrice","type":"uint256"},{"internalType":"uint256","name":"_maxSupply","type":"uint256"},{"internalType":"uint256","name":"_creatorFeePercent","type":"uint256"}],"stateMutability":"nonpayable","type":"constructor"},{"inputs":[],"name":"ERC721EnumerableForbiddenBatchMint","type":"error"},{"inputs":[{"internalType":"address","name":"sender","type":"address"},{"internalType":"uint256","name":"tokenId","type":"uint256"},{"internalType":"address","name":"owner","type":"address"}],"name":"ERC721IncorrectOwner","type":"error"},{"inputs":[{"internalType":"address","name":"operator","type":"address"},{"internalType":"uint256","name":"tokenId","type":"uint256"}],"name":"ERC721InsufficientApproval","type":"error"},{"inputs":[{"internalType":"address","name":"approver","type":"address"}],"name":"ERC721InvalidApprover","type":"error"},{"inputs":[{"internalType":"address","name":"operator","type":"address"}],"name":"ERC721InvalidOperator","type":"error"},{"inputs":[{"internalType":"address","name":"owner","type":"address"}],"name":"ERC721InvalidOwner","type":"error"},{"inputs":[{"internalType":"address","name":"receiver","type":"address"}],"name":"ERC721InvalidReceiver","type":"error"},{"inputs":[{"internalType":"address","name":"sender","type":"address"}],"name":"ERC721InvalidSender","type":"error"},{"inputs":[{"internalType":"uint256","name":"tokenId","type":"uint256"}],"name":"ERC721NonexistentToken","type":"error"},{"inputs":[{"internalType":"address","name":"owner","type":"address"},{"internalType":"uint256","name":"index","type":"uint256"}],"name":"ERC721OutOfBoundsIndex","type":"error"},{"inputs":[{"internalType":"address","name":"owner","type":"address"}],"name":"OwnableInvalidOwner","type":"error"},{"inputs":[{"internalType":"address","name":"account","type":"address"}],"name":"OwnableUnauthorizedAccount","type":"error"},{"anonymous":false,"inputs":[{"indexed":true,"internalType":"address","name":"owner","type":"address"},{"indexed":true,"internalType":"address","name":"approved","type":"address"},{"indexed":true,"internalType":"uint256","name":"tokenId","type":"uint256"}],"name":"Approval","type":"event"},{"anonymous":false,"inputs":[{"indexed":true,"internalType":"address","name":"owner","type":"address"},{"indexed":true,"internalType":"address","name":"operator","type":"address"},{"indexed":false,"internalType":"bool","name":"approved","type":"bool"}],"name":"ApprovalForAll","type":"event"},{"anonymous":false,"inputs":[{"indexed":true,"internalType":"address","name":"previousOwner","type":"address"},{"indexed":true,"internalType":"address","name":"newOwner","type":"address"}],"name":"OwnershipTransferred","type":"event"},{"anonymous":false,"inputs":[{"indexed":true,"internalType":"address","name":"buyer","type":"address"},{"indexed":true,"internalType":"uint256","name":"tokenId","type":"uint256"},{"indexed":false,"internalType":"uint256","name":"price","type":"uint256"},{"indexed":false,"internalType":"uint256","name":"creatorFee","type":"uint256"}],"name":"TokenBought","type":"event"},{"anonymous":false,"inputs":[{"indexed":true,"internalType":"address","name":"to","type":"address"},{"indexed":true,"internalType":"uint256","name":"tokenId","type":"uint256"},{"indexed":false,"internalType":"uint256","name":"price","type":"uint256"},{"indexed":false,"internalType":"uint256","name":"creatorFee","type":"uint256"}],"name":"TokenMinted","type":"event"},{"anonymous":false,"inputs":[{"indexed":true,"internalType":"address","name":"seller","type":"address"},{"indexed":true,"internalType":"uint256","name":"tokenId","type":"uint256"},{"indexed":false,"internalType":"uint256","name":"price","type":"uint256"},{"indexed":false,"internalType":"uint256","name":"creatorFee","type":"uint256"}],"name":"TokenSold","type":"event"},{"anonymous":false,"inputs":[{"indexed":true,"internalType":"address","name":"from","type":"address"},{"indexed":true,"internalType":"address","name":"to","type":"address"},{"indexed":true,"internalType":"uint256","name":"tokenId","type":"uint256"}],"name":"Transfer","type":"event"},{"inputs":[{"internalType":"address","name":"to","type":"address"},{"internalType":"uint256","name":"tokenId","type":"uint256"}],"name":"approve","outputs":[],"stateMutability":"nonpayable","type":"function"},{"inputs":[{"internalType":"uint256","name":"","type":"uint256"}],"name":"availableTokens","outputs":[{"internalType":"uint256","name":"","type":"uint256"}],"stateMutability":"view","type":"function"},{"inputs":[{"internalType":"address","name":"owner","type":"address"}],"name":"balanceOf","outputs":[{"internalType":"uint256","name":"","type":"uint256"}],"stateMutability":"view","type":"function"},{"inputs":[],"name":"baseURI","outputs":[{"internalType":"string","name":"","type":"string"}],"stateMutability":"view","type":"function"},{"inputs":[{"internalType":"uint256","name":"tokenId","type":"uint256"}],"name":"buy","outputs":[],"stateMutability":"payable","type":"function"},{"inputs":[{"internalType":"uint256","name":"supply","type":"uint256"}],"name":"calculatePrice","outputs":[{"internalType":"uint256","name":"","type":"uint256"}],"stateMutability":"view","type":"function"},{"inputs":[],"name":"contractURI","outputs":[{"internalType":"string","name":"","type":"string"}],"stateMutability":"view","type":"function"},{"inputs":[],"name":"creator","outputs":[{"internalType":"address","name":"","type":"address"}],"stateMutability":"view","type":"function"},{"inputs":[],"name":"creatorFeePercent","outputs":[{"internalType":"uint256","name":"","type":"uint256"}],"stateMutability":"view","type":"function"},{"inputs":[],"name":"currentSupply","outputs":[{"internalType":"uint256","name":"","type":"uint256"}],"stateMutability":"view","type":"function"},{"inputs":[],"name":"feeVault","outputs":[{"internalType":"contract FeeVault","name":"","type":"address"}],"stateMutability":"view","type":"function"},{"inputs":[],"name":"getAllAvailableTokens","outputs":[{"internalType":"uint256[]","name":"","type":"uint256[]"}],"stateMutability":"view","type":"function"},{"inputs":[{"internalType":"uint256","name":"tokenId","type":"uint256"}],"name":"getApproved","outputs":[{"internalType":"address","name":"","type":"address"}],"stateMutability":"view","type":"function"},{"inputs":[{"internalType":"uint256","name":"index","type":"uint256"}],"name":"getAvailableTokenByIndex","outputs":[{"internalType":"uint256","name":"","type":"uint256"}],"stateMutability":"view","type":"function"},{"inputs":[],"name":"getAvailableTokensCount","outputs":[{"internalType":"uint256","name":"","type":"uint256"}],"stateMutability":"view","type":"function"},{"inputs":[{"internalType":"uint256","name":"start","type":"uint256"},{"internalType":"uint256","name":"limit","type":"uint256"}],"name":"getAvailableTokensPaginated","outputs":[{"internalType":"uint256[]","name":"","type":"uint256[]"}],"stateMutability":"view","type":"function"},{"inputs":[],"name":"getBuyPrice","outputs":[{"internalType":"uint256","name":"","type":"uint256"}],"stateMutability":"view","type":"function"},{"inputs":[],"name":"getBuyPriceAfterFee","outputs":[{"internalType":"uint256","name":"","type":"uint256"}],"stateMutability":"view","type":"function"},{"inputs":[],"name":"getSellPrice","outputs":[{"internalType":"uint256","name":"","type":"uint256"}],"stateMutability":"view","type":"function"},{"inputs":[],"name":"getSellPriceAfterFee","outputs":[{"internalType":"uint256","name":"","type":"uint256"}],"stateMutability":"view","type":"function"},{"inputs":[],"name":"initialPrice","outputs":[{"internalType":"uint256","name":"","type":"uint256"}],"stateMutability":"view","type":"function"},{"inputs":[{"internalType":"address","name":"owner","type":"address"},{"internalType":"address","name":"operator","type":"address"}],"name":"isApprovedForAll","outputs":[{"internalType":"bool","name":"","type":"bool"}],"stateMutability":"view","type":"function"},{"inputs":[{"internalType":"uint256","name":"tokenId","type":"uint256"}],"name":"isOnSale","outputs":[{"internalType":"bool","name":"","type":"bool"}],"stateMutability":"view","type":"function"},{"inputs":[],"name":"maxSupply","outputs":[{"internalType":"uint256","name":"","type":"uint256"}],"stateMutability":"view","type":"function"},{"inputs":[],"name":"mint","outputs":[{"internalType":"uint256","name":"","type":"uint256"}],"stateMutability":"payable","type":"function"},{"inputs":[],"name":"name","outputs":[{"internalType":"string","name":"","type":"string"}],"stateMutability":"view","type":"function"},{"inputs":[{"internalType":"address","name":"","type":"address"},{"internalType":"address","name":"","type":"address"},{"internalType":"uint256","name":"","type":"uint256"},{"internalType":"bytes","name":"","type":"bytes"}],"name":"onERC721Received","outputs":[{"internalType":"bytes4","name":"","type":"bytes4"}],"stateMutability":"nonpayable","type":"function"},{"inputs":[],"name":"owner","outputs":[{"internalType":"address","name":"","type":"address"}],"stateMutability":"view","type":"function"},{"inputs":[{"internalType":"uint256","name":"tokenId","type":"uint256"}],"name":"ownerOf","outputs":[{"internalType":"address","name":"","type":"address"}],"stateMutability":"view","type":"function"},{"inputs":[],"name":"renounceOwnership","outputs":[],"stateMutability":"nonpayable","type":"function"},{"inputs":[{"internalType":"address","name":"from","type":"address"},{"internalType":"address","name":"to","type":"address"},{"internalType":"uint256","name":"tokenId","type":"uint256"}],"name":"safeTransferFrom","outputs":[],"stateMutability":"nonpayable","type":"function"},{"inputs":[{"internalType":"address","name":"from","type":"address"},{"internalType":"address","name":"to","type":"address"},{"internalType":"uint256","name":"tokenId","type":"uint256"},{"internalType":"bytes","name":"data","type":"bytes"}],"name":"safeTransferFrom","outputs":[],"stateMutability":"nonpayable","type":"function"},{"inputs":[{"internalType":"uint256","name":"tokenId","type":"uint256"}],"name":"sell","outputs":[],"stateMutability":"nonpayable","type":"function"},{"inputs":[{"internalType":"address","name":"operator","type":"address"},{"internalType":"bool","name":"approved","type":"bool"}],"name":"setApprovalForAll","outputs":[],"stateMutability":"nonpayable","type":"function"},{"inputs":[{"internalType":"string","name":"_baseURI","type":"string"}],"name":"setBaseURI","outputs":[],"stateMutability":"nonpayable","type":"function"},{"inputs":[{"internalType":"address","name":"_creator","type":"address"}],"name":"setCreator","outputs":[],"stateMutability":"nonpayable","type":"function"},{"inputs":[{"internalType":"bytes4","name":"interfaceId","type":"bytes4"}],"name":"supportsInterface","outputs":[{"internalType":"bool","name":"","type":"bool"}],"stateMutability":"view","type":"function"},{"inputs":[],"name":"symbol","outputs":[{"internalType":"string","name":"","type":"string"}],"stateMutability":"view","type":"function"},{"inputs":[{"internalType":"uint256","name":"index","type":"uint256"}],"name":"tokenByIndex","outputs":[{"internalType":"uint256","name":"","type":"uint256"}],"stateMutability":"view","type":"function"},{"inputs":[{"internalType":"uint256","name":"","type":"uint256"}],"name":"tokenIndex","outputs":[{"internalType":"uint256","name":"","type":"uint256"}],"stateMutability":"view","type":"function"},{"inputs":[{"internalType":"address","name":"owner","type":"address"},{"internalType":"uint256","name":"index","type":"uint256"}],"name":"tokenOfOwnerByIndex","outputs":[{"internalType":"uint256","name":"","type":"uint256"}],"stateMutability":"view","type":"function"},{"inputs":[{"internalType":"uint256","name":"","type":"uint256"}],"name":"tokenSeed","outputs":[{"internalType":"uint256","name":"","type":"uint256"}],"stateMutability":"view","type":"function"},{"inputs":[{"internalType":"uint256","name":"tokenId","type":"uint256"}],"name":"tokenURI","outputs":[{"internalType":"string","name":"","type":"string"}],"stateMutability":"view","type":"function"},{"inputs":[],"name":"totalSupply","outputs":[{"internalType":"uint256","name":"","type":"uint256"}],"stateMutability":"view","type":"function"},{"inputs":[{"internalType":"address","name":"from","type":"address"},{"internalType":"address","name":"to","type":"address"},{"internalType":"uint256","name":"tokenId","type":"uint256"}],"name":"transferFrom","outputs":[],"stateMutability":"nonpayable","type":"function"},{"inputs":[{"internalType":"address","name":"newOwner","type":"address"}],"name":"transferOwnership","outputs":[],"stateMutability":"nonpayable","type":"function"},{"stateMutability":"payable","type":"receive"}],"evm":{"bytecode":{"linkReferences":{},"object":"608060405234610031576100206100146101d3565b949390939291926101f9565b604051614027610c19823961402790f35b600080fd5b634e487b7160e01b600052604160045260246000fd5b90601f01601f191681019081106001600160401b0382111761006d57604052565b610036565b9061008661007f60405190565b928361004c565b565b6001600160a01b031690565b90565b6001600160a01b0381165b0361003157565b9050519061008682610097565b6001600160401b03811161006d57602090601f01601f19160190565b60005b8381106100e55750506000910152565b81810151838201526020016100d5565b9092919261010a610105826100b6565b610072565b9381855281830111610031576100869160208501906100d2565b9080601f83011215610031578151610094926020016100f5565b806100a2565b905051906100868261013e565b909160c0828403126100315761016783836100a9565b60208301519093906001600160401b0381116100315781610189918501610124565b60408401519093906001600160401b03811161003157826101ab918301610124565b926100946101bc8460608501610144565b9360a06101cc8260808701610144565b9401610144565b6101f1614c40803803806101e681610072565b928339810190610151565b909192939495565b9061008695949392916108ff565b6001600160401b03811161006d5760200290565b61010561009491610207565b90610234610105836100b6565b918252565b6102436007610227565b660233030303030360cc1b602082015290565b610094610239565b6102686007610227565b6611a3232323232360c91b602082015290565b61009461025e565b61028d6007610227565b660234646303030360cc1b602082015290565b610094610283565b6102b26007610227565b660233030464630360cc1b602082015290565b6100946102a8565b6102d76007610227565b661198181818232360c91b602082015290565b6100946102cd565b6102fc6007610227565b660234646464630360cc1b602082015290565b6100946102f2565b6103216007610227565b6611a3231818232360c91b602082015290565b610094610317565b6103466007610227565b661198182323232360c91b602082015290565b61009461033c565b61036b6007610227565b660234646413530360cc1b602082015290565b610094610361565b6103906007610227565b660233830303038360cc1b602082015290565b610094610386565b6103b56007610227565b660233030383030360cc1b602082015290565b6100946103ab565b6103da6007610227565b660233830303030360cc1b602082015290565b6100946103d0565b6103ff6007610227565b660233830383030360cc1b602082015290565b6100946103f5565b6104246007610227565b660233030383038360cc1b602082015290565b61009461041a565b6104496007610227565b660234330433043360cc1b602082015290565b61009461043f565b61046e6007610227565b660233830383038360cc1b602082015290565b610094610464565b634e487b7160e01b600052600060045260246000fd5b634e487b7160e01b600052602260045260246000fd5b90600160028304921680156104d5575b60208310146104d057565b61049f565b91607f16916104c5565b906104f290600019906020036008021c90565b8154169055565b9160001960089290920291821b911b5b9181191691161790565b6100946100946100949290565b919061053161009461053993610513565b9083546104f9565b9055565b61008691600091610520565b818110610554575050565b80610562600060019361053d565b01610549565b9060009161059361057e82600052602060002090565b928354600019600883021c1916906002021790565b905555565b91929060208210156105fd57601f84116001146105c757610539929350600019600883021c1916906002021790565b50906105f86100869360016105ef6105e485600052602060002090565b92601f602091010490565b82019101610549565b610568565b5061063d8293610614600194600052602060002090565b6106366020601f860104820192601f861680610645575b50601f602091010490565b0190610549565b600202179055565b610651908886036104df565b3861062b565b92909168010000000000000000821161006d57602011156106b05760208110156106915761053991600019600883021c1916906002021790565b60019160ff19166106a784600052602060002090565b55600202019055565b60019150600202019055565b9081546106c8816104b5565b908183116106f1575b8183106106df575b50505050565b6106e893610598565b388080806106d9565b6106fd83838387610657565b6106d1565b6000610086916106bc565b9060000361071e5761008690610702565b610489565b81811061072e575050565b8061073c600060019361070d565b01610723565b91909182821061075157505050565b610086929190610760565b9190565b9182019101610723565b9068010000000000000000811161006d5761008691601090610742565b9190601f811161079657505050565b6107a861008693600052602060002090565b906020601f8401819004830193106107c8575b6020601f90910104610636565b90915081906107bb565b906107db815190565b906001600160401b03821161006d576107fe826107f885546104b5565b85610787565b602090601f83116001146108395761053992916000918361082e575b5050600019600883021c1916906002021790565b01519050388061081a565b601f1983169161084e85600052602060002090565b9260005b81811061088c57509160029391856001969410610873575b50505002019055565b01516000196008601f8516021c1916905538808061086a565b91936020600181928787015181550195019201610852565b90610086916107d2565b6108c161075c601093610094858561076a565b6000915b8383106108d25750505050565b60016020826108e96108e384955190565b866108a4565b019201920191906108c5565b90610086916108ae565b9061090d9594939291610a92565b61008661091a601061021b565b610929610925610256565b8252565b61093b61093461027b565b6020830152565b61094d6109466102a0565b6040830152565b61095f6109586102c5565b6060830152565b61097161096a6102ea565b6080830152565b61098361097c61030f565b60a0830152565b61099561098e610334565b60c0830152565b6109a76109a0610359565b60e0830152565b6109ba6109b261037e565b610100830152565b6109cd6109c56103a3565b610120830152565b6109e06109d86103c8565b610140830152565b6109f36109eb6103ed565b610160830152565b610a066109fe610412565b610180830152565b610a19610a11610437565b6101a0830152565b610a2c610a2461045c565b6101c0830152565b610a3f610a37610481565b6101e0830152565b60156108f5565b61009490610088906001600160a01b031682565b61009490610a46565b61009490610a5a565b906001600160a01b0390610509565b90610a8b61009461053992610a63565b8254610a6c565b9194610aae94610aa99461008697610aa994610ab5565b610a63565b6013610a7b565b610086948594929391923392610ae7565b9060001990610509565b90610ae061009461053992610513565b8254610ac6565b610afd610b1296610b04939496610b0b96610b1d565b600b610ad0565b600c610ad0565b600d610ad0565b61008633600e610a7b565b906100869291610b3e565b6100886100946100949290565b61009490610b28565b91610b4891610b94565b6000610b5381610b35565b6001600160a01b0381166001600160a01b03841614610b7757505061008690610bc6565b631e4fbdf760e01b82526001600160a01b03166004820152602490fd5b61008691829182918291829190610bac9060006108a4565b60016108a4565b61009490610088565b6100949054610bb3565b610be7610be1610bd6600a610bbc565b610aa984600a610a7b565b91610a63565b907f8be0079c531659141344cd1fd0a4f28419497f9722a3daafe3b4186f6b6457e0610c1260405190565b600090a356fe6080604052600436101561001b575b361561001957600080fd5b005b60003560e01c8063018a25e8146102fb57806301ffc9a7146102f657806302d05d3f146102f15780630583e9f8146102ec57806306fdde03146102e7578063081812fc146102e2578063095ea7b3146102dd5780631249c58b146102d857806312ea5c7e146102d3578063150b7a02146102ce57806318160ddd146102c95780631d0806ae146102c457806321a1c184146102bf57806323b872dd146102ba5780632dcd52f2146102b55780632f745c59146102b05780633f516018146102ab57806342842e0e146102a657806343d32e9c146102a1578063478222c21461029c5780634a8fe650146102975780634f6ccce71461029257806353613dd31461028d57806355f804b3146102885780635eba096b146102835780635f5168361461027e5780636352211e146102795780636c0360eb1461027457806370a082311461026f578063715018a61461026a578063771282f6146102655780638da5cb5b1461026057806395d89b411461025b578063a22cb46514610256578063ad64d06814610251578063ae1042651461024c578063b88d4fde14610247578063c87b56dd14610242578063cf6a68bf1461023d578063d5abeb0114610238578063d96a094a14610233578063e4849b321461022e578063e8a3d48514610229578063e985e9c514610224578063f0f2805f1461021f5763f2fde38b0361000e57610e30565b610e15565b610df9565b610dbb565b610da3565b610d90565b610d75565b610d4e565b610d33565b610d17565b610cfc565b610ce1565b610c6c565b610c19565b610bfe565b610be3565b610bbf565b610ba4565b610b89565b610a47565b610a2c565b610a00565b6109cc565b61098b565b610964565b610949565b610922565b6108bc565b6108a3565b61088b565b61085b565b61083f565b610826565b6107e2565b6107c7565b61079f565b610765565b61062a565b6105ad565b61058f565b61053b565b610514565b61048d565b6103ef565b61037c565b610316565b600091031261030b57565b600080fd5b9052565b565b3461030b57610326366004610300565b610341610331610e59565b6040519182918290815260200190565b0390f35b6001600160e01b031981165b0361030b57565b9050359061031482610345565b9060208282031261030b5761037991610358565b90565b3461030b57610341610397610392366004610365565b610e66565b6040515b91829182901515815260200190565b610379916008021c5b6001600160a01b031690565b9061037991546103aa565b6103796000600e6103bf565b610310906103b3565b60208101929161031491906103d6565b3461030b576103ff366004610300565b61034161040a6103ca565b604051918291826103df565b80610351565b9050359061031482610416565b9060208282031261030b576103799161041c565b6103796103796103799290565b906104549061043d565b600052602052604060002090565b610379916008021c81565b906103799154610462565b600061048861037992601161044a565b61046d565b3461030b576103416103316104a3366004610429565b610478565b60005b8381106104bb5750506000910152565b81810151838201526020016104ab565b6104ec6104f56020936104ff936104e0815190565b80835293849260200190565b958691016104a8565b601f01601f191690565b0190565b6020808252610379929101906104cb565b3461030b57610524366004610300565b61034161052f610ea3565b60405191829182610503565b3461030b5761034161040a610551366004610429565b610ead565b610351816103b3565b9050359061031482610556565b919060408382031261030b57610379906020610588828661055f565b940161041c565b3461030b576105a86105a236600461056c565b90610ec0565b604051005b6105b8366004610300565b610341610331610f1e565b906105e36105dc6105d2845190565b8084529260200190565b9260200190565b9060005b8181106105f45750505090565b90919261061161060a6001928651815260200190565b9460200190565b9291016105e7565b6020808252610379929101906105c3565b3461030b5761063a366004610300565b610341610645610fdd565b60405191829182610619565b634e487b7160e01b600052604160045260246000fd5b90601f01601f1916810190811067ffffffffffffffff82111761068957604052565b610651565b9061031461069b60405190565b9283610667565b67ffffffffffffffff811161068957602090601f01601f19160190565b90826000939282370152565b909291926106e06106db826106a2565b61068e565b938185528183011161030b576103149160208501906106bf565b9080601f8301121561030b57816020610379933591016106cb565b9060808282031261030b5761072a818361055f565b92610738826020850161055f565b92610746836040830161041c565b92606082013567ffffffffffffffff811161030b5761037992016106fa565b3461030b5761034161078461077b366004610715565b9291909161100d565b604051918291826001600160e01b0319909116815260200190565b3461030b576107af366004610300565b61034161033160085490565b6103796000600b61046d565b3461030b576107d7366004610300565b6103416103316107bb565b3461030b576107f2366004610300565b610341610331611077565b909160608284031261030b57610379610816848461055f565b936040610588826020870161055f565b3461030b576105a86108393660046107fd565b916110f9565b3461030b5761084f366004610300565b61034161033160105490565b3461030b5761034161033161087136600461056c565b906111aa565b9060208282031261030b576103799161055f565b3461030b576105a861089e366004610877565b6112c0565b3461030b576105a86108b63660046107fd565b916112ed565b3461030b576108cc366004610300565b610341610331611301565b610379600060136103bf565b610379906103b3906001600160a01b031682565b610379906108e3565b610379906108f7565b61031090610900565b6020810192916103149190610909565b3461030b57610932366004610300565b61034161093d6108d7565b60405191829182610912565b3461030b57610959366004610300565b610341610331611345565b3461030b5761034161033161097a366004610429565b611360565b6103796000600d61046d565b3461030b5761099b366004610300565b61034161033161097f565b9060208282031261030b57813567ffffffffffffffff811161030b5761037992016106fa565b3461030b576105a86109df3660046109a6565b61154c565b919060408382031261030b57610379906020610588828661041c565b3461030b57610341610645610a163660046109e4565b90611608565b600061048861037992601461044a565b3461030b57610341610331610a42366004610429565b610a1c565b3461030b5761034161040a610a5d366004610429565b611697565b634e487b7160e01b600052600060045260246000fd5b634e487b7160e01b600052602260045260246000fd5b9060016002830492168015610aae575b6020831014610aa957565b610a78565b91607f1691610a9e565b80546000939291610ad5610acb83610a8e565b8085529360200190565b9160018116908115610b275750600114610aee57505050565b610b019192939450600052602060002090565b916000925b818410610b135750500190565b805484840152602090930192600101610b06565b92949550505060ff1916825215156020020190565b9061037991610ab8565b90610314610b6092610b5760405190565b93848092610b3c565b0383610667565b90600010610b785761037990610b46565b610a62565b61037960006012610b67565b3461030b57610b99366004610300565b61034161052f610b7d565b3461030b57610341610331610bba366004610877565b6116a0565b3461030b57610bcf366004610300565b6105a8611708565b6103796000600f61046d565b3461030b57610bf3366004610300565b610341610331610bd7565b3461030b57610c0e366004610300565b61034161040a611710565b3461030b57610c29366004610300565b61034161052f61171a565b801515610351565b9050359061031482610c34565b919060408382031261030b57610379906020610c65828661055f565b9401610c3c565b3461030b576105a8610c7f366004610c49565b90611724565b634e487b7160e01b600052603260045260246000fd5b8054821015610cbe57610cb5600191600052602060002090565b91020190600090565b610c85565b60105481101561030b57610cdb610379916010610c9b565b9061046d565b3461030b57610341610331610cf7366004610429565b610cc3565b3461030b57610341610331610d12366004610429565b61172f565b3461030b576105a8610d2a366004610715565b929190916117c0565b3461030b5761034161052f610d49366004610429565b6118c6565b3461030b57610341610331610d64366004610429565b61197f565b6103796000600c61046d565b3461030b57610d85366004610300565b610341610331610d69565b6105a8610d9e366004610429565b611b47565b3461030b576105a8610db6366004610429565b611d00565b3461030b57610dcb366004610300565b61034161052f611ddd565b919060408382031261030b57610379906020610df2828661055f565b940161055f565b3461030b57610341610397610e0f366004610dd6565b90611e21565b3461030b57610341610397610e2b366004610429565b611e46565b3461030b576105a8610e43366004610877565b611eb0565b6103799081565b6103799054610e48565b610379610d12600f610e4f565b610e6f81611eb9565b908115610e7a575090565b9050610e96632fa757f360e01b5b916001600160e01b03191690565b1490565b61037990610b46565b6103796000610e9a565b61037990610eba81611ec2565b50611f02565b610314913391611f1e565b634e487b7160e01b600052601160045260246000fd5b91908201809211610eee57565b610ecb565b90600019905b9181191691161790565b90610f13610379610f1a9261043d565b8254610ef3565b9055565b610f3a610f2a60085490565b610f34600161043d565b90610ee1565b610f42611f6c565b50610379610f5182601461044a565b4290610f03565b90610f73610f676105d2845490565b92600052602060002090565b9060005b818110610f845750505090565b909192610fa8610fa1600192610f9987610e4f565b815260200190565b9460010190565b929101610f77565b9061037991610f58565b90610314610b6092610fcb60405190565b93848092610fb0565b61037990610fba565b6103796010610fd4565b611000610ffa6103799263ffffffff1690565b60e01b90565b6001600160e01b03191690565b50505050611019600090565b5061037963150b7a02610fe7565b81810292918115918404141715610eee57565b634e487b7160e01b600052601260045260246000fd5b9061105a565b9190565b908115611065570490565b61103a565b91908203918211610eee57565b610379611082611301565b6110af611098611092600d610e4f565b83611027565b6110a9670de0b6b3a764000061043d565b90611050565b9061106a565b6103b36103796103799290565b610379906110b5565b6040906110f261031494969593966110eb606084019860008501906103d6565b6020830152565b01906103d6565b9091600092611107846110c2565b611110816103b3565b611119836103b3565b14611168575061112b90823391612026565b91611135816103b3565b61113e846103b3565b036111495750505050565b6364283d7b60e01b84528392611164929091600485016110cb565b0390fd5b846111648192633250574960e11b8352600483016103df565b91602061031492949361119c604082019660008301906103d6565b0152565b9061045490610900565b6111b6610379826116a0565b8210156111d957610379916111cf6111d49260066111a0565b61044a565b610e4f565b63295f44f760e21b6000908152916111f2916004611181565b036000fd5b610379906103b3565b61037990546111f7565b1561121157565b60405162461bcd60e51b815260206004820152602360248201527f4f6e6c792063726561746f722063616e2063616c6c20746869732066756e637460448201526234b7b760e91b6064820152608490fd5b6103149061128a61127b611276600e611200565b6103b3565b611284336103b3565b1461120a565b6112b5565b906001600160a01b0390610ef9565b906112ae610379610f1a92610900565b825461128f565b61031490600e61129e565b61031490611262565b906112d66106db836106a2565b918252565b61037960006112c9565b6103796112db565b9091610314926112fb6112e5565b926117c0565b61130b600f610e4f565b611318611056600061043d565b111561133857610379610d1261132e600f610e4f565b6110af600161043d565b610379610d12600061043d565b610379611350610e59565b610f34611098611092600d610e4f565b61136c61037960085490565b81101561138157610cdb610379916008610c9b565b611164906000918291611393836110c2565b63295f44f760e21b845260048401611181565b610314906113ba61127b611276600e611200565b611541565b9160001960089290920291821b911b610ef9565b91906113e4610379610f1a9361043d565b9083546113bf565b610314916000916113d3565b818110611403575050565b8061141160006001936113ec565b016113f8565b9190601f811161142657505050565b61143861031493600052602060002090565b906020601f84018190048301931061145a575b6020601f9091010401906113f8565b909150819061144b565b9061146d815190565b9067ffffffffffffffff8211610689576114918261148b8554610a8e565b85611417565b602090601f83116001146114cc57610f1a9291600091836114c1575b5050600019600883021c1916906002021790565b0151905038806114ad565b601f198316916114e185600052602060002090565b9260005b81811061151f57509160029391856001969410611506575b50505002019055565b01516000196008601f8516021c191690553880806114fd565b919360206001819287870151815501950192016114e5565b9061031491611464565b610314906012611537565b610314906113a6565b1561155c57565b60405162461bcd60e51b815260206004820152601960248201527f537461727420696e646578206f7574206f6620626f756e6473000000000000006044820152606490fd5b67ffffffffffffffff81116106895760208091020190565b906112d66106db836115a1565b369037565b906103146115e16115db846115b9565b936115a1565b601f1901602084016115c6565b906115f7825190565b811015610cbe576020809102010190565b9161163561162d601093611627611620610379875490565b8710611555565b85610ee1565b835490612031565b91611648611643858561106a565b6115cb565b91845b845b81101561168e576116878161168161166b610cdb61164d9588610c9b565b61167e6116788b8561106a565b896115ee565b52565b60010190565b905061164b565b50935050905090565b61037990611ec2565b60006116ab816110c2565b6116b4816103b3565b6116bd846103b3565b146116d25750506111d46103799160036111a0565b6322718ad960e21b8252819061116490600483016103df565b6116f3612043565b61031461031461170360006110c2565b61207a565b6103146116eb565b610379600a611200565b6103796001610e9a565b6103149190336120f3565b611739600061043d565b81146117b55761037990610f34611750600b610e4f565b916117776117a06117966117966117a561177d61176d600b610e4f565b611777600261043d565b90611027565b6117776117a061179689611791606461043d565b611027565b6110a9600c610e4f565b6121b7565b946117918161179161271061043d565b50610379600b610e4f565b906103149392916117d28383836110f9565b61231d565b01918252565b6103799061043d565b6104ff6117fe926020926117f8815190565b94859290565b938491016104a8565b7f7b226465736372697074696f6e223a2022466c69704e4654206973207468652081527f666972737420426f6e64696e67204375727665204e46542e222c2022696d616760208201527f65223a2022646174613a696d6167652f7376672b786d6c3b6261736536342c0060408201526103799161188891605f015b906117e6565b61227d60f01b815260020190565b7f646174613a6170706c69636174696f6e2f6a736f6e3b6261736536342c00000081526103799190601d01611882565b61196361194261037961194761194261037961193d611919611925610379996118ed606090565b506118fc6111d482601461044a565b6040519384926020840192836020816117d76104ff938396959052565b90810382520382610667565b611937611930825190565b9160200190565b206117dd565b6125be565b612861565b61037961195360405190565b8092611919602083019182611807565b61037961196f60405190565b8092611919602083019182611896565b610cdb6103799161198e600090565b506010610c9b565b1561199d57565b60405162461bcd60e51b815260206004820152601f60248201527f546f6b656e206973206e6f7420617661696c61626c6520666f722073616c65006044820152606490fd5b61031490611a0d6119f282611697565b611a07611a0161127630610900565b916103b3565b14611996565b611a77565b15611a1957565b60405162461bcd60e51b8152602060048201526014602482015273125b9cdd59999a58da595b9d081c185e5b595b9d60621b6044820152606490fd5b6000198114610eee5760010190565b9081526040810192916103149160200152565b611b4261031491611a86610e59565b611a96611098611092600d610e4f565b91611aaf611aa76103798585610ee1565b341015611a12565b611ac381611abc30610900565b339061295e565b611acc81612a21565b611ae8611ae1611adc600f610e4f565b611a55565b600f610f03565b611afa611af433610900565b9161043d565b907f884543c08d36fb5c9b3b688dd0453c9f287199124bdbddb3b7f9ca885a4d34a0611b2560405190565b80611b31878783611a64565b0390a3611b3d82612b41565b610ee1565b612c65565b610314906119e2565b15611b5757565b60405162461bcd60e51b815260206004820152601360248201527221b0b63632b91034b9903737ba1037bbb732b960691b6044820152606490fd5b61031490611bb4611ba282611697565b611bae611a01336103b3565b14611b50565b611c31565b8015610eee576000190190565b3d15611be057611bd53d6112c9565b903d6000602084013e565b606090565b15611bec57565b60405162461bcd60e51b815260206004820152601960248201527f5472616e7366657220746f2073656c6c6572206661696c6564000000000000006044820152606490fd5b61031490611cfb600080611c43611301565b93611ce3611c5d611098611c57600d610e4f565b88611027565b8096611c663390565b93611c7a81611c7430610900565b8761295e565b611c8381612cd7565b611c98611ae1611c93600f610e4f565b611bb9565b611ca4611af486610900565b907f8323bebb324b6e1a1d4886a1f210640461bb275263dae69967f001d053ab0b2b611ccf60405190565b80611cdb878783611a64565b0390a361106a565b60405190818003925af1611cf5611bc6565b50611be5565b612b41565b61031490611b92565b6103799054610a8e565b80546000939291611d2a611d2683610a8e565b9390565b9160018116908115611d7b5750600114611d4357505050565b611d569192939450600052602060002090565b6000905b838210611d675750500190565b600181602092548486015201910190611d5a565b60ff191683525050811515909102019150565b611d9a90601092611d13565b6f17b1b7b63632b1ba34b7b7173539b7b760811b81520190565b90610314611dc160405190565b8093611dd1602083019182611d8e565b90810382520383610667565b611de76012611d09565b611df4611056600061043d565b1115611e04576103796012611db4565b6103796112e5565b610379905b60ff1690565b6103799054611e0c565b61037991611e3c611e4192611e34600090565b5060056111a0565b6111a0565b611e17565b611e4f90611697565b610e96611a0161127630610900565b61031490611e6a612043565b6000611e75816110c2565b611e7e816103b3565b611e87846103b3565b14611e975750506103149061207a565b631e4fbdf760e01b8252819061116490600483016103df565b61031490611e5e565b61037990612cfd565b611ecb81612d26565b90600090611edb611276836110c2565b611ee4846103b3565b14611eee57505090565b637e27328960e01b82526004820152602490fd5b611f1961037991611f11600090565b50600461044a565b611200565b9160019161031493612d3d565b15611f3257565b60405162461bcd60e51b815260206004820152601260248201527113585e081cdd5c1c1b1e481c995858da195960721b6044820152606490fd5b611f8e611f7860085490565b611f88611056610379600c610e4f565b10611f2b565b611f96610e59565b610379611b42611fb2611098611fac600d610e4f565b85611027565b611fc2611aa76103798387610ee1565b611fce610f2a60085490565b93611fd98533612e65565b611fe9611ae1611adc600f610e4f565b611ff233610900565b611ffb8661043d565b907f10546b1a6f5245ff0ffa18c256b9e46859c585cbb473b453fcd4c2dc39ae08db611b2560405190565b610379929190612e77565b908082101561203e575090565b905090565b61204b611710565b3390612059611a01836103b3565b036120615750565b63118cdaa760e01b6000908152906111f29060046103df565b6120a061209a61208a600a611200565b61209584600a61129e565b610900565b91610900565b907f8be0079c531659141344cd1fd0a4f28419497f9722a3daafe3b4186f6b6457e06120cb60405190565b80805b0390a3565b9060ff90610ef9565b906120ec610379610f1a92151590565b82546120d3565b6000612101611276826110c2565b61210a846103b3565b1461216357506120ce612159612153836120958761214e88611e3c7f17307eab39ab6107e8899845ad3d59bd9653f200f220920489ca2b5937696c319960056111a0565b6120dc565b93610900565b9361039b60405190565b630b61174360e31b81528061116484600483016103df565b611e116103796103799290565b6103799061219c6110566103799460ff1690565b901c90565b610379906121b26110566103799490565b901b90565b6121c1600061043d565b81146122a75760016121d282612f10565b6121db8261217b565b8080808080966121ec828098612188565b906121f69061043d565b90612200916121a1565b61220a818a611050565b019061221591612188565b61221f8189611050565b019061222a91612188565b6122348188611050565b019061223f91612188565b6122498187611050565b019061225491612188565b61225e8186611050565b019061226991612188565b6122738185611050565b019061227e91612188565b6122888184611050565b019061229391612188565b908161229e91611050565b61037991612031565b50610379600061043d565b9050519061031482610345565b9060208282031261030b57610379916122b2565b9092612304906122fd61037996946122f3608086019760008701906103d6565b60208501906103d6565b6040830152565b60608184039101526104cb565b6040513d6000823e3d90fd5b6000939192833b6123306110568761043d565b1161233d575b5050505050565b60209161234c61209586610900565b90863361237561235b60405190565b97889687958694630a85bd0160e11b8652600486016122d3565b03925af160009181612409575b506123d45750612397565b3880808080612336565b61239f611bc6565b80516123ad6110568561043d565b036123cc5750633250574960e11b8252819061116490600483016103df565b805190602001fd5b6123e4630a85bd0160e11b610e88565b036123f057505061238d565b633250574960e11b8252819061116490600483016103df565b61242c91925060203d602011612433575b6124248183610667565b8101906122bf565b9038612382565b503d61241a565b8115611065570690565b610379608061068e565b612456612444565b60008082526020820181905260408201819052606082015290565b61037961244e565b60005b82811061248857505050565b602090612493612471565b818401520161247c565b906103146124ad6115db846115b9565b601f190160208401612479565b6118829061037993926117e6565b9161188261259d6125ac9361188261255e610379977f3c73766720786d6c6e733d22687474703a2f2f7777772e77332e6f72672f323081527f30302f737667222077696474683d2234303022206865696768743d223430302260208201527f2076696577426f783d223020302031323420313234222066696c6c3d226e6f6e60408201526232911f60e91b606082015260630190565b7f3c726563742077696474683d2231323422206865696768743d2231323422207281526c3c1e91191a11103334b6361e9160991b6020820152602d0190565b6211179f60e91b815260030190565b651e17b9bb339f60d11b815260060190565b6125eb6060916119256125d060405190565b60208082019384529092839161191990426104ff82856117d7565b90819261261861260e6125fd856130d3565b94612608600361043d565b9061243a565b610f34600261043d565b916126228361249d565b90936000946126308661043d565b945b805b8610156127b857612643612471565b92600093896126518a61043d565b9560015b156127a1575b50505087809861267361266e8a8d610ee1565b613159565b93849861267f8461043d565b8b81101561278f5761269b612694828c6115ee565b5188613278565b6126a75760010161267f565b5098929a50935099946126bb600191611a55565b906126e882976119256126cd60405190565b60208082019384529092839161191990886104ff82856117d7565b9b8c926126f8611056600a61043d565b11156126555750612712919293959a9896509893985b1590565b612733575b50506127266126349160010190565b9590509590919395612632565b611919610379849a61276e856127698861278697612763828f6127269c61275d6126349f836115ee565b526115ee565b50610ee1565b613363565b9061277860405190565b9384926020840192836124ba565b97915088612717565b5098929a919b966126bb919550611a55565b8061265b57612712919293959a9896509893981590565b509150610379929550610379945061191993506127d460405190565b9384926020840192836124c8565b6127ec60406112c9565b7f4142434445464748494a4b4c4d4e4f505152535455565758595a61626364656660208201527f6768696a6b6c6d6e6f707172737475767778797a303132333435363738392b2f604082015290565b6103796127e2565b61037961283b565b906103146115e161285b846112c9565b936106a2565b8051612870611056600061043d565b146129555761287d612843565b9061288961260e825190565b9060016128b16128ac6128a26003956110a9600361043d565b611791600461043d565b61284b565b93016020840192829183518401906020820192835194600085525b83811061290d57505050509060039291525106806001146128fc576002146128f2575090565b6001603d91035390565b50600281603d600181940353035390565b8160019198929394980191603f828080865194848660121c168a01518153018385600c1c16890151815301828460061c168801518153019116850151815301969291906128cc565b506103796112e5565b91929060009261296d846110c2565b91612977836103b3565b612980826103b3565b146129ca57612993838761299993612026565b926103b3565b6129a2836103b3565b036129bd57637e27328960e01b845260048401859052602484fd5b61113581959293956103b3565b633250574960e11b8552848061116485600483016103df565b634e487b7160e01b600052603160045260246000fd5b80548015612a1c576000190190612a19612a138383610c9b565b906113ec565b55565b6129e3565b6000612a836103149260116111cf612a7e612a3f6111d4858561044a565b610379601091612a79612a5f610cdb612a5961132e875490565b86610c9b565b612a7381612a6d8588610c9b565b906113d3565b8761044a565b610f03565b6129f9565b6113ec565b9050519061031482610416565b9060208282031261030b5761037991612a88565b15612ab057565b60405162461bcd60e51b815260206004820152601e60248201527f5472616e736665722066656520746f2063726561746f72206661696c656400006044820152606490fd5b15612afc57565b60405162461bcd60e51b815260206004820152601f60248201527f5472616e736665722066656520746f2070726f746f636f6c206661696c6564006044820152606490fd5b612b4e6120956013611200565b6020612b5960405190565b632982de0d60e01b815291829060049082905afa908115612c245761031492612bc9600080612ba0612b99611098839884988591612bf5575b5087611027565b809561106a565b612baa600e611200565b90612bb460405190565b90818003925af1612bc3611bc6565b50612aa9565b612bd66120956013611200565b90612be060405190565b90818003925af1612bef611bc6565b50612af5565b612c17915060203d602011612c1d575b612c0f8183610667565b810190612a95565b38612b92565b503d612c05565b612311565b15612c3057565b60405162461bcd60e51b815260206004820152600d60248201526c1499599d5b990819985a5b1959609a1b6044820152606490fd5b612c6f903461106a565b612c79600061043d565b8111612c825750565b60008061031492612c903390565b90612c9a60405190565b90818003925af1612ca9611bc6565b50612c29565b90815491680100000000000000008310156106895782612a6d91600161031495018155610c9b565b61031490612ce6816010612caf565b612a79612cf561132e60105490565b91601161044a565b63780e9d6360e01b6001600160e01b0319821614908115612d1c575090565b61037991506133ff565b611f1961037991612d35600090565b50600261044a565b92919091808115612e47575b612d64575b505090612d5f61031492600461044a565b61129e565b612d6d83611ec2565b91600090612d7d611276836110c2565b612d86826103b3565b141580612e2d575b80612e1a575b612e0157505091612d5f916103149493612db1575b509192612d4e565b612dba90610900565b612dc384610900565b612dcc8361043d565b917f8c5be1e5ebec7d5bd14f71427d1e84f3dd0314c0f7b2291e5b200ac8c7c3b925612df760405190565b600090a438612da9565b63a9fbf51f60e01b8252819061116490600483016103df565b50612e2861270e8286611e21565b612d94565b50612e37816103b3565b612e40856103b3565b1415612d8e565b50612e5561127660006110c2565b612e5e836103b3565b1415612d49565b61031491612e716112e5565b9161344a565b9091612e84908383613464565b91612eb2612e9260006110c2565b612e9b816103b3565b612ea4866103b3565b03612eef5761127683613613565b612ebb836103b3565b03612eca576103799150613664565b612ed3826103b3565b612edc846103b3565b03612ee657505090565b61037991613635565b612ef8846103b3565b612f01866103b3565b146103b3576112768386613592565b600061300b611056613005612f248461043d565b94612f38612f32608061217b565b82612188565b8681116130ab575b50612f4e612f32604061217b565b612f578661043d565b8111613094575b50612f6c612f32602061217b565b612f758661043d565b811161307d575b50612f8a612f32601061217b565b612f938661043d565b8111613066575b50612fa8612f32600861217b565b612fb18661043d565b811161304f575b50612fc6612f32600461217b565b612fcf8661043d565b8111613038575b50612fe4612f32600261217b565b612fed8661043d565b8111613021575b50612fff600161217b565b90612188565b9261043d565b116130135790565b610379906104ff600161043d565b6130319150956104ff600261043d565b9438612ff4565b6130489150956104ff600461043d565b9438612fd6565b61305f9150956104ff600861043d565b9438612fb8565b6130769150956104ff601061043d565b9438612f9a565b61308d9150956104ff602061043d565b9438612f7c565b6130a49150956104ff604061043d565b9438612f5e565b6130bb9150956104ff608061043d565b9438612f40565b6010821015610cbe57600190610cb5565b6130f46130ed610379926130e5606090565b506010612608565b60156130c2565b50610e9a565b6131099060ff165b9160ff1690565b90039060ff8211610eee57565b6131229060ff16613102565b019060ff8211610eee57565b6103796103796103799260ff1690565b61314a9060ff16613102565b029060ff8216918203610eee57565b613161612471565b5061037961316f601861217b565b6132676132496131c86131cd6131c8613188601961217b565b610f346131c26131bc6131b76131a7856131a2603e61217b565b6130fa565b6131b1600161217b565b90613116565b61312e565b8b61243a565b9161312e565b61217b565b93610f346131c261322761321c6131c861321361320d6131b76131f48d6131a2607c61217b565b6132078a613202600261217b565b61313e565b906130fa565b8d61243a565b610f348761312e565b99612fff600861217b565b6126086131b761323b8a6131a2607c61217b565b61320787613202600261217b565b61325d613254612444565b60ff9096168652565b60ff166020850152565b60ff16604083018190526060830152565b9081613285815160ff1690565b82906132a8613102611e1161329b855160ff1690565b604088015160ff166131b1565b109384613337575b5050826132fc575b826132c257505090565b6132f8919250611e1160206132ef836131b160606132e68561310298015160ff1690565b92015160ff1690565b94015160ff1690565b1190565b915061330c602083015160ff1690565b613330613102611e11613323602086015160ff1690565b606086015160ff166131b1565b10916132b8565b61335a91929450611e1161335261329b613102935160ff1690565b935160ff1690565b119138806132b0565b61338c61338761337c613376600561043d565b8461243a565b92610f34600161043d565b6130d3565b90613397600061043d565b81036133a7575061037991613bde565b6133b1600161043d565b81036133c1575061037991613b0c565b6133cb600261043d565b81036133db575061037991613b0c565b6133e8611056600361043d565b036133f657610379916138da565b6103799161373e565b6380ac58cd60e01b6001600160e01b031982161490811561342f575b8115613425575090565b6103799150613c66565b6001600160e01b03198116635b5e139f60e01b14915061341b565b90610314929161345a8282613c76565b6117d260006110c2565b906134b761347182612d26565b93600061347d816110c2565b9184613488846103b3565b613491836103b3565b03613581575b50506134a2826103b3565b6134ab876103b3565b03613546575b506103b3565b6134c0836103b3565b03613516575b6134d582612d5f83600261044a565b6134e4611af461215385610900565b917fddf252ad1be2c89b69c2b068fc378daa952ba7f163c4a11628f55a4df523b3ef61350f60405190565b600090a490565b613541613523600161043d565b61353b6135318560036111a0565b916104ff83610e4f565b90610f03565b6134c6565b61355290828581612d3d565b61357b61355f600161043d565b61353b61356d8860036111a0565b9161357783610e4f565b0390565b386134b1565b61358b9188613cec565b3884613497565b612a83610314926111cf6000936135d185612a836135af846116a0565b956007856135c06111d4848461044a565b898082036135d8575b50505061044a565b60066111a0565b6111cf61360584612a79856135fb6111d4612a79976111cf61360b9b60066111a0565b94859360066111a0565b8461044a565b8538896135c9565b6103149061362e61362360085490565b612a7983600961044a565b6008612caf565b612a798261365d61031494612a796111cf9561365361132e826116a0565b96879160066111a0565b600761044a565b612a7e610314916103796000612a8360089361368161132e865490565b6111cf600991612a796136a4610cdb61369d6111d4888861044a565b938b610c9b565b61360581612a6d858d610c9b565b61105a9060ff16613102565b610379979561188261371d6118829761188261371061372a9961188261371d61259d9f9b6118826137106118829d6118826137109e701e3837b63cb3b7b7103837b4b73a399e9160791b815260110190565b600b60fa1b815260010190565b600160fd1b815260010190565b6711103334b6361e9160c11b815260080190565b90819061374c825160ff1690565b6137559061312e565b61375e90613d4c565b602083019161376e835160ff1690565b92606085019361377f855160ff1690565b61378891613116565b6137919061312e565b61379a90613d4c565b936137a6875160ff1690565b95604001956137b6875160ff1690565b6137c0600261217b565b6137c9916136b2565b6137d291613116565b6137db9061312e565b6137e490613d4c565b956137f0835160ff1690565b6137f99061312e565b61380290613d4c565b975160ff16905160ff1661381591613116565b61381e9061312e565b61382790613d4c565b915160ff16905160ff1661383a91613116565b6138439061312e565b61384c90613d4c565b9061385660405190565b968796602088019661386896886136be565b9081038252036103799082610667565b61371d6118829761188261371061372a996118826103799f9d9761259d9f9b6118826137106118829d61188261371d6137109f6118826118829f61371d9961188261371092701e3837b63cb3b7b7103837b4b73a399e9160791b815260110190565b806138e6815160ff1690565b9260408301906138f7825160ff1690565b946002956139048761217b565b61390d916136b2565b61391691613116565b61391f9061312e565b61392890613d4c565b9160208501613938815160ff1690565b6139419061312e565b61394a90613d4c565b94613956815160ff1690565b61395f9061312e565b61396890613d4c565b96613974835160ff1690565b9060600190613984825160ff1690565b61398d8b61217b565b613996916136b2565b61399f91613116565b6139a89061312e565b6139b190613d4c565b986139bd835160ff1690565b855160ff166139cb8361217b565b6139d4916136b2565b6139dd91613116565b6139e69061312e565b6139ef90613d4c565b946139fb855160ff1690565b835160ff16613a0991613116565b613a129061312e565b613a1b90613d4c565b935160ff16905160ff16613a2e91613116565b613a379061312e565b613a4090613d4c565b935160ff16915160ff1690613a549061217b565b613a5d916136b2565b613a6691613116565b613a6f9061312e565b613a7890613d4c565b92613a8260405190565b98899860208a0198613868988a613878565b93611882613af66103799795611882613ae161188297611882613ad061372a9961188261259d9e681e3932b1ba103c1e9160b91b815260090190565b6411103c9e9160d91b815260050190565b6811103bb4b23a341e9160b91b815260090190565b6911103432b4b3b43a1e9160b11b8152600a0190565b61037961037992613b1b606090565b50613b32613b2d6131b7855160ff1690565b613d4c565b611919613b49613b2d6131b7602088015160ff1690565b92613b72613b2d6131b76060613b69613b2d6131b760408d015160ff1690565b99015160ff1690565b604051968795602087019586613a94565b61259d93611882613bcd6103799795611882613bbb6118829761188261372a986b1e31b4b931b6329031bc1e9160a11b8152600c0190565b65111031bc9e9160d11b815260060190565b641110391e9160d91b815260050190565b90610379613c4361037993613bf1606090565b50611919613c4e613b2d613c48613b2d6131b76000613c436020613b69613b2d6131b78c613c36613c26604083015160ff1690565b613c30600261217b565b906136b2565b9e8f978892015160ff1690565b613116565b9461312e565b94613c5860405190565b958694602086019485613b83565b610e966301ffc9a760e01b610e88565b600091613c82836110c2565b91613c8c836103b3565b613c95826103b3565b14613cd357613ca5918391612026565b613cb1611a01836103b3565b03613cba575050565b6339e3563760e11b8252819061116490600483016103df565b633250574960e11b8452838061116485600483016103df565b90613cfb61270e848385613dd9565b613d0457505050565b6000928392613d18611a01611276866110c2565b03613d3557637e27328960e01b8352600483015250602481010390fd5b63177e802f60e01b83526111649160048401611181565b613d5581613e5d565b90613d666001926104ff600161043d565b9180613d718461284b565b936020018401905b613d84575b50505090565b8115613dd457613db89060001901926f181899199a1a9b1b9c1cb0b131b232b360811b600a82061a84536110a9600a61043d565b9081613dc7611056600061043d565b14613dd457909181613d79565b613d7e565b90613de761127660006110c2565b613df0826103b3565b14159283613dfe5750505090565b90919250613e0b826103b3565b613e14846103b3565b14928315613e49575b508215613e2f575b5050388080613d7e565b613e41919250612993611a0191611f02565b143880613e25565b613e569193508290611e21565b9138613e1d565b613e67600061043d565b907a184f03e93ff9f4daa797ed6e38ed64bf6a1f010000000000000000613e8d8161043d565b821015613fcf575b506d04ee2d6d415b85acef8100000000613eae8161043d565b821015613fad575b50662386f26fc10000613ec88161043d565b821015613f8b575b506305f5e100613edf8161043d565b821015613f69575b50612710613ef48161043d565b821015613f47575b50613f07606461043d565b811015613f25575b613f1c611056600a61043d565b10156130135790565b613f36613f41916110a9606461043d565b916104ff600261043d565b90613f0f565b613f62916110a9613f579261043d565b916104ff600461043d565b9038613efc565b613f84916110a9613f799261043d565b916104ff600861043d565b9038613ee7565b613fa6916110a9613f9b9261043d565b916104ff601061043d565b9038613ed0565b613fc8916110a9613fbd9261043d565b916104ff602061043d565b9038613eb6565b613fea916110a9613fdf9261043d565b916104ff604061043d565b9038613e9556fea2646970667358221220ebb792f17c93e4cdf2ac429c39acb102a53d0a226caf8f4649d38b17e2b6a87f64736f6c634300081c0033","opcodes":"PUSH1 0x80 PUSH1 0x40 MSTORE CALLVALUE PUSH2 0x31 JUMPI PUSH2 0x20 PUSH2 0x14 PUSH2 0x1D3 JUMP JUMPDEST SWAP5 SWAP4 SWAP1 SWAP4 SWAP3 SWAP2 SWAP3 PUSH2 0x1F9 JUMP JUMPDEST PUSH1 0x40 MLOAD PUSH2 0x4027 PUSH2 0xC19 DUP3 CODECOPY PUSH2 0x4027 SWAP1 RETURN JUMPDEST PUSH1 0x0 DUP1 REVERT JUMPDEST PUSH4 0x4E487B71 PUSH1 0xE0 SHL PUSH1 0x0 MSTORE PUSH1 0x41 PUSH1 0x4 MSTORE PUSH1 0x24 PUSH1 0x0 REVERT JUMPDEST SWAP1 PUSH1 0x1F ADD PUSH1 0x1F NOT AND DUP2 ADD SWAP1 DUP2 LT PUSH1 0x1 PUSH1 0x1 PUSH1 0x40 SHL SUB DUP3 GT OR PUSH2 0x6D JUMPI PUSH1 0x40 MSTORE JUMP JUMPDEST PUSH2 0x36 JUMP JUMPDEST SWAP1 PUSH2 0x86 PUSH2 0x7F PUSH1 0x40 MLOAD SWAP1 JUMP JUMPDEST SWAP3 DUP4 PUSH2 0x4C JUMP JUMPDEST JUMP JUMPDEST PUSH1 0x1 PUSH1 0x1 PUSH1 0xA0 SHL SUB AND SWAP1 JUMP JUMPDEST SWAP1 JUMP JUMPDEST PUSH1 0x1 PUSH1 0x1 PUSH1 0xA0 SHL SUB DUP2 AND JUMPDEST SUB PUSH2 0x31 JUMPI JUMP JUMPDEST SWAP1 POP MLOAD SWAP1 PUSH2 0x86 DUP3 PUSH2 0x97 JUMP JUMPDEST PUSH1 0x1 PUSH1 0x1 PUSH1 0x40 SHL SUB DUP2 GT PUSH2 0x6D JUMPI PUSH1 0x20 SWAP1 PUSH1 0x1F ADD PUSH1 0x1F NOT AND ADD SWAP1 JUMP JUMPDEST PUSH1 0x0 JUMPDEST DUP4 DUP2 LT PUSH2 0xE5 JUMPI POP POP PUSH1 0x0 SWAP2 ADD MSTORE JUMP JUMPDEST DUP2 DUP2 ADD MLOAD DUP4 DUP3 ADD MSTORE PUSH1 0x20 ADD PUSH2 0xD5 JUMP JUMPDEST SWAP1 SWAP3 SWAP2 SWAP3 PUSH2 0x10A PUSH2 0x105 DUP3 PUSH2 0xB6 JUMP JUMPDEST PUSH2 0x72 JUMP JUMPDEST SWAP4 DUP2 DUP6 MSTORE DUP2 DUP4 ADD GT PUSH2 0x31 JUMPI PUSH2 0x86 SWAP2 PUSH1 0x20 DUP6 ADD SWAP1 PUSH2 0xD2 JUMP JUMPDEST SWAP1 DUP1 PUSH1 0x1F DUP4 ADD SLT ISZERO PUSH2 0x31 JUMPI DUP2 MLOAD PUSH2 0x94 SWAP3 PUSH1 0x20 ADD PUSH2 0xF5 JUMP JUMPDEST DUP1 PUSH2 0xA2 JUMP JUMPDEST SWAP1 POP MLOAD SWAP1 PUSH2 0x86 DUP3 PUSH2 0x13E JUMP JUMPDEST SWAP1 SWAP2 PUSH1 0xC0 DUP3 DUP5 SUB SLT PUSH2 0x31 JUMPI PUSH2 0x167 DUP4 DUP4 PUSH2 0xA9 JUMP JUMPDEST PUSH1 0x20 DUP4 ADD MLOAD SWAP1 SWAP4 SWAP1 PUSH1 0x1 PUSH1 0x1 PUSH1 0x40 SHL SUB DUP2 GT PUSH2 0x31 JUMPI DUP2 PUSH2 0x189 SWAP2 DUP6 ADD PUSH2 0x124 JUMP JUMPDEST PUSH1 0x40 DUP5 ADD MLOAD SWAP1 SWAP4 SWAP1 PUSH1 0x1 PUSH1 0x1 PUSH1 0x40 SHL SUB DUP2 GT PUSH2 0x31 JUMPI DUP3 PUSH2 0x1AB SWAP2 DUP4 ADD PUSH2 0x124 JUMP JUMPDEST SWAP3 PUSH2 0x94 PUSH2 0x1BC DUP5 PUSH1 0x60 DUP6 ADD PUSH2 0x144 JUMP JUMPDEST SWAP4 PUSH1 0xA0 PUSH2 0x1CC DUP3 PUSH1 0x80 DUP8 ADD PUSH2 0x144 JUMP JUMPDEST SWAP5 ADD PUSH2 0x144 JUMP JUMPDEST PUSH2 0x1F1 PUSH2 0x4C40 DUP1 CODESIZE SUB DUP1 PUSH2 0x1E6 DUP2 PUSH2 0x72 JUMP JUMPDEST SWAP3 DUP4 CODECOPY DUP2 ADD SWAP1 PUSH2 0x151 JUMP JUMPDEST SWAP1 SWAP2 SWAP3 SWAP4 SWAP5 SWAP6 JUMP JUMPDEST SWAP1 PUSH2 0x86 SWAP6 SWAP5 SWAP4 SWAP3 SWAP2 PUSH2 0x8FF JUMP JUMPDEST PUSH1 0x1 PUSH1 0x1 PUSH1 0x40 SHL SUB DUP2 GT PUSH2 0x6D JUMPI PUSH1 0x20 MUL SWAP1 JUMP JUMPDEST PUSH2 0x105 PUSH2 0x94 SWAP2 PUSH2 0x207 JUMP JUMPDEST SWAP1 PUSH2 0x234 PUSH2 0x105 DUP4 PUSH2 0xB6 JUMP JUMPDEST SWAP2 DUP3 MSTORE JUMP JUMPDEST PUSH2 0x243 PUSH1 0x7 PUSH2 0x227 JUMP JUMPDEST PUSH7 0x2330303030303 PUSH1 0xCC SHL PUSH1 0x20 DUP3 ADD MSTORE SWAP1 JUMP JUMPDEST PUSH2 0x94 PUSH2 0x239 JUMP JUMPDEST PUSH2 0x268 PUSH1 0x7 PUSH2 0x227 JUMP JUMPDEST PUSH7 0x11A32323232323 PUSH1 0xC9 SHL PUSH1 0x20 DUP3 ADD MSTORE SWAP1 JUMP JUMPDEST PUSH2 0x94 PUSH2 0x25E JUMP JUMPDEST PUSH2 0x28D PUSH1 0x7 PUSH2 0x227 JUMP JUMPDEST PUSH7 0x2346463030303 PUSH1 0xCC SHL PUSH1 0x20 DUP3 ADD MSTORE SWAP1 JUMP JUMPDEST PUSH2 0x94 PUSH2 0x283 JUMP JUMPDEST PUSH2 0x2B2 PUSH1 0x7 PUSH2 0x227 JUMP JUMPDEST PUSH7 0x2330304646303 PUSH1 0xCC SHL PUSH1 0x20 DUP3 ADD MSTORE SWAP1 JUMP JUMPDEST PUSH2 0x94 PUSH2 0x2A8 JUMP JUMPDEST PUSH2 0x2D7 PUSH1 0x7 PUSH2 0x227 JUMP JUMPDEST PUSH7 0x11981818182323 PUSH1 0xC9 SHL PUSH1 0x20 DUP3 ADD MSTORE SWAP1 JUMP JUMPDEST PUSH2 0x94 PUSH2 0x2CD JUMP JUMPDEST PUSH2 0x2FC PUSH1 0x7 PUSH2 0x227 JUMP JUMPDEST PUSH7 0x2346464646303 PUSH1 0xCC SHL PUSH1 0x20 DUP3 ADD MSTORE SWAP1 JUMP JUMPDEST PUSH2 0x94 PUSH2 0x2F2 JUMP JUMPDEST PUSH2 0x321 PUSH1 0x7 PUSH2 0x227 JUMP JUMPDEST PUSH7 0x11A32318182323 PUSH1 0xC9 SHL PUSH1 0x20 DUP3 ADD MSTORE SWAP1 JUMP JUMPDEST PUSH2 0x94 PUSH2 0x317 JUMP JUMPDEST PUSH2 0x346 PUSH1 0x7 PUSH2 0x227 JUMP JUMPDEST PUSH7 0x11981823232323 PUSH1 0xC9 SHL PUSH1 0x20 DUP3 ADD MSTORE SWAP1 JUMP JUMPDEST PUSH2 0x94 PUSH2 0x33C JUMP JUMPDEST PUSH2 0x36B PUSH1 0x7 PUSH2 0x227 JUMP JUMPDEST PUSH7 0x2346464135303 PUSH1 0xCC SHL PUSH1 0x20 DUP3 ADD MSTORE SWAP1 JUMP JUMPDEST PUSH2 0x94 PUSH2 0x361 JUMP JUMPDEST PUSH2 0x390 PUSH1 0x7 PUSH2 0x227 JUMP JUMPDEST PUSH7 0x2338303030383 PUSH1 0xCC SHL PUSH1 0x20 DUP3 ADD MSTORE SWAP1 JUMP JUMPDEST PUSH2 0x94 PUSH2 0x386 JUMP JUMPDEST PUSH2 0x3B5 PUSH1 0x7 PUSH2 0x227 JUMP JUMPDEST PUSH7 0x2330303830303 PUSH1 0xCC SHL PUSH1 0x20 DUP3 ADD MSTORE SWAP1 JUMP JUMPDEST PUSH2 0x94 PUSH2 0x3AB JUMP JUMPDEST PUSH2 0x3DA PUSH1 0x7 PUSH2 0x227 JUMP JUMPDEST PUSH7 0x2338303030303 PUSH1 0xCC SHL PUSH1 0x20 DUP3 ADD MSTORE SWAP1 JUMP JUMPDEST PUSH2 0x94 PUSH2 0x3D0 JUMP JUMPDEST PUSH2 0x3FF PUSH1 0x7 PUSH2 0x227 JUMP JUMPDEST PUSH7 0x2338303830303 PUSH1 0xCC SHL PUSH1 0x20 DUP3 ADD MSTORE SWAP1 JUMP JUMPDEST PUSH2 0x94 PUSH2 0x3F5 JUMP JUMPDEST PUSH2 0x424 PUSH1 0x7 PUSH2 0x227 JUMP JUMPDEST PUSH7 0x2330303830383 PUSH1 0xCC SHL PUSH1 0x20 DUP3 ADD MSTORE SWAP1 JUMP JUMPDEST PUSH2 0x94 PUSH2 0x41A JUMP JUMPDEST PUSH2 0x449 PUSH1 0x7 PUSH2 0x227 JUMP JUMPDEST PUSH7 0x2343304330433 PUSH1 0xCC SHL PUSH1 0x20 DUP3 ADD MSTORE SWAP1 JUMP JUMPDEST PUSH2 0x94 PUSH2 0x43F JUMP JUMPDEST PUSH2 0x46E PUSH1 0x7 PUSH2 0x227 JUMP JUMPDEST PUSH7 0x2338303830383 PUSH1 0xCC SHL PUSH1 0x20 DUP3 ADD MSTORE SWAP1 JUMP JUMPDEST PUSH2 0x94 PUSH2 0x464 JUMP JUMPDEST PUSH4 0x4E487B71 PUSH1 0xE0 SHL PUSH1 0x0 MSTORE PUSH1 0x0 PUSH1 0x4 MSTORE PUSH1 0x24 PUSH1 0x0 REVERT JUMPDEST PUSH4 0x4E487B71 PUSH1 0xE0 SHL PUSH1 0x0 MSTORE PUSH1 0x22 PUSH1 0x4 MSTORE PUSH1 0x24 PUSH1 0x0 REVERT JUMPDEST SWAP1 PUSH1 0x1 PUSH1 0x2 DUP4 DIV SWAP3 AND DUP1 ISZERO PUSH2 0x4D5 JUMPI JUMPDEST PUSH1 0x20 DUP4 LT EQ PUSH2 0x4D0 JUMPI JUMP JUMPDEST PUSH2 0x49F JUMP JUMPDEST SWAP2 PUSH1 0x7F AND SWAP2 PUSH2 0x4C5 JUMP JUMPDEST SWAP1 PUSH2 0x4F2 SWAP1 PUSH1 0x0 NOT SWAP1 PUSH1 0x20 SUB PUSH1 0x8 MUL SHR SWAP1 JUMP JUMPDEST DUP2 SLOAD AND SWAP1 SSTORE JUMP JUMPDEST SWAP2 PUSH1 0x0 NOT PUSH1 0x8 SWAP3 SWAP1 SWAP3 MUL SWAP2 DUP3 SHL SWAP2 SHL JUMPDEST SWAP2 DUP2 NOT AND SWAP2 AND OR SWAP1 JUMP JUMPDEST PUSH2 0x94 PUSH2 0x94 PUSH2 0x94 SWAP3 SWAP1 JUMP JUMPDEST SWAP2 SWAP1 PUSH2 0x531 PUSH2 0x94 PUSH2 0x539 SWAP4 PUSH2 0x513 JUMP JUMPDEST SWAP1 DUP4 SLOAD PUSH2 0x4F9 JUMP JUMPDEST SWAP1 SSTORE JUMP JUMPDEST PUSH2 0x86 SWAP2 PUSH1 0x0 SWAP2 PUSH2 0x520 JUMP JUMPDEST DUP2 DUP2 LT PUSH2 0x554 JUMPI POP POP JUMP JUMPDEST DUP1 PUSH2 0x562 PUSH1 0x0 PUSH1 0x1 SWAP4 PUSH2 0x53D JUMP JUMPDEST ADD PUSH2 0x549 JUMP JUMPDEST SWAP1 PUSH1 0x0 SWAP2 PUSH2 0x593 PUSH2 0x57E DUP3 PUSH1 0x0 MSTORE PUSH1 0x20 PUSH1 0x0 KECCAK256 SWAP1 JUMP JUMPDEST SWAP3 DUP4 SLOAD PUSH1 0x0 NOT PUSH1 0x8 DUP4 MUL SHR NOT AND SWAP1 PUSH1 0x2 MUL OR SWAP1 JUMP JUMPDEST SWAP1 SSTORE SSTORE JUMP JUMPDEST SWAP2 SWAP3 SWAP1 PUSH1 0x20 DUP3 LT ISZERO PUSH2 0x5FD JUMPI PUSH1 0x1F DUP5 GT PUSH1 0x1 EQ PUSH2 0x5C7 JUMPI PUSH2 0x539 SWAP3 SWAP4 POP PUSH1 0x0 NOT PUSH1 0x8 DUP4 MUL SHR NOT AND SWAP1 PUSH1 0x2 MUL OR SWAP1 JUMP JUMPDEST POP SWAP1 PUSH2 0x5F8 PUSH2 0x86 SWAP4 PUSH1 0x1 PUSH2 0x5EF PUSH2 0x5E4 DUP6 PUSH1 0x0 MSTORE PUSH1 0x20 PUSH1 0x0 KECCAK256 SWAP1 JUMP JUMPDEST SWAP3 PUSH1 0x1F PUSH1 0x20 SWAP2 ADD DIV SWAP1 JUMP JUMPDEST DUP3 ADD SWAP2 ADD PUSH2 0x549 JUMP JUMPDEST PUSH2 0x568 JUMP JUMPDEST POP PUSH2 0x63D DUP3 SWAP4 PUSH2 0x614 PUSH1 0x1 SWAP5 PUSH1 0x0 MSTORE PUSH1 0x20 PUSH1 0x0 KECCAK256 SWAP1 JUMP JUMPDEST PUSH2 0x636 PUSH1 0x20 PUSH1 0x1F DUP7 ADD DIV DUP3 ADD SWAP3 PUSH1 0x1F DUP7 AND DUP1 PUSH2 0x645 JUMPI JUMPDEST POP PUSH1 0x1F PUSH1 0x20 SWAP2 ADD DIV SWAP1 JUMP JUMPDEST ADD SWAP1 PUSH2 0x549 JUMP JUMPDEST PUSH1 0x2 MUL OR SWAP1 SSTORE JUMP JUMPDEST PUSH2 0x651 SWAP1 DUP9 DUP7 SUB PUSH2 0x4DF JUMP JUMPDEST CODESIZE PUSH2 0x62B JUMP JUMPDEST SWAP3 SWAP1 SWAP2 PUSH9 0x10000000000000000 DUP3 GT PUSH2 0x6D JUMPI PUSH1 0x20 GT ISZERO PUSH2 0x6B0 JUMPI PUSH1 0x20 DUP2 LT ISZERO PUSH2 0x691 JUMPI PUSH2 0x539 SWAP2 PUSH1 0x0 NOT PUSH1 0x8 DUP4 MUL SHR NOT AND SWAP1 PUSH1 0x2 MUL OR SWAP1 JUMP JUMPDEST PUSH1 0x1 SWAP2 PUSH1 0xFF NOT AND PUSH2 0x6A7 DUP5 PUSH1 0x0 MSTORE PUSH1 0x20 PUSH1 0x0 KECCAK256 SWAP1 JUMP JUMPDEST SSTORE PUSH1 0x2 MUL ADD SWAP1 SSTORE JUMP JUMPDEST PUSH1 0x1 SWAP2 POP PUSH1 0x2 MUL ADD SWAP1 SSTORE JUMP JUMPDEST SWAP1 DUP2 SLOAD PUSH2 0x6C8 DUP2 PUSH2 0x4B5 JUMP JUMPDEST SWAP1 DUP2 DUP4 GT PUSH2 0x6F1 JUMPI JUMPDEST DUP2 DUP4 LT PUSH2 0x6DF JUMPI JUMPDEST POP POP POP POP JUMP JUMPDEST PUSH2 0x6E8 SWAP4 PUSH2 0x598 JUMP JUMPDEST CODESIZE DUP1 DUP1 DUP1 PUSH2 0x6D9 JUMP JUMPDEST PUSH2 0x6FD DUP4 DUP4 DUP4 DUP8 PUSH2 0x657 JUMP JUMPDEST PUSH2 0x6D1 JUMP JUMPDEST PUSH1 0x0 PUSH2 0x86 SWAP2 PUSH2 0x6BC JUMP JUMPDEST SWAP1 PUSH1 0x0 SUB PUSH2 0x71E JUMPI PUSH2 0x86 SWAP1 PUSH2 0x702 JUMP JUMPDEST PUSH2 0x489 JUMP JUMPDEST DUP2 DUP2 LT PUSH2 0x72E JUMPI POP POP JUMP JUMPDEST DUP1 PUSH2 0x73C PUSH1 0x0 PUSH1 0x1 SWAP4 PUSH2 0x70D JUMP JUMPDEST ADD PUSH2 0x723 JUMP JUMPDEST SWAP2 SWAP1 SWAP2 DUP3 DUP3 LT PUSH2 0x751 JUMPI POP POP POP JUMP JUMPDEST PUSH2 0x86 SWAP3 SWAP2 SWAP1 PUSH2 0x760 JUMP JUMPDEST SWAP2 SWAP1 JUMP JUMPDEST SWAP2 DUP3 ADD SWAP2 ADD PUSH2 0x723 JUMP JUMPDEST SWAP1 PUSH9 0x10000000000000000 DUP2 GT PUSH2 0x6D JUMPI PUSH2 0x86 SWAP2 PUSH1 0x10 SWAP1 PUSH2 0x742 JUMP JUMPDEST SWAP2 SWAP1 PUSH1 0x1F DUP2 GT PUSH2 0x796 JUMPI POP POP POP JUMP JUMPDEST PUSH2 0x7A8 PUSH2 0x86 SWAP4 PUSH1 0x0 MSTORE PUSH1 0x20 PUSH1 0x0 KECCAK256 SWAP1 JUMP JUMPDEST SWAP1 PUSH1 0x20 PUSH1 0x1F DUP5 ADD DUP2 SWAP1 DIV DUP4 ADD SWAP4 LT PUSH2 0x7C8 JUMPI JUMPDEST PUSH1 0x20 PUSH1 0x1F SWAP1 SWAP2 ADD DIV PUSH2 0x636 JUMP JUMPDEST SWAP1 SWAP2 POP DUP2 SWAP1 PUSH2 0x7BB JUMP JUMPDEST SWAP1 PUSH2 0x7DB DUP2 MLOAD SWAP1 JUMP JUMPDEST SWAP1 PUSH1 0x1 PUSH1 0x1 PUSH1 0x40 SHL SUB DUP3 GT PUSH2 0x6D JUMPI PUSH2 0x7FE DUP3 PUSH2 0x7F8 DUP6 SLOAD PUSH2 0x4B5 JUMP JUMPDEST DUP6 PUSH2 0x787 JUMP JUMPDEST PUSH1 0x20 SWAP1 PUSH1 0x1F DUP4 GT PUSH1 0x1 EQ PUSH2 0x839 JUMPI PUSH2 0x539 SWAP3 SWAP2 PUSH1 0x0 SWAP2 DUP4 PUSH2 0x82E JUMPI JUMPDEST POP POP PUSH1 0x0 NOT PUSH1 0x8 DUP4 MUL SHR NOT AND SWAP1 PUSH1 0x2 MUL OR SWAP1 JUMP JUMPDEST ADD MLOAD SWAP1 POP CODESIZE DUP1 PUSH2 0x81A JUMP JUMPDEST PUSH1 0x1F NOT DUP4 AND SWAP2 PUSH2 0x84E DUP6 PUSH1 0x0 MSTORE PUSH1 0x20 PUSH1 0x0 KECCAK256 SWAP1 JUMP JUMPDEST SWAP3 PUSH1 0x0 JUMPDEST DUP2 DUP2 LT PUSH2 0x88C JUMPI POP SWAP2 PUSH1 0x2 SWAP4 SWAP2 DUP6 PUSH1 0x1 SWAP7 SWAP5 LT PUSH2 0x873 JUMPI JUMPDEST POP POP POP MUL ADD SWAP1 SSTORE JUMP JUMPDEST ADD MLOAD PUSH1 0x0 NOT PUSH1 0x8 PUSH1 0x1F DUP6 AND MUL SHR NOT AND SWAP1 SSTORE CODESIZE DUP1 DUP1 PUSH2 0x86A JUMP JUMPDEST SWAP2 SWAP4 PUSH1 0x20 PUSH1 0x1 DUP2 SWAP3 DUP8 DUP8 ADD MLOAD DUP2 SSTORE ADD SWAP6 ADD SWAP3 ADD PUSH2 0x852 JUMP JUMPDEST SWAP1 PUSH2 0x86 SWAP2 PUSH2 0x7D2 JUMP JUMPDEST PUSH2 0x8C1 PUSH2 0x75C PUSH1 0x10 SWAP4 PUSH2 0x94 DUP6 DUP6 PUSH2 0x76A JUMP JUMPDEST PUSH1 0x0 SWAP2 JUMPDEST DUP4 DUP4 LT PUSH2 0x8D2 JUMPI POP POP POP POP JUMP JUMPDEST PUSH1 0x1 PUSH1 0x20 DUP3 PUSH2 0x8E9 PUSH2 0x8E3 DUP5 SWAP6 MLOAD SWAP1 JUMP JUMPDEST DUP7 PUSH2 0x8A4 JUMP JUMPDEST ADD SWAP3 ADD SWAP3 ADD SWAP2 SWAP1 PUSH2 0x8C5 JUMP JUMPDEST SWAP1 PUSH2 0x86 SWAP2 PUSH2 0x8AE JUMP JUMPDEST SWAP1 PUSH2 0x90D SWAP6 SWAP5 SWAP4 SWAP3 SWAP2 PUSH2 0xA92 JUMP JUMPDEST PUSH2 0x86 PUSH2 0x91A PUSH1 0x10 PUSH2 0x21B JUMP JUMPDEST PUSH2 0x929 PUSH2 0x925 PUSH2 0x256 JUMP JUMPDEST DUP3 MSTORE JUMP JUMPDEST PUSH2 0x93B PUSH2 0x934 PUSH2 0x27B JUMP JUMPDEST PUSH1 0x20 DUP4 ADD MSTORE JUMP JUMPDEST PUSH2 0x94D PUSH2 0x946 PUSH2 0x2A0 JUMP JUMPDEST PUSH1 0x40 DUP4 ADD MSTORE JUMP JUMPDEST PUSH2 0x95F PUSH2 0x958 PUSH2 0x2C5 JUMP JUMPDEST PUSH1 0x60 DUP4 ADD MSTORE JUMP JUMPDEST PUSH2 0x971 PUSH2 0x96A PUSH2 0x2EA JUMP JUMPDEST PUSH1 0x80 DUP4 ADD MSTORE JUMP JUMPDEST PUSH2 0x983 PUSH2 0x97C PUSH2 0x30F JUMP JUMPDEST PUSH1 0xA0 DUP4 ADD MSTORE JUMP JUMPDEST PUSH2 0x995 PUSH2 0x98E PUSH2 0x334 JUMP JUMPDEST PUSH1 0xC0 DUP4 ADD MSTORE JUMP JUMPDEST PUSH2 0x9A7 PUSH2 0x9A0 PUSH2 0x359 JUMP JUMPDEST PUSH1 0xE0 DUP4 ADD MSTORE JUMP JUMPDEST PUSH2 0x9BA PUSH2 0x9B2 PUSH2 0x37E JUMP JUMPDEST PUSH2 0x100 DUP4 ADD MSTORE JUMP JUMPDEST PUSH2 0x9CD PUSH2 0x9C5 PUSH2 0x3A3 JUMP JUMPDEST PUSH2 0x120 DUP4 ADD MSTORE JUMP JUMPDEST PUSH2 0x9E0 PUSH2 0x9D8 PUSH2 0x3C8 JUMP JUMPDEST PUSH2 0x140 DUP4 ADD MSTORE JUMP JUMPDEST PUSH2 0x9F3 PUSH2 0x9EB PUSH2 0x3ED JUMP JUMPDEST PUSH2 0x160 DUP4 ADD MSTORE JUMP JUMPDEST PUSH2 0xA06 PUSH2 0x9FE PUSH2 0x412 JUMP JUMPDEST PUSH2 0x180 DUP4 ADD MSTORE JUMP JUMPDEST PUSH2 0xA19 PUSH2 0xA11 PUSH2 0x437 JUMP JUMPDEST PUSH2 0x1A0 DUP4 ADD MSTORE JUMP JUMPDEST PUSH2 0xA2C PUSH2 0xA24 PUSH2 0x45C JUMP JUMPDEST PUSH2 0x1C0 DUP4 ADD MSTORE JUMP JUMPDEST PUSH2 0xA3F PUSH2 0xA37 PUSH2 0x481 JUMP JUMPDEST PUSH2 0x1E0 DUP4 ADD MSTORE JUMP JUMPDEST PUSH1 0x15 PUSH2 0x8F5 JUMP JUMPDEST PUSH2 0x94 SWAP1 PUSH2 0x88 SWAP1 PUSH1 0x1 PUSH1 0x1 PUSH1 0xA0 SHL SUB AND DUP3 JUMP JUMPDEST PUSH2 0x94 SWAP1 PUSH2 0xA46 JUMP JUMPDEST PUSH2 0x94 SWAP1 PUSH2 0xA5A JUMP JUMPDEST SWAP1 PUSH1 0x1 PUSH1 0x1 PUSH1 0xA0 SHL SUB SWAP1 PUSH2 0x509 JUMP JUMPDEST SWAP1 PUSH2 0xA8B PUSH2 0x94 PUSH2 0x539 SWAP3 PUSH2 0xA63 JUMP JUMPDEST DUP3 SLOAD PUSH2 0xA6C JUMP JUMPDEST SWAP2 SWAP5 PUSH2 0xAAE SWAP5 PUSH2 0xAA9 SWAP5 PUSH2 0x86 SWAP8 PUSH2 0xAA9 SWAP5 PUSH2 0xAB5 JUMP JUMPDEST PUSH2 0xA63 JUMP JUMPDEST PUSH1 0x13 PUSH2 0xA7B JUMP JUMPDEST PUSH2 0x86 SWAP5 DUP6 SWAP5 SWAP3 SWAP4 SWAP2 SWAP3 CALLER SWAP3 PUSH2 0xAE7 JUMP JUMPDEST SWAP1 PUSH1 0x0 NOT SWAP1 PUSH2 0x509 JUMP JUMPDEST SWAP1 PUSH2 0xAE0 PUSH2 0x94 PUSH2 0x539 SWAP3 PUSH2 0x513 JUMP JUMPDEST DUP3 SLOAD PUSH2 0xAC6 JUMP JUMPDEST PUSH2 0xAFD PUSH2 0xB12 SWAP7 PUSH2 0xB04 SWAP4 SWAP5 SWAP7 PUSH2 0xB0B SWAP7 PUSH2 0xB1D JUMP JUMPDEST PUSH1 0xB PUSH2 0xAD0 JUMP JUMPDEST PUSH1 0xC PUSH2 0xAD0 JUMP JUMPDEST PUSH1 0xD PUSH2 0xAD0 JUMP JUMPDEST PUSH2 0x86 CALLER PUSH1 0xE PUSH2 0xA7B JUMP JUMPDEST SWAP1 PUSH2 0x86 SWAP3 SWAP2 PUSH2 0xB3E JUMP JUMPDEST PUSH2 0x88 PUSH2 0x94 PUSH2 0x94 SWAP3 SWAP1 JUMP JUMPDEST PUSH2 0x94 SWAP1 PUSH2 0xB28 JUMP JUMPDEST SWAP2 PUSH2 0xB48 SWAP2 PUSH2 0xB94 JUMP JUMPDEST PUSH1 0x0 PUSH2 0xB53 DUP2 PUSH2 0xB35 JUMP JUMPDEST PUSH1 0x1 PUSH1 0x1 PUSH1 0xA0 SHL SUB DUP2 AND PUSH1 0x1 PUSH1 0x1 PUSH1 0xA0 SHL SUB DUP5 AND EQ PUSH2 0xB77 JUMPI POP POP PUSH2 0x86 SWAP1 PUSH2 0xBC6 JUMP JUMPDEST PUSH4 0x1E4FBDF7 PUSH1 0xE0 SHL DUP3 MSTORE PUSH1 0x1 PUSH1 0x1 PUSH1 0xA0 SHL SUB AND PUSH1 0x4 DUP3 ADD MSTORE PUSH1 0x24 SWAP1 REVERT JUMPDEST PUSH2 0x86 SWAP2 DUP3 SWAP2 DUP3 SWAP2 DUP3 SWAP2 DUP3 SWAP2 SWAP1 PUSH2 0xBAC SWAP1 PUSH1 0x0 PUSH2 0x8A4 JUMP JUMPDEST PUSH1 0x1 PUSH2 0x8A4 JUMP JUMPDEST PUSH2 0x94 SWAP1 PUSH2 0x88 JUMP JUMPDEST PUSH2 0x94 SWAP1 SLOAD PUSH2 0xBB3 JUMP JUMPDEST PUSH2 0xBE7 PUSH2 0xBE1 PUSH2 0xBD6 PUSH1 0xA PUSH2 0xBBC JUMP JUMPDEST PUSH2 0xAA9 DUP5 PUSH1 0xA PUSH2 0xA7B JUMP JUMPDEST SWAP2 PUSH2 0xA63 JUMP JUMPDEST SWAP1 PUSH32 0x8BE0079C531659141344CD1FD0A4F28419497F9722A3DAAFE3B4186F6B6457E0 PUSH2 0xC12 PUSH1 0x40 MLOAD SWAP1 JUMP JUMPDEST PUSH1 0x0 SWAP1 LOG3 JUMP INVALID PUSH1 0x80 PUSH1 0x40 MSTORE PUSH1 0x4 CALLDATASIZE LT ISZERO PUSH2 0x1B JUMPI JUMPDEST CALLDATASIZE ISZERO PUSH2 0x19 JUMPI PUSH1 0x0 DUP1 REVERT JUMPDEST STOP JUMPDEST PUSH1 0x0 CALLDATALOAD PUSH1 0xE0 SHR DUP1 PUSH4 0x18A25E8 EQ PUSH2 0x2FB JUMPI DUP1 PUSH4 0x1FFC9A7 EQ PUSH2 0x2F6 JUMPI DUP1 PUSH4 0x2D05D3F EQ PUSH2 0x2F1 JUMPI DUP1 PUSH4 0x583E9F8 EQ PUSH2 0x2EC JUMPI DUP1 PUSH4 0x6FDDE03 EQ PUSH2 0x2E7 JUMPI DUP1 PUSH4 0x81812FC EQ PUSH2 0x2E2 JUMPI DUP1 PUSH4 0x95EA7B3 EQ PUSH2 0x2DD JUMPI DUP1 PUSH4 0x1249C58B EQ PUSH2 0x2D8 JUMPI DUP1 PUSH4 0x12EA5C7E EQ PUSH2 0x2D3 JUMPI DUP1 PUSH4 0x150B7A02 EQ PUSH2 0x2CE JUMPI DUP1 PUSH4 0x18160DDD EQ PUSH2 0x2C9 JUMPI DUP1 PUSH4 0x1D0806AE EQ PUSH2 0x2C4 JUMPI DUP1 PUSH4 0x21A1C184 EQ PUSH2 0x2BF JUMPI DUP1 PUSH4 0x23B872DD EQ PUSH2 0x2BA JUMPI DUP1 PUSH4 0x2DCD52F2 EQ PUSH2 0x2B5 JUMPI DUP1 PUSH4 0x2F745C59 EQ PUSH2 0x2B0 JUMPI DUP1 PUSH4 0x3F516018 EQ PUSH2 0x2AB JUMPI DUP1 PUSH4 0x42842E0E EQ PUSH2 0x2A6 JUMPI DUP1 PUSH4 0x43D32E9C EQ PUSH2 0x2A1 JUMPI DUP1 PUSH4 0x478222C2 EQ PUSH2 0x29C JUMPI DUP1 PUSH4 0x4A8FE650 EQ PUSH2 0x297 JUMPI DUP1 PUSH4 0x4F6CCCE7 EQ PUSH2 0x292 JUMPI DUP1 PUSH4 0x53613DD3 EQ PUSH2 0x28D JUMPI DUP1 PUSH4 0x55F804B3 EQ PUSH2 0x288 JUMPI DUP1 PUSH4 0x5EBA096B EQ PUSH2 0x283 JUMPI DUP1 PUSH4 0x5F516836 EQ PUSH2 0x27E JUMPI DUP1 PUSH4 0x6352211E EQ PUSH2 0x279 JUMPI DUP1 PUSH4 0x6C0360EB EQ PUSH2 0x274 JUMPI DUP1 PUSH4 0x70A08231 EQ PUSH2 0x26F JUMPI DUP1 PUSH4 0x715018A6 EQ PUSH2 0x26A JUMPI DUP1 PUSH4 0x771282F6 EQ PUSH2 0x265 JUMPI DUP1 PUSH4 0x8DA5CB5B EQ PUSH2 0x260 JUMPI DUP1 PUSH4 0x95D89B41 EQ PUSH2 0x25B JUMPI DUP1 PUSH4 0xA22CB465 EQ PUSH2 0x256 JUMPI DUP1 PUSH4 0xAD64D068 EQ PUSH2 0x251 JUMPI DUP1 PUSH4 0xAE104265 EQ PUSH2 0x24C JUMPI DUP1 PUSH4 0xB88D4FDE EQ PUSH2 0x247 JUMPI DUP1 PUSH4 0xC87B56DD EQ PUSH2 0x242 JUMPI DUP1 PUSH4 0xCF6A68BF EQ PUSH2 0x23D JUMPI DUP1 PUSH4 0xD5ABEB01 EQ PUSH2 0x238 JUMPI DUP1 PUSH4 0xD96A094A EQ PUSH2 0x233 JUMPI DUP1 PUSH4 0xE4849B32 EQ PUSH2 0x22E JUMPI DUP1 PUSH4 0xE8A3D485 EQ PUSH2 0x229 JUMPI DUP1 PUSH4 0xE985E9C5 EQ PUSH2 0x224 JUMPI DUP1 PUSH4 0xF0F2805F EQ PUSH2 0x21F JUMPI PUSH4 0xF2FDE38B SUB PUSH2 0xE JUMPI PUSH2 0xE30 JUMP JUMPDEST PUSH2 0xE15 JUMP JUMPDEST PUSH2 0xDF9 JUMP JUMPDEST PUSH2 0xDBB JUMP JUMPDEST PUSH2 0xDA3 JUMP JUMPDEST PUSH2 0xD90 JUMP JUMPDEST PUSH2 0xD75 JUMP JUMPDEST PUSH2 0xD4E JUMP JUMPDEST PUSH2 0xD33 JUMP JUMPDEST PUSH2 0xD17 JUMP JUMPDEST PUSH2 0xCFC JUMP JUMPDEST PUSH2 0xCE1 JUMP JUMPDEST PUSH2 0xC6C JUMP JUMPDEST PUSH2 0xC19 JUMP JUMPDEST PUSH2 0xBFE JUMP JUMPDEST PUSH2 0xBE3 JUMP JUMPDEST PUSH2 0xBBF JUMP JUMPDEST PUSH2 0xBA4 JUMP JUMPDEST PUSH2 0xB89 JUMP JUMPDEST PUSH2 0xA47 JUMP JUMPDEST PUSH2 0xA2C JUMP JUMPDEST PUSH2 0xA00 JUMP JUMPDEST PUSH2 0x9CC JUMP JUMPDEST PUSH2 0x98B JUMP JUMPDEST PUSH2 0x964 JUMP JUMPDEST PUSH2 0x949 JUMP JUMPDEST PUSH2 0x922 JUMP JUMPDEST PUSH2 0x8BC JUMP JUMPDEST PUSH2 0x8A3 JUMP JUMPDEST PUSH2 0x88B JUMP JUMPDEST PUSH2 0x85B JUMP JUMPDEST PUSH2 0x83F JUMP JUMPDEST PUSH2 0x826 JUMP JUMPDEST PUSH2 0x7E2 JUMP JUMPDEST PUSH2 0x7C7 JUMP JUMPDEST PUSH2 0x79F JUMP JUMPDEST PUSH2 0x765 JUMP JUMPDEST PUSH2 0x62A JUMP JUMPDEST PUSH2 0x5AD JUMP JUMPDEST PUSH2 0x58F JUMP JUMPDEST PUSH2 0x53B JUMP JUMPDEST PUSH2 0x514 JUMP JUMPDEST PUSH2 0x48D JUMP JUMPDEST PUSH2 0x3EF JUMP JUMPDEST PUSH2 0x37C JUMP JUMPDEST PUSH2 0x316 JUMP JUMPDEST PUSH1 0x0 SWAP2 SUB SLT PUSH2 0x30B JUMPI JUMP JUMPDEST PUSH1 0x0 DUP1 REVERT JUMPDEST SWAP1 MSTORE JUMP JUMPDEST JUMP JUMPDEST CALLVALUE PUSH2 0x30B JUMPI PUSH2 0x326 CALLDATASIZE PUSH1 0x4 PUSH2 0x300 JUMP JUMPDEST PUSH2 0x341 PUSH2 0x331 PUSH2 0xE59 JUMP JUMPDEST PUSH1 0x40 MLOAD SWAP2 DUP3 SWAP2 DUP3 SWAP1 DUP2 MSTORE PUSH1 0x20 ADD SWAP1 JUMP JUMPDEST SUB SWAP1 RETURN JUMPDEST PUSH1 0x1 PUSH1 0x1 PUSH1 0xE0 SHL SUB NOT DUP2 AND JUMPDEST SUB PUSH2 0x30B JUMPI JUMP JUMPDEST SWAP1 POP CALLDATALOAD SWAP1 PUSH2 0x314 DUP3 PUSH2 0x345 JUMP JUMPDEST SWAP1 PUSH1 0x20 DUP3 DUP3 SUB SLT PUSH2 0x30B JUMPI PUSH2 0x379 SWAP2 PUSH2 0x358 JUMP JUMPDEST SWAP1 JUMP JUMPDEST CALLVALUE PUSH2 0x30B JUMPI PUSH2 0x341 PUSH2 0x397 PUSH2 0x392 CALLDATASIZE PUSH1 0x4 PUSH2 0x365 JUMP JUMPDEST PUSH2 0xE66 JUMP JUMPDEST PUSH1 0x40 MLOAD JUMPDEST SWAP2 DUP3 SWAP2 DUP3 SWAP1 ISZERO ISZERO DUP2 MSTORE PUSH1 0x20 ADD SWAP1 JUMP JUMPDEST PUSH2 0x379 SWAP2 PUSH1 0x8 MUL SHR JUMPDEST PUSH1 0x1 PUSH1 0x1 PUSH1 0xA0 SHL SUB AND SWAP1 JUMP JUMPDEST SWAP1 PUSH2 0x379 SWAP2 SLOAD PUSH2 0x3AA JUMP JUMPDEST PUSH2 0x379 PUSH1 0x0 PUSH1 0xE PUSH2 0x3BF JUMP JUMPDEST PUSH2 0x310 SWAP1 PUSH2 0x3B3 JUMP JUMPDEST PUSH1 0x20 DUP2 ADD SWAP3 SWAP2 PUSH2 0x314 SWAP2 SWAP1 PUSH2 0x3D6 JUMP JUMPDEST CALLVALUE PUSH2 0x30B JUMPI PUSH2 0x3FF CALLDATASIZE PUSH1 0x4 PUSH2 0x300 JUMP JUMPDEST PUSH2 0x341 PUSH2 0x40A PUSH2 0x3CA JUMP JUMPDEST PUSH1 0x40 MLOAD SWAP2 DUP3 SWAP2 DUP3 PUSH2 0x3DF JUMP JUMPDEST DUP1 PUSH2 0x351 JUMP JUMPDEST SWAP1 POP CALLDATALOAD SWAP1 PUSH2 0x314 DUP3 PUSH2 0x416 JUMP JUMPDEST SWAP1 PUSH1 0x20 DUP3 DUP3 SUB SLT PUSH2 0x30B JUMPI PUSH2 0x379 SWAP2 PUSH2 0x41C JUMP JUMPDEST PUSH2 0x379 PUSH2 0x379 PUSH2 0x379 SWAP3 SWAP1 JUMP JUMPDEST SWAP1 PUSH2 0x454 SWAP1 PUSH2 0x43D JUMP JUMPDEST PUSH1 0x0 MSTORE PUSH1 0x20 MSTORE PUSH1 0x40 PUSH1 0x0 KECCAK256 SWAP1 JUMP JUMPDEST PUSH2 0x379 SWAP2 PUSH1 0x8 MUL SHR DUP2 JUMP JUMPDEST SWAP1 PUSH2 0x379 SWAP2 SLOAD PUSH2 0x462 JUMP JUMPDEST PUSH1 0x0 PUSH2 0x488 PUSH2 0x379 SWAP3 PUSH1 0x11 PUSH2 0x44A JUMP JUMPDEST PUSH2 0x46D JUMP JUMPDEST CALLVALUE PUSH2 0x30B JUMPI PUSH2 0x341 PUSH2 0x331 PUSH2 0x4A3 CALLDATASIZE PUSH1 0x4 PUSH2 0x429 JUMP JUMPDEST PUSH2 0x478 JUMP JUMPDEST PUSH1 0x0 JUMPDEST DUP4 DUP2 LT PUSH2 0x4BB JUMPI POP POP PUSH1 0x0 SWAP2 ADD MSTORE JUMP JUMPDEST DUP2 DUP2 ADD MLOAD DUP4 DUP3 ADD MSTORE PUSH1 0x20 ADD PUSH2 0x4AB JUMP JUMPDEST PUSH2 0x4EC PUSH2 0x4F5 PUSH1 0x20 SWAP4 PUSH2 0x4FF SWAP4 PUSH2 0x4E0 DUP2 MLOAD SWAP1 JUMP JUMPDEST DUP1 DUP4 MSTORE SWAP4 DUP5 SWAP3 PUSH1 0x20 ADD SWAP1 JUMP JUMPDEST SWAP6 DUP7 SWAP2 ADD PUSH2 0x4A8 JUMP JUMPDEST PUSH1 0x1F ADD PUSH1 0x1F NOT AND SWAP1 JUMP JUMPDEST ADD SWAP1 JUMP JUMPDEST PUSH1 0x20 DUP1 DUP3 MSTORE PUSH2 0x379 SWAP3 SWAP2 ADD SWAP1 PUSH2 0x4CB JUMP JUMPDEST CALLVALUE PUSH2 0x30B JUMPI PUSH2 0x524 CALLDATASIZE PUSH1 0x4 PUSH2 0x300 JUMP JUMPDEST PUSH2 0x341 PUSH2 0x52F PUSH2 0xEA3 JUMP JUMPDEST PUSH1 0x40 MLOAD SWAP2 DUP3 SWAP2 DUP3 PUSH2 0x503 JUMP JUMPDEST CALLVALUE PUSH2 0x30B JUMPI PUSH2 0x341 PUSH2 0x40A PUSH2 0x551 CALLDATASIZE PUSH1 0x4 PUSH2 0x429 JUMP JUMPDEST PUSH2 0xEAD JUMP JUMPDEST PUSH2 0x351 DUP2 PUSH2 0x3B3 JUMP JUMPDEST SWAP1 POP CALLDATALOAD SWAP1 PUSH2 0x314 DUP3 PUSH2 0x556 JUMP JUMPDEST SWAP2 SWAP1 PUSH1 0x40 DUP4 DUP3 SUB SLT PUSH2 0x30B JUMPI PUSH2 0x379 SWAP1 PUSH1 0x20 PUSH2 0x588 DUP3 DUP7 PUSH2 0x55F JUMP JUMPDEST SWAP5 ADD PUSH2 0x41C JUMP JUMPDEST CALLVALUE PUSH2 0x30B JUMPI PUSH2 0x5A8 PUSH2 0x5A2 CALLDATASIZE PUSH1 0x4 PUSH2 0x56C JUMP JUMPDEST SWAP1 PUSH2 0xEC0 JUMP JUMPDEST PUSH1 0x40 MLOAD STOP JUMPDEST PUSH2 0x5B8 CALLDATASIZE PUSH1 0x4 PUSH2 0x300 JUMP JUMPDEST PUSH2 0x341 PUSH2 0x331 PUSH2 0xF1E JUMP JUMPDEST SWAP1 PUSH2 0x5E3 PUSH2 0x5DC PUSH2 0x5D2 DUP5 MLOAD SWAP1 JUMP JUMPDEST DUP1 DUP5 MSTORE SWAP3 PUSH1 0x20 ADD SWAP1 JUMP JUMPDEST SWAP3 PUSH1 0x20 ADD SWAP1 JUMP JUMPDEST SWAP1 PUSH1 0x0 JUMPDEST DUP2 DUP2 LT PUSH2 0x5F4 JUMPI POP POP POP SWAP1 JUMP JUMPDEST SWAP1 SWAP2 SWAP3 PUSH2 0x611 PUSH2 0x60A PUSH1 0x1 SWAP3 DUP7 MLOAD DUP2 MSTORE PUSH1 0x20 ADD SWAP1 JUMP JUMPDEST SWAP5 PUSH1 0x20 ADD SWAP1 JUMP JUMPDEST SWAP3 SWAP2 ADD PUSH2 0x5E7 JUMP JUMPDEST PUSH1 0x20 DUP1 DUP3 MSTORE PUSH2 0x379 SWAP3 SWAP2 ADD SWAP1 PUSH2 0x5C3 JUMP JUMPDEST CALLVALUE PUSH2 0x30B JUMPI PUSH2 0x63A CALLDATASIZE PUSH1 0x4 PUSH2 0x300 JUMP JUMPDEST PUSH2 0x341 PUSH2 0x645 PUSH2 0xFDD JUMP JUMPDEST PUSH1 0x40 MLOAD SWAP2 DUP3 SWAP2 DUP3 PUSH2 0x619 JUMP JUMPDEST PUSH4 0x4E487B71 PUSH1 0xE0 SHL PUSH1 0x0 MSTORE PUSH1 0x41 PUSH1 0x4 MSTORE PUSH1 0x24 PUSH1 0x0 REVERT JUMPDEST SWAP1 PUSH1 0x1F ADD PUSH1 0x1F NOT AND DUP2 ADD SWAP1 DUP2 LT PUSH8 0xFFFFFFFFFFFFFFFF DUP3 GT OR PUSH2 0x689 JUMPI PUSH1 0x40 MSTORE JUMP JUMPDEST PUSH2 0x651 JUMP JUMPDEST SWAP1 PUSH2 0x314 PUSH2 0x69B PUSH1 0x40 MLOAD SWAP1 JUMP JUMPDEST SWAP3 DUP4 PUSH2 0x667 JUMP JUMPDEST PUSH8 0xFFFFFFFFFFFFFFFF DUP2 GT PUSH2 0x689 JUMPI PUSH1 0x20 SWAP1 PUSH1 0x1F ADD PUSH1 0x1F NOT AND ADD SWAP1 JUMP JUMPDEST SWAP1 DUP3 PUSH1 0x0 SWAP4 SWAP3 DUP3 CALLDATACOPY ADD MSTORE JUMP JUMPDEST SWAP1 SWAP3 SWAP2 SWAP3 PUSH2 0x6E0 PUSH2 0x6DB DUP3 PUSH2 0x6A2 JUMP JUMPDEST PUSH2 0x68E JUMP JUMPDEST SWAP4 DUP2 DUP6 MSTORE DUP2 DUP4 ADD GT PUSH2 0x30B JUMPI PUSH2 0x314 SWAP2 PUSH1 0x20 DUP6 ADD SWAP1 PUSH2 0x6BF JUMP JUMPDEST SWAP1 DUP1 PUSH1 0x1F DUP4 ADD SLT ISZERO PUSH2 0x30B JUMPI DUP2 PUSH1 0x20 PUSH2 0x379 SWAP4 CALLDATALOAD SWAP2 ADD PUSH2 0x6CB JUMP JUMPDEST SWAP1 PUSH1 0x80 DUP3 DUP3 SUB SLT PUSH2 0x30B JUMPI PUSH2 0x72A DUP2 DUP4 PUSH2 0x55F JUMP JUMPDEST SWAP3 PUSH2 0x738 DUP3 PUSH1 0x20 DUP6 ADD PUSH2 0x55F JUMP JUMPDEST SWAP3 PUSH2 0x746 DUP4 PUSH1 0x40 DUP4 ADD PUSH2 0x41C JUMP JUMPDEST SWAP3 PUSH1 0x60 DUP3 ADD CALLDATALOAD PUSH8 0xFFFFFFFFFFFFFFFF DUP2 GT PUSH2 0x30B JUMPI PUSH2 0x379 SWAP3 ADD PUSH2 0x6FA JUMP JUMPDEST CALLVALUE PUSH2 0x30B JUMPI PUSH2 0x341 PUSH2 0x784 PUSH2 0x77B CALLDATASIZE PUSH1 0x4 PUSH2 0x715 JUMP JUMPDEST SWAP3 SWAP2 SWAP1 SWAP2 PUSH2 0x100D JUMP JUMPDEST PUSH1 0x40 MLOAD SWAP2 DUP3 SWAP2 DUP3 PUSH1 0x1 PUSH1 0x1 PUSH1 0xE0 SHL SUB NOT SWAP1 SWAP2 AND DUP2 MSTORE PUSH1 0x20 ADD SWAP1 JUMP JUMPDEST CALLVALUE PUSH2 0x30B JUMPI PUSH2 0x7AF CALLDATASIZE PUSH1 0x4 PUSH2 0x300 JUMP JUMPDEST PUSH2 0x341 PUSH2 0x331 PUSH1 0x8 SLOAD SWAP1 JUMP JUMPDEST PUSH2 0x379 PUSH1 0x0 PUSH1 0xB PUSH2 0x46D JUMP JUMPDEST CALLVALUE PUSH2 0x30B JUMPI PUSH2 0x7D7 CALLDATASIZE PUSH1 0x4 PUSH2 0x300 JUMP JUMPDEST PUSH2 0x341 PUSH2 0x331 PUSH2 0x7BB JUMP JUMPDEST CALLVALUE PUSH2 0x30B JUMPI PUSH2 0x7F2 CALLDATASIZE PUSH1 0x4 PUSH2 0x300 JUMP JUMPDEST PUSH2 0x341 PUSH2 0x331 PUSH2 0x1077 JUMP JUMPDEST SWAP1 SWAP2 PUSH1 0x60 DUP3 DUP5 SUB SLT PUSH2 0x30B JUMPI PUSH2 0x379 PUSH2 0x816 DUP5 DUP5 PUSH2 0x55F JUMP JUMPDEST SWAP4 PUSH1 0x40 PUSH2 0x588 DUP3 PUSH1 0x20 DUP8 ADD PUSH2 0x55F JUMP JUMPDEST CALLVALUE PUSH2 0x30B JUMPI PUSH2 0x5A8 PUSH2 0x839 CALLDATASIZE PUSH1 0x4 PUSH2 0x7FD JUMP JUMPDEST SWAP2 PUSH2 0x10F9 JUMP JUMPDEST CALLVALUE PUSH2 0x30B JUMPI PUSH2 0x84F CALLDATASIZE PUSH1 0x4 PUSH2 0x300 JUMP JUMPDEST PUSH2 0x341 PUSH2 0x331 PUSH1 0x10 SLOAD SWAP1 JUMP JUMPDEST CALLVALUE PUSH2 0x30B JUMPI PUSH2 0x341 PUSH2 0x331 PUSH2 0x871 CALLDATASIZE PUSH1 0x4 PUSH2 0x56C JUMP JUMPDEST SWAP1 PUSH2 0x11AA JUMP JUMPDEST SWAP1 PUSH1 0x20 DUP3 DUP3 SUB SLT PUSH2 0x30B JUMPI PUSH2 0x379 SWAP2 PUSH2 0x55F JUMP JUMPDEST CALLVALUE PUSH2 0x30B JUMPI PUSH2 0x5A8 PUSH2 0x89E CALLDATASIZE PUSH1 0x4 PUSH2 0x877 JUMP JUMPDEST PUSH2 0x12C0 JUMP JUMPDEST CALLVALUE PUSH2 0x30B JUMPI PUSH2 0x5A8 PUSH2 0x8B6 CALLDATASIZE PUSH1 0x4 PUSH2 0x7FD JUMP JUMPDEST SWAP2 PUSH2 0x12ED JUMP JUMPDEST CALLVALUE PUSH2 0x30B JUMPI PUSH2 0x8CC CALLDATASIZE PUSH1 0x4 PUSH2 0x300 JUMP JUMPDEST PUSH2 0x341 PUSH2 0x331 PUSH2 0x1301 JUMP JUMPDEST PUSH2 0x379 PUSH1 0x0 PUSH1 0x13 PUSH2 0x3BF JUMP JUMPDEST PUSH2 0x379 SWAP1 PUSH2 0x3B3 SWAP1 PUSH1 0x1 PUSH1 0x1 PUSH1 0xA0 SHL SUB AND DUP3 JUMP JUMPDEST PUSH2 0x379 SWAP1 PUSH2 0x8E3 JUMP JUMPDEST PUSH2 0x379 SWAP1 PUSH2 0x8F7 JUMP JUMPDEST PUSH2 0x310 SWAP1 PUSH2 0x900 JUMP JUMPDEST PUSH1 0x20 DUP2 ADD SWAP3 SWAP2 PUSH2 0x314 SWAP2 SWAP1 PUSH2 0x909 JUMP JUMPDEST CALLVALUE PUSH2 0x30B JUMPI PUSH2 0x932 CALLDATASIZE PUSH1 0x4 PUSH2 0x300 JUMP JUMPDEST PUSH2 0x341 PUSH2 0x93D PUSH2 0x8D7 JUMP JUMPDEST PUSH1 0x40 MLOAD SWAP2 DUP3 SWAP2 DUP3 PUSH2 0x912 JUMP JUMPDEST CALLVALUE PUSH2 0x30B JUMPI PUSH2 0x959 CALLDATASIZE PUSH1 0x4 PUSH2 0x300 JUMP JUMPDEST PUSH2 0x341 PUSH2 0x331 PUSH2 0x1345 JUMP JUMPDEST CALLVALUE PUSH2 0x30B JUMPI PUSH2 0x341 PUSH2 0x331 PUSH2 0x97A CALLDATASIZE PUSH1 0x4 PUSH2 0x429 JUMP JUMPDEST PUSH2 0x1360 JUMP JUMPDEST PUSH2 0x379 PUSH1 0x0 PUSH1 0xD PUSH2 0x46D JUMP JUMPDEST CALLVALUE PUSH2 0x30B JUMPI PUSH2 0x99B CALLDATASIZE PUSH1 0x4 PUSH2 0x300 JUMP JUMPDEST PUSH2 0x341 PUSH2 0x331 PUSH2 0x97F JUMP JUMPDEST SWAP1 PUSH1 0x20 DUP3 DUP3 SUB SLT PUSH2 0x30B JUMPI DUP2 CALLDATALOAD PUSH8 0xFFFFFFFFFFFFFFFF DUP2 GT PUSH2 0x30B JUMPI PUSH2 0x379 SWAP3 ADD PUSH2 0x6FA JUMP JUMPDEST CALLVALUE PUSH2 0x30B JUMPI PUSH2 0x5A8 PUSH2 0x9DF CALLDATASIZE PUSH1 0x4 PUSH2 0x9A6 JUMP JUMPDEST PUSH2 0x154C JUMP JUMPDEST SWAP2 SWAP1 PUSH1 0x40 DUP4 DUP3 SUB SLT PUSH2 0x30B JUMPI PUSH2 0x379 SWAP1 PUSH1 0x20 PUSH2 0x588 DUP3 DUP7 PUSH2 0x41C JUMP JUMPDEST CALLVALUE PUSH2 0x30B JUMPI PUSH2 0x341 PUSH2 0x645 PUSH2 0xA16 CALLDATASIZE PUSH1 0x4 PUSH2 0x9E4 JUMP JUMPDEST SWAP1 PUSH2 0x1608 JUMP JUMPDEST PUSH1 0x0 PUSH2 0x488 PUSH2 0x379 SWAP3 PUSH1 0x14 PUSH2 0x44A JUMP JUMPDEST CALLVALUE PUSH2 0x30B JUMPI PUSH2 0x341 PUSH2 0x331 PUSH2 0xA42 CALLDATASIZE PUSH1 0x4 PUSH2 0x429 JUMP JUMPDEST PUSH2 0xA1C JUMP JUMPDEST CALLVALUE PUSH2 0x30B JUMPI PUSH2 0x341 PUSH2 0x40A PUSH2 0xA5D CALLDATASIZE PUSH1 0x4 PUSH2 0x429 JUMP JUMPDEST PUSH2 0x1697 JUMP JUMPDEST PUSH4 0x4E487B71 PUSH1 0xE0 SHL PUSH1 0x0 MSTORE PUSH1 0x0 PUSH1 0x4 MSTORE PUSH1 0x24 PUSH1 0x0 REVERT JUMPDEST PUSH4 0x4E487B71 PUSH1 0xE0 SHL PUSH1 0x0 MSTORE PUSH1 0x22 PUSH1 0x4 MSTORE PUSH1 0x24 PUSH1 0x0 REVERT JUMPDEST SWAP1 PUSH1 0x1 PUSH1 0x2 DUP4 DIV SWAP3 AND DUP1 ISZERO PUSH2 0xAAE JUMPI JUMPDEST PUSH1 0x20 DUP4 LT EQ PUSH2 0xAA9 JUMPI JUMP JUMPDEST PUSH2 0xA78 JUMP JUMPDEST SWAP2 PUSH1 0x7F AND SWAP2 PUSH2 0xA9E JUMP JUMPDEST DUP1 SLOAD PUSH1 0x0 SWAP4 SWAP3 SWAP2 PUSH2 0xAD5 PUSH2 0xACB DUP4 PUSH2 0xA8E JUMP JUMPDEST DUP1 DUP6 MSTORE SWAP4 PUSH1 0x20 ADD SWAP1 JUMP JUMPDEST SWAP2 PUSH1 0x1 DUP2 AND SWAP1 DUP2 ISZERO PUSH2 0xB27 JUMPI POP PUSH1 0x1 EQ PUSH2 0xAEE JUMPI POP POP POP JUMP JUMPDEST PUSH2 0xB01 SWAP2 SWAP3 SWAP4 SWAP5 POP PUSH1 0x0 MSTORE PUSH1 0x20 PUSH1 0x0 KECCAK256 SWAP1 JUMP JUMPDEST SWAP2 PUSH1 0x0 SWAP3 JUMPDEST DUP2 DUP5 LT PUSH2 0xB13 JUMPI POP POP ADD SWAP1 JUMP JUMPDEST DUP1 SLOAD DUP5 DUP5 ADD MSTORE PUSH1 0x20 SWAP1 SWAP4 ADD SWAP3 PUSH1 0x1 ADD PUSH2 0xB06 JUMP JUMPDEST SWAP3 SWAP5 SWAP6 POP POP POP PUSH1 0xFF NOT AND DUP3 MSTORE ISZERO ISZERO PUSH1 0x20 MUL ADD SWAP1 JUMP JUMPDEST SWAP1 PUSH2 0x379 SWAP2 PUSH2 0xAB8 JUMP JUMPDEST SWAP1 PUSH2 0x314 PUSH2 0xB60 SWAP3 PUSH2 0xB57 PUSH1 0x40 MLOAD SWAP1 JUMP JUMPDEST SWAP4 DUP5 DUP1 SWAP3 PUSH2 0xB3C JUMP JUMPDEST SUB DUP4 PUSH2 0x667 JUMP JUMPDEST SWAP1 PUSH1 0x0 LT PUSH2 0xB78 JUMPI PUSH2 0x379 SWAP1 PUSH2 0xB46 JUMP JUMPDEST PUSH2 0xA62 JUMP JUMPDEST PUSH2 0x379 PUSH1 0x0 PUSH1 0x12 PUSH2 0xB67 JUMP JUMPDEST CALLVALUE PUSH2 0x30B JUMPI PUSH2 0xB99 CALLDATASIZE PUSH1 0x4 PUSH2 0x300 JUMP JUMPDEST PUSH2 0x341 PUSH2 0x52F PUSH2 0xB7D JUMP JUMPDEST CALLVALUE PUSH2 0x30B JUMPI PUSH2 0x341 PUSH2 0x331 PUSH2 0xBBA CALLDATASIZE PUSH1 0x4 PUSH2 0x877 JUMP JUMPDEST PUSH2 0x16A0 JUMP JUMPDEST CALLVALUE PUSH2 0x30B JUMPI PUSH2 0xBCF CALLDATASIZE PUSH1 0x4 PUSH2 0x300 JUMP JUMPDEST PUSH2 0x5A8 PUSH2 0x1708 JUMP JUMPDEST PUSH2 0x379 PUSH1 0x0 PUSH1 0xF PUSH2 0x46D JUMP JUMPDEST CALLVALUE PUSH2 0x30B JUMPI PUSH2 0xBF3 CALLDATASIZE PUSH1 0x4 PUSH2 0x300 JUMP JUMPDEST PUSH2 0x341 PUSH2 0x331 PUSH2 0xBD7 JUMP JUMPDEST CALLVALUE PUSH2 0x30B JUMPI PUSH2 0xC0E CALLDATASIZE PUSH1 0x4 PUSH2 0x300 JUMP JUMPDEST PUSH2 0x341 PUSH2 0x40A PUSH2 0x1710 JUMP JUMPDEST CALLVALUE PUSH2 0x30B JUMPI PUSH2 0xC29 CALLDATASIZE PUSH1 0x4 PUSH2 0x300 JUMP JUMPDEST PUSH2 0x341 PUSH2 0x52F PUSH2 0x171A JUMP JUMPDEST DUP1 ISZERO ISZERO PUSH2 0x351 JUMP JUMPDEST SWAP1 POP CALLDATALOAD SWAP1 PUSH2 0x314 DUP3 PUSH2 0xC34 JUMP JUMPDEST SWAP2 SWAP1 PUSH1 0x40 DUP4 DUP3 SUB SLT PUSH2 0x30B JUMPI PUSH2 0x379 SWAP1 PUSH1 0x20 PUSH2 0xC65 DUP3 DUP7 PUSH2 0x55F JUMP JUMPDEST SWAP5 ADD PUSH2 0xC3C JUMP JUMPDEST CALLVALUE PUSH2 0x30B JUMPI PUSH2 0x5A8 PUSH2 0xC7F CALLDATASIZE PUSH1 0x4 PUSH2 0xC49 JUMP JUMPDEST SWAP1 PUSH2 0x1724 JUMP JUMPDEST PUSH4 0x4E487B71 PUSH1 0xE0 SHL PUSH1 0x0 MSTORE PUSH1 0x32 PUSH1 0x4 MSTORE PUSH1 0x24 PUSH1 0x0 REVERT JUMPDEST DUP1 SLOAD DUP3 LT ISZERO PUSH2 0xCBE JUMPI PUSH2 0xCB5 PUSH1 0x1 SWAP2 PUSH1 0x0 MSTORE PUSH1 0x20 PUSH1 0x0 KECCAK256 SWAP1 JUMP JUMPDEST SWAP2 MUL ADD SWAP1 PUSH1 0x0 SWAP1 JUMP JUMPDEST PUSH2 0xC85 JUMP JUMPDEST PUSH1 0x10 SLOAD DUP2 LT ISZERO PUSH2 0x30B JUMPI PUSH2 0xCDB PUSH2 0x379 SWAP2 PUSH1 0x10 PUSH2 0xC9B JUMP JUMPDEST SWAP1 PUSH2 0x46D JUMP JUMPDEST CALLVALUE PUSH2 0x30B JUMPI PUSH2 0x341 PUSH2 0x331 PUSH2 0xCF7 CALLDATASIZE PUSH1 0x4 PUSH2 0x429 JUMP JUMPDEST PUSH2 0xCC3 JUMP JUMPDEST CALLVALUE PUSH2 0x30B JUMPI PUSH2 0x341 PUSH2 0x331 PUSH2 0xD12 CALLDATASIZE PUSH1 0x4 PUSH2 0x429 JUMP JUMPDEST PUSH2 0x172F JUMP JUMPDEST CALLVALUE PUSH2 0x30B JUMPI PUSH2 0x5A8 PUSH2 0xD2A CALLDATASIZE PUSH1 0x4 PUSH2 0x715 JUMP JUMPDEST SWAP3 SWAP2 SWAP1 SWAP2 PUSH2 0x17C0 JUMP JUMPDEST CALLVALUE PUSH2 0x30B JUMPI PUSH2 0x341 PUSH2 0x52F PUSH2 0xD49 CALLDATASIZE PUSH1 0x4 PUSH2 0x429 JUMP JUMPDEST PUSH2 0x18C6 JUMP JUMPDEST CALLVALUE PUSH2 0x30B JUMPI PUSH2 0x341 PUSH2 0x331 PUSH2 0xD64 CALLDATASIZE PUSH1 0x4 PUSH2 0x429 JUMP JUMPDEST PUSH2 0x197F JUMP JUMPDEST PUSH2 0x379 PUSH1 0x0 PUSH1 0xC PUSH2 0x46D JUMP JUMPDEST CALLVALUE PUSH2 0x30B JUMPI PUSH2 0xD85 CALLDATASIZE PUSH1 0x4 PUSH2 0x300 JUMP JUMPDEST PUSH2 0x341 PUSH2 0x331 PUSH2 0xD69 JUMP JUMPDEST PUSH2 0x5A8 PUSH2 0xD9E CALLDATASIZE PUSH1 0x4 PUSH2 0x429 JUMP JUMPDEST PUSH2 0x1B47 JUMP JUMPDEST CALLVALUE PUSH2 0x30B JUMPI PUSH2 0x5A8 PUSH2 0xDB6 CALLDATASIZE PUSH1 0x4 PUSH2 0x429 JUMP JUMPDEST PUSH2 0x1D00 JUMP JUMPDEST CALLVALUE PUSH2 0x30B JUMPI PUSH2 0xDCB CALLDATASIZE PUSH1 0x4 PUSH2 0x300 JUMP JUMPDEST PUSH2 0x341 PUSH2 0x52F PUSH2 0x1DDD JUMP JUMPDEST SWAP2 SWAP1 PUSH1 0x40 DUP4 DUP3 SUB SLT PUSH2 0x30B JUMPI PUSH2 0x379 SWAP1 PUSH1 0x20 PUSH2 0xDF2 DUP3 DUP7 PUSH2 0x55F JUMP JUMPDEST SWAP5 ADD PUSH2 0x55F JUMP JUMPDEST CALLVALUE PUSH2 0x30B JUMPI PUSH2 0x341 PUSH2 0x397 PUSH2 0xE0F CALLDATASIZE PUSH1 0x4 PUSH2 0xDD6 JUMP JUMPDEST SWAP1 PUSH2 0x1E21 JUMP JUMPDEST CALLVALUE PUSH2 0x30B JUMPI PUSH2 0x341 PUSH2 0x397 PUSH2 0xE2B CALLDATASIZE PUSH1 0x4 PUSH2 0x429 JUMP JUMPDEST PUSH2 0x1E46 JUMP JUMPDEST CALLVALUE PUSH2 0x30B JUMPI PUSH2 0x5A8 PUSH2 0xE43 CALLDATASIZE PUSH1 0x4 PUSH2 0x877 JUMP JUMPDEST PUSH2 0x1EB0 JUMP JUMPDEST PUSH2 0x379 SWAP1 DUP2 JUMP JUMPDEST PUSH2 0x379 SWAP1 SLOAD PUSH2 0xE48 JUMP JUMPDEST PUSH2 0x379 PUSH2 0xD12 PUSH1 0xF PUSH2 0xE4F JUMP JUMPDEST PUSH2 0xE6F DUP2 PUSH2 0x1EB9 JUMP JUMPDEST SWAP1 DUP2 ISZERO PUSH2 0xE7A JUMPI POP SWAP1 JUMP JUMPDEST SWAP1 POP PUSH2 0xE96 PUSH4 0x2FA757F3 PUSH1 0xE0 SHL JUMPDEST SWAP2 PUSH1 0x1 PUSH1 0x1 PUSH1 0xE0 SHL SUB NOT AND SWAP1 JUMP JUMPDEST EQ SWAP1 JUMP JUMPDEST PUSH2 0x379 SWAP1 PUSH2 0xB46 JUMP JUMPDEST PUSH2 0x379 PUSH1 0x0 PUSH2 0xE9A JUMP JUMPDEST PUSH2 0x379 SWAP1 PUSH2 0xEBA DUP2 PUSH2 0x1EC2 JUMP JUMPDEST POP PUSH2 0x1F02 JUMP JUMPDEST PUSH2 0x314 SWAP2 CALLER SWAP2 PUSH2 0x1F1E JUMP JUMPDEST PUSH4 0x4E487B71 PUSH1 0xE0 SHL PUSH1 0x0 MSTORE PUSH1 0x11 PUSH1 0x4 MSTORE PUSH1 0x24 PUSH1 0x0 REVERT JUMPDEST SWAP2 SWAP1 DUP3 ADD DUP1 SWAP3 GT PUSH2 0xEEE JUMPI JUMP JUMPDEST PUSH2 0xECB JUMP JUMPDEST SWAP1 PUSH1 0x0 NOT SWAP1 JUMPDEST SWAP2 DUP2 NOT AND SWAP2 AND OR SWAP1 JUMP JUMPDEST SWAP1 PUSH2 0xF13 PUSH2 0x379 PUSH2 0xF1A SWAP3 PUSH2 0x43D JUMP JUMPDEST DUP3 SLOAD PUSH2 0xEF3 JUMP JUMPDEST SWAP1 SSTORE JUMP JUMPDEST PUSH2 0xF3A PUSH2 0xF2A PUSH1 0x8 SLOAD SWAP1 JUMP JUMPDEST PUSH2 0xF34 PUSH1 0x1 PUSH2 0x43D JUMP JUMPDEST SWAP1 PUSH2 0xEE1 JUMP JUMPDEST PUSH2 0xF42 PUSH2 0x1F6C JUMP JUMPDEST POP PUSH2 0x379 PUSH2 0xF51 DUP3 PUSH1 0x14 PUSH2 0x44A JUMP JUMPDEST TIMESTAMP SWAP1 PUSH2 0xF03 JUMP JUMPDEST SWAP1 PUSH2 0xF73 PUSH2 0xF67 PUSH2 0x5D2 DUP5 SLOAD SWAP1 JUMP JUMPDEST SWAP3 PUSH1 0x0 MSTORE PUSH1 0x20 PUSH1 0x0 KECCAK256 SWAP1 JUMP JUMPDEST SWAP1 PUSH1 0x0 JUMPDEST DUP2 DUP2 LT PUSH2 0xF84 JUMPI POP POP POP SWAP1 JUMP JUMPDEST SWAP1 SWAP2 SWAP3 PUSH2 0xFA8 PUSH2 0xFA1 PUSH1 0x1 SWAP3 PUSH2 0xF99 DUP8 PUSH2 0xE4F JUMP JUMPDEST DUP2 MSTORE PUSH1 0x20 ADD SWAP1 JUMP JUMPDEST SWAP5 PUSH1 0x1 ADD SWAP1 JUMP JUMPDEST SWAP3 SWAP2 ADD PUSH2 0xF77 JUMP JUMPDEST SWAP1 PUSH2 0x379 SWAP2 PUSH2 0xF58 JUMP JUMPDEST SWAP1 PUSH2 0x314 PUSH2 0xB60 SWAP3 PUSH2 0xFCB PUSH1 0x40 MLOAD SWAP1 JUMP JUMPDEST SWAP4 DUP5 DUP1 SWAP3 PUSH2 0xFB0 JUMP JUMPDEST PUSH2 0x379 SWAP1 PUSH2 0xFBA JUMP JUMPDEST PUSH2 0x379 PUSH1 0x10 PUSH2 0xFD4 JUMP JUMPDEST PUSH2 0x1000 PUSH2 0xFFA PUSH2 0x379 SWAP3 PUSH4 0xFFFFFFFF AND SWAP1 JUMP JUMPDEST PUSH1 0xE0 SHL SWAP1 JUMP JUMPDEST PUSH1 0x1 PUSH1 0x1 PUSH1 0xE0 SHL SUB NOT AND SWAP1 JUMP JUMPDEST POP POP POP POP PUSH2 0x1019 PUSH1 0x0 SWAP1 JUMP JUMPDEST POP PUSH2 0x379 PUSH4 0x150B7A02 PUSH2 0xFE7 JUMP JUMPDEST DUP2 DUP2 MUL SWAP3 SWAP2 DUP2 ISZERO SWAP2 DUP5 DIV EQ OR ISZERO PUSH2 0xEEE JUMPI JUMP JUMPDEST PUSH4 0x4E487B71 PUSH1 0xE0 SHL PUSH1 0x0 MSTORE PUSH1 0x12 PUSH1 0x4 MSTORE PUSH1 0x24 PUSH1 0x0 REVERT JUMPDEST SWAP1 PUSH2 0x105A JUMP JUMPDEST SWAP2 SWAP1 JUMP JUMPDEST SWAP1 DUP2 ISZERO PUSH2 0x1065 JUMPI DIV SWAP1 JUMP JUMPDEST PUSH2 0x103A JUMP JUMPDEST SWAP2 SWAP1 DUP3 SUB SWAP2 DUP3 GT PUSH2 0xEEE JUMPI JUMP JUMPDEST PUSH2 0x379 PUSH2 0x1082 PUSH2 0x1301 JUMP JUMPDEST PUSH2 0x10AF PUSH2 0x1098 PUSH2 0x1092 PUSH1 0xD PUSH2 0xE4F JUMP JUMPDEST DUP4 PUSH2 0x1027 JUMP JUMPDEST PUSH2 0x10A9 PUSH8 0xDE0B6B3A7640000 PUSH2 0x43D JUMP JUMPDEST SWAP1 PUSH2 0x1050 JUMP JUMPDEST SWAP1 PUSH2 0x106A JUMP JUMPDEST PUSH2 0x3B3 PUSH2 0x379 PUSH2 0x379 SWAP3 SWAP1 JUMP JUMPDEST PUSH2 0x379 SWAP1 PUSH2 0x10B5 JUMP JUMPDEST PUSH1 0x40 SWAP1 PUSH2 0x10F2 PUSH2 0x314 SWAP5 SWAP7 SWAP6 SWAP4 SWAP7 PUSH2 0x10EB PUSH1 0x60 DUP5 ADD SWAP9 PUSH1 0x0 DUP6 ADD SWAP1 PUSH2 0x3D6 JUMP JUMPDEST PUSH1 0x20 DUP4 ADD MSTORE JUMP JUMPDEST ADD SWAP1 PUSH2 0x3D6 JUMP JUMPDEST SWAP1 SWAP2 PUSH1 0x0 SWAP3 PUSH2 0x1107 DUP5 PUSH2 0x10C2 JUMP JUMPDEST PUSH2 0x1110 DUP2 PUSH2 0x3B3 JUMP JUMPDEST PUSH2 0x1119 DUP4 PUSH2 0x3B3 JUMP JUMPDEST EQ PUSH2 0x1168 JUMPI POP PUSH2 0x112B SWAP1 DUP3 CALLER SWAP2 PUSH2 0x2026 JUMP JUMPDEST SWAP2 PUSH2 0x1135 DUP2 PUSH2 0x3B3 JUMP JUMPDEST PUSH2 0x113E DUP5 PUSH2 0x3B3 JUMP JUMPDEST SUB PUSH2 0x1149 JUMPI POP POP POP POP JUMP JUMPDEST PUSH4 0x64283D7B PUSH1 0xE0 SHL DUP5 MSTORE DUP4 SWAP3 PUSH2 0x1164 SWAP3 SWAP1 SWAP2 PUSH1 0x4 DUP6 ADD PUSH2 0x10CB JUMP JUMPDEST SUB SWAP1 REVERT JUMPDEST DUP5 PUSH2 0x1164 DUP2 SWAP3 PUSH4 0x32505749 PUSH1 0xE1 SHL DUP4 MSTORE PUSH1 0x4 DUP4 ADD PUSH2 0x3DF JUMP JUMPDEST SWAP2 PUSH1 0x20 PUSH2 0x314 SWAP3 SWAP5 SWAP4 PUSH2 0x119C PUSH1 0x40 DUP3 ADD SWAP7 PUSH1 0x0 DUP4 ADD SWAP1 PUSH2 0x3D6 JUMP JUMPDEST ADD MSTORE JUMP JUMPDEST SWAP1 PUSH2 0x454 SWAP1 PUSH2 0x900 JUMP JUMPDEST PUSH2 0x11B6 PUSH2 0x379 DUP3 PUSH2 0x16A0 JUMP JUMPDEST DUP3 LT ISZERO PUSH2 0x11D9 JUMPI PUSH2 0x379 SWAP2 PUSH2 0x11CF PUSH2 0x11D4 SWAP3 PUSH1 0x6 PUSH2 0x11A0 JUMP JUMPDEST PUSH2 0x44A JUMP JUMPDEST PUSH2 0xE4F JUMP JUMPDEST PUSH4 0x295F44F7 PUSH1 0xE2 SHL PUSH1 0x0 SWAP1 DUP2 MSTORE SWAP2 PUSH2 0x11F2 SWAP2 PUSH1 0x4 PUSH2 0x1181 JUMP JUMPDEST SUB PUSH1 0x0 REVERT JUMPDEST PUSH2 0x379 SWAP1 PUSH2 0x3B3 JUMP JUMPDEST PUSH2 0x379 SWAP1 SLOAD PUSH2 0x11F7 JUMP JUMPDEST ISZERO PUSH2 0x1211 JUMPI JUMP JUMPDEST PUSH1 0x40 MLOAD PUSH3 0x461BCD PUSH1 0xE5 SHL DUP2 MSTORE PUSH1 0x20 PUSH1 0x4 DUP3 ADD MSTORE PUSH1 0x23 PUSH1 0x24 DUP3 ADD MSTORE PUSH32 0x4F6E6C792063726561746F722063616E2063616C6C20746869732066756E6374 PUSH1 0x44 DUP3 ADD MSTORE PUSH3 0x34B7B7 PUSH1 0xE9 SHL PUSH1 0x64 DUP3 ADD MSTORE PUSH1 0x84 SWAP1 REVERT JUMPDEST PUSH2 0x314 SWAP1 PUSH2 0x128A PUSH2 0x127B PUSH2 0x1276 PUSH1 0xE PUSH2 0x1200 JUMP JUMPDEST PUSH2 0x3B3 JUMP JUMPDEST PUSH2 0x1284 CALLER PUSH2 0x3B3 JUMP JUMPDEST EQ PUSH2 0x120A JUMP JUMPDEST PUSH2 0x12B5 JUMP JUMPDEST SWAP1 PUSH1 0x1 PUSH1 0x1 PUSH1 0xA0 SHL SUB SWAP1 PUSH2 0xEF9 JUMP JUMPDEST SWAP1 PUSH2 0x12AE PUSH2 0x379 PUSH2 0xF1A SWAP3 PUSH2 0x900 JUMP JUMPDEST DUP3 SLOAD PUSH2 0x128F JUMP JUMPDEST PUSH2 0x314 SWAP1 PUSH1 0xE PUSH2 0x129E JUMP JUMPDEST PUSH2 0x314 SWAP1 PUSH2 0x1262 JUMP JUMPDEST SWAP1 PUSH2 0x12D6 PUSH2 0x6DB DUP4 PUSH2 0x6A2 JUMP JUMPDEST SWAP2 DUP3 MSTORE JUMP JUMPDEST PUSH2 0x379 PUSH1 0x0 PUSH2 0x12C9 JUMP JUMPDEST PUSH2 0x379 PUSH2 0x12DB JUMP JUMPDEST SWAP1 SWAP2 PUSH2 0x314 SWAP3 PUSH2 0x12FB PUSH2 0x12E5 JUMP JUMPDEST SWAP3 PUSH2 0x17C0 JUMP JUMPDEST PUSH2 0x130B PUSH1 0xF PUSH2 0xE4F JUMP JUMPDEST PUSH2 0x1318 PUSH2 0x1056 PUSH1 0x0 PUSH2 0x43D JUMP JUMPDEST GT ISZERO PUSH2 0x1338 JUMPI PUSH2 0x379 PUSH2 0xD12 PUSH2 0x132E PUSH1 0xF PUSH2 0xE4F JUMP JUMPDEST PUSH2 0x10AF PUSH1 0x1 PUSH2 0x43D JUMP JUMPDEST PUSH2 0x379 PUSH2 0xD12 PUSH1 0x0 PUSH2 0x43D JUMP JUMPDEST PUSH2 0x379 PUSH2 0x1350 PUSH2 0xE59 JUMP JUMPDEST PUSH2 0xF34 PUSH2 0x1098 PUSH2 0x1092 PUSH1 0xD PUSH2 0xE4F JUMP JUMPDEST PUSH2 0x136C PUSH2 0x379 PUSH1 0x8 SLOAD SWAP1 JUMP JUMPDEST DUP2 LT ISZERO PUSH2 0x1381 JUMPI PUSH2 0xCDB PUSH2 0x379 SWAP2 PUSH1 0x8 PUSH2 0xC9B JUMP JUMPDEST PUSH2 0x1164 SWAP1 PUSH1 0x0 SWAP2 DUP3 SWAP2 PUSH2 0x1393 DUP4 PUSH2 0x10C2 JUMP JUMPDEST PUSH4 0x295F44F7 PUSH1 0xE2 SHL DUP5 MSTORE PUSH1 0x4 DUP5 ADD PUSH2 0x1181 JUMP JUMPDEST PUSH2 0x314 SWAP1 PUSH2 0x13BA PUSH2 0x127B PUSH2 0x1276 PUSH1 0xE PUSH2 0x1200 JUMP JUMPDEST PUSH2 0x1541 JUMP JUMPDEST SWAP2 PUSH1 0x0 NOT PUSH1 0x8 SWAP3 SWAP1 SWAP3 MUL SWAP2 DUP3 SHL SWAP2 SHL PUSH2 0xEF9 JUMP JUMPDEST SWAP2 SWAP1 PUSH2 0x13E4 PUSH2 0x379 PUSH2 0xF1A SWAP4 PUSH2 0x43D JUMP JUMPDEST SWAP1 DUP4 SLOAD PUSH2 0x13BF JUMP JUMPDEST PUSH2 0x314 SWAP2 PUSH1 0x0 SWAP2 PUSH2 0x13D3 JUMP JUMPDEST DUP2 DUP2 LT PUSH2 0x1403 JUMPI POP POP JUMP JUMPDEST DUP1 PUSH2 0x1411 PUSH1 0x0 PUSH1 0x1 SWAP4 PUSH2 0x13EC JUMP JUMPDEST ADD PUSH2 0x13F8 JUMP JUMPDEST SWAP2 SWAP1 PUSH1 0x1F DUP2 GT PUSH2 0x1426 JUMPI POP POP POP JUMP JUMPDEST PUSH2 0x1438 PUSH2 0x314 SWAP4 PUSH1 0x0 MSTORE PUSH1 0x20 PUSH1 0x0 KECCAK256 SWAP1 JUMP JUMPDEST SWAP1 PUSH1 0x20 PUSH1 0x1F DUP5 ADD DUP2 SWAP1 DIV DUP4 ADD SWAP4 LT PUSH2 0x145A JUMPI JUMPDEST PUSH1 0x20 PUSH1 0x1F SWAP1 SWAP2 ADD DIV ADD SWAP1 PUSH2 0x13F8 JUMP JUMPDEST SWAP1 SWAP2 POP DUP2 SWAP1 PUSH2 0x144B JUMP JUMPDEST SWAP1 PUSH2 0x146D DUP2 MLOAD SWAP1 JUMP JUMPDEST SWAP1 PUSH8 0xFFFFFFFFFFFFFFFF DUP3 GT PUSH2 0x689 JUMPI PUSH2 0x1491 DUP3 PUSH2 0x148B DUP6 SLOAD PUSH2 0xA8E JUMP JUMPDEST DUP6 PUSH2 0x1417 JUMP JUMPDEST PUSH1 0x20 SWAP1 PUSH1 0x1F DUP4 GT PUSH1 0x1 EQ PUSH2 0x14CC JUMPI PUSH2 0xF1A SWAP3 SWAP2 PUSH1 0x0 SWAP2 DUP4 PUSH2 0x14C1 JUMPI JUMPDEST POP POP PUSH1 0x0 NOT PUSH1 0x8 DUP4 MUL SHR NOT AND SWAP1 PUSH1 0x2 MUL OR SWAP1 JUMP JUMPDEST ADD MLOAD SWAP1 POP CODESIZE DUP1 PUSH2 0x14AD JUMP JUMPDEST PUSH1 0x1F NOT DUP4 AND SWAP2 PUSH2 0x14E1 DUP6 PUSH1 0x0 MSTORE PUSH1 0x20 PUSH1 0x0 KECCAK256 SWAP1 JUMP JUMPDEST SWAP3 PUSH1 0x0 JUMPDEST DUP2 DUP2 LT PUSH2 0x151F JUMPI POP SWAP2 PUSH1 0x2 SWAP4 SWAP2 DUP6 PUSH1 0x1 SWAP7 SWAP5 LT PUSH2 0x1506 JUMPI JUMPDEST POP POP POP MUL ADD SWAP1 SSTORE JUMP JUMPDEST ADD MLOAD PUSH1 0x0 NOT PUSH1 0x8 PUSH1 0x1F DUP6 AND MUL SHR NOT AND SWAP1 SSTORE CODESIZE DUP1 DUP1 PUSH2 0x14FD JUMP JUMPDEST SWAP2 SWAP4 PUSH1 0x20 PUSH1 0x1 DUP2 SWAP3 DUP8 DUP8 ADD MLOAD DUP2 SSTORE ADD SWAP6 ADD SWAP3 ADD PUSH2 0x14E5 JUMP JUMPDEST SWAP1 PUSH2 0x314 SWAP2 PUSH2 0x1464 JUMP JUMPDEST PUSH2 0x314 SWAP1 PUSH1 0x12 PUSH2 0x1537 JUMP JUMPDEST PUSH2 0x314 SWAP1 PUSH2 0x13A6 JUMP JUMPDEST ISZERO PUSH2 0x155C JUMPI JUMP JUMPDEST PUSH1 0x40 MLOAD PUSH3 0x461BCD PUSH1 0xE5 SHL DUP2 MSTORE PUSH1 0x20 PUSH1 0x4 DUP3 ADD MSTORE PUSH1 0x19 PUSH1 0x24 DUP3 ADD MSTORE PUSH32 0x537461727420696E646578206F7574206F6620626F756E647300000000000000 PUSH1 0x44 DUP3 ADD MSTORE PUSH1 0x64 SWAP1 REVERT JUMPDEST PUSH8 0xFFFFFFFFFFFFFFFF DUP2 GT PUSH2 0x689 JUMPI PUSH1 0x20 DUP1 SWAP2 MUL ADD SWAP1 JUMP JUMPDEST SWAP1 PUSH2 0x12D6 PUSH2 0x6DB DUP4 PUSH2 0x15A1 JUMP JUMPDEST CALLDATASIZE SWAP1 CALLDATACOPY JUMP JUMPDEST SWAP1 PUSH2 0x314 PUSH2 0x15E1 PUSH2 0x15DB DUP5 PUSH2 0x15B9 JUMP JUMPDEST SWAP4 PUSH2 0x15A1 JUMP JUMPDEST PUSH1 0x1F NOT ADD PUSH1 0x20 DUP5 ADD PUSH2 0x15C6 JUMP JUMPDEST SWAP1 PUSH2 0x15F7 DUP3 MLOAD SWAP1 JUMP JUMPDEST DUP2 LT ISZERO PUSH2 0xCBE JUMPI PUSH1 0x20 DUP1 SWAP2 MUL ADD ADD SWAP1 JUMP JUMPDEST SWAP2 PUSH2 0x1635 PUSH2 0x162D PUSH1 0x10 SWAP4 PUSH2 0x1627 PUSH2 0x1620 PUSH2 0x379 DUP8 SLOAD SWAP1 JUMP JUMPDEST DUP8 LT PUSH2 0x1555 JUMP JUMPDEST DUP6 PUSH2 0xEE1 JUMP JUMPDEST DUP4 SLOAD SWAP1 PUSH2 0x2031 JUMP JUMPDEST SWAP2 PUSH2 0x1648 PUSH2 0x1643 DUP6 DUP6 PUSH2 0x106A JUMP JUMPDEST PUSH2 0x15CB JUMP JUMPDEST SWAP2 DUP5 JUMPDEST DUP5 JUMPDEST DUP2 LT ISZERO PUSH2 0x168E JUMPI PUSH2 0x1687 DUP2 PUSH2 0x1681 PUSH2 0x166B PUSH2 0xCDB PUSH2 0x164D SWAP6 DUP9 PUSH2 0xC9B JUMP JUMPDEST PUSH2 0x167E PUSH2 0x1678 DUP12 DUP6 PUSH2 0x106A JUMP JUMPDEST DUP10 PUSH2 0x15EE JUMP JUMPDEST MSTORE JUMP JUMPDEST PUSH1 0x1 ADD SWAP1 JUMP JUMPDEST SWAP1 POP PUSH2 0x164B JUMP JUMPDEST POP SWAP4 POP POP SWAP1 POP SWAP1 JUMP JUMPDEST PUSH2 0x379 SWAP1 PUSH2 0x1EC2 JUMP JUMPDEST PUSH1 0x0 PUSH2 0x16AB DUP2 PUSH2 0x10C2 JUMP JUMPDEST PUSH2 0x16B4 DUP2 PUSH2 0x3B3 JUMP JUMPDEST PUSH2 0x16BD DUP5 PUSH2 0x3B3 JUMP JUMPDEST EQ PUSH2 0x16D2 JUMPI POP POP PUSH2 0x11D4 PUSH2 0x379 SWAP2 PUSH1 0x3 PUSH2 0x11A0 JUMP JUMPDEST PUSH4 0x22718AD9 PUSH1 0xE2 SHL DUP3 MSTORE DUP2 SWAP1 PUSH2 0x1164 SWAP1 PUSH1 0x4 DUP4 ADD PUSH2 0x3DF JUMP JUMPDEST PUSH2 0x16F3 PUSH2 0x2043 JUMP JUMPDEST PUSH2 0x314 PUSH2 0x314 PUSH2 0x1703 PUSH1 0x0 PUSH2 0x10C2 JUMP JUMPDEST PUSH2 0x207A JUMP JUMPDEST PUSH2 0x314 PUSH2 0x16EB JUMP JUMPDEST PUSH2 0x379 PUSH1 0xA PUSH2 0x1200 JUMP JUMPDEST PUSH2 0x379 PUSH1 0x1 PUSH2 0xE9A JUMP JUMPDEST PUSH2 0x314 SWAP2 SWAP1 CALLER PUSH2 0x20F3 JUMP JUMPDEST PUSH2 0x1739 PUSH1 0x0 PUSH2 0x43D JUMP JUMPDEST DUP2 EQ PUSH2 0x17B5 JUMPI PUSH2 0x379 SWAP1 PUSH2 0xF34 PUSH2 0x1750 PUSH1 0xB PUSH2 0xE4F JUMP JUMPDEST SWAP2 PUSH2 0x1777 PUSH2 0x17A0 PUSH2 0x1796 PUSH2 0x1796 PUSH2 0x17A5 PUSH2 0x177D PUSH2 0x176D PUSH1 0xB PUSH2 0xE4F JUMP JUMPDEST PUSH2 0x1777 PUSH1 0x2 PUSH2 0x43D JUMP JUMPDEST SWAP1 PUSH2 0x1027 JUMP JUMPDEST PUSH2 0x1777 PUSH2 0x17A0 PUSH2 0x1796 DUP10 PUSH2 0x1791 PUSH1 0x64 PUSH2 0x43D JUMP JUMPDEST PUSH2 0x1027 JUMP JUMPDEST PUSH2 0x10A9 PUSH1 0xC PUSH2 0xE4F JUMP JUMPDEST PUSH2 0x21B7 JUMP JUMPDEST SWAP5 PUSH2 0x1791 DUP2 PUSH2 0x1791 PUSH2 0x2710 PUSH2 0x43D JUMP JUMPDEST POP PUSH2 0x379 PUSH1 0xB PUSH2 0xE4F JUMP JUMPDEST SWAP1 PUSH2 0x314 SWAP4 SWAP3 SWAP2 PUSH2 0x17D2 DUP4 DUP4 DUP4 PUSH2 0x10F9 JUMP JUMPDEST PUSH2 0x231D JUMP JUMPDEST ADD SWAP2 DUP3 MSTORE JUMP JUMPDEST PUSH2 0x379 SWAP1 PUSH2 0x43D JUMP JUMPDEST PUSH2 0x4FF PUSH2 0x17FE SWAP3 PUSH1 0x20 SWAP3 PUSH2 0x17F8 DUP2 MLOAD SWAP1 JUMP JUMPDEST SWAP5 DUP6 SWAP3 SWAP1 JUMP JUMPDEST SWAP4 DUP5 SWAP2 ADD PUSH2 0x4A8 JUMP JUMPDEST PUSH32 0x7B226465736372697074696F6E223A2022466C69704E46542069732074686520 DUP2 MSTORE PUSH32 0x666972737420426F6E64696E67204375727665204E46542E222C2022696D6167 PUSH1 0x20 DUP3 ADD MSTORE PUSH32 0x65223A2022646174613A696D6167652F7376672B786D6C3B6261736536342C00 PUSH1 0x40 DUP3 ADD MSTORE PUSH2 0x379 SWAP2 PUSH2 0x1888 SWAP2 PUSH1 0x5F ADD JUMPDEST SWAP1 PUSH2 0x17E6 JUMP JUMPDEST PUSH2 0x227D PUSH1 0xF0 SHL DUP2 MSTORE PUSH1 0x2 ADD SWAP1 JUMP JUMPDEST PUSH32 0x646174613A6170706C69636174696F6E2F6A736F6E3B6261736536342C000000 DUP2 MSTORE PUSH2 0x379 SWAP2 SWAP1 PUSH1 0x1D ADD PUSH2 0x1882 JUMP JUMPDEST PUSH2 0x1963 PUSH2 0x1942 PUSH2 0x379 PUSH2 0x1947 PUSH2 0x1942 PUSH2 0x379 PUSH2 0x193D PUSH2 0x1919 PUSH2 0x1925 PUSH2 0x379 SWAP10 PUSH2 0x18ED PUSH1 0x60 SWAP1 JUMP JUMPDEST POP PUSH2 0x18FC PUSH2 0x11D4 DUP3 PUSH1 0x14 PUSH2 0x44A JUMP JUMPDEST PUSH1 0x40 MLOAD SWAP4 DUP5 SWAP3 PUSH1 0x20 DUP5 ADD SWAP3 DUP4 PUSH1 0x20 DUP2 PUSH2 0x17D7 PUSH2 0x4FF SWAP4 DUP4 SWAP7 SWAP6 SWAP1 MSTORE JUMP JUMPDEST SWAP1 DUP2 SUB DUP3 MSTORE SUB DUP3 PUSH2 0x667 JUMP JUMPDEST PUSH2 0x1937 PUSH2 0x1930 DUP3 MLOAD SWAP1 JUMP JUMPDEST SWAP2 PUSH1 0x20 ADD SWAP1 JUMP JUMPDEST KECCAK256 PUSH2 0x17DD JUMP JUMPDEST PUSH2 0x25BE JUMP JUMPDEST PUSH2 0x2861 JUMP JUMPDEST PUSH2 0x379 PUSH2 0x1953 PUSH1 0x40 MLOAD SWAP1 JUMP JUMPDEST DUP1 SWAP3 PUSH2 0x1919 PUSH1 0x20 DUP4 ADD SWAP2 DUP3 PUSH2 0x1807 JUMP JUMPDEST PUSH2 0x379 PUSH2 0x196F PUSH1 0x40 MLOAD SWAP1 JUMP JUMPDEST DUP1 SWAP3 PUSH2 0x1919 PUSH1 0x20 DUP4 ADD SWAP2 DUP3 PUSH2 0x1896 JUMP JUMPDEST PUSH2 0xCDB PUSH2 0x379 SWAP2 PUSH2 0x198E PUSH1 0x0 SWAP1 JUMP JUMPDEST POP PUSH1 0x10 PUSH2 0xC9B JUMP JUMPDEST ISZERO PUSH2 0x199D JUMPI JUMP JUMPDEST PUSH1 0x40 MLOAD PUSH3 0x461BCD PUSH1 0xE5 SHL DUP2 MSTORE PUSH1 0x20 PUSH1 0x4 DUP3 ADD MSTORE PUSH1 0x1F PUSH1 0x24 DUP3 ADD MSTORE PUSH32 0x546F6B656E206973206E6F7420617661696C61626C6520666F722073616C6500 PUSH1 0x44 DUP3 ADD MSTORE PUSH1 0x64 SWAP1 REVERT JUMPDEST PUSH2 0x314 SWAP1 PUSH2 0x1A0D PUSH2 0x19F2 DUP3 PUSH2 0x1697 JUMP JUMPDEST PUSH2 0x1A07 PUSH2 0x1A01 PUSH2 0x1276 ADDRESS PUSH2 0x900 JUMP JUMPDEST SWAP2 PUSH2 0x3B3 JUMP JUMPDEST EQ PUSH2 0x1996 JUMP JUMPDEST PUSH2 0x1A77 JUMP JUMPDEST ISZERO PUSH2 0x1A19 JUMPI JUMP JUMPDEST PUSH1 0x40 MLOAD PUSH3 0x461BCD PUSH1 0xE5 SHL DUP2 MSTORE PUSH1 0x20 PUSH1 0x4 DUP3 ADD MSTORE PUSH1 0x14 PUSH1 0x24 DUP3 ADD MSTORE PUSH20 0x125B9CDD59999A58DA595B9D081C185E5B595B9D PUSH1 0x62 SHL PUSH1 0x44 DUP3 ADD MSTORE PUSH1 0x64 SWAP1 REVERT JUMPDEST PUSH1 0x0 NOT DUP2 EQ PUSH2 0xEEE JUMPI PUSH1 0x1 ADD SWAP1 JUMP JUMPDEST SWAP1 DUP2 MSTORE PUSH1 0x40 DUP2 ADD SWAP3 SWAP2 PUSH2 0x314 SWAP2 PUSH1 0x20 ADD MSTORE JUMP JUMPDEST PUSH2 0x1B42 PUSH2 0x314 SWAP2 PUSH2 0x1A86 PUSH2 0xE59 JUMP JUMPDEST PUSH2 0x1A96 PUSH2 0x1098 PUSH2 0x1092 PUSH1 0xD PUSH2 0xE4F JUMP JUMPDEST SWAP2 PUSH2 0x1AAF PUSH2 0x1AA7 PUSH2 0x379 DUP6 DUP6 PUSH2 0xEE1 JUMP JUMPDEST CALLVALUE LT ISZERO PUSH2 0x1A12 JUMP JUMPDEST PUSH2 0x1AC3 DUP2 PUSH2 0x1ABC ADDRESS PUSH2 0x900 JUMP JUMPDEST CALLER SWAP1 PUSH2 0x295E JUMP JUMPDEST PUSH2 0x1ACC DUP2 PUSH2 0x2A21 JUMP JUMPDEST PUSH2 0x1AE8 PUSH2 0x1AE1 PUSH2 0x1ADC PUSH1 0xF PUSH2 0xE4F JUMP JUMPDEST PUSH2 0x1A55 JUMP JUMPDEST PUSH1 0xF PUSH2 0xF03 JUMP JUMPDEST PUSH2 0x1AFA PUSH2 0x1AF4 CALLER PUSH2 0x900 JUMP JUMPDEST SWAP2 PUSH2 0x43D JUMP JUMPDEST SWAP1 PUSH32 0x884543C08D36FB5C9B3B688DD0453C9F287199124BDBDDB3B7F9CA885A4D34A0 PUSH2 0x1B25 PUSH1 0x40 MLOAD SWAP1 JUMP JUMPDEST DUP1 PUSH2 0x1B31 DUP8 DUP8 DUP4 PUSH2 0x1A64 JUMP JUMPDEST SUB SWAP1 LOG3 PUSH2 0x1B3D DUP3 PUSH2 0x2B41 JUMP JUMPDEST PUSH2 0xEE1 JUMP JUMPDEST PUSH2 0x2C65 JUMP JUMPDEST PUSH2 0x314 SWAP1 PUSH2 0x19E2 JUMP JUMPDEST ISZERO PUSH2 0x1B57 JUMPI JUMP JUMPDEST PUSH1 0x40 MLOAD PUSH3 0x461BCD PUSH1 0xE5 SHL DUP2 MSTORE PUSH1 0x20 PUSH1 0x4 DUP3 ADD MSTORE PUSH1 0x13 PUSH1 0x24 DUP3 ADD MSTORE PUSH19 0x21B0B63632B91034B9903737BA1037BBB732B9 PUSH1 0x69 SHL PUSH1 0x44 DUP3 ADD MSTORE PUSH1 0x64 SWAP1 REVERT JUMPDEST PUSH2 0x314 SWAP1 PUSH2 0x1BB4 PUSH2 0x1BA2 DUP3 PUSH2 0x1697 JUMP JUMPDEST PUSH2 0x1BAE PUSH2 0x1A01 CALLER PUSH2 0x3B3 JUMP JUMPDEST EQ PUSH2 0x1B50 JUMP JUMPDEST PUSH2 0x1C31 JUMP JUMPDEST DUP1 ISZERO PUSH2 0xEEE JUMPI PUSH1 0x0 NOT ADD SWAP1 JUMP JUMPDEST RETURNDATASIZE ISZERO PUSH2 0x1BE0 JUMPI PUSH2 0x1BD5 RETURNDATASIZE PUSH2 0x12C9 JUMP JUMPDEST SWAP1 RETURNDATASIZE PUSH1 0x0 PUSH1 0x20 DUP5 ADD RETURNDATACOPY JUMP JUMPDEST PUSH1 0x60 SWAP1 JUMP JUMPDEST ISZERO PUSH2 0x1BEC JUMPI JUMP JUMPDEST PUSH1 0x40 MLOAD PUSH3 0x461BCD PUSH1 0xE5 SHL DUP2 MSTORE PUSH1 0x20 PUSH1 0x4 DUP3 ADD MSTORE PUSH1 0x19 PUSH1 0x24 DUP3 ADD MSTORE PUSH32 0x5472616E7366657220746F2073656C6C6572206661696C656400000000000000 PUSH1 0x44 DUP3 ADD MSTORE PUSH1 0x64 SWAP1 REVERT JUMPDEST PUSH2 0x314 SWAP1 PUSH2 0x1CFB PUSH1 0x0 DUP1 PUSH2 0x1C43 PUSH2 0x1301 JUMP JUMPDEST SWAP4 PUSH2 0x1CE3 PUSH2 0x1C5D PUSH2 0x1098 PUSH2 0x1C57 PUSH1 0xD PUSH2 0xE4F JUMP JUMPDEST DUP9 PUSH2 0x1027 JUMP JUMPDEST DUP1 SWAP7 PUSH2 0x1C66 CALLER SWAP1 JUMP JUMPDEST SWAP4 PUSH2 0x1C7A DUP2 PUSH2 0x1C74 ADDRESS PUSH2 0x900 JUMP JUMPDEST DUP8 PUSH2 0x295E JUMP JUMPDEST PUSH2 0x1C83 DUP2 PUSH2 0x2CD7 JUMP JUMPDEST PUSH2 0x1C98 PUSH2 0x1AE1 PUSH2 0x1C93 PUSH1 0xF PUSH2 0xE4F JUMP JUMPDEST PUSH2 0x1BB9 JUMP JUMPDEST PUSH2 0x1CA4 PUSH2 0x1AF4 DUP7 PUSH2 0x900 JUMP JUMPDEST SWAP1 PUSH32 0x8323BEBB324B6E1A1D4886A1F210640461BB275263DAE69967F001D053AB0B2B PUSH2 0x1CCF PUSH1 0x40 MLOAD SWAP1 JUMP JUMPDEST DUP1 PUSH2 0x1CDB DUP8 DUP8 DUP4 PUSH2 0x1A64 JUMP JUMPDEST SUB SWAP1 LOG3 PUSH2 0x106A JUMP JUMPDEST PUSH1 0x40 MLOAD SWAP1 DUP2 DUP1 SUB SWAP3 GAS CALL PUSH2 0x1CF5 PUSH2 0x1BC6 JUMP JUMPDEST POP PUSH2 0x1BE5 JUMP JUMPDEST PUSH2 0x2B41 JUMP JUMPDEST PUSH2 0x314 SWAP1 PUSH2 0x1B92 JUMP JUMPDEST PUSH2 0x379 SWAP1 SLOAD PUSH2 0xA8E JUMP JUMPDEST DUP1 SLOAD PUSH1 0x0 SWAP4 SWAP3 SWAP2 PUSH2 0x1D2A PUSH2 0x1D26 DUP4 PUSH2 0xA8E JUMP JUMPDEST SWAP4 SWAP1 JUMP JUMPDEST SWAP2 PUSH1 0x1 DUP2 AND SWAP1 DUP2 ISZERO PUSH2 0x1D7B JUMPI POP PUSH1 0x1 EQ PUSH2 0x1D43 JUMPI POP POP POP JUMP JUMPDEST PUSH2 0x1D56 SWAP2 SWAP3 SWAP4 SWAP5 POP PUSH1 0x0 MSTORE PUSH1 0x20 PUSH1 0x0 KECCAK256 SWAP1 JUMP JUMPDEST PUSH1 0x0 SWAP1 JUMPDEST DUP4 DUP3 LT PUSH2 0x1D67 JUMPI POP POP ADD SWAP1 JUMP JUMPDEST PUSH1 0x1 DUP2 PUSH1 0x20 SWAP3 SLOAD DUP5 DUP7 ADD MSTORE ADD SWAP2 ADD SWAP1 PUSH2 0x1D5A JUMP JUMPDEST PUSH1 0xFF NOT AND DUP4 MSTORE POP POP DUP2 ISZERO ISZERO SWAP1 SWAP2 MUL ADD SWAP2 POP JUMP JUMPDEST PUSH2 0x1D9A SWAP1 PUSH1 0x10 SWAP3 PUSH2 0x1D13 JUMP JUMPDEST PUSH16 0x17B1B7B63632B1BA34B7B7173539B7B7 PUSH1 0x81 SHL DUP2 MSTORE ADD SWAP1 JUMP JUMPDEST SWAP1 PUSH2 0x314 PUSH2 0x1DC1 PUSH1 0x40 MLOAD SWAP1 JUMP JUMPDEST DUP1 SWAP4 PUSH2 0x1DD1 PUSH1 0x20 DUP4 ADD SWAP2 DUP3 PUSH2 0x1D8E JUMP JUMPDEST SWAP1 DUP2 SUB DUP3 MSTORE SUB DUP4 PUSH2 0x667 JUMP JUMPDEST PUSH2 0x1DE7 PUSH1 0x12 PUSH2 0x1D09 JUMP JUMPDEST PUSH2 0x1DF4 PUSH2 0x1056 PUSH1 0x0 PUSH2 0x43D JUMP JUMPDEST GT ISZERO PUSH2 0x1E04 JUMPI PUSH2 0x379 PUSH1 0x12 PUSH2 0x1DB4 JUMP JUMPDEST PUSH2 0x379 PUSH2 0x12E5 JUMP JUMPDEST PUSH2 0x379 SWAP1 JUMPDEST PUSH1 0xFF AND SWAP1 JUMP JUMPDEST PUSH2 0x379 SWAP1 SLOAD PUSH2 0x1E0C JUMP JUMPDEST PUSH2 0x379 SWAP2 PUSH2 0x1E3C PUSH2 0x1E41 SWAP3 PUSH2 0x1E34 PUSH1 0x0 SWAP1 JUMP JUMPDEST POP PUSH1 0x5 PUSH2 0x11A0 JUMP JUMPDEST PUSH2 0x11A0 JUMP JUMPDEST PUSH2 0x1E17 JUMP JUMPDEST PUSH2 0x1E4F SWAP1 PUSH2 0x1697 JUMP JUMPDEST PUSH2 0xE96 PUSH2 0x1A01 PUSH2 0x1276 ADDRESS PUSH2 0x900 JUMP JUMPDEST PUSH2 0x314 SWAP1 PUSH2 0x1E6A PUSH2 0x2043 JUMP JUMPDEST PUSH1 0x0 PUSH2 0x1E75 DUP2 PUSH2 0x10C2 JUMP JUMPDEST PUSH2 0x1E7E DUP2 PUSH2 0x3B3 JUMP JUMPDEST PUSH2 0x1E87 DUP5 PUSH2 0x3B3 JUMP JUMPDEST EQ PUSH2 0x1E97 JUMPI POP POP PUSH2 0x314 SWAP1 PUSH2 0x207A JUMP JUMPDEST PUSH4 0x1E4FBDF7 PUSH1 0xE0 SHL DUP3 MSTORE DUP2 SWAP1 PUSH2 0x1164 SWAP1 PUSH1 0x4 DUP4 ADD PUSH2 0x3DF JUMP JUMPDEST PUSH2 0x314 SWAP1 PUSH2 0x1E5E JUMP JUMPDEST PUSH2 0x379 SWAP1 PUSH2 0x2CFD JUMP JUMPDEST PUSH2 0x1ECB DUP2 PUSH2 0x2D26 JUMP JUMPDEST SWAP1 PUSH1 0x0 SWAP1 PUSH2 0x1EDB PUSH2 0x1276 DUP4 PUSH2 0x10C2 JUMP JUMPDEST PUSH2 0x1EE4 DUP5 PUSH2 0x3B3 JUMP JUMPDEST EQ PUSH2 0x1EEE JUMPI POP POP SWAP1 JUMP JUMPDEST PUSH4 0x7E273289 PUSH1 0xE0 SHL DUP3 MSTORE PUSH1 0x4 DUP3 ADD MSTORE PUSH1 0x24 SWAP1 REVERT JUMPDEST PUSH2 0x1F19 PUSH2 0x379 SWAP2 PUSH2 0x1F11 PUSH1 0x0 SWAP1 JUMP JUMPDEST POP PUSH1 0x4 PUSH2 0x44A JUMP JUMPDEST PUSH2 0x1200 JUMP JUMPDEST SWAP2 PUSH1 0x1 SWAP2 PUSH2 0x314 SWAP4 PUSH2 0x2D3D JUMP JUMPDEST ISZERO PUSH2 0x1F32 JUMPI JUMP JUMPDEST PUSH1 0x40 MLOAD PUSH3 0x461BCD PUSH1 0xE5 SHL DUP2 MSTORE PUSH1 0x20 PUSH1 0x4 DUP3 ADD MSTORE PUSH1 0x12 PUSH1 0x24 DUP3 ADD MSTORE PUSH18 0x13585E081CDD5C1C1B1E481C995858DA1959 PUSH1 0x72 SHL PUSH1 0x44 DUP3 ADD MSTORE PUSH1 0x64 SWAP1 REVERT JUMPDEST PUSH2 0x1F8E PUSH2 0x1F78 PUSH1 0x8 SLOAD SWAP1 JUMP JUMPDEST PUSH2 0x1F88 PUSH2 0x1056 PUSH2 0x379 PUSH1 0xC PUSH2 0xE4F JUMP JUMPDEST LT PUSH2 0x1F2B JUMP JUMPDEST PUSH2 0x1F96 PUSH2 0xE59 JUMP JUMPDEST PUSH2 0x379 PUSH2 0x1B42 PUSH2 0x1FB2 PUSH2 0x1098 PUSH2 0x1FAC PUSH1 0xD PUSH2 0xE4F JUMP JUMPDEST DUP6 PUSH2 0x1027 JUMP JUMPDEST PUSH2 0x1FC2 PUSH2 0x1AA7 PUSH2 0x379 DUP4 DUP8 PUSH2 0xEE1 JUMP JUMPDEST PUSH2 0x1FCE PUSH2 0xF2A PUSH1 0x8 SLOAD SWAP1 JUMP JUMPDEST SWAP4 PUSH2 0x1FD9 DUP6 CALLER PUSH2 0x2E65 JUMP JUMPDEST PUSH2 0x1FE9 PUSH2 0x1AE1 PUSH2 0x1ADC PUSH1 0xF PUSH2 0xE4F JUMP JUMPDEST PUSH2 0x1FF2 CALLER PUSH2 0x900 JUMP JUMPDEST PUSH2 0x1FFB DUP7 PUSH2 0x43D JUMP JUMPDEST SWAP1 PUSH32 0x10546B1A6F5245FF0FFA18C256B9E46859C585CBB473B453FCD4C2DC39AE08DB PUSH2 0x1B25 PUSH1 0x40 MLOAD SWAP1 JUMP JUMPDEST PUSH2 0x379 SWAP3 SWAP2 SWAP1 PUSH2 0x2E77 JUMP JUMPDEST SWAP1 DUP1 DUP3 LT ISZERO PUSH2 0x203E JUMPI POP SWAP1 JUMP JUMPDEST SWAP1 POP SWAP1 JUMP JUMPDEST PUSH2 0x204B PUSH2 0x1710 JUMP JUMPDEST CALLER SWAP1 PUSH2 0x2059 PUSH2 0x1A01 DUP4 PUSH2 0x3B3 JUMP JUMPDEST SUB PUSH2 0x2061 JUMPI POP JUMP JUMPDEST PUSH4 0x118CDAA7 PUSH1 0xE0 SHL PUSH1 0x0 SWAP1 DUP2 MSTORE SWAP1 PUSH2 0x11F2 SWAP1 PUSH1 0x4 PUSH2 0x3DF JUMP JUMPDEST PUSH2 0x20A0 PUSH2 0x209A PUSH2 0x208A PUSH1 0xA PUSH2 0x1200 JUMP JUMPDEST PUSH2 0x2095 DUP5 PUSH1 0xA PUSH2 0x129E JUMP JUMPDEST PUSH2 0x900 JUMP JUMPDEST SWAP2 PUSH2 0x900 JUMP JUMPDEST SWAP1 PUSH32 0x8BE0079C531659141344CD1FD0A4F28419497F9722A3DAAFE3B4186F6B6457E0 PUSH2 0x20CB PUSH1 0x40 MLOAD SWAP1 JUMP JUMPDEST DUP1 DUP1 JUMPDEST SUB SWAP1 LOG3 JUMP JUMPDEST SWAP1 PUSH1 0xFF SWAP1 PUSH2 0xEF9 JUMP JUMPDEST SWAP1 PUSH2 0x20EC PUSH2 0x379 PUSH2 0xF1A SWAP3 ISZERO ISZERO SWAP1 JUMP JUMPDEST DUP3 SLOAD PUSH2 0x20D3 JUMP JUMPDEST PUSH1 0x0 PUSH2 0x2101 PUSH2 0x1276 DUP3 PUSH2 0x10C2 JUMP JUMPDEST PUSH2 0x210A DUP5 PUSH2 0x3B3 JUMP JUMPDEST EQ PUSH2 0x2163 JUMPI POP PUSH2 0x20CE PUSH2 0x2159 PUSH2 0x2153 DUP4 PUSH2 0x2095 DUP8 PUSH2 0x214E DUP9 PUSH2 0x1E3C PUSH32 0x17307EAB39AB6107E8899845AD3D59BD9653F200F220920489CA2B5937696C31 SWAP10 PUSH1 0x5 PUSH2 0x11A0 JUMP JUMPDEST PUSH2 0x20DC JUMP JUMPDEST SWAP4 PUSH2 0x900 JUMP JUMPDEST SWAP4 PUSH2 0x39B PUSH1 0x40 MLOAD SWAP1 JUMP JUMPDEST PUSH4 0xB611743 PUSH1 0xE3 SHL DUP2 MSTORE DUP1 PUSH2 0x1164 DUP5 PUSH1 0x4 DUP4 ADD PUSH2 0x3DF JUMP JUMPDEST PUSH2 0x1E11 PUSH2 0x379 PUSH2 0x379 SWAP3 SWAP1 JUMP JUMPDEST PUSH2 0x379 SWAP1 PUSH2 0x219C PUSH2 0x1056 PUSH2 0x379 SWAP5 PUSH1 0xFF AND SWAP1 JUMP JUMPDEST SWAP1 SHR SWAP1 JUMP JUMPDEST PUSH2 0x379 SWAP1 PUSH2 0x21B2 PUSH2 0x1056 PUSH2 0x379 SWAP5 SWAP1 JUMP JUMPDEST SWAP1 SHL SWAP1 JUMP JUMPDEST PUSH2 0x21C1 PUSH1 0x0 PUSH2 0x43D JUMP JUMPDEST DUP2 EQ PUSH2 0x22A7 JUMPI PUSH1 0x1 PUSH2 0x21D2 DUP3 PUSH2 0x2F10 JUMP JUMPDEST PUSH2 0x21DB DUP3 PUSH2 0x217B JUMP JUMPDEST DUP1 DUP1 DUP1 DUP1 DUP1 SWAP7 PUSH2 0x21EC DUP3 DUP1 SWAP9 PUSH2 0x2188 JUMP JUMPDEST SWAP1 PUSH2 0x21F6 SWAP1 PUSH2 0x43D JUMP JUMPDEST SWAP1 PUSH2 0x2200 SWAP2 PUSH2 0x21A1 JUMP JUMPDEST PUSH2 0x220A DUP2 DUP11 PUSH2 0x1050 JUMP JUMPDEST ADD SWAP1 PUSH2 0x2215 SWAP2 PUSH2 0x2188 JUMP JUMPDEST PUSH2 0x221F DUP2 DUP10 PUSH2 0x1050 JUMP JUMPDEST ADD SWAP1 PUSH2 0x222A SWAP2 PUSH2 0x2188 JUMP JUMPDEST PUSH2 0x2234 DUP2 DUP9 PUSH2 0x1050 JUMP JUMPDEST ADD SWAP1 PUSH2 0x223F SWAP2 PUSH2 0x2188 JUMP JUMPDEST PUSH2 0x2249 DUP2 DUP8 PUSH2 0x1050 JUMP JUMPDEST ADD SWAP1 PUSH2 0x2254 SWAP2 PUSH2 0x2188 JUMP JUMPDEST PUSH2 0x225E DUP2 DUP7 PUSH2 0x1050 JUMP JUMPDEST ADD SWAP1 PUSH2 0x2269 SWAP2 PUSH2 0x2188 JUMP JUMPDEST PUSH2 0x2273 DUP2 DUP6 PUSH2 0x1050 JUMP JUMPDEST ADD SWAP1 PUSH2 0x227E SWAP2 PUSH2 0x2188 JUMP JUMPDEST PUSH2 0x2288 DUP2 DUP5 PUSH2 0x1050 JUMP JUMPDEST ADD SWAP1 PUSH2 0x2293 SWAP2 PUSH2 0x2188 JUMP JUMPDEST SWAP1 DUP2 PUSH2 0x229E SWAP2 PUSH2 0x1050 JUMP JUMPDEST PUSH2 0x379 SWAP2 PUSH2 0x2031 JUMP JUMPDEST POP PUSH2 0x379 PUSH1 0x0 PUSH2 0x43D JUMP JUMPDEST SWAP1 POP MLOAD SWAP1 PUSH2 0x314 DUP3 PUSH2 0x345 JUMP JUMPDEST SWAP1 PUSH1 0x20 DUP3 DUP3 SUB SLT PUSH2 0x30B JUMPI PUSH2 0x379 SWAP2 PUSH2 0x22B2 JUMP JUMPDEST SWAP1 SWAP3 PUSH2 0x2304 SWAP1 PUSH2 0x22FD PUSH2 0x379 SWAP7 SWAP5 PUSH2 0x22F3 PUSH1 0x80 DUP7 ADD SWAP8 PUSH1 0x0 DUP8 ADD SWAP1 PUSH2 0x3D6 JUMP JUMPDEST PUSH1 0x20 DUP6 ADD SWAP1 PUSH2 0x3D6 JUMP JUMPDEST PUSH1 0x40 DUP4 ADD MSTORE JUMP JUMPDEST PUSH1 0x60 DUP2 DUP5 SUB SWAP2 ADD MSTORE PUSH2 0x4CB JUMP JUMPDEST PUSH1 0x40 MLOAD RETURNDATASIZE PUSH1 0x0 DUP3 RETURNDATACOPY RETURNDATASIZE SWAP1 REVERT JUMPDEST PUSH1 0x0 SWAP4 SWAP2 SWAP3 DUP4 EXTCODESIZE PUSH2 0x2330 PUSH2 0x1056 DUP8 PUSH2 0x43D JUMP JUMPDEST GT PUSH2 0x233D JUMPI JUMPDEST POP POP POP POP POP JUMP JUMPDEST PUSH1 0x20 SWAP2 PUSH2 0x234C PUSH2 0x2095 DUP7 PUSH2 0x900 JUMP JUMPDEST SWAP1 DUP7 CALLER PUSH2 0x2375 PUSH2 0x235B PUSH1 0x40 MLOAD SWAP1 JUMP JUMPDEST SWAP8 DUP9 SWAP7 DUP8 SWAP6 DUP7 SWAP5 PUSH4 0xA85BD01 PUSH1 0xE1 SHL DUP7 MSTORE PUSH1 0x4 DUP7 ADD PUSH2 0x22D3 JUMP JUMPDEST SUB SWAP3 GAS CALL PUSH1 0x0 SWAP2 DUP2 PUSH2 0x2409 JUMPI JUMPDEST POP PUSH2 0x23D4 JUMPI POP PUSH2 0x2397 JUMP JUMPDEST CODESIZE DUP1 DUP1 DUP1 DUP1 PUSH2 0x2336 JUMP JUMPDEST PUSH2 0x239F PUSH2 0x1BC6 JUMP JUMPDEST DUP1 MLOAD PUSH2 0x23AD PUSH2 0x1056 DUP6 PUSH2 0x43D JUMP JUMPDEST SUB PUSH2 0x23CC JUMPI POP PUSH4 0x32505749 PUSH1 0xE1 SHL DUP3 MSTORE DUP2 SWAP1 PUSH2 0x1164 SWAP1 PUSH1 0x4 DUP4 ADD PUSH2 0x3DF JUMP JUMPDEST DUP1 MLOAD SWAP1 PUSH1 0x20 ADD REVERT JUMPDEST PUSH2 0x23E4 PUSH4 0xA85BD01 PUSH1 0xE1 SHL PUSH2 0xE88 JUMP JUMPDEST SUB PUSH2 0x23F0 JUMPI POP POP PUSH2 0x238D JUMP JUMPDEST PUSH4 0x32505749 PUSH1 0xE1 SHL DUP3 MSTORE DUP2 SWAP1 PUSH2 0x1164 SWAP1 PUSH1 0x4 DUP4 ADD PUSH2 0x3DF JUMP JUMPDEST PUSH2 0x242C SWAP2 SWAP3 POP PUSH1 0x20 RETURNDATASIZE PUSH1 0x20 GT PUSH2 0x2433 JUMPI JUMPDEST PUSH2 0x2424 DUP2 DUP4 PUSH2 0x667 JUMP JUMPDEST DUP2 ADD SWAP1 PUSH2 0x22BF JUMP JUMPDEST SWAP1 CODESIZE PUSH2 0x2382 JUMP JUMPDEST POP RETURNDATASIZE PUSH2 0x241A JUMP JUMPDEST DUP2 ISZERO PUSH2 0x1065 JUMPI MOD SWAP1 JUMP JUMPDEST PUSH2 0x379 PUSH1 0x80 PUSH2 0x68E JUMP JUMPDEST PUSH2 0x2456 PUSH2 0x2444 JUMP JUMPDEST PUSH1 0x0 DUP1 DUP3 MSTORE PUSH1 0x20 DUP3 ADD DUP2 SWAP1 MSTORE PUSH1 0x40 DUP3 ADD DUP2 SWAP1 MSTORE PUSH1 0x60 DUP3 ADD MSTORE SWAP1 JUMP JUMPDEST PUSH2 0x379 PUSH2 0x244E JUMP JUMPDEST PUSH1 0x0 JUMPDEST DUP3 DUP2 LT PUSH2 0x2488 JUMPI POP POP POP JUMP JUMPDEST PUSH1 0x20 SWAP1 PUSH2 0x2493 PUSH2 0x2471 JUMP JUMPDEST DUP2 DUP5 ADD MSTORE ADD PUSH2 0x247C JUMP JUMPDEST SWAP1 PUSH2 0x314 PUSH2 0x24AD PUSH2 0x15DB DUP5 PUSH2 0x15B9 JUMP JUMPDEST PUSH1 0x1F NOT ADD PUSH1 0x20 DUP5 ADD PUSH2 0x2479 JUMP JUMPDEST PUSH2 0x1882 SWAP1 PUSH2 0x379 SWAP4 SWAP3 PUSH2 0x17E6 JUMP JUMPDEST SWAP2 PUSH2 0x1882 PUSH2 0x259D PUSH2 0x25AC SWAP4 PUSH2 0x1882 PUSH2 0x255E PUSH2 0x379 SWAP8 PUSH32 0x3C73766720786D6C6E733D22687474703A2F2F7777772E77332E6F72672F3230 DUP2 MSTORE PUSH32 0x30302F737667222077696474683D2234303022206865696768743D2234303022 PUSH1 0x20 DUP3 ADD MSTORE PUSH32 0x2076696577426F783D223020302031323420313234222066696C6C3D226E6F6E PUSH1 0x40 DUP3 ADD MSTORE PUSH3 0x32911F PUSH1 0xE9 SHL PUSH1 0x60 DUP3 ADD MSTORE PUSH1 0x63 ADD SWAP1 JUMP JUMPDEST PUSH32 0x3C726563742077696474683D2231323422206865696768743D22313234222072 DUP2 MSTORE PUSH13 0x3C1E91191A11103334B6361E91 PUSH1 0x99 SHL PUSH1 0x20 DUP3 ADD MSTORE PUSH1 0x2D ADD SWAP1 JUMP JUMPDEST PUSH3 0x11179F PUSH1 0xE9 SHL DUP2 MSTORE PUSH1 0x3 ADD SWAP1 JUMP JUMPDEST PUSH6 0x1E17B9BB339F PUSH1 0xD1 SHL DUP2 MSTORE PUSH1 0x6 ADD SWAP1 JUMP JUMPDEST PUSH2 0x25EB PUSH1 0x60 SWAP2 PUSH2 0x1925 PUSH2 0x25D0 PUSH1 0x40 MLOAD SWAP1 JUMP JUMPDEST PUSH1 0x20 DUP1 DUP3 ADD SWAP4 DUP5 MSTORE SWAP1 SWAP3 DUP4 SWAP2 PUSH2 0x1919 SWAP1 TIMESTAMP PUSH2 0x4FF DUP3 DUP6 PUSH2 0x17D7 JUMP JUMPDEST SWAP1 DUP2 SWAP3 PUSH2 0x2618 PUSH2 0x260E PUSH2 0x25FD DUP6 PUSH2 0x30D3 JUMP JUMPDEST SWAP5 PUSH2 0x2608 PUSH1 0x3 PUSH2 0x43D JUMP JUMPDEST SWAP1 PUSH2 0x243A JUMP JUMPDEST PUSH2 0xF34 PUSH1 0x2 PUSH2 0x43D JUMP JUMPDEST SWAP2 PUSH2 0x2622 DUP4 PUSH2 0x249D JUMP JUMPDEST SWAP1 SWAP4 PUSH1 0x0 SWAP5 PUSH2 0x2630 DUP7 PUSH2 0x43D JUMP JUMPDEST SWAP5 JUMPDEST DUP1 JUMPDEST DUP7 LT ISZERO PUSH2 0x27B8 JUMPI PUSH2 0x2643 PUSH2 0x2471 JUMP JUMPDEST SWAP3 PUSH1 0x0 SWAP4 DUP10 PUSH2 0x2651 DUP11 PUSH2 0x43D JUMP JUMPDEST SWAP6 PUSH1 0x1 JUMPDEST ISZERO PUSH2 0x27A1 JUMPI JUMPDEST POP POP POP DUP8 DUP1 SWAP9 PUSH2 0x2673 PUSH2 0x266E DUP11 DUP14 PUSH2 0xEE1 JUMP JUMPDEST PUSH2 0x3159 JUMP JUMPDEST SWAP4 DUP5 SWAP9 PUSH2 0x267F DUP5 PUSH2 0x43D JUMP JUMPDEST DUP12 DUP2 LT ISZERO PUSH2 0x278F JUMPI PUSH2 0x269B PUSH2 0x2694 DUP3 DUP13 PUSH2 0x15EE JUMP JUMPDEST MLOAD DUP9 PUSH2 0x3278 JUMP JUMPDEST PUSH2 0x26A7 JUMPI PUSH1 0x1 ADD PUSH2 0x267F JUMP JUMPDEST POP SWAP9 SWAP3 SWAP11 POP SWAP4 POP SWAP10 SWAP5 PUSH2 0x26BB PUSH1 0x1 SWAP2 PUSH2 0x1A55 JUMP JUMPDEST SWAP1 PUSH2 0x26E8 DUP3 SWAP8 PUSH2 0x1925 PUSH2 0x26CD PUSH1 0x40 MLOAD SWAP1 JUMP JUMPDEST PUSH1 0x20 DUP1 DUP3 ADD SWAP4 DUP5 MSTORE SWAP1 SWAP3 DUP4 SWAP2 PUSH2 0x1919 SWAP1 DUP9 PUSH2 0x4FF DUP3 DUP6 PUSH2 0x17D7 JUMP JUMPDEST SWAP12 DUP13 SWAP3 PUSH2 0x26F8 PUSH2 0x1056 PUSH1 0xA PUSH2 0x43D JUMP JUMPDEST GT ISZERO PUSH2 0x2655 JUMPI POP PUSH2 0x2712 SWAP2 SWAP3 SWAP4 SWAP6 SWAP11 SWAP9 SWAP7 POP SWAP9 SWAP4 SWAP9 JUMPDEST ISZERO SWAP1 JUMP JUMPDEST PUSH2 0x2733 JUMPI JUMPDEST POP POP PUSH2 0x2726 PUSH2 0x2634 SWAP2 PUSH1 0x1 ADD SWAP1 JUMP JUMPDEST SWAP6 SWAP1 POP SWAP6 SWAP1 SWAP2 SWAP4 SWAP6 PUSH2 0x2632 JUMP JUMPDEST PUSH2 0x1919 PUSH2 0x379 DUP5 SWAP11 PUSH2 0x276E DUP6 PUSH2 0x2769 DUP9 PUSH2 0x2786 SWAP8 PUSH2 0x2763 DUP3 DUP16 PUSH2 0x2726 SWAP13 PUSH2 0x275D PUSH2 0x2634 SWAP16 DUP4 PUSH2 0x15EE JUMP JUMPDEST MSTORE PUSH2 0x15EE JUMP JUMPDEST POP PUSH2 0xEE1 JUMP JUMPDEST PUSH2 0x3363 JUMP JUMPDEST SWAP1 PUSH2 0x2778 PUSH1 0x40 MLOAD SWAP1 JUMP JUMPDEST SWAP4 DUP5 SWAP3 PUSH1 0x20 DUP5 ADD SWAP3 DUP4 PUSH2 0x24BA JUMP JUMPDEST SWAP8 SWAP2 POP DUP9 PUSH2 0x2717 JUMP JUMPDEST POP SWAP9 SWAP3 SWAP11 SWAP2 SWAP12 SWAP7 PUSH2 0x26BB SWAP2 SWAP6 POP PUSH2 0x1A55 JUMP JUMPDEST DUP1 PUSH2 0x265B JUMPI PUSH2 0x2712 SWAP2 SWAP3 SWAP4 SWAP6 SWAP11 SWAP9 SWAP7 POP SWAP9 SWAP4 SWAP9 ISZERO SWAP1 JUMP JUMPDEST POP SWAP2 POP PUSH2 0x379 SWAP3 SWAP6 POP PUSH2 0x379 SWAP5 POP PUSH2 0x1919 SWAP4 POP PUSH2 0x27D4 PUSH1 0x40 MLOAD SWAP1 JUMP JUMPDEST SWAP4 DUP5 SWAP3 PUSH1 0x20 DUP5 ADD SWAP3 DUP4 PUSH2 0x24C8 JUMP JUMPDEST PUSH2 0x27EC PUSH1 0x40 PUSH2 0x12C9 JUMP JUMPDEST PUSH32 0x4142434445464748494A4B4C4D4E4F505152535455565758595A616263646566 PUSH1 0x20 DUP3 ADD MSTORE PUSH32 0x6768696A6B6C6D6E6F707172737475767778797A303132333435363738392B2F PUSH1 0x40 DUP3 ADD MSTORE SWAP1 JUMP JUMPDEST PUSH2 0x379 PUSH2 0x27E2 JUMP JUMPDEST PUSH2 0x379 PUSH2 0x283B JUMP JUMPDEST SWAP1 PUSH2 0x314 PUSH2 0x15E1 PUSH2 0x285B DUP5 PUSH2 0x12C9 JUMP JUMPDEST SWAP4 PUSH2 0x6A2 JUMP JUMPDEST DUP1 MLOAD PUSH2 0x2870 PUSH2 0x1056 PUSH1 0x0 PUSH2 0x43D JUMP JUMPDEST EQ PUSH2 0x2955 JUMPI PUSH2 0x287D PUSH2 0x2843 JUMP JUMPDEST SWAP1 PUSH2 0x2889 PUSH2 0x260E DUP3 MLOAD SWAP1 JUMP JUMPDEST SWAP1 PUSH1 0x1 PUSH2 0x28B1 PUSH2 0x28AC PUSH2 0x28A2 PUSH1 0x3 SWAP6 PUSH2 0x10A9 PUSH1 0x3 PUSH2 0x43D JUMP JUMPDEST PUSH2 0x1791 PUSH1 0x4 PUSH2 0x43D JUMP JUMPDEST PUSH2 0x284B JUMP JUMPDEST SWAP4 ADD PUSH1 0x20 DUP5 ADD SWAP3 DUP3 SWAP2 DUP4 MLOAD DUP5 ADD SWAP1 PUSH1 0x20 DUP3 ADD SWAP3 DUP4 MLOAD SWAP5 PUSH1 0x0 DUP6 MSTORE JUMPDEST DUP4 DUP2 LT PUSH2 0x290D JUMPI POP POP POP POP SWAP1 PUSH1 0x3 SWAP3 SWAP2 MSTORE MLOAD MOD DUP1 PUSH1 0x1 EQ PUSH2 0x28FC JUMPI PUSH1 0x2 EQ PUSH2 0x28F2 JUMPI POP SWAP1 JUMP JUMPDEST PUSH1 0x1 PUSH1 0x3D SWAP2 SUB MSTORE8 SWAP1 JUMP JUMPDEST POP PUSH1 0x2 DUP2 PUSH1 0x3D PUSH1 0x1 DUP2 SWAP5 SUB MSTORE8 SUB MSTORE8 SWAP1 JUMP JUMPDEST DUP2 PUSH1 0x1 SWAP2 SWAP9 SWAP3 SWAP4 SWAP5 SWAP9 ADD SWAP2 PUSH1 0x3F DUP3 DUP1 DUP1 DUP7 MLOAD SWAP5 DUP5 DUP7 PUSH1 0x12 SHR AND DUP11 ADD MLOAD DUP2 MSTORE8 ADD DUP4 DUP6 PUSH1 0xC SHR AND DUP10 ADD MLOAD DUP2 MSTORE8 ADD DUP3 DUP5 PUSH1 0x6 SHR AND DUP9 ADD MLOAD DUP2 MSTORE8 ADD SWAP2 AND DUP6 ADD MLOAD DUP2 MSTORE8 ADD SWAP7 SWAP3 SWAP2 SWAP1 PUSH2 0x28CC JUMP JUMPDEST POP PUSH2 0x379 PUSH2 0x12E5 JUMP JUMPDEST SWAP2 SWAP3 SWAP1 PUSH1 0x0 SWAP3 PUSH2 0x296D DUP5 PUSH2 0x10C2 JUMP JUMPDEST SWAP2 PUSH2 0x2977 DUP4 PUSH2 0x3B3 JUMP JUMPDEST PUSH2 0x2980 DUP3 PUSH2 0x3B3 JUMP JUMPDEST EQ PUSH2 0x29CA JUMPI PUSH2 0x2993 DUP4 DUP8 PUSH2 0x2999 SWAP4 PUSH2 0x2026 JUMP JUMPDEST SWAP3 PUSH2 0x3B3 JUMP JUMPDEST PUSH2 0x29A2 DUP4 PUSH2 0x3B3 JUMP JUMPDEST SUB PUSH2 0x29BD JUMPI PUSH4 0x7E273289 PUSH1 0xE0 SHL DUP5 MSTORE PUSH1 0x4 DUP5 ADD DUP6 SWAP1 MSTORE PUSH1 0x24 DUP5 REVERT JUMPDEST PUSH2 0x1135 DUP2 SWAP6 SWAP3 SWAP4 SWAP6 PUSH2 0x3B3 JUMP JUMPDEST PUSH4 0x32505749 PUSH1 0xE1 SHL DUP6 MSTORE DUP5 DUP1 PUSH2 0x1164 DUP6 PUSH1 0x4 DUP4 ADD PUSH2 0x3DF JUMP JUMPDEST PUSH4 0x4E487B71 PUSH1 0xE0 SHL PUSH1 0x0 MSTORE PUSH1 0x31 PUSH1 0x4 MSTORE PUSH1 0x24 PUSH1 0x0 REVERT JUMPDEST DUP1 SLOAD DUP1 ISZERO PUSH2 0x2A1C JUMPI PUSH1 0x0 NOT ADD SWAP1 PUSH2 0x2A19 PUSH2 0x2A13 DUP4 DUP4 PUSH2 0xC9B JUMP JUMPDEST SWAP1 PUSH2 0x13EC JUMP JUMPDEST SSTORE JUMP JUMPDEST PUSH2 0x29E3 JUMP JUMPDEST PUSH1 0x0 PUSH2 0x2A83 PUSH2 0x314 SWAP3 PUSH1 0x11 PUSH2 0x11CF PUSH2 0x2A7E PUSH2 0x2A3F PUSH2 0x11D4 DUP6 DUP6 PUSH2 0x44A JUMP JUMPDEST PUSH2 0x379 PUSH1 0x10 SWAP2 PUSH2 0x2A79 PUSH2 0x2A5F PUSH2 0xCDB PUSH2 0x2A59 PUSH2 0x132E DUP8 SLOAD SWAP1 JUMP JUMPDEST DUP7 PUSH2 0xC9B JUMP JUMPDEST PUSH2 0x2A73 DUP2 PUSH2 0x2A6D DUP6 DUP9 PUSH2 0xC9B JUMP JUMPDEST SWAP1 PUSH2 0x13D3 JUMP JUMPDEST DUP8 PUSH2 0x44A JUMP JUMPDEST PUSH2 0xF03 JUMP JUMPDEST PUSH2 0x29F9 JUMP JUMPDEST PUSH2 0x13EC JUMP JUMPDEST SWAP1 POP MLOAD SWAP1 PUSH2 0x314 DUP3 PUSH2 0x416 JUMP JUMPDEST SWAP1 PUSH1 0x20 DUP3 DUP3 SUB SLT PUSH2 0x30B JUMPI PUSH2 0x379 SWAP2 PUSH2 0x2A88 JUMP JUMPDEST ISZERO PUSH2 0x2AB0 JUMPI JUMP JUMPDEST PUSH1 0x40 MLOAD PUSH3 0x461BCD PUSH1 0xE5 SHL DUP2 MSTORE PUSH1 0x20 PUSH1 0x4 DUP3 ADD MSTORE PUSH1 0x1E PUSH1 0x24 DUP3 ADD MSTORE PUSH32 0x5472616E736665722066656520746F2063726561746F72206661696C65640000 PUSH1 0x44 DUP3 ADD MSTORE PUSH1 0x64 SWAP1 REVERT JUMPDEST ISZERO PUSH2 0x2AFC JUMPI JUMP JUMPDEST PUSH1 0x40 MLOAD PUSH3 0x461BCD PUSH1 0xE5 SHL DUP2 MSTORE PUSH1 0x20 PUSH1 0x4 DUP3 ADD MSTORE PUSH1 0x1F PUSH1 0x24 DUP3 ADD MSTORE PUSH32 0x5472616E736665722066656520746F2070726F746F636F6C206661696C656400 PUSH1 0x44 DUP3 ADD MSTORE PUSH1 0x64 SWAP1 REVERT JUMPDEST PUSH2 0x2B4E PUSH2 0x2095 PUSH1 0x13 PUSH2 0x1200 JUMP JUMPDEST PUSH1 0x20 PUSH2 0x2B59 PUSH1 0x40 MLOAD SWAP1 JUMP JUMPDEST PUSH4 0x2982DE0D PUSH1 0xE0 SHL DUP2 MSTORE SWAP2 DUP3 SWAP1 PUSH1 0x4 SWAP1 DUP3 SWAP1 GAS STATICCALL SWAP1 DUP2 ISZERO PUSH2 0x2C24 JUMPI PUSH2 0x314 SWAP3 PUSH2 0x2BC9 PUSH1 0x0 DUP1 PUSH2 0x2BA0 PUSH2 0x2B99 PUSH2 0x1098 DUP4 SWAP9 DUP5 SWAP9 DUP6 SWAP2 PUSH2 0x2BF5 JUMPI JUMPDEST POP DUP8 PUSH2 0x1027 JUMP JUMPDEST DUP1 SWAP6 PUSH2 0x106A JUMP JUMPDEST PUSH2 0x2BAA PUSH1 0xE PUSH2 0x1200 JUMP JUMPDEST SWAP1 PUSH2 0x2BB4 PUSH1 0x40 MLOAD SWAP1 JUMP JUMPDEST SWAP1 DUP2 DUP1 SUB SWAP3 GAS CALL PUSH2 0x2BC3 PUSH2 0x1BC6 JUMP JUMPDEST POP PUSH2 0x2AA9 JUMP JUMPDEST PUSH2 0x2BD6 PUSH2 0x2095 PUSH1 0x13 PUSH2 0x1200 JUMP JUMPDEST SWAP1 PUSH2 0x2BE0 PUSH1 0x40 MLOAD SWAP1 JUMP JUMPDEST SWAP1 DUP2 DUP1 SUB SWAP3 GAS CALL PUSH2 0x2BEF PUSH2 0x1BC6 JUMP JUMPDEST POP PUSH2 0x2AF5 JUMP JUMPDEST PUSH2 0x2C17 SWAP2 POP PUSH1 0x20 RETURNDATASIZE PUSH1 0x20 GT PUSH2 0x2C1D JUMPI JUMPDEST PUSH2 0x2C0F DUP2 DUP4 PUSH2 0x667 JUMP JUMPDEST DUP2 ADD SWAP1 PUSH2 0x2A95 JUMP JUMPDEST CODESIZE PUSH2 0x2B92 JUMP JUMPDEST POP RETURNDATASIZE PUSH2 0x2C05 JUMP JUMPDEST PUSH2 0x2311 JUMP JUMPDEST ISZERO PUSH2 0x2C30 JUMPI JUMP JUMPDEST PUSH1 0x40 MLOAD PUSH3 0x461BCD PUSH1 0xE5 SHL DUP2 MSTORE PUSH1 0x20 PUSH1 0x4 DUP3 ADD MSTORE PUSH1 0xD PUSH1 0x24 DUP3 ADD MSTORE PUSH13 0x1499599D5B990819985A5B1959 PUSH1 0x9A SHL PUSH1 0x44 DUP3 ADD MSTORE PUSH1 0x64 SWAP1 REVERT JUMPDEST PUSH2 0x2C6F SWAP1 CALLVALUE PUSH2 0x106A JUMP JUMPDEST PUSH2 0x2C79 PUSH1 0x0 PUSH2 0x43D JUMP JUMPDEST DUP2 GT PUSH2 0x2C82 JUMPI POP JUMP JUMPDEST PUSH1 0x0 DUP1 PUSH2 0x314 SWAP3 PUSH2 0x2C90 CALLER SWAP1 JUMP JUMPDEST SWAP1 PUSH2 0x2C9A PUSH1 0x40 MLOAD SWAP1 JUMP JUMPDEST SWAP1 DUP2 DUP1 SUB SWAP3 GAS CALL PUSH2 0x2CA9 PUSH2 0x1BC6 JUMP JUMPDEST POP PUSH2 0x2C29 JUMP JUMPDEST SWAP1 DUP2 SLOAD SWAP2 PUSH9 0x10000000000000000 DUP4 LT ISZERO PUSH2 0x689 JUMPI DUP3 PUSH2 0x2A6D SWAP2 PUSH1 0x1 PUSH2 0x314 SWAP6 ADD DUP2 SSTORE PUSH2 0xC9B JUMP JUMPDEST PUSH2 0x314 SWAP1 PUSH2 0x2CE6 DUP2 PUSH1 0x10 PUSH2 0x2CAF JUMP JUMPDEST PUSH2 0x2A79 PUSH2 0x2CF5 PUSH2 0x132E PUSH1 0x10 SLOAD SWAP1 JUMP JUMPDEST SWAP2 PUSH1 0x11 PUSH2 0x44A JUMP JUMPDEST PUSH4 0x780E9D63 PUSH1 0xE0 SHL PUSH1 0x1 PUSH1 0x1 PUSH1 0xE0 SHL SUB NOT DUP3 AND EQ SWAP1 DUP2 ISZERO PUSH2 0x2D1C JUMPI POP SWAP1 JUMP JUMPDEST PUSH2 0x379 SWAP2 POP PUSH2 0x33FF JUMP JUMPDEST PUSH2 0x1F19 PUSH2 0x379 SWAP2 PUSH2 0x2D35 PUSH1 0x0 SWAP1 JUMP JUMPDEST POP PUSH1 0x2 PUSH2 0x44A JUMP JUMPDEST SWAP3 SWAP2 SWAP1 SWAP2 DUP1 DUP2 ISZERO PUSH2 0x2E47 JUMPI JUMPDEST PUSH2 0x2D64 JUMPI JUMPDEST POP POP SWAP1 PUSH2 0x2D5F PUSH2 0x314 SWAP3 PUSH1 0x4 PUSH2 0x44A JUMP JUMPDEST PUSH2 0x129E JUMP JUMPDEST PUSH2 0x2D6D DUP4 PUSH2 0x1EC2 JUMP JUMPDEST SWAP2 PUSH1 0x0 SWAP1 PUSH2 0x2D7D PUSH2 0x1276 DUP4 PUSH2 0x10C2 JUMP JUMPDEST PUSH2 0x2D86 DUP3 PUSH2 0x3B3 JUMP JUMPDEST EQ ISZERO DUP1 PUSH2 0x2E2D JUMPI JUMPDEST DUP1 PUSH2 0x2E1A JUMPI JUMPDEST PUSH2 0x2E01 JUMPI POP POP SWAP2 PUSH2 0x2D5F SWAP2 PUSH2 0x314 SWAP5 SWAP4 PUSH2 0x2DB1 JUMPI JUMPDEST POP SWAP2 SWAP3 PUSH2 0x2D4E JUMP JUMPDEST PUSH2 0x2DBA SWAP1 PUSH2 0x900 JUMP JUMPDEST PUSH2 0x2DC3 DUP5 PUSH2 0x900 JUMP JUMPDEST PUSH2 0x2DCC DUP4 PUSH2 0x43D JUMP JUMPDEST SWAP2 PUSH32 0x8C5BE1E5EBEC7D5BD14F71427D1E84F3DD0314C0F7B2291E5B200AC8C7C3B925 PUSH2 0x2DF7 PUSH1 0x40 MLOAD SWAP1 JUMP JUMPDEST PUSH1 0x0 SWAP1 LOG4 CODESIZE PUSH2 0x2DA9 JUMP JUMPDEST PUSH4 0xA9FBF51F PUSH1 0xE0 SHL DUP3 MSTORE DUP2 SWAP1 PUSH2 0x1164 SWAP1 PUSH1 0x4 DUP4 ADD PUSH2 0x3DF JUMP JUMPDEST POP PUSH2 0x2E28 PUSH2 0x270E DUP3 DUP7 PUSH2 0x1E21 JUMP JUMPDEST PUSH2 0x2D94 JUMP JUMPDEST POP PUSH2 0x2E37 DUP2 PUSH2 0x3B3 JUMP JUMPDEST PUSH2 0x2E40 DUP6 PUSH2 0x3B3 JUMP JUMPDEST EQ ISZERO PUSH2 0x2D8E JUMP JUMPDEST POP PUSH2 0x2E55 PUSH2 0x1276 PUSH1 0x0 PUSH2 0x10C2 JUMP JUMPDEST PUSH2 0x2E5E DUP4 PUSH2 0x3B3 JUMP JUMPDEST EQ ISZERO PUSH2 0x2D49 JUMP JUMPDEST PUSH2 0x314 SWAP2 PUSH2 0x2E71 PUSH2 0x12E5 JUMP JUMPDEST SWAP2 PUSH2 0x344A JUMP JUMPDEST SWAP1 SWAP2 PUSH2 0x2E84 SWAP1 DUP4 DUP4 PUSH2 0x3464 JUMP JUMPDEST SWAP2 PUSH2 0x2EB2 PUSH2 0x2E92 PUSH1 0x0 PUSH2 0x10C2 JUMP JUMPDEST PUSH2 0x2E9B DUP2 PUSH2 0x3B3 JUMP JUMPDEST PUSH2 0x2EA4 DUP7 PUSH2 0x3B3 JUMP JUMPDEST SUB PUSH2 0x2EEF JUMPI PUSH2 0x1276 DUP4 PUSH2 0x3613 JUMP JUMPDEST PUSH2 0x2EBB DUP4 PUSH2 0x3B3 JUMP JUMPDEST SUB PUSH2 0x2ECA JUMPI PUSH2 0x379 SWAP2 POP PUSH2 0x3664 JUMP JUMPDEST PUSH2 0x2ED3 DUP3 PUSH2 0x3B3 JUMP JUMPDEST PUSH2 0x2EDC DUP5 PUSH2 0x3B3 JUMP JUMPDEST SUB PUSH2 0x2EE6 JUMPI POP POP SWAP1 JUMP JUMPDEST PUSH2 0x379 SWAP2 PUSH2 0x3635 JUMP JUMPDEST PUSH2 0x2EF8 DUP5 PUSH2 0x3B3 JUMP JUMPDEST PUSH2 0x2F01 DUP7 PUSH2 0x3B3 JUMP JUMPDEST EQ PUSH2 0x3B3 JUMPI PUSH2 0x1276 DUP4 DUP7 PUSH2 0x3592 JUMP JUMPDEST PUSH1 0x0 PUSH2 0x300B PUSH2 0x1056 PUSH2 0x3005 PUSH2 0x2F24 DUP5 PUSH2 0x43D JUMP JUMPDEST SWAP5 PUSH2 0x2F38 PUSH2 0x2F32 PUSH1 0x80 PUSH2 0x217B JUMP JUMPDEST DUP3 PUSH2 0x2188 JUMP JUMPDEST DUP7 DUP2 GT PUSH2 0x30AB JUMPI JUMPDEST POP PUSH2 0x2F4E PUSH2 0x2F32 PUSH1 0x40 PUSH2 0x217B JUMP JUMPDEST PUSH2 0x2F57 DUP7 PUSH2 0x43D JUMP JUMPDEST DUP2 GT PUSH2 0x3094 JUMPI JUMPDEST POP PUSH2 0x2F6C PUSH2 0x2F32 PUSH1 0x20 PUSH2 0x217B JUMP JUMPDEST PUSH2 0x2F75 DUP7 PUSH2 0x43D JUMP JUMPDEST DUP2 GT PUSH2 0x307D JUMPI JUMPDEST POP PUSH2 0x2F8A PUSH2 0x2F32 PUSH1 0x10 PUSH2 0x217B JUMP JUMPDEST PUSH2 0x2F93 DUP7 PUSH2 0x43D JUMP JUMPDEST DUP2 GT PUSH2 0x3066 JUMPI JUMPDEST POP PUSH2 0x2FA8 PUSH2 0x2F32 PUSH1 0x8 PUSH2 0x217B JUMP JUMPDEST PUSH2 0x2FB1 DUP7 PUSH2 0x43D JUMP JUMPDEST DUP2 GT PUSH2 0x304F JUMPI JUMPDEST POP PUSH2 0x2FC6 PUSH2 0x2F32 PUSH1 0x4 PUSH2 0x217B JUMP JUMPDEST PUSH2 0x2FCF DUP7 PUSH2 0x43D JUMP JUMPDEST DUP2 GT PUSH2 0x3038 JUMPI JUMPDEST POP PUSH2 0x2FE4 PUSH2 0x2F32 PUSH1 0x2 PUSH2 0x217B JUMP JUMPDEST PUSH2 0x2FED DUP7 PUSH2 0x43D JUMP JUMPDEST DUP2 GT PUSH2 0x3021 JUMPI JUMPDEST POP PUSH2 0x2FFF PUSH1 0x1 PUSH2 0x217B JUMP JUMPDEST SWAP1 PUSH2 0x2188 JUMP JUMPDEST SWAP3 PUSH2 0x43D JUMP JUMPDEST GT PUSH2 0x3013 JUMPI SWAP1 JUMP JUMPDEST PUSH2 0x379 SWAP1 PUSH2 0x4FF PUSH1 0x1 PUSH2 0x43D JUMP JUMPDEST PUSH2 0x3031 SWAP2 POP SWAP6 PUSH2 0x4FF PUSH1 0x2 PUSH2 0x43D JUMP JUMPDEST SWAP5 CODESIZE PUSH2 0x2FF4 JUMP JUMPDEST PUSH2 0x3048 SWAP2 POP SWAP6 PUSH2 0x4FF PUSH1 0x4 PUSH2 0x43D JUMP JUMPDEST SWAP5 CODESIZE PUSH2 0x2FD6 JUMP JUMPDEST PUSH2 0x305F SWAP2 POP SWAP6 PUSH2 0x4FF PUSH1 0x8 PUSH2 0x43D JUMP JUMPDEST SWAP5 CODESIZE PUSH2 0x2FB8 JUMP JUMPDEST PUSH2 0x3076 SWAP2 POP SWAP6 PUSH2 0x4FF PUSH1 0x10 PUSH2 0x43D JUMP JUMPDEST SWAP5 CODESIZE PUSH2 0x2F9A JUMP JUMPDEST PUSH2 0x308D SWAP2 POP SWAP6 PUSH2 0x4FF PUSH1 0x20 PUSH2 0x43D JUMP JUMPDEST SWAP5 CODESIZE PUSH2 0x2F7C JUMP JUMPDEST PUSH2 0x30A4 SWAP2 POP SWAP6 PUSH2 0x4FF PUSH1 0x40 PUSH2 0x43D JUMP JUMPDEST SWAP5 CODESIZE PUSH2 0x2F5E JUMP JUMPDEST PUSH2 0x30BB SWAP2 POP SWAP6 PUSH2 0x4FF PUSH1 0x80 PUSH2 0x43D JUMP JUMPDEST SWAP5 CODESIZE PUSH2 0x2F40 JUMP JUMPDEST PUSH1 0x10 DUP3 LT ISZERO PUSH2 0xCBE JUMPI PUSH1 0x1 SWAP1 PUSH2 0xCB5 JUMP JUMPDEST PUSH2 0x30F4 PUSH2 0x30ED PUSH2 0x379 SWAP3 PUSH2 0x30E5 PUSH1 0x60 SWAP1 JUMP JUMPDEST POP PUSH1 0x10 PUSH2 0x2608 JUMP JUMPDEST PUSH1 0x15 PUSH2 0x30C2 JUMP JUMPDEST POP PUSH2 0xE9A JUMP JUMPDEST PUSH2 0x3109 SWAP1 PUSH1 0xFF AND JUMPDEST SWAP2 PUSH1 0xFF AND SWAP1 JUMP JUMPDEST SWAP1 SUB SWAP1 PUSH1 0xFF DUP3 GT PUSH2 0xEEE JUMPI JUMP JUMPDEST PUSH2 0x3122 SWAP1 PUSH1 0xFF AND PUSH2 0x3102 JUMP JUMPDEST ADD SWAP1 PUSH1 0xFF DUP3 GT PUSH2 0xEEE JUMPI JUMP JUMPDEST PUSH2 0x379 PUSH2 0x379 PUSH2 0x379 SWAP3 PUSH1 0xFF AND SWAP1 JUMP JUMPDEST PUSH2 0x314A SWAP1 PUSH1 0xFF AND PUSH2 0x3102 JUMP JUMPDEST MUL SWAP1 PUSH1 0xFF DUP3 AND SWAP2 DUP3 SUB PUSH2 0xEEE JUMPI JUMP JUMPDEST PUSH2 0x3161 PUSH2 0x2471 JUMP JUMPDEST POP PUSH2 0x379 PUSH2 0x316F PUSH1 0x18 PUSH2 0x217B JUMP JUMPDEST PUSH2 0x3267 PUSH2 0x3249 PUSH2 0x31C8 PUSH2 0x31CD PUSH2 0x31C8 PUSH2 0x3188 PUSH1 0x19 PUSH2 0x217B JUMP JUMPDEST PUSH2 0xF34 PUSH2 0x31C2 PUSH2 0x31BC PUSH2 0x31B7 PUSH2 0x31A7 DUP6 PUSH2 0x31A2 PUSH1 0x3E PUSH2 0x217B JUMP JUMPDEST PUSH2 0x30FA JUMP JUMPDEST PUSH2 0x31B1 PUSH1 0x1 PUSH2 0x217B JUMP JUMPDEST SWAP1 PUSH2 0x3116 JUMP JUMPDEST PUSH2 0x312E JUMP JUMPDEST DUP12 PUSH2 0x243A JUMP JUMPDEST SWAP2 PUSH2 0x312E JUMP JUMPDEST PUSH2 0x217B JUMP JUMPDEST SWAP4 PUSH2 0xF34 PUSH2 0x31C2 PUSH2 0x3227 PUSH2 0x321C PUSH2 0x31C8 PUSH2 0x3213 PUSH2 0x320D PUSH2 0x31B7 PUSH2 0x31F4 DUP14 PUSH2 0x31A2 PUSH1 0x7C PUSH2 0x217B JUMP JUMPDEST PUSH2 0x3207 DUP11 PUSH2 0x3202 PUSH1 0x2 PUSH2 0x217B JUMP JUMPDEST PUSH2 0x313E JUMP JUMPDEST SWAP1 PUSH2 0x30FA JUMP JUMPDEST DUP14 PUSH2 0x243A JUMP JUMPDEST PUSH2 0xF34 DUP8 PUSH2 0x312E JUMP JUMPDEST SWAP10 PUSH2 0x2FFF PUSH1 0x8 PUSH2 0x217B JUMP JUMPDEST PUSH2 0x2608 PUSH2 0x31B7 PUSH2 0x323B DUP11 PUSH2 0x31A2 PUSH1 0x7C PUSH2 0x217B JUMP JUMPDEST PUSH2 0x3207 DUP8 PUSH2 0x3202 PUSH1 0x2 PUSH2 0x217B JUMP JUMPDEST PUSH2 0x325D PUSH2 0x3254 PUSH2 0x2444 JUMP JUMPDEST PUSH1 0xFF SWAP1 SWAP7 AND DUP7 MSTORE JUMP JUMPDEST PUSH1 0xFF AND PUSH1 0x20 DUP6 ADD MSTORE JUMP JUMPDEST PUSH1 0xFF AND PUSH1 0x40 DUP4 ADD DUP2 SWAP1 MSTORE PUSH1 0x60 DUP4 ADD MSTORE JUMP JUMPDEST SWAP1 DUP2 PUSH2 0x3285 DUP2 MLOAD PUSH1 0xFF AND SWAP1 JUMP JUMPDEST DUP3 SWAP1 PUSH2 0x32A8 PUSH2 0x3102 PUSH2 0x1E11 PUSH2 0x329B DUP6 MLOAD PUSH1 0xFF AND SWAP1 JUMP JUMPDEST PUSH1 0x40 DUP9 ADD MLOAD PUSH1 0xFF AND PUSH2 0x31B1 JUMP JUMPDEST LT SWAP4 DUP5 PUSH2 0x3337 JUMPI JUMPDEST POP POP DUP3 PUSH2 0x32FC JUMPI JUMPDEST DUP3 PUSH2 0x32C2 JUMPI POP POP SWAP1 JUMP JUMPDEST PUSH2 0x32F8 SWAP2 SWAP3 POP PUSH2 0x1E11 PUSH1 0x20 PUSH2 0x32EF DUP4 PUSH2 0x31B1 PUSH1 0x60 PUSH2 0x32E6 DUP6 PUSH2 0x3102 SWAP9 ADD MLOAD PUSH1 0xFF AND SWAP1 JUMP JUMPDEST SWAP3 ADD MLOAD PUSH1 0xFF AND SWAP1 JUMP JUMPDEST SWAP5 ADD MLOAD PUSH1 0xFF AND SWAP1 JUMP JUMPDEST GT SWAP1 JUMP JUMPDEST SWAP2 POP PUSH2 0x330C PUSH1 0x20 DUP4 ADD MLOAD PUSH1 0xFF AND SWAP1 JUMP JUMPDEST PUSH2 0x3330 PUSH2 0x3102 PUSH2 0x1E11 PUSH2 0x3323 PUSH1 0x20 DUP7 ADD MLOAD PUSH1 0xFF AND SWAP1 JUMP JUMPDEST PUSH1 0x60 DUP7 ADD MLOAD PUSH1 0xFF AND PUSH2 0x31B1 JUMP JUMPDEST LT SWAP2 PUSH2 0x32B8 JUMP JUMPDEST PUSH2 0x335A SWAP2 SWAP3 SWAP5 POP PUSH2 0x1E11 PUSH2 0x3352 PUSH2 0x329B PUSH2 0x3102 SWAP4 MLOAD PUSH1 0xFF AND SWAP1 JUMP JUMPDEST SWAP4 MLOAD PUSH1 0xFF AND SWAP1 JUMP JUMPDEST GT SWAP2 CODESIZE DUP1 PUSH2 0x32B0 JUMP JUMPDEST PUSH2 0x338C PUSH2 0x3387 PUSH2 0x337C PUSH2 0x3376 PUSH1 0x5 PUSH2 0x43D JUMP JUMPDEST DUP5 PUSH2 0x243A JUMP JUMPDEST SWAP3 PUSH2 0xF34 PUSH1 0x1 PUSH2 0x43D JUMP JUMPDEST PUSH2 0x30D3 JUMP JUMPDEST SWAP1 PUSH2 0x3397 PUSH1 0x0 PUSH2 0x43D JUMP JUMPDEST DUP2 SUB PUSH2 0x33A7 JUMPI POP PUSH2 0x379 SWAP2 PUSH2 0x3BDE JUMP JUMPDEST PUSH2 0x33B1 PUSH1 0x1 PUSH2 0x43D JUMP JUMPDEST DUP2 SUB PUSH2 0x33C1 JUMPI POP PUSH2 0x379 SWAP2 PUSH2 0x3B0C JUMP JUMPDEST PUSH2 0x33CB PUSH1 0x2 PUSH2 0x43D JUMP JUMPDEST DUP2 SUB PUSH2 0x33DB JUMPI POP PUSH2 0x379 SWAP2 PUSH2 0x3B0C JUMP JUMPDEST PUSH2 0x33E8 PUSH2 0x1056 PUSH1 0x3 PUSH2 0x43D JUMP JUMPDEST SUB PUSH2 0x33F6 JUMPI PUSH2 0x379 SWAP2 PUSH2 0x38DA JUMP JUMPDEST PUSH2 0x379 SWAP2 PUSH2 0x373E JUMP JUMPDEST PUSH4 0x80AC58CD PUSH1 0xE0 SHL PUSH1 0x1 PUSH1 0x1 PUSH1 0xE0 SHL SUB NOT DUP3 AND EQ SWAP1 DUP2 ISZERO PUSH2 0x342F JUMPI JUMPDEST DUP2 ISZERO PUSH2 0x3425 JUMPI POP SWAP1 JUMP JUMPDEST PUSH2 0x379 SWAP2 POP PUSH2 0x3C66 JUMP JUMPDEST PUSH1 0x1 PUSH1 0x1 PUSH1 0xE0 SHL SUB NOT DUP2 AND PUSH4 0x5B5E139F PUSH1 0xE0 SHL EQ SWAP2 POP PUSH2 0x341B JUMP JUMPDEST SWAP1 PUSH2 0x314 SWAP3 SWAP2 PUSH2 0x345A DUP3 DUP3 PUSH2 0x3C76 JUMP JUMPDEST PUSH2 0x17D2 PUSH1 0x0 PUSH2 0x10C2 JUMP JUMPDEST SWAP1 PUSH2 0x34B7 PUSH2 0x3471 DUP3 PUSH2 0x2D26 JUMP JUMPDEST SWAP4 PUSH1 0x0 PUSH2 0x347D DUP2 PUSH2 0x10C2 JUMP JUMPDEST SWAP2 DUP5 PUSH2 0x3488 DUP5 PUSH2 0x3B3 JUMP JUMPDEST PUSH2 0x3491 DUP4 PUSH2 0x3B3 JUMP JUMPDEST SUB PUSH2 0x3581 JUMPI JUMPDEST POP POP PUSH2 0x34A2 DUP3 PUSH2 0x3B3 JUMP JUMPDEST PUSH2 0x34AB DUP8 PUSH2 0x3B3 JUMP JUMPDEST SUB PUSH2 0x3546 JUMPI JUMPDEST POP PUSH2 0x3B3 JUMP JUMPDEST PUSH2 0x34C0 DUP4 PUSH2 0x3B3 JUMP JUMPDEST SUB PUSH2 0x3516 JUMPI JUMPDEST PUSH2 0x34D5 DUP3 PUSH2 0x2D5F DUP4 PUSH1 0x2 PUSH2 0x44A JUMP JUMPDEST PUSH2 0x34E4 PUSH2 0x1AF4 PUSH2 0x2153 DUP6 PUSH2 0x900 JUMP JUMPDEST SWAP2 PUSH32 0xDDF252AD1BE2C89B69C2B068FC378DAA952BA7F163C4A11628F55A4DF523B3EF PUSH2 0x350F PUSH1 0x40 MLOAD SWAP1 JUMP JUMPDEST PUSH1 0x0 SWAP1 LOG4 SWAP1 JUMP JUMPDEST PUSH2 0x3541 PUSH2 0x3523 PUSH1 0x1 PUSH2 0x43D JUMP JUMPDEST PUSH2 0x353B PUSH2 0x3531 DUP6 PUSH1 0x3 PUSH2 0x11A0 JUMP JUMPDEST SWAP2 PUSH2 0x4FF DUP4 PUSH2 0xE4F JUMP JUMPDEST SWAP1 PUSH2 0xF03 JUMP JUMPDEST PUSH2 0x34C6 JUMP JUMPDEST PUSH2 0x3552 SWAP1 DUP3 DUP6 DUP2 PUSH2 0x2D3D JUMP JUMPDEST PUSH2 0x357B PUSH2 0x355F PUSH1 0x1 PUSH2 0x43D JUMP JUMPDEST PUSH2 0x353B PUSH2 0x356D DUP9 PUSH1 0x3 PUSH2 0x11A0 JUMP JUMPDEST SWAP2 PUSH2 0x3577 DUP4 PUSH2 0xE4F JUMP JUMPDEST SUB SWAP1 JUMP JUMPDEST CODESIZE PUSH2 0x34B1 JUMP JUMPDEST PUSH2 0x358B SWAP2 DUP9 PUSH2 0x3CEC JUMP JUMPDEST CODESIZE DUP5 PUSH2 0x3497 JUMP JUMPDEST PUSH2 0x2A83 PUSH2 0x314 SWAP3 PUSH2 0x11CF PUSH1 0x0 SWAP4 PUSH2 0x35D1 DUP6 PUSH2 0x2A83 PUSH2 0x35AF DUP5 PUSH2 0x16A0 JUMP JUMPDEST SWAP6 PUSH1 0x7 DUP6 PUSH2 0x35C0 PUSH2 0x11D4 DUP5 DUP5 PUSH2 0x44A JUMP JUMPDEST DUP10 DUP1 DUP3 SUB PUSH2 0x35D8 JUMPI JUMPDEST POP POP POP PUSH2 0x44A JUMP JUMPDEST PUSH1 0x6 PUSH2 0x11A0 JUMP JUMPDEST PUSH2 0x11CF PUSH2 0x3605 DUP5 PUSH2 0x2A79 DUP6 PUSH2 0x35FB PUSH2 0x11D4 PUSH2 0x2A79 SWAP8 PUSH2 0x11CF PUSH2 0x360B SWAP12 PUSH1 0x6 PUSH2 0x11A0 JUMP JUMPDEST SWAP5 DUP6 SWAP4 PUSH1 0x6 PUSH2 0x11A0 JUMP JUMPDEST DUP5 PUSH2 0x44A JUMP JUMPDEST DUP6 CODESIZE DUP10 PUSH2 0x35C9 JUMP JUMPDEST PUSH2 0x314 SWAP1 PUSH2 0x362E PUSH2 0x3623 PUSH1 0x8 SLOAD SWAP1 JUMP JUMPDEST PUSH2 0x2A79 DUP4 PUSH1 0x9 PUSH2 0x44A JUMP JUMPDEST PUSH1 0x8 PUSH2 0x2CAF JUMP JUMPDEST PUSH2 0x2A79 DUP3 PUSH2 0x365D PUSH2 0x314 SWAP5 PUSH2 0x2A79 PUSH2 0x11CF SWAP6 PUSH2 0x3653 PUSH2 0x132E DUP3 PUSH2 0x16A0 JUMP JUMPDEST SWAP7 DUP8 SWAP2 PUSH1 0x6 PUSH2 0x11A0 JUMP JUMPDEST PUSH1 0x7 PUSH2 0x44A JUMP JUMPDEST PUSH2 0x2A7E PUSH2 0x314 SWAP2 PUSH2 0x379 PUSH1 0x0 PUSH2 0x2A83 PUSH1 0x8 SWAP4 PUSH2 0x3681 PUSH2 0x132E DUP7 SLOAD SWAP1 JUMP JUMPDEST PUSH2 0x11CF PUSH1 0x9 SWAP2 PUSH2 0x2A79 PUSH2 0x36A4 PUSH2 0xCDB PUSH2 0x369D PUSH2 0x11D4 DUP9 DUP9 PUSH2 0x44A JUMP JUMPDEST SWAP4 DUP12 PUSH2 0xC9B JUMP JUMPDEST PUSH2 0x3605 DUP2 PUSH2 0x2A6D DUP6 DUP14 PUSH2 0xC9B JUMP JUMPDEST PUSH2 0x105A SWAP1 PUSH1 0xFF AND PUSH2 0x3102 JUMP JUMPDEST PUSH2 0x379 SWAP8 SWAP6 PUSH2 0x1882 PUSH2 0x371D PUSH2 0x1882 SWAP8 PUSH2 0x1882 PUSH2 0x3710 PUSH2 0x372A SWAP10 PUSH2 0x1882 PUSH2 0x371D PUSH2 0x259D SWAP16 SWAP12 PUSH2 0x1882 PUSH2 0x3710 PUSH2 0x1882 SWAP14 PUSH2 0x1882 PUSH2 0x3710 SWAP15 PUSH17 0x1E3837B63CB3B7B7103837B4B73A399E91 PUSH1 0x79 SHL DUP2 MSTORE PUSH1 0x11 ADD SWAP1 JUMP JUMPDEST PUSH1 0xB PUSH1 0xFA SHL DUP2 MSTORE PUSH1 0x1 ADD SWAP1 JUMP JUMPDEST PUSH1 0x1 PUSH1 0xFD SHL DUP2 MSTORE PUSH1 0x1 ADD SWAP1 JUMP JUMPDEST PUSH8 0x11103334B6361E91 PUSH1 0xC1 SHL DUP2 MSTORE PUSH1 0x8 ADD SWAP1 JUMP JUMPDEST SWAP1 DUP2 SWAP1 PUSH2 0x374C DUP3 MLOAD PUSH1 0xFF AND SWAP1 JUMP JUMPDEST PUSH2 0x3755 SWAP1 PUSH2 0x312E JUMP JUMPDEST PUSH2 0x375E SWAP1 PUSH2 0x3D4C JUMP JUMPDEST PUSH1 0x20 DUP4 ADD SWAP2 PUSH2 0x376E DUP4 MLOAD PUSH1 0xFF AND SWAP1 JUMP JUMPDEST SWAP3 PUSH1 0x60 DUP6 ADD SWAP4 PUSH2 0x377F DUP6 MLOAD PUSH1 0xFF AND SWAP1 JUMP JUMPDEST PUSH2 0x3788 SWAP2 PUSH2 0x3116 JUMP JUMPDEST PUSH2 0x3791 SWAP1 PUSH2 0x312E JUMP JUMPDEST PUSH2 0x379A SWAP1 PUSH2 0x3D4C JUMP JUMPDEST SWAP4 PUSH2 0x37A6 DUP8 MLOAD PUSH1 0xFF AND SWAP1 JUMP JUMPDEST SWAP6 PUSH1 0x40 ADD SWAP6 PUSH2 0x37B6 DUP8 MLOAD PUSH1 0xFF AND SWAP1 JUMP JUMPDEST PUSH2 0x37C0 PUSH1 0x2 PUSH2 0x217B JUMP JUMPDEST PUSH2 0x37C9 SWAP2 PUSH2 0x36B2 JUMP JUMPDEST PUSH2 0x37D2 SWAP2 PUSH2 0x3116 JUMP JUMPDEST PUSH2 0x37DB SWAP1 PUSH2 0x312E JUMP JUMPDEST PUSH2 0x37E4 SWAP1 PUSH2 0x3D4C JUMP JUMPDEST SWAP6 PUSH2 0x37F0 DUP4 MLOAD PUSH1 0xFF AND SWAP1 JUMP JUMPDEST PUSH2 0x37F9 SWAP1 PUSH2 0x312E JUMP JUMPDEST PUSH2 0x3802 SWAP1 PUSH2 0x3D4C JUMP JUMPDEST SWAP8 MLOAD PUSH1 0xFF AND SWAP1 MLOAD PUSH1 0xFF AND PUSH2 0x3815 SWAP2 PUSH2 0x3116 JUMP JUMPDEST PUSH2 0x381E SWAP1 PUSH2 0x312E JUMP JUMPDEST PUSH2 0x3827 SWAP1 PUSH2 0x3D4C JUMP JUMPDEST SWAP2 MLOAD PUSH1 0xFF AND SWAP1 MLOAD PUSH1 0xFF AND PUSH2 0x383A SWAP2 PUSH2 0x3116 JUMP JUMPDEST PUSH2 0x3843 SWAP1 PUSH2 0x312E JUMP JUMPDEST PUSH2 0x384C SWAP1 PUSH2 0x3D4C JUMP JUMPDEST SWAP1 PUSH2 0x3856 PUSH1 0x40 MLOAD SWAP1 JUMP JUMPDEST SWAP7 DUP8 SWAP7 PUSH1 0x20 DUP9 ADD SWAP7 PUSH2 0x3868 SWAP7 DUP9 PUSH2 0x36BE JUMP JUMPDEST SWAP1 DUP2 SUB DUP3 MSTORE SUB PUSH2 0x379 SWAP1 DUP3 PUSH2 0x667 JUMP JUMPDEST PUSH2 0x371D PUSH2 0x1882 SWAP8 PUSH2 0x1882 PUSH2 0x3710 PUSH2 0x372A SWAP10 PUSH2 0x1882 PUSH2 0x379 SWAP16 SWAP14 SWAP8 PUSH2 0x259D SWAP16 SWAP12 PUSH2 0x1882 PUSH2 0x3710 PUSH2 0x1882 SWAP14 PUSH2 0x1882 PUSH2 0x371D PUSH2 0x3710 SWAP16 PUSH2 0x1882 PUSH2 0x1882 SWAP16 PUSH2 0x371D SWAP10 PUSH2 0x1882 PUSH2 0x3710 SWAP3 PUSH17 0x1E3837B63CB3B7B7103837B4B73A399E91 PUSH1 0x79 SHL DUP2 MSTORE PUSH1 0x11 ADD SWAP1 JUMP JUMPDEST DUP1 PUSH2 0x38E6 DUP2 MLOAD PUSH1 0xFF AND SWAP1 JUMP JUMPDEST SWAP3 PUSH1 0x40 DUP4 ADD SWAP1 PUSH2 0x38F7 DUP3 MLOAD PUSH1 0xFF AND SWAP1 JUMP JUMPDEST SWAP5 PUSH1 0x2 SWAP6 PUSH2 0x3904 DUP8 PUSH2 0x217B JUMP JUMPDEST PUSH2 0x390D SWAP2 PUSH2 0x36B2 JUMP JUMPDEST PUSH2 0x3916 SWAP2 PUSH2 0x3116 JUMP JUMPDEST PUSH2 0x391F SWAP1 PUSH2 0x312E JUMP JUMPDEST PUSH2 0x3928 SWAP1 PUSH2 0x3D4C JUMP JUMPDEST SWAP2 PUSH1 0x20 DUP6 ADD PUSH2 0x3938 DUP2 MLOAD PUSH1 0xFF AND SWAP1 JUMP JUMPDEST PUSH2 0x3941 SWAP1 PUSH2 0x312E JUMP JUMPDEST PUSH2 0x394A SWAP1 PUSH2 0x3D4C JUMP JUMPDEST SWAP5 PUSH2 0x3956 DUP2 MLOAD PUSH1 0xFF AND SWAP1 JUMP JUMPDEST PUSH2 0x395F SWAP1 PUSH2 0x312E JUMP JUMPDEST PUSH2 0x3968 SWAP1 PUSH2 0x3D4C JUMP JUMPDEST SWAP7 PUSH2 0x3974 DUP4 MLOAD PUSH1 0xFF AND SWAP1 JUMP JUMPDEST SWAP1 PUSH1 0x60 ADD SWAP1 PUSH2 0x3984 DUP3 MLOAD PUSH1 0xFF AND SWAP1 JUMP JUMPDEST PUSH2 0x398D DUP12 PUSH2 0x217B JUMP JUMPDEST PUSH2 0x3996 SWAP2 PUSH2 0x36B2 JUMP JUMPDEST PUSH2 0x399F SWAP2 PUSH2 0x3116 JUMP JUMPDEST PUSH2 0x39A8 SWAP1 PUSH2 0x312E JUMP JUMPDEST PUSH2 0x39B1 SWAP1 PUSH2 0x3D4C JUMP JUMPDEST SWAP9 PUSH2 0x39BD DUP4 MLOAD PUSH1 0xFF AND SWAP1 JUMP JUMPDEST DUP6 MLOAD PUSH1 0xFF AND PUSH2 0x39CB DUP4 PUSH2 0x217B JUMP JUMPDEST PUSH2 0x39D4 SWAP2 PUSH2 0x36B2 JUMP JUMPDEST PUSH2 0x39DD SWAP2 PUSH2 0x3116 JUMP JUMPDEST PUSH2 0x39E6 SWAP1 PUSH2 0x312E JUMP JUMPDEST PUSH2 0x39EF SWAP1 PUSH2 0x3D4C JUMP JUMPDEST SWAP5 PUSH2 0x39FB DUP6 MLOAD PUSH1 0xFF AND SWAP1 JUMP JUMPDEST DUP4 MLOAD PUSH1 0xFF AND PUSH2 0x3A09 SWAP2 PUSH2 0x3116 JUMP JUMPDEST PUSH2 0x3A12 SWAP1 PUSH2 0x312E JUMP JUMPDEST PUSH2 0x3A1B SWAP1 PUSH2 0x3D4C JUMP JUMPDEST SWAP4 MLOAD PUSH1 0xFF AND SWAP1 MLOAD PUSH1 0xFF AND PUSH2 0x3A2E SWAP2 PUSH2 0x3116 JUMP JUMPDEST PUSH2 0x3A37 SWAP1 PUSH2 0x312E JUMP JUMPDEST PUSH2 0x3A40 SWAP1 PUSH2 0x3D4C JUMP JUMPDEST SWAP4 MLOAD PUSH1 0xFF AND SWAP2 MLOAD PUSH1 0xFF AND SWAP1 PUSH2 0x3A54 SWAP1 PUSH2 0x217B JUMP JUMPDEST PUSH2 0x3A5D SWAP2 PUSH2 0x36B2 JUMP JUMPDEST PUSH2 0x3A66 SWAP2 PUSH2 0x3116 JUMP JUMPDEST PUSH2 0x3A6F SWAP1 PUSH2 0x312E JUMP JUMPDEST PUSH2 0x3A78 SWAP1 PUSH2 0x3D4C JUMP JUMPDEST SWAP3 PUSH2 0x3A82 PUSH1 0x40 MLOAD SWAP1 JUMP JUMPDEST SWAP9 DUP10 SWAP9 PUSH1 0x20 DUP11 ADD SWAP9 PUSH2 0x3868 SWAP9 DUP11 PUSH2 0x3878 JUMP JUMPDEST SWAP4 PUSH2 0x1882 PUSH2 0x3AF6 PUSH2 0x379 SWAP8 SWAP6 PUSH2 0x1882 PUSH2 0x3AE1 PUSH2 0x1882 SWAP8 PUSH2 0x1882 PUSH2 0x3AD0 PUSH2 0x372A SWAP10 PUSH2 0x1882 PUSH2 0x259D SWAP15 PUSH9 0x1E3932B1BA103C1E91 PUSH1 0xB9 SHL DUP2 MSTORE PUSH1 0x9 ADD SWAP1 JUMP JUMPDEST PUSH5 0x11103C9E91 PUSH1 0xD9 SHL DUP2 MSTORE PUSH1 0x5 ADD SWAP1 JUMP JUMPDEST PUSH9 0x11103BB4B23A341E91 PUSH1 0xB9 SHL DUP2 MSTORE PUSH1 0x9 ADD SWAP1 JUMP JUMPDEST PUSH10 0x11103432B4B3B43A1E91 PUSH1 0xB1 SHL DUP2 MSTORE PUSH1 0xA ADD SWAP1 JUMP JUMPDEST PUSH2 0x379 PUSH2 0x379 SWAP3 PUSH2 0x3B1B PUSH1 0x60 SWAP1 JUMP JUMPDEST POP PUSH2 0x3B32 PUSH2 0x3B2D PUSH2 0x31B7 DUP6 MLOAD PUSH1 0xFF AND SWAP1 JUMP JUMPDEST PUSH2 0x3D4C JUMP JUMPDEST PUSH2 0x1919 PUSH2 0x3B49 PUSH2 0x3B2D PUSH2 0x31B7 PUSH1 0x20 DUP9 ADD MLOAD PUSH1 0xFF AND SWAP1 JUMP JUMPDEST SWAP3 PUSH2 0x3B72 PUSH2 0x3B2D PUSH2 0x31B7 PUSH1 0x60 PUSH2 0x3B69 PUSH2 0x3B2D PUSH2 0x31B7 PUSH1 0x40 DUP14 ADD MLOAD PUSH1 0xFF AND SWAP1 JUMP JUMPDEST SWAP10 ADD MLOAD PUSH1 0xFF AND SWAP1 JUMP JUMPDEST PUSH1 0x40 MLOAD SWAP7 DUP8 SWAP6 PUSH1 0x20 DUP8 ADD SWAP6 DUP7 PUSH2 0x3A94 JUMP JUMPDEST PUSH2 0x259D SWAP4 PUSH2 0x1882 PUSH2 0x3BCD PUSH2 0x379 SWAP8 SWAP6 PUSH2 0x1882 PUSH2 0x3BBB PUSH2 0x1882 SWAP8 PUSH2 0x1882 PUSH2 0x372A SWAP9 PUSH12 0x1E31B4B931B6329031BC1E91 PUSH1 0xA1 SHL DUP2 MSTORE PUSH1 0xC ADD SWAP1 JUMP JUMPDEST PUSH6 0x111031BC9E91 PUSH1 0xD1 SHL DUP2 MSTORE PUSH1 0x6 ADD SWAP1 JUMP JUMPDEST PUSH5 0x1110391E91 PUSH1 0xD9 SHL DUP2 MSTORE PUSH1 0x5 ADD SWAP1 JUMP JUMPDEST SWAP1 PUSH2 0x379 PUSH2 0x3C43 PUSH2 0x379 SWAP4 PUSH2 0x3BF1 PUSH1 0x60 SWAP1 JUMP JUMPDEST POP PUSH2 0x1919 PUSH2 0x3C4E PUSH2 0x3B2D PUSH2 0x3C48 PUSH2 0x3B2D PUSH2 0x31B7 PUSH1 0x0 PUSH2 0x3C43 PUSH1 0x20 PUSH2 0x3B69 PUSH2 0x3B2D PUSH2 0x31B7 DUP13 PUSH2 0x3C36 PUSH2 0x3C26 PUSH1 0x40 DUP4 ADD MLOAD PUSH1 0xFF AND SWAP1 JUMP JUMPDEST PUSH2 0x3C30 PUSH1 0x2 PUSH2 0x217B JUMP JUMPDEST SWAP1 PUSH2 0x36B2 JUMP JUMPDEST SWAP15 DUP16 SWAP8 DUP9 SWAP3 ADD MLOAD PUSH1 0xFF AND SWAP1 JUMP JUMPDEST PUSH2 0x3116 JUMP JUMPDEST SWAP5 PUSH2 0x312E JUMP JUMPDEST SWAP5 PUSH2 0x3C58 PUSH1 0x40 MLOAD SWAP1 JUMP JUMPDEST SWAP6 DUP7 SWAP5 PUSH1 0x20 DUP7 ADD SWAP5 DUP6 PUSH2 0x3B83 JUMP JUMPDEST PUSH2 0xE96 PUSH4 0x1FFC9A7 PUSH1 0xE0 SHL PUSH2 0xE88 JUMP JUMPDEST PUSH1 0x0 SWAP2 PUSH2 0x3C82 DUP4 PUSH2 0x10C2 JUMP JUMPDEST SWAP2 PUSH2 0x3C8C DUP4 PUSH2 0x3B3 JUMP JUMPDEST PUSH2 0x3C95 DUP3 PUSH2 0x3B3 JUMP JUMPDEST EQ PUSH2 0x3CD3 JUMPI PUSH2 0x3CA5 SWAP2 DUP4 SWAP2 PUSH2 0x2026 JUMP JUMPDEST PUSH2 0x3CB1 PUSH2 0x1A01 DUP4 PUSH2 0x3B3 JUMP JUMPDEST SUB PUSH2 0x3CBA JUMPI POP POP JUMP JUMPDEST PUSH4 0x39E35637 PUSH1 0xE1 SHL DUP3 MSTORE DUP2 SWAP1 PUSH2 0x1164 SWAP1 PUSH1 0x4 DUP4 ADD PUSH2 0x3DF JUMP JUMPDEST PUSH4 0x32505749 PUSH1 0xE1 SHL DUP5 MSTORE DUP4 DUP1 PUSH2 0x1164 DUP6 PUSH1 0x4 DUP4 ADD PUSH2 0x3DF JUMP JUMPDEST SWAP1 PUSH2 0x3CFB PUSH2 0x270E DUP5 DUP4 DUP6 PUSH2 0x3DD9 JUMP JUMPDEST PUSH2 0x3D04 JUMPI POP POP POP JUMP JUMPDEST PUSH1 0x0 SWAP3 DUP4 SWAP3 PUSH2 0x3D18 PUSH2 0x1A01 PUSH2 0x1276 DUP7 PUSH2 0x10C2 JUMP JUMPDEST SUB PUSH2 0x3D35 JUMPI PUSH4 0x7E273289 PUSH1 0xE0 SHL DUP4 MSTORE PUSH1 0x4 DUP4 ADD MSTORE POP PUSH1 0x24 DUP2 ADD SUB SWAP1 REVERT JUMPDEST PUSH4 0x177E802F PUSH1 0xE0 SHL DUP4 MSTORE PUSH2 0x1164 SWAP2 PUSH1 0x4 DUP5 ADD PUSH2 0x1181 JUMP JUMPDEST PUSH2 0x3D55 DUP2 PUSH2 0x3E5D JUMP JUMPDEST SWAP1 PUSH2 0x3D66 PUSH1 0x1 SWAP3 PUSH2 0x4FF PUSH1 0x1 PUSH2 0x43D JUMP JUMPDEST SWAP2 DUP1 PUSH2 0x3D71 DUP5 PUSH2 0x284B JUMP JUMPDEST SWAP4 PUSH1 0x20 ADD DUP5 ADD SWAP1 JUMPDEST PUSH2 0x3D84 JUMPI JUMPDEST POP POP POP SWAP1 JUMP JUMPDEST DUP2 ISZERO PUSH2 0x3DD4 JUMPI PUSH2 0x3DB8 SWAP1 PUSH1 0x0 NOT ADD SWAP3 PUSH16 0x181899199A1A9B1B9C1CB0B131B232B3 PUSH1 0x81 SHL PUSH1 0xA DUP3 MOD BYTE DUP5 MSTORE8 PUSH2 0x10A9 PUSH1 0xA PUSH2 0x43D JUMP JUMPDEST SWAP1 DUP2 PUSH2 0x3DC7 PUSH2 0x1056 PUSH1 0x0 PUSH2 0x43D JUMP JUMPDEST EQ PUSH2 0x3DD4 JUMPI SWAP1 SWAP2 DUP2 PUSH2 0x3D79 JUMP JUMPDEST PUSH2 0x3D7E JUMP JUMPDEST SWAP1 PUSH2 0x3DE7 PUSH2 0x1276 PUSH1 0x0 PUSH2 0x10C2 JUMP JUMPDEST PUSH2 0x3DF0 DUP3 PUSH2 0x3B3 JUMP JUMPDEST EQ ISZERO SWAP3 DUP4 PUSH2 0x3DFE JUMPI POP POP POP SWAP1 JUMP JUMPDEST SWAP1 SWAP2 SWAP3 POP PUSH2 0x3E0B DUP3 PUSH2 0x3B3 JUMP JUMPDEST PUSH2 0x3E14 DUP5 PUSH2 0x3B3 JUMP JUMPDEST EQ SWAP3 DUP4 ISZERO PUSH2 0x3E49 JUMPI JUMPDEST POP DUP3 ISZERO PUSH2 0x3E2F JUMPI JUMPDEST POP POP CODESIZE DUP1 DUP1 PUSH2 0x3D7E JUMP JUMPDEST PUSH2 0x3E41 SWAP2 SWAP3 POP PUSH2 0x2993 PUSH2 0x1A01 SWAP2 PUSH2 0x1F02 JUMP JUMPDEST EQ CODESIZE DUP1 PUSH2 0x3E25 JUMP JUMPDEST PUSH2 0x3E56 SWAP2 SWAP4 POP DUP3 SWAP1 PUSH2 0x1E21 JUMP JUMPDEST SWAP2 CODESIZE PUSH2 0x3E1D JUMP JUMPDEST PUSH2 0x3E67 PUSH1 0x0 PUSH2 0x43D JUMP JUMPDEST SWAP1 PUSH27 0x184F03E93FF9F4DAA797ED6E38ED64BF6A1F010000000000000000 PUSH2 0x3E8D DUP2 PUSH2 0x43D JUMP JUMPDEST DUP3 LT ISZERO PUSH2 0x3FCF JUMPI JUMPDEST POP PUSH14 0x4EE2D6D415B85ACEF8100000000 PUSH2 0x3EAE DUP2 PUSH2 0x43D JUMP JUMPDEST DUP3 LT ISZERO PUSH2 0x3FAD JUMPI JUMPDEST POP PUSH7 0x2386F26FC10000 PUSH2 0x3EC8 DUP2 PUSH2 0x43D JUMP JUMPDEST DUP3 LT ISZERO PUSH2 0x3F8B JUMPI JUMPDEST POP PUSH4 0x5F5E100 PUSH2 0x3EDF DUP2 PUSH2 0x43D JUMP JUMPDEST DUP3 LT ISZERO PUSH2 0x3F69 JUMPI JUMPDEST POP PUSH2 0x2710 PUSH2 0x3EF4 DUP2 PUSH2 0x43D JUMP JUMPDEST DUP3 LT ISZERO PUSH2 0x3F47 JUMPI JUMPDEST POP PUSH2 0x3F07 PUSH1 0x64 PUSH2 0x43D JUMP JUMPDEST DUP2 LT ISZERO PUSH2 0x3F25 JUMPI JUMPDEST PUSH2 0x3F1C PUSH2 0x1056 PUSH1 0xA PUSH2 0x43D JUMP JUMPDEST LT ISZERO PUSH2 0x3013 JUMPI SWAP1 JUMP JUMPDEST PUSH2 0x3F36 PUSH2 0x3F41 SWAP2 PUSH2 0x10A9 PUSH1 0x64 PUSH2 0x43D JUMP JUMPDEST SWAP2 PUSH2 0x4FF PUSH1 0x2 PUSH2 0x43D JUMP JUMPDEST SWAP1 PUSH2 0x3F0F JUMP JUMPDEST PUSH2 0x3F62 SWAP2 PUSH2 0x10A9 PUSH2 0x3F57 SWAP3 PUSH2 0x43D JUMP JUMPDEST SWAP2 PUSH2 0x4FF PUSH1 0x4 PUSH2 0x43D JUMP JUMPDEST SWAP1 CODESIZE PUSH2 0x3EFC JUMP JUMPDEST PUSH2 0x3F84 SWAP2 PUSH2 0x10A9 PUSH2 0x3F79 SWAP3 PUSH2 0x43D JUMP JUMPDEST SWAP2 PUSH2 0x4FF PUSH1 0x8 PUSH2 0x43D JUMP JUMPDEST SWAP1 CODESIZE PUSH2 0x3EE7 JUMP JUMPDEST PUSH2 0x3FA6 SWAP2 PUSH2 0x10A9 PUSH2 0x3F9B SWAP3 PUSH2 0x43D JUMP JUMPDEST SWAP2 PUSH2 0x4FF PUSH1 0x10 PUSH2 0x43D JUMP JUMPDEST SWAP1 CODESIZE PUSH2 0x3ED0 JUMP JUMPDEST PUSH2 0x3FC8 SWAP2 PUSH2 0x10A9 PUSH2 0x3FBD SWAP3 PUSH2 0x43D JUMP JUMPDEST SWAP2 PUSH2 0x4FF PUSH1 0x20 PUSH2 0x43D JUMP JUMPDEST SWAP1 CODESIZE PUSH2 0x3EB6 JUMP JUMPDEST PUSH2 0x3FEA SWAP2 PUSH2 0x10A9 PUSH2 0x3FDF SWAP3 PUSH2 0x43D JUMP JUMPDEST SWAP2 PUSH2 0x4FF PUSH1 0x40 PUSH2 0x43D JUMP JUMPDEST SWAP1 CODESIZE PUSH2 0x3E95 JUMP INVALID LOG2 PUSH5 0x6970667358 0x22 SLT KECCAK256 0xEB 0xB7 SWAP3 CALL PUSH29 0x93E4CDF2AC429C39ACB102A53D0A226CAF8F4649D38B17E2B6A87F6473 PUSH16 0x6C634300081C00330000000000000000 "},"methodIdentifiers":{"approve(address,uint256)":"095ea7b3","availableTokens(uint256)":"ad64d068","balanceOf(address)":"70a08231","baseURI()":"6c0360eb","buy(uint256)":"d96a094a","calculatePrice(uint256)":"ae104265","contractURI()":"e8a3d485","creator()":"02d05d3f","creatorFeePercent()":"53613dd3","currentSupply()":"771282f6","feeVault()":"478222c2","getAllAvailableTokens()":"12ea5c7e","getApproved(uint256)":"081812fc","getAvailableTokenByIndex(uint256)":"cf6a68bf","getAvailableTokensCount()":"2dcd52f2","getAvailableTokensPaginated(uint256,uint256)":"5eba096b","getBuyPrice()":"018a25e8","getBuyPriceAfterFee()":"4a8fe650","getSellPrice()":"43d32e9c","getSellPriceAfterFee()":"21a1c184","initialPrice()":"1d0806ae","isApprovedForAll(address,address)":"e985e9c5","isOnSale(uint256)":"f0f2805f","maxSupply()":"d5abeb01","mint()":"1249c58b","name()":"06fdde03","onERC721Received(address,address,uint256,bytes)":"150b7a02","owner()":"8da5cb5b","ownerOf(uint256)":"6352211e","renounceOwnership()":"715018a6","safeTransferFrom(address,address,uint256)":"42842e0e","safeTransferFrom(address,address,uint256,bytes)":"b88d4fde","sell(uint256)":"e4849b32","setApprovalForAll(address,bool)":"a22cb465","setBaseURI(string)":"55f804b3","setCreator(address)":"3f516018","supportsInterface(bytes4)":"01ffc9a7","symbol()":"95d89b41","tokenByIndex(uint256)":"4f6ccce7","tokenIndex(uint256)":"0583e9f8","tokenOfOwnerByIndex(address,uint256)":"2f745c59","tokenSeed(uint256)":"5f516836","tokenURI(uint256)":"c87b56dd","totalSupply()":"18160ddd","transferFrom(address,address,uint256)":"23b872dd","transferOwnership(address)":"f2fde38b"}}}}}