{"src/periphery/FlipPeriphery.sol":{"FlipPeriphery":{"abi":[{"anonymous":false,"inputs":[{"indexed":true,"internalType":"address","name":"flipContract","type":"address"},{"indexed":true,"internalType":"address","name":"buyer","type":"address"},{"indexed":true,"internalType":"uint256","name":"tokenId","type":"uint256"}],"name":"Bought","type":"event"},{"anonymous":false,"inputs":[{"indexed":true,"internalType":"address","name":"flipContract","type":"address"},{"indexed":true,"internalType":"address","name":"buyer","type":"address"},{"indexed":false,"internalType":"uint256[]","name":"tokenIds","type":"uint256[]"},{"indexed":false,"internalType":"uint256","name":"totalPrice","type":"uint256"}],"name":"BulkBuyExecuted","type":"event"},{"anonymous":false,"inputs":[{"indexed":true,"internalType":"address","name":"flipContract","type":"address"},{"indexed":true,"internalType":"address","name":"buyer","type":"address"},{"indexed":false,"internalType":"uint256","name":"quantity","type":"uint256"},{"indexed":false,"internalType":"uint256","name":"totalPrice","type":"uint256"}],"name":"BulkMintExecuted","type":"event"},{"anonymous":false,"inputs":[{"indexed":true,"internalType":"address","name":"flipContract","type":"address"},{"indexed":true,"internalType":"address","name":"buyer","type":"address"},{"indexed":false,"internalType":"uint256","name":"quantity","type":"uint256"},{"indexed":false,"internalType":"uint256","name":"totalPrice","type":"uint256"}],"name":"BulkQuickBuyExecuted","type":"event"},{"anonymous":false,"inputs":[{"indexed":true,"internalType":"address","name":"flipContract","type":"address"},{"indexed":true,"internalType":"address","name":"seller","type":"address"},{"indexed":false,"internalType":"uint256[]","name":"tokenIds","type":"uint256[]"},{"indexed":false,"internalType":"uint256","name":"totalPrice","type":"uint256"}],"name":"BulkSellExecuted","type":"event"},{"anonymous":false,"inputs":[{"indexed":true,"internalType":"address","name":"flipContract","type":"address"},{"indexed":true,"internalType":"address","name":"to","type":"address"},{"indexed":true,"internalType":"uint256","name":"tokenId","type":"uint256"}],"name":"Minted","type":"event"},{"anonymous":false,"inputs":[{"indexed":true,"internalType":"address","name":"flipContract","type":"address"},{"indexed":true,"internalType":"address","name":"buyer","type":"address"},{"indexed":true,"internalType":"uint256","name":"tokenId","type":"uint256"},{"indexed":false,"internalType":"uint256","name":"price","type":"uint256"}],"name":"QuickBuyExecuted","type":"event"},{"anonymous":false,"inputs":[{"indexed":true,"internalType":"address","name":"flipContract","type":"address"},{"indexed":true,"internalType":"address","name":"seller","type":"address"},{"indexed":true,"internalType":"uint256","name":"tokenId","type":"uint256"}],"name":"Sold","type":"event"},{"inputs":[{"internalType":"address","name":"_flipContractAddress","type":"address"},{"internalType":"uint256[]","name":"tokenIds","type":"uint256[]"}],"name":"bulkBuy","outputs":[],"stateMutability":"payable","type":"function"},{"inputs":[{"internalType":"address","name":"_flipContractAddress","type":"address"},{"internalType":"uint256","name":"quantity","type":"uint256"}],"name":"bulkMint","outputs":[],"stateMutability":"payable","type":"function"},{"inputs":[{"internalType":"address","name":"_flipContractAddress","type":"address"},{"internalType":"uint256","name":"quantity","type":"uint256"}],"name":"bulkQuickBuy","outputs":[],"stateMutability":"payable","type":"function"},{"inputs":[{"internalType":"address","name":"_flipContractAddress","type":"address"},{"internalType":"uint256[]","name":"tokenIds","type":"uint256[]"}],"name":"bulkSell","outputs":[],"stateMutability":"nonpayable","type":"function"},{"inputs":[{"internalType":"address","name":"_flipContractAddress","type":"address"},{"internalType":"uint256","name":"tokenId","type":"uint256"}],"name":"buy","outputs":[],"stateMutability":"payable","type":"function"},{"inputs":[{"internalType":"address","name":"_flipContractAddress","type":"address"}],"name":"mint","outputs":[],"stateMutability":"payable","type":"function"},{"inputs":[{"internalType":"address","name":"","type":"address"},{"internalType":"address","name":"","type":"address"},{"internalType":"uint256","name":"","type":"uint256"},{"internalType":"bytes","name":"","type":"bytes"}],"name":"onERC721Received","outputs":[{"internalType":"bytes4","name":"","type":"bytes4"}],"stateMutability":"nonpayable","type":"function"},{"inputs":[{"internalType":"address","name":"_flipContractAddress","type":"address"}],"name":"quickBuy","outputs":[],"stateMutability":"payable","type":"function"},{"inputs":[{"internalType":"address","name":"_flipContractAddress","type":"address"},{"internalType":"uint256","name":"tokenId","type":"uint256"}],"name":"sell","outputs":[],"stateMutability":"nonpayable","type":"function"},{"stateMutability":"payable","type":"receive"}],"evm":{"bytecode":{"linkReferences":{},"object":"60806040523460195760405161164d61001f823961164d90f35b600080fdfe6080604052600436101561001b575b361561001957600080fd5b005b60003560e01c8063150b7a02146100ab57806340f3620a146100a65780636a627842146100a15780636c197ff51461009c57806399bd4737146100975780639cb3ecd014610092578063a8c90cb21461008d578063cce7ec13146100885763d17dbbc00361000e57610389565b610375565b610361565b61034d565b610339565b610320565b6102ea565b6102b8565b610210565b6001600160a01b031690565b90565b6001600160a01b0381165b036100d157565b600080fd5b905035906100e3826100bf565b565b806100ca565b905035906100e3826100e5565b634e487b7160e01b600052604160045260246000fd5b90601f01601f1916810190811067ffffffffffffffff82111761013057604052565b6100f8565b906100e361014260405190565b928361010e565b67ffffffffffffffff811161013057602090601f01601f19160190565b0190565b90826000939282370152565b9092919261018b61018682610149565b610135565b93818552818301116100d1576100e391602085019061016a565b9080601f830112156100d1578160206100bc93359101610176565b906080828203126100d1576101d581836100d6565b926101e382602085016100d6565b926101f183604083016100eb565b92606082013567ffffffffffffffff81116100d1576100bc92016101a5565b346100d15761024a61022f6102263660046101c0565b929190916103df565b604051918291826001600160e01b0319909116815260200190565b0390f35b909182601f830112156100d15781359167ffffffffffffffff83116100d15760200192602083028401116100d157565b9190916040818403126100d15761029583826100d6565b92602082013567ffffffffffffffff81116100d1576102b4920161024e565b9091565b346100d1576102d16102cb36600461027e565b916105e6565b604051005b906020828203126100d1576100bc916100d6565b6102d16102f83660046102d6565b610879565b91906040838203126100d1576100bc90602061031982866100d6565b94016100eb565b346100d1576102d16103333660046102fd565b9061099a565b6102d161034736600461027e565b91610b87565b6102d161035b3660046102fd565b90610e07565b6102d161036f3660046102fd565b906110a3565b6102d16103833660046102fd565b90611226565b6102d16103973660046102d6565b611351565b6100bc906100b0906001600160a01b031682565b6100bc9061039c565b6103d26103cc6100bc9263ffffffff1690565b60e01b90565b6001600160e01b03191690565b505050506103eb600090565b506100bc63150b7a026103b9565b6100bc906103b0565b6100bc6100bc6100bc9290565b634e487b7160e01b600052603260045260246000fd5b9190811015610435576020020190565b61040f565b356100bc816100e5565b905051906100e3826100bf565b906020828203126100d1576100bc91610444565b6040513d6000823e3d90fd5b1561047857565b60405162461bcd60e51b815260206004820152600f60248201526e2737ba103a37b5b2b71037bbb732b960891b6044820152606490fd5b905051906100e3826100e5565b906020828203126100d1576100bc916104af565b634e487b7160e01b600052601160045260246000fd5b919082018092116104f357565b6104d0565b60009103126100d157565b6001600160a01b039182168152911660208201526060810192916100e39160400152565b9037565b8183529091602001916001600160fb1b0381116100d157829160206101669202938491610527565b9392906105726020916100e394604088019188830360008a015261052b565b940152565b9061058461018683610149565b918252565b3d156105a3576105983d610577565b903d6000602084013e565b606090565b156105af57565b60405162461bcd60e51b815260206004820152600f60248201526e151c985b9cd9995c8819985a5b1959608a1b6044820152606490fd5b919290926105f3836103f9565b916105fd846103f9565b9160009561060a87610402565b92835b8381101561080857610628610623828686610425565b61043a565b90610632886103f9565b9561063c60405190565b6331a9108f60e11b8152600481018490526020816024818b5afa801561078957610679916000916107da575b506001600160a01b03163314610471565b610682886103f9565b90602061068e60405190565b630868706160e21b815292839060049082905afa908115610789576106bb926000926107aa575b506104e6565b956106c5306103f9565b813b156100d1578b846106f4926106db60405190565b93849283926323b872dd60e01b84523360048501610503565b038183865af180156107895761078e575b50803b156100d15761073d8b9391849261071e60405190565b95869384928391906372424d9960e11b5b835260048301526024820190565b03925af1918215610789576107589261075d575b5060010190565b61060d565b61077c908b3d8d11610782575b610774818361010e565b8101906104f8565b38610751565b503d61076a565b610465565b6107a4908c8d3d1061078257610774818361010e565b38610705565b6107cc91925060203d81116107d3575b6107c4818361010e565b8101906104bc565b90386106b5565b503d6107ba565b6107fb915060203d8111610801575b6107f3818361010e565b810190610451565b38610668565b503d6107e9565b50969450908493507f4f275847fc1f4b73e82a70cbabfa9e4be6ff26e9f255681c79da8d9e497d351f61083d6100e3976103f9565b91610847336103f9565b9361085e8661085560405190565b93849384610553565b0390a36040515b600091335af1610873610589565b506105a8565b61088a610885826103f9565b6103f9565b631249c58b916108a361089c60405190565b9360e01b90565b835260208360048134865af192831561078957600093610979575b506108c8306103f9565b91803b156100d1578360009161090394836108e260405190565b8097819582946108f66323b872dd60e01b90565b8452339060048501610503565b03925af19182156107895761091d92610963575b506103f9565b9061093061092a336103f9565b91610402565b917f9d228d69b5fdb8d273a2336f8fb8612d039631024ea9bf09c424a9503aa078f061095b60405190565b80805b0390a4565b610973906000610774818361010e565b38610917565b61099391935060203d6020116107d3576107c4818361010e565b91386108be565b6109a3816103f9565b906109b0610885826103f9565b9160206109bc60405190565b630868706160e21b815293849060049082905afa92831561078957600093610ad6575b506109e9906103f9565b916109f3306103f9565b833b156100d157600085610a0a926106db60405190565b038183885af1801561078957610ac0575b50823b156100d1576000610a2e60405190565b6372424d9960e11b815260048101869052938490602490829084905af1928315610789576000610885928192610a6c96610aa4575b50604051610865565b90610a7961092a336103f9565b917ff3ecb4dab83f41da3035ff9cb3a2ef0c3027ebb89ae4e4b822d7c109e869a2fc61095b60405190565b610aba90833d851161078257610774818361010e565b38610a63565b610ad0906000610774818361010e565b38610a1b565b6109e9919350610af49060203d6020116107d3576107c4818361010e565b92906109df565b15610b0257565b60405162461bcd60e51b8152602060048201526014602482015273125b9cdd59999a58da595b9d081c185e5b595b9d60621b6044820152606490fd5b919082039182116104f357565b15610b5257565b60405162461bcd60e51b815260206004820152600d60248201526c1499599d5b990819985a5b1959609a1b6044820152606490fd5b9190610b92836103f9565b91610b9c846103f9565b92600093610ba985610402565b96875b84891015610cf057610bbd836103f9565b906020610bc960405190565b6304a8fe6560e41b815292839060049082905afa91821561078957600092610ccc575b5081610bf7916104e6565b98610c01856103f9565b9163d96a094a610c15610623848a8c610425565b843b156100d157610c3b9261072f8c93610c2e60405190565b9586948593849360e01b90565b0391875af1801561078957610cb0575b50610c55306103f9565b610c6361062383898b610425565b833b156100d157610c7a938a92836108e260405190565b03925af191821561078957610c9492610c9a575060010190565b97610bac565b61077c90893d8b1161078257610774818361010e565b610cc690893d8b1161078257610774818361010e565b38610c4b565b610bf7919250610ce99060203d81116107d3576107c4818361010e565b9190610bec565b949392509650507f0d69574e7599e85836fc9fc7c4f2217b67bcb56dc4d97aa86e38dc6d12e13b54610d32610d539596610885610d2a8790565b341015610afb565b91610d3c336103f9565b93610d4a8661085560405190565b0390a334610b3e565b90610d5d81610402565b8211610d67575050565b806100e392610d7560405190565b600091335af1610d83610589565b50610b4b565b15610d9057565b60405162461bcd60e51b815260206004820152602960248201527f4e6f7420656e6f75676820746f6b656e7320617661696c61626c6520666f7220604482015268717569636b2062757960b81b6064820152608490fd5b80156104f3576000190190565b9081526040810192916100e39160200152565b9091610e12826103f9565b92610e1c836103f9565b93610e26846103f9565b600093610e3b610e3586610402565b976103f9565b90610e4560405190565b6316e6a97960e11b815294602086600481865afa95861561078957600096611082575b50949794610e80818a610e7a565b9190565b11610d89565b855b8187101561102757610eb9996020610ea3610e9d6001610402565b83610b3e565b6040519c8d9182919063cf6a68bf60e01b61072f565b0381885afa9a8b156107895760009b611007575b50610ed7866103f9565b916020610ee360405190565b6304a8fe6560e41b815293849060049082905afa92831561078957600093610fe3575b5082610f11916104e6565b9a610f1b886103f9565b9263d96a094a90843b156100d157610f41918c91610f3860405190565b93849260e01b90565b8252600482018590526024908290885af1801561078957610fc7575b50610f67306103f9565b90833b156100d157610f7f938b92836108e260405190565b03925af190811561078957610fa492610f9d92610fab575b50610de7565b9660010190565b9598610e82565b610fc1908b3d8d1161078257610774818361010e565b38610f97565b610fdd908b3d8d1161078257610774818361010e565b38610f5d565b610f119193506110009060203d81116107d3576107c4818361010e565b9290610f06565b611020919b5060203d81116107d3576107c4818361010e565b9938610ecd565b9550935096505050611041610d539394610885610d2a8590565b7f4ff1827d77ab49e21c8d61595e19baa6394b51f1ff63545cf5561c23c3c7a9d38361106c336103f9565b93610d4a61107960405190565b92839283610df4565b61109c91965060203d6020116107d3576107c4818361010e565b9438610e68565b90916110ae826103f9565b6110b7836103f9565b6000926110c384610402565b95865b818810156111e3576110d7846103f9565b9060206110e360405190565b6304a8fe6560e41b815292839060049082905afa918215610789576000926111bf575b5081611111916104e6565b976111306020611120886103f9565b93631249c58b90610f3860405190565b82526004908290875af1908115610789576000916111a1575b50611153306103f9565b90833b156100d15761116b938992836108e260405190565b03925af1918215610789576111859261118b575060010190565b966110c6565b61077c90883d8a1161078257610774818361010e565b6111b9915060203d81116107d3576107c4818361010e565b38611149565b6111119192506111dc9060203d81116107d3576107c4818361010e565b9190611106565b9350915094506111fb610d539394610885610d2a8590565b7f5b7affbbc942cba91dea50b9e90a9ecdbe2801c866163786c10754f496e6d0098361106c336103f9565b611232610885826103f9565b9063d96a094a823b156100d15761125261124b60405190565b9160e01b90565b81526004810184905260008160248134875af18015610789576112e5575b5061127a306103f9565b91803b156100d1578360009161129494836108e260405190565b03925af1918215610789576112ad9261096357506103f9565b906112ba61092a336103f9565b917f0a553f03004ca54c18763b68c9ef162311a3c847d15f2d2e12a39cdf28e966ce61095b60405190565b6112f5906000610774818361010e565b38611270565b1561130257565b60405162461bcd60e51b815260206004820152602160248201527f4e6f20746f6b656e7320617661696c61626c6520666f7220717569636b2062756044820152607960f81b6064820152608490fd5b61135a816103f9565b90611364816103f9565b90611377611371826103f9565b926103f9565b90632dcd52f29261138760405190565b926113928560e01b90565b8452602084600481845afa938415610789576000946115f6575b506113c56000946113bf610e7687610402565b116112fb565b6113d86113d160405190565b9560e01b90565b8552602085600481845afa9081156107895761140d60209261142b976000916115d9575b506114076001610402565b90610b3e565b9061141760405190565b9687928391829163cf6a68bf60e01b61072f565b03915afa938415610789576000946115b4575b50611448906103f9565b93602061145460405190565b6304a8fe6560e41b815295869060049082905afa9485156107895760009561158f575b50611481906103f9565b9163d96a094a833b156100d15761149a61124b60405190565b815260048101859052818160248189885af1801561078957611573575b506114c1306103f9565b92803b156100d1578482916114ee95836114da60405190565b8098819582946108f66323b872dd60e01b90565b03925af19283156107895761150993611556575b50506103f9565b7fcd02dec8b4899a0b071b135c1c28f8b9f04c32c5c71c7ef2562287f8b238660161095e61153f611539336103f9565b94610402565b9461154960405190565b9182918290815260200190565b8161156c92903d1061078257610774818361010e565b3880611502565b61158990823d841161078257610774818361010e565b386114b7565b6114819195506115ad9060203d6020116107d3576107c4818361010e565b9490611477565b6114489194506115d29060203d6020116107d3576107c4818361010e565b939061143e565b6115f09150843d86116107d3576107c4818361010e565b386113fc565b61161091945060203d6020116107d3576107c4818361010e565b92386113ac56fea264697066735822122098d086e2c413c07c0d6a60d81ce75f5bf6881e3e2119fe3b7ecb0c24d62f4e6064736f6c634300081c0033","opcodes":"PUSH1 0x80 PUSH1 0x40 MSTORE CALLVALUE PUSH1 0x19 JUMPI PUSH1 0x40 MLOAD PUSH2 0x164D PUSH2 0x1F DUP3 CODECOPY PUSH2 0x164D SWAP1 RETURN JUMPDEST PUSH1 0x0 DUP1 REVERT INVALID PUSH1 0x80 PUSH1 0x40 MSTORE PUSH1 0x4 CALLDATASIZE LT ISZERO PUSH2 0x1B JUMPI JUMPDEST CALLDATASIZE ISZERO PUSH2 0x19 JUMPI PUSH1 0x0 DUP1 REVERT JUMPDEST STOP JUMPDEST PUSH1 0x0 CALLDATALOAD PUSH1 0xE0 SHR DUP1 PUSH4 0x150B7A02 EQ PUSH2 0xAB JUMPI DUP1 PUSH4 0x40F3620A EQ PUSH2 0xA6 JUMPI DUP1 PUSH4 0x6A627842 EQ PUSH2 0xA1 JUMPI DUP1 PUSH4 0x6C197FF5 EQ PUSH2 0x9C JUMPI DUP1 PUSH4 0x99BD4737 EQ PUSH2 0x97 JUMPI DUP1 PUSH4 0x9CB3ECD0 EQ PUSH2 0x92 JUMPI DUP1 PUSH4 0xA8C90CB2 EQ PUSH2 0x8D JUMPI DUP1 PUSH4 0xCCE7EC13 EQ PUSH2 0x88 JUMPI PUSH4 0xD17DBBC0 SUB PUSH2 0xE JUMPI PUSH2 0x389 JUMP JUMPDEST PUSH2 0x375 JUMP JUMPDEST PUSH2 0x361 JUMP JUMPDEST PUSH2 0x34D JUMP JUMPDEST PUSH2 0x339 JUMP JUMPDEST PUSH2 0x320 JUMP JUMPDEST PUSH2 0x2EA JUMP JUMPDEST PUSH2 0x2B8 JUMP JUMPDEST PUSH2 0x210 JUMP JUMPDEST PUSH1 0x1 PUSH1 0x1 PUSH1 0xA0 SHL SUB AND SWAP1 JUMP JUMPDEST SWAP1 JUMP JUMPDEST PUSH1 0x1 PUSH1 0x1 PUSH1 0xA0 SHL SUB DUP2 AND JUMPDEST SUB PUSH2 0xD1 JUMPI JUMP JUMPDEST PUSH1 0x0 DUP1 REVERT JUMPDEST SWAP1 POP CALLDATALOAD SWAP1 PUSH2 0xE3 DUP3 PUSH2 0xBF JUMP JUMPDEST JUMP JUMPDEST DUP1 PUSH2 0xCA JUMP JUMPDEST SWAP1 POP CALLDATALOAD SWAP1 PUSH2 0xE3 DUP3 PUSH2 0xE5 JUMP JUMPDEST PUSH4 0x4E487B71 PUSH1 0xE0 SHL PUSH1 0x0 MSTORE PUSH1 0x41 PUSH1 0x4 MSTORE PUSH1 0x24 PUSH1 0x0 REVERT JUMPDEST SWAP1 PUSH1 0x1F ADD PUSH1 0x1F NOT AND DUP2 ADD SWAP1 DUP2 LT PUSH8 0xFFFFFFFFFFFFFFFF DUP3 GT OR PUSH2 0x130 JUMPI PUSH1 0x40 MSTORE JUMP JUMPDEST PUSH2 0xF8 JUMP JUMPDEST SWAP1 PUSH2 0xE3 PUSH2 0x142 PUSH1 0x40 MLOAD SWAP1 JUMP JUMPDEST SWAP3 DUP4 PUSH2 0x10E JUMP JUMPDEST PUSH8 0xFFFFFFFFFFFFFFFF DUP2 GT PUSH2 0x130 JUMPI PUSH1 0x20 SWAP1 PUSH1 0x1F ADD PUSH1 0x1F NOT AND ADD SWAP1 JUMP JUMPDEST ADD SWAP1 JUMP JUMPDEST SWAP1 DUP3 PUSH1 0x0 SWAP4 SWAP3 DUP3 CALLDATACOPY ADD MSTORE JUMP JUMPDEST SWAP1 SWAP3 SWAP2 SWAP3 PUSH2 0x18B PUSH2 0x186 DUP3 PUSH2 0x149 JUMP JUMPDEST PUSH2 0x135 JUMP JUMPDEST SWAP4 DUP2 DUP6 MSTORE DUP2 DUP4 ADD GT PUSH2 0xD1 JUMPI PUSH2 0xE3 SWAP2 PUSH1 0x20 DUP6 ADD SWAP1 PUSH2 0x16A JUMP JUMPDEST SWAP1 DUP1 PUSH1 0x1F DUP4 ADD SLT ISZERO PUSH2 0xD1 JUMPI DUP2 PUSH1 0x20 PUSH2 0xBC SWAP4 CALLDATALOAD SWAP2 ADD PUSH2 0x176 JUMP JUMPDEST SWAP1 PUSH1 0x80 DUP3 DUP3 SUB SLT PUSH2 0xD1 JUMPI PUSH2 0x1D5 DUP2 DUP4 PUSH2 0xD6 JUMP JUMPDEST SWAP3 PUSH2 0x1E3 DUP3 PUSH1 0x20 DUP6 ADD PUSH2 0xD6 JUMP JUMPDEST SWAP3 PUSH2 0x1F1 DUP4 PUSH1 0x40 DUP4 ADD PUSH2 0xEB JUMP JUMPDEST SWAP3 PUSH1 0x60 DUP3 ADD CALLDATALOAD PUSH8 0xFFFFFFFFFFFFFFFF DUP2 GT PUSH2 0xD1 JUMPI PUSH2 0xBC SWAP3 ADD PUSH2 0x1A5 JUMP JUMPDEST CALLVALUE PUSH2 0xD1 JUMPI PUSH2 0x24A PUSH2 0x22F PUSH2 0x226 CALLDATASIZE PUSH1 0x4 PUSH2 0x1C0 JUMP JUMPDEST SWAP3 SWAP2 SWAP1 SWAP2 PUSH2 0x3DF JUMP JUMPDEST PUSH1 0x40 MLOAD SWAP2 DUP3 SWAP2 DUP3 PUSH1 0x1 PUSH1 0x1 PUSH1 0xE0 SHL SUB NOT SWAP1 SWAP2 AND DUP2 MSTORE PUSH1 0x20 ADD SWAP1 JUMP JUMPDEST SUB SWAP1 RETURN JUMPDEST SWAP1 SWAP2 DUP3 PUSH1 0x1F DUP4 ADD SLT ISZERO PUSH2 0xD1 JUMPI DUP2 CALLDATALOAD SWAP2 PUSH8 0xFFFFFFFFFFFFFFFF DUP4 GT PUSH2 0xD1 JUMPI PUSH1 0x20 ADD SWAP3 PUSH1 0x20 DUP4 MUL DUP5 ADD GT PUSH2 0xD1 JUMPI JUMP JUMPDEST SWAP2 SWAP1 SWAP2 PUSH1 0x40 DUP2 DUP5 SUB SLT PUSH2 0xD1 JUMPI PUSH2 0x295 DUP4 DUP3 PUSH2 0xD6 JUMP JUMPDEST SWAP3 PUSH1 0x20 DUP3 ADD CALLDATALOAD PUSH8 0xFFFFFFFFFFFFFFFF DUP2 GT PUSH2 0xD1 JUMPI PUSH2 0x2B4 SWAP3 ADD PUSH2 0x24E JUMP JUMPDEST SWAP1 SWAP2 JUMP JUMPDEST CALLVALUE PUSH2 0xD1 JUMPI PUSH2 0x2D1 PUSH2 0x2CB CALLDATASIZE PUSH1 0x4 PUSH2 0x27E JUMP JUMPDEST SWAP2 PUSH2 0x5E6 JUMP JUMPDEST PUSH1 0x40 MLOAD STOP JUMPDEST SWAP1 PUSH1 0x20 DUP3 DUP3 SUB SLT PUSH2 0xD1 JUMPI PUSH2 0xBC SWAP2 PUSH2 0xD6 JUMP JUMPDEST PUSH2 0x2D1 PUSH2 0x2F8 CALLDATASIZE PUSH1 0x4 PUSH2 0x2D6 JUMP JUMPDEST PUSH2 0x879 JUMP JUMPDEST SWAP2 SWAP1 PUSH1 0x40 DUP4 DUP3 SUB SLT PUSH2 0xD1 JUMPI PUSH2 0xBC SWAP1 PUSH1 0x20 PUSH2 0x319 DUP3 DUP7 PUSH2 0xD6 JUMP JUMPDEST SWAP5 ADD PUSH2 0xEB JUMP JUMPDEST CALLVALUE PUSH2 0xD1 JUMPI PUSH2 0x2D1 PUSH2 0x333 CALLDATASIZE PUSH1 0x4 PUSH2 0x2FD JUMP JUMPDEST SWAP1 PUSH2 0x99A JUMP JUMPDEST PUSH2 0x2D1 PUSH2 0x347 CALLDATASIZE PUSH1 0x4 PUSH2 0x27E JUMP JUMPDEST SWAP2 PUSH2 0xB87 JUMP JUMPDEST PUSH2 0x2D1 PUSH2 0x35B CALLDATASIZE PUSH1 0x4 PUSH2 0x2FD JUMP JUMPDEST SWAP1 PUSH2 0xE07 JUMP JUMPDEST PUSH2 0x2D1 PUSH2 0x36F CALLDATASIZE PUSH1 0x4 PUSH2 0x2FD JUMP JUMPDEST SWAP1 PUSH2 0x10A3 JUMP JUMPDEST PUSH2 0x2D1 PUSH2 0x383 CALLDATASIZE PUSH1 0x4 PUSH2 0x2FD JUMP JUMPDEST SWAP1 PUSH2 0x1226 JUMP JUMPDEST PUSH2 0x2D1 PUSH2 0x397 CALLDATASIZE PUSH1 0x4 PUSH2 0x2D6 JUMP JUMPDEST PUSH2 0x1351 JUMP JUMPDEST PUSH2 0xBC SWAP1 PUSH2 0xB0 SWAP1 PUSH1 0x1 PUSH1 0x1 PUSH1 0xA0 SHL SUB AND DUP3 JUMP JUMPDEST PUSH2 0xBC SWAP1 PUSH2 0x39C JUMP JUMPDEST PUSH2 0x3D2 PUSH2 0x3CC PUSH2 0xBC SWAP3 PUSH4 0xFFFFFFFF AND SWAP1 JUMP JUMPDEST PUSH1 0xE0 SHL SWAP1 JUMP JUMPDEST PUSH1 0x1 PUSH1 0x1 PUSH1 0xE0 SHL SUB NOT AND SWAP1 JUMP JUMPDEST POP POP POP POP PUSH2 0x3EB PUSH1 0x0 SWAP1 JUMP JUMPDEST POP PUSH2 0xBC PUSH4 0x150B7A02 PUSH2 0x3B9 JUMP JUMPDEST PUSH2 0xBC SWAP1 PUSH2 0x3B0 JUMP JUMPDEST PUSH2 0xBC PUSH2 0xBC PUSH2 0xBC SWAP3 SWAP1 JUMP JUMPDEST PUSH4 0x4E487B71 PUSH1 0xE0 SHL PUSH1 0x0 MSTORE PUSH1 0x32 PUSH1 0x4 MSTORE PUSH1 0x24 PUSH1 0x0 REVERT JUMPDEST SWAP2 SWAP1 DUP2 LT ISZERO PUSH2 0x435 JUMPI PUSH1 0x20 MUL ADD SWAP1 JUMP JUMPDEST PUSH2 0x40F JUMP JUMPDEST CALLDATALOAD PUSH2 0xBC DUP2 PUSH2 0xE5 JUMP JUMPDEST SWAP1 POP MLOAD SWAP1 PUSH2 0xE3 DUP3 PUSH2 0xBF JUMP JUMPDEST SWAP1 PUSH1 0x20 DUP3 DUP3 SUB SLT PUSH2 0xD1 JUMPI PUSH2 0xBC SWAP2 PUSH2 0x444 JUMP JUMPDEST PUSH1 0x40 MLOAD RETURNDATASIZE PUSH1 0x0 DUP3 RETURNDATACOPY RETURNDATASIZE SWAP1 REVERT JUMPDEST ISZERO PUSH2 0x478 JUMPI JUMP JUMPDEST PUSH1 0x40 MLOAD PUSH3 0x461BCD PUSH1 0xE5 SHL DUP2 MSTORE PUSH1 0x20 PUSH1 0x4 DUP3 ADD MSTORE PUSH1 0xF PUSH1 0x24 DUP3 ADD MSTORE PUSH15 0x2737BA103A37B5B2B71037BBB732B9 PUSH1 0x89 SHL PUSH1 0x44 DUP3 ADD MSTORE PUSH1 0x64 SWAP1 REVERT JUMPDEST SWAP1 POP MLOAD SWAP1 PUSH2 0xE3 DUP3 PUSH2 0xE5 JUMP JUMPDEST SWAP1 PUSH1 0x20 DUP3 DUP3 SUB SLT PUSH2 0xD1 JUMPI PUSH2 0xBC SWAP2 PUSH2 0x4AF JUMP JUMPDEST PUSH4 0x4E487B71 PUSH1 0xE0 SHL PUSH1 0x0 MSTORE PUSH1 0x11 PUSH1 0x4 MSTORE PUSH1 0x24 PUSH1 0x0 REVERT JUMPDEST SWAP2 SWAP1 DUP3 ADD DUP1 SWAP3 GT PUSH2 0x4F3 JUMPI JUMP JUMPDEST PUSH2 0x4D0 JUMP JUMPDEST PUSH1 0x0 SWAP2 SUB SLT PUSH2 0xD1 JUMPI JUMP JUMPDEST PUSH1 0x1 PUSH1 0x1 PUSH1 0xA0 SHL SUB SWAP2 DUP3 AND DUP2 MSTORE SWAP2 AND PUSH1 0x20 DUP3 ADD MSTORE PUSH1 0x60 DUP2 ADD SWAP3 SWAP2 PUSH2 0xE3 SWAP2 PUSH1 0x40 ADD MSTORE JUMP JUMPDEST SWAP1 CALLDATACOPY JUMP JUMPDEST DUP2 DUP4 MSTORE SWAP1 SWAP2 PUSH1 0x20 ADD SWAP2 PUSH1 0x1 PUSH1 0x1 PUSH1 0xFB SHL SUB DUP2 GT PUSH2 0xD1 JUMPI DUP3 SWAP2 PUSH1 0x20 PUSH2 0x166 SWAP3 MUL SWAP4 DUP5 SWAP2 PUSH2 0x527 JUMP JUMPDEST SWAP4 SWAP3 SWAP1 PUSH2 0x572 PUSH1 0x20 SWAP2 PUSH2 0xE3 SWAP5 PUSH1 0x40 DUP9 ADD SWAP2 DUP9 DUP4 SUB PUSH1 0x0 DUP11 ADD MSTORE PUSH2 0x52B JUMP JUMPDEST SWAP5 ADD MSTORE JUMP JUMPDEST SWAP1 PUSH2 0x584 PUSH2 0x186 DUP4 PUSH2 0x149 JUMP JUMPDEST SWAP2 DUP3 MSTORE JUMP JUMPDEST RETURNDATASIZE ISZERO PUSH2 0x5A3 JUMPI PUSH2 0x598 RETURNDATASIZE PUSH2 0x577 JUMP JUMPDEST SWAP1 RETURNDATASIZE PUSH1 0x0 PUSH1 0x20 DUP5 ADD RETURNDATACOPY JUMP JUMPDEST PUSH1 0x60 SWAP1 JUMP JUMPDEST ISZERO PUSH2 0x5AF JUMPI JUMP JUMPDEST PUSH1 0x40 MLOAD PUSH3 0x461BCD PUSH1 0xE5 SHL DUP2 MSTORE PUSH1 0x20 PUSH1 0x4 DUP3 ADD MSTORE PUSH1 0xF PUSH1 0x24 DUP3 ADD MSTORE PUSH15 0x151C985B9CD9995C8819985A5B1959 PUSH1 0x8A SHL PUSH1 0x44 DUP3 ADD MSTORE PUSH1 0x64 SWAP1 REVERT JUMPDEST SWAP2 SWAP3 SWAP1 SWAP3 PUSH2 0x5F3 DUP4 PUSH2 0x3F9 JUMP JUMPDEST SWAP2 PUSH2 0x5FD DUP5 PUSH2 0x3F9 JUMP JUMPDEST SWAP2 PUSH1 0x0 SWAP6 PUSH2 0x60A DUP8 PUSH2 0x402 JUMP JUMPDEST SWAP3 DUP4 JUMPDEST DUP4 DUP2 LT ISZERO PUSH2 0x808 JUMPI PUSH2 0x628 PUSH2 0x623 DUP3 DUP7 DUP7 PUSH2 0x425 JUMP JUMPDEST PUSH2 0x43A JUMP JUMPDEST SWAP1 PUSH2 0x632 DUP9 PUSH2 0x3F9 JUMP JUMPDEST SWAP6 PUSH2 0x63C PUSH1 0x40 MLOAD SWAP1 JUMP JUMPDEST PUSH4 0x31A9108F PUSH1 0xE1 SHL DUP2 MSTORE PUSH1 0x4 DUP2 ADD DUP5 SWAP1 MSTORE PUSH1 0x20 DUP2 PUSH1 0x24 DUP2 DUP12 GAS STATICCALL DUP1 ISZERO PUSH2 0x789 JUMPI PUSH2 0x679 SWAP2 PUSH1 0x0 SWAP2 PUSH2 0x7DA JUMPI JUMPDEST POP PUSH1 0x1 PUSH1 0x1 PUSH1 0xA0 SHL SUB AND CALLER EQ PUSH2 0x471 JUMP JUMPDEST PUSH2 0x682 DUP9 PUSH2 0x3F9 JUMP JUMPDEST SWAP1 PUSH1 0x20 PUSH2 0x68E PUSH1 0x40 MLOAD SWAP1 JUMP JUMPDEST PUSH4 0x8687061 PUSH1 0xE2 SHL DUP2 MSTORE SWAP3 DUP4 SWAP1 PUSH1 0x4 SWAP1 DUP3 SWAP1 GAS STATICCALL SWAP1 DUP2 ISZERO PUSH2 0x789 JUMPI PUSH2 0x6BB SWAP3 PUSH1 0x0 SWAP3 PUSH2 0x7AA JUMPI JUMPDEST POP PUSH2 0x4E6 JUMP JUMPDEST SWAP6 PUSH2 0x6C5 ADDRESS PUSH2 0x3F9 JUMP JUMPDEST DUP2 EXTCODESIZE ISZERO PUSH2 0xD1 JUMPI DUP12 DUP5 PUSH2 0x6F4 SWAP3 PUSH2 0x6DB PUSH1 0x40 MLOAD SWAP1 JUMP JUMPDEST SWAP4 DUP5 SWAP3 DUP4 SWAP3 PUSH4 0x23B872DD PUSH1 0xE0 SHL DUP5 MSTORE CALLER PUSH1 0x4 DUP6 ADD PUSH2 0x503 JUMP JUMPDEST SUB DUP2 DUP4 DUP7 GAS CALL DUP1 ISZERO PUSH2 0x789 JUMPI PUSH2 0x78E JUMPI JUMPDEST POP DUP1 EXTCODESIZE ISZERO PUSH2 0xD1 JUMPI PUSH2 0x73D DUP12 SWAP4 SWAP2 DUP5 SWAP3 PUSH2 0x71E PUSH1 0x40 MLOAD SWAP1 JUMP JUMPDEST SWAP6 DUP7 SWAP4 DUP5 SWAP3 DUP4 SWAP2 SWAP1 PUSH4 0x72424D99 PUSH1 0xE1 SHL JUMPDEST DUP4 MSTORE PUSH1 0x4 DUP4 ADD MSTORE PUSH1 0x24 DUP3 ADD SWAP1 JUMP JUMPDEST SUB SWAP3 GAS CALL SWAP2 DUP3 ISZERO PUSH2 0x789 JUMPI PUSH2 0x758 SWAP3 PUSH2 0x75D JUMPI JUMPDEST POP PUSH1 0x1 ADD SWAP1 JUMP JUMPDEST PUSH2 0x60D JUMP JUMPDEST PUSH2 0x77C SWAP1 DUP12 RETURNDATASIZE DUP14 GT PUSH2 0x782 JUMPI JUMPDEST PUSH2 0x774 DUP2 DUP4 PUSH2 0x10E JUMP JUMPDEST DUP2 ADD SWAP1 PUSH2 0x4F8 JUMP JUMPDEST CODESIZE PUSH2 0x751 JUMP JUMPDEST POP RETURNDATASIZE PUSH2 0x76A JUMP JUMPDEST PUSH2 0x465 JUMP JUMPDEST PUSH2 0x7A4 SWAP1 DUP13 DUP14 RETURNDATASIZE LT PUSH2 0x782 JUMPI PUSH2 0x774 DUP2 DUP4 PUSH2 0x10E JUMP JUMPDEST CODESIZE PUSH2 0x705 JUMP JUMPDEST PUSH2 0x7CC SWAP2 SWAP3 POP PUSH1 0x20 RETURNDATASIZE DUP2 GT PUSH2 0x7D3 JUMPI JUMPDEST PUSH2 0x7C4 DUP2 DUP4 PUSH2 0x10E JUMP JUMPDEST DUP2 ADD SWAP1 PUSH2 0x4BC JUMP JUMPDEST SWAP1 CODESIZE PUSH2 0x6B5 JUMP JUMPDEST POP RETURNDATASIZE PUSH2 0x7BA JUMP JUMPDEST PUSH2 0x7FB SWAP2 POP PUSH1 0x20 RETURNDATASIZE DUP2 GT PUSH2 0x801 JUMPI JUMPDEST PUSH2 0x7F3 DUP2 DUP4 PUSH2 0x10E JUMP JUMPDEST DUP2 ADD SWAP1 PUSH2 0x451 JUMP JUMPDEST CODESIZE PUSH2 0x668 JUMP JUMPDEST POP RETURNDATASIZE PUSH2 0x7E9 JUMP JUMPDEST POP SWAP7 SWAP5 POP SWAP1 DUP5 SWAP4 POP PUSH32 0x4F275847FC1F4B73E82A70CBABFA9E4BE6FF26E9F255681C79DA8D9E497D351F PUSH2 0x83D PUSH2 0xE3 SWAP8 PUSH2 0x3F9 JUMP JUMPDEST SWAP2 PUSH2 0x847 CALLER PUSH2 0x3F9 JUMP JUMPDEST SWAP4 PUSH2 0x85E DUP7 PUSH2 0x855 PUSH1 0x40 MLOAD SWAP1 JUMP JUMPDEST SWAP4 DUP5 SWAP4 DUP5 PUSH2 0x553 JUMP JUMPDEST SUB SWAP1 LOG3 PUSH1 0x40 MLOAD JUMPDEST PUSH1 0x0 SWAP2 CALLER GAS CALL PUSH2 0x873 PUSH2 0x589 JUMP JUMPDEST POP PUSH2 0x5A8 JUMP JUMPDEST PUSH2 0x88A PUSH2 0x885 DUP3 PUSH2 0x3F9 JUMP JUMPDEST PUSH2 0x3F9 JUMP JUMPDEST PUSH4 0x1249C58B SWAP2 PUSH2 0x8A3 PUSH2 0x89C PUSH1 0x40 MLOAD SWAP1 JUMP JUMPDEST SWAP4 PUSH1 0xE0 SHL SWAP1 JUMP JUMPDEST DUP4 MSTORE PUSH1 0x20 DUP4 PUSH1 0x4 DUP2 CALLVALUE DUP7 GAS CALL SWAP3 DUP4 ISZERO PUSH2 0x789 JUMPI PUSH1 0x0 SWAP4 PUSH2 0x979 JUMPI JUMPDEST POP PUSH2 0x8C8 ADDRESS PUSH2 0x3F9 JUMP JUMPDEST SWAP2 DUP1 EXTCODESIZE ISZERO PUSH2 0xD1 JUMPI DUP4 PUSH1 0x0 SWAP2 PUSH2 0x903 SWAP5 DUP4 PUSH2 0x8E2 PUSH1 0x40 MLOAD SWAP1 JUMP JUMPDEST DUP1 SWAP8 DUP2 SWAP6 DUP3 SWAP5 PUSH2 0x8F6 PUSH4 0x23B872DD PUSH1 0xE0 SHL SWAP1 JUMP JUMPDEST DUP5 MSTORE CALLER SWAP1 PUSH1 0x4 DUP6 ADD PUSH2 0x503 JUMP JUMPDEST SUB SWAP3 GAS CALL SWAP2 DUP3 ISZERO PUSH2 0x789 JUMPI PUSH2 0x91D SWAP3 PUSH2 0x963 JUMPI JUMPDEST POP PUSH2 0x3F9 JUMP JUMPDEST SWAP1 PUSH2 0x930 PUSH2 0x92A CALLER PUSH2 0x3F9 JUMP JUMPDEST SWAP2 PUSH2 0x402 JUMP JUMPDEST SWAP2 PUSH32 0x9D228D69B5FDB8D273A2336F8FB8612D039631024EA9BF09C424A9503AA078F0 PUSH2 0x95B PUSH1 0x40 MLOAD SWAP1 JUMP JUMPDEST DUP1 DUP1 JUMPDEST SUB SWAP1 LOG4 JUMP JUMPDEST PUSH2 0x973 SWAP1 PUSH1 0x0 PUSH2 0x774 DUP2 DUP4 PUSH2 0x10E JUMP JUMPDEST CODESIZE PUSH2 0x917 JUMP JUMPDEST PUSH2 0x993 SWAP2 SWAP4 POP PUSH1 0x20 RETURNDATASIZE PUSH1 0x20 GT PUSH2 0x7D3 JUMPI PUSH2 0x7C4 DUP2 DUP4 PUSH2 0x10E JUMP JUMPDEST SWAP2 CODESIZE PUSH2 0x8BE JUMP JUMPDEST PUSH2 0x9A3 DUP2 PUSH2 0x3F9 JUMP JUMPDEST SWAP1 PUSH2 0x9B0 PUSH2 0x885 DUP3 PUSH2 0x3F9 JUMP JUMPDEST SWAP2 PUSH1 0x20 PUSH2 0x9BC PUSH1 0x40 MLOAD SWAP1 JUMP JUMPDEST PUSH4 0x8687061 PUSH1 0xE2 SHL DUP2 MSTORE SWAP4 DUP5 SWAP1 PUSH1 0x4 SWAP1 DUP3 SWAP1 GAS STATICCALL SWAP3 DUP4 ISZERO PUSH2 0x789 JUMPI PUSH1 0x0 SWAP4 PUSH2 0xAD6 JUMPI JUMPDEST POP PUSH2 0x9E9 SWAP1 PUSH2 0x3F9 JUMP JUMPDEST SWAP2 PUSH2 0x9F3 ADDRESS PUSH2 0x3F9 JUMP JUMPDEST DUP4 EXTCODESIZE ISZERO PUSH2 0xD1 JUMPI PUSH1 0x0 DUP6 PUSH2 0xA0A SWAP3 PUSH2 0x6DB PUSH1 0x40 MLOAD SWAP1 JUMP JUMPDEST SUB DUP2 DUP4 DUP9 GAS CALL DUP1 ISZERO PUSH2 0x789 JUMPI PUSH2 0xAC0 JUMPI JUMPDEST POP DUP3 EXTCODESIZE ISZERO PUSH2 0xD1 JUMPI PUSH1 0x0 PUSH2 0xA2E PUSH1 0x40 MLOAD SWAP1 JUMP JUMPDEST PUSH4 0x72424D99 PUSH1 0xE1 SHL DUP2 MSTORE PUSH1 0x4 DUP2 ADD DUP7 SWAP1 MSTORE SWAP4 DUP5 SWAP1 PUSH1 0x24 SWAP1 DUP3 SWAP1 DUP5 SWAP1 GAS CALL SWAP3 DUP4 ISZERO PUSH2 0x789 JUMPI PUSH1 0x0 PUSH2 0x885 SWAP3 DUP2 SWAP3 PUSH2 0xA6C SWAP7 PUSH2 0xAA4 JUMPI JUMPDEST POP PUSH1 0x40 MLOAD PUSH2 0x865 JUMP JUMPDEST SWAP1 PUSH2 0xA79 PUSH2 0x92A CALLER PUSH2 0x3F9 JUMP JUMPDEST SWAP2 PUSH32 0xF3ECB4DAB83F41DA3035FF9CB3A2EF0C3027EBB89AE4E4B822D7C109E869A2FC PUSH2 0x95B PUSH1 0x40 MLOAD SWAP1 JUMP JUMPDEST PUSH2 0xABA SWAP1 DUP4 RETURNDATASIZE DUP6 GT PUSH2 0x782 JUMPI PUSH2 0x774 DUP2 DUP4 PUSH2 0x10E JUMP JUMPDEST CODESIZE PUSH2 0xA63 JUMP JUMPDEST PUSH2 0xAD0 SWAP1 PUSH1 0x0 PUSH2 0x774 DUP2 DUP4 PUSH2 0x10E JUMP JUMPDEST CODESIZE PUSH2 0xA1B JUMP JUMPDEST PUSH2 0x9E9 SWAP2 SWAP4 POP PUSH2 0xAF4 SWAP1 PUSH1 0x20 RETURNDATASIZE PUSH1 0x20 GT PUSH2 0x7D3 JUMPI PUSH2 0x7C4 DUP2 DUP4 PUSH2 0x10E JUMP JUMPDEST SWAP3 SWAP1 PUSH2 0x9DF JUMP JUMPDEST ISZERO PUSH2 0xB02 JUMPI JUMP JUMPDEST PUSH1 0x40 MLOAD PUSH3 0x461BCD PUSH1 0xE5 SHL DUP2 MSTORE PUSH1 0x20 PUSH1 0x4 DUP3 ADD MSTORE PUSH1 0x14 PUSH1 0x24 DUP3 ADD MSTORE PUSH20 0x125B9CDD59999A58DA595B9D081C185E5B595B9D PUSH1 0x62 SHL PUSH1 0x44 DUP3 ADD MSTORE PUSH1 0x64 SWAP1 REVERT JUMPDEST SWAP2 SWAP1 DUP3 SUB SWAP2 DUP3 GT PUSH2 0x4F3 JUMPI JUMP JUMPDEST ISZERO PUSH2 0xB52 JUMPI JUMP JUMPDEST PUSH1 0x40 MLOAD PUSH3 0x461BCD PUSH1 0xE5 SHL DUP2 MSTORE PUSH1 0x20 PUSH1 0x4 DUP3 ADD MSTORE PUSH1 0xD PUSH1 0x24 DUP3 ADD MSTORE PUSH13 0x1499599D5B990819985A5B1959 PUSH1 0x9A SHL PUSH1 0x44 DUP3 ADD MSTORE PUSH1 0x64 SWAP1 REVERT JUMPDEST SWAP2 SWAP1 PUSH2 0xB92 DUP4 PUSH2 0x3F9 JUMP JUMPDEST SWAP2 PUSH2 0xB9C DUP5 PUSH2 0x3F9 JUMP JUMPDEST SWAP3 PUSH1 0x0 SWAP4 PUSH2 0xBA9 DUP6 PUSH2 0x402 JUMP JUMPDEST SWAP7 DUP8 JUMPDEST DUP5 DUP10 LT ISZERO PUSH2 0xCF0 JUMPI PUSH2 0xBBD DUP4 PUSH2 0x3F9 JUMP JUMPDEST SWAP1 PUSH1 0x20 PUSH2 0xBC9 PUSH1 0x40 MLOAD SWAP1 JUMP JUMPDEST PUSH4 0x4A8FE65 PUSH1 0xE4 SHL DUP2 MSTORE SWAP3 DUP4 SWAP1 PUSH1 0x4 SWAP1 DUP3 SWAP1 GAS STATICCALL SWAP2 DUP3 ISZERO PUSH2 0x789 JUMPI PUSH1 0x0 SWAP3 PUSH2 0xCCC JUMPI JUMPDEST POP DUP2 PUSH2 0xBF7 SWAP2 PUSH2 0x4E6 JUMP JUMPDEST SWAP9 PUSH2 0xC01 DUP6 PUSH2 0x3F9 JUMP JUMPDEST SWAP2 PUSH4 0xD96A094A PUSH2 0xC15 PUSH2 0x623 DUP5 DUP11 DUP13 PUSH2 0x425 JUMP JUMPDEST DUP5 EXTCODESIZE ISZERO PUSH2 0xD1 JUMPI PUSH2 0xC3B SWAP3 PUSH2 0x72F DUP13 SWAP4 PUSH2 0xC2E PUSH1 0x40 MLOAD SWAP1 JUMP JUMPDEST SWAP6 DUP7 SWAP5 DUP6 SWAP4 DUP5 SWAP4 PUSH1 0xE0 SHL SWAP1 JUMP JUMPDEST SUB SWAP2 DUP8 GAS CALL DUP1 ISZERO PUSH2 0x789 JUMPI PUSH2 0xCB0 JUMPI JUMPDEST POP PUSH2 0xC55 ADDRESS PUSH2 0x3F9 JUMP JUMPDEST PUSH2 0xC63 PUSH2 0x623 DUP4 DUP10 DUP12 PUSH2 0x425 JUMP JUMPDEST DUP4 EXTCODESIZE ISZERO PUSH2 0xD1 JUMPI PUSH2 0xC7A SWAP4 DUP11 SWAP3 DUP4 PUSH2 0x8E2 PUSH1 0x40 MLOAD SWAP1 JUMP JUMPDEST SUB SWAP3 GAS CALL SWAP2 DUP3 ISZERO PUSH2 0x789 JUMPI PUSH2 0xC94 SWAP3 PUSH2 0xC9A JUMPI POP PUSH1 0x1 ADD SWAP1 JUMP JUMPDEST SWAP8 PUSH2 0xBAC JUMP JUMPDEST PUSH2 0x77C SWAP1 DUP10 RETURNDATASIZE DUP12 GT PUSH2 0x782 JUMPI PUSH2 0x774 DUP2 DUP4 PUSH2 0x10E JUMP JUMPDEST PUSH2 0xCC6 SWAP1 DUP10 RETURNDATASIZE DUP12 GT PUSH2 0x782 JUMPI PUSH2 0x774 DUP2 DUP4 PUSH2 0x10E JUMP JUMPDEST CODESIZE PUSH2 0xC4B JUMP JUMPDEST PUSH2 0xBF7 SWAP2 SWAP3 POP PUSH2 0xCE9 SWAP1 PUSH1 0x20 RETURNDATASIZE DUP2 GT PUSH2 0x7D3 JUMPI PUSH2 0x7C4 DUP2 DUP4 PUSH2 0x10E JUMP JUMPDEST SWAP2 SWAP1 PUSH2 0xBEC JUMP JUMPDEST SWAP5 SWAP4 SWAP3 POP SWAP7 POP POP PUSH32 0xD69574E7599E85836FC9FC7C4F2217B67BCB56DC4D97AA86E38DC6D12E13B54 PUSH2 0xD32 PUSH2 0xD53 SWAP6 SWAP7 PUSH2 0x885 PUSH2 0xD2A DUP8 SWAP1 JUMP JUMPDEST CALLVALUE LT ISZERO PUSH2 0xAFB JUMP JUMPDEST SWAP2 PUSH2 0xD3C CALLER PUSH2 0x3F9 JUMP JUMPDEST SWAP4 PUSH2 0xD4A DUP7 PUSH2 0x855 PUSH1 0x40 MLOAD SWAP1 JUMP JUMPDEST SUB SWAP1 LOG3 CALLVALUE PUSH2 0xB3E JUMP JUMPDEST SWAP1 PUSH2 0xD5D DUP2 PUSH2 0x402 JUMP JUMPDEST DUP3 GT PUSH2 0xD67 JUMPI POP POP JUMP JUMPDEST DUP1 PUSH2 0xE3 SWAP3 PUSH2 0xD75 PUSH1 0x40 MLOAD SWAP1 JUMP JUMPDEST PUSH1 0x0 SWAP2 CALLER GAS CALL PUSH2 0xD83 PUSH2 0x589 JUMP JUMPDEST POP PUSH2 0xB4B JUMP JUMPDEST ISZERO PUSH2 0xD90 JUMPI JUMP JUMPDEST PUSH1 0x40 MLOAD PUSH3 0x461BCD PUSH1 0xE5 SHL DUP2 MSTORE PUSH1 0x20 PUSH1 0x4 DUP3 ADD MSTORE PUSH1 0x29 PUSH1 0x24 DUP3 ADD MSTORE PUSH32 0x4E6F7420656E6F75676820746F6B656E7320617661696C61626C6520666F7220 PUSH1 0x44 DUP3 ADD MSTORE PUSH9 0x717569636B20627579 PUSH1 0xB8 SHL PUSH1 0x64 DUP3 ADD MSTORE PUSH1 0x84 SWAP1 REVERT JUMPDEST DUP1 ISZERO PUSH2 0x4F3 JUMPI PUSH1 0x0 NOT ADD SWAP1 JUMP JUMPDEST SWAP1 DUP2 MSTORE PUSH1 0x40 DUP2 ADD SWAP3 SWAP2 PUSH2 0xE3 SWAP2 PUSH1 0x20 ADD MSTORE JUMP JUMPDEST SWAP1 SWAP2 PUSH2 0xE12 DUP3 PUSH2 0x3F9 JUMP JUMPDEST SWAP3 PUSH2 0xE1C DUP4 PUSH2 0x3F9 JUMP JUMPDEST SWAP4 PUSH2 0xE26 DUP5 PUSH2 0x3F9 JUMP JUMPDEST PUSH1 0x0 SWAP4 PUSH2 0xE3B PUSH2 0xE35 DUP7 PUSH2 0x402 JUMP JUMPDEST SWAP8 PUSH2 0x3F9 JUMP JUMPDEST SWAP1 PUSH2 0xE45 PUSH1 0x40 MLOAD SWAP1 JUMP JUMPDEST PUSH4 0x16E6A979 PUSH1 0xE1 SHL DUP2 MSTORE SWAP5 PUSH1 0x20 DUP7 PUSH1 0x4 DUP2 DUP7 GAS STATICCALL SWAP6 DUP7 ISZERO PUSH2 0x789 JUMPI PUSH1 0x0 SWAP7 PUSH2 0x1082 JUMPI JUMPDEST POP SWAP5 SWAP8 SWAP5 PUSH2 0xE80 DUP2 DUP11 PUSH2 0xE7A JUMP JUMPDEST SWAP2 SWAP1 JUMP JUMPDEST GT PUSH2 0xD89 JUMP JUMPDEST DUP6 JUMPDEST DUP2 DUP8 LT ISZERO PUSH2 0x1027 JUMPI PUSH2 0xEB9 SWAP10 PUSH1 0x20 PUSH2 0xEA3 PUSH2 0xE9D PUSH1 0x1 PUSH2 0x402 JUMP JUMPDEST DUP4 PUSH2 0xB3E JUMP JUMPDEST PUSH1 0x40 MLOAD SWAP13 DUP14 SWAP2 DUP3 SWAP2 SWAP1 PUSH4 0xCF6A68BF PUSH1 0xE0 SHL PUSH2 0x72F JUMP JUMPDEST SUB DUP2 DUP9 GAS STATICCALL SWAP11 DUP12 ISZERO PUSH2 0x789 JUMPI PUSH1 0x0 SWAP12 PUSH2 0x1007 JUMPI JUMPDEST POP PUSH2 0xED7 DUP7 PUSH2 0x3F9 JUMP JUMPDEST SWAP2 PUSH1 0x20 PUSH2 0xEE3 PUSH1 0x40 MLOAD SWAP1 JUMP JUMPDEST PUSH4 0x4A8FE65 PUSH1 0xE4 SHL DUP2 MSTORE SWAP4 DUP5 SWAP1 PUSH1 0x4 SWAP1 DUP3 SWAP1 GAS STATICCALL SWAP3 DUP4 ISZERO PUSH2 0x789 JUMPI PUSH1 0x0 SWAP4 PUSH2 0xFE3 JUMPI JUMPDEST POP DUP3 PUSH2 0xF11 SWAP2 PUSH2 0x4E6 JUMP JUMPDEST SWAP11 PUSH2 0xF1B DUP9 PUSH2 0x3F9 JUMP JUMPDEST SWAP3 PUSH4 0xD96A094A SWAP1 DUP5 EXTCODESIZE ISZERO PUSH2 0xD1 JUMPI PUSH2 0xF41 SWAP2 DUP13 SWAP2 PUSH2 0xF38 PUSH1 0x40 MLOAD SWAP1 JUMP JUMPDEST SWAP4 DUP5 SWAP3 PUSH1 0xE0 SHL SWAP1 JUMP JUMPDEST DUP3 MSTORE PUSH1 0x4 DUP3 ADD DUP6 SWAP1 MSTORE PUSH1 0x24 SWAP1 DUP3 SWAP1 DUP9 GAS CALL DUP1 ISZERO PUSH2 0x789 JUMPI PUSH2 0xFC7 JUMPI JUMPDEST POP PUSH2 0xF67 ADDRESS PUSH2 0x3F9 JUMP JUMPDEST SWAP1 DUP4 EXTCODESIZE ISZERO PUSH2 0xD1 JUMPI PUSH2 0xF7F SWAP4 DUP12 SWAP3 DUP4 PUSH2 0x8E2 PUSH1 0x40 MLOAD SWAP1 JUMP JUMPDEST SUB SWAP3 GAS CALL SWAP1 DUP2 ISZERO PUSH2 0x789 JUMPI PUSH2 0xFA4 SWAP3 PUSH2 0xF9D SWAP3 PUSH2 0xFAB JUMPI JUMPDEST POP PUSH2 0xDE7 JUMP JUMPDEST SWAP7 PUSH1 0x1 ADD SWAP1 JUMP JUMPDEST SWAP6 SWAP9 PUSH2 0xE82 JUMP JUMPDEST PUSH2 0xFC1 SWAP1 DUP12 RETURNDATASIZE DUP14 GT PUSH2 0x782 JUMPI PUSH2 0x774 DUP2 DUP4 PUSH2 0x10E JUMP JUMPDEST CODESIZE PUSH2 0xF97 JUMP JUMPDEST PUSH2 0xFDD SWAP1 DUP12 RETURNDATASIZE DUP14 GT PUSH2 0x782 JUMPI PUSH2 0x774 DUP2 DUP4 PUSH2 0x10E JUMP JUMPDEST CODESIZE PUSH2 0xF5D JUMP JUMPDEST PUSH2 0xF11 SWAP2 SWAP4 POP PUSH2 0x1000 SWAP1 PUSH1 0x20 RETURNDATASIZE DUP2 GT PUSH2 0x7D3 JUMPI PUSH2 0x7C4 DUP2 DUP4 PUSH2 0x10E JUMP JUMPDEST SWAP3 SWAP1 PUSH2 0xF06 JUMP JUMPDEST PUSH2 0x1020 SWAP2 SWAP12 POP PUSH1 0x20 RETURNDATASIZE DUP2 GT PUSH2 0x7D3 JUMPI PUSH2 0x7C4 DUP2 DUP4 PUSH2 0x10E JUMP JUMPDEST SWAP10 CODESIZE PUSH2 0xECD JUMP JUMPDEST SWAP6 POP SWAP4 POP SWAP7 POP POP POP PUSH2 0x1041 PUSH2 0xD53 SWAP4 SWAP5 PUSH2 0x885 PUSH2 0xD2A DUP6 SWAP1 JUMP JUMPDEST PUSH32 0x4FF1827D77AB49E21C8D61595E19BAA6394B51F1FF63545CF5561C23C3C7A9D3 DUP4 PUSH2 0x106C CALLER PUSH2 0x3F9 JUMP JUMPDEST SWAP4 PUSH2 0xD4A PUSH2 0x1079 PUSH1 0x40 MLOAD SWAP1 JUMP JUMPDEST SWAP3 DUP4 SWAP3 DUP4 PUSH2 0xDF4 JUMP JUMPDEST PUSH2 0x109C SWAP2 SWAP7 POP PUSH1 0x20 RETURNDATASIZE PUSH1 0x20 GT PUSH2 0x7D3 JUMPI PUSH2 0x7C4 DUP2 DUP4 PUSH2 0x10E JUMP JUMPDEST SWAP5 CODESIZE PUSH2 0xE68 JUMP JUMPDEST SWAP1 SWAP2 PUSH2 0x10AE DUP3 PUSH2 0x3F9 JUMP JUMPDEST PUSH2 0x10B7 DUP4 PUSH2 0x3F9 JUMP JUMPDEST PUSH1 0x0 SWAP3 PUSH2 0x10C3 DUP5 PUSH2 0x402 JUMP JUMPDEST SWAP6 DUP7 JUMPDEST DUP2 DUP9 LT ISZERO PUSH2 0x11E3 JUMPI PUSH2 0x10D7 DUP5 PUSH2 0x3F9 JUMP JUMPDEST SWAP1 PUSH1 0x20 PUSH2 0x10E3 PUSH1 0x40 MLOAD SWAP1 JUMP JUMPDEST PUSH4 0x4A8FE65 PUSH1 0xE4 SHL DUP2 MSTORE SWAP3 DUP4 SWAP1 PUSH1 0x4 SWAP1 DUP3 SWAP1 GAS STATICCALL SWAP2 DUP3 ISZERO PUSH2 0x789 JUMPI PUSH1 0x0 SWAP3 PUSH2 0x11BF JUMPI JUMPDEST POP DUP2 PUSH2 0x1111 SWAP2 PUSH2 0x4E6 JUMP JUMPDEST SWAP8 PUSH2 0x1130 PUSH1 0x20 PUSH2 0x1120 DUP9 PUSH2 0x3F9 JUMP JUMPDEST SWAP4 PUSH4 0x1249C58B SWAP1 PUSH2 0xF38 PUSH1 0x40 MLOAD SWAP1 JUMP JUMPDEST DUP3 MSTORE PUSH1 0x4 SWAP1 DUP3 SWAP1 DUP8 GAS CALL SWAP1 DUP2 ISZERO PUSH2 0x789 JUMPI PUSH1 0x0 SWAP2 PUSH2 0x11A1 JUMPI JUMPDEST POP PUSH2 0x1153 ADDRESS PUSH2 0x3F9 JUMP JUMPDEST SWAP1 DUP4 EXTCODESIZE ISZERO PUSH2 0xD1 JUMPI PUSH2 0x116B SWAP4 DUP10 SWAP3 DUP4 PUSH2 0x8E2 PUSH1 0x40 MLOAD SWAP1 JUMP JUMPDEST SUB SWAP3 GAS CALL SWAP2 DUP3 ISZERO PUSH2 0x789 JUMPI PUSH2 0x1185 SWAP3 PUSH2 0x118B JUMPI POP PUSH1 0x1 ADD SWAP1 JUMP JUMPDEST SWAP7 PUSH2 0x10C6 JUMP JUMPDEST PUSH2 0x77C SWAP1 DUP9 RETURNDATASIZE DUP11 GT PUSH2 0x782 JUMPI PUSH2 0x774 DUP2 DUP4 PUSH2 0x10E JUMP JUMPDEST PUSH2 0x11B9 SWAP2 POP PUSH1 0x20 RETURNDATASIZE DUP2 GT PUSH2 0x7D3 JUMPI PUSH2 0x7C4 DUP2 DUP4 PUSH2 0x10E JUMP JUMPDEST CODESIZE PUSH2 0x1149 JUMP JUMPDEST PUSH2 0x1111 SWAP2 SWAP3 POP PUSH2 0x11DC SWAP1 PUSH1 0x20 RETURNDATASIZE DUP2 GT PUSH2 0x7D3 JUMPI PUSH2 0x7C4 DUP2 DUP4 PUSH2 0x10E JUMP JUMPDEST SWAP2 SWAP1 PUSH2 0x1106 JUMP JUMPDEST SWAP4 POP SWAP2 POP SWAP5 POP PUSH2 0x11FB PUSH2 0xD53 SWAP4 SWAP5 PUSH2 0x885 PUSH2 0xD2A DUP6 SWAP1 JUMP JUMPDEST PUSH32 0x5B7AFFBBC942CBA91DEA50B9E90A9ECDBE2801C866163786C10754F496E6D009 DUP4 PUSH2 0x106C CALLER PUSH2 0x3F9 JUMP JUMPDEST PUSH2 0x1232 PUSH2 0x885 DUP3 PUSH2 0x3F9 JUMP JUMPDEST SWAP1 PUSH4 0xD96A094A DUP3 EXTCODESIZE ISZERO PUSH2 0xD1 JUMPI PUSH2 0x1252 PUSH2 0x124B PUSH1 0x40 MLOAD SWAP1 JUMP JUMPDEST SWAP2 PUSH1 0xE0 SHL SWAP1 JUMP JUMPDEST DUP2 MSTORE PUSH1 0x4 DUP2 ADD DUP5 SWAP1 MSTORE PUSH1 0x0 DUP2 PUSH1 0x24 DUP2 CALLVALUE DUP8 GAS CALL DUP1 ISZERO PUSH2 0x789 JUMPI PUSH2 0x12E5 JUMPI JUMPDEST POP PUSH2 0x127A ADDRESS PUSH2 0x3F9 JUMP JUMPDEST SWAP2 DUP1 EXTCODESIZE ISZERO PUSH2 0xD1 JUMPI DUP4 PUSH1 0x0 SWAP2 PUSH2 0x1294 SWAP5 DUP4 PUSH2 0x8E2 PUSH1 0x40 MLOAD SWAP1 JUMP JUMPDEST SUB SWAP3 GAS CALL SWAP2 DUP3 ISZERO PUSH2 0x789 JUMPI PUSH2 0x12AD SWAP3 PUSH2 0x963 JUMPI POP PUSH2 0x3F9 JUMP JUMPDEST SWAP1 PUSH2 0x12BA PUSH2 0x92A CALLER PUSH2 0x3F9 JUMP JUMPDEST SWAP2 PUSH32 0xA553F03004CA54C18763B68C9EF162311A3C847D15F2D2E12A39CDF28E966CE PUSH2 0x95B PUSH1 0x40 MLOAD SWAP1 JUMP JUMPDEST PUSH2 0x12F5 SWAP1 PUSH1 0x0 PUSH2 0x774 DUP2 DUP4 PUSH2 0x10E JUMP JUMPDEST CODESIZE PUSH2 0x1270 JUMP JUMPDEST ISZERO PUSH2 0x1302 JUMPI JUMP JUMPDEST PUSH1 0x40 MLOAD PUSH3 0x461BCD PUSH1 0xE5 SHL DUP2 MSTORE PUSH1 0x20 PUSH1 0x4 DUP3 ADD MSTORE PUSH1 0x21 PUSH1 0x24 DUP3 ADD MSTORE PUSH32 0x4E6F20746F6B656E7320617661696C61626C6520666F7220717569636B206275 PUSH1 0x44 DUP3 ADD MSTORE PUSH1 0x79 PUSH1 0xF8 SHL PUSH1 0x64 DUP3 ADD MSTORE PUSH1 0x84 SWAP1 REVERT JUMPDEST PUSH2 0x135A DUP2 PUSH2 0x3F9 JUMP JUMPDEST SWAP1 PUSH2 0x1364 DUP2 PUSH2 0x3F9 JUMP JUMPDEST SWAP1 PUSH2 0x1377 PUSH2 0x1371 DUP3 PUSH2 0x3F9 JUMP JUMPDEST SWAP3 PUSH2 0x3F9 JUMP JUMPDEST SWAP1 PUSH4 0x2DCD52F2 SWAP3 PUSH2 0x1387 PUSH1 0x40 MLOAD SWAP1 JUMP JUMPDEST SWAP3 PUSH2 0x1392 DUP6 PUSH1 0xE0 SHL SWAP1 JUMP JUMPDEST DUP5 MSTORE PUSH1 0x20 DUP5 PUSH1 0x4 DUP2 DUP5 GAS STATICCALL SWAP4 DUP5 ISZERO PUSH2 0x789 JUMPI PUSH1 0x0 SWAP5 PUSH2 0x15F6 JUMPI JUMPDEST POP PUSH2 0x13C5 PUSH1 0x0 SWAP5 PUSH2 0x13BF PUSH2 0xE76 DUP8 PUSH2 0x402 JUMP JUMPDEST GT PUSH2 0x12FB JUMP JUMPDEST PUSH2 0x13D8 PUSH2 0x13D1 PUSH1 0x40 MLOAD SWAP1 JUMP JUMPDEST SWAP6 PUSH1 0xE0 SHL SWAP1 JUMP JUMPDEST DUP6 MSTORE PUSH1 0x20 DUP6 PUSH1 0x4 DUP2 DUP5 GAS STATICCALL SWAP1 DUP2 ISZERO PUSH2 0x789 JUMPI PUSH2 0x140D PUSH1 0x20 SWAP3 PUSH2 0x142B SWAP8 PUSH1 0x0 SWAP2 PUSH2 0x15D9 JUMPI JUMPDEST POP PUSH2 0x1407 PUSH1 0x1 PUSH2 0x402 JUMP JUMPDEST SWAP1 PUSH2 0xB3E JUMP JUMPDEST SWAP1 PUSH2 0x1417 PUSH1 0x40 MLOAD SWAP1 JUMP JUMPDEST SWAP7 DUP8 SWAP3 DUP4 SWAP2 DUP3 SWAP2 PUSH4 0xCF6A68BF PUSH1 0xE0 SHL PUSH2 0x72F JUMP JUMPDEST SUB SWAP2 GAS STATICCALL SWAP4 DUP5 ISZERO PUSH2 0x789 JUMPI PUSH1 0x0 SWAP5 PUSH2 0x15B4 JUMPI JUMPDEST POP PUSH2 0x1448 SWAP1 PUSH2 0x3F9 JUMP JUMPDEST SWAP4 PUSH1 0x20 PUSH2 0x1454 PUSH1 0x40 MLOAD SWAP1 JUMP JUMPDEST PUSH4 0x4A8FE65 PUSH1 0xE4 SHL DUP2 MSTORE SWAP6 DUP7 SWAP1 PUSH1 0x4 SWAP1 DUP3 SWAP1 GAS STATICCALL SWAP5 DUP6 ISZERO PUSH2 0x789 JUMPI PUSH1 0x0 SWAP6 PUSH2 0x158F JUMPI JUMPDEST POP PUSH2 0x1481 SWAP1 PUSH2 0x3F9 JUMP JUMPDEST SWAP2 PUSH4 0xD96A094A DUP4 EXTCODESIZE ISZERO PUSH2 0xD1 JUMPI PUSH2 0x149A PUSH2 0x124B PUSH1 0x40 MLOAD SWAP1 JUMP JUMPDEST DUP2 MSTORE PUSH1 0x4 DUP2 ADD DUP6 SWAP1 MSTORE DUP2 DUP2 PUSH1 0x24 DUP2 DUP10 DUP9 GAS CALL DUP1 ISZERO PUSH2 0x789 JUMPI PUSH2 0x1573 JUMPI JUMPDEST POP PUSH2 0x14C1 ADDRESS PUSH2 0x3F9 JUMP JUMPDEST SWAP3 DUP1 EXTCODESIZE ISZERO PUSH2 0xD1 JUMPI DUP5 DUP3 SWAP2 PUSH2 0x14EE SWAP6 DUP4 PUSH2 0x14DA PUSH1 0x40 MLOAD SWAP1 JUMP JUMPDEST DUP1 SWAP9 DUP2 SWAP6 DUP3 SWAP5 PUSH2 0x8F6 PUSH4 0x23B872DD PUSH1 0xE0 SHL SWAP1 JUMP JUMPDEST SUB SWAP3 GAS CALL SWAP3 DUP4 ISZERO PUSH2 0x789 JUMPI PUSH2 0x1509 SWAP4 PUSH2 0x1556 JUMPI JUMPDEST POP POP PUSH2 0x3F9 JUMP JUMPDEST PUSH32 0xCD02DEC8B4899A0B071B135C1C28F8B9F04C32C5C71C7EF2562287F8B2386601 PUSH2 0x95E PUSH2 0x153F PUSH2 0x1539 CALLER PUSH2 0x3F9 JUMP JUMPDEST SWAP5 PUSH2 0x402 JUMP JUMPDEST SWAP5 PUSH2 0x1549 PUSH1 0x40 MLOAD SWAP1 JUMP JUMPDEST SWAP2 DUP3 SWAP2 DUP3 SWAP1 DUP2 MSTORE PUSH1 0x20 ADD SWAP1 JUMP JUMPDEST DUP2 PUSH2 0x156C SWAP3 SWAP1 RETURNDATASIZE LT PUSH2 0x782 JUMPI PUSH2 0x774 DUP2 DUP4 PUSH2 0x10E JUMP JUMPDEST CODESIZE DUP1 PUSH2 0x1502 JUMP JUMPDEST PUSH2 0x1589 SWAP1 DUP3 RETURNDATASIZE DUP5 GT PUSH2 0x782 JUMPI PUSH2 0x774 DUP2 DUP4 PUSH2 0x10E JUMP JUMPDEST CODESIZE PUSH2 0x14B7 JUMP JUMPDEST PUSH2 0x1481 SWAP2 SWAP6 POP PUSH2 0x15AD SWAP1 PUSH1 0x20 RETURNDATASIZE PUSH1 0x20 GT PUSH2 0x7D3 JUMPI PUSH2 0x7C4 DUP2 DUP4 PUSH2 0x10E JUMP JUMPDEST SWAP5 SWAP1 PUSH2 0x1477 JUMP JUMPDEST PUSH2 0x1448 SWAP2 SWAP5 POP PUSH2 0x15D2 SWAP1 PUSH1 0x20 RETURNDATASIZE PUSH1 0x20 GT PUSH2 0x7D3 JUMPI PUSH2 0x7C4 DUP2 DUP4 PUSH2 0x10E JUMP JUMPDEST SWAP4 SWAP1 PUSH2 0x143E JUMP JUMPDEST PUSH2 0x15F0 SWAP2 POP DUP5 RETURNDATASIZE DUP7 GT PUSH2 0x7D3 JUMPI PUSH2 0x7C4 DUP2 DUP4 PUSH2 0x10E JUMP JUMPDEST CODESIZE PUSH2 0x13FC JUMP JUMPDEST PUSH2 0x1610 SWAP2 SWAP5 POP PUSH1 0x20 RETURNDATASIZE PUSH1 0x20 GT PUSH2 0x7D3 JUMPI PUSH2 0x7C4 DUP2 DUP4 PUSH2 0x10E JUMP JUMPDEST SWAP3 CODESIZE PUSH2 0x13AC JUMP INVALID LOG2 PUSH5 0x6970667358 0x22 SLT KECCAK256 SWAP9 0xD0 DUP7 0xE2 0xC4 SGT 0xC0 PUSH29 0xD6A60D81CE75F5BF6881E3E2119FE3B7ECB0C24D62F4E6064736F6C63 NUMBER STOP ADDMOD SHR STOP CALLER "},"methodIdentifiers":{"bulkBuy(address,uint256[])":"99bd4737","bulkMint(address,uint256)":"a8c90cb2","bulkQuickBuy(address,uint256)":"9cb3ecd0","bulkSell(address,uint256[])":"40f3620a","buy(address,uint256)":"cce7ec13","mint(address)":"6a627842","onERC721Received(address,address,uint256,bytes)":"150b7a02","quickBuy(address)":"d17dbbc0","sell(address,uint256)":"6c197ff5"}}}}}