{"src/core/Factory.sol":{"Factory":{"abi":[{"inputs":[{"internalType":"address","name":"_registry","type":"address"}],"stateMutability":"nonpayable","type":"constructor"},{"anonymous":false,"inputs":[{"indexed":true,"internalType":"address","name":"creator","type":"address"},{"indexed":true,"internalType":"address","name":"flipAddress","type":"address"}],"name":"FLIPCreated","type":"event"},{"inputs":[{"internalType":"string","name":"_name","type":"string"},{"internalType":"string","name":"_symbol","type":"string"},{"internalType":"uint256","name":"_initialPrice","type":"uint256"},{"internalType":"uint256","name":"_maxSupply","type":"uint256"},{"internalType":"uint256","name":"_creatorFeePercent","type":"uint256"}],"name":"calculateFLIPAddress","outputs":[{"internalType":"address","name":"","type":"address"}],"stateMutability":"view","type":"function"},{"inputs":[{"internalType":"string","name":"_name","type":"string"},{"internalType":"string","name":"_symbol","type":"string"},{"internalType":"uint256","name":"_initialPrice","type":"uint256"},{"internalType":"uint256","name":"_maxSupply","type":"uint256"},{"internalType":"uint256","name":"_creatorFeePercent","type":"uint256"},{"internalType":"string","name":"_imageUrl","type":"string"},{"internalType":"string","name":"_description","type":"string"}],"name":"createFLIP","outputs":[{"internalType":"address","name":"","type":"address"}],"stateMutability":"nonpayable","type":"function"},{"inputs":[],"name":"registry","outputs":[{"internalType":"contract Registry","name":"","type":"address"}],"stateMutability":"view","type":"function"}],"evm":{"bytecode":{"linkReferences":{},"object":"60806040523461002a576100196100146100c2565b610136565b604051613ad961014a8239613ad990f35b600080fd5b634e487b7160e01b600052604160045260246000fd5b90601f01601f191681019081106001600160401b0382111761006657604052565b61002f565b9061007f61007860405190565b9283610045565b565b6001600160a01b031690565b90565b6001600160a01b0381160361002a57565b9050519061007f82610090565b9060208282031261002a5761008d916100a1565b61008d613c23803803806100d58161006b565b9283398101906100ae565b61008d90610081906001600160a01b031682565b61008d906100e0565b61008d906100f4565b9061011661008d610132926100fd565b82546001600160a01b0319166001600160a01b03919091161790565b9055565b61014261007f916100fd565b600061010656fe6080604052600436101561001257600080fd5b60003560e01c8063630ef1b1146100425780636c20c1f31461003d57637b103999036100f657610337565b6102a1565b6101b1565b634e487b7160e01b600052604160045260246000fd5b90601f01601f1916810190811067ffffffffffffffff82111761007f57604052565b610047565b9061009861009160405190565b928361005d565b565b67ffffffffffffffff811161007f57602090601f01601f19160190565b0190565b90826000939282370152565b909291926100dc6100d78261009a565b610084565b93818552818301116100f6576100989160208501906100bb565b600080fd5b9080601f830112156100f657816020610116933591016100c7565b90565b805b036100f657565b9050359061009882610119565b919060a0838203126100f657823567ffffffffffffffff81116100f657816101589185016100fb565b92602081013567ffffffffffffffff81116100f657826101799183016100fb565b9261011661018a8460408501610122565b93608061019a8260608701610122565b9401610122565b6001600160a01b031690565b9052565b346100f6576101ea6101d06101c736600461012f565b9392909261049a565b604051918291826001600160a01b03909116815260200190565b0390f35b9060e0828203126100f657813567ffffffffffffffff81116100f657816102169184016100fb565b92602083013567ffffffffffffffff81116100f657826102379185016100fb565b926102458360408301610122565b926102538160608401610122565b926102618260808501610122565b9260a081013567ffffffffffffffff81116100f657836102829183016100fb565b9260c082013567ffffffffffffffff81116100f65761011692016100fb565b346100f6576101ea6101d06102b73660046101ee565b9594909493919361064c565b60009103126100f657565b610116916008021c6001600160a01b031690565b9061011691546102ce565b6101166000806102e2565b610116906101a1906001600160a01b031682565b610116906102f8565b6101169061030c565b6101ad90610315565b602081019291610098919061031e565b346100f6576103473660046102c3565b6101ea6103526102ed565b60405191829182610327565b60005b8381106103715750506000910152565b8181015183820152602001610361565b6103a26103ab6020936100b793610396815190565b80835293849260200190565b9586910161035e565b601f01601f191690565b90610098946103f66103ee6080956103e06103fd959b9a989b60a088019088820360008a0152610381565b908682036020880152610381565b986040850152565b6060830152565b0152565b61041461040e6101169290565b60f81b90565b6001600160f81b03191690565b6100b761043992602092610433815190565b94859290565b9384910161035e565b610450906101169392610421565b90610421565b6101ad906001600160a01b031660601b90565b018092610456565b01918252565b6101166101166101169290565b61011690610477565b6101a16101166101169290565b6105a39261050a6105a89593610592936104d3610116996104b9600090565b506040516104df81602081016104d3858d8c8b8b866103b5565b9081038252038261005d565b6104f16104ea825190565b9160200190565b20976104fc60405190565b9687956020870195866103b5565b61051460ff610401565b6104d36104d361055361052630610315565b9461315661053660208201610084565b9080825261094e6020830139604051938492602084019283610442565b61055e6104ea825190565b206040519586946020860194859261047160146100b79461047160018861046960209b9a8c996001600160f81b0319169052565b61059d6104ea825190565b20610484565b61048d565b61030c565b6040513d6000823e3d90fd5b602080825261011692910190610381565b6001600160a01b03811661011b565b90505190610098826105ca565b906020828203126100f657610116916105d9565b1561060157565b60405162461bcd60e51b815260206004820152601060248201526f086e4cac2e8dee440dad2e6dac2e8c6d60831b6044820152606490fd5b610116906101a1565b6101169054610639565b91929395949561065a600090565b5060405161067481602081016104d3858a8a898b866103b5565b61067f6104ea825190565b209461068a60405190565b9461315686019386851067ffffffffffffffff86111761007f5786956106b79561315661094e89396103b5565b03906000f58015610829578251926000936106d86106d486610477565b9190565b116108ec575b5081516106ed6106d485610477565b11610879575b6106fd9150610315565b90813b156100f6576040516307ea2c0360e31b8152336004820152818160248183875af180156108295761085d575b506040516302d05d3f60e01b8152602081600481865afa8015610829576107669160009161082e575b506001600160a01b031633146105fa565b61076f33610315565b61077883610315565b907f3f8c7c6b55aa10c3609441aa7c581178c1692e17d2ff5c1a3a809fd700ba43876107a360405190565b600090a36107b86107b382610642565b610315565b803b156100f657816107c960405190565b632a99dcd560e21b81523360048201526001600160a01b0385166024820152918290604490829084905af180156108295761080357505090565b8161011692903d10610822575b61081a818361005d565b8101906102c3565b503d610810565b6105ad565b610850915060203d602011610856575b610848818361005d565b8101906105e6565b38610755565b503d61083e565b61087390823d84116108225761081a818361005d565b3861072c565b61088281610315565b803b156100f6576108b6849391849261089a60405190565b95869384928391906390c3f38f60e01b5b8352600483016105b9565b03925af1918215610829576106fd926108d0575b506106f3565b6108e690843d86116108225761081a818361005d565b386108ca565b6108f582610315565b803b156100f657610922859291839261090d60405190565b94859384928391906355f804b360e01b6108ab565b03925af1801561082957156106de5761094790843d86116108225761081a818361005d565b386106de56fe60806040523461002e5761001d610014610171565b93929092610196565b604051612c066105508239612c0690f35b600080fd5b634e487b7160e01b600052604160045260246000fd5b90601f01601f191681019081106001600160401b0382111761006a57604052565b610033565b9061008361007c60405190565b9283610049565b565b6001600160401b03811161006a57602090601f01601f19160190565b60005b8381106100b45750506000910152565b81810151838201526020016100a4565b909291926100d96100d482610085565b61006f565b938185528183011161002e576100839160208501906100a1565b9080601f8301121561002e57815161010d926020016100c4565b90565b919060a08382031261002e5782516001600160401b03811161002e57816101389185016100f3565b60208401519093906001600160401b03811161002e578261015a9183016100f3565b604082015160608301516080909301519194909350565b61018f613156803803806101848161006f565b928339810190610110565b9091929394565b610083948594859433929190610237565b90600019905b9181191691161790565b61010d61010d61010d9290565b906101d461010d6101db926101b7565b82546101a7565b9055565b906001600160a01b03906101ad565b61010d90610202906001600160a01b031682565b6001600160a01b031690565b61010d906101ee565b61010d9061020e565b9061023061010d6101db92610217565b82546101df565b61024d6102629661025493949661025b9661026d565b600b6101c4565b600c6101c4565b600d6101c4565b61008333600e610220565b9061008392916102ab565b61020261010d61010d9290565b61010d90610278565b61029790610202565b9052565b602081019291610083919061028e565b916102b5916102ff565b60006102c081610285565b6102c981610202565b6102d284610202565b146102e2575050610083906104f8565b631e4fbdf760e01b825281906102fb906004830161029b565b0390fd5b610083918291829182916104cf565b634e487b7160e01b600052602260045260246000fd5b9060016002830492168015610344575b602083101461033f57565b61030e565b91607f1691610334565b9160001960089290920291821b911b6101ad565b919061037361010d6101db936101b7565b90835461034e565b61008391600091610362565b818110610392575050565b806103a0600060019361037b565b01610387565b9190601f81116103b557505050565b6103c761008393600052602060002090565b906020601f8401819004830193106103e9575b6020601f909101040190610387565b90915081906103da565b906103fc815190565b906001600160401b03821161006a5761041f826104198554610324565b856103a6565b602090601f831160011461045a576101db92916000918361044f575b5050600019600883021c1916906002021790565b01519050388061043b565b601f1983169161046f85600052602060002090565b9260005b8181106104ad57509160029391856001969410610494575b50505002019055565b01516000196008601f8516021c1916905538808061048b565b91936020600181928787015181550195019201610473565b90610083916103f3565b906104de6100839260006104c5565b60016104c5565b61010d90610202565b61010d90546104e5565b61051e610518610508600a6104ee565b61051384600a610220565b610217565b91610217565b907f8be0079c531659141344cd1fd0a4f28419497f9722a3daafe3b4186f6b6457e061054960405190565b600090a356fe6080604052600436101561001257600080fd5b60003560e01c8063018a25e8146102e257806301ffc9a7146102dd57806302d05d3f146102d85780630583e9f8146102d357806306fdde03146102ce578063081812fc146102c9578063095ea7b3146102c45780631249c58b146102bf57806312ea5c7e146102ba578063150b7a02146102b557806318160ddd146102b05780631d0806ae146102ab57806321a1c184146102a657806323b872dd146102a15780632dcd52f21461029c5780632f745c59146102975780633f5160181461029257806342842e0e1461028d57806343d32e9c146102885780634a8fe650146102835780634f6ccce71461027e57806353613dd31461027957806355f804b3146102745780635eba096b1461026f5780636352211e1461026a5780636c0360eb1461026557806370a0823114610260578063715018a61461025b5780637284e41614610256578063771282f6146102515780638da5cb5b1461024c57806390c3f38f1461024757806395d89b4114610242578063a22cb4651461023d578063ad64d06814610238578063ae10426514610233578063b88d4fde1461022e578063c87b56dd14610229578063cf6a68bf14610224578063d5abeb011461021f578063d96a094a1461021a578063e4849b3214610215578063e985e9c514610210578063f0f2805f1461020b5763f2fde38b036102f257610d9e565b610d83565b610d67565b610d2c565b610d19565b610cfe565b610cd7565b610cbc565b610ca0565b610c85565b610c6a565b610bf5565b610ba2565b610b8a565b610b6f565b610b54565b610b2d565b610b09565b610aee565b610ad3565b610991565b610975565b610941565b610900565b6108d9565b6108be565b6108a3565b61088a565b610872565b610842565b610826565b61080d565b6107c9565b6107ae565b610786565b61074c565b610611565b610594565b610576565b610522565b6104fb565b610474565b6103d6565b610363565b6102fd565b60009103126102f257565b600080fd5b9052565b565b346102f25761030d3660046102e7565b610328610318610dc7565b6040519182918290815260200190565b0390f35b6001600160e01b031981165b036102f257565b905035906102fb8261032c565b906020828203126102f2576103609161033f565b90565b346102f25761032861037e61037936600461034c565b610dd4565b6040515b91829182901515815260200190565b610360916008021c5b6001600160a01b031690565b906103609154610391565b6103606000600e6103a6565b6102f79061039a565b6020810192916102fb91906103bd565b346102f2576103e63660046102e7565b6103286103f16103b1565b604051918291826103c6565b80610338565b905035906102fb826103fd565b906020828203126102f25761036091610403565b6103606103606103609290565b9061043b90610424565b600052602052604060002090565b610360916008021c81565b906103609154610449565b600061046f610360926011610431565b610454565b346102f25761032861031861048a366004610410565b61045f565b60005b8381106104a25750506000910152565b8181015183820152602001610492565b6104d36104dc6020936104e6936104c7815190565b80835293849260200190565b9586910161048f565b601f01601f191690565b0190565b6020808252610360929101906104b2565b346102f25761050b3660046102e7565b610328610516610e11565b604051918291826104ea565b346102f2576103286103f1610538366004610410565b610e1b565b6103388161039a565b905035906102fb8261053d565b91906040838203126102f25761036090602061056f8286610546565b9401610403565b346102f25761058f610589366004610553565b90610e2e565b604051005b61059f3660046102e7565b610328610318611026565b906105ca6105c36105b9845190565b8084529260200190565b9260200190565b9060005b8181106105db5750505090565b9091926105f86105f16001928651815260200190565b9460200190565b9291016105ce565b6020808252610360929101906105aa565b346102f2576106213660046102e7565b61032861062c6111e1565b60405191829182610600565b634e487b7160e01b600052604160045260246000fd5b90601f01601f1916810190811067ffffffffffffffff82111761067057604052565b610638565b906102fb61068260405190565b928361064e565b67ffffffffffffffff811161067057602090601f01601f19160190565b90826000939282370152565b909291926106c76106c282610689565b610675565b93818552818301116102f2576102fb9160208501906106a6565b9080601f830112156102f257816020610360933591016106b2565b906080828203126102f2576107118183610546565b9261071f8260208501610546565b9261072d8360408301610403565b92606082013567ffffffffffffffff81116102f25761036092016106e1565b346102f25761032861076b6107623660046106fc565b92919091611211565b604051918291826001600160e01b0319909116815260200190565b346102f2576107963660046102e7565b61032861031860085490565b6103606000600b610454565b346102f2576107be3660046102e7565b6103286103186107a2565b346102f2576107d93660046102e7565b610328610318611238565b90916060828403126102f2576103606107fd8484610546565b93604061056f8260208701610546565b346102f25761058f6108203660046107e4565b916112a3565b346102f2576108363660046102e7565b61032861031860105490565b346102f257610328610318610858366004610553565b9061134c565b906020828203126102f25761036091610546565b346102f25761058f61088536600461085e565b61144f565b346102f25761058f61089d3660046107e4565b9161146a565b346102f2576108b33660046102e7565b61032861031861147e565b346102f2576108ce3660046102e7565b6103286103186114c2565b346102f2576103286103186108ef366004610410565b6114dd565b6103606000600d610454565b346102f2576109103660046102e7565b6103286103186108f4565b906020828203126102f257813567ffffffffffffffff81116102f25761036092016106e1565b346102f25761058f61095436600461091b565b6116c9565b91906040838203126102f25761036090602061056f8286610403565b346102f25761032861062c61098b366004610959565b90611785565b346102f2576103286103f16109a7366004610410565b611814565b634e487b7160e01b600052600060045260246000fd5b634e487b7160e01b600052602260045260246000fd5b90600160028304921680156109f8575b60208310146109f357565b6109c2565b91607f16916109e8565b80546000939291610a1f610a15836109d8565b8085529360200190565b9160018116908115610a715750600114610a3857505050565b610a4b9192939450600052602060002090565b916000925b818410610a5d5750500190565b805484840152602090930192600101610a50565b92949550505060ff1916825215156020020190565b9061036091610a02565b906102fb610aaa92610aa160405190565b93848092610a86565b038361064e565b90600010610ac25761036090610a90565b6109ac565b61036060006012610ab1565b346102f257610ae33660046102e7565b610328610516610ac7565b346102f257610328610318610b0436600461085e565b61181d565b346102f257610b193660046102e7565b61058f611885565b61036060006013610ab1565b346102f257610b3d3660046102e7565b610328610516610b21565b6103606000600f610454565b346102f257610b643660046102e7565b610328610318610b48565b346102f257610b7f3660046102e7565b6103286103f161188d565b346102f25761058f610b9d36600461091b565b6118b6565b346102f257610bb23660046102e7565b6103286105166118bf565b801515610338565b905035906102fb82610bbd565b91906040838203126102f257610360906020610bee8286610546565b9401610bc5565b346102f25761058f610c08366004610bd2565b906118c9565b634e487b7160e01b600052603260045260246000fd5b8054821015610c4757610c3e600191600052602060002090565b91020190600090565b610c0e565b6010548110156102f257610c64610360916010610c24565b90610454565b346102f257610328610318610c80366004610410565b610c4c565b346102f257610328610318610c9b366004610410565b6118d4565b346102f25761058f610cb33660046106fc565b92919091611965565b346102f257610328610516610cd2366004610410565b61197c565b346102f257610328610318610ced366004610410565b611987565b6103606000600c610454565b346102f257610d0e3660046102e7565b610328610318610cf2565b61058f610d27366004610410565b611aaf565b346102f25761058f610d3f366004610410565b611cbb565b91906040838203126102f257610360906020610d608286610546565b9401610546565b346102f25761032861037e610d7d366004610d44565b90611cd9565b346102f25761032861037e610d99366004610410565b611cfe565b346102f25761058f610db136600461085e565b611d68565b6103609081565b6103609054610db6565b610360610c9b600f610dbd565b610ddd81611d71565b908115610de8575090565b9050610e04632fa757f360e01b5b916001600160e01b03191690565b1490565b61036090610a90565b6103606000610e08565b61036090610e2881611d7a565b50611dba565b6102fb913391611dd6565b15610e4057565b60405162461bcd60e51b815260206004820152601260248201527113585e081cdd5c1c1b1e481c995858da195960721b604482015280606481015b0390fd5b634e487b7160e01b600052601160045260246000fd5b81810292918115918404141715610ea857565b610e7f565b634e487b7160e01b600052601260045260246000fd5b90610ecd565b9190565b908115610ed8570490565b610ead565b91908201809211610ea857565b15610ef157565b60405162461bcd60e51b8152602060048201526014602482015273125b9cdd59999a58da595b9d081c185e5b595b9d60621b6044820152606490fd5b6000198114610ea85760010190565b90600019905b9181191691161790565b90610f5c610360610f6392610424565b8254610f3c565b9055565b6103609061039a906001600160a01b031682565b61036090610f67565b61036090610f7b565b9081526040810192916102fb9160200152565b0152565b6103609061039a565b6103609054610fa4565b90610fc46106c283610689565b918252565b3d15610fe357610fd83d610fb7565b903d6000602084013e565b606090565b15610fef57565b60405162461bcd60e51b815260206004820152600f60248201526e151c985b9cd9995c8819985a5b1959608a1b6044820152606490fd5b61104861103260085490565b611042610ec9610360600c610dbd565b10610e39565b611050610dc7565b61036061115761108361106c611066600d610dbd565b85610e95565b61107d670de0b6b3a7640000610424565b90610ec3565b61109b6110936103608387610edd565b341015610eea565b6110b76110a760085490565b6110b16001610424565b90610edd565b936110c28533611de3565b6110de6110d76110d2600f610dbd565b610f2d565b600f610f4c565b6110e733610f84565b6110f086610424565b907f10546b1a6f5245ff0ffa18c256b9e46859c585cbb473b453fcd4c2dc39ae08db61111b60405190565b80611127878783610f8d565b0390a361115260008061113a600e610fad565b60405160009187905af161114c610fc9565b50610fe8565b610edd565b611e31565b9061117761116b6105b9845490565b92600052602060002090565b9060005b8181106111885750505090565b9091926111ac6111a560019261119d87610dbd565b815260200190565b9460010190565b92910161117b565b906103609161115c565b906102fb610aaa926111cf60405190565b938480926111b4565b610360906111be565b61036060106111d8565b6112046111fe6103609263ffffffff1690565b60e01b90565b6001600160e01b03191690565b5050505061121d600090565b5061036063150b7a026111eb565b91908203918211610ea857565b61036061124361147e565b61125961106c611253600d610dbd565b83610e95565b9061122b565b61039a6103606103609290565b6103609061125f565b60409061129c6102fb9496959396611295606084019860008501906103bd565b6020830152565b01906103bd565b90916000926112b18461126c565b6112ba8161039a565b6112c38361039a565b1461130e57506112d590823391611e7b565b916112df8161039a565b6112e88461039a565b036112f35750505050565b6364283d7b60e01b84528392610e7b92909160048501611275565b84610e7b8192633250574960e11b8352600483016103c6565b9160206102fb929493610fa0604082019660008301906103bd565b9061043b90610f84565b6113586103608261181d565b82101561137b5761036091611371611376926006611342565b610431565b610dbd565b63295f44f760e21b600090815291611394916004611327565b036000fd5b156113a057565b60405162461bcd60e51b815260206004820152602360248201527f4f6e6c792063726561746f722063616e2063616c6c20746869732066756e637460448201526234b7b760e91b6064820152608490fd5b6102fb9061141961140a611405600e610fad565b61039a565b6114133361039a565b14611399565b611444565b906001600160a01b0390610f42565b9061143d610360610f6392610f84565b825461141e565b6102fb90600e61142d565b6102fb906113f1565b6103606000610fb7565b610360611458565b90916102fb92611478611462565b92611965565b611488600f610dbd565b611495610ec96000610424565b11156114b557610360610c9b6114ab600f610dbd565b6112596001610424565b610360610c9b6000610424565b6103606114cd610dc7565b6110b161106c611253600d610dbd565b6114e961036060085490565b8110156114fe57610c64610360916008610c24565b610e7b9060009182916115108361126c565b63295f44f760e21b845260048401611327565b6102fb9061153761140a611405600e610fad565b6116be565b9160001960089290920291821b911b610f42565b9190611561610360610f6393610424565b90835461153c565b6102fb91600091611550565b818110611580575050565b8061158e6000600193611569565b01611575565b9190601f81116115a357505050565b6115b56102fb93600052602060002090565b906020601f8401819004830193106115d7575b6020601f909101040190611575565b90915081906115c8565b906115ea815190565b9067ffffffffffffffff82116106705761160e8261160885546109d8565b85611594565b602090601f831160011461164957610f6392916000918361163e575b5050600019600883021c1916906002021790565b01519050388061162a565b601f1983169161165e85600052602060002090565b9260005b81811061169c57509160029391856001969410611683575b50505002019055565b01516000196008601f8516021c1916905538808061167a565b91936020600181928787015181550195019201611662565b906102fb916115e1565b6102fb9060126116b4565b6102fb90611523565b156116d957565b60405162461bcd60e51b815260206004820152601960248201527f537461727420696e646578206f7574206f6620626f756e6473000000000000006044820152606490fd5b67ffffffffffffffff81116106705760208091020190565b90610fc46106c28361171e565b369037565b906102fb61175e61175884611736565b9361171e565b601f190160208401611743565b90611774825190565b811015610c47576020809102010190565b916117b26117aa6010936117a461179d610360875490565b87106116d2565b85610edd565b835490611e86565b916117c56117c0858561122b565b611748565b91845b845b81101561180b57611804816117fe6117e8610c646117ca9588610c24565b6117fb6117f58b8561122b565b8961176b565b52565b60010190565b90506117c8565b50935050905090565b61036090611d7a565b60006118288161126c565b6118318161039a565b61183a8461039a565b1461184f575050611376610360916003611342565b6322718ad960e21b82528190610e7b90600483016103c6565b611870611e98565b6102fb6102fb611880600061126c565b611ecf565b6102fb611868565b610360600a610fad565b6102fb906118ab61140a611405600e610fad565b6102fb9060136116b4565b6102fb90611897565b6103606001610e08565b6102fb919033611f48565b6118de6000610424565b811461195a57610360906110b16118f5600b610dbd565b9161191c61194561193b61193b61194a611922611912600b610dbd565b61191c6002610424565b90610e95565b61191c61194561193b896119366064610424565b610e95565b61107d600c610dbd565b61200c565b9461193681611936612710610424565b50610360600b610dbd565b906102fb9392916119778383836112a3565b612166565b506103606012610e08565b610c6461036091611996600090565b506010610c24565b156119a557565b60405162461bcd60e51b815260206004820152601f60248201527f546f6b656e206973206e6f7420617661696c61626c6520666f722073616c65006044820152606490fd5b6102fb90611a156119fa82611814565b611a0f611a0961140530610f84565b9161039a565b1461199e565b6111576102fb91611a24610dc7565b611a3461106c611253600d610dbd565b91611a456110936103608585610edd565b611a5981611a5230610f84565b3390612283565b611a6281612346565b611a726110d76110d2600f610dbd565b611a84611a7e33610f84565b91610424565b907f884543c08d36fb5c9b3b688dd0453c9f287199124bdbddb3b7f9ca885a4d34a061111b60405190565b6102fb906119ea565b15611abf57565b60405162461bcd60e51b815260206004820152601360248201527221b0b63632b91034b9903737ba1037bbb732b960691b6044820152606490fd5b6102fb90611b1c611b0a82611814565b611b16611a093361039a565b14611ab8565b611bc6565b8015610ea8576000190190565b15611b3557565b60405162461bcd60e51b815260206004820152601960248201527f5472616e7366657220746f2073656c6c6572206661696c6564000000000000006044820152606490fd5b15611b8157565b60405162461bcd60e51b815260206004820152601a60248201527f5472616e7366657220746f2063726561746f72206661696c65640000000000006044820152606490fd5b6000806102fb92611c928280611bda61147e565b93611c7a611bf461106c611bee600d610dbd565b88610e95565b8096611bfd3390565b93611c1181611c0b30610f84565b87612283565b611c1a816123d5565b611c2f6110d7611c2a600f610dbd565b611b21565b611c3b611a7e86610f84565b907f8323bebb324b6e1a1d4886a1f210640461bb275263dae69967f001d053ab0b2b611c6660405190565b80611c72878783610f8d565b0390a361122b565b60405190818003925af1611c8c610fc9565b50611b2e565b611c9c600e610fad565b90611ca660405190565b90818003925af1611cb5610fc9565b50611b7a565b6102fb90611afa565b610360905b60ff1690565b6103609054611cc4565b61036091611cf4611cf992611cec600090565b506005611342565b611342565b611ccf565b611d0790611814565b610e04611a0961140530610f84565b6102fb90611d22611e98565b6000611d2d8161126c565b611d368161039a565b611d3f8461039a565b14611d4f5750506102fb90611ecf565b631e4fbdf760e01b82528190610e7b90600483016103c6565b6102fb90611d16565b610360906123fb565b611d8381612424565b90600090611d936114058361126c565b611d9c8461039a565b14611da657505090565b637e27328960e01b82526004820152602490fd5b611dd161036091611dc9600090565b506004610431565b610fad565b916001916102fb9361243b565b6102fb91611def611462565b91612567565b15611dfc57565b60405162461bcd60e51b815260206004820152600d60248201526c1499599d5b990819985a5b1959609a1b6044820152606490fd5b611e3b903461122b565b611e456000610424565b8111611e4e5750565b6000806102fb92611e5c3390565b90611e6660405190565b90818003925af1611e75610fc9565b50611df5565b610360929190612581565b9080821015611e93575090565b905090565b611ea061188d565b3390611eae611a098361039a565b03611eb65750565b63118cdaa760e01b6000908152906113949060046103c6565b611ef5611eef611edf600a610fad565b611eea84600a61142d565b610f84565b91610f84565b907f8be0079c531659141344cd1fd0a4f28419497f9722a3daafe3b4186f6b6457e0611f2060405190565b80805b0390a3565b9060ff90610f42565b90611f41610360610f6392151590565b8254611f28565b6000611f566114058261126c565b611f5f8461039a565b14611fb85750611f23611fae611fa883611eea87611fa388611cf47f17307eab39ab6107e8899845ad3d59bd9653f200f220920489ca2b5937696c31996005611342565b611f31565b93610f84565b9361038260405190565b630b61174360e31b815280610e7b84600483016103c6565b611cc96103606103609290565b61036090611ff1610ec96103609460ff1690565b901c90565b61036090612007610ec96103609490565b901b90565b6120166000610424565b81146120fc5760016120278261261a565b61203082611fd0565b808080808096612041828098611fdd565b9061204b90610424565b9061205591611ff6565b61205f818a610ec3565b019061206a91611fdd565b6120748189610ec3565b019061207f91611fdd565b6120898188610ec3565b019061209491611fdd565b61209e8187610ec3565b01906120a991611fdd565b6120b38186610ec3565b01906120be91611fdd565b6120c88185610ec3565b01906120d391611fdd565b6120dd8184610ec3565b01906120e891611fdd565b90816120f391610ec3565b61036091611e86565b506103606000610424565b905051906102fb8261032c565b906020828203126102f25761036091612107565b9092612159906121526103609694612148608086019760008701906103bd565b60208501906103bd565b6040830152565b60608184039101526104b2565b6000939192833b612179610ec987610424565b11612186575b5050505050565b602091612195611eea86610f84565b9086336121be6121a460405190565b97889687958694630a85bd0160e11b865260048601612128565b03925af160009181612252575b5061221d57506121e0565b388080808061217f565b6121e8610fc9565b80516121f6610ec985610424565b036122155750633250574960e11b82528190610e7b90600483016103c6565b805190602001fd5b61222d630a85bd0160e11b610df6565b036122395750506121d6565b633250574960e11b82528190610e7b90600483016103c6565b61227591925060203d60201161227c575b61226d818361064e565b810190612114565b90386121cb565b503d612263565b9192906000926122928461126c565b9161229c8361039a565b6122a58261039a565b146122ef576122b883876122be93611e7b565b9261039a565b6122c78361039a565b036122e257637e27328960e01b845260048401859052602484fd5b6112df819592939561039a565b633250574960e11b85528480610e7b85600483016103c6565b634e487b7160e01b600052603160045260246000fd5b8054801561234157600019019061233e6123388383610c24565b90611569565b55565b612308565b60006123a86102fb9260116113716123a36123646113768585610431565b61036060109161239e612384610c6461237e6114ab875490565b86610c24565b612398816123928588610c24565b90611550565b87610431565b610f4c565b61231e565b611569565b908154916801000000000000000083101561067057826123929160016102fb95018155610c24565b6102fb906123e48160106123ad565b61239e6123f36114ab60105490565b916011610431565b63780e9d6360e01b6001600160e01b031982161490811561241a575090565b61036091506127cc565b611dd161036091612433600090565b506002610431565b92919091808115612549575b612462575b50509061245d6102fb926004610431565b61142d565b61246b83611d7a565b9160009061247b6114058361126c565b6124848261039a565b14158061252f575b80612518575b6124ff5750509161245d916102fb94936124af575b50919261244c565b6124b890610f84565b6124c184610f84565b6124ca83610424565b917f8c5be1e5ebec7d5bd14f71427d1e84f3dd0314c0f7b2291e5b200ac8c7c3b9256124f560405190565b600090a4386124a7565b63a9fbf51f60e01b82528190610e7b90600483016103c6565b5061252a6125268286611cd9565b1590565b612492565b506125398161039a565b6125428561039a565b141561248c565b50612557611405600061126c565b6125608361039a565b1415612447565b906102fb92916125778282612817565b611977600061126c565b909161258e90838361288d565b916125bc61259c600061126c565b6125a58161039a565b6125ae8661039a565b036125f95761140583612a3c565b6125c58361039a565b036125d4576103609150612a8d565b6125dd8261039a565b6125e68461039a565b036125f057505090565b61036091612a5e565b6126028461039a565b61260b8661039a565b1461039a5761140583866129bb565b6000612715610ec961270f61262e84610424565b9461264261263c6080611fd0565b82611fdd565b8681116127b5575b5061265861263c6040611fd0565b61266186610424565b811161279e575b5061267661263c6020611fd0565b61267f86610424565b8111612787575b5061269461263c6010611fd0565b61269d86610424565b8111612770575b506126b261263c6008611fd0565b6126bb86610424565b8111612759575b506126d061263c6004611fd0565b6126d986610424565b8111612742575b506126ee61263c6002611fd0565b6126f786610424565b811161272b575b506127096001611fd0565b90611fdd565b92610424565b1161271d5790565b610360906104e66001610424565b61273b9150956104e66002610424565b94386126fe565b6127529150956104e66004610424565b94386126e0565b6127699150956104e66008610424565b94386126c2565b6127809150956104e66010610424565b94386126a4565b6127979150956104e66020610424565b9438612686565b6127ae9150956104e66040610424565b9438612668565b6127c59150956104e66080610424565b943861264a565b6380ac58cd60e01b6001600160e01b03198216149081156127fc575b81156127f2575090565b6103609150612adb565b6001600160e01b03198116635b5e139f60e01b1491506127e8565b6000916128238361126c565b9161282d8361039a565b6128368261039a565b1461287457612846918391611e7b565b612852611a098361039a565b0361285b575050565b6339e3563760e11b82528190610e7b90600483016103c6565b633250574960e11b84528380610e7b85600483016103c6565b906128e061289a82612424565b9360006128a68161126c565b91846128b18461039a565b6128ba8361039a565b036129aa575b50506128cb8261039a565b6128d48761039a565b0361296f575b5061039a565b6128e98361039a565b0361293f575b6128fe8261245d836002610431565b61290d611a7e611fa885610f84565b917fddf252ad1be2c89b69c2b068fc378daa952ba7f163c4a11628f55a4df523b3ef61293860405190565b600090a490565b61296a61294c6001610424565b61296461295a856003611342565b916104e683610dbd565b90610f4c565b6128ef565b61297b9082858161243b565b6129a46129886001610424565b612964612996886003611342565b916129a083610dbd565b0390565b386128da565b6129b49188612aeb565b38846128c0565b6123a86102fb926113716000936129fa856123a86129d88461181d565b956007856129e96113768484610431565b89808203612a01575b505050610431565b6006611342565b611371612a2e8461239e85612a2461137661239e97611371612a349b6006611342565b9485936006611342565b84610431565b8538896129f2565b6102fb90612a57612a4c60085490565b61239e836009610431565b60086123ad565b61239e82612a866102fb9461239e61137195612a7c6114ab8261181d565b9687916006611342565b6007610431565b6123a36102fb9161036060006123a8600893612aaa6114ab865490565b61137160099161239e612acd610c64612ac66113768888610431565b938b610c24565b612a2e81612392858d610c24565b610e046301ffc9a760e01b610df6565b90612afa612526848385612b4b565b612b0357505050565b6000928392612b17611a096114058661126c565b03612b3457637e27328960e01b8352600483015250602481010390fd5b63177e802f60e01b8352610e7b9160048401611327565b90612b59611405600061126c565b612b628261039a565b14159283612b71575b50505090565b90919250612b7e8261039a565b612b878461039a565b14928315612bbc575b508215612ba2575b5050388080612b6b565b612bb49192506122b8611a0991611dba565b143880612b98565b612bc99193508290611cd9565b9138612b9056fea264697066735822122020c9f160c17cec013d5a9bdbdfef18392355b264f826d12896f55e131c3a2b4464736f6c634300081c0033a2646970667358221220bc2c31fff9554cc59565dddd92d796a4009c62a7c6f331dde5a60b039772cb7e64736f6c634300081c0033","opcodes":"PUSH1 0x80 PUSH1 0x40 MSTORE CALLVALUE PUSH2 0x2A JUMPI PUSH2 0x19 PUSH2 0x14 PUSH2 0xC2 JUMP JUMPDEST PUSH2 0x136 JUMP JUMPDEST PUSH1 0x40 MLOAD PUSH2 0x3AD9 PUSH2 0x14A DUP3 CODECOPY PUSH2 0x3AD9 SWAP1 RETURN JUMPDEST PUSH1 0x0 DUP1 REVERT JUMPDEST PUSH4 0x4E487B71 PUSH1 0xE0 SHL PUSH1 0x0 MSTORE PUSH1 0x41 PUSH1 0x4 MSTORE PUSH1 0x24 PUSH1 0x0 REVERT JUMPDEST SWAP1 PUSH1 0x1F ADD PUSH1 0x1F NOT AND DUP2 ADD SWAP1 DUP2 LT PUSH1 0x1 PUSH1 0x1 PUSH1 0x40 SHL SUB DUP3 GT OR PUSH2 0x66 JUMPI PUSH1 0x40 MSTORE JUMP JUMPDEST PUSH2 0x2F JUMP JUMPDEST SWAP1 PUSH2 0x7F PUSH2 0x78 PUSH1 0x40 MLOAD SWAP1 JUMP JUMPDEST SWAP3 DUP4 PUSH2 0x45 JUMP JUMPDEST JUMP JUMPDEST PUSH1 0x1 PUSH1 0x1 PUSH1 0xA0 SHL SUB AND SWAP1 JUMP JUMPDEST SWAP1 JUMP JUMPDEST PUSH1 0x1 PUSH1 0x1 PUSH1 0xA0 SHL SUB DUP2 AND SUB PUSH2 0x2A JUMPI JUMP JUMPDEST SWAP1 POP MLOAD SWAP1 PUSH2 0x7F DUP3 PUSH2 0x90 JUMP JUMPDEST SWAP1 PUSH1 0x20 DUP3 DUP3 SUB SLT PUSH2 0x2A JUMPI PUSH2 0x8D SWAP2 PUSH2 0xA1 JUMP JUMPDEST PUSH2 0x8D PUSH2 0x3C23 DUP1 CODESIZE SUB DUP1 PUSH2 0xD5 DUP2 PUSH2 0x6B JUMP JUMPDEST SWAP3 DUP4 CODECOPY DUP2 ADD SWAP1 PUSH2 0xAE JUMP JUMPDEST PUSH2 0x8D SWAP1 PUSH2 0x81 SWAP1 PUSH1 0x1 PUSH1 0x1 PUSH1 0xA0 SHL SUB AND DUP3 JUMP JUMPDEST PUSH2 0x8D SWAP1 PUSH2 0xE0 JUMP JUMPDEST PUSH2 0x8D SWAP1 PUSH2 0xF4 JUMP JUMPDEST SWAP1 PUSH2 0x116 PUSH2 0x8D PUSH2 0x132 SWAP3 PUSH2 0xFD JUMP JUMPDEST DUP3 SLOAD PUSH1 0x1 PUSH1 0x1 PUSH1 0xA0 SHL SUB NOT AND PUSH1 0x1 PUSH1 0x1 PUSH1 0xA0 SHL SUB SWAP2 SWAP1 SWAP2 AND OR SWAP1 JUMP JUMPDEST SWAP1 SSTORE JUMP JUMPDEST PUSH2 0x142 PUSH2 0x7F SWAP2 PUSH2 0xFD JUMP JUMPDEST PUSH1 0x0 PUSH2 0x106 JUMP INVALID PUSH1 0x80 PUSH1 0x40 MSTORE PUSH1 0x4 CALLDATASIZE LT ISZERO PUSH2 0x12 JUMPI PUSH1 0x0 DUP1 REVERT JUMPDEST PUSH1 0x0 CALLDATALOAD PUSH1 0xE0 SHR DUP1 PUSH4 0x630EF1B1 EQ PUSH2 0x42 JUMPI DUP1 PUSH4 0x6C20C1F3 EQ PUSH2 0x3D JUMPI PUSH4 0x7B103999 SUB PUSH2 0xF6 JUMPI PUSH2 0x337 JUMP JUMPDEST PUSH2 0x2A1 JUMP JUMPDEST PUSH2 0x1B1 JUMP JUMPDEST PUSH4 0x4E487B71 PUSH1 0xE0 SHL PUSH1 0x0 MSTORE PUSH1 0x41 PUSH1 0x4 MSTORE PUSH1 0x24 PUSH1 0x0 REVERT JUMPDEST SWAP1 PUSH1 0x1F ADD PUSH1 0x1F NOT AND DUP2 ADD SWAP1 DUP2 LT PUSH8 0xFFFFFFFFFFFFFFFF DUP3 GT OR PUSH2 0x7F JUMPI PUSH1 0x40 MSTORE JUMP JUMPDEST PUSH2 0x47 JUMP JUMPDEST SWAP1 PUSH2 0x98 PUSH2 0x91 PUSH1 0x40 MLOAD SWAP1 JUMP JUMPDEST SWAP3 DUP4 PUSH2 0x5D JUMP JUMPDEST JUMP JUMPDEST PUSH8 0xFFFFFFFFFFFFFFFF DUP2 GT PUSH2 0x7F JUMPI PUSH1 0x20 SWAP1 PUSH1 0x1F ADD PUSH1 0x1F NOT AND ADD SWAP1 JUMP JUMPDEST ADD SWAP1 JUMP JUMPDEST SWAP1 DUP3 PUSH1 0x0 SWAP4 SWAP3 DUP3 CALLDATACOPY ADD MSTORE JUMP JUMPDEST SWAP1 SWAP3 SWAP2 SWAP3 PUSH2 0xDC PUSH2 0xD7 DUP3 PUSH2 0x9A JUMP JUMPDEST PUSH2 0x84 JUMP JUMPDEST SWAP4 DUP2 DUP6 MSTORE DUP2 DUP4 ADD GT PUSH2 0xF6 JUMPI PUSH2 0x98 SWAP2 PUSH1 0x20 DUP6 ADD SWAP1 PUSH2 0xBB JUMP JUMPDEST PUSH1 0x0 DUP1 REVERT JUMPDEST SWAP1 DUP1 PUSH1 0x1F DUP4 ADD SLT ISZERO PUSH2 0xF6 JUMPI DUP2 PUSH1 0x20 PUSH2 0x116 SWAP4 CALLDATALOAD SWAP2 ADD PUSH2 0xC7 JUMP JUMPDEST SWAP1 JUMP JUMPDEST DUP1 JUMPDEST SUB PUSH2 0xF6 JUMPI JUMP JUMPDEST SWAP1 POP CALLDATALOAD SWAP1 PUSH2 0x98 DUP3 PUSH2 0x119 JUMP JUMPDEST SWAP2 SWAP1 PUSH1 0xA0 DUP4 DUP3 SUB SLT PUSH2 0xF6 JUMPI DUP3 CALLDATALOAD PUSH8 0xFFFFFFFFFFFFFFFF DUP2 GT PUSH2 0xF6 JUMPI DUP2 PUSH2 0x158 SWAP2 DUP6 ADD PUSH2 0xFB JUMP JUMPDEST SWAP3 PUSH1 0x20 DUP2 ADD CALLDATALOAD PUSH8 0xFFFFFFFFFFFFFFFF DUP2 GT PUSH2 0xF6 JUMPI DUP3 PUSH2 0x179 SWAP2 DUP4 ADD PUSH2 0xFB JUMP JUMPDEST SWAP3 PUSH2 0x116 PUSH2 0x18A DUP5 PUSH1 0x40 DUP6 ADD PUSH2 0x122 JUMP JUMPDEST SWAP4 PUSH1 0x80 PUSH2 0x19A DUP3 PUSH1 0x60 DUP8 ADD PUSH2 0x122 JUMP JUMPDEST SWAP5 ADD PUSH2 0x122 JUMP JUMPDEST PUSH1 0x1 PUSH1 0x1 PUSH1 0xA0 SHL SUB AND SWAP1 JUMP JUMPDEST SWAP1 MSTORE JUMP JUMPDEST CALLVALUE PUSH2 0xF6 JUMPI PUSH2 0x1EA PUSH2 0x1D0 PUSH2 0x1C7 CALLDATASIZE PUSH1 0x4 PUSH2 0x12F JUMP JUMPDEST SWAP4 SWAP3 SWAP1 SWAP3 PUSH2 0x49A JUMP JUMPDEST PUSH1 0x40 MLOAD SWAP2 DUP3 SWAP2 DUP3 PUSH1 0x1 PUSH1 0x1 PUSH1 0xA0 SHL SUB SWAP1 SWAP2 AND DUP2 MSTORE PUSH1 0x20 ADD SWAP1 JUMP JUMPDEST SUB SWAP1 RETURN JUMPDEST SWAP1 PUSH1 0xE0 DUP3 DUP3 SUB SLT PUSH2 0xF6 JUMPI DUP2 CALLDATALOAD PUSH8 0xFFFFFFFFFFFFFFFF DUP2 GT PUSH2 0xF6 JUMPI DUP2 PUSH2 0x216 SWAP2 DUP5 ADD PUSH2 0xFB JUMP JUMPDEST SWAP3 PUSH1 0x20 DUP4 ADD CALLDATALOAD PUSH8 0xFFFFFFFFFFFFFFFF DUP2 GT PUSH2 0xF6 JUMPI DUP3 PUSH2 0x237 SWAP2 DUP6 ADD PUSH2 0xFB JUMP JUMPDEST SWAP3 PUSH2 0x245 DUP4 PUSH1 0x40 DUP4 ADD PUSH2 0x122 JUMP JUMPDEST SWAP3 PUSH2 0x253 DUP2 PUSH1 0x60 DUP5 ADD PUSH2 0x122 JUMP JUMPDEST SWAP3 PUSH2 0x261 DUP3 PUSH1 0x80 DUP6 ADD PUSH2 0x122 JUMP JUMPDEST SWAP3 PUSH1 0xA0 DUP2 ADD CALLDATALOAD PUSH8 0xFFFFFFFFFFFFFFFF DUP2 GT PUSH2 0xF6 JUMPI DUP4 PUSH2 0x282 SWAP2 DUP4 ADD PUSH2 0xFB JUMP JUMPDEST SWAP3 PUSH1 0xC0 DUP3 ADD CALLDATALOAD PUSH8 0xFFFFFFFFFFFFFFFF DUP2 GT PUSH2 0xF6 JUMPI PUSH2 0x116 SWAP3 ADD PUSH2 0xFB JUMP JUMPDEST CALLVALUE PUSH2 0xF6 JUMPI PUSH2 0x1EA PUSH2 0x1D0 PUSH2 0x2B7 CALLDATASIZE PUSH1 0x4 PUSH2 0x1EE JUMP JUMPDEST SWAP6 SWAP5 SWAP1 SWAP5 SWAP4 SWAP2 SWAP4 PUSH2 0x64C JUMP JUMPDEST PUSH1 0x0 SWAP2 SUB SLT PUSH2 0xF6 JUMPI JUMP JUMPDEST PUSH2 0x116 SWAP2 PUSH1 0x8 MUL SHR PUSH1 0x1 PUSH1 0x1 PUSH1 0xA0 SHL SUB AND SWAP1 JUMP JUMPDEST SWAP1 PUSH2 0x116 SWAP2 SLOAD PUSH2 0x2CE JUMP JUMPDEST PUSH2 0x116 PUSH1 0x0 DUP1 PUSH2 0x2E2 JUMP JUMPDEST PUSH2 0x116 SWAP1 PUSH2 0x1A1 SWAP1 PUSH1 0x1 PUSH1 0x1 PUSH1 0xA0 SHL SUB AND DUP3 JUMP JUMPDEST PUSH2 0x116 SWAP1 PUSH2 0x2F8 JUMP JUMPDEST PUSH2 0x116 SWAP1 PUSH2 0x30C JUMP JUMPDEST PUSH2 0x1AD SWAP1 PUSH2 0x315 JUMP JUMPDEST PUSH1 0x20 DUP2 ADD SWAP3 SWAP2 PUSH2 0x98 SWAP2 SWAP1 PUSH2 0x31E JUMP JUMPDEST CALLVALUE PUSH2 0xF6 JUMPI PUSH2 0x347 CALLDATASIZE PUSH1 0x4 PUSH2 0x2C3 JUMP JUMPDEST PUSH2 0x1EA PUSH2 0x352 PUSH2 0x2ED JUMP JUMPDEST PUSH1 0x40 MLOAD SWAP2 DUP3 SWAP2 DUP3 PUSH2 0x327 JUMP JUMPDEST PUSH1 0x0 JUMPDEST DUP4 DUP2 LT PUSH2 0x371 JUMPI POP POP PUSH1 0x0 SWAP2 ADD MSTORE JUMP JUMPDEST DUP2 DUP2 ADD MLOAD DUP4 DUP3 ADD MSTORE PUSH1 0x20 ADD PUSH2 0x361 JUMP JUMPDEST PUSH2 0x3A2 PUSH2 0x3AB PUSH1 0x20 SWAP4 PUSH2 0xB7 SWAP4 PUSH2 0x396 DUP2 MLOAD SWAP1 JUMP JUMPDEST DUP1 DUP4 MSTORE SWAP4 DUP5 SWAP3 PUSH1 0x20 ADD SWAP1 JUMP JUMPDEST SWAP6 DUP7 SWAP2 ADD PUSH2 0x35E JUMP JUMPDEST PUSH1 0x1F ADD PUSH1 0x1F NOT AND SWAP1 JUMP JUMPDEST SWAP1 PUSH2 0x98 SWAP5 PUSH2 0x3F6 PUSH2 0x3EE PUSH1 0x80 SWAP6 PUSH2 0x3E0 PUSH2 0x3FD SWAP6 SWAP12 SWAP11 SWAP9 SWAP12 PUSH1 0xA0 DUP9 ADD SWAP1 DUP9 DUP3 SUB PUSH1 0x0 DUP11 ADD MSTORE PUSH2 0x381 JUMP JUMPDEST SWAP1 DUP7 DUP3 SUB PUSH1 0x20 DUP9 ADD MSTORE PUSH2 0x381 JUMP JUMPDEST SWAP9 PUSH1 0x40 DUP6 ADD MSTORE JUMP JUMPDEST PUSH1 0x60 DUP4 ADD MSTORE JUMP JUMPDEST ADD MSTORE JUMP JUMPDEST PUSH2 0x414 PUSH2 0x40E PUSH2 0x116 SWAP3 SWAP1 JUMP JUMPDEST PUSH1 0xF8 SHL SWAP1 JUMP JUMPDEST PUSH1 0x1 PUSH1 0x1 PUSH1 0xF8 SHL SUB NOT AND SWAP1 JUMP JUMPDEST PUSH2 0xB7 PUSH2 0x439 SWAP3 PUSH1 0x20 SWAP3 PUSH2 0x433 DUP2 MLOAD SWAP1 JUMP JUMPDEST SWAP5 DUP6 SWAP3 SWAP1 JUMP JUMPDEST SWAP4 DUP5 SWAP2 ADD PUSH2 0x35E JUMP JUMPDEST PUSH2 0x450 SWAP1 PUSH2 0x116 SWAP4 SWAP3 PUSH2 0x421 JUMP JUMPDEST SWAP1 PUSH2 0x421 JUMP JUMPDEST PUSH2 0x1AD SWAP1 PUSH1 0x1 PUSH1 0x1 PUSH1 0xA0 SHL SUB AND PUSH1 0x60 SHL SWAP1 JUMP JUMPDEST ADD DUP1 SWAP3 PUSH2 0x456 JUMP JUMPDEST ADD SWAP2 DUP3 MSTORE JUMP JUMPDEST PUSH2 0x116 PUSH2 0x116 PUSH2 0x116 SWAP3 SWAP1 JUMP JUMPDEST PUSH2 0x116 SWAP1 PUSH2 0x477 JUMP JUMPDEST PUSH2 0x1A1 PUSH2 0x116 PUSH2 0x116 SWAP3 SWAP1 JUMP JUMPDEST PUSH2 0x5A3 SWAP3 PUSH2 0x50A PUSH2 0x5A8 SWAP6 SWAP4 PUSH2 0x592 SWAP4 PUSH2 0x4D3 PUSH2 0x116 SWAP10 PUSH2 0x4B9 PUSH1 0x0 SWAP1 JUMP JUMPDEST POP PUSH1 0x40 MLOAD PUSH2 0x4DF DUP2 PUSH1 0x20 DUP2 ADD PUSH2 0x4D3 DUP6 DUP14 DUP13 DUP12 DUP12 DUP7 PUSH2 0x3B5 JUMP JUMPDEST SWAP1 DUP2 SUB DUP3 MSTORE SUB DUP3 PUSH2 0x5D JUMP JUMPDEST PUSH2 0x4F1 PUSH2 0x4EA DUP3 MLOAD SWAP1 JUMP JUMPDEST SWAP2 PUSH1 0x20 ADD SWAP1 JUMP JUMPDEST KECCAK256 SWAP8 PUSH2 0x4FC PUSH1 0x40 MLOAD SWAP1 JUMP JUMPDEST SWAP7 DUP8 SWAP6 PUSH1 0x20 DUP8 ADD SWAP6 DUP7 PUSH2 0x3B5 JUMP JUMPDEST PUSH2 0x514 PUSH1 0xFF PUSH2 0x401 JUMP JUMPDEST PUSH2 0x4D3 PUSH2 0x4D3 PUSH2 0x553 PUSH2 0x526 ADDRESS PUSH2 0x315 JUMP JUMPDEST SWAP5 PUSH2 0x3156 PUSH2 0x536 PUSH1 0x20 DUP3 ADD PUSH2 0x84 JUMP JUMPDEST SWAP1 DUP1 DUP3 MSTORE PUSH2 0x94E PUSH1 0x20 DUP4 ADD CODECOPY PUSH1 0x40 MLOAD SWAP4 DUP5 SWAP3 PUSH1 0x20 DUP5 ADD SWAP3 DUP4 PUSH2 0x442 JUMP JUMPDEST PUSH2 0x55E PUSH2 0x4EA DUP3 MLOAD SWAP1 JUMP JUMPDEST KECCAK256 PUSH1 0x40 MLOAD SWAP6 DUP7 SWAP5 PUSH1 0x20 DUP7 ADD SWAP5 DUP6 SWAP3 PUSH2 0x471 PUSH1 0x14 PUSH2 0xB7 SWAP5 PUSH2 0x471 PUSH1 0x1 DUP9 PUSH2 0x469 PUSH1 0x20 SWAP12 SWAP11 DUP13 SWAP10 PUSH1 0x1 PUSH1 0x1 PUSH1 0xF8 SHL SUB NOT AND SWAP1 MSTORE JUMP JUMPDEST PUSH2 0x59D PUSH2 0x4EA DUP3 MLOAD SWAP1 JUMP JUMPDEST KECCAK256 PUSH2 0x484 JUMP JUMPDEST PUSH2 0x48D JUMP JUMPDEST PUSH2 0x30C JUMP JUMPDEST PUSH1 0x40 MLOAD RETURNDATASIZE PUSH1 0x0 DUP3 RETURNDATACOPY RETURNDATASIZE SWAP1 REVERT JUMPDEST PUSH1 0x20 DUP1 DUP3 MSTORE PUSH2 0x116 SWAP3 SWAP2 ADD SWAP1 PUSH2 0x381 JUMP JUMPDEST PUSH1 0x1 PUSH1 0x1 PUSH1 0xA0 SHL SUB DUP2 AND PUSH2 0x11B JUMP JUMPDEST SWAP1 POP MLOAD SWAP1 PUSH2 0x98 DUP3 PUSH2 0x5CA JUMP JUMPDEST SWAP1 PUSH1 0x20 DUP3 DUP3 SUB SLT PUSH2 0xF6 JUMPI PUSH2 0x116 SWAP2 PUSH2 0x5D9 JUMP JUMPDEST ISZERO PUSH2 0x601 JUMPI JUMP JUMPDEST PUSH1 0x40 MLOAD PUSH3 0x461BCD PUSH1 0xE5 SHL DUP2 MSTORE PUSH1 0x20 PUSH1 0x4 DUP3 ADD MSTORE PUSH1 0x10 PUSH1 0x24 DUP3 ADD MSTORE PUSH16 0x86E4CAC2E8DEE440DAD2E6DAC2E8C6D PUSH1 0x83 SHL PUSH1 0x44 DUP3 ADD MSTORE PUSH1 0x64 SWAP1 REVERT JUMPDEST PUSH2 0x116 SWAP1 PUSH2 0x1A1 JUMP JUMPDEST PUSH2 0x116 SWAP1 SLOAD PUSH2 0x639 JUMP JUMPDEST SWAP2 SWAP3 SWAP4 SWAP6 SWAP5 SWAP6 PUSH2 0x65A PUSH1 0x0 SWAP1 JUMP JUMPDEST POP PUSH1 0x40 MLOAD PUSH2 0x674 DUP2 PUSH1 0x20 DUP2 ADD PUSH2 0x4D3 DUP6 DUP11 DUP11 DUP10 DUP12 DUP7 PUSH2 0x3B5 JUMP JUMPDEST PUSH2 0x67F PUSH2 0x4EA DUP3 MLOAD SWAP1 JUMP JUMPDEST KECCAK256 SWAP5 PUSH2 0x68A PUSH1 0x40 MLOAD SWAP1 JUMP JUMPDEST SWAP5 PUSH2 0x3156 DUP7 ADD SWAP4 DUP7 DUP6 LT PUSH8 0xFFFFFFFFFFFFFFFF DUP7 GT OR PUSH2 0x7F JUMPI DUP7 SWAP6 PUSH2 0x6B7 SWAP6 PUSH2 0x3156 PUSH2 0x94E DUP10 CODECOPY PUSH2 0x3B5 JUMP JUMPDEST SUB SWAP1 PUSH1 0x0 CREATE2 DUP1 ISZERO PUSH2 0x829 JUMPI DUP3 MLOAD SWAP3 PUSH1 0x0 SWAP4 PUSH2 0x6D8 PUSH2 0x6D4 DUP7 PUSH2 0x477 JUMP JUMPDEST SWAP2 SWAP1 JUMP JUMPDEST GT PUSH2 0x8EC JUMPI JUMPDEST POP DUP2 MLOAD PUSH2 0x6ED PUSH2 0x6D4 DUP6 PUSH2 0x477 JUMP JUMPDEST GT PUSH2 0x879 JUMPI JUMPDEST PUSH2 0x6FD SWAP2 POP PUSH2 0x315 JUMP JUMPDEST SWAP1 DUP2 EXTCODESIZE ISZERO PUSH2 0xF6 JUMPI PUSH1 0x40 MLOAD PUSH4 0x7EA2C03 PUSH1 0xE3 SHL DUP2 MSTORE CALLER PUSH1 0x4 DUP3 ADD MSTORE DUP2 DUP2 PUSH1 0x24 DUP2 DUP4 DUP8 GAS CALL DUP1 ISZERO PUSH2 0x829 JUMPI PUSH2 0x85D JUMPI JUMPDEST POP PUSH1 0x40 MLOAD PUSH4 0x2D05D3F PUSH1 0xE0 SHL DUP2 MSTORE PUSH1 0x20 DUP2 PUSH1 0x4 DUP2 DUP7 GAS STATICCALL DUP1 ISZERO PUSH2 0x829 JUMPI PUSH2 0x766 SWAP2 PUSH1 0x0 SWAP2 PUSH2 0x82E JUMPI JUMPDEST POP PUSH1 0x1 PUSH1 0x1 PUSH1 0xA0 SHL SUB AND CALLER EQ PUSH2 0x5FA JUMP JUMPDEST PUSH2 0x76F CALLER PUSH2 0x315 JUMP JUMPDEST PUSH2 0x778 DUP4 PUSH2 0x315 JUMP JUMPDEST SWAP1 PUSH32 0x3F8C7C6B55AA10C3609441AA7C581178C1692E17D2FF5C1A3A809FD700BA4387 PUSH2 0x7A3 PUSH1 0x40 MLOAD SWAP1 JUMP JUMPDEST PUSH1 0x0 SWAP1 LOG3 PUSH2 0x7B8 PUSH2 0x7B3 DUP3 PUSH2 0x642 JUMP JUMPDEST PUSH2 0x315 JUMP JUMPDEST DUP1 EXTCODESIZE ISZERO PUSH2 0xF6 JUMPI DUP2 PUSH2 0x7C9 PUSH1 0x40 MLOAD SWAP1 JUMP JUMPDEST PUSH4 0x2A99DCD5 PUSH1 0xE2 SHL DUP2 MSTORE CALLER PUSH1 0x4 DUP3 ADD MSTORE PUSH1 0x1 PUSH1 0x1 PUSH1 0xA0 SHL SUB DUP6 AND PUSH1 0x24 DUP3 ADD MSTORE SWAP2 DUP3 SWAP1 PUSH1 0x44 SWAP1 DUP3 SWAP1 DUP5 SWAP1 GAS CALL DUP1 ISZERO PUSH2 0x829 JUMPI PUSH2 0x803 JUMPI POP POP SWAP1 JUMP JUMPDEST DUP2 PUSH2 0x116 SWAP3 SWAP1 RETURNDATASIZE LT PUSH2 0x822 JUMPI JUMPDEST PUSH2 0x81A DUP2 DUP4 PUSH2 0x5D JUMP JUMPDEST DUP2 ADD SWAP1 PUSH2 0x2C3 JUMP JUMPDEST POP RETURNDATASIZE PUSH2 0x810 JUMP JUMPDEST PUSH2 0x5AD JUMP JUMPDEST PUSH2 0x850 SWAP2 POP PUSH1 0x20 RETURNDATASIZE PUSH1 0x20 GT PUSH2 0x856 JUMPI JUMPDEST PUSH2 0x848 DUP2 DUP4 PUSH2 0x5D JUMP JUMPDEST DUP2 ADD SWAP1 PUSH2 0x5E6 JUMP JUMPDEST CODESIZE PUSH2 0x755 JUMP JUMPDEST POP RETURNDATASIZE PUSH2 0x83E JUMP JUMPDEST PUSH2 0x873 SWAP1 DUP3 RETURNDATASIZE DUP5 GT PUSH2 0x822 JUMPI PUSH2 0x81A DUP2 DUP4 PUSH2 0x5D JUMP JUMPDEST CODESIZE PUSH2 0x72C JUMP JUMPDEST PUSH2 0x882 DUP2 PUSH2 0x315 JUMP JUMPDEST DUP1 EXTCODESIZE ISZERO PUSH2 0xF6 JUMPI PUSH2 0x8B6 DUP5 SWAP4 SWAP2 DUP5 SWAP3 PUSH2 0x89A PUSH1 0x40 MLOAD SWAP1 JUMP JUMPDEST SWAP6 DUP7 SWAP4 DUP5 SWAP3 DUP4 SWAP2 SWAP1 PUSH4 0x90C3F38F PUSH1 0xE0 SHL JUMPDEST DUP4 MSTORE PUSH1 0x4 DUP4 ADD PUSH2 0x5B9 JUMP JUMPDEST SUB SWAP3 GAS CALL SWAP2 DUP3 ISZERO PUSH2 0x829 JUMPI PUSH2 0x6FD SWAP3 PUSH2 0x8D0 JUMPI JUMPDEST POP PUSH2 0x6F3 JUMP JUMPDEST PUSH2 0x8E6 SWAP1 DUP5 RETURNDATASIZE DUP7 GT PUSH2 0x822 JUMPI PUSH2 0x81A DUP2 DUP4 PUSH2 0x5D JUMP JUMPDEST CODESIZE PUSH2 0x8CA JUMP JUMPDEST PUSH2 0x8F5 DUP3 PUSH2 0x315 JUMP JUMPDEST DUP1 EXTCODESIZE ISZERO PUSH2 0xF6 JUMPI PUSH2 0x922 DUP6 SWAP3 SWAP2 DUP4 SWAP3 PUSH2 0x90D PUSH1 0x40 MLOAD SWAP1 JUMP JUMPDEST SWAP5 DUP6 SWAP4 DUP5 SWAP3 DUP4 SWAP2 SWAP1 PUSH4 0x55F804B3 PUSH1 0xE0 SHL PUSH2 0x8AB JUMP JUMPDEST SUB SWAP3 GAS CALL DUP1 ISZERO PUSH2 0x829 JUMPI ISZERO PUSH2 0x6DE JUMPI PUSH2 0x947 SWAP1 DUP5 RETURNDATASIZE DUP7 GT PUSH2 0x822 JUMPI PUSH2 0x81A DUP2 DUP4 PUSH2 0x5D JUMP JUMPDEST CODESIZE PUSH2 0x6DE JUMP INVALID PUSH1 0x80 PUSH1 0x40 MSTORE CALLVALUE PUSH2 0x2E JUMPI PUSH2 0x1D PUSH2 0x14 PUSH2 0x171 JUMP JUMPDEST SWAP4 SWAP3 SWAP1 SWAP3 PUSH2 0x196 JUMP JUMPDEST PUSH1 0x40 MLOAD PUSH2 0x2C06 PUSH2 0x550 DUP3 CODECOPY PUSH2 0x2C06 SWAP1 RETURN JUMPDEST PUSH1 0x0 DUP1 REVERT JUMPDEST PUSH4 0x4E487B71 PUSH1 0xE0 SHL PUSH1 0x0 MSTORE PUSH1 0x41 PUSH1 0x4 MSTORE PUSH1 0x24 PUSH1 0x0 REVERT JUMPDEST SWAP1 PUSH1 0x1F ADD PUSH1 0x1F NOT AND DUP2 ADD SWAP1 DUP2 LT PUSH1 0x1 PUSH1 0x1 PUSH1 0x40 SHL SUB DUP3 GT OR PUSH2 0x6A JUMPI PUSH1 0x40 MSTORE JUMP JUMPDEST PUSH2 0x33 JUMP JUMPDEST SWAP1 PUSH2 0x83 PUSH2 0x7C PUSH1 0x40 MLOAD SWAP1 JUMP JUMPDEST SWAP3 DUP4 PUSH2 0x49 JUMP JUMPDEST JUMP JUMPDEST PUSH1 0x1 PUSH1 0x1 PUSH1 0x40 SHL SUB DUP2 GT PUSH2 0x6A JUMPI PUSH1 0x20 SWAP1 PUSH1 0x1F ADD PUSH1 0x1F NOT AND ADD SWAP1 JUMP JUMPDEST PUSH1 0x0 JUMPDEST DUP4 DUP2 LT PUSH2 0xB4 JUMPI POP POP PUSH1 0x0 SWAP2 ADD MSTORE JUMP JUMPDEST DUP2 DUP2 ADD MLOAD DUP4 DUP3 ADD MSTORE PUSH1 0x20 ADD PUSH2 0xA4 JUMP JUMPDEST SWAP1 SWAP3 SWAP2 SWAP3 PUSH2 0xD9 PUSH2 0xD4 DUP3 PUSH2 0x85 JUMP JUMPDEST PUSH2 0x6F JUMP JUMPDEST SWAP4 DUP2 DUP6 MSTORE DUP2 DUP4 ADD GT PUSH2 0x2E JUMPI PUSH2 0x83 SWAP2 PUSH1 0x20 DUP6 ADD SWAP1 PUSH2 0xA1 JUMP JUMPDEST SWAP1 DUP1 PUSH1 0x1F DUP4 ADD SLT ISZERO PUSH2 0x2E JUMPI DUP2 MLOAD PUSH2 0x10D SWAP3 PUSH1 0x20 ADD PUSH2 0xC4 JUMP JUMPDEST SWAP1 JUMP JUMPDEST SWAP2 SWAP1 PUSH1 0xA0 DUP4 DUP3 SUB SLT PUSH2 0x2E JUMPI DUP3 MLOAD PUSH1 0x1 PUSH1 0x1 PUSH1 0x40 SHL SUB DUP2 GT PUSH2 0x2E JUMPI DUP2 PUSH2 0x138 SWAP2 DUP6 ADD PUSH2 0xF3 JUMP JUMPDEST PUSH1 0x20 DUP5 ADD MLOAD SWAP1 SWAP4 SWAP1 PUSH1 0x1 PUSH1 0x1 PUSH1 0x40 SHL SUB DUP2 GT PUSH2 0x2E JUMPI DUP3 PUSH2 0x15A SWAP2 DUP4 ADD PUSH2 0xF3 JUMP JUMPDEST PUSH1 0x40 DUP3 ADD MLOAD PUSH1 0x60 DUP4 ADD MLOAD PUSH1 0x80 SWAP1 SWAP4 ADD MLOAD SWAP2 SWAP5 SWAP1 SWAP4 POP JUMP JUMPDEST PUSH2 0x18F PUSH2 0x3156 DUP1 CODESIZE SUB DUP1 PUSH2 0x184 DUP2 PUSH2 0x6F JUMP JUMPDEST SWAP3 DUP4 CODECOPY DUP2 ADD SWAP1 PUSH2 0x110 JUMP JUMPDEST SWAP1 SWAP2 SWAP3 SWAP4 SWAP5 JUMP JUMPDEST PUSH2 0x83 SWAP5 DUP6 SWAP5 DUP6 SWAP5 CALLER SWAP3 SWAP2 SWAP1 PUSH2 0x237 JUMP JUMPDEST SWAP1 PUSH1 0x0 NOT SWAP1 JUMPDEST SWAP2 DUP2 NOT AND SWAP2 AND OR SWAP1 JUMP JUMPDEST PUSH2 0x10D PUSH2 0x10D PUSH2 0x10D SWAP3 SWAP1 JUMP JUMPDEST SWAP1 PUSH2 0x1D4 PUSH2 0x10D PUSH2 0x1DB SWAP3 PUSH2 0x1B7 JUMP JUMPDEST DUP3 SLOAD PUSH2 0x1A7 JUMP JUMPDEST SWAP1 SSTORE JUMP JUMPDEST SWAP1 PUSH1 0x1 PUSH1 0x1 PUSH1 0xA0 SHL SUB SWAP1 PUSH2 0x1AD JUMP JUMPDEST PUSH2 0x10D SWAP1 PUSH2 0x202 SWAP1 PUSH1 0x1 PUSH1 0x1 PUSH1 0xA0 SHL SUB AND DUP3 JUMP JUMPDEST PUSH1 0x1 PUSH1 0x1 PUSH1 0xA0 SHL SUB AND SWAP1 JUMP JUMPDEST PUSH2 0x10D SWAP1 PUSH2 0x1EE JUMP JUMPDEST PUSH2 0x10D SWAP1 PUSH2 0x20E JUMP JUMPDEST SWAP1 PUSH2 0x230 PUSH2 0x10D PUSH2 0x1DB SWAP3 PUSH2 0x217 JUMP JUMPDEST DUP3 SLOAD PUSH2 0x1DF JUMP JUMPDEST PUSH2 0x24D PUSH2 0x262 SWAP7 PUSH2 0x254 SWAP4 SWAP5 SWAP7 PUSH2 0x25B SWAP7 PUSH2 0x26D JUMP JUMPDEST PUSH1 0xB PUSH2 0x1C4 JUMP JUMPDEST PUSH1 0xC PUSH2 0x1C4 JUMP JUMPDEST PUSH1 0xD PUSH2 0x1C4 JUMP JUMPDEST PUSH2 0x83 CALLER PUSH1 0xE PUSH2 0x220 JUMP JUMPDEST SWAP1 PUSH2 0x83 SWAP3 SWAP2 PUSH2 0x2AB JUMP JUMPDEST PUSH2 0x202 PUSH2 0x10D PUSH2 0x10D SWAP3 SWAP1 JUMP JUMPDEST PUSH2 0x10D SWAP1 PUSH2 0x278 JUMP JUMPDEST PUSH2 0x297 SWAP1 PUSH2 0x202 JUMP JUMPDEST SWAP1 MSTORE JUMP JUMPDEST PUSH1 0x20 DUP2 ADD SWAP3 SWAP2 PUSH2 0x83 SWAP2 SWAP1 PUSH2 0x28E JUMP JUMPDEST SWAP2 PUSH2 0x2B5 SWAP2 PUSH2 0x2FF JUMP JUMPDEST PUSH1 0x0 PUSH2 0x2C0 DUP2 PUSH2 0x285 JUMP JUMPDEST PUSH2 0x2C9 DUP2 PUSH2 0x202 JUMP JUMPDEST PUSH2 0x2D2 DUP5 PUSH2 0x202 JUMP JUMPDEST EQ PUSH2 0x2E2 JUMPI POP POP PUSH2 0x83 SWAP1 PUSH2 0x4F8 JUMP JUMPDEST PUSH4 0x1E4FBDF7 PUSH1 0xE0 SHL DUP3 MSTORE DUP2 SWAP1 PUSH2 0x2FB SWAP1 PUSH1 0x4 DUP4 ADD PUSH2 0x29B JUMP JUMPDEST SUB SWAP1 REVERT JUMPDEST PUSH2 0x83 SWAP2 DUP3 SWAP2 DUP3 SWAP2 DUP3 SWAP2 PUSH2 0x4CF JUMP JUMPDEST PUSH4 0x4E487B71 PUSH1 0xE0 SHL PUSH1 0x0 MSTORE PUSH1 0x22 PUSH1 0x4 MSTORE PUSH1 0x24 PUSH1 0x0 REVERT JUMPDEST SWAP1 PUSH1 0x1 PUSH1 0x2 DUP4 DIV SWAP3 AND DUP1 ISZERO PUSH2 0x344 JUMPI JUMPDEST PUSH1 0x20 DUP4 LT EQ PUSH2 0x33F JUMPI JUMP JUMPDEST PUSH2 0x30E JUMP JUMPDEST SWAP2 PUSH1 0x7F AND SWAP2 PUSH2 0x334 JUMP JUMPDEST SWAP2 PUSH1 0x0 NOT PUSH1 0x8 SWAP3 SWAP1 SWAP3 MUL SWAP2 DUP3 SHL SWAP2 SHL PUSH2 0x1AD JUMP JUMPDEST SWAP2 SWAP1 PUSH2 0x373 PUSH2 0x10D PUSH2 0x1DB SWAP4 PUSH2 0x1B7 JUMP JUMPDEST SWAP1 DUP4 SLOAD PUSH2 0x34E JUMP JUMPDEST PUSH2 0x83 SWAP2 PUSH1 0x0 SWAP2 PUSH2 0x362 JUMP JUMPDEST DUP2 DUP2 LT PUSH2 0x392 JUMPI POP POP JUMP JUMPDEST DUP1 PUSH2 0x3A0 PUSH1 0x0 PUSH1 0x1 SWAP4 PUSH2 0x37B JUMP JUMPDEST ADD PUSH2 0x387 JUMP JUMPDEST SWAP2 SWAP1 PUSH1 0x1F DUP2 GT PUSH2 0x3B5 JUMPI POP POP POP JUMP JUMPDEST PUSH2 0x3C7 PUSH2 0x83 SWAP4 PUSH1 0x0 MSTORE PUSH1 0x20 PUSH1 0x0 KECCAK256 SWAP1 JUMP JUMPDEST SWAP1 PUSH1 0x20 PUSH1 0x1F DUP5 ADD DUP2 SWAP1 DIV DUP4 ADD SWAP4 LT PUSH2 0x3E9 JUMPI JUMPDEST PUSH1 0x20 PUSH1 0x1F SWAP1 SWAP2 ADD DIV ADD SWAP1 PUSH2 0x387 JUMP JUMPDEST SWAP1 SWAP2 POP DUP2 SWAP1 PUSH2 0x3DA JUMP JUMPDEST SWAP1 PUSH2 0x3FC DUP2 MLOAD SWAP1 JUMP JUMPDEST SWAP1 PUSH1 0x1 PUSH1 0x1 PUSH1 0x40 SHL SUB DUP3 GT PUSH2 0x6A JUMPI PUSH2 0x41F DUP3 PUSH2 0x419 DUP6 SLOAD PUSH2 0x324 JUMP JUMPDEST DUP6 PUSH2 0x3A6 JUMP JUMPDEST PUSH1 0x20 SWAP1 PUSH1 0x1F DUP4 GT PUSH1 0x1 EQ PUSH2 0x45A JUMPI PUSH2 0x1DB SWAP3 SWAP2 PUSH1 0x0 SWAP2 DUP4 PUSH2 0x44F JUMPI JUMPDEST POP POP PUSH1 0x0 NOT PUSH1 0x8 DUP4 MUL SHR NOT AND SWAP1 PUSH1 0x2 MUL OR SWAP1 JUMP JUMPDEST ADD MLOAD SWAP1 POP CODESIZE DUP1 PUSH2 0x43B JUMP JUMPDEST PUSH1 0x1F NOT DUP4 AND SWAP2 PUSH2 0x46F DUP6 PUSH1 0x0 MSTORE PUSH1 0x20 PUSH1 0x0 KECCAK256 SWAP1 JUMP JUMPDEST SWAP3 PUSH1 0x0 JUMPDEST DUP2 DUP2 LT PUSH2 0x4AD JUMPI POP SWAP2 PUSH1 0x2 SWAP4 SWAP2 DUP6 PUSH1 0x1 SWAP7 SWAP5 LT PUSH2 0x494 JUMPI JUMPDEST POP POP POP MUL ADD SWAP1 SSTORE JUMP JUMPDEST ADD MLOAD PUSH1 0x0 NOT PUSH1 0x8 PUSH1 0x1F DUP6 AND MUL SHR NOT AND SWAP1 SSTORE CODESIZE DUP1 DUP1 PUSH2 0x48B JUMP JUMPDEST SWAP2 SWAP4 PUSH1 0x20 PUSH1 0x1 DUP2 SWAP3 DUP8 DUP8 ADD MLOAD DUP2 SSTORE ADD SWAP6 ADD SWAP3 ADD PUSH2 0x473 JUMP JUMPDEST SWAP1 PUSH2 0x83 SWAP2 PUSH2 0x3F3 JUMP JUMPDEST SWAP1 PUSH2 0x4DE PUSH2 0x83 SWAP3 PUSH1 0x0 PUSH2 0x4C5 JUMP JUMPDEST PUSH1 0x1 PUSH2 0x4C5 JUMP JUMPDEST PUSH2 0x10D SWAP1 PUSH2 0x202 JUMP JUMPDEST PUSH2 0x10D SWAP1 SLOAD PUSH2 0x4E5 JUMP JUMPDEST PUSH2 0x51E PUSH2 0x518 PUSH2 0x508 PUSH1 0xA PUSH2 0x4EE JUMP JUMPDEST PUSH2 0x513 DUP5 PUSH1 0xA PUSH2 0x220 JUMP JUMPDEST PUSH2 0x217 JUMP JUMPDEST SWAP2 PUSH2 0x217 JUMP JUMPDEST SWAP1 PUSH32 0x8BE0079C531659141344CD1FD0A4F28419497F9722A3DAAFE3B4186F6B6457E0 PUSH2 0x549 PUSH1 0x40 MLOAD SWAP1 JUMP JUMPDEST PUSH1 0x0 SWAP1 LOG3 JUMP INVALID PUSH1 0x80 PUSH1 0x40 MSTORE PUSH1 0x4 CALLDATASIZE LT ISZERO PUSH2 0x12 JUMPI PUSH1 0x0 DUP1 REVERT JUMPDEST PUSH1 0x0 CALLDATALOAD PUSH1 0xE0 SHR DUP1 PUSH4 0x18A25E8 EQ PUSH2 0x2E2 JUMPI DUP1 PUSH4 0x1FFC9A7 EQ PUSH2 0x2DD JUMPI DUP1 PUSH4 0x2D05D3F EQ PUSH2 0x2D8 JUMPI DUP1 PUSH4 0x583E9F8 EQ PUSH2 0x2D3 JUMPI DUP1 PUSH4 0x6FDDE03 EQ PUSH2 0x2CE JUMPI DUP1 PUSH4 0x81812FC EQ PUSH2 0x2C9 JUMPI DUP1 PUSH4 0x95EA7B3 EQ PUSH2 0x2C4 JUMPI DUP1 PUSH4 0x1249C58B EQ PUSH2 0x2BF JUMPI DUP1 PUSH4 0x12EA5C7E EQ PUSH2 0x2BA JUMPI DUP1 PUSH4 0x150B7A02 EQ PUSH2 0x2B5 JUMPI DUP1 PUSH4 0x18160DDD EQ PUSH2 0x2B0 JUMPI DUP1 PUSH4 0x1D0806AE EQ PUSH2 0x2AB JUMPI DUP1 PUSH4 0x21A1C184 EQ PUSH2 0x2A6 JUMPI DUP1 PUSH4 0x23B872DD EQ PUSH2 0x2A1 JUMPI DUP1 PUSH4 0x2DCD52F2 EQ PUSH2 0x29C JUMPI DUP1 PUSH4 0x2F745C59 EQ PUSH2 0x297 JUMPI DUP1 PUSH4 0x3F516018 EQ PUSH2 0x292 JUMPI DUP1 PUSH4 0x42842E0E EQ PUSH2 0x28D JUMPI DUP1 PUSH4 0x43D32E9C EQ PUSH2 0x288 JUMPI DUP1 PUSH4 0x4A8FE650 EQ PUSH2 0x283 JUMPI DUP1 PUSH4 0x4F6CCCE7 EQ PUSH2 0x27E JUMPI DUP1 PUSH4 0x53613DD3 EQ PUSH2 0x279 JUMPI DUP1 PUSH4 0x55F804B3 EQ PUSH2 0x274 JUMPI DUP1 PUSH4 0x5EBA096B EQ PUSH2 0x26F JUMPI DUP1 PUSH4 0x6352211E EQ PUSH2 0x26A JUMPI DUP1 PUSH4 0x6C0360EB EQ PUSH2 0x265 JUMPI DUP1 PUSH4 0x70A08231 EQ PUSH2 0x260 JUMPI DUP1 PUSH4 0x715018A6 EQ PUSH2 0x25B JUMPI DUP1 PUSH4 0x7284E416 EQ PUSH2 0x256 JUMPI DUP1 PUSH4 0x771282F6 EQ PUSH2 0x251 JUMPI DUP1 PUSH4 0x8DA5CB5B EQ PUSH2 0x24C JUMPI DUP1 PUSH4 0x90C3F38F EQ PUSH2 0x247 JUMPI DUP1 PUSH4 0x95D89B41 EQ PUSH2 0x242 JUMPI DUP1 PUSH4 0xA22CB465 EQ PUSH2 0x23D JUMPI DUP1 PUSH4 0xAD64D068 EQ PUSH2 0x238 JUMPI DUP1 PUSH4 0xAE104265 EQ PUSH2 0x233 JUMPI DUP1 PUSH4 0xB88D4FDE EQ PUSH2 0x22E JUMPI DUP1 PUSH4 0xC87B56DD EQ PUSH2 0x229 JUMPI DUP1 PUSH4 0xCF6A68BF EQ PUSH2 0x224 JUMPI DUP1 PUSH4 0xD5ABEB01 EQ PUSH2 0x21F JUMPI DUP1 PUSH4 0xD96A094A EQ PUSH2 0x21A JUMPI DUP1 PUSH4 0xE4849B32 EQ PUSH2 0x215 JUMPI DUP1 PUSH4 0xE985E9C5 EQ PUSH2 0x210 JUMPI DUP1 PUSH4 0xF0F2805F EQ PUSH2 0x20B JUMPI PUSH4 0xF2FDE38B SUB PUSH2 0x2F2 JUMPI PUSH2 0xD9E JUMP JUMPDEST PUSH2 0xD83 JUMP JUMPDEST PUSH2 0xD67 JUMP JUMPDEST PUSH2 0xD2C JUMP JUMPDEST PUSH2 0xD19 JUMP JUMPDEST PUSH2 0xCFE JUMP JUMPDEST PUSH2 0xCD7 JUMP JUMPDEST PUSH2 0xCBC JUMP JUMPDEST PUSH2 0xCA0 JUMP JUMPDEST PUSH2 0xC85 JUMP JUMPDEST PUSH2 0xC6A JUMP JUMPDEST PUSH2 0xBF5 JUMP JUMPDEST PUSH2 0xBA2 JUMP JUMPDEST PUSH2 0xB8A JUMP JUMPDEST PUSH2 0xB6F JUMP JUMPDEST PUSH2 0xB54 JUMP JUMPDEST PUSH2 0xB2D JUMP JUMPDEST PUSH2 0xB09 JUMP JUMPDEST PUSH2 0xAEE JUMP JUMPDEST PUSH2 0xAD3 JUMP JUMPDEST PUSH2 0x991 JUMP JUMPDEST PUSH2 0x975 JUMP JUMPDEST PUSH2 0x941 JUMP JUMPDEST PUSH2 0x900 JUMP JUMPDEST PUSH2 0x8D9 JUMP JUMPDEST PUSH2 0x8BE JUMP JUMPDEST PUSH2 0x8A3 JUMP JUMPDEST PUSH2 0x88A JUMP JUMPDEST PUSH2 0x872 JUMP JUMPDEST PUSH2 0x842 JUMP JUMPDEST PUSH2 0x826 JUMP JUMPDEST PUSH2 0x80D JUMP JUMPDEST PUSH2 0x7C9 JUMP JUMPDEST PUSH2 0x7AE JUMP JUMPDEST PUSH2 0x786 JUMP JUMPDEST PUSH2 0x74C JUMP JUMPDEST PUSH2 0x611 JUMP JUMPDEST PUSH2 0x594 JUMP JUMPDEST PUSH2 0x576 JUMP JUMPDEST PUSH2 0x522 JUMP JUMPDEST PUSH2 0x4FB JUMP JUMPDEST PUSH2 0x474 JUMP JUMPDEST PUSH2 0x3D6 JUMP JUMPDEST PUSH2 0x363 JUMP JUMPDEST PUSH2 0x2FD JUMP JUMPDEST PUSH1 0x0 SWAP2 SUB SLT PUSH2 0x2F2 JUMPI JUMP JUMPDEST PUSH1 0x0 DUP1 REVERT JUMPDEST SWAP1 MSTORE JUMP JUMPDEST JUMP JUMPDEST CALLVALUE PUSH2 0x2F2 JUMPI PUSH2 0x30D CALLDATASIZE PUSH1 0x4 PUSH2 0x2E7 JUMP JUMPDEST PUSH2 0x328 PUSH2 0x318 PUSH2 0xDC7 JUMP JUMPDEST PUSH1 0x40 MLOAD SWAP2 DUP3 SWAP2 DUP3 SWAP1 DUP2 MSTORE PUSH1 0x20 ADD SWAP1 JUMP JUMPDEST SUB SWAP1 RETURN JUMPDEST PUSH1 0x1 PUSH1 0x1 PUSH1 0xE0 SHL SUB NOT DUP2 AND JUMPDEST SUB PUSH2 0x2F2 JUMPI JUMP JUMPDEST SWAP1 POP CALLDATALOAD SWAP1 PUSH2 0x2FB DUP3 PUSH2 0x32C JUMP JUMPDEST SWAP1 PUSH1 0x20 DUP3 DUP3 SUB SLT PUSH2 0x2F2 JUMPI PUSH2 0x360 SWAP2 PUSH2 0x33F JUMP JUMPDEST SWAP1 JUMP JUMPDEST CALLVALUE PUSH2 0x2F2 JUMPI PUSH2 0x328 PUSH2 0x37E PUSH2 0x379 CALLDATASIZE PUSH1 0x4 PUSH2 0x34C JUMP JUMPDEST PUSH2 0xDD4 JUMP JUMPDEST PUSH1 0x40 MLOAD JUMPDEST SWAP2 DUP3 SWAP2 DUP3 SWAP1 ISZERO ISZERO DUP2 MSTORE PUSH1 0x20 ADD SWAP1 JUMP JUMPDEST PUSH2 0x360 SWAP2 PUSH1 0x8 MUL SHR JUMPDEST PUSH1 0x1 PUSH1 0x1 PUSH1 0xA0 SHL SUB AND SWAP1 JUMP JUMPDEST SWAP1 PUSH2 0x360 SWAP2 SLOAD PUSH2 0x391 JUMP JUMPDEST PUSH2 0x360 PUSH1 0x0 PUSH1 0xE PUSH2 0x3A6 JUMP JUMPDEST PUSH2 0x2F7 SWAP1 PUSH2 0x39A JUMP JUMPDEST PUSH1 0x20 DUP2 ADD SWAP3 SWAP2 PUSH2 0x2FB SWAP2 SWAP1 PUSH2 0x3BD JUMP JUMPDEST CALLVALUE PUSH2 0x2F2 JUMPI PUSH2 0x3E6 CALLDATASIZE PUSH1 0x4 PUSH2 0x2E7 JUMP JUMPDEST PUSH2 0x328 PUSH2 0x3F1 PUSH2 0x3B1 JUMP JUMPDEST PUSH1 0x40 MLOAD SWAP2 DUP3 SWAP2 DUP3 PUSH2 0x3C6 JUMP JUMPDEST DUP1 PUSH2 0x338 JUMP JUMPDEST SWAP1 POP CALLDATALOAD SWAP1 PUSH2 0x2FB DUP3 PUSH2 0x3FD JUMP JUMPDEST SWAP1 PUSH1 0x20 DUP3 DUP3 SUB SLT PUSH2 0x2F2 JUMPI PUSH2 0x360 SWAP2 PUSH2 0x403 JUMP JUMPDEST PUSH2 0x360 PUSH2 0x360 PUSH2 0x360 SWAP3 SWAP1 JUMP JUMPDEST SWAP1 PUSH2 0x43B SWAP1 PUSH2 0x424 JUMP JUMPDEST PUSH1 0x0 MSTORE PUSH1 0x20 MSTORE PUSH1 0x40 PUSH1 0x0 KECCAK256 SWAP1 JUMP JUMPDEST PUSH2 0x360 SWAP2 PUSH1 0x8 MUL SHR DUP2 JUMP JUMPDEST SWAP1 PUSH2 0x360 SWAP2 SLOAD PUSH2 0x449 JUMP JUMPDEST PUSH1 0x0 PUSH2 0x46F PUSH2 0x360 SWAP3 PUSH1 0x11 PUSH2 0x431 JUMP JUMPDEST PUSH2 0x454 JUMP JUMPDEST CALLVALUE PUSH2 0x2F2 JUMPI PUSH2 0x328 PUSH2 0x318 PUSH2 0x48A CALLDATASIZE PUSH1 0x4 PUSH2 0x410 JUMP JUMPDEST PUSH2 0x45F JUMP JUMPDEST PUSH1 0x0 JUMPDEST DUP4 DUP2 LT PUSH2 0x4A2 JUMPI POP POP PUSH1 0x0 SWAP2 ADD MSTORE JUMP JUMPDEST DUP2 DUP2 ADD MLOAD DUP4 DUP3 ADD MSTORE PUSH1 0x20 ADD PUSH2 0x492 JUMP JUMPDEST PUSH2 0x4D3 PUSH2 0x4DC PUSH1 0x20 SWAP4 PUSH2 0x4E6 SWAP4 PUSH2 0x4C7 DUP2 MLOAD SWAP1 JUMP JUMPDEST DUP1 DUP4 MSTORE SWAP4 DUP5 SWAP3 PUSH1 0x20 ADD SWAP1 JUMP JUMPDEST SWAP6 DUP7 SWAP2 ADD PUSH2 0x48F JUMP JUMPDEST PUSH1 0x1F ADD PUSH1 0x1F NOT AND SWAP1 JUMP JUMPDEST ADD SWAP1 JUMP JUMPDEST PUSH1 0x20 DUP1 DUP3 MSTORE PUSH2 0x360 SWAP3 SWAP2 ADD SWAP1 PUSH2 0x4B2 JUMP JUMPDEST CALLVALUE PUSH2 0x2F2 JUMPI PUSH2 0x50B CALLDATASIZE PUSH1 0x4 PUSH2 0x2E7 JUMP JUMPDEST PUSH2 0x328 PUSH2 0x516 PUSH2 0xE11 JUMP JUMPDEST PUSH1 0x40 MLOAD SWAP2 DUP3 SWAP2 DUP3 PUSH2 0x4EA JUMP JUMPDEST CALLVALUE PUSH2 0x2F2 JUMPI PUSH2 0x328 PUSH2 0x3F1 PUSH2 0x538 CALLDATASIZE PUSH1 0x4 PUSH2 0x410 JUMP JUMPDEST PUSH2 0xE1B JUMP JUMPDEST PUSH2 0x338 DUP2 PUSH2 0x39A JUMP JUMPDEST SWAP1 POP CALLDATALOAD SWAP1 PUSH2 0x2FB DUP3 PUSH2 0x53D JUMP JUMPDEST SWAP2 SWAP1 PUSH1 0x40 DUP4 DUP3 SUB SLT PUSH2 0x2F2 JUMPI PUSH2 0x360 SWAP1 PUSH1 0x20 PUSH2 0x56F DUP3 DUP7 PUSH2 0x546 JUMP JUMPDEST SWAP5 ADD PUSH2 0x403 JUMP JUMPDEST CALLVALUE PUSH2 0x2F2 JUMPI PUSH2 0x58F PUSH2 0x589 CALLDATASIZE PUSH1 0x4 PUSH2 0x553 JUMP JUMPDEST SWAP1 PUSH2 0xE2E JUMP JUMPDEST PUSH1 0x40 MLOAD STOP JUMPDEST PUSH2 0x59F CALLDATASIZE PUSH1 0x4 PUSH2 0x2E7 JUMP JUMPDEST PUSH2 0x328 PUSH2 0x318 PUSH2 0x1026 JUMP JUMPDEST SWAP1 PUSH2 0x5CA PUSH2 0x5C3 PUSH2 0x5B9 DUP5 MLOAD SWAP1 JUMP JUMPDEST DUP1 DUP5 MSTORE SWAP3 PUSH1 0x20 ADD SWAP1 JUMP JUMPDEST SWAP3 PUSH1 0x20 ADD SWAP1 JUMP JUMPDEST SWAP1 PUSH1 0x0 JUMPDEST DUP2 DUP2 LT PUSH2 0x5DB JUMPI POP POP POP SWAP1 JUMP JUMPDEST SWAP1 SWAP2 SWAP3 PUSH2 0x5F8 PUSH2 0x5F1 PUSH1 0x1 SWAP3 DUP7 MLOAD DUP2 MSTORE PUSH1 0x20 ADD SWAP1 JUMP JUMPDEST SWAP5 PUSH1 0x20 ADD SWAP1 JUMP JUMPDEST SWAP3 SWAP2 ADD PUSH2 0x5CE JUMP JUMPDEST PUSH1 0x20 DUP1 DUP3 MSTORE PUSH2 0x360 SWAP3 SWAP2 ADD SWAP1 PUSH2 0x5AA JUMP JUMPDEST CALLVALUE PUSH2 0x2F2 JUMPI PUSH2 0x621 CALLDATASIZE PUSH1 0x4 PUSH2 0x2E7 JUMP JUMPDEST PUSH2 0x328 PUSH2 0x62C PUSH2 0x11E1 JUMP JUMPDEST PUSH1 0x40 MLOAD SWAP2 DUP3 SWAP2 DUP3 PUSH2 0x600 JUMP JUMPDEST PUSH4 0x4E487B71 PUSH1 0xE0 SHL PUSH1 0x0 MSTORE PUSH1 0x41 PUSH1 0x4 MSTORE PUSH1 0x24 PUSH1 0x0 REVERT JUMPDEST SWAP1 PUSH1 0x1F ADD PUSH1 0x1F NOT AND DUP2 ADD SWAP1 DUP2 LT PUSH8 0xFFFFFFFFFFFFFFFF DUP3 GT OR PUSH2 0x670 JUMPI PUSH1 0x40 MSTORE JUMP JUMPDEST PUSH2 0x638 JUMP JUMPDEST SWAP1 PUSH2 0x2FB PUSH2 0x682 PUSH1 0x40 MLOAD SWAP1 JUMP JUMPDEST SWAP3 DUP4 PUSH2 0x64E JUMP JUMPDEST PUSH8 0xFFFFFFFFFFFFFFFF DUP2 GT PUSH2 0x670 JUMPI PUSH1 0x20 SWAP1 PUSH1 0x1F ADD PUSH1 0x1F NOT AND ADD SWAP1 JUMP JUMPDEST SWAP1 DUP3 PUSH1 0x0 SWAP4 SWAP3 DUP3 CALLDATACOPY ADD MSTORE JUMP JUMPDEST SWAP1 SWAP3 SWAP2 SWAP3 PUSH2 0x6C7 PUSH2 0x6C2 DUP3 PUSH2 0x689 JUMP JUMPDEST PUSH2 0x675 JUMP JUMPDEST SWAP4 DUP2 DUP6 MSTORE DUP2 DUP4 ADD GT PUSH2 0x2F2 JUMPI PUSH2 0x2FB SWAP2 PUSH1 0x20 DUP6 ADD SWAP1 PUSH2 0x6A6 JUMP JUMPDEST SWAP1 DUP1 PUSH1 0x1F DUP4 ADD SLT ISZERO PUSH2 0x2F2 JUMPI DUP2 PUSH1 0x20 PUSH2 0x360 SWAP4 CALLDATALOAD SWAP2 ADD PUSH2 0x6B2 JUMP JUMPDEST SWAP1 PUSH1 0x80 DUP3 DUP3 SUB SLT PUSH2 0x2F2 JUMPI PUSH2 0x711 DUP2 DUP4 PUSH2 0x546 JUMP JUMPDEST SWAP3 PUSH2 0x71F DUP3 PUSH1 0x20 DUP6 ADD PUSH2 0x546 JUMP JUMPDEST SWAP3 PUSH2 0x72D DUP4 PUSH1 0x40 DUP4 ADD PUSH2 0x403 JUMP JUMPDEST SWAP3 PUSH1 0x60 DUP3 ADD CALLDATALOAD PUSH8 0xFFFFFFFFFFFFFFFF DUP2 GT PUSH2 0x2F2 JUMPI PUSH2 0x360 SWAP3 ADD PUSH2 0x6E1 JUMP JUMPDEST CALLVALUE PUSH2 0x2F2 JUMPI PUSH2 0x328 PUSH2 0x76B PUSH2 0x762 CALLDATASIZE PUSH1 0x4 PUSH2 0x6FC JUMP JUMPDEST SWAP3 SWAP2 SWAP1 SWAP2 PUSH2 0x1211 JUMP JUMPDEST PUSH1 0x40 MLOAD SWAP2 DUP3 SWAP2 DUP3 PUSH1 0x1 PUSH1 0x1 PUSH1 0xE0 SHL SUB NOT SWAP1 SWAP2 AND DUP2 MSTORE PUSH1 0x20 ADD SWAP1 JUMP JUMPDEST CALLVALUE PUSH2 0x2F2 JUMPI PUSH2 0x796 CALLDATASIZE PUSH1 0x4 PUSH2 0x2E7 JUMP JUMPDEST PUSH2 0x328 PUSH2 0x318 PUSH1 0x8 SLOAD SWAP1 JUMP JUMPDEST PUSH2 0x360 PUSH1 0x0 PUSH1 0xB PUSH2 0x454 JUMP JUMPDEST CALLVALUE PUSH2 0x2F2 JUMPI PUSH2 0x7BE CALLDATASIZE PUSH1 0x4 PUSH2 0x2E7 JUMP JUMPDEST PUSH2 0x328 PUSH2 0x318 PUSH2 0x7A2 JUMP JUMPDEST CALLVALUE PUSH2 0x2F2 JUMPI PUSH2 0x7D9 CALLDATASIZE PUSH1 0x4 PUSH2 0x2E7 JUMP JUMPDEST PUSH2 0x328 PUSH2 0x318 PUSH2 0x1238 JUMP JUMPDEST SWAP1 SWAP2 PUSH1 0x60 DUP3 DUP5 SUB SLT PUSH2 0x2F2 JUMPI PUSH2 0x360 PUSH2 0x7FD DUP5 DUP5 PUSH2 0x546 JUMP JUMPDEST SWAP4 PUSH1 0x40 PUSH2 0x56F DUP3 PUSH1 0x20 DUP8 ADD PUSH2 0x546 JUMP JUMPDEST CALLVALUE PUSH2 0x2F2 JUMPI PUSH2 0x58F PUSH2 0x820 CALLDATASIZE PUSH1 0x4 PUSH2 0x7E4 JUMP JUMPDEST SWAP2 PUSH2 0x12A3 JUMP JUMPDEST CALLVALUE PUSH2 0x2F2 JUMPI PUSH2 0x836 CALLDATASIZE PUSH1 0x4 PUSH2 0x2E7 JUMP JUMPDEST PUSH2 0x328 PUSH2 0x318 PUSH1 0x10 SLOAD SWAP1 JUMP JUMPDEST CALLVALUE PUSH2 0x2F2 JUMPI PUSH2 0x328 PUSH2 0x318 PUSH2 0x858 CALLDATASIZE PUSH1 0x4 PUSH2 0x553 JUMP JUMPDEST SWAP1 PUSH2 0x134C JUMP JUMPDEST SWAP1 PUSH1 0x20 DUP3 DUP3 SUB SLT PUSH2 0x2F2 JUMPI PUSH2 0x360 SWAP2 PUSH2 0x546 JUMP JUMPDEST CALLVALUE PUSH2 0x2F2 JUMPI PUSH2 0x58F PUSH2 0x885 CALLDATASIZE PUSH1 0x4 PUSH2 0x85E JUMP JUMPDEST PUSH2 0x144F JUMP JUMPDEST CALLVALUE PUSH2 0x2F2 JUMPI PUSH2 0x58F PUSH2 0x89D CALLDATASIZE PUSH1 0x4 PUSH2 0x7E4 JUMP JUMPDEST SWAP2 PUSH2 0x146A JUMP JUMPDEST CALLVALUE PUSH2 0x2F2 JUMPI PUSH2 0x8B3 CALLDATASIZE PUSH1 0x4 PUSH2 0x2E7 JUMP JUMPDEST PUSH2 0x328 PUSH2 0x318 PUSH2 0x147E JUMP JUMPDEST CALLVALUE PUSH2 0x2F2 JUMPI PUSH2 0x8CE CALLDATASIZE PUSH1 0x4 PUSH2 0x2E7 JUMP JUMPDEST PUSH2 0x328 PUSH2 0x318 PUSH2 0x14C2 JUMP JUMPDEST CALLVALUE PUSH2 0x2F2 JUMPI PUSH2 0x328 PUSH2 0x318 PUSH2 0x8EF CALLDATASIZE PUSH1 0x4 PUSH2 0x410 JUMP JUMPDEST PUSH2 0x14DD JUMP JUMPDEST PUSH2 0x360 PUSH1 0x0 PUSH1 0xD PUSH2 0x454 JUMP JUMPDEST CALLVALUE PUSH2 0x2F2 JUMPI PUSH2 0x910 CALLDATASIZE PUSH1 0x4 PUSH2 0x2E7 JUMP JUMPDEST PUSH2 0x328 PUSH2 0x318 PUSH2 0x8F4 JUMP JUMPDEST SWAP1 PUSH1 0x20 DUP3 DUP3 SUB SLT PUSH2 0x2F2 JUMPI DUP2 CALLDATALOAD PUSH8 0xFFFFFFFFFFFFFFFF DUP2 GT PUSH2 0x2F2 JUMPI PUSH2 0x360 SWAP3 ADD PUSH2 0x6E1 JUMP JUMPDEST CALLVALUE PUSH2 0x2F2 JUMPI PUSH2 0x58F PUSH2 0x954 CALLDATASIZE PUSH1 0x4 PUSH2 0x91B JUMP JUMPDEST PUSH2 0x16C9 JUMP JUMPDEST SWAP2 SWAP1 PUSH1 0x40 DUP4 DUP3 SUB SLT PUSH2 0x2F2 JUMPI PUSH2 0x360 SWAP1 PUSH1 0x20 PUSH2 0x56F DUP3 DUP7 PUSH2 0x403 JUMP JUMPDEST CALLVALUE PUSH2 0x2F2 JUMPI PUSH2 0x328 PUSH2 0x62C PUSH2 0x98B CALLDATASIZE PUSH1 0x4 PUSH2 0x959 JUMP JUMPDEST SWAP1 PUSH2 0x1785 JUMP JUMPDEST CALLVALUE PUSH2 0x2F2 JUMPI PUSH2 0x328 PUSH2 0x3F1 PUSH2 0x9A7 CALLDATASIZE PUSH1 0x4 PUSH2 0x410 JUMP JUMPDEST PUSH2 0x1814 JUMP JUMPDEST PUSH4 0x4E487B71 PUSH1 0xE0 SHL PUSH1 0x0 MSTORE PUSH1 0x0 PUSH1 0x4 MSTORE PUSH1 0x24 PUSH1 0x0 REVERT JUMPDEST PUSH4 0x4E487B71 PUSH1 0xE0 SHL PUSH1 0x0 MSTORE PUSH1 0x22 PUSH1 0x4 MSTORE PUSH1 0x24 PUSH1 0x0 REVERT JUMPDEST SWAP1 PUSH1 0x1 PUSH1 0x2 DUP4 DIV SWAP3 AND DUP1 ISZERO PUSH2 0x9F8 JUMPI JUMPDEST PUSH1 0x20 DUP4 LT EQ PUSH2 0x9F3 JUMPI JUMP JUMPDEST PUSH2 0x9C2 JUMP JUMPDEST SWAP2 PUSH1 0x7F AND SWAP2 PUSH2 0x9E8 JUMP JUMPDEST DUP1 SLOAD PUSH1 0x0 SWAP4 SWAP3 SWAP2 PUSH2 0xA1F PUSH2 0xA15 DUP4 PUSH2 0x9D8 JUMP JUMPDEST DUP1 DUP6 MSTORE SWAP4 PUSH1 0x20 ADD SWAP1 JUMP JUMPDEST SWAP2 PUSH1 0x1 DUP2 AND SWAP1 DUP2 ISZERO PUSH2 0xA71 JUMPI POP PUSH1 0x1 EQ PUSH2 0xA38 JUMPI POP POP POP JUMP JUMPDEST PUSH2 0xA4B SWAP2 SWAP3 SWAP4 SWAP5 POP PUSH1 0x0 MSTORE PUSH1 0x20 PUSH1 0x0 KECCAK256 SWAP1 JUMP JUMPDEST SWAP2 PUSH1 0x0 SWAP3 JUMPDEST DUP2 DUP5 LT PUSH2 0xA5D JUMPI POP POP ADD SWAP1 JUMP JUMPDEST DUP1 SLOAD DUP5 DUP5 ADD MSTORE PUSH1 0x20 SWAP1 SWAP4 ADD SWAP3 PUSH1 0x1 ADD PUSH2 0xA50 JUMP JUMPDEST SWAP3 SWAP5 SWAP6 POP POP POP PUSH1 0xFF NOT AND DUP3 MSTORE ISZERO ISZERO PUSH1 0x20 MUL ADD SWAP1 JUMP JUMPDEST SWAP1 PUSH2 0x360 SWAP2 PUSH2 0xA02 JUMP JUMPDEST SWAP1 PUSH2 0x2FB PUSH2 0xAAA SWAP3 PUSH2 0xAA1 PUSH1 0x40 MLOAD SWAP1 JUMP JUMPDEST SWAP4 DUP5 DUP1 SWAP3 PUSH2 0xA86 JUMP JUMPDEST SUB DUP4 PUSH2 0x64E JUMP JUMPDEST SWAP1 PUSH1 0x0 LT PUSH2 0xAC2 JUMPI PUSH2 0x360 SWAP1 PUSH2 0xA90 JUMP JUMPDEST PUSH2 0x9AC JUMP JUMPDEST PUSH2 0x360 PUSH1 0x0 PUSH1 0x12 PUSH2 0xAB1 JUMP JUMPDEST CALLVALUE PUSH2 0x2F2 JUMPI PUSH2 0xAE3 CALLDATASIZE PUSH1 0x4 PUSH2 0x2E7 JUMP JUMPDEST PUSH2 0x328 PUSH2 0x516 PUSH2 0xAC7 JUMP JUMPDEST CALLVALUE PUSH2 0x2F2 JUMPI PUSH2 0x328 PUSH2 0x318 PUSH2 0xB04 CALLDATASIZE PUSH1 0x4 PUSH2 0x85E JUMP JUMPDEST PUSH2 0x181D JUMP JUMPDEST CALLVALUE PUSH2 0x2F2 JUMPI PUSH2 0xB19 CALLDATASIZE PUSH1 0x4 PUSH2 0x2E7 JUMP JUMPDEST PUSH2 0x58F PUSH2 0x1885 JUMP JUMPDEST PUSH2 0x360 PUSH1 0x0 PUSH1 0x13 PUSH2 0xAB1 JUMP JUMPDEST CALLVALUE PUSH2 0x2F2 JUMPI PUSH2 0xB3D CALLDATASIZE PUSH1 0x4 PUSH2 0x2E7 JUMP JUMPDEST PUSH2 0x328 PUSH2 0x516 PUSH2 0xB21 JUMP JUMPDEST PUSH2 0x360 PUSH1 0x0 PUSH1 0xF PUSH2 0x454 JUMP JUMPDEST CALLVALUE PUSH2 0x2F2 JUMPI PUSH2 0xB64 CALLDATASIZE PUSH1 0x4 PUSH2 0x2E7 JUMP JUMPDEST PUSH2 0x328 PUSH2 0x318 PUSH2 0xB48 JUMP JUMPDEST CALLVALUE PUSH2 0x2F2 JUMPI PUSH2 0xB7F CALLDATASIZE PUSH1 0x4 PUSH2 0x2E7 JUMP JUMPDEST PUSH2 0x328 PUSH2 0x3F1 PUSH2 0x188D JUMP JUMPDEST CALLVALUE PUSH2 0x2F2 JUMPI PUSH2 0x58F PUSH2 0xB9D CALLDATASIZE PUSH1 0x4 PUSH2 0x91B JUMP JUMPDEST PUSH2 0x18B6 JUMP JUMPDEST CALLVALUE PUSH2 0x2F2 JUMPI PUSH2 0xBB2 CALLDATASIZE PUSH1 0x4 PUSH2 0x2E7 JUMP JUMPDEST PUSH2 0x328 PUSH2 0x516 PUSH2 0x18BF JUMP JUMPDEST DUP1 ISZERO ISZERO PUSH2 0x338 JUMP JUMPDEST SWAP1 POP CALLDATALOAD SWAP1 PUSH2 0x2FB DUP3 PUSH2 0xBBD JUMP JUMPDEST SWAP2 SWAP1 PUSH1 0x40 DUP4 DUP3 SUB SLT PUSH2 0x2F2 JUMPI PUSH2 0x360 SWAP1 PUSH1 0x20 PUSH2 0xBEE DUP3 DUP7 PUSH2 0x546 JUMP JUMPDEST SWAP5 ADD PUSH2 0xBC5 JUMP JUMPDEST CALLVALUE PUSH2 0x2F2 JUMPI PUSH2 0x58F PUSH2 0xC08 CALLDATASIZE PUSH1 0x4 PUSH2 0xBD2 JUMP JUMPDEST SWAP1 PUSH2 0x18C9 JUMP JUMPDEST PUSH4 0x4E487B71 PUSH1 0xE0 SHL PUSH1 0x0 MSTORE PUSH1 0x32 PUSH1 0x4 MSTORE PUSH1 0x24 PUSH1 0x0 REVERT JUMPDEST DUP1 SLOAD DUP3 LT ISZERO PUSH2 0xC47 JUMPI PUSH2 0xC3E PUSH1 0x1 SWAP2 PUSH1 0x0 MSTORE PUSH1 0x20 PUSH1 0x0 KECCAK256 SWAP1 JUMP JUMPDEST SWAP2 MUL ADD SWAP1 PUSH1 0x0 SWAP1 JUMP JUMPDEST PUSH2 0xC0E JUMP JUMPDEST PUSH1 0x10 SLOAD DUP2 LT ISZERO PUSH2 0x2F2 JUMPI PUSH2 0xC64 PUSH2 0x360 SWAP2 PUSH1 0x10 PUSH2 0xC24 JUMP JUMPDEST SWAP1 PUSH2 0x454 JUMP JUMPDEST CALLVALUE PUSH2 0x2F2 JUMPI PUSH2 0x328 PUSH2 0x318 PUSH2 0xC80 CALLDATASIZE PUSH1 0x4 PUSH2 0x410 JUMP JUMPDEST PUSH2 0xC4C JUMP JUMPDEST CALLVALUE PUSH2 0x2F2 JUMPI PUSH2 0x328 PUSH2 0x318 PUSH2 0xC9B CALLDATASIZE PUSH1 0x4 PUSH2 0x410 JUMP JUMPDEST PUSH2 0x18D4 JUMP JUMPDEST CALLVALUE PUSH2 0x2F2 JUMPI PUSH2 0x58F PUSH2 0xCB3 CALLDATASIZE PUSH1 0x4 PUSH2 0x6FC JUMP JUMPDEST SWAP3 SWAP2 SWAP1 SWAP2 PUSH2 0x1965 JUMP JUMPDEST CALLVALUE PUSH2 0x2F2 JUMPI PUSH2 0x328 PUSH2 0x516 PUSH2 0xCD2 CALLDATASIZE PUSH1 0x4 PUSH2 0x410 JUMP JUMPDEST PUSH2 0x197C JUMP JUMPDEST CALLVALUE PUSH2 0x2F2 JUMPI PUSH2 0x328 PUSH2 0x318 PUSH2 0xCED CALLDATASIZE PUSH1 0x4 PUSH2 0x410 JUMP JUMPDEST PUSH2 0x1987 JUMP JUMPDEST PUSH2 0x360 PUSH1 0x0 PUSH1 0xC PUSH2 0x454 JUMP JUMPDEST CALLVALUE PUSH2 0x2F2 JUMPI PUSH2 0xD0E CALLDATASIZE PUSH1 0x4 PUSH2 0x2E7 JUMP JUMPDEST PUSH2 0x328 PUSH2 0x318 PUSH2 0xCF2 JUMP JUMPDEST PUSH2 0x58F PUSH2 0xD27 CALLDATASIZE PUSH1 0x4 PUSH2 0x410 JUMP JUMPDEST PUSH2 0x1AAF JUMP JUMPDEST CALLVALUE PUSH2 0x2F2 JUMPI PUSH2 0x58F PUSH2 0xD3F CALLDATASIZE PUSH1 0x4 PUSH2 0x410 JUMP JUMPDEST PUSH2 0x1CBB JUMP JUMPDEST SWAP2 SWAP1 PUSH1 0x40 DUP4 DUP3 SUB SLT PUSH2 0x2F2 JUMPI PUSH2 0x360 SWAP1 PUSH1 0x20 PUSH2 0xD60 DUP3 DUP7 PUSH2 0x546 JUMP JUMPDEST SWAP5 ADD PUSH2 0x546 JUMP JUMPDEST CALLVALUE PUSH2 0x2F2 JUMPI PUSH2 0x328 PUSH2 0x37E PUSH2 0xD7D CALLDATASIZE PUSH1 0x4 PUSH2 0xD44 JUMP JUMPDEST SWAP1 PUSH2 0x1CD9 JUMP JUMPDEST CALLVALUE PUSH2 0x2F2 JUMPI PUSH2 0x328 PUSH2 0x37E PUSH2 0xD99 CALLDATASIZE PUSH1 0x4 PUSH2 0x410 JUMP JUMPDEST PUSH2 0x1CFE JUMP JUMPDEST CALLVALUE PUSH2 0x2F2 JUMPI PUSH2 0x58F PUSH2 0xDB1 CALLDATASIZE PUSH1 0x4 PUSH2 0x85E JUMP JUMPDEST PUSH2 0x1D68 JUMP JUMPDEST PUSH2 0x360 SWAP1 DUP2 JUMP JUMPDEST PUSH2 0x360 SWAP1 SLOAD PUSH2 0xDB6 JUMP JUMPDEST PUSH2 0x360 PUSH2 0xC9B PUSH1 0xF PUSH2 0xDBD JUMP JUMPDEST PUSH2 0xDDD DUP2 PUSH2 0x1D71 JUMP JUMPDEST SWAP1 DUP2 ISZERO PUSH2 0xDE8 JUMPI POP SWAP1 JUMP JUMPDEST SWAP1 POP PUSH2 0xE04 PUSH4 0x2FA757F3 PUSH1 0xE0 SHL JUMPDEST SWAP2 PUSH1 0x1 PUSH1 0x1 PUSH1 0xE0 SHL SUB NOT AND SWAP1 JUMP JUMPDEST EQ SWAP1 JUMP JUMPDEST PUSH2 0x360 SWAP1 PUSH2 0xA90 JUMP JUMPDEST PUSH2 0x360 PUSH1 0x0 PUSH2 0xE08 JUMP JUMPDEST PUSH2 0x360 SWAP1 PUSH2 0xE28 DUP2 PUSH2 0x1D7A JUMP JUMPDEST POP PUSH2 0x1DBA JUMP JUMPDEST PUSH2 0x2FB SWAP2 CALLER SWAP2 PUSH2 0x1DD6 JUMP JUMPDEST ISZERO PUSH2 0xE40 JUMPI JUMP JUMPDEST PUSH1 0x40 MLOAD PUSH3 0x461BCD PUSH1 0xE5 SHL DUP2 MSTORE PUSH1 0x20 PUSH1 0x4 DUP3 ADD MSTORE PUSH1 0x12 PUSH1 0x24 DUP3 ADD MSTORE PUSH18 0x13585E081CDD5C1C1B1E481C995858DA1959 PUSH1 0x72 SHL PUSH1 0x44 DUP3 ADD MSTORE DUP1 PUSH1 0x64 DUP2 ADD JUMPDEST SUB SWAP1 REVERT JUMPDEST PUSH4 0x4E487B71 PUSH1 0xE0 SHL PUSH1 0x0 MSTORE PUSH1 0x11 PUSH1 0x4 MSTORE PUSH1 0x24 PUSH1 0x0 REVERT JUMPDEST DUP2 DUP2 MUL SWAP3 SWAP2 DUP2 ISZERO SWAP2 DUP5 DIV EQ OR ISZERO PUSH2 0xEA8 JUMPI JUMP JUMPDEST PUSH2 0xE7F JUMP JUMPDEST PUSH4 0x4E487B71 PUSH1 0xE0 SHL PUSH1 0x0 MSTORE PUSH1 0x12 PUSH1 0x4 MSTORE PUSH1 0x24 PUSH1 0x0 REVERT JUMPDEST SWAP1 PUSH2 0xECD JUMP JUMPDEST SWAP2 SWAP1 JUMP JUMPDEST SWAP1 DUP2 ISZERO PUSH2 0xED8 JUMPI DIV SWAP1 JUMP JUMPDEST PUSH2 0xEAD JUMP JUMPDEST SWAP2 SWAP1 DUP3 ADD DUP1 SWAP3 GT PUSH2 0xEA8 JUMPI JUMP JUMPDEST ISZERO PUSH2 0xEF1 JUMPI JUMP JUMPDEST PUSH1 0x40 MLOAD PUSH3 0x461BCD PUSH1 0xE5 SHL DUP2 MSTORE PUSH1 0x20 PUSH1 0x4 DUP3 ADD MSTORE PUSH1 0x14 PUSH1 0x24 DUP3 ADD MSTORE PUSH20 0x125B9CDD59999A58DA595B9D081C185E5B595B9D PUSH1 0x62 SHL PUSH1 0x44 DUP3 ADD MSTORE PUSH1 0x64 SWAP1 REVERT JUMPDEST PUSH1 0x0 NOT DUP2 EQ PUSH2 0xEA8 JUMPI PUSH1 0x1 ADD SWAP1 JUMP JUMPDEST SWAP1 PUSH1 0x0 NOT SWAP1 JUMPDEST SWAP2 DUP2 NOT AND SWAP2 AND OR SWAP1 JUMP JUMPDEST SWAP1 PUSH2 0xF5C PUSH2 0x360 PUSH2 0xF63 SWAP3 PUSH2 0x424 JUMP JUMPDEST DUP3 SLOAD PUSH2 0xF3C JUMP JUMPDEST SWAP1 SSTORE JUMP JUMPDEST PUSH2 0x360 SWAP1 PUSH2 0x39A SWAP1 PUSH1 0x1 PUSH1 0x1 PUSH1 0xA0 SHL SUB AND DUP3 JUMP JUMPDEST PUSH2 0x360 SWAP1 PUSH2 0xF67 JUMP JUMPDEST PUSH2 0x360 SWAP1 PUSH2 0xF7B JUMP JUMPDEST SWAP1 DUP2 MSTORE PUSH1 0x40 DUP2 ADD SWAP3 SWAP2 PUSH2 0x2FB SWAP2 PUSH1 0x20 ADD MSTORE JUMP JUMPDEST ADD MSTORE JUMP JUMPDEST PUSH2 0x360 SWAP1 PUSH2 0x39A JUMP JUMPDEST PUSH2 0x360 SWAP1 SLOAD PUSH2 0xFA4 JUMP JUMPDEST SWAP1 PUSH2 0xFC4 PUSH2 0x6C2 DUP4 PUSH2 0x689 JUMP JUMPDEST SWAP2 DUP3 MSTORE JUMP JUMPDEST RETURNDATASIZE ISZERO PUSH2 0xFE3 JUMPI PUSH2 0xFD8 RETURNDATASIZE PUSH2 0xFB7 JUMP JUMPDEST SWAP1 RETURNDATASIZE PUSH1 0x0 PUSH1 0x20 DUP5 ADD RETURNDATACOPY JUMP JUMPDEST PUSH1 0x60 SWAP1 JUMP JUMPDEST ISZERO PUSH2 0xFEF JUMPI JUMP JUMPDEST PUSH1 0x40 MLOAD PUSH3 0x461BCD PUSH1 0xE5 SHL DUP2 MSTORE PUSH1 0x20 PUSH1 0x4 DUP3 ADD MSTORE PUSH1 0xF PUSH1 0x24 DUP3 ADD MSTORE PUSH15 0x151C985B9CD9995C8819985A5B1959 PUSH1 0x8A SHL PUSH1 0x44 DUP3 ADD MSTORE PUSH1 0x64 SWAP1 REVERT JUMPDEST PUSH2 0x1048 PUSH2 0x1032 PUSH1 0x8 SLOAD SWAP1 JUMP JUMPDEST PUSH2 0x1042 PUSH2 0xEC9 PUSH2 0x360 PUSH1 0xC PUSH2 0xDBD JUMP JUMPDEST LT PUSH2 0xE39 JUMP JUMPDEST PUSH2 0x1050 PUSH2 0xDC7 JUMP JUMPDEST PUSH2 0x360 PUSH2 0x1157 PUSH2 0x1083 PUSH2 0x106C PUSH2 0x1066 PUSH1 0xD PUSH2 0xDBD JUMP JUMPDEST DUP6 PUSH2 0xE95 JUMP JUMPDEST PUSH2 0x107D PUSH8 0xDE0B6B3A7640000 PUSH2 0x424 JUMP JUMPDEST SWAP1 PUSH2 0xEC3 JUMP JUMPDEST PUSH2 0x109B PUSH2 0x1093 PUSH2 0x360 DUP4 DUP8 PUSH2 0xEDD JUMP JUMPDEST CALLVALUE LT ISZERO PUSH2 0xEEA JUMP JUMPDEST PUSH2 0x10B7 PUSH2 0x10A7 PUSH1 0x8 SLOAD SWAP1 JUMP JUMPDEST PUSH2 0x10B1 PUSH1 0x1 PUSH2 0x424 JUMP JUMPDEST SWAP1 PUSH2 0xEDD JUMP JUMPDEST SWAP4 PUSH2 0x10C2 DUP6 CALLER PUSH2 0x1DE3 JUMP JUMPDEST PUSH2 0x10DE PUSH2 0x10D7 PUSH2 0x10D2 PUSH1 0xF PUSH2 0xDBD JUMP JUMPDEST PUSH2 0xF2D JUMP JUMPDEST PUSH1 0xF PUSH2 0xF4C JUMP JUMPDEST PUSH2 0x10E7 CALLER PUSH2 0xF84 JUMP JUMPDEST PUSH2 0x10F0 DUP7 PUSH2 0x424 JUMP JUMPDEST SWAP1 PUSH32 0x10546B1A6F5245FF0FFA18C256B9E46859C585CBB473B453FCD4C2DC39AE08DB PUSH2 0x111B PUSH1 0x40 MLOAD SWAP1 JUMP JUMPDEST DUP1 PUSH2 0x1127 DUP8 DUP8 DUP4 PUSH2 0xF8D JUMP JUMPDEST SUB SWAP1 LOG3 PUSH2 0x1152 PUSH1 0x0 DUP1 PUSH2 0x113A PUSH1 0xE PUSH2 0xFAD JUMP JUMPDEST PUSH1 0x40 MLOAD PUSH1 0x0 SWAP2 DUP8 SWAP1 GAS CALL PUSH2 0x114C PUSH2 0xFC9 JUMP JUMPDEST POP PUSH2 0xFE8 JUMP JUMPDEST PUSH2 0xEDD JUMP JUMPDEST PUSH2 0x1E31 JUMP JUMPDEST SWAP1 PUSH2 0x1177 PUSH2 0x116B PUSH2 0x5B9 DUP5 SLOAD SWAP1 JUMP JUMPDEST SWAP3 PUSH1 0x0 MSTORE PUSH1 0x20 PUSH1 0x0 KECCAK256 SWAP1 JUMP JUMPDEST SWAP1 PUSH1 0x0 JUMPDEST DUP2 DUP2 LT PUSH2 0x1188 JUMPI POP POP POP SWAP1 JUMP JUMPDEST SWAP1 SWAP2 SWAP3 PUSH2 0x11AC PUSH2 0x11A5 PUSH1 0x1 SWAP3 PUSH2 0x119D DUP8 PUSH2 0xDBD JUMP JUMPDEST DUP2 MSTORE PUSH1 0x20 ADD SWAP1 JUMP JUMPDEST SWAP5 PUSH1 0x1 ADD SWAP1 JUMP JUMPDEST SWAP3 SWAP2 ADD PUSH2 0x117B JUMP JUMPDEST SWAP1 PUSH2 0x360 SWAP2 PUSH2 0x115C JUMP JUMPDEST SWAP1 PUSH2 0x2FB PUSH2 0xAAA SWAP3 PUSH2 0x11CF PUSH1 0x40 MLOAD SWAP1 JUMP JUMPDEST SWAP4 DUP5 DUP1 SWAP3 PUSH2 0x11B4 JUMP JUMPDEST PUSH2 0x360 SWAP1 PUSH2 0x11BE JUMP JUMPDEST PUSH2 0x360 PUSH1 0x10 PUSH2 0x11D8 JUMP JUMPDEST PUSH2 0x1204 PUSH2 0x11FE PUSH2 0x360 SWAP3 PUSH4 0xFFFFFFFF AND SWAP1 JUMP JUMPDEST PUSH1 0xE0 SHL SWAP1 JUMP JUMPDEST PUSH1 0x1 PUSH1 0x1 PUSH1 0xE0 SHL SUB NOT AND SWAP1 JUMP JUMPDEST POP POP POP POP PUSH2 0x121D PUSH1 0x0 SWAP1 JUMP JUMPDEST POP PUSH2 0x360 PUSH4 0x150B7A02 PUSH2 0x11EB JUMP JUMPDEST SWAP2 SWAP1 DUP3 SUB SWAP2 DUP3 GT PUSH2 0xEA8 JUMPI JUMP JUMPDEST PUSH2 0x360 PUSH2 0x1243 PUSH2 0x147E JUMP JUMPDEST PUSH2 0x1259 PUSH2 0x106C PUSH2 0x1253 PUSH1 0xD PUSH2 0xDBD JUMP JUMPDEST DUP4 PUSH2 0xE95 JUMP JUMPDEST SWAP1 PUSH2 0x122B JUMP JUMPDEST PUSH2 0x39A PUSH2 0x360 PUSH2 0x360 SWAP3 SWAP1 JUMP JUMPDEST PUSH2 0x360 SWAP1 PUSH2 0x125F JUMP JUMPDEST PUSH1 0x40 SWAP1 PUSH2 0x129C PUSH2 0x2FB SWAP5 SWAP7 SWAP6 SWAP4 SWAP7 PUSH2 0x1295 PUSH1 0x60 DUP5 ADD SWAP9 PUSH1 0x0 DUP6 ADD SWAP1 PUSH2 0x3BD JUMP JUMPDEST PUSH1 0x20 DUP4 ADD MSTORE JUMP JUMPDEST ADD SWAP1 PUSH2 0x3BD JUMP JUMPDEST SWAP1 SWAP2 PUSH1 0x0 SWAP3 PUSH2 0x12B1 DUP5 PUSH2 0x126C JUMP JUMPDEST PUSH2 0x12BA DUP2 PUSH2 0x39A JUMP JUMPDEST PUSH2 0x12C3 DUP4 PUSH2 0x39A JUMP JUMPDEST EQ PUSH2 0x130E JUMPI POP PUSH2 0x12D5 SWAP1 DUP3 CALLER SWAP2 PUSH2 0x1E7B JUMP JUMPDEST SWAP2 PUSH2 0x12DF DUP2 PUSH2 0x39A JUMP JUMPDEST PUSH2 0x12E8 DUP5 PUSH2 0x39A JUMP JUMPDEST SUB PUSH2 0x12F3 JUMPI POP POP POP POP JUMP JUMPDEST PUSH4 0x64283D7B PUSH1 0xE0 SHL DUP5 MSTORE DUP4 SWAP3 PUSH2 0xE7B SWAP3 SWAP1 SWAP2 PUSH1 0x4 DUP6 ADD PUSH2 0x1275 JUMP JUMPDEST DUP5 PUSH2 0xE7B DUP2 SWAP3 PUSH4 0x32505749 PUSH1 0xE1 SHL DUP4 MSTORE PUSH1 0x4 DUP4 ADD PUSH2 0x3C6 JUMP JUMPDEST SWAP2 PUSH1 0x20 PUSH2 0x2FB SWAP3 SWAP5 SWAP4 PUSH2 0xFA0 PUSH1 0x40 DUP3 ADD SWAP7 PUSH1 0x0 DUP4 ADD SWAP1 PUSH2 0x3BD JUMP JUMPDEST SWAP1 PUSH2 0x43B SWAP1 PUSH2 0xF84 JUMP JUMPDEST PUSH2 0x1358 PUSH2 0x360 DUP3 PUSH2 0x181D JUMP JUMPDEST DUP3 LT ISZERO PUSH2 0x137B JUMPI PUSH2 0x360 SWAP2 PUSH2 0x1371 PUSH2 0x1376 SWAP3 PUSH1 0x6 PUSH2 0x1342 JUMP JUMPDEST PUSH2 0x431 JUMP JUMPDEST PUSH2 0xDBD JUMP JUMPDEST PUSH4 0x295F44F7 PUSH1 0xE2 SHL PUSH1 0x0 SWAP1 DUP2 MSTORE SWAP2 PUSH2 0x1394 SWAP2 PUSH1 0x4 PUSH2 0x1327 JUMP JUMPDEST SUB PUSH1 0x0 REVERT JUMPDEST ISZERO PUSH2 0x13A0 JUMPI JUMP JUMPDEST PUSH1 0x40 MLOAD PUSH3 0x461BCD PUSH1 0xE5 SHL DUP2 MSTORE PUSH1 0x20 PUSH1 0x4 DUP3 ADD MSTORE PUSH1 0x23 PUSH1 0x24 DUP3 ADD MSTORE PUSH32 0x4F6E6C792063726561746F722063616E2063616C6C20746869732066756E6374 PUSH1 0x44 DUP3 ADD MSTORE PUSH3 0x34B7B7 PUSH1 0xE9 SHL PUSH1 0x64 DUP3 ADD MSTORE PUSH1 0x84 SWAP1 REVERT JUMPDEST PUSH2 0x2FB SWAP1 PUSH2 0x1419 PUSH2 0x140A PUSH2 0x1405 PUSH1 0xE PUSH2 0xFAD JUMP JUMPDEST PUSH2 0x39A JUMP JUMPDEST PUSH2 0x1413 CALLER PUSH2 0x39A JUMP JUMPDEST EQ PUSH2 0x1399 JUMP JUMPDEST PUSH2 0x1444 JUMP JUMPDEST SWAP1 PUSH1 0x1 PUSH1 0x1 PUSH1 0xA0 SHL SUB SWAP1 PUSH2 0xF42 JUMP JUMPDEST SWAP1 PUSH2 0x143D PUSH2 0x360 PUSH2 0xF63 SWAP3 PUSH2 0xF84 JUMP JUMPDEST DUP3 SLOAD PUSH2 0x141E JUMP JUMPDEST PUSH2 0x2FB SWAP1 PUSH1 0xE PUSH2 0x142D JUMP JUMPDEST PUSH2 0x2FB SWAP1 PUSH2 0x13F1 JUMP JUMPDEST PUSH2 0x360 PUSH1 0x0 PUSH2 0xFB7 JUMP JUMPDEST PUSH2 0x360 PUSH2 0x1458 JUMP JUMPDEST SWAP1 SWAP2 PUSH2 0x2FB SWAP3 PUSH2 0x1478 PUSH2 0x1462 JUMP JUMPDEST SWAP3 PUSH2 0x1965 JUMP JUMPDEST PUSH2 0x1488 PUSH1 0xF PUSH2 0xDBD JUMP JUMPDEST PUSH2 0x1495 PUSH2 0xEC9 PUSH1 0x0 PUSH2 0x424 JUMP JUMPDEST GT ISZERO PUSH2 0x14B5 JUMPI PUSH2 0x360 PUSH2 0xC9B PUSH2 0x14AB PUSH1 0xF PUSH2 0xDBD JUMP JUMPDEST PUSH2 0x1259 PUSH1 0x1 PUSH2 0x424 JUMP JUMPDEST PUSH2 0x360 PUSH2 0xC9B PUSH1 0x0 PUSH2 0x424 JUMP JUMPDEST PUSH2 0x360 PUSH2 0x14CD PUSH2 0xDC7 JUMP JUMPDEST PUSH2 0x10B1 PUSH2 0x106C PUSH2 0x1253 PUSH1 0xD PUSH2 0xDBD JUMP JUMPDEST PUSH2 0x14E9 PUSH2 0x360 PUSH1 0x8 SLOAD SWAP1 JUMP JUMPDEST DUP2 LT ISZERO PUSH2 0x14FE JUMPI PUSH2 0xC64 PUSH2 0x360 SWAP2 PUSH1 0x8 PUSH2 0xC24 JUMP JUMPDEST PUSH2 0xE7B SWAP1 PUSH1 0x0 SWAP2 DUP3 SWAP2 PUSH2 0x1510 DUP4 PUSH2 0x126C JUMP JUMPDEST PUSH4 0x295F44F7 PUSH1 0xE2 SHL DUP5 MSTORE PUSH1 0x4 DUP5 ADD PUSH2 0x1327 JUMP JUMPDEST PUSH2 0x2FB SWAP1 PUSH2 0x1537 PUSH2 0x140A PUSH2 0x1405 PUSH1 0xE PUSH2 0xFAD JUMP JUMPDEST PUSH2 0x16BE JUMP JUMPDEST SWAP2 PUSH1 0x0 NOT PUSH1 0x8 SWAP3 SWAP1 SWAP3 MUL SWAP2 DUP3 SHL SWAP2 SHL PUSH2 0xF42 JUMP JUMPDEST SWAP2 SWAP1 PUSH2 0x1561 PUSH2 0x360 PUSH2 0xF63 SWAP4 PUSH2 0x424 JUMP JUMPDEST SWAP1 DUP4 SLOAD PUSH2 0x153C JUMP JUMPDEST PUSH2 0x2FB SWAP2 PUSH1 0x0 SWAP2 PUSH2 0x1550 JUMP JUMPDEST DUP2 DUP2 LT PUSH2 0x1580 JUMPI POP POP JUMP JUMPDEST DUP1 PUSH2 0x158E PUSH1 0x0 PUSH1 0x1 SWAP4 PUSH2 0x1569 JUMP JUMPDEST ADD PUSH2 0x1575 JUMP JUMPDEST SWAP2 SWAP1 PUSH1 0x1F DUP2 GT PUSH2 0x15A3 JUMPI POP POP POP JUMP JUMPDEST PUSH2 0x15B5 PUSH2 0x2FB SWAP4 PUSH1 0x0 MSTORE PUSH1 0x20 PUSH1 0x0 KECCAK256 SWAP1 JUMP JUMPDEST SWAP1 PUSH1 0x20 PUSH1 0x1F DUP5 ADD DUP2 SWAP1 DIV DUP4 ADD SWAP4 LT PUSH2 0x15D7 JUMPI JUMPDEST PUSH1 0x20 PUSH1 0x1F SWAP1 SWAP2 ADD DIV ADD SWAP1 PUSH2 0x1575 JUMP JUMPDEST SWAP1 SWAP2 POP DUP2 SWAP1 PUSH2 0x15C8 JUMP JUMPDEST SWAP1 PUSH2 0x15EA DUP2 MLOAD SWAP1 JUMP JUMPDEST SWAP1 PUSH8 0xFFFFFFFFFFFFFFFF DUP3 GT PUSH2 0x670 JUMPI PUSH2 0x160E DUP3 PUSH2 0x1608 DUP6 SLOAD PUSH2 0x9D8 JUMP JUMPDEST DUP6 PUSH2 0x1594 JUMP JUMPDEST PUSH1 0x20 SWAP1 PUSH1 0x1F DUP4 GT PUSH1 0x1 EQ PUSH2 0x1649 JUMPI PUSH2 0xF63 SWAP3 SWAP2 PUSH1 0x0 SWAP2 DUP4 PUSH2 0x163E JUMPI JUMPDEST POP POP PUSH1 0x0 NOT PUSH1 0x8 DUP4 MUL SHR NOT AND SWAP1 PUSH1 0x2 MUL OR SWAP1 JUMP JUMPDEST ADD MLOAD SWAP1 POP CODESIZE DUP1 PUSH2 0x162A JUMP JUMPDEST PUSH1 0x1F NOT DUP4 AND SWAP2 PUSH2 0x165E DUP6 PUSH1 0x0 MSTORE PUSH1 0x20 PUSH1 0x0 KECCAK256 SWAP1 JUMP JUMPDEST SWAP3 PUSH1 0x0 JUMPDEST DUP2 DUP2 LT PUSH2 0x169C JUMPI POP SWAP2 PUSH1 0x2 SWAP4 SWAP2 DUP6 PUSH1 0x1 SWAP7 SWAP5 LT PUSH2 0x1683 JUMPI JUMPDEST POP POP POP MUL ADD SWAP1 SSTORE JUMP JUMPDEST ADD MLOAD PUSH1 0x0 NOT PUSH1 0x8 PUSH1 0x1F DUP6 AND MUL SHR NOT AND SWAP1 SSTORE CODESIZE DUP1 DUP1 PUSH2 0x167A JUMP JUMPDEST SWAP2 SWAP4 PUSH1 0x20 PUSH1 0x1 DUP2 SWAP3 DUP8 DUP8 ADD MLOAD DUP2 SSTORE ADD SWAP6 ADD SWAP3 ADD PUSH2 0x1662 JUMP JUMPDEST SWAP1 PUSH2 0x2FB SWAP2 PUSH2 0x15E1 JUMP JUMPDEST PUSH2 0x2FB SWAP1 PUSH1 0x12 PUSH2 0x16B4 JUMP JUMPDEST PUSH2 0x2FB SWAP1 PUSH2 0x1523 JUMP JUMPDEST ISZERO PUSH2 0x16D9 JUMPI JUMP JUMPDEST PUSH1 0x40 MLOAD PUSH3 0x461BCD PUSH1 0xE5 SHL DUP2 MSTORE PUSH1 0x20 PUSH1 0x4 DUP3 ADD MSTORE PUSH1 0x19 PUSH1 0x24 DUP3 ADD MSTORE PUSH32 0x537461727420696E646578206F7574206F6620626F756E647300000000000000 PUSH1 0x44 DUP3 ADD MSTORE PUSH1 0x64 SWAP1 REVERT JUMPDEST PUSH8 0xFFFFFFFFFFFFFFFF DUP2 GT PUSH2 0x670 JUMPI PUSH1 0x20 DUP1 SWAP2 MUL ADD SWAP1 JUMP JUMPDEST SWAP1 PUSH2 0xFC4 PUSH2 0x6C2 DUP4 PUSH2 0x171E JUMP JUMPDEST CALLDATASIZE SWAP1 CALLDATACOPY JUMP JUMPDEST SWAP1 PUSH2 0x2FB PUSH2 0x175E PUSH2 0x1758 DUP5 PUSH2 0x1736 JUMP JUMPDEST SWAP4 PUSH2 0x171E JUMP JUMPDEST PUSH1 0x1F NOT ADD PUSH1 0x20 DUP5 ADD PUSH2 0x1743 JUMP JUMPDEST SWAP1 PUSH2 0x1774 DUP3 MLOAD SWAP1 JUMP JUMPDEST DUP2 LT ISZERO PUSH2 0xC47 JUMPI PUSH1 0x20 DUP1 SWAP2 MUL ADD ADD SWAP1 JUMP JUMPDEST SWAP2 PUSH2 0x17B2 PUSH2 0x17AA PUSH1 0x10 SWAP4 PUSH2 0x17A4 PUSH2 0x179D PUSH2 0x360 DUP8 SLOAD SWAP1 JUMP JUMPDEST DUP8 LT PUSH2 0x16D2 JUMP JUMPDEST DUP6 PUSH2 0xEDD JUMP JUMPDEST DUP4 SLOAD SWAP1 PUSH2 0x1E86 JUMP JUMPDEST SWAP2 PUSH2 0x17C5 PUSH2 0x17C0 DUP6 DUP6 PUSH2 0x122B JUMP JUMPDEST PUSH2 0x1748 JUMP JUMPDEST SWAP2 DUP5 JUMPDEST DUP5 JUMPDEST DUP2 LT ISZERO PUSH2 0x180B JUMPI PUSH2 0x1804 DUP2 PUSH2 0x17FE PUSH2 0x17E8 PUSH2 0xC64 PUSH2 0x17CA SWAP6 DUP9 PUSH2 0xC24 JUMP JUMPDEST PUSH2 0x17FB PUSH2 0x17F5 DUP12 DUP6 PUSH2 0x122B JUMP JUMPDEST DUP10 PUSH2 0x176B JUMP JUMPDEST MSTORE JUMP JUMPDEST PUSH1 0x1 ADD SWAP1 JUMP JUMPDEST SWAP1 POP PUSH2 0x17C8 JUMP JUMPDEST POP SWAP4 POP POP SWAP1 POP SWAP1 JUMP JUMPDEST PUSH2 0x360 SWAP1 PUSH2 0x1D7A JUMP JUMPDEST PUSH1 0x0 PUSH2 0x1828 DUP2 PUSH2 0x126C JUMP JUMPDEST PUSH2 0x1831 DUP2 PUSH2 0x39A JUMP JUMPDEST PUSH2 0x183A DUP5 PUSH2 0x39A JUMP JUMPDEST EQ PUSH2 0x184F JUMPI POP POP PUSH2 0x1376 PUSH2 0x360 SWAP2 PUSH1 0x3 PUSH2 0x1342 JUMP JUMPDEST PUSH4 0x22718AD9 PUSH1 0xE2 SHL DUP3 MSTORE DUP2 SWAP1 PUSH2 0xE7B SWAP1 PUSH1 0x4 DUP4 ADD PUSH2 0x3C6 JUMP JUMPDEST PUSH2 0x1870 PUSH2 0x1E98 JUMP JUMPDEST PUSH2 0x2FB PUSH2 0x2FB PUSH2 0x1880 PUSH1 0x0 PUSH2 0x126C JUMP JUMPDEST PUSH2 0x1ECF JUMP JUMPDEST PUSH2 0x2FB PUSH2 0x1868 JUMP JUMPDEST PUSH2 0x360 PUSH1 0xA PUSH2 0xFAD JUMP JUMPDEST PUSH2 0x2FB SWAP1 PUSH2 0x18AB PUSH2 0x140A PUSH2 0x1405 PUSH1 0xE PUSH2 0xFAD JUMP JUMPDEST PUSH2 0x2FB SWAP1 PUSH1 0x13 PUSH2 0x16B4 JUMP JUMPDEST PUSH2 0x2FB SWAP1 PUSH2 0x1897 JUMP JUMPDEST PUSH2 0x360 PUSH1 0x1 PUSH2 0xE08 JUMP JUMPDEST PUSH2 0x2FB SWAP2 SWAP1 CALLER PUSH2 0x1F48 JUMP JUMPDEST PUSH2 0x18DE PUSH1 0x0 PUSH2 0x424 JUMP JUMPDEST DUP2 EQ PUSH2 0x195A JUMPI PUSH2 0x360 SWAP1 PUSH2 0x10B1 PUSH2 0x18F5 PUSH1 0xB PUSH2 0xDBD JUMP JUMPDEST SWAP2 PUSH2 0x191C PUSH2 0x1945 PUSH2 0x193B PUSH2 0x193B PUSH2 0x194A PUSH2 0x1922 PUSH2 0x1912 PUSH1 0xB PUSH2 0xDBD JUMP JUMPDEST PUSH2 0x191C PUSH1 0x2 PUSH2 0x424 JUMP JUMPDEST SWAP1 PUSH2 0xE95 JUMP JUMPDEST PUSH2 0x191C PUSH2 0x1945 PUSH2 0x193B DUP10 PUSH2 0x1936 PUSH1 0x64 PUSH2 0x424 JUMP JUMPDEST PUSH2 0xE95 JUMP JUMPDEST PUSH2 0x107D PUSH1 0xC PUSH2 0xDBD JUMP JUMPDEST PUSH2 0x200C JUMP JUMPDEST SWAP5 PUSH2 0x1936 DUP2 PUSH2 0x1936 PUSH2 0x2710 PUSH2 0x424 JUMP JUMPDEST POP PUSH2 0x360 PUSH1 0xB PUSH2 0xDBD JUMP JUMPDEST SWAP1 PUSH2 0x2FB SWAP4 SWAP3 SWAP2 PUSH2 0x1977 DUP4 DUP4 DUP4 PUSH2 0x12A3 JUMP JUMPDEST PUSH2 0x2166 JUMP JUMPDEST POP PUSH2 0x360 PUSH1 0x12 PUSH2 0xE08 JUMP JUMPDEST PUSH2 0xC64 PUSH2 0x360 SWAP2 PUSH2 0x1996 PUSH1 0x0 SWAP1 JUMP JUMPDEST POP PUSH1 0x10 PUSH2 0xC24 JUMP JUMPDEST ISZERO PUSH2 0x19A5 JUMPI JUMP JUMPDEST PUSH1 0x40 MLOAD PUSH3 0x461BCD PUSH1 0xE5 SHL DUP2 MSTORE PUSH1 0x20 PUSH1 0x4 DUP3 ADD MSTORE PUSH1 0x1F PUSH1 0x24 DUP3 ADD MSTORE PUSH32 0x546F6B656E206973206E6F7420617661696C61626C6520666F722073616C6500 PUSH1 0x44 DUP3 ADD MSTORE PUSH1 0x64 SWAP1 REVERT JUMPDEST PUSH2 0x2FB SWAP1 PUSH2 0x1A15 PUSH2 0x19FA DUP3 PUSH2 0x1814 JUMP JUMPDEST PUSH2 0x1A0F PUSH2 0x1A09 PUSH2 0x1405 ADDRESS PUSH2 0xF84 JUMP JUMPDEST SWAP2 PUSH2 0x39A JUMP JUMPDEST EQ PUSH2 0x199E JUMP JUMPDEST PUSH2 0x1157 PUSH2 0x2FB SWAP2 PUSH2 0x1A24 PUSH2 0xDC7 JUMP JUMPDEST PUSH2 0x1A34 PUSH2 0x106C PUSH2 0x1253 PUSH1 0xD PUSH2 0xDBD JUMP JUMPDEST SWAP2 PUSH2 0x1A45 PUSH2 0x1093 PUSH2 0x360 DUP6 DUP6 PUSH2 0xEDD JUMP JUMPDEST PUSH2 0x1A59 DUP2 PUSH2 0x1A52 ADDRESS PUSH2 0xF84 JUMP JUMPDEST CALLER SWAP1 PUSH2 0x2283 JUMP JUMPDEST PUSH2 0x1A62 DUP2 PUSH2 0x2346 JUMP JUMPDEST PUSH2 0x1A72 PUSH2 0x10D7 PUSH2 0x10D2 PUSH1 0xF PUSH2 0xDBD JUMP JUMPDEST PUSH2 0x1A84 PUSH2 0x1A7E CALLER PUSH2 0xF84 JUMP JUMPDEST SWAP2 PUSH2 0x424 JUMP JUMPDEST SWAP1 PUSH32 0x884543C08D36FB5C9B3B688DD0453C9F287199124BDBDDB3B7F9CA885A4D34A0 PUSH2 0x111B PUSH1 0x40 MLOAD SWAP1 JUMP JUMPDEST PUSH2 0x2FB SWAP1 PUSH2 0x19EA JUMP JUMPDEST ISZERO PUSH2 0x1ABF JUMPI JUMP JUMPDEST PUSH1 0x40 MLOAD PUSH3 0x461BCD PUSH1 0xE5 SHL DUP2 MSTORE PUSH1 0x20 PUSH1 0x4 DUP3 ADD MSTORE PUSH1 0x13 PUSH1 0x24 DUP3 ADD MSTORE PUSH19 0x21B0B63632B91034B9903737BA1037BBB732B9 PUSH1 0x69 SHL PUSH1 0x44 DUP3 ADD MSTORE PUSH1 0x64 SWAP1 REVERT JUMPDEST PUSH2 0x2FB SWAP1 PUSH2 0x1B1C PUSH2 0x1B0A DUP3 PUSH2 0x1814 JUMP JUMPDEST PUSH2 0x1B16 PUSH2 0x1A09 CALLER PUSH2 0x39A JUMP JUMPDEST EQ PUSH2 0x1AB8 JUMP JUMPDEST PUSH2 0x1BC6 JUMP JUMPDEST DUP1 ISZERO PUSH2 0xEA8 JUMPI PUSH1 0x0 NOT ADD SWAP1 JUMP JUMPDEST ISZERO PUSH2 0x1B35 JUMPI JUMP JUMPDEST PUSH1 0x40 MLOAD PUSH3 0x461BCD PUSH1 0xE5 SHL DUP2 MSTORE PUSH1 0x20 PUSH1 0x4 DUP3 ADD MSTORE PUSH1 0x19 PUSH1 0x24 DUP3 ADD MSTORE PUSH32 0x5472616E7366657220746F2073656C6C6572206661696C656400000000000000 PUSH1 0x44 DUP3 ADD MSTORE PUSH1 0x64 SWAP1 REVERT JUMPDEST ISZERO PUSH2 0x1B81 JUMPI JUMP JUMPDEST PUSH1 0x40 MLOAD PUSH3 0x461BCD PUSH1 0xE5 SHL DUP2 MSTORE PUSH1 0x20 PUSH1 0x4 DUP3 ADD MSTORE PUSH1 0x1A PUSH1 0x24 DUP3 ADD MSTORE PUSH32 0x5472616E7366657220746F2063726561746F72206661696C6564000000000000 PUSH1 0x44 DUP3 ADD MSTORE PUSH1 0x64 SWAP1 REVERT JUMPDEST PUSH1 0x0 DUP1 PUSH2 0x2FB SWAP3 PUSH2 0x1C92 DUP3 DUP1 PUSH2 0x1BDA PUSH2 0x147E JUMP JUMPDEST SWAP4 PUSH2 0x1C7A PUSH2 0x1BF4 PUSH2 0x106C PUSH2 0x1BEE PUSH1 0xD PUSH2 0xDBD JUMP JUMPDEST DUP9 PUSH2 0xE95 JUMP JUMPDEST DUP1 SWAP7 PUSH2 0x1BFD CALLER SWAP1 JUMP JUMPDEST SWAP4 PUSH2 0x1C11 DUP2 PUSH2 0x1C0B ADDRESS PUSH2 0xF84 JUMP JUMPDEST DUP8 PUSH2 0x2283 JUMP JUMPDEST PUSH2 0x1C1A DUP2 PUSH2 0x23D5 JUMP JUMPDEST PUSH2 0x1C2F PUSH2 0x10D7 PUSH2 0x1C2A PUSH1 0xF PUSH2 0xDBD JUMP JUMPDEST PUSH2 0x1B21 JUMP JUMPDEST PUSH2 0x1C3B PUSH2 0x1A7E DUP7 PUSH2 0xF84 JUMP JUMPDEST SWAP1 PUSH32 0x8323BEBB324B6E1A1D4886A1F210640461BB275263DAE69967F001D053AB0B2B PUSH2 0x1C66 PUSH1 0x40 MLOAD SWAP1 JUMP JUMPDEST DUP1 PUSH2 0x1C72 DUP8 DUP8 DUP4 PUSH2 0xF8D JUMP JUMPDEST SUB SWAP1 LOG3 PUSH2 0x122B JUMP JUMPDEST PUSH1 0x40 MLOAD SWAP1 DUP2 DUP1 SUB SWAP3 GAS CALL PUSH2 0x1C8C PUSH2 0xFC9 JUMP JUMPDEST POP PUSH2 0x1B2E JUMP JUMPDEST PUSH2 0x1C9C PUSH1 0xE PUSH2 0xFAD JUMP JUMPDEST SWAP1 PUSH2 0x1CA6 PUSH1 0x40 MLOAD SWAP1 JUMP JUMPDEST SWAP1 DUP2 DUP1 SUB SWAP3 GAS CALL PUSH2 0x1CB5 PUSH2 0xFC9 JUMP JUMPDEST POP PUSH2 0x1B7A JUMP JUMPDEST PUSH2 0x2FB SWAP1 PUSH2 0x1AFA JUMP JUMPDEST PUSH2 0x360 SWAP1 JUMPDEST PUSH1 0xFF AND SWAP1 JUMP JUMPDEST PUSH2 0x360 SWAP1 SLOAD PUSH2 0x1CC4 JUMP JUMPDEST PUSH2 0x360 SWAP2 PUSH2 0x1CF4 PUSH2 0x1CF9 SWAP3 PUSH2 0x1CEC PUSH1 0x0 SWAP1 JUMP JUMPDEST POP PUSH1 0x5 PUSH2 0x1342 JUMP JUMPDEST PUSH2 0x1342 JUMP JUMPDEST PUSH2 0x1CCF JUMP JUMPDEST PUSH2 0x1D07 SWAP1 PUSH2 0x1814 JUMP JUMPDEST PUSH2 0xE04 PUSH2 0x1A09 PUSH2 0x1405 ADDRESS PUSH2 0xF84 JUMP JUMPDEST PUSH2 0x2FB SWAP1 PUSH2 0x1D22 PUSH2 0x1E98 JUMP JUMPDEST PUSH1 0x0 PUSH2 0x1D2D DUP2 PUSH2 0x126C JUMP JUMPDEST PUSH2 0x1D36 DUP2 PUSH2 0x39A JUMP JUMPDEST PUSH2 0x1D3F DUP5 PUSH2 0x39A JUMP JUMPDEST EQ PUSH2 0x1D4F JUMPI POP POP PUSH2 0x2FB SWAP1 PUSH2 0x1ECF JUMP JUMPDEST PUSH4 0x1E4FBDF7 PUSH1 0xE0 SHL DUP3 MSTORE DUP2 SWAP1 PUSH2 0xE7B SWAP1 PUSH1 0x4 DUP4 ADD PUSH2 0x3C6 JUMP JUMPDEST PUSH2 0x2FB SWAP1 PUSH2 0x1D16 JUMP JUMPDEST PUSH2 0x360 SWAP1 PUSH2 0x23FB JUMP JUMPDEST PUSH2 0x1D83 DUP2 PUSH2 0x2424 JUMP JUMPDEST SWAP1 PUSH1 0x0 SWAP1 PUSH2 0x1D93 PUSH2 0x1405 DUP4 PUSH2 0x126C JUMP JUMPDEST PUSH2 0x1D9C DUP5 PUSH2 0x39A JUMP JUMPDEST EQ PUSH2 0x1DA6 JUMPI POP POP SWAP1 JUMP JUMPDEST PUSH4 0x7E273289 PUSH1 0xE0 SHL DUP3 MSTORE PUSH1 0x4 DUP3 ADD MSTORE PUSH1 0x24 SWAP1 REVERT JUMPDEST PUSH2 0x1DD1 PUSH2 0x360 SWAP2 PUSH2 0x1DC9 PUSH1 0x0 SWAP1 JUMP JUMPDEST POP PUSH1 0x4 PUSH2 0x431 JUMP JUMPDEST PUSH2 0xFAD JUMP JUMPDEST SWAP2 PUSH1 0x1 SWAP2 PUSH2 0x2FB SWAP4 PUSH2 0x243B JUMP JUMPDEST PUSH2 0x2FB SWAP2 PUSH2 0x1DEF PUSH2 0x1462 JUMP JUMPDEST SWAP2 PUSH2 0x2567 JUMP JUMPDEST ISZERO PUSH2 0x1DFC JUMPI JUMP JUMPDEST PUSH1 0x40 MLOAD PUSH3 0x461BCD PUSH1 0xE5 SHL DUP2 MSTORE PUSH1 0x20 PUSH1 0x4 DUP3 ADD MSTORE PUSH1 0xD PUSH1 0x24 DUP3 ADD MSTORE PUSH13 0x1499599D5B990819985A5B1959 PUSH1 0x9A SHL PUSH1 0x44 DUP3 ADD MSTORE PUSH1 0x64 SWAP1 REVERT JUMPDEST PUSH2 0x1E3B SWAP1 CALLVALUE PUSH2 0x122B JUMP JUMPDEST PUSH2 0x1E45 PUSH1 0x0 PUSH2 0x424 JUMP JUMPDEST DUP2 GT PUSH2 0x1E4E JUMPI POP JUMP JUMPDEST PUSH1 0x0 DUP1 PUSH2 0x2FB SWAP3 PUSH2 0x1E5C CALLER SWAP1 JUMP JUMPDEST SWAP1 PUSH2 0x1E66 PUSH1 0x40 MLOAD SWAP1 JUMP JUMPDEST SWAP1 DUP2 DUP1 SUB SWAP3 GAS CALL PUSH2 0x1E75 PUSH2 0xFC9 JUMP JUMPDEST POP PUSH2 0x1DF5 JUMP JUMPDEST PUSH2 0x360 SWAP3 SWAP2 SWAP1 PUSH2 0x2581 JUMP JUMPDEST SWAP1 DUP1 DUP3 LT ISZERO PUSH2 0x1E93 JUMPI POP SWAP1 JUMP JUMPDEST SWAP1 POP SWAP1 JUMP JUMPDEST PUSH2 0x1EA0 PUSH2 0x188D JUMP JUMPDEST CALLER SWAP1 PUSH2 0x1EAE PUSH2 0x1A09 DUP4 PUSH2 0x39A JUMP JUMPDEST SUB PUSH2 0x1EB6 JUMPI POP JUMP JUMPDEST PUSH4 0x118CDAA7 PUSH1 0xE0 SHL PUSH1 0x0 SWAP1 DUP2 MSTORE SWAP1 PUSH2 0x1394 SWAP1 PUSH1 0x4 PUSH2 0x3C6 JUMP JUMPDEST PUSH2 0x1EF5 PUSH2 0x1EEF PUSH2 0x1EDF PUSH1 0xA PUSH2 0xFAD JUMP JUMPDEST PUSH2 0x1EEA DUP5 PUSH1 0xA PUSH2 0x142D JUMP JUMPDEST PUSH2 0xF84 JUMP JUMPDEST SWAP2 PUSH2 0xF84 JUMP JUMPDEST SWAP1 PUSH32 0x8BE0079C531659141344CD1FD0A4F28419497F9722A3DAAFE3B4186F6B6457E0 PUSH2 0x1F20 PUSH1 0x40 MLOAD SWAP1 JUMP JUMPDEST DUP1 DUP1 JUMPDEST SUB SWAP1 LOG3 JUMP JUMPDEST SWAP1 PUSH1 0xFF SWAP1 PUSH2 0xF42 JUMP JUMPDEST SWAP1 PUSH2 0x1F41 PUSH2 0x360 PUSH2 0xF63 SWAP3 ISZERO ISZERO SWAP1 JUMP JUMPDEST DUP3 SLOAD PUSH2 0x1F28 JUMP JUMPDEST PUSH1 0x0 PUSH2 0x1F56 PUSH2 0x1405 DUP3 PUSH2 0x126C JUMP JUMPDEST PUSH2 0x1F5F DUP5 PUSH2 0x39A JUMP JUMPDEST EQ PUSH2 0x1FB8 JUMPI POP PUSH2 0x1F23 PUSH2 0x1FAE PUSH2 0x1FA8 DUP4 PUSH2 0x1EEA DUP8 PUSH2 0x1FA3 DUP9 PUSH2 0x1CF4 PUSH32 0x17307EAB39AB6107E8899845AD3D59BD9653F200F220920489CA2B5937696C31 SWAP10 PUSH1 0x5 PUSH2 0x1342 JUMP JUMPDEST PUSH2 0x1F31 JUMP JUMPDEST SWAP4 PUSH2 0xF84 JUMP JUMPDEST SWAP4 PUSH2 0x382 PUSH1 0x40 MLOAD SWAP1 JUMP JUMPDEST PUSH4 0xB611743 PUSH1 0xE3 SHL DUP2 MSTORE DUP1 PUSH2 0xE7B DUP5 PUSH1 0x4 DUP4 ADD PUSH2 0x3C6 JUMP JUMPDEST PUSH2 0x1CC9 PUSH2 0x360 PUSH2 0x360 SWAP3 SWAP1 JUMP JUMPDEST PUSH2 0x360 SWAP1 PUSH2 0x1FF1 PUSH2 0xEC9 PUSH2 0x360 SWAP5 PUSH1 0xFF AND SWAP1 JUMP JUMPDEST SWAP1 SHR SWAP1 JUMP JUMPDEST PUSH2 0x360 SWAP1 PUSH2 0x2007 PUSH2 0xEC9 PUSH2 0x360 SWAP5 SWAP1 JUMP JUMPDEST SWAP1 SHL SWAP1 JUMP JUMPDEST PUSH2 0x2016 PUSH1 0x0 PUSH2 0x424 JUMP JUMPDEST DUP2 EQ PUSH2 0x20FC JUMPI PUSH1 0x1 PUSH2 0x2027 DUP3 PUSH2 0x261A JUMP JUMPDEST PUSH2 0x2030 DUP3 PUSH2 0x1FD0 JUMP JUMPDEST DUP1 DUP1 DUP1 DUP1 DUP1 SWAP7 PUSH2 0x2041 DUP3 DUP1 SWAP9 PUSH2 0x1FDD JUMP JUMPDEST SWAP1 PUSH2 0x204B SWAP1 PUSH2 0x424 JUMP JUMPDEST SWAP1 PUSH2 0x2055 SWAP2 PUSH2 0x1FF6 JUMP JUMPDEST PUSH2 0x205F DUP2 DUP11 PUSH2 0xEC3 JUMP JUMPDEST ADD SWAP1 PUSH2 0x206A SWAP2 PUSH2 0x1FDD JUMP JUMPDEST PUSH2 0x2074 DUP2 DUP10 PUSH2 0xEC3 JUMP JUMPDEST ADD SWAP1 PUSH2 0x207F SWAP2 PUSH2 0x1FDD JUMP JUMPDEST PUSH2 0x2089 DUP2 DUP9 PUSH2 0xEC3 JUMP JUMPDEST ADD SWAP1 PUSH2 0x2094 SWAP2 PUSH2 0x1FDD JUMP JUMPDEST PUSH2 0x209E DUP2 DUP8 PUSH2 0xEC3 JUMP JUMPDEST ADD SWAP1 PUSH2 0x20A9 SWAP2 PUSH2 0x1FDD JUMP JUMPDEST PUSH2 0x20B3 DUP2 DUP7 PUSH2 0xEC3 JUMP JUMPDEST ADD SWAP1 PUSH2 0x20BE SWAP2 PUSH2 0x1FDD JUMP JUMPDEST PUSH2 0x20C8 DUP2 DUP6 PUSH2 0xEC3 JUMP JUMPDEST ADD SWAP1 PUSH2 0x20D3 SWAP2 PUSH2 0x1FDD JUMP JUMPDEST PUSH2 0x20DD DUP2 DUP5 PUSH2 0xEC3 JUMP JUMPDEST ADD SWAP1 PUSH2 0x20E8 SWAP2 PUSH2 0x1FDD JUMP JUMPDEST SWAP1 DUP2 PUSH2 0x20F3 SWAP2 PUSH2 0xEC3 JUMP JUMPDEST PUSH2 0x360 SWAP2 PUSH2 0x1E86 JUMP JUMPDEST POP PUSH2 0x360 PUSH1 0x0 PUSH2 0x424 JUMP JUMPDEST SWAP1 POP MLOAD SWAP1 PUSH2 0x2FB DUP3 PUSH2 0x32C JUMP JUMPDEST SWAP1 PUSH1 0x20 DUP3 DUP3 SUB SLT PUSH2 0x2F2 JUMPI PUSH2 0x360 SWAP2 PUSH2 0x2107 JUMP JUMPDEST SWAP1 SWAP3 PUSH2 0x2159 SWAP1 PUSH2 0x2152 PUSH2 0x360 SWAP7 SWAP5 PUSH2 0x2148 PUSH1 0x80 DUP7 ADD SWAP8 PUSH1 0x0 DUP8 ADD SWAP1 PUSH2 0x3BD JUMP JUMPDEST PUSH1 0x20 DUP6 ADD SWAP1 PUSH2 0x3BD JUMP JUMPDEST PUSH1 0x40 DUP4 ADD MSTORE JUMP JUMPDEST PUSH1 0x60 DUP2 DUP5 SUB SWAP2 ADD MSTORE PUSH2 0x4B2 JUMP JUMPDEST PUSH1 0x0 SWAP4 SWAP2 SWAP3 DUP4 EXTCODESIZE PUSH2 0x2179 PUSH2 0xEC9 DUP8 PUSH2 0x424 JUMP JUMPDEST GT PUSH2 0x2186 JUMPI JUMPDEST POP POP POP POP POP JUMP JUMPDEST PUSH1 0x20 SWAP2 PUSH2 0x2195 PUSH2 0x1EEA DUP7 PUSH2 0xF84 JUMP JUMPDEST SWAP1 DUP7 CALLER PUSH2 0x21BE PUSH2 0x21A4 PUSH1 0x40 MLOAD SWAP1 JUMP JUMPDEST SWAP8 DUP9 SWAP7 DUP8 SWAP6 DUP7 SWAP5 PUSH4 0xA85BD01 PUSH1 0xE1 SHL DUP7 MSTORE PUSH1 0x4 DUP7 ADD PUSH2 0x2128 JUMP JUMPDEST SUB SWAP3 GAS CALL PUSH1 0x0 SWAP2 DUP2 PUSH2 0x2252 JUMPI JUMPDEST POP PUSH2 0x221D JUMPI POP PUSH2 0x21E0 JUMP JUMPDEST CODESIZE DUP1 DUP1 DUP1 DUP1 PUSH2 0x217F JUMP JUMPDEST PUSH2 0x21E8 PUSH2 0xFC9 JUMP JUMPDEST DUP1 MLOAD PUSH2 0x21F6 PUSH2 0xEC9 DUP6 PUSH2 0x424 JUMP JUMPDEST SUB PUSH2 0x2215 JUMPI POP PUSH4 0x32505749 PUSH1 0xE1 SHL DUP3 MSTORE DUP2 SWAP1 PUSH2 0xE7B SWAP1 PUSH1 0x4 DUP4 ADD PUSH2 0x3C6 JUMP JUMPDEST DUP1 MLOAD SWAP1 PUSH1 0x20 ADD REVERT JUMPDEST PUSH2 0x222D PUSH4 0xA85BD01 PUSH1 0xE1 SHL PUSH2 0xDF6 JUMP JUMPDEST SUB PUSH2 0x2239 JUMPI POP POP PUSH2 0x21D6 JUMP JUMPDEST PUSH4 0x32505749 PUSH1 0xE1 SHL DUP3 MSTORE DUP2 SWAP1 PUSH2 0xE7B SWAP1 PUSH1 0x4 DUP4 ADD PUSH2 0x3C6 JUMP JUMPDEST PUSH2 0x2275 SWAP2 SWAP3 POP PUSH1 0x20 RETURNDATASIZE PUSH1 0x20 GT PUSH2 0x227C JUMPI JUMPDEST PUSH2 0x226D DUP2 DUP4 PUSH2 0x64E JUMP JUMPDEST DUP2 ADD SWAP1 PUSH2 0x2114 JUMP JUMPDEST SWAP1 CODESIZE PUSH2 0x21CB JUMP JUMPDEST POP RETURNDATASIZE PUSH2 0x2263 JUMP JUMPDEST SWAP2 SWAP3 SWAP1 PUSH1 0x0 SWAP3 PUSH2 0x2292 DUP5 PUSH2 0x126C JUMP JUMPDEST SWAP2 PUSH2 0x229C DUP4 PUSH2 0x39A JUMP JUMPDEST PUSH2 0x22A5 DUP3 PUSH2 0x39A JUMP JUMPDEST EQ PUSH2 0x22EF JUMPI PUSH2 0x22B8 DUP4 DUP8 PUSH2 0x22BE SWAP4 PUSH2 0x1E7B JUMP JUMPDEST SWAP3 PUSH2 0x39A JUMP JUMPDEST PUSH2 0x22C7 DUP4 PUSH2 0x39A JUMP JUMPDEST SUB PUSH2 0x22E2 JUMPI PUSH4 0x7E273289 PUSH1 0xE0 SHL DUP5 MSTORE PUSH1 0x4 DUP5 ADD DUP6 SWAP1 MSTORE PUSH1 0x24 DUP5 REVERT JUMPDEST PUSH2 0x12DF DUP2 SWAP6 SWAP3 SWAP4 SWAP6 PUSH2 0x39A JUMP JUMPDEST PUSH4 0x32505749 PUSH1 0xE1 SHL DUP6 MSTORE DUP5 DUP1 PUSH2 0xE7B DUP6 PUSH1 0x4 DUP4 ADD PUSH2 0x3C6 JUMP JUMPDEST PUSH4 0x4E487B71 PUSH1 0xE0 SHL PUSH1 0x0 MSTORE PUSH1 0x31 PUSH1 0x4 MSTORE PUSH1 0x24 PUSH1 0x0 REVERT JUMPDEST DUP1 SLOAD DUP1 ISZERO PUSH2 0x2341 JUMPI PUSH1 0x0 NOT ADD SWAP1 PUSH2 0x233E PUSH2 0x2338 DUP4 DUP4 PUSH2 0xC24 JUMP JUMPDEST SWAP1 PUSH2 0x1569 JUMP JUMPDEST SSTORE JUMP JUMPDEST PUSH2 0x2308 JUMP JUMPDEST PUSH1 0x0 PUSH2 0x23A8 PUSH2 0x2FB SWAP3 PUSH1 0x11 PUSH2 0x1371 PUSH2 0x23A3 PUSH2 0x2364 PUSH2 0x1376 DUP6 DUP6 PUSH2 0x431 JUMP JUMPDEST PUSH2 0x360 PUSH1 0x10 SWAP2 PUSH2 0x239E PUSH2 0x2384 PUSH2 0xC64 PUSH2 0x237E PUSH2 0x14AB DUP8 SLOAD SWAP1 JUMP JUMPDEST DUP7 PUSH2 0xC24 JUMP JUMPDEST PUSH2 0x2398 DUP2 PUSH2 0x2392 DUP6 DUP9 PUSH2 0xC24 JUMP JUMPDEST SWAP1 PUSH2 0x1550 JUMP JUMPDEST DUP8 PUSH2 0x431 JUMP JUMPDEST PUSH2 0xF4C JUMP JUMPDEST PUSH2 0x231E JUMP JUMPDEST PUSH2 0x1569 JUMP JUMPDEST SWAP1 DUP2 SLOAD SWAP2 PUSH9 0x10000000000000000 DUP4 LT ISZERO PUSH2 0x670 JUMPI DUP3 PUSH2 0x2392 SWAP2 PUSH1 0x1 PUSH2 0x2FB SWAP6 ADD DUP2 SSTORE PUSH2 0xC24 JUMP JUMPDEST PUSH2 0x2FB SWAP1 PUSH2 0x23E4 DUP2 PUSH1 0x10 PUSH2 0x23AD JUMP JUMPDEST PUSH2 0x239E PUSH2 0x23F3 PUSH2 0x14AB PUSH1 0x10 SLOAD SWAP1 JUMP JUMPDEST SWAP2 PUSH1 0x11 PUSH2 0x431 JUMP JUMPDEST PUSH4 0x780E9D63 PUSH1 0xE0 SHL PUSH1 0x1 PUSH1 0x1 PUSH1 0xE0 SHL SUB NOT DUP3 AND EQ SWAP1 DUP2 ISZERO PUSH2 0x241A JUMPI POP SWAP1 JUMP JUMPDEST PUSH2 0x360 SWAP2 POP PUSH2 0x27CC JUMP JUMPDEST PUSH2 0x1DD1 PUSH2 0x360 SWAP2 PUSH2 0x2433 PUSH1 0x0 SWAP1 JUMP JUMPDEST POP PUSH1 0x2 PUSH2 0x431 JUMP JUMPDEST SWAP3 SWAP2 SWAP1 SWAP2 DUP1 DUP2 ISZERO PUSH2 0x2549 JUMPI JUMPDEST PUSH2 0x2462 JUMPI JUMPDEST POP POP SWAP1 PUSH2 0x245D PUSH2 0x2FB SWAP3 PUSH1 0x4 PUSH2 0x431 JUMP JUMPDEST PUSH2 0x142D JUMP JUMPDEST PUSH2 0x246B DUP4 PUSH2 0x1D7A JUMP JUMPDEST SWAP2 PUSH1 0x0 SWAP1 PUSH2 0x247B PUSH2 0x1405 DUP4 PUSH2 0x126C JUMP JUMPDEST PUSH2 0x2484 DUP3 PUSH2 0x39A JUMP JUMPDEST EQ ISZERO DUP1 PUSH2 0x252F JUMPI JUMPDEST DUP1 PUSH2 0x2518 JUMPI JUMPDEST PUSH2 0x24FF JUMPI POP POP SWAP2 PUSH2 0x245D SWAP2 PUSH2 0x2FB SWAP5 SWAP4 PUSH2 0x24AF JUMPI JUMPDEST POP SWAP2 SWAP3 PUSH2 0x244C JUMP JUMPDEST PUSH2 0x24B8 SWAP1 PUSH2 0xF84 JUMP JUMPDEST PUSH2 0x24C1 DUP5 PUSH2 0xF84 JUMP JUMPDEST PUSH2 0x24CA DUP4 PUSH2 0x424 JUMP JUMPDEST SWAP2 PUSH32 0x8C5BE1E5EBEC7D5BD14F71427D1E84F3DD0314C0F7B2291E5B200AC8C7C3B925 PUSH2 0x24F5 PUSH1 0x40 MLOAD SWAP1 JUMP JUMPDEST PUSH1 0x0 SWAP1 LOG4 CODESIZE PUSH2 0x24A7 JUMP JUMPDEST PUSH4 0xA9FBF51F PUSH1 0xE0 SHL DUP3 MSTORE DUP2 SWAP1 PUSH2 0xE7B SWAP1 PUSH1 0x4 DUP4 ADD PUSH2 0x3C6 JUMP JUMPDEST POP PUSH2 0x252A PUSH2 0x2526 DUP3 DUP7 PUSH2 0x1CD9 JUMP JUMPDEST ISZERO SWAP1 JUMP JUMPDEST PUSH2 0x2492 JUMP JUMPDEST POP PUSH2 0x2539 DUP2 PUSH2 0x39A JUMP JUMPDEST PUSH2 0x2542 DUP6 PUSH2 0x39A JUMP JUMPDEST EQ ISZERO PUSH2 0x248C JUMP JUMPDEST POP PUSH2 0x2557 PUSH2 0x1405 PUSH1 0x0 PUSH2 0x126C JUMP JUMPDEST PUSH2 0x2560 DUP4 PUSH2 0x39A JUMP JUMPDEST EQ ISZERO PUSH2 0x2447 JUMP JUMPDEST SWAP1 PUSH2 0x2FB SWAP3 SWAP2 PUSH2 0x2577 DUP3 DUP3 PUSH2 0x2817 JUMP JUMPDEST PUSH2 0x1977 PUSH1 0x0 PUSH2 0x126C JUMP JUMPDEST SWAP1 SWAP2 PUSH2 0x258E SWAP1 DUP4 DUP4 PUSH2 0x288D JUMP JUMPDEST SWAP2 PUSH2 0x25BC PUSH2 0x259C PUSH1 0x0 PUSH2 0x126C JUMP JUMPDEST PUSH2 0x25A5 DUP2 PUSH2 0x39A JUMP JUMPDEST PUSH2 0x25AE DUP7 PUSH2 0x39A JUMP JUMPDEST SUB PUSH2 0x25F9 JUMPI PUSH2 0x1405 DUP4 PUSH2 0x2A3C JUMP JUMPDEST PUSH2 0x25C5 DUP4 PUSH2 0x39A JUMP JUMPDEST SUB PUSH2 0x25D4 JUMPI PUSH2 0x360 SWAP2 POP PUSH2 0x2A8D JUMP JUMPDEST PUSH2 0x25DD DUP3 PUSH2 0x39A JUMP JUMPDEST PUSH2 0x25E6 DUP5 PUSH2 0x39A JUMP JUMPDEST SUB PUSH2 0x25F0 JUMPI POP POP SWAP1 JUMP JUMPDEST PUSH2 0x360 SWAP2 PUSH2 0x2A5E JUMP JUMPDEST PUSH2 0x2602 DUP5 PUSH2 0x39A JUMP JUMPDEST PUSH2 0x260B DUP7 PUSH2 0x39A JUMP JUMPDEST EQ PUSH2 0x39A JUMPI PUSH2 0x1405 DUP4 DUP7 PUSH2 0x29BB JUMP JUMPDEST PUSH1 0x0 PUSH2 0x2715 PUSH2 0xEC9 PUSH2 0x270F PUSH2 0x262E DUP5 PUSH2 0x424 JUMP JUMPDEST SWAP5 PUSH2 0x2642 PUSH2 0x263C PUSH1 0x80 PUSH2 0x1FD0 JUMP JUMPDEST DUP3 PUSH2 0x1FDD JUMP JUMPDEST DUP7 DUP2 GT PUSH2 0x27B5 JUMPI JUMPDEST POP PUSH2 0x2658 PUSH2 0x263C PUSH1 0x40 PUSH2 0x1FD0 JUMP JUMPDEST PUSH2 0x2661 DUP7 PUSH2 0x424 JUMP JUMPDEST DUP2 GT PUSH2 0x279E JUMPI JUMPDEST POP PUSH2 0x2676 PUSH2 0x263C PUSH1 0x20 PUSH2 0x1FD0 JUMP JUMPDEST PUSH2 0x267F DUP7 PUSH2 0x424 JUMP JUMPDEST DUP2 GT PUSH2 0x2787 JUMPI JUMPDEST POP PUSH2 0x2694 PUSH2 0x263C PUSH1 0x10 PUSH2 0x1FD0 JUMP JUMPDEST PUSH2 0x269D DUP7 PUSH2 0x424 JUMP JUMPDEST DUP2 GT PUSH2 0x2770 JUMPI JUMPDEST POP PUSH2 0x26B2 PUSH2 0x263C PUSH1 0x8 PUSH2 0x1FD0 JUMP JUMPDEST PUSH2 0x26BB DUP7 PUSH2 0x424 JUMP JUMPDEST DUP2 GT PUSH2 0x2759 JUMPI JUMPDEST POP PUSH2 0x26D0 PUSH2 0x263C PUSH1 0x4 PUSH2 0x1FD0 JUMP JUMPDEST PUSH2 0x26D9 DUP7 PUSH2 0x424 JUMP JUMPDEST DUP2 GT PUSH2 0x2742 JUMPI JUMPDEST POP PUSH2 0x26EE PUSH2 0x263C PUSH1 0x2 PUSH2 0x1FD0 JUMP JUMPDEST PUSH2 0x26F7 DUP7 PUSH2 0x424 JUMP JUMPDEST DUP2 GT PUSH2 0x272B JUMPI JUMPDEST POP PUSH2 0x2709 PUSH1 0x1 PUSH2 0x1FD0 JUMP JUMPDEST SWAP1 PUSH2 0x1FDD JUMP JUMPDEST SWAP3 PUSH2 0x424 JUMP JUMPDEST GT PUSH2 0x271D JUMPI SWAP1 JUMP JUMPDEST PUSH2 0x360 SWAP1 PUSH2 0x4E6 PUSH1 0x1 PUSH2 0x424 JUMP JUMPDEST PUSH2 0x273B SWAP2 POP SWAP6 PUSH2 0x4E6 PUSH1 0x2 PUSH2 0x424 JUMP JUMPDEST SWAP5 CODESIZE PUSH2 0x26FE JUMP JUMPDEST PUSH2 0x2752 SWAP2 POP SWAP6 PUSH2 0x4E6 PUSH1 0x4 PUSH2 0x424 JUMP JUMPDEST SWAP5 CODESIZE PUSH2 0x26E0 JUMP JUMPDEST PUSH2 0x2769 SWAP2 POP SWAP6 PUSH2 0x4E6 PUSH1 0x8 PUSH2 0x424 JUMP JUMPDEST SWAP5 CODESIZE PUSH2 0x26C2 JUMP JUMPDEST PUSH2 0x2780 SWAP2 POP SWAP6 PUSH2 0x4E6 PUSH1 0x10 PUSH2 0x424 JUMP JUMPDEST SWAP5 CODESIZE PUSH2 0x26A4 JUMP JUMPDEST PUSH2 0x2797 SWAP2 POP SWAP6 PUSH2 0x4E6 PUSH1 0x20 PUSH2 0x424 JUMP JUMPDEST SWAP5 CODESIZE PUSH2 0x2686 JUMP JUMPDEST PUSH2 0x27AE SWAP2 POP SWAP6 PUSH2 0x4E6 PUSH1 0x40 PUSH2 0x424 JUMP JUMPDEST SWAP5 CODESIZE PUSH2 0x2668 JUMP JUMPDEST PUSH2 0x27C5 SWAP2 POP SWAP6 PUSH2 0x4E6 PUSH1 0x80 PUSH2 0x424 JUMP JUMPDEST SWAP5 CODESIZE PUSH2 0x264A JUMP JUMPDEST PUSH4 0x80AC58CD PUSH1 0xE0 SHL PUSH1 0x1 PUSH1 0x1 PUSH1 0xE0 SHL SUB NOT DUP3 AND EQ SWAP1 DUP2 ISZERO PUSH2 0x27FC JUMPI JUMPDEST DUP2 ISZERO PUSH2 0x27F2 JUMPI POP SWAP1 JUMP JUMPDEST PUSH2 0x360 SWAP2 POP PUSH2 0x2ADB JUMP JUMPDEST PUSH1 0x1 PUSH1 0x1 PUSH1 0xE0 SHL SUB NOT DUP2 AND PUSH4 0x5B5E139F PUSH1 0xE0 SHL EQ SWAP2 POP PUSH2 0x27E8 JUMP JUMPDEST PUSH1 0x0 SWAP2 PUSH2 0x2823 DUP4 PUSH2 0x126C JUMP JUMPDEST SWAP2 PUSH2 0x282D DUP4 PUSH2 0x39A JUMP JUMPDEST PUSH2 0x2836 DUP3 PUSH2 0x39A JUMP JUMPDEST EQ PUSH2 0x2874 JUMPI PUSH2 0x2846 SWAP2 DUP4 SWAP2 PUSH2 0x1E7B JUMP JUMPDEST PUSH2 0x2852 PUSH2 0x1A09 DUP4 PUSH2 0x39A JUMP JUMPDEST SUB PUSH2 0x285B JUMPI POP POP JUMP JUMPDEST PUSH4 0x39E35637 PUSH1 0xE1 SHL DUP3 MSTORE DUP2 SWAP1 PUSH2 0xE7B SWAP1 PUSH1 0x4 DUP4 ADD PUSH2 0x3C6 JUMP JUMPDEST PUSH4 0x32505749 PUSH1 0xE1 SHL DUP5 MSTORE DUP4 DUP1 PUSH2 0xE7B DUP6 PUSH1 0x4 DUP4 ADD PUSH2 0x3C6 JUMP JUMPDEST SWAP1 PUSH2 0x28E0 PUSH2 0x289A DUP3 PUSH2 0x2424 JUMP JUMPDEST SWAP4 PUSH1 0x0 PUSH2 0x28A6 DUP2 PUSH2 0x126C JUMP JUMPDEST SWAP2 DUP5 PUSH2 0x28B1 DUP5 PUSH2 0x39A JUMP JUMPDEST PUSH2 0x28BA DUP4 PUSH2 0x39A JUMP JUMPDEST SUB PUSH2 0x29AA JUMPI JUMPDEST POP POP PUSH2 0x28CB DUP3 PUSH2 0x39A JUMP JUMPDEST PUSH2 0x28D4 DUP8 PUSH2 0x39A JUMP JUMPDEST SUB PUSH2 0x296F JUMPI JUMPDEST POP PUSH2 0x39A JUMP JUMPDEST PUSH2 0x28E9 DUP4 PUSH2 0x39A JUMP JUMPDEST SUB PUSH2 0x293F JUMPI JUMPDEST PUSH2 0x28FE DUP3 PUSH2 0x245D DUP4 PUSH1 0x2 PUSH2 0x431 JUMP JUMPDEST PUSH2 0x290D PUSH2 0x1A7E PUSH2 0x1FA8 DUP6 PUSH2 0xF84 JUMP JUMPDEST SWAP2 PUSH32 0xDDF252AD1BE2C89B69C2B068FC378DAA952BA7F163C4A11628F55A4DF523B3EF PUSH2 0x2938 PUSH1 0x40 MLOAD SWAP1 JUMP JUMPDEST PUSH1 0x0 SWAP1 LOG4 SWAP1 JUMP JUMPDEST PUSH2 0x296A PUSH2 0x294C PUSH1 0x1 PUSH2 0x424 JUMP JUMPDEST PUSH2 0x2964 PUSH2 0x295A DUP6 PUSH1 0x3 PUSH2 0x1342 JUMP JUMPDEST SWAP2 PUSH2 0x4E6 DUP4 PUSH2 0xDBD JUMP JUMPDEST SWAP1 PUSH2 0xF4C JUMP JUMPDEST PUSH2 0x28EF JUMP JUMPDEST PUSH2 0x297B SWAP1 DUP3 DUP6 DUP2 PUSH2 0x243B JUMP JUMPDEST PUSH2 0x29A4 PUSH2 0x2988 PUSH1 0x1 PUSH2 0x424 JUMP JUMPDEST PUSH2 0x2964 PUSH2 0x2996 DUP9 PUSH1 0x3 PUSH2 0x1342 JUMP JUMPDEST SWAP2 PUSH2 0x29A0 DUP4 PUSH2 0xDBD JUMP JUMPDEST SUB SWAP1 JUMP JUMPDEST CODESIZE PUSH2 0x28DA JUMP JUMPDEST PUSH2 0x29B4 SWAP2 DUP9 PUSH2 0x2AEB JUMP JUMPDEST CODESIZE DUP5 PUSH2 0x28C0 JUMP JUMPDEST PUSH2 0x23A8 PUSH2 0x2FB SWAP3 PUSH2 0x1371 PUSH1 0x0 SWAP4 PUSH2 0x29FA DUP6 PUSH2 0x23A8 PUSH2 0x29D8 DUP5 PUSH2 0x181D JUMP JUMPDEST SWAP6 PUSH1 0x7 DUP6 PUSH2 0x29E9 PUSH2 0x1376 DUP5 DUP5 PUSH2 0x431 JUMP JUMPDEST DUP10 DUP1 DUP3 SUB PUSH2 0x2A01 JUMPI JUMPDEST POP POP POP PUSH2 0x431 JUMP JUMPDEST PUSH1 0x6 PUSH2 0x1342 JUMP JUMPDEST PUSH2 0x1371 PUSH2 0x2A2E DUP5 PUSH2 0x239E DUP6 PUSH2 0x2A24 PUSH2 0x1376 PUSH2 0x239E SWAP8 PUSH2 0x1371 PUSH2 0x2A34 SWAP12 PUSH1 0x6 PUSH2 0x1342 JUMP JUMPDEST SWAP5 DUP6 SWAP4 PUSH1 0x6 PUSH2 0x1342 JUMP JUMPDEST DUP5 PUSH2 0x431 JUMP JUMPDEST DUP6 CODESIZE DUP10 PUSH2 0x29F2 JUMP JUMPDEST PUSH2 0x2FB SWAP1 PUSH2 0x2A57 PUSH2 0x2A4C PUSH1 0x8 SLOAD SWAP1 JUMP JUMPDEST PUSH2 0x239E DUP4 PUSH1 0x9 PUSH2 0x431 JUMP JUMPDEST PUSH1 0x8 PUSH2 0x23AD JUMP JUMPDEST PUSH2 0x239E DUP3 PUSH2 0x2A86 PUSH2 0x2FB SWAP5 PUSH2 0x239E PUSH2 0x1371 SWAP6 PUSH2 0x2A7C PUSH2 0x14AB DUP3 PUSH2 0x181D JUMP JUMPDEST SWAP7 DUP8 SWAP2 PUSH1 0x6 PUSH2 0x1342 JUMP JUMPDEST PUSH1 0x7 PUSH2 0x431 JUMP JUMPDEST PUSH2 0x23A3 PUSH2 0x2FB SWAP2 PUSH2 0x360 PUSH1 0x0 PUSH2 0x23A8 PUSH1 0x8 SWAP4 PUSH2 0x2AAA PUSH2 0x14AB DUP7 SLOAD SWAP1 JUMP JUMPDEST PUSH2 0x1371 PUSH1 0x9 SWAP2 PUSH2 0x239E PUSH2 0x2ACD PUSH2 0xC64 PUSH2 0x2AC6 PUSH2 0x1376 DUP9 DUP9 PUSH2 0x431 JUMP JUMPDEST SWAP4 DUP12 PUSH2 0xC24 JUMP JUMPDEST PUSH2 0x2A2E DUP2 PUSH2 0x2392 DUP6 DUP14 PUSH2 0xC24 JUMP JUMPDEST PUSH2 0xE04 PUSH4 0x1FFC9A7 PUSH1 0xE0 SHL PUSH2 0xDF6 JUMP JUMPDEST SWAP1 PUSH2 0x2AFA PUSH2 0x2526 DUP5 DUP4 DUP6 PUSH2 0x2B4B JUMP JUMPDEST PUSH2 0x2B03 JUMPI POP POP POP JUMP JUMPDEST PUSH1 0x0 SWAP3 DUP4 SWAP3 PUSH2 0x2B17 PUSH2 0x1A09 PUSH2 0x1405 DUP7 PUSH2 0x126C JUMP JUMPDEST SUB PUSH2 0x2B34 JUMPI PUSH4 0x7E273289 PUSH1 0xE0 SHL DUP4 MSTORE PUSH1 0x4 DUP4 ADD MSTORE POP PUSH1 0x24 DUP2 ADD SUB SWAP1 REVERT JUMPDEST PUSH4 0x177E802F PUSH1 0xE0 SHL DUP4 MSTORE PUSH2 0xE7B SWAP2 PUSH1 0x4 DUP5 ADD PUSH2 0x1327 JUMP JUMPDEST SWAP1 PUSH2 0x2B59 PUSH2 0x1405 PUSH1 0x0 PUSH2 0x126C JUMP JUMPDEST PUSH2 0x2B62 DUP3 PUSH2 0x39A JUMP JUMPDEST EQ ISZERO SWAP3 DUP4 PUSH2 0x2B71 JUMPI JUMPDEST POP POP POP SWAP1 JUMP JUMPDEST SWAP1 SWAP2 SWAP3 POP PUSH2 0x2B7E DUP3 PUSH2 0x39A JUMP JUMPDEST PUSH2 0x2B87 DUP5 PUSH2 0x39A JUMP JUMPDEST EQ SWAP3 DUP4 ISZERO PUSH2 0x2BBC JUMPI JUMPDEST POP DUP3 ISZERO PUSH2 0x2BA2 JUMPI JUMPDEST POP POP CODESIZE DUP1 DUP1 PUSH2 0x2B6B JUMP JUMPDEST PUSH2 0x2BB4 SWAP2 SWAP3 POP PUSH2 0x22B8 PUSH2 0x1A09 SWAP2 PUSH2 0x1DBA JUMP JUMPDEST EQ CODESIZE DUP1 PUSH2 0x2B98 JUMP JUMPDEST PUSH2 0x2BC9 SWAP2 SWAP4 POP DUP3 SWAP1 PUSH2 0x1CD9 JUMP JUMPDEST SWAP2 CODESIZE PUSH2 0x2B90 JUMP INVALID LOG2 PUSH5 0x6970667358 0x22 SLT KECCAK256 KECCAK256 0xC9 CALL PUSH1 0xC1 PUSH29 0xEC013D5A9BDBDFEF18392355B264F826D12896F55E131C3A2B4464736F PUSH13 0x634300081C0033A26469706673 PC 0x22 SLT KECCAK256 0xBC 0x2C BALANCE SELFDESTRUCT 0xF9 SSTORE 0x4C 0xC5 SWAP6 PUSH6 0xDDDD92D796A4 STOP SWAP13 PUSH3 0xA7C6F3 BALANCE 0xDD 0xE5 0xA6 SIGNEXTEND SUB SWAP8 PUSH19 0xCB7E64736F6C634300081C0033000000000000 "},"methodIdentifiers":{"calculateFLIPAddress(string,string,uint256,uint256,uint256)":"630ef1b1","createFLIP(string,string,uint256,uint256,uint256,string,string)":"6c20c1f3","registry()":"7b103999"}}}}}