{"src/core/BaseNFT.sol":{"BaseNFT":{"abi":[{"inputs":[{"internalType":"string","name":"_name","type":"string"},{"internalType":"string","name":"_symbol","type":"string"},{"internalType":"uint256","name":"_initialPrice","type":"uint256"},{"internalType":"uint256","name":"_maxSupply","type":"uint256"},{"internalType":"uint256","name":"_creatorFeePercent","type":"uint256"}],"stateMutability":"nonpayable","type":"constructor"},{"inputs":[],"name":"ERC721EnumerableForbiddenBatchMint","type":"error"},{"inputs":[{"internalType":"address","name":"sender","type":"address"},{"internalType":"uint256","name":"tokenId","type":"uint256"},{"internalType":"address","name":"owner","type":"address"}],"name":"ERC721IncorrectOwner","type":"error"},{"inputs":[{"internalType":"address","name":"operator","type":"address"},{"internalType":"uint256","name":"tokenId","type":"uint256"}],"name":"ERC721InsufficientApproval","type":"error"},{"inputs":[{"internalType":"address","name":"approver","type":"address"}],"name":"ERC721InvalidApprover","type":"error"},{"inputs":[{"internalType":"address","name":"operator","type":"address"}],"name":"ERC721InvalidOperator","type":"error"},{"inputs":[{"internalType":"address","name":"owner","type":"address"}],"name":"ERC721InvalidOwner","type":"error"},{"inputs":[{"internalType":"address","name":"receiver","type":"address"}],"name":"ERC721InvalidReceiver","type":"error"},{"inputs":[{"internalType":"address","name":"sender","type":"address"}],"name":"ERC721InvalidSender","type":"error"},{"inputs":[{"internalType":"uint256","name":"tokenId","type":"uint256"}],"name":"ERC721NonexistentToken","type":"error"},{"inputs":[{"internalType":"address","name":"owner","type":"address"},{"internalType":"uint256","name":"index","type":"uint256"}],"name":"ERC721OutOfBoundsIndex","type":"error"},{"inputs":[{"internalType":"address","name":"owner","type":"address"}],"name":"OwnableInvalidOwner","type":"error"},{"inputs":[{"internalType":"address","name":"account","type":"address"}],"name":"OwnableUnauthorizedAccount","type":"error"},{"anonymous":false,"inputs":[{"indexed":true,"internalType":"address","name":"owner","type":"address"},{"indexed":true,"internalType":"address","name":"approved","type":"address"},{"indexed":true,"internalType":"uint256","name":"tokenId","type":"uint256"}],"name":"Approval","type":"event"},{"anonymous":false,"inputs":[{"indexed":true,"internalType":"address","name":"owner","type":"address"},{"indexed":true,"internalType":"address","name":"operator","type":"address"},{"indexed":false,"internalType":"bool","name":"approved","type":"bool"}],"name":"ApprovalForAll","type":"event"},{"anonymous":false,"inputs":[{"indexed":true,"internalType":"address","name":"previousOwner","type":"address"},{"indexed":true,"internalType":"address","name":"newOwner","type":"address"}],"name":"OwnershipTransferred","type":"event"},{"anonymous":false,"inputs":[{"indexed":true,"internalType":"address","name":"from","type":"address"},{"indexed":true,"internalType":"address","name":"to","type":"address"},{"indexed":true,"internalType":"uint256","name":"tokenId","type":"uint256"}],"name":"Transfer","type":"event"},{"inputs":[{"internalType":"address","name":"to","type":"address"},{"internalType":"uint256","name":"tokenId","type":"uint256"}],"name":"approve","outputs":[],"stateMutability":"nonpayable","type":"function"},{"inputs":[{"internalType":"uint256","name":"","type":"uint256"}],"name":"availableTokens","outputs":[{"internalType":"uint256","name":"","type":"uint256"}],"stateMutability":"view","type":"function"},{"inputs":[{"internalType":"address","name":"owner","type":"address"}],"name":"balanceOf","outputs":[{"internalType":"uint256","name":"","type":"uint256"}],"stateMutability":"view","type":"function"},{"inputs":[],"name":"baseURI","outputs":[{"internalType":"string","name":"","type":"string"}],"stateMutability":"view","type":"function"},{"inputs":[],"name":"contractURI","outputs":[{"internalType":"string","name":"","type":"string"}],"stateMutability":"view","type":"function"},{"inputs":[],"name":"creator","outputs":[{"internalType":"address","name":"","type":"address"}],"stateMutability":"view","type":"function"},{"inputs":[],"name":"creatorFeePercent","outputs":[{"internalType":"uint256","name":"","type":"uint256"}],"stateMutability":"view","type":"function"},{"inputs":[],"name":"currentSupply","outputs":[{"internalType":"uint256","name":"","type":"uint256"}],"stateMutability":"view","type":"function"},{"inputs":[],"name":"getAllAvailableTokens","outputs":[{"internalType":"uint256[]","name":"","type":"uint256[]"}],"stateMutability":"view","type":"function"},{"inputs":[{"internalType":"uint256","name":"tokenId","type":"uint256"}],"name":"getApproved","outputs":[{"internalType":"address","name":"","type":"address"}],"stateMutability":"view","type":"function"},{"inputs":[{"internalType":"uint256","name":"index","type":"uint256"}],"name":"getAvailableTokenByIndex","outputs":[{"internalType":"uint256","name":"","type":"uint256"}],"stateMutability":"view","type":"function"},{"inputs":[],"name":"getAvailableTokensCount","outputs":[{"internalType":"uint256","name":"","type":"uint256"}],"stateMutability":"view","type":"function"},{"inputs":[{"internalType":"uint256","name":"start","type":"uint256"},{"internalType":"uint256","name":"limit","type":"uint256"}],"name":"getAvailableTokensPaginated","outputs":[{"internalType":"uint256[]","name":"","type":"uint256[]"}],"stateMutability":"view","type":"function"},{"inputs":[],"name":"initialPrice","outputs":[{"internalType":"uint256","name":"","type":"uint256"}],"stateMutability":"view","type":"function"},{"inputs":[{"internalType":"address","name":"owner","type":"address"},{"internalType":"address","name":"operator","type":"address"}],"name":"isApprovedForAll","outputs":[{"internalType":"bool","name":"","type":"bool"}],"stateMutability":"view","type":"function"},{"inputs":[],"name":"maxSupply","outputs":[{"internalType":"uint256","name":"","type":"uint256"}],"stateMutability":"view","type":"function"},{"inputs":[],"name":"name","outputs":[{"internalType":"string","name":"","type":"string"}],"stateMutability":"view","type":"function"},{"inputs":[{"internalType":"address","name":"","type":"address"},{"internalType":"address","name":"","type":"address"},{"internalType":"uint256","name":"","type":"uint256"},{"internalType":"bytes","name":"","type":"bytes"}],"name":"onERC721Received","outputs":[{"internalType":"bytes4","name":"","type":"bytes4"}],"stateMutability":"nonpayable","type":"function"},{"inputs":[],"name":"owner","outputs":[{"internalType":"address","name":"","type":"address"}],"stateMutability":"view","type":"function"},{"inputs":[{"internalType":"uint256","name":"tokenId","type":"uint256"}],"name":"ownerOf","outputs":[{"internalType":"address","name":"","type":"address"}],"stateMutability":"view","type":"function"},{"inputs":[],"name":"renounceOwnership","outputs":[],"stateMutability":"nonpayable","type":"function"},{"inputs":[{"internalType":"address","name":"from","type":"address"},{"internalType":"address","name":"to","type":"address"},{"internalType":"uint256","name":"tokenId","type":"uint256"}],"name":"safeTransferFrom","outputs":[],"stateMutability":"nonpayable","type":"function"},{"inputs":[{"internalType":"address","name":"from","type":"address"},{"internalType":"address","name":"to","type":"address"},{"internalType":"uint256","name":"tokenId","type":"uint256"},{"internalType":"bytes","name":"data","type":"bytes"}],"name":"safeTransferFrom","outputs":[],"stateMutability":"nonpayable","type":"function"},{"inputs":[{"internalType":"address","name":"operator","type":"address"},{"internalType":"bool","name":"approved","type":"bool"}],"name":"setApprovalForAll","outputs":[],"stateMutability":"nonpayable","type":"function"},{"inputs":[{"internalType":"string","name":"_baseURI","type":"string"}],"name":"setBaseURI","outputs":[],"stateMutability":"nonpayable","type":"function"},{"inputs":[{"internalType":"address","name":"_creator","type":"address"}],"name":"setCreator","outputs":[],"stateMutability":"nonpayable","type":"function"},{"inputs":[{"internalType":"bytes4","name":"interfaceId","type":"bytes4"}],"name":"supportsInterface","outputs":[{"internalType":"bool","name":"","type":"bool"}],"stateMutability":"view","type":"function"},{"inputs":[],"name":"symbol","outputs":[{"internalType":"string","name":"","type":"string"}],"stateMutability":"view","type":"function"},{"inputs":[{"internalType":"uint256","name":"index","type":"uint256"}],"name":"tokenByIndex","outputs":[{"internalType":"uint256","name":"","type":"uint256"}],"stateMutability":"view","type":"function"},{"inputs":[{"internalType":"uint256","name":"","type":"uint256"}],"name":"tokenIndex","outputs":[{"internalType":"uint256","name":"","type":"uint256"}],"stateMutability":"view","type":"function"},{"inputs":[{"internalType":"address","name":"owner","type":"address"},{"internalType":"uint256","name":"index","type":"uint256"}],"name":"tokenOfOwnerByIndex","outputs":[{"internalType":"uint256","name":"","type":"uint256"}],"stateMutability":"view","type":"function"},{"inputs":[{"internalType":"uint256","name":"tokenId","type":"uint256"}],"name":"tokenURI","outputs":[{"internalType":"string","name":"","type":"string"}],"stateMutability":"view","type":"function"},{"inputs":[],"name":"totalSupply","outputs":[{"internalType":"uint256","name":"","type":"uint256"}],"stateMutability":"view","type":"function"},{"inputs":[{"internalType":"address","name":"from","type":"address"},{"internalType":"address","name":"to","type":"address"},{"internalType":"uint256","name":"tokenId","type":"uint256"}],"name":"transferFrom","outputs":[],"stateMutability":"nonpayable","type":"function"},{"inputs":[{"internalType":"address","name":"newOwner","type":"address"}],"name":"transferOwnership","outputs":[],"stateMutability":"nonpayable","type":"function"}],"evm":{"bytecode":{"linkReferences":{},"object":"60806040523461002e5761001d610014610171565b93929092610196565b60405161227061054e823961227090f35b600080fd5b634e487b7160e01b600052604160045260246000fd5b90601f01601f191681019081106001600160401b0382111761006a57604052565b610033565b9061008361007c60405190565b9283610049565b565b6001600160401b03811161006a57602090601f01601f19160190565b60005b8381106100b45750506000910152565b81810151838201526020016100a4565b909291926100d96100d482610085565b61006f565b938185528183011161002e576100839160208501906100a1565b9080601f8301121561002e57815161010d926020016100c4565b90565b919060a08382031261002e5782516001600160401b03811161002e57816101389185016100f3565b60208401519093906001600160401b03811161002e578261015a9183016100f3565b604082015160608301516080909301519194909350565b61018f6127be803803806101848161006f565b928339810190610110565b9091929394565b91909293610083943392610235565b90600019905b9181191691161790565b61010d61010d61010d9290565b906101d261010d6101d9926101b5565b82546101a5565b9055565b906001600160a01b03906101ab565b61010d90610200906001600160a01b031682565b6001600160a01b031690565b61010d906101ec565b61010d9061020c565b9061022e61010d6101d992610215565b82546101dd565b61024b610260966102529394966102599661026b565b600b6101c2565b600c6101c2565b600d6101c2565b61008333600e61021e565b9061008392916102a9565b61020061010d61010d9290565b61010d90610276565b61029590610200565b9052565b602081019291610083919061028c565b916102b3916102fd565b60006102be81610283565b6102c781610200565b6102d084610200565b146102e0575050610083906104f6565b631e4fbdf760e01b825281906102f99060048301610299565b0390fd5b610083918291829182916104cd565b634e487b7160e01b600052602260045260246000fd5b9060016002830492168015610342575b602083101461033d57565b61030c565b91607f1691610332565b9160001960089290920291821b911b6101ab565b919061037161010d6101d9936101b5565b90835461034c565b61008391600091610360565b818110610390575050565b8061039e6000600193610379565b01610385565b9190601f81116103b357505050565b6103c561008393600052602060002090565b906020601f8401819004830193106103e7575b6020601f909101040190610385565b90915081906103d8565b906103fa815190565b906001600160401b03821161006a5761041d826104178554610322565b856103a4565b602090601f8311600114610458576101d992916000918361044d575b5050600019600883021c1916906002021790565b015190503880610439565b601f1983169161046d85600052602060002090565b9260005b8181106104ab57509160029391856001969410610492575b50505002019055565b01516000196008601f8516021c19169055388080610489565b91936020600181928787015181550195019201610471565b90610083916103f1565b906104dc6100839260006104c3565b60016104c3565b61010d90610200565b61010d90546104e3565b61051c610516610506600a6104ec565b61051184600a61021e565b610215565b91610215565b907f8be0079c531659141344cd1fd0a4f28419497f9722a3daafe3b4186f6b6457e061054760405190565b600090a356fe6080604052600436101561001257600080fd5b60003560e01c806301ffc9a71461024257806302d05d3f1461023d5780630583e9f81461023857806306fdde0314610233578063081812fc1461022e578063095ea7b31461022957806312ea5c7e14610224578063150b7a021461021f57806318160ddd1461021a5780631d0806ae1461021557806323b872dd146102105780632dcd52f21461020b5780632f745c59146102065780633f5160181461020157806342842e0e146101fc5780634f6ccce7146101f757806353613dd3146101f257806355f804b3146101ed5780635eba096b146101e85780636352211e146101e35780636c0360eb146101de57806370a08231146101d9578063715018a6146101d4578063771282f6146101cf5780638da5cb5b146101ca57806395d89b41146101c5578063a22cb465146101c0578063ad64d068146101bb578063b88d4fde146101b6578063c87b56dd146101b1578063cf6a68bf146101ac578063d5abeb01146101a7578063e8a3d485146101a2578063e985e9c51461019d5763f2fde38b0361025a57610bf7565b610bdb565b610b9d565b610b82565b610b5b565b610b40565b610b24565b610b09565b610a94565b610a41565b610a26565b610a0b565b6109e7565b6109cc565b6109b1565b61086f565b610853565b61081f565b6107de565b6107b7565b61079e565b610786565b610756565b61073a565b610721565b6106dd565b6106b5565b61067b565b610540565b6104bb565b610467565b610440565b6103a9565b61030b565b610289565b6001600160e01b031981165b0361025a57565b600080fd5b9050359061026c82610247565b565b9060208282031261025a576102829161025f565b90565b9052565b3461025a576102b76102a461029f36600461026e565b610c0f565b6040515b91829182901515815260200190565b0390f35b600091031261025a57565b610282916008021c5b6001600160a01b031690565b9061028291546102c6565b6102826000600e6102db565b610285906102cf565b60208101929161026c91906102f2565b3461025a5761031b3660046102bb565b6102b76103266102e6565b604051918291826102fb565b80610253565b9050359061026c82610332565b9060208282031261025a5761028291610338565b6102826102826102829290565b9061037090610359565b600052602052604060002090565b610282916008021c81565b90610282915461037e565b60006103a4610282926011610366565b610389565b3461025a576102b76103c46103bf366004610345565b610394565b6040519182918290815260200190565b60005b8381106103e75750506000910152565b81810151838201526020016103d7565b61041861042160209361042b9361040c815190565b80835293849260200190565b958691016103d4565b601f01601f191690565b0190565b6020808252610282929101906103f7565b3461025a576104503660046102bb565b6102b761045b610c21565b6040519182918261042f565b3461025a576102b761032661047d366004610345565b610c2b565b610253816102cf565b9050359061026c82610482565b919060408382031261025a576102829060206104b4828661048b565b9401610338565b3461025a576104d46104ce366004610498565b90610c3e565b604051005b906104f96104f26104e8845190565b8084529260200190565b9260200190565b9060005b81811061050a5750505090565b9091926105276105206001928651815260200190565b9460200190565b9291016104fd565b6020808252610282929101906104d9565b3461025a576105503660046102bb565b6102b761055b610cdf565b6040519182918261052f565b634e487b7160e01b600052604160045260246000fd5b90601f01601f1916810190811067ffffffffffffffff82111761059f57604052565b610567565b9061026c6105b160405190565b928361057d565b67ffffffffffffffff811161059f57602090601f01601f19160190565b90826000939282370152565b909291926105f66105f1826105b8565b6105a4565b938185528183011161025a5761026c9160208501906105d5565b9080601f8301121561025a57816020610282933591016105e1565b9060808282031261025a57610640818361048b565b9261064e826020850161048b565b9261065c8360408301610338565b92606082013567ffffffffffffffff811161025a576102829201610610565b3461025a576102b761069a61069136600461062b565b92919091610d2c565b604051918291826001600160e01b0319909116815260200190565b3461025a576106c53660046102bb565b6102b76103c460085490565b6102826000600b610389565b3461025a576106ed3660046102bb565b6102b76103c46106d1565b909160608284031261025a57610282610711848461048b565b9360406104b4826020870161048b565b3461025a576104d46107343660046106f8565b91610d8a565b3461025a5761074a3660046102bb565b6102b76103c460105490565b3461025a576102b76103c461076c366004610498565b90610e44565b9060208282031261025a576102829161048b565b3461025a576104d4610799366004610772565b610f64565b3461025a576104d46107b13660046106f8565b91610f91565b3461025a576102b76103c46107cd366004610345565b610fa5565b6102826000600d610389565b3461025a576107ee3660046102bb565b6102b76103c46107d2565b9060208282031261025a57813567ffffffffffffffff811161025a576102829201610610565b3461025a576104d46108323660046107f9565b611191565b919060408382031261025a576102829060206104b48286610338565b3461025a576102b761055b610869366004610837565b90611282565b3461025a576102b7610326610885366004610345565b611311565b634e487b7160e01b600052600060045260246000fd5b634e487b7160e01b600052602260045260246000fd5b90600160028304921680156108d6575b60208310146108d157565b6108a0565b91607f16916108c6565b805460009392916108fd6108f3836108b6565b8085529360200190565b916001811690811561094f575060011461091657505050565b6109299192939450600052602060002090565b916000925b81841061093b5750500190565b80548484015260209093019260010161092e565b92949550505060ff1916825215156020020190565b90610282916108e0565b9061026c6109889261097f60405190565b93848092610964565b038361057d565b906000106109a0576102829061096e565b61088a565b6102826000601261098f565b3461025a576109c13660046102bb565b6102b761045b6109a5565b3461025a576102b76103c46109e2366004610772565b61131a565b3461025a576109f73660046102bb565b6104d4611382565b6102826000600f610389565b3461025a57610a1b3660046102bb565b6102b76103c46109ff565b3461025a57610a363660046102bb565b6102b761032661138a565b3461025a57610a513660046102bb565b6102b761045b611394565b801515610253565b9050359061026c82610a5c565b919060408382031261025a57610282906020610a8d828661048b565b9401610a64565b3461025a576104d4610aa7366004610a71565b9061139e565b634e487b7160e01b600052603260045260246000fd5b8054821015610ae657610add600191600052602060002090565b91020190600090565b610aad565b60105481101561025a57610b03610282916010610ac3565b90610389565b3461025a576102b76103c4610b1f366004610345565b610aeb565b3461025a576104d4610b3736600461062b565b929190916113a9565b3461025a576102b761045b610b56366004610345565b6114c1565b3461025a576102b76103c4610b71366004610345565b611508565b6102826000600c610389565b3461025a57610b923660046102bb565b6102b76103c4610b76565b3461025a57610bad3660046102bb565b6102b761045b611562565b919060408382031261025a57610282906020610bd4828661048b565b940161048b565b3461025a576102b76102a4610bf1366004610bb8565b90611591565b3461025a576104d4610c0a366004610772565b61160a565b61028290611613565b6102829061096e565b6102826000610c18565b61028290610c388161163c565b5061167c565b61026c913391611698565b6102829081565b6102829054610c49565b90610c75610c696104e8845490565b92600052602060002090565b9060005b818110610c865750505090565b909192610caa610ca3600192610c9b87610c50565b815260200190565b9460010190565b929101610c79565b9061028291610c5a565b9061026c61098892610ccd60405190565b93848092610cb2565b61028290610cbc565b6102826010610cd6565b610282906102cf906001600160a01b031682565b61028290610ce9565b610d1f610d196102829263ffffffff1690565b60e01b90565b6001600160e01b03191690565b50505050610d38600090565b5061028263150b7a02610d06565b6102cf6102826102829290565b61028290610d46565b604090610d8361026c9496959396610d7c606084019860008501906102f2565b6020830152565b01906102f2565b9091600092610d9884610d53565b610da1816102cf565b610daa836102cf565b14610df95750610dbc908233916116a5565b91610dc6816102cf565b610dcf846102cf565b03610dda5750505050565b6364283d7b60e01b84528392610df592909160048501610d5c565b0390fd5b84610df58192633250574960e11b8352600483016102fb565b91602061026c929493610e2d604082019660008301906102f2565b0152565b61028290610cfd565b9061037090610e31565b610e506102828261131a565b821015610e735761028291610e69610e6e926006610e3a565b610366565b610c50565b63295f44f760e21b600090815291610e8c916004610e12565b036000fd5b610282906102cf565b6102829054610e91565b15610eab57565b60405162461bcd60e51b815260206004820152602360248201527f4f6e6c792063726561746f722063616e2063616c6c20746869732066756e637460448201526234b7b760e91b6064820152608490fd5b61026c90610f24610f15610f10600e610e9a565b6102cf565b610f1e336102cf565b14610ea4565b610f59565b906001600160a01b03905b9181191691161790565b90610f4e610282610f5592610e31565b8254610f29565b9055565b61026c90600e610f3e565b61026c90610efc565b90610f7a6105f1836105b8565b918252565b6102826000610f6d565b610282610f7f565b909161026c92610f9f610f89565b926113a9565b610fb161028260085490565b811015610fc657610b03610282916008610ac3565b610df5906000918291610fd883610d53565b63295f44f760e21b845260048401610e12565b61026c90610fff610f15610f10600e610e9a565b611186565b9160001960089290920291821b911b610f34565b9190611029610282610f5593610359565b908354611004565b61026c91600091611018565b818110611048575050565b806110566000600193611031565b0161103d565b9190601f811161106b57505050565b61107d61026c93600052602060002090565b906020601f84018190048301931061109f575b6020601f90910104019061103d565b9091508190611090565b906110b2815190565b9067ffffffffffffffff821161059f576110d6826110d085546108b6565b8561105c565b602090601f831160011461111157610f55929160009183611106575b5050600019600883021c1916906002021790565b0151905038806110f2565b601f1983169161112685600052602060002090565b9260005b8181106111645750916002939185600196941061114b575b50505002019055565b01516000196008601f8516021c19169055388080611142565b9193602060018192878701518155019501920161112a565b9061026c916110a9565b61026c90601261117c565b61026c90610feb565b156111a157565b60405162461bcd60e51b815260206004820152601960248201527f537461727420696e646578206f7574206f6620626f756e6473000000000000006044820152606490fd5b634e487b7160e01b600052601160045260246000fd5b9190820180921161120957565b6111e6565b9190820391821161120957565b67ffffffffffffffff811161059f5760208091020190565b90610f7a6105f18361121b565b369037565b9061026c61125b61125584611233565b9361121b565b601f190160208401611240565b90611271825190565b811015610ae6576020809102010190565b916112af6112a76010936112a161129a610282875490565b871061119a565b856111fc565b8354906116b0565b916112c26112bd858561120e565b611245565b91845b845b81101561130857611301816112fb6112e5610b036112c79588610ac3565b6112f86112f28b8561120e565b89611268565b52565b60010190565b90506112c5565b50935050905090565b6102829061163c565b600061132581610d53565b61132e816102cf565b611337846102cf565b1461134c575050610e6e610282916003610e3a565b6322718ad960e21b82528190610df590600483016102fb565b61136d6116c2565b61026c61026c61137d6000610d53565b6116ff565b61026c611365565b610282600a610e9a565b6102826001610c18565b61026c919033611778565b9061026c9392916113bb838383610d8a565b61187e565b61028290546108b6565b805460009392916113e16113dd836108b6565b9390565b916001811690811561143257506001146113fa57505050565b61140d9192939450600052602060002090565b6000905b83821061141e5750500190565b600181602092548486015201910190611411565b60ff191683525050811515909102019150565b61042b61145d92602092611457815190565b94859290565b938491016103d4565b916001611478600594611486946113ca565b602f60f81b81520190611445565b64173539b7b760d91b81520190565b6114b5929161026c916114a760405190565b948592602084019283611466565b9081038252038361057d565b6114ca8161163c565b506114d560126113c0565b6114e66114e26000610359565b9190565b11156114ff576114f8610282916119e0565b6012611495565b50610282610f89565b610b0361028291611517600090565b506010610ac3565b61152b906010926113ca565b6f17b1b7b63632b1ba34b7b7173539b7b760811b81520190565b9061026c61155260405190565b80936114b560208301918261151f565b61156c60126113c0565b6115796114e26000610359565b1115611589576102826012611545565b610282610f89565b610282916115ac6115b1926115a4600090565b506005610e3a565b610e3a565b5460ff1690565b61026c906115c46116c2565b60006115cf81610d53565b6115d8816102cf565b6115e1846102cf565b146115f157505061026c906116ff565b631e4fbdf760e01b82528190610df590600483016102fb565b61026c906115b8565b63780e9d6360e01b6001600160e01b0319821614908115611632575090565b6102829150611a73565b61164581611abe565b90600090611655610f1083610d53565b61165e846102cf565b1461166857505090565b637e27328960e01b82526004820152602490fd5b6116936102829161168b600090565b506004610366565b610e9a565b9160019161026c93611ad5565b610282929190611c01565b90808210156116bd575090565b905090565b6116ca61138a565b33906116de6116d8836102cf565b916102cf565b036116e65750565b63118cdaa760e01b600090815290610e8c9060046102fb565b61172561171f61170f600a610e9a565b61171a84600a610f3e565b610e31565b91610e31565b907f8be0079c531659141344cd1fd0a4f28419497f9722a3daafe3b4186f6b6457e061175060405190565b80805b0390a3565b9060ff90610f34565b90611771610282610f5592151590565b8254611758565b6000611786610f1082610d53565b61178f846102cf565b146117e857506117536117de6117d88361171a876117d3886115ac7f17307eab39ab6107e8899845ad3d59bd9653f200f220920489ca2b5937696c31996005610e3a565b611761565b93610e31565b936102a860405190565b630b61174360e31b815280610df584600483016102fb565b9050519061026c82610247565b9060208282031261025a5761028291611800565b90926118529061184b6102829694611841608086019760008701906102f2565b60208501906102f2565b6040830152565b60608184039101526103f7565b3d156118795761186e3d610f6d565b903d6000602084013e565b606090565b6000939192833b6118916114e287610359565b1161189e575b5050505050565b6020916118ad61171a86610e31565b9086336118d66118bc60405190565b97889687958694630a85bd0160e11b865260048601611821565b03925af160009181611974575b5061193557506118f8565b3880808080611897565b61190061185f565b805161190e6114e285610359565b0361192d5750633250574960e11b82528190610df590600483016102fb565b805190602001fd5b61194f630a85bd0160e11b5b916001600160e01b03191690565b0361195b5750506118ee565b633250574960e11b82528190610df590600483016102fb565b61199791925060203d60201161199e575b61198f818361057d565b81019061180d565b90386118e3565b503d611985565b9061026c61125b6119b584610f6d565b936105b8565b634e487b7160e01b600052601260045260246000fd5b81156119db570490565b6119bb565b6119e981611c9a565b906119fa60019261042b6001610359565b9180611a05846119a5565b936020018401905b611a18575b50505090565b8115611a6e57611a529060001901926f181899199a1a9b1b9c1cb0b131b232b360811b600a82061a8453611a4c600a610359565b906119d1565b9081611a616114e26000610359565b14611a6e57909181611a0d565b611a12565b6380ac58cd60e01b6001600160e01b0319821614908115611aa3575b8115611a99575090565b6102829150611e3c565b6001600160e01b03198116635b5e139f60e01b149150611a8f565b61169361028291611acd600090565b506002610366565b92919091808115611be3575b611afc575b505090611af761026c926004610366565b610f3e565b611b058361163c565b91600090611b15610f1083610d53565b611b1e826102cf565b141580611bc9575b80611bb2575b611b9957505091611af79161026c9493611b49575b509192611ae6565b611b5290610e31565b611b5b84610e31565b611b6483610359565b917f8c5be1e5ebec7d5bd14f71427d1e84f3dd0314c0f7b2291e5b200ac8c7c3b925611b8f60405190565b600090a438611b41565b63a9fbf51f60e01b82528190610df590600483016102fb565b50611bc4611bc08286611591565b1590565b611b2c565b50611bd3816102cf565b611bdc856102cf565b1415611b26565b50611bf1610f106000610d53565b611bfa836102cf565b1415611ae1565b9091611c0e908383611e71565b91611c3c611c1c6000610d53565b611c25816102cf565b611c2e866102cf565b03611c7957610f108361205e565b611c45836102cf565b03611c545761028291506120fd565b611c5d826102cf565b611c66846102cf565b03611c7057505090565b61028291612080565b611c82846102cf565b611c8b866102cf565b146102cf57610f108386611fa5565b611ca46000610359565b907a184f03e93ff9f4daa797ed6e38ed64bf6a1f010000000000000000611cca81610359565b821015611e1a575b506d04ee2d6d415b85acef8100000000611ceb81610359565b821015611df8575b50662386f26fc10000611d0581610359565b821015611dd6575b506305f5e100611d1c81610359565b821015611db4575b50612710611d3181610359565b821015611d92575b50611d446064610359565b811015611d70575b611d596114e2600a610359565b1015611d625790565b6102829061042b6001610359565b611d81611d8c91611a4c6064610359565b9161042b6002610359565b90611d4c565b611dad91611a4c611da292610359565b9161042b6004610359565b9038611d39565b611dcf91611a4c611dc492610359565b9161042b6008610359565b9038611d24565b611df191611a4c611de692610359565b9161042b6010610359565b9038611d0d565b611e1391611a4c611e0892610359565b9161042b6020610359565b9038611cf3565b611e3591611a4c611e2a92610359565b9161042b6040610359565b9038611cd2565b611e4c6301ffc9a760e01b611941565b1490565b9060001990610f34565b90611e6a610282610f5592610359565b8254611e50565b90611ec4611e7e82611abe565b936000611e8a81610d53565b9184611e95846102cf565b611e9e836102cf565b03611f94575b5050611eaf826102cf565b611eb8876102cf565b03611f59575b506102cf565b611ecd836102cf565b03611f29575b611ee282611af7836002610366565b611ef7611ef16117d885610e31565b91610359565b917fddf252ad1be2c89b69c2b068fc378daa952ba7f163c4a11628f55a4df523b3ef611f2260405190565b600090a490565b611f54611f366001610359565b611f4e611f44856003610e3a565b9161042b83610c50565b90611e5a565b611ed3565b611f6590828581611ad5565b611f8e611f726001610359565b611f4e611f80886003610e3a565b91611f8a83610c50565b0390565b38611ebe565b611f9e9188612150565b3884611ea4565b611fe461026c92610e69600093611fe985611fe4611fc28461131a565b95600785611fd3610e6e8484610366565b89808203611ff0575b505050610366565b611031565b6006610e3a565b610e696120228461201d85612013610e6e61201d97610e696120289b6006610e3a565b9485936006610e3a565b611e5a565b84610366565b853889611fdc565b908154916801000000000000000083101561059f578261205891600161026c95018155610ac3565b90611018565b61026c9061207961206e60085490565b61201d836009610366565b6008612030565b61201d826120b861026c9461201d610e69956120ae61209e8261131a565b6120a86001610359565b9061120e565b9687916006610e3a565b6007610366565b634e487b7160e01b600052603160045260246000fd5b805480156120f85760001901906120f56120ef8383610ac3565b90611031565b55565b6120bf565b61214b61026c916102826000611fe460089361211a61209e865490565b610e6960099161201d61213d610b03612136610e6e8888610366565b938b610ac3565b61202281612058858d610ac3565b6120d5565b9061215f611bc08483856121b0565b61216857505050565b600092839261217c6116d8610f1086610d53565b0361219957637e27328960e01b8352600483015250602481010390fd5b63177e802f60e01b8352610df59160048401610e12565b906121be610f106000610d53565b6121c7826102cf565b141592836121d55750505090565b909192506121e2826102cf565b6121eb846102cf565b14928315612226575b508215612206575b5050388080611a12565b61221e9192506122186116d89161167c565b926102cf565b1438806121fc565b6122339193508290611591565b91386121f456fea26469706673582212207d4791cacd315f39a82251ad02d6d18b78b0a33b8b8f2cbdcc08367ac5cea66564736f6c634300081c0033","opcodes":"PUSH1 0x80 PUSH1 0x40 MSTORE CALLVALUE PUSH2 0x2E JUMPI PUSH2 0x1D PUSH2 0x14 PUSH2 0x171 JUMP JUMPDEST SWAP4 SWAP3 SWAP1 SWAP3 PUSH2 0x196 JUMP JUMPDEST PUSH1 0x40 MLOAD PUSH2 0x2270 PUSH2 0x54E DUP3 CODECOPY PUSH2 0x2270 SWAP1 RETURN JUMPDEST PUSH1 0x0 DUP1 REVERT JUMPDEST PUSH4 0x4E487B71 PUSH1 0xE0 SHL PUSH1 0x0 MSTORE PUSH1 0x41 PUSH1 0x4 MSTORE PUSH1 0x24 PUSH1 0x0 REVERT JUMPDEST SWAP1 PUSH1 0x1F ADD PUSH1 0x1F NOT AND DUP2 ADD SWAP1 DUP2 LT PUSH1 0x1 PUSH1 0x1 PUSH1 0x40 SHL SUB DUP3 GT OR PUSH2 0x6A JUMPI PUSH1 0x40 MSTORE JUMP JUMPDEST PUSH2 0x33 JUMP JUMPDEST SWAP1 PUSH2 0x83 PUSH2 0x7C PUSH1 0x40 MLOAD SWAP1 JUMP JUMPDEST SWAP3 DUP4 PUSH2 0x49 JUMP JUMPDEST JUMP JUMPDEST PUSH1 0x1 PUSH1 0x1 PUSH1 0x40 SHL SUB DUP2 GT PUSH2 0x6A JUMPI PUSH1 0x20 SWAP1 PUSH1 0x1F ADD PUSH1 0x1F NOT AND ADD SWAP1 JUMP JUMPDEST PUSH1 0x0 JUMPDEST DUP4 DUP2 LT PUSH2 0xB4 JUMPI POP POP PUSH1 0x0 SWAP2 ADD MSTORE JUMP JUMPDEST DUP2 DUP2 ADD MLOAD DUP4 DUP3 ADD MSTORE PUSH1 0x20 ADD PUSH2 0xA4 JUMP JUMPDEST SWAP1 SWAP3 SWAP2 SWAP3 PUSH2 0xD9 PUSH2 0xD4 DUP3 PUSH2 0x85 JUMP JUMPDEST PUSH2 0x6F JUMP JUMPDEST SWAP4 DUP2 DUP6 MSTORE DUP2 DUP4 ADD GT PUSH2 0x2E JUMPI PUSH2 0x83 SWAP2 PUSH1 0x20 DUP6 ADD SWAP1 PUSH2 0xA1 JUMP JUMPDEST SWAP1 DUP1 PUSH1 0x1F DUP4 ADD SLT ISZERO PUSH2 0x2E JUMPI DUP2 MLOAD PUSH2 0x10D SWAP3 PUSH1 0x20 ADD PUSH2 0xC4 JUMP JUMPDEST SWAP1 JUMP JUMPDEST SWAP2 SWAP1 PUSH1 0xA0 DUP4 DUP3 SUB SLT PUSH2 0x2E JUMPI DUP3 MLOAD PUSH1 0x1 PUSH1 0x1 PUSH1 0x40 SHL SUB DUP2 GT PUSH2 0x2E JUMPI DUP2 PUSH2 0x138 SWAP2 DUP6 ADD PUSH2 0xF3 JUMP JUMPDEST PUSH1 0x20 DUP5 ADD MLOAD SWAP1 SWAP4 SWAP1 PUSH1 0x1 PUSH1 0x1 PUSH1 0x40 SHL SUB DUP2 GT PUSH2 0x2E JUMPI DUP3 PUSH2 0x15A SWAP2 DUP4 ADD PUSH2 0xF3 JUMP JUMPDEST PUSH1 0x40 DUP3 ADD MLOAD PUSH1 0x60 DUP4 ADD MLOAD PUSH1 0x80 SWAP1 SWAP4 ADD MLOAD SWAP2 SWAP5 SWAP1 SWAP4 POP JUMP JUMPDEST PUSH2 0x18F PUSH2 0x27BE DUP1 CODESIZE SUB DUP1 PUSH2 0x184 DUP2 PUSH2 0x6F JUMP JUMPDEST SWAP3 DUP4 CODECOPY DUP2 ADD SWAP1 PUSH2 0x110 JUMP JUMPDEST SWAP1 SWAP2 SWAP3 SWAP4 SWAP5 JUMP JUMPDEST SWAP2 SWAP1 SWAP3 SWAP4 PUSH2 0x83 SWAP5 CALLER SWAP3 PUSH2 0x235 JUMP JUMPDEST SWAP1 PUSH1 0x0 NOT SWAP1 JUMPDEST SWAP2 DUP2 NOT AND SWAP2 AND OR SWAP1 JUMP JUMPDEST PUSH2 0x10D PUSH2 0x10D PUSH2 0x10D SWAP3 SWAP1 JUMP JUMPDEST SWAP1 PUSH2 0x1D2 PUSH2 0x10D PUSH2 0x1D9 SWAP3 PUSH2 0x1B5 JUMP JUMPDEST DUP3 SLOAD PUSH2 0x1A5 JUMP JUMPDEST SWAP1 SSTORE JUMP JUMPDEST SWAP1 PUSH1 0x1 PUSH1 0x1 PUSH1 0xA0 SHL SUB SWAP1 PUSH2 0x1AB JUMP JUMPDEST PUSH2 0x10D SWAP1 PUSH2 0x200 SWAP1 PUSH1 0x1 PUSH1 0x1 PUSH1 0xA0 SHL SUB AND DUP3 JUMP JUMPDEST PUSH1 0x1 PUSH1 0x1 PUSH1 0xA0 SHL SUB AND SWAP1 JUMP JUMPDEST PUSH2 0x10D SWAP1 PUSH2 0x1EC JUMP JUMPDEST PUSH2 0x10D SWAP1 PUSH2 0x20C JUMP JUMPDEST SWAP1 PUSH2 0x22E PUSH2 0x10D PUSH2 0x1D9 SWAP3 PUSH2 0x215 JUMP JUMPDEST DUP3 SLOAD PUSH2 0x1DD JUMP JUMPDEST PUSH2 0x24B PUSH2 0x260 SWAP7 PUSH2 0x252 SWAP4 SWAP5 SWAP7 PUSH2 0x259 SWAP7 PUSH2 0x26B JUMP JUMPDEST PUSH1 0xB PUSH2 0x1C2 JUMP JUMPDEST PUSH1 0xC PUSH2 0x1C2 JUMP JUMPDEST PUSH1 0xD PUSH2 0x1C2 JUMP JUMPDEST PUSH2 0x83 CALLER PUSH1 0xE PUSH2 0x21E JUMP JUMPDEST SWAP1 PUSH2 0x83 SWAP3 SWAP2 PUSH2 0x2A9 JUMP JUMPDEST PUSH2 0x200 PUSH2 0x10D PUSH2 0x10D SWAP3 SWAP1 JUMP JUMPDEST PUSH2 0x10D SWAP1 PUSH2 0x276 JUMP JUMPDEST PUSH2 0x295 SWAP1 PUSH2 0x200 JUMP JUMPDEST SWAP1 MSTORE JUMP JUMPDEST PUSH1 0x20 DUP2 ADD SWAP3 SWAP2 PUSH2 0x83 SWAP2 SWAP1 PUSH2 0x28C JUMP JUMPDEST SWAP2 PUSH2 0x2B3 SWAP2 PUSH2 0x2FD JUMP JUMPDEST PUSH1 0x0 PUSH2 0x2BE DUP2 PUSH2 0x283 JUMP JUMPDEST PUSH2 0x2C7 DUP2 PUSH2 0x200 JUMP JUMPDEST PUSH2 0x2D0 DUP5 PUSH2 0x200 JUMP JUMPDEST EQ PUSH2 0x2E0 JUMPI POP POP PUSH2 0x83 SWAP1 PUSH2 0x4F6 JUMP JUMPDEST PUSH4 0x1E4FBDF7 PUSH1 0xE0 SHL DUP3 MSTORE DUP2 SWAP1 PUSH2 0x2F9 SWAP1 PUSH1 0x4 DUP4 ADD PUSH2 0x299 JUMP JUMPDEST SUB SWAP1 REVERT JUMPDEST PUSH2 0x83 SWAP2 DUP3 SWAP2 DUP3 SWAP2 DUP3 SWAP2 PUSH2 0x4CD JUMP JUMPDEST PUSH4 0x4E487B71 PUSH1 0xE0 SHL PUSH1 0x0 MSTORE PUSH1 0x22 PUSH1 0x4 MSTORE PUSH1 0x24 PUSH1 0x0 REVERT JUMPDEST SWAP1 PUSH1 0x1 PUSH1 0x2 DUP4 DIV SWAP3 AND DUP1 ISZERO PUSH2 0x342 JUMPI JUMPDEST PUSH1 0x20 DUP4 LT EQ PUSH2 0x33D JUMPI JUMP JUMPDEST PUSH2 0x30C JUMP JUMPDEST SWAP2 PUSH1 0x7F AND SWAP2 PUSH2 0x332 JUMP JUMPDEST SWAP2 PUSH1 0x0 NOT PUSH1 0x8 SWAP3 SWAP1 SWAP3 MUL SWAP2 DUP3 SHL SWAP2 SHL PUSH2 0x1AB JUMP JUMPDEST SWAP2 SWAP1 PUSH2 0x371 PUSH2 0x10D PUSH2 0x1D9 SWAP4 PUSH2 0x1B5 JUMP JUMPDEST SWAP1 DUP4 SLOAD PUSH2 0x34C JUMP JUMPDEST PUSH2 0x83 SWAP2 PUSH1 0x0 SWAP2 PUSH2 0x360 JUMP JUMPDEST DUP2 DUP2 LT PUSH2 0x390 JUMPI POP POP JUMP JUMPDEST DUP1 PUSH2 0x39E PUSH1 0x0 PUSH1 0x1 SWAP4 PUSH2 0x379 JUMP JUMPDEST ADD PUSH2 0x385 JUMP JUMPDEST SWAP2 SWAP1 PUSH1 0x1F DUP2 GT PUSH2 0x3B3 JUMPI POP POP POP JUMP JUMPDEST PUSH2 0x3C5 PUSH2 0x83 SWAP4 PUSH1 0x0 MSTORE PUSH1 0x20 PUSH1 0x0 KECCAK256 SWAP1 JUMP JUMPDEST SWAP1 PUSH1 0x20 PUSH1 0x1F DUP5 ADD DUP2 SWAP1 DIV DUP4 ADD SWAP4 LT PUSH2 0x3E7 JUMPI JUMPDEST PUSH1 0x20 PUSH1 0x1F SWAP1 SWAP2 ADD DIV ADD SWAP1 PUSH2 0x385 JUMP JUMPDEST SWAP1 SWAP2 POP DUP2 SWAP1 PUSH2 0x3D8 JUMP JUMPDEST SWAP1 PUSH2 0x3FA DUP2 MLOAD SWAP1 JUMP JUMPDEST SWAP1 PUSH1 0x1 PUSH1 0x1 PUSH1 0x40 SHL SUB DUP3 GT PUSH2 0x6A JUMPI PUSH2 0x41D DUP3 PUSH2 0x417 DUP6 SLOAD PUSH2 0x322 JUMP JUMPDEST DUP6 PUSH2 0x3A4 JUMP JUMPDEST PUSH1 0x20 SWAP1 PUSH1 0x1F DUP4 GT PUSH1 0x1 EQ PUSH2 0x458 JUMPI PUSH2 0x1D9 SWAP3 SWAP2 PUSH1 0x0 SWAP2 DUP4 PUSH2 0x44D JUMPI JUMPDEST POP POP PUSH1 0x0 NOT PUSH1 0x8 DUP4 MUL SHR NOT AND SWAP1 PUSH1 0x2 MUL OR SWAP1 JUMP JUMPDEST ADD MLOAD SWAP1 POP CODESIZE DUP1 PUSH2 0x439 JUMP JUMPDEST PUSH1 0x1F NOT DUP4 AND SWAP2 PUSH2 0x46D DUP6 PUSH1 0x0 MSTORE PUSH1 0x20 PUSH1 0x0 KECCAK256 SWAP1 JUMP JUMPDEST SWAP3 PUSH1 0x0 JUMPDEST DUP2 DUP2 LT PUSH2 0x4AB JUMPI POP SWAP2 PUSH1 0x2 SWAP4 SWAP2 DUP6 PUSH1 0x1 SWAP7 SWAP5 LT PUSH2 0x492 JUMPI JUMPDEST POP POP POP MUL ADD SWAP1 SSTORE JUMP JUMPDEST ADD MLOAD PUSH1 0x0 NOT PUSH1 0x8 PUSH1 0x1F DUP6 AND MUL SHR NOT AND SWAP1 SSTORE CODESIZE DUP1 DUP1 PUSH2 0x489 JUMP JUMPDEST SWAP2 SWAP4 PUSH1 0x20 PUSH1 0x1 DUP2 SWAP3 DUP8 DUP8 ADD MLOAD DUP2 SSTORE ADD SWAP6 ADD SWAP3 ADD PUSH2 0x471 JUMP JUMPDEST SWAP1 PUSH2 0x83 SWAP2 PUSH2 0x3F1 JUMP JUMPDEST SWAP1 PUSH2 0x4DC PUSH2 0x83 SWAP3 PUSH1 0x0 PUSH2 0x4C3 JUMP JUMPDEST PUSH1 0x1 PUSH2 0x4C3 JUMP JUMPDEST PUSH2 0x10D SWAP1 PUSH2 0x200 JUMP JUMPDEST PUSH2 0x10D SWAP1 SLOAD PUSH2 0x4E3 JUMP JUMPDEST PUSH2 0x51C PUSH2 0x516 PUSH2 0x506 PUSH1 0xA PUSH2 0x4EC JUMP JUMPDEST PUSH2 0x511 DUP5 PUSH1 0xA PUSH2 0x21E JUMP JUMPDEST PUSH2 0x215 JUMP JUMPDEST SWAP2 PUSH2 0x215 JUMP JUMPDEST SWAP1 PUSH32 0x8BE0079C531659141344CD1FD0A4F28419497F9722A3DAAFE3B4186F6B6457E0 PUSH2 0x547 PUSH1 0x40 MLOAD SWAP1 JUMP JUMPDEST PUSH1 0x0 SWAP1 LOG3 JUMP INVALID PUSH1 0x80 PUSH1 0x40 MSTORE PUSH1 0x4 CALLDATASIZE LT ISZERO PUSH2 0x12 JUMPI PUSH1 0x0 DUP1 REVERT JUMPDEST PUSH1 0x0 CALLDATALOAD PUSH1 0xE0 SHR DUP1 PUSH4 0x1FFC9A7 EQ PUSH2 0x242 JUMPI DUP1 PUSH4 0x2D05D3F EQ PUSH2 0x23D JUMPI DUP1 PUSH4 0x583E9F8 EQ PUSH2 0x238 JUMPI DUP1 PUSH4 0x6FDDE03 EQ PUSH2 0x233 JUMPI DUP1 PUSH4 0x81812FC EQ PUSH2 0x22E JUMPI DUP1 PUSH4 0x95EA7B3 EQ PUSH2 0x229 JUMPI DUP1 PUSH4 0x12EA5C7E EQ PUSH2 0x224 JUMPI DUP1 PUSH4 0x150B7A02 EQ PUSH2 0x21F JUMPI DUP1 PUSH4 0x18160DDD EQ PUSH2 0x21A JUMPI DUP1 PUSH4 0x1D0806AE EQ PUSH2 0x215 JUMPI DUP1 PUSH4 0x23B872DD EQ PUSH2 0x210 JUMPI DUP1 PUSH4 0x2DCD52F2 EQ PUSH2 0x20B JUMPI DUP1 PUSH4 0x2F745C59 EQ PUSH2 0x206 JUMPI DUP1 PUSH4 0x3F516018 EQ PUSH2 0x201 JUMPI DUP1 PUSH4 0x42842E0E EQ PUSH2 0x1FC JUMPI DUP1 PUSH4 0x4F6CCCE7 EQ PUSH2 0x1F7 JUMPI DUP1 PUSH4 0x53613DD3 EQ PUSH2 0x1F2 JUMPI DUP1 PUSH4 0x55F804B3 EQ PUSH2 0x1ED JUMPI DUP1 PUSH4 0x5EBA096B EQ PUSH2 0x1E8 JUMPI DUP1 PUSH4 0x6352211E EQ PUSH2 0x1E3 JUMPI DUP1 PUSH4 0x6C0360EB EQ PUSH2 0x1DE JUMPI DUP1 PUSH4 0x70A08231 EQ PUSH2 0x1D9 JUMPI DUP1 PUSH4 0x715018A6 EQ PUSH2 0x1D4 JUMPI DUP1 PUSH4 0x771282F6 EQ PUSH2 0x1CF JUMPI DUP1 PUSH4 0x8DA5CB5B EQ PUSH2 0x1CA JUMPI DUP1 PUSH4 0x95D89B41 EQ PUSH2 0x1C5 JUMPI DUP1 PUSH4 0xA22CB465 EQ PUSH2 0x1C0 JUMPI DUP1 PUSH4 0xAD64D068 EQ PUSH2 0x1BB JUMPI DUP1 PUSH4 0xB88D4FDE EQ PUSH2 0x1B6 JUMPI DUP1 PUSH4 0xC87B56DD EQ PUSH2 0x1B1 JUMPI DUP1 PUSH4 0xCF6A68BF EQ PUSH2 0x1AC JUMPI DUP1 PUSH4 0xD5ABEB01 EQ PUSH2 0x1A7 JUMPI DUP1 PUSH4 0xE8A3D485 EQ PUSH2 0x1A2 JUMPI DUP1 PUSH4 0xE985E9C5 EQ PUSH2 0x19D JUMPI PUSH4 0xF2FDE38B SUB PUSH2 0x25A JUMPI PUSH2 0xBF7 JUMP JUMPDEST PUSH2 0xBDB JUMP JUMPDEST PUSH2 0xB9D JUMP JUMPDEST PUSH2 0xB82 JUMP JUMPDEST PUSH2 0xB5B JUMP JUMPDEST PUSH2 0xB40 JUMP JUMPDEST PUSH2 0xB24 JUMP JUMPDEST PUSH2 0xB09 JUMP JUMPDEST PUSH2 0xA94 JUMP JUMPDEST PUSH2 0xA41 JUMP JUMPDEST PUSH2 0xA26 JUMP JUMPDEST PUSH2 0xA0B JUMP JUMPDEST PUSH2 0x9E7 JUMP JUMPDEST PUSH2 0x9CC JUMP JUMPDEST PUSH2 0x9B1 JUMP JUMPDEST PUSH2 0x86F JUMP JUMPDEST PUSH2 0x853 JUMP JUMPDEST PUSH2 0x81F JUMP JUMPDEST PUSH2 0x7DE JUMP JUMPDEST PUSH2 0x7B7 JUMP JUMPDEST PUSH2 0x79E JUMP JUMPDEST PUSH2 0x786 JUMP JUMPDEST PUSH2 0x756 JUMP JUMPDEST PUSH2 0x73A JUMP JUMPDEST PUSH2 0x721 JUMP JUMPDEST PUSH2 0x6DD JUMP JUMPDEST PUSH2 0x6B5 JUMP JUMPDEST PUSH2 0x67B JUMP JUMPDEST PUSH2 0x540 JUMP JUMPDEST PUSH2 0x4BB JUMP JUMPDEST PUSH2 0x467 JUMP JUMPDEST PUSH2 0x440 JUMP JUMPDEST PUSH2 0x3A9 JUMP JUMPDEST PUSH2 0x30B JUMP JUMPDEST PUSH2 0x289 JUMP JUMPDEST PUSH1 0x1 PUSH1 0x1 PUSH1 0xE0 SHL SUB NOT DUP2 AND JUMPDEST SUB PUSH2 0x25A JUMPI JUMP JUMPDEST PUSH1 0x0 DUP1 REVERT JUMPDEST SWAP1 POP CALLDATALOAD SWAP1 PUSH2 0x26C DUP3 PUSH2 0x247 JUMP JUMPDEST JUMP JUMPDEST SWAP1 PUSH1 0x20 DUP3 DUP3 SUB SLT PUSH2 0x25A JUMPI PUSH2 0x282 SWAP2 PUSH2 0x25F JUMP JUMPDEST SWAP1 JUMP JUMPDEST SWAP1 MSTORE JUMP JUMPDEST CALLVALUE PUSH2 0x25A JUMPI PUSH2 0x2B7 PUSH2 0x2A4 PUSH2 0x29F CALLDATASIZE PUSH1 0x4 PUSH2 0x26E JUMP JUMPDEST PUSH2 0xC0F JUMP JUMPDEST PUSH1 0x40 MLOAD JUMPDEST SWAP2 DUP3 SWAP2 DUP3 SWAP1 ISZERO ISZERO DUP2 MSTORE PUSH1 0x20 ADD SWAP1 JUMP JUMPDEST SUB SWAP1 RETURN JUMPDEST PUSH1 0x0 SWAP2 SUB SLT PUSH2 0x25A JUMPI JUMP JUMPDEST PUSH2 0x282 SWAP2 PUSH1 0x8 MUL SHR JUMPDEST PUSH1 0x1 PUSH1 0x1 PUSH1 0xA0 SHL SUB AND SWAP1 JUMP JUMPDEST SWAP1 PUSH2 0x282 SWAP2 SLOAD PUSH2 0x2C6 JUMP JUMPDEST PUSH2 0x282 PUSH1 0x0 PUSH1 0xE PUSH2 0x2DB JUMP JUMPDEST PUSH2 0x285 SWAP1 PUSH2 0x2CF JUMP JUMPDEST PUSH1 0x20 DUP2 ADD SWAP3 SWAP2 PUSH2 0x26C SWAP2 SWAP1 PUSH2 0x2F2 JUMP JUMPDEST CALLVALUE PUSH2 0x25A JUMPI PUSH2 0x31B CALLDATASIZE PUSH1 0x4 PUSH2 0x2BB JUMP JUMPDEST PUSH2 0x2B7 PUSH2 0x326 PUSH2 0x2E6 JUMP JUMPDEST PUSH1 0x40 MLOAD SWAP2 DUP3 SWAP2 DUP3 PUSH2 0x2FB JUMP JUMPDEST DUP1 PUSH2 0x253 JUMP JUMPDEST SWAP1 POP CALLDATALOAD SWAP1 PUSH2 0x26C DUP3 PUSH2 0x332 JUMP JUMPDEST SWAP1 PUSH1 0x20 DUP3 DUP3 SUB SLT PUSH2 0x25A JUMPI PUSH2 0x282 SWAP2 PUSH2 0x338 JUMP JUMPDEST PUSH2 0x282 PUSH2 0x282 PUSH2 0x282 SWAP3 SWAP1 JUMP JUMPDEST SWAP1 PUSH2 0x370 SWAP1 PUSH2 0x359 JUMP JUMPDEST PUSH1 0x0 MSTORE PUSH1 0x20 MSTORE PUSH1 0x40 PUSH1 0x0 KECCAK256 SWAP1 JUMP JUMPDEST PUSH2 0x282 SWAP2 PUSH1 0x8 MUL SHR DUP2 JUMP JUMPDEST SWAP1 PUSH2 0x282 SWAP2 SLOAD PUSH2 0x37E JUMP JUMPDEST PUSH1 0x0 PUSH2 0x3A4 PUSH2 0x282 SWAP3 PUSH1 0x11 PUSH2 0x366 JUMP JUMPDEST PUSH2 0x389 JUMP JUMPDEST CALLVALUE PUSH2 0x25A JUMPI PUSH2 0x2B7 PUSH2 0x3C4 PUSH2 0x3BF CALLDATASIZE PUSH1 0x4 PUSH2 0x345 JUMP JUMPDEST PUSH2 0x394 JUMP JUMPDEST PUSH1 0x40 MLOAD SWAP2 DUP3 SWAP2 DUP3 SWAP1 DUP2 MSTORE PUSH1 0x20 ADD SWAP1 JUMP JUMPDEST PUSH1 0x0 JUMPDEST DUP4 DUP2 LT PUSH2 0x3E7 JUMPI POP POP PUSH1 0x0 SWAP2 ADD MSTORE JUMP JUMPDEST DUP2 DUP2 ADD MLOAD DUP4 DUP3 ADD MSTORE PUSH1 0x20 ADD PUSH2 0x3D7 JUMP JUMPDEST PUSH2 0x418 PUSH2 0x421 PUSH1 0x20 SWAP4 PUSH2 0x42B SWAP4 PUSH2 0x40C DUP2 MLOAD SWAP1 JUMP JUMPDEST DUP1 DUP4 MSTORE SWAP4 DUP5 SWAP3 PUSH1 0x20 ADD SWAP1 JUMP JUMPDEST SWAP6 DUP7 SWAP2 ADD PUSH2 0x3D4 JUMP JUMPDEST PUSH1 0x1F ADD PUSH1 0x1F NOT AND SWAP1 JUMP JUMPDEST ADD SWAP1 JUMP JUMPDEST PUSH1 0x20 DUP1 DUP3 MSTORE PUSH2 0x282 SWAP3 SWAP2 ADD SWAP1 PUSH2 0x3F7 JUMP JUMPDEST CALLVALUE PUSH2 0x25A JUMPI PUSH2 0x450 CALLDATASIZE PUSH1 0x4 PUSH2 0x2BB JUMP JUMPDEST PUSH2 0x2B7 PUSH2 0x45B PUSH2 0xC21 JUMP JUMPDEST PUSH1 0x40 MLOAD SWAP2 DUP3 SWAP2 DUP3 PUSH2 0x42F JUMP JUMPDEST CALLVALUE PUSH2 0x25A JUMPI PUSH2 0x2B7 PUSH2 0x326 PUSH2 0x47D CALLDATASIZE PUSH1 0x4 PUSH2 0x345 JUMP JUMPDEST PUSH2 0xC2B JUMP JUMPDEST PUSH2 0x253 DUP2 PUSH2 0x2CF JUMP JUMPDEST SWAP1 POP CALLDATALOAD SWAP1 PUSH2 0x26C DUP3 PUSH2 0x482 JUMP JUMPDEST SWAP2 SWAP1 PUSH1 0x40 DUP4 DUP3 SUB SLT PUSH2 0x25A JUMPI PUSH2 0x282 SWAP1 PUSH1 0x20 PUSH2 0x4B4 DUP3 DUP7 PUSH2 0x48B JUMP JUMPDEST SWAP5 ADD PUSH2 0x338 JUMP JUMPDEST CALLVALUE PUSH2 0x25A JUMPI PUSH2 0x4D4 PUSH2 0x4CE CALLDATASIZE PUSH1 0x4 PUSH2 0x498 JUMP JUMPDEST SWAP1 PUSH2 0xC3E JUMP JUMPDEST PUSH1 0x40 MLOAD STOP JUMPDEST SWAP1 PUSH2 0x4F9 PUSH2 0x4F2 PUSH2 0x4E8 DUP5 MLOAD SWAP1 JUMP JUMPDEST DUP1 DUP5 MSTORE SWAP3 PUSH1 0x20 ADD SWAP1 JUMP JUMPDEST SWAP3 PUSH1 0x20 ADD SWAP1 JUMP JUMPDEST SWAP1 PUSH1 0x0 JUMPDEST DUP2 DUP2 LT PUSH2 0x50A JUMPI POP POP POP SWAP1 JUMP JUMPDEST SWAP1 SWAP2 SWAP3 PUSH2 0x527 PUSH2 0x520 PUSH1 0x1 SWAP3 DUP7 MLOAD DUP2 MSTORE PUSH1 0x20 ADD SWAP1 JUMP JUMPDEST SWAP5 PUSH1 0x20 ADD SWAP1 JUMP JUMPDEST SWAP3 SWAP2 ADD PUSH2 0x4FD JUMP JUMPDEST PUSH1 0x20 DUP1 DUP3 MSTORE PUSH2 0x282 SWAP3 SWAP2 ADD SWAP1 PUSH2 0x4D9 JUMP JUMPDEST CALLVALUE PUSH2 0x25A JUMPI PUSH2 0x550 CALLDATASIZE PUSH1 0x4 PUSH2 0x2BB JUMP JUMPDEST PUSH2 0x2B7 PUSH2 0x55B PUSH2 0xCDF JUMP JUMPDEST PUSH1 0x40 MLOAD SWAP2 DUP3 SWAP2 DUP3 PUSH2 0x52F JUMP JUMPDEST PUSH4 0x4E487B71 PUSH1 0xE0 SHL PUSH1 0x0 MSTORE PUSH1 0x41 PUSH1 0x4 MSTORE PUSH1 0x24 PUSH1 0x0 REVERT JUMPDEST SWAP1 PUSH1 0x1F ADD PUSH1 0x1F NOT AND DUP2 ADD SWAP1 DUP2 LT PUSH8 0xFFFFFFFFFFFFFFFF DUP3 GT OR PUSH2 0x59F JUMPI PUSH1 0x40 MSTORE JUMP JUMPDEST PUSH2 0x567 JUMP JUMPDEST SWAP1 PUSH2 0x26C PUSH2 0x5B1 PUSH1 0x40 MLOAD SWAP1 JUMP JUMPDEST SWAP3 DUP4 PUSH2 0x57D JUMP JUMPDEST PUSH8 0xFFFFFFFFFFFFFFFF DUP2 GT PUSH2 0x59F JUMPI PUSH1 0x20 SWAP1 PUSH1 0x1F ADD PUSH1 0x1F NOT AND ADD SWAP1 JUMP JUMPDEST SWAP1 DUP3 PUSH1 0x0 SWAP4 SWAP3 DUP3 CALLDATACOPY ADD MSTORE JUMP JUMPDEST SWAP1 SWAP3 SWAP2 SWAP3 PUSH2 0x5F6 PUSH2 0x5F1 DUP3 PUSH2 0x5B8 JUMP JUMPDEST PUSH2 0x5A4 JUMP JUMPDEST SWAP4 DUP2 DUP6 MSTORE DUP2 DUP4 ADD GT PUSH2 0x25A JUMPI PUSH2 0x26C SWAP2 PUSH1 0x20 DUP6 ADD SWAP1 PUSH2 0x5D5 JUMP JUMPDEST SWAP1 DUP1 PUSH1 0x1F DUP4 ADD SLT ISZERO PUSH2 0x25A JUMPI DUP2 PUSH1 0x20 PUSH2 0x282 SWAP4 CALLDATALOAD SWAP2 ADD PUSH2 0x5E1 JUMP JUMPDEST SWAP1 PUSH1 0x80 DUP3 DUP3 SUB SLT PUSH2 0x25A JUMPI PUSH2 0x640 DUP2 DUP4 PUSH2 0x48B JUMP JUMPDEST SWAP3 PUSH2 0x64E DUP3 PUSH1 0x20 DUP6 ADD PUSH2 0x48B JUMP JUMPDEST SWAP3 PUSH2 0x65C DUP4 PUSH1 0x40 DUP4 ADD PUSH2 0x338 JUMP JUMPDEST SWAP3 PUSH1 0x60 DUP3 ADD CALLDATALOAD PUSH8 0xFFFFFFFFFFFFFFFF DUP2 GT PUSH2 0x25A JUMPI PUSH2 0x282 SWAP3 ADD PUSH2 0x610 JUMP JUMPDEST CALLVALUE PUSH2 0x25A JUMPI PUSH2 0x2B7 PUSH2 0x69A PUSH2 0x691 CALLDATASIZE PUSH1 0x4 PUSH2 0x62B JUMP JUMPDEST SWAP3 SWAP2 SWAP1 SWAP2 PUSH2 0xD2C JUMP JUMPDEST PUSH1 0x40 MLOAD SWAP2 DUP3 SWAP2 DUP3 PUSH1 0x1 PUSH1 0x1 PUSH1 0xE0 SHL SUB NOT SWAP1 SWAP2 AND DUP2 MSTORE PUSH1 0x20 ADD SWAP1 JUMP JUMPDEST CALLVALUE PUSH2 0x25A JUMPI PUSH2 0x6C5 CALLDATASIZE PUSH1 0x4 PUSH2 0x2BB JUMP JUMPDEST PUSH2 0x2B7 PUSH2 0x3C4 PUSH1 0x8 SLOAD SWAP1 JUMP JUMPDEST PUSH2 0x282 PUSH1 0x0 PUSH1 0xB PUSH2 0x389 JUMP JUMPDEST CALLVALUE PUSH2 0x25A JUMPI PUSH2 0x6ED CALLDATASIZE PUSH1 0x4 PUSH2 0x2BB JUMP JUMPDEST PUSH2 0x2B7 PUSH2 0x3C4 PUSH2 0x6D1 JUMP JUMPDEST SWAP1 SWAP2 PUSH1 0x60 DUP3 DUP5 SUB SLT PUSH2 0x25A JUMPI PUSH2 0x282 PUSH2 0x711 DUP5 DUP5 PUSH2 0x48B JUMP JUMPDEST SWAP4 PUSH1 0x40 PUSH2 0x4B4 DUP3 PUSH1 0x20 DUP8 ADD PUSH2 0x48B JUMP JUMPDEST CALLVALUE PUSH2 0x25A JUMPI PUSH2 0x4D4 PUSH2 0x734 CALLDATASIZE PUSH1 0x4 PUSH2 0x6F8 JUMP JUMPDEST SWAP2 PUSH2 0xD8A JUMP JUMPDEST CALLVALUE PUSH2 0x25A JUMPI PUSH2 0x74A CALLDATASIZE PUSH1 0x4 PUSH2 0x2BB JUMP JUMPDEST PUSH2 0x2B7 PUSH2 0x3C4 PUSH1 0x10 SLOAD SWAP1 JUMP JUMPDEST CALLVALUE PUSH2 0x25A JUMPI PUSH2 0x2B7 PUSH2 0x3C4 PUSH2 0x76C CALLDATASIZE PUSH1 0x4 PUSH2 0x498 JUMP JUMPDEST SWAP1 PUSH2 0xE44 JUMP JUMPDEST SWAP1 PUSH1 0x20 DUP3 DUP3 SUB SLT PUSH2 0x25A JUMPI PUSH2 0x282 SWAP2 PUSH2 0x48B JUMP JUMPDEST CALLVALUE PUSH2 0x25A JUMPI PUSH2 0x4D4 PUSH2 0x799 CALLDATASIZE PUSH1 0x4 PUSH2 0x772 JUMP JUMPDEST PUSH2 0xF64 JUMP JUMPDEST CALLVALUE PUSH2 0x25A JUMPI PUSH2 0x4D4 PUSH2 0x7B1 CALLDATASIZE PUSH1 0x4 PUSH2 0x6F8 JUMP JUMPDEST SWAP2 PUSH2 0xF91 JUMP JUMPDEST CALLVALUE PUSH2 0x25A JUMPI PUSH2 0x2B7 PUSH2 0x3C4 PUSH2 0x7CD CALLDATASIZE PUSH1 0x4 PUSH2 0x345 JUMP JUMPDEST PUSH2 0xFA5 JUMP JUMPDEST PUSH2 0x282 PUSH1 0x0 PUSH1 0xD PUSH2 0x389 JUMP JUMPDEST CALLVALUE PUSH2 0x25A JUMPI PUSH2 0x7EE CALLDATASIZE PUSH1 0x4 PUSH2 0x2BB JUMP JUMPDEST PUSH2 0x2B7 PUSH2 0x3C4 PUSH2 0x7D2 JUMP JUMPDEST SWAP1 PUSH1 0x20 DUP3 DUP3 SUB SLT PUSH2 0x25A JUMPI DUP2 CALLDATALOAD PUSH8 0xFFFFFFFFFFFFFFFF DUP2 GT PUSH2 0x25A JUMPI PUSH2 0x282 SWAP3 ADD PUSH2 0x610 JUMP JUMPDEST CALLVALUE PUSH2 0x25A JUMPI PUSH2 0x4D4 PUSH2 0x832 CALLDATASIZE PUSH1 0x4 PUSH2 0x7F9 JUMP JUMPDEST PUSH2 0x1191 JUMP JUMPDEST SWAP2 SWAP1 PUSH1 0x40 DUP4 DUP3 SUB SLT PUSH2 0x25A JUMPI PUSH2 0x282 SWAP1 PUSH1 0x20 PUSH2 0x4B4 DUP3 DUP7 PUSH2 0x338 JUMP JUMPDEST CALLVALUE PUSH2 0x25A JUMPI PUSH2 0x2B7 PUSH2 0x55B PUSH2 0x869 CALLDATASIZE PUSH1 0x4 PUSH2 0x837 JUMP JUMPDEST SWAP1 PUSH2 0x1282 JUMP JUMPDEST CALLVALUE PUSH2 0x25A JUMPI PUSH2 0x2B7 PUSH2 0x326 PUSH2 0x885 CALLDATASIZE PUSH1 0x4 PUSH2 0x345 JUMP JUMPDEST PUSH2 0x1311 JUMP JUMPDEST PUSH4 0x4E487B71 PUSH1 0xE0 SHL PUSH1 0x0 MSTORE PUSH1 0x0 PUSH1 0x4 MSTORE PUSH1 0x24 PUSH1 0x0 REVERT JUMPDEST PUSH4 0x4E487B71 PUSH1 0xE0 SHL PUSH1 0x0 MSTORE PUSH1 0x22 PUSH1 0x4 MSTORE PUSH1 0x24 PUSH1 0x0 REVERT JUMPDEST SWAP1 PUSH1 0x1 PUSH1 0x2 DUP4 DIV SWAP3 AND DUP1 ISZERO PUSH2 0x8D6 JUMPI JUMPDEST PUSH1 0x20 DUP4 LT EQ PUSH2 0x8D1 JUMPI JUMP JUMPDEST PUSH2 0x8A0 JUMP JUMPDEST SWAP2 PUSH1 0x7F AND SWAP2 PUSH2 0x8C6 JUMP JUMPDEST DUP1 SLOAD PUSH1 0x0 SWAP4 SWAP3 SWAP2 PUSH2 0x8FD PUSH2 0x8F3 DUP4 PUSH2 0x8B6 JUMP JUMPDEST DUP1 DUP6 MSTORE SWAP4 PUSH1 0x20 ADD SWAP1 JUMP JUMPDEST SWAP2 PUSH1 0x1 DUP2 AND SWAP1 DUP2 ISZERO PUSH2 0x94F JUMPI POP PUSH1 0x1 EQ PUSH2 0x916 JUMPI POP POP POP JUMP JUMPDEST PUSH2 0x929 SWAP2 SWAP3 SWAP4 SWAP5 POP PUSH1 0x0 MSTORE PUSH1 0x20 PUSH1 0x0 KECCAK256 SWAP1 JUMP JUMPDEST SWAP2 PUSH1 0x0 SWAP3 JUMPDEST DUP2 DUP5 LT PUSH2 0x93B JUMPI POP POP ADD SWAP1 JUMP JUMPDEST DUP1 SLOAD DUP5 DUP5 ADD MSTORE PUSH1 0x20 SWAP1 SWAP4 ADD SWAP3 PUSH1 0x1 ADD PUSH2 0x92E JUMP JUMPDEST SWAP3 SWAP5 SWAP6 POP POP POP PUSH1 0xFF NOT AND DUP3 MSTORE ISZERO ISZERO PUSH1 0x20 MUL ADD SWAP1 JUMP JUMPDEST SWAP1 PUSH2 0x282 SWAP2 PUSH2 0x8E0 JUMP JUMPDEST SWAP1 PUSH2 0x26C PUSH2 0x988 SWAP3 PUSH2 0x97F PUSH1 0x40 MLOAD SWAP1 JUMP JUMPDEST SWAP4 DUP5 DUP1 SWAP3 PUSH2 0x964 JUMP JUMPDEST SUB DUP4 PUSH2 0x57D JUMP JUMPDEST SWAP1 PUSH1 0x0 LT PUSH2 0x9A0 JUMPI PUSH2 0x282 SWAP1 PUSH2 0x96E JUMP JUMPDEST PUSH2 0x88A JUMP JUMPDEST PUSH2 0x282 PUSH1 0x0 PUSH1 0x12 PUSH2 0x98F JUMP JUMPDEST CALLVALUE PUSH2 0x25A JUMPI PUSH2 0x9C1 CALLDATASIZE PUSH1 0x4 PUSH2 0x2BB JUMP JUMPDEST PUSH2 0x2B7 PUSH2 0x45B PUSH2 0x9A5 JUMP JUMPDEST CALLVALUE PUSH2 0x25A JUMPI PUSH2 0x2B7 PUSH2 0x3C4 PUSH2 0x9E2 CALLDATASIZE PUSH1 0x4 PUSH2 0x772 JUMP JUMPDEST PUSH2 0x131A JUMP JUMPDEST CALLVALUE PUSH2 0x25A JUMPI PUSH2 0x9F7 CALLDATASIZE PUSH1 0x4 PUSH2 0x2BB JUMP JUMPDEST PUSH2 0x4D4 PUSH2 0x1382 JUMP JUMPDEST PUSH2 0x282 PUSH1 0x0 PUSH1 0xF PUSH2 0x389 JUMP JUMPDEST CALLVALUE PUSH2 0x25A JUMPI PUSH2 0xA1B CALLDATASIZE PUSH1 0x4 PUSH2 0x2BB JUMP JUMPDEST PUSH2 0x2B7 PUSH2 0x3C4 PUSH2 0x9FF JUMP JUMPDEST CALLVALUE PUSH2 0x25A JUMPI PUSH2 0xA36 CALLDATASIZE PUSH1 0x4 PUSH2 0x2BB JUMP JUMPDEST PUSH2 0x2B7 PUSH2 0x326 PUSH2 0x138A JUMP JUMPDEST CALLVALUE PUSH2 0x25A JUMPI PUSH2 0xA51 CALLDATASIZE PUSH1 0x4 PUSH2 0x2BB JUMP JUMPDEST PUSH2 0x2B7 PUSH2 0x45B PUSH2 0x1394 JUMP JUMPDEST DUP1 ISZERO ISZERO PUSH2 0x253 JUMP JUMPDEST SWAP1 POP CALLDATALOAD SWAP1 PUSH2 0x26C DUP3 PUSH2 0xA5C JUMP JUMPDEST SWAP2 SWAP1 PUSH1 0x40 DUP4 DUP3 SUB SLT PUSH2 0x25A JUMPI PUSH2 0x282 SWAP1 PUSH1 0x20 PUSH2 0xA8D DUP3 DUP7 PUSH2 0x48B JUMP JUMPDEST SWAP5 ADD PUSH2 0xA64 JUMP JUMPDEST CALLVALUE PUSH2 0x25A JUMPI PUSH2 0x4D4 PUSH2 0xAA7 CALLDATASIZE PUSH1 0x4 PUSH2 0xA71 JUMP JUMPDEST SWAP1 PUSH2 0x139E JUMP JUMPDEST PUSH4 0x4E487B71 PUSH1 0xE0 SHL PUSH1 0x0 MSTORE PUSH1 0x32 PUSH1 0x4 MSTORE PUSH1 0x24 PUSH1 0x0 REVERT JUMPDEST DUP1 SLOAD DUP3 LT ISZERO PUSH2 0xAE6 JUMPI PUSH2 0xADD PUSH1 0x1 SWAP2 PUSH1 0x0 MSTORE PUSH1 0x20 PUSH1 0x0 KECCAK256 SWAP1 JUMP JUMPDEST SWAP2 MUL ADD SWAP1 PUSH1 0x0 SWAP1 JUMP JUMPDEST PUSH2 0xAAD JUMP JUMPDEST PUSH1 0x10 SLOAD DUP2 LT ISZERO PUSH2 0x25A JUMPI PUSH2 0xB03 PUSH2 0x282 SWAP2 PUSH1 0x10 PUSH2 0xAC3 JUMP JUMPDEST SWAP1 PUSH2 0x389 JUMP JUMPDEST CALLVALUE PUSH2 0x25A JUMPI PUSH2 0x2B7 PUSH2 0x3C4 PUSH2 0xB1F CALLDATASIZE PUSH1 0x4 PUSH2 0x345 JUMP JUMPDEST PUSH2 0xAEB JUMP JUMPDEST CALLVALUE PUSH2 0x25A JUMPI PUSH2 0x4D4 PUSH2 0xB37 CALLDATASIZE PUSH1 0x4 PUSH2 0x62B JUMP JUMPDEST SWAP3 SWAP2 SWAP1 SWAP2 PUSH2 0x13A9 JUMP JUMPDEST CALLVALUE PUSH2 0x25A JUMPI PUSH2 0x2B7 PUSH2 0x45B PUSH2 0xB56 CALLDATASIZE PUSH1 0x4 PUSH2 0x345 JUMP JUMPDEST PUSH2 0x14C1 JUMP JUMPDEST CALLVALUE PUSH2 0x25A JUMPI PUSH2 0x2B7 PUSH2 0x3C4 PUSH2 0xB71 CALLDATASIZE PUSH1 0x4 PUSH2 0x345 JUMP JUMPDEST PUSH2 0x1508 JUMP JUMPDEST PUSH2 0x282 PUSH1 0x0 PUSH1 0xC PUSH2 0x389 JUMP JUMPDEST CALLVALUE PUSH2 0x25A JUMPI PUSH2 0xB92 CALLDATASIZE PUSH1 0x4 PUSH2 0x2BB JUMP JUMPDEST PUSH2 0x2B7 PUSH2 0x3C4 PUSH2 0xB76 JUMP JUMPDEST CALLVALUE PUSH2 0x25A JUMPI PUSH2 0xBAD CALLDATASIZE PUSH1 0x4 PUSH2 0x2BB JUMP JUMPDEST PUSH2 0x2B7 PUSH2 0x45B PUSH2 0x1562 JUMP JUMPDEST SWAP2 SWAP1 PUSH1 0x40 DUP4 DUP3 SUB SLT PUSH2 0x25A JUMPI PUSH2 0x282 SWAP1 PUSH1 0x20 PUSH2 0xBD4 DUP3 DUP7 PUSH2 0x48B JUMP JUMPDEST SWAP5 ADD PUSH2 0x48B JUMP JUMPDEST CALLVALUE PUSH2 0x25A JUMPI PUSH2 0x2B7 PUSH2 0x2A4 PUSH2 0xBF1 CALLDATASIZE PUSH1 0x4 PUSH2 0xBB8 JUMP JUMPDEST SWAP1 PUSH2 0x1591 JUMP JUMPDEST CALLVALUE PUSH2 0x25A JUMPI PUSH2 0x4D4 PUSH2 0xC0A CALLDATASIZE PUSH1 0x4 PUSH2 0x772 JUMP JUMPDEST PUSH2 0x160A JUMP JUMPDEST PUSH2 0x282 SWAP1 PUSH2 0x1613 JUMP JUMPDEST PUSH2 0x282 SWAP1 PUSH2 0x96E JUMP JUMPDEST PUSH2 0x282 PUSH1 0x0 PUSH2 0xC18 JUMP JUMPDEST PUSH2 0x282 SWAP1 PUSH2 0xC38 DUP2 PUSH2 0x163C JUMP JUMPDEST POP PUSH2 0x167C JUMP JUMPDEST PUSH2 0x26C SWAP2 CALLER SWAP2 PUSH2 0x1698 JUMP JUMPDEST PUSH2 0x282 SWAP1 DUP2 JUMP JUMPDEST PUSH2 0x282 SWAP1 SLOAD PUSH2 0xC49 JUMP JUMPDEST SWAP1 PUSH2 0xC75 PUSH2 0xC69 PUSH2 0x4E8 DUP5 SLOAD SWAP1 JUMP JUMPDEST SWAP3 PUSH1 0x0 MSTORE PUSH1 0x20 PUSH1 0x0 KECCAK256 SWAP1 JUMP JUMPDEST SWAP1 PUSH1 0x0 JUMPDEST DUP2 DUP2 LT PUSH2 0xC86 JUMPI POP POP POP SWAP1 JUMP JUMPDEST SWAP1 SWAP2 SWAP3 PUSH2 0xCAA PUSH2 0xCA3 PUSH1 0x1 SWAP3 PUSH2 0xC9B DUP8 PUSH2 0xC50 JUMP JUMPDEST DUP2 MSTORE PUSH1 0x20 ADD SWAP1 JUMP JUMPDEST SWAP5 PUSH1 0x1 ADD SWAP1 JUMP JUMPDEST SWAP3 SWAP2 ADD PUSH2 0xC79 JUMP JUMPDEST SWAP1 PUSH2 0x282 SWAP2 PUSH2 0xC5A JUMP JUMPDEST SWAP1 PUSH2 0x26C PUSH2 0x988 SWAP3 PUSH2 0xCCD PUSH1 0x40 MLOAD SWAP1 JUMP JUMPDEST SWAP4 DUP5 DUP1 SWAP3 PUSH2 0xCB2 JUMP JUMPDEST PUSH2 0x282 SWAP1 PUSH2 0xCBC JUMP JUMPDEST PUSH2 0x282 PUSH1 0x10 PUSH2 0xCD6 JUMP JUMPDEST PUSH2 0x282 SWAP1 PUSH2 0x2CF SWAP1 PUSH1 0x1 PUSH1 0x1 PUSH1 0xA0 SHL SUB AND DUP3 JUMP JUMPDEST PUSH2 0x282 SWAP1 PUSH2 0xCE9 JUMP JUMPDEST PUSH2 0xD1F PUSH2 0xD19 PUSH2 0x282 SWAP3 PUSH4 0xFFFFFFFF AND SWAP1 JUMP JUMPDEST PUSH1 0xE0 SHL SWAP1 JUMP JUMPDEST PUSH1 0x1 PUSH1 0x1 PUSH1 0xE0 SHL SUB NOT AND SWAP1 JUMP JUMPDEST POP POP POP POP PUSH2 0xD38 PUSH1 0x0 SWAP1 JUMP JUMPDEST POP PUSH2 0x282 PUSH4 0x150B7A02 PUSH2 0xD06 JUMP JUMPDEST PUSH2 0x2CF PUSH2 0x282 PUSH2 0x282 SWAP3 SWAP1 JUMP JUMPDEST PUSH2 0x282 SWAP1 PUSH2 0xD46 JUMP JUMPDEST PUSH1 0x40 SWAP1 PUSH2 0xD83 PUSH2 0x26C SWAP5 SWAP7 SWAP6 SWAP4 SWAP7 PUSH2 0xD7C PUSH1 0x60 DUP5 ADD SWAP9 PUSH1 0x0 DUP6 ADD SWAP1 PUSH2 0x2F2 JUMP JUMPDEST PUSH1 0x20 DUP4 ADD MSTORE JUMP JUMPDEST ADD SWAP1 PUSH2 0x2F2 JUMP JUMPDEST SWAP1 SWAP2 PUSH1 0x0 SWAP3 PUSH2 0xD98 DUP5 PUSH2 0xD53 JUMP JUMPDEST PUSH2 0xDA1 DUP2 PUSH2 0x2CF JUMP JUMPDEST PUSH2 0xDAA DUP4 PUSH2 0x2CF JUMP JUMPDEST EQ PUSH2 0xDF9 JUMPI POP PUSH2 0xDBC SWAP1 DUP3 CALLER SWAP2 PUSH2 0x16A5 JUMP JUMPDEST SWAP2 PUSH2 0xDC6 DUP2 PUSH2 0x2CF JUMP JUMPDEST PUSH2 0xDCF DUP5 PUSH2 0x2CF JUMP JUMPDEST SUB PUSH2 0xDDA JUMPI POP POP POP POP JUMP JUMPDEST PUSH4 0x64283D7B PUSH1 0xE0 SHL DUP5 MSTORE DUP4 SWAP3 PUSH2 0xDF5 SWAP3 SWAP1 SWAP2 PUSH1 0x4 DUP6 ADD PUSH2 0xD5C JUMP JUMPDEST SUB SWAP1 REVERT JUMPDEST DUP5 PUSH2 0xDF5 DUP2 SWAP3 PUSH4 0x32505749 PUSH1 0xE1 SHL DUP4 MSTORE PUSH1 0x4 DUP4 ADD PUSH2 0x2FB JUMP JUMPDEST SWAP2 PUSH1 0x20 PUSH2 0x26C SWAP3 SWAP5 SWAP4 PUSH2 0xE2D PUSH1 0x40 DUP3 ADD SWAP7 PUSH1 0x0 DUP4 ADD SWAP1 PUSH2 0x2F2 JUMP JUMPDEST ADD MSTORE JUMP JUMPDEST PUSH2 0x282 SWAP1 PUSH2 0xCFD JUMP JUMPDEST SWAP1 PUSH2 0x370 SWAP1 PUSH2 0xE31 JUMP JUMPDEST PUSH2 0xE50 PUSH2 0x282 DUP3 PUSH2 0x131A JUMP JUMPDEST DUP3 LT ISZERO PUSH2 0xE73 JUMPI PUSH2 0x282 SWAP2 PUSH2 0xE69 PUSH2 0xE6E SWAP3 PUSH1 0x6 PUSH2 0xE3A JUMP JUMPDEST PUSH2 0x366 JUMP JUMPDEST PUSH2 0xC50 JUMP JUMPDEST PUSH4 0x295F44F7 PUSH1 0xE2 SHL PUSH1 0x0 SWAP1 DUP2 MSTORE SWAP2 PUSH2 0xE8C SWAP2 PUSH1 0x4 PUSH2 0xE12 JUMP JUMPDEST SUB PUSH1 0x0 REVERT JUMPDEST PUSH2 0x282 SWAP1 PUSH2 0x2CF JUMP JUMPDEST PUSH2 0x282 SWAP1 SLOAD PUSH2 0xE91 JUMP JUMPDEST ISZERO PUSH2 0xEAB JUMPI JUMP JUMPDEST PUSH1 0x40 MLOAD PUSH3 0x461BCD PUSH1 0xE5 SHL DUP2 MSTORE PUSH1 0x20 PUSH1 0x4 DUP3 ADD MSTORE PUSH1 0x23 PUSH1 0x24 DUP3 ADD MSTORE PUSH32 0x4F6E6C792063726561746F722063616E2063616C6C20746869732066756E6374 PUSH1 0x44 DUP3 ADD MSTORE PUSH3 0x34B7B7 PUSH1 0xE9 SHL PUSH1 0x64 DUP3 ADD MSTORE PUSH1 0x84 SWAP1 REVERT JUMPDEST PUSH2 0x26C SWAP1 PUSH2 0xF24 PUSH2 0xF15 PUSH2 0xF10 PUSH1 0xE PUSH2 0xE9A JUMP JUMPDEST PUSH2 0x2CF JUMP JUMPDEST PUSH2 0xF1E CALLER PUSH2 0x2CF JUMP JUMPDEST EQ PUSH2 0xEA4 JUMP JUMPDEST PUSH2 0xF59 JUMP JUMPDEST SWAP1 PUSH1 0x1 PUSH1 0x1 PUSH1 0xA0 SHL SUB SWAP1 JUMPDEST SWAP2 DUP2 NOT AND SWAP2 AND OR SWAP1 JUMP JUMPDEST SWAP1 PUSH2 0xF4E PUSH2 0x282 PUSH2 0xF55 SWAP3 PUSH2 0xE31 JUMP JUMPDEST DUP3 SLOAD PUSH2 0xF29 JUMP JUMPDEST SWAP1 SSTORE JUMP JUMPDEST PUSH2 0x26C SWAP1 PUSH1 0xE PUSH2 0xF3E JUMP JUMPDEST PUSH2 0x26C SWAP1 PUSH2 0xEFC JUMP JUMPDEST SWAP1 PUSH2 0xF7A PUSH2 0x5F1 DUP4 PUSH2 0x5B8 JUMP JUMPDEST SWAP2 DUP3 MSTORE JUMP JUMPDEST PUSH2 0x282 PUSH1 0x0 PUSH2 0xF6D JUMP JUMPDEST PUSH2 0x282 PUSH2 0xF7F JUMP JUMPDEST SWAP1 SWAP2 PUSH2 0x26C SWAP3 PUSH2 0xF9F PUSH2 0xF89 JUMP JUMPDEST SWAP3 PUSH2 0x13A9 JUMP JUMPDEST PUSH2 0xFB1 PUSH2 0x282 PUSH1 0x8 SLOAD SWAP1 JUMP JUMPDEST DUP2 LT ISZERO PUSH2 0xFC6 JUMPI PUSH2 0xB03 PUSH2 0x282 SWAP2 PUSH1 0x8 PUSH2 0xAC3 JUMP JUMPDEST PUSH2 0xDF5 SWAP1 PUSH1 0x0 SWAP2 DUP3 SWAP2 PUSH2 0xFD8 DUP4 PUSH2 0xD53 JUMP JUMPDEST PUSH4 0x295F44F7 PUSH1 0xE2 SHL DUP5 MSTORE PUSH1 0x4 DUP5 ADD PUSH2 0xE12 JUMP JUMPDEST PUSH2 0x26C SWAP1 PUSH2 0xFFF PUSH2 0xF15 PUSH2 0xF10 PUSH1 0xE PUSH2 0xE9A JUMP JUMPDEST PUSH2 0x1186 JUMP JUMPDEST SWAP2 PUSH1 0x0 NOT PUSH1 0x8 SWAP3 SWAP1 SWAP3 MUL SWAP2 DUP3 SHL SWAP2 SHL PUSH2 0xF34 JUMP JUMPDEST SWAP2 SWAP1 PUSH2 0x1029 PUSH2 0x282 PUSH2 0xF55 SWAP4 PUSH2 0x359 JUMP JUMPDEST SWAP1 DUP4 SLOAD PUSH2 0x1004 JUMP JUMPDEST PUSH2 0x26C SWAP2 PUSH1 0x0 SWAP2 PUSH2 0x1018 JUMP JUMPDEST DUP2 DUP2 LT PUSH2 0x1048 JUMPI POP POP JUMP JUMPDEST DUP1 PUSH2 0x1056 PUSH1 0x0 PUSH1 0x1 SWAP4 PUSH2 0x1031 JUMP JUMPDEST ADD PUSH2 0x103D JUMP JUMPDEST SWAP2 SWAP1 PUSH1 0x1F DUP2 GT PUSH2 0x106B JUMPI POP POP POP JUMP JUMPDEST PUSH2 0x107D PUSH2 0x26C SWAP4 PUSH1 0x0 MSTORE PUSH1 0x20 PUSH1 0x0 KECCAK256 SWAP1 JUMP JUMPDEST SWAP1 PUSH1 0x20 PUSH1 0x1F DUP5 ADD DUP2 SWAP1 DIV DUP4 ADD SWAP4 LT PUSH2 0x109F JUMPI JUMPDEST PUSH1 0x20 PUSH1 0x1F SWAP1 SWAP2 ADD DIV ADD SWAP1 PUSH2 0x103D JUMP JUMPDEST SWAP1 SWAP2 POP DUP2 SWAP1 PUSH2 0x1090 JUMP JUMPDEST SWAP1 PUSH2 0x10B2 DUP2 MLOAD SWAP1 JUMP JUMPDEST SWAP1 PUSH8 0xFFFFFFFFFFFFFFFF DUP3 GT PUSH2 0x59F JUMPI PUSH2 0x10D6 DUP3 PUSH2 0x10D0 DUP6 SLOAD PUSH2 0x8B6 JUMP JUMPDEST DUP6 PUSH2 0x105C JUMP JUMPDEST PUSH1 0x20 SWAP1 PUSH1 0x1F DUP4 GT PUSH1 0x1 EQ PUSH2 0x1111 JUMPI PUSH2 0xF55 SWAP3 SWAP2 PUSH1 0x0 SWAP2 DUP4 PUSH2 0x1106 JUMPI JUMPDEST POP POP PUSH1 0x0 NOT PUSH1 0x8 DUP4 MUL SHR NOT AND SWAP1 PUSH1 0x2 MUL OR SWAP1 JUMP JUMPDEST ADD MLOAD SWAP1 POP CODESIZE DUP1 PUSH2 0x10F2 JUMP JUMPDEST PUSH1 0x1F NOT DUP4 AND SWAP2 PUSH2 0x1126 DUP6 PUSH1 0x0 MSTORE PUSH1 0x20 PUSH1 0x0 KECCAK256 SWAP1 JUMP JUMPDEST SWAP3 PUSH1 0x0 JUMPDEST DUP2 DUP2 LT PUSH2 0x1164 JUMPI POP SWAP2 PUSH1 0x2 SWAP4 SWAP2 DUP6 PUSH1 0x1 SWAP7 SWAP5 LT PUSH2 0x114B JUMPI JUMPDEST POP POP POP MUL ADD SWAP1 SSTORE JUMP JUMPDEST ADD MLOAD PUSH1 0x0 NOT PUSH1 0x8 PUSH1 0x1F DUP6 AND MUL SHR NOT AND SWAP1 SSTORE CODESIZE DUP1 DUP1 PUSH2 0x1142 JUMP JUMPDEST SWAP2 SWAP4 PUSH1 0x20 PUSH1 0x1 DUP2 SWAP3 DUP8 DUP8 ADD MLOAD DUP2 SSTORE ADD SWAP6 ADD SWAP3 ADD PUSH2 0x112A JUMP JUMPDEST SWAP1 PUSH2 0x26C SWAP2 PUSH2 0x10A9 JUMP JUMPDEST PUSH2 0x26C SWAP1 PUSH1 0x12 PUSH2 0x117C JUMP JUMPDEST PUSH2 0x26C SWAP1 PUSH2 0xFEB JUMP JUMPDEST ISZERO PUSH2 0x11A1 JUMPI JUMP JUMPDEST PUSH1 0x40 MLOAD PUSH3 0x461BCD PUSH1 0xE5 SHL DUP2 MSTORE PUSH1 0x20 PUSH1 0x4 DUP3 ADD MSTORE PUSH1 0x19 PUSH1 0x24 DUP3 ADD MSTORE PUSH32 0x537461727420696E646578206F7574206F6620626F756E647300000000000000 PUSH1 0x44 DUP3 ADD MSTORE PUSH1 0x64 SWAP1 REVERT JUMPDEST PUSH4 0x4E487B71 PUSH1 0xE0 SHL PUSH1 0x0 MSTORE PUSH1 0x11 PUSH1 0x4 MSTORE PUSH1 0x24 PUSH1 0x0 REVERT JUMPDEST SWAP2 SWAP1 DUP3 ADD DUP1 SWAP3 GT PUSH2 0x1209 JUMPI JUMP JUMPDEST PUSH2 0x11E6 JUMP JUMPDEST SWAP2 SWAP1 DUP3 SUB SWAP2 DUP3 GT PUSH2 0x1209 JUMPI JUMP JUMPDEST PUSH8 0xFFFFFFFFFFFFFFFF DUP2 GT PUSH2 0x59F JUMPI PUSH1 0x20 DUP1 SWAP2 MUL ADD SWAP1 JUMP JUMPDEST SWAP1 PUSH2 0xF7A PUSH2 0x5F1 DUP4 PUSH2 0x121B JUMP JUMPDEST CALLDATASIZE SWAP1 CALLDATACOPY JUMP JUMPDEST SWAP1 PUSH2 0x26C PUSH2 0x125B PUSH2 0x1255 DUP5 PUSH2 0x1233 JUMP JUMPDEST SWAP4 PUSH2 0x121B JUMP JUMPDEST PUSH1 0x1F NOT ADD PUSH1 0x20 DUP5 ADD PUSH2 0x1240 JUMP JUMPDEST SWAP1 PUSH2 0x1271 DUP3 MLOAD SWAP1 JUMP JUMPDEST DUP2 LT ISZERO PUSH2 0xAE6 JUMPI PUSH1 0x20 DUP1 SWAP2 MUL ADD ADD SWAP1 JUMP JUMPDEST SWAP2 PUSH2 0x12AF PUSH2 0x12A7 PUSH1 0x10 SWAP4 PUSH2 0x12A1 PUSH2 0x129A PUSH2 0x282 DUP8 SLOAD SWAP1 JUMP JUMPDEST DUP8 LT PUSH2 0x119A JUMP JUMPDEST DUP6 PUSH2 0x11FC JUMP JUMPDEST DUP4 SLOAD SWAP1 PUSH2 0x16B0 JUMP JUMPDEST SWAP2 PUSH2 0x12C2 PUSH2 0x12BD DUP6 DUP6 PUSH2 0x120E JUMP JUMPDEST PUSH2 0x1245 JUMP JUMPDEST SWAP2 DUP5 JUMPDEST DUP5 JUMPDEST DUP2 LT ISZERO PUSH2 0x1308 JUMPI PUSH2 0x1301 DUP2 PUSH2 0x12FB PUSH2 0x12E5 PUSH2 0xB03 PUSH2 0x12C7 SWAP6 DUP9 PUSH2 0xAC3 JUMP JUMPDEST PUSH2 0x12F8 PUSH2 0x12F2 DUP12 DUP6 PUSH2 0x120E JUMP JUMPDEST DUP10 PUSH2 0x1268 JUMP JUMPDEST MSTORE JUMP JUMPDEST PUSH1 0x1 ADD SWAP1 JUMP JUMPDEST SWAP1 POP PUSH2 0x12C5 JUMP JUMPDEST POP SWAP4 POP POP SWAP1 POP SWAP1 JUMP JUMPDEST PUSH2 0x282 SWAP1 PUSH2 0x163C JUMP JUMPDEST PUSH1 0x0 PUSH2 0x1325 DUP2 PUSH2 0xD53 JUMP JUMPDEST PUSH2 0x132E DUP2 PUSH2 0x2CF JUMP JUMPDEST PUSH2 0x1337 DUP5 PUSH2 0x2CF JUMP JUMPDEST EQ PUSH2 0x134C JUMPI POP POP PUSH2 0xE6E PUSH2 0x282 SWAP2 PUSH1 0x3 PUSH2 0xE3A JUMP JUMPDEST PUSH4 0x22718AD9 PUSH1 0xE2 SHL DUP3 MSTORE DUP2 SWAP1 PUSH2 0xDF5 SWAP1 PUSH1 0x4 DUP4 ADD PUSH2 0x2FB JUMP JUMPDEST PUSH2 0x136D PUSH2 0x16C2 JUMP JUMPDEST PUSH2 0x26C PUSH2 0x26C PUSH2 0x137D PUSH1 0x0 PUSH2 0xD53 JUMP JUMPDEST PUSH2 0x16FF JUMP JUMPDEST PUSH2 0x26C PUSH2 0x1365 JUMP JUMPDEST PUSH2 0x282 PUSH1 0xA PUSH2 0xE9A JUMP JUMPDEST PUSH2 0x282 PUSH1 0x1 PUSH2 0xC18 JUMP JUMPDEST PUSH2 0x26C SWAP2 SWAP1 CALLER PUSH2 0x1778 JUMP JUMPDEST SWAP1 PUSH2 0x26C SWAP4 SWAP3 SWAP2 PUSH2 0x13BB DUP4 DUP4 DUP4 PUSH2 0xD8A JUMP JUMPDEST PUSH2 0x187E JUMP JUMPDEST PUSH2 0x282 SWAP1 SLOAD PUSH2 0x8B6 JUMP JUMPDEST DUP1 SLOAD PUSH1 0x0 SWAP4 SWAP3 SWAP2 PUSH2 0x13E1 PUSH2 0x13DD DUP4 PUSH2 0x8B6 JUMP JUMPDEST SWAP4 SWAP1 JUMP JUMPDEST SWAP2 PUSH1 0x1 DUP2 AND SWAP1 DUP2 ISZERO PUSH2 0x1432 JUMPI POP PUSH1 0x1 EQ PUSH2 0x13FA JUMPI POP POP POP JUMP JUMPDEST PUSH2 0x140D SWAP2 SWAP3 SWAP4 SWAP5 POP PUSH1 0x0 MSTORE PUSH1 0x20 PUSH1 0x0 KECCAK256 SWAP1 JUMP JUMPDEST PUSH1 0x0 SWAP1 JUMPDEST DUP4 DUP3 LT PUSH2 0x141E JUMPI POP POP ADD SWAP1 JUMP JUMPDEST PUSH1 0x1 DUP2 PUSH1 0x20 SWAP3 SLOAD DUP5 DUP7 ADD MSTORE ADD SWAP2 ADD SWAP1 PUSH2 0x1411 JUMP JUMPDEST PUSH1 0xFF NOT AND DUP4 MSTORE POP POP DUP2 ISZERO ISZERO SWAP1 SWAP2 MUL ADD SWAP2 POP JUMP JUMPDEST PUSH2 0x42B PUSH2 0x145D SWAP3 PUSH1 0x20 SWAP3 PUSH2 0x1457 DUP2 MLOAD SWAP1 JUMP JUMPDEST SWAP5 DUP6 SWAP3 SWAP1 JUMP JUMPDEST SWAP4 DUP5 SWAP2 ADD PUSH2 0x3D4 JUMP JUMPDEST SWAP2 PUSH1 0x1 PUSH2 0x1478 PUSH1 0x5 SWAP5 PUSH2 0x1486 SWAP5 PUSH2 0x13CA JUMP JUMPDEST PUSH1 0x2F PUSH1 0xF8 SHL DUP2 MSTORE ADD SWAP1 PUSH2 0x1445 JUMP JUMPDEST PUSH5 0x173539B7B7 PUSH1 0xD9 SHL DUP2 MSTORE ADD SWAP1 JUMP JUMPDEST PUSH2 0x14B5 SWAP3 SWAP2 PUSH2 0x26C SWAP2 PUSH2 0x14A7 PUSH1 0x40 MLOAD SWAP1 JUMP JUMPDEST SWAP5 DUP6 SWAP3 PUSH1 0x20 DUP5 ADD SWAP3 DUP4 PUSH2 0x1466 JUMP JUMPDEST SWAP1 DUP2 SUB DUP3 MSTORE SUB DUP4 PUSH2 0x57D JUMP JUMPDEST PUSH2 0x14CA DUP2 PUSH2 0x163C JUMP JUMPDEST POP PUSH2 0x14D5 PUSH1 0x12 PUSH2 0x13C0 JUMP JUMPDEST PUSH2 0x14E6 PUSH2 0x14E2 PUSH1 0x0 PUSH2 0x359 JUMP JUMPDEST SWAP2 SWAP1 JUMP JUMPDEST GT ISZERO PUSH2 0x14FF JUMPI PUSH2 0x14F8 PUSH2 0x282 SWAP2 PUSH2 0x19E0 JUMP JUMPDEST PUSH1 0x12 PUSH2 0x1495 JUMP JUMPDEST POP PUSH2 0x282 PUSH2 0xF89 JUMP JUMPDEST PUSH2 0xB03 PUSH2 0x282 SWAP2 PUSH2 0x1517 PUSH1 0x0 SWAP1 JUMP JUMPDEST POP PUSH1 0x10 PUSH2 0xAC3 JUMP JUMPDEST PUSH2 0x152B SWAP1 PUSH1 0x10 SWAP3 PUSH2 0x13CA JUMP JUMPDEST PUSH16 0x17B1B7B63632B1BA34B7B7173539B7B7 PUSH1 0x81 SHL DUP2 MSTORE ADD SWAP1 JUMP JUMPDEST SWAP1 PUSH2 0x26C PUSH2 0x1552 PUSH1 0x40 MLOAD SWAP1 JUMP JUMPDEST DUP1 SWAP4 PUSH2 0x14B5 PUSH1 0x20 DUP4 ADD SWAP2 DUP3 PUSH2 0x151F JUMP JUMPDEST PUSH2 0x156C PUSH1 0x12 PUSH2 0x13C0 JUMP JUMPDEST PUSH2 0x1579 PUSH2 0x14E2 PUSH1 0x0 PUSH2 0x359 JUMP JUMPDEST GT ISZERO PUSH2 0x1589 JUMPI PUSH2 0x282 PUSH1 0x12 PUSH2 0x1545 JUMP JUMPDEST PUSH2 0x282 PUSH2 0xF89 JUMP JUMPDEST PUSH2 0x282 SWAP2 PUSH2 0x15AC PUSH2 0x15B1 SWAP3 PUSH2 0x15A4 PUSH1 0x0 SWAP1 JUMP JUMPDEST POP PUSH1 0x5 PUSH2 0xE3A JUMP JUMPDEST PUSH2 0xE3A JUMP JUMPDEST SLOAD PUSH1 0xFF AND SWAP1 JUMP JUMPDEST PUSH2 0x26C SWAP1 PUSH2 0x15C4 PUSH2 0x16C2 JUMP JUMPDEST PUSH1 0x0 PUSH2 0x15CF DUP2 PUSH2 0xD53 JUMP JUMPDEST PUSH2 0x15D8 DUP2 PUSH2 0x2CF JUMP JUMPDEST PUSH2 0x15E1 DUP5 PUSH2 0x2CF JUMP JUMPDEST EQ PUSH2 0x15F1 JUMPI POP POP PUSH2 0x26C SWAP1 PUSH2 0x16FF JUMP JUMPDEST PUSH4 0x1E4FBDF7 PUSH1 0xE0 SHL DUP3 MSTORE DUP2 SWAP1 PUSH2 0xDF5 SWAP1 PUSH1 0x4 DUP4 ADD PUSH2 0x2FB JUMP JUMPDEST PUSH2 0x26C SWAP1 PUSH2 0x15B8 JUMP JUMPDEST PUSH4 0x780E9D63 PUSH1 0xE0 SHL PUSH1 0x1 PUSH1 0x1 PUSH1 0xE0 SHL SUB NOT DUP3 AND EQ SWAP1 DUP2 ISZERO PUSH2 0x1632 JUMPI POP SWAP1 JUMP JUMPDEST PUSH2 0x282 SWAP2 POP PUSH2 0x1A73 JUMP JUMPDEST PUSH2 0x1645 DUP2 PUSH2 0x1ABE JUMP JUMPDEST SWAP1 PUSH1 0x0 SWAP1 PUSH2 0x1655 PUSH2 0xF10 DUP4 PUSH2 0xD53 JUMP JUMPDEST PUSH2 0x165E DUP5 PUSH2 0x2CF JUMP JUMPDEST EQ PUSH2 0x1668 JUMPI POP POP SWAP1 JUMP JUMPDEST PUSH4 0x7E273289 PUSH1 0xE0 SHL DUP3 MSTORE PUSH1 0x4 DUP3 ADD MSTORE PUSH1 0x24 SWAP1 REVERT JUMPDEST PUSH2 0x1693 PUSH2 0x282 SWAP2 PUSH2 0x168B PUSH1 0x0 SWAP1 JUMP JUMPDEST POP PUSH1 0x4 PUSH2 0x366 JUMP JUMPDEST PUSH2 0xE9A JUMP JUMPDEST SWAP2 PUSH1 0x1 SWAP2 PUSH2 0x26C SWAP4 PUSH2 0x1AD5 JUMP JUMPDEST PUSH2 0x282 SWAP3 SWAP2 SWAP1 PUSH2 0x1C01 JUMP JUMPDEST SWAP1 DUP1 DUP3 LT ISZERO PUSH2 0x16BD JUMPI POP SWAP1 JUMP JUMPDEST SWAP1 POP SWAP1 JUMP JUMPDEST PUSH2 0x16CA PUSH2 0x138A JUMP JUMPDEST CALLER SWAP1 PUSH2 0x16DE PUSH2 0x16D8 DUP4 PUSH2 0x2CF JUMP JUMPDEST SWAP2 PUSH2 0x2CF JUMP JUMPDEST SUB PUSH2 0x16E6 JUMPI POP JUMP JUMPDEST PUSH4 0x118CDAA7 PUSH1 0xE0 SHL PUSH1 0x0 SWAP1 DUP2 MSTORE SWAP1 PUSH2 0xE8C SWAP1 PUSH1 0x4 PUSH2 0x2FB JUMP JUMPDEST PUSH2 0x1725 PUSH2 0x171F PUSH2 0x170F PUSH1 0xA PUSH2 0xE9A JUMP JUMPDEST PUSH2 0x171A DUP5 PUSH1 0xA PUSH2 0xF3E JUMP JUMPDEST PUSH2 0xE31 JUMP JUMPDEST SWAP2 PUSH2 0xE31 JUMP JUMPDEST SWAP1 PUSH32 0x8BE0079C531659141344CD1FD0A4F28419497F9722A3DAAFE3B4186F6B6457E0 PUSH2 0x1750 PUSH1 0x40 MLOAD SWAP1 JUMP JUMPDEST DUP1 DUP1 JUMPDEST SUB SWAP1 LOG3 JUMP JUMPDEST SWAP1 PUSH1 0xFF SWAP1 PUSH2 0xF34 JUMP JUMPDEST SWAP1 PUSH2 0x1771 PUSH2 0x282 PUSH2 0xF55 SWAP3 ISZERO ISZERO SWAP1 JUMP JUMPDEST DUP3 SLOAD PUSH2 0x1758 JUMP JUMPDEST PUSH1 0x0 PUSH2 0x1786 PUSH2 0xF10 DUP3 PUSH2 0xD53 JUMP JUMPDEST PUSH2 0x178F DUP5 PUSH2 0x2CF JUMP JUMPDEST EQ PUSH2 0x17E8 JUMPI POP PUSH2 0x1753 PUSH2 0x17DE PUSH2 0x17D8 DUP4 PUSH2 0x171A DUP8 PUSH2 0x17D3 DUP9 PUSH2 0x15AC PUSH32 0x17307EAB39AB6107E8899845AD3D59BD9653F200F220920489CA2B5937696C31 SWAP10 PUSH1 0x5 PUSH2 0xE3A JUMP JUMPDEST PUSH2 0x1761 JUMP JUMPDEST SWAP4 PUSH2 0xE31 JUMP JUMPDEST SWAP4 PUSH2 0x2A8 PUSH1 0x40 MLOAD SWAP1 JUMP JUMPDEST PUSH4 0xB611743 PUSH1 0xE3 SHL DUP2 MSTORE DUP1 PUSH2 0xDF5 DUP5 PUSH1 0x4 DUP4 ADD PUSH2 0x2FB JUMP JUMPDEST SWAP1 POP MLOAD SWAP1 PUSH2 0x26C DUP3 PUSH2 0x247 JUMP JUMPDEST SWAP1 PUSH1 0x20 DUP3 DUP3 SUB SLT PUSH2 0x25A JUMPI PUSH2 0x282 SWAP2 PUSH2 0x1800 JUMP JUMPDEST SWAP1 SWAP3 PUSH2 0x1852 SWAP1 PUSH2 0x184B PUSH2 0x282 SWAP7 SWAP5 PUSH2 0x1841 PUSH1 0x80 DUP7 ADD SWAP8 PUSH1 0x0 DUP8 ADD SWAP1 PUSH2 0x2F2 JUMP JUMPDEST PUSH1 0x20 DUP6 ADD SWAP1 PUSH2 0x2F2 JUMP JUMPDEST PUSH1 0x40 DUP4 ADD MSTORE JUMP JUMPDEST PUSH1 0x60 DUP2 DUP5 SUB SWAP2 ADD MSTORE PUSH2 0x3F7 JUMP JUMPDEST RETURNDATASIZE ISZERO PUSH2 0x1879 JUMPI PUSH2 0x186E RETURNDATASIZE PUSH2 0xF6D JUMP JUMPDEST SWAP1 RETURNDATASIZE PUSH1 0x0 PUSH1 0x20 DUP5 ADD RETURNDATACOPY JUMP JUMPDEST PUSH1 0x60 SWAP1 JUMP JUMPDEST PUSH1 0x0 SWAP4 SWAP2 SWAP3 DUP4 EXTCODESIZE PUSH2 0x1891 PUSH2 0x14E2 DUP8 PUSH2 0x359 JUMP JUMPDEST GT PUSH2 0x189E JUMPI JUMPDEST POP POP POP POP POP JUMP JUMPDEST PUSH1 0x20 SWAP2 PUSH2 0x18AD PUSH2 0x171A DUP7 PUSH2 0xE31 JUMP JUMPDEST SWAP1 DUP7 CALLER PUSH2 0x18D6 PUSH2 0x18BC PUSH1 0x40 MLOAD SWAP1 JUMP JUMPDEST SWAP8 DUP9 SWAP7 DUP8 SWAP6 DUP7 SWAP5 PUSH4 0xA85BD01 PUSH1 0xE1 SHL DUP7 MSTORE PUSH1 0x4 DUP7 ADD PUSH2 0x1821 JUMP JUMPDEST SUB SWAP3 GAS CALL PUSH1 0x0 SWAP2 DUP2 PUSH2 0x1974 JUMPI JUMPDEST POP PUSH2 0x1935 JUMPI POP PUSH2 0x18F8 JUMP JUMPDEST CODESIZE DUP1 DUP1 DUP1 DUP1 PUSH2 0x1897 JUMP JUMPDEST PUSH2 0x1900 PUSH2 0x185F JUMP JUMPDEST DUP1 MLOAD PUSH2 0x190E PUSH2 0x14E2 DUP6 PUSH2 0x359 JUMP JUMPDEST SUB PUSH2 0x192D JUMPI POP PUSH4 0x32505749 PUSH1 0xE1 SHL DUP3 MSTORE DUP2 SWAP1 PUSH2 0xDF5 SWAP1 PUSH1 0x4 DUP4 ADD PUSH2 0x2FB JUMP JUMPDEST DUP1 MLOAD SWAP1 PUSH1 0x20 ADD REVERT JUMPDEST PUSH2 0x194F PUSH4 0xA85BD01 PUSH1 0xE1 SHL JUMPDEST SWAP2 PUSH1 0x1 PUSH1 0x1 PUSH1 0xE0 SHL SUB NOT AND SWAP1 JUMP JUMPDEST SUB PUSH2 0x195B JUMPI POP POP PUSH2 0x18EE JUMP JUMPDEST PUSH4 0x32505749 PUSH1 0xE1 SHL DUP3 MSTORE DUP2 SWAP1 PUSH2 0xDF5 SWAP1 PUSH1 0x4 DUP4 ADD PUSH2 0x2FB JUMP JUMPDEST PUSH2 0x1997 SWAP2 SWAP3 POP PUSH1 0x20 RETURNDATASIZE PUSH1 0x20 GT PUSH2 0x199E JUMPI JUMPDEST PUSH2 0x198F DUP2 DUP4 PUSH2 0x57D JUMP JUMPDEST DUP2 ADD SWAP1 PUSH2 0x180D JUMP JUMPDEST SWAP1 CODESIZE PUSH2 0x18E3 JUMP JUMPDEST POP RETURNDATASIZE PUSH2 0x1985 JUMP JUMPDEST SWAP1 PUSH2 0x26C PUSH2 0x125B PUSH2 0x19B5 DUP5 PUSH2 0xF6D JUMP JUMPDEST SWAP4 PUSH2 0x5B8 JUMP JUMPDEST PUSH4 0x4E487B71 PUSH1 0xE0 SHL PUSH1 0x0 MSTORE PUSH1 0x12 PUSH1 0x4 MSTORE PUSH1 0x24 PUSH1 0x0 REVERT JUMPDEST DUP2 ISZERO PUSH2 0x19DB JUMPI DIV SWAP1 JUMP JUMPDEST PUSH2 0x19BB JUMP JUMPDEST PUSH2 0x19E9 DUP2 PUSH2 0x1C9A JUMP JUMPDEST SWAP1 PUSH2 0x19FA PUSH1 0x1 SWAP3 PUSH2 0x42B PUSH1 0x1 PUSH2 0x359 JUMP JUMPDEST SWAP2 DUP1 PUSH2 0x1A05 DUP5 PUSH2 0x19A5 JUMP JUMPDEST SWAP4 PUSH1 0x20 ADD DUP5 ADD SWAP1 JUMPDEST PUSH2 0x1A18 JUMPI JUMPDEST POP POP POP SWAP1 JUMP JUMPDEST DUP2 ISZERO PUSH2 0x1A6E JUMPI PUSH2 0x1A52 SWAP1 PUSH1 0x0 NOT ADD SWAP3 PUSH16 0x181899199A1A9B1B9C1CB0B131B232B3 PUSH1 0x81 SHL PUSH1 0xA DUP3 MOD BYTE DUP5 MSTORE8 PUSH2 0x1A4C PUSH1 0xA PUSH2 0x359 JUMP JUMPDEST SWAP1 PUSH2 0x19D1 JUMP JUMPDEST SWAP1 DUP2 PUSH2 0x1A61 PUSH2 0x14E2 PUSH1 0x0 PUSH2 0x359 JUMP JUMPDEST EQ PUSH2 0x1A6E JUMPI SWAP1 SWAP2 DUP2 PUSH2 0x1A0D JUMP JUMPDEST PUSH2 0x1A12 JUMP JUMPDEST PUSH4 0x80AC58CD PUSH1 0xE0 SHL PUSH1 0x1 PUSH1 0x1 PUSH1 0xE0 SHL SUB NOT DUP3 AND EQ SWAP1 DUP2 ISZERO PUSH2 0x1AA3 JUMPI JUMPDEST DUP2 ISZERO PUSH2 0x1A99 JUMPI POP SWAP1 JUMP JUMPDEST PUSH2 0x282 SWAP2 POP PUSH2 0x1E3C JUMP JUMPDEST PUSH1 0x1 PUSH1 0x1 PUSH1 0xE0 SHL SUB NOT DUP2 AND PUSH4 0x5B5E139F PUSH1 0xE0 SHL EQ SWAP2 POP PUSH2 0x1A8F JUMP JUMPDEST PUSH2 0x1693 PUSH2 0x282 SWAP2 PUSH2 0x1ACD PUSH1 0x0 SWAP1 JUMP JUMPDEST POP PUSH1 0x2 PUSH2 0x366 JUMP JUMPDEST SWAP3 SWAP2 SWAP1 SWAP2 DUP1 DUP2 ISZERO PUSH2 0x1BE3 JUMPI JUMPDEST PUSH2 0x1AFC JUMPI JUMPDEST POP POP SWAP1 PUSH2 0x1AF7 PUSH2 0x26C SWAP3 PUSH1 0x4 PUSH2 0x366 JUMP JUMPDEST PUSH2 0xF3E JUMP JUMPDEST PUSH2 0x1B05 DUP4 PUSH2 0x163C JUMP JUMPDEST SWAP2 PUSH1 0x0 SWAP1 PUSH2 0x1B15 PUSH2 0xF10 DUP4 PUSH2 0xD53 JUMP JUMPDEST PUSH2 0x1B1E DUP3 PUSH2 0x2CF JUMP JUMPDEST EQ ISZERO DUP1 PUSH2 0x1BC9 JUMPI JUMPDEST DUP1 PUSH2 0x1BB2 JUMPI JUMPDEST PUSH2 0x1B99 JUMPI POP POP SWAP2 PUSH2 0x1AF7 SWAP2 PUSH2 0x26C SWAP5 SWAP4 PUSH2 0x1B49 JUMPI JUMPDEST POP SWAP2 SWAP3 PUSH2 0x1AE6 JUMP JUMPDEST PUSH2 0x1B52 SWAP1 PUSH2 0xE31 JUMP JUMPDEST PUSH2 0x1B5B DUP5 PUSH2 0xE31 JUMP JUMPDEST PUSH2 0x1B64 DUP4 PUSH2 0x359 JUMP JUMPDEST SWAP2 PUSH32 0x8C5BE1E5EBEC7D5BD14F71427D1E84F3DD0314C0F7B2291E5B200AC8C7C3B925 PUSH2 0x1B8F PUSH1 0x40 MLOAD SWAP1 JUMP JUMPDEST PUSH1 0x0 SWAP1 LOG4 CODESIZE PUSH2 0x1B41 JUMP JUMPDEST PUSH4 0xA9FBF51F PUSH1 0xE0 SHL DUP3 MSTORE DUP2 SWAP1 PUSH2 0xDF5 SWAP1 PUSH1 0x4 DUP4 ADD PUSH2 0x2FB JUMP JUMPDEST POP PUSH2 0x1BC4 PUSH2 0x1BC0 DUP3 DUP7 PUSH2 0x1591 JUMP JUMPDEST ISZERO SWAP1 JUMP JUMPDEST PUSH2 0x1B2C JUMP JUMPDEST POP PUSH2 0x1BD3 DUP2 PUSH2 0x2CF JUMP JUMPDEST PUSH2 0x1BDC DUP6 PUSH2 0x2CF JUMP JUMPDEST EQ ISZERO PUSH2 0x1B26 JUMP JUMPDEST POP PUSH2 0x1BF1 PUSH2 0xF10 PUSH1 0x0 PUSH2 0xD53 JUMP JUMPDEST PUSH2 0x1BFA DUP4 PUSH2 0x2CF JUMP JUMPDEST EQ ISZERO PUSH2 0x1AE1 JUMP JUMPDEST SWAP1 SWAP2 PUSH2 0x1C0E SWAP1 DUP4 DUP4 PUSH2 0x1E71 JUMP JUMPDEST SWAP2 PUSH2 0x1C3C PUSH2 0x1C1C PUSH1 0x0 PUSH2 0xD53 JUMP JUMPDEST PUSH2 0x1C25 DUP2 PUSH2 0x2CF JUMP JUMPDEST PUSH2 0x1C2E DUP7 PUSH2 0x2CF JUMP JUMPDEST SUB PUSH2 0x1C79 JUMPI PUSH2 0xF10 DUP4 PUSH2 0x205E JUMP JUMPDEST PUSH2 0x1C45 DUP4 PUSH2 0x2CF JUMP JUMPDEST SUB PUSH2 0x1C54 JUMPI PUSH2 0x282 SWAP2 POP PUSH2 0x20FD JUMP JUMPDEST PUSH2 0x1C5D DUP3 PUSH2 0x2CF JUMP JUMPDEST PUSH2 0x1C66 DUP5 PUSH2 0x2CF JUMP JUMPDEST SUB PUSH2 0x1C70 JUMPI POP POP SWAP1 JUMP JUMPDEST PUSH2 0x282 SWAP2 PUSH2 0x2080 JUMP JUMPDEST PUSH2 0x1C82 DUP5 PUSH2 0x2CF JUMP JUMPDEST PUSH2 0x1C8B DUP7 PUSH2 0x2CF JUMP JUMPDEST EQ PUSH2 0x2CF JUMPI PUSH2 0xF10 DUP4 DUP7 PUSH2 0x1FA5 JUMP JUMPDEST PUSH2 0x1CA4 PUSH1 0x0 PUSH2 0x359 JUMP JUMPDEST SWAP1 PUSH27 0x184F03E93FF9F4DAA797ED6E38ED64BF6A1F010000000000000000 PUSH2 0x1CCA DUP2 PUSH2 0x359 JUMP JUMPDEST DUP3 LT ISZERO PUSH2 0x1E1A JUMPI JUMPDEST POP PUSH14 0x4EE2D6D415B85ACEF8100000000 PUSH2 0x1CEB DUP2 PUSH2 0x359 JUMP JUMPDEST DUP3 LT ISZERO PUSH2 0x1DF8 JUMPI JUMPDEST POP PUSH7 0x2386F26FC10000 PUSH2 0x1D05 DUP2 PUSH2 0x359 JUMP JUMPDEST DUP3 LT ISZERO PUSH2 0x1DD6 JUMPI JUMPDEST POP PUSH4 0x5F5E100 PUSH2 0x1D1C DUP2 PUSH2 0x359 JUMP JUMPDEST DUP3 LT ISZERO PUSH2 0x1DB4 JUMPI JUMPDEST POP PUSH2 0x2710 PUSH2 0x1D31 DUP2 PUSH2 0x359 JUMP JUMPDEST DUP3 LT ISZERO PUSH2 0x1D92 JUMPI JUMPDEST POP PUSH2 0x1D44 PUSH1 0x64 PUSH2 0x359 JUMP JUMPDEST DUP2 LT ISZERO PUSH2 0x1D70 JUMPI JUMPDEST PUSH2 0x1D59 PUSH2 0x14E2 PUSH1 0xA PUSH2 0x359 JUMP JUMPDEST LT ISZERO PUSH2 0x1D62 JUMPI SWAP1 JUMP JUMPDEST PUSH2 0x282 SWAP1 PUSH2 0x42B PUSH1 0x1 PUSH2 0x359 JUMP JUMPDEST PUSH2 0x1D81 PUSH2 0x1D8C SWAP2 PUSH2 0x1A4C PUSH1 0x64 PUSH2 0x359 JUMP JUMPDEST SWAP2 PUSH2 0x42B PUSH1 0x2 PUSH2 0x359 JUMP JUMPDEST SWAP1 PUSH2 0x1D4C JUMP JUMPDEST PUSH2 0x1DAD SWAP2 PUSH2 0x1A4C PUSH2 0x1DA2 SWAP3 PUSH2 0x359 JUMP JUMPDEST SWAP2 PUSH2 0x42B PUSH1 0x4 PUSH2 0x359 JUMP JUMPDEST SWAP1 CODESIZE PUSH2 0x1D39 JUMP JUMPDEST PUSH2 0x1DCF SWAP2 PUSH2 0x1A4C PUSH2 0x1DC4 SWAP3 PUSH2 0x359 JUMP JUMPDEST SWAP2 PUSH2 0x42B PUSH1 0x8 PUSH2 0x359 JUMP JUMPDEST SWAP1 CODESIZE PUSH2 0x1D24 JUMP JUMPDEST PUSH2 0x1DF1 SWAP2 PUSH2 0x1A4C PUSH2 0x1DE6 SWAP3 PUSH2 0x359 JUMP JUMPDEST SWAP2 PUSH2 0x42B PUSH1 0x10 PUSH2 0x359 JUMP JUMPDEST SWAP1 CODESIZE PUSH2 0x1D0D JUMP JUMPDEST PUSH2 0x1E13 SWAP2 PUSH2 0x1A4C PUSH2 0x1E08 SWAP3 PUSH2 0x359 JUMP JUMPDEST SWAP2 PUSH2 0x42B PUSH1 0x20 PUSH2 0x359 JUMP JUMPDEST SWAP1 CODESIZE PUSH2 0x1CF3 JUMP JUMPDEST PUSH2 0x1E35 SWAP2 PUSH2 0x1A4C PUSH2 0x1E2A SWAP3 PUSH2 0x359 JUMP JUMPDEST SWAP2 PUSH2 0x42B PUSH1 0x40 PUSH2 0x359 JUMP JUMPDEST SWAP1 CODESIZE PUSH2 0x1CD2 JUMP JUMPDEST PUSH2 0x1E4C PUSH4 0x1FFC9A7 PUSH1 0xE0 SHL PUSH2 0x1941 JUMP JUMPDEST EQ SWAP1 JUMP JUMPDEST SWAP1 PUSH1 0x0 NOT SWAP1 PUSH2 0xF34 JUMP JUMPDEST SWAP1 PUSH2 0x1E6A PUSH2 0x282 PUSH2 0xF55 SWAP3 PUSH2 0x359 JUMP JUMPDEST DUP3 SLOAD PUSH2 0x1E50 JUMP JUMPDEST SWAP1 PUSH2 0x1EC4 PUSH2 0x1E7E DUP3 PUSH2 0x1ABE JUMP JUMPDEST SWAP4 PUSH1 0x0 PUSH2 0x1E8A DUP2 PUSH2 0xD53 JUMP JUMPDEST SWAP2 DUP5 PUSH2 0x1E95 DUP5 PUSH2 0x2CF JUMP JUMPDEST PUSH2 0x1E9E DUP4 PUSH2 0x2CF JUMP JUMPDEST SUB PUSH2 0x1F94 JUMPI JUMPDEST POP POP PUSH2 0x1EAF DUP3 PUSH2 0x2CF JUMP JUMPDEST PUSH2 0x1EB8 DUP8 PUSH2 0x2CF JUMP JUMPDEST SUB PUSH2 0x1F59 JUMPI JUMPDEST POP PUSH2 0x2CF JUMP JUMPDEST PUSH2 0x1ECD DUP4 PUSH2 0x2CF JUMP JUMPDEST SUB PUSH2 0x1F29 JUMPI JUMPDEST PUSH2 0x1EE2 DUP3 PUSH2 0x1AF7 DUP4 PUSH1 0x2 PUSH2 0x366 JUMP JUMPDEST PUSH2 0x1EF7 PUSH2 0x1EF1 PUSH2 0x17D8 DUP6 PUSH2 0xE31 JUMP JUMPDEST SWAP2 PUSH2 0x359 JUMP JUMPDEST SWAP2 PUSH32 0xDDF252AD1BE2C89B69C2B068FC378DAA952BA7F163C4A11628F55A4DF523B3EF PUSH2 0x1F22 PUSH1 0x40 MLOAD SWAP1 JUMP JUMPDEST PUSH1 0x0 SWAP1 LOG4 SWAP1 JUMP JUMPDEST PUSH2 0x1F54 PUSH2 0x1F36 PUSH1 0x1 PUSH2 0x359 JUMP JUMPDEST PUSH2 0x1F4E PUSH2 0x1F44 DUP6 PUSH1 0x3 PUSH2 0xE3A JUMP JUMPDEST SWAP2 PUSH2 0x42B DUP4 PUSH2 0xC50 JUMP JUMPDEST SWAP1 PUSH2 0x1E5A JUMP JUMPDEST PUSH2 0x1ED3 JUMP JUMPDEST PUSH2 0x1F65 SWAP1 DUP3 DUP6 DUP2 PUSH2 0x1AD5 JUMP JUMPDEST PUSH2 0x1F8E PUSH2 0x1F72 PUSH1 0x1 PUSH2 0x359 JUMP JUMPDEST PUSH2 0x1F4E PUSH2 0x1F80 DUP9 PUSH1 0x3 PUSH2 0xE3A JUMP JUMPDEST SWAP2 PUSH2 0x1F8A DUP4 PUSH2 0xC50 JUMP JUMPDEST SUB SWAP1 JUMP JUMPDEST CODESIZE PUSH2 0x1EBE JUMP JUMPDEST PUSH2 0x1F9E SWAP2 DUP9 PUSH2 0x2150 JUMP JUMPDEST CODESIZE DUP5 PUSH2 0x1EA4 JUMP JUMPDEST PUSH2 0x1FE4 PUSH2 0x26C SWAP3 PUSH2 0xE69 PUSH1 0x0 SWAP4 PUSH2 0x1FE9 DUP6 PUSH2 0x1FE4 PUSH2 0x1FC2 DUP5 PUSH2 0x131A JUMP JUMPDEST SWAP6 PUSH1 0x7 DUP6 PUSH2 0x1FD3 PUSH2 0xE6E DUP5 DUP5 PUSH2 0x366 JUMP JUMPDEST DUP10 DUP1 DUP3 SUB PUSH2 0x1FF0 JUMPI JUMPDEST POP POP POP PUSH2 0x366 JUMP JUMPDEST PUSH2 0x1031 JUMP JUMPDEST PUSH1 0x6 PUSH2 0xE3A JUMP JUMPDEST PUSH2 0xE69 PUSH2 0x2022 DUP5 PUSH2 0x201D DUP6 PUSH2 0x2013 PUSH2 0xE6E PUSH2 0x201D SWAP8 PUSH2 0xE69 PUSH2 0x2028 SWAP12 PUSH1 0x6 PUSH2 0xE3A JUMP JUMPDEST SWAP5 DUP6 SWAP4 PUSH1 0x6 PUSH2 0xE3A JUMP JUMPDEST PUSH2 0x1E5A JUMP JUMPDEST DUP5 PUSH2 0x366 JUMP JUMPDEST DUP6 CODESIZE DUP10 PUSH2 0x1FDC JUMP JUMPDEST SWAP1 DUP2 SLOAD SWAP2 PUSH9 0x10000000000000000 DUP4 LT ISZERO PUSH2 0x59F JUMPI DUP3 PUSH2 0x2058 SWAP2 PUSH1 0x1 PUSH2 0x26C SWAP6 ADD DUP2 SSTORE PUSH2 0xAC3 JUMP JUMPDEST SWAP1 PUSH2 0x1018 JUMP JUMPDEST PUSH2 0x26C SWAP1 PUSH2 0x2079 PUSH2 0x206E PUSH1 0x8 SLOAD SWAP1 JUMP JUMPDEST PUSH2 0x201D DUP4 PUSH1 0x9 PUSH2 0x366 JUMP JUMPDEST PUSH1 0x8 PUSH2 0x2030 JUMP JUMPDEST PUSH2 0x201D DUP3 PUSH2 0x20B8 PUSH2 0x26C SWAP5 PUSH2 0x201D PUSH2 0xE69 SWAP6 PUSH2 0x20AE PUSH2 0x209E DUP3 PUSH2 0x131A JUMP JUMPDEST PUSH2 0x20A8 PUSH1 0x1 PUSH2 0x359 JUMP JUMPDEST SWAP1 PUSH2 0x120E JUMP JUMPDEST SWAP7 DUP8 SWAP2 PUSH1 0x6 PUSH2 0xE3A JUMP JUMPDEST PUSH1 0x7 PUSH2 0x366 JUMP JUMPDEST PUSH4 0x4E487B71 PUSH1 0xE0 SHL PUSH1 0x0 MSTORE PUSH1 0x31 PUSH1 0x4 MSTORE PUSH1 0x24 PUSH1 0x0 REVERT JUMPDEST DUP1 SLOAD DUP1 ISZERO PUSH2 0x20F8 JUMPI PUSH1 0x0 NOT ADD SWAP1 PUSH2 0x20F5 PUSH2 0x20EF DUP4 DUP4 PUSH2 0xAC3 JUMP JUMPDEST SWAP1 PUSH2 0x1031 JUMP JUMPDEST SSTORE JUMP JUMPDEST PUSH2 0x20BF JUMP JUMPDEST PUSH2 0x214B PUSH2 0x26C SWAP2 PUSH2 0x282 PUSH1 0x0 PUSH2 0x1FE4 PUSH1 0x8 SWAP4 PUSH2 0x211A PUSH2 0x209E DUP7 SLOAD SWAP1 JUMP JUMPDEST PUSH2 0xE69 PUSH1 0x9 SWAP2 PUSH2 0x201D PUSH2 0x213D PUSH2 0xB03 PUSH2 0x2136 PUSH2 0xE6E DUP9 DUP9 PUSH2 0x366 JUMP JUMPDEST SWAP4 DUP12 PUSH2 0xAC3 JUMP JUMPDEST PUSH2 0x2022 DUP2 PUSH2 0x2058 DUP6 DUP14 PUSH2 0xAC3 JUMP JUMPDEST PUSH2 0x20D5 JUMP JUMPDEST SWAP1 PUSH2 0x215F PUSH2 0x1BC0 DUP5 DUP4 DUP6 PUSH2 0x21B0 JUMP JUMPDEST PUSH2 0x2168 JUMPI POP POP POP JUMP JUMPDEST PUSH1 0x0 SWAP3 DUP4 SWAP3 PUSH2 0x217C PUSH2 0x16D8 PUSH2 0xF10 DUP7 PUSH2 0xD53 JUMP JUMPDEST SUB PUSH2 0x2199 JUMPI PUSH4 0x7E273289 PUSH1 0xE0 SHL DUP4 MSTORE PUSH1 0x4 DUP4 ADD MSTORE POP PUSH1 0x24 DUP2 ADD SUB SWAP1 REVERT JUMPDEST PUSH4 0x177E802F PUSH1 0xE0 SHL DUP4 MSTORE PUSH2 0xDF5 SWAP2 PUSH1 0x4 DUP5 ADD PUSH2 0xE12 JUMP JUMPDEST SWAP1 PUSH2 0x21BE PUSH2 0xF10 PUSH1 0x0 PUSH2 0xD53 JUMP JUMPDEST PUSH2 0x21C7 DUP3 PUSH2 0x2CF JUMP JUMPDEST EQ ISZERO SWAP3 DUP4 PUSH2 0x21D5 JUMPI POP POP POP SWAP1 JUMP JUMPDEST SWAP1 SWAP2 SWAP3 POP PUSH2 0x21E2 DUP3 PUSH2 0x2CF JUMP JUMPDEST PUSH2 0x21EB DUP5 PUSH2 0x2CF JUMP JUMPDEST EQ SWAP3 DUP4 ISZERO PUSH2 0x2226 JUMPI JUMPDEST POP DUP3 ISZERO PUSH2 0x2206 JUMPI JUMPDEST POP POP CODESIZE DUP1 DUP1 PUSH2 0x1A12 JUMP JUMPDEST PUSH2 0x221E SWAP2 SWAP3 POP PUSH2 0x2218 PUSH2 0x16D8 SWAP2 PUSH2 0x167C JUMP JUMPDEST SWAP3 PUSH2 0x2CF JUMP JUMPDEST EQ CODESIZE DUP1 PUSH2 0x21FC JUMP JUMPDEST PUSH2 0x2233 SWAP2 SWAP4 POP DUP3 SWAP1 PUSH2 0x1591 JUMP JUMPDEST SWAP2 CODESIZE PUSH2 0x21F4 JUMP INVALID LOG2 PUSH5 0x6970667358 0x22 SLT KECCAK256 PUSH30 0x4791CACD315F39A82251AD02D6D18B78B0A33B8B8F2CBDCC08367AC5CEA6 PUSH6 0x64736F6C6343 STOP ADDMOD SHR STOP CALLER "},"methodIdentifiers":{"approve(address,uint256)":"095ea7b3","availableTokens(uint256)":"ad64d068","balanceOf(address)":"70a08231","baseURI()":"6c0360eb","contractURI()":"e8a3d485","creator()":"02d05d3f","creatorFeePercent()":"53613dd3","currentSupply()":"771282f6","getAllAvailableTokens()":"12ea5c7e","getApproved(uint256)":"081812fc","getAvailableTokenByIndex(uint256)":"cf6a68bf","getAvailableTokensCount()":"2dcd52f2","getAvailableTokensPaginated(uint256,uint256)":"5eba096b","initialPrice()":"1d0806ae","isApprovedForAll(address,address)":"e985e9c5","maxSupply()":"d5abeb01","name()":"06fdde03","onERC721Received(address,address,uint256,bytes)":"150b7a02","owner()":"8da5cb5b","ownerOf(uint256)":"6352211e","renounceOwnership()":"715018a6","safeTransferFrom(address,address,uint256)":"42842e0e","safeTransferFrom(address,address,uint256,bytes)":"b88d4fde","setApprovalForAll(address,bool)":"a22cb465","setBaseURI(string)":"55f804b3","setCreator(address)":"3f516018","supportsInterface(bytes4)":"01ffc9a7","symbol()":"95d89b41","tokenByIndex(uint256)":"4f6ccce7","tokenIndex(uint256)":"0583e9f8","tokenOfOwnerByIndex(address,uint256)":"2f745c59","tokenURI(uint256)":"c87b56dd","totalSupply()":"18160ddd","transferFrom(address,address,uint256)":"23b872dd","transferOwnership(address)":"f2fde38b"}}}}}