{"src/core/Storage.sol":{"Storage":{"abi":[{"inputs":[{"internalType":"uint256","name":"_initialPrice","type":"uint256"},{"internalType":"uint256","name":"_maxSupply","type":"uint256"},{"internalType":"uint256","name":"_creatorFeePercent","type":"uint256"}],"stateMutability":"nonpayable","type":"constructor"},{"inputs":[{"internalType":"uint256","name":"","type":"uint256"}],"name":"availableTokens","outputs":[{"internalType":"uint256","name":"","type":"uint256"}],"stateMutability":"view","type":"function"},{"inputs":[],"name":"baseURI","outputs":[{"internalType":"string","name":"","type":"string"}],"stateMutability":"view","type":"function"},{"inputs":[],"name":"creator","outputs":[{"internalType":"address","name":"","type":"address"}],"stateMutability":"view","type":"function"},{"inputs":[],"name":"creatorFeePercent","outputs":[{"internalType":"uint256","name":"","type":"uint256"}],"stateMutability":"view","type":"function"},{"inputs":[],"name":"currentSupply","outputs":[{"internalType":"uint256","name":"","type":"uint256"}],"stateMutability":"view","type":"function"},{"inputs":[],"name":"getAllAvailableTokens","outputs":[{"internalType":"uint256[]","name":"","type":"uint256[]"}],"stateMutability":"view","type":"function"},{"inputs":[{"internalType":"uint256","name":"index","type":"uint256"}],"name":"getAvailableTokenByIndex","outputs":[{"internalType":"uint256","name":"","type":"uint256"}],"stateMutability":"view","type":"function"},{"inputs":[],"name":"getAvailableTokensCount","outputs":[{"internalType":"uint256","name":"","type":"uint256"}],"stateMutability":"view","type":"function"},{"inputs":[{"internalType":"uint256","name":"start","type":"uint256"},{"internalType":"uint256","name":"limit","type":"uint256"}],"name":"getAvailableTokensPaginated","outputs":[{"internalType":"uint256[]","name":"","type":"uint256[]"}],"stateMutability":"view","type":"function"},{"inputs":[],"name":"initialPrice","outputs":[{"internalType":"uint256","name":"","type":"uint256"}],"stateMutability":"view","type":"function"},{"inputs":[],"name":"maxSupply","outputs":[{"internalType":"uint256","name":"","type":"uint256"}],"stateMutability":"view","type":"function"},{"inputs":[{"internalType":"string","name":"_baseURI","type":"string"}],"name":"setBaseURI","outputs":[],"stateMutability":"nonpayable","type":"function"},{"inputs":[{"internalType":"address","name":"_creator","type":"address"}],"name":"setCreator","outputs":[],"stateMutability":"nonpayable","type":"function"},{"inputs":[{"internalType":"uint256","name":"","type":"uint256"}],"name":"tokenIndex","outputs":[{"internalType":"uint256","name":"","type":"uint256"}],"stateMutability":"view","type":"function"}],"evm":{"bytecode":{"linkReferences":{},"object":"60806040523461002b5761001a6100146100bb565b9161016e565b604051610c6a61019b8239610c6a90f35b600080fd5b634e487b7160e01b600052604160045260246000fd5b90601f01601f191681019081106001600160401b0382111761006757604052565b610030565b9061008061007960405190565b9283610046565b565b90505190565b909160608284031261002b576100b86100a18484610082565b9360406100b18260208701610082565b9401610082565b90565b6100d9610e05803803806100ce8161006c565b928339810190610088565b909192565b90600019905b9181191691161790565b6100b86100b86100b89290565b9061010b6100b8610112926100ee565b82546100de565b9055565b906001600160a01b03906100e4565b6100b890610139906001600160a01b031682565b6001600160a01b031690565b6100b890610125565b6100b890610145565b906101676100b86101129261014e565b8254610116565b61018f92916101816101889260006100fb565b60016100fb565b60026100fb565b61008033600361015756fe6080604052600436101561001257600080fd5b60003560e01c806302d05d3f146100f25780630583e9f8146100ed57806312ea5c7e146100e85780631d0806ae146100e35780632dcd52f2146100de5780633f516018146100d957806353613dd3146100d457806355f804b3146100cf5780635eba096b146100ca5780636c0360eb146100c5578063771282f6146100c0578063ad64d068146100bb578063cf6a68bf146100b65763d5abeb010361010257610723565b6106fc565b6106e1565b61066a565b610637565b61048c565b610451565b61034c565b610323565b6102dd565b6102c2565b610290565b6101fa565b610155565b600091031261010257565b600080fd5b61011c916008021c5b6001600160a01b031690565b90565b9061011c9154610107565b61011c6000600361011f565b61013f90610110565b9052565b6020810192916101539190610136565b565b34610102576101653660046100f7565b61017c61017061012a565b60405191829182610143565b0390f35b805b0361010257565b9050359061015382610180565b906020828203126101025761011c91610189565b61011c61011c61011c9290565b906101c1906101aa565b600052602052604060002090565b61011c916008021c81565b9061011c91546101cf565b60006101f561011c9260066101b7565b6101da565b346101025761017c610215610210366004610196565b6101e5565b6040519182918290815260200190565b0190565b90610249610242610238845190565b8084529260200190565b9260200190565b9060005b81811061025a5750505090565b9091926102776102706001928651815260200190565b9460200190565b92910161024d565b602080825261011c92910190610229565b34610102576102a03660046100f7565b61017c6102ab6107d4565b6040519182918261027f565b61011c6000806101da565b34610102576102d23660046100f7565b61017c6102156102b7565b34610102576102ed3660046100f7565b61017c61021560055490565b61018281610110565b90503590610153826102f9565b906020828203126101025761011c91610302565b346101025761033b61033636600461030f565b6108d7565b604051005b61011c600060026101da565b346101025761035c3660046100f7565b61017c610215610340565b634e487b7160e01b600052604160045260246000fd5b90601f01601f1916810190811067ffffffffffffffff82111761039f57604052565b610367565b906101536103b160405190565b928361037d565b67ffffffffffffffff811161039f57602090601f01601f19160190565b90826000939282370152565b909291926103f66103f1826103b8565b6103a4565b9381855281830111610102576101539160208501906103d5565b9080601f830112156101025781602061011c933591016103e1565b9060208282031261010257813567ffffffffffffffff81116101025761011c9201610410565b346101025761033b61046436600461042b565b610a86565b91906040838203126101025761011c9060206104858286610189565b9401610189565b346101025761017c6102ab6104a2366004610469565b90610b7c565b634e487b7160e01b600052600060045260246000fd5b634e487b7160e01b600052602260045260246000fd5b90600160028304921680156104f4575b60208310146104ef57565b6104be565b91607f16916104e4565b8054600093929161051b610511836104d4565b8085529360200190565b916001811690811561056d575060011461053457505050565b6105479192939450600052602060002090565b916000925b8184106105595750500190565b80548484015260209093019260010161054c565b92949550505060ff1916825215156020020190565b9061011c916104fe565b906101536105a69261059d60405190565b93848092610582565b038361037d565b906000106105be5761011c9061058c565b6104a8565b61011c600060076105ad565b60005b8381106105e25750506000910152565b81810151838201526020016105d2565b61061361061c60209361022593610607815190565b80835293849260200190565b958691016105cf565b601f01601f191690565b602080825261011c929101906105f2565b34610102576106473660046100f7565b61017c6106526105c3565b60405191829182610626565b61011c600060046101da565b346101025761067a3660046100f7565b61017c61021561065e565b634e487b7160e01b600052603260045260246000fd5b80548210156106be576106b5600191600052602060002090565b91020190600090565b610685565b600554811015610102576106db61011c91600561069b565b906101da565b346101025761017c6102156106f7366004610196565b6106c3565b346101025761017c610215610712366004610196565b610c0b565b61011c600060016101da565b34610102576107333660046100f7565b61017c610215610717565b61011c9081565b61011c905461073e565b9061076a61075e610238845490565b92600052602060002090565b9060005b81811061077b5750505090565b90919261079f61079860019261079087610745565b815260200190565b9460010190565b92910161076e565b9061011c9161074f565b906101536105a6926107c260405190565b938480926107a7565b61011c906107b1565b61011c60056107cb565b61011c90610110565b61011c90546107de565b156107f857565b60405162461bcd60e51b815260206004820152602360248201527f4f6e6c792063726561746f722063616e2063616c6c20746869732066756e637460448201526234b7b760e91b6064820152608490fd5b6101539061087161086261085d60036107e7565b610110565b61086b33610110565b146107f1565b6108cc565b906001600160a01b03905b9181191691161790565b61011c90610110906001600160a01b031682565b61011c9061088b565b61011c9061089f565b906108c161011c6108c8926108a8565b8254610876565b9055565b6101539060036108b1565b61015390610849565b610153906108f461086261085d60036107e7565b610a7b565b9160001960089290920291821b911b610881565b919061091e61011c6108c8936101aa565b9083546108f9565b6101539160009161090d565b81811061093d575050565b8061094b6000600193610926565b01610932565b9190601f811161096057505050565b61097261015393600052602060002090565b906020601f840181900483019310610994575b6020601f909101040190610932565b9091508190610985565b906109a7815190565b9067ffffffffffffffff821161039f576109cb826109c585546104d4565b85610951565b602090601f8311600114610a06576108c89291600091836109fb575b5050600019600883021c1916906002021790565b0151905038806109e7565b601f19831691610a1b85600052602060002090565b9260005b818110610a5957509160029391856001969410610a40575b50505002019055565b01516000196008601f8516021c19169055388080610a37565b91936020600181928787015181550195019201610a1f565b906101539161099e565b610153906007610a71565b610153906108e0565b15610a9657565b60405162461bcd60e51b815260206004820152601960248201527f537461727420696e646578206f7574206f6620626f756e6473000000000000006044820152606490fd5b634e487b7160e01b600052601160045260246000fd5b91908201809211610afe57565b610adb565b91908203918211610afe57565b67ffffffffffffffff811161039f5760208091020190565b90610b356103f183610b10565b918252565b369037565b90610153610b55610b4f84610b28565b93610b10565b601f190160208401610b3a565b90610b6b825190565b8110156106be576020809102010190565b91610ba9610ba1600593610b9b610b9461011c875490565b8710610a8f565b85610af1565b835490610c22565b91610bbc610bb78585610b03565b610b3f565b91845b845b811015610c0257610bfb81610bf5610bdf6106db610bc1958861069b565b610bf2610bec8b85610b03565b89610b62565b52565b60010190565b9050610bbf565b50935050905090565b6106db61011c91610c1a600090565b50600561069b565b9080821015610c2f575090565b90509056fea2646970667358221220aaa67da0015931264de4b40b198702c709c0cd67469295ed285fee1f5046309564736f6c634300081c0033","opcodes":"PUSH1 0x80 PUSH1 0x40 MSTORE CALLVALUE PUSH2 0x2B JUMPI PUSH2 0x1A PUSH2 0x14 PUSH2 0xBB JUMP JUMPDEST SWAP2 PUSH2 0x16E JUMP JUMPDEST PUSH1 0x40 MLOAD PUSH2 0xC6A PUSH2 0x19B DUP3 CODECOPY PUSH2 0xC6A SWAP1 RETURN JUMPDEST PUSH1 0x0 DUP1 REVERT JUMPDEST PUSH4 0x4E487B71 PUSH1 0xE0 SHL PUSH1 0x0 MSTORE PUSH1 0x41 PUSH1 0x4 MSTORE PUSH1 0x24 PUSH1 0x0 REVERT JUMPDEST SWAP1 PUSH1 0x1F ADD PUSH1 0x1F NOT AND DUP2 ADD SWAP1 DUP2 LT PUSH1 0x1 PUSH1 0x1 PUSH1 0x40 SHL SUB DUP3 GT OR PUSH2 0x67 JUMPI PUSH1 0x40 MSTORE JUMP JUMPDEST PUSH2 0x30 JUMP JUMPDEST SWAP1 PUSH2 0x80 PUSH2 0x79 PUSH1 0x40 MLOAD SWAP1 JUMP JUMPDEST SWAP3 DUP4 PUSH2 0x46 JUMP JUMPDEST JUMP JUMPDEST SWAP1 POP MLOAD SWAP1 JUMP JUMPDEST SWAP1 SWAP2 PUSH1 0x60 DUP3 DUP5 SUB SLT PUSH2 0x2B JUMPI PUSH2 0xB8 PUSH2 0xA1 DUP5 DUP5 PUSH2 0x82 JUMP JUMPDEST SWAP4 PUSH1 0x40 PUSH2 0xB1 DUP3 PUSH1 0x20 DUP8 ADD PUSH2 0x82 JUMP JUMPDEST SWAP5 ADD PUSH2 0x82 JUMP JUMPDEST SWAP1 JUMP JUMPDEST PUSH2 0xD9 PUSH2 0xE05 DUP1 CODESIZE SUB DUP1 PUSH2 0xCE DUP2 PUSH2 0x6C JUMP JUMPDEST SWAP3 DUP4 CODECOPY DUP2 ADD SWAP1 PUSH2 0x88 JUMP JUMPDEST SWAP1 SWAP2 SWAP3 JUMP JUMPDEST SWAP1 PUSH1 0x0 NOT SWAP1 JUMPDEST SWAP2 DUP2 NOT AND SWAP2 AND OR SWAP1 JUMP JUMPDEST PUSH2 0xB8 PUSH2 0xB8 PUSH2 0xB8 SWAP3 SWAP1 JUMP JUMPDEST SWAP1 PUSH2 0x10B PUSH2 0xB8 PUSH2 0x112 SWAP3 PUSH2 0xEE JUMP JUMPDEST DUP3 SLOAD PUSH2 0xDE JUMP JUMPDEST SWAP1 SSTORE JUMP JUMPDEST SWAP1 PUSH1 0x1 PUSH1 0x1 PUSH1 0xA0 SHL SUB SWAP1 PUSH2 0xE4 JUMP JUMPDEST PUSH2 0xB8 SWAP1 PUSH2 0x139 SWAP1 PUSH1 0x1 PUSH1 0x1 PUSH1 0xA0 SHL SUB AND DUP3 JUMP JUMPDEST PUSH1 0x1 PUSH1 0x1 PUSH1 0xA0 SHL SUB AND SWAP1 JUMP JUMPDEST PUSH2 0xB8 SWAP1 PUSH2 0x125 JUMP JUMPDEST PUSH2 0xB8 SWAP1 PUSH2 0x145 JUMP JUMPDEST SWAP1 PUSH2 0x167 PUSH2 0xB8 PUSH2 0x112 SWAP3 PUSH2 0x14E JUMP JUMPDEST DUP3 SLOAD PUSH2 0x116 JUMP JUMPDEST PUSH2 0x18F SWAP3 SWAP2 PUSH2 0x181 PUSH2 0x188 SWAP3 PUSH1 0x0 PUSH2 0xFB JUMP JUMPDEST PUSH1 0x1 PUSH2 0xFB JUMP JUMPDEST PUSH1 0x2 PUSH2 0xFB JUMP JUMPDEST PUSH2 0x80 CALLER PUSH1 0x3 PUSH2 0x157 JUMP INVALID PUSH1 0x80 PUSH1 0x40 MSTORE PUSH1 0x4 CALLDATASIZE LT ISZERO PUSH2 0x12 JUMPI PUSH1 0x0 DUP1 REVERT JUMPDEST PUSH1 0x0 CALLDATALOAD PUSH1 0xE0 SHR DUP1 PUSH4 0x2D05D3F EQ PUSH2 0xF2 JUMPI DUP1 PUSH4 0x583E9F8 EQ PUSH2 0xED JUMPI DUP1 PUSH4 0x12EA5C7E EQ PUSH2 0xE8 JUMPI DUP1 PUSH4 0x1D0806AE EQ PUSH2 0xE3 JUMPI DUP1 PUSH4 0x2DCD52F2 EQ PUSH2 0xDE JUMPI DUP1 PUSH4 0x3F516018 EQ PUSH2 0xD9 JUMPI DUP1 PUSH4 0x53613DD3 EQ PUSH2 0xD4 JUMPI DUP1 PUSH4 0x55F804B3 EQ PUSH2 0xCF JUMPI DUP1 PUSH4 0x5EBA096B EQ PUSH2 0xCA JUMPI DUP1 PUSH4 0x6C0360EB EQ PUSH2 0xC5 JUMPI DUP1 PUSH4 0x771282F6 EQ PUSH2 0xC0 JUMPI DUP1 PUSH4 0xAD64D068 EQ PUSH2 0xBB JUMPI DUP1 PUSH4 0xCF6A68BF EQ PUSH2 0xB6 JUMPI PUSH4 0xD5ABEB01 SUB PUSH2 0x102 JUMPI PUSH2 0x723 JUMP JUMPDEST PUSH2 0x6FC JUMP JUMPDEST PUSH2 0x6E1 JUMP JUMPDEST PUSH2 0x66A JUMP JUMPDEST PUSH2 0x637 JUMP JUMPDEST PUSH2 0x48C JUMP JUMPDEST PUSH2 0x451 JUMP JUMPDEST PUSH2 0x34C JUMP JUMPDEST PUSH2 0x323 JUMP JUMPDEST PUSH2 0x2DD JUMP JUMPDEST PUSH2 0x2C2 JUMP JUMPDEST PUSH2 0x290 JUMP JUMPDEST PUSH2 0x1FA JUMP JUMPDEST PUSH2 0x155 JUMP JUMPDEST PUSH1 0x0 SWAP2 SUB SLT PUSH2 0x102 JUMPI JUMP JUMPDEST PUSH1 0x0 DUP1 REVERT JUMPDEST PUSH2 0x11C SWAP2 PUSH1 0x8 MUL SHR JUMPDEST PUSH1 0x1 PUSH1 0x1 PUSH1 0xA0 SHL SUB AND SWAP1 JUMP JUMPDEST SWAP1 JUMP JUMPDEST SWAP1 PUSH2 0x11C SWAP2 SLOAD PUSH2 0x107 JUMP JUMPDEST PUSH2 0x11C PUSH1 0x0 PUSH1 0x3 PUSH2 0x11F JUMP JUMPDEST PUSH2 0x13F SWAP1 PUSH2 0x110 JUMP JUMPDEST SWAP1 MSTORE JUMP JUMPDEST PUSH1 0x20 DUP2 ADD SWAP3 SWAP2 PUSH2 0x153 SWAP2 SWAP1 PUSH2 0x136 JUMP JUMPDEST JUMP JUMPDEST CALLVALUE PUSH2 0x102 JUMPI PUSH2 0x165 CALLDATASIZE PUSH1 0x4 PUSH2 0xF7 JUMP JUMPDEST PUSH2 0x17C PUSH2 0x170 PUSH2 0x12A JUMP JUMPDEST PUSH1 0x40 MLOAD SWAP2 DUP3 SWAP2 DUP3 PUSH2 0x143 JUMP JUMPDEST SUB SWAP1 RETURN JUMPDEST DUP1 JUMPDEST SUB PUSH2 0x102 JUMPI JUMP JUMPDEST SWAP1 POP CALLDATALOAD SWAP1 PUSH2 0x153 DUP3 PUSH2 0x180 JUMP JUMPDEST SWAP1 PUSH1 0x20 DUP3 DUP3 SUB SLT PUSH2 0x102 JUMPI PUSH2 0x11C SWAP2 PUSH2 0x189 JUMP JUMPDEST PUSH2 0x11C PUSH2 0x11C PUSH2 0x11C SWAP3 SWAP1 JUMP JUMPDEST SWAP1 PUSH2 0x1C1 SWAP1 PUSH2 0x1AA JUMP JUMPDEST PUSH1 0x0 MSTORE PUSH1 0x20 MSTORE PUSH1 0x40 PUSH1 0x0 KECCAK256 SWAP1 JUMP JUMPDEST PUSH2 0x11C SWAP2 PUSH1 0x8 MUL SHR DUP2 JUMP JUMPDEST SWAP1 PUSH2 0x11C SWAP2 SLOAD PUSH2 0x1CF JUMP JUMPDEST PUSH1 0x0 PUSH2 0x1F5 PUSH2 0x11C SWAP3 PUSH1 0x6 PUSH2 0x1B7 JUMP JUMPDEST PUSH2 0x1DA JUMP JUMPDEST CALLVALUE PUSH2 0x102 JUMPI PUSH2 0x17C PUSH2 0x215 PUSH2 0x210 CALLDATASIZE PUSH1 0x4 PUSH2 0x196 JUMP JUMPDEST PUSH2 0x1E5 JUMP JUMPDEST PUSH1 0x40 MLOAD SWAP2 DUP3 SWAP2 DUP3 SWAP1 DUP2 MSTORE PUSH1 0x20 ADD SWAP1 JUMP JUMPDEST ADD SWAP1 JUMP JUMPDEST SWAP1 PUSH2 0x249 PUSH2 0x242 PUSH2 0x238 DUP5 MLOAD SWAP1 JUMP JUMPDEST DUP1 DUP5 MSTORE SWAP3 PUSH1 0x20 ADD SWAP1 JUMP JUMPDEST SWAP3 PUSH1 0x20 ADD SWAP1 JUMP JUMPDEST SWAP1 PUSH1 0x0 JUMPDEST DUP2 DUP2 LT PUSH2 0x25A JUMPI POP POP POP SWAP1 JUMP JUMPDEST SWAP1 SWAP2 SWAP3 PUSH2 0x277 PUSH2 0x270 PUSH1 0x1 SWAP3 DUP7 MLOAD DUP2 MSTORE PUSH1 0x20 ADD SWAP1 JUMP JUMPDEST SWAP5 PUSH1 0x20 ADD SWAP1 JUMP JUMPDEST SWAP3 SWAP2 ADD PUSH2 0x24D JUMP JUMPDEST PUSH1 0x20 DUP1 DUP3 MSTORE PUSH2 0x11C SWAP3 SWAP2 ADD SWAP1 PUSH2 0x229 JUMP JUMPDEST CALLVALUE PUSH2 0x102 JUMPI PUSH2 0x2A0 CALLDATASIZE PUSH1 0x4 PUSH2 0xF7 JUMP JUMPDEST PUSH2 0x17C PUSH2 0x2AB PUSH2 0x7D4 JUMP JUMPDEST PUSH1 0x40 MLOAD SWAP2 DUP3 SWAP2 DUP3 PUSH2 0x27F JUMP JUMPDEST PUSH2 0x11C PUSH1 0x0 DUP1 PUSH2 0x1DA JUMP JUMPDEST CALLVALUE PUSH2 0x102 JUMPI PUSH2 0x2D2 CALLDATASIZE PUSH1 0x4 PUSH2 0xF7 JUMP JUMPDEST PUSH2 0x17C PUSH2 0x215 PUSH2 0x2B7 JUMP JUMPDEST CALLVALUE PUSH2 0x102 JUMPI PUSH2 0x2ED CALLDATASIZE PUSH1 0x4 PUSH2 0xF7 JUMP JUMPDEST PUSH2 0x17C PUSH2 0x215 PUSH1 0x5 SLOAD SWAP1 JUMP JUMPDEST PUSH2 0x182 DUP2 PUSH2 0x110 JUMP JUMPDEST SWAP1 POP CALLDATALOAD SWAP1 PUSH2 0x153 DUP3 PUSH2 0x2F9 JUMP JUMPDEST SWAP1 PUSH1 0x20 DUP3 DUP3 SUB SLT PUSH2 0x102 JUMPI PUSH2 0x11C SWAP2 PUSH2 0x302 JUMP JUMPDEST CALLVALUE PUSH2 0x102 JUMPI PUSH2 0x33B PUSH2 0x336 CALLDATASIZE PUSH1 0x4 PUSH2 0x30F JUMP JUMPDEST PUSH2 0x8D7 JUMP JUMPDEST PUSH1 0x40 MLOAD STOP JUMPDEST PUSH2 0x11C PUSH1 0x0 PUSH1 0x2 PUSH2 0x1DA JUMP JUMPDEST CALLVALUE PUSH2 0x102 JUMPI PUSH2 0x35C CALLDATASIZE PUSH1 0x4 PUSH2 0xF7 JUMP JUMPDEST PUSH2 0x17C PUSH2 0x215 PUSH2 0x340 JUMP JUMPDEST PUSH4 0x4E487B71 PUSH1 0xE0 SHL PUSH1 0x0 MSTORE PUSH1 0x41 PUSH1 0x4 MSTORE PUSH1 0x24 PUSH1 0x0 REVERT JUMPDEST SWAP1 PUSH1 0x1F ADD PUSH1 0x1F NOT AND DUP2 ADD SWAP1 DUP2 LT PUSH8 0xFFFFFFFFFFFFFFFF DUP3 GT OR PUSH2 0x39F JUMPI PUSH1 0x40 MSTORE JUMP JUMPDEST PUSH2 0x367 JUMP JUMPDEST SWAP1 PUSH2 0x153 PUSH2 0x3B1 PUSH1 0x40 MLOAD SWAP1 JUMP JUMPDEST SWAP3 DUP4 PUSH2 0x37D JUMP JUMPDEST PUSH8 0xFFFFFFFFFFFFFFFF DUP2 GT PUSH2 0x39F JUMPI PUSH1 0x20 SWAP1 PUSH1 0x1F ADD PUSH1 0x1F NOT AND ADD SWAP1 JUMP JUMPDEST SWAP1 DUP3 PUSH1 0x0 SWAP4 SWAP3 DUP3 CALLDATACOPY ADD MSTORE JUMP JUMPDEST SWAP1 SWAP3 SWAP2 SWAP3 PUSH2 0x3F6 PUSH2 0x3F1 DUP3 PUSH2 0x3B8 JUMP JUMPDEST PUSH2 0x3A4 JUMP JUMPDEST SWAP4 DUP2 DUP6 MSTORE DUP2 DUP4 ADD GT PUSH2 0x102 JUMPI PUSH2 0x153 SWAP2 PUSH1 0x20 DUP6 ADD SWAP1 PUSH2 0x3D5 JUMP JUMPDEST SWAP1 DUP1 PUSH1 0x1F DUP4 ADD SLT ISZERO PUSH2 0x102 JUMPI DUP2 PUSH1 0x20 PUSH2 0x11C SWAP4 CALLDATALOAD SWAP2 ADD PUSH2 0x3E1 JUMP JUMPDEST SWAP1 PUSH1 0x20 DUP3 DUP3 SUB SLT PUSH2 0x102 JUMPI DUP2 CALLDATALOAD PUSH8 0xFFFFFFFFFFFFFFFF DUP2 GT PUSH2 0x102 JUMPI PUSH2 0x11C SWAP3 ADD PUSH2 0x410 JUMP JUMPDEST CALLVALUE PUSH2 0x102 JUMPI PUSH2 0x33B PUSH2 0x464 CALLDATASIZE PUSH1 0x4 PUSH2 0x42B JUMP JUMPDEST PUSH2 0xA86 JUMP JUMPDEST SWAP2 SWAP1 PUSH1 0x40 DUP4 DUP3 SUB SLT PUSH2 0x102 JUMPI PUSH2 0x11C SWAP1 PUSH1 0x20 PUSH2 0x485 DUP3 DUP7 PUSH2 0x189 JUMP JUMPDEST SWAP5 ADD PUSH2 0x189 JUMP JUMPDEST CALLVALUE PUSH2 0x102 JUMPI PUSH2 0x17C PUSH2 0x2AB PUSH2 0x4A2 CALLDATASIZE PUSH1 0x4 PUSH2 0x469 JUMP JUMPDEST SWAP1 PUSH2 0xB7C JUMP JUMPDEST PUSH4 0x4E487B71 PUSH1 0xE0 SHL PUSH1 0x0 MSTORE PUSH1 0x0 PUSH1 0x4 MSTORE PUSH1 0x24 PUSH1 0x0 REVERT JUMPDEST PUSH4 0x4E487B71 PUSH1 0xE0 SHL PUSH1 0x0 MSTORE PUSH1 0x22 PUSH1 0x4 MSTORE PUSH1 0x24 PUSH1 0x0 REVERT JUMPDEST SWAP1 PUSH1 0x1 PUSH1 0x2 DUP4 DIV SWAP3 AND DUP1 ISZERO PUSH2 0x4F4 JUMPI JUMPDEST PUSH1 0x20 DUP4 LT EQ PUSH2 0x4EF JUMPI JUMP JUMPDEST PUSH2 0x4BE JUMP JUMPDEST SWAP2 PUSH1 0x7F AND SWAP2 PUSH2 0x4E4 JUMP JUMPDEST DUP1 SLOAD PUSH1 0x0 SWAP4 SWAP3 SWAP2 PUSH2 0x51B PUSH2 0x511 DUP4 PUSH2 0x4D4 JUMP JUMPDEST DUP1 DUP6 MSTORE SWAP4 PUSH1 0x20 ADD SWAP1 JUMP JUMPDEST SWAP2 PUSH1 0x1 DUP2 AND SWAP1 DUP2 ISZERO PUSH2 0x56D JUMPI POP PUSH1 0x1 EQ PUSH2 0x534 JUMPI POP POP POP JUMP JUMPDEST PUSH2 0x547 SWAP2 SWAP3 SWAP4 SWAP5 POP PUSH1 0x0 MSTORE PUSH1 0x20 PUSH1 0x0 KECCAK256 SWAP1 JUMP JUMPDEST SWAP2 PUSH1 0x0 SWAP3 JUMPDEST DUP2 DUP5 LT PUSH2 0x559 JUMPI POP POP ADD SWAP1 JUMP JUMPDEST DUP1 SLOAD DUP5 DUP5 ADD MSTORE PUSH1 0x20 SWAP1 SWAP4 ADD SWAP3 PUSH1 0x1 ADD PUSH2 0x54C JUMP JUMPDEST SWAP3 SWAP5 SWAP6 POP POP POP PUSH1 0xFF NOT AND DUP3 MSTORE ISZERO ISZERO PUSH1 0x20 MUL ADD SWAP1 JUMP JUMPDEST SWAP1 PUSH2 0x11C SWAP2 PUSH2 0x4FE JUMP JUMPDEST SWAP1 PUSH2 0x153 PUSH2 0x5A6 SWAP3 PUSH2 0x59D PUSH1 0x40 MLOAD SWAP1 JUMP JUMPDEST SWAP4 DUP5 DUP1 SWAP3 PUSH2 0x582 JUMP JUMPDEST SUB DUP4 PUSH2 0x37D JUMP JUMPDEST SWAP1 PUSH1 0x0 LT PUSH2 0x5BE JUMPI PUSH2 0x11C SWAP1 PUSH2 0x58C JUMP JUMPDEST PUSH2 0x4A8 JUMP JUMPDEST PUSH2 0x11C PUSH1 0x0 PUSH1 0x7 PUSH2 0x5AD JUMP JUMPDEST PUSH1 0x0 JUMPDEST DUP4 DUP2 LT PUSH2 0x5E2 JUMPI POP POP PUSH1 0x0 SWAP2 ADD MSTORE JUMP JUMPDEST DUP2 DUP2 ADD MLOAD DUP4 DUP3 ADD MSTORE PUSH1 0x20 ADD PUSH2 0x5D2 JUMP JUMPDEST PUSH2 0x613 PUSH2 0x61C PUSH1 0x20 SWAP4 PUSH2 0x225 SWAP4 PUSH2 0x607 DUP2 MLOAD SWAP1 JUMP JUMPDEST DUP1 DUP4 MSTORE SWAP4 DUP5 SWAP3 PUSH1 0x20 ADD SWAP1 JUMP JUMPDEST SWAP6 DUP7 SWAP2 ADD PUSH2 0x5CF JUMP JUMPDEST PUSH1 0x1F ADD PUSH1 0x1F NOT AND SWAP1 JUMP JUMPDEST PUSH1 0x20 DUP1 DUP3 MSTORE PUSH2 0x11C SWAP3 SWAP2 ADD SWAP1 PUSH2 0x5F2 JUMP JUMPDEST CALLVALUE PUSH2 0x102 JUMPI PUSH2 0x647 CALLDATASIZE PUSH1 0x4 PUSH2 0xF7 JUMP JUMPDEST PUSH2 0x17C PUSH2 0x652 PUSH2 0x5C3 JUMP JUMPDEST PUSH1 0x40 MLOAD SWAP2 DUP3 SWAP2 DUP3 PUSH2 0x626 JUMP JUMPDEST PUSH2 0x11C PUSH1 0x0 PUSH1 0x4 PUSH2 0x1DA JUMP JUMPDEST CALLVALUE PUSH2 0x102 JUMPI PUSH2 0x67A CALLDATASIZE PUSH1 0x4 PUSH2 0xF7 JUMP JUMPDEST PUSH2 0x17C PUSH2 0x215 PUSH2 0x65E JUMP JUMPDEST PUSH4 0x4E487B71 PUSH1 0xE0 SHL PUSH1 0x0 MSTORE PUSH1 0x32 PUSH1 0x4 MSTORE PUSH1 0x24 PUSH1 0x0 REVERT JUMPDEST DUP1 SLOAD DUP3 LT ISZERO PUSH2 0x6BE JUMPI PUSH2 0x6B5 PUSH1 0x1 SWAP2 PUSH1 0x0 MSTORE PUSH1 0x20 PUSH1 0x0 KECCAK256 SWAP1 JUMP JUMPDEST SWAP2 MUL ADD SWAP1 PUSH1 0x0 SWAP1 JUMP JUMPDEST PUSH2 0x685 JUMP JUMPDEST PUSH1 0x5 SLOAD DUP2 LT ISZERO PUSH2 0x102 JUMPI PUSH2 0x6DB PUSH2 0x11C SWAP2 PUSH1 0x5 PUSH2 0x69B JUMP JUMPDEST SWAP1 PUSH2 0x1DA JUMP JUMPDEST CALLVALUE PUSH2 0x102 JUMPI PUSH2 0x17C PUSH2 0x215 PUSH2 0x6F7 CALLDATASIZE PUSH1 0x4 PUSH2 0x196 JUMP JUMPDEST PUSH2 0x6C3 JUMP JUMPDEST CALLVALUE PUSH2 0x102 JUMPI PUSH2 0x17C PUSH2 0x215 PUSH2 0x712 CALLDATASIZE PUSH1 0x4 PUSH2 0x196 JUMP JUMPDEST PUSH2 0xC0B JUMP JUMPDEST PUSH2 0x11C PUSH1 0x0 PUSH1 0x1 PUSH2 0x1DA JUMP JUMPDEST CALLVALUE PUSH2 0x102 JUMPI PUSH2 0x733 CALLDATASIZE PUSH1 0x4 PUSH2 0xF7 JUMP JUMPDEST PUSH2 0x17C PUSH2 0x215 PUSH2 0x717 JUMP JUMPDEST PUSH2 0x11C SWAP1 DUP2 JUMP JUMPDEST PUSH2 0x11C SWAP1 SLOAD PUSH2 0x73E JUMP JUMPDEST SWAP1 PUSH2 0x76A PUSH2 0x75E PUSH2 0x238 DUP5 SLOAD SWAP1 JUMP JUMPDEST SWAP3 PUSH1 0x0 MSTORE PUSH1 0x20 PUSH1 0x0 KECCAK256 SWAP1 JUMP JUMPDEST SWAP1 PUSH1 0x0 JUMPDEST DUP2 DUP2 LT PUSH2 0x77B JUMPI POP POP POP SWAP1 JUMP JUMPDEST SWAP1 SWAP2 SWAP3 PUSH2 0x79F PUSH2 0x798 PUSH1 0x1 SWAP3 PUSH2 0x790 DUP8 PUSH2 0x745 JUMP JUMPDEST DUP2 MSTORE PUSH1 0x20 ADD SWAP1 JUMP JUMPDEST SWAP5 PUSH1 0x1 ADD SWAP1 JUMP JUMPDEST SWAP3 SWAP2 ADD PUSH2 0x76E JUMP JUMPDEST SWAP1 PUSH2 0x11C SWAP2 PUSH2 0x74F JUMP JUMPDEST SWAP1 PUSH2 0x153 PUSH2 0x5A6 SWAP3 PUSH2 0x7C2 PUSH1 0x40 MLOAD SWAP1 JUMP JUMPDEST SWAP4 DUP5 DUP1 SWAP3 PUSH2 0x7A7 JUMP JUMPDEST PUSH2 0x11C SWAP1 PUSH2 0x7B1 JUMP JUMPDEST PUSH2 0x11C PUSH1 0x5 PUSH2 0x7CB JUMP JUMPDEST PUSH2 0x11C SWAP1 PUSH2 0x110 JUMP JUMPDEST PUSH2 0x11C SWAP1 SLOAD PUSH2 0x7DE JUMP JUMPDEST ISZERO PUSH2 0x7F8 JUMPI JUMP JUMPDEST PUSH1 0x40 MLOAD PUSH3 0x461BCD PUSH1 0xE5 SHL DUP2 MSTORE PUSH1 0x20 PUSH1 0x4 DUP3 ADD MSTORE PUSH1 0x23 PUSH1 0x24 DUP3 ADD MSTORE PUSH32 0x4F6E6C792063726561746F722063616E2063616C6C20746869732066756E6374 PUSH1 0x44 DUP3 ADD MSTORE PUSH3 0x34B7B7 PUSH1 0xE9 SHL PUSH1 0x64 DUP3 ADD MSTORE PUSH1 0x84 SWAP1 REVERT JUMPDEST PUSH2 0x153 SWAP1 PUSH2 0x871 PUSH2 0x862 PUSH2 0x85D PUSH1 0x3 PUSH2 0x7E7 JUMP JUMPDEST PUSH2 0x110 JUMP JUMPDEST PUSH2 0x86B CALLER PUSH2 0x110 JUMP JUMPDEST EQ PUSH2 0x7F1 JUMP JUMPDEST PUSH2 0x8CC JUMP JUMPDEST SWAP1 PUSH1 0x1 PUSH1 0x1 PUSH1 0xA0 SHL SUB SWAP1 JUMPDEST SWAP2 DUP2 NOT AND SWAP2 AND OR SWAP1 JUMP JUMPDEST PUSH2 0x11C SWAP1 PUSH2 0x110 SWAP1 PUSH1 0x1 PUSH1 0x1 PUSH1 0xA0 SHL SUB AND DUP3 JUMP JUMPDEST PUSH2 0x11C SWAP1 PUSH2 0x88B JUMP JUMPDEST PUSH2 0x11C SWAP1 PUSH2 0x89F JUMP JUMPDEST SWAP1 PUSH2 0x8C1 PUSH2 0x11C PUSH2 0x8C8 SWAP3 PUSH2 0x8A8 JUMP JUMPDEST DUP3 SLOAD PUSH2 0x876 JUMP JUMPDEST SWAP1 SSTORE JUMP JUMPDEST PUSH2 0x153 SWAP1 PUSH1 0x3 PUSH2 0x8B1 JUMP JUMPDEST PUSH2 0x153 SWAP1 PUSH2 0x849 JUMP JUMPDEST PUSH2 0x153 SWAP1 PUSH2 0x8F4 PUSH2 0x862 PUSH2 0x85D PUSH1 0x3 PUSH2 0x7E7 JUMP JUMPDEST PUSH2 0xA7B JUMP JUMPDEST SWAP2 PUSH1 0x0 NOT PUSH1 0x8 SWAP3 SWAP1 SWAP3 MUL SWAP2 DUP3 SHL SWAP2 SHL PUSH2 0x881 JUMP JUMPDEST SWAP2 SWAP1 PUSH2 0x91E PUSH2 0x11C PUSH2 0x8C8 SWAP4 PUSH2 0x1AA JUMP JUMPDEST SWAP1 DUP4 SLOAD PUSH2 0x8F9 JUMP JUMPDEST PUSH2 0x153 SWAP2 PUSH1 0x0 SWAP2 PUSH2 0x90D JUMP JUMPDEST DUP2 DUP2 LT PUSH2 0x93D JUMPI POP POP JUMP JUMPDEST DUP1 PUSH2 0x94B PUSH1 0x0 PUSH1 0x1 SWAP4 PUSH2 0x926 JUMP JUMPDEST ADD PUSH2 0x932 JUMP JUMPDEST SWAP2 SWAP1 PUSH1 0x1F DUP2 GT PUSH2 0x960 JUMPI POP POP POP JUMP JUMPDEST PUSH2 0x972 PUSH2 0x153 SWAP4 PUSH1 0x0 MSTORE PUSH1 0x20 PUSH1 0x0 KECCAK256 SWAP1 JUMP JUMPDEST SWAP1 PUSH1 0x20 PUSH1 0x1F DUP5 ADD DUP2 SWAP1 DIV DUP4 ADD SWAP4 LT PUSH2 0x994 JUMPI JUMPDEST PUSH1 0x20 PUSH1 0x1F SWAP1 SWAP2 ADD DIV ADD SWAP1 PUSH2 0x932 JUMP JUMPDEST SWAP1 SWAP2 POP DUP2 SWAP1 PUSH2 0x985 JUMP JUMPDEST SWAP1 PUSH2 0x9A7 DUP2 MLOAD SWAP1 JUMP JUMPDEST SWAP1 PUSH8 0xFFFFFFFFFFFFFFFF DUP3 GT PUSH2 0x39F JUMPI PUSH2 0x9CB DUP3 PUSH2 0x9C5 DUP6 SLOAD PUSH2 0x4D4 JUMP JUMPDEST DUP6 PUSH2 0x951 JUMP JUMPDEST PUSH1 0x20 SWAP1 PUSH1 0x1F DUP4 GT PUSH1 0x1 EQ PUSH2 0xA06 JUMPI PUSH2 0x8C8 SWAP3 SWAP2 PUSH1 0x0 SWAP2 DUP4 PUSH2 0x9FB JUMPI JUMPDEST POP POP PUSH1 0x0 NOT PUSH1 0x8 DUP4 MUL SHR NOT AND SWAP1 PUSH1 0x2 MUL OR SWAP1 JUMP JUMPDEST ADD MLOAD SWAP1 POP CODESIZE DUP1 PUSH2 0x9E7 JUMP JUMPDEST PUSH1 0x1F NOT DUP4 AND SWAP2 PUSH2 0xA1B DUP6 PUSH1 0x0 MSTORE PUSH1 0x20 PUSH1 0x0 KECCAK256 SWAP1 JUMP JUMPDEST SWAP3 PUSH1 0x0 JUMPDEST DUP2 DUP2 LT PUSH2 0xA59 JUMPI POP SWAP2 PUSH1 0x2 SWAP4 SWAP2 DUP6 PUSH1 0x1 SWAP7 SWAP5 LT PUSH2 0xA40 JUMPI JUMPDEST POP POP POP MUL ADD SWAP1 SSTORE JUMP JUMPDEST ADD MLOAD PUSH1 0x0 NOT PUSH1 0x8 PUSH1 0x1F DUP6 AND MUL SHR NOT AND SWAP1 SSTORE CODESIZE DUP1 DUP1 PUSH2 0xA37 JUMP JUMPDEST SWAP2 SWAP4 PUSH1 0x20 PUSH1 0x1 DUP2 SWAP3 DUP8 DUP8 ADD MLOAD DUP2 SSTORE ADD SWAP6 ADD SWAP3 ADD PUSH2 0xA1F JUMP JUMPDEST SWAP1 PUSH2 0x153 SWAP2 PUSH2 0x99E JUMP JUMPDEST PUSH2 0x153 SWAP1 PUSH1 0x7 PUSH2 0xA71 JUMP JUMPDEST PUSH2 0x153 SWAP1 PUSH2 0x8E0 JUMP JUMPDEST ISZERO PUSH2 0xA96 JUMPI JUMP JUMPDEST PUSH1 0x40 MLOAD PUSH3 0x461BCD PUSH1 0xE5 SHL DUP2 MSTORE PUSH1 0x20 PUSH1 0x4 DUP3 ADD MSTORE PUSH1 0x19 PUSH1 0x24 DUP3 ADD MSTORE PUSH32 0x537461727420696E646578206F7574206F6620626F756E647300000000000000 PUSH1 0x44 DUP3 ADD MSTORE PUSH1 0x64 SWAP1 REVERT JUMPDEST PUSH4 0x4E487B71 PUSH1 0xE0 SHL PUSH1 0x0 MSTORE PUSH1 0x11 PUSH1 0x4 MSTORE PUSH1 0x24 PUSH1 0x0 REVERT JUMPDEST SWAP2 SWAP1 DUP3 ADD DUP1 SWAP3 GT PUSH2 0xAFE JUMPI JUMP JUMPDEST PUSH2 0xADB JUMP JUMPDEST SWAP2 SWAP1 DUP3 SUB SWAP2 DUP3 GT PUSH2 0xAFE JUMPI JUMP JUMPDEST PUSH8 0xFFFFFFFFFFFFFFFF DUP2 GT PUSH2 0x39F JUMPI PUSH1 0x20 DUP1 SWAP2 MUL ADD SWAP1 JUMP JUMPDEST SWAP1 PUSH2 0xB35 PUSH2 0x3F1 DUP4 PUSH2 0xB10 JUMP JUMPDEST SWAP2 DUP3 MSTORE JUMP JUMPDEST CALLDATASIZE SWAP1 CALLDATACOPY JUMP JUMPDEST SWAP1 PUSH2 0x153 PUSH2 0xB55 PUSH2 0xB4F DUP5 PUSH2 0xB28 JUMP JUMPDEST SWAP4 PUSH2 0xB10 JUMP JUMPDEST PUSH1 0x1F NOT ADD PUSH1 0x20 DUP5 ADD PUSH2 0xB3A JUMP JUMPDEST SWAP1 PUSH2 0xB6B DUP3 MLOAD SWAP1 JUMP JUMPDEST DUP2 LT ISZERO PUSH2 0x6BE JUMPI PUSH1 0x20 DUP1 SWAP2 MUL ADD ADD SWAP1 JUMP JUMPDEST SWAP2 PUSH2 0xBA9 PUSH2 0xBA1 PUSH1 0x5 SWAP4 PUSH2 0xB9B PUSH2 0xB94 PUSH2 0x11C DUP8 SLOAD SWAP1 JUMP JUMPDEST DUP8 LT PUSH2 0xA8F JUMP JUMPDEST DUP6 PUSH2 0xAF1 JUMP JUMPDEST DUP4 SLOAD SWAP1 PUSH2 0xC22 JUMP JUMPDEST SWAP2 PUSH2 0xBBC PUSH2 0xBB7 DUP6 DUP6 PUSH2 0xB03 JUMP JUMPDEST PUSH2 0xB3F JUMP JUMPDEST SWAP2 DUP5 JUMPDEST DUP5 JUMPDEST DUP2 LT ISZERO PUSH2 0xC02 JUMPI PUSH2 0xBFB DUP2 PUSH2 0xBF5 PUSH2 0xBDF PUSH2 0x6DB PUSH2 0xBC1 SWAP6 DUP9 PUSH2 0x69B JUMP JUMPDEST PUSH2 0xBF2 PUSH2 0xBEC DUP12 DUP6 PUSH2 0xB03 JUMP JUMPDEST DUP10 PUSH2 0xB62 JUMP JUMPDEST MSTORE JUMP JUMPDEST PUSH1 0x1 ADD SWAP1 JUMP JUMPDEST SWAP1 POP PUSH2 0xBBF JUMP JUMPDEST POP SWAP4 POP POP SWAP1 POP SWAP1 JUMP JUMPDEST PUSH2 0x6DB PUSH2 0x11C SWAP2 PUSH2 0xC1A PUSH1 0x0 SWAP1 JUMP JUMPDEST POP PUSH1 0x5 PUSH2 0x69B JUMP JUMPDEST SWAP1 DUP1 DUP3 LT ISZERO PUSH2 0xC2F JUMPI POP SWAP1 JUMP JUMPDEST SWAP1 POP SWAP1 JUMP INVALID LOG2 PUSH5 0x6970667358 0x22 SLT KECCAK256 0xAA 0xA6 PUSH30 0xA0015931264DE4B40B198702C709C0CD67469295ED285FEE1F5046309564 PUSH20 0x6F6C634300081C00330000000000000000000000 "},"methodIdentifiers":{"availableTokens(uint256)":"ad64d068","baseURI()":"6c0360eb","creator()":"02d05d3f","creatorFeePercent()":"53613dd3","currentSupply()":"771282f6","getAllAvailableTokens()":"12ea5c7e","getAvailableTokenByIndex(uint256)":"cf6a68bf","getAvailableTokensCount()":"2dcd52f2","getAvailableTokensPaginated(uint256,uint256)":"5eba096b","initialPrice()":"1d0806ae","maxSupply()":"d5abeb01","setBaseURI(string)":"55f804b3","setCreator(address)":"3f516018","tokenIndex(uint256)":"0583e9f8"}}}}}