{"src/core/Trade.sol":{"Trade":{"abi":[{"inputs":[{"internalType":"string","name":"_name","type":"string"},{"internalType":"string","name":"_symbol","type":"string"},{"internalType":"uint256","name":"_initialPrice","type":"uint256"},{"internalType":"uint256","name":"_maxSupply","type":"uint256"},{"internalType":"uint256","name":"_creatorFeePercent","type":"uint256"}],"stateMutability":"nonpayable","type":"constructor"},{"inputs":[],"name":"ERC721EnumerableForbiddenBatchMint","type":"error"},{"inputs":[{"internalType":"address","name":"sender","type":"address"},{"internalType":"uint256","name":"tokenId","type":"uint256"},{"internalType":"address","name":"owner","type":"address"}],"name":"ERC721IncorrectOwner","type":"error"},{"inputs":[{"internalType":"address","name":"operator","type":"address"},{"internalType":"uint256","name":"tokenId","type":"uint256"}],"name":"ERC721InsufficientApproval","type":"error"},{"inputs":[{"internalType":"address","name":"approver","type":"address"}],"name":"ERC721InvalidApprover","type":"error"},{"inputs":[{"internalType":"address","name":"operator","type":"address"}],"name":"ERC721InvalidOperator","type":"error"},{"inputs":[{"internalType":"address","name":"owner","type":"address"}],"name":"ERC721InvalidOwner","type":"error"},{"inputs":[{"internalType":"address","name":"receiver","type":"address"}],"name":"ERC721InvalidReceiver","type":"error"},{"inputs":[{"internalType":"address","name":"sender","type":"address"}],"name":"ERC721InvalidSender","type":"error"},{"inputs":[{"internalType":"uint256","name":"tokenId","type":"uint256"}],"name":"ERC721NonexistentToken","type":"error"},{"inputs":[{"internalType":"address","name":"owner","type":"address"},{"internalType":"uint256","name":"index","type":"uint256"}],"name":"ERC721OutOfBoundsIndex","type":"error"},{"inputs":[{"internalType":"address","name":"owner","type":"address"}],"name":"OwnableInvalidOwner","type":"error"},{"inputs":[{"internalType":"address","name":"account","type":"address"}],"name":"OwnableUnauthorizedAccount","type":"error"},{"anonymous":false,"inputs":[{"indexed":true,"internalType":"address","name":"owner","type":"address"},{"indexed":true,"internalType":"address","name":"approved","type":"address"},{"indexed":true,"internalType":"uint256","name":"tokenId","type":"uint256"}],"name":"Approval","type":"event"},{"anonymous":false,"inputs":[{"indexed":true,"internalType":"address","name":"owner","type":"address"},{"indexed":true,"internalType":"address","name":"operator","type":"address"},{"indexed":false,"internalType":"bool","name":"approved","type":"bool"}],"name":"ApprovalForAll","type":"event"},{"anonymous":false,"inputs":[{"indexed":true,"internalType":"address","name":"previousOwner","type":"address"},{"indexed":true,"internalType":"address","name":"newOwner","type":"address"}],"name":"OwnershipTransferred","type":"event"},{"anonymous":false,"inputs":[{"indexed":true,"internalType":"address","name":"buyer","type":"address"},{"indexed":true,"internalType":"uint256","name":"tokenId","type":"uint256"},{"indexed":false,"internalType":"uint256","name":"price","type":"uint256"},{"indexed":false,"internalType":"uint256","name":"creatorFee","type":"uint256"}],"name":"TokenBought","type":"event"},{"anonymous":false,"inputs":[{"indexed":true,"internalType":"address","name":"to","type":"address"},{"indexed":true,"internalType":"uint256","name":"tokenId","type":"uint256"},{"indexed":false,"internalType":"uint256","name":"price","type":"uint256"},{"indexed":false,"internalType":"uint256","name":"creatorFee","type":"uint256"}],"name":"TokenMinted","type":"event"},{"anonymous":false,"inputs":[{"indexed":true,"internalType":"address","name":"seller","type":"address"},{"indexed":true,"internalType":"uint256","name":"tokenId","type":"uint256"},{"indexed":false,"internalType":"uint256","name":"price","type":"uint256"},{"indexed":false,"internalType":"uint256","name":"creatorFee","type":"uint256"}],"name":"TokenSold","type":"event"},{"anonymous":false,"inputs":[{"indexed":true,"internalType":"address","name":"from","type":"address"},{"indexed":true,"internalType":"address","name":"to","type":"address"},{"indexed":true,"internalType":"uint256","name":"tokenId","type":"uint256"}],"name":"Transfer","type":"event"},{"inputs":[{"internalType":"address","name":"to","type":"address"},{"internalType":"uint256","name":"tokenId","type":"uint256"}],"name":"approve","outputs":[],"stateMutability":"nonpayable","type":"function"},{"inputs":[{"internalType":"uint256","name":"","type":"uint256"}],"name":"availableTokens","outputs":[{"internalType":"uint256","name":"","type":"uint256"}],"stateMutability":"view","type":"function"},{"inputs":[{"internalType":"address","name":"owner","type":"address"}],"name":"balanceOf","outputs":[{"internalType":"uint256","name":"","type":"uint256"}],"stateMutability":"view","type":"function"},{"inputs":[],"name":"baseURI","outputs":[{"internalType":"string","name":"","type":"string"}],"stateMutability":"view","type":"function"},{"inputs":[{"internalType":"uint256","name":"tokenId","type":"uint256"}],"name":"buy","outputs":[],"stateMutability":"payable","type":"function"},{"inputs":[{"internalType":"uint256","name":"supply","type":"uint256"}],"name":"calculatePrice","outputs":[{"internalType":"uint256","name":"","type":"uint256"}],"stateMutability":"view","type":"function"},{"inputs":[],"name":"contractURI","outputs":[{"internalType":"string","name":"","type":"string"}],"stateMutability":"view","type":"function"},{"inputs":[],"name":"creator","outputs":[{"internalType":"address","name":"","type":"address"}],"stateMutability":"view","type":"function"},{"inputs":[],"name":"creatorFeePercent","outputs":[{"internalType":"uint256","name":"","type":"uint256"}],"stateMutability":"view","type":"function"},{"inputs":[],"name":"currentSupply","outputs":[{"internalType":"uint256","name":"","type":"uint256"}],"stateMutability":"view","type":"function"},{"inputs":[],"name":"getAllAvailableTokens","outputs":[{"internalType":"uint256[]","name":"","type":"uint256[]"}],"stateMutability":"view","type":"function"},{"inputs":[{"internalType":"uint256","name":"tokenId","type":"uint256"}],"name":"getApproved","outputs":[{"internalType":"address","name":"","type":"address"}],"stateMutability":"view","type":"function"},{"inputs":[{"internalType":"uint256","name":"index","type":"uint256"}],"name":"getAvailableTokenByIndex","outputs":[{"internalType":"uint256","name":"","type":"uint256"}],"stateMutability":"view","type":"function"},{"inputs":[],"name":"getAvailableTokensCount","outputs":[{"internalType":"uint256","name":"","type":"uint256"}],"stateMutability":"view","type":"function"},{"inputs":[{"internalType":"uint256","name":"start","type":"uint256"},{"internalType":"uint256","name":"limit","type":"uint256"}],"name":"getAvailableTokensPaginated","outputs":[{"internalType":"uint256[]","name":"","type":"uint256[]"}],"stateMutability":"view","type":"function"},{"inputs":[],"name":"getBuyPrice","outputs":[{"internalType":"uint256","name":"","type":"uint256"}],"stateMutability":"view","type":"function"},{"inputs":[],"name":"getBuyPriceAfterFee","outputs":[{"internalType":"uint256","name":"","type":"uint256"}],"stateMutability":"view","type":"function"},{"inputs":[],"name":"getSellPrice","outputs":[{"internalType":"uint256","name":"","type":"uint256"}],"stateMutability":"view","type":"function"},{"inputs":[],"name":"getSellPriceAfterFee","outputs":[{"internalType":"uint256","name":"","type":"uint256"}],"stateMutability":"view","type":"function"},{"inputs":[],"name":"initialPrice","outputs":[{"internalType":"uint256","name":"","type":"uint256"}],"stateMutability":"view","type":"function"},{"inputs":[{"internalType":"address","name":"owner","type":"address"},{"internalType":"address","name":"operator","type":"address"}],"name":"isApprovedForAll","outputs":[{"internalType":"bool","name":"","type":"bool"}],"stateMutability":"view","type":"function"},{"inputs":[{"internalType":"uint256","name":"tokenId","type":"uint256"}],"name":"isOnSale","outputs":[{"internalType":"bool","name":"","type":"bool"}],"stateMutability":"view","type":"function"},{"inputs":[],"name":"maxSupply","outputs":[{"internalType":"uint256","name":"","type":"uint256"}],"stateMutability":"view","type":"function"},{"inputs":[],"name":"mint","outputs":[{"internalType":"uint256","name":"","type":"uint256"}],"stateMutability":"payable","type":"function"},{"inputs":[],"name":"name","outputs":[{"internalType":"string","name":"","type":"string"}],"stateMutability":"view","type":"function"},{"inputs":[{"internalType":"address","name":"","type":"address"},{"internalType":"address","name":"","type":"address"},{"internalType":"uint256","name":"","type":"uint256"},{"internalType":"bytes","name":"","type":"bytes"}],"name":"onERC721Received","outputs":[{"internalType":"bytes4","name":"","type":"bytes4"}],"stateMutability":"nonpayable","type":"function"},{"inputs":[],"name":"owner","outputs":[{"internalType":"address","name":"","type":"address"}],"stateMutability":"view","type":"function"},{"inputs":[{"internalType":"uint256","name":"tokenId","type":"uint256"}],"name":"ownerOf","outputs":[{"internalType":"address","name":"","type":"address"}],"stateMutability":"view","type":"function"},{"inputs":[],"name":"renounceOwnership","outputs":[],"stateMutability":"nonpayable","type":"function"},{"inputs":[{"internalType":"address","name":"from","type":"address"},{"internalType":"address","name":"to","type":"address"},{"internalType":"uint256","name":"tokenId","type":"uint256"}],"name":"safeTransferFrom","outputs":[],"stateMutability":"nonpayable","type":"function"},{"inputs":[{"internalType":"address","name":"from","type":"address"},{"internalType":"address","name":"to","type":"address"},{"internalType":"uint256","name":"tokenId","type":"uint256"},{"internalType":"bytes","name":"data","type":"bytes"}],"name":"safeTransferFrom","outputs":[],"stateMutability":"nonpayable","type":"function"},{"inputs":[{"internalType":"uint256","name":"tokenId","type":"uint256"}],"name":"sell","outputs":[],"stateMutability":"nonpayable","type":"function"},{"inputs":[{"internalType":"address","name":"operator","type":"address"},{"internalType":"bool","name":"approved","type":"bool"}],"name":"setApprovalForAll","outputs":[],"stateMutability":"nonpayable","type":"function"},{"inputs":[{"internalType":"string","name":"_baseURI","type":"string"}],"name":"setBaseURI","outputs":[],"stateMutability":"nonpayable","type":"function"},{"inputs":[{"internalType":"address","name":"_creator","type":"address"}],"name":"setCreator","outputs":[],"stateMutability":"nonpayable","type":"function"},{"inputs":[{"internalType":"bytes4","name":"interfaceId","type":"bytes4"}],"name":"supportsInterface","outputs":[{"internalType":"bool","name":"","type":"bool"}],"stateMutability":"view","type":"function"},{"inputs":[],"name":"symbol","outputs":[{"internalType":"string","name":"","type":"string"}],"stateMutability":"view","type":"function"},{"inputs":[{"internalType":"uint256","name":"index","type":"uint256"}],"name":"tokenByIndex","outputs":[{"internalType":"uint256","name":"","type":"uint256"}],"stateMutability":"view","type":"function"},{"inputs":[{"internalType":"uint256","name":"","type":"uint256"}],"name":"tokenIndex","outputs":[{"internalType":"uint256","name":"","type":"uint256"}],"stateMutability":"view","type":"function"},{"inputs":[{"internalType":"address","name":"owner","type":"address"},{"internalType":"uint256","name":"index","type":"uint256"}],"name":"tokenOfOwnerByIndex","outputs":[{"internalType":"uint256","name":"","type":"uint256"}],"stateMutability":"view","type":"function"},{"inputs":[{"internalType":"uint256","name":"tokenId","type":"uint256"}],"name":"tokenURI","outputs":[{"internalType":"string","name":"","type":"string"}],"stateMutability":"view","type":"function"},{"inputs":[],"name":"totalSupply","outputs":[{"internalType":"uint256","name":"","type":"uint256"}],"stateMutability":"view","type":"function"},{"inputs":[{"internalType":"address","name":"from","type":"address"},{"internalType":"address","name":"to","type":"address"},{"internalType":"uint256","name":"tokenId","type":"uint256"}],"name":"transferFrom","outputs":[],"stateMutability":"nonpayable","type":"function"},{"inputs":[{"internalType":"address","name":"newOwner","type":"address"}],"name":"transferOwnership","outputs":[],"stateMutability":"nonpayable","type":"function"}],"evm":{"bytecode":{"linkReferences":{},"object":"60806040523461002e5761001d610014610171565b93929092610196565b604051612f8b6105508239612f8b90f35b600080fd5b634e487b7160e01b600052604160045260246000fd5b90601f01601f191681019081106001600160401b0382111761006a57604052565b610033565b9061008361007c60405190565b9283610049565b565b6001600160401b03811161006a57602090601f01601f19160190565b60005b8381106100b45750506000910152565b81810151838201526020016100a4565b909291926100d96100d482610085565b61006f565b938185528183011161002e576100839160208501906100a1565b9080601f8301121561002e57815161010d926020016100c4565b90565b919060a08382031261002e5782516001600160401b03811161002e57816101389185016100f3565b60208401519093906001600160401b03811161002e578261015a9183016100f3565b604082015160608301516080909301519194909350565b61018f6134db803803806101848161006f565b928339810190610110565b9091929394565b610083948594859433929190610237565b90600019905b9181191691161790565b61010d61010d61010d9290565b906101d461010d6101db926101b7565b82546101a7565b9055565b906001600160a01b03906101ad565b61010d90610202906001600160a01b031682565b6001600160a01b031690565b61010d906101ee565b61010d9061020e565b9061023061010d6101db92610217565b82546101df565b61024d6102629661025493949661025b9661026d565b600b6101c4565b600c6101c4565b600d6101c4565b61008333600e610220565b9061008392916102ab565b61020261010d61010d9290565b61010d90610278565b61029790610202565b9052565b602081019291610083919061028e565b916102b5916102ff565b60006102c081610285565b6102c981610202565b6102d284610202565b146102e2575050610083906104f8565b631e4fbdf760e01b825281906102fb906004830161029b565b0390fd5b610083918291829182916104cf565b634e487b7160e01b600052602260045260246000fd5b9060016002830492168015610344575b602083101461033f57565b61030e565b91607f1691610334565b9160001960089290920291821b911b6101ad565b919061037361010d6101db936101b7565b90835461034e565b61008391600091610362565b818110610392575050565b806103a0600060019361037b565b01610387565b9190601f81116103b557505050565b6103c761008393600052602060002090565b906020601f8401819004830193106103e9575b6020601f909101040190610387565b90915081906103da565b906103fc815190565b906001600160401b03821161006a5761041f826104198554610324565b856103a6565b602090601f831160011461045a576101db92916000918361044f575b5050600019600883021c1916906002021790565b01519050388061043b565b601f1983169161046f85600052602060002090565b9260005b8181106104ad57509160029391856001969410610494575b50505002019055565b01516000196008601f8516021c1916905538808061048b565b91936020600181928787015181550195019201610473565b90610083916103f3565b906104de6100839260006104c5565b60016104c5565b61010d90610202565b61010d90546104e5565b61051e610518610508600a6104ee565b61051384600a610220565b610217565b91610217565b907f8be0079c531659141344cd1fd0a4f28419497f9722a3daafe3b4186f6b6457e061054960405190565b600090a356fe6080604052600436101561001257600080fd5b60003560e01c8063018a25e8146102d257806301ffc9a7146102cd57806302d05d3f146102c85780630583e9f8146102c357806306fdde03146102be578063081812fc146102b9578063095ea7b3146102b45780631249c58b146102af57806312ea5c7e146102aa578063150b7a02146102a557806318160ddd146102a05780631d0806ae1461029b57806321a1c1841461029657806323b872dd146102915780632dcd52f21461028c5780632f745c59146102875780633f5160181461028257806342842e0e1461027d57806343d32e9c146102785780634a8fe650146102735780634f6ccce71461026e57806353613dd31461026957806355f804b3146102645780635eba096b1461025f5780636352211e1461025a5780636c0360eb1461025557806370a0823114610250578063715018a61461024b578063771282f6146102465780638da5cb5b1461024157806395d89b411461023c578063a22cb46514610237578063ad64d06814610232578063ae1042651461022d578063b88d4fde14610228578063c87b56dd14610223578063cf6a68bf1461021e578063d5abeb0114610219578063d96a094a14610214578063e4849b321461020f578063e8a3d4851461020a578063e985e9c514610205578063f0f2805f146102005763f2fde38b036102e257610d6a565b610d4f565b610d33565b610cf5565b610cdd565b610cca565b610caf565b610c88565b610c6d565b610c51565b610c36565b610c1b565b610ba6565b610b53565b610b38565b610b1d565b610af9565b610ade565b610ac3565b610981565b610965565b610931565b6108f0565b6108c9565b6108ae565b610893565b61087a565b610862565b610832565b610816565b6107fd565b6107b9565b61079e565b610776565b61073c565b610601565b610584565b610566565b610512565b6104eb565b610464565b6103c6565b610353565b6102ed565b60009103126102e257565b600080fd5b9052565b565b346102e2576102fd3660046102d7565b610318610308610d93565b6040519182918290815260200190565b0390f35b6001600160e01b031981165b036102e257565b905035906102eb8261031c565b906020828203126102e2576103509161032f565b90565b346102e25761031861036e61036936600461033c565b610da0565b6040515b91829182901515815260200190565b610350916008021c5b6001600160a01b031690565b906103509154610381565b6103506000600e610396565b6102e79061038a565b6020810192916102eb91906103ad565b346102e2576103d63660046102d7565b6103186103e16103a1565b604051918291826103b6565b80610328565b905035906102eb826103ed565b906020828203126102e257610350916103f3565b6103506103506103509290565b9061042b90610414565b600052602052604060002090565b610350916008021c81565b906103509154610439565b600061045f610350926011610421565b610444565b346102e25761031861030861047a366004610400565b61044f565b60005b8381106104925750506000910152565b8181015183820152602001610482565b6104c36104cc6020936104d6936104b7815190565b80835293849260200190565b9586910161047f565b601f01601f191690565b0190565b6020808252610350929101906104a2565b346102e2576104fb3660046102d7565b610318610506610ddd565b604051918291826104da565b346102e2576103186103e1610528366004610400565b610de7565b6103288161038a565b905035906102eb8261052d565b91906040838203126102e25761035090602061055f8286610536565b94016103f3565b346102e25761057f610579366004610543565b90610dfa565b604051005b61058f3660046102d7565b610318610308610ff2565b906105ba6105b36105a9845190565b8084529260200190565b9260200190565b9060005b8181106105cb5750505090565b9091926105e86105e16001928651815260200190565b9460200190565b9291016105be565b60208082526103509291019061059a565b346102e2576106113660046102d7565b61031861061c6111ad565b604051918291826105f0565b634e487b7160e01b600052604160045260246000fd5b90601f01601f1916810190811067ffffffffffffffff82111761066057604052565b610628565b906102eb61067260405190565b928361063e565b67ffffffffffffffff811161066057602090601f01601f19160190565b90826000939282370152565b909291926106b76106b282610679565b610665565b93818552818301116102e2576102eb916020850190610696565b9080601f830112156102e257816020610350933591016106a2565b906080828203126102e2576107018183610536565b9261070f8260208501610536565b9261071d83604083016103f3565b92606082013567ffffffffffffffff81116102e25761035092016106d1565b346102e25761031861075b6107523660046106ec565b929190916111dd565b604051918291826001600160e01b0319909116815260200190565b346102e2576107863660046102d7565b61031861030860085490565b6103506000600b610444565b346102e2576107ae3660046102d7565b610318610308610792565b346102e2576107c93660046102d7565b610318610308611204565b90916060828403126102e2576103506107ed8484610536565b93604061055f8260208701610536565b346102e25761057f6108103660046107d4565b9161126f565b346102e2576108263660046102d7565b61031861030860105490565b346102e257610318610308610848366004610543565b90611318565b906020828203126102e25761035091610536565b346102e25761057f61087536600461084e565b61141b565b346102e25761057f61088d3660046107d4565b91611436565b346102e2576108a33660046102d7565b61031861030861144a565b346102e2576108be3660046102d7565b61031861030861148e565b346102e2576103186103086108df366004610400565b6114a9565b6103506000600d610444565b346102e2576109003660046102d7565b6103186103086108e4565b906020828203126102e257813567ffffffffffffffff81116102e25761035092016106d1565b346102e25761057f61094436600461090b565b611695565b91906040838203126102e25761035090602061055f82866103f3565b346102e25761031861061c61097b366004610949565b90611751565b346102e2576103186103e1610997366004610400565b6117e0565b634e487b7160e01b600052600060045260246000fd5b634e487b7160e01b600052602260045260246000fd5b90600160028304921680156109e8575b60208310146109e357565b6109b2565b91607f16916109d8565b80546000939291610a0f610a05836109c8565b8085529360200190565b9160018116908115610a615750600114610a2857505050565b610a3b9192939450600052602060002090565b916000925b818410610a4d5750500190565b805484840152602090930192600101610a40565b92949550505060ff1916825215156020020190565b90610350916109f2565b906102eb610a9a92610a9160405190565b93848092610a76565b038361063e565b90600010610ab25761035090610a80565b61099c565b61035060006012610aa1565b346102e257610ad33660046102d7565b610318610506610ab7565b346102e257610318610308610af436600461084e565b6117e9565b346102e257610b093660046102d7565b61057f611851565b6103506000600f610444565b346102e257610b2d3660046102d7565b610318610308610b11565b346102e257610b483660046102d7565b6103186103e1611859565b346102e257610b633660046102d7565b610318610506611863565b801515610328565b905035906102eb82610b6e565b91906040838203126102e257610350906020610b9f8286610536565b9401610b76565b346102e25761057f610bb9366004610b83565b9061186d565b634e487b7160e01b600052603260045260246000fd5b8054821015610bf857610bef600191600052602060002090565b91020190600090565b610bbf565b6010548110156102e257610c15610350916010610bd5565b90610444565b346102e257610318610308610c31366004610400565b610bfd565b346102e257610318610308610c4c366004610400565b611878565b346102e25761057f610c643660046106ec565b92919091611909565b346102e257610318610506610c83366004610400565b611a21565b346102e257610318610308610c9e366004610400565b611a64565b6103506000600c610444565b346102e257610cbf3660046102d7565b610318610308610ca3565b61057f610cd8366004610400565b611b8c565b346102e25761057f610cf0366004610400565b611d98565b346102e257610d053660046102d7565b610318610506611de4565b91906040838203126102e257610350906020610d2c8286610536565b9401610536565b346102e25761031861036e610d49366004610d10565b90611e28565b346102e25761031861036e610d65366004610400565b611e4d565b346102e25761057f610d7d36600461084e565b611eb7565b6103509081565b6103509054610d82565b610350610c4c600f610d89565b610da981611ec0565b908115610db4575090565b9050610dd0632fa757f360e01b5b916001600160e01b03191690565b1490565b61035090610a80565b6103506000610dd4565b61035090610df481611ec9565b50611f09565b6102eb913391611f25565b15610e0c57565b60405162461bcd60e51b815260206004820152601260248201527113585e081cdd5c1c1b1e481c995858da195960721b604482015280606481015b0390fd5b634e487b7160e01b600052601160045260246000fd5b81810292918115918404141715610e7457565b610e4b565b634e487b7160e01b600052601260045260246000fd5b90610e99565b9190565b908115610ea4570490565b610e79565b91908201809211610e7457565b15610ebd57565b60405162461bcd60e51b8152602060048201526014602482015273125b9cdd59999a58da595b9d081c185e5b595b9d60621b6044820152606490fd5b6000198114610e745760010190565b90600019905b9181191691161790565b90610f28610350610f2f92610414565b8254610f08565b9055565b6103509061038a906001600160a01b031682565b61035090610f33565b61035090610f47565b9081526040810192916102eb9160200152565b0152565b6103509061038a565b6103509054610f70565b90610f906106b283610679565b918252565b3d15610faf57610fa43d610f83565b903d6000602084013e565b606090565b15610fbb57565b60405162461bcd60e51b815260206004820152600f60248201526e151c985b9cd9995c8819985a5b1959608a1b6044820152606490fd5b611014610ffe60085490565b61100e610e95610350600c610d89565b10610e05565b61101c610d93565b61035061112361104f611038611032600d610d89565b85610e61565b611049670de0b6b3a7640000610414565b90610e8f565b61106761105f6103508387610ea9565b341015610eb6565b61108361107360085490565b61107d6001610414565b90610ea9565b9361108e8533611f32565b6110aa6110a361109e600f610d89565b610ef9565b600f610f18565b6110b333610f50565b6110bc86610414565b907f10546b1a6f5245ff0ffa18c256b9e46859c585cbb473b453fcd4c2dc39ae08db6110e760405190565b806110f3878783610f59565b0390a361111e600080611106600e610f79565b60405160009187905af1611118610f95565b50610fb4565b610ea9565b611f80565b906111436111376105a9845490565b92600052602060002090565b9060005b8181106111545750505090565b90919261117861117160019261116987610d89565b815260200190565b9460010190565b929101611147565b9061035091611128565b906102eb610a9a9261119b60405190565b93848092611180565b6103509061118a565b61035060106111a4565b6111d06111ca6103509263ffffffff1690565b60e01b90565b6001600160e01b03191690565b505050506111e9600090565b5061035063150b7a026111b7565b91908203918211610e7457565b61035061120f61144a565b61122561103861121f600d610d89565b83610e61565b906111f7565b61038a6103506103509290565b6103509061122b565b6040906112686102eb9496959396611261606084019860008501906103ad565b6020830152565b01906103ad565b909160009261127d84611238565b6112868161038a565b61128f8361038a565b146112da57506112a190823391611fca565b916112ab8161038a565b6112b48461038a565b036112bf5750505050565b6364283d7b60e01b84528392610e4792909160048501611241565b84610e478192633250574960e11b8352600483016103b6565b9160206102eb929493610f6c604082019660008301906103ad565b9061042b90610f50565b611324610350826117e9565b821015611347576103509161133d61134292600661130e565b610421565b610d89565b63295f44f760e21b6000908152916113609160046112f3565b036000fd5b1561136c57565b60405162461bcd60e51b815260206004820152602360248201527f4f6e6c792063726561746f722063616e2063616c6c20746869732066756e637460448201526234b7b760e91b6064820152608490fd5b6102eb906113e56113d66113d1600e610f79565b61038a565b6113df3361038a565b14611365565b611410565b906001600160a01b0390610f0e565b90611409610350610f2f92610f50565b82546113ea565b6102eb90600e6113f9565b6102eb906113bd565b6103506000610f83565b610350611424565b90916102eb9261144461142e565b92611909565b611454600f610d89565b611461610e956000610414565b111561148157610350610c4c611477600f610d89565b6112256001610414565b610350610c4c6000610414565b610350611499610d93565b61107d61103861121f600d610d89565b6114b561035060085490565b8110156114ca57610c15610350916008610bd5565b610e479060009182916114dc83611238565b63295f44f760e21b8452600484016112f3565b6102eb906115036113d66113d1600e610f79565b61168a565b9160001960089290920291821b911b610f0e565b919061152d610350610f2f93610414565b908354611508565b6102eb9160009161151c565b81811061154c575050565b8061155a6000600193611535565b01611541565b9190601f811161156f57505050565b6115816102eb93600052602060002090565b906020601f8401819004830193106115a3575b6020601f909101040190611541565b9091508190611594565b906115b6815190565b9067ffffffffffffffff8211610660576115da826115d485546109c8565b85611560565b602090601f831160011461161557610f2f92916000918361160a575b5050600019600883021c1916906002021790565b0151905038806115f6565b601f1983169161162a85600052602060002090565b9260005b8181106116685750916002939185600196941061164f575b50505002019055565b01516000196008601f8516021c19169055388080611646565b9193602060018192878701518155019501920161162e565b906102eb916115ad565b6102eb906012611680565b6102eb906114ef565b156116a557565b60405162461bcd60e51b815260206004820152601960248201527f537461727420696e646578206f7574206f6620626f756e6473000000000000006044820152606490fd5b67ffffffffffffffff81116106605760208091020190565b90610f906106b2836116ea565b369037565b906102eb61172a61172484611702565b936116ea565b601f19016020840161170f565b90611740825190565b811015610bf8576020809102010190565b9161177e611776601093611770611769610350875490565b871061169e565b85610ea9565b835490611fd5565b9161179161178c85856111f7565b611714565b91845b845b8110156117d7576117d0816117ca6117b4610c156117969588610bd5565b6117c76117c18b856111f7565b89611737565b52565b60010190565b9050611794565b50935050905090565b61035090611ec9565b60006117f481611238565b6117fd8161038a565b6118068461038a565b1461181b57505061134261035091600361130e565b6322718ad960e21b82528190610e4790600483016103b6565b61183c611fe7565b6102eb6102eb61184c6000611238565b61201e565b6102eb611834565b610350600a610f79565b6103506001610dd4565b6102eb919033612097565b6118826000610414565b81146118fe576103509061107d611899600b610d89565b916118c06118e96118df6118df6118ee6118c66118b6600b610d89565b6118c06002610414565b90610e61565b6118c06118e96118df896118da6064610414565b610e61565b611049600c610d89565b61215b565b946118da816118da612710610414565b50610350600b610d89565b906102eb93929161191b83838361126f565b6122b5565b61035090546109c8565b8054600093929161194161193d836109c8565b9390565b9160018116908115611992575060011461195a57505050565b61196d9192939450600052602060002090565b6000905b83821061197e5750500190565b600181602092548486015201910190611971565b60ff191683525050811515909102019150565b6104d66119bd926020926119b7815190565b94859290565b9384910161047f565b9160016119d86005946119e69461192a565b602f60f81b815201906119a5565b64173539b7b760d91b81520190565b611a1592916102eb91611a0760405190565b9485926020840192836119c6565b9081038252038361063e565b611a2a81611ec9565b50611a356012611920565b611a42610e956000610414565b1115611a5b57611a54610350916123e8565b60126119f5565b5061035061142e565b610c1561035091611a73600090565b506010610bd5565b15611a8257565b60405162461bcd60e51b815260206004820152601f60248201527f546f6b656e206973206e6f7420617661696c61626c6520666f722073616c65006044820152606490fd5b6102eb90611af2611ad7826117e0565b611aec611ae66113d130610f50565b9161038a565b14611a7b565b6111236102eb91611b01610d93565b611b1161103861121f600d610d89565b91611b2261105f6103508585610ea9565b611b3681611b2f30610f50565b3390612475565b611b3f81612538565b611b4f6110a361109e600f610d89565b611b61611b5b33610f50565b91610414565b907f884543c08d36fb5c9b3b688dd0453c9f287199124bdbddb3b7f9ca885a4d34a06110e760405190565b6102eb90611ac7565b15611b9c57565b60405162461bcd60e51b815260206004820152601360248201527221b0b63632b91034b9903737ba1037bbb732b960691b6044820152606490fd5b6102eb90611bf9611be7826117e0565b611bf3611ae63361038a565b14611b95565b611ca3565b8015610e74576000190190565b15611c1257565b60405162461bcd60e51b815260206004820152601960248201527f5472616e7366657220746f2073656c6c6572206661696c6564000000000000006044820152606490fd5b15611c5e57565b60405162461bcd60e51b815260206004820152601a60248201527f5472616e7366657220746f2063726561746f72206661696c65640000000000006044820152606490fd5b6000806102eb92611d6f8280611cb761144a565b93611d57611cd1611038611ccb600d610d89565b88610e61565b8096611cda3390565b93611cee81611ce830610f50565b87612475565b611cf7816125c7565b611d0c6110a3611d07600f610d89565b611bfe565b611d18611b5b86610f50565b907f8323bebb324b6e1a1d4886a1f210640461bb275263dae69967f001d053ab0b2b611d4360405190565b80611d4f878783610f59565b0390a36111f7565b60405190818003925af1611d69610f95565b50611c0b565b611d79600e610f79565b90611d8360405190565b90818003925af1611d92610f95565b50611c57565b6102eb90611bd7565b611dad9060109261192a565b6f17b1b7b63632b1ba34b7b7173539b7b760811b81520190565b906102eb611dd460405190565b8093611a15602083019182611da1565b611dee6012611920565b611dfb610e956000610414565b1115611e0b576103506012611dc7565b61035061142e565b610350905b60ff1690565b6103509054611e13565b61035091611e43611e4892611e3b600090565b50600561130e565b61130e565b611e1e565b611e56906117e0565b610dd0611ae66113d130610f50565b6102eb90611e71611fe7565b6000611e7c81611238565b611e858161038a565b611e8e8461038a565b14611e9e5750506102eb9061201e565b631e4fbdf760e01b82528190610e4790600483016103b6565b6102eb90611e65565b610350906125ed565b611ed281612616565b90600090611ee26113d183611238565b611eeb8461038a565b14611ef557505090565b637e27328960e01b82526004820152602490fd5b611f2061035091611f18600090565b506004610421565b610f79565b916001916102eb9361262d565b6102eb91611f3e61142e565b91612759565b15611f4b57565b60405162461bcd60e51b815260206004820152600d60248201526c1499599d5b990819985a5b1959609a1b6044820152606490fd5b611f8a90346111f7565b611f946000610414565b8111611f9d5750565b6000806102eb92611fab3390565b90611fb560405190565b90818003925af1611fc4610f95565b50611f44565b610350929190612773565b9080821015611fe2575090565b905090565b611fef611859565b3390611ffd611ae68361038a565b036120055750565b63118cdaa760e01b6000908152906113609060046103b6565b61204461203e61202e600a610f79565b61203984600a6113f9565b610f50565b91610f50565b907f8be0079c531659141344cd1fd0a4f28419497f9722a3daafe3b4186f6b6457e061206f60405190565b80805b0390a3565b9060ff90610f0e565b90612090610350610f2f92151590565b8254612077565b60006120a56113d182611238565b6120ae8461038a565b1461210757506120726120fd6120f783612039876120f288611e437f17307eab39ab6107e8899845ad3d59bd9653f200f220920489ca2b5937696c3199600561130e565b612080565b93610f50565b9361037260405190565b630b61174360e31b815280610e4784600483016103b6565b611e186103506103509290565b61035090612140610e956103509460ff1690565b901c90565b61035090612156610e956103509490565b901b90565b6121656000610414565b811461224b5760016121768261280c565b61217f8261211f565b80808080809661219082809861212c565b9061219a90610414565b906121a491612145565b6121ae818a610e8f565b01906121b99161212c565b6121c38189610e8f565b01906121ce9161212c565b6121d88188610e8f565b01906121e39161212c565b6121ed8187610e8f565b01906121f89161212c565b6122028186610e8f565b019061220d9161212c565b6122178185610e8f565b01906122229161212c565b61222c8184610e8f565b01906122379161212c565b908161224291610e8f565b61035091611fd5565b506103506000610414565b905051906102eb8261031c565b906020828203126102e25761035091612256565b90926122a8906122a16103509694612297608086019760008701906103ad565b60208501906103ad565b6040830152565b60608184039101526104a2565b6000939192833b6122c8610e9587610414565b116122d5575b5050505050565b6020916122e461203986610f50565b90863361230d6122f360405190565b97889687958694630a85bd0160e11b865260048601612277565b03925af1600091816123a1575b5061236c575061232f565b38808080806122ce565b612337610f95565b8051612345610e9585610414565b036123645750633250574960e11b82528190610e4790600483016103b6565b805190602001fd5b61237c630a85bd0160e11b610dc2565b03612388575050612325565b633250574960e11b82528190610e4790600483016103b6565b6123c491925060203d6020116123cb575b6123bc818361063e565b810190612263565b903861231a565b503d6123b2565b906102eb61172a6123e284610f83565b93610679565b6123f1816129be565b906124026001926104d66001610414565b918061240d846123d2565b936020018401905b612420575b50505090565b8115612470576124549060001901926f181899199a1a9b1b9c1cb0b131b232b360811b600a82061a8453611049600a610414565b9081612463610e956000610414565b1461247057909181612415565b61241a565b91929060009261248484611238565b9161248e8361038a565b6124978261038a565b146124e1576124aa83876124b093611fca565b9261038a565b6124b98361038a565b036124d457637e27328960e01b845260048401859052602484fd5b6112ab819592939561038a565b633250574960e11b85528480610e4785600483016103b6565b634e487b7160e01b600052603160045260246000fd5b8054801561253357600019019061253061252a8383610bd5565b90611535565b55565b6124fa565b600061259a6102eb92601161133d6125956125566113428585610421565b610350601091612590612576610c15612570611477875490565b86610bd5565b61258a816125848588610bd5565b9061151c565b87610421565b610f18565b612510565b611535565b908154916801000000000000000083101561066057826125849160016102eb95018155610bd5565b6102eb906125d681601061259f565b6125906125e561147760105490565b916011610421565b63780e9d6360e01b6001600160e01b031982161490811561260c575090565b6103509150612b52565b611f2061035091612625600090565b506002610421565b9291909180811561273b575b612654575b50509061264f6102eb926004610421565b6113f9565b61265d83611ec9565b9160009061266d6113d183611238565b6126768261038a565b141580612721575b8061270a575b6126f15750509161264f916102eb94936126a1575b50919261263e565b6126aa90610f50565b6126b384610f50565b6126bc83610414565b917f8c5be1e5ebec7d5bd14f71427d1e84f3dd0314c0f7b2291e5b200ac8c7c3b9256126e760405190565b600090a438612699565b63a9fbf51f60e01b82528190610e4790600483016103b6565b5061271c6127188286611e28565b1590565b612684565b5061272b8161038a565b6127348561038a565b141561267e565b506127496113d16000611238565b6127528361038a565b1415612639565b906102eb92916127698282612b9d565b61191b6000611238565b9091612780908383612c13565b916127ae61278e6000611238565b6127978161038a565b6127a08661038a565b036127eb576113d183612dc2565b6127b78361038a565b036127c6576103509150612e13565b6127cf8261038a565b6127d88461038a565b036127e257505090565b61035091612de4565b6127f48461038a565b6127fd8661038a565b1461038a576113d18386612d41565b6000612907610e9561290161282084610414565b9461283461282e608061211f565b8261212c565b8681116129a7575b5061284a61282e604061211f565b61285386610414565b8111612990575b5061286861282e602061211f565b61287186610414565b8111612979575b5061288661282e601061211f565b61288f86610414565b8111612962575b506128a461282e600861211f565b6128ad86610414565b811161294b575b506128c261282e600461211f565b6128cb86610414565b8111612934575b506128e061282e600261211f565b6128e986610414565b811161291d575b506128fb600161211f565b9061212c565b92610414565b1161290f5790565b610350906104d66001610414565b61292d9150956104d66002610414565b94386128f0565b6129449150956104d66004610414565b94386128d2565b61295b9150956104d66008610414565b94386128b4565b6129729150956104d66010610414565b9438612896565b6129899150956104d66020610414565b9438612878565b6129a09150956104d66040610414565b943861285a565b6129b79150956104d66080610414565b943861283c565b6129c86000610414565b907a184f03e93ff9f4daa797ed6e38ed64bf6a1f0100000000000000006129ee81610414565b821015612b30575b506d04ee2d6d415b85acef8100000000612a0f81610414565b821015612b0e575b50662386f26fc10000612a2981610414565b821015612aec575b506305f5e100612a4081610414565b821015612aca575b50612710612a5581610414565b821015612aa8575b50612a686064610414565b811015612a86575b612a7d610e95600a610414565b101561290f5790565b612a97612aa2916110496064610414565b916104d66002610414565b90612a70565b612ac391611049612ab892610414565b916104d66004610414565b9038612a5d565b612ae591611049612ada92610414565b916104d66008610414565b9038612a48565b612b0791611049612afc92610414565b916104d66010610414565b9038612a31565b612b2991611049612b1e92610414565b916104d66020610414565b9038612a17565b612b4b91611049612b4092610414565b916104d66040610414565b90386129f6565b6380ac58cd60e01b6001600160e01b0319821614908115612b82575b8115612b78575090565b6103509150612e61565b6001600160e01b03198116635b5e139f60e01b149150612b6e565b600091612ba983611238565b91612bb38361038a565b612bbc8261038a565b14612bfa57612bcc918391611fca565b612bd8611ae68361038a565b03612be1575050565b6339e3563760e11b82528190610e4790600483016103b6565b633250574960e11b84528380610e4785600483016103b6565b90612c66612c2082612616565b936000612c2c81611238565b9184612c378461038a565b612c408361038a565b03612d30575b5050612c518261038a565b612c5a8761038a565b03612cf5575b5061038a565b612c6f8361038a565b03612cc5575b612c848261264f836002610421565b612c93611b5b6120f785610f50565b917fddf252ad1be2c89b69c2b068fc378daa952ba7f163c4a11628f55a4df523b3ef612cbe60405190565b600090a490565b612cf0612cd26001610414565b612cea612ce085600361130e565b916104d683610d89565b90610f18565b612c75565b612d019082858161262d565b612d2a612d0e6001610414565b612cea612d1c88600361130e565b91612d2683610d89565b0390565b38612c60565b612d3a9188612e71565b3884612c46565b61259a6102eb9261133d600093612d808561259a612d5e846117e9565b95600785612d6f6113428484610421565b89808203612d87575b505050610421565b600661130e565b61133d612db48461259085612daa6113426125909761133d612dba9b600661130e565b948593600661130e565b84610421565b853889612d78565b6102eb90612ddd612dd260085490565b612590836009610421565b600861259f565b61259082612e0c6102eb9461259061133d95612e02611477826117e9565b968791600661130e565b6007610421565b6125956102eb91610350600061259a600893612e30611477865490565b61133d600991612590612e53610c15612e4c6113428888610421565b938b610bd5565b612db481612584858d610bd5565b610dd06301ffc9a760e01b610dc2565b90612e80612718848385612ed1565b612e8957505050565b6000928392612e9d611ae66113d186611238565b03612eba57637e27328960e01b8352600483015250602481010390fd5b63177e802f60e01b8352610e4791600484016112f3565b90612edf6113d16000611238565b612ee88261038a565b14159283612ef65750505090565b90919250612f038261038a565b612f0c8461038a565b14928315612f41575b508215612f27575b505038808061241a565b612f399192506124aa611ae691611f09565b143880612f1d565b612f4e9193508290611e28565b9138612f1556fea2646970667358221220ade4dccad16e204db7ec1619aff4dbb715d87e1aaa930bd523737e4e1672c8fb64736f6c634300081c0033","opcodes":"PUSH1 0x80 PUSH1 0x40 MSTORE CALLVALUE PUSH2 0x2E JUMPI PUSH2 0x1D PUSH2 0x14 PUSH2 0x171 JUMP JUMPDEST SWAP4 SWAP3 SWAP1 SWAP3 PUSH2 0x196 JUMP JUMPDEST PUSH1 0x40 MLOAD PUSH2 0x2F8B PUSH2 0x550 DUP3 CODECOPY PUSH2 0x2F8B SWAP1 RETURN JUMPDEST PUSH1 0x0 DUP1 REVERT JUMPDEST PUSH4 0x4E487B71 PUSH1 0xE0 SHL PUSH1 0x0 MSTORE PUSH1 0x41 PUSH1 0x4 MSTORE PUSH1 0x24 PUSH1 0x0 REVERT JUMPDEST SWAP1 PUSH1 0x1F ADD PUSH1 0x1F NOT AND DUP2 ADD SWAP1 DUP2 LT PUSH1 0x1 PUSH1 0x1 PUSH1 0x40 SHL SUB DUP3 GT OR PUSH2 0x6A JUMPI PUSH1 0x40 MSTORE JUMP JUMPDEST PUSH2 0x33 JUMP JUMPDEST SWAP1 PUSH2 0x83 PUSH2 0x7C PUSH1 0x40 MLOAD SWAP1 JUMP JUMPDEST SWAP3 DUP4 PUSH2 0x49 JUMP JUMPDEST JUMP JUMPDEST PUSH1 0x1 PUSH1 0x1 PUSH1 0x40 SHL SUB DUP2 GT PUSH2 0x6A JUMPI PUSH1 0x20 SWAP1 PUSH1 0x1F ADD PUSH1 0x1F NOT AND ADD SWAP1 JUMP JUMPDEST PUSH1 0x0 JUMPDEST DUP4 DUP2 LT PUSH2 0xB4 JUMPI POP POP PUSH1 0x0 SWAP2 ADD MSTORE JUMP JUMPDEST DUP2 DUP2 ADD MLOAD DUP4 DUP3 ADD MSTORE PUSH1 0x20 ADD PUSH2 0xA4 JUMP JUMPDEST SWAP1 SWAP3 SWAP2 SWAP3 PUSH2 0xD9 PUSH2 0xD4 DUP3 PUSH2 0x85 JUMP JUMPDEST PUSH2 0x6F JUMP JUMPDEST SWAP4 DUP2 DUP6 MSTORE DUP2 DUP4 ADD GT PUSH2 0x2E JUMPI PUSH2 0x83 SWAP2 PUSH1 0x20 DUP6 ADD SWAP1 PUSH2 0xA1 JUMP JUMPDEST SWAP1 DUP1 PUSH1 0x1F DUP4 ADD SLT ISZERO PUSH2 0x2E JUMPI DUP2 MLOAD PUSH2 0x10D SWAP3 PUSH1 0x20 ADD PUSH2 0xC4 JUMP JUMPDEST SWAP1 JUMP JUMPDEST SWAP2 SWAP1 PUSH1 0xA0 DUP4 DUP3 SUB SLT PUSH2 0x2E JUMPI DUP3 MLOAD PUSH1 0x1 PUSH1 0x1 PUSH1 0x40 SHL SUB DUP2 GT PUSH2 0x2E JUMPI DUP2 PUSH2 0x138 SWAP2 DUP6 ADD PUSH2 0xF3 JUMP JUMPDEST PUSH1 0x20 DUP5 ADD MLOAD SWAP1 SWAP4 SWAP1 PUSH1 0x1 PUSH1 0x1 PUSH1 0x40 SHL SUB DUP2 GT PUSH2 0x2E JUMPI DUP3 PUSH2 0x15A SWAP2 DUP4 ADD PUSH2 0xF3 JUMP JUMPDEST PUSH1 0x40 DUP3 ADD MLOAD PUSH1 0x60 DUP4 ADD MLOAD PUSH1 0x80 SWAP1 SWAP4 ADD MLOAD SWAP2 SWAP5 SWAP1 SWAP4 POP JUMP JUMPDEST PUSH2 0x18F PUSH2 0x34DB DUP1 CODESIZE SUB DUP1 PUSH2 0x184 DUP2 PUSH2 0x6F JUMP JUMPDEST SWAP3 DUP4 CODECOPY DUP2 ADD SWAP1 PUSH2 0x110 JUMP JUMPDEST SWAP1 SWAP2 SWAP3 SWAP4 SWAP5 JUMP JUMPDEST PUSH2 0x83 SWAP5 DUP6 SWAP5 DUP6 SWAP5 CALLER SWAP3 SWAP2 SWAP1 PUSH2 0x237 JUMP JUMPDEST SWAP1 PUSH1 0x0 NOT SWAP1 JUMPDEST SWAP2 DUP2 NOT AND SWAP2 AND OR SWAP1 JUMP JUMPDEST PUSH2 0x10D PUSH2 0x10D PUSH2 0x10D SWAP3 SWAP1 JUMP JUMPDEST SWAP1 PUSH2 0x1D4 PUSH2 0x10D PUSH2 0x1DB SWAP3 PUSH2 0x1B7 JUMP JUMPDEST DUP3 SLOAD PUSH2 0x1A7 JUMP JUMPDEST SWAP1 SSTORE JUMP JUMPDEST SWAP1 PUSH1 0x1 PUSH1 0x1 PUSH1 0xA0 SHL SUB SWAP1 PUSH2 0x1AD JUMP JUMPDEST PUSH2 0x10D SWAP1 PUSH2 0x202 SWAP1 PUSH1 0x1 PUSH1 0x1 PUSH1 0xA0 SHL SUB AND DUP3 JUMP JUMPDEST PUSH1 0x1 PUSH1 0x1 PUSH1 0xA0 SHL SUB AND SWAP1 JUMP JUMPDEST PUSH2 0x10D SWAP1 PUSH2 0x1EE JUMP JUMPDEST PUSH2 0x10D SWAP1 PUSH2 0x20E JUMP JUMPDEST SWAP1 PUSH2 0x230 PUSH2 0x10D PUSH2 0x1DB SWAP3 PUSH2 0x217 JUMP JUMPDEST DUP3 SLOAD PUSH2 0x1DF JUMP JUMPDEST PUSH2 0x24D PUSH2 0x262 SWAP7 PUSH2 0x254 SWAP4 SWAP5 SWAP7 PUSH2 0x25B SWAP7 PUSH2 0x26D JUMP JUMPDEST PUSH1 0xB PUSH2 0x1C4 JUMP JUMPDEST PUSH1 0xC PUSH2 0x1C4 JUMP JUMPDEST PUSH1 0xD PUSH2 0x1C4 JUMP JUMPDEST PUSH2 0x83 CALLER PUSH1 0xE PUSH2 0x220 JUMP JUMPDEST SWAP1 PUSH2 0x83 SWAP3 SWAP2 PUSH2 0x2AB JUMP JUMPDEST PUSH2 0x202 PUSH2 0x10D PUSH2 0x10D SWAP3 SWAP1 JUMP JUMPDEST PUSH2 0x10D SWAP1 PUSH2 0x278 JUMP JUMPDEST PUSH2 0x297 SWAP1 PUSH2 0x202 JUMP JUMPDEST SWAP1 MSTORE JUMP JUMPDEST PUSH1 0x20 DUP2 ADD SWAP3 SWAP2 PUSH2 0x83 SWAP2 SWAP1 PUSH2 0x28E JUMP JUMPDEST SWAP2 PUSH2 0x2B5 SWAP2 PUSH2 0x2FF JUMP JUMPDEST PUSH1 0x0 PUSH2 0x2C0 DUP2 PUSH2 0x285 JUMP JUMPDEST PUSH2 0x2C9 DUP2 PUSH2 0x202 JUMP JUMPDEST PUSH2 0x2D2 DUP5 PUSH2 0x202 JUMP JUMPDEST EQ PUSH2 0x2E2 JUMPI POP POP PUSH2 0x83 SWAP1 PUSH2 0x4F8 JUMP JUMPDEST PUSH4 0x1E4FBDF7 PUSH1 0xE0 SHL DUP3 MSTORE DUP2 SWAP1 PUSH2 0x2FB SWAP1 PUSH1 0x4 DUP4 ADD PUSH2 0x29B JUMP JUMPDEST SUB SWAP1 REVERT JUMPDEST PUSH2 0x83 SWAP2 DUP3 SWAP2 DUP3 SWAP2 DUP3 SWAP2 PUSH2 0x4CF JUMP JUMPDEST PUSH4 0x4E487B71 PUSH1 0xE0 SHL PUSH1 0x0 MSTORE PUSH1 0x22 PUSH1 0x4 MSTORE PUSH1 0x24 PUSH1 0x0 REVERT JUMPDEST SWAP1 PUSH1 0x1 PUSH1 0x2 DUP4 DIV SWAP3 AND DUP1 ISZERO PUSH2 0x344 JUMPI JUMPDEST PUSH1 0x20 DUP4 LT EQ PUSH2 0x33F JUMPI JUMP JUMPDEST PUSH2 0x30E JUMP JUMPDEST SWAP2 PUSH1 0x7F AND SWAP2 PUSH2 0x334 JUMP JUMPDEST SWAP2 PUSH1 0x0 NOT PUSH1 0x8 SWAP3 SWAP1 SWAP3 MUL SWAP2 DUP3 SHL SWAP2 SHL PUSH2 0x1AD JUMP JUMPDEST SWAP2 SWAP1 PUSH2 0x373 PUSH2 0x10D PUSH2 0x1DB SWAP4 PUSH2 0x1B7 JUMP JUMPDEST SWAP1 DUP4 SLOAD PUSH2 0x34E JUMP JUMPDEST PUSH2 0x83 SWAP2 PUSH1 0x0 SWAP2 PUSH2 0x362 JUMP JUMPDEST DUP2 DUP2 LT PUSH2 0x392 JUMPI POP POP JUMP JUMPDEST DUP1 PUSH2 0x3A0 PUSH1 0x0 PUSH1 0x1 SWAP4 PUSH2 0x37B JUMP JUMPDEST ADD PUSH2 0x387 JUMP JUMPDEST SWAP2 SWAP1 PUSH1 0x1F DUP2 GT PUSH2 0x3B5 JUMPI POP POP POP JUMP JUMPDEST PUSH2 0x3C7 PUSH2 0x83 SWAP4 PUSH1 0x0 MSTORE PUSH1 0x20 PUSH1 0x0 KECCAK256 SWAP1 JUMP JUMPDEST SWAP1 PUSH1 0x20 PUSH1 0x1F DUP5 ADD DUP2 SWAP1 DIV DUP4 ADD SWAP4 LT PUSH2 0x3E9 JUMPI JUMPDEST PUSH1 0x20 PUSH1 0x1F SWAP1 SWAP2 ADD DIV ADD SWAP1 PUSH2 0x387 JUMP JUMPDEST SWAP1 SWAP2 POP DUP2 SWAP1 PUSH2 0x3DA JUMP JUMPDEST SWAP1 PUSH2 0x3FC DUP2 MLOAD SWAP1 JUMP JUMPDEST SWAP1 PUSH1 0x1 PUSH1 0x1 PUSH1 0x40 SHL SUB DUP3 GT PUSH2 0x6A JUMPI PUSH2 0x41F DUP3 PUSH2 0x419 DUP6 SLOAD PUSH2 0x324 JUMP JUMPDEST DUP6 PUSH2 0x3A6 JUMP JUMPDEST PUSH1 0x20 SWAP1 PUSH1 0x1F DUP4 GT PUSH1 0x1 EQ PUSH2 0x45A JUMPI PUSH2 0x1DB SWAP3 SWAP2 PUSH1 0x0 SWAP2 DUP4 PUSH2 0x44F JUMPI JUMPDEST POP POP PUSH1 0x0 NOT PUSH1 0x8 DUP4 MUL SHR NOT AND SWAP1 PUSH1 0x2 MUL OR SWAP1 JUMP JUMPDEST ADD MLOAD SWAP1 POP CODESIZE DUP1 PUSH2 0x43B JUMP JUMPDEST PUSH1 0x1F NOT DUP4 AND SWAP2 PUSH2 0x46F DUP6 PUSH1 0x0 MSTORE PUSH1 0x20 PUSH1 0x0 KECCAK256 SWAP1 JUMP JUMPDEST SWAP3 PUSH1 0x0 JUMPDEST DUP2 DUP2 LT PUSH2 0x4AD JUMPI POP SWAP2 PUSH1 0x2 SWAP4 SWAP2 DUP6 PUSH1 0x1 SWAP7 SWAP5 LT PUSH2 0x494 JUMPI JUMPDEST POP POP POP MUL ADD SWAP1 SSTORE JUMP JUMPDEST ADD MLOAD PUSH1 0x0 NOT PUSH1 0x8 PUSH1 0x1F DUP6 AND MUL SHR NOT AND SWAP1 SSTORE CODESIZE DUP1 DUP1 PUSH2 0x48B JUMP JUMPDEST SWAP2 SWAP4 PUSH1 0x20 PUSH1 0x1 DUP2 SWAP3 DUP8 DUP8 ADD MLOAD DUP2 SSTORE ADD SWAP6 ADD SWAP3 ADD PUSH2 0x473 JUMP JUMPDEST SWAP1 PUSH2 0x83 SWAP2 PUSH2 0x3F3 JUMP JUMPDEST SWAP1 PUSH2 0x4DE PUSH2 0x83 SWAP3 PUSH1 0x0 PUSH2 0x4C5 JUMP JUMPDEST PUSH1 0x1 PUSH2 0x4C5 JUMP JUMPDEST PUSH2 0x10D SWAP1 PUSH2 0x202 JUMP JUMPDEST PUSH2 0x10D SWAP1 SLOAD PUSH2 0x4E5 JUMP JUMPDEST PUSH2 0x51E PUSH2 0x518 PUSH2 0x508 PUSH1 0xA PUSH2 0x4EE JUMP JUMPDEST PUSH2 0x513 DUP5 PUSH1 0xA PUSH2 0x220 JUMP JUMPDEST PUSH2 0x217 JUMP JUMPDEST SWAP2 PUSH2 0x217 JUMP JUMPDEST SWAP1 PUSH32 0x8BE0079C531659141344CD1FD0A4F28419497F9722A3DAAFE3B4186F6B6457E0 PUSH2 0x549 PUSH1 0x40 MLOAD SWAP1 JUMP JUMPDEST PUSH1 0x0 SWAP1 LOG3 JUMP INVALID PUSH1 0x80 PUSH1 0x40 MSTORE PUSH1 0x4 CALLDATASIZE LT ISZERO PUSH2 0x12 JUMPI PUSH1 0x0 DUP1 REVERT JUMPDEST PUSH1 0x0 CALLDATALOAD PUSH1 0xE0 SHR DUP1 PUSH4 0x18A25E8 EQ PUSH2 0x2D2 JUMPI DUP1 PUSH4 0x1FFC9A7 EQ PUSH2 0x2CD JUMPI DUP1 PUSH4 0x2D05D3F EQ PUSH2 0x2C8 JUMPI DUP1 PUSH4 0x583E9F8 EQ PUSH2 0x2C3 JUMPI DUP1 PUSH4 0x6FDDE03 EQ PUSH2 0x2BE JUMPI DUP1 PUSH4 0x81812FC EQ PUSH2 0x2B9 JUMPI DUP1 PUSH4 0x95EA7B3 EQ PUSH2 0x2B4 JUMPI DUP1 PUSH4 0x1249C58B EQ PUSH2 0x2AF JUMPI DUP1 PUSH4 0x12EA5C7E EQ PUSH2 0x2AA JUMPI DUP1 PUSH4 0x150B7A02 EQ PUSH2 0x2A5 JUMPI DUP1 PUSH4 0x18160DDD EQ PUSH2 0x2A0 JUMPI DUP1 PUSH4 0x1D0806AE EQ PUSH2 0x29B JUMPI DUP1 PUSH4 0x21A1C184 EQ PUSH2 0x296 JUMPI DUP1 PUSH4 0x23B872DD EQ PUSH2 0x291 JUMPI DUP1 PUSH4 0x2DCD52F2 EQ PUSH2 0x28C JUMPI DUP1 PUSH4 0x2F745C59 EQ PUSH2 0x287 JUMPI DUP1 PUSH4 0x3F516018 EQ PUSH2 0x282 JUMPI DUP1 PUSH4 0x42842E0E EQ PUSH2 0x27D JUMPI DUP1 PUSH4 0x43D32E9C EQ PUSH2 0x278 JUMPI DUP1 PUSH4 0x4A8FE650 EQ PUSH2 0x273 JUMPI DUP1 PUSH4 0x4F6CCCE7 EQ PUSH2 0x26E JUMPI DUP1 PUSH4 0x53613DD3 EQ PUSH2 0x269 JUMPI DUP1 PUSH4 0x55F804B3 EQ PUSH2 0x264 JUMPI DUP1 PUSH4 0x5EBA096B EQ PUSH2 0x25F JUMPI DUP1 PUSH4 0x6352211E EQ PUSH2 0x25A JUMPI DUP1 PUSH4 0x6C0360EB EQ PUSH2 0x255 JUMPI DUP1 PUSH4 0x70A08231 EQ PUSH2 0x250 JUMPI DUP1 PUSH4 0x715018A6 EQ PUSH2 0x24B JUMPI DUP1 PUSH4 0x771282F6 EQ PUSH2 0x246 JUMPI DUP1 PUSH4 0x8DA5CB5B EQ PUSH2 0x241 JUMPI DUP1 PUSH4 0x95D89B41 EQ PUSH2 0x23C JUMPI DUP1 PUSH4 0xA22CB465 EQ PUSH2 0x237 JUMPI DUP1 PUSH4 0xAD64D068 EQ PUSH2 0x232 JUMPI DUP1 PUSH4 0xAE104265 EQ PUSH2 0x22D JUMPI DUP1 PUSH4 0xB88D4FDE EQ PUSH2 0x228 JUMPI DUP1 PUSH4 0xC87B56DD EQ PUSH2 0x223 JUMPI DUP1 PUSH4 0xCF6A68BF EQ PUSH2 0x21E JUMPI DUP1 PUSH4 0xD5ABEB01 EQ PUSH2 0x219 JUMPI DUP1 PUSH4 0xD96A094A EQ PUSH2 0x214 JUMPI DUP1 PUSH4 0xE4849B32 EQ PUSH2 0x20F JUMPI DUP1 PUSH4 0xE8A3D485 EQ PUSH2 0x20A JUMPI DUP1 PUSH4 0xE985E9C5 EQ PUSH2 0x205 JUMPI DUP1 PUSH4 0xF0F2805F EQ PUSH2 0x200 JUMPI PUSH4 0xF2FDE38B SUB PUSH2 0x2E2 JUMPI PUSH2 0xD6A JUMP JUMPDEST PUSH2 0xD4F JUMP JUMPDEST PUSH2 0xD33 JUMP JUMPDEST PUSH2 0xCF5 JUMP JUMPDEST PUSH2 0xCDD JUMP JUMPDEST PUSH2 0xCCA JUMP JUMPDEST PUSH2 0xCAF JUMP JUMPDEST PUSH2 0xC88 JUMP JUMPDEST PUSH2 0xC6D JUMP JUMPDEST PUSH2 0xC51 JUMP JUMPDEST PUSH2 0xC36 JUMP JUMPDEST PUSH2 0xC1B JUMP JUMPDEST PUSH2 0xBA6 JUMP JUMPDEST PUSH2 0xB53 JUMP JUMPDEST PUSH2 0xB38 JUMP JUMPDEST PUSH2 0xB1D JUMP JUMPDEST PUSH2 0xAF9 JUMP JUMPDEST PUSH2 0xADE JUMP JUMPDEST PUSH2 0xAC3 JUMP JUMPDEST PUSH2 0x981 JUMP JUMPDEST PUSH2 0x965 JUMP JUMPDEST PUSH2 0x931 JUMP JUMPDEST PUSH2 0x8F0 JUMP JUMPDEST PUSH2 0x8C9 JUMP JUMPDEST PUSH2 0x8AE JUMP JUMPDEST PUSH2 0x893 JUMP JUMPDEST PUSH2 0x87A JUMP JUMPDEST PUSH2 0x862 JUMP JUMPDEST PUSH2 0x832 JUMP JUMPDEST PUSH2 0x816 JUMP JUMPDEST PUSH2 0x7FD JUMP JUMPDEST PUSH2 0x7B9 JUMP JUMPDEST PUSH2 0x79E JUMP JUMPDEST PUSH2 0x776 JUMP JUMPDEST PUSH2 0x73C JUMP JUMPDEST PUSH2 0x601 JUMP JUMPDEST PUSH2 0x584 JUMP JUMPDEST PUSH2 0x566 JUMP JUMPDEST PUSH2 0x512 JUMP JUMPDEST PUSH2 0x4EB JUMP JUMPDEST PUSH2 0x464 JUMP JUMPDEST PUSH2 0x3C6 JUMP JUMPDEST PUSH2 0x353 JUMP JUMPDEST PUSH2 0x2ED JUMP JUMPDEST PUSH1 0x0 SWAP2 SUB SLT PUSH2 0x2E2 JUMPI JUMP JUMPDEST PUSH1 0x0 DUP1 REVERT JUMPDEST SWAP1 MSTORE JUMP JUMPDEST JUMP JUMPDEST CALLVALUE PUSH2 0x2E2 JUMPI PUSH2 0x2FD CALLDATASIZE PUSH1 0x4 PUSH2 0x2D7 JUMP JUMPDEST PUSH2 0x318 PUSH2 0x308 PUSH2 0xD93 JUMP JUMPDEST PUSH1 0x40 MLOAD SWAP2 DUP3 SWAP2 DUP3 SWAP1 DUP2 MSTORE PUSH1 0x20 ADD SWAP1 JUMP JUMPDEST SUB SWAP1 RETURN JUMPDEST PUSH1 0x1 PUSH1 0x1 PUSH1 0xE0 SHL SUB NOT DUP2 AND JUMPDEST SUB PUSH2 0x2E2 JUMPI JUMP JUMPDEST SWAP1 POP CALLDATALOAD SWAP1 PUSH2 0x2EB DUP3 PUSH2 0x31C JUMP JUMPDEST SWAP1 PUSH1 0x20 DUP3 DUP3 SUB SLT PUSH2 0x2E2 JUMPI PUSH2 0x350 SWAP2 PUSH2 0x32F JUMP JUMPDEST SWAP1 JUMP JUMPDEST CALLVALUE PUSH2 0x2E2 JUMPI PUSH2 0x318 PUSH2 0x36E PUSH2 0x369 CALLDATASIZE PUSH1 0x4 PUSH2 0x33C JUMP JUMPDEST PUSH2 0xDA0 JUMP JUMPDEST PUSH1 0x40 MLOAD JUMPDEST SWAP2 DUP3 SWAP2 DUP3 SWAP1 ISZERO ISZERO DUP2 MSTORE PUSH1 0x20 ADD SWAP1 JUMP JUMPDEST PUSH2 0x350 SWAP2 PUSH1 0x8 MUL SHR JUMPDEST PUSH1 0x1 PUSH1 0x1 PUSH1 0xA0 SHL SUB AND SWAP1 JUMP JUMPDEST SWAP1 PUSH2 0x350 SWAP2 SLOAD PUSH2 0x381 JUMP JUMPDEST PUSH2 0x350 PUSH1 0x0 PUSH1 0xE PUSH2 0x396 JUMP JUMPDEST PUSH2 0x2E7 SWAP1 PUSH2 0x38A JUMP JUMPDEST PUSH1 0x20 DUP2 ADD SWAP3 SWAP2 PUSH2 0x2EB SWAP2 SWAP1 PUSH2 0x3AD JUMP JUMPDEST CALLVALUE PUSH2 0x2E2 JUMPI PUSH2 0x3D6 CALLDATASIZE PUSH1 0x4 PUSH2 0x2D7 JUMP JUMPDEST PUSH2 0x318 PUSH2 0x3E1 PUSH2 0x3A1 JUMP JUMPDEST PUSH1 0x40 MLOAD SWAP2 DUP3 SWAP2 DUP3 PUSH2 0x3B6 JUMP JUMPDEST DUP1 PUSH2 0x328 JUMP JUMPDEST SWAP1 POP CALLDATALOAD SWAP1 PUSH2 0x2EB DUP3 PUSH2 0x3ED JUMP JUMPDEST SWAP1 PUSH1 0x20 DUP3 DUP3 SUB SLT PUSH2 0x2E2 JUMPI PUSH2 0x350 SWAP2 PUSH2 0x3F3 JUMP JUMPDEST PUSH2 0x350 PUSH2 0x350 PUSH2 0x350 SWAP3 SWAP1 JUMP JUMPDEST SWAP1 PUSH2 0x42B SWAP1 PUSH2 0x414 JUMP JUMPDEST PUSH1 0x0 MSTORE PUSH1 0x20 MSTORE PUSH1 0x40 PUSH1 0x0 KECCAK256 SWAP1 JUMP JUMPDEST PUSH2 0x350 SWAP2 PUSH1 0x8 MUL SHR DUP2 JUMP JUMPDEST SWAP1 PUSH2 0x350 SWAP2 SLOAD PUSH2 0x439 JUMP JUMPDEST PUSH1 0x0 PUSH2 0x45F PUSH2 0x350 SWAP3 PUSH1 0x11 PUSH2 0x421 JUMP JUMPDEST PUSH2 0x444 JUMP JUMPDEST CALLVALUE PUSH2 0x2E2 JUMPI PUSH2 0x318 PUSH2 0x308 PUSH2 0x47A CALLDATASIZE PUSH1 0x4 PUSH2 0x400 JUMP JUMPDEST PUSH2 0x44F JUMP JUMPDEST PUSH1 0x0 JUMPDEST DUP4 DUP2 LT PUSH2 0x492 JUMPI POP POP PUSH1 0x0 SWAP2 ADD MSTORE JUMP JUMPDEST DUP2 DUP2 ADD MLOAD DUP4 DUP3 ADD MSTORE PUSH1 0x20 ADD PUSH2 0x482 JUMP JUMPDEST PUSH2 0x4C3 PUSH2 0x4CC PUSH1 0x20 SWAP4 PUSH2 0x4D6 SWAP4 PUSH2 0x4B7 DUP2 MLOAD SWAP1 JUMP JUMPDEST DUP1 DUP4 MSTORE SWAP4 DUP5 SWAP3 PUSH1 0x20 ADD SWAP1 JUMP JUMPDEST SWAP6 DUP7 SWAP2 ADD PUSH2 0x47F JUMP JUMPDEST PUSH1 0x1F ADD PUSH1 0x1F NOT AND SWAP1 JUMP JUMPDEST ADD SWAP1 JUMP JUMPDEST PUSH1 0x20 DUP1 DUP3 MSTORE PUSH2 0x350 SWAP3 SWAP2 ADD SWAP1 PUSH2 0x4A2 JUMP JUMPDEST CALLVALUE PUSH2 0x2E2 JUMPI PUSH2 0x4FB CALLDATASIZE PUSH1 0x4 PUSH2 0x2D7 JUMP JUMPDEST PUSH2 0x318 PUSH2 0x506 PUSH2 0xDDD JUMP JUMPDEST PUSH1 0x40 MLOAD SWAP2 DUP3 SWAP2 DUP3 PUSH2 0x4DA JUMP JUMPDEST CALLVALUE PUSH2 0x2E2 JUMPI PUSH2 0x318 PUSH2 0x3E1 PUSH2 0x528 CALLDATASIZE PUSH1 0x4 PUSH2 0x400 JUMP JUMPDEST PUSH2 0xDE7 JUMP JUMPDEST PUSH2 0x328 DUP2 PUSH2 0x38A JUMP JUMPDEST SWAP1 POP CALLDATALOAD SWAP1 PUSH2 0x2EB DUP3 PUSH2 0x52D JUMP JUMPDEST SWAP2 SWAP1 PUSH1 0x40 DUP4 DUP3 SUB SLT PUSH2 0x2E2 JUMPI PUSH2 0x350 SWAP1 PUSH1 0x20 PUSH2 0x55F DUP3 DUP7 PUSH2 0x536 JUMP JUMPDEST SWAP5 ADD PUSH2 0x3F3 JUMP JUMPDEST CALLVALUE PUSH2 0x2E2 JUMPI PUSH2 0x57F PUSH2 0x579 CALLDATASIZE PUSH1 0x4 PUSH2 0x543 JUMP JUMPDEST SWAP1 PUSH2 0xDFA JUMP JUMPDEST PUSH1 0x40 MLOAD STOP JUMPDEST PUSH2 0x58F CALLDATASIZE PUSH1 0x4 PUSH2 0x2D7 JUMP JUMPDEST PUSH2 0x318 PUSH2 0x308 PUSH2 0xFF2 JUMP JUMPDEST SWAP1 PUSH2 0x5BA PUSH2 0x5B3 PUSH2 0x5A9 DUP5 MLOAD SWAP1 JUMP JUMPDEST DUP1 DUP5 MSTORE SWAP3 PUSH1 0x20 ADD SWAP1 JUMP JUMPDEST SWAP3 PUSH1 0x20 ADD SWAP1 JUMP JUMPDEST SWAP1 PUSH1 0x0 JUMPDEST DUP2 DUP2 LT PUSH2 0x5CB JUMPI POP POP POP SWAP1 JUMP JUMPDEST SWAP1 SWAP2 SWAP3 PUSH2 0x5E8 PUSH2 0x5E1 PUSH1 0x1 SWAP3 DUP7 MLOAD DUP2 MSTORE PUSH1 0x20 ADD SWAP1 JUMP JUMPDEST SWAP5 PUSH1 0x20 ADD SWAP1 JUMP JUMPDEST SWAP3 SWAP2 ADD PUSH2 0x5BE JUMP JUMPDEST PUSH1 0x20 DUP1 DUP3 MSTORE PUSH2 0x350 SWAP3 SWAP2 ADD SWAP1 PUSH2 0x59A JUMP JUMPDEST CALLVALUE PUSH2 0x2E2 JUMPI PUSH2 0x611 CALLDATASIZE PUSH1 0x4 PUSH2 0x2D7 JUMP JUMPDEST PUSH2 0x318 PUSH2 0x61C PUSH2 0x11AD JUMP JUMPDEST PUSH1 0x40 MLOAD SWAP2 DUP3 SWAP2 DUP3 PUSH2 0x5F0 JUMP JUMPDEST PUSH4 0x4E487B71 PUSH1 0xE0 SHL PUSH1 0x0 MSTORE PUSH1 0x41 PUSH1 0x4 MSTORE PUSH1 0x24 PUSH1 0x0 REVERT JUMPDEST SWAP1 PUSH1 0x1F ADD PUSH1 0x1F NOT AND DUP2 ADD SWAP1 DUP2 LT PUSH8 0xFFFFFFFFFFFFFFFF DUP3 GT OR PUSH2 0x660 JUMPI PUSH1 0x40 MSTORE JUMP JUMPDEST PUSH2 0x628 JUMP JUMPDEST SWAP1 PUSH2 0x2EB PUSH2 0x672 PUSH1 0x40 MLOAD SWAP1 JUMP JUMPDEST SWAP3 DUP4 PUSH2 0x63E JUMP JUMPDEST PUSH8 0xFFFFFFFFFFFFFFFF DUP2 GT PUSH2 0x660 JUMPI PUSH1 0x20 SWAP1 PUSH1 0x1F ADD PUSH1 0x1F NOT AND ADD SWAP1 JUMP JUMPDEST SWAP1 DUP3 PUSH1 0x0 SWAP4 SWAP3 DUP3 CALLDATACOPY ADD MSTORE JUMP JUMPDEST SWAP1 SWAP3 SWAP2 SWAP3 PUSH2 0x6B7 PUSH2 0x6B2 DUP3 PUSH2 0x679 JUMP JUMPDEST PUSH2 0x665 JUMP JUMPDEST SWAP4 DUP2 DUP6 MSTORE DUP2 DUP4 ADD GT PUSH2 0x2E2 JUMPI PUSH2 0x2EB SWAP2 PUSH1 0x20 DUP6 ADD SWAP1 PUSH2 0x696 JUMP JUMPDEST SWAP1 DUP1 PUSH1 0x1F DUP4 ADD SLT ISZERO PUSH2 0x2E2 JUMPI DUP2 PUSH1 0x20 PUSH2 0x350 SWAP4 CALLDATALOAD SWAP2 ADD PUSH2 0x6A2 JUMP JUMPDEST SWAP1 PUSH1 0x80 DUP3 DUP3 SUB SLT PUSH2 0x2E2 JUMPI PUSH2 0x701 DUP2 DUP4 PUSH2 0x536 JUMP JUMPDEST SWAP3 PUSH2 0x70F DUP3 PUSH1 0x20 DUP6 ADD PUSH2 0x536 JUMP JUMPDEST SWAP3 PUSH2 0x71D DUP4 PUSH1 0x40 DUP4 ADD PUSH2 0x3F3 JUMP JUMPDEST SWAP3 PUSH1 0x60 DUP3 ADD CALLDATALOAD PUSH8 0xFFFFFFFFFFFFFFFF DUP2 GT PUSH2 0x2E2 JUMPI PUSH2 0x350 SWAP3 ADD PUSH2 0x6D1 JUMP JUMPDEST CALLVALUE PUSH2 0x2E2 JUMPI PUSH2 0x318 PUSH2 0x75B PUSH2 0x752 CALLDATASIZE PUSH1 0x4 PUSH2 0x6EC JUMP JUMPDEST SWAP3 SWAP2 SWAP1 SWAP2 PUSH2 0x11DD JUMP JUMPDEST PUSH1 0x40 MLOAD SWAP2 DUP3 SWAP2 DUP3 PUSH1 0x1 PUSH1 0x1 PUSH1 0xE0 SHL SUB NOT SWAP1 SWAP2 AND DUP2 MSTORE PUSH1 0x20 ADD SWAP1 JUMP JUMPDEST CALLVALUE PUSH2 0x2E2 JUMPI PUSH2 0x786 CALLDATASIZE PUSH1 0x4 PUSH2 0x2D7 JUMP JUMPDEST PUSH2 0x318 PUSH2 0x308 PUSH1 0x8 SLOAD SWAP1 JUMP JUMPDEST PUSH2 0x350 PUSH1 0x0 PUSH1 0xB PUSH2 0x444 JUMP JUMPDEST CALLVALUE PUSH2 0x2E2 JUMPI PUSH2 0x7AE CALLDATASIZE PUSH1 0x4 PUSH2 0x2D7 JUMP JUMPDEST PUSH2 0x318 PUSH2 0x308 PUSH2 0x792 JUMP JUMPDEST CALLVALUE PUSH2 0x2E2 JUMPI PUSH2 0x7C9 CALLDATASIZE PUSH1 0x4 PUSH2 0x2D7 JUMP JUMPDEST PUSH2 0x318 PUSH2 0x308 PUSH2 0x1204 JUMP JUMPDEST SWAP1 SWAP2 PUSH1 0x60 DUP3 DUP5 SUB SLT PUSH2 0x2E2 JUMPI PUSH2 0x350 PUSH2 0x7ED DUP5 DUP5 PUSH2 0x536 JUMP JUMPDEST SWAP4 PUSH1 0x40 PUSH2 0x55F DUP3 PUSH1 0x20 DUP8 ADD PUSH2 0x536 JUMP JUMPDEST CALLVALUE PUSH2 0x2E2 JUMPI PUSH2 0x57F PUSH2 0x810 CALLDATASIZE PUSH1 0x4 PUSH2 0x7D4 JUMP JUMPDEST SWAP2 PUSH2 0x126F JUMP JUMPDEST CALLVALUE PUSH2 0x2E2 JUMPI PUSH2 0x826 CALLDATASIZE PUSH1 0x4 PUSH2 0x2D7 JUMP JUMPDEST PUSH2 0x318 PUSH2 0x308 PUSH1 0x10 SLOAD SWAP1 JUMP JUMPDEST CALLVALUE PUSH2 0x2E2 JUMPI PUSH2 0x318 PUSH2 0x308 PUSH2 0x848 CALLDATASIZE PUSH1 0x4 PUSH2 0x543 JUMP JUMPDEST SWAP1 PUSH2 0x1318 JUMP JUMPDEST SWAP1 PUSH1 0x20 DUP3 DUP3 SUB SLT PUSH2 0x2E2 JUMPI PUSH2 0x350 SWAP2 PUSH2 0x536 JUMP JUMPDEST CALLVALUE PUSH2 0x2E2 JUMPI PUSH2 0x57F PUSH2 0x875 CALLDATASIZE PUSH1 0x4 PUSH2 0x84E JUMP JUMPDEST PUSH2 0x141B JUMP JUMPDEST CALLVALUE PUSH2 0x2E2 JUMPI PUSH2 0x57F PUSH2 0x88D CALLDATASIZE PUSH1 0x4 PUSH2 0x7D4 JUMP JUMPDEST SWAP2 PUSH2 0x1436 JUMP JUMPDEST CALLVALUE PUSH2 0x2E2 JUMPI PUSH2 0x8A3 CALLDATASIZE PUSH1 0x4 PUSH2 0x2D7 JUMP JUMPDEST PUSH2 0x318 PUSH2 0x308 PUSH2 0x144A JUMP JUMPDEST CALLVALUE PUSH2 0x2E2 JUMPI PUSH2 0x8BE CALLDATASIZE PUSH1 0x4 PUSH2 0x2D7 JUMP JUMPDEST PUSH2 0x318 PUSH2 0x308 PUSH2 0x148E JUMP JUMPDEST CALLVALUE PUSH2 0x2E2 JUMPI PUSH2 0x318 PUSH2 0x308 PUSH2 0x8DF CALLDATASIZE PUSH1 0x4 PUSH2 0x400 JUMP JUMPDEST PUSH2 0x14A9 JUMP JUMPDEST PUSH2 0x350 PUSH1 0x0 PUSH1 0xD PUSH2 0x444 JUMP JUMPDEST CALLVALUE PUSH2 0x2E2 JUMPI PUSH2 0x900 CALLDATASIZE PUSH1 0x4 PUSH2 0x2D7 JUMP JUMPDEST PUSH2 0x318 PUSH2 0x308 PUSH2 0x8E4 JUMP JUMPDEST SWAP1 PUSH1 0x20 DUP3 DUP3 SUB SLT PUSH2 0x2E2 JUMPI DUP2 CALLDATALOAD PUSH8 0xFFFFFFFFFFFFFFFF DUP2 GT PUSH2 0x2E2 JUMPI PUSH2 0x350 SWAP3 ADD PUSH2 0x6D1 JUMP JUMPDEST CALLVALUE PUSH2 0x2E2 JUMPI PUSH2 0x57F PUSH2 0x944 CALLDATASIZE PUSH1 0x4 PUSH2 0x90B JUMP JUMPDEST PUSH2 0x1695 JUMP JUMPDEST SWAP2 SWAP1 PUSH1 0x40 DUP4 DUP3 SUB SLT PUSH2 0x2E2 JUMPI PUSH2 0x350 SWAP1 PUSH1 0x20 PUSH2 0x55F DUP3 DUP7 PUSH2 0x3F3 JUMP JUMPDEST CALLVALUE PUSH2 0x2E2 JUMPI PUSH2 0x318 PUSH2 0x61C PUSH2 0x97B CALLDATASIZE PUSH1 0x4 PUSH2 0x949 JUMP JUMPDEST SWAP1 PUSH2 0x1751 JUMP JUMPDEST CALLVALUE PUSH2 0x2E2 JUMPI PUSH2 0x318 PUSH2 0x3E1 PUSH2 0x997 CALLDATASIZE PUSH1 0x4 PUSH2 0x400 JUMP JUMPDEST PUSH2 0x17E0 JUMP JUMPDEST PUSH4 0x4E487B71 PUSH1 0xE0 SHL PUSH1 0x0 MSTORE PUSH1 0x0 PUSH1 0x4 MSTORE PUSH1 0x24 PUSH1 0x0 REVERT JUMPDEST PUSH4 0x4E487B71 PUSH1 0xE0 SHL PUSH1 0x0 MSTORE PUSH1 0x22 PUSH1 0x4 MSTORE PUSH1 0x24 PUSH1 0x0 REVERT JUMPDEST SWAP1 PUSH1 0x1 PUSH1 0x2 DUP4 DIV SWAP3 AND DUP1 ISZERO PUSH2 0x9E8 JUMPI JUMPDEST PUSH1 0x20 DUP4 LT EQ PUSH2 0x9E3 JUMPI JUMP JUMPDEST PUSH2 0x9B2 JUMP JUMPDEST SWAP2 PUSH1 0x7F AND SWAP2 PUSH2 0x9D8 JUMP JUMPDEST DUP1 SLOAD PUSH1 0x0 SWAP4 SWAP3 SWAP2 PUSH2 0xA0F PUSH2 0xA05 DUP4 PUSH2 0x9C8 JUMP JUMPDEST DUP1 DUP6 MSTORE SWAP4 PUSH1 0x20 ADD SWAP1 JUMP JUMPDEST SWAP2 PUSH1 0x1 DUP2 AND SWAP1 DUP2 ISZERO PUSH2 0xA61 JUMPI POP PUSH1 0x1 EQ PUSH2 0xA28 JUMPI POP POP POP JUMP JUMPDEST PUSH2 0xA3B SWAP2 SWAP3 SWAP4 SWAP5 POP PUSH1 0x0 MSTORE PUSH1 0x20 PUSH1 0x0 KECCAK256 SWAP1 JUMP JUMPDEST SWAP2 PUSH1 0x0 SWAP3 JUMPDEST DUP2 DUP5 LT PUSH2 0xA4D JUMPI POP POP ADD SWAP1 JUMP JUMPDEST DUP1 SLOAD DUP5 DUP5 ADD MSTORE PUSH1 0x20 SWAP1 SWAP4 ADD SWAP3 PUSH1 0x1 ADD PUSH2 0xA40 JUMP JUMPDEST SWAP3 SWAP5 SWAP6 POP POP POP PUSH1 0xFF NOT AND DUP3 MSTORE ISZERO ISZERO PUSH1 0x20 MUL ADD SWAP1 JUMP JUMPDEST SWAP1 PUSH2 0x350 SWAP2 PUSH2 0x9F2 JUMP JUMPDEST SWAP1 PUSH2 0x2EB PUSH2 0xA9A SWAP3 PUSH2 0xA91 PUSH1 0x40 MLOAD SWAP1 JUMP JUMPDEST SWAP4 DUP5 DUP1 SWAP3 PUSH2 0xA76 JUMP JUMPDEST SUB DUP4 PUSH2 0x63E JUMP JUMPDEST SWAP1 PUSH1 0x0 LT PUSH2 0xAB2 JUMPI PUSH2 0x350 SWAP1 PUSH2 0xA80 JUMP JUMPDEST PUSH2 0x99C JUMP JUMPDEST PUSH2 0x350 PUSH1 0x0 PUSH1 0x12 PUSH2 0xAA1 JUMP JUMPDEST CALLVALUE PUSH2 0x2E2 JUMPI PUSH2 0xAD3 CALLDATASIZE PUSH1 0x4 PUSH2 0x2D7 JUMP JUMPDEST PUSH2 0x318 PUSH2 0x506 PUSH2 0xAB7 JUMP JUMPDEST CALLVALUE PUSH2 0x2E2 JUMPI PUSH2 0x318 PUSH2 0x308 PUSH2 0xAF4 CALLDATASIZE PUSH1 0x4 PUSH2 0x84E JUMP JUMPDEST PUSH2 0x17E9 JUMP JUMPDEST CALLVALUE PUSH2 0x2E2 JUMPI PUSH2 0xB09 CALLDATASIZE PUSH1 0x4 PUSH2 0x2D7 JUMP JUMPDEST PUSH2 0x57F PUSH2 0x1851 JUMP JUMPDEST PUSH2 0x350 PUSH1 0x0 PUSH1 0xF PUSH2 0x444 JUMP JUMPDEST CALLVALUE PUSH2 0x2E2 JUMPI PUSH2 0xB2D CALLDATASIZE PUSH1 0x4 PUSH2 0x2D7 JUMP JUMPDEST PUSH2 0x318 PUSH2 0x308 PUSH2 0xB11 JUMP JUMPDEST CALLVALUE PUSH2 0x2E2 JUMPI PUSH2 0xB48 CALLDATASIZE PUSH1 0x4 PUSH2 0x2D7 JUMP JUMPDEST PUSH2 0x318 PUSH2 0x3E1 PUSH2 0x1859 JUMP JUMPDEST CALLVALUE PUSH2 0x2E2 JUMPI PUSH2 0xB63 CALLDATASIZE PUSH1 0x4 PUSH2 0x2D7 JUMP JUMPDEST PUSH2 0x318 PUSH2 0x506 PUSH2 0x1863 JUMP JUMPDEST DUP1 ISZERO ISZERO PUSH2 0x328 JUMP JUMPDEST SWAP1 POP CALLDATALOAD SWAP1 PUSH2 0x2EB DUP3 PUSH2 0xB6E JUMP JUMPDEST SWAP2 SWAP1 PUSH1 0x40 DUP4 DUP3 SUB SLT PUSH2 0x2E2 JUMPI PUSH2 0x350 SWAP1 PUSH1 0x20 PUSH2 0xB9F DUP3 DUP7 PUSH2 0x536 JUMP JUMPDEST SWAP5 ADD PUSH2 0xB76 JUMP JUMPDEST CALLVALUE PUSH2 0x2E2 JUMPI PUSH2 0x57F PUSH2 0xBB9 CALLDATASIZE PUSH1 0x4 PUSH2 0xB83 JUMP JUMPDEST SWAP1 PUSH2 0x186D JUMP JUMPDEST PUSH4 0x4E487B71 PUSH1 0xE0 SHL PUSH1 0x0 MSTORE PUSH1 0x32 PUSH1 0x4 MSTORE PUSH1 0x24 PUSH1 0x0 REVERT JUMPDEST DUP1 SLOAD DUP3 LT ISZERO PUSH2 0xBF8 JUMPI PUSH2 0xBEF PUSH1 0x1 SWAP2 PUSH1 0x0 MSTORE PUSH1 0x20 PUSH1 0x0 KECCAK256 SWAP1 JUMP JUMPDEST SWAP2 MUL ADD SWAP1 PUSH1 0x0 SWAP1 JUMP JUMPDEST PUSH2 0xBBF JUMP JUMPDEST PUSH1 0x10 SLOAD DUP2 LT ISZERO PUSH2 0x2E2 JUMPI PUSH2 0xC15 PUSH2 0x350 SWAP2 PUSH1 0x10 PUSH2 0xBD5 JUMP JUMPDEST SWAP1 PUSH2 0x444 JUMP JUMPDEST CALLVALUE PUSH2 0x2E2 JUMPI PUSH2 0x318 PUSH2 0x308 PUSH2 0xC31 CALLDATASIZE PUSH1 0x4 PUSH2 0x400 JUMP JUMPDEST PUSH2 0xBFD JUMP JUMPDEST CALLVALUE PUSH2 0x2E2 JUMPI PUSH2 0x318 PUSH2 0x308 PUSH2 0xC4C CALLDATASIZE PUSH1 0x4 PUSH2 0x400 JUMP JUMPDEST PUSH2 0x1878 JUMP JUMPDEST CALLVALUE PUSH2 0x2E2 JUMPI PUSH2 0x57F PUSH2 0xC64 CALLDATASIZE PUSH1 0x4 PUSH2 0x6EC JUMP JUMPDEST SWAP3 SWAP2 SWAP1 SWAP2 PUSH2 0x1909 JUMP JUMPDEST CALLVALUE PUSH2 0x2E2 JUMPI PUSH2 0x318 PUSH2 0x506 PUSH2 0xC83 CALLDATASIZE PUSH1 0x4 PUSH2 0x400 JUMP JUMPDEST PUSH2 0x1A21 JUMP JUMPDEST CALLVALUE PUSH2 0x2E2 JUMPI PUSH2 0x318 PUSH2 0x308 PUSH2 0xC9E CALLDATASIZE PUSH1 0x4 PUSH2 0x400 JUMP JUMPDEST PUSH2 0x1A64 JUMP JUMPDEST PUSH2 0x350 PUSH1 0x0 PUSH1 0xC PUSH2 0x444 JUMP JUMPDEST CALLVALUE PUSH2 0x2E2 JUMPI PUSH2 0xCBF CALLDATASIZE PUSH1 0x4 PUSH2 0x2D7 JUMP JUMPDEST PUSH2 0x318 PUSH2 0x308 PUSH2 0xCA3 JUMP JUMPDEST PUSH2 0x57F PUSH2 0xCD8 CALLDATASIZE PUSH1 0x4 PUSH2 0x400 JUMP JUMPDEST PUSH2 0x1B8C JUMP JUMPDEST CALLVALUE PUSH2 0x2E2 JUMPI PUSH2 0x57F PUSH2 0xCF0 CALLDATASIZE PUSH1 0x4 PUSH2 0x400 JUMP JUMPDEST PUSH2 0x1D98 JUMP JUMPDEST CALLVALUE PUSH2 0x2E2 JUMPI PUSH2 0xD05 CALLDATASIZE PUSH1 0x4 PUSH2 0x2D7 JUMP JUMPDEST PUSH2 0x318 PUSH2 0x506 PUSH2 0x1DE4 JUMP JUMPDEST SWAP2 SWAP1 PUSH1 0x40 DUP4 DUP3 SUB SLT PUSH2 0x2E2 JUMPI PUSH2 0x350 SWAP1 PUSH1 0x20 PUSH2 0xD2C DUP3 DUP7 PUSH2 0x536 JUMP JUMPDEST SWAP5 ADD PUSH2 0x536 JUMP JUMPDEST CALLVALUE PUSH2 0x2E2 JUMPI PUSH2 0x318 PUSH2 0x36E PUSH2 0xD49 CALLDATASIZE PUSH1 0x4 PUSH2 0xD10 JUMP JUMPDEST SWAP1 PUSH2 0x1E28 JUMP JUMPDEST CALLVALUE PUSH2 0x2E2 JUMPI PUSH2 0x318 PUSH2 0x36E PUSH2 0xD65 CALLDATASIZE PUSH1 0x4 PUSH2 0x400 JUMP JUMPDEST PUSH2 0x1E4D JUMP JUMPDEST CALLVALUE PUSH2 0x2E2 JUMPI PUSH2 0x57F PUSH2 0xD7D CALLDATASIZE PUSH1 0x4 PUSH2 0x84E JUMP JUMPDEST PUSH2 0x1EB7 JUMP JUMPDEST PUSH2 0x350 SWAP1 DUP2 JUMP JUMPDEST PUSH2 0x350 SWAP1 SLOAD PUSH2 0xD82 JUMP JUMPDEST PUSH2 0x350 PUSH2 0xC4C PUSH1 0xF PUSH2 0xD89 JUMP JUMPDEST PUSH2 0xDA9 DUP2 PUSH2 0x1EC0 JUMP JUMPDEST SWAP1 DUP2 ISZERO PUSH2 0xDB4 JUMPI POP SWAP1 JUMP JUMPDEST SWAP1 POP PUSH2 0xDD0 PUSH4 0x2FA757F3 PUSH1 0xE0 SHL JUMPDEST SWAP2 PUSH1 0x1 PUSH1 0x1 PUSH1 0xE0 SHL SUB NOT AND SWAP1 JUMP JUMPDEST EQ SWAP1 JUMP JUMPDEST PUSH2 0x350 SWAP1 PUSH2 0xA80 JUMP JUMPDEST PUSH2 0x350 PUSH1 0x0 PUSH2 0xDD4 JUMP JUMPDEST PUSH2 0x350 SWAP1 PUSH2 0xDF4 DUP2 PUSH2 0x1EC9 JUMP JUMPDEST POP PUSH2 0x1F09 JUMP JUMPDEST PUSH2 0x2EB SWAP2 CALLER SWAP2 PUSH2 0x1F25 JUMP JUMPDEST ISZERO PUSH2 0xE0C JUMPI JUMP JUMPDEST PUSH1 0x40 MLOAD PUSH3 0x461BCD PUSH1 0xE5 SHL DUP2 MSTORE PUSH1 0x20 PUSH1 0x4 DUP3 ADD MSTORE PUSH1 0x12 PUSH1 0x24 DUP3 ADD MSTORE PUSH18 0x13585E081CDD5C1C1B1E481C995858DA1959 PUSH1 0x72 SHL PUSH1 0x44 DUP3 ADD MSTORE DUP1 PUSH1 0x64 DUP2 ADD JUMPDEST SUB SWAP1 REVERT JUMPDEST PUSH4 0x4E487B71 PUSH1 0xE0 SHL PUSH1 0x0 MSTORE PUSH1 0x11 PUSH1 0x4 MSTORE PUSH1 0x24 PUSH1 0x0 REVERT JUMPDEST DUP2 DUP2 MUL SWAP3 SWAP2 DUP2 ISZERO SWAP2 DUP5 DIV EQ OR ISZERO PUSH2 0xE74 JUMPI JUMP JUMPDEST PUSH2 0xE4B JUMP JUMPDEST PUSH4 0x4E487B71 PUSH1 0xE0 SHL PUSH1 0x0 MSTORE PUSH1 0x12 PUSH1 0x4 MSTORE PUSH1 0x24 PUSH1 0x0 REVERT JUMPDEST SWAP1 PUSH2 0xE99 JUMP JUMPDEST SWAP2 SWAP1 JUMP JUMPDEST SWAP1 DUP2 ISZERO PUSH2 0xEA4 JUMPI DIV SWAP1 JUMP JUMPDEST PUSH2 0xE79 JUMP JUMPDEST SWAP2 SWAP1 DUP3 ADD DUP1 SWAP3 GT PUSH2 0xE74 JUMPI JUMP JUMPDEST ISZERO PUSH2 0xEBD JUMPI JUMP JUMPDEST PUSH1 0x40 MLOAD PUSH3 0x461BCD PUSH1 0xE5 SHL DUP2 MSTORE PUSH1 0x20 PUSH1 0x4 DUP3 ADD MSTORE PUSH1 0x14 PUSH1 0x24 DUP3 ADD MSTORE PUSH20 0x125B9CDD59999A58DA595B9D081C185E5B595B9D PUSH1 0x62 SHL PUSH1 0x44 DUP3 ADD MSTORE PUSH1 0x64 SWAP1 REVERT JUMPDEST PUSH1 0x0 NOT DUP2 EQ PUSH2 0xE74 JUMPI PUSH1 0x1 ADD SWAP1 JUMP JUMPDEST SWAP1 PUSH1 0x0 NOT SWAP1 JUMPDEST SWAP2 DUP2 NOT AND SWAP2 AND OR SWAP1 JUMP JUMPDEST SWAP1 PUSH2 0xF28 PUSH2 0x350 PUSH2 0xF2F SWAP3 PUSH2 0x414 JUMP JUMPDEST DUP3 SLOAD PUSH2 0xF08 JUMP JUMPDEST SWAP1 SSTORE JUMP JUMPDEST PUSH2 0x350 SWAP1 PUSH2 0x38A SWAP1 PUSH1 0x1 PUSH1 0x1 PUSH1 0xA0 SHL SUB AND DUP3 JUMP JUMPDEST PUSH2 0x350 SWAP1 PUSH2 0xF33 JUMP JUMPDEST PUSH2 0x350 SWAP1 PUSH2 0xF47 JUMP JUMPDEST SWAP1 DUP2 MSTORE PUSH1 0x40 DUP2 ADD SWAP3 SWAP2 PUSH2 0x2EB SWAP2 PUSH1 0x20 ADD MSTORE JUMP JUMPDEST ADD MSTORE JUMP JUMPDEST PUSH2 0x350 SWAP1 PUSH2 0x38A JUMP JUMPDEST PUSH2 0x350 SWAP1 SLOAD PUSH2 0xF70 JUMP JUMPDEST SWAP1 PUSH2 0xF90 PUSH2 0x6B2 DUP4 PUSH2 0x679 JUMP JUMPDEST SWAP2 DUP3 MSTORE JUMP JUMPDEST RETURNDATASIZE ISZERO PUSH2 0xFAF JUMPI PUSH2 0xFA4 RETURNDATASIZE PUSH2 0xF83 JUMP JUMPDEST SWAP1 RETURNDATASIZE PUSH1 0x0 PUSH1 0x20 DUP5 ADD RETURNDATACOPY JUMP JUMPDEST PUSH1 0x60 SWAP1 JUMP JUMPDEST ISZERO PUSH2 0xFBB JUMPI JUMP JUMPDEST PUSH1 0x40 MLOAD PUSH3 0x461BCD PUSH1 0xE5 SHL DUP2 MSTORE PUSH1 0x20 PUSH1 0x4 DUP3 ADD MSTORE PUSH1 0xF PUSH1 0x24 DUP3 ADD MSTORE PUSH15 0x151C985B9CD9995C8819985A5B1959 PUSH1 0x8A SHL PUSH1 0x44 DUP3 ADD MSTORE PUSH1 0x64 SWAP1 REVERT JUMPDEST PUSH2 0x1014 PUSH2 0xFFE PUSH1 0x8 SLOAD SWAP1 JUMP JUMPDEST PUSH2 0x100E PUSH2 0xE95 PUSH2 0x350 PUSH1 0xC PUSH2 0xD89 JUMP JUMPDEST LT PUSH2 0xE05 JUMP JUMPDEST PUSH2 0x101C PUSH2 0xD93 JUMP JUMPDEST PUSH2 0x350 PUSH2 0x1123 PUSH2 0x104F PUSH2 0x1038 PUSH2 0x1032 PUSH1 0xD PUSH2 0xD89 JUMP JUMPDEST DUP6 PUSH2 0xE61 JUMP JUMPDEST PUSH2 0x1049 PUSH8 0xDE0B6B3A7640000 PUSH2 0x414 JUMP JUMPDEST SWAP1 PUSH2 0xE8F JUMP JUMPDEST PUSH2 0x1067 PUSH2 0x105F PUSH2 0x350 DUP4 DUP8 PUSH2 0xEA9 JUMP JUMPDEST CALLVALUE LT ISZERO PUSH2 0xEB6 JUMP JUMPDEST PUSH2 0x1083 PUSH2 0x1073 PUSH1 0x8 SLOAD SWAP1 JUMP JUMPDEST PUSH2 0x107D PUSH1 0x1 PUSH2 0x414 JUMP JUMPDEST SWAP1 PUSH2 0xEA9 JUMP JUMPDEST SWAP4 PUSH2 0x108E DUP6 CALLER PUSH2 0x1F32 JUMP JUMPDEST PUSH2 0x10AA PUSH2 0x10A3 PUSH2 0x109E PUSH1 0xF PUSH2 0xD89 JUMP JUMPDEST PUSH2 0xEF9 JUMP JUMPDEST PUSH1 0xF PUSH2 0xF18 JUMP JUMPDEST PUSH2 0x10B3 CALLER PUSH2 0xF50 JUMP JUMPDEST PUSH2 0x10BC DUP7 PUSH2 0x414 JUMP JUMPDEST SWAP1 PUSH32 0x10546B1A6F5245FF0FFA18C256B9E46859C585CBB473B453FCD4C2DC39AE08DB PUSH2 0x10E7 PUSH1 0x40 MLOAD SWAP1 JUMP JUMPDEST DUP1 PUSH2 0x10F3 DUP8 DUP8 DUP4 PUSH2 0xF59 JUMP JUMPDEST SUB SWAP1 LOG3 PUSH2 0x111E PUSH1 0x0 DUP1 PUSH2 0x1106 PUSH1 0xE PUSH2 0xF79 JUMP JUMPDEST PUSH1 0x40 MLOAD PUSH1 0x0 SWAP2 DUP8 SWAP1 GAS CALL PUSH2 0x1118 PUSH2 0xF95 JUMP JUMPDEST POP PUSH2 0xFB4 JUMP JUMPDEST PUSH2 0xEA9 JUMP JUMPDEST PUSH2 0x1F80 JUMP JUMPDEST SWAP1 PUSH2 0x1143 PUSH2 0x1137 PUSH2 0x5A9 DUP5 SLOAD SWAP1 JUMP JUMPDEST SWAP3 PUSH1 0x0 MSTORE PUSH1 0x20 PUSH1 0x0 KECCAK256 SWAP1 JUMP JUMPDEST SWAP1 PUSH1 0x0 JUMPDEST DUP2 DUP2 LT PUSH2 0x1154 JUMPI POP POP POP SWAP1 JUMP JUMPDEST SWAP1 SWAP2 SWAP3 PUSH2 0x1178 PUSH2 0x1171 PUSH1 0x1 SWAP3 PUSH2 0x1169 DUP8 PUSH2 0xD89 JUMP JUMPDEST DUP2 MSTORE PUSH1 0x20 ADD SWAP1 JUMP JUMPDEST SWAP5 PUSH1 0x1 ADD SWAP1 JUMP JUMPDEST SWAP3 SWAP2 ADD PUSH2 0x1147 JUMP JUMPDEST SWAP1 PUSH2 0x350 SWAP2 PUSH2 0x1128 JUMP JUMPDEST SWAP1 PUSH2 0x2EB PUSH2 0xA9A SWAP3 PUSH2 0x119B PUSH1 0x40 MLOAD SWAP1 JUMP JUMPDEST SWAP4 DUP5 DUP1 SWAP3 PUSH2 0x1180 JUMP JUMPDEST PUSH2 0x350 SWAP1 PUSH2 0x118A JUMP JUMPDEST PUSH2 0x350 PUSH1 0x10 PUSH2 0x11A4 JUMP JUMPDEST PUSH2 0x11D0 PUSH2 0x11CA PUSH2 0x350 SWAP3 PUSH4 0xFFFFFFFF AND SWAP1 JUMP JUMPDEST PUSH1 0xE0 SHL SWAP1 JUMP JUMPDEST PUSH1 0x1 PUSH1 0x1 PUSH1 0xE0 SHL SUB NOT AND SWAP1 JUMP JUMPDEST POP POP POP POP PUSH2 0x11E9 PUSH1 0x0 SWAP1 JUMP JUMPDEST POP PUSH2 0x350 PUSH4 0x150B7A02 PUSH2 0x11B7 JUMP JUMPDEST SWAP2 SWAP1 DUP3 SUB SWAP2 DUP3 GT PUSH2 0xE74 JUMPI JUMP JUMPDEST PUSH2 0x350 PUSH2 0x120F PUSH2 0x144A JUMP JUMPDEST PUSH2 0x1225 PUSH2 0x1038 PUSH2 0x121F PUSH1 0xD PUSH2 0xD89 JUMP JUMPDEST DUP4 PUSH2 0xE61 JUMP JUMPDEST SWAP1 PUSH2 0x11F7 JUMP JUMPDEST PUSH2 0x38A PUSH2 0x350 PUSH2 0x350 SWAP3 SWAP1 JUMP JUMPDEST PUSH2 0x350 SWAP1 PUSH2 0x122B JUMP JUMPDEST PUSH1 0x40 SWAP1 PUSH2 0x1268 PUSH2 0x2EB SWAP5 SWAP7 SWAP6 SWAP4 SWAP7 PUSH2 0x1261 PUSH1 0x60 DUP5 ADD SWAP9 PUSH1 0x0 DUP6 ADD SWAP1 PUSH2 0x3AD JUMP JUMPDEST PUSH1 0x20 DUP4 ADD MSTORE JUMP JUMPDEST ADD SWAP1 PUSH2 0x3AD JUMP JUMPDEST SWAP1 SWAP2 PUSH1 0x0 SWAP3 PUSH2 0x127D DUP5 PUSH2 0x1238 JUMP JUMPDEST PUSH2 0x1286 DUP2 PUSH2 0x38A JUMP JUMPDEST PUSH2 0x128F DUP4 PUSH2 0x38A JUMP JUMPDEST EQ PUSH2 0x12DA JUMPI POP PUSH2 0x12A1 SWAP1 DUP3 CALLER SWAP2 PUSH2 0x1FCA JUMP JUMPDEST SWAP2 PUSH2 0x12AB DUP2 PUSH2 0x38A JUMP JUMPDEST PUSH2 0x12B4 DUP5 PUSH2 0x38A JUMP JUMPDEST SUB PUSH2 0x12BF JUMPI POP POP POP POP JUMP JUMPDEST PUSH4 0x64283D7B PUSH1 0xE0 SHL DUP5 MSTORE DUP4 SWAP3 PUSH2 0xE47 SWAP3 SWAP1 SWAP2 PUSH1 0x4 DUP6 ADD PUSH2 0x1241 JUMP JUMPDEST DUP5 PUSH2 0xE47 DUP2 SWAP3 PUSH4 0x32505749 PUSH1 0xE1 SHL DUP4 MSTORE PUSH1 0x4 DUP4 ADD PUSH2 0x3B6 JUMP JUMPDEST SWAP2 PUSH1 0x20 PUSH2 0x2EB SWAP3 SWAP5 SWAP4 PUSH2 0xF6C PUSH1 0x40 DUP3 ADD SWAP7 PUSH1 0x0 DUP4 ADD SWAP1 PUSH2 0x3AD JUMP JUMPDEST SWAP1 PUSH2 0x42B SWAP1 PUSH2 0xF50 JUMP JUMPDEST PUSH2 0x1324 PUSH2 0x350 DUP3 PUSH2 0x17E9 JUMP JUMPDEST DUP3 LT ISZERO PUSH2 0x1347 JUMPI PUSH2 0x350 SWAP2 PUSH2 0x133D PUSH2 0x1342 SWAP3 PUSH1 0x6 PUSH2 0x130E JUMP JUMPDEST PUSH2 0x421 JUMP JUMPDEST PUSH2 0xD89 JUMP JUMPDEST PUSH4 0x295F44F7 PUSH1 0xE2 SHL PUSH1 0x0 SWAP1 DUP2 MSTORE SWAP2 PUSH2 0x1360 SWAP2 PUSH1 0x4 PUSH2 0x12F3 JUMP JUMPDEST SUB PUSH1 0x0 REVERT JUMPDEST ISZERO PUSH2 0x136C JUMPI JUMP JUMPDEST PUSH1 0x40 MLOAD PUSH3 0x461BCD PUSH1 0xE5 SHL DUP2 MSTORE PUSH1 0x20 PUSH1 0x4 DUP3 ADD MSTORE PUSH1 0x23 PUSH1 0x24 DUP3 ADD MSTORE PUSH32 0x4F6E6C792063726561746F722063616E2063616C6C20746869732066756E6374 PUSH1 0x44 DUP3 ADD MSTORE PUSH3 0x34B7B7 PUSH1 0xE9 SHL PUSH1 0x64 DUP3 ADD MSTORE PUSH1 0x84 SWAP1 REVERT JUMPDEST PUSH2 0x2EB SWAP1 PUSH2 0x13E5 PUSH2 0x13D6 PUSH2 0x13D1 PUSH1 0xE PUSH2 0xF79 JUMP JUMPDEST PUSH2 0x38A JUMP JUMPDEST PUSH2 0x13DF CALLER PUSH2 0x38A JUMP JUMPDEST EQ PUSH2 0x1365 JUMP JUMPDEST PUSH2 0x1410 JUMP JUMPDEST SWAP1 PUSH1 0x1 PUSH1 0x1 PUSH1 0xA0 SHL SUB SWAP1 PUSH2 0xF0E JUMP JUMPDEST SWAP1 PUSH2 0x1409 PUSH2 0x350 PUSH2 0xF2F SWAP3 PUSH2 0xF50 JUMP JUMPDEST DUP3 SLOAD PUSH2 0x13EA JUMP JUMPDEST PUSH2 0x2EB SWAP1 PUSH1 0xE PUSH2 0x13F9 JUMP JUMPDEST PUSH2 0x2EB SWAP1 PUSH2 0x13BD JUMP JUMPDEST PUSH2 0x350 PUSH1 0x0 PUSH2 0xF83 JUMP JUMPDEST PUSH2 0x350 PUSH2 0x1424 JUMP JUMPDEST SWAP1 SWAP2 PUSH2 0x2EB SWAP3 PUSH2 0x1444 PUSH2 0x142E JUMP JUMPDEST SWAP3 PUSH2 0x1909 JUMP JUMPDEST PUSH2 0x1454 PUSH1 0xF PUSH2 0xD89 JUMP JUMPDEST PUSH2 0x1461 PUSH2 0xE95 PUSH1 0x0 PUSH2 0x414 JUMP JUMPDEST GT ISZERO PUSH2 0x1481 JUMPI PUSH2 0x350 PUSH2 0xC4C PUSH2 0x1477 PUSH1 0xF PUSH2 0xD89 JUMP JUMPDEST PUSH2 0x1225 PUSH1 0x1 PUSH2 0x414 JUMP JUMPDEST PUSH2 0x350 PUSH2 0xC4C PUSH1 0x0 PUSH2 0x414 JUMP JUMPDEST PUSH2 0x350 PUSH2 0x1499 PUSH2 0xD93 JUMP JUMPDEST PUSH2 0x107D PUSH2 0x1038 PUSH2 0x121F PUSH1 0xD PUSH2 0xD89 JUMP JUMPDEST PUSH2 0x14B5 PUSH2 0x350 PUSH1 0x8 SLOAD SWAP1 JUMP JUMPDEST DUP2 LT ISZERO PUSH2 0x14CA JUMPI PUSH2 0xC15 PUSH2 0x350 SWAP2 PUSH1 0x8 PUSH2 0xBD5 JUMP JUMPDEST PUSH2 0xE47 SWAP1 PUSH1 0x0 SWAP2 DUP3 SWAP2 PUSH2 0x14DC DUP4 PUSH2 0x1238 JUMP JUMPDEST PUSH4 0x295F44F7 PUSH1 0xE2 SHL DUP5 MSTORE PUSH1 0x4 DUP5 ADD PUSH2 0x12F3 JUMP JUMPDEST PUSH2 0x2EB SWAP1 PUSH2 0x1503 PUSH2 0x13D6 PUSH2 0x13D1 PUSH1 0xE PUSH2 0xF79 JUMP JUMPDEST PUSH2 0x168A JUMP JUMPDEST SWAP2 PUSH1 0x0 NOT PUSH1 0x8 SWAP3 SWAP1 SWAP3 MUL SWAP2 DUP3 SHL SWAP2 SHL PUSH2 0xF0E JUMP JUMPDEST SWAP2 SWAP1 PUSH2 0x152D PUSH2 0x350 PUSH2 0xF2F SWAP4 PUSH2 0x414 JUMP JUMPDEST SWAP1 DUP4 SLOAD PUSH2 0x1508 JUMP JUMPDEST PUSH2 0x2EB SWAP2 PUSH1 0x0 SWAP2 PUSH2 0x151C JUMP JUMPDEST DUP2 DUP2 LT PUSH2 0x154C JUMPI POP POP JUMP JUMPDEST DUP1 PUSH2 0x155A PUSH1 0x0 PUSH1 0x1 SWAP4 PUSH2 0x1535 JUMP JUMPDEST ADD PUSH2 0x1541 JUMP JUMPDEST SWAP2 SWAP1 PUSH1 0x1F DUP2 GT PUSH2 0x156F JUMPI POP POP POP JUMP JUMPDEST PUSH2 0x1581 PUSH2 0x2EB SWAP4 PUSH1 0x0 MSTORE PUSH1 0x20 PUSH1 0x0 KECCAK256 SWAP1 JUMP JUMPDEST SWAP1 PUSH1 0x20 PUSH1 0x1F DUP5 ADD DUP2 SWAP1 DIV DUP4 ADD SWAP4 LT PUSH2 0x15A3 JUMPI JUMPDEST PUSH1 0x20 PUSH1 0x1F SWAP1 SWAP2 ADD DIV ADD SWAP1 PUSH2 0x1541 JUMP JUMPDEST SWAP1 SWAP2 POP DUP2 SWAP1 PUSH2 0x1594 JUMP JUMPDEST SWAP1 PUSH2 0x15B6 DUP2 MLOAD SWAP1 JUMP JUMPDEST SWAP1 PUSH8 0xFFFFFFFFFFFFFFFF DUP3 GT PUSH2 0x660 JUMPI PUSH2 0x15DA DUP3 PUSH2 0x15D4 DUP6 SLOAD PUSH2 0x9C8 JUMP JUMPDEST DUP6 PUSH2 0x1560 JUMP JUMPDEST PUSH1 0x20 SWAP1 PUSH1 0x1F DUP4 GT PUSH1 0x1 EQ PUSH2 0x1615 JUMPI PUSH2 0xF2F SWAP3 SWAP2 PUSH1 0x0 SWAP2 DUP4 PUSH2 0x160A JUMPI JUMPDEST POP POP PUSH1 0x0 NOT PUSH1 0x8 DUP4 MUL SHR NOT AND SWAP1 PUSH1 0x2 MUL OR SWAP1 JUMP JUMPDEST ADD MLOAD SWAP1 POP CODESIZE DUP1 PUSH2 0x15F6 JUMP JUMPDEST PUSH1 0x1F NOT DUP4 AND SWAP2 PUSH2 0x162A DUP6 PUSH1 0x0 MSTORE PUSH1 0x20 PUSH1 0x0 KECCAK256 SWAP1 JUMP JUMPDEST SWAP3 PUSH1 0x0 JUMPDEST DUP2 DUP2 LT PUSH2 0x1668 JUMPI POP SWAP2 PUSH1 0x2 SWAP4 SWAP2 DUP6 PUSH1 0x1 SWAP7 SWAP5 LT PUSH2 0x164F JUMPI JUMPDEST POP POP POP MUL ADD SWAP1 SSTORE JUMP JUMPDEST ADD MLOAD PUSH1 0x0 NOT PUSH1 0x8 PUSH1 0x1F DUP6 AND MUL SHR NOT AND SWAP1 SSTORE CODESIZE DUP1 DUP1 PUSH2 0x1646 JUMP JUMPDEST SWAP2 SWAP4 PUSH1 0x20 PUSH1 0x1 DUP2 SWAP3 DUP8 DUP8 ADD MLOAD DUP2 SSTORE ADD SWAP6 ADD SWAP3 ADD PUSH2 0x162E JUMP JUMPDEST SWAP1 PUSH2 0x2EB SWAP2 PUSH2 0x15AD JUMP JUMPDEST PUSH2 0x2EB SWAP1 PUSH1 0x12 PUSH2 0x1680 JUMP JUMPDEST PUSH2 0x2EB SWAP1 PUSH2 0x14EF JUMP JUMPDEST ISZERO PUSH2 0x16A5 JUMPI JUMP JUMPDEST PUSH1 0x40 MLOAD PUSH3 0x461BCD PUSH1 0xE5 SHL DUP2 MSTORE PUSH1 0x20 PUSH1 0x4 DUP3 ADD MSTORE PUSH1 0x19 PUSH1 0x24 DUP3 ADD MSTORE PUSH32 0x537461727420696E646578206F7574206F6620626F756E647300000000000000 PUSH1 0x44 DUP3 ADD MSTORE PUSH1 0x64 SWAP1 REVERT JUMPDEST PUSH8 0xFFFFFFFFFFFFFFFF DUP2 GT PUSH2 0x660 JUMPI PUSH1 0x20 DUP1 SWAP2 MUL ADD SWAP1 JUMP JUMPDEST SWAP1 PUSH2 0xF90 PUSH2 0x6B2 DUP4 PUSH2 0x16EA JUMP JUMPDEST CALLDATASIZE SWAP1 CALLDATACOPY JUMP JUMPDEST SWAP1 PUSH2 0x2EB PUSH2 0x172A PUSH2 0x1724 DUP5 PUSH2 0x1702 JUMP JUMPDEST SWAP4 PUSH2 0x16EA JUMP JUMPDEST PUSH1 0x1F NOT ADD PUSH1 0x20 DUP5 ADD PUSH2 0x170F JUMP JUMPDEST SWAP1 PUSH2 0x1740 DUP3 MLOAD SWAP1 JUMP JUMPDEST DUP2 LT ISZERO PUSH2 0xBF8 JUMPI PUSH1 0x20 DUP1 SWAP2 MUL ADD ADD SWAP1 JUMP JUMPDEST SWAP2 PUSH2 0x177E PUSH2 0x1776 PUSH1 0x10 SWAP4 PUSH2 0x1770 PUSH2 0x1769 PUSH2 0x350 DUP8 SLOAD SWAP1 JUMP JUMPDEST DUP8 LT PUSH2 0x169E JUMP JUMPDEST DUP6 PUSH2 0xEA9 JUMP JUMPDEST DUP4 SLOAD SWAP1 PUSH2 0x1FD5 JUMP JUMPDEST SWAP2 PUSH2 0x1791 PUSH2 0x178C DUP6 DUP6 PUSH2 0x11F7 JUMP JUMPDEST PUSH2 0x1714 JUMP JUMPDEST SWAP2 DUP5 JUMPDEST DUP5 JUMPDEST DUP2 LT ISZERO PUSH2 0x17D7 JUMPI PUSH2 0x17D0 DUP2 PUSH2 0x17CA PUSH2 0x17B4 PUSH2 0xC15 PUSH2 0x1796 SWAP6 DUP9 PUSH2 0xBD5 JUMP JUMPDEST PUSH2 0x17C7 PUSH2 0x17C1 DUP12 DUP6 PUSH2 0x11F7 JUMP JUMPDEST DUP10 PUSH2 0x1737 JUMP JUMPDEST MSTORE JUMP JUMPDEST PUSH1 0x1 ADD SWAP1 JUMP JUMPDEST SWAP1 POP PUSH2 0x1794 JUMP JUMPDEST POP SWAP4 POP POP SWAP1 POP SWAP1 JUMP JUMPDEST PUSH2 0x350 SWAP1 PUSH2 0x1EC9 JUMP JUMPDEST PUSH1 0x0 PUSH2 0x17F4 DUP2 PUSH2 0x1238 JUMP JUMPDEST PUSH2 0x17FD DUP2 PUSH2 0x38A JUMP JUMPDEST PUSH2 0x1806 DUP5 PUSH2 0x38A JUMP JUMPDEST EQ PUSH2 0x181B JUMPI POP POP PUSH2 0x1342 PUSH2 0x350 SWAP2 PUSH1 0x3 PUSH2 0x130E JUMP JUMPDEST PUSH4 0x22718AD9 PUSH1 0xE2 SHL DUP3 MSTORE DUP2 SWAP1 PUSH2 0xE47 SWAP1 PUSH1 0x4 DUP4 ADD PUSH2 0x3B6 JUMP JUMPDEST PUSH2 0x183C PUSH2 0x1FE7 JUMP JUMPDEST PUSH2 0x2EB PUSH2 0x2EB PUSH2 0x184C PUSH1 0x0 PUSH2 0x1238 JUMP JUMPDEST PUSH2 0x201E JUMP JUMPDEST PUSH2 0x2EB PUSH2 0x1834 JUMP JUMPDEST PUSH2 0x350 PUSH1 0xA PUSH2 0xF79 JUMP JUMPDEST PUSH2 0x350 PUSH1 0x1 PUSH2 0xDD4 JUMP JUMPDEST PUSH2 0x2EB SWAP2 SWAP1 CALLER PUSH2 0x2097 JUMP JUMPDEST PUSH2 0x1882 PUSH1 0x0 PUSH2 0x414 JUMP JUMPDEST DUP2 EQ PUSH2 0x18FE JUMPI PUSH2 0x350 SWAP1 PUSH2 0x107D PUSH2 0x1899 PUSH1 0xB PUSH2 0xD89 JUMP JUMPDEST SWAP2 PUSH2 0x18C0 PUSH2 0x18E9 PUSH2 0x18DF PUSH2 0x18DF PUSH2 0x18EE PUSH2 0x18C6 PUSH2 0x18B6 PUSH1 0xB PUSH2 0xD89 JUMP JUMPDEST PUSH2 0x18C0 PUSH1 0x2 PUSH2 0x414 JUMP JUMPDEST SWAP1 PUSH2 0xE61 JUMP JUMPDEST PUSH2 0x18C0 PUSH2 0x18E9 PUSH2 0x18DF DUP10 PUSH2 0x18DA PUSH1 0x64 PUSH2 0x414 JUMP JUMPDEST PUSH2 0xE61 JUMP JUMPDEST PUSH2 0x1049 PUSH1 0xC PUSH2 0xD89 JUMP JUMPDEST PUSH2 0x215B JUMP JUMPDEST SWAP5 PUSH2 0x18DA DUP2 PUSH2 0x18DA PUSH2 0x2710 PUSH2 0x414 JUMP JUMPDEST POP PUSH2 0x350 PUSH1 0xB PUSH2 0xD89 JUMP JUMPDEST SWAP1 PUSH2 0x2EB SWAP4 SWAP3 SWAP2 PUSH2 0x191B DUP4 DUP4 DUP4 PUSH2 0x126F JUMP JUMPDEST PUSH2 0x22B5 JUMP JUMPDEST PUSH2 0x350 SWAP1 SLOAD PUSH2 0x9C8 JUMP JUMPDEST DUP1 SLOAD PUSH1 0x0 SWAP4 SWAP3 SWAP2 PUSH2 0x1941 PUSH2 0x193D DUP4 PUSH2 0x9C8 JUMP JUMPDEST SWAP4 SWAP1 JUMP JUMPDEST SWAP2 PUSH1 0x1 DUP2 AND SWAP1 DUP2 ISZERO PUSH2 0x1992 JUMPI POP PUSH1 0x1 EQ PUSH2 0x195A JUMPI POP POP POP JUMP JUMPDEST PUSH2 0x196D SWAP2 SWAP3 SWAP4 SWAP5 POP PUSH1 0x0 MSTORE PUSH1 0x20 PUSH1 0x0 KECCAK256 SWAP1 JUMP JUMPDEST PUSH1 0x0 SWAP1 JUMPDEST DUP4 DUP3 LT PUSH2 0x197E JUMPI POP POP ADD SWAP1 JUMP JUMPDEST PUSH1 0x1 DUP2 PUSH1 0x20 SWAP3 SLOAD DUP5 DUP7 ADD MSTORE ADD SWAP2 ADD SWAP1 PUSH2 0x1971 JUMP JUMPDEST PUSH1 0xFF NOT AND DUP4 MSTORE POP POP DUP2 ISZERO ISZERO SWAP1 SWAP2 MUL ADD SWAP2 POP JUMP JUMPDEST PUSH2 0x4D6 PUSH2 0x19BD SWAP3 PUSH1 0x20 SWAP3 PUSH2 0x19B7 DUP2 MLOAD SWAP1 JUMP JUMPDEST SWAP5 DUP6 SWAP3 SWAP1 JUMP JUMPDEST SWAP4 DUP5 SWAP2 ADD PUSH2 0x47F JUMP JUMPDEST SWAP2 PUSH1 0x1 PUSH2 0x19D8 PUSH1 0x5 SWAP5 PUSH2 0x19E6 SWAP5 PUSH2 0x192A JUMP JUMPDEST PUSH1 0x2F PUSH1 0xF8 SHL DUP2 MSTORE ADD SWAP1 PUSH2 0x19A5 JUMP JUMPDEST PUSH5 0x173539B7B7 PUSH1 0xD9 SHL DUP2 MSTORE ADD SWAP1 JUMP JUMPDEST PUSH2 0x1A15 SWAP3 SWAP2 PUSH2 0x2EB SWAP2 PUSH2 0x1A07 PUSH1 0x40 MLOAD SWAP1 JUMP JUMPDEST SWAP5 DUP6 SWAP3 PUSH1 0x20 DUP5 ADD SWAP3 DUP4 PUSH2 0x19C6 JUMP JUMPDEST SWAP1 DUP2 SUB DUP3 MSTORE SUB DUP4 PUSH2 0x63E JUMP JUMPDEST PUSH2 0x1A2A DUP2 PUSH2 0x1EC9 JUMP JUMPDEST POP PUSH2 0x1A35 PUSH1 0x12 PUSH2 0x1920 JUMP JUMPDEST PUSH2 0x1A42 PUSH2 0xE95 PUSH1 0x0 PUSH2 0x414 JUMP JUMPDEST GT ISZERO PUSH2 0x1A5B JUMPI PUSH2 0x1A54 PUSH2 0x350 SWAP2 PUSH2 0x23E8 JUMP JUMPDEST PUSH1 0x12 PUSH2 0x19F5 JUMP JUMPDEST POP PUSH2 0x350 PUSH2 0x142E JUMP JUMPDEST PUSH2 0xC15 PUSH2 0x350 SWAP2 PUSH2 0x1A73 PUSH1 0x0 SWAP1 JUMP JUMPDEST POP PUSH1 0x10 PUSH2 0xBD5 JUMP JUMPDEST ISZERO PUSH2 0x1A82 JUMPI JUMP JUMPDEST PUSH1 0x40 MLOAD PUSH3 0x461BCD PUSH1 0xE5 SHL DUP2 MSTORE PUSH1 0x20 PUSH1 0x4 DUP3 ADD MSTORE PUSH1 0x1F PUSH1 0x24 DUP3 ADD MSTORE PUSH32 0x546F6B656E206973206E6F7420617661696C61626C6520666F722073616C6500 PUSH1 0x44 DUP3 ADD MSTORE PUSH1 0x64 SWAP1 REVERT JUMPDEST PUSH2 0x2EB SWAP1 PUSH2 0x1AF2 PUSH2 0x1AD7 DUP3 PUSH2 0x17E0 JUMP JUMPDEST PUSH2 0x1AEC PUSH2 0x1AE6 PUSH2 0x13D1 ADDRESS PUSH2 0xF50 JUMP JUMPDEST SWAP2 PUSH2 0x38A JUMP JUMPDEST EQ PUSH2 0x1A7B JUMP JUMPDEST PUSH2 0x1123 PUSH2 0x2EB SWAP2 PUSH2 0x1B01 PUSH2 0xD93 JUMP JUMPDEST PUSH2 0x1B11 PUSH2 0x1038 PUSH2 0x121F PUSH1 0xD PUSH2 0xD89 JUMP JUMPDEST SWAP2 PUSH2 0x1B22 PUSH2 0x105F PUSH2 0x350 DUP6 DUP6 PUSH2 0xEA9 JUMP JUMPDEST PUSH2 0x1B36 DUP2 PUSH2 0x1B2F ADDRESS PUSH2 0xF50 JUMP JUMPDEST CALLER SWAP1 PUSH2 0x2475 JUMP JUMPDEST PUSH2 0x1B3F DUP2 PUSH2 0x2538 JUMP JUMPDEST PUSH2 0x1B4F PUSH2 0x10A3 PUSH2 0x109E PUSH1 0xF PUSH2 0xD89 JUMP JUMPDEST PUSH2 0x1B61 PUSH2 0x1B5B CALLER PUSH2 0xF50 JUMP JUMPDEST SWAP2 PUSH2 0x414 JUMP JUMPDEST SWAP1 PUSH32 0x884543C08D36FB5C9B3B688DD0453C9F287199124BDBDDB3B7F9CA885A4D34A0 PUSH2 0x10E7 PUSH1 0x40 MLOAD SWAP1 JUMP JUMPDEST PUSH2 0x2EB SWAP1 PUSH2 0x1AC7 JUMP JUMPDEST ISZERO PUSH2 0x1B9C JUMPI JUMP JUMPDEST PUSH1 0x40 MLOAD PUSH3 0x461BCD PUSH1 0xE5 SHL DUP2 MSTORE PUSH1 0x20 PUSH1 0x4 DUP3 ADD MSTORE PUSH1 0x13 PUSH1 0x24 DUP3 ADD MSTORE PUSH19 0x21B0B63632B91034B9903737BA1037BBB732B9 PUSH1 0x69 SHL PUSH1 0x44 DUP3 ADD MSTORE PUSH1 0x64 SWAP1 REVERT JUMPDEST PUSH2 0x2EB SWAP1 PUSH2 0x1BF9 PUSH2 0x1BE7 DUP3 PUSH2 0x17E0 JUMP JUMPDEST PUSH2 0x1BF3 PUSH2 0x1AE6 CALLER PUSH2 0x38A JUMP JUMPDEST EQ PUSH2 0x1B95 JUMP JUMPDEST PUSH2 0x1CA3 JUMP JUMPDEST DUP1 ISZERO PUSH2 0xE74 JUMPI PUSH1 0x0 NOT ADD SWAP1 JUMP JUMPDEST ISZERO PUSH2 0x1C12 JUMPI JUMP JUMPDEST PUSH1 0x40 MLOAD PUSH3 0x461BCD PUSH1 0xE5 SHL DUP2 MSTORE PUSH1 0x20 PUSH1 0x4 DUP3 ADD MSTORE PUSH1 0x19 PUSH1 0x24 DUP3 ADD MSTORE PUSH32 0x5472616E7366657220746F2073656C6C6572206661696C656400000000000000 PUSH1 0x44 DUP3 ADD MSTORE PUSH1 0x64 SWAP1 REVERT JUMPDEST ISZERO PUSH2 0x1C5E JUMPI JUMP JUMPDEST PUSH1 0x40 MLOAD PUSH3 0x461BCD PUSH1 0xE5 SHL DUP2 MSTORE PUSH1 0x20 PUSH1 0x4 DUP3 ADD MSTORE PUSH1 0x1A PUSH1 0x24 DUP3 ADD MSTORE PUSH32 0x5472616E7366657220746F2063726561746F72206661696C6564000000000000 PUSH1 0x44 DUP3 ADD MSTORE PUSH1 0x64 SWAP1 REVERT JUMPDEST PUSH1 0x0 DUP1 PUSH2 0x2EB SWAP3 PUSH2 0x1D6F DUP3 DUP1 PUSH2 0x1CB7 PUSH2 0x144A JUMP JUMPDEST SWAP4 PUSH2 0x1D57 PUSH2 0x1CD1 PUSH2 0x1038 PUSH2 0x1CCB PUSH1 0xD PUSH2 0xD89 JUMP JUMPDEST DUP9 PUSH2 0xE61 JUMP JUMPDEST DUP1 SWAP7 PUSH2 0x1CDA CALLER SWAP1 JUMP JUMPDEST SWAP4 PUSH2 0x1CEE DUP2 PUSH2 0x1CE8 ADDRESS PUSH2 0xF50 JUMP JUMPDEST DUP8 PUSH2 0x2475 JUMP JUMPDEST PUSH2 0x1CF7 DUP2 PUSH2 0x25C7 JUMP JUMPDEST PUSH2 0x1D0C PUSH2 0x10A3 PUSH2 0x1D07 PUSH1 0xF PUSH2 0xD89 JUMP JUMPDEST PUSH2 0x1BFE JUMP JUMPDEST PUSH2 0x1D18 PUSH2 0x1B5B DUP7 PUSH2 0xF50 JUMP JUMPDEST SWAP1 PUSH32 0x8323BEBB324B6E1A1D4886A1F210640461BB275263DAE69967F001D053AB0B2B PUSH2 0x1D43 PUSH1 0x40 MLOAD SWAP1 JUMP JUMPDEST DUP1 PUSH2 0x1D4F DUP8 DUP8 DUP4 PUSH2 0xF59 JUMP JUMPDEST SUB SWAP1 LOG3 PUSH2 0x11F7 JUMP JUMPDEST PUSH1 0x40 MLOAD SWAP1 DUP2 DUP1 SUB SWAP3 GAS CALL PUSH2 0x1D69 PUSH2 0xF95 JUMP JUMPDEST POP PUSH2 0x1C0B JUMP JUMPDEST PUSH2 0x1D79 PUSH1 0xE PUSH2 0xF79 JUMP JUMPDEST SWAP1 PUSH2 0x1D83 PUSH1 0x40 MLOAD SWAP1 JUMP JUMPDEST SWAP1 DUP2 DUP1 SUB SWAP3 GAS CALL PUSH2 0x1D92 PUSH2 0xF95 JUMP JUMPDEST POP PUSH2 0x1C57 JUMP JUMPDEST PUSH2 0x2EB SWAP1 PUSH2 0x1BD7 JUMP JUMPDEST PUSH2 0x1DAD SWAP1 PUSH1 0x10 SWAP3 PUSH2 0x192A JUMP JUMPDEST PUSH16 0x17B1B7B63632B1BA34B7B7173539B7B7 PUSH1 0x81 SHL DUP2 MSTORE ADD SWAP1 JUMP JUMPDEST SWAP1 PUSH2 0x2EB PUSH2 0x1DD4 PUSH1 0x40 MLOAD SWAP1 JUMP JUMPDEST DUP1 SWAP4 PUSH2 0x1A15 PUSH1 0x20 DUP4 ADD SWAP2 DUP3 PUSH2 0x1DA1 JUMP JUMPDEST PUSH2 0x1DEE PUSH1 0x12 PUSH2 0x1920 JUMP JUMPDEST PUSH2 0x1DFB PUSH2 0xE95 PUSH1 0x0 PUSH2 0x414 JUMP JUMPDEST GT ISZERO PUSH2 0x1E0B JUMPI PUSH2 0x350 PUSH1 0x12 PUSH2 0x1DC7 JUMP JUMPDEST PUSH2 0x350 PUSH2 0x142E JUMP JUMPDEST PUSH2 0x350 SWAP1 JUMPDEST PUSH1 0xFF AND SWAP1 JUMP JUMPDEST PUSH2 0x350 SWAP1 SLOAD PUSH2 0x1E13 JUMP JUMPDEST PUSH2 0x350 SWAP2 PUSH2 0x1E43 PUSH2 0x1E48 SWAP3 PUSH2 0x1E3B PUSH1 0x0 SWAP1 JUMP JUMPDEST POP PUSH1 0x5 PUSH2 0x130E JUMP JUMPDEST PUSH2 0x130E JUMP JUMPDEST PUSH2 0x1E1E JUMP JUMPDEST PUSH2 0x1E56 SWAP1 PUSH2 0x17E0 JUMP JUMPDEST PUSH2 0xDD0 PUSH2 0x1AE6 PUSH2 0x13D1 ADDRESS PUSH2 0xF50 JUMP JUMPDEST PUSH2 0x2EB SWAP1 PUSH2 0x1E71 PUSH2 0x1FE7 JUMP JUMPDEST PUSH1 0x0 PUSH2 0x1E7C DUP2 PUSH2 0x1238 JUMP JUMPDEST PUSH2 0x1E85 DUP2 PUSH2 0x38A JUMP JUMPDEST PUSH2 0x1E8E DUP5 PUSH2 0x38A JUMP JUMPDEST EQ PUSH2 0x1E9E JUMPI POP POP PUSH2 0x2EB SWAP1 PUSH2 0x201E JUMP JUMPDEST PUSH4 0x1E4FBDF7 PUSH1 0xE0 SHL DUP3 MSTORE DUP2 SWAP1 PUSH2 0xE47 SWAP1 PUSH1 0x4 DUP4 ADD PUSH2 0x3B6 JUMP JUMPDEST PUSH2 0x2EB SWAP1 PUSH2 0x1E65 JUMP JUMPDEST PUSH2 0x350 SWAP1 PUSH2 0x25ED JUMP JUMPDEST PUSH2 0x1ED2 DUP2 PUSH2 0x2616 JUMP JUMPDEST SWAP1 PUSH1 0x0 SWAP1 PUSH2 0x1EE2 PUSH2 0x13D1 DUP4 PUSH2 0x1238 JUMP JUMPDEST PUSH2 0x1EEB DUP5 PUSH2 0x38A JUMP JUMPDEST EQ PUSH2 0x1EF5 JUMPI POP POP SWAP1 JUMP JUMPDEST PUSH4 0x7E273289 PUSH1 0xE0 SHL DUP3 MSTORE PUSH1 0x4 DUP3 ADD MSTORE PUSH1 0x24 SWAP1 REVERT JUMPDEST PUSH2 0x1F20 PUSH2 0x350 SWAP2 PUSH2 0x1F18 PUSH1 0x0 SWAP1 JUMP JUMPDEST POP PUSH1 0x4 PUSH2 0x421 JUMP JUMPDEST PUSH2 0xF79 JUMP JUMPDEST SWAP2 PUSH1 0x1 SWAP2 PUSH2 0x2EB SWAP4 PUSH2 0x262D JUMP JUMPDEST PUSH2 0x2EB SWAP2 PUSH2 0x1F3E PUSH2 0x142E JUMP JUMPDEST SWAP2 PUSH2 0x2759 JUMP JUMPDEST ISZERO PUSH2 0x1F4B JUMPI JUMP JUMPDEST PUSH1 0x40 MLOAD PUSH3 0x461BCD PUSH1 0xE5 SHL DUP2 MSTORE PUSH1 0x20 PUSH1 0x4 DUP3 ADD MSTORE PUSH1 0xD PUSH1 0x24 DUP3 ADD MSTORE PUSH13 0x1499599D5B990819985A5B1959 PUSH1 0x9A SHL PUSH1 0x44 DUP3 ADD MSTORE PUSH1 0x64 SWAP1 REVERT JUMPDEST PUSH2 0x1F8A SWAP1 CALLVALUE PUSH2 0x11F7 JUMP JUMPDEST PUSH2 0x1F94 PUSH1 0x0 PUSH2 0x414 JUMP JUMPDEST DUP2 GT PUSH2 0x1F9D JUMPI POP JUMP JUMPDEST PUSH1 0x0 DUP1 PUSH2 0x2EB SWAP3 PUSH2 0x1FAB CALLER SWAP1 JUMP JUMPDEST SWAP1 PUSH2 0x1FB5 PUSH1 0x40 MLOAD SWAP1 JUMP JUMPDEST SWAP1 DUP2 DUP1 SUB SWAP3 GAS CALL PUSH2 0x1FC4 PUSH2 0xF95 JUMP JUMPDEST POP PUSH2 0x1F44 JUMP JUMPDEST PUSH2 0x350 SWAP3 SWAP2 SWAP1 PUSH2 0x2773 JUMP JUMPDEST SWAP1 DUP1 DUP3 LT ISZERO PUSH2 0x1FE2 JUMPI POP SWAP1 JUMP JUMPDEST SWAP1 POP SWAP1 JUMP JUMPDEST PUSH2 0x1FEF PUSH2 0x1859 JUMP JUMPDEST CALLER SWAP1 PUSH2 0x1FFD PUSH2 0x1AE6 DUP4 PUSH2 0x38A JUMP JUMPDEST SUB PUSH2 0x2005 JUMPI POP JUMP JUMPDEST PUSH4 0x118CDAA7 PUSH1 0xE0 SHL PUSH1 0x0 SWAP1 DUP2 MSTORE SWAP1 PUSH2 0x1360 SWAP1 PUSH1 0x4 PUSH2 0x3B6 JUMP JUMPDEST PUSH2 0x2044 PUSH2 0x203E PUSH2 0x202E PUSH1 0xA PUSH2 0xF79 JUMP JUMPDEST PUSH2 0x2039 DUP5 PUSH1 0xA PUSH2 0x13F9 JUMP JUMPDEST PUSH2 0xF50 JUMP JUMPDEST SWAP2 PUSH2 0xF50 JUMP JUMPDEST SWAP1 PUSH32 0x8BE0079C531659141344CD1FD0A4F28419497F9722A3DAAFE3B4186F6B6457E0 PUSH2 0x206F PUSH1 0x40 MLOAD SWAP1 JUMP JUMPDEST DUP1 DUP1 JUMPDEST SUB SWAP1 LOG3 JUMP JUMPDEST SWAP1 PUSH1 0xFF SWAP1 PUSH2 0xF0E JUMP JUMPDEST SWAP1 PUSH2 0x2090 PUSH2 0x350 PUSH2 0xF2F SWAP3 ISZERO ISZERO SWAP1 JUMP JUMPDEST DUP3 SLOAD PUSH2 0x2077 JUMP JUMPDEST PUSH1 0x0 PUSH2 0x20A5 PUSH2 0x13D1 DUP3 PUSH2 0x1238 JUMP JUMPDEST PUSH2 0x20AE DUP5 PUSH2 0x38A JUMP JUMPDEST EQ PUSH2 0x2107 JUMPI POP PUSH2 0x2072 PUSH2 0x20FD PUSH2 0x20F7 DUP4 PUSH2 0x2039 DUP8 PUSH2 0x20F2 DUP9 PUSH2 0x1E43 PUSH32 0x17307EAB39AB6107E8899845AD3D59BD9653F200F220920489CA2B5937696C31 SWAP10 PUSH1 0x5 PUSH2 0x130E JUMP JUMPDEST PUSH2 0x2080 JUMP JUMPDEST SWAP4 PUSH2 0xF50 JUMP JUMPDEST SWAP4 PUSH2 0x372 PUSH1 0x40 MLOAD SWAP1 JUMP JUMPDEST PUSH4 0xB611743 PUSH1 0xE3 SHL DUP2 MSTORE DUP1 PUSH2 0xE47 DUP5 PUSH1 0x4 DUP4 ADD PUSH2 0x3B6 JUMP JUMPDEST PUSH2 0x1E18 PUSH2 0x350 PUSH2 0x350 SWAP3 SWAP1 JUMP JUMPDEST PUSH2 0x350 SWAP1 PUSH2 0x2140 PUSH2 0xE95 PUSH2 0x350 SWAP5 PUSH1 0xFF AND SWAP1 JUMP JUMPDEST SWAP1 SHR SWAP1 JUMP JUMPDEST PUSH2 0x350 SWAP1 PUSH2 0x2156 PUSH2 0xE95 PUSH2 0x350 SWAP5 SWAP1 JUMP JUMPDEST SWAP1 SHL SWAP1 JUMP JUMPDEST PUSH2 0x2165 PUSH1 0x0 PUSH2 0x414 JUMP JUMPDEST DUP2 EQ PUSH2 0x224B JUMPI PUSH1 0x1 PUSH2 0x2176 DUP3 PUSH2 0x280C JUMP JUMPDEST PUSH2 0x217F DUP3 PUSH2 0x211F JUMP JUMPDEST DUP1 DUP1 DUP1 DUP1 DUP1 SWAP7 PUSH2 0x2190 DUP3 DUP1 SWAP9 PUSH2 0x212C JUMP JUMPDEST SWAP1 PUSH2 0x219A SWAP1 PUSH2 0x414 JUMP JUMPDEST SWAP1 PUSH2 0x21A4 SWAP2 PUSH2 0x2145 JUMP JUMPDEST PUSH2 0x21AE DUP2 DUP11 PUSH2 0xE8F JUMP JUMPDEST ADD SWAP1 PUSH2 0x21B9 SWAP2 PUSH2 0x212C JUMP JUMPDEST PUSH2 0x21C3 DUP2 DUP10 PUSH2 0xE8F JUMP JUMPDEST ADD SWAP1 PUSH2 0x21CE SWAP2 PUSH2 0x212C JUMP JUMPDEST PUSH2 0x21D8 DUP2 DUP9 PUSH2 0xE8F JUMP JUMPDEST ADD SWAP1 PUSH2 0x21E3 SWAP2 PUSH2 0x212C JUMP JUMPDEST PUSH2 0x21ED DUP2 DUP8 PUSH2 0xE8F JUMP JUMPDEST ADD SWAP1 PUSH2 0x21F8 SWAP2 PUSH2 0x212C JUMP JUMPDEST PUSH2 0x2202 DUP2 DUP7 PUSH2 0xE8F JUMP JUMPDEST ADD SWAP1 PUSH2 0x220D SWAP2 PUSH2 0x212C JUMP JUMPDEST PUSH2 0x2217 DUP2 DUP6 PUSH2 0xE8F JUMP JUMPDEST ADD SWAP1 PUSH2 0x2222 SWAP2 PUSH2 0x212C JUMP JUMPDEST PUSH2 0x222C DUP2 DUP5 PUSH2 0xE8F JUMP JUMPDEST ADD SWAP1 PUSH2 0x2237 SWAP2 PUSH2 0x212C JUMP JUMPDEST SWAP1 DUP2 PUSH2 0x2242 SWAP2 PUSH2 0xE8F JUMP JUMPDEST PUSH2 0x350 SWAP2 PUSH2 0x1FD5 JUMP JUMPDEST POP PUSH2 0x350 PUSH1 0x0 PUSH2 0x414 JUMP JUMPDEST SWAP1 POP MLOAD SWAP1 PUSH2 0x2EB DUP3 PUSH2 0x31C JUMP JUMPDEST SWAP1 PUSH1 0x20 DUP3 DUP3 SUB SLT PUSH2 0x2E2 JUMPI PUSH2 0x350 SWAP2 PUSH2 0x2256 JUMP JUMPDEST SWAP1 SWAP3 PUSH2 0x22A8 SWAP1 PUSH2 0x22A1 PUSH2 0x350 SWAP7 SWAP5 PUSH2 0x2297 PUSH1 0x80 DUP7 ADD SWAP8 PUSH1 0x0 DUP8 ADD SWAP1 PUSH2 0x3AD JUMP JUMPDEST PUSH1 0x20 DUP6 ADD SWAP1 PUSH2 0x3AD JUMP JUMPDEST PUSH1 0x40 DUP4 ADD MSTORE JUMP JUMPDEST PUSH1 0x60 DUP2 DUP5 SUB SWAP2 ADD MSTORE PUSH2 0x4A2 JUMP JUMPDEST PUSH1 0x0 SWAP4 SWAP2 SWAP3 DUP4 EXTCODESIZE PUSH2 0x22C8 PUSH2 0xE95 DUP8 PUSH2 0x414 JUMP JUMPDEST GT PUSH2 0x22D5 JUMPI JUMPDEST POP POP POP POP POP JUMP JUMPDEST PUSH1 0x20 SWAP2 PUSH2 0x22E4 PUSH2 0x2039 DUP7 PUSH2 0xF50 JUMP JUMPDEST SWAP1 DUP7 CALLER PUSH2 0x230D PUSH2 0x22F3 PUSH1 0x40 MLOAD SWAP1 JUMP JUMPDEST SWAP8 DUP9 SWAP7 DUP8 SWAP6 DUP7 SWAP5 PUSH4 0xA85BD01 PUSH1 0xE1 SHL DUP7 MSTORE PUSH1 0x4 DUP7 ADD PUSH2 0x2277 JUMP JUMPDEST SUB SWAP3 GAS CALL PUSH1 0x0 SWAP2 DUP2 PUSH2 0x23A1 JUMPI JUMPDEST POP PUSH2 0x236C JUMPI POP PUSH2 0x232F JUMP JUMPDEST CODESIZE DUP1 DUP1 DUP1 DUP1 PUSH2 0x22CE JUMP JUMPDEST PUSH2 0x2337 PUSH2 0xF95 JUMP JUMPDEST DUP1 MLOAD PUSH2 0x2345 PUSH2 0xE95 DUP6 PUSH2 0x414 JUMP JUMPDEST SUB PUSH2 0x2364 JUMPI POP PUSH4 0x32505749 PUSH1 0xE1 SHL DUP3 MSTORE DUP2 SWAP1 PUSH2 0xE47 SWAP1 PUSH1 0x4 DUP4 ADD PUSH2 0x3B6 JUMP JUMPDEST DUP1 MLOAD SWAP1 PUSH1 0x20 ADD REVERT JUMPDEST PUSH2 0x237C PUSH4 0xA85BD01 PUSH1 0xE1 SHL PUSH2 0xDC2 JUMP JUMPDEST SUB PUSH2 0x2388 JUMPI POP POP PUSH2 0x2325 JUMP JUMPDEST PUSH4 0x32505749 PUSH1 0xE1 SHL DUP3 MSTORE DUP2 SWAP1 PUSH2 0xE47 SWAP1 PUSH1 0x4 DUP4 ADD PUSH2 0x3B6 JUMP JUMPDEST PUSH2 0x23C4 SWAP2 SWAP3 POP PUSH1 0x20 RETURNDATASIZE PUSH1 0x20 GT PUSH2 0x23CB JUMPI JUMPDEST PUSH2 0x23BC DUP2 DUP4 PUSH2 0x63E JUMP JUMPDEST DUP2 ADD SWAP1 PUSH2 0x2263 JUMP JUMPDEST SWAP1 CODESIZE PUSH2 0x231A JUMP JUMPDEST POP RETURNDATASIZE PUSH2 0x23B2 JUMP JUMPDEST SWAP1 PUSH2 0x2EB PUSH2 0x172A PUSH2 0x23E2 DUP5 PUSH2 0xF83 JUMP JUMPDEST SWAP4 PUSH2 0x679 JUMP JUMPDEST PUSH2 0x23F1 DUP2 PUSH2 0x29BE JUMP JUMPDEST SWAP1 PUSH2 0x2402 PUSH1 0x1 SWAP3 PUSH2 0x4D6 PUSH1 0x1 PUSH2 0x414 JUMP JUMPDEST SWAP2 DUP1 PUSH2 0x240D DUP5 PUSH2 0x23D2 JUMP JUMPDEST SWAP4 PUSH1 0x20 ADD DUP5 ADD SWAP1 JUMPDEST PUSH2 0x2420 JUMPI JUMPDEST POP POP POP SWAP1 JUMP JUMPDEST DUP2 ISZERO PUSH2 0x2470 JUMPI PUSH2 0x2454 SWAP1 PUSH1 0x0 NOT ADD SWAP3 PUSH16 0x181899199A1A9B1B9C1CB0B131B232B3 PUSH1 0x81 SHL PUSH1 0xA DUP3 MOD BYTE DUP5 MSTORE8 PUSH2 0x1049 PUSH1 0xA PUSH2 0x414 JUMP JUMPDEST SWAP1 DUP2 PUSH2 0x2463 PUSH2 0xE95 PUSH1 0x0 PUSH2 0x414 JUMP JUMPDEST EQ PUSH2 0x2470 JUMPI SWAP1 SWAP2 DUP2 PUSH2 0x2415 JUMP JUMPDEST PUSH2 0x241A JUMP JUMPDEST SWAP2 SWAP3 SWAP1 PUSH1 0x0 SWAP3 PUSH2 0x2484 DUP5 PUSH2 0x1238 JUMP JUMPDEST SWAP2 PUSH2 0x248E DUP4 PUSH2 0x38A JUMP JUMPDEST PUSH2 0x2497 DUP3 PUSH2 0x38A JUMP JUMPDEST EQ PUSH2 0x24E1 JUMPI PUSH2 0x24AA DUP4 DUP8 PUSH2 0x24B0 SWAP4 PUSH2 0x1FCA JUMP JUMPDEST SWAP3 PUSH2 0x38A JUMP JUMPDEST PUSH2 0x24B9 DUP4 PUSH2 0x38A JUMP JUMPDEST SUB PUSH2 0x24D4 JUMPI PUSH4 0x7E273289 PUSH1 0xE0 SHL DUP5 MSTORE PUSH1 0x4 DUP5 ADD DUP6 SWAP1 MSTORE PUSH1 0x24 DUP5 REVERT JUMPDEST PUSH2 0x12AB DUP2 SWAP6 SWAP3 SWAP4 SWAP6 PUSH2 0x38A JUMP JUMPDEST PUSH4 0x32505749 PUSH1 0xE1 SHL DUP6 MSTORE DUP5 DUP1 PUSH2 0xE47 DUP6 PUSH1 0x4 DUP4 ADD PUSH2 0x3B6 JUMP JUMPDEST PUSH4 0x4E487B71 PUSH1 0xE0 SHL PUSH1 0x0 MSTORE PUSH1 0x31 PUSH1 0x4 MSTORE PUSH1 0x24 PUSH1 0x0 REVERT JUMPDEST DUP1 SLOAD DUP1 ISZERO PUSH2 0x2533 JUMPI PUSH1 0x0 NOT ADD SWAP1 PUSH2 0x2530 PUSH2 0x252A DUP4 DUP4 PUSH2 0xBD5 JUMP JUMPDEST SWAP1 PUSH2 0x1535 JUMP JUMPDEST SSTORE JUMP JUMPDEST PUSH2 0x24FA JUMP JUMPDEST PUSH1 0x0 PUSH2 0x259A PUSH2 0x2EB SWAP3 PUSH1 0x11 PUSH2 0x133D PUSH2 0x2595 PUSH2 0x2556 PUSH2 0x1342 DUP6 DUP6 PUSH2 0x421 JUMP JUMPDEST PUSH2 0x350 PUSH1 0x10 SWAP2 PUSH2 0x2590 PUSH2 0x2576 PUSH2 0xC15 PUSH2 0x2570 PUSH2 0x1477 DUP8 SLOAD SWAP1 JUMP JUMPDEST DUP7 PUSH2 0xBD5 JUMP JUMPDEST PUSH2 0x258A DUP2 PUSH2 0x2584 DUP6 DUP9 PUSH2 0xBD5 JUMP JUMPDEST SWAP1 PUSH2 0x151C JUMP JUMPDEST DUP8 PUSH2 0x421 JUMP JUMPDEST PUSH2 0xF18 JUMP JUMPDEST PUSH2 0x2510 JUMP JUMPDEST PUSH2 0x1535 JUMP JUMPDEST SWAP1 DUP2 SLOAD SWAP2 PUSH9 0x10000000000000000 DUP4 LT ISZERO PUSH2 0x660 JUMPI DUP3 PUSH2 0x2584 SWAP2 PUSH1 0x1 PUSH2 0x2EB SWAP6 ADD DUP2 SSTORE PUSH2 0xBD5 JUMP JUMPDEST PUSH2 0x2EB SWAP1 PUSH2 0x25D6 DUP2 PUSH1 0x10 PUSH2 0x259F JUMP JUMPDEST PUSH2 0x2590 PUSH2 0x25E5 PUSH2 0x1477 PUSH1 0x10 SLOAD SWAP1 JUMP JUMPDEST SWAP2 PUSH1 0x11 PUSH2 0x421 JUMP JUMPDEST PUSH4 0x780E9D63 PUSH1 0xE0 SHL PUSH1 0x1 PUSH1 0x1 PUSH1 0xE0 SHL SUB NOT DUP3 AND EQ SWAP1 DUP2 ISZERO PUSH2 0x260C JUMPI POP SWAP1 JUMP JUMPDEST PUSH2 0x350 SWAP2 POP PUSH2 0x2B52 JUMP JUMPDEST PUSH2 0x1F20 PUSH2 0x350 SWAP2 PUSH2 0x2625 PUSH1 0x0 SWAP1 JUMP JUMPDEST POP PUSH1 0x2 PUSH2 0x421 JUMP JUMPDEST SWAP3 SWAP2 SWAP1 SWAP2 DUP1 DUP2 ISZERO PUSH2 0x273B JUMPI JUMPDEST PUSH2 0x2654 JUMPI JUMPDEST POP POP SWAP1 PUSH2 0x264F PUSH2 0x2EB SWAP3 PUSH1 0x4 PUSH2 0x421 JUMP JUMPDEST PUSH2 0x13F9 JUMP JUMPDEST PUSH2 0x265D DUP4 PUSH2 0x1EC9 JUMP JUMPDEST SWAP2 PUSH1 0x0 SWAP1 PUSH2 0x266D PUSH2 0x13D1 DUP4 PUSH2 0x1238 JUMP JUMPDEST PUSH2 0x2676 DUP3 PUSH2 0x38A JUMP JUMPDEST EQ ISZERO DUP1 PUSH2 0x2721 JUMPI JUMPDEST DUP1 PUSH2 0x270A JUMPI JUMPDEST PUSH2 0x26F1 JUMPI POP POP SWAP2 PUSH2 0x264F SWAP2 PUSH2 0x2EB SWAP5 SWAP4 PUSH2 0x26A1 JUMPI JUMPDEST POP SWAP2 SWAP3 PUSH2 0x263E JUMP JUMPDEST PUSH2 0x26AA SWAP1 PUSH2 0xF50 JUMP JUMPDEST PUSH2 0x26B3 DUP5 PUSH2 0xF50 JUMP JUMPDEST PUSH2 0x26BC DUP4 PUSH2 0x414 JUMP JUMPDEST SWAP2 PUSH32 0x8C5BE1E5EBEC7D5BD14F71427D1E84F3DD0314C0F7B2291E5B200AC8C7C3B925 PUSH2 0x26E7 PUSH1 0x40 MLOAD SWAP1 JUMP JUMPDEST PUSH1 0x0 SWAP1 LOG4 CODESIZE PUSH2 0x2699 JUMP JUMPDEST PUSH4 0xA9FBF51F PUSH1 0xE0 SHL DUP3 MSTORE DUP2 SWAP1 PUSH2 0xE47 SWAP1 PUSH1 0x4 DUP4 ADD PUSH2 0x3B6 JUMP JUMPDEST POP PUSH2 0x271C PUSH2 0x2718 DUP3 DUP7 PUSH2 0x1E28 JUMP JUMPDEST ISZERO SWAP1 JUMP JUMPDEST PUSH2 0x2684 JUMP JUMPDEST POP PUSH2 0x272B DUP2 PUSH2 0x38A JUMP JUMPDEST PUSH2 0x2734 DUP6 PUSH2 0x38A JUMP JUMPDEST EQ ISZERO PUSH2 0x267E JUMP JUMPDEST POP PUSH2 0x2749 PUSH2 0x13D1 PUSH1 0x0 PUSH2 0x1238 JUMP JUMPDEST PUSH2 0x2752 DUP4 PUSH2 0x38A JUMP JUMPDEST EQ ISZERO PUSH2 0x2639 JUMP JUMPDEST SWAP1 PUSH2 0x2EB SWAP3 SWAP2 PUSH2 0x2769 DUP3 DUP3 PUSH2 0x2B9D JUMP JUMPDEST PUSH2 0x191B PUSH1 0x0 PUSH2 0x1238 JUMP JUMPDEST SWAP1 SWAP2 PUSH2 0x2780 SWAP1 DUP4 DUP4 PUSH2 0x2C13 JUMP JUMPDEST SWAP2 PUSH2 0x27AE PUSH2 0x278E PUSH1 0x0 PUSH2 0x1238 JUMP JUMPDEST PUSH2 0x2797 DUP2 PUSH2 0x38A JUMP JUMPDEST PUSH2 0x27A0 DUP7 PUSH2 0x38A JUMP JUMPDEST SUB PUSH2 0x27EB JUMPI PUSH2 0x13D1 DUP4 PUSH2 0x2DC2 JUMP JUMPDEST PUSH2 0x27B7 DUP4 PUSH2 0x38A JUMP JUMPDEST SUB PUSH2 0x27C6 JUMPI PUSH2 0x350 SWAP2 POP PUSH2 0x2E13 JUMP JUMPDEST PUSH2 0x27CF DUP3 PUSH2 0x38A JUMP JUMPDEST PUSH2 0x27D8 DUP5 PUSH2 0x38A JUMP JUMPDEST SUB PUSH2 0x27E2 JUMPI POP POP SWAP1 JUMP JUMPDEST PUSH2 0x350 SWAP2 PUSH2 0x2DE4 JUMP JUMPDEST PUSH2 0x27F4 DUP5 PUSH2 0x38A JUMP JUMPDEST PUSH2 0x27FD DUP7 PUSH2 0x38A JUMP JUMPDEST EQ PUSH2 0x38A JUMPI PUSH2 0x13D1 DUP4 DUP7 PUSH2 0x2D41 JUMP JUMPDEST PUSH1 0x0 PUSH2 0x2907 PUSH2 0xE95 PUSH2 0x2901 PUSH2 0x2820 DUP5 PUSH2 0x414 JUMP JUMPDEST SWAP5 PUSH2 0x2834 PUSH2 0x282E PUSH1 0x80 PUSH2 0x211F JUMP JUMPDEST DUP3 PUSH2 0x212C JUMP JUMPDEST DUP7 DUP2 GT PUSH2 0x29A7 JUMPI JUMPDEST POP PUSH2 0x284A PUSH2 0x282E PUSH1 0x40 PUSH2 0x211F JUMP JUMPDEST PUSH2 0x2853 DUP7 PUSH2 0x414 JUMP JUMPDEST DUP2 GT PUSH2 0x2990 JUMPI JUMPDEST POP PUSH2 0x2868 PUSH2 0x282E PUSH1 0x20 PUSH2 0x211F JUMP JUMPDEST PUSH2 0x2871 DUP7 PUSH2 0x414 JUMP JUMPDEST DUP2 GT PUSH2 0x2979 JUMPI JUMPDEST POP PUSH2 0x2886 PUSH2 0x282E PUSH1 0x10 PUSH2 0x211F JUMP JUMPDEST PUSH2 0x288F DUP7 PUSH2 0x414 JUMP JUMPDEST DUP2 GT PUSH2 0x2962 JUMPI JUMPDEST POP PUSH2 0x28A4 PUSH2 0x282E PUSH1 0x8 PUSH2 0x211F JUMP JUMPDEST PUSH2 0x28AD DUP7 PUSH2 0x414 JUMP JUMPDEST DUP2 GT PUSH2 0x294B JUMPI JUMPDEST POP PUSH2 0x28C2 PUSH2 0x282E PUSH1 0x4 PUSH2 0x211F JUMP JUMPDEST PUSH2 0x28CB DUP7 PUSH2 0x414 JUMP JUMPDEST DUP2 GT PUSH2 0x2934 JUMPI JUMPDEST POP PUSH2 0x28E0 PUSH2 0x282E PUSH1 0x2 PUSH2 0x211F JUMP JUMPDEST PUSH2 0x28E9 DUP7 PUSH2 0x414 JUMP JUMPDEST DUP2 GT PUSH2 0x291D JUMPI JUMPDEST POP PUSH2 0x28FB PUSH1 0x1 PUSH2 0x211F JUMP JUMPDEST SWAP1 PUSH2 0x212C JUMP JUMPDEST SWAP3 PUSH2 0x414 JUMP JUMPDEST GT PUSH2 0x290F JUMPI SWAP1 JUMP JUMPDEST PUSH2 0x350 SWAP1 PUSH2 0x4D6 PUSH1 0x1 PUSH2 0x414 JUMP JUMPDEST PUSH2 0x292D SWAP2 POP SWAP6 PUSH2 0x4D6 PUSH1 0x2 PUSH2 0x414 JUMP JUMPDEST SWAP5 CODESIZE PUSH2 0x28F0 JUMP JUMPDEST PUSH2 0x2944 SWAP2 POP SWAP6 PUSH2 0x4D6 PUSH1 0x4 PUSH2 0x414 JUMP JUMPDEST SWAP5 CODESIZE PUSH2 0x28D2 JUMP JUMPDEST PUSH2 0x295B SWAP2 POP SWAP6 PUSH2 0x4D6 PUSH1 0x8 PUSH2 0x414 JUMP JUMPDEST SWAP5 CODESIZE PUSH2 0x28B4 JUMP JUMPDEST PUSH2 0x2972 SWAP2 POP SWAP6 PUSH2 0x4D6 PUSH1 0x10 PUSH2 0x414 JUMP JUMPDEST SWAP5 CODESIZE PUSH2 0x2896 JUMP JUMPDEST PUSH2 0x2989 SWAP2 POP SWAP6 PUSH2 0x4D6 PUSH1 0x20 PUSH2 0x414 JUMP JUMPDEST SWAP5 CODESIZE PUSH2 0x2878 JUMP JUMPDEST PUSH2 0x29A0 SWAP2 POP SWAP6 PUSH2 0x4D6 PUSH1 0x40 PUSH2 0x414 JUMP JUMPDEST SWAP5 CODESIZE PUSH2 0x285A JUMP JUMPDEST PUSH2 0x29B7 SWAP2 POP SWAP6 PUSH2 0x4D6 PUSH1 0x80 PUSH2 0x414 JUMP JUMPDEST SWAP5 CODESIZE PUSH2 0x283C JUMP JUMPDEST PUSH2 0x29C8 PUSH1 0x0 PUSH2 0x414 JUMP JUMPDEST SWAP1 PUSH27 0x184F03E93FF9F4DAA797ED6E38ED64BF6A1F010000000000000000 PUSH2 0x29EE DUP2 PUSH2 0x414 JUMP JUMPDEST DUP3 LT ISZERO PUSH2 0x2B30 JUMPI JUMPDEST POP PUSH14 0x4EE2D6D415B85ACEF8100000000 PUSH2 0x2A0F DUP2 PUSH2 0x414 JUMP JUMPDEST DUP3 LT ISZERO PUSH2 0x2B0E JUMPI JUMPDEST POP PUSH7 0x2386F26FC10000 PUSH2 0x2A29 DUP2 PUSH2 0x414 JUMP JUMPDEST DUP3 LT ISZERO PUSH2 0x2AEC JUMPI JUMPDEST POP PUSH4 0x5F5E100 PUSH2 0x2A40 DUP2 PUSH2 0x414 JUMP JUMPDEST DUP3 LT ISZERO PUSH2 0x2ACA JUMPI JUMPDEST POP PUSH2 0x2710 PUSH2 0x2A55 DUP2 PUSH2 0x414 JUMP JUMPDEST DUP3 LT ISZERO PUSH2 0x2AA8 JUMPI JUMPDEST POP PUSH2 0x2A68 PUSH1 0x64 PUSH2 0x414 JUMP JUMPDEST DUP2 LT ISZERO PUSH2 0x2A86 JUMPI JUMPDEST PUSH2 0x2A7D PUSH2 0xE95 PUSH1 0xA PUSH2 0x414 JUMP JUMPDEST LT ISZERO PUSH2 0x290F JUMPI SWAP1 JUMP JUMPDEST PUSH2 0x2A97 PUSH2 0x2AA2 SWAP2 PUSH2 0x1049 PUSH1 0x64 PUSH2 0x414 JUMP JUMPDEST SWAP2 PUSH2 0x4D6 PUSH1 0x2 PUSH2 0x414 JUMP JUMPDEST SWAP1 PUSH2 0x2A70 JUMP JUMPDEST PUSH2 0x2AC3 SWAP2 PUSH2 0x1049 PUSH2 0x2AB8 SWAP3 PUSH2 0x414 JUMP JUMPDEST SWAP2 PUSH2 0x4D6 PUSH1 0x4 PUSH2 0x414 JUMP JUMPDEST SWAP1 CODESIZE PUSH2 0x2A5D JUMP JUMPDEST PUSH2 0x2AE5 SWAP2 PUSH2 0x1049 PUSH2 0x2ADA SWAP3 PUSH2 0x414 JUMP JUMPDEST SWAP2 PUSH2 0x4D6 PUSH1 0x8 PUSH2 0x414 JUMP JUMPDEST SWAP1 CODESIZE PUSH2 0x2A48 JUMP JUMPDEST PUSH2 0x2B07 SWAP2 PUSH2 0x1049 PUSH2 0x2AFC SWAP3 PUSH2 0x414 JUMP JUMPDEST SWAP2 PUSH2 0x4D6 PUSH1 0x10 PUSH2 0x414 JUMP JUMPDEST SWAP1 CODESIZE PUSH2 0x2A31 JUMP JUMPDEST PUSH2 0x2B29 SWAP2 PUSH2 0x1049 PUSH2 0x2B1E SWAP3 PUSH2 0x414 JUMP JUMPDEST SWAP2 PUSH2 0x4D6 PUSH1 0x20 PUSH2 0x414 JUMP JUMPDEST SWAP1 CODESIZE PUSH2 0x2A17 JUMP JUMPDEST PUSH2 0x2B4B SWAP2 PUSH2 0x1049 PUSH2 0x2B40 SWAP3 PUSH2 0x414 JUMP JUMPDEST SWAP2 PUSH2 0x4D6 PUSH1 0x40 PUSH2 0x414 JUMP JUMPDEST SWAP1 CODESIZE PUSH2 0x29F6 JUMP JUMPDEST PUSH4 0x80AC58CD PUSH1 0xE0 SHL PUSH1 0x1 PUSH1 0x1 PUSH1 0xE0 SHL SUB NOT DUP3 AND EQ SWAP1 DUP2 ISZERO PUSH2 0x2B82 JUMPI JUMPDEST DUP2 ISZERO PUSH2 0x2B78 JUMPI POP SWAP1 JUMP JUMPDEST PUSH2 0x350 SWAP2 POP PUSH2 0x2E61 JUMP JUMPDEST PUSH1 0x1 PUSH1 0x1 PUSH1 0xE0 SHL SUB NOT DUP2 AND PUSH4 0x5B5E139F PUSH1 0xE0 SHL EQ SWAP2 POP PUSH2 0x2B6E JUMP JUMPDEST PUSH1 0x0 SWAP2 PUSH2 0x2BA9 DUP4 PUSH2 0x1238 JUMP JUMPDEST SWAP2 PUSH2 0x2BB3 DUP4 PUSH2 0x38A JUMP JUMPDEST PUSH2 0x2BBC DUP3 PUSH2 0x38A JUMP JUMPDEST EQ PUSH2 0x2BFA JUMPI PUSH2 0x2BCC SWAP2 DUP4 SWAP2 PUSH2 0x1FCA JUMP JUMPDEST PUSH2 0x2BD8 PUSH2 0x1AE6 DUP4 PUSH2 0x38A JUMP JUMPDEST SUB PUSH2 0x2BE1 JUMPI POP POP JUMP JUMPDEST PUSH4 0x39E35637 PUSH1 0xE1 SHL DUP3 MSTORE DUP2 SWAP1 PUSH2 0xE47 SWAP1 PUSH1 0x4 DUP4 ADD PUSH2 0x3B6 JUMP JUMPDEST PUSH4 0x32505749 PUSH1 0xE1 SHL DUP5 MSTORE DUP4 DUP1 PUSH2 0xE47 DUP6 PUSH1 0x4 DUP4 ADD PUSH2 0x3B6 JUMP JUMPDEST SWAP1 PUSH2 0x2C66 PUSH2 0x2C20 DUP3 PUSH2 0x2616 JUMP JUMPDEST SWAP4 PUSH1 0x0 PUSH2 0x2C2C DUP2 PUSH2 0x1238 JUMP JUMPDEST SWAP2 DUP5 PUSH2 0x2C37 DUP5 PUSH2 0x38A JUMP JUMPDEST PUSH2 0x2C40 DUP4 PUSH2 0x38A JUMP JUMPDEST SUB PUSH2 0x2D30 JUMPI JUMPDEST POP POP PUSH2 0x2C51 DUP3 PUSH2 0x38A JUMP JUMPDEST PUSH2 0x2C5A DUP8 PUSH2 0x38A JUMP JUMPDEST SUB PUSH2 0x2CF5 JUMPI JUMPDEST POP PUSH2 0x38A JUMP JUMPDEST PUSH2 0x2C6F DUP4 PUSH2 0x38A JUMP JUMPDEST SUB PUSH2 0x2CC5 JUMPI JUMPDEST PUSH2 0x2C84 DUP3 PUSH2 0x264F DUP4 PUSH1 0x2 PUSH2 0x421 JUMP JUMPDEST PUSH2 0x2C93 PUSH2 0x1B5B PUSH2 0x20F7 DUP6 PUSH2 0xF50 JUMP JUMPDEST SWAP2 PUSH32 0xDDF252AD1BE2C89B69C2B068FC378DAA952BA7F163C4A11628F55A4DF523B3EF PUSH2 0x2CBE PUSH1 0x40 MLOAD SWAP1 JUMP JUMPDEST PUSH1 0x0 SWAP1 LOG4 SWAP1 JUMP JUMPDEST PUSH2 0x2CF0 PUSH2 0x2CD2 PUSH1 0x1 PUSH2 0x414 JUMP JUMPDEST PUSH2 0x2CEA PUSH2 0x2CE0 DUP6 PUSH1 0x3 PUSH2 0x130E JUMP JUMPDEST SWAP2 PUSH2 0x4D6 DUP4 PUSH2 0xD89 JUMP JUMPDEST SWAP1 PUSH2 0xF18 JUMP JUMPDEST PUSH2 0x2C75 JUMP JUMPDEST PUSH2 0x2D01 SWAP1 DUP3 DUP6 DUP2 PUSH2 0x262D JUMP JUMPDEST PUSH2 0x2D2A PUSH2 0x2D0E PUSH1 0x1 PUSH2 0x414 JUMP JUMPDEST PUSH2 0x2CEA PUSH2 0x2D1C DUP9 PUSH1 0x3 PUSH2 0x130E JUMP JUMPDEST SWAP2 PUSH2 0x2D26 DUP4 PUSH2 0xD89 JUMP JUMPDEST SUB SWAP1 JUMP JUMPDEST CODESIZE PUSH2 0x2C60 JUMP JUMPDEST PUSH2 0x2D3A SWAP2 DUP9 PUSH2 0x2E71 JUMP JUMPDEST CODESIZE DUP5 PUSH2 0x2C46 JUMP JUMPDEST PUSH2 0x259A PUSH2 0x2EB SWAP3 PUSH2 0x133D PUSH1 0x0 SWAP4 PUSH2 0x2D80 DUP6 PUSH2 0x259A PUSH2 0x2D5E DUP5 PUSH2 0x17E9 JUMP JUMPDEST SWAP6 PUSH1 0x7 DUP6 PUSH2 0x2D6F PUSH2 0x1342 DUP5 DUP5 PUSH2 0x421 JUMP JUMPDEST DUP10 DUP1 DUP3 SUB PUSH2 0x2D87 JUMPI JUMPDEST POP POP POP PUSH2 0x421 JUMP JUMPDEST PUSH1 0x6 PUSH2 0x130E JUMP JUMPDEST PUSH2 0x133D PUSH2 0x2DB4 DUP5 PUSH2 0x2590 DUP6 PUSH2 0x2DAA PUSH2 0x1342 PUSH2 0x2590 SWAP8 PUSH2 0x133D PUSH2 0x2DBA SWAP12 PUSH1 0x6 PUSH2 0x130E JUMP JUMPDEST SWAP5 DUP6 SWAP4 PUSH1 0x6 PUSH2 0x130E JUMP JUMPDEST DUP5 PUSH2 0x421 JUMP JUMPDEST DUP6 CODESIZE DUP10 PUSH2 0x2D78 JUMP JUMPDEST PUSH2 0x2EB SWAP1 PUSH2 0x2DDD PUSH2 0x2DD2 PUSH1 0x8 SLOAD SWAP1 JUMP JUMPDEST PUSH2 0x2590 DUP4 PUSH1 0x9 PUSH2 0x421 JUMP JUMPDEST PUSH1 0x8 PUSH2 0x259F JUMP JUMPDEST PUSH2 0x2590 DUP3 PUSH2 0x2E0C PUSH2 0x2EB SWAP5 PUSH2 0x2590 PUSH2 0x133D SWAP6 PUSH2 0x2E02 PUSH2 0x1477 DUP3 PUSH2 0x17E9 JUMP JUMPDEST SWAP7 DUP8 SWAP2 PUSH1 0x6 PUSH2 0x130E JUMP JUMPDEST PUSH1 0x7 PUSH2 0x421 JUMP JUMPDEST PUSH2 0x2595 PUSH2 0x2EB SWAP2 PUSH2 0x350 PUSH1 0x0 PUSH2 0x259A PUSH1 0x8 SWAP4 PUSH2 0x2E30 PUSH2 0x1477 DUP7 SLOAD SWAP1 JUMP JUMPDEST PUSH2 0x133D PUSH1 0x9 SWAP2 PUSH2 0x2590 PUSH2 0x2E53 PUSH2 0xC15 PUSH2 0x2E4C PUSH2 0x1342 DUP9 DUP9 PUSH2 0x421 JUMP JUMPDEST SWAP4 DUP12 PUSH2 0xBD5 JUMP JUMPDEST PUSH2 0x2DB4 DUP2 PUSH2 0x2584 DUP6 DUP14 PUSH2 0xBD5 JUMP JUMPDEST PUSH2 0xDD0 PUSH4 0x1FFC9A7 PUSH1 0xE0 SHL PUSH2 0xDC2 JUMP JUMPDEST SWAP1 PUSH2 0x2E80 PUSH2 0x2718 DUP5 DUP4 DUP6 PUSH2 0x2ED1 JUMP JUMPDEST PUSH2 0x2E89 JUMPI POP POP POP JUMP JUMPDEST PUSH1 0x0 SWAP3 DUP4 SWAP3 PUSH2 0x2E9D PUSH2 0x1AE6 PUSH2 0x13D1 DUP7 PUSH2 0x1238 JUMP JUMPDEST SUB PUSH2 0x2EBA JUMPI PUSH4 0x7E273289 PUSH1 0xE0 SHL DUP4 MSTORE PUSH1 0x4 DUP4 ADD MSTORE POP PUSH1 0x24 DUP2 ADD SUB SWAP1 REVERT JUMPDEST PUSH4 0x177E802F PUSH1 0xE0 SHL DUP4 MSTORE PUSH2 0xE47 SWAP2 PUSH1 0x4 DUP5 ADD PUSH2 0x12F3 JUMP JUMPDEST SWAP1 PUSH2 0x2EDF PUSH2 0x13D1 PUSH1 0x0 PUSH2 0x1238 JUMP JUMPDEST PUSH2 0x2EE8 DUP3 PUSH2 0x38A JUMP JUMPDEST EQ ISZERO SWAP3 DUP4 PUSH2 0x2EF6 JUMPI POP POP POP SWAP1 JUMP JUMPDEST SWAP1 SWAP2 SWAP3 POP PUSH2 0x2F03 DUP3 PUSH2 0x38A JUMP JUMPDEST PUSH2 0x2F0C DUP5 PUSH2 0x38A JUMP JUMPDEST EQ SWAP3 DUP4 ISZERO PUSH2 0x2F41 JUMPI JUMPDEST POP DUP3 ISZERO PUSH2 0x2F27 JUMPI JUMPDEST POP POP CODESIZE DUP1 DUP1 PUSH2 0x241A JUMP JUMPDEST PUSH2 0x2F39 SWAP2 SWAP3 POP PUSH2 0x24AA PUSH2 0x1AE6 SWAP2 PUSH2 0x1F09 JUMP JUMPDEST EQ CODESIZE DUP1 PUSH2 0x2F1D JUMP JUMPDEST PUSH2 0x2F4E SWAP2 SWAP4 POP DUP3 SWAP1 PUSH2 0x1E28 JUMP JUMPDEST SWAP2 CODESIZE PUSH2 0x2F15 JUMP INVALID LOG2 PUSH5 0x6970667358 0x22 SLT KECCAK256 0xAD 0xE4 0xDC 0xCA 0xD1 PUSH15 0x204DB7EC1619AFF4DBB715D87E1AAA SWAP4 SIGNEXTEND 0xD5 0x23 PUSH20 0x7E4E1672C8FB64736F6C634300081C0033000000 "},"methodIdentifiers":{"approve(address,uint256)":"095ea7b3","availableTokens(uint256)":"ad64d068","balanceOf(address)":"70a08231","baseURI()":"6c0360eb","buy(uint256)":"d96a094a","calculatePrice(uint256)":"ae104265","contractURI()":"e8a3d485","creator()":"02d05d3f","creatorFeePercent()":"53613dd3","currentSupply()":"771282f6","getAllAvailableTokens()":"12ea5c7e","getApproved(uint256)":"081812fc","getAvailableTokenByIndex(uint256)":"cf6a68bf","getAvailableTokensCount()":"2dcd52f2","getAvailableTokensPaginated(uint256,uint256)":"5eba096b","getBuyPrice()":"018a25e8","getBuyPriceAfterFee()":"4a8fe650","getSellPrice()":"43d32e9c","getSellPriceAfterFee()":"21a1c184","initialPrice()":"1d0806ae","isApprovedForAll(address,address)":"e985e9c5","isOnSale(uint256)":"f0f2805f","maxSupply()":"d5abeb01","mint()":"1249c58b","name()":"06fdde03","onERC721Received(address,address,uint256,bytes)":"150b7a02","owner()":"8da5cb5b","ownerOf(uint256)":"6352211e","renounceOwnership()":"715018a6","safeTransferFrom(address,address,uint256)":"42842e0e","safeTransferFrom(address,address,uint256,bytes)":"b88d4fde","sell(uint256)":"e4849b32","setApprovalForAll(address,bool)":"a22cb465","setBaseURI(string)":"55f804b3","setCreator(address)":"3f516018","supportsInterface(bytes4)":"01ffc9a7","symbol()":"95d89b41","tokenByIndex(uint256)":"4f6ccce7","tokenIndex(uint256)":"0583e9f8","tokenOfOwnerByIndex(address,uint256)":"2f745c59","tokenURI(uint256)":"c87b56dd","totalSupply()":"18160ddd","transferFrom(address,address,uint256)":"23b872dd","transferOwnership(address)":"f2fde38b"}}}}}