{"src/examples/FlipNFT.sol":{"FlipNFT":{"abi":[{"inputs":[{"internalType":"string","name":"_name","type":"string"},{"internalType":"string","name":"_symbol","type":"string"},{"internalType":"uint256","name":"_initialPrice","type":"uint256"},{"internalType":"uint256","name":"_maxSupply","type":"uint256"},{"internalType":"uint256","name":"_creatorFeePercent","type":"uint256"}],"stateMutability":"nonpayable","type":"constructor"},{"inputs":[],"name":"ERC721EnumerableForbiddenBatchMint","type":"error"},{"inputs":[{"internalType":"address","name":"sender","type":"address"},{"internalType":"uint256","name":"tokenId","type":"uint256"},{"internalType":"address","name":"owner","type":"address"}],"name":"ERC721IncorrectOwner","type":"error"},{"inputs":[{"internalType":"address","name":"operator","type":"address"},{"internalType":"uint256","name":"tokenId","type":"uint256"}],"name":"ERC721InsufficientApproval","type":"error"},{"inputs":[{"internalType":"address","name":"approver","type":"address"}],"name":"ERC721InvalidApprover","type":"error"},{"inputs":[{"internalType":"address","name":"operator","type":"address"}],"name":"ERC721InvalidOperator","type":"error"},{"inputs":[{"internalType":"address","name":"owner","type":"address"}],"name":"ERC721InvalidOwner","type":"error"},{"inputs":[{"internalType":"address","name":"receiver","type":"address"}],"name":"ERC721InvalidReceiver","type":"error"},{"inputs":[{"internalType":"address","name":"sender","type":"address"}],"name":"ERC721InvalidSender","type":"error"},{"inputs":[{"internalType":"uint256","name":"tokenId","type":"uint256"}],"name":"ERC721NonexistentToken","type":"error"},{"inputs":[{"internalType":"address","name":"owner","type":"address"},{"internalType":"uint256","name":"index","type":"uint256"}],"name":"ERC721OutOfBoundsIndex","type":"error"},{"inputs":[{"internalType":"address","name":"owner","type":"address"}],"name":"OwnableInvalidOwner","type":"error"},{"inputs":[{"internalType":"address","name":"account","type":"address"}],"name":"OwnableUnauthorizedAccount","type":"error"},{"anonymous":false,"inputs":[{"indexed":true,"internalType":"address","name":"owner","type":"address"},{"indexed":true,"internalType":"address","name":"approved","type":"address"},{"indexed":true,"internalType":"uint256","name":"tokenId","type":"uint256"}],"name":"Approval","type":"event"},{"anonymous":false,"inputs":[{"indexed":true,"internalType":"address","name":"owner","type":"address"},{"indexed":true,"internalType":"address","name":"operator","type":"address"},{"indexed":false,"internalType":"bool","name":"approved","type":"bool"}],"name":"ApprovalForAll","type":"event"},{"anonymous":false,"inputs":[{"indexed":true,"internalType":"address","name":"previousOwner","type":"address"},{"indexed":true,"internalType":"address","name":"newOwner","type":"address"}],"name":"OwnershipTransferred","type":"event"},{"anonymous":false,"inputs":[{"indexed":true,"internalType":"address","name":"buyer","type":"address"},{"indexed":true,"internalType":"uint256","name":"tokenId","type":"uint256"},{"indexed":false,"internalType":"uint256","name":"price","type":"uint256"},{"indexed":false,"internalType":"uint256","name":"creatorFee","type":"uint256"}],"name":"TokenBought","type":"event"},{"anonymous":false,"inputs":[{"indexed":true,"internalType":"address","name":"to","type":"address"},{"indexed":true,"internalType":"uint256","name":"tokenId","type":"uint256"},{"indexed":false,"internalType":"uint256","name":"price","type":"uint256"},{"indexed":false,"internalType":"uint256","name":"creatorFee","type":"uint256"}],"name":"TokenMinted","type":"event"},{"anonymous":false,"inputs":[{"indexed":true,"internalType":"address","name":"seller","type":"address"},{"indexed":true,"internalType":"uint256","name":"tokenId","type":"uint256"},{"indexed":false,"internalType":"uint256","name":"price","type":"uint256"},{"indexed":false,"internalType":"uint256","name":"creatorFee","type":"uint256"}],"name":"TokenSold","type":"event"},{"anonymous":false,"inputs":[{"indexed":true,"internalType":"address","name":"from","type":"address"},{"indexed":true,"internalType":"address","name":"to","type":"address"},{"indexed":true,"internalType":"uint256","name":"tokenId","type":"uint256"}],"name":"Transfer","type":"event"},{"inputs":[{"internalType":"address","name":"to","type":"address"},{"internalType":"uint256","name":"tokenId","type":"uint256"}],"name":"approve","outputs":[],"stateMutability":"nonpayable","type":"function"},{"inputs":[{"internalType":"uint256","name":"","type":"uint256"}],"name":"availableTokens","outputs":[{"internalType":"uint256","name":"","type":"uint256"}],"stateMutability":"view","type":"function"},{"inputs":[{"internalType":"address","name":"owner","type":"address"}],"name":"balanceOf","outputs":[{"internalType":"uint256","name":"","type":"uint256"}],"stateMutability":"view","type":"function"},{"inputs":[],"name":"baseURI","outputs":[{"internalType":"string","name":"","type":"string"}],"stateMutability":"view","type":"function"},{"inputs":[{"internalType":"uint256","name":"tokenId","type":"uint256"}],"name":"buy","outputs":[],"stateMutability":"payable","type":"function"},{"inputs":[{"internalType":"uint256","name":"supply","type":"uint256"}],"name":"calculatePrice","outputs":[{"internalType":"uint256","name":"","type":"uint256"}],"stateMutability":"view","type":"function"},{"inputs":[],"name":"contractURI","outputs":[{"internalType":"string","name":"","type":"string"}],"stateMutability":"view","type":"function"},{"inputs":[],"name":"creator","outputs":[{"internalType":"address","name":"","type":"address"}],"stateMutability":"view","type":"function"},{"inputs":[],"name":"creatorFeePercent","outputs":[{"internalType":"uint256","name":"","type":"uint256"}],"stateMutability":"view","type":"function"},{"inputs":[],"name":"currentSupply","outputs":[{"internalType":"uint256","name":"","type":"uint256"}],"stateMutability":"view","type":"function"},{"inputs":[],"name":"getAllAvailableTokens","outputs":[{"internalType":"uint256[]","name":"","type":"uint256[]"}],"stateMutability":"view","type":"function"},{"inputs":[{"internalType":"uint256","name":"tokenId","type":"uint256"}],"name":"getApproved","outputs":[{"internalType":"address","name":"","type":"address"}],"stateMutability":"view","type":"function"},{"inputs":[{"internalType":"uint256","name":"index","type":"uint256"}],"name":"getAvailableTokenByIndex","outputs":[{"internalType":"uint256","name":"","type":"uint256"}],"stateMutability":"view","type":"function"},{"inputs":[],"name":"getAvailableTokensCount","outputs":[{"internalType":"uint256","name":"","type":"uint256"}],"stateMutability":"view","type":"function"},{"inputs":[{"internalType":"uint256","name":"start","type":"uint256"},{"internalType":"uint256","name":"limit","type":"uint256"}],"name":"getAvailableTokensPaginated","outputs":[{"internalType":"uint256[]","name":"","type":"uint256[]"}],"stateMutability":"view","type":"function"},{"inputs":[],"name":"getBuyPrice","outputs":[{"internalType":"uint256","name":"","type":"uint256"}],"stateMutability":"view","type":"function"},{"inputs":[],"name":"getBuyPriceAfterFee","outputs":[{"internalType":"uint256","name":"","type":"uint256"}],"stateMutability":"view","type":"function"},{"inputs":[],"name":"getSellPrice","outputs":[{"internalType":"uint256","name":"","type":"uint256"}],"stateMutability":"view","type":"function"},{"inputs":[],"name":"getSellPriceAfterFee","outputs":[{"internalType":"uint256","name":"","type":"uint256"}],"stateMutability":"view","type":"function"},{"inputs":[],"name":"initialPrice","outputs":[{"internalType":"uint256","name":"","type":"uint256"}],"stateMutability":"view","type":"function"},{"inputs":[{"internalType":"address","name":"owner","type":"address"},{"internalType":"address","name":"operator","type":"address"}],"name":"isApprovedForAll","outputs":[{"internalType":"bool","name":"","type":"bool"}],"stateMutability":"view","type":"function"},{"inputs":[{"internalType":"uint256","name":"tokenId","type":"uint256"}],"name":"isOnSale","outputs":[{"internalType":"bool","name":"","type":"bool"}],"stateMutability":"view","type":"function"},{"inputs":[],"name":"maxSupply","outputs":[{"internalType":"uint256","name":"","type":"uint256"}],"stateMutability":"view","type":"function"},{"inputs":[],"name":"mint","outputs":[{"internalType":"uint256","name":"","type":"uint256"}],"stateMutability":"payable","type":"function"},{"inputs":[],"name":"name","outputs":[{"internalType":"string","name":"","type":"string"}],"stateMutability":"view","type":"function"},{"inputs":[{"internalType":"address","name":"","type":"address"},{"internalType":"address","name":"","type":"address"},{"internalType":"uint256","name":"","type":"uint256"},{"internalType":"bytes","name":"","type":"bytes"}],"name":"onERC721Received","outputs":[{"internalType":"bytes4","name":"","type":"bytes4"}],"stateMutability":"nonpayable","type":"function"},{"inputs":[],"name":"owner","outputs":[{"internalType":"address","name":"","type":"address"}],"stateMutability":"view","type":"function"},{"inputs":[{"internalType":"uint256","name":"tokenId","type":"uint256"}],"name":"ownerOf","outputs":[{"internalType":"address","name":"","type":"address"}],"stateMutability":"view","type":"function"},{"inputs":[],"name":"renounceOwnership","outputs":[],"stateMutability":"nonpayable","type":"function"},{"inputs":[{"internalType":"address","name":"from","type":"address"},{"internalType":"address","name":"to","type":"address"},{"internalType":"uint256","name":"tokenId","type":"uint256"}],"name":"safeTransferFrom","outputs":[],"stateMutability":"nonpayable","type":"function"},{"inputs":[{"internalType":"address","name":"from","type":"address"},{"internalType":"address","name":"to","type":"address"},{"internalType":"uint256","name":"tokenId","type":"uint256"},{"internalType":"bytes","name":"data","type":"bytes"}],"name":"safeTransferFrom","outputs":[],"stateMutability":"nonpayable","type":"function"},{"inputs":[{"internalType":"uint256","name":"tokenId","type":"uint256"}],"name":"sell","outputs":[],"stateMutability":"nonpayable","type":"function"},{"inputs":[{"internalType":"address","name":"operator","type":"address"},{"internalType":"bool","name":"approved","type":"bool"}],"name":"setApprovalForAll","outputs":[],"stateMutability":"nonpayable","type":"function"},{"inputs":[{"internalType":"string","name":"_baseURI","type":"string"}],"name":"setBaseURI","outputs":[],"stateMutability":"nonpayable","type":"function"},{"inputs":[{"internalType":"address","name":"_creator","type":"address"}],"name":"setCreator","outputs":[],"stateMutability":"nonpayable","type":"function"},{"inputs":[{"internalType":"bytes4","name":"interfaceId","type":"bytes4"}],"name":"supportsInterface","outputs":[{"internalType":"bool","name":"","type":"bool"}],"stateMutability":"view","type":"function"},{"inputs":[],"name":"symbol","outputs":[{"internalType":"string","name":"","type":"string"}],"stateMutability":"view","type":"function"},{"inputs":[{"internalType":"uint256","name":"index","type":"uint256"}],"name":"tokenByIndex","outputs":[{"internalType":"uint256","name":"","type":"uint256"}],"stateMutability":"view","type":"function"},{"inputs":[{"internalType":"uint256","name":"","type":"uint256"}],"name":"tokenIndex","outputs":[{"internalType":"uint256","name":"","type":"uint256"}],"stateMutability":"view","type":"function"},{"inputs":[{"internalType":"address","name":"owner","type":"address"},{"internalType":"uint256","name":"index","type":"uint256"}],"name":"tokenOfOwnerByIndex","outputs":[{"internalType":"uint256","name":"","type":"uint256"}],"stateMutability":"view","type":"function"},{"inputs":[{"internalType":"uint256","name":"","type":"uint256"}],"name":"tokenSeed","outputs":[{"internalType":"uint256","name":"","type":"uint256"}],"stateMutability":"view","type":"function"},{"inputs":[{"internalType":"uint256","name":"tokenId","type":"uint256"}],"name":"tokenURI","outputs":[{"internalType":"string","name":"","type":"string"}],"stateMutability":"view","type":"function"},{"inputs":[],"name":"totalSupply","outputs":[{"internalType":"uint256","name":"","type":"uint256"}],"stateMutability":"view","type":"function"},{"inputs":[{"internalType":"address","name":"from","type":"address"},{"internalType":"address","name":"to","type":"address"},{"internalType":"uint256","name":"tokenId","type":"uint256"}],"name":"transferFrom","outputs":[],"stateMutability":"nonpayable","type":"function"},{"inputs":[{"internalType":"address","name":"newOwner","type":"address"}],"name":"transferOwnership","outputs":[],"stateMutability":"nonpayable","type":"function"},{"stateMutability":"payable","type":"receive"}],"evm":{"bytecode":{"linkReferences":{},"object":"60806040523461002e5761001d610014610171565b93929092610196565b604051613eed610bbd8239613eed90f35b600080fd5b634e487b7160e01b600052604160045260246000fd5b90601f01601f191681019081106001600160401b0382111761006a57604052565b610033565b9061008361007c60405190565b9283610049565b565b6001600160401b03811161006a57602090601f01601f19160190565b60005b8381106100b45750506000910152565b81810151838201526020016100a4565b909291926100d96100d482610085565b61006f565b938185528183011161002e576100839160208501906100a1565b9080601f8301121561002e57815161010d926020016100c4565b90565b919060a08382031261002e5782516001600160401b03811161002e57816101389185016100f3565b60208401519093906001600160401b03811161002e578261015a9183016100f3565b604082015160608301516080909301519194909350565b61018f614aaa803803806101848161006f565b928339810190610110565b9091929394565b906100839493929161089b565b6001600160401b03811161006a5760200290565b6100d461010d916101a3565b906101d06100d483610085565b918252565b6101df60076101c3565b660233030303030360cc1b602082015290565b61010d6101d5565b61020460076101c3565b6611a3232323232360c91b602082015290565b61010d6101fa565b61022960076101c3565b660234646303030360cc1b602082015290565b61010d61021f565b61024e60076101c3565b660233030464630360cc1b602082015290565b61010d610244565b61027360076101c3565b661198181818232360c91b602082015290565b61010d610269565b61029860076101c3565b660234646464630360cc1b602082015290565b61010d61028e565b6102bd60076101c3565b6611a3231818232360c91b602082015290565b61010d6102b3565b6102e260076101c3565b661198182323232360c91b602082015290565b61010d6102d8565b61030760076101c3565b660234646413530360cc1b602082015290565b61010d6102fd565b61032c60076101c3565b660233830303038360cc1b602082015290565b61010d610322565b61035160076101c3565b660233030383030360cc1b602082015290565b61010d610347565b61037660076101c3565b660233830303030360cc1b602082015290565b61010d61036c565b61039b60076101c3565b660233830383030360cc1b602082015290565b61010d610391565b6103c060076101c3565b660233030383038360cc1b602082015290565b61010d6103b6565b6103e560076101c3565b660234330433043360cc1b602082015290565b61010d6103db565b61040a60076101c3565b660233830383038360cc1b602082015290565b61010d610400565b634e487b7160e01b600052600060045260246000fd5b634e487b7160e01b600052602260045260246000fd5b9060016002830492168015610471575b602083101461046c57565b61043b565b91607f1691610461565b9061048e90600019906020036008021c90565b8154169055565b9160001960089290920291821b911b5b9181191691161790565b61010d61010d61010d9290565b91906104cd61010d6104d5936104af565b908354610495565b9055565b610083916000916104bc565b8181106104f0575050565b806104fe60006001936104d9565b016104e5565b9060009161052f61051a82600052602060002090565b928354600019600883021c1916906002021790565b905555565b919290602082101561059957601f8411600114610563576104d5929350600019600883021c1916906002021790565b509061059461008393600161058b61058085600052602060002090565b92601f602091010490565b820191016104e5565b610504565b506105d982936105b0600194600052602060002090565b6105d26020601f860104820192601f8616806105e1575b50601f602091010490565b01906104e5565b600202179055565b6105ed9088860361047b565b386105c7565b92909168010000000000000000821161006a576020111561064c57602081101561062d576104d591600019600883021c1916906002021790565b60019160ff191661064384600052602060002090565b55600202019055565b60019150600202019055565b90815461066481610451565b9081831161068d575b81831061067b575b50505050565b61068493610534565b38808080610675565b610699838383876105f3565b61066d565b600061008391610658565b906000036106ba576100839061069e565b610425565b8181106106ca575050565b806106d860006001936106a9565b016106bf565b9190918282106106ed57505050565b6100839291906106fc565b9190565b91820191016106bf565b9068010000000000000000811161006a57610083916010906106de565b9190601f811161073257505050565b61074461008393600052602060002090565b906020601f840181900483019310610764575b6020601f909101046105d2565b9091508190610757565b90610777815190565b906001600160401b03821161006a5761079a826107948554610451565b85610723565b602090601f83116001146107d5576104d59291600091836107ca575b5050600019600883021c1916906002021790565b0151905038806107b6565b601f198316916107ea85600052602060002090565b9260005b8181106108285750916002939185600196941061080f575b50505002019055565b01516000196008601f8516021c19169055388080610806565b919360206001819287870151815501950192016107ee565b906100839161076e565b61085d6106f860109361010d8585610706565b6000915b83831061086e5750505050565b600160208261088561087f84955190565b86610840565b01920192019190610861565b906100839161084a565b906108a8949392916109e1565b6100836108b560106101b7565b6108c46108c06101f2565b8252565b6108d66108cf610217565b6020830152565b6108e86108e161023c565b6040830152565b6108fa6108f3610261565b6060830152565b61090c610905610286565b6080830152565b61091e6109176102ab565b60a0830152565b6109306109296102d0565b60c0830152565b61094261093b6102f5565b60e0830152565b61095561094d61031a565b610100830152565b61096861096061033f565b610120830152565b61097b610973610364565b610140830152565b61098e610986610389565b610160830152565b6109a16109996103ae565b610180830152565b6109b46109ac6103d3565b6101a0830152565b6109c76109bf6103f8565b6101c0830152565b6109da6109d261041d565b6101e0830152565b6014610891565b610083948594859433929190610a6b565b90600019906104a5565b90610a0c61010d6104d5926104af565b82546109f2565b906001600160a01b03906104a5565b61010d90610a36906001600160a01b031682565b6001600160a01b031690565b61010d90610a22565b61010d90610a42565b90610a6461010d6104d592610a4b565b8254610a13565b610a81610a9696610a88939496610a8f96610aa1565b600b6109fc565b600c6109fc565b600d6109fc565b61008333600e610a54565b906100839291610adf565b610a3661010d61010d9290565b61010d90610aac565b610acb90610a36565b9052565b6020810192916100839190610ac2565b91610ae991610b33565b6000610af481610ab9565b610afd81610a36565b610b0684610a36565b14610b1657505061008390610b65565b631e4fbdf760e01b82528190610b2f9060048301610acf565b0390fd5b61008391829182918291829190610b4b906000610840565b6001610840565b61010d90610a36565b61010d9054610b52565b610b8b610b85610b75600a610b5b565b610b8084600a610a54565b610a4b565b91610a4b565b907f8be0079c531659141344cd1fd0a4f28419497f9722a3daafe3b4186f6b6457e0610bb660405190565b600090a356fe6080604052600436101561001b575b361561001957600080fd5b005b60003560e01c8063018a25e8146102eb57806301ffc9a7146102e657806302d05d3f146102e15780630583e9f8146102dc57806306fdde03146102d7578063081812fc146102d2578063095ea7b3146102cd5780631249c58b146102c857806312ea5c7e146102c3578063150b7a02146102be57806318160ddd146102b95780631d0806ae146102b457806321a1c184146102af57806323b872dd146102aa5780632dcd52f2146102a55780632f745c59146102a05780633f5160181461029b57806342842e0e1461029657806343d32e9c146102915780634a8fe6501461028c5780634f6ccce71461028757806353613dd31461028257806355f804b31461027d5780635eba096b146102785780635f516836146102735780636352211e1461026e5780636c0360eb1461026957806370a0823114610264578063715018a61461025f578063771282f61461025a5780638da5cb5b1461025557806395d89b4114610250578063a22cb4651461024b578063ad64d06814610246578063ae10426514610241578063b88d4fde1461023c578063c87b56dd14610237578063cf6a68bf14610232578063d5abeb011461022d578063d96a094a14610228578063e4849b3214610223578063e8a3d4851461021e578063e985e9c514610219578063f0f2805f146102145763f2fde38b0361000e57610dae565b610d93565b610d77565b610d39565b610d21565b610d0e565b610cf3565b610ccc565b610cb1565b610c95565b610c7a565b610c5f565b610bea565b610b97565b610b7c565b610b61565b610b3d565b610b22565b610b07565b6109c5565b6109aa565b61097e565b61094a565b610909565b6108e2565b6108c7565b6108ac565b610893565b61087b565b61084b565b61082f565b610816565b6107d2565b6107b7565b61078f565b610755565b61061a565b61059d565b61057f565b61052b565b610504565b61047d565b6103df565b61036c565b610306565b60009103126102fb57565b600080fd5b9052565b565b346102fb576103163660046102f0565b610331610321610dd7565b6040519182918290815260200190565b0390f35b6001600160e01b031981165b036102fb57565b9050359061030482610335565b906020828203126102fb5761036991610348565b90565b346102fb57610331610387610382366004610355565b610de4565b6040515b91829182901515815260200190565b610369916008021c5b6001600160a01b031690565b90610369915461039a565b6103696000600e6103af565b610300906103a3565b60208101929161030491906103c6565b346102fb576103ef3660046102f0565b6103316103fa6103ba565b604051918291826103cf565b80610341565b9050359061030482610406565b906020828203126102fb576103699161040c565b6103696103696103699290565b906104449061042d565b600052602052604060002090565b610369916008021c81565b906103699154610452565b600061047861036992601161043a565b61045d565b346102fb57610331610321610493366004610419565b610468565b60005b8381106104ab5750506000910152565b818101518382015260200161049b565b6104dc6104e56020936104ef936104d0815190565b80835293849260200190565b95869101610498565b601f01601f191690565b0190565b6020808252610369929101906104bb565b346102fb576105143660046102f0565b61033161051f610e21565b604051918291826104f3565b346102fb576103316103fa610541366004610419565b610e2b565b610341816103a3565b9050359061030482610546565b91906040838203126102fb57610369906020610578828661054f565b940161040c565b346102fb5761059861059236600461055c565b90610e3e565b604051005b6105a83660046102f0565b610331610321610e9c565b906105d36105cc6105c2845190565b8084529260200190565b9260200190565b9060005b8181106105e45750505090565b9091926106016105fa6001928651815260200190565b9460200190565b9291016105d7565b6020808252610369929101906105b3565b346102fb5761062a3660046102f0565b610331610635610f5b565b60405191829182610609565b634e487b7160e01b600052604160045260246000fd5b90601f01601f1916810190811067ffffffffffffffff82111761067957604052565b610641565b9061030461068b60405190565b9283610657565b67ffffffffffffffff811161067957602090601f01601f19160190565b90826000939282370152565b909291926106d06106cb82610692565b61067e565b93818552818301116102fb576103049160208501906106af565b9080601f830112156102fb57816020610369933591016106bb565b906080828203126102fb5761071a818361054f565b92610728826020850161054f565b92610736836040830161040c565b92606082013567ffffffffffffffff81116102fb5761036992016106ea565b346102fb5761033161077461076b366004610705565b92919091610fa8565b604051918291826001600160e01b0319909116815260200190565b346102fb5761079f3660046102f0565b61033161032160085490565b6103696000600b61045d565b346102fb576107c73660046102f0565b6103316103216107ab565b346102fb576107e23660046102f0565b610331610321611012565b90916060828403126102fb57610369610806848461054f565b936040610578826020870161054f565b346102fb576105986108293660046107ed565b91611094565b346102fb5761083f3660046102f0565b61033161032160105490565b346102fb5761033161032161086136600461055c565b9061114e565b906020828203126102fb576103699161054f565b346102fb5761059861088e366004610867565b611264565b346102fb576105986108a63660046107ed565b91611291565b346102fb576108bc3660046102f0565b6103316103216112a5565b346102fb576108d73660046102f0565b6103316103216112e9565b346102fb576103316103216108f8366004610419565b611304565b6103696000600d61045d565b346102fb576109193660046102f0565b6103316103216108fd565b906020828203126102fb57813567ffffffffffffffff81116102fb5761036992016106ea565b346102fb5761059861095d366004610924565b6114f0565b91906040838203126102fb57610369906020610578828661040c565b346102fb57610331610635610994366004610962565b906115ac565b600061047861036992601361043a565b346102fb576103316103216109c0366004610419565b61099a565b346102fb576103316103fa6109db366004610419565b61163b565b634e487b7160e01b600052600060045260246000fd5b634e487b7160e01b600052602260045260246000fd5b9060016002830492168015610a2c575b6020831014610a2757565b6109f6565b91607f1691610a1c565b80546000939291610a53610a4983610a0c565b8085529360200190565b9160018116908115610aa55750600114610a6c57505050565b610a7f9192939450600052602060002090565b916000925b818410610a915750500190565b805484840152602090930192600101610a84565b92949550505060ff1916825215156020020190565b9061036991610a36565b90610304610ade92610ad560405190565b93848092610aba565b0383610657565b90600010610af65761036990610ac4565b6109e0565b61036960006012610ae5565b346102fb57610b173660046102f0565b61033161051f610afb565b346102fb57610331610321610b38366004610867565b611644565b346102fb57610b4d3660046102f0565b6105986116ac565b6103696000600f61045d565b346102fb57610b713660046102f0565b610331610321610b55565b346102fb57610b8c3660046102f0565b6103316103fa6116b4565b346102fb57610ba73660046102f0565b61033161051f6116be565b801515610341565b9050359061030482610bb2565b91906040838203126102fb57610369906020610be3828661054f565b9401610bba565b346102fb57610598610bfd366004610bc7565b906116c8565b634e487b7160e01b600052603260045260246000fd5b8054821015610c3c57610c33600191600052602060002090565b91020190600090565b610c03565b6010548110156102fb57610c59610369916010610c19565b9061045d565b346102fb57610331610321610c75366004610419565b610c41565b346102fb57610331610321610c90366004610419565b6116d3565b346102fb57610598610ca8366004610705565b92919091611764565b346102fb5761033161051f610cc7366004610419565b61186a565b346102fb57610331610321610ce2366004610419565b611923565b6103696000600c61045d565b346102fb57610d033660046102f0565b610331610321610ce7565b610598610d1c366004610419565b611b67565b346102fb57610598610d34366004610419565b611d73565b346102fb57610d493660046102f0565b61033161051f611e50565b91906040838203126102fb57610369906020610d70828661054f565b940161054f565b346102fb57610331610387610d8d366004610d54565b90611e94565b346102fb57610331610387610da9366004610419565b611eb9565b346102fb57610598610dc1366004610867565b611f23565b6103699081565b6103699054610dc6565b610369610c90600f610dcd565b610ded81611f2c565b908115610df8575090565b9050610e14632fa757f360e01b5b916001600160e01b03191690565b1490565b61036990610ac4565b6103696000610e18565b61036990610e3881611f35565b50611f75565b610304913391611f91565b634e487b7160e01b600052601160045260246000fd5b91908201809211610e6c57565b610e49565b90600019905b9181191691161790565b90610e91610369610e989261042d565b8254610e71565b9055565b610eb8610ea860085490565b610eb2600161042d565b90610e5f565b610ec0611fdf565b50610369610ecf82601361043a565b4290610e81565b90610ef1610ee56105c2845490565b92600052602060002090565b9060005b818110610f025750505090565b909192610f26610f1f600192610f1787610dcd565b815260200190565b9460010190565b929101610ef5565b9061036991610ed6565b90610304610ade92610f4960405190565b93848092610f2e565b61036990610f38565b6103696010610f52565b610369906103a3906001600160a01b031682565b61036990610f65565b610f9b610f956103699263ffffffff1690565b60e01b90565b6001600160e01b03191690565b50505050610fb4600090565b5061036963150b7a02610f82565b81810292918115918404141715610e6c57565b634e487b7160e01b600052601260045260246000fd5b90610ff5565b9190565b908115611000570490565b610fd5565b91908203918211610e6c57565b61036961101d6112a5565b61104a61103361102d600d610dcd565b83610fc2565b611044670de0b6b3a764000061042d565b90610feb565b90611005565b6103a36103696103699290565b61036990611050565b60409061108d6103049496959396611086606084019860008501906103c6565b6020830152565b01906103c6565b90916000926110a28461105d565b6110ab816103a3565b6110b4836103a3565b1461110357506110c690823391612099565b916110d0816103a3565b6110d9846103a3565b036110e45750505050565b6364283d7b60e01b845283926110ff92909160048501611066565b0390fd5b846110ff8192633250574960e11b8352600483016103cf565b916020610304929493611137604082019660008301906103c6565b0152565b61036990610f79565b906104449061113b565b61115a61036982611644565b82101561117d5761036991611173611178926006611144565b61043a565b610dcd565b63295f44f760e21b60009081529161119691600461111c565b036000fd5b610369906103a3565b610369905461119b565b156111b557565b60405162461bcd60e51b815260206004820152602360248201527f4f6e6c792063726561746f722063616e2063616c6c20746869732066756e637460448201526234b7b760e91b6064820152608490fd5b6103049061122e61121f61121a600e6111a4565b6103a3565b611228336103a3565b146111ae565b611259565b906001600160a01b0390610e77565b90611252610369610e989261113b565b8254611233565b61030490600e611242565b61030490611206565b9061127a6106cb83610692565b918252565b610369600061126d565b61036961127f565b90916103049261129f611289565b92611764565b6112af600f610dcd565b6112bc610ff1600061042d565b11156112dc57610369610c906112d2600f610dcd565b61104a600161042d565b610369610c90600061042d565b6103696112f4610dd7565b610eb261103361102d600d610dcd565b61131061036960085490565b81101561132557610c59610369916008610c19565b6110ff9060009182916113378361105d565b63295f44f760e21b84526004840161111c565b6103049061135e61121f61121a600e6111a4565b6114e5565b9160001960089290920291821b911b610e77565b9190611388610369610e989361042d565b908354611363565b61030491600091611377565b8181106113a7575050565b806113b56000600193611390565b0161139c565b9190601f81116113ca57505050565b6113dc61030493600052602060002090565b906020601f8401819004830193106113fe575b6020601f90910104019061139c565b90915081906113ef565b90611411815190565b9067ffffffffffffffff8211610679576114358261142f8554610a0c565b856113bb565b602090601f831160011461147057610e98929160009183611465575b5050600019600883021c1916906002021790565b015190503880611451565b601f1983169161148585600052602060002090565b9260005b8181106114c3575091600293918560019694106114aa575b50505002019055565b01516000196008601f8516021c191690553880806114a1565b91936020600181928787015181550195019201611489565b9061030491611408565b6103049060126114db565b6103049061134a565b1561150057565b60405162461bcd60e51b815260206004820152601960248201527f537461727420696e646578206f7574206f6620626f756e6473000000000000006044820152606490fd5b67ffffffffffffffff81116106795760208091020190565b9061127a6106cb83611545565b369037565b9061030461158561157f8461155d565b93611545565b601f19016020840161156a565b9061159b825190565b811015610c3c576020809102010190565b916115d96115d16010936115cb6115c4610369875490565b87106114f9565b85610e5f565b8354906120a4565b916115ec6115e78585611005565b61156f565b91845b845b8110156116325761162b8161162561160f610c596115f19588610c19565b61162261161c8b85611005565b89611592565b52565b60010190565b90506115ef565b50935050905090565b61036990611f35565b600061164f8161105d565b611658816103a3565b611661846103a3565b14611676575050611178610369916003611144565b6322718ad960e21b825281906110ff90600483016103cf565b6116976120b6565b6103046103046116a7600061105d565b6120ed565b61030461168f565b610369600a6111a4565b6103696001610e18565b610304919033612166565b6116dd600061042d565b81146117595761036990610eb26116f4600b610dcd565b9161171b61174461173a61173a611749611721611711600b610dcd565b61171b600261042d565b90610fc2565b61171b61174461173a89611735606461042d565b610fc2565b611044600c610dcd565b61222a565b946117358161173561271061042d565b50610369600b610dcd565b90610304939291611776838383611094565b612384565b01918252565b6103699061042d565b6104ef6117a29260209261179c815190565b94859290565b93849101610498565b7f7b226465736372697074696f6e223a2022466c69704e4654206973207468652081527f666972737420426f6e64696e67204375727665204e46542e222c2022696d616760208201527f65223a2022646174613a696d6167652f7376672b786d6c3b6261736536342c0060408201526103699161182c91605f015b9061178a565b61227d60f01b815260020190565b7f646174613a6170706c69636174696f6e2f6a736f6e3b6261736536342c00000081526103699190601d01611826565b6119076118e66103696118eb6118e66103696118e16118bd6118c961036999611891606090565b506118a061117882601361043a565b60405193849260208401928360208161177b6104ef938396959052565b90810382520382610657565b6118db6118d4825190565b9160200190565b20611781565b612625565b6128c8565b6103696118f760405190565b80926118bd6020830191826117ab565b61036961191360405190565b80926118bd60208301918261183a565b610c5961036991611932600090565b506010610c19565b1561194157565b60405162461bcd60e51b815260206004820152601f60248201527f546f6b656e206973206e6f7420617661696c61626c6520666f722073616c65006044820152606490fd5b610304906119b16119968261163b565b6119ab6119a561121a3061113b565b916103a3565b1461193a565b611a78565b156119bd57565b60405162461bcd60e51b8152602060048201526014602482015273125b9cdd59999a58da595b9d081c185e5b595b9d60621b6044820152606490fd5b6000198114610e6c5760010190565b9081526040810192916103049160200152565b3d15611a3557611a2a3d61126d565b903d6000602084013e565b606090565b15611a4157565b60405162461bcd60e51b815260206004820152600f60248201526e151c985b9cd9995c8819985a5b1959608a1b6044820152606490fd5b611b6261030491611a87610dd7565b611a9761103361102d600d610dcd565b91611ab0611aa86103698585610e5f565b3410156119b6565b611ac481611abd3061113b565b33906129c5565b611acd81612a88565b611ae9611ae2611add600f610dcd565b6119f9565b600f610e81565b611afb611af53361113b565b9161042d565b907f884543c08d36fb5c9b3b688dd0453c9f287199124bdbddb3b7f9ca885a4d34a0611b2660405190565b80611b32878783611a08565b0390a3611b5d600080611b45600e6111a4565b60405160009187905af1611b57611a1b565b50611a3a565b610e5f565b612b2b565b61030490611986565b15611b7757565b60405162461bcd60e51b815260206004820152601360248201527221b0b63632b91034b9903737ba1037bbb732b960691b6044820152606490fd5b61030490611bd4611bc28261163b565b611bce6119a5336103a3565b14611b70565b611c7e565b8015610e6c576000190190565b15611bed57565b60405162461bcd60e51b815260206004820152601960248201527f5472616e7366657220746f2073656c6c6572206661696c6564000000000000006044820152606490fd5b15611c3957565b60405162461bcd60e51b815260206004820152601a60248201527f5472616e7366657220746f2063726561746f72206661696c65640000000000006044820152606490fd5b60008061030492611d4a8280611c926112a5565b93611d32611cac611033611ca6600d610dcd565b88610fc2565b8096611cb53390565b93611cc981611cc33061113b565b876129c5565b611cd281612b9d565b611ce7611ae2611ce2600f610dcd565b611bd9565b611cf3611af58661113b565b907f8323bebb324b6e1a1d4886a1f210640461bb275263dae69967f001d053ab0b2b611d1e60405190565b80611d2a878783611a08565b0390a3611005565b60405190818003925af1611d44611a1b565b50611be6565b611d54600e6111a4565b90611d5e60405190565b90818003925af1611d6d611a1b565b50611c32565b61030490611bb2565b6103699054610a0c565b80546000939291611d9d611d9983610a0c565b9390565b9160018116908115611dee5750600114611db657505050565b611dc99192939450600052602060002090565b6000905b838210611dda5750500190565b600181602092548486015201910190611dcd565b60ff191683525050811515909102019150565b611e0d90601092611d86565b6f17b1b7b63632b1ba34b7b7173539b7b760811b81520190565b90610304611e3460405190565b8093611e44602083019182611e01565b90810382520383610657565b611e5a6012611d7c565b611e67610ff1600061042d565b1115611e77576103696012611e27565b610369611289565b610369905b60ff1690565b6103699054611e7f565b61036991611eaf611eb492611ea7600090565b506005611144565b611144565b611e8a565b611ec29061163b565b610e146119a561121a3061113b565b61030490611edd6120b6565b6000611ee88161105d565b611ef1816103a3565b611efa846103a3565b14611f0a575050610304906120ed565b631e4fbdf760e01b825281906110ff90600483016103cf565b61030490611ed1565b61036990612bc3565b611f3e81612bec565b90600090611f4e61121a8361105d565b611f57846103a3565b14611f6157505090565b637e27328960e01b82526004820152602490fd5b611f8c61036991611f84600090565b50600461043a565b6111a4565b9160019161030493612c03565b15611fa557565b60405162461bcd60e51b815260206004820152601260248201527113585e081cdd5c1c1b1e481c995858da195960721b6044820152606490fd5b612001611feb60085490565b611ffb610ff1610369600c610dcd565b10611f9e565b612009610dd7565b610369611b6261202561103361201f600d610dcd565b85610fc2565b612035611aa86103698387610e5f565b612041610ea860085490565b9361204c8533612d2b565b61205c611ae2611add600f610dcd565b6120653361113b565b61206e8661042d565b907f10546b1a6f5245ff0ffa18c256b9e46859c585cbb473b453fcd4c2dc39ae08db611b2660405190565b610369929190612d3d565b90808210156120b1575090565b905090565b6120be6116b4565b33906120cc6119a5836103a3565b036120d45750565b63118cdaa760e01b6000908152906111969060046103cf565b61211361210d6120fd600a6111a4565b61210884600a611242565b61113b565b9161113b565b907f8be0079c531659141344cd1fd0a4f28419497f9722a3daafe3b4186f6b6457e061213e60405190565b80805b0390a3565b9060ff90610e77565b9061215f610369610e9892151590565b8254612146565b600061217461121a8261105d565b61217d846103a3565b146121d657506121416121cc6121c683612108876121c188611eaf7f17307eab39ab6107e8899845ad3d59bd9653f200f220920489ca2b5937696c31996005611144565b61214f565b9361113b565b9361038b60405190565b630b61174360e31b8152806110ff84600483016103cf565b611e846103696103699290565b6103699061220f610ff16103699460ff1690565b901c90565b61036990612225610ff16103699490565b901b90565b612234600061042d565b811461231a57600161224582612dd6565b61224e826121ee565b80808080809661225f8280986121fb565b906122699061042d565b9061227391612214565b61227d818a610feb565b0190612288916121fb565b6122928189610feb565b019061229d916121fb565b6122a78188610feb565b01906122b2916121fb565b6122bc8187610feb565b01906122c7916121fb565b6122d18186610feb565b01906122dc916121fb565b6122e68185610feb565b01906122f1916121fb565b6122fb8184610feb565b0190612306916121fb565b908161231191610feb565b610369916120a4565b50610369600061042d565b9050519061030482610335565b906020828203126102fb5761036991612325565b9092612377906123706103699694612366608086019760008701906103c6565b60208501906103c6565b6040830152565b60608184039101526104bb565b6000939192833b612397610ff18761042d565b116123a4575b5050505050565b6020916123b36121088661113b565b9086336123dc6123c260405190565b97889687958694630a85bd0160e11b865260048601612346565b03925af160009181612470575b5061243b57506123fe565b388080808061239d565b612406611a1b565b8051612414610ff18561042d565b036124335750633250574960e11b825281906110ff90600483016103cf565b805190602001fd5b61244b630a85bd0160e11b610e06565b036124575750506123f4565b633250574960e11b825281906110ff90600483016103cf565b61249391925060203d60201161249a575b61248b8183610657565b810190612332565b90386123e9565b503d612481565b8115611000570690565b610369608061067e565b6124bd6124ab565b60008082526020820181905260408201819052606082015290565b6103696124b5565b60005b8281106124ef57505050565b6020906124fa6124d8565b81840152016124e3565b9061030461251461157f8461155d565b601f1901602084016124e0565b61182690610369939261178a565b91611826612604612613936118266125c5610369977f3c73766720786d6c6e733d22687474703a2f2f7777772e77332e6f72672f323081527f30302f737667222077696474683d2234303022206865696768743d223430302260208201527f2076696577426f783d223020302031323420313234222066696c6c3d226e6f6e60408201526232911f60e91b606082015260630190565b7f3c726563742077696474683d2231323422206865696768743d2231323422207281526c3c1e91191a11103334b6361e9160991b6020820152602d0190565b6211179f60e91b815260030190565b651e17b9bb339f60d11b815260060190565b6126526060916118c961263760405190565b6020808201938452909283916118bd90426104ef828561177b565b90819261267f61267561266485612f99565b9461266f600361042d565b906124a1565b610eb2600261042d565b9161268983612504565b90936000946126978661042d565b945b805b86101561281f576126aa6124d8565b92600093896126b88a61042d565b9560015b15612808575b5050508780986126da6126d58a8d610e5f565b61301f565b9384986126e68461042d565b8b8110156127f6576127026126fb828c611592565b518861313e565b61270e576001016126e6565b5098929a50935099946127226001916119f9565b9061274f82976118c961273460405190565b6020808201938452909283916118bd90886104ef828561177b565b9b8c9261275f610ff1600a61042d565b11156126bc5750612779919293959a9896509893985b1590565b61279a575b505061278d61269b9160010190565b9590509590919395612699565b6118bd610369849a6127d5856127d0886127ed976127ca828f61278d9c6127c461269b9f83611592565b52611592565b50610e5f565b613229565b906127df60405190565b938492602084019283612521565b9791508861277e565b5098929a919b966127229195506119f9565b806126c257612779919293959a9896509893981590565b50915061036992955061036994506118bd935061283b60405190565b93849260208401928361252f565b612853604061126d565b7f4142434445464748494a4b4c4d4e4f505152535455565758595a61626364656660208201527f6768696a6b6c6d6e6f707172737475767778797a303132333435363738392b2f604082015290565b610369612849565b6103696128a2565b906103046115856128c28461126d565b93610692565b80516128d7610ff1600061042d565b146129bc576128e46128aa565b906128f0612675825190565b906001612918612913612909600395611044600361042d565b611735600461042d565b6128b2565b93016020840192829183518401906020820192835194600085525b838110612974575050505090600392915251068060011461296357600214612959575090565b6001603d91035390565b50600281603d600181940353035390565b8160019198929394980191603f828080865194848660121c168a01518153018385600c1c16890151815301828460061c16880151815301911685015181530196929190612933565b50610369611289565b9192906000926129d48461105d565b916129de836103a3565b6129e7826103a3565b14612a31576129fa8387612a0093612099565b926103a3565b612a09836103a3565b03612a2457637e27328960e01b845260048401859052602484fd5b6110d081959293956103a3565b633250574960e11b855284806110ff85600483016103cf565b634e487b7160e01b600052603160045260246000fd5b80548015612a83576000190190612a80612a7a8383610c19565b90611390565b55565b612a4a565b6000612aea610304926011611173612ae5612aa6611178858561043a565b610369601091612ae0612ac6610c59612ac06112d2875490565b86610c19565b612ada81612ad48588610c19565b90611377565b8761043a565b610e81565b612a60565b611390565b15612af657565b60405162461bcd60e51b815260206004820152600d60248201526c1499599d5b990819985a5b1959609a1b6044820152606490fd5b612b359034611005565b612b3f600061042d565b8111612b485750565b60008061030492612b563390565b90612b6060405190565b90818003925af1612b6f611a1b565b50612aef565b90815491680100000000000000008310156106795782612ad491600161030495018155610c19565b61030490612bac816010612b75565b612ae0612bbb6112d260105490565b91601161043a565b63780e9d6360e01b6001600160e01b0319821614908115612be2575090565b61036991506132c5565b611f8c61036991612bfb600090565b50600261043a565b92919091808115612d0d575b612c2a575b505090612c2561030492600461043a565b611242565b612c3383611f35565b91600090612c4361121a8361105d565b612c4c826103a3565b141580612cf3575b80612ce0575b612cc757505091612c25916103049493612c77575b509192612c14565b612c809061113b565b612c898461113b565b612c928361042d565b917f8c5be1e5ebec7d5bd14f71427d1e84f3dd0314c0f7b2291e5b200ac8c7c3b925612cbd60405190565b600090a438612c6f565b63a9fbf51f60e01b825281906110ff90600483016103cf565b50612cee6127758286611e94565b612c5a565b50612cfd816103a3565b612d06856103a3565b1415612c54565b50612d1b61121a600061105d565b612d24836103a3565b1415612c0f565b61030491612d37611289565b91613310565b9091612d4a90838361332a565b91612d78612d58600061105d565b612d61816103a3565b612d6a866103a3565b03612db55761121a836134d9565b612d81836103a3565b03612d9057610369915061352a565b612d99826103a3565b612da2846103a3565b03612dac57505090565b610369916134fb565b612dbe846103a3565b612dc7866103a3565b146103a35761121a8386613458565b6000612ed1610ff1612ecb612dea8461042d565b94612dfe612df860806121ee565b826121fb565b868111612f71575b50612e14612df860406121ee565b612e1d8661042d565b8111612f5a575b50612e32612df860206121ee565b612e3b8661042d565b8111612f43575b50612e50612df860106121ee565b612e598661042d565b8111612f2c575b50612e6e612df860086121ee565b612e778661042d565b8111612f15575b50612e8c612df860046121ee565b612e958661042d565b8111612efe575b50612eaa612df860026121ee565b612eb38661042d565b8111612ee7575b50612ec560016121ee565b906121fb565b9261042d565b11612ed95790565b610369906104ef600161042d565b612ef79150956104ef600261042d565b9438612eba565b612f0e9150956104ef600461042d565b9438612e9c565b612f259150956104ef600861042d565b9438612e7e565b612f3c9150956104ef601061042d565b9438612e60565b612f539150956104ef602061042d565b9438612e42565b612f6a9150956104ef604061042d565b9438612e24565b612f819150956104ef608061042d565b9438612e06565b6010821015610c3c57600190610c33565b612fba612fb361036992612fab606090565b50601061266f565b6014612f88565b50610e18565b612fcf9060ff165b9160ff1690565b90039060ff8211610e6c57565b612fe89060ff16612fc8565b019060ff8211610e6c57565b6103696103696103699260ff1690565b6130109060ff16612fc8565b029060ff8216918203610e6c57565b6130276124d8565b5061036961303560186121ee565b61312d61310f61308e61309361308e61304e60196121ee565b610eb261308861308261307d61306d85613068603e6121ee565b612fc0565b61307760016121ee565b90612fdc565b612ff4565b8b6124a1565b91612ff4565b6121ee565b93610eb26130886130ed6130e261308e6130d96130d361307d6130ba8d613068607c6121ee565b6130cd8a6130c860026121ee565b613004565b90612fc0565b8d6124a1565b610eb287612ff4565b99612ec560086121ee565b61266f61307d6131018a613068607c6121ee565b6130cd876130c860026121ee565b61312361311a6124ab565b60ff9096168652565b60ff166020850152565b60ff16604083018190526060830152565b908161314b815160ff1690565b829061316e612fc8611e84613161855160ff1690565b604088015160ff16613077565b1093846131fd575b5050826131c2575b8261318857505090565b6131be919250611e8460206131b58361307760606131ac85612fc898015160ff1690565b92015160ff1690565b94015160ff1690565b1190565b91506131d2602083015160ff1690565b6131f6612fc8611e846131e9602086015160ff1690565b606086015160ff16613077565b109161317e565b61322091929450611e84613218613161612fc8935160ff1690565b935160ff1690565b11913880613176565b61325261324d61324261323c600561042d565b846124a1565b92610eb2600161042d565b612f99565b9061325d600061042d565b810361326d575061036991613aa4565b613277600161042d565b81036132875750610369916139d2565b613291600261042d565b81036132a15750610369916139d2565b6132ae610ff1600361042d565b036132bc57610369916137a0565b61036991613604565b6380ac58cd60e01b6001600160e01b03198216149081156132f5575b81156132eb575090565b6103699150613b2c565b6001600160e01b03198116635b5e139f60e01b1491506132e1565b9061030492916133208282613b3c565b611776600061105d565b9061337d61333782612bec565b9360006133438161105d565b918461334e846103a3565b613357836103a3565b03613447575b5050613368826103a3565b613371876103a3565b0361340c575b506103a3565b613386836103a3565b036133dc575b61339b82612c2583600261043a565b6133aa611af56121c68561113b565b917fddf252ad1be2c89b69c2b068fc378daa952ba7f163c4a11628f55a4df523b3ef6133d560405190565b600090a490565b6134076133e9600161042d565b6134016133f7856003611144565b916104ef83610dcd565b90610e81565b61338c565b61341890828581612c03565b613441613425600161042d565b613401613433886003611144565b9161343d83610dcd565b0390565b38613377565b6134519188613bb2565b388461335d565b612aea6103049261117360009361349785612aea61347584611644565b95600785613486611178848461043a565b8980820361349e575b50505061043a565b6006611144565b6111736134cb84612ae0856134c1611178612ae0976111736134d19b6006611144565b9485936006611144565b8461043a565b85388961348f565b610304906134f46134e960085490565b612ae083600961043a565b6008612b75565b612ae08261352361030494612ae0611173956135196112d282611644565b9687916006611144565b600761043a565b612ae5610304916103696000612aea6008936135476112d2865490565b611173600991612ae061356a610c59613563611178888861043a565b938b610c19565b6134cb81612ad4858d610c19565b610ff59060ff16612fc8565b61036997956118266135e3611826976118266135d66135f0996118266135e36126049f9b6118266135d66118269d6118266135d69e701e3837b63cb3b7b7103837b4b73a399e9160791b815260110190565b600b60fa1b815260010190565b600160fd1b815260010190565b6711103334b6361e9160c11b815260080190565b908190613612825160ff1690565b61361b90612ff4565b61362490613c12565b6020830191613634835160ff1690565b926060850193613645855160ff1690565b61364e91612fdc565b61365790612ff4565b61366090613c12565b9361366c875160ff1690565b956040019561367c875160ff1690565b61368660026121ee565b61368f91613578565b61369891612fdc565b6136a190612ff4565b6136aa90613c12565b956136b6835160ff1690565b6136bf90612ff4565b6136c890613c12565b975160ff16905160ff166136db91612fdc565b6136e490612ff4565b6136ed90613c12565b915160ff16905160ff1661370091612fdc565b61370990612ff4565b61371290613c12565b9061371c60405190565b968796602088019661372e9688613584565b9081038252036103699082610657565b6135e3611826976118266135d66135f0996118266103699f9d976126049f9b6118266135d66118269d6118266135e36135d69f6118266118269f6135e3996118266135d692701e3837b63cb3b7b7103837b4b73a399e9160791b815260110190565b806137ac815160ff1690565b9260408301906137bd825160ff1690565b946002956137ca876121ee565b6137d391613578565b6137dc91612fdc565b6137e590612ff4565b6137ee90613c12565b91602085016137fe815160ff1690565b61380790612ff4565b61381090613c12565b9461381c815160ff1690565b61382590612ff4565b61382e90613c12565b9661383a835160ff1690565b906060019061384a825160ff1690565b6138538b6121ee565b61385c91613578565b61386591612fdc565b61386e90612ff4565b61387790613c12565b98613883835160ff1690565b855160ff16613891836121ee565b61389a91613578565b6138a391612fdc565b6138ac90612ff4565b6138b590613c12565b946138c1855160ff1690565b835160ff166138cf91612fdc565b6138d890612ff4565b6138e190613c12565b935160ff16905160ff166138f491612fdc565b6138fd90612ff4565b61390690613c12565b935160ff16915160ff169061391a906121ee565b61392391613578565b61392c91612fdc565b61393590612ff4565b61393e90613c12565b9261394860405190565b98899860208a019861372e988a61373e565b936118266139bc61036997956118266139a7611826976118266139966135f0996118266126049e681e3932b1ba103c1e9160b91b815260090190565b6411103c9e9160d91b815260050190565b6811103bb4b23a341e9160b91b815260090190565b6911103432b4b3b43a1e9160b11b8152600a0190565b610369610369926139e1606090565b506139f86139f361307d855160ff1690565b613c12565b6118bd613a0f6139f361307d602088015160ff1690565b92613a386139f361307d6060613a2f6139f361307d60408d015160ff1690565b99015160ff1690565b60405196879560208701958661395a565b61260493611826613a936103699795611826613a81611826976118266135f0986b1e31b4b931b6329031bc1e9160a11b8152600c0190565b65111031bc9e9160d11b815260060190565b641110391e9160d91b815260050190565b90610369613b0961036993613ab7606090565b506118bd613b146139f3613b0e6139f361307d6000613b096020613a2f6139f361307d8c613afc613aec604083015160ff1690565b613af660026121ee565b90613578565b9e8f978892015160ff1690565b612fdc565b94612ff4565b94613b1e60405190565b958694602086019485613a49565b610e146301ffc9a760e01b610e06565b600091613b488361105d565b91613b52836103a3565b613b5b826103a3565b14613b9957613b6b918391612099565b613b776119a5836103a3565b03613b80575050565b6339e3563760e11b825281906110ff90600483016103cf565b633250574960e11b845283806110ff85600483016103cf565b90613bc1612775848385613c9f565b613bca57505050565b6000928392613bde6119a561121a8661105d565b03613bfb57637e27328960e01b8352600483015250602481010390fd5b63177e802f60e01b83526110ff916004840161111c565b613c1b81613d23565b90613c2c6001926104ef600161042d565b9180613c37846128b2565b936020018401905b613c4a575b50505090565b8115613c9a57613c7e9060001901926f181899199a1a9b1b9c1cb0b131b232b360811b600a82061a8453611044600a61042d565b9081613c8d610ff1600061042d565b14613c9a57909181613c3f565b613c44565b90613cad61121a600061105d565b613cb6826103a3565b14159283613cc45750505090565b90919250613cd1826103a3565b613cda846103a3565b14928315613d0f575b508215613cf5575b5050388080613c44565b613d079192506129fa6119a591611f75565b143880613ceb565b613d1c9193508290611e94565b9138613ce3565b613d2d600061042d565b907a184f03e93ff9f4daa797ed6e38ed64bf6a1f010000000000000000613d538161042d565b821015613e95575b506d04ee2d6d415b85acef8100000000613d748161042d565b821015613e73575b50662386f26fc10000613d8e8161042d565b821015613e51575b506305f5e100613da58161042d565b821015613e2f575b50612710613dba8161042d565b821015613e0d575b50613dcd606461042d565b811015613deb575b613de2610ff1600a61042d565b1015612ed95790565b613dfc613e0791611044606461042d565b916104ef600261042d565b90613dd5565b613e2891611044613e1d9261042d565b916104ef600461042d565b9038613dc2565b613e4a91611044613e3f9261042d565b916104ef600861042d565b9038613dad565b613e6c91611044613e619261042d565b916104ef601061042d565b9038613d96565b613e8e91611044613e839261042d565b916104ef602061042d565b9038613d7c565b613eb091611044613ea59261042d565b916104ef604061042d565b9038613d5b56fea26469706673582212200a4ad72a3614528519224b4560442ec5d5208a30f8e89afb696bd6608fcae16c64736f6c634300081c0033","opcodes":"PUSH1 0x80 PUSH1 0x40 MSTORE CALLVALUE PUSH2 0x2E JUMPI PUSH2 0x1D PUSH2 0x14 PUSH2 0x171 JUMP JUMPDEST SWAP4 SWAP3 SWAP1 SWAP3 PUSH2 0x196 JUMP JUMPDEST PUSH1 0x40 MLOAD PUSH2 0x3EED PUSH2 0xBBD DUP3 CODECOPY PUSH2 0x3EED SWAP1 RETURN JUMPDEST PUSH1 0x0 DUP1 REVERT JUMPDEST PUSH4 0x4E487B71 PUSH1 0xE0 SHL PUSH1 0x0 MSTORE PUSH1 0x41 PUSH1 0x4 MSTORE PUSH1 0x24 PUSH1 0x0 REVERT JUMPDEST SWAP1 PUSH1 0x1F ADD PUSH1 0x1F NOT AND DUP2 ADD SWAP1 DUP2 LT PUSH1 0x1 PUSH1 0x1 PUSH1 0x40 SHL SUB DUP3 GT OR PUSH2 0x6A JUMPI PUSH1 0x40 MSTORE JUMP JUMPDEST PUSH2 0x33 JUMP JUMPDEST SWAP1 PUSH2 0x83 PUSH2 0x7C PUSH1 0x40 MLOAD SWAP1 JUMP JUMPDEST SWAP3 DUP4 PUSH2 0x49 JUMP JUMPDEST JUMP JUMPDEST PUSH1 0x1 PUSH1 0x1 PUSH1 0x40 SHL SUB DUP2 GT PUSH2 0x6A JUMPI PUSH1 0x20 SWAP1 PUSH1 0x1F ADD PUSH1 0x1F NOT AND ADD SWAP1 JUMP JUMPDEST PUSH1 0x0 JUMPDEST DUP4 DUP2 LT PUSH2 0xB4 JUMPI POP POP PUSH1 0x0 SWAP2 ADD MSTORE JUMP JUMPDEST DUP2 DUP2 ADD MLOAD DUP4 DUP3 ADD MSTORE PUSH1 0x20 ADD PUSH2 0xA4 JUMP JUMPDEST SWAP1 SWAP3 SWAP2 SWAP3 PUSH2 0xD9 PUSH2 0xD4 DUP3 PUSH2 0x85 JUMP JUMPDEST PUSH2 0x6F JUMP JUMPDEST SWAP4 DUP2 DUP6 MSTORE DUP2 DUP4 ADD GT PUSH2 0x2E JUMPI PUSH2 0x83 SWAP2 PUSH1 0x20 DUP6 ADD SWAP1 PUSH2 0xA1 JUMP JUMPDEST SWAP1 DUP1 PUSH1 0x1F DUP4 ADD SLT ISZERO PUSH2 0x2E JUMPI DUP2 MLOAD PUSH2 0x10D SWAP3 PUSH1 0x20 ADD PUSH2 0xC4 JUMP JUMPDEST SWAP1 JUMP JUMPDEST SWAP2 SWAP1 PUSH1 0xA0 DUP4 DUP3 SUB SLT PUSH2 0x2E JUMPI DUP3 MLOAD PUSH1 0x1 PUSH1 0x1 PUSH1 0x40 SHL SUB DUP2 GT PUSH2 0x2E JUMPI DUP2 PUSH2 0x138 SWAP2 DUP6 ADD PUSH2 0xF3 JUMP JUMPDEST PUSH1 0x20 DUP5 ADD MLOAD SWAP1 SWAP4 SWAP1 PUSH1 0x1 PUSH1 0x1 PUSH1 0x40 SHL SUB DUP2 GT PUSH2 0x2E JUMPI DUP3 PUSH2 0x15A SWAP2 DUP4 ADD PUSH2 0xF3 JUMP JUMPDEST PUSH1 0x40 DUP3 ADD MLOAD PUSH1 0x60 DUP4 ADD MLOAD PUSH1 0x80 SWAP1 SWAP4 ADD MLOAD SWAP2 SWAP5 SWAP1 SWAP4 POP JUMP JUMPDEST PUSH2 0x18F PUSH2 0x4AAA DUP1 CODESIZE SUB DUP1 PUSH2 0x184 DUP2 PUSH2 0x6F JUMP JUMPDEST SWAP3 DUP4 CODECOPY DUP2 ADD SWAP1 PUSH2 0x110 JUMP JUMPDEST SWAP1 SWAP2 SWAP3 SWAP4 SWAP5 JUMP JUMPDEST SWAP1 PUSH2 0x83 SWAP5 SWAP4 SWAP3 SWAP2 PUSH2 0x89B JUMP JUMPDEST PUSH1 0x1 PUSH1 0x1 PUSH1 0x40 SHL SUB DUP2 GT PUSH2 0x6A JUMPI PUSH1 0x20 MUL SWAP1 JUMP JUMPDEST PUSH2 0xD4 PUSH2 0x10D SWAP2 PUSH2 0x1A3 JUMP JUMPDEST SWAP1 PUSH2 0x1D0 PUSH2 0xD4 DUP4 PUSH2 0x85 JUMP JUMPDEST SWAP2 DUP3 MSTORE JUMP JUMPDEST PUSH2 0x1DF PUSH1 0x7 PUSH2 0x1C3 JUMP JUMPDEST PUSH7 0x2330303030303 PUSH1 0xCC SHL PUSH1 0x20 DUP3 ADD MSTORE SWAP1 JUMP JUMPDEST PUSH2 0x10D PUSH2 0x1D5 JUMP JUMPDEST PUSH2 0x204 PUSH1 0x7 PUSH2 0x1C3 JUMP JUMPDEST PUSH7 0x11A32323232323 PUSH1 0xC9 SHL PUSH1 0x20 DUP3 ADD MSTORE SWAP1 JUMP JUMPDEST PUSH2 0x10D PUSH2 0x1FA JUMP JUMPDEST PUSH2 0x229 PUSH1 0x7 PUSH2 0x1C3 JUMP JUMPDEST PUSH7 0x2346463030303 PUSH1 0xCC SHL PUSH1 0x20 DUP3 ADD MSTORE SWAP1 JUMP JUMPDEST PUSH2 0x10D PUSH2 0x21F JUMP JUMPDEST PUSH2 0x24E PUSH1 0x7 PUSH2 0x1C3 JUMP JUMPDEST PUSH7 0x2330304646303 PUSH1 0xCC SHL PUSH1 0x20 DUP3 ADD MSTORE SWAP1 JUMP JUMPDEST PUSH2 0x10D PUSH2 0x244 JUMP JUMPDEST PUSH2 0x273 PUSH1 0x7 PUSH2 0x1C3 JUMP JUMPDEST PUSH7 0x11981818182323 PUSH1 0xC9 SHL PUSH1 0x20 DUP3 ADD MSTORE SWAP1 JUMP JUMPDEST PUSH2 0x10D PUSH2 0x269 JUMP JUMPDEST PUSH2 0x298 PUSH1 0x7 PUSH2 0x1C3 JUMP JUMPDEST PUSH7 0x2346464646303 PUSH1 0xCC SHL PUSH1 0x20 DUP3 ADD MSTORE SWAP1 JUMP JUMPDEST PUSH2 0x10D PUSH2 0x28E JUMP JUMPDEST PUSH2 0x2BD PUSH1 0x7 PUSH2 0x1C3 JUMP JUMPDEST PUSH7 0x11A32318182323 PUSH1 0xC9 SHL PUSH1 0x20 DUP3 ADD MSTORE SWAP1 JUMP JUMPDEST PUSH2 0x10D PUSH2 0x2B3 JUMP JUMPDEST PUSH2 0x2E2 PUSH1 0x7 PUSH2 0x1C3 JUMP JUMPDEST PUSH7 0x11981823232323 PUSH1 0xC9 SHL PUSH1 0x20 DUP3 ADD MSTORE SWAP1 JUMP JUMPDEST PUSH2 0x10D PUSH2 0x2D8 JUMP JUMPDEST PUSH2 0x307 PUSH1 0x7 PUSH2 0x1C3 JUMP JUMPDEST PUSH7 0x2346464135303 PUSH1 0xCC SHL PUSH1 0x20 DUP3 ADD MSTORE SWAP1 JUMP JUMPDEST PUSH2 0x10D PUSH2 0x2FD JUMP JUMPDEST PUSH2 0x32C PUSH1 0x7 PUSH2 0x1C3 JUMP JUMPDEST PUSH7 0x2338303030383 PUSH1 0xCC SHL PUSH1 0x20 DUP3 ADD MSTORE SWAP1 JUMP JUMPDEST PUSH2 0x10D PUSH2 0x322 JUMP JUMPDEST PUSH2 0x351 PUSH1 0x7 PUSH2 0x1C3 JUMP JUMPDEST PUSH7 0x2330303830303 PUSH1 0xCC SHL PUSH1 0x20 DUP3 ADD MSTORE SWAP1 JUMP JUMPDEST PUSH2 0x10D PUSH2 0x347 JUMP JUMPDEST PUSH2 0x376 PUSH1 0x7 PUSH2 0x1C3 JUMP JUMPDEST PUSH7 0x2338303030303 PUSH1 0xCC SHL PUSH1 0x20 DUP3 ADD MSTORE SWAP1 JUMP JUMPDEST PUSH2 0x10D PUSH2 0x36C JUMP JUMPDEST PUSH2 0x39B PUSH1 0x7 PUSH2 0x1C3 JUMP JUMPDEST PUSH7 0x2338303830303 PUSH1 0xCC SHL PUSH1 0x20 DUP3 ADD MSTORE SWAP1 JUMP JUMPDEST PUSH2 0x10D PUSH2 0x391 JUMP JUMPDEST PUSH2 0x3C0 PUSH1 0x7 PUSH2 0x1C3 JUMP JUMPDEST PUSH7 0x2330303830383 PUSH1 0xCC SHL PUSH1 0x20 DUP3 ADD MSTORE SWAP1 JUMP JUMPDEST PUSH2 0x10D PUSH2 0x3B6 JUMP JUMPDEST PUSH2 0x3E5 PUSH1 0x7 PUSH2 0x1C3 JUMP JUMPDEST PUSH7 0x2343304330433 PUSH1 0xCC SHL PUSH1 0x20 DUP3 ADD MSTORE SWAP1 JUMP JUMPDEST PUSH2 0x10D PUSH2 0x3DB JUMP JUMPDEST PUSH2 0x40A PUSH1 0x7 PUSH2 0x1C3 JUMP JUMPDEST PUSH7 0x2338303830383 PUSH1 0xCC SHL PUSH1 0x20 DUP3 ADD MSTORE SWAP1 JUMP JUMPDEST PUSH2 0x10D PUSH2 0x400 JUMP JUMPDEST PUSH4 0x4E487B71 PUSH1 0xE0 SHL PUSH1 0x0 MSTORE PUSH1 0x0 PUSH1 0x4 MSTORE PUSH1 0x24 PUSH1 0x0 REVERT JUMPDEST PUSH4 0x4E487B71 PUSH1 0xE0 SHL PUSH1 0x0 MSTORE PUSH1 0x22 PUSH1 0x4 MSTORE PUSH1 0x24 PUSH1 0x0 REVERT JUMPDEST SWAP1 PUSH1 0x1 PUSH1 0x2 DUP4 DIV SWAP3 AND DUP1 ISZERO PUSH2 0x471 JUMPI JUMPDEST PUSH1 0x20 DUP4 LT EQ PUSH2 0x46C JUMPI JUMP JUMPDEST PUSH2 0x43B JUMP JUMPDEST SWAP2 PUSH1 0x7F AND SWAP2 PUSH2 0x461 JUMP JUMPDEST SWAP1 PUSH2 0x48E SWAP1 PUSH1 0x0 NOT SWAP1 PUSH1 0x20 SUB PUSH1 0x8 MUL SHR SWAP1 JUMP JUMPDEST DUP2 SLOAD AND SWAP1 SSTORE JUMP JUMPDEST SWAP2 PUSH1 0x0 NOT PUSH1 0x8 SWAP3 SWAP1 SWAP3 MUL SWAP2 DUP3 SHL SWAP2 SHL JUMPDEST SWAP2 DUP2 NOT AND SWAP2 AND OR SWAP1 JUMP JUMPDEST PUSH2 0x10D PUSH2 0x10D PUSH2 0x10D SWAP3 SWAP1 JUMP JUMPDEST SWAP2 SWAP1 PUSH2 0x4CD PUSH2 0x10D PUSH2 0x4D5 SWAP4 PUSH2 0x4AF JUMP JUMPDEST SWAP1 DUP4 SLOAD PUSH2 0x495 JUMP JUMPDEST SWAP1 SSTORE JUMP JUMPDEST PUSH2 0x83 SWAP2 PUSH1 0x0 SWAP2 PUSH2 0x4BC JUMP JUMPDEST DUP2 DUP2 LT PUSH2 0x4F0 JUMPI POP POP JUMP JUMPDEST DUP1 PUSH2 0x4FE PUSH1 0x0 PUSH1 0x1 SWAP4 PUSH2 0x4D9 JUMP JUMPDEST ADD PUSH2 0x4E5 JUMP JUMPDEST SWAP1 PUSH1 0x0 SWAP2 PUSH2 0x52F PUSH2 0x51A DUP3 PUSH1 0x0 MSTORE PUSH1 0x20 PUSH1 0x0 KECCAK256 SWAP1 JUMP JUMPDEST SWAP3 DUP4 SLOAD PUSH1 0x0 NOT PUSH1 0x8 DUP4 MUL SHR NOT AND SWAP1 PUSH1 0x2 MUL OR SWAP1 JUMP JUMPDEST SWAP1 SSTORE SSTORE JUMP JUMPDEST SWAP2 SWAP3 SWAP1 PUSH1 0x20 DUP3 LT ISZERO PUSH2 0x599 JUMPI PUSH1 0x1F DUP5 GT PUSH1 0x1 EQ PUSH2 0x563 JUMPI PUSH2 0x4D5 SWAP3 SWAP4 POP PUSH1 0x0 NOT PUSH1 0x8 DUP4 MUL SHR NOT AND SWAP1 PUSH1 0x2 MUL OR SWAP1 JUMP JUMPDEST POP SWAP1 PUSH2 0x594 PUSH2 0x83 SWAP4 PUSH1 0x1 PUSH2 0x58B PUSH2 0x580 DUP6 PUSH1 0x0 MSTORE PUSH1 0x20 PUSH1 0x0 KECCAK256 SWAP1 JUMP JUMPDEST SWAP3 PUSH1 0x1F PUSH1 0x20 SWAP2 ADD DIV SWAP1 JUMP JUMPDEST DUP3 ADD SWAP2 ADD PUSH2 0x4E5 JUMP JUMPDEST PUSH2 0x504 JUMP JUMPDEST POP PUSH2 0x5D9 DUP3 SWAP4 PUSH2 0x5B0 PUSH1 0x1 SWAP5 PUSH1 0x0 MSTORE PUSH1 0x20 PUSH1 0x0 KECCAK256 SWAP1 JUMP JUMPDEST PUSH2 0x5D2 PUSH1 0x20 PUSH1 0x1F DUP7 ADD DIV DUP3 ADD SWAP3 PUSH1 0x1F DUP7 AND DUP1 PUSH2 0x5E1 JUMPI JUMPDEST POP PUSH1 0x1F PUSH1 0x20 SWAP2 ADD DIV SWAP1 JUMP JUMPDEST ADD SWAP1 PUSH2 0x4E5 JUMP JUMPDEST PUSH1 0x2 MUL OR SWAP1 SSTORE JUMP JUMPDEST PUSH2 0x5ED SWAP1 DUP9 DUP7 SUB PUSH2 0x47B JUMP JUMPDEST CODESIZE PUSH2 0x5C7 JUMP JUMPDEST SWAP3 SWAP1 SWAP2 PUSH9 0x10000000000000000 DUP3 GT PUSH2 0x6A JUMPI PUSH1 0x20 GT ISZERO PUSH2 0x64C JUMPI PUSH1 0x20 DUP2 LT ISZERO PUSH2 0x62D JUMPI PUSH2 0x4D5 SWAP2 PUSH1 0x0 NOT PUSH1 0x8 DUP4 MUL SHR NOT AND SWAP1 PUSH1 0x2 MUL OR SWAP1 JUMP JUMPDEST PUSH1 0x1 SWAP2 PUSH1 0xFF NOT AND PUSH2 0x643 DUP5 PUSH1 0x0 MSTORE PUSH1 0x20 PUSH1 0x0 KECCAK256 SWAP1 JUMP JUMPDEST SSTORE PUSH1 0x2 MUL ADD SWAP1 SSTORE JUMP JUMPDEST PUSH1 0x1 SWAP2 POP PUSH1 0x2 MUL ADD SWAP1 SSTORE JUMP JUMPDEST SWAP1 DUP2 SLOAD PUSH2 0x664 DUP2 PUSH2 0x451 JUMP JUMPDEST SWAP1 DUP2 DUP4 GT PUSH2 0x68D JUMPI JUMPDEST DUP2 DUP4 LT PUSH2 0x67B JUMPI JUMPDEST POP POP POP POP JUMP JUMPDEST PUSH2 0x684 SWAP4 PUSH2 0x534 JUMP JUMPDEST CODESIZE DUP1 DUP1 DUP1 PUSH2 0x675 JUMP JUMPDEST PUSH2 0x699 DUP4 DUP4 DUP4 DUP8 PUSH2 0x5F3 JUMP JUMPDEST PUSH2 0x66D JUMP JUMPDEST PUSH1 0x0 PUSH2 0x83 SWAP2 PUSH2 0x658 JUMP JUMPDEST SWAP1 PUSH1 0x0 SUB PUSH2 0x6BA JUMPI PUSH2 0x83 SWAP1 PUSH2 0x69E JUMP JUMPDEST PUSH2 0x425 JUMP JUMPDEST DUP2 DUP2 LT PUSH2 0x6CA JUMPI POP POP JUMP JUMPDEST DUP1 PUSH2 0x6D8 PUSH1 0x0 PUSH1 0x1 SWAP4 PUSH2 0x6A9 JUMP JUMPDEST ADD PUSH2 0x6BF JUMP JUMPDEST SWAP2 SWAP1 SWAP2 DUP3 DUP3 LT PUSH2 0x6ED JUMPI POP POP POP JUMP JUMPDEST PUSH2 0x83 SWAP3 SWAP2 SWAP1 PUSH2 0x6FC JUMP JUMPDEST SWAP2 SWAP1 JUMP JUMPDEST SWAP2 DUP3 ADD SWAP2 ADD PUSH2 0x6BF JUMP JUMPDEST SWAP1 PUSH9 0x10000000000000000 DUP2 GT PUSH2 0x6A JUMPI PUSH2 0x83 SWAP2 PUSH1 0x10 SWAP1 PUSH2 0x6DE JUMP JUMPDEST SWAP2 SWAP1 PUSH1 0x1F DUP2 GT PUSH2 0x732 JUMPI POP POP POP JUMP JUMPDEST PUSH2 0x744 PUSH2 0x83 SWAP4 PUSH1 0x0 MSTORE PUSH1 0x20 PUSH1 0x0 KECCAK256 SWAP1 JUMP JUMPDEST SWAP1 PUSH1 0x20 PUSH1 0x1F DUP5 ADD DUP2 SWAP1 DIV DUP4 ADD SWAP4 LT PUSH2 0x764 JUMPI JUMPDEST PUSH1 0x20 PUSH1 0x1F SWAP1 SWAP2 ADD DIV PUSH2 0x5D2 JUMP JUMPDEST SWAP1 SWAP2 POP DUP2 SWAP1 PUSH2 0x757 JUMP JUMPDEST SWAP1 PUSH2 0x777 DUP2 MLOAD SWAP1 JUMP JUMPDEST SWAP1 PUSH1 0x1 PUSH1 0x1 PUSH1 0x40 SHL SUB DUP3 GT PUSH2 0x6A JUMPI PUSH2 0x79A DUP3 PUSH2 0x794 DUP6 SLOAD PUSH2 0x451 JUMP JUMPDEST DUP6 PUSH2 0x723 JUMP JUMPDEST PUSH1 0x20 SWAP1 PUSH1 0x1F DUP4 GT PUSH1 0x1 EQ PUSH2 0x7D5 JUMPI PUSH2 0x4D5 SWAP3 SWAP2 PUSH1 0x0 SWAP2 DUP4 PUSH2 0x7CA JUMPI JUMPDEST POP POP PUSH1 0x0 NOT PUSH1 0x8 DUP4 MUL SHR NOT AND SWAP1 PUSH1 0x2 MUL OR SWAP1 JUMP JUMPDEST ADD MLOAD SWAP1 POP CODESIZE DUP1 PUSH2 0x7B6 JUMP JUMPDEST PUSH1 0x1F NOT DUP4 AND SWAP2 PUSH2 0x7EA DUP6 PUSH1 0x0 MSTORE PUSH1 0x20 PUSH1 0x0 KECCAK256 SWAP1 JUMP JUMPDEST SWAP3 PUSH1 0x0 JUMPDEST DUP2 DUP2 LT PUSH2 0x828 JUMPI POP SWAP2 PUSH1 0x2 SWAP4 SWAP2 DUP6 PUSH1 0x1 SWAP7 SWAP5 LT PUSH2 0x80F JUMPI JUMPDEST POP POP POP MUL ADD SWAP1 SSTORE JUMP JUMPDEST ADD MLOAD PUSH1 0x0 NOT PUSH1 0x8 PUSH1 0x1F DUP6 AND MUL SHR NOT AND SWAP1 SSTORE CODESIZE DUP1 DUP1 PUSH2 0x806 JUMP JUMPDEST SWAP2 SWAP4 PUSH1 0x20 PUSH1 0x1 DUP2 SWAP3 DUP8 DUP8 ADD MLOAD DUP2 SSTORE ADD SWAP6 ADD SWAP3 ADD PUSH2 0x7EE JUMP JUMPDEST SWAP1 PUSH2 0x83 SWAP2 PUSH2 0x76E JUMP JUMPDEST PUSH2 0x85D PUSH2 0x6F8 PUSH1 0x10 SWAP4 PUSH2 0x10D DUP6 DUP6 PUSH2 0x706 JUMP JUMPDEST PUSH1 0x0 SWAP2 JUMPDEST DUP4 DUP4 LT PUSH2 0x86E JUMPI POP POP POP POP JUMP JUMPDEST PUSH1 0x1 PUSH1 0x20 DUP3 PUSH2 0x885 PUSH2 0x87F DUP5 SWAP6 MLOAD SWAP1 JUMP JUMPDEST DUP7 PUSH2 0x840 JUMP JUMPDEST ADD SWAP3 ADD SWAP3 ADD SWAP2 SWAP1 PUSH2 0x861 JUMP JUMPDEST SWAP1 PUSH2 0x83 SWAP2 PUSH2 0x84A JUMP JUMPDEST SWAP1 PUSH2 0x8A8 SWAP5 SWAP4 SWAP3 SWAP2 PUSH2 0x9E1 JUMP JUMPDEST PUSH2 0x83 PUSH2 0x8B5 PUSH1 0x10 PUSH2 0x1B7 JUMP JUMPDEST PUSH2 0x8C4 PUSH2 0x8C0 PUSH2 0x1F2 JUMP JUMPDEST DUP3 MSTORE JUMP JUMPDEST PUSH2 0x8D6 PUSH2 0x8CF PUSH2 0x217 JUMP JUMPDEST PUSH1 0x20 DUP4 ADD MSTORE JUMP JUMPDEST PUSH2 0x8E8 PUSH2 0x8E1 PUSH2 0x23C JUMP JUMPDEST PUSH1 0x40 DUP4 ADD MSTORE JUMP JUMPDEST PUSH2 0x8FA PUSH2 0x8F3 PUSH2 0x261 JUMP JUMPDEST PUSH1 0x60 DUP4 ADD MSTORE JUMP JUMPDEST PUSH2 0x90C PUSH2 0x905 PUSH2 0x286 JUMP JUMPDEST PUSH1 0x80 DUP4 ADD MSTORE JUMP JUMPDEST PUSH2 0x91E PUSH2 0x917 PUSH2 0x2AB JUMP JUMPDEST PUSH1 0xA0 DUP4 ADD MSTORE JUMP JUMPDEST PUSH2 0x930 PUSH2 0x929 PUSH2 0x2D0 JUMP JUMPDEST PUSH1 0xC0 DUP4 ADD MSTORE JUMP JUMPDEST PUSH2 0x942 PUSH2 0x93B PUSH2 0x2F5 JUMP JUMPDEST PUSH1 0xE0 DUP4 ADD MSTORE JUMP JUMPDEST PUSH2 0x955 PUSH2 0x94D PUSH2 0x31A JUMP JUMPDEST PUSH2 0x100 DUP4 ADD MSTORE JUMP JUMPDEST PUSH2 0x968 PUSH2 0x960 PUSH2 0x33F JUMP JUMPDEST PUSH2 0x120 DUP4 ADD MSTORE JUMP JUMPDEST PUSH2 0x97B PUSH2 0x973 PUSH2 0x364 JUMP JUMPDEST PUSH2 0x140 DUP4 ADD MSTORE JUMP JUMPDEST PUSH2 0x98E PUSH2 0x986 PUSH2 0x389 JUMP JUMPDEST PUSH2 0x160 DUP4 ADD MSTORE JUMP JUMPDEST PUSH2 0x9A1 PUSH2 0x999 PUSH2 0x3AE JUMP JUMPDEST PUSH2 0x180 DUP4 ADD MSTORE JUMP JUMPDEST PUSH2 0x9B4 PUSH2 0x9AC PUSH2 0x3D3 JUMP JUMPDEST PUSH2 0x1A0 DUP4 ADD MSTORE JUMP JUMPDEST PUSH2 0x9C7 PUSH2 0x9BF PUSH2 0x3F8 JUMP JUMPDEST PUSH2 0x1C0 DUP4 ADD MSTORE JUMP JUMPDEST PUSH2 0x9DA PUSH2 0x9D2 PUSH2 0x41D JUMP JUMPDEST PUSH2 0x1E0 DUP4 ADD MSTORE JUMP JUMPDEST PUSH1 0x14 PUSH2 0x891 JUMP JUMPDEST PUSH2 0x83 SWAP5 DUP6 SWAP5 DUP6 SWAP5 CALLER SWAP3 SWAP2 SWAP1 PUSH2 0xA6B JUMP JUMPDEST SWAP1 PUSH1 0x0 NOT SWAP1 PUSH2 0x4A5 JUMP JUMPDEST SWAP1 PUSH2 0xA0C PUSH2 0x10D PUSH2 0x4D5 SWAP3 PUSH2 0x4AF JUMP JUMPDEST DUP3 SLOAD PUSH2 0x9F2 JUMP JUMPDEST SWAP1 PUSH1 0x1 PUSH1 0x1 PUSH1 0xA0 SHL SUB SWAP1 PUSH2 0x4A5 JUMP JUMPDEST PUSH2 0x10D SWAP1 PUSH2 0xA36 SWAP1 PUSH1 0x1 PUSH1 0x1 PUSH1 0xA0 SHL SUB AND DUP3 JUMP JUMPDEST PUSH1 0x1 PUSH1 0x1 PUSH1 0xA0 SHL SUB AND SWAP1 JUMP JUMPDEST PUSH2 0x10D SWAP1 PUSH2 0xA22 JUMP JUMPDEST PUSH2 0x10D SWAP1 PUSH2 0xA42 JUMP JUMPDEST SWAP1 PUSH2 0xA64 PUSH2 0x10D PUSH2 0x4D5 SWAP3 PUSH2 0xA4B JUMP JUMPDEST DUP3 SLOAD PUSH2 0xA13 JUMP JUMPDEST PUSH2 0xA81 PUSH2 0xA96 SWAP7 PUSH2 0xA88 SWAP4 SWAP5 SWAP7 PUSH2 0xA8F SWAP7 PUSH2 0xAA1 JUMP JUMPDEST PUSH1 0xB PUSH2 0x9FC JUMP JUMPDEST PUSH1 0xC PUSH2 0x9FC JUMP JUMPDEST PUSH1 0xD PUSH2 0x9FC JUMP JUMPDEST PUSH2 0x83 CALLER PUSH1 0xE PUSH2 0xA54 JUMP JUMPDEST SWAP1 PUSH2 0x83 SWAP3 SWAP2 PUSH2 0xADF JUMP JUMPDEST PUSH2 0xA36 PUSH2 0x10D PUSH2 0x10D SWAP3 SWAP1 JUMP JUMPDEST PUSH2 0x10D SWAP1 PUSH2 0xAAC JUMP JUMPDEST PUSH2 0xACB SWAP1 PUSH2 0xA36 JUMP JUMPDEST SWAP1 MSTORE JUMP JUMPDEST PUSH1 0x20 DUP2 ADD SWAP3 SWAP2 PUSH2 0x83 SWAP2 SWAP1 PUSH2 0xAC2 JUMP JUMPDEST SWAP2 PUSH2 0xAE9 SWAP2 PUSH2 0xB33 JUMP JUMPDEST PUSH1 0x0 PUSH2 0xAF4 DUP2 PUSH2 0xAB9 JUMP JUMPDEST PUSH2 0xAFD DUP2 PUSH2 0xA36 JUMP JUMPDEST PUSH2 0xB06 DUP5 PUSH2 0xA36 JUMP JUMPDEST EQ PUSH2 0xB16 JUMPI POP POP PUSH2 0x83 SWAP1 PUSH2 0xB65 JUMP JUMPDEST PUSH4 0x1E4FBDF7 PUSH1 0xE0 SHL DUP3 MSTORE DUP2 SWAP1 PUSH2 0xB2F SWAP1 PUSH1 0x4 DUP4 ADD PUSH2 0xACF JUMP JUMPDEST SUB SWAP1 REVERT JUMPDEST PUSH2 0x83 SWAP2 DUP3 SWAP2 DUP3 SWAP2 DUP3 SWAP2 DUP3 SWAP2 SWAP1 PUSH2 0xB4B SWAP1 PUSH1 0x0 PUSH2 0x840 JUMP JUMPDEST PUSH1 0x1 PUSH2 0x840 JUMP JUMPDEST PUSH2 0x10D SWAP1 PUSH2 0xA36 JUMP JUMPDEST PUSH2 0x10D SWAP1 SLOAD PUSH2 0xB52 JUMP JUMPDEST PUSH2 0xB8B PUSH2 0xB85 PUSH2 0xB75 PUSH1 0xA PUSH2 0xB5B JUMP JUMPDEST PUSH2 0xB80 DUP5 PUSH1 0xA PUSH2 0xA54 JUMP JUMPDEST PUSH2 0xA4B JUMP JUMPDEST SWAP2 PUSH2 0xA4B JUMP JUMPDEST SWAP1 PUSH32 0x8BE0079C531659141344CD1FD0A4F28419497F9722A3DAAFE3B4186F6B6457E0 PUSH2 0xBB6 PUSH1 0x40 MLOAD SWAP1 JUMP JUMPDEST PUSH1 0x0 SWAP1 LOG3 JUMP INVALID PUSH1 0x80 PUSH1 0x40 MSTORE PUSH1 0x4 CALLDATASIZE LT ISZERO PUSH2 0x1B JUMPI JUMPDEST CALLDATASIZE ISZERO PUSH2 0x19 JUMPI PUSH1 0x0 DUP1 REVERT JUMPDEST STOP JUMPDEST PUSH1 0x0 CALLDATALOAD PUSH1 0xE0 SHR DUP1 PUSH4 0x18A25E8 EQ PUSH2 0x2EB JUMPI DUP1 PUSH4 0x1FFC9A7 EQ PUSH2 0x2E6 JUMPI DUP1 PUSH4 0x2D05D3F EQ PUSH2 0x2E1 JUMPI DUP1 PUSH4 0x583E9F8 EQ PUSH2 0x2DC JUMPI DUP1 PUSH4 0x6FDDE03 EQ PUSH2 0x2D7 JUMPI DUP1 PUSH4 0x81812FC EQ PUSH2 0x2D2 JUMPI DUP1 PUSH4 0x95EA7B3 EQ PUSH2 0x2CD JUMPI DUP1 PUSH4 0x1249C58B EQ PUSH2 0x2C8 JUMPI DUP1 PUSH4 0x12EA5C7E EQ PUSH2 0x2C3 JUMPI DUP1 PUSH4 0x150B7A02 EQ PUSH2 0x2BE JUMPI DUP1 PUSH4 0x18160DDD EQ PUSH2 0x2B9 JUMPI DUP1 PUSH4 0x1D0806AE EQ PUSH2 0x2B4 JUMPI DUP1 PUSH4 0x21A1C184 EQ PUSH2 0x2AF JUMPI DUP1 PUSH4 0x23B872DD EQ PUSH2 0x2AA JUMPI DUP1 PUSH4 0x2DCD52F2 EQ PUSH2 0x2A5 JUMPI DUP1 PUSH4 0x2F745C59 EQ PUSH2 0x2A0 JUMPI DUP1 PUSH4 0x3F516018 EQ PUSH2 0x29B JUMPI DUP1 PUSH4 0x42842E0E EQ PUSH2 0x296 JUMPI DUP1 PUSH4 0x43D32E9C EQ PUSH2 0x291 JUMPI DUP1 PUSH4 0x4A8FE650 EQ PUSH2 0x28C JUMPI DUP1 PUSH4 0x4F6CCCE7 EQ PUSH2 0x287 JUMPI DUP1 PUSH4 0x53613DD3 EQ PUSH2 0x282 JUMPI DUP1 PUSH4 0x55F804B3 EQ PUSH2 0x27D JUMPI DUP1 PUSH4 0x5EBA096B EQ PUSH2 0x278 JUMPI DUP1 PUSH4 0x5F516836 EQ PUSH2 0x273 JUMPI DUP1 PUSH4 0x6352211E EQ PUSH2 0x26E JUMPI DUP1 PUSH4 0x6C0360EB EQ PUSH2 0x269 JUMPI DUP1 PUSH4 0x70A08231 EQ PUSH2 0x264 JUMPI DUP1 PUSH4 0x715018A6 EQ PUSH2 0x25F JUMPI DUP1 PUSH4 0x771282F6 EQ PUSH2 0x25A JUMPI DUP1 PUSH4 0x8DA5CB5B EQ PUSH2 0x255 JUMPI DUP1 PUSH4 0x95D89B41 EQ PUSH2 0x250 JUMPI DUP1 PUSH4 0xA22CB465 EQ PUSH2 0x24B JUMPI DUP1 PUSH4 0xAD64D068 EQ PUSH2 0x246 JUMPI DUP1 PUSH4 0xAE104265 EQ PUSH2 0x241 JUMPI DUP1 PUSH4 0xB88D4FDE EQ PUSH2 0x23C JUMPI DUP1 PUSH4 0xC87B56DD EQ PUSH2 0x237 JUMPI DUP1 PUSH4 0xCF6A68BF EQ PUSH2 0x232 JUMPI DUP1 PUSH4 0xD5ABEB01 EQ PUSH2 0x22D JUMPI DUP1 PUSH4 0xD96A094A EQ PUSH2 0x228 JUMPI DUP1 PUSH4 0xE4849B32 EQ PUSH2 0x223 JUMPI DUP1 PUSH4 0xE8A3D485 EQ PUSH2 0x21E JUMPI DUP1 PUSH4 0xE985E9C5 EQ PUSH2 0x219 JUMPI DUP1 PUSH4 0xF0F2805F EQ PUSH2 0x214 JUMPI PUSH4 0xF2FDE38B SUB PUSH2 0xE JUMPI PUSH2 0xDAE JUMP JUMPDEST PUSH2 0xD93 JUMP JUMPDEST PUSH2 0xD77 JUMP JUMPDEST PUSH2 0xD39 JUMP JUMPDEST PUSH2 0xD21 JUMP JUMPDEST PUSH2 0xD0E JUMP JUMPDEST PUSH2 0xCF3 JUMP JUMPDEST PUSH2 0xCCC JUMP JUMPDEST PUSH2 0xCB1 JUMP JUMPDEST PUSH2 0xC95 JUMP JUMPDEST PUSH2 0xC7A JUMP JUMPDEST PUSH2 0xC5F JUMP JUMPDEST PUSH2 0xBEA JUMP JUMPDEST PUSH2 0xB97 JUMP JUMPDEST PUSH2 0xB7C JUMP JUMPDEST PUSH2 0xB61 JUMP JUMPDEST PUSH2 0xB3D JUMP JUMPDEST PUSH2 0xB22 JUMP JUMPDEST PUSH2 0xB07 JUMP JUMPDEST PUSH2 0x9C5 JUMP JUMPDEST PUSH2 0x9AA JUMP JUMPDEST PUSH2 0x97E JUMP JUMPDEST PUSH2 0x94A JUMP JUMPDEST PUSH2 0x909 JUMP JUMPDEST PUSH2 0x8E2 JUMP JUMPDEST PUSH2 0x8C7 JUMP JUMPDEST PUSH2 0x8AC JUMP JUMPDEST PUSH2 0x893 JUMP JUMPDEST PUSH2 0x87B JUMP JUMPDEST PUSH2 0x84B JUMP JUMPDEST PUSH2 0x82F JUMP JUMPDEST PUSH2 0x816 JUMP JUMPDEST PUSH2 0x7D2 JUMP JUMPDEST PUSH2 0x7B7 JUMP JUMPDEST PUSH2 0x78F JUMP JUMPDEST PUSH2 0x755 JUMP JUMPDEST PUSH2 0x61A JUMP JUMPDEST PUSH2 0x59D JUMP JUMPDEST PUSH2 0x57F JUMP JUMPDEST PUSH2 0x52B JUMP JUMPDEST PUSH2 0x504 JUMP JUMPDEST PUSH2 0x47D JUMP JUMPDEST PUSH2 0x3DF JUMP JUMPDEST PUSH2 0x36C JUMP JUMPDEST PUSH2 0x306 JUMP JUMPDEST PUSH1 0x0 SWAP2 SUB SLT PUSH2 0x2FB JUMPI JUMP JUMPDEST PUSH1 0x0 DUP1 REVERT JUMPDEST SWAP1 MSTORE JUMP JUMPDEST JUMP JUMPDEST CALLVALUE PUSH2 0x2FB JUMPI PUSH2 0x316 CALLDATASIZE PUSH1 0x4 PUSH2 0x2F0 JUMP JUMPDEST PUSH2 0x331 PUSH2 0x321 PUSH2 0xDD7 JUMP JUMPDEST PUSH1 0x40 MLOAD SWAP2 DUP3 SWAP2 DUP3 SWAP1 DUP2 MSTORE PUSH1 0x20 ADD SWAP1 JUMP JUMPDEST SUB SWAP1 RETURN JUMPDEST PUSH1 0x1 PUSH1 0x1 PUSH1 0xE0 SHL SUB NOT DUP2 AND JUMPDEST SUB PUSH2 0x2FB JUMPI JUMP JUMPDEST SWAP1 POP CALLDATALOAD SWAP1 PUSH2 0x304 DUP3 PUSH2 0x335 JUMP JUMPDEST SWAP1 PUSH1 0x20 DUP3 DUP3 SUB SLT PUSH2 0x2FB JUMPI PUSH2 0x369 SWAP2 PUSH2 0x348 JUMP JUMPDEST SWAP1 JUMP JUMPDEST CALLVALUE PUSH2 0x2FB JUMPI PUSH2 0x331 PUSH2 0x387 PUSH2 0x382 CALLDATASIZE PUSH1 0x4 PUSH2 0x355 JUMP JUMPDEST PUSH2 0xDE4 JUMP JUMPDEST PUSH1 0x40 MLOAD JUMPDEST SWAP2 DUP3 SWAP2 DUP3 SWAP1 ISZERO ISZERO DUP2 MSTORE PUSH1 0x20 ADD SWAP1 JUMP JUMPDEST PUSH2 0x369 SWAP2 PUSH1 0x8 MUL SHR JUMPDEST PUSH1 0x1 PUSH1 0x1 PUSH1 0xA0 SHL SUB AND SWAP1 JUMP JUMPDEST SWAP1 PUSH2 0x369 SWAP2 SLOAD PUSH2 0x39A JUMP JUMPDEST PUSH2 0x369 PUSH1 0x0 PUSH1 0xE PUSH2 0x3AF JUMP JUMPDEST PUSH2 0x300 SWAP1 PUSH2 0x3A3 JUMP JUMPDEST PUSH1 0x20 DUP2 ADD SWAP3 SWAP2 PUSH2 0x304 SWAP2 SWAP1 PUSH2 0x3C6 JUMP JUMPDEST CALLVALUE PUSH2 0x2FB JUMPI PUSH2 0x3EF CALLDATASIZE PUSH1 0x4 PUSH2 0x2F0 JUMP JUMPDEST PUSH2 0x331 PUSH2 0x3FA PUSH2 0x3BA JUMP JUMPDEST PUSH1 0x40 MLOAD SWAP2 DUP3 SWAP2 DUP3 PUSH2 0x3CF JUMP JUMPDEST DUP1 PUSH2 0x341 JUMP JUMPDEST SWAP1 POP CALLDATALOAD SWAP1 PUSH2 0x304 DUP3 PUSH2 0x406 JUMP JUMPDEST SWAP1 PUSH1 0x20 DUP3 DUP3 SUB SLT PUSH2 0x2FB JUMPI PUSH2 0x369 SWAP2 PUSH2 0x40C JUMP JUMPDEST PUSH2 0x369 PUSH2 0x369 PUSH2 0x369 SWAP3 SWAP1 JUMP JUMPDEST SWAP1 PUSH2 0x444 SWAP1 PUSH2 0x42D JUMP JUMPDEST PUSH1 0x0 MSTORE PUSH1 0x20 MSTORE PUSH1 0x40 PUSH1 0x0 KECCAK256 SWAP1 JUMP JUMPDEST PUSH2 0x369 SWAP2 PUSH1 0x8 MUL SHR DUP2 JUMP JUMPDEST SWAP1 PUSH2 0x369 SWAP2 SLOAD PUSH2 0x452 JUMP JUMPDEST PUSH1 0x0 PUSH2 0x478 PUSH2 0x369 SWAP3 PUSH1 0x11 PUSH2 0x43A JUMP JUMPDEST PUSH2 0x45D JUMP JUMPDEST CALLVALUE PUSH2 0x2FB JUMPI PUSH2 0x331 PUSH2 0x321 PUSH2 0x493 CALLDATASIZE PUSH1 0x4 PUSH2 0x419 JUMP JUMPDEST PUSH2 0x468 JUMP JUMPDEST PUSH1 0x0 JUMPDEST DUP4 DUP2 LT PUSH2 0x4AB JUMPI POP POP PUSH1 0x0 SWAP2 ADD MSTORE JUMP JUMPDEST DUP2 DUP2 ADD MLOAD DUP4 DUP3 ADD MSTORE PUSH1 0x20 ADD PUSH2 0x49B JUMP JUMPDEST PUSH2 0x4DC PUSH2 0x4E5 PUSH1 0x20 SWAP4 PUSH2 0x4EF SWAP4 PUSH2 0x4D0 DUP2 MLOAD SWAP1 JUMP JUMPDEST DUP1 DUP4 MSTORE SWAP4 DUP5 SWAP3 PUSH1 0x20 ADD SWAP1 JUMP JUMPDEST SWAP6 DUP7 SWAP2 ADD PUSH2 0x498 JUMP JUMPDEST PUSH1 0x1F ADD PUSH1 0x1F NOT AND SWAP1 JUMP JUMPDEST ADD SWAP1 JUMP JUMPDEST PUSH1 0x20 DUP1 DUP3 MSTORE PUSH2 0x369 SWAP3 SWAP2 ADD SWAP1 PUSH2 0x4BB JUMP JUMPDEST CALLVALUE PUSH2 0x2FB JUMPI PUSH2 0x514 CALLDATASIZE PUSH1 0x4 PUSH2 0x2F0 JUMP JUMPDEST PUSH2 0x331 PUSH2 0x51F PUSH2 0xE21 JUMP JUMPDEST PUSH1 0x40 MLOAD SWAP2 DUP3 SWAP2 DUP3 PUSH2 0x4F3 JUMP JUMPDEST CALLVALUE PUSH2 0x2FB JUMPI PUSH2 0x331 PUSH2 0x3FA PUSH2 0x541 CALLDATASIZE PUSH1 0x4 PUSH2 0x419 JUMP JUMPDEST PUSH2 0xE2B JUMP JUMPDEST PUSH2 0x341 DUP2 PUSH2 0x3A3 JUMP JUMPDEST SWAP1 POP CALLDATALOAD SWAP1 PUSH2 0x304 DUP3 PUSH2 0x546 JUMP JUMPDEST SWAP2 SWAP1 PUSH1 0x40 DUP4 DUP3 SUB SLT PUSH2 0x2FB JUMPI PUSH2 0x369 SWAP1 PUSH1 0x20 PUSH2 0x578 DUP3 DUP7 PUSH2 0x54F JUMP JUMPDEST SWAP5 ADD PUSH2 0x40C JUMP JUMPDEST CALLVALUE PUSH2 0x2FB JUMPI PUSH2 0x598 PUSH2 0x592 CALLDATASIZE PUSH1 0x4 PUSH2 0x55C JUMP JUMPDEST SWAP1 PUSH2 0xE3E JUMP JUMPDEST PUSH1 0x40 MLOAD STOP JUMPDEST PUSH2 0x5A8 CALLDATASIZE PUSH1 0x4 PUSH2 0x2F0 JUMP JUMPDEST PUSH2 0x331 PUSH2 0x321 PUSH2 0xE9C JUMP JUMPDEST SWAP1 PUSH2 0x5D3 PUSH2 0x5CC PUSH2 0x5C2 DUP5 MLOAD SWAP1 JUMP JUMPDEST DUP1 DUP5 MSTORE SWAP3 PUSH1 0x20 ADD SWAP1 JUMP JUMPDEST SWAP3 PUSH1 0x20 ADD SWAP1 JUMP JUMPDEST SWAP1 PUSH1 0x0 JUMPDEST DUP2 DUP2 LT PUSH2 0x5E4 JUMPI POP POP POP SWAP1 JUMP JUMPDEST SWAP1 SWAP2 SWAP3 PUSH2 0x601 PUSH2 0x5FA PUSH1 0x1 SWAP3 DUP7 MLOAD DUP2 MSTORE PUSH1 0x20 ADD SWAP1 JUMP JUMPDEST SWAP5 PUSH1 0x20 ADD SWAP1 JUMP JUMPDEST SWAP3 SWAP2 ADD PUSH2 0x5D7 JUMP JUMPDEST PUSH1 0x20 DUP1 DUP3 MSTORE PUSH2 0x369 SWAP3 SWAP2 ADD SWAP1 PUSH2 0x5B3 JUMP JUMPDEST CALLVALUE PUSH2 0x2FB JUMPI PUSH2 0x62A CALLDATASIZE PUSH1 0x4 PUSH2 0x2F0 JUMP JUMPDEST PUSH2 0x331 PUSH2 0x635 PUSH2 0xF5B JUMP JUMPDEST PUSH1 0x40 MLOAD SWAP2 DUP3 SWAP2 DUP3 PUSH2 0x609 JUMP JUMPDEST PUSH4 0x4E487B71 PUSH1 0xE0 SHL PUSH1 0x0 MSTORE PUSH1 0x41 PUSH1 0x4 MSTORE PUSH1 0x24 PUSH1 0x0 REVERT JUMPDEST SWAP1 PUSH1 0x1F ADD PUSH1 0x1F NOT AND DUP2 ADD SWAP1 DUP2 LT PUSH8 0xFFFFFFFFFFFFFFFF DUP3 GT OR PUSH2 0x679 JUMPI PUSH1 0x40 MSTORE JUMP JUMPDEST PUSH2 0x641 JUMP JUMPDEST SWAP1 PUSH2 0x304 PUSH2 0x68B PUSH1 0x40 MLOAD SWAP1 JUMP JUMPDEST SWAP3 DUP4 PUSH2 0x657 JUMP JUMPDEST PUSH8 0xFFFFFFFFFFFFFFFF DUP2 GT PUSH2 0x679 JUMPI PUSH1 0x20 SWAP1 PUSH1 0x1F ADD PUSH1 0x1F NOT AND ADD SWAP1 JUMP JUMPDEST SWAP1 DUP3 PUSH1 0x0 SWAP4 SWAP3 DUP3 CALLDATACOPY ADD MSTORE JUMP JUMPDEST SWAP1 SWAP3 SWAP2 SWAP3 PUSH2 0x6D0 PUSH2 0x6CB DUP3 PUSH2 0x692 JUMP JUMPDEST PUSH2 0x67E JUMP JUMPDEST SWAP4 DUP2 DUP6 MSTORE DUP2 DUP4 ADD GT PUSH2 0x2FB JUMPI PUSH2 0x304 SWAP2 PUSH1 0x20 DUP6 ADD SWAP1 PUSH2 0x6AF JUMP JUMPDEST SWAP1 DUP1 PUSH1 0x1F DUP4 ADD SLT ISZERO PUSH2 0x2FB JUMPI DUP2 PUSH1 0x20 PUSH2 0x369 SWAP4 CALLDATALOAD SWAP2 ADD PUSH2 0x6BB JUMP JUMPDEST SWAP1 PUSH1 0x80 DUP3 DUP3 SUB SLT PUSH2 0x2FB JUMPI PUSH2 0x71A DUP2 DUP4 PUSH2 0x54F JUMP JUMPDEST SWAP3 PUSH2 0x728 DUP3 PUSH1 0x20 DUP6 ADD PUSH2 0x54F JUMP JUMPDEST SWAP3 PUSH2 0x736 DUP4 PUSH1 0x40 DUP4 ADD PUSH2 0x40C JUMP JUMPDEST SWAP3 PUSH1 0x60 DUP3 ADD CALLDATALOAD PUSH8 0xFFFFFFFFFFFFFFFF DUP2 GT PUSH2 0x2FB JUMPI PUSH2 0x369 SWAP3 ADD PUSH2 0x6EA JUMP JUMPDEST CALLVALUE PUSH2 0x2FB JUMPI PUSH2 0x331 PUSH2 0x774 PUSH2 0x76B CALLDATASIZE PUSH1 0x4 PUSH2 0x705 JUMP JUMPDEST SWAP3 SWAP2 SWAP1 SWAP2 PUSH2 0xFA8 JUMP JUMPDEST PUSH1 0x40 MLOAD SWAP2 DUP3 SWAP2 DUP3 PUSH1 0x1 PUSH1 0x1 PUSH1 0xE0 SHL SUB NOT SWAP1 SWAP2 AND DUP2 MSTORE PUSH1 0x20 ADD SWAP1 JUMP JUMPDEST CALLVALUE PUSH2 0x2FB JUMPI PUSH2 0x79F CALLDATASIZE PUSH1 0x4 PUSH2 0x2F0 JUMP JUMPDEST PUSH2 0x331 PUSH2 0x321 PUSH1 0x8 SLOAD SWAP1 JUMP JUMPDEST PUSH2 0x369 PUSH1 0x0 PUSH1 0xB PUSH2 0x45D JUMP JUMPDEST CALLVALUE PUSH2 0x2FB JUMPI PUSH2 0x7C7 CALLDATASIZE PUSH1 0x4 PUSH2 0x2F0 JUMP JUMPDEST PUSH2 0x331 PUSH2 0x321 PUSH2 0x7AB JUMP JUMPDEST CALLVALUE PUSH2 0x2FB JUMPI PUSH2 0x7E2 CALLDATASIZE PUSH1 0x4 PUSH2 0x2F0 JUMP JUMPDEST PUSH2 0x331 PUSH2 0x321 PUSH2 0x1012 JUMP JUMPDEST SWAP1 SWAP2 PUSH1 0x60 DUP3 DUP5 SUB SLT PUSH2 0x2FB JUMPI PUSH2 0x369 PUSH2 0x806 DUP5 DUP5 PUSH2 0x54F JUMP JUMPDEST SWAP4 PUSH1 0x40 PUSH2 0x578 DUP3 PUSH1 0x20 DUP8 ADD PUSH2 0x54F JUMP JUMPDEST CALLVALUE PUSH2 0x2FB JUMPI PUSH2 0x598 PUSH2 0x829 CALLDATASIZE PUSH1 0x4 PUSH2 0x7ED JUMP JUMPDEST SWAP2 PUSH2 0x1094 JUMP JUMPDEST CALLVALUE PUSH2 0x2FB JUMPI PUSH2 0x83F CALLDATASIZE PUSH1 0x4 PUSH2 0x2F0 JUMP JUMPDEST PUSH2 0x331 PUSH2 0x321 PUSH1 0x10 SLOAD SWAP1 JUMP JUMPDEST CALLVALUE PUSH2 0x2FB JUMPI PUSH2 0x331 PUSH2 0x321 PUSH2 0x861 CALLDATASIZE PUSH1 0x4 PUSH2 0x55C JUMP JUMPDEST SWAP1 PUSH2 0x114E JUMP JUMPDEST SWAP1 PUSH1 0x20 DUP3 DUP3 SUB SLT PUSH2 0x2FB JUMPI PUSH2 0x369 SWAP2 PUSH2 0x54F JUMP JUMPDEST CALLVALUE PUSH2 0x2FB JUMPI PUSH2 0x598 PUSH2 0x88E CALLDATASIZE PUSH1 0x4 PUSH2 0x867 JUMP JUMPDEST PUSH2 0x1264 JUMP JUMPDEST CALLVALUE PUSH2 0x2FB JUMPI PUSH2 0x598 PUSH2 0x8A6 CALLDATASIZE PUSH1 0x4 PUSH2 0x7ED JUMP JUMPDEST SWAP2 PUSH2 0x1291 JUMP JUMPDEST CALLVALUE PUSH2 0x2FB JUMPI PUSH2 0x8BC CALLDATASIZE PUSH1 0x4 PUSH2 0x2F0 JUMP JUMPDEST PUSH2 0x331 PUSH2 0x321 PUSH2 0x12A5 JUMP JUMPDEST CALLVALUE PUSH2 0x2FB JUMPI PUSH2 0x8D7 CALLDATASIZE PUSH1 0x4 PUSH2 0x2F0 JUMP JUMPDEST PUSH2 0x331 PUSH2 0x321 PUSH2 0x12E9 JUMP JUMPDEST CALLVALUE PUSH2 0x2FB JUMPI PUSH2 0x331 PUSH2 0x321 PUSH2 0x8F8 CALLDATASIZE PUSH1 0x4 PUSH2 0x419 JUMP JUMPDEST PUSH2 0x1304 JUMP JUMPDEST PUSH2 0x369 PUSH1 0x0 PUSH1 0xD PUSH2 0x45D JUMP JUMPDEST CALLVALUE PUSH2 0x2FB JUMPI PUSH2 0x919 CALLDATASIZE PUSH1 0x4 PUSH2 0x2F0 JUMP JUMPDEST PUSH2 0x331 PUSH2 0x321 PUSH2 0x8FD JUMP JUMPDEST SWAP1 PUSH1 0x20 DUP3 DUP3 SUB SLT PUSH2 0x2FB JUMPI DUP2 CALLDATALOAD PUSH8 0xFFFFFFFFFFFFFFFF DUP2 GT PUSH2 0x2FB JUMPI PUSH2 0x369 SWAP3 ADD PUSH2 0x6EA JUMP JUMPDEST CALLVALUE PUSH2 0x2FB JUMPI PUSH2 0x598 PUSH2 0x95D CALLDATASIZE PUSH1 0x4 PUSH2 0x924 JUMP JUMPDEST PUSH2 0x14F0 JUMP JUMPDEST SWAP2 SWAP1 PUSH1 0x40 DUP4 DUP3 SUB SLT PUSH2 0x2FB JUMPI PUSH2 0x369 SWAP1 PUSH1 0x20 PUSH2 0x578 DUP3 DUP7 PUSH2 0x40C JUMP JUMPDEST CALLVALUE PUSH2 0x2FB JUMPI PUSH2 0x331 PUSH2 0x635 PUSH2 0x994 CALLDATASIZE PUSH1 0x4 PUSH2 0x962 JUMP JUMPDEST SWAP1 PUSH2 0x15AC JUMP JUMPDEST PUSH1 0x0 PUSH2 0x478 PUSH2 0x369 SWAP3 PUSH1 0x13 PUSH2 0x43A JUMP JUMPDEST CALLVALUE PUSH2 0x2FB JUMPI PUSH2 0x331 PUSH2 0x321 PUSH2 0x9C0 CALLDATASIZE PUSH1 0x4 PUSH2 0x419 JUMP JUMPDEST PUSH2 0x99A JUMP JUMPDEST CALLVALUE PUSH2 0x2FB JUMPI PUSH2 0x331 PUSH2 0x3FA PUSH2 0x9DB CALLDATASIZE PUSH1 0x4 PUSH2 0x419 JUMP JUMPDEST PUSH2 0x163B JUMP JUMPDEST PUSH4 0x4E487B71 PUSH1 0xE0 SHL PUSH1 0x0 MSTORE PUSH1 0x0 PUSH1 0x4 MSTORE PUSH1 0x24 PUSH1 0x0 REVERT JUMPDEST PUSH4 0x4E487B71 PUSH1 0xE0 SHL PUSH1 0x0 MSTORE PUSH1 0x22 PUSH1 0x4 MSTORE PUSH1 0x24 PUSH1 0x0 REVERT JUMPDEST SWAP1 PUSH1 0x1 PUSH1 0x2 DUP4 DIV SWAP3 AND DUP1 ISZERO PUSH2 0xA2C JUMPI JUMPDEST PUSH1 0x20 DUP4 LT EQ PUSH2 0xA27 JUMPI JUMP JUMPDEST PUSH2 0x9F6 JUMP JUMPDEST SWAP2 PUSH1 0x7F AND SWAP2 PUSH2 0xA1C JUMP JUMPDEST DUP1 SLOAD PUSH1 0x0 SWAP4 SWAP3 SWAP2 PUSH2 0xA53 PUSH2 0xA49 DUP4 PUSH2 0xA0C JUMP JUMPDEST DUP1 DUP6 MSTORE SWAP4 PUSH1 0x20 ADD SWAP1 JUMP JUMPDEST SWAP2 PUSH1 0x1 DUP2 AND SWAP1 DUP2 ISZERO PUSH2 0xAA5 JUMPI POP PUSH1 0x1 EQ PUSH2 0xA6C JUMPI POP POP POP JUMP JUMPDEST PUSH2 0xA7F SWAP2 SWAP3 SWAP4 SWAP5 POP PUSH1 0x0 MSTORE PUSH1 0x20 PUSH1 0x0 KECCAK256 SWAP1 JUMP JUMPDEST SWAP2 PUSH1 0x0 SWAP3 JUMPDEST DUP2 DUP5 LT PUSH2 0xA91 JUMPI POP POP ADD SWAP1 JUMP JUMPDEST DUP1 SLOAD DUP5 DUP5 ADD MSTORE PUSH1 0x20 SWAP1 SWAP4 ADD SWAP3 PUSH1 0x1 ADD PUSH2 0xA84 JUMP JUMPDEST SWAP3 SWAP5 SWAP6 POP POP POP PUSH1 0xFF NOT AND DUP3 MSTORE ISZERO ISZERO PUSH1 0x20 MUL ADD SWAP1 JUMP JUMPDEST SWAP1 PUSH2 0x369 SWAP2 PUSH2 0xA36 JUMP JUMPDEST SWAP1 PUSH2 0x304 PUSH2 0xADE SWAP3 PUSH2 0xAD5 PUSH1 0x40 MLOAD SWAP1 JUMP JUMPDEST SWAP4 DUP5 DUP1 SWAP3 PUSH2 0xABA JUMP JUMPDEST SUB DUP4 PUSH2 0x657 JUMP JUMPDEST SWAP1 PUSH1 0x0 LT PUSH2 0xAF6 JUMPI PUSH2 0x369 SWAP1 PUSH2 0xAC4 JUMP JUMPDEST PUSH2 0x9E0 JUMP JUMPDEST PUSH2 0x369 PUSH1 0x0 PUSH1 0x12 PUSH2 0xAE5 JUMP JUMPDEST CALLVALUE PUSH2 0x2FB JUMPI PUSH2 0xB17 CALLDATASIZE PUSH1 0x4 PUSH2 0x2F0 JUMP JUMPDEST PUSH2 0x331 PUSH2 0x51F PUSH2 0xAFB JUMP JUMPDEST CALLVALUE PUSH2 0x2FB JUMPI PUSH2 0x331 PUSH2 0x321 PUSH2 0xB38 CALLDATASIZE PUSH1 0x4 PUSH2 0x867 JUMP JUMPDEST PUSH2 0x1644 JUMP JUMPDEST CALLVALUE PUSH2 0x2FB JUMPI PUSH2 0xB4D CALLDATASIZE PUSH1 0x4 PUSH2 0x2F0 JUMP JUMPDEST PUSH2 0x598 PUSH2 0x16AC JUMP JUMPDEST PUSH2 0x369 PUSH1 0x0 PUSH1 0xF PUSH2 0x45D JUMP JUMPDEST CALLVALUE PUSH2 0x2FB JUMPI PUSH2 0xB71 CALLDATASIZE PUSH1 0x4 PUSH2 0x2F0 JUMP JUMPDEST PUSH2 0x331 PUSH2 0x321 PUSH2 0xB55 JUMP JUMPDEST CALLVALUE PUSH2 0x2FB JUMPI PUSH2 0xB8C CALLDATASIZE PUSH1 0x4 PUSH2 0x2F0 JUMP JUMPDEST PUSH2 0x331 PUSH2 0x3FA PUSH2 0x16B4 JUMP JUMPDEST CALLVALUE PUSH2 0x2FB JUMPI PUSH2 0xBA7 CALLDATASIZE PUSH1 0x4 PUSH2 0x2F0 JUMP JUMPDEST PUSH2 0x331 PUSH2 0x51F PUSH2 0x16BE JUMP JUMPDEST DUP1 ISZERO ISZERO PUSH2 0x341 JUMP JUMPDEST SWAP1 POP CALLDATALOAD SWAP1 PUSH2 0x304 DUP3 PUSH2 0xBB2 JUMP JUMPDEST SWAP2 SWAP1 PUSH1 0x40 DUP4 DUP3 SUB SLT PUSH2 0x2FB JUMPI PUSH2 0x369 SWAP1 PUSH1 0x20 PUSH2 0xBE3 DUP3 DUP7 PUSH2 0x54F JUMP JUMPDEST SWAP5 ADD PUSH2 0xBBA JUMP JUMPDEST CALLVALUE PUSH2 0x2FB JUMPI PUSH2 0x598 PUSH2 0xBFD CALLDATASIZE PUSH1 0x4 PUSH2 0xBC7 JUMP JUMPDEST SWAP1 PUSH2 0x16C8 JUMP JUMPDEST PUSH4 0x4E487B71 PUSH1 0xE0 SHL PUSH1 0x0 MSTORE PUSH1 0x32 PUSH1 0x4 MSTORE PUSH1 0x24 PUSH1 0x0 REVERT JUMPDEST DUP1 SLOAD DUP3 LT ISZERO PUSH2 0xC3C JUMPI PUSH2 0xC33 PUSH1 0x1 SWAP2 PUSH1 0x0 MSTORE PUSH1 0x20 PUSH1 0x0 KECCAK256 SWAP1 JUMP JUMPDEST SWAP2 MUL ADD SWAP1 PUSH1 0x0 SWAP1 JUMP JUMPDEST PUSH2 0xC03 JUMP JUMPDEST PUSH1 0x10 SLOAD DUP2 LT ISZERO PUSH2 0x2FB JUMPI PUSH2 0xC59 PUSH2 0x369 SWAP2 PUSH1 0x10 PUSH2 0xC19 JUMP JUMPDEST SWAP1 PUSH2 0x45D JUMP JUMPDEST CALLVALUE PUSH2 0x2FB JUMPI PUSH2 0x331 PUSH2 0x321 PUSH2 0xC75 CALLDATASIZE PUSH1 0x4 PUSH2 0x419 JUMP JUMPDEST PUSH2 0xC41 JUMP JUMPDEST CALLVALUE PUSH2 0x2FB JUMPI PUSH2 0x331 PUSH2 0x321 PUSH2 0xC90 CALLDATASIZE PUSH1 0x4 PUSH2 0x419 JUMP JUMPDEST PUSH2 0x16D3 JUMP JUMPDEST CALLVALUE PUSH2 0x2FB JUMPI PUSH2 0x598 PUSH2 0xCA8 CALLDATASIZE PUSH1 0x4 PUSH2 0x705 JUMP JUMPDEST SWAP3 SWAP2 SWAP1 SWAP2 PUSH2 0x1764 JUMP JUMPDEST CALLVALUE PUSH2 0x2FB JUMPI PUSH2 0x331 PUSH2 0x51F PUSH2 0xCC7 CALLDATASIZE PUSH1 0x4 PUSH2 0x419 JUMP JUMPDEST PUSH2 0x186A JUMP JUMPDEST CALLVALUE PUSH2 0x2FB JUMPI PUSH2 0x331 PUSH2 0x321 PUSH2 0xCE2 CALLDATASIZE PUSH1 0x4 PUSH2 0x419 JUMP JUMPDEST PUSH2 0x1923 JUMP JUMPDEST PUSH2 0x369 PUSH1 0x0 PUSH1 0xC PUSH2 0x45D JUMP JUMPDEST CALLVALUE PUSH2 0x2FB JUMPI PUSH2 0xD03 CALLDATASIZE PUSH1 0x4 PUSH2 0x2F0 JUMP JUMPDEST PUSH2 0x331 PUSH2 0x321 PUSH2 0xCE7 JUMP JUMPDEST PUSH2 0x598 PUSH2 0xD1C CALLDATASIZE PUSH1 0x4 PUSH2 0x419 JUMP JUMPDEST PUSH2 0x1B67 JUMP JUMPDEST CALLVALUE PUSH2 0x2FB JUMPI PUSH2 0x598 PUSH2 0xD34 CALLDATASIZE PUSH1 0x4 PUSH2 0x419 JUMP JUMPDEST PUSH2 0x1D73 JUMP JUMPDEST CALLVALUE PUSH2 0x2FB JUMPI PUSH2 0xD49 CALLDATASIZE PUSH1 0x4 PUSH2 0x2F0 JUMP JUMPDEST PUSH2 0x331 PUSH2 0x51F PUSH2 0x1E50 JUMP JUMPDEST SWAP2 SWAP1 PUSH1 0x40 DUP4 DUP3 SUB SLT PUSH2 0x2FB JUMPI PUSH2 0x369 SWAP1 PUSH1 0x20 PUSH2 0xD70 DUP3 DUP7 PUSH2 0x54F JUMP JUMPDEST SWAP5 ADD PUSH2 0x54F JUMP JUMPDEST CALLVALUE PUSH2 0x2FB JUMPI PUSH2 0x331 PUSH2 0x387 PUSH2 0xD8D CALLDATASIZE PUSH1 0x4 PUSH2 0xD54 JUMP JUMPDEST SWAP1 PUSH2 0x1E94 JUMP JUMPDEST CALLVALUE PUSH2 0x2FB JUMPI PUSH2 0x331 PUSH2 0x387 PUSH2 0xDA9 CALLDATASIZE PUSH1 0x4 PUSH2 0x419 JUMP JUMPDEST PUSH2 0x1EB9 JUMP JUMPDEST CALLVALUE PUSH2 0x2FB JUMPI PUSH2 0x598 PUSH2 0xDC1 CALLDATASIZE PUSH1 0x4 PUSH2 0x867 JUMP JUMPDEST PUSH2 0x1F23 JUMP JUMPDEST PUSH2 0x369 SWAP1 DUP2 JUMP JUMPDEST PUSH2 0x369 SWAP1 SLOAD PUSH2 0xDC6 JUMP JUMPDEST PUSH2 0x369 PUSH2 0xC90 PUSH1 0xF PUSH2 0xDCD JUMP JUMPDEST PUSH2 0xDED DUP2 PUSH2 0x1F2C JUMP JUMPDEST SWAP1 DUP2 ISZERO PUSH2 0xDF8 JUMPI POP SWAP1 JUMP JUMPDEST SWAP1 POP PUSH2 0xE14 PUSH4 0x2FA757F3 PUSH1 0xE0 SHL JUMPDEST SWAP2 PUSH1 0x1 PUSH1 0x1 PUSH1 0xE0 SHL SUB NOT AND SWAP1 JUMP JUMPDEST EQ SWAP1 JUMP JUMPDEST PUSH2 0x369 SWAP1 PUSH2 0xAC4 JUMP JUMPDEST PUSH2 0x369 PUSH1 0x0 PUSH2 0xE18 JUMP JUMPDEST PUSH2 0x369 SWAP1 PUSH2 0xE38 DUP2 PUSH2 0x1F35 JUMP JUMPDEST POP PUSH2 0x1F75 JUMP JUMPDEST PUSH2 0x304 SWAP2 CALLER SWAP2 PUSH2 0x1F91 JUMP JUMPDEST PUSH4 0x4E487B71 PUSH1 0xE0 SHL PUSH1 0x0 MSTORE PUSH1 0x11 PUSH1 0x4 MSTORE PUSH1 0x24 PUSH1 0x0 REVERT JUMPDEST SWAP2 SWAP1 DUP3 ADD DUP1 SWAP3 GT PUSH2 0xE6C JUMPI JUMP JUMPDEST PUSH2 0xE49 JUMP JUMPDEST SWAP1 PUSH1 0x0 NOT SWAP1 JUMPDEST SWAP2 DUP2 NOT AND SWAP2 AND OR SWAP1 JUMP JUMPDEST SWAP1 PUSH2 0xE91 PUSH2 0x369 PUSH2 0xE98 SWAP3 PUSH2 0x42D JUMP JUMPDEST DUP3 SLOAD PUSH2 0xE71 JUMP JUMPDEST SWAP1 SSTORE JUMP JUMPDEST PUSH2 0xEB8 PUSH2 0xEA8 PUSH1 0x8 SLOAD SWAP1 JUMP JUMPDEST PUSH2 0xEB2 PUSH1 0x1 PUSH2 0x42D JUMP JUMPDEST SWAP1 PUSH2 0xE5F JUMP JUMPDEST PUSH2 0xEC0 PUSH2 0x1FDF JUMP JUMPDEST POP PUSH2 0x369 PUSH2 0xECF DUP3 PUSH1 0x13 PUSH2 0x43A JUMP JUMPDEST TIMESTAMP SWAP1 PUSH2 0xE81 JUMP JUMPDEST SWAP1 PUSH2 0xEF1 PUSH2 0xEE5 PUSH2 0x5C2 DUP5 SLOAD SWAP1 JUMP JUMPDEST SWAP3 PUSH1 0x0 MSTORE PUSH1 0x20 PUSH1 0x0 KECCAK256 SWAP1 JUMP JUMPDEST SWAP1 PUSH1 0x0 JUMPDEST DUP2 DUP2 LT PUSH2 0xF02 JUMPI POP POP POP SWAP1 JUMP JUMPDEST SWAP1 SWAP2 SWAP3 PUSH2 0xF26 PUSH2 0xF1F PUSH1 0x1 SWAP3 PUSH2 0xF17 DUP8 PUSH2 0xDCD JUMP JUMPDEST DUP2 MSTORE PUSH1 0x20 ADD SWAP1 JUMP JUMPDEST SWAP5 PUSH1 0x1 ADD SWAP1 JUMP JUMPDEST SWAP3 SWAP2 ADD PUSH2 0xEF5 JUMP JUMPDEST SWAP1 PUSH2 0x369 SWAP2 PUSH2 0xED6 JUMP JUMPDEST SWAP1 PUSH2 0x304 PUSH2 0xADE SWAP3 PUSH2 0xF49 PUSH1 0x40 MLOAD SWAP1 JUMP JUMPDEST SWAP4 DUP5 DUP1 SWAP3 PUSH2 0xF2E JUMP JUMPDEST PUSH2 0x369 SWAP1 PUSH2 0xF38 JUMP JUMPDEST PUSH2 0x369 PUSH1 0x10 PUSH2 0xF52 JUMP JUMPDEST PUSH2 0x369 SWAP1 PUSH2 0x3A3 SWAP1 PUSH1 0x1 PUSH1 0x1 PUSH1 0xA0 SHL SUB AND DUP3 JUMP JUMPDEST PUSH2 0x369 SWAP1 PUSH2 0xF65 JUMP JUMPDEST PUSH2 0xF9B PUSH2 0xF95 PUSH2 0x369 SWAP3 PUSH4 0xFFFFFFFF AND SWAP1 JUMP JUMPDEST PUSH1 0xE0 SHL SWAP1 JUMP JUMPDEST PUSH1 0x1 PUSH1 0x1 PUSH1 0xE0 SHL SUB NOT AND SWAP1 JUMP JUMPDEST POP POP POP POP PUSH2 0xFB4 PUSH1 0x0 SWAP1 JUMP JUMPDEST POP PUSH2 0x369 PUSH4 0x150B7A02 PUSH2 0xF82 JUMP JUMPDEST DUP2 DUP2 MUL SWAP3 SWAP2 DUP2 ISZERO SWAP2 DUP5 DIV EQ OR ISZERO PUSH2 0xE6C JUMPI JUMP JUMPDEST PUSH4 0x4E487B71 PUSH1 0xE0 SHL PUSH1 0x0 MSTORE PUSH1 0x12 PUSH1 0x4 MSTORE PUSH1 0x24 PUSH1 0x0 REVERT JUMPDEST SWAP1 PUSH2 0xFF5 JUMP JUMPDEST SWAP2 SWAP1 JUMP JUMPDEST SWAP1 DUP2 ISZERO PUSH2 0x1000 JUMPI DIV SWAP1 JUMP JUMPDEST PUSH2 0xFD5 JUMP JUMPDEST SWAP2 SWAP1 DUP3 SUB SWAP2 DUP3 GT PUSH2 0xE6C JUMPI JUMP JUMPDEST PUSH2 0x369 PUSH2 0x101D PUSH2 0x12A5 JUMP JUMPDEST PUSH2 0x104A PUSH2 0x1033 PUSH2 0x102D PUSH1 0xD PUSH2 0xDCD JUMP JUMPDEST DUP4 PUSH2 0xFC2 JUMP JUMPDEST PUSH2 0x1044 PUSH8 0xDE0B6B3A7640000 PUSH2 0x42D JUMP JUMPDEST SWAP1 PUSH2 0xFEB JUMP JUMPDEST SWAP1 PUSH2 0x1005 JUMP JUMPDEST PUSH2 0x3A3 PUSH2 0x369 PUSH2 0x369 SWAP3 SWAP1 JUMP JUMPDEST PUSH2 0x369 SWAP1 PUSH2 0x1050 JUMP JUMPDEST PUSH1 0x40 SWAP1 PUSH2 0x108D PUSH2 0x304 SWAP5 SWAP7 SWAP6 SWAP4 SWAP7 PUSH2 0x1086 PUSH1 0x60 DUP5 ADD SWAP9 PUSH1 0x0 DUP6 ADD SWAP1 PUSH2 0x3C6 JUMP JUMPDEST PUSH1 0x20 DUP4 ADD MSTORE JUMP JUMPDEST ADD SWAP1 PUSH2 0x3C6 JUMP JUMPDEST SWAP1 SWAP2 PUSH1 0x0 SWAP3 PUSH2 0x10A2 DUP5 PUSH2 0x105D JUMP JUMPDEST PUSH2 0x10AB DUP2 PUSH2 0x3A3 JUMP JUMPDEST PUSH2 0x10B4 DUP4 PUSH2 0x3A3 JUMP JUMPDEST EQ PUSH2 0x1103 JUMPI POP PUSH2 0x10C6 SWAP1 DUP3 CALLER SWAP2 PUSH2 0x2099 JUMP JUMPDEST SWAP2 PUSH2 0x10D0 DUP2 PUSH2 0x3A3 JUMP JUMPDEST PUSH2 0x10D9 DUP5 PUSH2 0x3A3 JUMP JUMPDEST SUB PUSH2 0x10E4 JUMPI POP POP POP POP JUMP JUMPDEST PUSH4 0x64283D7B PUSH1 0xE0 SHL DUP5 MSTORE DUP4 SWAP3 PUSH2 0x10FF SWAP3 SWAP1 SWAP2 PUSH1 0x4 DUP6 ADD PUSH2 0x1066 JUMP JUMPDEST SUB SWAP1 REVERT JUMPDEST DUP5 PUSH2 0x10FF DUP2 SWAP3 PUSH4 0x32505749 PUSH1 0xE1 SHL DUP4 MSTORE PUSH1 0x4 DUP4 ADD PUSH2 0x3CF JUMP JUMPDEST SWAP2 PUSH1 0x20 PUSH2 0x304 SWAP3 SWAP5 SWAP4 PUSH2 0x1137 PUSH1 0x40 DUP3 ADD SWAP7 PUSH1 0x0 DUP4 ADD SWAP1 PUSH2 0x3C6 JUMP JUMPDEST ADD MSTORE JUMP JUMPDEST PUSH2 0x369 SWAP1 PUSH2 0xF79 JUMP JUMPDEST SWAP1 PUSH2 0x444 SWAP1 PUSH2 0x113B JUMP JUMPDEST PUSH2 0x115A PUSH2 0x369 DUP3 PUSH2 0x1644 JUMP JUMPDEST DUP3 LT ISZERO PUSH2 0x117D JUMPI PUSH2 0x369 SWAP2 PUSH2 0x1173 PUSH2 0x1178 SWAP3 PUSH1 0x6 PUSH2 0x1144 JUMP JUMPDEST PUSH2 0x43A JUMP JUMPDEST PUSH2 0xDCD JUMP JUMPDEST PUSH4 0x295F44F7 PUSH1 0xE2 SHL PUSH1 0x0 SWAP1 DUP2 MSTORE SWAP2 PUSH2 0x1196 SWAP2 PUSH1 0x4 PUSH2 0x111C JUMP JUMPDEST SUB PUSH1 0x0 REVERT JUMPDEST PUSH2 0x369 SWAP1 PUSH2 0x3A3 JUMP JUMPDEST PUSH2 0x369 SWAP1 SLOAD PUSH2 0x119B JUMP JUMPDEST ISZERO PUSH2 0x11B5 JUMPI JUMP JUMPDEST PUSH1 0x40 MLOAD PUSH3 0x461BCD PUSH1 0xE5 SHL DUP2 MSTORE PUSH1 0x20 PUSH1 0x4 DUP3 ADD MSTORE PUSH1 0x23 PUSH1 0x24 DUP3 ADD MSTORE PUSH32 0x4F6E6C792063726561746F722063616E2063616C6C20746869732066756E6374 PUSH1 0x44 DUP3 ADD MSTORE PUSH3 0x34B7B7 PUSH1 0xE9 SHL PUSH1 0x64 DUP3 ADD MSTORE PUSH1 0x84 SWAP1 REVERT JUMPDEST PUSH2 0x304 SWAP1 PUSH2 0x122E PUSH2 0x121F PUSH2 0x121A PUSH1 0xE PUSH2 0x11A4 JUMP JUMPDEST PUSH2 0x3A3 JUMP JUMPDEST PUSH2 0x1228 CALLER PUSH2 0x3A3 JUMP JUMPDEST EQ PUSH2 0x11AE JUMP JUMPDEST PUSH2 0x1259 JUMP JUMPDEST SWAP1 PUSH1 0x1 PUSH1 0x1 PUSH1 0xA0 SHL SUB SWAP1 PUSH2 0xE77 JUMP JUMPDEST SWAP1 PUSH2 0x1252 PUSH2 0x369 PUSH2 0xE98 SWAP3 PUSH2 0x113B JUMP JUMPDEST DUP3 SLOAD PUSH2 0x1233 JUMP JUMPDEST PUSH2 0x304 SWAP1 PUSH1 0xE PUSH2 0x1242 JUMP JUMPDEST PUSH2 0x304 SWAP1 PUSH2 0x1206 JUMP JUMPDEST SWAP1 PUSH2 0x127A PUSH2 0x6CB DUP4 PUSH2 0x692 JUMP JUMPDEST SWAP2 DUP3 MSTORE JUMP JUMPDEST PUSH2 0x369 PUSH1 0x0 PUSH2 0x126D JUMP JUMPDEST PUSH2 0x369 PUSH2 0x127F JUMP JUMPDEST SWAP1 SWAP2 PUSH2 0x304 SWAP3 PUSH2 0x129F PUSH2 0x1289 JUMP JUMPDEST SWAP3 PUSH2 0x1764 JUMP JUMPDEST PUSH2 0x12AF PUSH1 0xF PUSH2 0xDCD JUMP JUMPDEST PUSH2 0x12BC PUSH2 0xFF1 PUSH1 0x0 PUSH2 0x42D JUMP JUMPDEST GT ISZERO PUSH2 0x12DC JUMPI PUSH2 0x369 PUSH2 0xC90 PUSH2 0x12D2 PUSH1 0xF PUSH2 0xDCD JUMP JUMPDEST PUSH2 0x104A PUSH1 0x1 PUSH2 0x42D JUMP JUMPDEST PUSH2 0x369 PUSH2 0xC90 PUSH1 0x0 PUSH2 0x42D JUMP JUMPDEST PUSH2 0x369 PUSH2 0x12F4 PUSH2 0xDD7 JUMP JUMPDEST PUSH2 0xEB2 PUSH2 0x1033 PUSH2 0x102D PUSH1 0xD PUSH2 0xDCD JUMP JUMPDEST PUSH2 0x1310 PUSH2 0x369 PUSH1 0x8 SLOAD SWAP1 JUMP JUMPDEST DUP2 LT ISZERO PUSH2 0x1325 JUMPI PUSH2 0xC59 PUSH2 0x369 SWAP2 PUSH1 0x8 PUSH2 0xC19 JUMP JUMPDEST PUSH2 0x10FF SWAP1 PUSH1 0x0 SWAP2 DUP3 SWAP2 PUSH2 0x1337 DUP4 PUSH2 0x105D JUMP JUMPDEST PUSH4 0x295F44F7 PUSH1 0xE2 SHL DUP5 MSTORE PUSH1 0x4 DUP5 ADD PUSH2 0x111C JUMP JUMPDEST PUSH2 0x304 SWAP1 PUSH2 0x135E PUSH2 0x121F PUSH2 0x121A PUSH1 0xE PUSH2 0x11A4 JUMP JUMPDEST PUSH2 0x14E5 JUMP JUMPDEST SWAP2 PUSH1 0x0 NOT PUSH1 0x8 SWAP3 SWAP1 SWAP3 MUL SWAP2 DUP3 SHL SWAP2 SHL PUSH2 0xE77 JUMP JUMPDEST SWAP2 SWAP1 PUSH2 0x1388 PUSH2 0x369 PUSH2 0xE98 SWAP4 PUSH2 0x42D JUMP JUMPDEST SWAP1 DUP4 SLOAD PUSH2 0x1363 JUMP JUMPDEST PUSH2 0x304 SWAP2 PUSH1 0x0 SWAP2 PUSH2 0x1377 JUMP JUMPDEST DUP2 DUP2 LT PUSH2 0x13A7 JUMPI POP POP JUMP JUMPDEST DUP1 PUSH2 0x13B5 PUSH1 0x0 PUSH1 0x1 SWAP4 PUSH2 0x1390 JUMP JUMPDEST ADD PUSH2 0x139C JUMP JUMPDEST SWAP2 SWAP1 PUSH1 0x1F DUP2 GT PUSH2 0x13CA JUMPI POP POP POP JUMP JUMPDEST PUSH2 0x13DC PUSH2 0x304 SWAP4 PUSH1 0x0 MSTORE PUSH1 0x20 PUSH1 0x0 KECCAK256 SWAP1 JUMP JUMPDEST SWAP1 PUSH1 0x20 PUSH1 0x1F DUP5 ADD DUP2 SWAP1 DIV DUP4 ADD SWAP4 LT PUSH2 0x13FE JUMPI JUMPDEST PUSH1 0x20 PUSH1 0x1F SWAP1 SWAP2 ADD DIV ADD SWAP1 PUSH2 0x139C JUMP JUMPDEST SWAP1 SWAP2 POP DUP2 SWAP1 PUSH2 0x13EF JUMP JUMPDEST SWAP1 PUSH2 0x1411 DUP2 MLOAD SWAP1 JUMP JUMPDEST SWAP1 PUSH8 0xFFFFFFFFFFFFFFFF DUP3 GT PUSH2 0x679 JUMPI PUSH2 0x1435 DUP3 PUSH2 0x142F DUP6 SLOAD PUSH2 0xA0C JUMP JUMPDEST DUP6 PUSH2 0x13BB JUMP JUMPDEST PUSH1 0x20 SWAP1 PUSH1 0x1F DUP4 GT PUSH1 0x1 EQ PUSH2 0x1470 JUMPI PUSH2 0xE98 SWAP3 SWAP2 PUSH1 0x0 SWAP2 DUP4 PUSH2 0x1465 JUMPI JUMPDEST POP POP PUSH1 0x0 NOT PUSH1 0x8 DUP4 MUL SHR NOT AND SWAP1 PUSH1 0x2 MUL OR SWAP1 JUMP JUMPDEST ADD MLOAD SWAP1 POP CODESIZE DUP1 PUSH2 0x1451 JUMP JUMPDEST PUSH1 0x1F NOT DUP4 AND SWAP2 PUSH2 0x1485 DUP6 PUSH1 0x0 MSTORE PUSH1 0x20 PUSH1 0x0 KECCAK256 SWAP1 JUMP JUMPDEST SWAP3 PUSH1 0x0 JUMPDEST DUP2 DUP2 LT PUSH2 0x14C3 JUMPI POP SWAP2 PUSH1 0x2 SWAP4 SWAP2 DUP6 PUSH1 0x1 SWAP7 SWAP5 LT PUSH2 0x14AA JUMPI JUMPDEST POP POP POP MUL ADD SWAP1 SSTORE JUMP JUMPDEST ADD MLOAD PUSH1 0x0 NOT PUSH1 0x8 PUSH1 0x1F DUP6 AND MUL SHR NOT AND SWAP1 SSTORE CODESIZE DUP1 DUP1 PUSH2 0x14A1 JUMP JUMPDEST SWAP2 SWAP4 PUSH1 0x20 PUSH1 0x1 DUP2 SWAP3 DUP8 DUP8 ADD MLOAD DUP2 SSTORE ADD SWAP6 ADD SWAP3 ADD PUSH2 0x1489 JUMP JUMPDEST SWAP1 PUSH2 0x304 SWAP2 PUSH2 0x1408 JUMP JUMPDEST PUSH2 0x304 SWAP1 PUSH1 0x12 PUSH2 0x14DB JUMP JUMPDEST PUSH2 0x304 SWAP1 PUSH2 0x134A JUMP JUMPDEST ISZERO PUSH2 0x1500 JUMPI JUMP JUMPDEST PUSH1 0x40 MLOAD PUSH3 0x461BCD PUSH1 0xE5 SHL DUP2 MSTORE PUSH1 0x20 PUSH1 0x4 DUP3 ADD MSTORE PUSH1 0x19 PUSH1 0x24 DUP3 ADD MSTORE PUSH32 0x537461727420696E646578206F7574206F6620626F756E647300000000000000 PUSH1 0x44 DUP3 ADD MSTORE PUSH1 0x64 SWAP1 REVERT JUMPDEST PUSH8 0xFFFFFFFFFFFFFFFF DUP2 GT PUSH2 0x679 JUMPI PUSH1 0x20 DUP1 SWAP2 MUL ADD SWAP1 JUMP JUMPDEST SWAP1 PUSH2 0x127A PUSH2 0x6CB DUP4 PUSH2 0x1545 JUMP JUMPDEST CALLDATASIZE SWAP1 CALLDATACOPY JUMP JUMPDEST SWAP1 PUSH2 0x304 PUSH2 0x1585 PUSH2 0x157F DUP5 PUSH2 0x155D JUMP JUMPDEST SWAP4 PUSH2 0x1545 JUMP JUMPDEST PUSH1 0x1F NOT ADD PUSH1 0x20 DUP5 ADD PUSH2 0x156A JUMP JUMPDEST SWAP1 PUSH2 0x159B DUP3 MLOAD SWAP1 JUMP JUMPDEST DUP2 LT ISZERO PUSH2 0xC3C JUMPI PUSH1 0x20 DUP1 SWAP2 MUL ADD ADD SWAP1 JUMP JUMPDEST SWAP2 PUSH2 0x15D9 PUSH2 0x15D1 PUSH1 0x10 SWAP4 PUSH2 0x15CB PUSH2 0x15C4 PUSH2 0x369 DUP8 SLOAD SWAP1 JUMP JUMPDEST DUP8 LT PUSH2 0x14F9 JUMP JUMPDEST DUP6 PUSH2 0xE5F JUMP JUMPDEST DUP4 SLOAD SWAP1 PUSH2 0x20A4 JUMP JUMPDEST SWAP2 PUSH2 0x15EC PUSH2 0x15E7 DUP6 DUP6 PUSH2 0x1005 JUMP JUMPDEST PUSH2 0x156F JUMP JUMPDEST SWAP2 DUP5 JUMPDEST DUP5 JUMPDEST DUP2 LT ISZERO PUSH2 0x1632 JUMPI PUSH2 0x162B DUP2 PUSH2 0x1625 PUSH2 0x160F PUSH2 0xC59 PUSH2 0x15F1 SWAP6 DUP9 PUSH2 0xC19 JUMP JUMPDEST PUSH2 0x1622 PUSH2 0x161C DUP12 DUP6 PUSH2 0x1005 JUMP JUMPDEST DUP10 PUSH2 0x1592 JUMP JUMPDEST MSTORE JUMP JUMPDEST PUSH1 0x1 ADD SWAP1 JUMP JUMPDEST SWAP1 POP PUSH2 0x15EF JUMP JUMPDEST POP SWAP4 POP POP SWAP1 POP SWAP1 JUMP JUMPDEST PUSH2 0x369 SWAP1 PUSH2 0x1F35 JUMP JUMPDEST PUSH1 0x0 PUSH2 0x164F DUP2 PUSH2 0x105D JUMP JUMPDEST PUSH2 0x1658 DUP2 PUSH2 0x3A3 JUMP JUMPDEST PUSH2 0x1661 DUP5 PUSH2 0x3A3 JUMP JUMPDEST EQ PUSH2 0x1676 JUMPI POP POP PUSH2 0x1178 PUSH2 0x369 SWAP2 PUSH1 0x3 PUSH2 0x1144 JUMP JUMPDEST PUSH4 0x22718AD9 PUSH1 0xE2 SHL DUP3 MSTORE DUP2 SWAP1 PUSH2 0x10FF SWAP1 PUSH1 0x4 DUP4 ADD PUSH2 0x3CF JUMP JUMPDEST PUSH2 0x1697 PUSH2 0x20B6 JUMP JUMPDEST PUSH2 0x304 PUSH2 0x304 PUSH2 0x16A7 PUSH1 0x0 PUSH2 0x105D JUMP JUMPDEST PUSH2 0x20ED JUMP JUMPDEST PUSH2 0x304 PUSH2 0x168F JUMP JUMPDEST PUSH2 0x369 PUSH1 0xA PUSH2 0x11A4 JUMP JUMPDEST PUSH2 0x369 PUSH1 0x1 PUSH2 0xE18 JUMP JUMPDEST PUSH2 0x304 SWAP2 SWAP1 CALLER PUSH2 0x2166 JUMP JUMPDEST PUSH2 0x16DD PUSH1 0x0 PUSH2 0x42D JUMP JUMPDEST DUP2 EQ PUSH2 0x1759 JUMPI PUSH2 0x369 SWAP1 PUSH2 0xEB2 PUSH2 0x16F4 PUSH1 0xB PUSH2 0xDCD JUMP JUMPDEST SWAP2 PUSH2 0x171B PUSH2 0x1744 PUSH2 0x173A PUSH2 0x173A PUSH2 0x1749 PUSH2 0x1721 PUSH2 0x1711 PUSH1 0xB PUSH2 0xDCD JUMP JUMPDEST PUSH2 0x171B PUSH1 0x2 PUSH2 0x42D JUMP JUMPDEST SWAP1 PUSH2 0xFC2 JUMP JUMPDEST PUSH2 0x171B PUSH2 0x1744 PUSH2 0x173A DUP10 PUSH2 0x1735 PUSH1 0x64 PUSH2 0x42D JUMP JUMPDEST PUSH2 0xFC2 JUMP JUMPDEST PUSH2 0x1044 PUSH1 0xC PUSH2 0xDCD JUMP JUMPDEST PUSH2 0x222A JUMP JUMPDEST SWAP5 PUSH2 0x1735 DUP2 PUSH2 0x1735 PUSH2 0x2710 PUSH2 0x42D JUMP JUMPDEST POP PUSH2 0x369 PUSH1 0xB PUSH2 0xDCD JUMP JUMPDEST SWAP1 PUSH2 0x304 SWAP4 SWAP3 SWAP2 PUSH2 0x1776 DUP4 DUP4 DUP4 PUSH2 0x1094 JUMP JUMPDEST PUSH2 0x2384 JUMP JUMPDEST ADD SWAP2 DUP3 MSTORE JUMP JUMPDEST PUSH2 0x369 SWAP1 PUSH2 0x42D JUMP JUMPDEST PUSH2 0x4EF PUSH2 0x17A2 SWAP3 PUSH1 0x20 SWAP3 PUSH2 0x179C DUP2 MLOAD SWAP1 JUMP JUMPDEST SWAP5 DUP6 SWAP3 SWAP1 JUMP JUMPDEST SWAP4 DUP5 SWAP2 ADD PUSH2 0x498 JUMP JUMPDEST PUSH32 0x7B226465736372697074696F6E223A2022466C69704E46542069732074686520 DUP2 MSTORE PUSH32 0x666972737420426F6E64696E67204375727665204E46542E222C2022696D6167 PUSH1 0x20 DUP3 ADD MSTORE PUSH32 0x65223A2022646174613A696D6167652F7376672B786D6C3B6261736536342C00 PUSH1 0x40 DUP3 ADD MSTORE PUSH2 0x369 SWAP2 PUSH2 0x182C SWAP2 PUSH1 0x5F ADD JUMPDEST SWAP1 PUSH2 0x178A JUMP JUMPDEST PUSH2 0x227D PUSH1 0xF0 SHL DUP2 MSTORE PUSH1 0x2 ADD SWAP1 JUMP JUMPDEST PUSH32 0x646174613A6170706C69636174696F6E2F6A736F6E3B6261736536342C000000 DUP2 MSTORE PUSH2 0x369 SWAP2 SWAP1 PUSH1 0x1D ADD PUSH2 0x1826 JUMP JUMPDEST PUSH2 0x1907 PUSH2 0x18E6 PUSH2 0x369 PUSH2 0x18EB PUSH2 0x18E6 PUSH2 0x369 PUSH2 0x18E1 PUSH2 0x18BD PUSH2 0x18C9 PUSH2 0x369 SWAP10 PUSH2 0x1891 PUSH1 0x60 SWAP1 JUMP JUMPDEST POP PUSH2 0x18A0 PUSH2 0x1178 DUP3 PUSH1 0x13 PUSH2 0x43A JUMP JUMPDEST PUSH1 0x40 MLOAD SWAP4 DUP5 SWAP3 PUSH1 0x20 DUP5 ADD SWAP3 DUP4 PUSH1 0x20 DUP2 PUSH2 0x177B PUSH2 0x4EF SWAP4 DUP4 SWAP7 SWAP6 SWAP1 MSTORE JUMP JUMPDEST SWAP1 DUP2 SUB DUP3 MSTORE SUB DUP3 PUSH2 0x657 JUMP JUMPDEST PUSH2 0x18DB PUSH2 0x18D4 DUP3 MLOAD SWAP1 JUMP JUMPDEST SWAP2 PUSH1 0x20 ADD SWAP1 JUMP JUMPDEST KECCAK256 PUSH2 0x1781 JUMP JUMPDEST PUSH2 0x2625 JUMP JUMPDEST PUSH2 0x28C8 JUMP JUMPDEST PUSH2 0x369 PUSH2 0x18F7 PUSH1 0x40 MLOAD SWAP1 JUMP JUMPDEST DUP1 SWAP3 PUSH2 0x18BD PUSH1 0x20 DUP4 ADD SWAP2 DUP3 PUSH2 0x17AB JUMP JUMPDEST PUSH2 0x369 PUSH2 0x1913 PUSH1 0x40 MLOAD SWAP1 JUMP JUMPDEST DUP1 SWAP3 PUSH2 0x18BD PUSH1 0x20 DUP4 ADD SWAP2 DUP3 PUSH2 0x183A JUMP JUMPDEST PUSH2 0xC59 PUSH2 0x369 SWAP2 PUSH2 0x1932 PUSH1 0x0 SWAP1 JUMP JUMPDEST POP PUSH1 0x10 PUSH2 0xC19 JUMP JUMPDEST ISZERO PUSH2 0x1941 JUMPI JUMP JUMPDEST PUSH1 0x40 MLOAD PUSH3 0x461BCD PUSH1 0xE5 SHL DUP2 MSTORE PUSH1 0x20 PUSH1 0x4 DUP3 ADD MSTORE PUSH1 0x1F PUSH1 0x24 DUP3 ADD MSTORE PUSH32 0x546F6B656E206973206E6F7420617661696C61626C6520666F722073616C6500 PUSH1 0x44 DUP3 ADD MSTORE PUSH1 0x64 SWAP1 REVERT JUMPDEST PUSH2 0x304 SWAP1 PUSH2 0x19B1 PUSH2 0x1996 DUP3 PUSH2 0x163B JUMP JUMPDEST PUSH2 0x19AB PUSH2 0x19A5 PUSH2 0x121A ADDRESS PUSH2 0x113B JUMP JUMPDEST SWAP2 PUSH2 0x3A3 JUMP JUMPDEST EQ PUSH2 0x193A JUMP JUMPDEST PUSH2 0x1A78 JUMP JUMPDEST ISZERO PUSH2 0x19BD JUMPI JUMP JUMPDEST PUSH1 0x40 MLOAD PUSH3 0x461BCD PUSH1 0xE5 SHL DUP2 MSTORE PUSH1 0x20 PUSH1 0x4 DUP3 ADD MSTORE PUSH1 0x14 PUSH1 0x24 DUP3 ADD MSTORE PUSH20 0x125B9CDD59999A58DA595B9D081C185E5B595B9D PUSH1 0x62 SHL PUSH1 0x44 DUP3 ADD MSTORE PUSH1 0x64 SWAP1 REVERT JUMPDEST PUSH1 0x0 NOT DUP2 EQ PUSH2 0xE6C JUMPI PUSH1 0x1 ADD SWAP1 JUMP JUMPDEST SWAP1 DUP2 MSTORE PUSH1 0x40 DUP2 ADD SWAP3 SWAP2 PUSH2 0x304 SWAP2 PUSH1 0x20 ADD MSTORE JUMP JUMPDEST RETURNDATASIZE ISZERO PUSH2 0x1A35 JUMPI PUSH2 0x1A2A RETURNDATASIZE PUSH2 0x126D JUMP JUMPDEST SWAP1 RETURNDATASIZE PUSH1 0x0 PUSH1 0x20 DUP5 ADD RETURNDATACOPY JUMP JUMPDEST PUSH1 0x60 SWAP1 JUMP JUMPDEST ISZERO PUSH2 0x1A41 JUMPI JUMP JUMPDEST PUSH1 0x40 MLOAD PUSH3 0x461BCD PUSH1 0xE5 SHL DUP2 MSTORE PUSH1 0x20 PUSH1 0x4 DUP3 ADD MSTORE PUSH1 0xF PUSH1 0x24 DUP3 ADD MSTORE PUSH15 0x151C985B9CD9995C8819985A5B1959 PUSH1 0x8A SHL PUSH1 0x44 DUP3 ADD MSTORE PUSH1 0x64 SWAP1 REVERT JUMPDEST PUSH2 0x1B62 PUSH2 0x304 SWAP2 PUSH2 0x1A87 PUSH2 0xDD7 JUMP JUMPDEST PUSH2 0x1A97 PUSH2 0x1033 PUSH2 0x102D PUSH1 0xD PUSH2 0xDCD JUMP JUMPDEST SWAP2 PUSH2 0x1AB0 PUSH2 0x1AA8 PUSH2 0x369 DUP6 DUP6 PUSH2 0xE5F JUMP JUMPDEST CALLVALUE LT ISZERO PUSH2 0x19B6 JUMP JUMPDEST PUSH2 0x1AC4 DUP2 PUSH2 0x1ABD ADDRESS PUSH2 0x113B JUMP JUMPDEST CALLER SWAP1 PUSH2 0x29C5 JUMP JUMPDEST PUSH2 0x1ACD DUP2 PUSH2 0x2A88 JUMP JUMPDEST PUSH2 0x1AE9 PUSH2 0x1AE2 PUSH2 0x1ADD PUSH1 0xF PUSH2 0xDCD JUMP JUMPDEST PUSH2 0x19F9 JUMP JUMPDEST PUSH1 0xF PUSH2 0xE81 JUMP JUMPDEST PUSH2 0x1AFB PUSH2 0x1AF5 CALLER PUSH2 0x113B JUMP JUMPDEST SWAP2 PUSH2 0x42D JUMP JUMPDEST SWAP1 PUSH32 0x884543C08D36FB5C9B3B688DD0453C9F287199124BDBDDB3B7F9CA885A4D34A0 PUSH2 0x1B26 PUSH1 0x40 MLOAD SWAP1 JUMP JUMPDEST DUP1 PUSH2 0x1B32 DUP8 DUP8 DUP4 PUSH2 0x1A08 JUMP JUMPDEST SUB SWAP1 LOG3 PUSH2 0x1B5D PUSH1 0x0 DUP1 PUSH2 0x1B45 PUSH1 0xE PUSH2 0x11A4 JUMP JUMPDEST PUSH1 0x40 MLOAD PUSH1 0x0 SWAP2 DUP8 SWAP1 GAS CALL PUSH2 0x1B57 PUSH2 0x1A1B JUMP JUMPDEST POP PUSH2 0x1A3A JUMP JUMPDEST PUSH2 0xE5F JUMP JUMPDEST PUSH2 0x2B2B JUMP JUMPDEST PUSH2 0x304 SWAP1 PUSH2 0x1986 JUMP JUMPDEST ISZERO PUSH2 0x1B77 JUMPI JUMP JUMPDEST PUSH1 0x40 MLOAD PUSH3 0x461BCD PUSH1 0xE5 SHL DUP2 MSTORE PUSH1 0x20 PUSH1 0x4 DUP3 ADD MSTORE PUSH1 0x13 PUSH1 0x24 DUP3 ADD MSTORE PUSH19 0x21B0B63632B91034B9903737BA1037BBB732B9 PUSH1 0x69 SHL PUSH1 0x44 DUP3 ADD MSTORE PUSH1 0x64 SWAP1 REVERT JUMPDEST PUSH2 0x304 SWAP1 PUSH2 0x1BD4 PUSH2 0x1BC2 DUP3 PUSH2 0x163B JUMP JUMPDEST PUSH2 0x1BCE PUSH2 0x19A5 CALLER PUSH2 0x3A3 JUMP JUMPDEST EQ PUSH2 0x1B70 JUMP JUMPDEST PUSH2 0x1C7E JUMP JUMPDEST DUP1 ISZERO PUSH2 0xE6C JUMPI PUSH1 0x0 NOT ADD SWAP1 JUMP JUMPDEST ISZERO PUSH2 0x1BED JUMPI JUMP JUMPDEST PUSH1 0x40 MLOAD PUSH3 0x461BCD PUSH1 0xE5 SHL DUP2 MSTORE PUSH1 0x20 PUSH1 0x4 DUP3 ADD MSTORE PUSH1 0x19 PUSH1 0x24 DUP3 ADD MSTORE PUSH32 0x5472616E7366657220746F2073656C6C6572206661696C656400000000000000 PUSH1 0x44 DUP3 ADD MSTORE PUSH1 0x64 SWAP1 REVERT JUMPDEST ISZERO PUSH2 0x1C39 JUMPI JUMP JUMPDEST PUSH1 0x40 MLOAD PUSH3 0x461BCD PUSH1 0xE5 SHL DUP2 MSTORE PUSH1 0x20 PUSH1 0x4 DUP3 ADD MSTORE PUSH1 0x1A PUSH1 0x24 DUP3 ADD MSTORE PUSH32 0x5472616E7366657220746F2063726561746F72206661696C6564000000000000 PUSH1 0x44 DUP3 ADD MSTORE PUSH1 0x64 SWAP1 REVERT JUMPDEST PUSH1 0x0 DUP1 PUSH2 0x304 SWAP3 PUSH2 0x1D4A DUP3 DUP1 PUSH2 0x1C92 PUSH2 0x12A5 JUMP JUMPDEST SWAP4 PUSH2 0x1D32 PUSH2 0x1CAC PUSH2 0x1033 PUSH2 0x1CA6 PUSH1 0xD PUSH2 0xDCD JUMP JUMPDEST DUP9 PUSH2 0xFC2 JUMP JUMPDEST DUP1 SWAP7 PUSH2 0x1CB5 CALLER SWAP1 JUMP JUMPDEST SWAP4 PUSH2 0x1CC9 DUP2 PUSH2 0x1CC3 ADDRESS PUSH2 0x113B JUMP JUMPDEST DUP8 PUSH2 0x29C5 JUMP JUMPDEST PUSH2 0x1CD2 DUP2 PUSH2 0x2B9D JUMP JUMPDEST PUSH2 0x1CE7 PUSH2 0x1AE2 PUSH2 0x1CE2 PUSH1 0xF PUSH2 0xDCD JUMP JUMPDEST PUSH2 0x1BD9 JUMP JUMPDEST PUSH2 0x1CF3 PUSH2 0x1AF5 DUP7 PUSH2 0x113B JUMP JUMPDEST SWAP1 PUSH32 0x8323BEBB324B6E1A1D4886A1F210640461BB275263DAE69967F001D053AB0B2B PUSH2 0x1D1E PUSH1 0x40 MLOAD SWAP1 JUMP JUMPDEST DUP1 PUSH2 0x1D2A DUP8 DUP8 DUP4 PUSH2 0x1A08 JUMP JUMPDEST SUB SWAP1 LOG3 PUSH2 0x1005 JUMP JUMPDEST PUSH1 0x40 MLOAD SWAP1 DUP2 DUP1 SUB SWAP3 GAS CALL PUSH2 0x1D44 PUSH2 0x1A1B JUMP JUMPDEST POP PUSH2 0x1BE6 JUMP JUMPDEST PUSH2 0x1D54 PUSH1 0xE PUSH2 0x11A4 JUMP JUMPDEST SWAP1 PUSH2 0x1D5E PUSH1 0x40 MLOAD SWAP1 JUMP JUMPDEST SWAP1 DUP2 DUP1 SUB SWAP3 GAS CALL PUSH2 0x1D6D PUSH2 0x1A1B JUMP JUMPDEST POP PUSH2 0x1C32 JUMP JUMPDEST PUSH2 0x304 SWAP1 PUSH2 0x1BB2 JUMP JUMPDEST PUSH2 0x369 SWAP1 SLOAD PUSH2 0xA0C JUMP JUMPDEST DUP1 SLOAD PUSH1 0x0 SWAP4 SWAP3 SWAP2 PUSH2 0x1D9D PUSH2 0x1D99 DUP4 PUSH2 0xA0C JUMP JUMPDEST SWAP4 SWAP1 JUMP JUMPDEST SWAP2 PUSH1 0x1 DUP2 AND SWAP1 DUP2 ISZERO PUSH2 0x1DEE JUMPI POP PUSH1 0x1 EQ PUSH2 0x1DB6 JUMPI POP POP POP JUMP JUMPDEST PUSH2 0x1DC9 SWAP2 SWAP3 SWAP4 SWAP5 POP PUSH1 0x0 MSTORE PUSH1 0x20 PUSH1 0x0 KECCAK256 SWAP1 JUMP JUMPDEST PUSH1 0x0 SWAP1 JUMPDEST DUP4 DUP3 LT PUSH2 0x1DDA JUMPI POP POP ADD SWAP1 JUMP JUMPDEST PUSH1 0x1 DUP2 PUSH1 0x20 SWAP3 SLOAD DUP5 DUP7 ADD MSTORE ADD SWAP2 ADD SWAP1 PUSH2 0x1DCD JUMP JUMPDEST PUSH1 0xFF NOT AND DUP4 MSTORE POP POP DUP2 ISZERO ISZERO SWAP1 SWAP2 MUL ADD SWAP2 POP JUMP JUMPDEST PUSH2 0x1E0D SWAP1 PUSH1 0x10 SWAP3 PUSH2 0x1D86 JUMP JUMPDEST PUSH16 0x17B1B7B63632B1BA34B7B7173539B7B7 PUSH1 0x81 SHL DUP2 MSTORE ADD SWAP1 JUMP JUMPDEST SWAP1 PUSH2 0x304 PUSH2 0x1E34 PUSH1 0x40 MLOAD SWAP1 JUMP JUMPDEST DUP1 SWAP4 PUSH2 0x1E44 PUSH1 0x20 DUP4 ADD SWAP2 DUP3 PUSH2 0x1E01 JUMP JUMPDEST SWAP1 DUP2 SUB DUP3 MSTORE SUB DUP4 PUSH2 0x657 JUMP JUMPDEST PUSH2 0x1E5A PUSH1 0x12 PUSH2 0x1D7C JUMP JUMPDEST PUSH2 0x1E67 PUSH2 0xFF1 PUSH1 0x0 PUSH2 0x42D JUMP JUMPDEST GT ISZERO PUSH2 0x1E77 JUMPI PUSH2 0x369 PUSH1 0x12 PUSH2 0x1E27 JUMP JUMPDEST PUSH2 0x369 PUSH2 0x1289 JUMP JUMPDEST PUSH2 0x369 SWAP1 JUMPDEST PUSH1 0xFF AND SWAP1 JUMP JUMPDEST PUSH2 0x369 SWAP1 SLOAD PUSH2 0x1E7F JUMP JUMPDEST PUSH2 0x369 SWAP2 PUSH2 0x1EAF PUSH2 0x1EB4 SWAP3 PUSH2 0x1EA7 PUSH1 0x0 SWAP1 JUMP JUMPDEST POP PUSH1 0x5 PUSH2 0x1144 JUMP JUMPDEST PUSH2 0x1144 JUMP JUMPDEST PUSH2 0x1E8A JUMP JUMPDEST PUSH2 0x1EC2 SWAP1 PUSH2 0x163B JUMP JUMPDEST PUSH2 0xE14 PUSH2 0x19A5 PUSH2 0x121A ADDRESS PUSH2 0x113B JUMP JUMPDEST PUSH2 0x304 SWAP1 PUSH2 0x1EDD PUSH2 0x20B6 JUMP JUMPDEST PUSH1 0x0 PUSH2 0x1EE8 DUP2 PUSH2 0x105D JUMP JUMPDEST PUSH2 0x1EF1 DUP2 PUSH2 0x3A3 JUMP JUMPDEST PUSH2 0x1EFA DUP5 PUSH2 0x3A3 JUMP JUMPDEST EQ PUSH2 0x1F0A JUMPI POP POP PUSH2 0x304 SWAP1 PUSH2 0x20ED JUMP JUMPDEST PUSH4 0x1E4FBDF7 PUSH1 0xE0 SHL DUP3 MSTORE DUP2 SWAP1 PUSH2 0x10FF SWAP1 PUSH1 0x4 DUP4 ADD PUSH2 0x3CF JUMP JUMPDEST PUSH2 0x304 SWAP1 PUSH2 0x1ED1 JUMP JUMPDEST PUSH2 0x369 SWAP1 PUSH2 0x2BC3 JUMP JUMPDEST PUSH2 0x1F3E DUP2 PUSH2 0x2BEC JUMP JUMPDEST SWAP1 PUSH1 0x0 SWAP1 PUSH2 0x1F4E PUSH2 0x121A DUP4 PUSH2 0x105D JUMP JUMPDEST PUSH2 0x1F57 DUP5 PUSH2 0x3A3 JUMP JUMPDEST EQ PUSH2 0x1F61 JUMPI POP POP SWAP1 JUMP JUMPDEST PUSH4 0x7E273289 PUSH1 0xE0 SHL DUP3 MSTORE PUSH1 0x4 DUP3 ADD MSTORE PUSH1 0x24 SWAP1 REVERT JUMPDEST PUSH2 0x1F8C PUSH2 0x369 SWAP2 PUSH2 0x1F84 PUSH1 0x0 SWAP1 JUMP JUMPDEST POP PUSH1 0x4 PUSH2 0x43A JUMP JUMPDEST PUSH2 0x11A4 JUMP JUMPDEST SWAP2 PUSH1 0x1 SWAP2 PUSH2 0x304 SWAP4 PUSH2 0x2C03 JUMP JUMPDEST ISZERO PUSH2 0x1FA5 JUMPI JUMP JUMPDEST PUSH1 0x40 MLOAD PUSH3 0x461BCD PUSH1 0xE5 SHL DUP2 MSTORE PUSH1 0x20 PUSH1 0x4 DUP3 ADD MSTORE PUSH1 0x12 PUSH1 0x24 DUP3 ADD MSTORE PUSH18 0x13585E081CDD5C1C1B1E481C995858DA1959 PUSH1 0x72 SHL PUSH1 0x44 DUP3 ADD MSTORE PUSH1 0x64 SWAP1 REVERT JUMPDEST PUSH2 0x2001 PUSH2 0x1FEB PUSH1 0x8 SLOAD SWAP1 JUMP JUMPDEST PUSH2 0x1FFB PUSH2 0xFF1 PUSH2 0x369 PUSH1 0xC PUSH2 0xDCD JUMP JUMPDEST LT PUSH2 0x1F9E JUMP JUMPDEST PUSH2 0x2009 PUSH2 0xDD7 JUMP JUMPDEST PUSH2 0x369 PUSH2 0x1B62 PUSH2 0x2025 PUSH2 0x1033 PUSH2 0x201F PUSH1 0xD PUSH2 0xDCD JUMP JUMPDEST DUP6 PUSH2 0xFC2 JUMP JUMPDEST PUSH2 0x2035 PUSH2 0x1AA8 PUSH2 0x369 DUP4 DUP8 PUSH2 0xE5F JUMP JUMPDEST PUSH2 0x2041 PUSH2 0xEA8 PUSH1 0x8 SLOAD SWAP1 JUMP JUMPDEST SWAP4 PUSH2 0x204C DUP6 CALLER PUSH2 0x2D2B JUMP JUMPDEST PUSH2 0x205C PUSH2 0x1AE2 PUSH2 0x1ADD PUSH1 0xF PUSH2 0xDCD JUMP JUMPDEST PUSH2 0x2065 CALLER PUSH2 0x113B JUMP JUMPDEST PUSH2 0x206E DUP7 PUSH2 0x42D JUMP JUMPDEST SWAP1 PUSH32 0x10546B1A6F5245FF0FFA18C256B9E46859C585CBB473B453FCD4C2DC39AE08DB PUSH2 0x1B26 PUSH1 0x40 MLOAD SWAP1 JUMP JUMPDEST PUSH2 0x369 SWAP3 SWAP2 SWAP1 PUSH2 0x2D3D JUMP JUMPDEST SWAP1 DUP1 DUP3 LT ISZERO PUSH2 0x20B1 JUMPI POP SWAP1 JUMP JUMPDEST SWAP1 POP SWAP1 JUMP JUMPDEST PUSH2 0x20BE PUSH2 0x16B4 JUMP JUMPDEST CALLER SWAP1 PUSH2 0x20CC PUSH2 0x19A5 DUP4 PUSH2 0x3A3 JUMP JUMPDEST SUB PUSH2 0x20D4 JUMPI POP JUMP JUMPDEST PUSH4 0x118CDAA7 PUSH1 0xE0 SHL PUSH1 0x0 SWAP1 DUP2 MSTORE SWAP1 PUSH2 0x1196 SWAP1 PUSH1 0x4 PUSH2 0x3CF JUMP JUMPDEST PUSH2 0x2113 PUSH2 0x210D PUSH2 0x20FD PUSH1 0xA PUSH2 0x11A4 JUMP JUMPDEST PUSH2 0x2108 DUP5 PUSH1 0xA PUSH2 0x1242 JUMP JUMPDEST PUSH2 0x113B JUMP JUMPDEST SWAP2 PUSH2 0x113B JUMP JUMPDEST SWAP1 PUSH32 0x8BE0079C531659141344CD1FD0A4F28419497F9722A3DAAFE3B4186F6B6457E0 PUSH2 0x213E PUSH1 0x40 MLOAD SWAP1 JUMP JUMPDEST DUP1 DUP1 JUMPDEST SUB SWAP1 LOG3 JUMP JUMPDEST SWAP1 PUSH1 0xFF SWAP1 PUSH2 0xE77 JUMP JUMPDEST SWAP1 PUSH2 0x215F PUSH2 0x369 PUSH2 0xE98 SWAP3 ISZERO ISZERO SWAP1 JUMP JUMPDEST DUP3 SLOAD PUSH2 0x2146 JUMP JUMPDEST PUSH1 0x0 PUSH2 0x2174 PUSH2 0x121A DUP3 PUSH2 0x105D JUMP JUMPDEST PUSH2 0x217D DUP5 PUSH2 0x3A3 JUMP JUMPDEST EQ PUSH2 0x21D6 JUMPI POP PUSH2 0x2141 PUSH2 0x21CC PUSH2 0x21C6 DUP4 PUSH2 0x2108 DUP8 PUSH2 0x21C1 DUP9 PUSH2 0x1EAF PUSH32 0x17307EAB39AB6107E8899845AD3D59BD9653F200F220920489CA2B5937696C31 SWAP10 PUSH1 0x5 PUSH2 0x1144 JUMP JUMPDEST PUSH2 0x214F JUMP JUMPDEST SWAP4 PUSH2 0x113B JUMP JUMPDEST SWAP4 PUSH2 0x38B PUSH1 0x40 MLOAD SWAP1 JUMP JUMPDEST PUSH4 0xB611743 PUSH1 0xE3 SHL DUP2 MSTORE DUP1 PUSH2 0x10FF DUP5 PUSH1 0x4 DUP4 ADD PUSH2 0x3CF JUMP JUMPDEST PUSH2 0x1E84 PUSH2 0x369 PUSH2 0x369 SWAP3 SWAP1 JUMP JUMPDEST PUSH2 0x369 SWAP1 PUSH2 0x220F PUSH2 0xFF1 PUSH2 0x369 SWAP5 PUSH1 0xFF AND SWAP1 JUMP JUMPDEST SWAP1 SHR SWAP1 JUMP JUMPDEST PUSH2 0x369 SWAP1 PUSH2 0x2225 PUSH2 0xFF1 PUSH2 0x369 SWAP5 SWAP1 JUMP JUMPDEST SWAP1 SHL SWAP1 JUMP JUMPDEST PUSH2 0x2234 PUSH1 0x0 PUSH2 0x42D JUMP JUMPDEST DUP2 EQ PUSH2 0x231A JUMPI PUSH1 0x1 PUSH2 0x2245 DUP3 PUSH2 0x2DD6 JUMP JUMPDEST PUSH2 0x224E DUP3 PUSH2 0x21EE JUMP JUMPDEST DUP1 DUP1 DUP1 DUP1 DUP1 SWAP7 PUSH2 0x225F DUP3 DUP1 SWAP9 PUSH2 0x21FB JUMP JUMPDEST SWAP1 PUSH2 0x2269 SWAP1 PUSH2 0x42D JUMP JUMPDEST SWAP1 PUSH2 0x2273 SWAP2 PUSH2 0x2214 JUMP JUMPDEST PUSH2 0x227D DUP2 DUP11 PUSH2 0xFEB JUMP JUMPDEST ADD SWAP1 PUSH2 0x2288 SWAP2 PUSH2 0x21FB JUMP JUMPDEST PUSH2 0x2292 DUP2 DUP10 PUSH2 0xFEB JUMP JUMPDEST ADD SWAP1 PUSH2 0x229D SWAP2 PUSH2 0x21FB JUMP JUMPDEST PUSH2 0x22A7 DUP2 DUP9 PUSH2 0xFEB JUMP JUMPDEST ADD SWAP1 PUSH2 0x22B2 SWAP2 PUSH2 0x21FB JUMP JUMPDEST PUSH2 0x22BC DUP2 DUP8 PUSH2 0xFEB JUMP JUMPDEST ADD SWAP1 PUSH2 0x22C7 SWAP2 PUSH2 0x21FB JUMP JUMPDEST PUSH2 0x22D1 DUP2 DUP7 PUSH2 0xFEB JUMP JUMPDEST ADD SWAP1 PUSH2 0x22DC SWAP2 PUSH2 0x21FB JUMP JUMPDEST PUSH2 0x22E6 DUP2 DUP6 PUSH2 0xFEB JUMP JUMPDEST ADD SWAP1 PUSH2 0x22F1 SWAP2 PUSH2 0x21FB JUMP JUMPDEST PUSH2 0x22FB DUP2 DUP5 PUSH2 0xFEB JUMP JUMPDEST ADD SWAP1 PUSH2 0x2306 SWAP2 PUSH2 0x21FB JUMP JUMPDEST SWAP1 DUP2 PUSH2 0x2311 SWAP2 PUSH2 0xFEB JUMP JUMPDEST PUSH2 0x369 SWAP2 PUSH2 0x20A4 JUMP JUMPDEST POP PUSH2 0x369 PUSH1 0x0 PUSH2 0x42D JUMP JUMPDEST SWAP1 POP MLOAD SWAP1 PUSH2 0x304 DUP3 PUSH2 0x335 JUMP JUMPDEST SWAP1 PUSH1 0x20 DUP3 DUP3 SUB SLT PUSH2 0x2FB JUMPI PUSH2 0x369 SWAP2 PUSH2 0x2325 JUMP JUMPDEST SWAP1 SWAP3 PUSH2 0x2377 SWAP1 PUSH2 0x2370 PUSH2 0x369 SWAP7 SWAP5 PUSH2 0x2366 PUSH1 0x80 DUP7 ADD SWAP8 PUSH1 0x0 DUP8 ADD SWAP1 PUSH2 0x3C6 JUMP JUMPDEST PUSH1 0x20 DUP6 ADD SWAP1 PUSH2 0x3C6 JUMP JUMPDEST PUSH1 0x40 DUP4 ADD MSTORE JUMP JUMPDEST PUSH1 0x60 DUP2 DUP5 SUB SWAP2 ADD MSTORE PUSH2 0x4BB JUMP JUMPDEST PUSH1 0x0 SWAP4 SWAP2 SWAP3 DUP4 EXTCODESIZE PUSH2 0x2397 PUSH2 0xFF1 DUP8 PUSH2 0x42D JUMP JUMPDEST GT PUSH2 0x23A4 JUMPI JUMPDEST POP POP POP POP POP JUMP JUMPDEST PUSH1 0x20 SWAP2 PUSH2 0x23B3 PUSH2 0x2108 DUP7 PUSH2 0x113B JUMP JUMPDEST SWAP1 DUP7 CALLER PUSH2 0x23DC PUSH2 0x23C2 PUSH1 0x40 MLOAD SWAP1 JUMP JUMPDEST SWAP8 DUP9 SWAP7 DUP8 SWAP6 DUP7 SWAP5 PUSH4 0xA85BD01 PUSH1 0xE1 SHL DUP7 MSTORE PUSH1 0x4 DUP7 ADD PUSH2 0x2346 JUMP JUMPDEST SUB SWAP3 GAS CALL PUSH1 0x0 SWAP2 DUP2 PUSH2 0x2470 JUMPI JUMPDEST POP PUSH2 0x243B JUMPI POP PUSH2 0x23FE JUMP JUMPDEST CODESIZE DUP1 DUP1 DUP1 DUP1 PUSH2 0x239D JUMP JUMPDEST PUSH2 0x2406 PUSH2 0x1A1B JUMP JUMPDEST DUP1 MLOAD PUSH2 0x2414 PUSH2 0xFF1 DUP6 PUSH2 0x42D JUMP JUMPDEST SUB PUSH2 0x2433 JUMPI POP PUSH4 0x32505749 PUSH1 0xE1 SHL DUP3 MSTORE DUP2 SWAP1 PUSH2 0x10FF SWAP1 PUSH1 0x4 DUP4 ADD PUSH2 0x3CF JUMP JUMPDEST DUP1 MLOAD SWAP1 PUSH1 0x20 ADD REVERT JUMPDEST PUSH2 0x244B PUSH4 0xA85BD01 PUSH1 0xE1 SHL PUSH2 0xE06 JUMP JUMPDEST SUB PUSH2 0x2457 JUMPI POP POP PUSH2 0x23F4 JUMP JUMPDEST PUSH4 0x32505749 PUSH1 0xE1 SHL DUP3 MSTORE DUP2 SWAP1 PUSH2 0x10FF SWAP1 PUSH1 0x4 DUP4 ADD PUSH2 0x3CF JUMP JUMPDEST PUSH2 0x2493 SWAP2 SWAP3 POP PUSH1 0x20 RETURNDATASIZE PUSH1 0x20 GT PUSH2 0x249A JUMPI JUMPDEST PUSH2 0x248B DUP2 DUP4 PUSH2 0x657 JUMP JUMPDEST DUP2 ADD SWAP1 PUSH2 0x2332 JUMP JUMPDEST SWAP1 CODESIZE PUSH2 0x23E9 JUMP JUMPDEST POP RETURNDATASIZE PUSH2 0x2481 JUMP JUMPDEST DUP2 ISZERO PUSH2 0x1000 JUMPI MOD SWAP1 JUMP JUMPDEST PUSH2 0x369 PUSH1 0x80 PUSH2 0x67E JUMP JUMPDEST PUSH2 0x24BD PUSH2 0x24AB JUMP JUMPDEST PUSH1 0x0 DUP1 DUP3 MSTORE PUSH1 0x20 DUP3 ADD DUP2 SWAP1 MSTORE PUSH1 0x40 DUP3 ADD DUP2 SWAP1 MSTORE PUSH1 0x60 DUP3 ADD MSTORE SWAP1 JUMP JUMPDEST PUSH2 0x369 PUSH2 0x24B5 JUMP JUMPDEST PUSH1 0x0 JUMPDEST DUP3 DUP2 LT PUSH2 0x24EF JUMPI POP POP POP JUMP JUMPDEST PUSH1 0x20 SWAP1 PUSH2 0x24FA PUSH2 0x24D8 JUMP JUMPDEST DUP2 DUP5 ADD MSTORE ADD PUSH2 0x24E3 JUMP JUMPDEST SWAP1 PUSH2 0x304 PUSH2 0x2514 PUSH2 0x157F DUP5 PUSH2 0x155D JUMP JUMPDEST PUSH1 0x1F NOT ADD PUSH1 0x20 DUP5 ADD PUSH2 0x24E0 JUMP JUMPDEST PUSH2 0x1826 SWAP1 PUSH2 0x369 SWAP4 SWAP3 PUSH2 0x178A JUMP JUMPDEST SWAP2 PUSH2 0x1826 PUSH2 0x2604 PUSH2 0x2613 SWAP4 PUSH2 0x1826 PUSH2 0x25C5 PUSH2 0x369 SWAP8 PUSH32 0x3C73766720786D6C6E733D22687474703A2F2F7777772E77332E6F72672F3230 DUP2 MSTORE PUSH32 0x30302F737667222077696474683D2234303022206865696768743D2234303022 PUSH1 0x20 DUP3 ADD MSTORE PUSH32 0x2076696577426F783D223020302031323420313234222066696C6C3D226E6F6E PUSH1 0x40 DUP3 ADD MSTORE PUSH3 0x32911F PUSH1 0xE9 SHL PUSH1 0x60 DUP3 ADD MSTORE PUSH1 0x63 ADD SWAP1 JUMP JUMPDEST PUSH32 0x3C726563742077696474683D2231323422206865696768743D22313234222072 DUP2 MSTORE PUSH13 0x3C1E91191A11103334B6361E91 PUSH1 0x99 SHL PUSH1 0x20 DUP3 ADD MSTORE PUSH1 0x2D ADD SWAP1 JUMP JUMPDEST PUSH3 0x11179F PUSH1 0xE9 SHL DUP2 MSTORE PUSH1 0x3 ADD SWAP1 JUMP JUMPDEST PUSH6 0x1E17B9BB339F PUSH1 0xD1 SHL DUP2 MSTORE PUSH1 0x6 ADD SWAP1 JUMP JUMPDEST PUSH2 0x2652 PUSH1 0x60 SWAP2 PUSH2 0x18C9 PUSH2 0x2637 PUSH1 0x40 MLOAD SWAP1 JUMP JUMPDEST PUSH1 0x20 DUP1 DUP3 ADD SWAP4 DUP5 MSTORE SWAP1 SWAP3 DUP4 SWAP2 PUSH2 0x18BD SWAP1 TIMESTAMP PUSH2 0x4EF DUP3 DUP6 PUSH2 0x177B JUMP JUMPDEST SWAP1 DUP2 SWAP3 PUSH2 0x267F PUSH2 0x2675 PUSH2 0x2664 DUP6 PUSH2 0x2F99 JUMP JUMPDEST SWAP5 PUSH2 0x266F PUSH1 0x3 PUSH2 0x42D JUMP JUMPDEST SWAP1 PUSH2 0x24A1 JUMP JUMPDEST PUSH2 0xEB2 PUSH1 0x2 PUSH2 0x42D JUMP JUMPDEST SWAP2 PUSH2 0x2689 DUP4 PUSH2 0x2504 JUMP JUMPDEST SWAP1 SWAP4 PUSH1 0x0 SWAP5 PUSH2 0x2697 DUP7 PUSH2 0x42D JUMP JUMPDEST SWAP5 JUMPDEST DUP1 JUMPDEST DUP7 LT ISZERO PUSH2 0x281F JUMPI PUSH2 0x26AA PUSH2 0x24D8 JUMP JUMPDEST SWAP3 PUSH1 0x0 SWAP4 DUP10 PUSH2 0x26B8 DUP11 PUSH2 0x42D JUMP JUMPDEST SWAP6 PUSH1 0x1 JUMPDEST ISZERO PUSH2 0x2808 JUMPI JUMPDEST POP POP POP DUP8 DUP1 SWAP9 PUSH2 0x26DA PUSH2 0x26D5 DUP11 DUP14 PUSH2 0xE5F JUMP JUMPDEST PUSH2 0x301F JUMP JUMPDEST SWAP4 DUP5 SWAP9 PUSH2 0x26E6 DUP5 PUSH2 0x42D JUMP JUMPDEST DUP12 DUP2 LT ISZERO PUSH2 0x27F6 JUMPI PUSH2 0x2702 PUSH2 0x26FB DUP3 DUP13 PUSH2 0x1592 JUMP JUMPDEST MLOAD DUP9 PUSH2 0x313E JUMP JUMPDEST PUSH2 0x270E JUMPI PUSH1 0x1 ADD PUSH2 0x26E6 JUMP JUMPDEST POP SWAP9 SWAP3 SWAP11 POP SWAP4 POP SWAP10 SWAP5 PUSH2 0x2722 PUSH1 0x1 SWAP2 PUSH2 0x19F9 JUMP JUMPDEST SWAP1 PUSH2 0x274F DUP3 SWAP8 PUSH2 0x18C9 PUSH2 0x2734 PUSH1 0x40 MLOAD SWAP1 JUMP JUMPDEST PUSH1 0x20 DUP1 DUP3 ADD SWAP4 DUP5 MSTORE SWAP1 SWAP3 DUP4 SWAP2 PUSH2 0x18BD SWAP1 DUP9 PUSH2 0x4EF DUP3 DUP6 PUSH2 0x177B JUMP JUMPDEST SWAP12 DUP13 SWAP3 PUSH2 0x275F PUSH2 0xFF1 PUSH1 0xA PUSH2 0x42D JUMP JUMPDEST GT ISZERO PUSH2 0x26BC JUMPI POP PUSH2 0x2779 SWAP2 SWAP3 SWAP4 SWAP6 SWAP11 SWAP9 SWAP7 POP SWAP9 SWAP4 SWAP9 JUMPDEST ISZERO SWAP1 JUMP JUMPDEST PUSH2 0x279A JUMPI JUMPDEST POP POP PUSH2 0x278D PUSH2 0x269B SWAP2 PUSH1 0x1 ADD SWAP1 JUMP JUMPDEST SWAP6 SWAP1 POP SWAP6 SWAP1 SWAP2 SWAP4 SWAP6 PUSH2 0x2699 JUMP JUMPDEST PUSH2 0x18BD PUSH2 0x369 DUP5 SWAP11 PUSH2 0x27D5 DUP6 PUSH2 0x27D0 DUP9 PUSH2 0x27ED SWAP8 PUSH2 0x27CA DUP3 DUP16 PUSH2 0x278D SWAP13 PUSH2 0x27C4 PUSH2 0x269B SWAP16 DUP4 PUSH2 0x1592 JUMP JUMPDEST MSTORE PUSH2 0x1592 JUMP JUMPDEST POP PUSH2 0xE5F JUMP JUMPDEST PUSH2 0x3229 JUMP JUMPDEST SWAP1 PUSH2 0x27DF PUSH1 0x40 MLOAD SWAP1 JUMP JUMPDEST SWAP4 DUP5 SWAP3 PUSH1 0x20 DUP5 ADD SWAP3 DUP4 PUSH2 0x2521 JUMP JUMPDEST SWAP8 SWAP2 POP DUP9 PUSH2 0x277E JUMP JUMPDEST POP SWAP9 SWAP3 SWAP11 SWAP2 SWAP12 SWAP7 PUSH2 0x2722 SWAP2 SWAP6 POP PUSH2 0x19F9 JUMP JUMPDEST DUP1 PUSH2 0x26C2 JUMPI PUSH2 0x2779 SWAP2 SWAP3 SWAP4 SWAP6 SWAP11 SWAP9 SWAP7 POP SWAP9 SWAP4 SWAP9 ISZERO SWAP1 JUMP JUMPDEST POP SWAP2 POP PUSH2 0x369 SWAP3 SWAP6 POP PUSH2 0x369 SWAP5 POP PUSH2 0x18BD SWAP4 POP PUSH2 0x283B PUSH1 0x40 MLOAD SWAP1 JUMP JUMPDEST SWAP4 DUP5 SWAP3 PUSH1 0x20 DUP5 ADD SWAP3 DUP4 PUSH2 0x252F JUMP JUMPDEST PUSH2 0x2853 PUSH1 0x40 PUSH2 0x126D JUMP JUMPDEST PUSH32 0x4142434445464748494A4B4C4D4E4F505152535455565758595A616263646566 PUSH1 0x20 DUP3 ADD MSTORE PUSH32 0x6768696A6B6C6D6E6F707172737475767778797A303132333435363738392B2F PUSH1 0x40 DUP3 ADD MSTORE SWAP1 JUMP JUMPDEST PUSH2 0x369 PUSH2 0x2849 JUMP JUMPDEST PUSH2 0x369 PUSH2 0x28A2 JUMP JUMPDEST SWAP1 PUSH2 0x304 PUSH2 0x1585 PUSH2 0x28C2 DUP5 PUSH2 0x126D JUMP JUMPDEST SWAP4 PUSH2 0x692 JUMP JUMPDEST DUP1 MLOAD PUSH2 0x28D7 PUSH2 0xFF1 PUSH1 0x0 PUSH2 0x42D JUMP JUMPDEST EQ PUSH2 0x29BC JUMPI PUSH2 0x28E4 PUSH2 0x28AA JUMP JUMPDEST SWAP1 PUSH2 0x28F0 PUSH2 0x2675 DUP3 MLOAD SWAP1 JUMP JUMPDEST SWAP1 PUSH1 0x1 PUSH2 0x2918 PUSH2 0x2913 PUSH2 0x2909 PUSH1 0x3 SWAP6 PUSH2 0x1044 PUSH1 0x3 PUSH2 0x42D JUMP JUMPDEST PUSH2 0x1735 PUSH1 0x4 PUSH2 0x42D JUMP JUMPDEST PUSH2 0x28B2 JUMP JUMPDEST SWAP4 ADD PUSH1 0x20 DUP5 ADD SWAP3 DUP3 SWAP2 DUP4 MLOAD DUP5 ADD SWAP1 PUSH1 0x20 DUP3 ADD SWAP3 DUP4 MLOAD SWAP5 PUSH1 0x0 DUP6 MSTORE JUMPDEST DUP4 DUP2 LT PUSH2 0x2974 JUMPI POP POP POP POP SWAP1 PUSH1 0x3 SWAP3 SWAP2 MSTORE MLOAD MOD DUP1 PUSH1 0x1 EQ PUSH2 0x2963 JUMPI PUSH1 0x2 EQ PUSH2 0x2959 JUMPI POP SWAP1 JUMP JUMPDEST PUSH1 0x1 PUSH1 0x3D SWAP2 SUB MSTORE8 SWAP1 JUMP JUMPDEST POP PUSH1 0x2 DUP2 PUSH1 0x3D PUSH1 0x1 DUP2 SWAP5 SUB MSTORE8 SUB MSTORE8 SWAP1 JUMP JUMPDEST DUP2 PUSH1 0x1 SWAP2 SWAP9 SWAP3 SWAP4 SWAP5 SWAP9 ADD SWAP2 PUSH1 0x3F DUP3 DUP1 DUP1 DUP7 MLOAD SWAP5 DUP5 DUP7 PUSH1 0x12 SHR AND DUP11 ADD MLOAD DUP2 MSTORE8 ADD DUP4 DUP6 PUSH1 0xC SHR AND DUP10 ADD MLOAD DUP2 MSTORE8 ADD DUP3 DUP5 PUSH1 0x6 SHR AND DUP9 ADD MLOAD DUP2 MSTORE8 ADD SWAP2 AND DUP6 ADD MLOAD DUP2 MSTORE8 ADD SWAP7 SWAP3 SWAP2 SWAP1 PUSH2 0x2933 JUMP JUMPDEST POP PUSH2 0x369 PUSH2 0x1289 JUMP JUMPDEST SWAP2 SWAP3 SWAP1 PUSH1 0x0 SWAP3 PUSH2 0x29D4 DUP5 PUSH2 0x105D JUMP JUMPDEST SWAP2 PUSH2 0x29DE DUP4 PUSH2 0x3A3 JUMP JUMPDEST PUSH2 0x29E7 DUP3 PUSH2 0x3A3 JUMP JUMPDEST EQ PUSH2 0x2A31 JUMPI PUSH2 0x29FA DUP4 DUP8 PUSH2 0x2A00 SWAP4 PUSH2 0x2099 JUMP JUMPDEST SWAP3 PUSH2 0x3A3 JUMP JUMPDEST PUSH2 0x2A09 DUP4 PUSH2 0x3A3 JUMP JUMPDEST SUB PUSH2 0x2A24 JUMPI PUSH4 0x7E273289 PUSH1 0xE0 SHL DUP5 MSTORE PUSH1 0x4 DUP5 ADD DUP6 SWAP1 MSTORE PUSH1 0x24 DUP5 REVERT JUMPDEST PUSH2 0x10D0 DUP2 SWAP6 SWAP3 SWAP4 SWAP6 PUSH2 0x3A3 JUMP JUMPDEST PUSH4 0x32505749 PUSH1 0xE1 SHL DUP6 MSTORE DUP5 DUP1 PUSH2 0x10FF DUP6 PUSH1 0x4 DUP4 ADD PUSH2 0x3CF JUMP JUMPDEST PUSH4 0x4E487B71 PUSH1 0xE0 SHL PUSH1 0x0 MSTORE PUSH1 0x31 PUSH1 0x4 MSTORE PUSH1 0x24 PUSH1 0x0 REVERT JUMPDEST DUP1 SLOAD DUP1 ISZERO PUSH2 0x2A83 JUMPI PUSH1 0x0 NOT ADD SWAP1 PUSH2 0x2A80 PUSH2 0x2A7A DUP4 DUP4 PUSH2 0xC19 JUMP JUMPDEST SWAP1 PUSH2 0x1390 JUMP JUMPDEST SSTORE JUMP JUMPDEST PUSH2 0x2A4A JUMP JUMPDEST PUSH1 0x0 PUSH2 0x2AEA PUSH2 0x304 SWAP3 PUSH1 0x11 PUSH2 0x1173 PUSH2 0x2AE5 PUSH2 0x2AA6 PUSH2 0x1178 DUP6 DUP6 PUSH2 0x43A JUMP JUMPDEST PUSH2 0x369 PUSH1 0x10 SWAP2 PUSH2 0x2AE0 PUSH2 0x2AC6 PUSH2 0xC59 PUSH2 0x2AC0 PUSH2 0x12D2 DUP8 SLOAD SWAP1 JUMP JUMPDEST DUP7 PUSH2 0xC19 JUMP JUMPDEST PUSH2 0x2ADA DUP2 PUSH2 0x2AD4 DUP6 DUP9 PUSH2 0xC19 JUMP JUMPDEST SWAP1 PUSH2 0x1377 JUMP JUMPDEST DUP8 PUSH2 0x43A JUMP JUMPDEST PUSH2 0xE81 JUMP JUMPDEST PUSH2 0x2A60 JUMP JUMPDEST PUSH2 0x1390 JUMP JUMPDEST ISZERO PUSH2 0x2AF6 JUMPI JUMP JUMPDEST PUSH1 0x40 MLOAD PUSH3 0x461BCD PUSH1 0xE5 SHL DUP2 MSTORE PUSH1 0x20 PUSH1 0x4 DUP3 ADD MSTORE PUSH1 0xD PUSH1 0x24 DUP3 ADD MSTORE PUSH13 0x1499599D5B990819985A5B1959 PUSH1 0x9A SHL PUSH1 0x44 DUP3 ADD MSTORE PUSH1 0x64 SWAP1 REVERT JUMPDEST PUSH2 0x2B35 SWAP1 CALLVALUE PUSH2 0x1005 JUMP JUMPDEST PUSH2 0x2B3F PUSH1 0x0 PUSH2 0x42D JUMP JUMPDEST DUP2 GT PUSH2 0x2B48 JUMPI POP JUMP JUMPDEST PUSH1 0x0 DUP1 PUSH2 0x304 SWAP3 PUSH2 0x2B56 CALLER SWAP1 JUMP JUMPDEST SWAP1 PUSH2 0x2B60 PUSH1 0x40 MLOAD SWAP1 JUMP JUMPDEST SWAP1 DUP2 DUP1 SUB SWAP3 GAS CALL PUSH2 0x2B6F PUSH2 0x1A1B JUMP JUMPDEST POP PUSH2 0x2AEF JUMP JUMPDEST SWAP1 DUP2 SLOAD SWAP2 PUSH9 0x10000000000000000 DUP4 LT ISZERO PUSH2 0x679 JUMPI DUP3 PUSH2 0x2AD4 SWAP2 PUSH1 0x1 PUSH2 0x304 SWAP6 ADD DUP2 SSTORE PUSH2 0xC19 JUMP JUMPDEST PUSH2 0x304 SWAP1 PUSH2 0x2BAC DUP2 PUSH1 0x10 PUSH2 0x2B75 JUMP JUMPDEST PUSH2 0x2AE0 PUSH2 0x2BBB PUSH2 0x12D2 PUSH1 0x10 SLOAD SWAP1 JUMP JUMPDEST SWAP2 PUSH1 0x11 PUSH2 0x43A JUMP JUMPDEST PUSH4 0x780E9D63 PUSH1 0xE0 SHL PUSH1 0x1 PUSH1 0x1 PUSH1 0xE0 SHL SUB NOT DUP3 AND EQ SWAP1 DUP2 ISZERO PUSH2 0x2BE2 JUMPI POP SWAP1 JUMP JUMPDEST PUSH2 0x369 SWAP2 POP PUSH2 0x32C5 JUMP JUMPDEST PUSH2 0x1F8C PUSH2 0x369 SWAP2 PUSH2 0x2BFB PUSH1 0x0 SWAP1 JUMP JUMPDEST POP PUSH1 0x2 PUSH2 0x43A JUMP JUMPDEST SWAP3 SWAP2 SWAP1 SWAP2 DUP1 DUP2 ISZERO PUSH2 0x2D0D JUMPI JUMPDEST PUSH2 0x2C2A JUMPI JUMPDEST POP POP SWAP1 PUSH2 0x2C25 PUSH2 0x304 SWAP3 PUSH1 0x4 PUSH2 0x43A JUMP JUMPDEST PUSH2 0x1242 JUMP JUMPDEST PUSH2 0x2C33 DUP4 PUSH2 0x1F35 JUMP JUMPDEST SWAP2 PUSH1 0x0 SWAP1 PUSH2 0x2C43 PUSH2 0x121A DUP4 PUSH2 0x105D JUMP JUMPDEST PUSH2 0x2C4C DUP3 PUSH2 0x3A3 JUMP JUMPDEST EQ ISZERO DUP1 PUSH2 0x2CF3 JUMPI JUMPDEST DUP1 PUSH2 0x2CE0 JUMPI JUMPDEST PUSH2 0x2CC7 JUMPI POP POP SWAP2 PUSH2 0x2C25 SWAP2 PUSH2 0x304 SWAP5 SWAP4 PUSH2 0x2C77 JUMPI JUMPDEST POP SWAP2 SWAP3 PUSH2 0x2C14 JUMP JUMPDEST PUSH2 0x2C80 SWAP1 PUSH2 0x113B JUMP JUMPDEST PUSH2 0x2C89 DUP5 PUSH2 0x113B JUMP JUMPDEST PUSH2 0x2C92 DUP4 PUSH2 0x42D JUMP JUMPDEST SWAP2 PUSH32 0x8C5BE1E5EBEC7D5BD14F71427D1E84F3DD0314C0F7B2291E5B200AC8C7C3B925 PUSH2 0x2CBD PUSH1 0x40 MLOAD SWAP1 JUMP JUMPDEST PUSH1 0x0 SWAP1 LOG4 CODESIZE PUSH2 0x2C6F JUMP JUMPDEST PUSH4 0xA9FBF51F PUSH1 0xE0 SHL DUP3 MSTORE DUP2 SWAP1 PUSH2 0x10FF SWAP1 PUSH1 0x4 DUP4 ADD PUSH2 0x3CF JUMP JUMPDEST POP PUSH2 0x2CEE PUSH2 0x2775 DUP3 DUP7 PUSH2 0x1E94 JUMP JUMPDEST PUSH2 0x2C5A JUMP JUMPDEST POP PUSH2 0x2CFD DUP2 PUSH2 0x3A3 JUMP JUMPDEST PUSH2 0x2D06 DUP6 PUSH2 0x3A3 JUMP JUMPDEST EQ ISZERO PUSH2 0x2C54 JUMP JUMPDEST POP PUSH2 0x2D1B PUSH2 0x121A PUSH1 0x0 PUSH2 0x105D JUMP JUMPDEST PUSH2 0x2D24 DUP4 PUSH2 0x3A3 JUMP JUMPDEST EQ ISZERO PUSH2 0x2C0F JUMP JUMPDEST PUSH2 0x304 SWAP2 PUSH2 0x2D37 PUSH2 0x1289 JUMP JUMPDEST SWAP2 PUSH2 0x3310 JUMP JUMPDEST SWAP1 SWAP2 PUSH2 0x2D4A SWAP1 DUP4 DUP4 PUSH2 0x332A JUMP JUMPDEST SWAP2 PUSH2 0x2D78 PUSH2 0x2D58 PUSH1 0x0 PUSH2 0x105D JUMP JUMPDEST PUSH2 0x2D61 DUP2 PUSH2 0x3A3 JUMP JUMPDEST PUSH2 0x2D6A DUP7 PUSH2 0x3A3 JUMP JUMPDEST SUB PUSH2 0x2DB5 JUMPI PUSH2 0x121A DUP4 PUSH2 0x34D9 JUMP JUMPDEST PUSH2 0x2D81 DUP4 PUSH2 0x3A3 JUMP JUMPDEST SUB PUSH2 0x2D90 JUMPI PUSH2 0x369 SWAP2 POP PUSH2 0x352A JUMP JUMPDEST PUSH2 0x2D99 DUP3 PUSH2 0x3A3 JUMP JUMPDEST PUSH2 0x2DA2 DUP5 PUSH2 0x3A3 JUMP JUMPDEST SUB PUSH2 0x2DAC JUMPI POP POP SWAP1 JUMP JUMPDEST PUSH2 0x369 SWAP2 PUSH2 0x34FB JUMP JUMPDEST PUSH2 0x2DBE DUP5 PUSH2 0x3A3 JUMP JUMPDEST PUSH2 0x2DC7 DUP7 PUSH2 0x3A3 JUMP JUMPDEST EQ PUSH2 0x3A3 JUMPI PUSH2 0x121A DUP4 DUP7 PUSH2 0x3458 JUMP JUMPDEST PUSH1 0x0 PUSH2 0x2ED1 PUSH2 0xFF1 PUSH2 0x2ECB PUSH2 0x2DEA DUP5 PUSH2 0x42D JUMP JUMPDEST SWAP5 PUSH2 0x2DFE PUSH2 0x2DF8 PUSH1 0x80 PUSH2 0x21EE JUMP JUMPDEST DUP3 PUSH2 0x21FB JUMP JUMPDEST DUP7 DUP2 GT PUSH2 0x2F71 JUMPI JUMPDEST POP PUSH2 0x2E14 PUSH2 0x2DF8 PUSH1 0x40 PUSH2 0x21EE JUMP JUMPDEST PUSH2 0x2E1D DUP7 PUSH2 0x42D JUMP JUMPDEST DUP2 GT PUSH2 0x2F5A JUMPI JUMPDEST POP PUSH2 0x2E32 PUSH2 0x2DF8 PUSH1 0x20 PUSH2 0x21EE JUMP JUMPDEST PUSH2 0x2E3B DUP7 PUSH2 0x42D JUMP JUMPDEST DUP2 GT PUSH2 0x2F43 JUMPI JUMPDEST POP PUSH2 0x2E50 PUSH2 0x2DF8 PUSH1 0x10 PUSH2 0x21EE JUMP JUMPDEST PUSH2 0x2E59 DUP7 PUSH2 0x42D JUMP JUMPDEST DUP2 GT PUSH2 0x2F2C JUMPI JUMPDEST POP PUSH2 0x2E6E PUSH2 0x2DF8 PUSH1 0x8 PUSH2 0x21EE JUMP JUMPDEST PUSH2 0x2E77 DUP7 PUSH2 0x42D JUMP JUMPDEST DUP2 GT PUSH2 0x2F15 JUMPI JUMPDEST POP PUSH2 0x2E8C PUSH2 0x2DF8 PUSH1 0x4 PUSH2 0x21EE JUMP JUMPDEST PUSH2 0x2E95 DUP7 PUSH2 0x42D JUMP JUMPDEST DUP2 GT PUSH2 0x2EFE JUMPI JUMPDEST POP PUSH2 0x2EAA PUSH2 0x2DF8 PUSH1 0x2 PUSH2 0x21EE JUMP JUMPDEST PUSH2 0x2EB3 DUP7 PUSH2 0x42D JUMP JUMPDEST DUP2 GT PUSH2 0x2EE7 JUMPI JUMPDEST POP PUSH2 0x2EC5 PUSH1 0x1 PUSH2 0x21EE JUMP JUMPDEST SWAP1 PUSH2 0x21FB JUMP JUMPDEST SWAP3 PUSH2 0x42D JUMP JUMPDEST GT PUSH2 0x2ED9 JUMPI SWAP1 JUMP JUMPDEST PUSH2 0x369 SWAP1 PUSH2 0x4EF PUSH1 0x1 PUSH2 0x42D JUMP JUMPDEST PUSH2 0x2EF7 SWAP2 POP SWAP6 PUSH2 0x4EF PUSH1 0x2 PUSH2 0x42D JUMP JUMPDEST SWAP5 CODESIZE PUSH2 0x2EBA JUMP JUMPDEST PUSH2 0x2F0E SWAP2 POP SWAP6 PUSH2 0x4EF PUSH1 0x4 PUSH2 0x42D JUMP JUMPDEST SWAP5 CODESIZE PUSH2 0x2E9C JUMP JUMPDEST PUSH2 0x2F25 SWAP2 POP SWAP6 PUSH2 0x4EF PUSH1 0x8 PUSH2 0x42D JUMP JUMPDEST SWAP5 CODESIZE PUSH2 0x2E7E JUMP JUMPDEST PUSH2 0x2F3C SWAP2 POP SWAP6 PUSH2 0x4EF PUSH1 0x10 PUSH2 0x42D JUMP JUMPDEST SWAP5 CODESIZE PUSH2 0x2E60 JUMP JUMPDEST PUSH2 0x2F53 SWAP2 POP SWAP6 PUSH2 0x4EF PUSH1 0x20 PUSH2 0x42D JUMP JUMPDEST SWAP5 CODESIZE PUSH2 0x2E42 JUMP JUMPDEST PUSH2 0x2F6A SWAP2 POP SWAP6 PUSH2 0x4EF PUSH1 0x40 PUSH2 0x42D JUMP JUMPDEST SWAP5 CODESIZE PUSH2 0x2E24 JUMP JUMPDEST PUSH2 0x2F81 SWAP2 POP SWAP6 PUSH2 0x4EF PUSH1 0x80 PUSH2 0x42D JUMP JUMPDEST SWAP5 CODESIZE PUSH2 0x2E06 JUMP JUMPDEST PUSH1 0x10 DUP3 LT ISZERO PUSH2 0xC3C JUMPI PUSH1 0x1 SWAP1 PUSH2 0xC33 JUMP JUMPDEST PUSH2 0x2FBA PUSH2 0x2FB3 PUSH2 0x369 SWAP3 PUSH2 0x2FAB PUSH1 0x60 SWAP1 JUMP JUMPDEST POP PUSH1 0x10 PUSH2 0x266F JUMP JUMPDEST PUSH1 0x14 PUSH2 0x2F88 JUMP JUMPDEST POP PUSH2 0xE18 JUMP JUMPDEST PUSH2 0x2FCF SWAP1 PUSH1 0xFF AND JUMPDEST SWAP2 PUSH1 0xFF AND SWAP1 JUMP JUMPDEST SWAP1 SUB SWAP1 PUSH1 0xFF DUP3 GT PUSH2 0xE6C JUMPI JUMP JUMPDEST PUSH2 0x2FE8 SWAP1 PUSH1 0xFF AND PUSH2 0x2FC8 JUMP JUMPDEST ADD SWAP1 PUSH1 0xFF DUP3 GT PUSH2 0xE6C JUMPI JUMP JUMPDEST PUSH2 0x369 PUSH2 0x369 PUSH2 0x369 SWAP3 PUSH1 0xFF AND SWAP1 JUMP JUMPDEST PUSH2 0x3010 SWAP1 PUSH1 0xFF AND PUSH2 0x2FC8 JUMP JUMPDEST MUL SWAP1 PUSH1 0xFF DUP3 AND SWAP2 DUP3 SUB PUSH2 0xE6C JUMPI JUMP JUMPDEST PUSH2 0x3027 PUSH2 0x24D8 JUMP JUMPDEST POP PUSH2 0x369 PUSH2 0x3035 PUSH1 0x18 PUSH2 0x21EE JUMP JUMPDEST PUSH2 0x312D PUSH2 0x310F PUSH2 0x308E PUSH2 0x3093 PUSH2 0x308E PUSH2 0x304E PUSH1 0x19 PUSH2 0x21EE JUMP JUMPDEST PUSH2 0xEB2 PUSH2 0x3088 PUSH2 0x3082 PUSH2 0x307D PUSH2 0x306D DUP6 PUSH2 0x3068 PUSH1 0x3E PUSH2 0x21EE JUMP JUMPDEST PUSH2 0x2FC0 JUMP JUMPDEST PUSH2 0x3077 PUSH1 0x1 PUSH2 0x21EE JUMP JUMPDEST SWAP1 PUSH2 0x2FDC JUMP JUMPDEST PUSH2 0x2FF4 JUMP JUMPDEST DUP12 PUSH2 0x24A1 JUMP JUMPDEST SWAP2 PUSH2 0x2FF4 JUMP JUMPDEST PUSH2 0x21EE JUMP JUMPDEST SWAP4 PUSH2 0xEB2 PUSH2 0x3088 PUSH2 0x30ED PUSH2 0x30E2 PUSH2 0x308E PUSH2 0x30D9 PUSH2 0x30D3 PUSH2 0x307D PUSH2 0x30BA DUP14 PUSH2 0x3068 PUSH1 0x7C PUSH2 0x21EE JUMP JUMPDEST PUSH2 0x30CD DUP11 PUSH2 0x30C8 PUSH1 0x2 PUSH2 0x21EE JUMP JUMPDEST PUSH2 0x3004 JUMP JUMPDEST SWAP1 PUSH2 0x2FC0 JUMP JUMPDEST DUP14 PUSH2 0x24A1 JUMP JUMPDEST PUSH2 0xEB2 DUP8 PUSH2 0x2FF4 JUMP JUMPDEST SWAP10 PUSH2 0x2EC5 PUSH1 0x8 PUSH2 0x21EE JUMP JUMPDEST PUSH2 0x266F PUSH2 0x307D PUSH2 0x3101 DUP11 PUSH2 0x3068 PUSH1 0x7C PUSH2 0x21EE JUMP JUMPDEST PUSH2 0x30CD DUP8 PUSH2 0x30C8 PUSH1 0x2 PUSH2 0x21EE JUMP JUMPDEST PUSH2 0x3123 PUSH2 0x311A PUSH2 0x24AB JUMP JUMPDEST PUSH1 0xFF SWAP1 SWAP7 AND DUP7 MSTORE JUMP JUMPDEST PUSH1 0xFF AND PUSH1 0x20 DUP6 ADD MSTORE JUMP JUMPDEST PUSH1 0xFF AND PUSH1 0x40 DUP4 ADD DUP2 SWAP1 MSTORE PUSH1 0x60 DUP4 ADD MSTORE JUMP JUMPDEST SWAP1 DUP2 PUSH2 0x314B DUP2 MLOAD PUSH1 0xFF AND SWAP1 JUMP JUMPDEST DUP3 SWAP1 PUSH2 0x316E PUSH2 0x2FC8 PUSH2 0x1E84 PUSH2 0x3161 DUP6 MLOAD PUSH1 0xFF AND SWAP1 JUMP JUMPDEST PUSH1 0x40 DUP9 ADD MLOAD PUSH1 0xFF AND PUSH2 0x3077 JUMP JUMPDEST LT SWAP4 DUP5 PUSH2 0x31FD JUMPI JUMPDEST POP POP DUP3 PUSH2 0x31C2 JUMPI JUMPDEST DUP3 PUSH2 0x3188 JUMPI POP POP SWAP1 JUMP JUMPDEST PUSH2 0x31BE SWAP2 SWAP3 POP PUSH2 0x1E84 PUSH1 0x20 PUSH2 0x31B5 DUP4 PUSH2 0x3077 PUSH1 0x60 PUSH2 0x31AC DUP6 PUSH2 0x2FC8 SWAP9 ADD MLOAD PUSH1 0xFF AND SWAP1 JUMP JUMPDEST SWAP3 ADD MLOAD PUSH1 0xFF AND SWAP1 JUMP JUMPDEST SWAP5 ADD MLOAD PUSH1 0xFF AND SWAP1 JUMP JUMPDEST GT SWAP1 JUMP JUMPDEST SWAP2 POP PUSH2 0x31D2 PUSH1 0x20 DUP4 ADD MLOAD PUSH1 0xFF AND SWAP1 JUMP JUMPDEST PUSH2 0x31F6 PUSH2 0x2FC8 PUSH2 0x1E84 PUSH2 0x31E9 PUSH1 0x20 DUP7 ADD MLOAD PUSH1 0xFF AND SWAP1 JUMP JUMPDEST PUSH1 0x60 DUP7 ADD MLOAD PUSH1 0xFF AND PUSH2 0x3077 JUMP JUMPDEST LT SWAP2 PUSH2 0x317E JUMP JUMPDEST PUSH2 0x3220 SWAP2 SWAP3 SWAP5 POP PUSH2 0x1E84 PUSH2 0x3218 PUSH2 0x3161 PUSH2 0x2FC8 SWAP4 MLOAD PUSH1 0xFF AND SWAP1 JUMP JUMPDEST SWAP4 MLOAD PUSH1 0xFF AND SWAP1 JUMP JUMPDEST GT SWAP2 CODESIZE DUP1 PUSH2 0x3176 JUMP JUMPDEST PUSH2 0x3252 PUSH2 0x324D PUSH2 0x3242 PUSH2 0x323C PUSH1 0x5 PUSH2 0x42D JUMP JUMPDEST DUP5 PUSH2 0x24A1 JUMP JUMPDEST SWAP3 PUSH2 0xEB2 PUSH1 0x1 PUSH2 0x42D JUMP JUMPDEST PUSH2 0x2F99 JUMP JUMPDEST SWAP1 PUSH2 0x325D PUSH1 0x0 PUSH2 0x42D JUMP JUMPDEST DUP2 SUB PUSH2 0x326D JUMPI POP PUSH2 0x369 SWAP2 PUSH2 0x3AA4 JUMP JUMPDEST PUSH2 0x3277 PUSH1 0x1 PUSH2 0x42D JUMP JUMPDEST DUP2 SUB PUSH2 0x3287 JUMPI POP PUSH2 0x369 SWAP2 PUSH2 0x39D2 JUMP JUMPDEST PUSH2 0x3291 PUSH1 0x2 PUSH2 0x42D JUMP JUMPDEST DUP2 SUB PUSH2 0x32A1 JUMPI POP PUSH2 0x369 SWAP2 PUSH2 0x39D2 JUMP JUMPDEST PUSH2 0x32AE PUSH2 0xFF1 PUSH1 0x3 PUSH2 0x42D JUMP JUMPDEST SUB PUSH2 0x32BC JUMPI PUSH2 0x369 SWAP2 PUSH2 0x37A0 JUMP JUMPDEST PUSH2 0x369 SWAP2 PUSH2 0x3604 JUMP JUMPDEST PUSH4 0x80AC58CD PUSH1 0xE0 SHL PUSH1 0x1 PUSH1 0x1 PUSH1 0xE0 SHL SUB NOT DUP3 AND EQ SWAP1 DUP2 ISZERO PUSH2 0x32F5 JUMPI JUMPDEST DUP2 ISZERO PUSH2 0x32EB JUMPI POP SWAP1 JUMP JUMPDEST PUSH2 0x369 SWAP2 POP PUSH2 0x3B2C JUMP JUMPDEST PUSH1 0x1 PUSH1 0x1 PUSH1 0xE0 SHL SUB NOT DUP2 AND PUSH4 0x5B5E139F PUSH1 0xE0 SHL EQ SWAP2 POP PUSH2 0x32E1 JUMP JUMPDEST SWAP1 PUSH2 0x304 SWAP3 SWAP2 PUSH2 0x3320 DUP3 DUP3 PUSH2 0x3B3C JUMP JUMPDEST PUSH2 0x1776 PUSH1 0x0 PUSH2 0x105D JUMP JUMPDEST SWAP1 PUSH2 0x337D PUSH2 0x3337 DUP3 PUSH2 0x2BEC JUMP JUMPDEST SWAP4 PUSH1 0x0 PUSH2 0x3343 DUP2 PUSH2 0x105D JUMP JUMPDEST SWAP2 DUP5 PUSH2 0x334E DUP5 PUSH2 0x3A3 JUMP JUMPDEST PUSH2 0x3357 DUP4 PUSH2 0x3A3 JUMP JUMPDEST SUB PUSH2 0x3447 JUMPI JUMPDEST POP POP PUSH2 0x3368 DUP3 PUSH2 0x3A3 JUMP JUMPDEST PUSH2 0x3371 DUP8 PUSH2 0x3A3 JUMP JUMPDEST SUB PUSH2 0x340C JUMPI JUMPDEST POP PUSH2 0x3A3 JUMP JUMPDEST PUSH2 0x3386 DUP4 PUSH2 0x3A3 JUMP JUMPDEST SUB PUSH2 0x33DC JUMPI JUMPDEST PUSH2 0x339B DUP3 PUSH2 0x2C25 DUP4 PUSH1 0x2 PUSH2 0x43A JUMP JUMPDEST PUSH2 0x33AA PUSH2 0x1AF5 PUSH2 0x21C6 DUP6 PUSH2 0x113B JUMP JUMPDEST SWAP2 PUSH32 0xDDF252AD1BE2C89B69C2B068FC378DAA952BA7F163C4A11628F55A4DF523B3EF PUSH2 0x33D5 PUSH1 0x40 MLOAD SWAP1 JUMP JUMPDEST PUSH1 0x0 SWAP1 LOG4 SWAP1 JUMP JUMPDEST PUSH2 0x3407 PUSH2 0x33E9 PUSH1 0x1 PUSH2 0x42D JUMP JUMPDEST PUSH2 0x3401 PUSH2 0x33F7 DUP6 PUSH1 0x3 PUSH2 0x1144 JUMP JUMPDEST SWAP2 PUSH2 0x4EF DUP4 PUSH2 0xDCD JUMP JUMPDEST SWAP1 PUSH2 0xE81 JUMP JUMPDEST PUSH2 0x338C JUMP JUMPDEST PUSH2 0x3418 SWAP1 DUP3 DUP6 DUP2 PUSH2 0x2C03 JUMP JUMPDEST PUSH2 0x3441 PUSH2 0x3425 PUSH1 0x1 PUSH2 0x42D JUMP JUMPDEST PUSH2 0x3401 PUSH2 0x3433 DUP9 PUSH1 0x3 PUSH2 0x1144 JUMP JUMPDEST SWAP2 PUSH2 0x343D DUP4 PUSH2 0xDCD JUMP JUMPDEST SUB SWAP1 JUMP JUMPDEST CODESIZE PUSH2 0x3377 JUMP JUMPDEST PUSH2 0x3451 SWAP2 DUP9 PUSH2 0x3BB2 JUMP JUMPDEST CODESIZE DUP5 PUSH2 0x335D JUMP JUMPDEST PUSH2 0x2AEA PUSH2 0x304 SWAP3 PUSH2 0x1173 PUSH1 0x0 SWAP4 PUSH2 0x3497 DUP6 PUSH2 0x2AEA PUSH2 0x3475 DUP5 PUSH2 0x1644 JUMP JUMPDEST SWAP6 PUSH1 0x7 DUP6 PUSH2 0x3486 PUSH2 0x1178 DUP5 DUP5 PUSH2 0x43A JUMP JUMPDEST DUP10 DUP1 DUP3 SUB PUSH2 0x349E JUMPI JUMPDEST POP POP POP PUSH2 0x43A JUMP JUMPDEST PUSH1 0x6 PUSH2 0x1144 JUMP JUMPDEST PUSH2 0x1173 PUSH2 0x34CB DUP5 PUSH2 0x2AE0 DUP6 PUSH2 0x34C1 PUSH2 0x1178 PUSH2 0x2AE0 SWAP8 PUSH2 0x1173 PUSH2 0x34D1 SWAP12 PUSH1 0x6 PUSH2 0x1144 JUMP JUMPDEST SWAP5 DUP6 SWAP4 PUSH1 0x6 PUSH2 0x1144 JUMP JUMPDEST DUP5 PUSH2 0x43A JUMP JUMPDEST DUP6 CODESIZE DUP10 PUSH2 0x348F JUMP JUMPDEST PUSH2 0x304 SWAP1 PUSH2 0x34F4 PUSH2 0x34E9 PUSH1 0x8 SLOAD SWAP1 JUMP JUMPDEST PUSH2 0x2AE0 DUP4 PUSH1 0x9 PUSH2 0x43A JUMP JUMPDEST PUSH1 0x8 PUSH2 0x2B75 JUMP JUMPDEST PUSH2 0x2AE0 DUP3 PUSH2 0x3523 PUSH2 0x304 SWAP5 PUSH2 0x2AE0 PUSH2 0x1173 SWAP6 PUSH2 0x3519 PUSH2 0x12D2 DUP3 PUSH2 0x1644 JUMP JUMPDEST SWAP7 DUP8 SWAP2 PUSH1 0x6 PUSH2 0x1144 JUMP JUMPDEST PUSH1 0x7 PUSH2 0x43A JUMP JUMPDEST PUSH2 0x2AE5 PUSH2 0x304 SWAP2 PUSH2 0x369 PUSH1 0x0 PUSH2 0x2AEA PUSH1 0x8 SWAP4 PUSH2 0x3547 PUSH2 0x12D2 DUP7 SLOAD SWAP1 JUMP JUMPDEST PUSH2 0x1173 PUSH1 0x9 SWAP2 PUSH2 0x2AE0 PUSH2 0x356A PUSH2 0xC59 PUSH2 0x3563 PUSH2 0x1178 DUP9 DUP9 PUSH2 0x43A JUMP JUMPDEST SWAP4 DUP12 PUSH2 0xC19 JUMP JUMPDEST PUSH2 0x34CB DUP2 PUSH2 0x2AD4 DUP6 DUP14 PUSH2 0xC19 JUMP JUMPDEST PUSH2 0xFF5 SWAP1 PUSH1 0xFF AND PUSH2 0x2FC8 JUMP JUMPDEST PUSH2 0x369 SWAP8 SWAP6 PUSH2 0x1826 PUSH2 0x35E3 PUSH2 0x1826 SWAP8 PUSH2 0x1826 PUSH2 0x35D6 PUSH2 0x35F0 SWAP10 PUSH2 0x1826 PUSH2 0x35E3 PUSH2 0x2604 SWAP16 SWAP12 PUSH2 0x1826 PUSH2 0x35D6 PUSH2 0x1826 SWAP14 PUSH2 0x1826 PUSH2 0x35D6 SWAP15 PUSH17 0x1E3837B63CB3B7B7103837B4B73A399E91 PUSH1 0x79 SHL DUP2 MSTORE PUSH1 0x11 ADD SWAP1 JUMP JUMPDEST PUSH1 0xB PUSH1 0xFA SHL DUP2 MSTORE PUSH1 0x1 ADD SWAP1 JUMP JUMPDEST PUSH1 0x1 PUSH1 0xFD SHL DUP2 MSTORE PUSH1 0x1 ADD SWAP1 JUMP JUMPDEST PUSH8 0x11103334B6361E91 PUSH1 0xC1 SHL DUP2 MSTORE PUSH1 0x8 ADD SWAP1 JUMP JUMPDEST SWAP1 DUP2 SWAP1 PUSH2 0x3612 DUP3 MLOAD PUSH1 0xFF AND SWAP1 JUMP JUMPDEST PUSH2 0x361B SWAP1 PUSH2 0x2FF4 JUMP JUMPDEST PUSH2 0x3624 SWAP1 PUSH2 0x3C12 JUMP JUMPDEST PUSH1 0x20 DUP4 ADD SWAP2 PUSH2 0x3634 DUP4 MLOAD PUSH1 0xFF AND SWAP1 JUMP JUMPDEST SWAP3 PUSH1 0x60 DUP6 ADD SWAP4 PUSH2 0x3645 DUP6 MLOAD PUSH1 0xFF AND SWAP1 JUMP JUMPDEST PUSH2 0x364E SWAP2 PUSH2 0x2FDC JUMP JUMPDEST PUSH2 0x3657 SWAP1 PUSH2 0x2FF4 JUMP JUMPDEST PUSH2 0x3660 SWAP1 PUSH2 0x3C12 JUMP JUMPDEST SWAP4 PUSH2 0x366C DUP8 MLOAD PUSH1 0xFF AND SWAP1 JUMP JUMPDEST SWAP6 PUSH1 0x40 ADD SWAP6 PUSH2 0x367C DUP8 MLOAD PUSH1 0xFF AND SWAP1 JUMP JUMPDEST PUSH2 0x3686 PUSH1 0x2 PUSH2 0x21EE JUMP JUMPDEST PUSH2 0x368F SWAP2 PUSH2 0x3578 JUMP JUMPDEST PUSH2 0x3698 SWAP2 PUSH2 0x2FDC JUMP JUMPDEST PUSH2 0x36A1 SWAP1 PUSH2 0x2FF4 JUMP JUMPDEST PUSH2 0x36AA SWAP1 PUSH2 0x3C12 JUMP JUMPDEST SWAP6 PUSH2 0x36B6 DUP4 MLOAD PUSH1 0xFF AND SWAP1 JUMP JUMPDEST PUSH2 0x36BF SWAP1 PUSH2 0x2FF4 JUMP JUMPDEST PUSH2 0x36C8 SWAP1 PUSH2 0x3C12 JUMP JUMPDEST SWAP8 MLOAD PUSH1 0xFF AND SWAP1 MLOAD PUSH1 0xFF AND PUSH2 0x36DB SWAP2 PUSH2 0x2FDC JUMP JUMPDEST PUSH2 0x36E4 SWAP1 PUSH2 0x2FF4 JUMP JUMPDEST PUSH2 0x36ED SWAP1 PUSH2 0x3C12 JUMP JUMPDEST SWAP2 MLOAD PUSH1 0xFF AND SWAP1 MLOAD PUSH1 0xFF AND PUSH2 0x3700 SWAP2 PUSH2 0x2FDC JUMP JUMPDEST PUSH2 0x3709 SWAP1 PUSH2 0x2FF4 JUMP JUMPDEST PUSH2 0x3712 SWAP1 PUSH2 0x3C12 JUMP JUMPDEST SWAP1 PUSH2 0x371C PUSH1 0x40 MLOAD SWAP1 JUMP JUMPDEST SWAP7 DUP8 SWAP7 PUSH1 0x20 DUP9 ADD SWAP7 PUSH2 0x372E SWAP7 DUP9 PUSH2 0x3584 JUMP JUMPDEST SWAP1 DUP2 SUB DUP3 MSTORE SUB PUSH2 0x369 SWAP1 DUP3 PUSH2 0x657 JUMP JUMPDEST PUSH2 0x35E3 PUSH2 0x1826 SWAP8 PUSH2 0x1826 PUSH2 0x35D6 PUSH2 0x35F0 SWAP10 PUSH2 0x1826 PUSH2 0x369 SWAP16 SWAP14 SWAP8 PUSH2 0x2604 SWAP16 SWAP12 PUSH2 0x1826 PUSH2 0x35D6 PUSH2 0x1826 SWAP14 PUSH2 0x1826 PUSH2 0x35E3 PUSH2 0x35D6 SWAP16 PUSH2 0x1826 PUSH2 0x1826 SWAP16 PUSH2 0x35E3 SWAP10 PUSH2 0x1826 PUSH2 0x35D6 SWAP3 PUSH17 0x1E3837B63CB3B7B7103837B4B73A399E91 PUSH1 0x79 SHL DUP2 MSTORE PUSH1 0x11 ADD SWAP1 JUMP JUMPDEST DUP1 PUSH2 0x37AC DUP2 MLOAD PUSH1 0xFF AND SWAP1 JUMP JUMPDEST SWAP3 PUSH1 0x40 DUP4 ADD SWAP1 PUSH2 0x37BD DUP3 MLOAD PUSH1 0xFF AND SWAP1 JUMP JUMPDEST SWAP5 PUSH1 0x2 SWAP6 PUSH2 0x37CA DUP8 PUSH2 0x21EE JUMP JUMPDEST PUSH2 0x37D3 SWAP2 PUSH2 0x3578 JUMP JUMPDEST PUSH2 0x37DC SWAP2 PUSH2 0x2FDC JUMP JUMPDEST PUSH2 0x37E5 SWAP1 PUSH2 0x2FF4 JUMP JUMPDEST PUSH2 0x37EE SWAP1 PUSH2 0x3C12 JUMP JUMPDEST SWAP2 PUSH1 0x20 DUP6 ADD PUSH2 0x37FE DUP2 MLOAD PUSH1 0xFF AND SWAP1 JUMP JUMPDEST PUSH2 0x3807 SWAP1 PUSH2 0x2FF4 JUMP JUMPDEST PUSH2 0x3810 SWAP1 PUSH2 0x3C12 JUMP JUMPDEST SWAP5 PUSH2 0x381C DUP2 MLOAD PUSH1 0xFF AND SWAP1 JUMP JUMPDEST PUSH2 0x3825 SWAP1 PUSH2 0x2FF4 JUMP JUMPDEST PUSH2 0x382E SWAP1 PUSH2 0x3C12 JUMP JUMPDEST SWAP7 PUSH2 0x383A DUP4 MLOAD PUSH1 0xFF AND SWAP1 JUMP JUMPDEST SWAP1 PUSH1 0x60 ADD SWAP1 PUSH2 0x384A DUP3 MLOAD PUSH1 0xFF AND SWAP1 JUMP JUMPDEST PUSH2 0x3853 DUP12 PUSH2 0x21EE JUMP JUMPDEST PUSH2 0x385C SWAP2 PUSH2 0x3578 JUMP JUMPDEST PUSH2 0x3865 SWAP2 PUSH2 0x2FDC JUMP JUMPDEST PUSH2 0x386E SWAP1 PUSH2 0x2FF4 JUMP JUMPDEST PUSH2 0x3877 SWAP1 PUSH2 0x3C12 JUMP JUMPDEST SWAP9 PUSH2 0x3883 DUP4 MLOAD PUSH1 0xFF AND SWAP1 JUMP JUMPDEST DUP6 MLOAD PUSH1 0xFF AND PUSH2 0x3891 DUP4 PUSH2 0x21EE JUMP JUMPDEST PUSH2 0x389A SWAP2 PUSH2 0x3578 JUMP JUMPDEST PUSH2 0x38A3 SWAP2 PUSH2 0x2FDC JUMP JUMPDEST PUSH2 0x38AC SWAP1 PUSH2 0x2FF4 JUMP JUMPDEST PUSH2 0x38B5 SWAP1 PUSH2 0x3C12 JUMP JUMPDEST SWAP5 PUSH2 0x38C1 DUP6 MLOAD PUSH1 0xFF AND SWAP1 JUMP JUMPDEST DUP4 MLOAD PUSH1 0xFF AND PUSH2 0x38CF SWAP2 PUSH2 0x2FDC JUMP JUMPDEST PUSH2 0x38D8 SWAP1 PUSH2 0x2FF4 JUMP JUMPDEST PUSH2 0x38E1 SWAP1 PUSH2 0x3C12 JUMP JUMPDEST SWAP4 MLOAD PUSH1 0xFF AND SWAP1 MLOAD PUSH1 0xFF AND PUSH2 0x38F4 SWAP2 PUSH2 0x2FDC JUMP JUMPDEST PUSH2 0x38FD SWAP1 PUSH2 0x2FF4 JUMP JUMPDEST PUSH2 0x3906 SWAP1 PUSH2 0x3C12 JUMP JUMPDEST SWAP4 MLOAD PUSH1 0xFF AND SWAP2 MLOAD PUSH1 0xFF AND SWAP1 PUSH2 0x391A SWAP1 PUSH2 0x21EE JUMP JUMPDEST PUSH2 0x3923 SWAP2 PUSH2 0x3578 JUMP JUMPDEST PUSH2 0x392C SWAP2 PUSH2 0x2FDC JUMP JUMPDEST PUSH2 0x3935 SWAP1 PUSH2 0x2FF4 JUMP JUMPDEST PUSH2 0x393E SWAP1 PUSH2 0x3C12 JUMP JUMPDEST SWAP3 PUSH2 0x3948 PUSH1 0x40 MLOAD SWAP1 JUMP JUMPDEST SWAP9 DUP10 SWAP9 PUSH1 0x20 DUP11 ADD SWAP9 PUSH2 0x372E SWAP9 DUP11 PUSH2 0x373E JUMP JUMPDEST SWAP4 PUSH2 0x1826 PUSH2 0x39BC PUSH2 0x369 SWAP8 SWAP6 PUSH2 0x1826 PUSH2 0x39A7 PUSH2 0x1826 SWAP8 PUSH2 0x1826 PUSH2 0x3996 PUSH2 0x35F0 SWAP10 PUSH2 0x1826 PUSH2 0x2604 SWAP15 PUSH9 0x1E3932B1BA103C1E91 PUSH1 0xB9 SHL DUP2 MSTORE PUSH1 0x9 ADD SWAP1 JUMP JUMPDEST PUSH5 0x11103C9E91 PUSH1 0xD9 SHL DUP2 MSTORE PUSH1 0x5 ADD SWAP1 JUMP JUMPDEST PUSH9 0x11103BB4B23A341E91 PUSH1 0xB9 SHL DUP2 MSTORE PUSH1 0x9 ADD SWAP1 JUMP JUMPDEST PUSH10 0x11103432B4B3B43A1E91 PUSH1 0xB1 SHL DUP2 MSTORE PUSH1 0xA ADD SWAP1 JUMP JUMPDEST PUSH2 0x369 PUSH2 0x369 SWAP3 PUSH2 0x39E1 PUSH1 0x60 SWAP1 JUMP JUMPDEST POP PUSH2 0x39F8 PUSH2 0x39F3 PUSH2 0x307D DUP6 MLOAD PUSH1 0xFF AND SWAP1 JUMP JUMPDEST PUSH2 0x3C12 JUMP JUMPDEST PUSH2 0x18BD PUSH2 0x3A0F PUSH2 0x39F3 PUSH2 0x307D PUSH1 0x20 DUP9 ADD MLOAD PUSH1 0xFF AND SWAP1 JUMP JUMPDEST SWAP3 PUSH2 0x3A38 PUSH2 0x39F3 PUSH2 0x307D PUSH1 0x60 PUSH2 0x3A2F PUSH2 0x39F3 PUSH2 0x307D PUSH1 0x40 DUP14 ADD MLOAD PUSH1 0xFF AND SWAP1 JUMP JUMPDEST SWAP10 ADD MLOAD PUSH1 0xFF AND SWAP1 JUMP JUMPDEST PUSH1 0x40 MLOAD SWAP7 DUP8 SWAP6 PUSH1 0x20 DUP8 ADD SWAP6 DUP7 PUSH2 0x395A JUMP JUMPDEST PUSH2 0x2604 SWAP4 PUSH2 0x1826 PUSH2 0x3A93 PUSH2 0x369 SWAP8 SWAP6 PUSH2 0x1826 PUSH2 0x3A81 PUSH2 0x1826 SWAP8 PUSH2 0x1826 PUSH2 0x35F0 SWAP9 PUSH12 0x1E31B4B931B6329031BC1E91 PUSH1 0xA1 SHL DUP2 MSTORE PUSH1 0xC ADD SWAP1 JUMP JUMPDEST PUSH6 0x111031BC9E91 PUSH1 0xD1 SHL DUP2 MSTORE PUSH1 0x6 ADD SWAP1 JUMP JUMPDEST PUSH5 0x1110391E91 PUSH1 0xD9 SHL DUP2 MSTORE PUSH1 0x5 ADD SWAP1 JUMP JUMPDEST SWAP1 PUSH2 0x369 PUSH2 0x3B09 PUSH2 0x369 SWAP4 PUSH2 0x3AB7 PUSH1 0x60 SWAP1 JUMP JUMPDEST POP PUSH2 0x18BD PUSH2 0x3B14 PUSH2 0x39F3 PUSH2 0x3B0E PUSH2 0x39F3 PUSH2 0x307D PUSH1 0x0 PUSH2 0x3B09 PUSH1 0x20 PUSH2 0x3A2F PUSH2 0x39F3 PUSH2 0x307D DUP13 PUSH2 0x3AFC PUSH2 0x3AEC PUSH1 0x40 DUP4 ADD MLOAD PUSH1 0xFF AND SWAP1 JUMP JUMPDEST PUSH2 0x3AF6 PUSH1 0x2 PUSH2 0x21EE JUMP JUMPDEST SWAP1 PUSH2 0x3578 JUMP JUMPDEST SWAP15 DUP16 SWAP8 DUP9 SWAP3 ADD MLOAD PUSH1 0xFF AND SWAP1 JUMP JUMPDEST PUSH2 0x2FDC JUMP JUMPDEST SWAP5 PUSH2 0x2FF4 JUMP JUMPDEST SWAP5 PUSH2 0x3B1E PUSH1 0x40 MLOAD SWAP1 JUMP JUMPDEST SWAP6 DUP7 SWAP5 PUSH1 0x20 DUP7 ADD SWAP5 DUP6 PUSH2 0x3A49 JUMP JUMPDEST PUSH2 0xE14 PUSH4 0x1FFC9A7 PUSH1 0xE0 SHL PUSH2 0xE06 JUMP JUMPDEST PUSH1 0x0 SWAP2 PUSH2 0x3B48 DUP4 PUSH2 0x105D JUMP JUMPDEST SWAP2 PUSH2 0x3B52 DUP4 PUSH2 0x3A3 JUMP JUMPDEST PUSH2 0x3B5B DUP3 PUSH2 0x3A3 JUMP JUMPDEST EQ PUSH2 0x3B99 JUMPI PUSH2 0x3B6B SWAP2 DUP4 SWAP2 PUSH2 0x2099 JUMP JUMPDEST PUSH2 0x3B77 PUSH2 0x19A5 DUP4 PUSH2 0x3A3 JUMP JUMPDEST SUB PUSH2 0x3B80 JUMPI POP POP JUMP JUMPDEST PUSH4 0x39E35637 PUSH1 0xE1 SHL DUP3 MSTORE DUP2 SWAP1 PUSH2 0x10FF SWAP1 PUSH1 0x4 DUP4 ADD PUSH2 0x3CF JUMP JUMPDEST PUSH4 0x32505749 PUSH1 0xE1 SHL DUP5 MSTORE DUP4 DUP1 PUSH2 0x10FF DUP6 PUSH1 0x4 DUP4 ADD PUSH2 0x3CF JUMP JUMPDEST SWAP1 PUSH2 0x3BC1 PUSH2 0x2775 DUP5 DUP4 DUP6 PUSH2 0x3C9F JUMP JUMPDEST PUSH2 0x3BCA JUMPI POP POP POP JUMP JUMPDEST PUSH1 0x0 SWAP3 DUP4 SWAP3 PUSH2 0x3BDE PUSH2 0x19A5 PUSH2 0x121A DUP7 PUSH2 0x105D JUMP JUMPDEST SUB PUSH2 0x3BFB JUMPI PUSH4 0x7E273289 PUSH1 0xE0 SHL DUP4 MSTORE PUSH1 0x4 DUP4 ADD MSTORE POP PUSH1 0x24 DUP2 ADD SUB SWAP1 REVERT JUMPDEST PUSH4 0x177E802F PUSH1 0xE0 SHL DUP4 MSTORE PUSH2 0x10FF SWAP2 PUSH1 0x4 DUP5 ADD PUSH2 0x111C JUMP JUMPDEST PUSH2 0x3C1B DUP2 PUSH2 0x3D23 JUMP JUMPDEST SWAP1 PUSH2 0x3C2C PUSH1 0x1 SWAP3 PUSH2 0x4EF PUSH1 0x1 PUSH2 0x42D JUMP JUMPDEST SWAP2 DUP1 PUSH2 0x3C37 DUP5 PUSH2 0x28B2 JUMP JUMPDEST SWAP4 PUSH1 0x20 ADD DUP5 ADD SWAP1 JUMPDEST PUSH2 0x3C4A JUMPI JUMPDEST POP POP POP SWAP1 JUMP JUMPDEST DUP2 ISZERO PUSH2 0x3C9A JUMPI PUSH2 0x3C7E SWAP1 PUSH1 0x0 NOT ADD SWAP3 PUSH16 0x181899199A1A9B1B9C1CB0B131B232B3 PUSH1 0x81 SHL PUSH1 0xA DUP3 MOD BYTE DUP5 MSTORE8 PUSH2 0x1044 PUSH1 0xA PUSH2 0x42D JUMP JUMPDEST SWAP1 DUP2 PUSH2 0x3C8D PUSH2 0xFF1 PUSH1 0x0 PUSH2 0x42D JUMP JUMPDEST EQ PUSH2 0x3C9A JUMPI SWAP1 SWAP2 DUP2 PUSH2 0x3C3F JUMP JUMPDEST PUSH2 0x3C44 JUMP JUMPDEST SWAP1 PUSH2 0x3CAD PUSH2 0x121A PUSH1 0x0 PUSH2 0x105D JUMP JUMPDEST PUSH2 0x3CB6 DUP3 PUSH2 0x3A3 JUMP JUMPDEST EQ ISZERO SWAP3 DUP4 PUSH2 0x3CC4 JUMPI POP POP POP SWAP1 JUMP JUMPDEST SWAP1 SWAP2 SWAP3 POP PUSH2 0x3CD1 DUP3 PUSH2 0x3A3 JUMP JUMPDEST PUSH2 0x3CDA DUP5 PUSH2 0x3A3 JUMP JUMPDEST EQ SWAP3 DUP4 ISZERO PUSH2 0x3D0F JUMPI JUMPDEST POP DUP3 ISZERO PUSH2 0x3CF5 JUMPI JUMPDEST POP POP CODESIZE DUP1 DUP1 PUSH2 0x3C44 JUMP JUMPDEST PUSH2 0x3D07 SWAP2 SWAP3 POP PUSH2 0x29FA PUSH2 0x19A5 SWAP2 PUSH2 0x1F75 JUMP JUMPDEST EQ CODESIZE DUP1 PUSH2 0x3CEB JUMP JUMPDEST PUSH2 0x3D1C SWAP2 SWAP4 POP DUP3 SWAP1 PUSH2 0x1E94 JUMP JUMPDEST SWAP2 CODESIZE PUSH2 0x3CE3 JUMP JUMPDEST PUSH2 0x3D2D PUSH1 0x0 PUSH2 0x42D JUMP JUMPDEST SWAP1 PUSH27 0x184F03E93FF9F4DAA797ED6E38ED64BF6A1F010000000000000000 PUSH2 0x3D53 DUP2 PUSH2 0x42D JUMP JUMPDEST DUP3 LT ISZERO PUSH2 0x3E95 JUMPI JUMPDEST POP PUSH14 0x4EE2D6D415B85ACEF8100000000 PUSH2 0x3D74 DUP2 PUSH2 0x42D JUMP JUMPDEST DUP3 LT ISZERO PUSH2 0x3E73 JUMPI JUMPDEST POP PUSH7 0x2386F26FC10000 PUSH2 0x3D8E DUP2 PUSH2 0x42D JUMP JUMPDEST DUP3 LT ISZERO PUSH2 0x3E51 JUMPI JUMPDEST POP PUSH4 0x5F5E100 PUSH2 0x3DA5 DUP2 PUSH2 0x42D JUMP JUMPDEST DUP3 LT ISZERO PUSH2 0x3E2F JUMPI JUMPDEST POP PUSH2 0x2710 PUSH2 0x3DBA DUP2 PUSH2 0x42D JUMP JUMPDEST DUP3 LT ISZERO PUSH2 0x3E0D JUMPI JUMPDEST POP PUSH2 0x3DCD PUSH1 0x64 PUSH2 0x42D JUMP JUMPDEST DUP2 LT ISZERO PUSH2 0x3DEB JUMPI JUMPDEST PUSH2 0x3DE2 PUSH2 0xFF1 PUSH1 0xA PUSH2 0x42D JUMP JUMPDEST LT ISZERO PUSH2 0x2ED9 JUMPI SWAP1 JUMP JUMPDEST PUSH2 0x3DFC PUSH2 0x3E07 SWAP2 PUSH2 0x1044 PUSH1 0x64 PUSH2 0x42D JUMP JUMPDEST SWAP2 PUSH2 0x4EF PUSH1 0x2 PUSH2 0x42D JUMP JUMPDEST SWAP1 PUSH2 0x3DD5 JUMP JUMPDEST PUSH2 0x3E28 SWAP2 PUSH2 0x1044 PUSH2 0x3E1D SWAP3 PUSH2 0x42D JUMP JUMPDEST SWAP2 PUSH2 0x4EF PUSH1 0x4 PUSH2 0x42D JUMP JUMPDEST SWAP1 CODESIZE PUSH2 0x3DC2 JUMP JUMPDEST PUSH2 0x3E4A SWAP2 PUSH2 0x1044 PUSH2 0x3E3F SWAP3 PUSH2 0x42D JUMP JUMPDEST SWAP2 PUSH2 0x4EF PUSH1 0x8 PUSH2 0x42D JUMP JUMPDEST SWAP1 CODESIZE PUSH2 0x3DAD JUMP JUMPDEST PUSH2 0x3E6C SWAP2 PUSH2 0x1044 PUSH2 0x3E61 SWAP3 PUSH2 0x42D JUMP JUMPDEST SWAP2 PUSH2 0x4EF PUSH1 0x10 PUSH2 0x42D JUMP JUMPDEST SWAP1 CODESIZE PUSH2 0x3D96 JUMP JUMPDEST PUSH2 0x3E8E SWAP2 PUSH2 0x1044 PUSH2 0x3E83 SWAP3 PUSH2 0x42D JUMP JUMPDEST SWAP2 PUSH2 0x4EF PUSH1 0x20 PUSH2 0x42D JUMP JUMPDEST SWAP1 CODESIZE PUSH2 0x3D7C JUMP JUMPDEST PUSH2 0x3EB0 SWAP2 PUSH2 0x1044 PUSH2 0x3EA5 SWAP3 PUSH2 0x42D JUMP JUMPDEST SWAP2 PUSH2 0x4EF PUSH1 0x40 PUSH2 0x42D JUMP JUMPDEST SWAP1 CODESIZE PUSH2 0x3D5B JUMP INVALID LOG2 PUSH5 0x6970667358 0x22 SLT KECCAK256 EXP BLOBBASEFEE 0xD7 0x2A CALLDATASIZE EQ MSTORE DUP6 NOT 0x22 0x4B GASLIMIT PUSH1 0x44 0x2E 0xC5 0xD5 KECCAK256 DUP11 ADDRESS 0xF8 0xE8 SWAP11 0xFB PUSH10 0x6BD6608FCAE16C64736F PUSH13 0x634300081C0033000000000000 "},"methodIdentifiers":{"approve(address,uint256)":"095ea7b3","availableTokens(uint256)":"ad64d068","balanceOf(address)":"70a08231","baseURI()":"6c0360eb","buy(uint256)":"d96a094a","calculatePrice(uint256)":"ae104265","contractURI()":"e8a3d485","creator()":"02d05d3f","creatorFeePercent()":"53613dd3","currentSupply()":"771282f6","getAllAvailableTokens()":"12ea5c7e","getApproved(uint256)":"081812fc","getAvailableTokenByIndex(uint256)":"cf6a68bf","getAvailableTokensCount()":"2dcd52f2","getAvailableTokensPaginated(uint256,uint256)":"5eba096b","getBuyPrice()":"018a25e8","getBuyPriceAfterFee()":"4a8fe650","getSellPrice()":"43d32e9c","getSellPriceAfterFee()":"21a1c184","initialPrice()":"1d0806ae","isApprovedForAll(address,address)":"e985e9c5","isOnSale(uint256)":"f0f2805f","maxSupply()":"d5abeb01","mint()":"1249c58b","name()":"06fdde03","onERC721Received(address,address,uint256,bytes)":"150b7a02","owner()":"8da5cb5b","ownerOf(uint256)":"6352211e","renounceOwnership()":"715018a6","safeTransferFrom(address,address,uint256)":"42842e0e","safeTransferFrom(address,address,uint256,bytes)":"b88d4fde","sell(uint256)":"e4849b32","setApprovalForAll(address,bool)":"a22cb465","setBaseURI(string)":"55f804b3","setCreator(address)":"3f516018","supportsInterface(bytes4)":"01ffc9a7","symbol()":"95d89b41","tokenByIndex(uint256)":"4f6ccce7","tokenIndex(uint256)":"0583e9f8","tokenOfOwnerByIndex(address,uint256)":"2f745c59","tokenSeed(uint256)":"5f516836","tokenURI(uint256)":"c87b56dd","totalSupply()":"18160ddd","transferFrom(address,address,uint256)":"23b872dd","transferOwnership(address)":"f2fde38b"}}}}}