{
  "_format": "hh-sol-artifact-1",
  "contractName": "Price",
  "sourceName": "src/core/Price.sol",
  "abi": [
    {
      "inputs": [
        {
          "internalType": "string",
          "name": "_name",
          "type": "string"
        },
        {
          "internalType": "string",
          "name": "_symbol",
          "type": "string"
        },
        {
          "internalType": "uint256",
          "name": "_initialPrice",
          "type": "uint256"
        },
        {
          "internalType": "uint256",
          "name": "_maxSupply",
          "type": "uint256"
        },
        {
          "internalType": "uint256",
          "name": "_creatorFeePercent",
          "type": "uint256"
        }
      ],
      "stateMutability": "nonpayable",
      "type": "constructor"
    },
    {
      "inputs": [],
      "name": "ERC721EnumerableForbiddenBatchMint",
      "type": "error"
    },
    {
      "inputs": [
        {
          "internalType": "address",
          "name": "sender",
          "type": "address"
        },
        {
          "internalType": "uint256",
          "name": "tokenId",
          "type": "uint256"
        },
        {
          "internalType": "address",
          "name": "owner",
          "type": "address"
        }
      ],
      "name": "ERC721IncorrectOwner",
      "type": "error"
    },
    {
      "inputs": [
        {
          "internalType": "address",
          "name": "operator",
          "type": "address"
        },
        {
          "internalType": "uint256",
          "name": "tokenId",
          "type": "uint256"
        }
      ],
      "name": "ERC721InsufficientApproval",
      "type": "error"
    },
    {
      "inputs": [
        {
          "internalType": "address",
          "name": "approver",
          "type": "address"
        }
      ],
      "name": "ERC721InvalidApprover",
      "type": "error"
    },
    {
      "inputs": [
        {
          "internalType": "address",
          "name": "operator",
          "type": "address"
        }
      ],
      "name": "ERC721InvalidOperator",
      "type": "error"
    },
    {
      "inputs": [
        {
          "internalType": "address",
          "name": "owner",
          "type": "address"
        }
      ],
      "name": "ERC721InvalidOwner",
      "type": "error"
    },
    {
      "inputs": [
        {
          "internalType": "address",
          "name": "receiver",
          "type": "address"
        }
      ],
      "name": "ERC721InvalidReceiver",
      "type": "error"
    },
    {
      "inputs": [
        {
          "internalType": "address",
          "name": "sender",
          "type": "address"
        }
      ],
      "name": "ERC721InvalidSender",
      "type": "error"
    },
    {
      "inputs": [
        {
          "internalType": "uint256",
          "name": "tokenId",
          "type": "uint256"
        }
      ],
      "name": "ERC721NonexistentToken",
      "type": "error"
    },
    {
      "inputs": [
        {
          "internalType": "address",
          "name": "owner",
          "type": "address"
        },
        {
          "internalType": "uint256",
          "name": "index",
          "type": "uint256"
        }
      ],
      "name": "ERC721OutOfBoundsIndex",
      "type": "error"
    },
    {
      "inputs": [
        {
          "internalType": "address",
          "name": "owner",
          "type": "address"
        }
      ],
      "name": "OwnableInvalidOwner",
      "type": "error"
    },
    {
      "inputs": [
        {
          "internalType": "address",
          "name": "account",
          "type": "address"
        }
      ],
      "name": "OwnableUnauthorizedAccount",
      "type": "error"
    },
    {
      "anonymous": false,
      "inputs": [
        {
          "indexed": true,
          "internalType": "address",
          "name": "owner",
          "type": "address"
        },
        {
          "indexed": true,
          "internalType": "address",
          "name": "approved",
          "type": "address"
        },
        {
          "indexed": true,
          "internalType": "uint256",
          "name": "tokenId",
          "type": "uint256"
        }
      ],
      "name": "Approval",
      "type": "event"
    },
    {
      "anonymous": false,
      "inputs": [
        {
          "indexed": true,
          "internalType": "address",
          "name": "owner",
          "type": "address"
        },
        {
          "indexed": true,
          "internalType": "address",
          "name": "operator",
          "type": "address"
        },
        {
          "indexed": false,
          "internalType": "bool",
          "name": "approved",
          "type": "bool"
        }
      ],
      "name": "ApprovalForAll",
      "type": "event"
    },
    {
      "anonymous": false,
      "inputs": [
        {
          "indexed": true,
          "internalType": "address",
          "name": "previousOwner",
          "type": "address"
        },
        {
          "indexed": true,
          "internalType": "address",
          "name": "newOwner",
          "type": "address"
        }
      ],
      "name": "OwnershipTransferred",
      "type": "event"
    },
    {
      "anonymous": false,
      "inputs": [
        {
          "indexed": true,
          "internalType": "address",
          "name": "from",
          "type": "address"
        },
        {
          "indexed": true,
          "internalType": "address",
          "name": "to",
          "type": "address"
        },
        {
          "indexed": true,
          "internalType": "uint256",
          "name": "tokenId",
          "type": "uint256"
        }
      ],
      "name": "Transfer",
      "type": "event"
    },
    {
      "inputs": [
        {
          "internalType": "address",
          "name": "to",
          "type": "address"
        },
        {
          "internalType": "uint256",
          "name": "tokenId",
          "type": "uint256"
        }
      ],
      "name": "approve",
      "outputs": [],
      "stateMutability": "nonpayable",
      "type": "function"
    },
    {
      "inputs": [
        {
          "internalType": "uint256",
          "name": "",
          "type": "uint256"
        }
      ],
      "name": "availableTokens",
      "outputs": [
        {
          "internalType": "uint256",
          "name": "",
          "type": "uint256"
        }
      ],
      "stateMutability": "view",
      "type": "function"
    },
    {
      "inputs": [
        {
          "internalType": "address",
          "name": "owner",
          "type": "address"
        }
      ],
      "name": "balanceOf",
      "outputs": [
        {
          "internalType": "uint256",
          "name": "",
          "type": "uint256"
        }
      ],
      "stateMutability": "view",
      "type": "function"
    },
    {
      "inputs": [],
      "name": "baseURI",
      "outputs": [
        {
          "internalType": "string",
          "name": "",
          "type": "string"
        }
      ],
      "stateMutability": "view",
      "type": "function"
    },
    {
      "inputs": [
        {
          "internalType": "uint256",
          "name": "supply",
          "type": "uint256"
        }
      ],
      "name": "calculatePrice",
      "outputs": [
        {
          "internalType": "uint256",
          "name": "",
          "type": "uint256"
        }
      ],
      "stateMutability": "view",
      "type": "function"
    },
    {
      "inputs": [],
      "name": "contractURI",
      "outputs": [
        {
          "internalType": "string",
          "name": "",
          "type": "string"
        }
      ],
      "stateMutability": "view",
      "type": "function"
    },
    {
      "inputs": [],
      "name": "creator",
      "outputs": [
        {
          "internalType": "address",
          "name": "",
          "type": "address"
        }
      ],
      "stateMutability": "view",
      "type": "function"
    },
    {
      "inputs": [],
      "name": "creatorFeePercent",
      "outputs": [
        {
          "internalType": "uint256",
          "name": "",
          "type": "uint256"
        }
      ],
      "stateMutability": "view",
      "type": "function"
    },
    {
      "inputs": [],
      "name": "currentSupply",
      "outputs": [
        {
          "internalType": "uint256",
          "name": "",
          "type": "uint256"
        }
      ],
      "stateMutability": "view",
      "type": "function"
    },
    {
      "inputs": [],
      "name": "getAllAvailableTokens",
      "outputs": [
        {
          "internalType": "uint256[]",
          "name": "",
          "type": "uint256[]"
        }
      ],
      "stateMutability": "view",
      "type": "function"
    },
    {
      "inputs": [
        {
          "internalType": "uint256",
          "name": "tokenId",
          "type": "uint256"
        }
      ],
      "name": "getApproved",
      "outputs": [
        {
          "internalType": "address",
          "name": "",
          "type": "address"
        }
      ],
      "stateMutability": "view",
      "type": "function"
    },
    {
      "inputs": [
        {
          "internalType": "uint256",
          "name": "index",
          "type": "uint256"
        }
      ],
      "name": "getAvailableTokenByIndex",
      "outputs": [
        {
          "internalType": "uint256",
          "name": "",
          "type": "uint256"
        }
      ],
      "stateMutability": "view",
      "type": "function"
    },
    {
      "inputs": [],
      "name": "getAvailableTokensCount",
      "outputs": [
        {
          "internalType": "uint256",
          "name": "",
          "type": "uint256"
        }
      ],
      "stateMutability": "view",
      "type": "function"
    },
    {
      "inputs": [
        {
          "internalType": "uint256",
          "name": "start",
          "type": "uint256"
        },
        {
          "internalType": "uint256",
          "name": "limit",
          "type": "uint256"
        }
      ],
      "name": "getAvailableTokensPaginated",
      "outputs": [
        {
          "internalType": "uint256[]",
          "name": "",
          "type": "uint256[]"
        }
      ],
      "stateMutability": "view",
      "type": "function"
    },
    {
      "inputs": [],
      "name": "getBuyPrice",
      "outputs": [
        {
          "internalType": "uint256",
          "name": "",
          "type": "uint256"
        }
      ],
      "stateMutability": "view",
      "type": "function"
    },
    {
      "inputs": [],
      "name": "getBuyPriceAfterFee",
      "outputs": [
        {
          "internalType": "uint256",
          "name": "",
          "type": "uint256"
        }
      ],
      "stateMutability": "view",
      "type": "function"
    },
    {
      "inputs": [],
      "name": "getSellPrice",
      "outputs": [
        {
          "internalType": "uint256",
          "name": "",
          "type": "uint256"
        }
      ],
      "stateMutability": "view",
      "type": "function"
    },
    {
      "inputs": [],
      "name": "getSellPriceAfterFee",
      "outputs": [
        {
          "internalType": "uint256",
          "name": "",
          "type": "uint256"
        }
      ],
      "stateMutability": "view",
      "type": "function"
    },
    {
      "inputs": [],
      "name": "initialPrice",
      "outputs": [
        {
          "internalType": "uint256",
          "name": "",
          "type": "uint256"
        }
      ],
      "stateMutability": "view",
      "type": "function"
    },
    {
      "inputs": [
        {
          "internalType": "address",
          "name": "owner",
          "type": "address"
        },
        {
          "internalType": "address",
          "name": "operator",
          "type": "address"
        }
      ],
      "name": "isApprovedForAll",
      "outputs": [
        {
          "internalType": "bool",
          "name": "",
          "type": "bool"
        }
      ],
      "stateMutability": "view",
      "type": "function"
    },
    {
      "inputs": [],
      "name": "maxSupply",
      "outputs": [
        {
          "internalType": "uint256",
          "name": "",
          "type": "uint256"
        }
      ],
      "stateMutability": "view",
      "type": "function"
    },
    {
      "inputs": [],
      "name": "name",
      "outputs": [
        {
          "internalType": "string",
          "name": "",
          "type": "string"
        }
      ],
      "stateMutability": "view",
      "type": "function"
    },
    {
      "inputs": [
        {
          "internalType": "address",
          "name": "",
          "type": "address"
        },
        {
          "internalType": "address",
          "name": "",
          "type": "address"
        },
        {
          "internalType": "uint256",
          "name": "",
          "type": "uint256"
        },
        {
          "internalType": "bytes",
          "name": "",
          "type": "bytes"
        }
      ],
      "name": "onERC721Received",
      "outputs": [
        {
          "internalType": "bytes4",
          "name": "",
          "type": "bytes4"
        }
      ],
      "stateMutability": "nonpayable",
      "type": "function"
    },
    {
      "inputs": [],
      "name": "owner",
      "outputs": [
        {
          "internalType": "address",
          "name": "",
          "type": "address"
        }
      ],
      "stateMutability": "view",
      "type": "function"
    },
    {
      "inputs": [
        {
          "internalType": "uint256",
          "name": "tokenId",
          "type": "uint256"
        }
      ],
      "name": "ownerOf",
      "outputs": [
        {
          "internalType": "address",
          "name": "",
          "type": "address"
        }
      ],
      "stateMutability": "view",
      "type": "function"
    },
    {
      "inputs": [],
      "name": "renounceOwnership",
      "outputs": [],
      "stateMutability": "nonpayable",
      "type": "function"
    },
    {
      "inputs": [
        {
          "internalType": "address",
          "name": "from",
          "type": "address"
        },
        {
          "internalType": "address",
          "name": "to",
          "type": "address"
        },
        {
          "internalType": "uint256",
          "name": "tokenId",
          "type": "uint256"
        }
      ],
      "name": "safeTransferFrom",
      "outputs": [],
      "stateMutability": "nonpayable",
      "type": "function"
    },
    {
      "inputs": [
        {
          "internalType": "address",
          "name": "from",
          "type": "address"
        },
        {
          "internalType": "address",
          "name": "to",
          "type": "address"
        },
        {
          "internalType": "uint256",
          "name": "tokenId",
          "type": "uint256"
        },
        {
          "internalType": "bytes",
          "name": "data",
          "type": "bytes"
        }
      ],
      "name": "safeTransferFrom",
      "outputs": [],
      "stateMutability": "nonpayable",
      "type": "function"
    },
    {
      "inputs": [
        {
          "internalType": "address",
          "name": "operator",
          "type": "address"
        },
        {
          "internalType": "bool",
          "name": "approved",
          "type": "bool"
        }
      ],
      "name": "setApprovalForAll",
      "outputs": [],
      "stateMutability": "nonpayable",
      "type": "function"
    },
    {
      "inputs": [
        {
          "internalType": "string",
          "name": "_baseURI",
          "type": "string"
        }
      ],
      "name": "setBaseURI",
      "outputs": [],
      "stateMutability": "nonpayable",
      "type": "function"
    },
    {
      "inputs": [
        {
          "internalType": "address",
          "name": "_creator",
          "type": "address"
        }
      ],
      "name": "setCreator",
      "outputs": [],
      "stateMutability": "nonpayable",
      "type": "function"
    },
    {
      "inputs": [
        {
          "internalType": "bytes4",
          "name": "interfaceId",
          "type": "bytes4"
        }
      ],
      "name": "supportsInterface",
      "outputs": [
        {
          "internalType": "bool",
          "name": "",
          "type": "bool"
        }
      ],
      "stateMutability": "view",
      "type": "function"
    },
    {
      "inputs": [],
      "name": "symbol",
      "outputs": [
        {
          "internalType": "string",
          "name": "",
          "type": "string"
        }
      ],
      "stateMutability": "view",
      "type": "function"
    },
    {
      "inputs": [
        {
          "internalType": "uint256",
          "name": "index",
          "type": "uint256"
        }
      ],
      "name": "tokenByIndex",
      "outputs": [
        {
          "internalType": "uint256",
          "name": "",
          "type": "uint256"
        }
      ],
      "stateMutability": "view",
      "type": "function"
    },
    {
      "inputs": [
        {
          "internalType": "uint256",
          "name": "",
          "type": "uint256"
        }
      ],
      "name": "tokenIndex",
      "outputs": [
        {
          "internalType": "uint256",
          "name": "",
          "type": "uint256"
        }
      ],
      "stateMutability": "view",
      "type": "function"
    },
    {
      "inputs": [
        {
          "internalType": "address",
          "name": "owner",
          "type": "address"
        },
        {
          "internalType": "uint256",
          "name": "index",
          "type": "uint256"
        }
      ],
      "name": "tokenOfOwnerByIndex",
      "outputs": [
        {
          "internalType": "uint256",
          "name": "",
          "type": "uint256"
        }
      ],
      "stateMutability": "view",
      "type": "function"
    },
    {
      "inputs": [
        {
          "internalType": "uint256",
          "name": "tokenId",
          "type": "uint256"
        }
      ],
      "name": "tokenURI",
      "outputs": [
        {
          "internalType": "string",
          "name": "",
          "type": "string"
        }
      ],
      "stateMutability": "view",
      "type": "function"
    },
    {
      "inputs": [],
      "name": "totalSupply",
      "outputs": [
        {
          "internalType": "uint256",
          "name": "",
          "type": "uint256"
        }
      ],
      "stateMutability": "view",
      "type": "function"
    },
    {
      "inputs": [
        {
          "internalType": "address",
          "name": "from",
          "type": "address"
        },
        {
          "internalType": "address",
          "name": "to",
          "type": "address"
        },
        {
          "internalType": "uint256",
          "name": "tokenId",
          "type": "uint256"
        }
      ],
      "name": "transferFrom",
      "outputs": [],
      "stateMutability": "nonpayable",
      "type": "function"
    },
    {
      "inputs": [
        {
          "internalType": "address",
          "name": "newOwner",
          "type": "address"
        }
      ],
      "name": "transferOwnership",
      "outputs": [],
      "stateMutability": "nonpayable",
      "type": "function"
    }
  ],
  "bytecode": "0x60806040523461002e5761001d610014610171565b93929092610196565b60405161277a610550823961277a90f35b600080fd5b634e487b7160e01b600052604160045260246000fd5b90601f01601f191681019081106001600160401b0382111761006a57604052565b610033565b9061008361007c60405190565b9283610049565b565b6001600160401b03811161006a57602090601f01601f19160190565b60005b8381106100b45750506000910152565b81810151838201526020016100a4565b909291926100d96100d482610085565b61006f565b938185528183011161002e576100839160208501906100a1565b9080601f8301121561002e57815161010d926020016100c4565b90565b919060a08382031261002e5782516001600160401b03811161002e57816101389185016100f3565b60208401519093906001600160401b03811161002e578261015a9183016100f3565b604082015160608301516080909301519194909350565b61018f612cca803803806101848161006f565b928339810190610110565b9091929394565b610083948594929391923392610237565b90600019905b9181191691161790565b61010d61010d61010d9290565b906101d461010d6101db926101b7565b82546101a7565b9055565b906001600160a01b03906101ad565b61010d90610202906001600160a01b031682565b6001600160a01b031690565b61010d906101ee565b61010d9061020e565b9061023061010d6101db92610217565b82546101df565b61024d6102629661025493949661025b9661026d565b600b6101c4565b600c6101c4565b600d6101c4565b61008333600e610220565b9061008392916102ab565b61020261010d61010d9290565b61010d90610278565b61029790610202565b9052565b602081019291610083919061028e565b916102b5916102ff565b60006102c081610285565b6102c981610202565b6102d284610202565b146102e2575050610083906104f8565b631e4fbdf760e01b825281906102fb906004830161029b565b0390fd5b610083918291829182916104cf565b634e487b7160e01b600052602260045260246000fd5b9060016002830492168015610344575b602083101461033f57565b61030e565b91607f1691610334565b9160001960089290920291821b911b6101ad565b919061037361010d6101db936101b7565b90835461034e565b61008391600091610362565b818110610392575050565b806103a0600060019361037b565b01610387565b9190601f81116103b557505050565b6103c761008393600052602060002090565b906020601f8401819004830193106103e9575b6020601f909101040190610387565b90915081906103da565b906103fc815190565b906001600160401b03821161006a5761041f826104198554610324565b856103a6565b602090601f831160011461045a576101db92916000918361044f575b5050600019600883021c1916906002021790565b01519050388061043b565b601f1983169161046f85600052602060002090565b9260005b8181106104ad57509160029391856001969410610494575b50505002019055565b01516000196008601f8516021c1916905538808061048b565b91936020600181928787015181550195019201610473565b90610083916103f3565b906104de6100839260006104c5565b60016104c5565b61010d90610202565b61010d90546104e5565b61051e610518610508600a6104ee565b61051384600a610220565b610217565b91610217565b907f8be0079c531659141344cd1fd0a4f28419497f9722a3daafe3b4186f6b6457e061054960405190565b600090a356fe6080604052600436101561001257600080fd5b60003560e01c8063018a25e81461029257806301ffc9a71461028d57806302d05d3f146102885780630583e9f81461028357806306fdde031461027e578063081812fc14610279578063095ea7b31461027457806312ea5c7e1461026f578063150b7a021461026a57806318160ddd146102655780631d0806ae1461026057806321a1c1841461025b57806323b872dd146102565780632dcd52f2146102515780632f745c591461024c5780633f5160181461024757806342842e0e1461024257806343d32e9c1461023d5780634a8fe650146102385780634f6ccce71461023357806353613dd31461022e57806355f804b3146102295780635eba096b146102245780636352211e1461021f5780636c0360eb1461021a57806370a0823114610215578063715018a614610210578063771282f61461020b5780638da5cb5b1461020657806395d89b4114610201578063a22cb465146101fc578063ad64d068146101f7578063ae104265146101f2578063b88d4fde146101ed578063c87b56dd146101e8578063cf6a68bf146101e3578063d5abeb01146101de578063e8a3d485146101d9578063e985e9c5146101d45763f2fde38b036102a257610cce565b610cb2565b610c74565b610c59565b610c32565b610c17565b610bfb565b610be0565b610bc5565b610b50565b610afd565b610ae2565b610ac7565b610aa3565b610a88565b610a6d565b61092b565b61090f565b6108db565b61089a565b610873565b610858565b61083d565b610824565b61080c565b6107dc565b6107c0565b6107a7565b610763565b610748565b610720565b6106e6565b6105ab565b610526565b6104d2565b6104ab565b610424565b610386565b610313565b6102ad565b60009103126102a257565b600080fd5b9052565b565b346102a2576102bd366004610297565b6102d86102c8610cf7565b6040519182918290815260200190565b0390f35b6001600160e01b031981165b036102a257565b905035906102ab826102dc565b906020828203126102a257610310916102ef565b90565b346102a2576102d861032e6103293660046102fc565b610d04565b6040515b91829182901515815260200190565b610310916008021c5b6001600160a01b031690565b906103109154610341565b6103106000600e610356565b6102a79061034a565b6020810192916102ab919061036d565b346102a257610396366004610297565b6102d86103a1610361565b60405191829182610376565b806102e8565b905035906102ab826103ad565b906020828203126102a257610310916103b3565b6103106103106103109290565b906103eb906103d4565b600052602052604060002090565b610310916008021c81565b9061031091546103f9565b600061041f6103109260116103e1565b610404565b346102a2576102d86102c861043a3660046103c0565b61040f565b60005b8381106104525750506000910152565b8181015183820152602001610442565b61048361048c60209361049693610477815190565b80835293849260200190565b9586910161043f565b601f01601f191690565b0190565b602080825261031092910190610462565b346102a2576104bb366004610297565b6102d86104c6610d16565b6040519182918261049a565b346102a2576102d86103a16104e83660046103c0565b610d20565b6102e88161034a565b905035906102ab826104ed565b91906040838203126102a25761031090602061051f82866104f6565b94016103b3565b346102a25761053f610539366004610503565b90610d33565b604051005b9061056461055d610553845190565b8084529260200190565b9260200190565b9060005b8181106105755750505090565b90919261059261058b6001928651815260200190565b9460200190565b929101610568565b602080825261031092910190610544565b346102a2576105bb366004610297565b6102d86105c6610dc3565b6040519182918261059a565b634e487b7160e01b600052604160045260246000fd5b90601f01601f1916810190811067ffffffffffffffff82111761060a57604052565b6105d2565b906102ab61061c60405190565b92836105e8565b67ffffffffffffffff811161060a57602090601f01601f19160190565b90826000939282370152565b9092919261066161065c82610623565b61060f565b93818552818301116102a2576102ab916020850190610640565b9080601f830112156102a2578160206103109335910161064c565b906080828203126102a2576106ab81836104f6565b926106b982602085016104f6565b926106c783604083016103b3565b92606082013567ffffffffffffffff81116102a257610310920161067b565b346102a2576102d86107056106fc366004610696565b92919091610e10565b604051918291826001600160e01b0319909116815260200190565b346102a257610730366004610297565b6102d86102c860085490565b6103106000600b610404565b346102a257610758366004610297565b6102d86102c861073c565b346102a257610773366004610297565b6102d86102c8610e95565b90916060828403126102a25761031061079784846104f6565b93604061051f82602087016104f6565b346102a25761053f6107ba36600461077e565b91610f17565b346102a2576107d0366004610297565b6102d86102c860105490565b346102a2576102d86102c86107f2366004610503565b90610fd1565b906020828203126102a257610310916104f6565b346102a25761053f61081f3660046107f8565b6110f1565b346102a25761053f61083736600461077e565b9161111e565b346102a25761084d366004610297565b6102d86102c8611132565b346102a257610868366004610297565b6102d86102c8611183565b346102a2576102d86102c86108893660046103c0565b6111a4565b6103106000600d610404565b346102a2576108aa366004610297565b6102d86102c861088e565b906020828203126102a257813567ffffffffffffffff81116102a257610310920161067b565b346102a25761053f6108ee3660046108b5565b611390565b91906040838203126102a25761031090602061051f82866103b3565b346102a2576102d86105c66109253660046108f3565b9061144c565b346102a2576102d86103a16109413660046103c0565b6114db565b634e487b7160e01b600052600060045260246000fd5b634e487b7160e01b600052602260045260246000fd5b9060016002830492168015610992575b602083101461098d57565b61095c565b91607f1691610982565b805460009392916109b96109af83610972565b8085529360200190565b9160018116908115610a0b57506001146109d257505050565b6109e59192939450600052602060002090565b916000925b8184106109f75750500190565b8054848401526020909301926001016109ea565b92949550505060ff1916825215156020020190565b906103109161099c565b906102ab610a4492610a3b60405190565b93848092610a20565b03836105e8565b90600010610a5c5761031090610a2a565b610946565b61031060006012610a4b565b346102a257610a7d366004610297565b6102d86104c6610a61565b346102a2576102d86102c8610a9e3660046107f8565b6114e4565b346102a257610ab3366004610297565b61053f61154c565b6103106000600f610404565b346102a257610ad7366004610297565b6102d86102c8610abb565b346102a257610af2366004610297565b6102d86103a1611554565b346102a257610b0d366004610297565b6102d86104c661155e565b8015156102e8565b905035906102ab82610b18565b91906040838203126102a257610310906020610b4982866104f6565b9401610b20565b346102a25761053f610b63366004610b2d565b90611568565b634e487b7160e01b600052603260045260246000fd5b8054821015610ba257610b99600191600052602060002090565b91020190600090565b610b69565b6010548110156102a257610bbf610310916010610b7f565b90610404565b346102a2576102d86102c8610bdb3660046103c0565b610ba7565b346102a2576102d86102c8610bf63660046103c0565b611573565b346102a25761053f610c0e366004610696565b92919091611604565b346102a2576102d86104c6610c2d3660046103c0565b61171c565b346102a2576102d86102c8610c483660046103c0565b61175f565b6103106000600c610404565b346102a257610c69366004610297565b6102d86102c8610c4d565b346102a257610c84366004610297565b6102d86104c66117b9565b91906040838203126102a257610310906020610cab82866104f6565b94016104f6565b346102a2576102d861032e610cc8366004610c8f565b906117fd565b346102a25761053f610ce13660046107f8565b611874565b6103109081565b6103109054610ce6565b610310610bf6600f610ced565b6103109061187d565b61031090610a2a565b6103106000610d0d565b61031090610d2d816118a6565b506118e6565b6102ab913391611902565b90610d59610d4d610553845490565b92600052602060002090565b9060005b818110610d6a5750505090565b909192610d8e610d87600192610d7f87610ced565b815260200190565b9460010190565b929101610d5d565b9061031091610d3e565b906102ab610a4492610db160405190565b93848092610d96565b61031090610da0565b6103106010610dba565b6103109061034a906001600160a01b031682565b61031090610dcd565b610e03610dfd6103109263ffffffff1690565b60e01b90565b6001600160e01b03191690565b50505050610e1c600090565b5061031063150b7a02610dea565b634e487b7160e01b600052601160045260246000fd5b81810292918115918404141715610e5357565b610e2a565b634e487b7160e01b600052601260045260246000fd5b90610e78565b9190565b908115610e83570490565b610e58565b91908203918211610e5357565b610310610ea0611132565b610ecd610eb6610eb0600d610ced565b83610e40565b610ec7670de0b6b3a76400006103d4565b90610e6e565b90610e88565b61034a6103106103109290565b61031090610ed3565b604090610f106102ab9496959396610f096060840198600085019061036d565b6020830152565b019061036d565b9091600092610f2584610ee0565b610f2e8161034a565b610f378361034a565b14610f865750610f499082339161190f565b91610f538161034a565b610f5c8461034a565b03610f675750505050565b6364283d7b60e01b84528392610f8292909160048501610ee9565b0390fd5b84610f828192633250574960e11b835260048301610376565b9160206102ab929493610fba6040820196600083019061036d565b0152565b61031090610de1565b906103eb90610fbe565b610fdd610310826114e4565b8210156110005761031091610ff6610ffb926006610fc7565b6103e1565b610ced565b63295f44f760e21b600090815291611019916004610f9f565b036000fd5b6103109061034a565b610310905461101e565b1561103857565b60405162461bcd60e51b815260206004820152602360248201527f4f6e6c792063726561746f722063616e2063616c6c20746869732066756e637460448201526234b7b760e91b6064820152608490fd5b6102ab906110b16110a261109d600e611027565b61034a565b6110ab3361034a565b14611031565b6110e6565b906001600160a01b03905b9181191691161790565b906110db6103106110e292610fbe565b82546110b6565b9055565b6102ab90600e6110cb565b6102ab90611089565b9061110761065c83610623565b918252565b61031060006110fa565b61031061110c565b90916102ab9261112c611116565b92611604565b61113c600f610ced565b611149610e7460006103d4565b111561116957610310610bf661115f600f610ced565b610ecd60016103d4565b610310610bf660006103d4565b91908201809211610e5357565b61031061118e610cf7565b61119e610eb6610eb0600d610ced565b90611176565b6111b061031060085490565b8110156111c557610bbf610310916008610b7f565b610f829060009182916111d783610ee0565b63295f44f760e21b845260048401610f9f565b6102ab906111fe6110a261109d600e611027565b611385565b9160001960089290920291821b911b6110c1565b91906112286103106110e2936103d4565b908354611203565b6102ab91600091611217565b818110611247575050565b806112556000600193611230565b0161123c565b9190601f811161126a57505050565b61127c6102ab93600052602060002090565b906020601f84018190048301931061129e575b6020601f90910104019061123c565b909150819061128f565b906112b1815190565b9067ffffffffffffffff821161060a576112d5826112cf8554610972565b8561125b565b602090601f8311600114611310576110e2929160009183611305575b5050600019600883021c1916906002021790565b0151905038806112f1565b601f1983169161132585600052602060002090565b9260005b8181106113635750916002939185600196941061134a575b50505002019055565b01516000196008601f8516021c19169055388080611341565b91936020600181928787015181550195019201611329565b906102ab916112a8565b6102ab90601261137b565b6102ab906111ea565b156113a057565b60405162461bcd60e51b815260206004820152601960248201527f537461727420696e646578206f7574206f6620626f756e6473000000000000006044820152606490fd5b67ffffffffffffffff811161060a5760208091020190565b9061110761065c836113e5565b369037565b906102ab61142561141f846113fd565b936113e5565b601f19016020840161140a565b9061143b825190565b811015610ba2576020809102010190565b9161147961147160109361146b611464610310875490565b8710611399565b85611176565b83549061191a565b9161148c6114878585610e88565b61140f565b91845b845b8110156114d2576114cb816114c56114af610bbf6114919588610b7f565b6114c26114bc8b85610e88565b89611432565b52565b60010190565b905061148f565b50935050905090565b610310906118a6565b60006114ef81610ee0565b6114f88161034a565b6115018461034a565b14611516575050610ffb610310916003610fc7565b6322718ad960e21b82528190610f829060048301610376565b61153761192c565b6102ab6102ab6115476000610ee0565b611969565b6102ab61152f565b610310600a611027565b6103106001610d0d565b6102ab9190336119e2565b61157d60006103d4565b81146115f9576103109061119e611594600b610ced565b916115bb6115e46115da6115da6115e96115c16115b1600b610ced565b6115bb60026103d4565b90610e40565b6115bb6115e46115da896115d560646103d4565b610e40565b610ec7600c610ced565b611aa6565b946115d5816115d56127106103d4565b50610310600b610ced565b906102ab939291611616838383610f17565b611c1f565b6103109054610972565b8054600093929161163c61163883610972565b9390565b916001811690811561168d575060011461165557505050565b6116689192939450600052602060002090565b6000905b8382106116795750500190565b60018160209254848601520191019061166c565b60ff191683525050811515909102019150565b6104966116b8926020926116b2815190565b94859290565b9384910161043f565b9160016116d36005946116e194611625565b602f60f81b815201906116a0565b64173539b7b760d91b81520190565b61171092916102ab9161170260405190565b9485926020840192836116c1565b908103825203836105e8565b611725816118a6565b50611730601261161b565b61173d610e7460006103d4565b11156117565761174f61031091611d5c565b60126116f0565b50610310611116565b610bbf6103109161176e600090565b506010610b7f565b61178290601092611625565b6f17b1b7b63632b1ba34b7b7173539b7b760811b81520190565b906102ab6117a960405190565b8093611710602083019182611776565b6117c3601261161b565b6117d0610e7460006103d4565b11156117e057610310601261179c565b610310611116565b610310905b60ff1690565b61031090546117e8565b6103109161181861181d92611810600090565b506005610fc7565b610fc7565b6117f3565b6102ab9061182e61192c565b600061183981610ee0565b6118428161034a565b61184b8461034a565b1461185b5750506102ab90611969565b631e4fbdf760e01b82528190610f829060048301610376565b6102ab90611822565b63780e9d6360e01b6001600160e01b031982161490811561189c575090565b6103109150611de9565b6118af81611e34565b906000906118bf61109d83610ee0565b6118c88461034a565b146118d257505090565b637e27328960e01b82526004820152602490fd5b6118fd610310916118f5600090565b5060046103e1565b611027565b916001916102ab93611e4b565b610310929190611f77565b9080821015611927575090565b905090565b611934611554565b33906119486119428361034a565b9161034a565b036119505750565b63118cdaa760e01b600090815290611019906004610376565b61198f611989611979600a611027565b61198484600a6110cb565b610fbe565b91610fbe565b907f8be0079c531659141344cd1fd0a4f28419497f9722a3daafe3b4186f6b6457e06119ba60405190565b80805b0390a3565b9060ff906110c1565b906119db6103106110e292151590565b82546119c2565b60006119f061109d82610ee0565b6119f98461034a565b14611a5257506119bd611a48611a428361198487611a3d886118187f17307eab39ab6107e8899845ad3d59bd9653f200f220920489ca2b5937696c31996005610fc7565b6119cb565b93610fbe565b9361033260405190565b630b61174360e31b815280610f828460048301610376565b6117ed6103106103109290565b61031090611a8b610e746103109460ff1690565b901c90565b61031090611aa1610e746103109490565b901b90565b611ab060006103d4565b8114611b96576001611ac182612010565b611aca82611a6a565b808080808096611adb828098611a77565b90611ae5906103d4565b90611aef91611a90565b611af9818a610e6e565b0190611b0491611a77565b611b0e8189610e6e565b0190611b1991611a77565b611b238188610e6e565b0190611b2e91611a77565b611b388187610e6e565b0190611b4391611a77565b611b4d8186610e6e565b0190611b5891611a77565b611b628185610e6e565b0190611b6d91611a77565b611b778184610e6e565b0190611b8291611a77565b9081611b8d91610e6e565b6103109161191a565b5061031060006103d4565b905051906102ab826102dc565b906020828203126102a25761031091611ba1565b9092611bf390611bec6103109694611be26080860197600087019061036d565b602085019061036d565b6040830152565b6060818403910152610462565b3d15611c1a57611c0f3d6110fa565b903d6000602084013e565b606090565b6000939192833b611c32610e74876103d4565b11611c3f575b5050505050565b602091611c4e61198486610fbe565b908633611c77611c5d60405190565b97889687958694630a85bd0160e11b865260048601611bc2565b03925af160009181611d15575b50611cd65750611c99565b3880808080611c38565b611ca1611c00565b8051611caf610e74856103d4565b03611cce5750633250574960e11b82528190610f829060048301610376565b805190602001fd5b611cf0630a85bd0160e11b5b916001600160e01b03191690565b03611cfc575050611c8f565b633250574960e11b82528190610f829060048301610376565b611d3891925060203d602011611d3f575b611d3081836105e8565b810190611bae565b9038611c84565b503d611d26565b906102ab611425611d56846110fa565b93610623565b611d65816121c2565b90611d7660019261049660016103d4565b9180611d8184611d46565b936020018401905b611d94575b50505090565b8115611de457611dc89060001901926f181899199a1a9b1b9c1cb0b131b232b360811b600a82061a8453610ec7600a6103d4565b9081611dd7610e7460006103d4565b14611de457909181611d89565b611d8e565b6380ac58cd60e01b6001600160e01b0319821614908115611e19575b8115611e0f575090565b6103109150612356565b6001600160e01b03198116635b5e139f60e01b149150611e05565b6118fd61031091611e43600090565b5060026103e1565b92919091808115611f59575b611e72575b505090611e6d6102ab9260046103e1565b6110cb565b611e7b836118a6565b91600090611e8b61109d83610ee0565b611e948261034a565b141580611f3f575b80611f28575b611f0f57505091611e6d916102ab9493611ebf575b509192611e5c565b611ec890610fbe565b611ed184610fbe565b611eda836103d4565b917f8c5be1e5ebec7d5bd14f71427d1e84f3dd0314c0f7b2291e5b200ac8c7c3b925611f0560405190565b600090a438611eb7565b63a9fbf51f60e01b82528190610f829060048301610376565b50611f3a611f3682866117fd565b1590565b611ea2565b50611f498161034a565b611f528561034a565b1415611e9c565b50611f6761109d6000610ee0565b611f708361034a565b1415611e57565b9091611f8490838361238b565b91611fb2611f926000610ee0565b611f9b8161034a565b611fa48661034a565b03611fef5761109d83612578565b611fbb8361034a565b03611fca576103109150612607565b611fd38261034a565b611fdc8461034a565b03611fe657505090565b6103109161259a565b611ff88461034a565b6120018661034a565b1461034a5761109d83866124bf565b600061210b610e74612105612024846103d4565b946120386120326080611a6a565b82611a77565b8681116121ab575b5061204e6120326040611a6a565b612057866103d4565b8111612194575b5061206c6120326020611a6a565b612075866103d4565b811161217d575b5061208a6120326010611a6a565b612093866103d4565b8111612166575b506120a86120326008611a6a565b6120b1866103d4565b811161214f575b506120c66120326004611a6a565b6120cf866103d4565b8111612138575b506120e46120326002611a6a565b6120ed866103d4565b8111612121575b506120ff6001611a6a565b90611a77565b926103d4565b116121135790565b6103109061049660016103d4565b61213191509561049660026103d4565b94386120f4565b61214891509561049660046103d4565b94386120d6565b61215f91509561049660086103d4565b94386120b8565b61217691509561049660106103d4565b943861209a565b61218d91509561049660206103d4565b943861207c565b6121a491509561049660406103d4565b943861205e565b6121bb91509561049660806103d4565b9438612040565b6121cc60006103d4565b907a184f03e93ff9f4daa797ed6e38ed64bf6a1f0100000000000000006121f2816103d4565b821015612334575b506d04ee2d6d415b85acef8100000000612213816103d4565b821015612312575b50662386f26fc1000061222d816103d4565b8210156122f0575b506305f5e100612244816103d4565b8210156122ce575b50612710612259816103d4565b8210156122ac575b5061226c60646103d4565b81101561228a575b612281610e74600a6103d4565b10156121135790565b61229b6122a691610ec760646103d4565b9161049660026103d4565b90612274565b6122c791610ec76122bc926103d4565b9161049660046103d4565b9038612261565b6122e991610ec76122de926103d4565b9161049660086103d4565b903861224c565b61230b91610ec7612300926103d4565b9161049660106103d4565b9038612235565b61232d91610ec7612322926103d4565b9161049660206103d4565b903861221b565b61234f91610ec7612344926103d4565b9161049660406103d4565b90386121fa565b6123666301ffc9a760e01b611ce2565b1490565b90600019906110c1565b906123846103106110e2926103d4565b825461236a565b906123de61239882611e34565b9360006123a481610ee0565b91846123af8461034a565b6123b88361034a565b036124ae575b50506123c98261034a565b6123d28761034a565b03612473575b5061034a565b6123e78361034a565b03612443575b6123fc82611e6d8360026103e1565b61241161240b611a4285610fbe565b916103d4565b917fddf252ad1be2c89b69c2b068fc378daa952ba7f163c4a11628f55a4df523b3ef61243c60405190565b600090a490565b61246e61245060016103d4565b61246861245e856003610fc7565b9161049683610ced565b90612374565b6123ed565b61247f90828581611e4b565b6124a861248c60016103d4565b61246861249a886003610fc7565b916124a483610ced565b0390565b386123d8565b6124b8918861265a565b38846123be565b6124fe6102ab92610ff6600093612503856124fe6124dc846114e4565b956007856124ed610ffb84846103e1565b8980820361250a575b5050506103e1565b611230565b6006610fc7565b610ff661253c846125378561252d610ffb61253797610ff66125429b6006610fc7565b9485936006610fc7565b612374565b846103e1565b8538896124f6565b908154916801000000000000000083101561060a57826125729160016102ab95018155610b7f565b90611217565b6102ab9061259361258860085490565b6125378360096103e1565b600861254a565b612537826125c26102ab94612537610ff6956125b861115f826114e4565b9687916006610fc7565b60076103e1565b634e487b7160e01b600052603160045260246000fd5b805480156126025760001901906125ff6125f98383610b7f565b90611230565b55565b6125c9565b6126556102ab9161031060006124fe60089361262461115f865490565b610ff6600991612537612647610bbf612640610ffb88886103e1565b938b610b7f565b61253c81612572858d610b7f565b6125df565b90612669611f368483856126ba565b61267257505050565b600092839261268661194261109d86610ee0565b036126a357637e27328960e01b8352600483015250602481010390fd5b63177e802f60e01b8352610f829160048401610f9f565b906126c861109d6000610ee0565b6126d18261034a565b141592836126df5750505090565b909192506126ec8261034a565b6126f58461034a565b14928315612730575b508215612710575b5050388080611d8e565b612728919250612722611942916118e6565b9261034a565b143880612706565b61273d91935082906117fd565b91386126fe56fea2646970667358221220c00d5f49c201872993236ce4462bd262654794948ee3c53e87aec8b551073ba864736f6c634300081c0033",
  "linkReferences": {},
  "deployedLinkReferences": {}
}