{
  "_format": "hh-sol-artifact-1",
  "contractName": "Factory",
  "sourceName": "src/core/Factory.sol",
  "abi": [
    {
      "inputs": [
        {
          "internalType": "address",
          "name": "_registry",
          "type": "address"
        }
      ],
      "stateMutability": "nonpayable",
      "type": "constructor"
    },
    {
      "anonymous": false,
      "inputs": [
        {
          "indexed": true,
          "internalType": "address",
          "name": "creator",
          "type": "address"
        },
        {
          "indexed": true,
          "internalType": "address",
          "name": "flipAddress",
          "type": "address"
        }
      ],
      "name": "FLIPCreated",
      "type": "event"
    },
    {
      "inputs": [
        {
          "internalType": "string",
          "name": "_name",
          "type": "string"
        },
        {
          "internalType": "string",
          "name": "_symbol",
          "type": "string"
        },
        {
          "internalType": "uint256",
          "name": "_initialPrice",
          "type": "uint256"
        },
        {
          "internalType": "uint256",
          "name": "_maxSupply",
          "type": "uint256"
        },
        {
          "internalType": "uint256",
          "name": "_creatorFeePercent",
          "type": "uint256"
        }
      ],
      "name": "calculateFLIPAddress",
      "outputs": [
        {
          "internalType": "address",
          "name": "",
          "type": "address"
        }
      ],
      "stateMutability": "view",
      "type": "function"
    },
    {
      "inputs": [
        {
          "internalType": "string",
          "name": "_name",
          "type": "string"
        },
        {
          "internalType": "string",
          "name": "_symbol",
          "type": "string"
        },
        {
          "internalType": "uint256",
          "name": "_initialPrice",
          "type": "uint256"
        },
        {
          "internalType": "uint256",
          "name": "_maxSupply",
          "type": "uint256"
        },
        {
          "internalType": "uint256",
          "name": "_creatorFeePercent",
          "type": "uint256"
        },
        {
          "internalType": "string",
          "name": "_imageUrl",
          "type": "string"
        },
        {
          "internalType": "string",
          "name": "_description",
          "type": "string"
        }
      ],
      "name": "createFLIP",
      "outputs": [
        {
          "internalType": "address",
          "name": "",
          "type": "address"
        }
      ],
      "stateMutability": "nonpayable",
      "type": "function"
    },
    {
      "inputs": [],
      "name": "registry",
      "outputs": [
        {
          "internalType": "contract Registry",
          "name": "",
          "type": "address"
        }
      ],
      "stateMutability": "view",
      "type": "function"
    }
  ],
  "bytecode": "0x60806040523461002a576100196100146100c2565b610136565b604051613ecb61014a8239613ecb90f35b600080fd5b634e487b7160e01b600052604160045260246000fd5b90601f01601f191681019081106001600160401b0382111761006657604052565b61002f565b9061007f61007860405190565b9283610045565b565b6001600160a01b031690565b90565b6001600160a01b0381160361002a57565b9050519061007f82610090565b9060208282031261002a5761008d916100a1565b61008d614015803803806100d58161006b565b9283398101906100ae565b61008d90610081906001600160a01b031682565b61008d906100e0565b61008d906100f4565b9061011661008d610132926100fd565b82546001600160a01b0319166001600160a01b03919091161790565b9055565b61014261007f916100fd565b600061010656fe6080604052600436101561001257600080fd5b60003560e01c8063630ef1b1146100425780636c20c1f31461003d57637b103999036100f657610337565b6102a1565b6101b1565b634e487b7160e01b600052604160045260246000fd5b90601f01601f1916810190811067ffffffffffffffff82111761007f57604052565b610047565b9061009861009160405190565b928361005d565b565b67ffffffffffffffff811161007f57602090601f01601f19160190565b0190565b90826000939282370152565b909291926100dc6100d78261009a565b610084565b93818552818301116100f6576100989160208501906100bb565b600080fd5b9080601f830112156100f657816020610116933591016100c7565b90565b805b036100f657565b9050359061009882610119565b919060a0838203126100f657823567ffffffffffffffff81116100f657816101589185016100fb565b92602081013567ffffffffffffffff81116100f657826101799183016100fb565b9261011661018a8460408501610122565b93608061019a8260608701610122565b9401610122565b6001600160a01b031690565b9052565b346100f6576101ea6101d06101c736600461012f565b939290926104d8565b604051918291826001600160a01b03909116815260200190565b0390f35b9060e0828203126100f657813567ffffffffffffffff81116100f657816102169184016100fb565b92602083013567ffffffffffffffff81116100f657826102379185016100fb565b926102458360408301610122565b926102538160608401610122565b926102618260808501610122565b9260a081013567ffffffffffffffff81116100f657836102829183016100fb565b9260c082013567ffffffffffffffff81116100f65761011692016100fb565b346100f6576101ea6101d06102b73660046101ee565b95949094939193610710565b60009103126100f657565b610116916008021c6001600160a01b031690565b9061011691546102ce565b6101166000806102e2565b610116906101a1906001600160a01b031682565b610116906102f8565b6101169061030c565b6101ad90610315565b602081019291610098919061031e565b346100f6576103473660046102c3565b6101ea6103526102ed565b60405191829182610327565b60005b8381106103715750506000910152565b8181015183820152602001610361565b6100b761039992602092610393815190565b94859290565b9384910161035e565b6101ad906001600160a01b031660601b90565b6100b7946103e4602080966103e46103df60149c9b986103d985986103ea9a610381565b90610381565b918252565b01918252565b0180926103a2565b61041361041c6020936100b793610407815190565b80835293849260200190565b9586910161035e565b601f01601f191690565b919461047160a09498979561046a610462610098996104546104789760c08a01908a820360008c01526103f2565b9088820360208a01526103f2565b9a6040870152565b6060850152565b6080830152565b01906001600160a01b03169052565b6103d9906101169392610381565b6104a86104a26101169290565b60f81b90565b6001600160f81b03191690565b6101166101166101169290565b610116906104b5565b6101a16101166101169290565b9061052061058c6105f8956101169761057b6105f3976105e2966104fa600090565b5061056f61050760405190565b61052c818c61052060208301918a8c8a8a3394876103b5565b9081038252038261005d565b61053e610537825190565b9160200190565b209961342f9561055060208801610084565b96808852610a6760208901396040519788956020870195339487610426565b9081038252038361005d565b604051938492602084019283610487565b61059660ff610495565b6105206105a230610315565b926105ae610537825190565b20604051958694602086019485926103e460146100b7946103e46001886103ea60209b9a8c996001600160f81b0319169052565b6105ed610537825190565b206104c2565b6104cb565b61030c565b610116906104cb565b1561060d57565b60405162461bcd60e51b815260206004820152601960248201527f437265617465323a204661696c6564206f6e206465706c6f79000000000000006044820152606490fd5b6020808252610116929101906103f2565b6040513d6000823e3d90fd5b6001600160a01b03811661011b565b905051906100988261066f565b906020828203126100f6576101169161067e565b156106a657565b60405162461bcd60e51b815260206004820152601060248201526f086e4cac2e8dee440dad2e6dac2e8c6d60831b6044820152606490fd5b610116906101a1565b61011690546106de565b6001600160a01b03909116815260408101929161009891602090610478565b93926107a69061078961079a94610725600090565b9461052061052061074d8b8b61073a60405190565b93849260208401928b8a8a3394876103b5565b610758610537825190565b209961342f9961076a60208c01610084565b9a808c52610a6760208d01396040519687956020870195339487610426565b604051938491602083019687610487565b8581038252038361005d565b5051906000f5916000916107d06107bf6101a1856105fd565b6001600160a01b0386161415610606565b6107d984610315565b906107e2815190565b6107f26107ee866104b5565b9190565b11610a05575b5081516108076107ee856104b5565b11610992575b6108179150610315565b803b156100f6576040516307ea2c0360e31b8152336004820152828160248183865af1801561094257610976575b50602061085160405190565b6302d05d3f60e01b815291829060049082905afa80156109425761088891600091610947575b506001600160a01b0316331461069f565b61089133610315565b61089a83610315565b907f3f8c7c6b55aa10c3609441aa7c581178c1692e17d2ff5c1a3a809fd700ba43876108c560405190565b600090a36108da6108d5826106e7565b610315565b803b156100f657816108eb60405190565b918290632a99dcd560e21b82528183816109098933600484016106f1565b03925af180156109425761091c57505090565b8161011692903d1061093b575b610933818361005d565b8101906102c3565b503d610929565b610663565b610969915060203d60201161096f575b610961818361005d565b81019061068b565b38610877565b503d610957565b61098c90833d851161093b57610933818361005d565b38610845565b61099b81610315565b803b156100f6576109cf84939184926109b360405190565b95869384928391906390c3f38f60e01b5b835260048301610652565b03925af191821561094257610817926109e9575b5061080d565b6109ff90843d861161093b57610933818361005d565b386109e3565b610a0e82610315565b803b156100f657610a3b8592918392610a2660405190565b94859384928391906355f804b360e01b6109c4565b03925af1801561094257156107f857610a6090843d861161093b57610933818361005d565b386107f856fe60806040523461002e5761001d610014610171565b93929092610196565b604051612edf6105508239612edf90f35b600080fd5b634e487b7160e01b600052604160045260246000fd5b90601f01601f191681019081106001600160401b0382111761006a57604052565b610033565b9061008361007c60405190565b9283610049565b565b6001600160401b03811161006a57602090601f01601f19160190565b60005b8381106100b45750506000910152565b81810151838201526020016100a4565b909291926100d96100d482610085565b61006f565b938185528183011161002e576100839160208501906100a1565b9080601f8301121561002e57815161010d926020016100c4565b90565b919060a08382031261002e5782516001600160401b03811161002e57816101389185016100f3565b60208401519093906001600160401b03811161002e578261015a9183016100f3565b604082015160608301516080909301519194909350565b61018f61342f803803806101848161006f565b928339810190610110565b9091929394565b610083948594859433929190610237565b90600019905b9181191691161790565b61010d61010d61010d9290565b906101d461010d6101db926101b7565b82546101a7565b9055565b906001600160a01b03906101ad565b61010d90610202906001600160a01b031682565b6001600160a01b031690565b61010d906101ee565b61010d9061020e565b9061023061010d6101db92610217565b82546101df565b61024d6102629661025493949661025b9661026d565b600b6101c4565b600c6101c4565b600d6101c4565b61008333600e610220565b9061008392916102ab565b61020261010d61010d9290565b61010d90610278565b61029790610202565b9052565b602081019291610083919061028e565b916102b5916102ff565b60006102c081610285565b6102c981610202565b6102d284610202565b146102e2575050610083906104f8565b631e4fbdf760e01b825281906102fb906004830161029b565b0390fd5b610083918291829182916104cf565b634e487b7160e01b600052602260045260246000fd5b9060016002830492168015610344575b602083101461033f57565b61030e565b91607f1691610334565b9160001960089290920291821b911b6101ad565b919061037361010d6101db936101b7565b90835461034e565b61008391600091610362565b818110610392575050565b806103a0600060019361037b565b01610387565b9190601f81116103b557505050565b6103c761008393600052602060002090565b906020601f8401819004830193106103e9575b6020601f909101040190610387565b90915081906103da565b906103fc815190565b906001600160401b03821161006a5761041f826104198554610324565b856103a6565b602090601f831160011461045a576101db92916000918361044f575b5050600019600883021c1916906002021790565b01519050388061043b565b601f1983169161046f85600052602060002090565b9260005b8181106104ad57509160029391856001969410610494575b50505002019055565b01516000196008601f8516021c1916905538808061048b565b91936020600181928787015181550195019201610473565b90610083916103f3565b906104de6100839260006104c5565b60016104c5565b61010d90610202565b61010d90546104e5565b61051e610518610508600a6104ee565b61051384600a610220565b610217565b91610217565b907f8be0079c531659141344cd1fd0a4f28419497f9722a3daafe3b4186f6b6457e061054960405190565b600090a356fe6080604052600436101561001257600080fd5b60003560e01c8063018a25e8146102e257806301ffc9a7146102dd57806302d05d3f146102d85780630583e9f8146102d357806306fdde03146102ce578063081812fc146102c9578063095ea7b3146102c45780631249c58b146102bf57806312ea5c7e146102ba578063150b7a02146102b557806318160ddd146102b05780631d0806ae146102ab57806321a1c184146102a657806323b872dd146102a15780632dcd52f21461029c5780632f745c59146102975780633f5160181461029257806342842e0e1461028d57806343d32e9c146102885780634a8fe650146102835780634f6ccce71461027e57806353613dd31461027957806355f804b3146102745780635eba096b1461026f5780636352211e1461026a5780636c0360eb1461026557806370a0823114610260578063715018a61461025b5780637284e41614610256578063771282f6146102515780638da5cb5b1461024c57806390c3f38f1461024757806395d89b4114610242578063a22cb4651461023d578063ad64d06814610238578063ae10426514610233578063b88d4fde1461022e578063c87b56dd14610229578063cf6a68bf14610224578063d5abeb011461021f578063d96a094a1461021a578063e4849b3214610215578063e985e9c514610210578063f0f2805f1461020b5763f2fde38b036102f257610d9e565b610d83565b610d67565b610d2c565b610d19565b610cfe565b610cd7565b610cbc565b610ca0565b610c85565b610c6a565b610bf5565b610ba2565b610b8a565b610b6f565b610b54565b610b2d565b610b09565b610aee565b610ad3565b610991565b610975565b610941565b610900565b6108d9565b6108be565b6108a3565b61088a565b610872565b610842565b610826565b61080d565b6107c9565b6107ae565b610786565b61074c565b610611565b610594565b610576565b610522565b6104fb565b610474565b6103d6565b610363565b6102fd565b60009103126102f257565b600080fd5b9052565b565b346102f25761030d3660046102e7565b610328610318610dc7565b6040519182918290815260200190565b0390f35b6001600160e01b031981165b036102f257565b905035906102fb8261032c565b906020828203126102f2576103609161033f565b90565b346102f25761032861037e61037936600461034c565b610dd4565b6040515b91829182901515815260200190565b610360916008021c5b6001600160a01b031690565b906103609154610391565b6103606000600e6103a6565b6102f79061039a565b6020810192916102fb91906103bd565b346102f2576103e63660046102e7565b6103286103f16103b1565b604051918291826103c6565b80610338565b905035906102fb826103fd565b906020828203126102f25761036091610403565b6103606103606103609290565b9061043b90610424565b600052602052604060002090565b610360916008021c81565b906103609154610449565b600061046f610360926011610431565b610454565b346102f25761032861031861048a366004610410565b61045f565b60005b8381106104a25750506000910152565b8181015183820152602001610492565b6104d36104dc6020936104e6936104c7815190565b80835293849260200190565b9586910161048f565b601f01601f191690565b0190565b6020808252610360929101906104b2565b346102f25761050b3660046102e7565b610328610516610e11565b604051918291826104ea565b346102f2576103286103f1610538366004610410565b610e1b565b6103388161039a565b905035906102fb8261053d565b91906040838203126102f25761036090602061056f8286610546565b9401610403565b346102f25761058f610589366004610553565b90610e2e565b604051005b61059f3660046102e7565b610328610318611026565b906105ca6105c36105b9845190565b8084529260200190565b9260200190565b9060005b8181106105db5750505090565b9091926105f86105f16001928651815260200190565b9460200190565b9291016105ce565b6020808252610360929101906105aa565b346102f2576106213660046102e7565b61032861062c6111e1565b60405191829182610600565b634e487b7160e01b600052604160045260246000fd5b90601f01601f1916810190811067ffffffffffffffff82111761067057604052565b610638565b906102fb61068260405190565b928361064e565b67ffffffffffffffff811161067057602090601f01601f19160190565b90826000939282370152565b909291926106c76106c282610689565b610675565b93818552818301116102f2576102fb9160208501906106a6565b9080601f830112156102f257816020610360933591016106b2565b906080828203126102f2576107118183610546565b9261071f8260208501610546565b9261072d8360408301610403565b92606082013567ffffffffffffffff81116102f25761036092016106e1565b346102f25761032861076b6107623660046106fc565b92919091611211565b604051918291826001600160e01b0319909116815260200190565b346102f2576107963660046102e7565b61032861031860085490565b6103606000600b610454565b346102f2576107be3660046102e7565b6103286103186107a2565b346102f2576107d93660046102e7565b610328610318611238565b90916060828403126102f2576103606107fd8484610546565b93604061056f8260208701610546565b346102f25761058f6108203660046107e4565b916112a3565b346102f2576108363660046102e7565b61032861031860105490565b346102f257610328610318610858366004610553565b9061134c565b906020828203126102f25761036091610546565b346102f25761058f61088536600461085e565b61144f565b346102f25761058f61089d3660046107e4565b9161146a565b346102f2576108b33660046102e7565b61032861031861147e565b346102f2576108ce3660046102e7565b6103286103186114c2565b346102f2576103286103186108ef366004610410565b6114dd565b6103606000600d610454565b346102f2576109103660046102e7565b6103286103186108f4565b906020828203126102f257813567ffffffffffffffff81116102f25761036092016106e1565b346102f25761058f61095436600461091b565b6116c9565b91906040838203126102f25761036090602061056f8286610403565b346102f25761032861062c61098b366004610959565b90611785565b346102f2576103286103f16109a7366004610410565b611814565b634e487b7160e01b600052600060045260246000fd5b634e487b7160e01b600052602260045260246000fd5b90600160028304921680156109f8575b60208310146109f357565b6109c2565b91607f16916109e8565b80546000939291610a1f610a15836109d8565b8085529360200190565b9160018116908115610a715750600114610a3857505050565b610a4b9192939450600052602060002090565b916000925b818410610a5d5750500190565b805484840152602090930192600101610a50565b92949550505060ff1916825215156020020190565b9061036091610a02565b906102fb610aaa92610aa160405190565b93848092610a86565b038361064e565b90600010610ac25761036090610a90565b6109ac565b61036060006012610ab1565b346102f257610ae33660046102e7565b610328610516610ac7565b346102f257610328610318610b0436600461085e565b61181d565b346102f257610b193660046102e7565b61058f611885565b61036060006013610ab1565b346102f257610b3d3660046102e7565b610328610516610b21565b6103606000600f610454565b346102f257610b643660046102e7565b610328610318610b48565b346102f257610b7f3660046102e7565b6103286103f161188d565b346102f25761058f610b9d36600461091b565b6118b6565b346102f257610bb23660046102e7565b6103286105166118bf565b801515610338565b905035906102fb82610bbd565b91906040838203126102f257610360906020610bee8286610546565b9401610bc5565b346102f25761058f610c08366004610bd2565b906118c9565b634e487b7160e01b600052603260045260246000fd5b8054821015610c4757610c3e600191600052602060002090565b91020190600090565b610c0e565b6010548110156102f257610c64610360916010610c24565b90610454565b346102f257610328610318610c80366004610410565b610c4c565b346102f257610328610318610c9b366004610410565b6118d4565b346102f25761058f610cb33660046106fc565b92919091611965565b346102f257610328610516610cd2366004610410565b6119dd565b346102f257610328610318610ced366004610410565b611a20565b6103606000600c610454565b346102f257610d0e3660046102e7565b610328610318610cf2565b61058f610d27366004610410565b611b48565b346102f25761058f610d3f366004610410565b611d54565b91906040838203126102f257610360906020610d608286610546565b9401610546565b346102f25761032861037e610d7d366004610d44565b90611d72565b346102f25761032861037e610d99366004610410565b611d97565b346102f25761058f610db136600461085e565b611e01565b6103609081565b6103609054610db6565b610360610c9b600f610dbd565b610ddd81611e0a565b908115610de8575090565b9050610e04632fa757f360e01b5b916001600160e01b03191690565b1490565b61036090610a90565b6103606000610e08565b61036090610e2881611e13565b50611e53565b6102fb913391611e6f565b15610e4057565b60405162461bcd60e51b815260206004820152601260248201527113585e081cdd5c1c1b1e481c995858da195960721b604482015280606481015b0390fd5b634e487b7160e01b600052601160045260246000fd5b81810292918115918404141715610ea857565b610e7f565b634e487b7160e01b600052601260045260246000fd5b90610ecd565b9190565b908115610ed8570490565b610ead565b91908201809211610ea857565b15610ef157565b60405162461bcd60e51b8152602060048201526014602482015273125b9cdd59999a58da595b9d081c185e5b595b9d60621b6044820152606490fd5b6000198114610ea85760010190565b90600019905b9181191691161790565b90610f5c610360610f6392610424565b8254610f3c565b9055565b6103609061039a906001600160a01b031682565b61036090610f67565b61036090610f7b565b9081526040810192916102fb9160200152565b0152565b6103609061039a565b6103609054610fa4565b90610fc46106c283610689565b918252565b3d15610fe357610fd83d610fb7565b903d6000602084013e565b606090565b15610fef57565b60405162461bcd60e51b815260206004820152600f60248201526e151c985b9cd9995c8819985a5b1959608a1b6044820152606490fd5b61104861103260085490565b611042610ec9610360600c610dbd565b10610e39565b611050610dc7565b61036061115761108361106c611066600d610dbd565b85610e95565b61107d670de0b6b3a7640000610424565b90610ec3565b61109b6110936103608387610edd565b341015610eea565b6110b76110a760085490565b6110b16001610424565b90610edd565b936110c28533611e7c565b6110de6110d76110d2600f610dbd565b610f2d565b600f610f4c565b6110e733610f84565b6110f086610424565b907f10546b1a6f5245ff0ffa18c256b9e46859c585cbb473b453fcd4c2dc39ae08db61111b60405190565b80611127878783610f8d565b0390a361115260008061113a600e610fad565b60405160009187905af161114c610fc9565b50610fe8565b610edd565b611eca565b9061117761116b6105b9845490565b92600052602060002090565b9060005b8181106111885750505090565b9091926111ac6111a560019261119d87610dbd565b815260200190565b9460010190565b92910161117b565b906103609161115c565b906102fb610aaa926111cf60405190565b938480926111b4565b610360906111be565b61036060106111d8565b6112046111fe6103609263ffffffff1690565b60e01b90565b6001600160e01b03191690565b5050505061121d600090565b5061036063150b7a026111eb565b91908203918211610ea857565b61036061124361147e565b61125961106c611253600d610dbd565b83610e95565b9061122b565b61039a6103606103609290565b6103609061125f565b60409061129c6102fb9496959396611295606084019860008501906103bd565b6020830152565b01906103bd565b90916000926112b18461126c565b6112ba8161039a565b6112c38361039a565b1461130e57506112d590823391611f14565b916112df8161039a565b6112e88461039a565b036112f35750505050565b6364283d7b60e01b84528392610e7b92909160048501611275565b84610e7b8192633250574960e11b8352600483016103c6565b9160206102fb929493610fa0604082019660008301906103bd565b9061043b90610f84565b6113586103608261181d565b82101561137b5761036091611371611376926006611342565b610431565b610dbd565b63295f44f760e21b600090815291611394916004611327565b036000fd5b156113a057565b60405162461bcd60e51b815260206004820152602360248201527f4f6e6c792063726561746f722063616e2063616c6c20746869732066756e637460448201526234b7b760e91b6064820152608490fd5b6102fb9061141961140a611405600e610fad565b61039a565b6114133361039a565b14611399565b611444565b906001600160a01b0390610f42565b9061143d610360610f6392610f84565b825461141e565b6102fb90600e61142d565b6102fb906113f1565b6103606000610fb7565b610360611458565b90916102fb92611478611462565b92611965565b611488600f610dbd565b611495610ec96000610424565b11156114b557610360610c9b6114ab600f610dbd565b6112596001610424565b610360610c9b6000610424565b6103606114cd610dc7565b6110b161106c611253600d610dbd565b6114e961036060085490565b8110156114fe57610c64610360916008610c24565b610e7b9060009182916115108361126c565b63295f44f760e21b845260048401611327565b6102fb9061153761140a611405600e610fad565b6116be565b9160001960089290920291821b911b610f42565b9190611561610360610f6393610424565b90835461153c565b6102fb91600091611550565b818110611580575050565b8061158e6000600193611569565b01611575565b9190601f81116115a357505050565b6115b56102fb93600052602060002090565b906020601f8401819004830193106115d7575b6020601f909101040190611575565b90915081906115c8565b906115ea815190565b9067ffffffffffffffff82116106705761160e8261160885546109d8565b85611594565b602090601f831160011461164957610f6392916000918361163e575b5050600019600883021c1916906002021790565b01519050388061162a565b601f1983169161165e85600052602060002090565b9260005b81811061169c57509160029391856001969410611683575b50505002019055565b01516000196008601f8516021c1916905538808061167a565b91936020600181928787015181550195019201611662565b906102fb916115e1565b6102fb9060126116b4565b6102fb90611523565b156116d957565b60405162461bcd60e51b815260206004820152601960248201527f537461727420696e646578206f7574206f6620626f756e6473000000000000006044820152606490fd5b67ffffffffffffffff81116106705760208091020190565b90610fc46106c28361171e565b369037565b906102fb61175e61175884611736565b9361171e565b601f190160208401611743565b90611774825190565b811015610c47576020809102010190565b916117b26117aa6010936117a461179d610360875490565b87106116d2565b85610edd565b835490611f1f565b916117c56117c0858561122b565b611748565b91845b845b81101561180b57611804816117fe6117e8610c646117ca9588610c24565b6117fb6117f58b8561122b565b8961176b565b52565b60010190565b90506117c8565b50935050905090565b61036090611e13565b60006118288161126c565b6118318161039a565b61183a8461039a565b1461184f575050611376610360916003611342565b6322718ad960e21b82528190610e7b90600483016103c6565b611870611f31565b6102fb6102fb611880600061126c565b611f68565b6102fb611868565b610360600a610fad565b6102fb906118ab61140a611405600e610fad565b6102fb9060136116b4565b6102fb90611897565b6103606001610e08565b6102fb919033611fe1565b6118de6000610424565b811461195a57610360906110b16118f5600b610dbd565b9161191c61194561193b61193b61194a611922611912600b610dbd565b61191c6002610424565b90610e95565b61191c61194561193b896119366064610424565b610e95565b61107d600c610dbd565b6120a5565b9461193681611936612710610424565b50610360600b610dbd565b906102fb9392916119778383836112a3565b6121ff565b6104e66119949260209261198e815190565b94859290565b9384910161048f565b6119ab90610360939261197c565b9061197c565b6119d192916102fb916119c360405190565b94859260208401928361199d565b9081038252038361064e565b6119e681611e13565b506119ef61231c565b80516119fe610ec96000610424565b1115611a1657611a106103609261233c565b906119b1565b5050610360611462565b610c6461036091611a2f600090565b506010610c24565b15611a3e57565b60405162461bcd60e51b815260206004820152601f60248201527f546f6b656e206973206e6f7420617661696c61626c6520666f722073616c65006044820152606490fd5b6102fb90611aae611a9382611814565b611aa8611aa261140530610f84565b9161039a565b14611a37565b6111576102fb91611abd610dc7565b611acd61106c611253600d610dbd565b91611ade6110936103608585610edd565b611af281611aeb30610f84565b33906123c9565b611afb8161248c565b611b0b6110d76110d2600f610dbd565b611b1d611b1733610f84565b91610424565b907f884543c08d36fb5c9b3b688dd0453c9f287199124bdbddb3b7f9ca885a4d34a061111b60405190565b6102fb90611a83565b15611b5857565b60405162461bcd60e51b815260206004820152601360248201527221b0b63632b91034b9903737ba1037bbb732b960691b6044820152606490fd5b6102fb90611bb5611ba382611814565b611baf611aa23361039a565b14611b51565b611c5f565b8015610ea8576000190190565b15611bce57565b60405162461bcd60e51b815260206004820152601960248201527f5472616e7366657220746f2073656c6c6572206661696c6564000000000000006044820152606490fd5b15611c1a57565b60405162461bcd60e51b815260206004820152601a60248201527f5472616e7366657220746f2063726561746f72206661696c65640000000000006044820152606490fd5b6000806102fb92611d2b8280611c7361147e565b93611d13611c8d61106c611c87600d610dbd565b88610e95565b8096611c963390565b93611caa81611ca430610f84565b876123c9565b611cb38161251b565b611cc86110d7611cc3600f610dbd565b611bba565b611cd4611b1786610f84565b907f8323bebb324b6e1a1d4886a1f210640461bb275263dae69967f001d053ab0b2b611cff60405190565b80611d0b878783610f8d565b0390a361122b565b60405190818003925af1611d25610fc9565b50611bc7565b611d35600e610fad565b90611d3f60405190565b90818003925af1611d4e610fc9565b50611c13565b6102fb90611b93565b610360905b60ff1690565b6103609054611d5d565b61036091611d8d611d9292611d85600090565b506005611342565b611342565b611d68565b611da090611814565b610e04611aa261140530610f84565b6102fb90611dbb611f31565b6000611dc68161126c565b611dcf8161039a565b611dd88461039a565b14611de85750506102fb90611f68565b631e4fbdf760e01b82528190610e7b90600483016103c6565b6102fb90611daf565b61036090612541565b611e1c8161256a565b90600090611e2c6114058361126c565b611e358461039a565b14611e3f57505090565b637e27328960e01b82526004820152602490fd5b611e6a61036091611e62600090565b506004610431565b610fad565b916001916102fb93612581565b6102fb91611e88611462565b916126ad565b15611e9557565b60405162461bcd60e51b815260206004820152600d60248201526c1499599d5b990819985a5b1959609a1b6044820152606490fd5b611ed4903461122b565b611ede6000610424565b8111611ee75750565b6000806102fb92611ef53390565b90611eff60405190565b90818003925af1611f0e610fc9565b50611e8e565b6103609291906126c7565b9080821015611f2c575090565b905090565b611f3961188d565b3390611f47611aa28361039a565b03611f4f5750565b63118cdaa760e01b6000908152906113949060046103c6565b611f8e611f88611f78600a610fad565b611f8384600a61142d565b610f84565b91610f84565b907f8be0079c531659141344cd1fd0a4f28419497f9722a3daafe3b4186f6b6457e0611fb960405190565b80805b0390a3565b9060ff90610f42565b90611fda610360610f6392151590565b8254611fc1565b6000611fef6114058261126c565b611ff88461039a565b146120515750611fbc61204761204183611f838761203c88611d8d7f17307eab39ab6107e8899845ad3d59bd9653f200f220920489ca2b5937696c31996005611342565b611fca565b93610f84565b9361038260405190565b630b61174360e31b815280610e7b84600483016103c6565b611d626103606103609290565b6103609061208a610ec96103609460ff1690565b901c90565b610360906120a0610ec96103609490565b901b90565b6120af6000610424565b81146121955760016120c082612760565b6120c982612069565b8080808080966120da828098612076565b906120e490610424565b906120ee9161208f565b6120f8818a610ec3565b019061210391612076565b61210d8189610ec3565b019061211891612076565b6121228188610ec3565b019061212d91612076565b6121378187610ec3565b019061214291612076565b61214c8186610ec3565b019061215791612076565b6121618185610ec3565b019061216c91612076565b6121768184610ec3565b019061218191612076565b908161218c91610ec3565b61036091611f1f565b506103606000610424565b905051906102fb8261032c565b906020828203126102f257610360916121a0565b90926121f2906121eb61036096946121e1608086019760008701906103bd565b60208501906103bd565b6040830152565b60608184039101526104b2565b6000939192833b612212610ec987610424565b1161221f575b5050505050565b60209161222e611f8386610f84565b90863361225761223d60405190565b97889687958694630a85bd0160e11b8652600486016121c1565b03925af1600091816122eb575b506122b65750612279565b3880808080612218565b612281610fc9565b805161228f610ec985610424565b036122ae5750633250574960e11b82528190610e7b90600483016103c6565b805190602001fd5b6122c6630a85bd0160e11b610df6565b036122d257505061226f565b633250574960e11b82528190610e7b90600483016103c6565b61230e91925060203d602011612315575b612306818361064e565b8101906121ad565b9038612264565b503d6122fc565b6103606012610e08565b906102fb61175e61233684610fb7565b93610689565b61234581612912565b906123566001926104e66001610424565b918061236184612326565b936020018401905b612374575b50505090565b81156123c4576123a89060001901926f181899199a1a9b1b9c1cb0b131b232b360811b600a82061a845361107d600a610424565b90816123b7610ec96000610424565b146123c457909181612369565b61236e565b9192906000926123d88461126c565b916123e28361039a565b6123eb8261039a565b14612435576123fe838761240493611f14565b9261039a565b61240d8361039a565b0361242857637e27328960e01b845260048401859052602484fd5b6112df819592939561039a565b633250574960e11b85528480610e7b85600483016103c6565b634e487b7160e01b600052603160045260246000fd5b8054801561248757600019019061248461247e8383610c24565b90611569565b55565b61244e565b60006124ee6102fb9260116113716124e96124aa6113768585610431565b6103606010916124e46124ca610c646124c46114ab875490565b86610c24565b6124de816124d88588610c24565b90611550565b87610431565b610f4c565b612464565b611569565b908154916801000000000000000083101561067057826124d89160016102fb95018155610c24565b6102fb9061252a8160106124f3565b6124e46125396114ab60105490565b916011610431565b63780e9d6360e01b6001600160e01b0319821614908115612560575090565b6103609150612aa6565b611e6a61036091612579600090565b506002610431565b9291909180811561268f575b6125a8575b5050906125a36102fb926004610431565b61142d565b6125b183611e13565b916000906125c16114058361126c565b6125ca8261039a565b141580612675575b8061265e575b612645575050916125a3916102fb94936125f5575b509192612592565b6125fe90610f84565b61260784610f84565b61261083610424565b917f8c5be1e5ebec7d5bd14f71427d1e84f3dd0314c0f7b2291e5b200ac8c7c3b92561263b60405190565b600090a4386125ed565b63a9fbf51f60e01b82528190610e7b90600483016103c6565b5061267061266c8286611d72565b1590565b6125d8565b5061267f8161039a565b6126888561039a565b14156125d2565b5061269d611405600061126c565b6126a68361039a565b141561258d565b906102fb92916126bd8282612af1565b611977600061126c565b90916126d4908383612b67565b916127026126e2600061126c565b6126eb8161039a565b6126f48661039a565b0361273f5761140583612d16565b61270b8361039a565b0361271a576103609150612d67565b6127238261039a565b61272c8461039a565b0361273657505090565b61036091612d38565b6127488461039a565b6127518661039a565b1461039a576114058386612c95565b600061285b610ec961285561277484610424565b946127886127826080612069565b82612076565b8681116128fb575b5061279e6127826040612069565b6127a786610424565b81116128e4575b506127bc6127826020612069565b6127c586610424565b81116128cd575b506127da6127826010612069565b6127e386610424565b81116128b6575b506127f86127826008612069565b61280186610424565b811161289f575b506128166127826004612069565b61281f86610424565b8111612888575b506128346127826002612069565b61283d86610424565b8111612871575b5061284f6001612069565b90612076565b92610424565b116128635790565b610360906104e66001610424565b6128819150956104e66002610424565b9438612844565b6128989150956104e66004610424565b9438612826565b6128af9150956104e66008610424565b9438612808565b6128c69150956104e66010610424565b94386127ea565b6128dd9150956104e66020610424565b94386127cc565b6128f49150956104e66040610424565b94386127ae565b61290b9150956104e66080610424565b9438612790565b61291c6000610424565b907a184f03e93ff9f4daa797ed6e38ed64bf6a1f01000000000000000061294281610424565b821015612a84575b506d04ee2d6d415b85acef810000000061296381610424565b821015612a62575b50662386f26fc1000061297d81610424565b821015612a40575b506305f5e10061299481610424565b821015612a1e575b506127106129a981610424565b8210156129fc575b506129bc6064610424565b8110156129da575b6129d1610ec9600a610424565b10156128635790565b6129eb6129f69161107d6064610424565b916104e66002610424565b906129c4565b612a179161107d612a0c92610424565b916104e66004610424565b90386129b1565b612a399161107d612a2e92610424565b916104e66008610424565b903861299c565b612a5b9161107d612a5092610424565b916104e66010610424565b9038612985565b612a7d9161107d612a7292610424565b916104e66020610424565b903861296b565b612a9f9161107d612a9492610424565b916104e66040610424565b903861294a565b6380ac58cd60e01b6001600160e01b0319821614908115612ad6575b8115612acc575090565b6103609150612db5565b6001600160e01b03198116635b5e139f60e01b149150612ac2565b600091612afd8361126c565b91612b078361039a565b612b108261039a565b14612b4e57612b20918391611f14565b612b2c611aa28361039a565b03612b35575050565b6339e3563760e11b82528190610e7b90600483016103c6565b633250574960e11b84528380610e7b85600483016103c6565b90612bba612b748261256a565b936000612b808161126c565b9184612b8b8461039a565b612b948361039a565b03612c84575b5050612ba58261039a565b612bae8761039a565b03612c49575b5061039a565b612bc38361039a565b03612c19575b612bd8826125a3836002610431565b612be7611b1761204185610f84565b917fddf252ad1be2c89b69c2b068fc378daa952ba7f163c4a11628f55a4df523b3ef612c1260405190565b600090a490565b612c44612c266001610424565b612c3e612c34856003611342565b916104e683610dbd565b90610f4c565b612bc9565b612c5590828581612581565b612c7e612c626001610424565b612c3e612c70886003611342565b91612c7a83610dbd565b0390565b38612bb4565b612c8e9188612dc5565b3884612b9a565b6124ee6102fb92611371600093612cd4856124ee612cb28461181d565b95600785612cc36113768484610431565b89808203612cdb575b505050610431565b6006611342565b611371612d08846124e485612cfe6113766124e497611371612d0e9b6006611342565b9485936006611342565b84610431565b853889612ccc565b6102fb90612d31612d2660085490565b6124e4836009610431565b60086124f3565b6124e482612d606102fb946124e461137195612d566114ab8261181d565b9687916006611342565b6007610431565b6124e96102fb9161036060006124ee600893612d846114ab865490565b6113716009916124e4612da7610c64612da06113768888610431565b938b610c24565b612d08816124d8858d610c24565b610e046301ffc9a760e01b610df6565b90612dd461266c848385612e25565b612ddd57505050565b6000928392612df1611aa26114058661126c565b03612e0e57637e27328960e01b8352600483015250602481010390fd5b63177e802f60e01b8352610e7b9160048401611327565b90612e33611405600061126c565b612e3c8261039a565b14159283612e4a5750505090565b90919250612e578261039a565b612e608461039a565b14928315612e95575b508215612e7b575b505038808061236e565b612e8d9192506123fe611aa291611e53565b143880612e71565b612ea29193508290611d72565b9138612e6956fea26469706673582212207d7eeb41d58f0494d529e0a7abb1635ccb797e0bf42e71c070de08fd68c55c8764736f6c634300081c0033a26469706673582212208c8fa4158dc5d7d956eca1ce74d999867cf58e51b8e0c14508f31ebf1ba6319f64736f6c634300081c0033",
  "linkReferences": {},
  "deployedLinkReferences": {}
}