{
  "_format": "hh-sol-artifact-1",
  "contractName": "Trade",
  "sourceName": "src/core/Trade.sol",
  "abi": [
    {
      "inputs": [
        {
          "internalType": "string",
          "name": "_name",
          "type": "string"
        },
        {
          "internalType": "string",
          "name": "_symbol",
          "type": "string"
        },
        {
          "internalType": "uint256",
          "name": "_initialPrice",
          "type": "uint256"
        },
        {
          "internalType": "uint256",
          "name": "_maxSupply",
          "type": "uint256"
        },
        {
          "internalType": "uint256",
          "name": "_creatorFeePercent",
          "type": "uint256"
        }
      ],
      "stateMutability": "nonpayable",
      "type": "constructor"
    },
    {
      "inputs": [],
      "name": "ERC721EnumerableForbiddenBatchMint",
      "type": "error"
    },
    {
      "inputs": [
        {
          "internalType": "address",
          "name": "sender",
          "type": "address"
        },
        {
          "internalType": "uint256",
          "name": "tokenId",
          "type": "uint256"
        },
        {
          "internalType": "address",
          "name": "owner",
          "type": "address"
        }
      ],
      "name": "ERC721IncorrectOwner",
      "type": "error"
    },
    {
      "inputs": [
        {
          "internalType": "address",
          "name": "operator",
          "type": "address"
        },
        {
          "internalType": "uint256",
          "name": "tokenId",
          "type": "uint256"
        }
      ],
      "name": "ERC721InsufficientApproval",
      "type": "error"
    },
    {
      "inputs": [
        {
          "internalType": "address",
          "name": "approver",
          "type": "address"
        }
      ],
      "name": "ERC721InvalidApprover",
      "type": "error"
    },
    {
      "inputs": [
        {
          "internalType": "address",
          "name": "operator",
          "type": "address"
        }
      ],
      "name": "ERC721InvalidOperator",
      "type": "error"
    },
    {
      "inputs": [
        {
          "internalType": "address",
          "name": "owner",
          "type": "address"
        }
      ],
      "name": "ERC721InvalidOwner",
      "type": "error"
    },
    {
      "inputs": [
        {
          "internalType": "address",
          "name": "receiver",
          "type": "address"
        }
      ],
      "name": "ERC721InvalidReceiver",
      "type": "error"
    },
    {
      "inputs": [
        {
          "internalType": "address",
          "name": "sender",
          "type": "address"
        }
      ],
      "name": "ERC721InvalidSender",
      "type": "error"
    },
    {
      "inputs": [
        {
          "internalType": "uint256",
          "name": "tokenId",
          "type": "uint256"
        }
      ],
      "name": "ERC721NonexistentToken",
      "type": "error"
    },
    {
      "inputs": [
        {
          "internalType": "address",
          "name": "owner",
          "type": "address"
        },
        {
          "internalType": "uint256",
          "name": "index",
          "type": "uint256"
        }
      ],
      "name": "ERC721OutOfBoundsIndex",
      "type": "error"
    },
    {
      "inputs": [
        {
          "internalType": "address",
          "name": "owner",
          "type": "address"
        }
      ],
      "name": "OwnableInvalidOwner",
      "type": "error"
    },
    {
      "inputs": [
        {
          "internalType": "address",
          "name": "account",
          "type": "address"
        }
      ],
      "name": "OwnableUnauthorizedAccount",
      "type": "error"
    },
    {
      "anonymous": false,
      "inputs": [
        {
          "indexed": true,
          "internalType": "address",
          "name": "owner",
          "type": "address"
        },
        {
          "indexed": true,
          "internalType": "address",
          "name": "approved",
          "type": "address"
        },
        {
          "indexed": true,
          "internalType": "uint256",
          "name": "tokenId",
          "type": "uint256"
        }
      ],
      "name": "Approval",
      "type": "event"
    },
    {
      "anonymous": false,
      "inputs": [
        {
          "indexed": true,
          "internalType": "address",
          "name": "owner",
          "type": "address"
        },
        {
          "indexed": true,
          "internalType": "address",
          "name": "operator",
          "type": "address"
        },
        {
          "indexed": false,
          "internalType": "bool",
          "name": "approved",
          "type": "bool"
        }
      ],
      "name": "ApprovalForAll",
      "type": "event"
    },
    {
      "anonymous": false,
      "inputs": [
        {
          "indexed": true,
          "internalType": "address",
          "name": "previousOwner",
          "type": "address"
        },
        {
          "indexed": true,
          "internalType": "address",
          "name": "newOwner",
          "type": "address"
        }
      ],
      "name": "OwnershipTransferred",
      "type": "event"
    },
    {
      "anonymous": false,
      "inputs": [
        {
          "indexed": true,
          "internalType": "address",
          "name": "buyer",
          "type": "address"
        },
        {
          "indexed": true,
          "internalType": "uint256",
          "name": "tokenId",
          "type": "uint256"
        },
        {
          "indexed": false,
          "internalType": "uint256",
          "name": "price",
          "type": "uint256"
        },
        {
          "indexed": false,
          "internalType": "uint256",
          "name": "creatorFee",
          "type": "uint256"
        }
      ],
      "name": "TokenBought",
      "type": "event"
    },
    {
      "anonymous": false,
      "inputs": [
        {
          "indexed": true,
          "internalType": "address",
          "name": "to",
          "type": "address"
        },
        {
          "indexed": true,
          "internalType": "uint256",
          "name": "tokenId",
          "type": "uint256"
        },
        {
          "indexed": false,
          "internalType": "uint256",
          "name": "price",
          "type": "uint256"
        },
        {
          "indexed": false,
          "internalType": "uint256",
          "name": "creatorFee",
          "type": "uint256"
        }
      ],
      "name": "TokenMinted",
      "type": "event"
    },
    {
      "anonymous": false,
      "inputs": [
        {
          "indexed": true,
          "internalType": "address",
          "name": "seller",
          "type": "address"
        },
        {
          "indexed": true,
          "internalType": "uint256",
          "name": "tokenId",
          "type": "uint256"
        },
        {
          "indexed": false,
          "internalType": "uint256",
          "name": "price",
          "type": "uint256"
        },
        {
          "indexed": false,
          "internalType": "uint256",
          "name": "creatorFee",
          "type": "uint256"
        }
      ],
      "name": "TokenSold",
      "type": "event"
    },
    {
      "anonymous": false,
      "inputs": [
        {
          "indexed": true,
          "internalType": "address",
          "name": "from",
          "type": "address"
        },
        {
          "indexed": true,
          "internalType": "address",
          "name": "to",
          "type": "address"
        },
        {
          "indexed": true,
          "internalType": "uint256",
          "name": "tokenId",
          "type": "uint256"
        }
      ],
      "name": "Transfer",
      "type": "event"
    },
    {
      "inputs": [
        {
          "internalType": "address",
          "name": "to",
          "type": "address"
        },
        {
          "internalType": "uint256",
          "name": "tokenId",
          "type": "uint256"
        }
      ],
      "name": "approve",
      "outputs": [],
      "stateMutability": "nonpayable",
      "type": "function"
    },
    {
      "inputs": [
        {
          "internalType": "uint256",
          "name": "",
          "type": "uint256"
        }
      ],
      "name": "availableTokens",
      "outputs": [
        {
          "internalType": "uint256",
          "name": "",
          "type": "uint256"
        }
      ],
      "stateMutability": "view",
      "type": "function"
    },
    {
      "inputs": [
        {
          "internalType": "address",
          "name": "owner",
          "type": "address"
        }
      ],
      "name": "balanceOf",
      "outputs": [
        {
          "internalType": "uint256",
          "name": "",
          "type": "uint256"
        }
      ],
      "stateMutability": "view",
      "type": "function"
    },
    {
      "inputs": [],
      "name": "baseURI",
      "outputs": [
        {
          "internalType": "string",
          "name": "",
          "type": "string"
        }
      ],
      "stateMutability": "view",
      "type": "function"
    },
    {
      "inputs": [
        {
          "internalType": "uint256",
          "name": "tokenId",
          "type": "uint256"
        }
      ],
      "name": "buy",
      "outputs": [],
      "stateMutability": "payable",
      "type": "function"
    },
    {
      "inputs": [
        {
          "internalType": "uint256",
          "name": "supply",
          "type": "uint256"
        }
      ],
      "name": "calculatePrice",
      "outputs": [
        {
          "internalType": "uint256",
          "name": "",
          "type": "uint256"
        }
      ],
      "stateMutability": "view",
      "type": "function"
    },
    {
      "inputs": [],
      "name": "contractURI",
      "outputs": [
        {
          "internalType": "string",
          "name": "",
          "type": "string"
        }
      ],
      "stateMutability": "view",
      "type": "function"
    },
    {
      "inputs": [],
      "name": "creator",
      "outputs": [
        {
          "internalType": "address",
          "name": "",
          "type": "address"
        }
      ],
      "stateMutability": "view",
      "type": "function"
    },
    {
      "inputs": [],
      "name": "creatorFeePercent",
      "outputs": [
        {
          "internalType": "uint256",
          "name": "",
          "type": "uint256"
        }
      ],
      "stateMutability": "view",
      "type": "function"
    },
    {
      "inputs": [],
      "name": "currentSupply",
      "outputs": [
        {
          "internalType": "uint256",
          "name": "",
          "type": "uint256"
        }
      ],
      "stateMutability": "view",
      "type": "function"
    },
    {
      "inputs": [],
      "name": "getAllAvailableTokens",
      "outputs": [
        {
          "internalType": "uint256[]",
          "name": "",
          "type": "uint256[]"
        }
      ],
      "stateMutability": "view",
      "type": "function"
    },
    {
      "inputs": [
        {
          "internalType": "uint256",
          "name": "tokenId",
          "type": "uint256"
        }
      ],
      "name": "getApproved",
      "outputs": [
        {
          "internalType": "address",
          "name": "",
          "type": "address"
        }
      ],
      "stateMutability": "view",
      "type": "function"
    },
    {
      "inputs": [
        {
          "internalType": "uint256",
          "name": "index",
          "type": "uint256"
        }
      ],
      "name": "getAvailableTokenByIndex",
      "outputs": [
        {
          "internalType": "uint256",
          "name": "",
          "type": "uint256"
        }
      ],
      "stateMutability": "view",
      "type": "function"
    },
    {
      "inputs": [],
      "name": "getAvailableTokensCount",
      "outputs": [
        {
          "internalType": "uint256",
          "name": "",
          "type": "uint256"
        }
      ],
      "stateMutability": "view",
      "type": "function"
    },
    {
      "inputs": [
        {
          "internalType": "uint256",
          "name": "start",
          "type": "uint256"
        },
        {
          "internalType": "uint256",
          "name": "limit",
          "type": "uint256"
        }
      ],
      "name": "getAvailableTokensPaginated",
      "outputs": [
        {
          "internalType": "uint256[]",
          "name": "",
          "type": "uint256[]"
        }
      ],
      "stateMutability": "view",
      "type": "function"
    },
    {
      "inputs": [],
      "name": "getBuyPrice",
      "outputs": [
        {
          "internalType": "uint256",
          "name": "",
          "type": "uint256"
        }
      ],
      "stateMutability": "view",
      "type": "function"
    },
    {
      "inputs": [],
      "name": "getBuyPriceAfterFee",
      "outputs": [
        {
          "internalType": "uint256",
          "name": "",
          "type": "uint256"
        }
      ],
      "stateMutability": "view",
      "type": "function"
    },
    {
      "inputs": [],
      "name": "getSellPrice",
      "outputs": [
        {
          "internalType": "uint256",
          "name": "",
          "type": "uint256"
        }
      ],
      "stateMutability": "view",
      "type": "function"
    },
    {
      "inputs": [],
      "name": "getSellPriceAfterFee",
      "outputs": [
        {
          "internalType": "uint256",
          "name": "",
          "type": "uint256"
        }
      ],
      "stateMutability": "view",
      "type": "function"
    },
    {
      "inputs": [],
      "name": "initialPrice",
      "outputs": [
        {
          "internalType": "uint256",
          "name": "",
          "type": "uint256"
        }
      ],
      "stateMutability": "view",
      "type": "function"
    },
    {
      "inputs": [
        {
          "internalType": "address",
          "name": "owner",
          "type": "address"
        },
        {
          "internalType": "address",
          "name": "operator",
          "type": "address"
        }
      ],
      "name": "isApprovedForAll",
      "outputs": [
        {
          "internalType": "bool",
          "name": "",
          "type": "bool"
        }
      ],
      "stateMutability": "view",
      "type": "function"
    },
    {
      "inputs": [
        {
          "internalType": "uint256",
          "name": "tokenId",
          "type": "uint256"
        }
      ],
      "name": "isOnSale",
      "outputs": [
        {
          "internalType": "bool",
          "name": "",
          "type": "bool"
        }
      ],
      "stateMutability": "view",
      "type": "function"
    },
    {
      "inputs": [],
      "name": "maxSupply",
      "outputs": [
        {
          "internalType": "uint256",
          "name": "",
          "type": "uint256"
        }
      ],
      "stateMutability": "view",
      "type": "function"
    },
    {
      "inputs": [],
      "name": "mint",
      "outputs": [
        {
          "internalType": "uint256",
          "name": "",
          "type": "uint256"
        }
      ],
      "stateMutability": "payable",
      "type": "function"
    },
    {
      "inputs": [],
      "name": "name",
      "outputs": [
        {
          "internalType": "string",
          "name": "",
          "type": "string"
        }
      ],
      "stateMutability": "view",
      "type": "function"
    },
    {
      "inputs": [
        {
          "internalType": "address",
          "name": "",
          "type": "address"
        },
        {
          "internalType": "address",
          "name": "",
          "type": "address"
        },
        {
          "internalType": "uint256",
          "name": "",
          "type": "uint256"
        },
        {
          "internalType": "bytes",
          "name": "",
          "type": "bytes"
        }
      ],
      "name": "onERC721Received",
      "outputs": [
        {
          "internalType": "bytes4",
          "name": "",
          "type": "bytes4"
        }
      ],
      "stateMutability": "nonpayable",
      "type": "function"
    },
    {
      "inputs": [],
      "name": "owner",
      "outputs": [
        {
          "internalType": "address",
          "name": "",
          "type": "address"
        }
      ],
      "stateMutability": "view",
      "type": "function"
    },
    {
      "inputs": [
        {
          "internalType": "uint256",
          "name": "tokenId",
          "type": "uint256"
        }
      ],
      "name": "ownerOf",
      "outputs": [
        {
          "internalType": "address",
          "name": "",
          "type": "address"
        }
      ],
      "stateMutability": "view",
      "type": "function"
    },
    {
      "inputs": [],
      "name": "renounceOwnership",
      "outputs": [],
      "stateMutability": "nonpayable",
      "type": "function"
    },
    {
      "inputs": [
        {
          "internalType": "address",
          "name": "from",
          "type": "address"
        },
        {
          "internalType": "address",
          "name": "to",
          "type": "address"
        },
        {
          "internalType": "uint256",
          "name": "tokenId",
          "type": "uint256"
        }
      ],
      "name": "safeTransferFrom",
      "outputs": [],
      "stateMutability": "nonpayable",
      "type": "function"
    },
    {
      "inputs": [
        {
          "internalType": "address",
          "name": "from",
          "type": "address"
        },
        {
          "internalType": "address",
          "name": "to",
          "type": "address"
        },
        {
          "internalType": "uint256",
          "name": "tokenId",
          "type": "uint256"
        },
        {
          "internalType": "bytes",
          "name": "data",
          "type": "bytes"
        }
      ],
      "name": "safeTransferFrom",
      "outputs": [],
      "stateMutability": "nonpayable",
      "type": "function"
    },
    {
      "inputs": [
        {
          "internalType": "uint256",
          "name": "tokenId",
          "type": "uint256"
        }
      ],
      "name": "sell",
      "outputs": [],
      "stateMutability": "nonpayable",
      "type": "function"
    },
    {
      "inputs": [
        {
          "internalType": "address",
          "name": "operator",
          "type": "address"
        },
        {
          "internalType": "bool",
          "name": "approved",
          "type": "bool"
        }
      ],
      "name": "setApprovalForAll",
      "outputs": [],
      "stateMutability": "nonpayable",
      "type": "function"
    },
    {
      "inputs": [
        {
          "internalType": "string",
          "name": "_baseURI",
          "type": "string"
        }
      ],
      "name": "setBaseURI",
      "outputs": [],
      "stateMutability": "nonpayable",
      "type": "function"
    },
    {
      "inputs": [
        {
          "internalType": "address",
          "name": "_creator",
          "type": "address"
        }
      ],
      "name": "setCreator",
      "outputs": [],
      "stateMutability": "nonpayable",
      "type": "function"
    },
    {
      "inputs": [
        {
          "internalType": "bytes4",
          "name": "interfaceId",
          "type": "bytes4"
        }
      ],
      "name": "supportsInterface",
      "outputs": [
        {
          "internalType": "bool",
          "name": "",
          "type": "bool"
        }
      ],
      "stateMutability": "view",
      "type": "function"
    },
    {
      "inputs": [],
      "name": "symbol",
      "outputs": [
        {
          "internalType": "string",
          "name": "",
          "type": "string"
        }
      ],
      "stateMutability": "view",
      "type": "function"
    },
    {
      "inputs": [
        {
          "internalType": "uint256",
          "name": "index",
          "type": "uint256"
        }
      ],
      "name": "tokenByIndex",
      "outputs": [
        {
          "internalType": "uint256",
          "name": "",
          "type": "uint256"
        }
      ],
      "stateMutability": "view",
      "type": "function"
    },
    {
      "inputs": [
        {
          "internalType": "uint256",
          "name": "",
          "type": "uint256"
        }
      ],
      "name": "tokenIndex",
      "outputs": [
        {
          "internalType": "uint256",
          "name": "",
          "type": "uint256"
        }
      ],
      "stateMutability": "view",
      "type": "function"
    },
    {
      "inputs": [
        {
          "internalType": "address",
          "name": "owner",
          "type": "address"
        },
        {
          "internalType": "uint256",
          "name": "index",
          "type": "uint256"
        }
      ],
      "name": "tokenOfOwnerByIndex",
      "outputs": [
        {
          "internalType": "uint256",
          "name": "",
          "type": "uint256"
        }
      ],
      "stateMutability": "view",
      "type": "function"
    },
    {
      "inputs": [
        {
          "internalType": "uint256",
          "name": "tokenId",
          "type": "uint256"
        }
      ],
      "name": "tokenURI",
      "outputs": [
        {
          "internalType": "string",
          "name": "",
          "type": "string"
        }
      ],
      "stateMutability": "view",
      "type": "function"
    },
    {
      "inputs": [],
      "name": "totalSupply",
      "outputs": [
        {
          "internalType": "uint256",
          "name": "",
          "type": "uint256"
        }
      ],
      "stateMutability": "view",
      "type": "function"
    },
    {
      "inputs": [
        {
          "internalType": "address",
          "name": "from",
          "type": "address"
        },
        {
          "internalType": "address",
          "name": "to",
          "type": "address"
        },
        {
          "internalType": "uint256",
          "name": "tokenId",
          "type": "uint256"
        }
      ],
      "name": "transferFrom",
      "outputs": [],
      "stateMutability": "nonpayable",
      "type": "function"
    },
    {
      "inputs": [
        {
          "internalType": "address",
          "name": "newOwner",
          "type": "address"
        }
      ],
      "name": "transferOwnership",
      "outputs": [],
      "stateMutability": "nonpayable",
      "type": "function"
    }
  ],
  "bytecode": "0x60806040523461002e5761001d610014610171565b93929092610196565b604051612f8b6105508239612f8b90f35b600080fd5b634e487b7160e01b600052604160045260246000fd5b90601f01601f191681019081106001600160401b0382111761006a57604052565b610033565b9061008361007c60405190565b9283610049565b565b6001600160401b03811161006a57602090601f01601f19160190565b60005b8381106100b45750506000910152565b81810151838201526020016100a4565b909291926100d96100d482610085565b61006f565b938185528183011161002e576100839160208501906100a1565b9080601f8301121561002e57815161010d926020016100c4565b90565b919060a08382031261002e5782516001600160401b03811161002e57816101389185016100f3565b60208401519093906001600160401b03811161002e578261015a9183016100f3565b604082015160608301516080909301519194909350565b61018f6134db803803806101848161006f565b928339810190610110565b9091929394565b610083948594859433929190610237565b90600019905b9181191691161790565b61010d61010d61010d9290565b906101d461010d6101db926101b7565b82546101a7565b9055565b906001600160a01b03906101ad565b61010d90610202906001600160a01b031682565b6001600160a01b031690565b61010d906101ee565b61010d9061020e565b9061023061010d6101db92610217565b82546101df565b61024d6102629661025493949661025b9661026d565b600b6101c4565b600c6101c4565b600d6101c4565b61008333600e610220565b9061008392916102ab565b61020261010d61010d9290565b61010d90610278565b61029790610202565b9052565b602081019291610083919061028e565b916102b5916102ff565b60006102c081610285565b6102c981610202565b6102d284610202565b146102e2575050610083906104f8565b631e4fbdf760e01b825281906102fb906004830161029b565b0390fd5b610083918291829182916104cf565b634e487b7160e01b600052602260045260246000fd5b9060016002830492168015610344575b602083101461033f57565b61030e565b91607f1691610334565b9160001960089290920291821b911b6101ad565b919061037361010d6101db936101b7565b90835461034e565b61008391600091610362565b818110610392575050565b806103a0600060019361037b565b01610387565b9190601f81116103b557505050565b6103c761008393600052602060002090565b906020601f8401819004830193106103e9575b6020601f909101040190610387565b90915081906103da565b906103fc815190565b906001600160401b03821161006a5761041f826104198554610324565b856103a6565b602090601f831160011461045a576101db92916000918361044f575b5050600019600883021c1916906002021790565b01519050388061043b565b601f1983169161046f85600052602060002090565b9260005b8181106104ad57509160029391856001969410610494575b50505002019055565b01516000196008601f8516021c1916905538808061048b565b91936020600181928787015181550195019201610473565b90610083916103f3565b906104de6100839260006104c5565b60016104c5565b61010d90610202565b61010d90546104e5565b61051e610518610508600a6104ee565b61051384600a610220565b610217565b91610217565b907f8be0079c531659141344cd1fd0a4f28419497f9722a3daafe3b4186f6b6457e061054960405190565b600090a356fe6080604052600436101561001257600080fd5b60003560e01c8063018a25e8146102d257806301ffc9a7146102cd57806302d05d3f146102c85780630583e9f8146102c357806306fdde03146102be578063081812fc146102b9578063095ea7b3146102b45780631249c58b146102af57806312ea5c7e146102aa578063150b7a02146102a557806318160ddd146102a05780631d0806ae1461029b57806321a1c1841461029657806323b872dd146102915780632dcd52f21461028c5780632f745c59146102875780633f5160181461028257806342842e0e1461027d57806343d32e9c146102785780634a8fe650146102735780634f6ccce71461026e57806353613dd31461026957806355f804b3146102645780635eba096b1461025f5780636352211e1461025a5780636c0360eb1461025557806370a0823114610250578063715018a61461024b578063771282f6146102465780638da5cb5b1461024157806395d89b411461023c578063a22cb46514610237578063ad64d06814610232578063ae1042651461022d578063b88d4fde14610228578063c87b56dd14610223578063cf6a68bf1461021e578063d5abeb0114610219578063d96a094a14610214578063e4849b321461020f578063e8a3d4851461020a578063e985e9c514610205578063f0f2805f146102005763f2fde38b036102e257610d6a565b610d4f565b610d33565b610cf5565b610cdd565b610cca565b610caf565b610c88565b610c6d565b610c51565b610c36565b610c1b565b610ba6565b610b53565b610b38565b610b1d565b610af9565b610ade565b610ac3565b610981565b610965565b610931565b6108f0565b6108c9565b6108ae565b610893565b61087a565b610862565b610832565b610816565b6107fd565b6107b9565b61079e565b610776565b61073c565b610601565b610584565b610566565b610512565b6104eb565b610464565b6103c6565b610353565b6102ed565b60009103126102e257565b600080fd5b9052565b565b346102e2576102fd3660046102d7565b610318610308610d93565b6040519182918290815260200190565b0390f35b6001600160e01b031981165b036102e257565b905035906102eb8261031c565b906020828203126102e2576103509161032f565b90565b346102e25761031861036e61036936600461033c565b610da0565b6040515b91829182901515815260200190565b610350916008021c5b6001600160a01b031690565b906103509154610381565b6103506000600e610396565b6102e79061038a565b6020810192916102eb91906103ad565b346102e2576103d63660046102d7565b6103186103e16103a1565b604051918291826103b6565b80610328565b905035906102eb826103ed565b906020828203126102e257610350916103f3565b6103506103506103509290565b9061042b90610414565b600052602052604060002090565b610350916008021c81565b906103509154610439565b600061045f610350926011610421565b610444565b346102e25761031861030861047a366004610400565b61044f565b60005b8381106104925750506000910152565b8181015183820152602001610482565b6104c36104cc6020936104d6936104b7815190565b80835293849260200190565b9586910161047f565b601f01601f191690565b0190565b6020808252610350929101906104a2565b346102e2576104fb3660046102d7565b610318610506610ddd565b604051918291826104da565b346102e2576103186103e1610528366004610400565b610de7565b6103288161038a565b905035906102eb8261052d565b91906040838203126102e25761035090602061055f8286610536565b94016103f3565b346102e25761057f610579366004610543565b90610dfa565b604051005b61058f3660046102d7565b610318610308610ff2565b906105ba6105b36105a9845190565b8084529260200190565b9260200190565b9060005b8181106105cb5750505090565b9091926105e86105e16001928651815260200190565b9460200190565b9291016105be565b60208082526103509291019061059a565b346102e2576106113660046102d7565b61031861061c6111ad565b604051918291826105f0565b634e487b7160e01b600052604160045260246000fd5b90601f01601f1916810190811067ffffffffffffffff82111761066057604052565b610628565b906102eb61067260405190565b928361063e565b67ffffffffffffffff811161066057602090601f01601f19160190565b90826000939282370152565b909291926106b76106b282610679565b610665565b93818552818301116102e2576102eb916020850190610696565b9080601f830112156102e257816020610350933591016106a2565b906080828203126102e2576107018183610536565b9261070f8260208501610536565b9261071d83604083016103f3565b92606082013567ffffffffffffffff81116102e25761035092016106d1565b346102e25761031861075b6107523660046106ec565b929190916111dd565b604051918291826001600160e01b0319909116815260200190565b346102e2576107863660046102d7565b61031861030860085490565b6103506000600b610444565b346102e2576107ae3660046102d7565b610318610308610792565b346102e2576107c93660046102d7565b610318610308611204565b90916060828403126102e2576103506107ed8484610536565b93604061055f8260208701610536565b346102e25761057f6108103660046107d4565b9161126f565b346102e2576108263660046102d7565b61031861030860105490565b346102e257610318610308610848366004610543565b90611318565b906020828203126102e25761035091610536565b346102e25761057f61087536600461084e565b61141b565b346102e25761057f61088d3660046107d4565b91611436565b346102e2576108a33660046102d7565b61031861030861144a565b346102e2576108be3660046102d7565b61031861030861148e565b346102e2576103186103086108df366004610400565b6114a9565b6103506000600d610444565b346102e2576109003660046102d7565b6103186103086108e4565b906020828203126102e257813567ffffffffffffffff81116102e25761035092016106d1565b346102e25761057f61094436600461090b565b611695565b91906040838203126102e25761035090602061055f82866103f3565b346102e25761031861061c61097b366004610949565b90611751565b346102e2576103186103e1610997366004610400565b6117e0565b634e487b7160e01b600052600060045260246000fd5b634e487b7160e01b600052602260045260246000fd5b90600160028304921680156109e8575b60208310146109e357565b6109b2565b91607f16916109d8565b80546000939291610a0f610a05836109c8565b8085529360200190565b9160018116908115610a615750600114610a2857505050565b610a3b9192939450600052602060002090565b916000925b818410610a4d5750500190565b805484840152602090930192600101610a40565b92949550505060ff1916825215156020020190565b90610350916109f2565b906102eb610a9a92610a9160405190565b93848092610a76565b038361063e565b90600010610ab25761035090610a80565b61099c565b61035060006012610aa1565b346102e257610ad33660046102d7565b610318610506610ab7565b346102e257610318610308610af436600461084e565b6117e9565b346102e257610b093660046102d7565b61057f611851565b6103506000600f610444565b346102e257610b2d3660046102d7565b610318610308610b11565b346102e257610b483660046102d7565b6103186103e1611859565b346102e257610b633660046102d7565b610318610506611863565b801515610328565b905035906102eb82610b6e565b91906040838203126102e257610350906020610b9f8286610536565b9401610b76565b346102e25761057f610bb9366004610b83565b9061186d565b634e487b7160e01b600052603260045260246000fd5b8054821015610bf857610bef600191600052602060002090565b91020190600090565b610bbf565b6010548110156102e257610c15610350916010610bd5565b90610444565b346102e257610318610308610c31366004610400565b610bfd565b346102e257610318610308610c4c366004610400565b611878565b346102e25761057f610c643660046106ec565b92919091611909565b346102e257610318610506610c83366004610400565b611a21565b346102e257610318610308610c9e366004610400565b611a64565b6103506000600c610444565b346102e257610cbf3660046102d7565b610318610308610ca3565b61057f610cd8366004610400565b611b8c565b346102e25761057f610cf0366004610400565b611d98565b346102e257610d053660046102d7565b610318610506611de4565b91906040838203126102e257610350906020610d2c8286610536565b9401610536565b346102e25761031861036e610d49366004610d10565b90611e28565b346102e25761031861036e610d65366004610400565b611e4d565b346102e25761057f610d7d36600461084e565b611eb7565b6103509081565b6103509054610d82565b610350610c4c600f610d89565b610da981611ec0565b908115610db4575090565b9050610dd0632fa757f360e01b5b916001600160e01b03191690565b1490565b61035090610a80565b6103506000610dd4565b61035090610df481611ec9565b50611f09565b6102eb913391611f25565b15610e0c57565b60405162461bcd60e51b815260206004820152601260248201527113585e081cdd5c1c1b1e481c995858da195960721b604482015280606481015b0390fd5b634e487b7160e01b600052601160045260246000fd5b81810292918115918404141715610e7457565b610e4b565b634e487b7160e01b600052601260045260246000fd5b90610e99565b9190565b908115610ea4570490565b610e79565b91908201809211610e7457565b15610ebd57565b60405162461bcd60e51b8152602060048201526014602482015273125b9cdd59999a58da595b9d081c185e5b595b9d60621b6044820152606490fd5b6000198114610e745760010190565b90600019905b9181191691161790565b90610f28610350610f2f92610414565b8254610f08565b9055565b6103509061038a906001600160a01b031682565b61035090610f33565b61035090610f47565b9081526040810192916102eb9160200152565b0152565b6103509061038a565b6103509054610f70565b90610f906106b283610679565b918252565b3d15610faf57610fa43d610f83565b903d6000602084013e565b606090565b15610fbb57565b60405162461bcd60e51b815260206004820152600f60248201526e151c985b9cd9995c8819985a5b1959608a1b6044820152606490fd5b611014610ffe60085490565b61100e610e95610350600c610d89565b10610e05565b61101c610d93565b61035061112361104f611038611032600d610d89565b85610e61565b611049670de0b6b3a7640000610414565b90610e8f565b61106761105f6103508387610ea9565b341015610eb6565b61108361107360085490565b61107d6001610414565b90610ea9565b9361108e8533611f32565b6110aa6110a361109e600f610d89565b610ef9565b600f610f18565b6110b333610f50565b6110bc86610414565b907f10546b1a6f5245ff0ffa18c256b9e46859c585cbb473b453fcd4c2dc39ae08db6110e760405190565b806110f3878783610f59565b0390a361111e600080611106600e610f79565b60405160009187905af1611118610f95565b50610fb4565b610ea9565b611f80565b906111436111376105a9845490565b92600052602060002090565b9060005b8181106111545750505090565b90919261117861117160019261116987610d89565b815260200190565b9460010190565b929101611147565b9061035091611128565b906102eb610a9a9261119b60405190565b93848092611180565b6103509061118a565b61035060106111a4565b6111d06111ca6103509263ffffffff1690565b60e01b90565b6001600160e01b03191690565b505050506111e9600090565b5061035063150b7a026111b7565b91908203918211610e7457565b61035061120f61144a565b61122561103861121f600d610d89565b83610e61565b906111f7565b61038a6103506103509290565b6103509061122b565b6040906112686102eb9496959396611261606084019860008501906103ad565b6020830152565b01906103ad565b909160009261127d84611238565b6112868161038a565b61128f8361038a565b146112da57506112a190823391611fca565b916112ab8161038a565b6112b48461038a565b036112bf5750505050565b6364283d7b60e01b84528392610e4792909160048501611241565b84610e478192633250574960e11b8352600483016103b6565b9160206102eb929493610f6c604082019660008301906103ad565b9061042b90610f50565b611324610350826117e9565b821015611347576103509161133d61134292600661130e565b610421565b610d89565b63295f44f760e21b6000908152916113609160046112f3565b036000fd5b1561136c57565b60405162461bcd60e51b815260206004820152602360248201527f4f6e6c792063726561746f722063616e2063616c6c20746869732066756e637460448201526234b7b760e91b6064820152608490fd5b6102eb906113e56113d66113d1600e610f79565b61038a565b6113df3361038a565b14611365565b611410565b906001600160a01b0390610f0e565b90611409610350610f2f92610f50565b82546113ea565b6102eb90600e6113f9565b6102eb906113bd565b6103506000610f83565b610350611424565b90916102eb9261144461142e565b92611909565b611454600f610d89565b611461610e956000610414565b111561148157610350610c4c611477600f610d89565b6112256001610414565b610350610c4c6000610414565b610350611499610d93565b61107d61103861121f600d610d89565b6114b561035060085490565b8110156114ca57610c15610350916008610bd5565b610e479060009182916114dc83611238565b63295f44f760e21b8452600484016112f3565b6102eb906115036113d66113d1600e610f79565b61168a565b9160001960089290920291821b911b610f0e565b919061152d610350610f2f93610414565b908354611508565b6102eb9160009161151c565b81811061154c575050565b8061155a6000600193611535565b01611541565b9190601f811161156f57505050565b6115816102eb93600052602060002090565b906020601f8401819004830193106115a3575b6020601f909101040190611541565b9091508190611594565b906115b6815190565b9067ffffffffffffffff8211610660576115da826115d485546109c8565b85611560565b602090601f831160011461161557610f2f92916000918361160a575b5050600019600883021c1916906002021790565b0151905038806115f6565b601f1983169161162a85600052602060002090565b9260005b8181106116685750916002939185600196941061164f575b50505002019055565b01516000196008601f8516021c19169055388080611646565b9193602060018192878701518155019501920161162e565b906102eb916115ad565b6102eb906012611680565b6102eb906114ef565b156116a557565b60405162461bcd60e51b815260206004820152601960248201527f537461727420696e646578206f7574206f6620626f756e6473000000000000006044820152606490fd5b67ffffffffffffffff81116106605760208091020190565b90610f906106b2836116ea565b369037565b906102eb61172a61172484611702565b936116ea565b601f19016020840161170f565b90611740825190565b811015610bf8576020809102010190565b9161177e611776601093611770611769610350875490565b871061169e565b85610ea9565b835490611fd5565b9161179161178c85856111f7565b611714565b91845b845b8110156117d7576117d0816117ca6117b4610c156117969588610bd5565b6117c76117c18b856111f7565b89611737565b52565b60010190565b9050611794565b50935050905090565b61035090611ec9565b60006117f481611238565b6117fd8161038a565b6118068461038a565b1461181b57505061134261035091600361130e565b6322718ad960e21b82528190610e4790600483016103b6565b61183c611fe7565b6102eb6102eb61184c6000611238565b61201e565b6102eb611834565b610350600a610f79565b6103506001610dd4565b6102eb919033612097565b6118826000610414565b81146118fe576103509061107d611899600b610d89565b916118c06118e96118df6118df6118ee6118c66118b6600b610d89565b6118c06002610414565b90610e61565b6118c06118e96118df896118da6064610414565b610e61565b611049600c610d89565b61215b565b946118da816118da612710610414565b50610350600b610d89565b906102eb93929161191b83838361126f565b6122b5565b61035090546109c8565b8054600093929161194161193d836109c8565b9390565b9160018116908115611992575060011461195a57505050565b61196d9192939450600052602060002090565b6000905b83821061197e5750500190565b600181602092548486015201910190611971565b60ff191683525050811515909102019150565b6104d66119bd926020926119b7815190565b94859290565b9384910161047f565b9160016119d86005946119e69461192a565b602f60f81b815201906119a5565b64173539b7b760d91b81520190565b611a1592916102eb91611a0760405190565b9485926020840192836119c6565b9081038252038361063e565b611a2a81611ec9565b50611a356012611920565b611a42610e956000610414565b1115611a5b57611a54610350916123e8565b60126119f5565b5061035061142e565b610c1561035091611a73600090565b506010610bd5565b15611a8257565b60405162461bcd60e51b815260206004820152601f60248201527f546f6b656e206973206e6f7420617661696c61626c6520666f722073616c65006044820152606490fd5b6102eb90611af2611ad7826117e0565b611aec611ae66113d130610f50565b9161038a565b14611a7b565b6111236102eb91611b01610d93565b611b1161103861121f600d610d89565b91611b2261105f6103508585610ea9565b611b3681611b2f30610f50565b3390612475565b611b3f81612538565b611b4f6110a361109e600f610d89565b611b61611b5b33610f50565b91610414565b907f884543c08d36fb5c9b3b688dd0453c9f287199124bdbddb3b7f9ca885a4d34a06110e760405190565b6102eb90611ac7565b15611b9c57565b60405162461bcd60e51b815260206004820152601360248201527221b0b63632b91034b9903737ba1037bbb732b960691b6044820152606490fd5b6102eb90611bf9611be7826117e0565b611bf3611ae63361038a565b14611b95565b611ca3565b8015610e74576000190190565b15611c1257565b60405162461bcd60e51b815260206004820152601960248201527f5472616e7366657220746f2073656c6c6572206661696c6564000000000000006044820152606490fd5b15611c5e57565b60405162461bcd60e51b815260206004820152601a60248201527f5472616e7366657220746f2063726561746f72206661696c65640000000000006044820152606490fd5b6000806102eb92611d6f8280611cb761144a565b93611d57611cd1611038611ccb600d610d89565b88610e61565b8096611cda3390565b93611cee81611ce830610f50565b87612475565b611cf7816125c7565b611d0c6110a3611d07600f610d89565b611bfe565b611d18611b5b86610f50565b907f8323bebb324b6e1a1d4886a1f210640461bb275263dae69967f001d053ab0b2b611d4360405190565b80611d4f878783610f59565b0390a36111f7565b60405190818003925af1611d69610f95565b50611c0b565b611d79600e610f79565b90611d8360405190565b90818003925af1611d92610f95565b50611c57565b6102eb90611bd7565b611dad9060109261192a565b6f17b1b7b63632b1ba34b7b7173539b7b760811b81520190565b906102eb611dd460405190565b8093611a15602083019182611da1565b611dee6012611920565b611dfb610e956000610414565b1115611e0b576103506012611dc7565b61035061142e565b610350905b60ff1690565b6103509054611e13565b61035091611e43611e4892611e3b600090565b50600561130e565b61130e565b611e1e565b611e56906117e0565b610dd0611ae66113d130610f50565b6102eb90611e71611fe7565b6000611e7c81611238565b611e858161038a565b611e8e8461038a565b14611e9e5750506102eb9061201e565b631e4fbdf760e01b82528190610e4790600483016103b6565b6102eb90611e65565b610350906125ed565b611ed281612616565b90600090611ee26113d183611238565b611eeb8461038a565b14611ef557505090565b637e27328960e01b82526004820152602490fd5b611f2061035091611f18600090565b506004610421565b610f79565b916001916102eb9361262d565b6102eb91611f3e61142e565b91612759565b15611f4b57565b60405162461bcd60e51b815260206004820152600d60248201526c1499599d5b990819985a5b1959609a1b6044820152606490fd5b611f8a90346111f7565b611f946000610414565b8111611f9d5750565b6000806102eb92611fab3390565b90611fb560405190565b90818003925af1611fc4610f95565b50611f44565b610350929190612773565b9080821015611fe2575090565b905090565b611fef611859565b3390611ffd611ae68361038a565b036120055750565b63118cdaa760e01b6000908152906113609060046103b6565b61204461203e61202e600a610f79565b61203984600a6113f9565b610f50565b91610f50565b907f8be0079c531659141344cd1fd0a4f28419497f9722a3daafe3b4186f6b6457e061206f60405190565b80805b0390a3565b9060ff90610f0e565b90612090610350610f2f92151590565b8254612077565b60006120a56113d182611238565b6120ae8461038a565b1461210757506120726120fd6120f783612039876120f288611e437f17307eab39ab6107e8899845ad3d59bd9653f200f220920489ca2b5937696c3199600561130e565b612080565b93610f50565b9361037260405190565b630b61174360e31b815280610e4784600483016103b6565b611e186103506103509290565b61035090612140610e956103509460ff1690565b901c90565b61035090612156610e956103509490565b901b90565b6121656000610414565b811461224b5760016121768261280c565b61217f8261211f565b80808080809661219082809861212c565b9061219a90610414565b906121a491612145565b6121ae818a610e8f565b01906121b99161212c565b6121c38189610e8f565b01906121ce9161212c565b6121d88188610e8f565b01906121e39161212c565b6121ed8187610e8f565b01906121f89161212c565b6122028186610e8f565b019061220d9161212c565b6122178185610e8f565b01906122229161212c565b61222c8184610e8f565b01906122379161212c565b908161224291610e8f565b61035091611fd5565b506103506000610414565b905051906102eb8261031c565b906020828203126102e25761035091612256565b90926122a8906122a16103509694612297608086019760008701906103ad565b60208501906103ad565b6040830152565b60608184039101526104a2565b6000939192833b6122c8610e9587610414565b116122d5575b5050505050565b6020916122e461203986610f50565b90863361230d6122f360405190565b97889687958694630a85bd0160e11b865260048601612277565b03925af1600091816123a1575b5061236c575061232f565b38808080806122ce565b612337610f95565b8051612345610e9585610414565b036123645750633250574960e11b82528190610e4790600483016103b6565b805190602001fd5b61237c630a85bd0160e11b610dc2565b03612388575050612325565b633250574960e11b82528190610e4790600483016103b6565b6123c491925060203d6020116123cb575b6123bc818361063e565b810190612263565b903861231a565b503d6123b2565b906102eb61172a6123e284610f83565b93610679565b6123f1816129be565b906124026001926104d66001610414565b918061240d846123d2565b936020018401905b612420575b50505090565b8115612470576124549060001901926f181899199a1a9b1b9c1cb0b131b232b360811b600a82061a8453611049600a610414565b9081612463610e956000610414565b1461247057909181612415565b61241a565b91929060009261248484611238565b9161248e8361038a565b6124978261038a565b146124e1576124aa83876124b093611fca565b9261038a565b6124b98361038a565b036124d457637e27328960e01b845260048401859052602484fd5b6112ab819592939561038a565b633250574960e11b85528480610e4785600483016103b6565b634e487b7160e01b600052603160045260246000fd5b8054801561253357600019019061253061252a8383610bd5565b90611535565b55565b6124fa565b600061259a6102eb92601161133d6125956125566113428585610421565b610350601091612590612576610c15612570611477875490565b86610bd5565b61258a816125848588610bd5565b9061151c565b87610421565b610f18565b612510565b611535565b908154916801000000000000000083101561066057826125849160016102eb95018155610bd5565b6102eb906125d681601061259f565b6125906125e561147760105490565b916011610421565b63780e9d6360e01b6001600160e01b031982161490811561260c575090565b6103509150612b52565b611f2061035091612625600090565b506002610421565b9291909180811561273b575b612654575b50509061264f6102eb926004610421565b6113f9565b61265d83611ec9565b9160009061266d6113d183611238565b6126768261038a565b141580612721575b8061270a575b6126f15750509161264f916102eb94936126a1575b50919261263e565b6126aa90610f50565b6126b384610f50565b6126bc83610414565b917f8c5be1e5ebec7d5bd14f71427d1e84f3dd0314c0f7b2291e5b200ac8c7c3b9256126e760405190565b600090a438612699565b63a9fbf51f60e01b82528190610e4790600483016103b6565b5061271c6127188286611e28565b1590565b612684565b5061272b8161038a565b6127348561038a565b141561267e565b506127496113d16000611238565b6127528361038a565b1415612639565b906102eb92916127698282612b9d565b61191b6000611238565b9091612780908383612c13565b916127ae61278e6000611238565b6127978161038a565b6127a08661038a565b036127eb576113d183612dc2565b6127b78361038a565b036127c6576103509150612e13565b6127cf8261038a565b6127d88461038a565b036127e257505090565b61035091612de4565b6127f48461038a565b6127fd8661038a565b1461038a576113d18386612d41565b6000612907610e9561290161282084610414565b9461283461282e608061211f565b8261212c565b8681116129a7575b5061284a61282e604061211f565b61285386610414565b8111612990575b5061286861282e602061211f565b61287186610414565b8111612979575b5061288661282e601061211f565b61288f86610414565b8111612962575b506128a461282e600861211f565b6128ad86610414565b811161294b575b506128c261282e600461211f565b6128cb86610414565b8111612934575b506128e061282e600261211f565b6128e986610414565b811161291d575b506128fb600161211f565b9061212c565b92610414565b1161290f5790565b610350906104d66001610414565b61292d9150956104d66002610414565b94386128f0565b6129449150956104d66004610414565b94386128d2565b61295b9150956104d66008610414565b94386128b4565b6129729150956104d66010610414565b9438612896565b6129899150956104d66020610414565b9438612878565b6129a09150956104d66040610414565b943861285a565b6129b79150956104d66080610414565b943861283c565b6129c86000610414565b907a184f03e93ff9f4daa797ed6e38ed64bf6a1f0100000000000000006129ee81610414565b821015612b30575b506d04ee2d6d415b85acef8100000000612a0f81610414565b821015612b0e575b50662386f26fc10000612a2981610414565b821015612aec575b506305f5e100612a4081610414565b821015612aca575b50612710612a5581610414565b821015612aa8575b50612a686064610414565b811015612a86575b612a7d610e95600a610414565b101561290f5790565b612a97612aa2916110496064610414565b916104d66002610414565b90612a70565b612ac391611049612ab892610414565b916104d66004610414565b9038612a5d565b612ae591611049612ada92610414565b916104d66008610414565b9038612a48565b612b0791611049612afc92610414565b916104d66010610414565b9038612a31565b612b2991611049612b1e92610414565b916104d66020610414565b9038612a17565b612b4b91611049612b4092610414565b916104d66040610414565b90386129f6565b6380ac58cd60e01b6001600160e01b0319821614908115612b82575b8115612b78575090565b6103509150612e61565b6001600160e01b03198116635b5e139f60e01b149150612b6e565b600091612ba983611238565b91612bb38361038a565b612bbc8261038a565b14612bfa57612bcc918391611fca565b612bd8611ae68361038a565b03612be1575050565b6339e3563760e11b82528190610e4790600483016103b6565b633250574960e11b84528380610e4785600483016103b6565b90612c66612c2082612616565b936000612c2c81611238565b9184612c378461038a565b612c408361038a565b03612d30575b5050612c518261038a565b612c5a8761038a565b03612cf5575b5061038a565b612c6f8361038a565b03612cc5575b612c848261264f836002610421565b612c93611b5b6120f785610f50565b917fddf252ad1be2c89b69c2b068fc378daa952ba7f163c4a11628f55a4df523b3ef612cbe60405190565b600090a490565b612cf0612cd26001610414565b612cea612ce085600361130e565b916104d683610d89565b90610f18565b612c75565b612d019082858161262d565b612d2a612d0e6001610414565b612cea612d1c88600361130e565b91612d2683610d89565b0390565b38612c60565b612d3a9188612e71565b3884612c46565b61259a6102eb9261133d600093612d808561259a612d5e846117e9565b95600785612d6f6113428484610421565b89808203612d87575b505050610421565b600661130e565b61133d612db48461259085612daa6113426125909761133d612dba9b600661130e565b948593600661130e565b84610421565b853889612d78565b6102eb90612ddd612dd260085490565b612590836009610421565b600861259f565b61259082612e0c6102eb9461259061133d95612e02611477826117e9565b968791600661130e565b6007610421565b6125956102eb91610350600061259a600893612e30611477865490565b61133d600991612590612e53610c15612e4c6113428888610421565b938b610bd5565b612db481612584858d610bd5565b610dd06301ffc9a760e01b610dc2565b90612e80612718848385612ed1565b612e8957505050565b6000928392612e9d611ae66113d186611238565b03612eba57637e27328960e01b8352600483015250602481010390fd5b63177e802f60e01b8352610e4791600484016112f3565b90612edf6113d16000611238565b612ee88261038a565b14159283612ef65750505090565b90919250612f038261038a565b612f0c8461038a565b14928315612f41575b508215612f27575b505038808061241a565b612f399192506124aa611ae691611f09565b143880612f1d565b612f4e9193508290611e28565b9138612f1556fea2646970667358221220ade4dccad16e204db7ec1619aff4dbb715d87e1aaa930bd523737e4e1672c8fb64736f6c634300081c0033",
  "linkReferences": {},
  "deployedLinkReferences": {}
}