{
  "_format": "hh-sol-artifact-1",
  "contractName": "FeeVault",
  "sourceName": "src/core/FeeVault.sol",
  "abi": [
    {
      "inputs": [],
      "stateMutability": "nonpayable",
      "type": "constructor"
    },
    {
      "anonymous": false,
      "inputs": [
        {
          "indexed": true,
          "internalType": "address",
          "name": "previousAdmin",
          "type": "address"
        },
        {
          "indexed": true,
          "internalType": "address",
          "name": "newAdmin",
          "type": "address"
        }
      ],
      "name": "AdminChanged",
      "type": "event"
    },
    {
      "anonymous": false,
      "inputs": [
        {
          "indexed": true,
          "internalType": "address",
          "name": "recipient",
          "type": "address"
        },
        {
          "indexed": false,
          "internalType": "uint256",
          "name": "amount",
          "type": "uint256"
        }
      ],
      "name": "FeeWithdrawn",
      "type": "event"
    },
    {
      "inputs": [],
      "name": "PROTOCOL_FEE_PERCENT",
      "outputs": [
        {
          "internalType": "uint256",
          "name": "",
          "type": "uint256"
        }
      ],
      "stateMutability": "view",
      "type": "function"
    },
    {
      "inputs": [],
      "name": "admin",
      "outputs": [
        {
          "internalType": "address",
          "name": "",
          "type": "address"
        }
      ],
      "stateMutability": "view",
      "type": "function"
    },
    {
      "inputs": [],
      "name": "getBalance",
      "outputs": [
        {
          "internalType": "uint256",
          "name": "",
          "type": "uint256"
        }
      ],
      "stateMutability": "view",
      "type": "function"
    },
    {
      "inputs": [
        {
          "internalType": "address",
          "name": "newAdmin",
          "type": "address"
        }
      ],
      "name": "setAdmin",
      "outputs": [],
      "stateMutability": "nonpayable",
      "type": "function"
    },
    {
      "inputs": [
        {
          "internalType": "address",
          "name": "recipient",
          "type": "address"
        },
        {
          "internalType": "uint256",
          "name": "amount",
          "type": "uint256"
        }
      ],
      "name": "withdrawFees",
      "outputs": [],
      "stateMutability": "nonpayable",
      "type": "function"
    },
    {
      "stateMutability": "payable",
      "type": "receive"
    }
  ],
  "bytecode": "0x608060405234601f57600e607f565b60405161072961008b823961072990f35b600080fd5b6036906039906001600160a01b031682565b90565b6001600160a01b031690565b6036906024565b6036906045565b90605f6036607b92604c565b82546001600160a01b0319166001600160a01b03919091161790565b9055565b60883360006053565b56fe6080604052600436101561001b575b361561001957600080fd5b005b60003560e01c806312065fe01461006b5780632982de0d14610066578063704b6c0214610061578063ad3b1b471461005c5763f851a4400361000e576101e6565b61018a565b610137565b6100df565b610086565b600091031261007b57565b600080fd5b9052565b565b3461007b57610096366004610070565b6100b26100a1610233565b6040515b9182918290815260200190565b0390f35b6100c36100c36100c39290565b90565b6100c36702c68af0bb1400006100b6565b6100c36100c6565b3461007b576100ef366004610070565b6100b26100a16100d7565b6001600160a01b031690565b61010f816100fa565b0361007b57565b9050359061008482610106565b9060208282031261007b576100c391610116565b3461007b5761014f61014a366004610123565b6103fb565b604051005b8061010f565b9050359061008482610154565b919060408382031261007b576100c39060206101838286610116565b940161015a565b3461007b5761014f61019d366004610167565b906106e9565b6100c3916008021c6001600160a01b031690565b906100c391546101a3565b6100c36000806101b7565b610080906100fa565b60208101929161008491906101cd565b3461007b576101f6366004610070565b6100b26102016101c2565b604051918291826101d6565b6100c3906100fa906001600160a01b031682565b6100c39061020d565b6100c390610221565b61023c3061022a565b3190565b6100c3906100fa565b6100c39054610240565b6020808252601d908201527f4665655661756c743a2063616c6c6572206973206e6f742061646d696e000000604082015260600190565b1561029157565b60405162461bcd60e51b8152806102aa60048201610253565b0390fd5b610084906102d66102c76102c26000610249565b6100fa565b6102d0336100fa565b1461028a565b610384565b6100fa6100c36100c39290565b6100c3906102db565b60208082526023908201527f4665655661756c743a206e65772061646d696e206973207a65726f206164647260408201526265737360e81b606082015260800190565b1561033b57565b60405162461bcd60e51b8152806102aa600482016102f1565b906103646100c36103809261022a565b82546001600160a01b0319166001600160a01b03919091161790565b9055565b6103a46103946102c260006102e8565b61039d836100fa565b1415610334565b6103ca6103c46103b46000610249565b6103bf846000610354565b61022a565b9161022a565b907f7e644d79422f17c01e4894b5f4f588d331ebfa28653d42ae832dc59e38c9798f6103f560405190565b600090a3565b610084906102ae565b90610084916104196102c76102c26000610249565b61063a565b60208082526023908201527f4665655661756c743a20726563697069656e74206973207a65726f206164647260408201526265737360e81b606082015260800190565b1561046857565b60405162461bcd60e51b8152806102aa6004820161041e565b60208082526027908201527f4665655661756c743a20616d6f756e74206d75737420626520677265617465726040820152660207468616e20360cc1b606082015260800190565b156104cf57565b60405162461bcd60e51b8152806102aa60048201610481565b6020808252601e908201527f4665655661756c743a20696e73756666696369656e742062616c616e63650000604082015260600190565b1561052657565b60405162461bcd60e51b8152806102aa600482016104e8565b634e487b7160e01b600052604160045260246000fd5b90601f01601f1916810190811067ffffffffffffffff82111761057757604052565b61053f565b9061008461058960405190565b9283610555565b67ffffffffffffffff811161057757602090601f01601f19160190565b906105bf6105ba83610590565b61057c565b918252565b3d156105de576105d33d6105ad565b903d6000602084013e565b606090565b60208082526019908201527f4665655661756c743a207472616e73666572206661696c656400000000000000604082015260600190565b1561062157565b60405162461bcd60e51b8152806102aa600482016105e3565b6106e46106da7f78473f3f373f7673597f4f0fa5873cb4d375fea6d4339ad6b56dbd411513cb3f926106826106726102c260006102e8565b61067b836100fa565b1415610461565b61069661068f60006100b6565b86116104c8565b6106ad6106a561023c3061022a565b86111561051f565b6103bf6000806106bc60405190565b806106c6816100c3565b039089865af16106d46105c4565b5061061a565b926100a560405190565b0390a2565b906100849161040456fea2646970667358221220b02824561e4b3ecf28ba3d41e749ba0be3f62e1147b9c983e9d41f847c88ffbe64736f6c634300081c0033",
  "linkReferences": {},
  "deployedLinkReferences": {}
}