{
  "_format": "hh-sol-artifact-1",
  "contractName": "FlipNFT",
  "sourceName": "src/examples/FlipNFT.sol",
  "abi": [
    {
      "inputs": [
        {
          "internalType": "string",
          "name": "_name",
          "type": "string"
        },
        {
          "internalType": "string",
          "name": "_symbol",
          "type": "string"
        },
        {
          "internalType": "uint256",
          "name": "_initialPrice",
          "type": "uint256"
        },
        {
          "internalType": "uint256",
          "name": "_maxSupply",
          "type": "uint256"
        },
        {
          "internalType": "uint256",
          "name": "_creatorFeePercent",
          "type": "uint256"
        }
      ],
      "stateMutability": "nonpayable",
      "type": "constructor"
    },
    {
      "inputs": [],
      "name": "ERC721EnumerableForbiddenBatchMint",
      "type": "error"
    },
    {
      "inputs": [
        {
          "internalType": "address",
          "name": "sender",
          "type": "address"
        },
        {
          "internalType": "uint256",
          "name": "tokenId",
          "type": "uint256"
        },
        {
          "internalType": "address",
          "name": "owner",
          "type": "address"
        }
      ],
      "name": "ERC721IncorrectOwner",
      "type": "error"
    },
    {
      "inputs": [
        {
          "internalType": "address",
          "name": "operator",
          "type": "address"
        },
        {
          "internalType": "uint256",
          "name": "tokenId",
          "type": "uint256"
        }
      ],
      "name": "ERC721InsufficientApproval",
      "type": "error"
    },
    {
      "inputs": [
        {
          "internalType": "address",
          "name": "approver",
          "type": "address"
        }
      ],
      "name": "ERC721InvalidApprover",
      "type": "error"
    },
    {
      "inputs": [
        {
          "internalType": "address",
          "name": "operator",
          "type": "address"
        }
      ],
      "name": "ERC721InvalidOperator",
      "type": "error"
    },
    {
      "inputs": [
        {
          "internalType": "address",
          "name": "owner",
          "type": "address"
        }
      ],
      "name": "ERC721InvalidOwner",
      "type": "error"
    },
    {
      "inputs": [
        {
          "internalType": "address",
          "name": "receiver",
          "type": "address"
        }
      ],
      "name": "ERC721InvalidReceiver",
      "type": "error"
    },
    {
      "inputs": [
        {
          "internalType": "address",
          "name": "sender",
          "type": "address"
        }
      ],
      "name": "ERC721InvalidSender",
      "type": "error"
    },
    {
      "inputs": [
        {
          "internalType": "uint256",
          "name": "tokenId",
          "type": "uint256"
        }
      ],
      "name": "ERC721NonexistentToken",
      "type": "error"
    },
    {
      "inputs": [
        {
          "internalType": "address",
          "name": "owner",
          "type": "address"
        },
        {
          "internalType": "uint256",
          "name": "index",
          "type": "uint256"
        }
      ],
      "name": "ERC721OutOfBoundsIndex",
      "type": "error"
    },
    {
      "inputs": [
        {
          "internalType": "address",
          "name": "owner",
          "type": "address"
        }
      ],
      "name": "OwnableInvalidOwner",
      "type": "error"
    },
    {
      "inputs": [
        {
          "internalType": "address",
          "name": "account",
          "type": "address"
        }
      ],
      "name": "OwnableUnauthorizedAccount",
      "type": "error"
    },
    {
      "anonymous": false,
      "inputs": [
        {
          "indexed": true,
          "internalType": "address",
          "name": "owner",
          "type": "address"
        },
        {
          "indexed": true,
          "internalType": "address",
          "name": "approved",
          "type": "address"
        },
        {
          "indexed": true,
          "internalType": "uint256",
          "name": "tokenId",
          "type": "uint256"
        }
      ],
      "name": "Approval",
      "type": "event"
    },
    {
      "anonymous": false,
      "inputs": [
        {
          "indexed": true,
          "internalType": "address",
          "name": "owner",
          "type": "address"
        },
        {
          "indexed": true,
          "internalType": "address",
          "name": "operator",
          "type": "address"
        },
        {
          "indexed": false,
          "internalType": "bool",
          "name": "approved",
          "type": "bool"
        }
      ],
      "name": "ApprovalForAll",
      "type": "event"
    },
    {
      "anonymous": false,
      "inputs": [
        {
          "indexed": true,
          "internalType": "address",
          "name": "previousOwner",
          "type": "address"
        },
        {
          "indexed": true,
          "internalType": "address",
          "name": "newOwner",
          "type": "address"
        }
      ],
      "name": "OwnershipTransferred",
      "type": "event"
    },
    {
      "anonymous": false,
      "inputs": [
        {
          "indexed": true,
          "internalType": "address",
          "name": "buyer",
          "type": "address"
        },
        {
          "indexed": true,
          "internalType": "uint256",
          "name": "tokenId",
          "type": "uint256"
        },
        {
          "indexed": false,
          "internalType": "uint256",
          "name": "price",
          "type": "uint256"
        },
        {
          "indexed": false,
          "internalType": "uint256",
          "name": "creatorFee",
          "type": "uint256"
        }
      ],
      "name": "TokenBought",
      "type": "event"
    },
    {
      "anonymous": false,
      "inputs": [
        {
          "indexed": true,
          "internalType": "address",
          "name": "to",
          "type": "address"
        },
        {
          "indexed": true,
          "internalType": "uint256",
          "name": "tokenId",
          "type": "uint256"
        },
        {
          "indexed": false,
          "internalType": "uint256",
          "name": "price",
          "type": "uint256"
        },
        {
          "indexed": false,
          "internalType": "uint256",
          "name": "creatorFee",
          "type": "uint256"
        }
      ],
      "name": "TokenMinted",
      "type": "event"
    },
    {
      "anonymous": false,
      "inputs": [
        {
          "indexed": true,
          "internalType": "address",
          "name": "seller",
          "type": "address"
        },
        {
          "indexed": true,
          "internalType": "uint256",
          "name": "tokenId",
          "type": "uint256"
        },
        {
          "indexed": false,
          "internalType": "uint256",
          "name": "price",
          "type": "uint256"
        },
        {
          "indexed": false,
          "internalType": "uint256",
          "name": "creatorFee",
          "type": "uint256"
        }
      ],
      "name": "TokenSold",
      "type": "event"
    },
    {
      "anonymous": false,
      "inputs": [
        {
          "indexed": true,
          "internalType": "address",
          "name": "from",
          "type": "address"
        },
        {
          "indexed": true,
          "internalType": "address",
          "name": "to",
          "type": "address"
        },
        {
          "indexed": true,
          "internalType": "uint256",
          "name": "tokenId",
          "type": "uint256"
        }
      ],
      "name": "Transfer",
      "type": "event"
    },
    {
      "inputs": [
        {
          "internalType": "address",
          "name": "to",
          "type": "address"
        },
        {
          "internalType": "uint256",
          "name": "tokenId",
          "type": "uint256"
        }
      ],
      "name": "approve",
      "outputs": [],
      "stateMutability": "nonpayable",
      "type": "function"
    },
    {
      "inputs": [
        {
          "internalType": "uint256",
          "name": "",
          "type": "uint256"
        }
      ],
      "name": "availableTokens",
      "outputs": [
        {
          "internalType": "uint256",
          "name": "",
          "type": "uint256"
        }
      ],
      "stateMutability": "view",
      "type": "function"
    },
    {
      "inputs": [
        {
          "internalType": "address",
          "name": "owner",
          "type": "address"
        }
      ],
      "name": "balanceOf",
      "outputs": [
        {
          "internalType": "uint256",
          "name": "",
          "type": "uint256"
        }
      ],
      "stateMutability": "view",
      "type": "function"
    },
    {
      "inputs": [],
      "name": "baseURI",
      "outputs": [
        {
          "internalType": "string",
          "name": "",
          "type": "string"
        }
      ],
      "stateMutability": "view",
      "type": "function"
    },
    {
      "inputs": [
        {
          "internalType": "uint256",
          "name": "tokenId",
          "type": "uint256"
        }
      ],
      "name": "buy",
      "outputs": [],
      "stateMutability": "payable",
      "type": "function"
    },
    {
      "inputs": [
        {
          "internalType": "uint256",
          "name": "supply",
          "type": "uint256"
        }
      ],
      "name": "calculatePrice",
      "outputs": [
        {
          "internalType": "uint256",
          "name": "",
          "type": "uint256"
        }
      ],
      "stateMutability": "view",
      "type": "function"
    },
    {
      "inputs": [],
      "name": "creator",
      "outputs": [
        {
          "internalType": "address",
          "name": "",
          "type": "address"
        }
      ],
      "stateMutability": "view",
      "type": "function"
    },
    {
      "inputs": [],
      "name": "creatorFeePercent",
      "outputs": [
        {
          "internalType": "uint256",
          "name": "",
          "type": "uint256"
        }
      ],
      "stateMutability": "view",
      "type": "function"
    },
    {
      "inputs": [],
      "name": "currentSupply",
      "outputs": [
        {
          "internalType": "uint256",
          "name": "",
          "type": "uint256"
        }
      ],
      "stateMutability": "view",
      "type": "function"
    },
    {
      "inputs": [],
      "name": "description",
      "outputs": [
        {
          "internalType": "string",
          "name": "",
          "type": "string"
        }
      ],
      "stateMutability": "view",
      "type": "function"
    },
    {
      "inputs": [],
      "name": "getAllAvailableTokens",
      "outputs": [
        {
          "internalType": "uint256[]",
          "name": "",
          "type": "uint256[]"
        }
      ],
      "stateMutability": "view",
      "type": "function"
    },
    {
      "inputs": [
        {
          "internalType": "uint256",
          "name": "tokenId",
          "type": "uint256"
        }
      ],
      "name": "getApproved",
      "outputs": [
        {
          "internalType": "address",
          "name": "",
          "type": "address"
        }
      ],
      "stateMutability": "view",
      "type": "function"
    },
    {
      "inputs": [
        {
          "internalType": "uint256",
          "name": "index",
          "type": "uint256"
        }
      ],
      "name": "getAvailableTokenByIndex",
      "outputs": [
        {
          "internalType": "uint256",
          "name": "",
          "type": "uint256"
        }
      ],
      "stateMutability": "view",
      "type": "function"
    },
    {
      "inputs": [],
      "name": "getAvailableTokensCount",
      "outputs": [
        {
          "internalType": "uint256",
          "name": "",
          "type": "uint256"
        }
      ],
      "stateMutability": "view",
      "type": "function"
    },
    {
      "inputs": [
        {
          "internalType": "uint256",
          "name": "start",
          "type": "uint256"
        },
        {
          "internalType": "uint256",
          "name": "limit",
          "type": "uint256"
        }
      ],
      "name": "getAvailableTokensPaginated",
      "outputs": [
        {
          "internalType": "uint256[]",
          "name": "",
          "type": "uint256[]"
        }
      ],
      "stateMutability": "view",
      "type": "function"
    },
    {
      "inputs": [],
      "name": "getBuyPrice",
      "outputs": [
        {
          "internalType": "uint256",
          "name": "",
          "type": "uint256"
        }
      ],
      "stateMutability": "view",
      "type": "function"
    },
    {
      "inputs": [],
      "name": "getBuyPriceAfterFee",
      "outputs": [
        {
          "internalType": "uint256",
          "name": "",
          "type": "uint256"
        }
      ],
      "stateMutability": "view",
      "type": "function"
    },
    {
      "inputs": [],
      "name": "getSellPrice",
      "outputs": [
        {
          "internalType": "uint256",
          "name": "",
          "type": "uint256"
        }
      ],
      "stateMutability": "view",
      "type": "function"
    },
    {
      "inputs": [],
      "name": "getSellPriceAfterFee",
      "outputs": [
        {
          "internalType": "uint256",
          "name": "",
          "type": "uint256"
        }
      ],
      "stateMutability": "view",
      "type": "function"
    },
    {
      "inputs": [],
      "name": "initialPrice",
      "outputs": [
        {
          "internalType": "uint256",
          "name": "",
          "type": "uint256"
        }
      ],
      "stateMutability": "view",
      "type": "function"
    },
    {
      "inputs": [
        {
          "internalType": "address",
          "name": "owner",
          "type": "address"
        },
        {
          "internalType": "address",
          "name": "operator",
          "type": "address"
        }
      ],
      "name": "isApprovedForAll",
      "outputs": [
        {
          "internalType": "bool",
          "name": "",
          "type": "bool"
        }
      ],
      "stateMutability": "view",
      "type": "function"
    },
    {
      "inputs": [
        {
          "internalType": "uint256",
          "name": "tokenId",
          "type": "uint256"
        }
      ],
      "name": "isOnSale",
      "outputs": [
        {
          "internalType": "bool",
          "name": "",
          "type": "bool"
        }
      ],
      "stateMutability": "view",
      "type": "function"
    },
    {
      "inputs": [],
      "name": "maxSupply",
      "outputs": [
        {
          "internalType": "uint256",
          "name": "",
          "type": "uint256"
        }
      ],
      "stateMutability": "view",
      "type": "function"
    },
    {
      "inputs": [],
      "name": "mint",
      "outputs": [
        {
          "internalType": "uint256",
          "name": "",
          "type": "uint256"
        }
      ],
      "stateMutability": "payable",
      "type": "function"
    },
    {
      "inputs": [],
      "name": "name",
      "outputs": [
        {
          "internalType": "string",
          "name": "",
          "type": "string"
        }
      ],
      "stateMutability": "view",
      "type": "function"
    },
    {
      "inputs": [
        {
          "internalType": "address",
          "name": "",
          "type": "address"
        },
        {
          "internalType": "address",
          "name": "",
          "type": "address"
        },
        {
          "internalType": "uint256",
          "name": "",
          "type": "uint256"
        },
        {
          "internalType": "bytes",
          "name": "",
          "type": "bytes"
        }
      ],
      "name": "onERC721Received",
      "outputs": [
        {
          "internalType": "bytes4",
          "name": "",
          "type": "bytes4"
        }
      ],
      "stateMutability": "nonpayable",
      "type": "function"
    },
    {
      "inputs": [],
      "name": "owner",
      "outputs": [
        {
          "internalType": "address",
          "name": "",
          "type": "address"
        }
      ],
      "stateMutability": "view",
      "type": "function"
    },
    {
      "inputs": [
        {
          "internalType": "uint256",
          "name": "tokenId",
          "type": "uint256"
        }
      ],
      "name": "ownerOf",
      "outputs": [
        {
          "internalType": "address",
          "name": "",
          "type": "address"
        }
      ],
      "stateMutability": "view",
      "type": "function"
    },
    {
      "inputs": [],
      "name": "renounceOwnership",
      "outputs": [],
      "stateMutability": "nonpayable",
      "type": "function"
    },
    {
      "inputs": [
        {
          "internalType": "address",
          "name": "from",
          "type": "address"
        },
        {
          "internalType": "address",
          "name": "to",
          "type": "address"
        },
        {
          "internalType": "uint256",
          "name": "tokenId",
          "type": "uint256"
        }
      ],
      "name": "safeTransferFrom",
      "outputs": [],
      "stateMutability": "nonpayable",
      "type": "function"
    },
    {
      "inputs": [
        {
          "internalType": "address",
          "name": "from",
          "type": "address"
        },
        {
          "internalType": "address",
          "name": "to",
          "type": "address"
        },
        {
          "internalType": "uint256",
          "name": "tokenId",
          "type": "uint256"
        },
        {
          "internalType": "bytes",
          "name": "data",
          "type": "bytes"
        }
      ],
      "name": "safeTransferFrom",
      "outputs": [],
      "stateMutability": "nonpayable",
      "type": "function"
    },
    {
      "inputs": [
        {
          "internalType": "uint256",
          "name": "tokenId",
          "type": "uint256"
        }
      ],
      "name": "sell",
      "outputs": [],
      "stateMutability": "nonpayable",
      "type": "function"
    },
    {
      "inputs": [
        {
          "internalType": "address",
          "name": "operator",
          "type": "address"
        },
        {
          "internalType": "bool",
          "name": "approved",
          "type": "bool"
        }
      ],
      "name": "setApprovalForAll",
      "outputs": [],
      "stateMutability": "nonpayable",
      "type": "function"
    },
    {
      "inputs": [
        {
          "internalType": "string",
          "name": "_baseURI",
          "type": "string"
        }
      ],
      "name": "setBaseURI",
      "outputs": [],
      "stateMutability": "nonpayable",
      "type": "function"
    },
    {
      "inputs": [
        {
          "internalType": "address",
          "name": "_creator",
          "type": "address"
        }
      ],
      "name": "setCreator",
      "outputs": [],
      "stateMutability": "nonpayable",
      "type": "function"
    },
    {
      "inputs": [
        {
          "internalType": "string",
          "name": "_description",
          "type": "string"
        }
      ],
      "name": "setDescription",
      "outputs": [],
      "stateMutability": "nonpayable",
      "type": "function"
    },
    {
      "inputs": [
        {
          "internalType": "bytes4",
          "name": "interfaceId",
          "type": "bytes4"
        }
      ],
      "name": "supportsInterface",
      "outputs": [
        {
          "internalType": "bool",
          "name": "",
          "type": "bool"
        }
      ],
      "stateMutability": "view",
      "type": "function"
    },
    {
      "inputs": [],
      "name": "symbol",
      "outputs": [
        {
          "internalType": "string",
          "name": "",
          "type": "string"
        }
      ],
      "stateMutability": "view",
      "type": "function"
    },
    {
      "inputs": [
        {
          "internalType": "uint256",
          "name": "index",
          "type": "uint256"
        }
      ],
      "name": "tokenByIndex",
      "outputs": [
        {
          "internalType": "uint256",
          "name": "",
          "type": "uint256"
        }
      ],
      "stateMutability": "view",
      "type": "function"
    },
    {
      "inputs": [
        {
          "internalType": "uint256",
          "name": "",
          "type": "uint256"
        }
      ],
      "name": "tokenIndex",
      "outputs": [
        {
          "internalType": "uint256",
          "name": "",
          "type": "uint256"
        }
      ],
      "stateMutability": "view",
      "type": "function"
    },
    {
      "inputs": [
        {
          "internalType": "address",
          "name": "owner",
          "type": "address"
        },
        {
          "internalType": "uint256",
          "name": "index",
          "type": "uint256"
        }
      ],
      "name": "tokenOfOwnerByIndex",
      "outputs": [
        {
          "internalType": "uint256",
          "name": "",
          "type": "uint256"
        }
      ],
      "stateMutability": "view",
      "type": "function"
    },
    {
      "inputs": [
        {
          "internalType": "uint256",
          "name": "",
          "type": "uint256"
        }
      ],
      "name": "tokenSeed",
      "outputs": [
        {
          "internalType": "uint256",
          "name": "",
          "type": "uint256"
        }
      ],
      "stateMutability": "view",
      "type": "function"
    },
    {
      "inputs": [
        {
          "internalType": "uint256",
          "name": "tokenId",
          "type": "uint256"
        }
      ],
      "name": "tokenURI",
      "outputs": [
        {
          "internalType": "string",
          "name": "",
          "type": "string"
        }
      ],
      "stateMutability": "view",
      "type": "function"
    },
    {
      "inputs": [],
      "name": "totalSupply",
      "outputs": [
        {
          "internalType": "uint256",
          "name": "",
          "type": "uint256"
        }
      ],
      "stateMutability": "view",
      "type": "function"
    },
    {
      "inputs": [
        {
          "internalType": "address",
          "name": "from",
          "type": "address"
        },
        {
          "internalType": "address",
          "name": "to",
          "type": "address"
        },
        {
          "internalType": "uint256",
          "name": "tokenId",
          "type": "uint256"
        }
      ],
      "name": "transferFrom",
      "outputs": [],
      "stateMutability": "nonpayable",
      "type": "function"
    },
    {
      "inputs": [
        {
          "internalType": "address",
          "name": "newOwner",
          "type": "address"
        }
      ],
      "name": "transferOwnership",
      "outputs": [],
      "stateMutability": "nonpayable",
      "type": "function"
    },
    {
      "stateMutability": "payable",
      "type": "receive"
    }
  ],
  "bytecode": "0x60806040523461002e5761001d610014610171565b93929092610196565b604051613e46610bbd8239613e4690f35b600080fd5b634e487b7160e01b600052604160045260246000fd5b90601f01601f191681019081106001600160401b0382111761006a57604052565b610033565b9061008361007c60405190565b9283610049565b565b6001600160401b03811161006a57602090601f01601f19160190565b60005b8381106100b45750506000910152565b81810151838201526020016100a4565b909291926100d96100d482610085565b61006f565b938185528183011161002e576100839160208501906100a1565b9080601f8301121561002e57815161010d926020016100c4565b90565b919060a08382031261002e5782516001600160401b03811161002e57816101389185016100f3565b60208401519093906001600160401b03811161002e578261015a9183016100f3565b604082015160608301516080909301519194909350565b61018f614a03803803806101848161006f565b928339810190610110565b9091929394565b906100839493929161089b565b6001600160401b03811161006a5760200290565b6100d461010d916101a3565b906101d06100d483610085565b918252565b6101df60076101c3565b660233030303030360cc1b602082015290565b61010d6101d5565b61020460076101c3565b6611a3232323232360c91b602082015290565b61010d6101fa565b61022960076101c3565b660234646303030360cc1b602082015290565b61010d61021f565b61024e60076101c3565b660233030464630360cc1b602082015290565b61010d610244565b61027360076101c3565b661198181818232360c91b602082015290565b61010d610269565b61029860076101c3565b660234646464630360cc1b602082015290565b61010d61028e565b6102bd60076101c3565b6611a3231818232360c91b602082015290565b61010d6102b3565b6102e260076101c3565b661198182323232360c91b602082015290565b61010d6102d8565b61030760076101c3565b660234646413530360cc1b602082015290565b61010d6102fd565b61032c60076101c3565b660233830303038360cc1b602082015290565b61010d610322565b61035160076101c3565b660233030383030360cc1b602082015290565b61010d610347565b61037660076101c3565b660233830303030360cc1b602082015290565b61010d61036c565b61039b60076101c3565b660233830383030360cc1b602082015290565b61010d610391565b6103c060076101c3565b660233030383038360cc1b602082015290565b61010d6103b6565b6103e560076101c3565b660234330433043360cc1b602082015290565b61010d6103db565b61040a60076101c3565b660233830383038360cc1b602082015290565b61010d610400565b634e487b7160e01b600052600060045260246000fd5b634e487b7160e01b600052602260045260246000fd5b9060016002830492168015610471575b602083101461046c57565b61043b565b91607f1691610461565b9061048e90600019906020036008021c90565b8154169055565b9160001960089290920291821b911b5b9181191691161790565b61010d61010d61010d9290565b91906104cd61010d6104d5936104af565b908354610495565b9055565b610083916000916104bc565b8181106104f0575050565b806104fe60006001936104d9565b016104e5565b9060009161052f61051a82600052602060002090565b928354600019600883021c1916906002021790565b905555565b919290602082101561059957601f8411600114610563576104d5929350600019600883021c1916906002021790565b509061059461008393600161058b61058085600052602060002090565b92601f602091010490565b820191016104e5565b610504565b506105d982936105b0600194600052602060002090565b6105d26020601f860104820192601f8616806105e1575b50601f602091010490565b01906104e5565b600202179055565b6105ed9088860361047b565b386105c7565b92909168010000000000000000821161006a576020111561064c57602081101561062d576104d591600019600883021c1916906002021790565b60019160ff191661064384600052602060002090565b55600202019055565b60019150600202019055565b90815461066481610451565b9081831161068d575b81831061067b575b50505050565b61068493610534565b38808080610675565b610699838383876105f3565b61066d565b600061008391610658565b906000036106ba576100839061069e565b610425565b8181106106ca575050565b806106d860006001936106a9565b016106bf565b9190918282106106ed57505050565b6100839291906106fc565b9190565b91820191016106bf565b9068010000000000000000811161006a57610083916010906106de565b9190601f811161073257505050565b61074461008393600052602060002090565b906020601f840181900483019310610764575b6020601f909101046105d2565b9091508190610757565b90610777815190565b906001600160401b03821161006a5761079a826107948554610451565b85610723565b602090601f83116001146107d5576104d59291600091836107ca575b5050600019600883021c1916906002021790565b0151905038806107b6565b601f198316916107ea85600052602060002090565b9260005b8181106108285750916002939185600196941061080f575b50505002019055565b01516000196008601f8516021c19169055388080610806565b919360206001819287870151815501950192016107ee565b906100839161076e565b61085d6106f860109361010d8585610706565b6000915b83831061086e5750505050565b600160208261088561087f84955190565b86610840565b01920192019190610861565b906100839161084a565b906108a8949392916109e1565b6100836108b560106101b7565b6108c46108c06101f2565b8252565b6108d66108cf610217565b6020830152565b6108e86108e161023c565b6040830152565b6108fa6108f3610261565b6060830152565b61090c610905610286565b6080830152565b61091e6109176102ab565b60a0830152565b6109306109296102d0565b60c0830152565b61094261093b6102f5565b60e0830152565b61095561094d61031a565b610100830152565b61096861096061033f565b610120830152565b61097b610973610364565b610140830152565b61098e610986610389565b610160830152565b6109a16109996103ae565b610180830152565b6109b46109ac6103d3565b6101a0830152565b6109c76109bf6103f8565b6101c0830152565b6109da6109d261041d565b6101e0830152565b6015610891565b610083948594859433929190610a6b565b90600019906104a5565b90610a0c61010d6104d5926104af565b82546109f2565b906001600160a01b03906104a5565b61010d90610a36906001600160a01b031682565b6001600160a01b031690565b61010d90610a22565b61010d90610a42565b90610a6461010d6104d592610a4b565b8254610a13565b610a81610a9696610a88939496610a8f96610aa1565b600b6109fc565b600c6109fc565b600d6109fc565b61008333600e610a54565b906100839291610adf565b610a3661010d61010d9290565b61010d90610aac565b610acb90610a36565b9052565b6020810192916100839190610ac2565b91610ae991610b33565b6000610af481610ab9565b610afd81610a36565b610b0684610a36565b14610b1657505061008390610b65565b631e4fbdf760e01b82528190610b2f9060048301610acf565b0390fd5b61008391829182918291829190610b4b906000610840565b6001610840565b61010d90610a36565b61010d9054610b52565b610b8b610b85610b75600a610b5b565b610b8084600a610a54565b610a4b565b91610a4b565b907f8be0079c531659141344cd1fd0a4f28419497f9722a3daafe3b4186f6b6457e0610bb660405190565b600090a356fe6080604052600436101561001b575b361561001957600080fd5b005b60003560e01c8063018a25e8146102fb57806301ffc9a7146102f657806302d05d3f146102f15780630583e9f8146102ec57806306fdde03146102e7578063081812fc146102e2578063095ea7b3146102dd5780631249c58b146102d857806312ea5c7e146102d3578063150b7a02146102ce57806318160ddd146102c95780631d0806ae146102c457806321a1c184146102bf57806323b872dd146102ba5780632dcd52f2146102b55780632f745c59146102b05780633f516018146102ab57806342842e0e146102a657806343d32e9c146102a15780634a8fe6501461029c5780634f6ccce71461029757806353613dd31461029257806355f804b31461028d5780635eba096b146102885780635f516836146102835780636352211e1461027e5780636c0360eb1461027957806370a0823114610274578063715018a61461026f5780637284e4161461026a578063771282f6146102655780638da5cb5b1461026057806390c3f38f1461025b57806395d89b4114610256578063a22cb46514610251578063ad64d0681461024c578063ae10426514610247578063b88d4fde14610242578063c87b56dd1461023d578063cf6a68bf14610238578063d5abeb0114610233578063d96a094a1461022e578063e4849b3214610229578063e985e9c514610224578063f0f2805f1461021f5763f2fde38b0361000e57610de2565b610dc7565b610dab565b610d70565b610d5d565b610d42565b610d1b565b610d00565b610ce4565b610cc9565b610cae565b610c39565b610be6565b610bce565b610bb3565b610b98565b610b71565b610b4d565b610b32565b610b17565b6109d5565b6109ba565b61098e565b61095a565b610919565b6108f2565b6108d7565b6108bc565b6108a3565b61088b565b61085b565b61083f565b610826565b6107e2565b6107c7565b61079f565b610765565b61062a565b6105ad565b61058f565b61053b565b610514565b61048d565b6103ef565b61037c565b610316565b600091031261030b57565b600080fd5b9052565b565b3461030b57610326366004610300565b610341610331610e0b565b6040519182918290815260200190565b0390f35b6001600160e01b031981165b0361030b57565b9050359061031482610345565b9060208282031261030b5761037991610358565b90565b3461030b57610341610397610392366004610365565b610e18565b6040515b91829182901515815260200190565b610379916008021c5b6001600160a01b031690565b9061037991546103aa565b6103796000600e6103bf565b610310906103b3565b60208101929161031491906103d6565b3461030b576103ff366004610300565b61034161040a6103ca565b604051918291826103df565b80610351565b9050359061031482610416565b9060208282031261030b576103799161041c565b6103796103796103799290565b906104549061043d565b600052602052604060002090565b610379916008021c81565b906103799154610462565b600061048861037992601161044a565b61046d565b3461030b576103416103316104a3366004610429565b610478565b60005b8381106104bb5750506000910152565b81810151838201526020016104ab565b6104ec6104f56020936104ff936104e0815190565b80835293849260200190565b958691016104a8565b601f01601f191690565b0190565b6020808252610379929101906104cb565b3461030b57610524366004610300565b61034161052f610e55565b60405191829182610503565b3461030b5761034161040a610551366004610429565b610e5f565b610351816103b3565b9050359061031482610556565b919060408382031261030b57610379906020610588828661055f565b940161041c565b3461030b576105a86105a236600461056c565b90610e72565b604051005b6105b8366004610300565b610341610331610ed0565b906105e36105dc6105d2845190565b8084529260200190565b9260200190565b9060005b8181106105f45750505090565b90919261061161060a6001928651815260200190565b9460200190565b9291016105e7565b6020808252610379929101906105c3565b3461030b5761063a366004610300565b610341610645610f8f565b60405191829182610619565b634e487b7160e01b600052604160045260246000fd5b90601f01601f1916810190811067ffffffffffffffff82111761068957604052565b610651565b9061031461069b60405190565b9283610667565b67ffffffffffffffff811161068957602090601f01601f19160190565b90826000939282370152565b909291926106e06106db826106a2565b61068e565b938185528183011161030b576103149160208501906106bf565b9080601f8301121561030b57816020610379933591016106cb565b9060808282031261030b5761072a818361055f565b92610738826020850161055f565b92610746836040830161041c565b92606082013567ffffffffffffffff811161030b5761037992016106fa565b3461030b5761034161078461077b366004610715565b92919091610fdc565b604051918291826001600160e01b0319909116815260200190565b3461030b576107af366004610300565b61034161033160085490565b6103796000600b61046d565b3461030b576107d7366004610300565b6103416103316107bb565b3461030b576107f2366004610300565b610341610331611046565b909160608284031261030b57610379610816848461055f565b936040610588826020870161055f565b3461030b576105a86108393660046107fd565b916110c8565b3461030b5761084f366004610300565b61034161033160105490565b3461030b5761034161033161087136600461056c565b90611182565b9060208282031261030b576103799161055f565b3461030b576105a861089e366004610877565b611298565b3461030b576105a86108b63660046107fd565b916112c5565b3461030b576108cc366004610300565b6103416103316112d9565b3461030b576108e7366004610300565b61034161033161131d565b3461030b57610341610331610908366004610429565b611338565b6103796000600d61046d565b3461030b57610929366004610300565b61034161033161090d565b9060208282031261030b57813567ffffffffffffffff811161030b5761037992016106fa565b3461030b576105a861096d366004610934565b611524565b919060408382031261030b57610379906020610588828661041c565b3461030b576103416106456109a4366004610972565b906115e0565b600061048861037992601461044a565b3461030b576103416103316109d0366004610429565b6109aa565b3461030b5761034161040a6109eb366004610429565b61166f565b634e487b7160e01b600052600060045260246000fd5b634e487b7160e01b600052602260045260246000fd5b9060016002830492168015610a3c575b6020831014610a3757565b610a06565b91607f1691610a2c565b80546000939291610a63610a5983610a1c565b8085529360200190565b9160018116908115610ab55750600114610a7c57505050565b610a8f9192939450600052602060002090565b916000925b818410610aa15750500190565b805484840152602090930192600101610a94565b92949550505060ff1916825215156020020190565b9061037991610a46565b90610314610aee92610ae560405190565b93848092610aca565b0383610667565b90600010610b065761037990610ad4565b6109f0565b61037960006012610af5565b3461030b57610b27366004610300565b61034161052f610b0b565b3461030b57610341610331610b48366004610877565b611678565b3461030b57610b5d366004610300565b6105a86116e0565b61037960006013610af5565b3461030b57610b81366004610300565b61034161052f610b65565b6103796000600f61046d565b3461030b57610ba8366004610300565b610341610331610b8c565b3461030b57610bc3366004610300565b61034161040a6116e8565b3461030b576105a8610be1366004610934565b611711565b3461030b57610bf6366004610300565b61034161052f61171a565b801515610351565b9050359061031482610c01565b919060408382031261030b57610379906020610c32828661055f565b9401610c09565b3461030b576105a8610c4c366004610c16565b90611724565b634e487b7160e01b600052603260045260246000fd5b8054821015610c8b57610c82600191600052602060002090565b91020190600090565b610c52565b60105481101561030b57610ca8610379916010610c68565b9061046d565b3461030b57610341610331610cc4366004610429565b610c90565b3461030b57610341610331610cdf366004610429565b61172f565b3461030b576105a8610cf7366004610715565b929190916117c0565b3461030b5761034161052f610d16366004610429565b6118c6565b3461030b57610341610331610d31366004610429565b61197f565b6103796000600c61046d565b3461030b57610d52366004610300565b610341610331610d36565b6105a8610d6b366004610429565b611bc3565b3461030b576105a8610d83366004610429565b611dcf565b919060408382031261030b57610379906020610da4828661055f565b940161055f565b3461030b57610341610397610dc1366004610d88565b90611ded565b3461030b57610341610397610ddd366004610429565b611e12565b3461030b576105a8610df5366004610877565b611e7c565b6103799081565b6103799054610dfa565b610379610cdf600f610e01565b610e2181611e85565b908115610e2c575090565b9050610e48632fa757f360e01b5b916001600160e01b03191690565b1490565b61037990610ad4565b6103796000610e4c565b61037990610e6c81611e8e565b50611ece565b610314913391611eea565b634e487b7160e01b600052601160045260246000fd5b91908201809211610ea057565b610e7d565b90600019905b9181191691161790565b90610ec5610379610ecc9261043d565b8254610ea5565b9055565b610eec610edc60085490565b610ee6600161043d565b90610e93565b610ef4611f38565b50610379610f0382601461044a565b4290610eb5565b90610f25610f196105d2845490565b92600052602060002090565b9060005b818110610f365750505090565b909192610f5a610f53600192610f4b87610e01565b815260200190565b9460010190565b929101610f29565b9061037991610f0a565b90610314610aee92610f7d60405190565b93848092610f62565b61037990610f6c565b6103796010610f86565b610379906103b3906001600160a01b031682565b61037990610f99565b610fcf610fc96103799263ffffffff1690565b60e01b90565b6001600160e01b03191690565b50505050610fe8600090565b5061037963150b7a02610fb6565b81810292918115918404141715610ea057565b634e487b7160e01b600052601260045260246000fd5b90611029565b9190565b908115611034570490565b611009565b91908203918211610ea057565b6103796110516112d9565b61107e611067611061600d610e01565b83610ff6565b611078670de0b6b3a764000061043d565b9061101f565b90611039565b6103b36103796103799290565b61037990611084565b6040906110c161031494969593966110ba606084019860008501906103d6565b6020830152565b01906103d6565b90916000926110d684611091565b6110df816103b3565b6110e8836103b3565b1461113757506110fa90823391611ff2565b91611104816103b3565b61110d846103b3565b036111185750505050565b6364283d7b60e01b845283926111339290916004850161109a565b0390fd5b846111338192633250574960e11b8352600483016103df565b91602061031492949361116b604082019660008301906103d6565b0152565b61037990610fad565b906104549061116f565b61118e61037982611678565b8210156111b157610379916111a76111ac926006611178565b61044a565b610e01565b63295f44f760e21b6000908152916111ca916004611150565b036000fd5b610379906103b3565b61037990546111cf565b156111e957565b60405162461bcd60e51b815260206004820152602360248201527f4f6e6c792063726561746f722063616e2063616c6c20746869732066756e637460448201526234b7b760e91b6064820152608490fd5b6103149061126261125361124e600e6111d8565b6103b3565b61125c336103b3565b146111e2565b61128d565b906001600160a01b0390610eab565b90611286610379610ecc9261116f565b8254611267565b61031490600e611276565b6103149061123a565b906112ae6106db836106a2565b918252565b61037960006112a1565b6103796112b3565b9091610314926112d36112bd565b926117c0565b6112e3600f610e01565b6112f0611025600061043d565b111561131057610379610cdf611306600f610e01565b61107e600161043d565b610379610cdf600061043d565b610379611328610e0b565b610ee6611067611061600d610e01565b61134461037960085490565b81101561135957610ca8610379916008610c68565b61113390600091829161136b83611091565b63295f44f760e21b845260048401611150565b6103149061139261125361124e600e6111d8565b611519565b9160001960089290920291821b911b610eab565b91906113bc610379610ecc9361043d565b908354611397565b610314916000916113ab565b8181106113db575050565b806113e960006001936113c4565b016113d0565b9190601f81116113fe57505050565b61141061031493600052602060002090565b906020601f840181900483019310611432575b6020601f9091010401906113d0565b9091508190611423565b90611445815190565b9067ffffffffffffffff821161068957611469826114638554610a1c565b856113ef565b602090601f83116001146114a457610ecc929160009183611499575b5050600019600883021c1916906002021790565b015190503880611485565b601f198316916114b985600052602060002090565b9260005b8181106114f7575091600293918560019694106114de575b50505002019055565b01516000196008601f8516021c191690553880806114d5565b919360206001819287870151815501950192016114bd565b906103149161143c565b61031490601261150f565b6103149061137e565b1561153457565b60405162461bcd60e51b815260206004820152601960248201527f537461727420696e646578206f7574206f6620626f756e6473000000000000006044820152606490fd5b67ffffffffffffffff81116106895760208091020190565b906112ae6106db83611579565b369037565b906103146115b96115b384611591565b93611579565b601f19016020840161159e565b906115cf825190565b811015610c8b576020809102010190565b9161160d6116056010936115ff6115f8610379875490565b871061152d565b85610e93565b835490611ffd565b9161162061161b8585611039565b6115a3565b91845b845b8110156116665761165f81611659611643610ca86116259588610c68565b6116566116508b85611039565b896115c6565b52565b60010190565b9050611623565b50935050905090565b61037990611e8e565b600061168381611091565b61168c816103b3565b611695846103b3565b146116aa5750506111ac610379916003611178565b6322718ad960e21b8252819061113390600483016103df565b6116cb61200f565b6103146103146116db6000611091565b612046565b6103146116c3565b610379600a6111d8565b6103149061170661125361124e600e6111d8565b61031490601361150f565b610314906116f2565b6103796001610e4c565b6103149190336120bf565b611739600061043d565b81146117b55761037990610ee6611750600b610e01565b916117776117a06117966117966117a561177d61176d600b610e01565b611777600261043d565b90610ff6565b6117776117a061179689611791606461043d565b610ff6565b611078600c610e01565b612183565b946117918161179161271061043d565b50610379600b610e01565b906103149392916117d28383836110c8565b6122dd565b01918252565b6103799061043d565b6104ff6117fe926020926117f8815190565b94859290565b938491016104a8565b7f7b226465736372697074696f6e223a2022466c69704e4654206973207468652081527f666972737420426f6e64696e67204375727665204e46542e222c2022696d616760208201527f65223a2022646174613a696d6167652f7376672b786d6c3b6261736536342c0060408201526103799161188891605f015b906117e6565b61227d60f01b815260020190565b7f646174613a6170706c69636174696f6e2f6a736f6e3b6261736536342c00000081526103799190601d01611882565b61196361194261037961194761194261037961193d611919611925610379996118ed606090565b506118fc6111ac82601461044a565b6040519384926020840192836020816117d76104ff938396959052565b90810382520382610667565b611937611930825190565b9160200190565b206117dd565b61257e565b612821565b61037961195360405190565b8092611919602083019182611807565b61037961196f60405190565b8092611919602083019182611896565b610ca86103799161198e600090565b506010610c68565b1561199d57565b60405162461bcd60e51b815260206004820152601f60248201527f546f6b656e206973206e6f7420617661696c61626c6520666f722073616c65006044820152606490fd5b61031490611a0d6119f28261166f565b611a07611a0161124e3061116f565b916103b3565b14611996565b611ad4565b15611a1957565b60405162461bcd60e51b8152602060048201526014602482015273125b9cdd59999a58da595b9d081c185e5b595b9d60621b6044820152606490fd5b6000198114610ea05760010190565b9081526040810192916103149160200152565b3d15611a9157611a863d6112a1565b903d6000602084013e565b606090565b15611a9d57565b60405162461bcd60e51b815260206004820152600f60248201526e151c985b9cd9995c8819985a5b1959608a1b6044820152606490fd5b611bbe61031491611ae3610e0b565b611af3611067611061600d610e01565b91611b0c611b046103798585610e93565b341015611a12565b611b2081611b193061116f565b339061291e565b611b29816129e1565b611b45611b3e611b39600f610e01565b611a55565b600f610eb5565b611b57611b513361116f565b9161043d565b907f884543c08d36fb5c9b3b688dd0453c9f287199124bdbddb3b7f9ca885a4d34a0611b8260405190565b80611b8e878783611a64565b0390a3611bb9600080611ba1600e6111d8565b60405160009187905af1611bb3611a77565b50611a96565b610e93565b612a84565b610314906119e2565b15611bd357565b60405162461bcd60e51b815260206004820152601360248201527221b0b63632b91034b9903737ba1037bbb732b960691b6044820152606490fd5b61031490611c30611c1e8261166f565b611c2a611a01336103b3565b14611bcc565b611cda565b8015610ea0576000190190565b15611c4957565b60405162461bcd60e51b815260206004820152601960248201527f5472616e7366657220746f2073656c6c6572206661696c6564000000000000006044820152606490fd5b15611c9557565b60405162461bcd60e51b815260206004820152601a60248201527f5472616e7366657220746f2063726561746f72206661696c65640000000000006044820152606490fd5b60008061031492611da68280611cee6112d9565b93611d8e611d08611067611d02600d610e01565b88610ff6565b8096611d113390565b93611d2581611d1f3061116f565b8761291e565b611d2e81612af6565b611d43611b3e611d3e600f610e01565b611c35565b611d4f611b518661116f565b907f8323bebb324b6e1a1d4886a1f210640461bb275263dae69967f001d053ab0b2b611d7a60405190565b80611d86878783611a64565b0390a3611039565b60405190818003925af1611da0611a77565b50611c42565b611db0600e6111d8565b90611dba60405190565b90818003925af1611dc9611a77565b50611c8e565b61031490611c0e565b610379905b60ff1690565b6103799054611dd8565b61037991611e08611e0d92611e00600090565b506005611178565b611178565b611de3565b611e1b9061166f565b610e48611a0161124e3061116f565b61031490611e3661200f565b6000611e4181611091565b611e4a816103b3565b611e53846103b3565b14611e6357505061031490612046565b631e4fbdf760e01b8252819061113390600483016103df565b61031490611e2a565b61037990612b1c565b611e9781612b45565b90600090611ea761124e83611091565b611eb0846103b3565b14611eba57505090565b637e27328960e01b82526004820152602490fd5b611ee561037991611edd600090565b50600461044a565b6111d8565b9160019161031493612b5c565b15611efe57565b60405162461bcd60e51b815260206004820152601260248201527113585e081cdd5c1c1b1e481c995858da195960721b6044820152606490fd5b611f5a611f4460085490565b611f54611025610379600c610e01565b10611ef7565b611f62610e0b565b610379611bbe611f7e611067611f78600d610e01565b85610ff6565b611f8e611b046103798387610e93565b611f9a610edc60085490565b93611fa58533612c84565b611fb5611b3e611b39600f610e01565b611fbe3361116f565b611fc78661043d565b907f10546b1a6f5245ff0ffa18c256b9e46859c585cbb473b453fcd4c2dc39ae08db611b8260405190565b610379929190612c96565b908082101561200a575090565b905090565b6120176116e8565b3390612025611a01836103b3565b0361202d5750565b63118cdaa760e01b6000908152906111ca9060046103df565b61206c612066612056600a6111d8565b61206184600a611276565b61116f565b9161116f565b907f8be0079c531659141344cd1fd0a4f28419497f9722a3daafe3b4186f6b6457e061209760405190565b80805b0390a3565b9060ff90610eab565b906120b8610379610ecc92151590565b825461209f565b60006120cd61124e82611091565b6120d6846103b3565b1461212f575061209a61212561211f836120618761211a88611e087f17307eab39ab6107e8899845ad3d59bd9653f200f220920489ca2b5937696c31996005611178565b6120a8565b9361116f565b9361039b60405190565b630b61174360e31b81528061113384600483016103df565b611ddd6103796103799290565b610379906121686110256103799460ff1690565b901c90565b6103799061217e6110256103799490565b901b90565b61218d600061043d565b811461227357600161219e82612d2f565b6121a782612147565b8080808080966121b8828098612154565b906121c29061043d565b906121cc9161216d565b6121d6818a61101f565b01906121e191612154565b6121eb818961101f565b01906121f691612154565b612200818861101f565b019061220b91612154565b612215818761101f565b019061222091612154565b61222a818661101f565b019061223591612154565b61223f818561101f565b019061224a91612154565b612254818461101f565b019061225f91612154565b908161226a9161101f565b61037991611ffd565b50610379600061043d565b9050519061031482610345565b9060208282031261030b576103799161227e565b90926122d0906122c961037996946122bf608086019760008701906103d6565b60208501906103d6565b6040830152565b60608184039101526104cb565b6000939192833b6122f06110258761043d565b116122fd575b5050505050565b60209161230c6120618661116f565b90863361233561231b60405190565b97889687958694630a85bd0160e11b86526004860161229f565b03925af1600091816123c9575b506123945750612357565b38808080806122f6565b61235f611a77565b805161236d6110258561043d565b0361238c5750633250574960e11b8252819061113390600483016103df565b805190602001fd5b6123a4630a85bd0160e11b610e3a565b036123b057505061234d565b633250574960e11b8252819061113390600483016103df565b6123ec91925060203d6020116123f3575b6123e48183610667565b81019061228b565b9038612342565b503d6123da565b8115611034570690565b610379608061068e565b612416612404565b60008082526020820181905260408201819052606082015290565b61037961240e565b60005b82811061244857505050565b602090612453612431565b818401520161243c565b9061031461246d6115b384611591565b601f190160208401612439565b6118829061037993926117e6565b9161188261255d61256c9361188261251e610379977f3c73766720786d6c6e733d22687474703a2f2f7777772e77332e6f72672f323081527f30302f737667222077696474683d2234303022206865696768743d223430302260208201527f2076696577426f783d223020302031323420313234222066696c6c3d226e6f6e60408201526232911f60e91b606082015260630190565b7f3c726563742077696474683d2231323422206865696768743d2231323422207281526c3c1e91191a11103334b6361e9160991b6020820152602d0190565b6211179f60e91b815260030190565b651e17b9bb339f60d11b815260060190565b6125ab60609161192561259060405190565b60208082019384529092839161191990426104ff82856117d7565b9081926125d86125ce6125bd85612ef2565b946125c8600361043d565b906123fa565b610ee6600261043d565b916125e28361245d565b90936000946125f08661043d565b945b805b86101561277857612603612431565b92600093896126118a61043d565b9560015b15612761575b50505087809861263361262e8a8d610e93565b612f78565b93849861263f8461043d565b8b81101561274f5761265b612654828c6115c6565b5188613097565b6126675760010161263f565b5098929a509350999461267b600191611a55565b906126a8829761192561268d60405190565b60208082019384529092839161191990886104ff82856117d7565b9b8c926126b8611025600a61043d565b111561261557506126d2919293959a9896509893985b1590565b6126f3575b50506126e66125f49160010190565b95905095909193956125f2565b611919610379849a61272e856127298861274697612723828f6126e69c61271d6125f49f836115c6565b526115c6565b50610e93565b613182565b9061273860405190565b93849260208401928361247a565b979150886126d7565b5098929a919b9661267b919550611a55565b8061261b576126d2919293959a9896509893981590565b5091506103799295506103799450611919935061279460405190565b938492602084019283612488565b6127ac60406112a1565b7f4142434445464748494a4b4c4d4e4f505152535455565758595a61626364656660208201527f6768696a6b6c6d6e6f707172737475767778797a303132333435363738392b2f604082015290565b6103796127a2565b6103796127fb565b906103146115b961281b846112a1565b936106a2565b8051612830611025600061043d565b146129155761283d612803565b906128496125ce825190565b90600161287161286c612862600395611078600361043d565b611791600461043d565b61280b565b93016020840192829183518401906020820192835194600085525b8381106128cd57505050509060039291525106806001146128bc576002146128b2575090565b6001603d91035390565b50600281603d600181940353035390565b8160019198929394980191603f828080865194848660121c168a01518153018385600c1c16890151815301828460061c1688015181530191168501518153019692919061288c565b506103796112bd565b91929060009261292d84611091565b91612937836103b3565b612940826103b3565b1461298a57612953838761295993611ff2565b926103b3565b612962836103b3565b0361297d57637e27328960e01b845260048401859052602484fd5b61110481959293956103b3565b633250574960e11b8552848061113385600483016103df565b634e487b7160e01b600052603160045260246000fd5b805480156129dc5760001901906129d96129d38383610c68565b906113c4565b55565b6129a3565b6000612a436103149260116111a7612a3e6129ff6111ac858561044a565b610379601091612a39612a1f610ca8612a19611306875490565b86610c68565b612a3381612a2d8588610c68565b906113ab565b8761044a565b610eb5565b6129b9565b6113c4565b15612a4f57565b60405162461bcd60e51b815260206004820152600d60248201526c1499599d5b990819985a5b1959609a1b6044820152606490fd5b612a8e9034611039565b612a98600061043d565b8111612aa15750565b60008061031492612aaf3390565b90612ab960405190565b90818003925af1612ac8611a77565b50612a48565b90815491680100000000000000008310156106895782612a2d91600161031495018155610c68565b61031490612b05816010612ace565b612a39612b1461130660105490565b91601161044a565b63780e9d6360e01b6001600160e01b0319821614908115612b3b575090565b610379915061321e565b611ee561037991612b54600090565b50600261044a565b92919091808115612c66575b612b83575b505090612b7e61031492600461044a565b611276565b612b8c83611e8e565b91600090612b9c61124e83611091565b612ba5826103b3565b141580612c4c575b80612c39575b612c2057505091612b7e916103149493612bd0575b509192612b6d565b612bd99061116f565b612be28461116f565b612beb8361043d565b917f8c5be1e5ebec7d5bd14f71427d1e84f3dd0314c0f7b2291e5b200ac8c7c3b925612c1660405190565b600090a438612bc8565b63a9fbf51f60e01b8252819061113390600483016103df565b50612c476126ce8286611ded565b612bb3565b50612c56816103b3565b612c5f856103b3565b1415612bad565b50612c7461124e6000611091565b612c7d836103b3565b1415612b68565b61031491612c906112bd565b91613269565b9091612ca3908383613283565b91612cd1612cb16000611091565b612cba816103b3565b612cc3866103b3565b03612d0e5761124e83613432565b612cda836103b3565b03612ce9576103799150613483565b612cf2826103b3565b612cfb846103b3565b03612d0557505090565b61037991613454565b612d17846103b3565b612d20866103b3565b146103b35761124e83866133b1565b6000612e2a611025612e24612d438461043d565b94612d57612d516080612147565b82612154565b868111612eca575b50612d6d612d516040612147565b612d768661043d565b8111612eb3575b50612d8b612d516020612147565b612d948661043d565b8111612e9c575b50612da9612d516010612147565b612db28661043d565b8111612e85575b50612dc7612d516008612147565b612dd08661043d565b8111612e6e575b50612de5612d516004612147565b612dee8661043d565b8111612e57575b50612e03612d516002612147565b612e0c8661043d565b8111612e40575b50612e1e6001612147565b90612154565b9261043d565b11612e325790565b610379906104ff600161043d565b612e509150956104ff600261043d565b9438612e13565b612e679150956104ff600461043d565b9438612df5565b612e7e9150956104ff600861043d565b9438612dd7565b612e959150956104ff601061043d565b9438612db9565b612eac9150956104ff602061043d565b9438612d9b565b612ec39150956104ff604061043d565b9438612d7d565b612eda9150956104ff608061043d565b9438612d5f565b6010821015610c8b57600190610c82565b612f13612f0c61037992612f04606090565b5060106125c8565b6015612ee1565b50610e4c565b612f289060ff165b9160ff1690565b90039060ff8211610ea057565b612f419060ff16612f21565b019060ff8211610ea057565b6103796103796103799260ff1690565b612f699060ff16612f21565b029060ff8216918203610ea057565b612f80612431565b50610379612f8e6018612147565b613086613068612fe7612fec612fe7612fa76019612147565b610ee6612fe1612fdb612fd6612fc685612fc1603e612147565b612f19565b612fd06001612147565b90612f35565b612f4d565b8b6123fa565b91612f4d565b612147565b93610ee6612fe161304661303b612fe761303261302c612fd66130138d612fc1607c612147565b6130268a6130216002612147565b612f5d565b90612f19565b8d6123fa565b610ee687612f4d565b99612e1e6008612147565b6125c8612fd661305a8a612fc1607c612147565b613026876130216002612147565b61307c613073612404565b60ff9096168652565b60ff166020850152565b60ff16604083018190526060830152565b90816130a4815160ff1690565b82906130c7612f21611ddd6130ba855160ff1690565b604088015160ff16612fd0565b109384613156575b50508261311b575b826130e157505090565b613117919250611ddd602061310e83612fd0606061310585612f2198015160ff1690565b92015160ff1690565b94015160ff1690565b1190565b915061312b602083015160ff1690565b61314f612f21611ddd613142602086015160ff1690565b606086015160ff16612fd0565b10916130d7565b61317991929450611ddd6131716130ba612f21935160ff1690565b935160ff1690565b119138806130cf565b6131ab6131a661319b613195600561043d565b846123fa565b92610ee6600161043d565b612ef2565b906131b6600061043d565b81036131c65750610379916139fd565b6131d0600161043d565b81036131e057506103799161392b565b6131ea600261043d565b81036131fa57506103799161392b565b613207611025600361043d565b0361321557610379916136f9565b6103799161355d565b6380ac58cd60e01b6001600160e01b031982161490811561324e575b8115613244575090565b6103799150613a85565b6001600160e01b03198116635b5e139f60e01b14915061323a565b9061031492916132798282613a95565b6117d26000611091565b906132d661329082612b45565b93600061329c81611091565b91846132a7846103b3565b6132b0836103b3565b036133a0575b50506132c1826103b3565b6132ca876103b3565b03613365575b506103b3565b6132df836103b3565b03613335575b6132f482612b7e83600261044a565b613303611b5161211f8561116f565b917fddf252ad1be2c89b69c2b068fc378daa952ba7f163c4a11628f55a4df523b3ef61332e60405190565b600090a490565b613360613342600161043d565b61335a613350856003611178565b916104ff83610e01565b90610eb5565b6132e5565b61337190828581612b5c565b61339a61337e600161043d565b61335a61338c886003611178565b9161339683610e01565b0390565b386132d0565b6133aa9188613b0b565b38846132b6565b612a43610314926111a76000936133f085612a436133ce84611678565b956007856133df6111ac848461044a565b898082036133f7575b50505061044a565b6006611178565b6111a761342484612a398561341a6111ac612a39976111a761342a9b6006611178565b9485936006611178565b8461044a565b8538896133e8565b6103149061344d61344260085490565b612a3983600961044a565b6008612ace565b612a398261347c61031494612a396111a79561347261130682611678565b9687916006611178565b600761044a565b612a3e610314916103796000612a436008936134a0611306865490565b6111a7600991612a396134c3610ca86134bc6111ac888861044a565b938b610c68565b61342481612a2d858d610c68565b6110299060ff16612f21565b610379979561188261353c6118829761188261352f6135499961188261353c61255d9f9b61188261352f6118829d61188261352f9e701e3837b63cb3b7b7103837b4b73a399e9160791b815260110190565b600b60fa1b815260010190565b600160fd1b815260010190565b6711103334b6361e9160c11b815260080190565b90819061356b825160ff1690565b61357490612f4d565b61357d90613b6b565b602083019161358d835160ff1690565b92606085019361359e855160ff1690565b6135a791612f35565b6135b090612f4d565b6135b990613b6b565b936135c5875160ff1690565b95604001956135d5875160ff1690565b6135df6002612147565b6135e8916134d1565b6135f191612f35565b6135fa90612f4d565b61360390613b6b565b9561360f835160ff1690565b61361890612f4d565b61362190613b6b565b975160ff16905160ff1661363491612f35565b61363d90612f4d565b61364690613b6b565b915160ff16905160ff1661365991612f35565b61366290612f4d565b61366b90613b6b565b9061367560405190565b968796602088019661368796886134dd565b9081038252036103799082610667565b61353c6118829761188261352f613549996118826103799f9d9761255d9f9b61188261352f6118829d61188261353c61352f9f6118826118829f61353c9961188261352f92701e3837b63cb3b7b7103837b4b73a399e9160791b815260110190565b80613705815160ff1690565b926040830190613716825160ff1690565b9460029561372387612147565b61372c916134d1565b61373591612f35565b61373e90612f4d565b61374790613b6b565b9160208501613757815160ff1690565b61376090612f4d565b61376990613b6b565b94613775815160ff1690565b61377e90612f4d565b61378790613b6b565b96613793835160ff1690565b90606001906137a3825160ff1690565b6137ac8b612147565b6137b5916134d1565b6137be91612f35565b6137c790612f4d565b6137d090613b6b565b986137dc835160ff1690565b855160ff166137ea83612147565b6137f3916134d1565b6137fc91612f35565b61380590612f4d565b61380e90613b6b565b9461381a855160ff1690565b835160ff1661382891612f35565b61383190612f4d565b61383a90613b6b565b935160ff16905160ff1661384d91612f35565b61385690612f4d565b61385f90613b6b565b935160ff16915160ff169061387390612147565b61387c916134d1565b61388591612f35565b61388e90612f4d565b61389790613b6b565b926138a160405190565b98899860208a0198613687988a613697565b936118826139156103799795611882613900611882976118826138ef6135499961188261255d9e681e3932b1ba103c1e9160b91b815260090190565b6411103c9e9160d91b815260050190565b6811103bb4b23a341e9160b91b815260090190565b6911103432b4b3b43a1e9160b11b8152600a0190565b6103796103799261393a606090565b5061395161394c612fd6855160ff1690565b613b6b565b61191961396861394c612fd6602088015160ff1690565b9261399161394c612fd6606061398861394c612fd660408d015160ff1690565b99015160ff1690565b6040519687956020870195866138b3565b61255d936118826139ec61037997956118826139da61188297611882613549986b1e31b4b931b6329031bc1e9160a11b8152600c0190565b65111031bc9e9160d11b815260060190565b641110391e9160d91b815260050190565b90610379613a6261037993613a10606090565b50611919613a6d61394c613a6761394c612fd66000613a62602061398861394c612fd68c613a55613a45604083015160ff1690565b613a4f6002612147565b906134d1565b9e8f978892015160ff1690565b612f35565b94612f4d565b94613a7760405190565b9586946020860194856139a2565b610e486301ffc9a760e01b610e3a565b600091613aa183611091565b91613aab836103b3565b613ab4826103b3565b14613af257613ac4918391611ff2565b613ad0611a01836103b3565b03613ad9575050565b6339e3563760e11b8252819061113390600483016103df565b633250574960e11b8452838061113385600483016103df565b90613b1a6126ce848385613bf8565b613b2357505050565b6000928392613b37611a0161124e86611091565b03613b5457637e27328960e01b8352600483015250602481010390fd5b63177e802f60e01b83526111339160048401611150565b613b7481613c7c565b90613b856001926104ff600161043d565b9180613b908461280b565b936020018401905b613ba3575b50505090565b8115613bf357613bd79060001901926f181899199a1a9b1b9c1cb0b131b232b360811b600a82061a8453611078600a61043d565b9081613be6611025600061043d565b14613bf357909181613b98565b613b9d565b90613c0661124e6000611091565b613c0f826103b3565b14159283613c1d5750505090565b90919250613c2a826103b3565b613c33846103b3565b14928315613c68575b508215613c4e575b5050388080613b9d565b613c60919250612953611a0191611ece565b143880613c44565b613c759193508290611ded565b9138613c3c565b613c86600061043d565b907a184f03e93ff9f4daa797ed6e38ed64bf6a1f010000000000000000613cac8161043d565b821015613dee575b506d04ee2d6d415b85acef8100000000613ccd8161043d565b821015613dcc575b50662386f26fc10000613ce78161043d565b821015613daa575b506305f5e100613cfe8161043d565b821015613d88575b50612710613d138161043d565b821015613d66575b50613d26606461043d565b811015613d44575b613d3b611025600a61043d565b1015612e325790565b613d55613d6091611078606461043d565b916104ff600261043d565b90613d2e565b613d8191611078613d769261043d565b916104ff600461043d565b9038613d1b565b613da391611078613d989261043d565b916104ff600861043d565b9038613d06565b613dc591611078613dba9261043d565b916104ff601061043d565b9038613cef565b613de791611078613ddc9261043d565b916104ff602061043d565b9038613cd5565b613e0991611078613dfe9261043d565b916104ff604061043d565b9038613cb456fea26469706673582212205d0ff55ad215ef01182751f8ca6a2e25734f60cbf3a9f9e23993ce9b825e8f8164736f6c634300081c0033",
  "linkReferences": {},
  "deployedLinkReferences": {}
}