{
  "_format": "hh-sol-artifact-1",
  "contractName": "Storage",
  "sourceName": "src/core/Storage.sol",
  "abi": [
    {
      "inputs": [
        {
          "internalType": "uint256",
          "name": "_initialPrice",
          "type": "uint256"
        },
        {
          "internalType": "uint256",
          "name": "_maxSupply",
          "type": "uint256"
        },
        {
          "internalType": "uint256",
          "name": "_creatorFeePercent",
          "type": "uint256"
        }
      ],
      "stateMutability": "nonpayable",
      "type": "constructor"
    },
    {
      "inputs": [
        {
          "internalType": "uint256",
          "name": "",
          "type": "uint256"
        }
      ],
      "name": "availableTokens",
      "outputs": [
        {
          "internalType": "uint256",
          "name": "",
          "type": "uint256"
        }
      ],
      "stateMutability": "view",
      "type": "function"
    },
    {
      "inputs": [],
      "name": "baseURI",
      "outputs": [
        {
          "internalType": "string",
          "name": "",
          "type": "string"
        }
      ],
      "stateMutability": "view",
      "type": "function"
    },
    {
      "inputs": [],
      "name": "creator",
      "outputs": [
        {
          "internalType": "address",
          "name": "",
          "type": "address"
        }
      ],
      "stateMutability": "view",
      "type": "function"
    },
    {
      "inputs": [],
      "name": "creatorFeePercent",
      "outputs": [
        {
          "internalType": "uint256",
          "name": "",
          "type": "uint256"
        }
      ],
      "stateMutability": "view",
      "type": "function"
    },
    {
      "inputs": [],
      "name": "currentSupply",
      "outputs": [
        {
          "internalType": "uint256",
          "name": "",
          "type": "uint256"
        }
      ],
      "stateMutability": "view",
      "type": "function"
    },
    {
      "inputs": [],
      "name": "getAllAvailableTokens",
      "outputs": [
        {
          "internalType": "uint256[]",
          "name": "",
          "type": "uint256[]"
        }
      ],
      "stateMutability": "view",
      "type": "function"
    },
    {
      "inputs": [
        {
          "internalType": "uint256",
          "name": "index",
          "type": "uint256"
        }
      ],
      "name": "getAvailableTokenByIndex",
      "outputs": [
        {
          "internalType": "uint256",
          "name": "",
          "type": "uint256"
        }
      ],
      "stateMutability": "view",
      "type": "function"
    },
    {
      "inputs": [],
      "name": "getAvailableTokensCount",
      "outputs": [
        {
          "internalType": "uint256",
          "name": "",
          "type": "uint256"
        }
      ],
      "stateMutability": "view",
      "type": "function"
    },
    {
      "inputs": [
        {
          "internalType": "uint256",
          "name": "start",
          "type": "uint256"
        },
        {
          "internalType": "uint256",
          "name": "limit",
          "type": "uint256"
        }
      ],
      "name": "getAvailableTokensPaginated",
      "outputs": [
        {
          "internalType": "uint256[]",
          "name": "",
          "type": "uint256[]"
        }
      ],
      "stateMutability": "view",
      "type": "function"
    },
    {
      "inputs": [],
      "name": "initialPrice",
      "outputs": [
        {
          "internalType": "uint256",
          "name": "",
          "type": "uint256"
        }
      ],
      "stateMutability": "view",
      "type": "function"
    },
    {
      "inputs": [],
      "name": "maxSupply",
      "outputs": [
        {
          "internalType": "uint256",
          "name": "",
          "type": "uint256"
        }
      ],
      "stateMutability": "view",
      "type": "function"
    },
    {
      "inputs": [
        {
          "internalType": "string",
          "name": "_baseURI",
          "type": "string"
        }
      ],
      "name": "setBaseURI",
      "outputs": [],
      "stateMutability": "nonpayable",
      "type": "function"
    },
    {
      "inputs": [
        {
          "internalType": "address",
          "name": "_creator",
          "type": "address"
        }
      ],
      "name": "setCreator",
      "outputs": [],
      "stateMutability": "nonpayable",
      "type": "function"
    },
    {
      "inputs": [
        {
          "internalType": "uint256",
          "name": "",
          "type": "uint256"
        }
      ],
      "name": "tokenIndex",
      "outputs": [
        {
          "internalType": "uint256",
          "name": "",
          "type": "uint256"
        }
      ],
      "stateMutability": "view",
      "type": "function"
    }
  ],
  "bytecode": "0x60806040523461002b5761001a6100146100bb565b9161016e565b604051610c6a61019b8239610c6a90f35b600080fd5b634e487b7160e01b600052604160045260246000fd5b90601f01601f191681019081106001600160401b0382111761006757604052565b610030565b9061008061007960405190565b9283610046565b565b90505190565b909160608284031261002b576100b86100a18484610082565b9360406100b18260208701610082565b9401610082565b90565b6100d9610e05803803806100ce8161006c565b928339810190610088565b909192565b90600019905b9181191691161790565b6100b86100b86100b89290565b9061010b6100b8610112926100ee565b82546100de565b9055565b906001600160a01b03906100e4565b6100b890610139906001600160a01b031682565b6001600160a01b031690565b6100b890610125565b6100b890610145565b906101676100b86101129261014e565b8254610116565b61018f92916101816101889260006100fb565b60016100fb565b60026100fb565b61008033600361015756fe6080604052600436101561001257600080fd5b60003560e01c806302d05d3f146100f25780630583e9f8146100ed57806312ea5c7e146100e85780631d0806ae146100e35780632dcd52f2146100de5780633f516018146100d957806353613dd3146100d457806355f804b3146100cf5780635eba096b146100ca5780636c0360eb146100c5578063771282f6146100c0578063ad64d068146100bb578063cf6a68bf146100b65763d5abeb010361010257610723565b6106fc565b6106e1565b61066a565b610637565b61048c565b610451565b61034c565b610323565b6102dd565b6102c2565b610290565b6101fa565b610155565b600091031261010257565b600080fd5b61011c916008021c5b6001600160a01b031690565b90565b9061011c9154610107565b61011c6000600361011f565b61013f90610110565b9052565b6020810192916101539190610136565b565b34610102576101653660046100f7565b61017c61017061012a565b60405191829182610143565b0390f35b805b0361010257565b9050359061015382610180565b906020828203126101025761011c91610189565b61011c61011c61011c9290565b906101c1906101aa565b600052602052604060002090565b61011c916008021c81565b9061011c91546101cf565b60006101f561011c9260066101b7565b6101da565b346101025761017c610215610210366004610196565b6101e5565b6040519182918290815260200190565b0190565b90610249610242610238845190565b8084529260200190565b9260200190565b9060005b81811061025a5750505090565b9091926102776102706001928651815260200190565b9460200190565b92910161024d565b602080825261011c92910190610229565b34610102576102a03660046100f7565b61017c6102ab6107d4565b6040519182918261027f565b61011c6000806101da565b34610102576102d23660046100f7565b61017c6102156102b7565b34610102576102ed3660046100f7565b61017c61021560055490565b61018281610110565b90503590610153826102f9565b906020828203126101025761011c91610302565b346101025761033b61033636600461030f565b6108d7565b604051005b61011c600060026101da565b346101025761035c3660046100f7565b61017c610215610340565b634e487b7160e01b600052604160045260246000fd5b90601f01601f1916810190811067ffffffffffffffff82111761039f57604052565b610367565b906101536103b160405190565b928361037d565b67ffffffffffffffff811161039f57602090601f01601f19160190565b90826000939282370152565b909291926103f66103f1826103b8565b6103a4565b9381855281830111610102576101539160208501906103d5565b9080601f830112156101025781602061011c933591016103e1565b9060208282031261010257813567ffffffffffffffff81116101025761011c9201610410565b346101025761033b61046436600461042b565b610a86565b91906040838203126101025761011c9060206104858286610189565b9401610189565b346101025761017c6102ab6104a2366004610469565b90610b7c565b634e487b7160e01b600052600060045260246000fd5b634e487b7160e01b600052602260045260246000fd5b90600160028304921680156104f4575b60208310146104ef57565b6104be565b91607f16916104e4565b8054600093929161051b610511836104d4565b8085529360200190565b916001811690811561056d575060011461053457505050565b6105479192939450600052602060002090565b916000925b8184106105595750500190565b80548484015260209093019260010161054c565b92949550505060ff1916825215156020020190565b9061011c916104fe565b906101536105a69261059d60405190565b93848092610582565b038361037d565b906000106105be5761011c9061058c565b6104a8565b61011c600060076105ad565b60005b8381106105e25750506000910152565b81810151838201526020016105d2565b61061361061c60209361022593610607815190565b80835293849260200190565b958691016105cf565b601f01601f191690565b602080825261011c929101906105f2565b34610102576106473660046100f7565b61017c6106526105c3565b60405191829182610626565b61011c600060046101da565b346101025761067a3660046100f7565b61017c61021561065e565b634e487b7160e01b600052603260045260246000fd5b80548210156106be576106b5600191600052602060002090565b91020190600090565b610685565b600554811015610102576106db61011c91600561069b565b906101da565b346101025761017c6102156106f7366004610196565b6106c3565b346101025761017c610215610712366004610196565b610c0b565b61011c600060016101da565b34610102576107333660046100f7565b61017c610215610717565b61011c9081565b61011c905461073e565b9061076a61075e610238845490565b92600052602060002090565b9060005b81811061077b5750505090565b90919261079f61079860019261079087610745565b815260200190565b9460010190565b92910161076e565b9061011c9161074f565b906101536105a6926107c260405190565b938480926107a7565b61011c906107b1565b61011c60056107cb565b61011c90610110565b61011c90546107de565b156107f857565b60405162461bcd60e51b815260206004820152602360248201527f4f6e6c792063726561746f722063616e2063616c6c20746869732066756e637460448201526234b7b760e91b6064820152608490fd5b6101539061087161086261085d60036107e7565b610110565b61086b33610110565b146107f1565b6108cc565b906001600160a01b03905b9181191691161790565b61011c90610110906001600160a01b031682565b61011c9061088b565b61011c9061089f565b906108c161011c6108c8926108a8565b8254610876565b9055565b6101539060036108b1565b61015390610849565b610153906108f461086261085d60036107e7565b610a7b565b9160001960089290920291821b911b610881565b919061091e61011c6108c8936101aa565b9083546108f9565b6101539160009161090d565b81811061093d575050565b8061094b6000600193610926565b01610932565b9190601f811161096057505050565b61097261015393600052602060002090565b906020601f840181900483019310610994575b6020601f909101040190610932565b9091508190610985565b906109a7815190565b9067ffffffffffffffff821161039f576109cb826109c585546104d4565b85610951565b602090601f8311600114610a06576108c89291600091836109fb575b5050600019600883021c1916906002021790565b0151905038806109e7565b601f19831691610a1b85600052602060002090565b9260005b818110610a5957509160029391856001969410610a40575b50505002019055565b01516000196008601f8516021c19169055388080610a37565b91936020600181928787015181550195019201610a1f565b906101539161099e565b610153906007610a71565b610153906108e0565b15610a9657565b60405162461bcd60e51b815260206004820152601960248201527f537461727420696e646578206f7574206f6620626f756e6473000000000000006044820152606490fd5b634e487b7160e01b600052601160045260246000fd5b91908201809211610afe57565b610adb565b91908203918211610afe57565b67ffffffffffffffff811161039f5760208091020190565b90610b356103f183610b10565b918252565b369037565b90610153610b55610b4f84610b28565b93610b10565b601f190160208401610b3a565b90610b6b825190565b8110156106be576020809102010190565b91610ba9610ba1600593610b9b610b9461011c875490565b8710610a8f565b85610af1565b835490610c22565b91610bbc610bb78585610b03565b610b3f565b91845b845b811015610c0257610bfb81610bf5610bdf6106db610bc1958861069b565b610bf2610bec8b85610b03565b89610b62565b52565b60010190565b9050610bbf565b50935050905090565b6106db61011c91610c1a600090565b50600561069b565b9080821015610c2f575090565b90509056fea2646970667358221220aaa67da0015931264de4b40b198702c709c0cd67469295ed285fee1f5046309564736f6c634300081c0033",
  "linkReferences": {},
  "deployedLinkReferences": {}
}