{
  "_format": "hh-sol-artifact-1",
  "contractName": "FlipPeriphery",
  "sourceName": "src/periphery/FlipPeriphery.sol",
  "abi": [
    {
      "anonymous": false,
      "inputs": [
        {
          "indexed": true,
          "internalType": "address",
          "name": "buyer",
          "type": "address"
        },
        {
          "indexed": false,
          "internalType": "uint256[]",
          "name": "tokenIds",
          "type": "uint256[]"
        },
        {
          "indexed": false,
          "internalType": "uint256",
          "name": "totalPrice",
          "type": "uint256"
        }
      ],
      "name": "BulkBuyExecuted",
      "type": "event"
    },
    {
      "anonymous": false,
      "inputs": [
        {
          "indexed": true,
          "internalType": "address",
          "name": "buyer",
          "type": "address"
        },
        {
          "indexed": false,
          "internalType": "uint256",
          "name": "quantity",
          "type": "uint256"
        },
        {
          "indexed": false,
          "internalType": "uint256",
          "name": "totalPrice",
          "type": "uint256"
        }
      ],
      "name": "BulkMintExecuted",
      "type": "event"
    },
    {
      "anonymous": false,
      "inputs": [
        {
          "indexed": true,
          "internalType": "address",
          "name": "buyer",
          "type": "address"
        },
        {
          "indexed": false,
          "internalType": "uint256",
          "name": "quantity",
          "type": "uint256"
        },
        {
          "indexed": false,
          "internalType": "uint256",
          "name": "totalPrice",
          "type": "uint256"
        }
      ],
      "name": "BulkQuickBuyExecuted",
      "type": "event"
    },
    {
      "anonymous": false,
      "inputs": [
        {
          "indexed": true,
          "internalType": "address",
          "name": "seller",
          "type": "address"
        },
        {
          "indexed": false,
          "internalType": "uint256[]",
          "name": "tokenIds",
          "type": "uint256[]"
        },
        {
          "indexed": false,
          "internalType": "uint256",
          "name": "totalPrice",
          "type": "uint256"
        }
      ],
      "name": "BulkSellExecuted",
      "type": "event"
    },
    {
      "anonymous": false,
      "inputs": [
        {
          "indexed": true,
          "internalType": "address",
          "name": "buyer",
          "type": "address"
        },
        {
          "indexed": true,
          "internalType": "uint256",
          "name": "tokenId",
          "type": "uint256"
        },
        {
          "indexed": false,
          "internalType": "uint256",
          "name": "price",
          "type": "uint256"
        }
      ],
      "name": "QuickBuyExecuted",
      "type": "event"
    },
    {
      "inputs": [
        {
          "internalType": "address",
          "name": "_flipContractAddress",
          "type": "address"
        },
        {
          "internalType": "uint256[]",
          "name": "tokenIds",
          "type": "uint256[]"
        }
      ],
      "name": "bulkBuy",
      "outputs": [],
      "stateMutability": "payable",
      "type": "function"
    },
    {
      "inputs": [
        {
          "internalType": "address",
          "name": "_flipContractAddress",
          "type": "address"
        },
        {
          "internalType": "uint256",
          "name": "quantity",
          "type": "uint256"
        }
      ],
      "name": "bulkMint",
      "outputs": [],
      "stateMutability": "payable",
      "type": "function"
    },
    {
      "inputs": [
        {
          "internalType": "address",
          "name": "_flipContractAddress",
          "type": "address"
        },
        {
          "internalType": "uint256",
          "name": "quantity",
          "type": "uint256"
        }
      ],
      "name": "bulkQuickBuy",
      "outputs": [],
      "stateMutability": "payable",
      "type": "function"
    },
    {
      "inputs": [
        {
          "internalType": "address",
          "name": "_flipContractAddress",
          "type": "address"
        },
        {
          "internalType": "uint256[]",
          "name": "tokenIds",
          "type": "uint256[]"
        }
      ],
      "name": "bulkSell",
      "outputs": [],
      "stateMutability": "nonpayable",
      "type": "function"
    },
    {
      "inputs": [
        {
          "internalType": "address",
          "name": "",
          "type": "address"
        },
        {
          "internalType": "address",
          "name": "",
          "type": "address"
        },
        {
          "internalType": "uint256",
          "name": "",
          "type": "uint256"
        },
        {
          "internalType": "bytes",
          "name": "",
          "type": "bytes"
        }
      ],
      "name": "onERC721Received",
      "outputs": [
        {
          "internalType": "bytes4",
          "name": "",
          "type": "bytes4"
        }
      ],
      "stateMutability": "nonpayable",
      "type": "function"
    },
    {
      "inputs": [
        {
          "internalType": "address",
          "name": "_flipContractAddress",
          "type": "address"
        }
      ],
      "name": "quickBuy",
      "outputs": [],
      "stateMutability": "payable",
      "type": "function"
    },
    {
      "stateMutability": "payable",
      "type": "receive"
    }
  ],
  "bytecode": "0x60806040523460195760405161127761001f823961127790f35b600080fdfe6080604052600436101561001b575b361561001957600080fd5b005b60003560e01c8063150b7a021461007b57806340f3620a1461007657806399bd4737146100715780639cb3ecd01461006c578063a8c90cb2146100675763d17dbbc00361000e57610319565b6102f1565b6102dd565b6102a6565b610288565b6101e0565b6001600160a01b031690565b90565b6001600160a01b0381165b036100a157565b600080fd5b905035906100b38261008f565b565b8061009a565b905035906100b3826100b5565b634e487b7160e01b600052604160045260246000fd5b90601f01601f1916810190811067ffffffffffffffff82111761010057604052565b6100c8565b906100b361011260405190565b92836100de565b67ffffffffffffffff811161010057602090601f01601f19160190565b0190565b90826000939282370152565b9092919261015b61015682610119565b610105565b93818552818301116100a1576100b391602085019061013a565b9080601f830112156100a15781602061008c93359101610146565b906080828203126100a1576101a581836100a6565b926101b382602085016100a6565b926101c183604083016100bb565b92606082013567ffffffffffffffff81116100a15761008c9201610175565b346100a15761021a6101ff6101f6366004610190565b9291909161036f565b604051918291826001600160e01b0319909116815260200190565b0390f35b909182601f830112156100a15781359167ffffffffffffffff83116100a15760200192602083028401116100a157565b9190916040818403126100a15761026583826100a6565b92602082013567ffffffffffffffff81116100a157610284920161021e565b9091565b346100a1576102a161029b36600461024e565b91610576565b604051005b6102a16102b436600461024e565b9161088b565b91906040838203126100a15761008c9060206102d682866100a6565b94016100bb565b6102a16102eb3660046102ba565b90610b24565b6102a16102ff3660046102ba565b90610db4565b906020828203126100a15761008c916100a6565b6102a1610327366004610305565b610f88565b61008c90610080906001600160a01b031682565b61008c9061032c565b61036261035c61008c9263ffffffff1690565b60e01b90565b6001600160e01b03191690565b5050505061037b600090565b5061008c63150b7a02610349565b61008c90610340565b61008c61008c61008c9290565b634e487b7160e01b600052603260045260246000fd5b91908110156103c5576020020190565b61039f565b3561008c816100b5565b905051906100b38261008f565b906020828203126100a15761008c916103d4565b6040513d6000823e3d90fd5b1561040857565b60405162461bcd60e51b815260206004820152600f60248201526e2737ba103a37b5b2b71037bbb732b960891b6044820152606490fd5b905051906100b3826100b5565b906020828203126100a15761008c9161043f565b634e487b7160e01b600052601160045260246000fd5b9190820180921161048357565b610460565b60009103126100a157565b6001600160a01b039182168152911660208201526060810192916100b39160400152565b9037565b8183529091602001916001600160fb1b0381116100a1578291602061013692029384916104b7565b9392906105026020916100b394604088019188830360008a01526104bb565b940152565b9061051461015683610119565b918252565b3d15610533576105283d610507565b903d6000602084013e565b606090565b1561053f57565b60405162461bcd60e51b815260206004820152600f60248201526e151c985b9cd9995c8819985a5b1959608a1b6044820152606490fd5b9092919261058c61058683610389565b92610389565b9060009461059986610392565b91825b82811015610797576105b76105b28285856103b5565b6103ca565b906105c187610389565b946105cb60405190565b6331a9108f60e11b8152600481018490526020816024818a5afa80156107185761060891600091610769575b506001600160a01b03163314610401565b61061187610389565b90602061061d60405190565b630868706160e21b815292839060049082905afa9081156107185761064a92600092610739575b50610476565b9461065430610389565b813b156100a1578a846106839261066a60405190565b93849283926323b872dd60e01b84523360048501610493565b038183865af180156107185761071d575b50803b156100a1576106cc8a939184926106ad60405190565b95869384928391906372424d9960e11b5b835260048301526024820190565b03925af1918215610718576106e7926106ec575b5060010190565b61059c565b61070b908a3d8c11610711575b61070381836100de565b810190610488565b386106e0565b503d6106f9565b6103f5565b610733908b3d8d116107115761070381836100de565b38610694565b61075b91925060203d8111610762575b61075381836100de565b81019061044c565b9038610644565b503d610749565b61078a915060203d8111610790575b61078281836100de565b8101906103e1565b386105f7565b503d610778565b50908694506100b3959693507f9731f66294091699a1b52cf1e5067f6ac93ddebae6460879bbe049801062780e906107ce33610389565b926107e5856107dc60405190565b938493846104e3565b0390a2604051600091335af16107f9610519565b50610538565b1561080657565b60405162461bcd60e51b8152602060048201526014602482015273125b9cdd59999a58da595b9d081c185e5b595b9d60621b6044820152606490fd5b9190820391821161048357565b1561085657565b60405162461bcd60e51b815260206004820152600d60248201526c1499599d5b990819985a5b1959609a1b6044820152606490fd5b9092919261089b61058683610389565b936000926108a884610392565b95865b83881015610a10576108bc82610389565b9060206108c860405190565b6304a8fe6560e41b815292839060049082905afa918215610718576000926109ec575b50816108f691610476565b9761090084610389565b9163d96a094a6109146105b284898b6103b5565b843b156100a15761093a926106be8b9361092d60405190565b9586948593849360e01b90565b0391875af18015610718576109d0575b5061095430610389565b6109626105b283888a6103b5565b833b156100a15761099a9389928361097960405190565b80978195829461098d6323b872dd60e01b90565b8452339060048501610493565b03925af1918215610718576109b4926109ba575060010190565b966108ab565b61070b90883d8a116107115761070381836100de565b6109e690883d8a116107115761070381836100de565b3861094a565b6108f6919250610a099060203d81116107625761075381836100de565b91906108eb565b93929050610a70949596507fe4deca2a902ebbb74eb2363301ab98e258168e2dc6d9e504bae3cc9e73eeb2909150610a50610a488590565b3410156107ff565b610a5933610389565b92610a67856107dc60405190565b0390a234610842565b90610a7a81610392565b8211610a84575050565b806100b392610a9260405190565b600091335af1610aa0610519565b5061084f565b15610aad57565b60405162461bcd60e51b815260206004820152602960248201527f4e6f7420656e6f75676820746f6b656e7320617661696c61626c6520666f7220604482015268717569636b2062757960b81b6064820152608490fd5b8015610483576000190190565b9081526040810192916100b39160200152565b91610b2e83610389565b90610b41610b3b85610389565b94610389565b91600092610b57610b5185610392565b96610389565b6040516316e6a97960e11b815293602085600481855afa94851561071857600095610d93575b50939693610b958789610b8f565b9190565b11610aa6565b845b87861015610d3c57610bce986020610bb8610bb26001610392565b83610842565b6040519b8c9182919063cf6a68bf60e01b6106be565b0381875afa998a156107185760009a610d1c575b50610bec85610389565b916020610bf860405190565b6304a8fe6560e41b815293849060049082905afa92831561071857600093610cf8575b5082610c2691610476565b99610c3087610389565b9263d96a094a90843b156100a157610c56918b91610c4d60405190565b93849260e01b90565b8252600482018590526024908290885af1801561071857610cdc575b50610c7c30610389565b90833b156100a157610c94938a928361097960405190565b03925af190811561071857610cb992610cb292610cc0575b50610b04565b9560010190565b9497610b97565b610cd6908a3d8c116107115761070381836100de565b38610cac565b610cf2908a3d8c116107115761070381836100de565b38610c72565b610c26919350610d159060203d81116107625761075381836100de565b9290610c1b565b610d35919a5060203d81116107625761075381836100de565b9838610be2565b94509650505050610a709192610d52610a488390565b7f46fe258f9b69378b2af56b6f4717a455f67e88245e3eedd559efec2ccc047de482610d7d33610389565b92610a67610d8a60405190565b92839283610b11565b610dad91955060203d6020116107625761075381836100de565b9338610b7d565b610dc6610dc082610389565b91610389565b90600091610dd383610392565b94855b85871015610ef357610de783610389565b906020610df360405190565b6304a8fe6560e41b815292839060049082905afa91821561071857600092610ecf575b5081610e2191610476565b96610e406020610e3087610389565b93631249c58b90610c4d60405190565b82526004908290875af190811561071857600091610eb1575b50610e6330610389565b90833b156100a157610e7b9388928361097960405190565b03925af191821561071857610e9592610e9b575060010190565b95610dd6565b61070b90873d89116107115761070381836100de565b610ec9915060203d81116107625761075381836100de565b38610e59565b610e21919250610eec9060203d81116107625761075381836100de565b9190610e16565b9250945050610a709192610f07610a488390565b7f7612ff07618d9438cb4c66fb2e647e6be030a56a7bb621084de8e916ed50a0a882610d7d33610389565b15610f3957565b60405162461bcd60e51b815260206004820152602160248201527f4e6f20746f6b656e7320617661696c61626c6520666f7220717569636b2062756044820152607960f81b6064820152608490fd5b610f9181610389565b90610fa1610dc061058683610389565b632dcd52f291610fb060405190565b91610fbb8460e01b90565b8352602083600481845afa92831561071857600093611220575b50610fee600093610fe8610b8b86610392565b11610f32565b611001610ffa60405190565b9460e01b90565b8452602084600481845afa9081156107185761103660209261105496600091611203575b506110306001610392565b90610842565b9061104060405190565b9586928391829163cf6a68bf60e01b6106be565b03915afa928315610718576000936111de575b5061107190610389565b92602061107d60405190565b6304a8fe6560e41b815294859060049082905afa938415610718576000946111b9575b506110aa90610389565b63d96a094a813b156100a1576110c96110c260405190565b9160e01b90565b815260048101849052828160248188865af180156107185761119d575b506110f030610389565b90803b156100a15783839161111d938361110960405190565b80968195829461098d6323b872dd60e01b90565b03925af1801561071857611180575b50507fe6c0f990eeec49fb22637d492d2e1ea38a893b0e786aa61b8871dd338dfa7ed861117b61116461115e33610389565b93610392565b9361116e60405190565b9182918290815260200190565b0390a3565b8161119692903d106107115761070381836100de565b388061112c565b6111b390833d85116107115761070381836100de565b386110e6565b6110aa9194506111d79060203d6020116107625761075381836100de565b93906110a0565b6110719193506111fc9060203d6020116107625761075381836100de565b9290611067565b61121a9150843d86116107625761075381836100de565b38611025565b61123a91935060203d6020116107625761075381836100de565b9138610fd556fea264697066735822122080b4d2cb4968e839b998383a40695b74b38fd72806e843739fd6f051251918b164736f6c634300081c0033",
  "linkReferences": {},
  "deployedLinkReferences": {}
}